{
    "abi": [
        {
            "inputs": [],
            "name": "SIGNATURE_LENGTH",
            "outputs": [
                {
                    "internalType": "uint8",
                    "name": "",
                    "type": "uint8"
                }
            ],
            "stateMutability": "view",
            "type": "function"
        }
    ],
    "bytecode": {
        "object": "0x608080604052346018576075908161001e823930815050f35b600080fdfe6080806040526004361015601257600080fd5b60003560e01c63540bc5ea14602657600080fd5b6000366003190112603a5780604160209252f35b600080fdfea2646970667358221220e89139054c6e2c5c7e38c3754ab0ac1080b308e7537fef88b278cab6cf087c9b64736f6c63430008130033",
        "linkReferences": {}
    },
    "methodIdentifiers": {
        "SIGNATURE_LENGTH()": "540bc5ea"
    },
    "id": 61
}