{
  "abi": [
    {
      "inputs": [
        {
          "internalType": "address",
          "name": "_address",
          "type": "address"
        }
      ],
      "name": "isAccount",
      "outputs": [
        {
          "internalType": "bool",
          "name": "",
          "type": "bool"
        }
      ],
      "stateMutability": "view",
      "type": "function"
    },
    {
      "inputs": [
        {
          "internalType": "address",
          "name": "_address",
          "type": "address"
        }
      ],
      "name": "isSystemActor",
      "outputs": [
        {
          "internalType": "bool",
          "name": "",
          "type": "bool"
        }
      ],
      "stateMutability": "pure",
      "type": "function"
    }
  ],
  "bytecode": {
    "object": "0x6080806040523461001a576101949081610020823930815050f35b600080fdfe608080604052600436101561001357600080fd5b600090813560e01c90816325ca4c9c146100715750635d3f8a691461003757600080fd5b602036600319011261006e576004356001600160a01b0381169081900361006a5760405160ff60981b9091148152602090f35b5080fd5b80fd5b9050602036600319011261006a576004356001600160a01b038116810361015a57803b15918261012f575b826100af575b6020836040519015158152f35b908092503b67ffffffffffffffff80821161011b57601f8201601f19908116603f011683019081118382101761011b579360209460405281835284830180943c5190207fc5d2460186f7233c927e7db2dcc703c0e500b653ca82273b7bfad8045d85a4701438806100a2565b634e487b7160e01b85526041600452602485fd5b7fc5d2460186f7233c927e7db2dcc703c0e500b653ca82273b7bfad8045d85a470823f14925061009c565b8280fdfea2646970667358221220731bddc67736ece49eaa9e958bd140e516b1a76b0e1431c7f4dc461907dc671664736f6c63430008130033",
    "linkReferences": {}
  },
  "methodIdentifiers": {
    "isAccount(address)": "25ca4c9c",
    "isSystemActor(address)": "5d3f8a69"
  },
  "id": 55
}