{"abi":[{"type":"function","name":"applyCrossMessages","inputs":[{"name":"crossMsgs","type":"tuple[]","internalType":"struct CrossMsg[]","components":[{"name":"message","type":"tuple","internalType":"struct StorableMsg","components":[{"name":"from","type":"tuple","internalType":"struct IPCAddress","components":[{"name":"subnetId","type":"tuple","internalType":"struct SubnetID","components":[{"name":"root","type":"uint64","internalType":"uint64"},{"name":"route","type":"address[]","internalType":"address[]"}]},{"name":"rawAddress","type":"tuple","internalType":"struct FvmAddress","components":[{"name":"addrType","type":"uint8","internalType":"uint8"},{"name":"payload","type":"bytes","internalType":"bytes"}]}]},{"name":"to","type":"tuple","internalType":"struct IPCAddress","components":[{"name":"subnetId","type":"tuple","internalType":"struct SubnetID","components":[{"name":"root","type":"uint64","internalType":"uint64"},{"name":"route","type":"address[]","internalType":"address[]"}]},{"name":"rawAddress","type":"tuple","internalType":"struct FvmAddress","components":[{"name":"addrType","type":"uint8","internalType":"uint8"},{"name":"payload","type":"bytes","internalType":"bytes"}]}]},{"name":"value","type":"uint256","internalType":"uint256"},{"name":"nonce","type":"uint64","internalType":"uint64"},{"name":"method","type":"bytes4","internalType":"bytes4"},{"name":"params","type":"bytes","internalType":"bytes"},{"name":"fee","type":"uint256","internalType":"uint256"}]},{"name":"wrapped","type":"bool","internalType":"bool"}]}],"outputs":[],"stateMutability":"nonpayable"},{"type":"error","name":"InvalidCrossMsgDstSubnet","inputs":[]},{"type":"error","name":"InvalidCrossMsgNonce","inputs":[]},{"type":"error","name":"NotRegisteredSubnet","inputs":[]},{"type":"error","name":"NotSystemActor","inputs":[]}],"bytecode":{"object":"0x608080604052346100165761163d908161001c8239f35b600080fdfe608060409080825260048036101561001657600080fd5b60009260e08435811c63c62eb4d51461002e57600080fd5b346104655760209182600319360112610461578335916001600160401b039586841161045d573660238501121561045d578386013593878511610459576024926005948487871b8401019336851161045557635d3f8a6960e01b8152338a8201528881878173__$e800e3908cdbb6b1b5bd452383a17b18f7$__5af49081156103ef578c91610428575b5015610419578051996100ca8b610469565b80601954168b5281518c8180928c601a54918281520190601a84528d7f057c384a7d1c54f3a1b2e5e67b2617b8224fdfd1ea7234eea573a6ff665ff63e94905b8282106103f9575050506101209250038261049a565b898c01528b898b61014785519e8f9384936308c7427760e11b85528401528a830190610566565b038173__$a0fe38a9a81205afccc10810b09a4d3f45$__5af49a8b156103ef578c9b610323575b5061017888610536565b976101858351998a61049a565b8852858401938989015b8686106101e25750505050505050825194875b8681106101ad578880f35b84518110156101d057806101ca87600193871b880101518a61094e565b016101a2565b50634e487b7160e01b88526032905286fd5b853583811161031f57820190602319858184360301126102f35785519261020884610469565b8a8101358681116103195788908201928336030112610314578651888101818110888211176102fe5788528b8301358781116102f75761024d908d3691860101610637565b815260448301358781116102f7578f9061026c908e3691870101610637565b90820152606483013588820152610285608484016105c1565b606082015260a48301356001600160e01b0319811681036102f757608082015260c48301358781116102f7576044936102c560e4928f36918401016105f0565b60a0840152013560c0820152845201359081151582036102f357828d9392848094015281520195019461018f565b8f80fd5b5050508f80fd5b50505050888f60418f634e487b7160e01b835252fd5b508f80fd5b50508f80fd5b8e80fd5b909a503d808d833e610335818361049a565b81019089818303126103eb578051908c82116103e757019082828203126103eb5782519161036283610469565b80518d8116810361031f5783528a810151908d821161031f57019080601f830112156103e757815161039381610536565b926103a08651948561049a565b8184528c808501928c1b8201019283116102f3578c809101915b8383106103cf5750915050820152993861016e565b81906103da8461054d565b8152019101908c906103ba565b8d80fd5b8c80fd5b82513d8e823e3d90fd5b85546001600160a01b03168452600195860195879550930192018e61010a565b5163f0d97f3b60e01b81528890fd5b6104489150893d8b1161044e575b610440818361049a565b810190610751565b386100b8565b503d610436565b8b80fd5b8880fd5b8780fd5b8580fd5b8480fd5b604081019081106001600160401b0382111761048457604052565b634e487b7160e01b600052604160045260246000fd5b90601f801991011681019081106001600160401b0382111761048457604052565b906040516104c881610469565b80926001600160401b03815416825260018091019160405191828481955492838652602080960191600052856000209060005b8786821061051757505050506105139250038461049a565b0152565b83546001600160a01b03168552899550909301929181019181016104fb565b6001600160401b0381116104845760051b60200190565b51906001600160a01b038216820361056157565b600080fd5b60609060408301906001600160401b03815116845260209283809201519460408382015285518094520193019160005b8281106105a4575050505090565b83516001600160a01b031685529381019392810192600101610596565b35906001600160401b038216820361056157565b6001600160401b03811161048457601f01601f191660200190565b81601f8201121561056157803590610607826105d5565b92610615604051948561049a565b8284526020838301011161056157816000926020809301838601378301015290565b9190604092838183031261056157835161065081610469565b80948235936001600160401b039485811161056157840193828583031261056157825161067c81610469565b610685866105c1565b81526020958681013590888211610561570183601f82011215610561578035906106ae82610536565b916106bb8751938461049a565b808352888084019160051b83010191868311610561578901905b828210610732575050508682015284528481013590868211610561570191808383031261056157519461070786610469565b823560ff81168103610561578652848301359081116105615761072a92016105f0565b828401520152565b81356001600160a01b03811681036105615781529089019089016106d5565b90816020910312610561575180151581036105615790565b60408101906001600160401b036019541681526060602091604083820152601a548094520191601a6000527f057c384a7d1c54f3a1b2e5e67b2617b8224fdfd1ea7234eea573a6ff665ff63e916000905b8282106107c8575050505090565b83546001600160a01b0316855293840193600193840193909101906107ba565b8181106107f3575050565b600081556001016107e8565b60005b8381106108125750506000910152565b8181015183820152602001610802565b9060209161083b815180928185528580860191016107ff565b601f01601f1916010190565b604060206108839381610861855185845285840190610566565b940151908281860391015260ff81511684520151918160208201520190610822565b90565b9060c0806108f76108b56108a3865160e0875260e0870190610847565b60208701518682036020880152610847565b604086015160408601526001600160401b03606087015116606086015263ffffffff60e01b608087015116608086015260a086015185820360a0870152610822565b93015191015290565b6002111561090a57565b634e487b7160e01b600052602160045260246000fd5b9060016001600160401b038093160191821161093857565b634e487b7160e01b600052601160045260246000fd5b6020825101515173__$a0fe38a9a81205afccc10810b09a4d3f45$__9160405160208180610991630c133d1360e31b968783528460048401526024830190610566565b0381875af4908115610ce65760009161155b575b5061154957602084510151516109d36040519163c836244d60e01b8352604060048401526044830190610566565b90602081806109ee6003199586838203016024840152610769565b0381885af4908115610ce65760009161152a575b5015610ee3576040516000610a1682610469565b8082526020820152906020610a4c8751610a5b604051948593849363f47ad7eb60e01b8552604060048601526044850190610886565b90838203016024840152610769565b038173__$386b5c41ce93e8b832daf8008b3d30ae09$__5af4908115610ce657600091610ea8575b50610a8d81610900565b60018103610e0d5750506020610abe91604051809381926390ba52cf60e01b83528460048401526024830190610566565b0381865af4908115610ce657600091610ddb575b5060005260006020526040600020610b0e60206004830193610af3856104bb565b90604051938492839283528460048401526024830190610566565b0381875af4908115610ce657600091610dbc575b50610daa57600301918254916001600160401b0390818460401c1691606087510151168203610d9857610ba89460209467ffffffffffffffff60401b610b6a610b8595610920565b60401b169067ffffffffffffffff60401b19161790556104bb565b906040518080958194632cff562160e11b83528660048401526024830190610566565b03915af4908115610ce657600091610d59575b50604080516380875df760e01b815291829060049082906001600160a01b03165afa908115610ce657600091610cf2575b506000905b604051809381926373b464b760e01b8352606060048401526020610c2183516040606487015260a4860190610886565b920151151560848401528051610c3681610900565b6024840152602001516001600160a01b03166044830152038173__$33b79814e84bf6cf5e47244090b19ce5f8$__5af48015610ce657610c735750565b3d806000833e610c83818361049a565b810190602081830312610561578051906001600160401b038211610561570181601f8201121561056157805190610cb9826105d5565b92610cc7604051948561049a565b8284526020838301011161056157602080610ce4940191016107ff565b565b6040513d6000823e3d90fd5b6040813d604011610d51575b81610d0b6040938361049a565b81010312610d4d5760405191610d2083610469565b8151906002821015610d4a575060208392610d3f92600095520161054d565b602082015290610bec565b80fd5b5080fd5b3d9150610cfe565b906020823d602011610d90575b81610d736020938361049a565b81010312610d4a57506040610d8960049261054d565b9150610bbb565b3d9150610d66565b60405163a57cadff60e01b8152600490fd5b604051630e991abd60e41b8152600490fd5b610dd5915060203d60201161044e57610440818361049a565b38610b22565b906020823d602011610e05575b81610df56020938361049a565b81010312610d4a57505138610ad2565b3d9150610de8565b9250925050610e1b81610900565b15610e29575b600090610bf1565b50601c546001600160401b03808260481c1690606084510151168103610d9857610e5e67ffffffffffffffff60481b91610920565b60481b169067ffffffffffffffff60481b191617601c5560006020604051610e8581610469565b82815201526000604051610e9881610469565b8181528160208201529050610e21565b6020813d602011610edb575b81610ec16020938361049a565b81010312610d4d5751906002821015610d4a575038610a83565b3d9150610eb4565b5050505060405190602082016020815281519260408082015260c0610f7c610f18865160e0608086015261016085019061157a565b610f34602088015191607f1992838783030160a088015261157a565b60408801518585015260608801516001600160401b031660e086015260808801516001600160e01b03191661010086015260a088015185820390920161012086015290610822565b940151610140820152610fa581602085019586511515606083015203601f19810183528261049a565b519020600052600360205260406000209051805180516001600160401b038151166001600160401b0319855416178455602060018501910151908151916001600160401b03831161048457600160401b831161048457602090825484845580851061150d575b500190600052602060002060005b8381106114f0575050505060208091015160ff815116600285019060ff1982541617905501518051906001600160401b03821161048457600384015490600182811c921680156114e6575b602083101461132d5781601f8493116114b1575b50602090601f831160011461143f57600092611434575b50508160011b916000199060031b1c19161760038301555b600482016020820151908151906001600160401b038251166001600160401b0319825416179055602060058501910151908151916001600160401b03831161048457600160401b8311610484576020908254848455808510611417575b500190600052602060002060005b8381106113fa57505050506020600684019101519060ff82511660ff198254161790556020600784019101518051906001600160401b03821161048457825490600182811c921680156113f0575b602083101461132d5781601f8493116113be575b50602090601f83116001146113585760009261134d575b50508160011b916000199060031b1c19161790555b60408101516008830155600982016001600160401b036060830151168154906bffffffff0000000000000000608085015160a01c16916bffffffffffffffffffffffff191617179055600a820160a08201518051906001600160401b038211610484578254600181811c91168015611343575b602082101461132d57601f81116112f0575b50602090601f831160011461128157918060c09492600c979694600092611276575b50508160011b916000199060031b1c19161790555b0151600b820155019051151560ff80198354169116179055565b015190503880611247565b90601f198316918460005260206000209260005b8181106112d85750926001928592600c99989660c09896106112bf575b505050811b01905561125c565b015160001960f88460031b161c191690553880806112b2565b92936020600181928786015181550195019301611295565b61131d90846000526020600020601f850160051c81019160208610611323575b601f0160051c01906107e8565b38611225565b9091508190611310565b634e487b7160e01b600052602260045260246000fd5b90607f1690611213565b01519050388061118b565b6000858152602081209350601f198516905b8181106113a6575090846001959493921061138d575b505050811b0190556111a0565b015160001960f88460031b161c19169055388080611380565b9293602060018192878601518155019501930161136a565b6113ea90856000526020600020601f850160051c8101916020861061132357601f0160051c01906107e8565b38611174565b91607f1691611160565b82516001600160a01b031681830155602090920191600101611112565b61142e9084600052858460002091820191016107e8565b38611104565b01519050388061108f565b9250600385016000526020600020906000935b601f1984168510611496576001945083601f1981161061147d575b505050811b0160038301556110a7565b015160001960f88460031b161c1916905538808061146d565b81810151835560209485019460019093019290910190611452565b6114e090600387016000526020600020601f850160051c8101916020861061132357601f0160051c01906107e8565b38611078565b91607f1691611064565b82516001600160a01b031681830155602090920191600101611019565b6115249084600052858460002091820191016107e8565b3861100b565b611543915060203d60201161044e57610440818361049a565b38610a02565b60405163c5f563eb60e01b8152600490fd5b611574915060203d60201161044e57610440818361049a565b386109a5565b91908251906040815260808101936001600160401b038351166040830152602080930151946040606084015285518091528360a0840196019060005b8181106115ea575050509360408381938161088397980151908281860391015260ff81511684520151938201520190610822565b82516001600160a01b0316885296850196918501916001016115b656fea264697066735822122005881028574a21639c3cb4d9d5bc2c20e70622999c6082a2414cc35ec07c6f2564736f6c63430008130033","linkReferences":{"src/lib/AccountHelper.sol":{"AccountHelper":[{"start":177,"length":20}]},"src/lib/CrossMsgHelper.sol":{"CrossMsgHelper":[{"start":3181,"length":20}]},"src/lib/StorableMsgHelper.sol":{"StorableMsgHelper":[{"start":2683,"length":20}]},"src/lib/SubnetIDHelper.sol":{"SubnetIDHelper":[{"start":359,"length":20},{"start":2419,"length":20}]}}},"methodIdentifiers":{"applyCrossMessages(((((uint64,address[]),(uint8,bytes)),((uint64,address[]),(uint8,bytes)),uint256,uint64,bytes4,bytes,uint256),bool)[])":"c62eb4d5"},"id":52}