{"abi":[{"type":"function","name":"submitBottomUpMsgBatch","inputs":[{"name":"batch","type":"tuple","internalType":"struct BottomUpMsgBatch","components":[{"name":"subnetID","type":"tuple","internalType":"struct SubnetID","components":[{"name":"root","type":"uint64","internalType":"uint64"},{"name":"route","type":"address[]","internalType":"address[]"}]},{"name":"blockHeight","type":"uint256","internalType":"uint256"},{"name":"msgs","type":"tuple[]","internalType":"struct CrossMsg[]","components":[{"name":"message","type":"tuple","internalType":"struct StorableMsg","components":[{"name":"from","type":"tuple","internalType":"struct IPCAddress","components":[{"name":"subnetId","type":"tuple","internalType":"struct SubnetID","components":[{"name":"root","type":"uint64","internalType":"uint64"},{"name":"route","type":"address[]","internalType":"address[]"}]},{"name":"rawAddress","type":"tuple","internalType":"struct FvmAddress","components":[{"name":"addrType","type":"uint8","internalType":"uint8"},{"name":"payload","type":"bytes","internalType":"bytes"}]}]},{"name":"to","type":"tuple","internalType":"struct IPCAddress","components":[{"name":"subnetId","type":"tuple","internalType":"struct SubnetID","components":[{"name":"root","type":"uint64","internalType":"uint64"},{"name":"route","type":"address[]","internalType":"address[]"}]},{"name":"rawAddress","type":"tuple","internalType":"struct FvmAddress","components":[{"name":"addrType","type":"uint8","internalType":"uint8"},{"name":"payload","type":"bytes","internalType":"bytes"}]}]},{"name":"value","type":"uint256","internalType":"uint256"},{"name":"nonce","type":"uint64","internalType":"uint64"},{"name":"method","type":"bytes4","internalType":"bytes4"},{"name":"params","type":"bytes","internalType":"bytes"},{"name":"fee","type":"uint256","internalType":"uint256"}]},{"name":"wrapped","type":"bool","internalType":"bool"}]}]},{"name":"signatories","type":"address[]","internalType":"address[]"},{"name":"signatures","type":"bytes[]","internalType":"bytes[]"}],"outputs":[],"stateMutability":"nonpayable"},{"type":"function","name":"submitCheckpoint","inputs":[{"name":"checkpoint","type":"tuple","internalType":"struct BottomUpCheckpoint","components":[{"name":"subnetID","type":"tuple","internalType":"struct SubnetID","components":[{"name":"root","type":"uint64","internalType":"uint64"},{"name":"route","type":"address[]","internalType":"address[]"}]},{"name":"blockHeight","type":"uint256","internalType":"uint256"},{"name":"blockHash","type":"bytes32","internalType":"bytes32"},{"name":"nextConfigurationNumber","type":"uint64","internalType":"uint64"}]},{"name":"signatories","type":"address[]","internalType":"address[]"},{"name":"signatures","type":"bytes[]","internalType":"bytes[]"}],"outputs":[],"stateMutability":"nonpayable"},{"type":"function","name":"validateActiveQuorumSignatures","inputs":[{"name":"signatories","type":"address[]","internalType":"address[]"},{"name":"hash","type":"bytes32","internalType":"bytes32"},{"name":"signatures","type":"bytes[]","internalType":"bytes[]"}],"outputs":[],"stateMutability":"view"},{"type":"event","name":"Paused","inputs":[{"name":"account","type":"address","indexed":false,"internalType":"address"}],"anonymous":false},{"type":"event","name":"Unpaused","inputs":[{"name":"account","type":"address","indexed":false,"internalType":"address"}],"anonymous":false},{"type":"error","name":"AddressShouldBeValidator","inputs":[]},{"type":"error","name":"BatchWithNoMessages","inputs":[]},{"type":"error","name":"CannotConfirmFutureChanges","inputs":[]},{"type":"error","name":"EnforcedPause","inputs":[]},{"type":"error","name":"ExpectedPause","inputs":[]},{"type":"error","name":"InvalidBatchEpoch","inputs":[]},{"type":"error","name":"InvalidCheckpointEpoch","inputs":[]},{"type":"error","name":"InvalidSignatureErr","inputs":[{"name":"","type":"uint8","internalType":"uint8"}]},{"type":"error","name":"MaxMsgsPerBatchExceeded","inputs":[]},{"type":"error","name":"NotValidator","inputs":[{"name":"","type":"address","internalType":"address"}]},{"type":"error","name":"PQDoesNotContainAddress","inputs":[]},{"type":"error","name":"PQEmpty","inputs":[]},{"type":"error","name":"ReentrancyError","inputs":[]}],"bytecode":{"object":"0x6080806040523461001657612ef3908161001c8239f35b600080fdfe608080604052600436101561001357600080fd5b600090813560e01c908163268119361461051957508063b9ee2bb9146100c45763cc2dc2b91461004257600080fd5b346100c15760603660031901126100c1576001600160401b036004358181116100bd57366023820112156100bd5761008490369060248160040135910161080d565b6044359182116100bd57366023830112156100bd576100b06100ba92369060248160040135910161087e565b9060243590612b18565b80f35b8280fd5b80fd5b50346100c157600319606036820112610365576001600160401b03600435116103655760806004356004019160043536030112610365576024356001600160401b0381116100bd5761011a903690600401610748565b91906044356001600160401b0381116105155761013b903690600401610748565b9160ff7fc451c9429c27db68f286ab8a68f311f1dccab703ba9423aed29cd397ae63f86354166105035760055494600b54956101778782610926565b602460043501351415806104f3575b6104e157604051906101be60208301836101a08a83610a15565b03936101b4601f19958681018352826107c1565b5190209882610926565b60043560240135036103de575050916101e16101e9926101ef969794369161080d565b93369161087e565b91612b18565b60246004350135825281602052604082209080356042196004353603018112156103da576004350191600483016001600160401b0361022d82610a66565b16936001600160401b031994858454161783556102536001926024848601930190610a7a565b91906001600160401b0383116103c657600160401b83116103c65781548383558084106103ab575b509087959493929190865260208620865b838110610374575050505050600480356024810135600284015560448101356003840155606401949101906001600160401b036102c886610a66565b169082541617905560246004350135825260226020526102ec604083203390610ac6565b5060043560240135600555600e546001600160a01b0316803b156100bd576040516347dc9b4f60e01b8152918391839182908490829061032f9060048301610a15565b03925af1801561036957610351575b505061034c6100ba91610a66565b610d6e565b61035a906107ae565b61036557813861033e565b5080fd5b6040513d84823e3d90fd5b909180939495969750359060018060a01b03821682036103a757602086929401938184015501908896959493929161028c565b8980fd5b828952602089206103c0918101908501610aaf565b3861027b565b634e487b7160e01b88526041600452602488fd5b8380fd5b9450945050505060246004350135146103f657505080f35b60246004350135835282602052604083206040519060208201926020845260806040840152826101008101926001600160401b0381541660c083015260019081810191604060e085015282548096526101208401928a5260208a20908a5b8781106104c0575050506002810154606084015260038101546080840152600401546001600160401b031660a08301520390810183526104959150826107c1565b519020146104a05780f35b60246004350135815260226020526104bc604082203390610ac6565b5080f35b82546001600160a01b03168552889550602090940193918101918101610454565b60405163fae4eadb60e01b8152600490fd5b5080602460043501351415610186565b60405163d93c066560e01b8152600490fd5b8480fd5b90503461036557600319906060368301126100bd57600435916001600160401b039081841161051557606084600401918536030112610515576024358281116107445761056a903690600401610748565b9260443581811161074057610583903690600401610748565b92909160248801359760065497888a106107315750604401906105a68287610a7a565b9190506009541680911161071f576105be8287610a7a565b90501415806106f8575b6106e6576105d69085610a7a565b9050156106d45787946040516020810190610603816105f58985612996565b03601f1981018352826107c1565b519020968803610634575050505050506007541461061f575080f35b815260236020526104bc604082203390610ac6565b61064e93926101e1889698936101e9939a989a369161080d565b80602060405161065d8161077d565b8481520152816006556007558252602360205261067e604083203390610ac6565b50600e546001600160a01b031690813b156106d05782916106b591604051948580948193630bed761560e01b835260048301612996565b03925af18015610369576106c7575080f35b6100ba906107ae565b5050fd5b6040516338d2307f60e01b8152600490fd5b60405163200c52f760e21b8152600490fd5b50600854801561070b57880615156105c8565b634e487b7160e01b8a52601260045260248afd5b60405163351c700760e01b8152600490fd5b63200c52f760e21b8152600490fd5b8780fd5b8580fd5b9181601f84011215610778578235916001600160401b038311610778576020808501948460051b01011161077857565b600080fd5b604081019081106001600160401b0382111761079857604052565b634e487b7160e01b600052604160045260246000fd5b6001600160401b03811161079857604052565b90601f801991011681019081106001600160401b0382111761079857604052565b6001600160401b0381116107985760051b60200190565b35906001600160a01b038216820361077857565b9291610818826107e2565b9161082660405193846107c1565b829481845260208094019160051b810192831161077857905b82821061084c5750505050565b838091610858846107f9565b81520191019061083f565b6001600160401b03811161079857601f01601f191660200190565b9291909261088b846107e2565b9160409461089b865194856107c1565b839581855260208095019160051b8401938385116107785780925b8584106108c65750505050505050565b83356001600160401b03811161077857820185601f82011215610778578035916108ef83610863565b6108fb865191826107c1565b838152878a85850101116107785760008a8581968280970183860137830101528152019301926108b6565b9190820180921161093357565b634e487b7160e01b600052601160045260246000fd5b9035603e1982360301811215610778570190565b35906001600160401b038216820361077857565b9035601e19823603018112156107785701602081359101916001600160401b038211610778578160051b3603831361077857565b60408201916001600160401b036109bb8361095d565b16815260606109cf60209384810190610971565b839195604086839601525201929160005b8281106109ee575050505090565b909192938280600192838060a01b03610a06896107f9565b168152019501939291016109e0565b6020815260806001600160401b03610a5f6060610a45610a358780610949565b85602088015260a08701906109a5565b95602081013560408701526040810135828701520161095d565b1691015290565b356001600160401b03811681036107785790565b903590601e198136030182121561077857018035906001600160401b03821161077857602001918160051b3603831361077857565b818110610aba575050565b60008155600101610aaf565b91906001830160009082825280602052604082205415600014610b4557845494600160401b861015610b315760018601808255861015610b1d57836040949596828552602085200155549382526020522055600190565b634e487b7160e01b83526032600452602483fd5b634e487b7160e01b83526041600452602483fd5b50925050565b60041115610b5557565b634e487b7160e01b600052602160045260246000fd5b90600182811c92168015610b9b575b6020831014610b8557565b634e487b7160e01b600052602260045260246000fd5b91607f1691610b7a565b9060405191826000825492610bb984610b6b565b908184526001948581169081600014610c285750600114610be5575b5050610be3925003836107c1565b565b9093915060005260209081600020936000915b818310610c10575050610be393508201013880610bd5565b85548884018501529485019487945091830191610bf8565b915050610be394506020925060ff191682840152151560051b8201013880610bd5565b9190601f8111610c5a57505050565b610be3926000526020600020906020601f840160051c83019310610c86575b601f0160051c0190610aaf565b9091508190610c79565b90808214610d6a57610ca28154610b6b565b906001600160401b038211610798578190610cc782610cc18654610b6b565b86610c4b565b600090601f8311600114610cfe57600092610cf3575b50508160011b916000199060031b1c1916179055565b015490503880610cdd565b81526020808220858352818320935090601f1985169083905b828210610d51575050908460019594939210610d38575b505050811b019055565b015460001960f88460031b161c19169055388080610d2e565b8495819295850154815560018091019601940190610d17565b5050565b601c54906001600160401b039081168183168110610d985760405163040aaa0560e11b8152600490fd5b818360401c1681106113215781604093841c165b818382161115610e14575060018101918211610933577f246f00b61ce672242f33bb680a47147cd54d3dfd04dbb76956ba42f88087bf639260209267ffffffffffffffff60401b601c5491831b169067ffffffffffffffff60401b191617601c5551908152a1565b82610e32826001600160401b0316600052601d602052604060002090565b9160018060a01b03806002850154169060ff855416610e5081610b4b565b60028103610ec35750506003610e816001610e87949596019260018060a01b03166000526015602052604060002090565b01610c90565b610ea4816001600160401b0316600052601d602052604060002090565b9060008083556002600193610eba85820161138a565b01550116610dac565b909350610ecf81610b4b565b600393818503611064575050610ee86001809501610ba5565b9081518201936020928981858801970312610778578381015189811161077857810186603f82011215610778578481015190610f2382610863565b97610f308d51998a6107c1565b8289528c8383010111610778578b9291869160005b82811061104d575050906000918901015201519281610f768460018060a01b03166000526015602052604060002090565b01918651918a8311610798578a97610f9884610f928754610b6b565b87610c4b565b81601f8511600114610fdc5750610fcc9798998493928492600095610fd1575b50501b92600019911b1c1916179055611339565b610e87565b015193503880610fb8565b91601f9a9493919a1984168660005283600020936000905b8282106110335750509a84610fcc9a9b9c10611019575b50505050811b019055611339565b01519060f884600019921b161c191690553880808061100b565b838e015186558f9c50948701949283019290810190610ff4565b818101909501518a86018401528d94889301610f45565b91909294936110766001809601610ba5565b602081805181010312610778576020869101519461109381610b4b565b036112855761112c906110c485876110bd8660018060a01b03166000526015602052604060002090565b015461137d565b9060026110e38560018060a01b03166000526015602052604060002090565b01548215908161127c575b5015611259576001600160a01b038416600090815260156020526040902061112691906000808255808a83015560028201550161138a565b82611869565b601461113984825461137d565b9055611147601e5443610926565b88516111528161077d565b81815260208101858152600096848852601f6020528b88209283549161ffff93838580951694859160101c16018581116112455785168b528582016020528e8b2092518355519101557f083b080788e20bd0930c2bca2ae4fbc51a59ced08c1b5992271f8cb439498a63946060949093909290916111cf90611326565b1661ffff198254161790558a519182528560208301528a820152a1600e541690813b156100bd57829160248392895195869384926345f5448560e01b845260048401525af190811561123a57509084929161122b575b50610e87565b611234906107ae565b38611225565b8651903d90823e3d90fd5b634e487b7160e01b8c52601160045260248cfd5b506001600160a01b03831660009081526015602052604090208190870155611126565b905015386110ee565b5092836112b584836112ae6112e796979860018060a01b03166000526015602052604060002090565b0154610926565b6001600160a01b038216600090815260156020526040902090928391015560146112e0868254610926565b90556113d3565b600e541690813b15610778578551916316989f6f60e21b83528260048160009485945af190811561123a57509084929161122b5750610e87565b505050565b90600161ffff8093160191821161093357565b9060018060a01b03821660005260156020526040600020818154915581811460001461136457505050565b81111561137457610be3916116e3565b610be391611bbc565b9190820391821161093357565b6113948154610b6b565b908161139e575050565b81601f600093116001146113b0575055565b9080839182526113cf601f60208420940160051c840160018501610aaf565b5555565b919060018060a01b03928381166000948186526020916017835261ffff916040978389822054166115f2578360135460081c168460165416106115be5761141861269a565b60019283825260188652828a832054168861143282611d39565b1061153857508152601a85528389822054166114a157505050505061149c7f19fe3ca603e87854a0747cc10abf06bac64d61bac73d6d15f2fd3ca448f15264939461147c83611cc9565b516001600160a01b03909216825260208201929092529081906040820190565b0390a1565b6114aa866126ed565b926114b487611d39565b935b81868216116114fa575b505097516001600160a01b039095168552505050506020810191909152909150600080516020612e9e83398151915290806040810161149c565b808561151986617fff8f95871c1694858852601b8c5287205416611d39565b1015611532579061152b83928261284c565b90506114b6565b506114c0565b969750899493507ffaeb8de771b867cf357f6b459a7002b62ec45d544a8078a3ecd91200cc826d759899925061149c95601a91611573612274565b8352522054166115b0575b61158784612200565b61159083611cc9565b516001600160a01b03928316815292909116602083015281906040820190565b6115b984611f03565b61157e565b505050505061149c7f2e8038f5812f763c6ef0c5427cb5a05ce6d7064af2ba7d1d270bc02660b019fd939461147c83612200565b9792915061160385949796956126b6565b9761160d85611d39565b976116178a6120f5565b8460165416905b8581168281116116be57828110156116a257508061163e61164492611326565b9061264a565b9b909b5b8b111561166757611659908c6127b3565b6116628b6120f5565b61161e565b505093516001600160a01b039095168552505050506020810191909152909250600080516020612e7e8339815191529150806040810161149c565b849c919c52601883526116b9858886205416611d39565b611648565b5050505050505061149c9192939550600080516020612e7e833981519152945061147c565b6001600160a01b03808216600081815260176020526040808220549095949361ffff93918416611837578360135460081c168460165416106118055761172761269a565b60018352601860205286832054168561173f82611d39565b106117b157508152601a60205284902054166117835761149c7f19fe3ca603e87854a0747cc10abf06bac64d61bac73d6d15f2fd3ca448f152649361147c83611cc9565b61149c600080516020612e9e8339815191529361147c6117a2846126ed565b6117ab85611d39565b906120a0565b93945091857ffaeb8de771b867cf357f6b459a7002b62ec45d544a8078a3ecd91200cc826d75969261149c946117e5612274565b8152601a6020522054166117fc5761158784612200565b6115b984611f8e565b5050505061149c7f2e8038f5812f763c6ef0c5427cb5a05ce6d7064af2ba7d1d270bc02660b019fd9361147c83612200565b5050505061149c600080516020612e7e8339815191529361147c61185a846126b6565b61186385611d39565b906125b7565b909160018060a01b0392838316906000938285526020601a815261ffff95604094878683205416611a92578082526017835287868320541615611a815784156119d857506118b6836126b6565b976118c084611d39565b985b6001808a831611156119c95781617fff911c1690818452601885528a6118ec848a87205416611d39565b1115611901576118fc90826127b3565b6118c2565b505091939597509193955b60195416156119c15761191d61269a565b60018252601883528581818420541692601b61193885611d39565b956119416126a8565b60018352522054169161195383611d39565b1161198857505091516001600160a01b0390921682526020820152600080516020612e7e83398151915290806040810161149c565b9150915061149c7ffaeb8de771b867cf357f6b459a7002b62ec45d544a8078a3ecd91200cc826d75936119b9612274565b61157e611d9c565b505050505050565b5050919395975091939561190c565b829450611a0c7f4a4c5d1a281180eea1e99d8177fa4798b9f7e019d5c57e7d8d73c6a22199aa5b93929894999697996123bd565b8651908152a160195416611a21575b50505050565b7f2e8038f5812f763c6ef0c5427cb5a05ce6d7064af2ba7d1d270bc02660b019fd93601b8492611a4f6126a8565b6001835252205416611a75611a6382611d39565b92611a6c611d9c565b61147c83612200565b0390a138808080611a1b565b8551632a55ca5360e01b8152600490fd5b84969792939598919415611b81575061fffe9193611aaf866126ed565b93611ab987611d39565b9480966001958692831b168160195416925b611b0d575b505099516001600160a01b03909716875250505050602083019390935250919250600080516020612e9e833981519152919050806040810161149c565b818116838111611b7b578d9084811015611b5f57505080611b30611b3692611326565b906121a8565b9890985b881015611b5a57611b4b908961284c565b611b54886120f5565b86611acb565b611ad0565b8652601b8552852054909890611b76908716611d39565b611b3a565b50611ad0565b94915050611bb59194507f3168ba660eed6ef1dc2258b2247cc05fd0f2f350d39e6ad2e2ebc76a8000b40b95969250611f03565b51908152a1565b6001600160a01b038082166000818152601a602090815260408083205490969594919361ffff918216611c5f578084526017855281888520541615611c4e578615611c1d575061190c611c0e866126b6565b611c1787611d39565b90612568565b849193979650611a0c7f4a4c5d1a281180eea1e99d8177fa4798b9f7e019d5c57e7d8d73c6a22199aa5b9396612448565b8751632a55ca5360e01b8152600490fd5b9693925050508315611c9c5750600080516020612e9e833981519152935061149c9061147c611c8d846126ed565b611c9685611d39565b9061210c565b9250611bb57f3168ba660eed6ef1dc2258b2247cc05fd0f2f350d39e6ad2e2ebc76a8000b40b9492611f8e565b610be3906117ab61ffff91611ce18360195416611326565b9260018060a01b0382169081600052601a60205260406000209085169161ffff1991838382541617905582600052601b6020526040600020906bffffffffffffffffffffffff60a01b82541617905560195416176019555b60ff601354166003811015610b5557600103611d6a576001600160a01b031660009081526015602052604090205490565b6001600160a01b031660009081526015602052604090206001015490565b61ffff908116600019019190821161093357565b61ffff8060195416908115611ef15790600190611dbb81831115612796565b6000828152601b60208181526040808420805486865282862080546001600160a01b03928316808952601a8752858920805461ffff199081168c17909155918416808a52868a20805484168d17905588885283546001600160a01b03199081169092179093558a895284541690911790925592958795939492939291611e5591908a611e4683611d88565b16906019541617601955612712565b848252808652611e69848484205416611d39565b95859860028160195416995b611e87575b5050505050505050505050565b8181168a8111611eeb578a811015611ed0575080611b30611ea792611326565b9a909a5b891015611ecb57611ebc908b61284c565b611ec58a6120f5565b87611e75565b611e7a565b859b919b52838352611ee6878787205416611d39565b611eab565b50611e7a565b6040516340d9b01160e01b8152600490fd5b611f0c906126ed565b61ffff90816019541691611f20838361284c565b80611f2a84611d88565b1661ffff196019541617601955611f4083612712565b8116809214610d6a57611c9682610be393600052601b60205260018060a01b0390611f7a611f748360406000205416611d39565b856120a0565b600052601b60205260406000205416611d39565b611f97906126ed565b61ffff90816019541691611fab838361284c565b80611fb584611d88565b1661ffff196019541617601955611fcb83612712565b808216809314611321579161fffe91600091808352601b9060209382855260018060a01b039260409261200b612005868686205416611d39565b876120a0565b825280865261201e848484205416611d39565b9585986001988997881b168160195416995b612041575050505050505050505050565b8181168a8111611eeb578a811015612085575080611b3061206192611326565b9a909a5b891015611ecb57612076908b61284c565b61207f8a6120f5565b87612030565b859b919b5283835261209b878787205416611d39565b612065565b9190915b60018061ffff831611156120ef5781617fff911c1690836120da6000848152601b602052604060018060a01b0391205416611d39565b10156120ef576120ea908261284c565b6120a4565b50509050565b60011b906201fffe61fffe83169216820361093357565b90600161fffe83821b168160009161ffff908160195416925b612133575b50505050505050565b8181168381116121a2578381101561217c575080611b3061215392611326565b9690965b86101561217757612168908761284c565b612171866120f5565b84612125565b61212a565b8452601b602052604084205490969061219d906001600160a01b0316611d39565b612157565b5061212a565b91909161ffff92838216600052601b6020526121eb60018060a01b036121d48160406000205416611d39565b958316600052601b60205260406000205416611d39565b908185106121f95750509190565b9350919050565b610be390611c1761ffff916122188360165416611326565b9260018060a01b0382169081600052601760205260406000209085169161ffff199183838254161790558260005260186020526040600020906bffffffffffffffffffffffff60a01b8254161790556016541617601655611d39565b61ffff8060165416908115611ef1579060019061229381831115612796565b6000828152601860208181526040808420805486865282862080546001600160a01b0392831680895260178752858920805461ffff199081168c17909155918416808a52868a20805484168d17905588885283546001600160a01b03199081169092179093558a89528454169091179092559295879593949293929161232d91908a61231e83611d88565b16906016541617601655612754565b848252808652612341848484205416611d39565b95859860028160165416995b61235e575050505050505050505050565b8181168a8111611eeb578a8110156123a257508061163e61237e92611326565b9a909a5b891115611ecb57612393908b6127b3565b61239c8a6120f5565b8761234d565b859b919b528383526123b8878787205416611d39565b612382565b6123c6906126b6565b61ffff908160165416916123da83836127b3565b806123e484611d88565b1661ffff1960165416176016556123fa83612754565b8116809214610d6a5761186382610be393600052601860205260018060a01b039061243461242e8360406000205416611d39565b85612568565b600052601860205260406000205416611d39565b612451906126b6565b9061ffff9081601654169061246682856127b3565b8261247083611d88565b1661ffff19601654161760165561248682612754565b8284168092146125625760009291929183835260189260209484865260018060a01b03916040916124c46124be858585205416611d39565b8a612568565b81528587526124d7838383205416611d39565b956124e1896120f5565b978560165416985b8681168a8111612554578a81101561253957508061163e61250992611326565b9a909a5b89111561252c5761251e908b6127b3565b6125278a6120f5565b6124e9565b5050505050505092505050565b849b919b5282825261254f868686205416611d39565b61250d565b505050505050505092505050565b92505050565b9190915b60018061ffff831611156120ef5781617fff911c1690836125a260008481526018602052604060018060a01b0391205416611d39565b11156120ef576125b290826127b3565b61256c565b916125c1836120f5565b600061ffff918260165416905b838116828111612640578281101561261a57508061163e6125ee92611326565b9690965b8611156126115761260390876127b3565b61260c866120f5565b6125ce565b50505050915050565b83526018602052604083205490969061263b906001600160a01b0316611d39565b6125f2565b5050505050915050565b919061ffff808416600052601860205261268b60018060a01b036126748160406000205416611d39565b928416600052601860205260406000205416611d39565b93848211156121f95750509190565b61ffff6016541615611ef157565b61ffff6019541615611ef157565b6001600160a01b031660009081526017602052604090205461ffff169081156126db57565b60405163f2755e3760e01b8152600490fd5b6001600160a01b03166000908152601a602052604090205461ffff169081156126db57565b61ffff166000908152601b6020908152604080832080546001600160a01b031981169091556001600160a01b03168352601a9091529020805461ffff19169055565b61ffff16600090815260186020908152604080832080546001600160a01b031981169091556001600160a01b0316835260179091529020805461ffff19169055565b1561279d57565b634e487b7160e01b600052600160045260246000fd5b6127d861ffff8080601654169316936127ce84861115612796565b1691821115612796565b6000828152601860208181526040808420805486865282862080546001600160a01b0392831680895260178752858920805461ffff19908116909b1790559216808852938720805490981689179097559390925284546001600160a01b031990811690931790945593909152825416179055565b61286761ffff8080601954169316936127ce84861115612796565b6000828152601b60208181526040808420805486865282862080546001600160a01b03928316808952601a8752858920805461ffff19908116909b1790559216808852938720805490981689179097559390925284546001600160a01b031990811690931790945593909152825416179055565b9035601e19823603018112156107785701602081359101916001600160401b03821161077857813603831361077857565b908060209392818452848401376000828201840152601f01601f1916010190565b61295661294b61293d8380610949565b6040855260408501906109a5565b916020810190610949565b91602081830391015281359160ff83168093036107785761298360409161299394845260208101906128db565b919092816020820152019161290c565b90565b60208082526129a58380610949565b60609182818501526129bc608092838601906109a5565b6129d3604096838101358888015287810190610971565b939096601f199686888286030191015284835283830191848660051b8501019880986000955b888710612a0e57505050505050505050505090565b909192939495969798999a82828203018752612a2a8c85610949565b90813560de1983360301811215610778578782528201918a90888e6001600160401b03612aa1612a91612a7e612a75612a638b80610949565b60e080988c01526101208b019061292d565b978a018a610949565b96603f1997888a830301868b015261292d565b928d8901358d890152880161095d565b169060a091828701528a8701359263ffffffff60e01b8416809403610778578f95612ad8612ae89460c096878b01528a018a6128db565b929091898503019089015261290c565b940135610100840152013590811515809203610778578a01529a88019998979660010195870194939291906129f9565b91825191612b25836107e2565b93604094612b35865191826107c1565b848152601f19612b44866107e2565b0194602095368784013760005b818110612c1b57505060009461ffff8060165416600192839182945b612bca575b505050505060ff600e5460a01c1694858102958187041490151715610933576064612b9e950491612cbc565b9015612ba8575050565b6006811015610b555760ff602492519163282ef1c160e01b8352166004820152fd5b90919293988a858b16838111612c135760009081526018855220548493929186918591612c0991612c03906001600160a01b0316611d39565b90610926565b9b01169493612b6d565b505098612b72565b6001600160a01b0380612c2e8387612c92565b51166000526017885261ffff89600020541615612c6e5790612c5d600192612c568388612c92565b5116611d39565b612c678286612c92565b5201612b51565b8890612c7c60249387612c92565b519151633b4f6e2b60e21b815291166004820152fd5b8051821015612ca65760209160051b010190565b634e487b7160e01b600052603260045260246000fd5b84519294600094908415612da45782518514801590612d99575b612d8c579392919085945b848610612d04575050505050501015612cfc57600090600590565b600190600090565b909192939495612d1e612d178884612c92565b5184612db1565b50612d2881610b4b565b612d7b576001600160a01b0380612d3f8a88612c92565b5116911603612d6b57612d5f600191612d588988612c92565b5190610926565b96019493929190612ce1565b5050505050505050600090600390565b505050505050505050600090600490565b5050505050905090600190565b508351851415612cd6565b5050505050905090600290565b8151919060418303612de257612ddb92506020820151906060604084015193015160001a90612ded565b9192909190565b505060009160029190565b91907f7fffffffffffffffffffffffffffffff5d576e7357a4501ddfe92f46681b20a08411612e7157926020929160ff608095604051948552168484015260408301526060820152600092839182805260015afa15612e655780516001600160a01b03811615612e5c57918190565b50809160019190565b604051903d90823e3d90fd5b5050506000916003919056fe143db27bc2036653dc6f962ff9d0b803163d4af50c256ca9e6927b3d6dcd0197da148fac2e1063174be7bc0895576bdaba90fd14e575463fa26a967cb895cadda264697066735822122038238f2d99ddb501fea49d87c0dcec952359bebfb7ce7e8d76de0f495aadd34564736f6c63430008130033","linkReferences":{}},"methodIdentifiers":{"submitBottomUpMsgBatch(((uint64,address[]),uint256,((((uint64,address[]),(uint8,bytes)),((uint64,address[]),(uint8,bytes)),uint256,uint64,bytes4,bytes,uint256),bool)[]),address[],bytes[])":"26811936","submitCheckpoint(((uint64,address[]),uint256,bytes32,uint64),address[],bytes[])":"b9ee2bb9","validateActiveQuorumSignatures(address[],bytes32,bytes[])":"cc2dc2b9"},"id":84}