{"abi":[{"type":"function","name":"addBootstrapNode","inputs":[{"name":"netAddress","type":"string","internalType":"string"}],"outputs":[],"stateMutability":"nonpayable"},{"type":"function","name":"claim","inputs":[],"outputs":[],"stateMutability":"nonpayable"},{"type":"function","name":"confirmChange","inputs":[{"name":"_configurationNumber","type":"uint64","internalType":"uint64"}],"outputs":[],"stateMutability":"nonpayable"},{"type":"function","name":"confirmNextChange","inputs":[],"outputs":[],"stateMutability":"nonpayable"},{"type":"function","name":"join","inputs":[{"name":"publicKey","type":"bytes","internalType":"bytes"}],"outputs":[],"stateMutability":"payable"},{"type":"function","name":"kill","inputs":[],"outputs":[],"stateMutability":"nonpayable"},{"type":"function","name":"leave","inputs":[],"outputs":[],"stateMutability":"nonpayable"},{"type":"function","name":"pause","inputs":[],"outputs":[],"stateMutability":"nonpayable"},{"type":"function","name":"paused","inputs":[],"outputs":[{"name":"","type":"bool","internalType":"bool"}],"stateMutability":"view"},{"type":"function","name":"preFund","inputs":[],"outputs":[],"stateMutability":"payable"},{"type":"function","name":"preRelease","inputs":[{"name":"amount","type":"uint256","internalType":"uint256"}],"outputs":[],"stateMutability":"nonpayable"},{"type":"function","name":"setFederatedPower","inputs":[{"name":"validators","type":"address[]","internalType":"address[]"},{"name":"publicKeys","type":"bytes[]","internalType":"bytes[]"},{"name":"powers","type":"uint256[]","internalType":"uint256[]"}],"outputs":[],"stateMutability":"nonpayable"},{"type":"function","name":"stake","inputs":[],"outputs":[],"stateMutability":"payable"},{"type":"function","name":"submitCheckpoint","inputs":[{"name":"checkpoint","type":"tuple","internalType":"struct BottomUpCheckpoint","components":[{"name":"subnetID","type":"tuple","internalType":"struct SubnetID","components":[{"name":"root","type":"uint64","internalType":"uint64"},{"name":"route","type":"address[]","internalType":"address[]"}]},{"name":"blockHeight","type":"uint256","internalType":"uint256"},{"name":"blockHash","type":"bytes32","internalType":"bytes32"},{"name":"nextConfigurationNumber","type":"uint64","internalType":"uint64"},{"name":"msgs","type":"tuple[]","internalType":"struct IpcEnvelope[]","components":[{"name":"kind","type":"uint8","internalType":"enum IpcMsgKind"},{"name":"to","type":"tuple","internalType":"struct IPCAddress","components":[{"name":"subnetId","type":"tuple","internalType":"struct SubnetID","components":[{"name":"root","type":"uint64","internalType":"uint64"},{"name":"route","type":"address[]","internalType":"address[]"}]},{"name":"rawAddress","type":"tuple","internalType":"struct FvmAddress","components":[{"name":"addrType","type":"uint8","internalType":"uint8"},{"name":"payload","type":"bytes","internalType":"bytes"}]}]},{"name":"from","type":"tuple","internalType":"struct IPCAddress","components":[{"name":"subnetId","type":"tuple","internalType":"struct SubnetID","components":[{"name":"root","type":"uint64","internalType":"uint64"},{"name":"route","type":"address[]","internalType":"address[]"}]},{"name":"rawAddress","type":"tuple","internalType":"struct FvmAddress","components":[{"name":"addrType","type":"uint8","internalType":"uint8"},{"name":"payload","type":"bytes","internalType":"bytes"}]}]},{"name":"nonce","type":"uint64","internalType":"uint64"},{"name":"value","type":"uint256","internalType":"uint256"},{"name":"message","type":"bytes","internalType":"bytes"}]}]},{"name":"signatories","type":"address[]","internalType":"address[]"},{"name":"signatures","type":"bytes[]","internalType":"bytes[]"}],"outputs":[],"stateMutability":"nonpayable"},{"type":"function","name":"unpause","inputs":[],"outputs":[],"stateMutability":"nonpayable"},{"type":"function","name":"unstake","inputs":[{"name":"amount","type":"uint256","internalType":"uint256"}],"outputs":[],"stateMutability":"nonpayable"},{"type":"function","name":"validateActiveQuorumSignatures","inputs":[{"name":"signatories","type":"address[]","internalType":"address[]"},{"name":"hash","type":"bytes32","internalType":"bytes32"},{"name":"signatures","type":"bytes[]","internalType":"bytes[]"}],"outputs":[],"stateMutability":"view"},{"type":"event","name":"ActiveValidatorCollateralUpdated","inputs":[{"name":"validator","type":"address","indexed":false,"internalType":"address"},{"name":"newPower","type":"uint256","indexed":false,"internalType":"uint256"}],"anonymous":false},{"type":"event","name":"ActiveValidatorLeft","inputs":[{"name":"validator","type":"address","indexed":false,"internalType":"address"}],"anonymous":false},{"type":"event","name":"ActiveValidatorReplaced","inputs":[{"name":"oldValidator","type":"address","indexed":false,"internalType":"address"},{"name":"newValidator","type":"address","indexed":false,"internalType":"address"}],"anonymous":false},{"type":"event","name":"CollateralClaimed","inputs":[{"name":"validator","type":"address","indexed":false,"internalType":"address"},{"name":"amount","type":"uint256","indexed":false,"internalType":"uint256"}],"anonymous":false},{"type":"event","name":"ConfigurationNumberConfirmed","inputs":[{"name":"number","type":"uint64","indexed":false,"internalType":"uint64"}],"anonymous":false},{"type":"event","name":"NewActiveValidator","inputs":[{"name":"validator","type":"address","indexed":false,"internalType":"address"},{"name":"power","type":"uint256","indexed":false,"internalType":"uint256"}],"anonymous":false},{"type":"event","name":"NewCollateralRelease","inputs":[{"name":"validator","type":"address","indexed":false,"internalType":"address"},{"name":"amount","type":"uint256","indexed":false,"internalType":"uint256"},{"name":"releaseBlock","type":"uint256","indexed":false,"internalType":"uint256"}],"anonymous":false},{"type":"event","name":"NewStakingChangeRequest","inputs":[{"name":"op","type":"uint8","indexed":false,"internalType":"enum StakingOperation"},{"name":"validator","type":"address","indexed":false,"internalType":"address"},{"name":"payload","type":"bytes","indexed":false,"internalType":"bytes"},{"name":"configurationNumber","type":"uint64","indexed":false,"internalType":"uint64"}],"anonymous":false},{"type":"event","name":"NewWaitingValidator","inputs":[{"name":"validator","type":"address","indexed":false,"internalType":"address"},{"name":"power","type":"uint256","indexed":false,"internalType":"uint256"}],"anonymous":false},{"type":"event","name":"Paused","inputs":[{"name":"account","type":"address","indexed":false,"internalType":"address"}],"anonymous":false},{"type":"event","name":"SubnetBootstrapped","inputs":[{"name":"","type":"tuple[]","indexed":false,"internalType":"struct Validator[]","components":[{"name":"weight","type":"uint256","internalType":"uint256"},{"name":"addr","type":"address","internalType":"address"},{"name":"metadata","type":"bytes","internalType":"bytes"}]}],"anonymous":false},{"type":"event","name":"Unpaused","inputs":[{"name":"account","type":"address","indexed":false,"internalType":"address"}],"anonymous":false},{"type":"event","name":"WaitingValidatorCollateralUpdated","inputs":[{"name":"validator","type":"address","indexed":false,"internalType":"address"},{"name":"newPower","type":"uint256","indexed":false,"internalType":"uint256"}],"anonymous":false},{"type":"event","name":"WaitingValidatorLeft","inputs":[{"name":"validator","type":"address","indexed":false,"internalType":"address"}],"anonymous":false},{"type":"error","name":"AddressInsufficientBalance","inputs":[{"name":"account","type":"address","internalType":"address"}]},{"type":"error","name":"AddressShouldBeValidator","inputs":[]},{"type":"error","name":"BottomUpCheckpointAlreadySubmitted","inputs":[]},{"type":"error","name":"CannotConfirmFutureChanges","inputs":[]},{"type":"error","name":"CannotReleaseZero","inputs":[]},{"type":"error","name":"CannotSubmitFutureCheckpoint","inputs":[]},{"type":"error","name":"CollateralIsZero","inputs":[]},{"type":"error","name":"DuplicatedGenesisValidator","inputs":[]},{"type":"error","name":"EmptyAddress","inputs":[]},{"type":"error","name":"EnforcedPause","inputs":[]},{"type":"error","name":"ExpectedPause","inputs":[]},{"type":"error","name":"FailedInnerCall","inputs":[]},{"type":"error","name":"InvalidCheckpointEpoch","inputs":[]},{"type":"error","name":"InvalidFederationPayload","inputs":[]},{"type":"error","name":"InvalidPublicKeyLength","inputs":[]},{"type":"error","name":"InvalidSignatureErr","inputs":[{"name":"","type":"uint8","internalType":"uint8"}]},{"type":"error","name":"MaxMsgsPerBatchExceeded","inputs":[]},{"type":"error","name":"MethodNotAllowed","inputs":[{"name":"reason","type":"string","internalType":"string"}]},{"type":"error","name":"NoCollateralToWithdraw","inputs":[]},{"type":"error","name":"NotAllValidatorsHaveLeft","inputs":[]},{"type":"error","name":"NotEnoughBalance","inputs":[]},{"type":"error","name":"NotEnoughCollateral","inputs":[]},{"type":"error","name":"NotEnoughFunds","inputs":[]},{"type":"error","name":"NotEnoughGenesisValidators","inputs":[]},{"type":"error","name":"NotOwner","inputs":[]},{"type":"error","name":"NotOwnerOfPublicKey","inputs":[]},{"type":"error","name":"NotValidator","inputs":[{"name":"","type":"address","internalType":"address"}]},{"type":"error","name":"PQDoesNotContainAddress","inputs":[]},{"type":"error","name":"PQEmpty","inputs":[]},{"type":"error","name":"ReentrancyError","inputs":[]},{"type":"error","name":"SubnetAlreadyBootstrapped","inputs":[]},{"type":"error","name":"SubnetAlreadyKilled","inputs":[]},{"type":"error","name":"SubnetNotBootstrapped","inputs":[]},{"type":"error","name":"WithdrawExceedingCollateral","inputs":[]}],"bytecode":{"object":"0x60808060405234601557614c0d908161001b8239f35b600080fdfe60a0604052600436101561001257600080fd5b60006080526080513560e01c80630b7fbe6014611a9957806310fd4261146119225780632e17de78146118cd578063350a14bf146118a05780633a4b66f1146117be5780633f4ba83a1461173457806341c0e1b5146116675780634e71d92d146114ab5780635c975abb1461147a5780636170b162146110ef57806366783c9b14610ff557806379979f571461087a5780638456cb5914610801578063c7ebdaef146107b0578063cc2dc2b914610731578063d66d9e19146106b35763da5d09ee146100dd57600080fd5b34610540576060366003190112610540576004356001600160401b0381116105405761010d903690600401611c1d565b6024356001600160401b0381116105405761012c903690600401611c1d565b6044356001600160401b0381116105405761014b903690600401611c1d565b61015695919561263d565b61015e613527565b600a5460019060ff1661017081611fe6565b0361068357808503610670578285036106705760055460f81c156104725760805192946000935b8181106101ad5750505050505050505b60805180f35b6101c16101bb8289896139f9565b906135b2565b6001600160a01b036101dc6101d7848689613a14565b6122b5565b166001600160a01b039091160361045f57808661024b8561021c84610214818f988f906101d761020e918f8e90613a14565b976139f9565b939097613a14565b35610237604051968793604060208601526060850191612021565b90604083015203601f198101855284611b91565b608051506001600160401b036013541692604051918861026a84611b76565b6103b85760038352602083019082825260018060a01b03169283604082015260805150856080515260146020526040608051209181516102a9816128ba565b6102b2816128ba565b60ff801985541691161783556001830190518051906001600160401b038211610447576102e9826102e38554611db3565b85611e04565b6020906001601f8411146103d9579180610320926002969594608051926103ce575b50508160011b916000199060031b1c19161790565b90555b60400151910180546001600160a01b0319166001600160a01b03929092169190911790556001600160401b0361035885612a23565b166001600160401b031960135416176013556040519088608051506103b8576001946103a98392600080516020614b7883398151915295600385526020850152608060408501526080840190611eff565b9060608301520390a101610197565b634e487b7160e01b600052602160045260246000fd5b01519050388061030b565b90601f1983169184608051528160805120926080515b81811061042f575091600193918560029897969410610416575b505050811b019055610323565b015160001960f88460031b161c19169055388080610409565b929360206001819287860151815501950193016103ef565b634e487b7160e01b6080515260416004526024608051fd5b634be9251d60e11b608051526004608051fd5b946001600160401b036006949394541685111561065d576080515b8581106105535750505050505050600554600160f81b60018060f81b038216176005557f4914d88063275a25a13b2df37125e216745d812f94c56504be4bd78cf60c9593604051806104de816133c5565b0390a160805154906001600160a01b0316803b156105405760249160405192838092637903ab2760e11b8252806004830152608051945af1801561054657610527575b506101a7565b60805161053391611b91565b6080516105405738610521565b60805180fd5b6040513d608051823e3d90fd5b6105616101bb8287876139f9565b6001600160a01b036105776101d7848a88613a14565b166001600160a01b039091160361045f5761059e6105996101d7838987613a14565b613c55565b61064a57806105c76105b66101d76001948a88613a14565b6105c18389896139f9565b916135ee565b6105ea6105d86101d7838a88613a14565b6105e3838b87613a14565b3590613be8565b6106446105fb6101d7838a88613a14565b61063a610609848c88613a14565b3591610616858b8b6139f9565b90916040519461062586611b76565b8552878060a01b031660208501523691611bcd565b6040820152613114565b0161048d565b630472b35360e41b608051526004608051fd5b63031480b160e51b608051526004608051fd5b637e65935960e01b608051526004608051fd5b6106af61068e61265d565b60405163015538b160e01b8152602060048201529182916024830190611eff565b0390fd5b3461054057608051366003190112610540576001600080516020614bb8833981519152541461071e576001600080516020614bb8833981519152556106f6612613565b6106fe61263d565b61070661250f565b608051600080516020614bb883398151915281905580f35b6329f745a760e01b608051526004608051fd5b34610540576060366003190112610540576004356001600160401b038111610540573660238201121561054057610772903690602481600401359101611c78565b604435906001600160401b0382116105405736602383011215610540576107a66101a7923690602481600401359101611ccc565b906024359061238f565b3461054057608051366003190112610540576000196001600160401b0360135416016001600160401b0381116107e9576101a790612a41565b634e487b7160e01b6080515260116004526024608051fd5b34610540576080513660031901126105405761081b613527565b610823612613565b600160ff19600080516020614b98833981519152541617600080516020614b98833981519152557f62e78cea01bee320cd4e420270b5ea74000d11b0c9f74754ebdbfc544b05a2586020604051338152a160805180f35b34610540576060366003190112610540576004356001600160401b038111610540578060040160a06003198336030112610540576024356001600160401b038111610540576108cd903690600401611c1d565b90604435916001600160401b0383116105405761094361093b926108f8610949953690600401611c1d565b949091610903612613565b61090c8861380b565b6040516020810190610930816109228c856120ab565b03601f198101835282611b91565b519020943691611c78565b933691611ccc565b9161238f565b60248201358060805152601a602052604060805120926109698380612210565b6001600160401b0361097a82612225565b166001600160401b031986541617855561099c60018601916020810190612239565b91906001600160401b038311610447576109b68383612281565b90608051526020608051206080515b838110610fda575050505081600285015560448101356003850155610a1b6084600560648401966109f588612225565b6001600160401b036004830191166001600160401b031982541617905501920184612239565b91600160401b8311610447578054838255808410610f5f575b508192919060805152602060805120906080519360be1981360301915b848610610ad157600187905560055489906001600160a01b031689813b1561054057604051809263fba0fa4d60e01b82528180610a9460805195600483016120ab565b0391608051905af1801561054657610ab8575b6101a7610ab383612225565b612a41565b608051610ac491611b91565b6080516105405781610aa7565b8035838112156105405782018035600381101561054057610af181611fe6565b60ff80198754169116178555610b0a6020820182612210565b610b148180612210565b610b1d81612225565b6001600160401b036001890191166001600160401b0319825416179055610b4c60028801916020810190612239565b91906001600160401b03831161044757610b668383612281565b90608051526020608051206080515b838110610f445750505050610b9260038701916020810190612210565b90813560ff81168091036105405760ff19825416179055610bbb6004870191602081019061235d565b906001600160401b03821161044757610bd8826102e38554611db3565b60805190601f8311600114610ed957918091610c0b9360805192610e485750508160011b916000199060031b1c19161790565b90555b610c1b6040820182612210565b610c258180612210565b610c2e81612225565b6001600160401b036005890191166001600160401b0319825416179055610c5d60068801916020810190612239565b91906001600160401b03831161044757610c778383612281565b90608051526020608051206080515b838110610ebe5750505050610ca360078701916020810190612210565b90813560ff81168091036105405760ff19825416179055610ccc6008870191602081019061235d565b906001600160401b03821161044757610ce9826102e38554611db3565b60805190601f8311600114610e5357918091610d1c9360805192610e485750508160011b916000199060031b1c19161790565b90555b610d2b60608201612225565b6001600160401b036009870191166001600160401b03198254161790556080810135600a860155610d64600b86019160a081019061235d565b906001600160401b03821161044757610d81826102e38554611db3565b60805190601f8311600114610dd65792610dbc8360209460019794600c9760805192610dcb5750508160011b916000199060031b1c19161790565b90555b01940195019492610a51565b01359050388061030b565b601f198316918460805152602060805120926080515b818110610e3057509360019693600c969388938360209810610e16575b505050811b019055610dbf565b0135600019600384901b60f8161c191690558f8080610e09565b91936020600181928787013581550195019201610dec565b013590508e8061030b565b601f198316918460805152602060805120926080515b818110610ea65750908460019594939210610e8c575b505050811b019055610d1f565b0135600019600384901b60f8161c191690558d8080610e7f565b91936020600181928787013581550195019201610e69565b6001906020610ecc856122b5565b9401938184015501610c86565b601f198316918460805152602060805120926080515b818110610f2c5750908460019594939210610f12575b505050811b019055610c0e565b0135600019600384901b60f8161c191690558d8080610f05565b91936020600181928787013581550195019201610eef565b6001906020610f52856122b5565b9401938184015501610b75565b80600c0290600c8204036107e95783600c02600c810485036107e957826080515260206080512091820191015b818110610f995750610a34565b600c906080518155610fad60018201612318565b610fb960058201612318565b60805160098201819055600a820155610fd4600b82016122c9565b01610f8c565b6001906020610fe8856122b5565b94019381840155016109c5565b34610540576020366003190112610540576004356001600080516020614bb8833981519152541461071e576001600080516020614bb88339815191525580156110dc5760055460f81c6110c9573360805152601c6020528060406080512054106110b657610706903360805152601c602052604060805120611078828254611f24565b90556110878160805154611f24565b608051553360805152601c60205260406080512054156110a8575b33613795565b6110b1336136b9565b6110a2565b63569d45cf60e11b608051526004608051fd5b631b39f2f360e11b608051526004608051fd5b631036b5ad60e31b608051526004608051fd5b6020366003190112610540576004356001600160401b0381116105405736602382011215610540578060040135906001600160401b0382116105405760248101906024833692010111610540576001600080516020614bb8833981519152541461071e576001600080516020614bb88339815191525561116d612613565b61117561263d565b60055460f81c8061146d575b341561145a57336000908152600c60205260409020600201546113e257604183036113cf57336001600160a01b036111b985856135b2565b160361045f576111e057906111ce91336135ee565b6111d834336132ad565b61070661344c565b6111eb368383611bcd565b91608051506001600160401b036013541660405161120881611b76565b60028152602081019485526040810133815260805150826080515260146020526040608051209151611239816128ba565b611242816128ba565b60ff801984541691161782556001820195519586516001600160401b03811161044757611279816112738454611db3565b84611e04565b60206001601f831114611353578160029493926112bd92600080516020614b788339815191529b608051926113485750508160011b916000199060031b1c19161790565b90555b51910180546001600160a01b0319166001600160a01b03929092169190911790556001600160401b036112f282612a23565b166001600160401b03196013541617601355611330604051938493608051506080515060028552336020860152608060408601526080850191612021565b9060608301520390a16113433433612f25565b610706565b015190508b8061030b565b601f1982169883608051528160805120996080515b8181106113b757509960019284926002979695600080516020614b788339815191529d1061139e575b505050811b0190556112c0565b015160001960f88460031b161c191690558a8080611391565b838301518c556001909b019a60209384019301611368565b6318dca5e960e21b608051526004608051fd5b6040516106af906113f4606082611b91565b603281527f4d6574686f64206e6f7420616c6c6f7765642069662076616c696461746f72206020820152711a185cc8185b1c9958591e481a9bda5b995960721b604082015260405191829163015538b160e01b8352602060048401526024830190611eff565b635a78c58160e11b608051526004608051fd5b6114756126cc565b611181565b346105405760805136600319011261054057602060ff600080516020614b9883398151915254166040519015158152f35b3461054057608051366003190112610540576001600080516020614bb8833981519152541461071e576001600080516020614bb8833981519152556114ee612613565b33600090815260166020526040902080549061ffff82169182156116545760805192919060101c61ffff1682600183015b8161ffff8416106115cf575b5050815463ffffffff191660109190911b63ffff0000161761ffff90921691821790557f197c586353eaed0a1c53e6e540445b94befab8f932c8115d112115ecbeeed5149161159c91156115b7575b6115848133613795565b60408051338152602081019290925290918291820190565b0390a1608051600080516020614bb883398151915281905580f35b6080513360009081526016602052604090205561157a565b909391946020906040600061ffff89168152848452206040516115f181611b45565b600182549283835201549384910152431061164b57600161161661ffff938493611d90565b82891660009081526020869052604090206080518082559083015597600019909501929092169591909301909216919061151f565b9592945061152b565b6364b0557f60e01b608051526004608051fd5b34610540576080513660031901126105405761168161263d565b61ffff611697816010541682600d54169061357f565b16611721576005548060f81c1561170e576006805468ff00000000000000001916600160401b1790556001600160a01b0316803b1561054057604051906341c0e1b560e01b82528160048160805193608051905af18015610546576116fc5760805180f35b60805161170891611b91565b806101a7565b63dfd06d8f60e01b608051526004608051fd5b636b62255160e11b608051526004608051fd5b34610540576080513660031901126105405761174e613527565b600080516020614b988339815191525460ff8116156117ab5760ff1916600080516020614b98833981519152557f5db9ee0a495bf2e6ff9c91a7834c1ba4fdd244a5e8aa4e537bd38aeae4b073aa6020604051338152a160805180f35b638dfc202b60e01b608051526004608051fd5b608051366003190112610540576117d3612613565b6117db61263d565b6117e36126cc565b341561145a57336000908152600c60205260409020600201541561182c5760055460f81c61181d5761181534336132ad565b6101a761344c565b6118273433612f25565b6101a7565b6040516106af9061183e606082611b91565b602e81527f4d6574686f64206e6f7420616c6c6f7765642069662076616c696461746f722060208201526d1a185cc81b9bdd081a9bda5b995960921b604082015260405191829163015538b160e01b8352602060048401526024830190611eff565b34610540576020366003190112610540576004356001600160401b0381168103610540576101a790612a41565b34610540576020366003190112610540576001600080516020614bb8833981519152541461071e576001600080516020614bb88339815191525561190f612613565b61191761263d565b610706600435611e4b565b34610540576020366003190112610540576004356001600160401b038111610540573660238201121561054057611963903690602481600401359101611bcd565b61196b612613565b336000908152600e602052604090205461ffff1615611a8257805115611a6f573360805152601760205260406080512081516001600160401b038111610447576119b9816112738454611db3565b6020926001601f831114611a09576119eb92938291608051926119fe5750508160011b916000199060031b1c19161790565b90555b6119f733613a24565b5060805180f35b01519050848061030b565b601f1982169383608051528060805120916080515b868110611a575750836001959610611a3e575b505050811b0190556119ee565b015160001960f88460031b161c19169055838080611a31565b91926020600181928685015181550194019201611a1e565b637138356f60e01b608051526004608051fd5b633b4f6e2b60e21b60805152336004526024608051fd5b6080513660031901126105405734156110dc5760055460f81c6110c9573360805152601c6020526040608051205415611b00575b3360805152601c602052604060805120611ae8348254611d90565b9055611af73460805154611d90565b60805190815580f35b601d54600160401b81101561044757611b22816001611b409301601d55611d47565b81546001600160a01b0360039290921b91821b19163390911b179055565b611acd565b604081019081106001600160401b03821117611b6057604052565b634e487b7160e01b600052604160045260246000fd5b606081019081106001600160401b03821117611b6057604052565b90601f801991011681019081106001600160401b03821117611b6057604052565b6001600160401b038111611b6057601f01601f191660200190565b929192611bd982611bb2565b91611be76040519384611b91565b829481845281830111611c04578281602093846000960137010152565b600080fd5b35906001600160401b0382168203611c0457565b9181601f84011215611c04578235916001600160401b038311611c04576020808501948460051b010111611c0457565b6001600160401b038111611b605760051b60200190565b35906001600160a01b0382168203611c0457565b929190611c8481611c4d565b93611c926040519586611b91565b602085838152019160051b8101928311611c0457905b828210611cb457505050565b60208091611cc184611c64565b815201910190611ca8565b929192611cd882611c4d565b93611ce66040519586611b91565b602085848152019260051b820191818311611c045780935b838510611d0c575050505050565b84356001600160401b038111611c0457820183601f82011215611c0457602091611d3c8583858095359101611bcd565b815201940193611cfe565b601d54811015611d6257601d60005260206000200190600090565b634e487b7160e01b600052603260045260246000fd5b8054821015611d625760005260206000200190600090565b91908201809211611d9d57565b634e487b7160e01b600052601160045260246000fd5b90600182811c92168015611de3575b6020831014611dcd57565b634e487b7160e01b600052602260045260246000fd5b91607f1691611dc2565b818110611df8575050565b60008155600101611ded565b9190601f8111611e1357505050565b611e3f926000526020600020906020601f840160051c83019310611e41575b601f0160051c0190611ded565b565b9091508190611e32565b611e536126cc565b8015611ecb57336000908152600c60205260409020600201548015611eb657811015611ea65760055460f81c15611e8e57611e3f90336126e1565b80611e9c611e3f9233613a96565b6110a28133613ae8565b62d11df360e61b60005260046000fd5b633b4f6e2b60e21b6000523360045260246000fd5b63c79cad7b60e01b60005260046000fd5b60005b838110611eef5750506000910152565b8181015183820152602001611edf565b90602091611f1881518092818552858086019101611edc565b601f01601f1916010190565b91908203918211611d9d57565b9035603e1982360301811215611c04570190565b9035601e1982360301811215611c045701602081359101916001600160401b038211611c04578160051b36038313611c0457565b906060611fa260408301936001600160401b03611f9582611c09565b1684526020810190611f45565b604060208501529384905291019160005b818110611fc05750505090565b909192602080600192838060a01b03611fd888611c64565b168152019401929101611fb3565b600311156103b857565b9035601e1982360301811215611c045701602081359101916001600160401b038211611c04578136038313611c0457565b908060209392818452848401376000828201840152601f01601f1916010190565b61206b6120606120528380611f31565b604085526040850190611f79565b916020810190611f31565b91602081830391015281359160ff8316809303611c04576120986040916120a89484526020810190611ff0565b9190928160208201520191612021565b90565b602081526121096120d06120bf8480611f31565b60a0602085015260c0840190611f79565b9260208101356040840152604081013560608401526001600160401b036120f960608301611c09565b1660808401526080810190611f45565b909160a0601f1982860301910152808352602083019060208160051b850101938360009160be1982360301905b848410612147575050505050505090565b90919293949596601f19828203018752873583811215611c045784018035916003831015611c0457612201602092839285612183600197611fe6565b81526121f36121c46121aa61219a87860186611f31565b60c08886015260c0850190612042565b6121b76040860186611f31565b8482036040860152612042565b926001600160401b036121d960608301611c09565b1660608401526080810135608084015260a0810190611ff0565b9160a0818503910152612021565b99019701959401929190612136565b903590603e1981360301821215611c04570190565b356001600160401b0381168103611c045790565b903590601e1981360301821215611c0457018035906001600160401b038211611c0457602001918160051b36038313611c0457565b81810292918115918404141715611d9d57565b90600160401b8111611b605781549080835581811061229f57505050565b611e3f9260005260206000209182019101611ded565b356001600160a01b0381168103611c045790565b6122d38154611db3565b90816122dd575050565b81601f600093116001146122ef575055565b8183526020832061230b91601f0160051c810190600101611ded565b8082528160208120915555565b6003611e3f91600081556001810180546000825580612341575b505060006002820155016122c9565b61235691600052602060002090810190611ded565b3880612332565b903590601e1981360301821215611c0457018035906001600160401b038211611c0457602001918136038313611c0457565b90919281519361239e85611c4d565b946123ac6040519687611b91565b808652601f196123bb82611c4d565b0136602088013760005b81811061247957505060009361ffff600d5416936001955b61ffff8716868111612425576000908152600f602052604090205461ffff9160019161241c9190612416906001600160a01b0316613c55565b90611d90565b970116956123dd565b5061244f9650606491939550612448909792949760ff60055460e01c169061226e565b04916138f7565b90156124585750565b60068110156103b85760ff9063282ef1c160e01b6000521660045260246000fd5b6124b16001600160a01b0361248e83886138e3565b51166001600160a01b03166000908152600e602052604090205461ffff16151590565b156124e6576001906124d56001600160a01b036124ce83896138e3565b5116613c55565b6124df828a6138e3565b52016123c5565b6001600160a01b03906124f990866138e3565b5116633b4f6e2b60e21b60005260045260246000fd5b60055460f81c612606575b336000908152600c60205260409020600201548015611eb65761253c33613d31565b5033600052601760205260406000206125558154611db3565b90816125c2575b505060055460f81c1561257357611e3f90336126e1565b611e3f9033600052601c60205260406000205480612597575b50611e9c8133613a96565b6125bc9033600052601c6020526125b081600054611f24565b6000556110a2336136b9565b3861258c565b81601f600093116001146125da5750555b388061255c565b818352602083206125f691601f0160051c810190600101611ded565b80825281602081209155556125d3565b61260e6126cc565b61251a565b60ff600080516020614b98833981519152541661262c57565b63d93c066560e01b60005260046000fd5b60ff60065460401c1661264c57565b63248c8efb60e11b60005260046000fd5b6040519061266c608083611b91565b6045825264185c1c195960da1b6060837f4d6574686f64206e6f7420616c6c6f776564206966207065726d697373696f6e60208201527f656420697320656e61626c656420616e64207375626e657420626f6f7473747260408201520152565b60ff600a54166126db81611fe6565b61068357565b9060405191816020840152602083526126fb604084611b91565b6001600160401b0360135416926040519061271582611b76565b6001825260208201918183526040810160018060a01b0385169384825260406000898152601460205220925161274a816128ba565b612753816128ba565b60ff801985541691161783556001830190518051906001600160401b038211611b6057612784826102e38554611db3565b602090601f831160011461284f5791806127b99260029695946000926103ce5750508160011b916000199060031b1c19161790565b90555b51910180546001600160a01b0319166001600160a01b03929092169190911790556001600160401b036127ee86612a23565b166001600160401b03196013541617601355604051906004600110156103b857611e3f956128418392600080516020614b7883398151915295600185526020850152608060408501526080840190611eff565b9060608301520390a1613a96565b90601f1983169184600052816000209260005b8181106128a2575091600193918560029897969410612889575b505050811b0190556127bc565b015160001960f88460031b161c1916905538808061287c565b92936020600181928786015181550195019301612862565b600411156103b857565b600092918154916128d483611db3565b808352926001811690811561292a57506001146128f057505050565b60009081526020812093945091925b838310612910575060209250010190565b6001816020929493945483858701015201910191906128ff565b915050602093945060ff929192191683830152151560051b010190565b919091828114612a1e5761295b8354611db3565b6001600160401b038111611b6057612977816112738454611db3565b600093601f82116001146129b8576129a992939482916000926129ad5750508160011b916000199060031b1c19161790565b9055565b01549050388061030b565b845260208085208386529085209094601f198316815b818110612a06575095836001959697106129ed575b505050811b019055565b015460001960f88460031b161c191690553880806129e3565b9192600180602092868b0154815501940192016129ce565b509050565b6001600160401b036001911601906001600160401b038211611d9d57565b6013546001600160401b0380831692919081168310612a6b5763040aaa0560e11b60005260046000fd5b6001600160401b038160401c168310612f205760401c6001600160401b03165b826001600160401b0382161115612b0257507f246f00b61ce672242f33bb680a47147cd54d3dfd04dbb76956ba42f88087bf6391612aca602092612a23565b601380546fffffffffffffffff00000000000000001916604092831b6fffffffffffffffff00000000000000001617905551908152a1565b612b1f816001600160401b03166000526014602052604060002090565b9060018060a01b0360028301541660ff835416612b3b816128ba565b60028103612baf57506001600160a01b03166000908152600c602052604090206001600160401b039260019291612b7791840190600301612947565b60006002612b98836001600160401b03166000526014602052604060002090565b828155612ba68582016122c9565b01550116612a8b565b612bb8816128ba565b60038103612d595750612bdf60019293612bd860405180958193016128c4565b0383611b91565b815182019160408160208501940312611c045760208101516001600160401b038111611c045781019083603f83011215611c0457602082015191612c2283611bb2565b94612c306040519687611b91565b83865260408285010111611c0457604092612c519184602088019101611edc565b0151916003612c728360018060a01b0316600052600c602052604060002090565b01908051906001600160401b038211611b6057612c93826102e38554611db3565b602090601f8311600114612ce15792612cd583600197946001600160401b03999794612cdc976000926103ce5750508160011b916000199060031b1c19161790565b9055613be8565b612b77565b90601f1983169184600052816000209260005b818110612d415750936001600160401b03989693612cdc96936001999693838b9510612d28575b505050811b019055613be8565b015160001960f88460031b161c19169055388080612d1b565b92936020600181928786015181550195019301612cf4565b612d76600194612d6f60405180978193016128c4565b0385611b91565b602084805181010312611c045760206001940151938491612d96816128ba565b03612ecf5781612dc96060927f083b080788e20bd0930c2bca2ae4fbc51a59ced08c1b5992271f8cb439498a6394613ae8565b612dd560155443611d90565b604051612de181611b45565b81815261ffff612e438160208401938a85526001612e118860018060a01b03166000526016602052604060002090565b956040612e28885486811696879160101c1661357f565b8760009116815283890160205220925183555191015561356b565b1661ffff198254161790556040519182528560208301526040820152a16005546001600160a01b031691823b15611c04576000926024849260405195869384926345f5448560e01b845260048401525af1908115612ec3576001600160401b0392600192612eb2575b50612b77565b6000612ebd91611b91565b38612eac565b6040513d6000823e3d90fd5b612ed891613b96565b6005546001600160a01b0316803b15611c04576000906004604051809581936316989f6f60e21b83525af1908115612ec3576001600160401b0392600192612eb25750612b77565b505050565b91906040519281602085015260208452612f40604085611b91565b6001600160401b036013541660405194612f5986611b76565b6000865260208601958187526040810160018060a01b03851697888252604060008681526014602052209251612f8e816128ba565b612f97816128ba565b60ff801985541691161783556001830190518051906001600160401b038211611b6057612fc8826102e38554611db3565b602090601f83116001146130a9579180612ffd9260029695946000926103ce5750508160011b916000199060031b1c19161790565b90555b51910180546001600160a01b0319166001600160a01b03929092169190911790556001600160401b0361303283612a23565b166001600160401b031960135416176013556040519560006004811015613095579261308788938493600080516020614b7883398151915296611e3f9a9b526020850152608060408501526080840190611eff565b9060608301520390a1613c32565b634e487b7160e01b81526021600452602490fd5b90601f1983169184600052816000209260005b8181106130fc5750916001939185600298979694106130e3575b505050811b019055613000565b015160001960f88460031b161c191690553880806130d6565b929360206001819287860151815501950193016130bc565b90601b54600160401b811015611b605760018101601b556000601b5482101561329957601b905282517f3ad8aa4f87544323a9d1e5dd902f40c356527a7955687113db5f9a85ad579dc160039092029182015560208301517f3ad8aa4f87544323a9d1e5dd902f40c356527a7955687113db5f9a85ad579dc2820180546001600160a01b039092166001600160a01b0319909216919091179055604090920151805190927f3ad8aa4f87544323a9d1e5dd902f40c356527a7955687113db5f9a85ad579dc3019060006001600160401b038211613285576131f9826102e38554611db3565b602090601f831160011461322857906129a9939495836103ce5750508160011b916000199060031b1c19161790565b90601f198316848352818320925b81811061326d5750958360019596971061325457505050811b019055565b015160001960f88460031b161c191690553880806129e3565b9192602060018192868b015181550194019201613236565b634e487b7160e01b81526041600452602490fd5b634e487b7160e01b81526032600452602490fd5b906132c2906132bc8184613c32565b82613b96565b60055460f81c156132d05750565b601b5460009080825b828110613368575b505050156132ec5750565b8061336161063a6001613314611e3f9560018060a01b0316600052600c602052604060002090565b01549260036133358260018060a01b0316600052600c602052604060002090565b01906040519461334486611b76565b85526001600160a01b0316602085015260405192839182906128c4565b0382611b91565b60008282101561329957601b90527f3ad8aa4f87544323a9d1e5dd902f40c356527a7955687113db5f9a85ad579dc26003820201546001600160a01b038681169116146133b7576001016132d9565b5050505060013880806132e1565b6020810160208252601b54809152604082019060408160051b84010192601b6000526020600020926000915b83831061340057505050505090565b90919293946020600361343d6060600194603f198782030188528a548152858060a01b03868c015416858201528160408201520160028a016128c4565b970193019301919392906133f1565b6000600b54600254811015613460575b5050565b61ffff600d54166001600160401b0360065416111561347d575050565b600580546001600160f81b038116600160f81b179091556040517f4914d88063275a25a13b2df37125e216745d812f94c56504be4bd78cf60c959390806134c3816133c5565b0390a160018060a01b03166134da83548093611d90565b91813b156135235790602484926040519485938492637903ab2760e11b845260048401525af18015613518571561345c578161351591611b91565b50565b6040513d84823e3d90fd5b8380fd5b7f806e0cbb9fce296bbc336a48f42bf1dbc69722d18d90d6fe705b7582c2bb4bd5546001600160a01b0316330361355a57565b6330cd747160e01b60005260046000fd5b61ffff60019116019061ffff8211611d9d57565b9061ffff8091169116019061ffff8211611d9d57565b1561359c57565b634e487b7160e01b600052600160045260246000fd5b906135bf60418214613595565b80600111611c04576135da9136916000190190600101611bcd565b80516020909101206001600160a01b031690565b6001600160a01b03166000908152600c6020526040902090929190600301906001600160401b038111611b6057613629816112738454611db3565b6000601f821160011461365a5781906129a9939495600092610dcb5750508160011b916000199060031b1c19161790565b601f198216948382526020822091805b8781106136a157508360019596971061368757505050811b019055565b0135600019600384901b60f8161c191690553880806129e3565b9092602060018192868601358155019401910161366a565b601d5460005b8181106136cb57505050565b6136d481611d47565b905460039190911b1c6001600160a01b03908116908416146136f8576001016136bf565b60001982019250908211611d9d5761372d61371561375193611d47565b905460039190911b1c6001600160a01b031691611d47565b81546001600160a01b0393841660039290921b91821b9390911b1916919091179055565b601d54801561377f576000190161376781611d47565b81549060018060a01b039060031b1b19169055601d55565b634e487b7160e01b600052603160045260246000fd5b8147106137f6576000918291829182916001600160a01b03165af13d156137f1573d6137c081611bb2565b906137ce6040519283611b91565b8152600060203d92013e5b156137e057565b630a12f52160e11b60005260046000fd5b6137d9565b63cd78605960e01b6000523060045260246000fd5b6001600160401b0360055460a01c1690608081018261382a8284612239565b9050116138d257600154600354602084013591808311156138c15781156138ab576001600160401b03829116049060018201809211611d9d5761386c9161226e565b9081811161389a5714612f205761388291612239565b905014611e3f5763fae4eadb60e01b60005260046000fd5b63dd88982f60e01b60005260046000fd5b634e487b7160e01b600052601260045260246000fd5b63d6bb62dd60e01b60005260046000fd5b63351c700760e01b60005260046000fd5b8051821015611d625760209160051b010190565b845192946000949084156139ea57825185148015906139df575b6139d057939291906000945b84861061394057505050505050101561393857600090600590565b600190600090565b90919293949561395a61395388846138e3565b5184613cf5565b50613964816128ba565b6139bf576001600160a01b0361397a89876138e3565b51166001600160a01b03909116036139af576139a360019161399c89886138e3565b5190611d90565b9601949392919061391d565b5050505050505050600090600390565b505050505050505050600090600490565b50505050505050600090600190565b508351851415613911565b50505050505050600090600290565b90821015611d6257613a109160051b81019061235d565b9091565b9190811015611d625760051b0190565b80600052601960205260406000205415600014613a9057601854600160401b811015611b6057613a77613a608260018594016018556018611d78565b819391549060031b91821b91600019901b19161790565b9055601854906000526019602052604060002055600190565b50600090565b6001600160a01b03166000818152600c60205260409020600201549091808210613ad757613ac391611f24565b90600052600c602052600260406000200155565b63ac69360360e01b60005260046000fd5b90613b69613b719260018060a01b0381169081600052600c602052613b1584600160406000200154611f24565b9180600052600c60205260026040600020015483159081613b8d575b5015613b765760036040613b62926000908152600c60205220600081556000600182015560006002820155016122c9565b600a613dec565b600b54611f24565b600b55565b600052600c60205281600160406000200155613b62565b90501538613b31565b90611e3f91613bde60018060a01b0382169283600052600c602052613bc381600160406000200154611d90565b93600052600c60205283600160406000200155600b54611d90565b600b55600a6140a2565b6001600160a01b0381166000908152600c60205260409020805490839055909190808203613c1557505050565b811115613c2757611e3f91600a6140a2565b611e3f91600a613dec565b60018060a01b0316600052600c6020526129a96002604060002001918254611d90565b600160ff600a5416613c6681611fe6565b03613c86576001600160a01b03166000908152600c602052604090205490565b6001600160a01b03166000908152600c602052604090206001015490565b600291600160ff835416613cb781611fe6565b03613cd7576001600160a01b031660009081529101602052604090205490565b6001600160a01b031660009081529101602052604090206001015490565b8151919060418303613d2657613d1f92506020820151906060604084015193015160001a9061426b565b9192909190565b505060009160029190565b6000818152601960205260409020548015613de5576000198101818111611d9d57601854600019810191908211611d9d57818103613dab575b505050601854801561377f5760001901613d85816018611d78565b8154906000199060031b1b19169055601855600052601960205260006040812055600190565b613dcd613dbc613a60936018611d78565b90549060031b1c9283926018611d78565b90556000526019602052604060002055388080613d6a565b5050600090565b6001600160a01b0382166000908152600782016020526040902054600682019392919061ffff16614018576001600160a01b038216600090815260048201602052604090205460038201949061ffff1615614007578315613f5357613e66613e5484876146d7565b613e5e8585613ca4565b908488614991565b61ffff81541615613f4c57613e7b828661444d565b929091613e88828261444d565b909410613edb575050604080516001600160a01b0390941684526020840194909452507f143db27bc2036653dc6f962ff9d0b803163d4af50c256ca9e6927b3d6dcd01979350909182915081015b0390a1565b839550829450613f24613f29948389613f15827ffaeb8de771b867cf357f6b459a7002b62ec45d544a8078a3ecd91200cc826d759c6145f0565b613f1f828661447d565b614576565b6146c0565b604080516001600160a01b03928316815292909116602083015281908101613ed6565b5050505050565b9181935080613f866020927f4a4c5d1a281180eea1e99d8177fa4798b9f7e019d5c57e7d8d73c6a22199aa5b94886143ab565b6040516001600160a01b039091168152a161ffff815416613fa657505050565b613fe481837f2e8038f5812f763c6ef0c5427cb5a05ce6d7064af2ba7d1d270bc02660b019fd95613fda82613f1f9661444d565b968196919461447d565b604080516001600160a01b03909216825260208201929092529081908101613ed6565b632a55ca5360e01b60005260046000fd5b821561405f5783613fe49161404e847fda148fac2e1063174be7bc0895576bdaba90fd14e575463fa26a967cb895cadd976146d7565b906140598582613ca4565b926148fc565b602092508161408f917f3168ba660eed6ef1dc2258b2247cc05fd0f2f350d39e6ad2e2ebc76a8000b40b95614309565b6040516001600160a01b039091168152a1565b6001600160a01b038216600090815260048201602052604090205490929190600384019061ffff1661422a5761ffff845460081c1661ffff825416106141fe57806140ee85859361444d565b9290921061418d5750506001600160a01b0381166000908152600784016020526040902054600684019061ffff1661414c57817f19fe3ca603e87854a0747cc10abf06bac64d61bac73d6d15f2fd3ca448f1526494613fe4926146c0565b807fda148fac2e1063174be7bc0895576bdaba90fd14e575463fa26a967cb895cadd9461417c84613fe4946146d7565b906141878582613ca4565b92614897565b819293509084826141c27ffaeb8de771b867cf357f6b459a7002b62ec45d544a8078a3ecd91200cc826d7597613f29956145f0565b6001600160a01b03861660009081526007830160205260409020546006830191613f24918891859161ffff161561457657613f1f838387614309565b817f2e8038f5812f763c6ef0c5427cb5a05ce6d7064af2ba7d1d270bc02660b019fd94613fe492614576565b807f143db27bc2036653dc6f962ff9d0b803163d4af50c256ca9e6927b3d6dcd01979461425a84613fe4946146d7565b906142658582613ca4565b92614a06565b91907f7fffffffffffffffffffffffffffffff5d576e7357a4501ddfe92f46681b20a084116142e8579160209360809260ff60009560405194855216868401526040830152606082015282805260015afa15612ec3576000516001600160a01b038116156142dc5790600090600090565b50600090600190600090565b50505060009160039190565b61ffff6000199116019061ffff8211611d9d57565b909161431590826146d7565b61ffff8254166143268183856147af565b61ffff614332826142f4565b1661ffff19845416178355614347818461484f565b61ffff821614612f2057611e3f926002830161ffff831660005280602052614388614380604060002060018060a01b0390541684613ca4565b848487614897565b61ffff8316600052602052614059604060002060018060a01b0390541682613ca4565b90916143b790826146d7565b61ffff8254166143c88183856147af565b61ffff6143d4826142f4565b1661ffff198454161783556143e9818461484f565b61ffff821614612f2057611e3f926002830161ffff83166000528060205261442a614422604060002060018060a01b0390541684613ca4565b848487614991565b61ffff8316600052602052614265604060002060018060a01b0390541682613ca4565b60029092919261445c81614a94565b6001600052016020526120a860018060a01b03604060002054168093613ca4565b61448681614a94565b6144b661ffff825416614499818461470c565b61ffff6144a5826142f4565b1661ffff198454161783558261484f565b60028101926001600052836020526144dc604060002060018060a01b0390541684613ca4565b92600194600261ffff855416905b61ffff811682811161456b578281101561454157508061450c6145149261356b565b908588614ab1565b9790975b8710156145375761452a9088876147af565b61fffe8760011b166144ea565b5050505092505050565b600090815260208490526040902054909790614566906001600160a01b031685613ca4565b614518565b505050505092505050565b9091611e3f926145ea61458d61ffff85541661356b565b6001600160a01b03841660008181526001870160209081526040808320805461ffff871661ffff19918216811790925581855260028b01909352922080546001600160a01b03191690931790925586549091161785559282613ca4565b92614991565b6145f981614a94565b61460c61ffff825416614499818461470c565b6002810192600160005283602052614632604060002060018060a01b0390541684613ca4565b9260019461464060016149ef565b61ffff855416905b61ffff811682811161456b578281101561469657508061466a6146729261356b565b908588614b17565b9790975b871115614537576146889088876147af565b614691876149ef565b614648565b6000908152602084905260409020549097906146bb906001600160a01b031685613ca4565b614676565b9091611e3f9261418761458d61ffff85541661356b565b600191828060a01b03166000520160205261ffff604060002054169081156146fb57565b63f2755e3760e01b60005260046000fd5b9061472f61ffff8354166147238160011115613595565b61ffff83161115613595565b600160008181526002840160208181526040808420805461ffff90971680865282862080546001600160a01b03998a168089529a89018652848820805461ffff1990811690941790559098168087529286208054909116871790559290915284546001600160a01b03199081169096179094559190528054909216179055565b919061ffff906147d4828554166147ca818585161115613595565b8385161115613595565b811660008181526002850160208181526040808420805497871680865282862080546001600160a01b039a8b168089526001909c01865284882080549a199a8b1690931790925598168086529185208054909716861790965591905284546001600160a01b0319908116909617909455528054909216179055565b61ffff9091166000908152600282016020908152604080832080546001600160a01b031981169091556001600160a01b03168352600193909301905220805461ffff19169055565b9092915b600161ffff8216116148ae575b50505050565b600181901c617fff16600081815260028401602052604090205490919084906148e0906001600160a01b031687613ca4565b10156148f6576148f19082846147af565b61489b565b506148a8565b91939061fffe8560011b1661ffff845416905b61ffff811682811161453757828110156149655750806149316149399261356b565b908487614ab1565b9690965b86101561495c5761494f9087866147af565b61fffe8660011b1661490f565b50505092505050565b600090815260028601602052604090205490969061498c906001600160a01b031684613ca4565b61493d565b9092915b600161ffff8216116149a75750505050565b600181901c617fff16600081815260028401602052604090205490919084906149d9906001600160a01b031687613ca4565b11156148f6576149ea9082846147af565b614995565b60011b906201fffe61fffe831692168203611d9d57565b919390614a12856149ef565b61ffff845416905b61ffff81168281116145375782811015614a68575080614a3c614a449261356b565b908487614b17565b9690965b86111561495c57614a5a9087866147af565b614a63866149ef565b614a1a565b6000908152600286016020526040902054909690614a8f906001600160a01b031684613ca4565b614a48565b5461ffff1615614aa057565b6340d9b01160e01b60005260046000fd5b6002614b029195949295019461ffff841660005285602052614ae1604060002060018060a01b0390541682613ca4565b9561ffff8416600052602052604060002060018060a01b0390541690613ca4565b90818510614b105750509190565b9350919050565b6002614b689195949395019161ffff861660005282602052614b47604060002060018060a01b0390541682613ca4565b9261ffff8516600052602052604060002060018060a01b0390541690613ca4565b9384821115614b10575050919056fe1c593a2b803c3f9038e8b6743ba79fbc4276d2770979a01d2768ed12bea3243fc451c9429c27db68f286ab8a68f311f1dccab703ba9423aed29cd397ae63f863691bb03ffc16c56fc96b82fd16cd1b3715f0bc3cdc6407005f49bb6205860095a264697066735822122015df506051f15728d967cd9feac9e72e05177dd5a64ad47ccaff2ab231af3dc164736f6c634300081a0033","linkReferences":{}},"methodIdentifiers":{"addBootstrapNode(string)":"10fd4261","claim()":"4e71d92d","confirmChange(uint64)":"350a14bf","confirmNextChange()":"c7ebdaef","join(bytes)":"6170b162","kill()":"41c0e1b5","leave()":"d66d9e19","pause()":"8456cb59","paused()":"5c975abb","preFund()":"0b7fbe60","preRelease(uint256)":"66783c9b","setFederatedPower(address[],bytes[],uint256[])":"da5d09ee","stake()":"3a4b66f1","submitCheckpoint(((uint64,address[]),uint256,bytes32,uint64,(uint8,((uint64,address[]),(uint8,bytes)),((uint64,address[]),(uint8,bytes)),uint64,uint256,bytes)[]),address[],bytes[])":"79979f57","unpause()":"3f4ba83a","unstake(uint256)":"2e17de78","validateActiveQuorumSignatures(address[],bytes32,bytes[])":"cc2dc2b9"},"id":123}