{"abi":[{"type":"function","name":"addStake","inputs":[],"outputs":[],"stateMutability":"payable"},{"type":"function","name":"fund","inputs":[{"name":"subnetId","type":"tuple","internalType":"struct SubnetID","components":[{"name":"root","type":"uint64","internalType":"uint64"},{"name":"route","type":"address[]","internalType":"address[]"}]},{"name":"to","type":"tuple","internalType":"struct FvmAddress","components":[{"name":"addrType","type":"uint8","internalType":"uint8"},{"name":"payload","type":"bytes","internalType":"bytes"}]}],"outputs":[],"stateMutability":"payable"},{"type":"function","name":"kill","inputs":[],"outputs":[],"stateMutability":"nonpayable"},{"type":"function","name":"register","inputs":[{"name":"genesisCircSupply","type":"uint256","internalType":"uint256"}],"outputs":[],"stateMutability":"payable"},{"type":"function","name":"release","inputs":[{"name":"to","type":"tuple","internalType":"struct FvmAddress","components":[{"name":"addrType","type":"uint8","internalType":"uint8"},{"name":"payload","type":"bytes","internalType":"bytes"}]},{"name":"fee","type":"uint256","internalType":"uint256"}],"outputs":[],"stateMutability":"payable"},{"type":"function","name":"releaseRewardForRelayer","inputs":[{"name":"amount","type":"uint256","internalType":"uint256"}],"outputs":[],"stateMutability":"nonpayable"},{"type":"function","name":"releaseStake","inputs":[{"name":"amount","type":"uint256","internalType":"uint256"}],"outputs":[],"stateMutability":"nonpayable"},{"type":"error","name":"AlreadyRegisteredSubnet","inputs":[]},{"type":"error","name":"CallFailed","inputs":[]},{"type":"error","name":"CannotReleaseZero","inputs":[]},{"type":"error","name":"InsufficientFunds","inputs":[]},{"type":"error","name":"InvalidActorAddress","inputs":[]},{"type":"error","name":"InvalidCrossMsgValue","inputs":[]},{"type":"error","name":"NotEmptySubnetCircSupply","inputs":[]},{"type":"error","name":"NotEnoughCollateral","inputs":[]},{"type":"error","name":"NotEnoughFee","inputs":[]},{"type":"error","name":"NotEnoughFunds","inputs":[]},{"type":"error","name":"NotEnoughFundsToRelease","inputs":[]},{"type":"error","name":"NotRegisteredSubnet","inputs":[]},{"type":"error","name":"ReentrancyError","inputs":[]}],"bytecode":{"object":"0x6080806040523461001657611bd1908161001c8239f35b600080fdfe608080604052600436101561001357600080fd5b60003560e01c90816318f44b7014610efb5750806341c0e1b514610d8757806345f5448514610cd25780635a627dbc14610c4f5780639ba5358014610458578063d8e25572146103185763f207564e1461006c57600080fd5b60208060031936011261028957600435908134106103065761008e82346112a6565b9160135483106102f5576100d9906100a46112ef565b90600073__$a0fe38a9a81205afccc10810b09a4d3f45$__926040518095819263aa5106cb60e01b8352339060048401611547565b0381855af4928315610295576000936102d0575b506100f783611a86565b906102be5760048101956001600160401b0396878651166001600160401b031982541617905560058201868601519081519189831161024c57908883926101448299979a98969584611586565b01906000528660002060005b8381106102a15750505050856002916101a3975560038101600160801b60ff60801b19825416179055436001820155015560405180809581946390ba52cf60e01b835286600484015260248301906114ec565b03915af491821561029557600092610262575b5050601054600160401b81101561024c5760018101806010558110156102365760106000527f1b6847dc741a1b0cd08d278845f9d819d87b734759afb55fe2de5cb82a9ae67201556015549061021b6001600160401b0360881b918360881c166115bc565b60881b1667ffffffffffffffff60881b199190911617601555005b634e487b7160e01b600052603260045260246000fd5b634e487b7160e01b600052604160045260246000fd5b90809250813d831161028e575b61027981836112ce565b81010312610289575138806101b6565b600080fd5b503d61026f565b6040513d6000823e3d90fd5b82516001600160a01b0316818301558a9890920191600101610150565b604051631b538cdf60e11b8152600490fd5b6102ee9193503d806000833e6102e681836112ce565b8101906114c4565b91386100ed565b60405162d11df360e61b8152600490fd5b604051631036b5ad60e31b8152600490fd5b346102895760208060031936011261028957600435907f691bb03ffc16c56fc96b82fd16cd1b3715f0bc3cdc6407005f49bb6205860095906001825414610446576001825582156104345761036c336119ee565b9015610422578161038260046103a39301611380565b60405180938192632cff562160e11b835284600484015260248301906114ec565b038173__$a0fe38a9a81205afccc10810b09a4d3f45$__5af4918215610295576000926103e4575b6000846103e1876001600160a01b0387166115fc565b55005b90809250813d831161041b575b6103fb81836112ce565b81010312610289576000926104126103e19261140b565b918194506103cb565b503d6103f1565b604051630e991abd60e41b8152600490fd5b60405163c79cad7b60e01b8152600490fd5b6040516329f745a760e01b8152600490fd5b60031960403682011261028957600435906001600160401b03821161028957604081833603011261028957602435906014548210610c3d57813410610306573415610c2b576104ec92826104ae600094346112a6565b906040519586948594632e82508d60e21b865260a060048701526104d460a487016118bd565b91336024880152868303016044870152600401611852565b9160648401526084830152038173__$33b79814e84bf6cf5e47244090b19ce5f8$__5af490811561029557600091610c08575b506001600160401b03601654168015610bf2576001600160401b0361054782824316046115bc565b16026001600160401b038116908103610bdc576001600160401b0360155460081c16606083510152600052600a6020526040600020805490600160401b82101561024c5760018201808255821015610236576000526020600020908251805180516001600160401b038151166001600160401b0319600d86028701541617600d850286015560206001600d8602870101910151908151916001600160401b03831161024c576020906105f98484611586565b0190600052602060002060005b838110610bbf5750505050602090816002600d86028701019101519060ff82511660ff1982541617905501518051906001600160401b03821161024c576003600d85028601015490600182811c92168015610bb5575b60208310146109ec5781601f849311610b7b575b50602090601f8311600114610aff57600092610af4575b50508160011b916000199060031b1c1916176003600d8402850101555b60208181015180518051600d8602870160048101805467ffffffffffffffff19166001600160401b03938416179055919093015180519293600590920191831161024c576020906106f58484611586565b0190600052602060002060005b838110610ad75750505050602090816006600d86028701019101519060ff82511660ff1982541617905501518051906001600160401b03821161024c576007600d85028601015490600182811c92168015610acd575b60208310146109ec5781601f849311610a93575b50602090601f8311600114610a1757600092610a0c575b50508160011b916000199060031b1c1916176007600d8402850101555b60408101516008600d8402850101556009600d83028401016001600160401b036060830151168154906bffffffff0000000000000000608085015160a01c16916bffffffffffffffffffffffff191617179055600a600d830284010160a08201518051906001600160401b03821161024c578254600181811c91168015610a02575b60208210146109ec57601f81116109af575b50602090601f831160011461093b5793600d9383600c979460c09460209a98600092610930575b50508160011b916000199060031b1c19161790555b0151600b83830285010155020101910151151560ff8019835416911617905560155468ffffffffffffffff006108b16001600160401b038360081c166115bc565b60081b169068ffffffffffffffff0019161760155534471061091e5760008080803460635af13d15610919573d6108e7816115e1565b906108f560405192836112ce565b8152600060203d92013e5b1561090757005b604051633204506f60e01b8152600490fd5b610900565b60405163356680b760e01b8152600490fd5b015190508b8061085b565b90601f198316918460005260206000209260005b81811061099757508460c09460209a9894600d9894600c9b986001951061097e575b505050811b019055610870565b015160001960f88460031b161c191690558b8080610971565b9293602060018192878601518155019501930161094f565b6109dc90846000526020600020601f850160051c810191602086106109e2575b601f0160051c019061156f565b87610834565b90915081906109cf565b634e487b7160e01b600052602260045260246000fd5b90607f1690610822565b015190508680610783565b92506007600d86028701016000526020600020906000935b601f1984168510610a78576001945083601f19811610610a5f575b505050811b016007600d8402850101556107a0565b015160001960f88460031b161c19169055868080610a4a565b81810151835560209485019460019093019290910190610a2f565b610ac7906007600d88028901016000526020600020601f850160051c810191602086106109e257601f0160051c019061156f565b8761076c565b91607f1691610758565b82516001600160a01b031681830155602090920191600101610702565b015190508680610687565b92506003600d86028701016000526020600020906000935b601f1984168510610b60576001945083601f19811610610b47575b505050811b016003600d8402850101556106a4565b015160001960f88460031b161c19169055868080610b32565b81810151835560209485019460019093019290910190610b17565b610baf906003600d88028901016000526020600020601f850160051c810191602086106109e257601f0160051c019061156f565b87610670565b91607f169161065c565b82516001600160a01b031681830155602090920191600101610606565b634e487b7160e01b600052601160045260246000fd5b634e487b7160e01b600052601260045260246000fd5b610c2591503d806000833e610c1d81836112ce565b81019061174d565b8161051f565b6040516360ec4e6b60e11b8152600490fd5b6040516334472ad760e11b8152600490fd5b600036600319011261028957341561030657610c6a336119ee565b9015610422576003610c7d3483546115d4565b91828155019081549060ff8260801c166006811015610cbc57600214610c9f57005b6013541115610cab575b005b60ff60801b1916600160801b179055005b634e487b7160e01b600052602160045260246000fd5b346102895760208060031936011261028957600435907f691bb03ffc16c56fc96b82fd16cd1b3715f0bc3cdc6407005f49bb62058600959060018254146104465760018255821561043457610d26336119ee565b9015610422578054848110610d755761038260046103a393610d498887956112a6565b80825560135411610d5b575b01611380565b60038101805460ff60801b1916600160811b179055610d55565b6040516379b33e7960e01b8152600490fd5b3461028957600036600319011261028957610da1336119ee565b9015610422576002810154610ee957805490601554906001600160401b0390600019828460881c1601918211610bdc5767ffffffffffffffff60881b1990921660889190911b67ffffffffffffffff60881b1617601555610e0490600401611380565b90610e2d604051926390ba52cf60e01b84528380602093849384600484015260248301906114ec565b038173__$a0fe38a9a81205afccc10810b09a4d3f45$__5af4801561029557600090610eba575b610ca993506000526000815260056040600020600081556000600182015560006002820155600060038201556000600482015501908154906000835581610e9f575b505050336115fc565b610eb2926000526000209081019061156f565b828080610e96565b508083813d8311610ee2575b610ed081836112ce565b8101031261028957610ca99251610e54565b503d610ec6565b604051637c67c70160e11b8152600490fd5b60031990604036830112610289576001600160401b039160043583811161028957803603604083820112610289576024938435908682116102895760408583360301126102895734156112975750604051926379185f5960e11b845260a0600485015260e484019281600401358881168091036102895760a48601528187013590602219018112156102895701856004820135910192878211610289578160051b3603841361028957908085939492604060c486015252610104830191906000905b80821061126557505050610fe68291600094338985015287848303016044850152600401611852565b346064830152836084830152038173__$33b79814e84bf6cf5e47244090b19ce5f8$__5af49081156102955760009161124a575b5060209182825101515190600061106673__$a0fe38a9a81205afccc10810b09a4d3f45$__93611074604051948593849363089032d560e01b85526040600486015260448501906114ec565b90838203018a8401526118bd565b0381855af49081156102955760009161122f575b5061109281611a86565b929015610422576110ff9583600387950180548a6110b88183168060608c5101526115bc565b16906001600160401b0319161790556110dc600260408851015192019182546115d4565b90556040518097819482936304e384ff60e21b84528760048501528301906114ec565b03915af48015610295576000906111db575b7f392fae29c67f3b47710cb5b84d7a6fd08e0155a4f22565971f7159f12c6f7096935060405192839281845260c06111ba8251986040858801526111628a5160e060608a0152610140890190611961565b61117d868c015191605f1992838b83030160808c0152611961565b9160408c015160a08a015260608c0151168489015263ffffffff60e01b60808c01511660e089015260a08b0151908883030161010089015261193c565b9701516101208501520151151560408301526001600160a01b0316930390a2005b508183813d8311611228575b6111f181836112ce565b81010312610289576112237f392fae29c67f3b47710cb5b84d7a6fd08e0155a4f22565971f7159f12c6f70969361140b565b611111565b503d6111e7565b61124491503d806000833e6102e681836112ce565b86611088565b61125f91503d806000833e610c1d81836112ce565b8461101a565b919493509184356001600160a01b03811691908290036102895760019181526020809101950192018593949291610fbd565b6360ec4e6b60e11b8152600490fd5b91908203918211610bdc57565b604081019081106001600160401b0382111761024c57604052565b90601f801991011681019081106001600160401b0382111761024c57604052565b604051906112fc826112b3565b816001600160401b03601154168152604051809160125480835283602080940160126000527fbb8a6a4669ba250d26cd7a459eca9d215f8307e33aebe50379bc5a3617ec34449260005b868282106113615750505061135d925003846112ce565b0152565b85546001600160a01b0316845260019586019589955093019201611346565b9060405161138d816112b3565b80926001600160401b03815416825260018091019160405191828481955492838652602080960191600052856000209060005b878682106113d8575050505061135d925003846112ce565b83546001600160a01b03168552899550909301929181019181016113c0565b51906001600160401b038216820361028957565b51906001600160a01b038216820361028957565b9190916040818403126102895760405192611439846112b3565b83611443836113f7565b8152602091828401516001600160401b0394858211610289570181601f8201121561028957805194851161024c578460051b9060405195611486868401886112ce565b865284808701928201019283116102895784809101915b8383106114ac57505050500152565b81906114b78461140b565b815201910190849061149d565b906020828203126102895781516001600160401b038111610289576114e9920161141f565b90565b60609060408301906001600160401b03815116845260209283809201519460408382015285518094520193019160005b82811061152a575050505090565b83516001600160a01b03168552938101939281019260010161151c565b9061155f6020919493946040845260408401906114ec565b6001600160a01b03909416910152565b81811061157a575050565b6000815560010161156f565b90600160401b811161024c578154908083558181106115a457505050565b6115ba926000526020600020918201910161156f565b565b9060016001600160401b0380931601918211610bdc57565b91908201809211610bdc57565b6001600160401b03811161024c57601f01601f191660200190565b81471061091e576000918291829182916001600160a01b03165af13d15611647573d611627816115e1565b9061163560405192836112ce565b8152600060203d92013e5b1561090757565b611640565b60005b83811061165f5750506000910152565b818101518382015260200161164f565b81601f82011215610289578051611685816115e1565b9261169360405194856112ce565b81845260208284010111610289576114e9916020808501910161164c565b919060408382031261028957604051926116ca846112b3565b838151916001600160401b039283811161028957846116ea91830161141f565b825260208101519083821161028957016040818503126102895760405193611711856112b3565b815160ff81168103610289578552602082015193841161028957602093611738920161166f565b828401520152565b5190811515820361028957565b906020828203126102895781516001600160401b0392838211610289570191604092838184031261028957835193611784856112b3565b81518381116102895782019360e0858203126102895781519160e083018381108682111761024c578152855185811161028957826117c39188016116b1565b8352602086015185811161028957826117dd9188016116b1565b602084015280860151908301526117f6606086016113f7565b606083015260808501516001600160e01b03198116810361028957608083015260a0850151938411610289578461183660c09260209661184a980161166f565b60a0840152015160c0820152845201611740565b602082015290565b803560ff81168091036102895782526020810135601e1982360301811215610289570190602082359201916001600160401b038111610289578036038313610289578060609360406020850152816040850152848401376000828201840152601f01601f1916010190565b60408101906001600160401b036011541681526060602091604083820152601254809452019160126000527fbb8a6a4669ba250d26cd7a459eca9d215f8307e33aebe50379bc5a3617ec3444916000905b82821061191c575050505090565b83546001600160a01b03168552938401936001938401939091019061190e565b906020916119558151809281855285808601910161164c565b601f01601f1916010190565b91908251906040815260808101936001600160401b038351166040830152602080930151946040606084015285518091528360a0840196019060005b8181106119d157505050936040838193816114e997980151908281860391015260ff8151168452015193820152019061193c565b82516001600160a01b03168852968501969185019160010161199d565b6001600160a01b03811615611a74576000611a2691611a0b6112ef565b60405163aa5106cb60e01b8152938492839260048401611547565b038173__$a0fe38a9a81205afccc10810b09a4d3f45$__5af4801561029557611a5791600091611a5b575b50611a86565b9091565b611a6e913d8091833e6102e681836112ce565b38611a51565b6040516370e4510960e01b8152600490fd5b611ac473__$a0fe38a9a81205afccc10810b09a4d3f45$__91604051906390ba52cf60e01b82528180602094859384600484015260248301906114ec565b0381865af490811561029557600091611b6c575b5090611b1b916000526000815280604060002093611af860048601611380565b906040518080968194630c133d1360e31b835286600484015260248301906114ec565b03915af490811561029557600091611b35575b5090501591565b82813d8311611b65575b611b4981836112ce565b81010312611b625750611b5b90611740565b8038611b2e565b80fd5b503d611b3f565b908282813d8311611b94575b611b8281836112ce565b81010312611b62575051611b1b611ad8565b503d611b7856fea26469706673582212206b146ed22c901b57e06004b2600f9898b3cf68704c1aa3f70259be3a61de5a8d64736f6c63430008130033","linkReferences":{"src/lib/CrossMsgHelper.sol":{"CrossMsgHelper":[{"start":1303,"length":20},{"start":4114,"length":20}]},"src/lib/SubnetIDHelper.sol":{"SubnetIDHelper":[{"start":197,"length":20},{"start":963,"length":20},{"start":3661,"length":20},{"start":4168,"length":20},{"start":6726,"length":20},{"start":6823,"length":20}]}}},"methodIdentifiers":{"addStake()":"5a627dbc","fund((uint64,address[]),(uint8,bytes))":"18f44b70","kill()":"41c0e1b5","register(uint256)":"f207564e","release((uint8,bytes),uint256)":"9ba53580","releaseRewardForRelayer(uint256)":"d8e25572","releaseStake(uint256)":"45f54485"},"id":45}