{"abi":[{"type":"constructor","inputs":[{"name":"_gw","type":"address","internalType":"contract GatewayDiamond"}],"stateMutability":"nonpayable"},{"type":"receive","stateMutability":"payable"},{"type":"function","name":"register","inputs":[{"name":"amount","type":"uint256","internalType":"uint256"}],"outputs":[],"stateMutability":"nonpayable"},{"type":"function","name":"stake","inputs":[{"name":"amount","type":"uint256","internalType":"uint256"}],"outputs":[],"stateMutability":"nonpayable"}],"bytecode":{"object":"0x608034610100576001600160401b0390601f61048838819003918201601f1916830191848311848410176100de5780849260209460405283398101031261010057516001600160a01b0381169081900361010057600f80546001600160a01b031916919091179055737109709ecfa91a80626ff3989d68f67f5b1dd12d90813b15610100576000809260446040518095819363c88a5e6d60e01b83523060048401526a6b31bffa03c1c535c0000060248401525af180156100f4576100ce575b60405161038290816101068239f35b81116100de5760405238806100bf565b634e487b7160e01b600052604160045260246000fd5b6040513d6000823e3d90fd5b600080fdfe6080604052600436101561001b575b361561001957600080fd5b005b6000803560e01c8063a694fc3a146100bc5763f207564e1461003d575061000e565b346100aa5760203660031901126100aa578061005a60043561016d565b600f546001600160a01b031690813b156100b8578291602483926040519485938492637903ab2760e11b845260048401525af180156100ad5761009a5750f35b6100a390610121565b6100aa5780f35b80fd5b6040513d84823e3d90fd5b5050fd5b50346100aa5760203660031901126100aa576100d960043561016d565b600f5482906001600160a01b0316803b1561011d576004604051809481936316989f6f60e21b83525af180156100ad57610111575080f35b61011a90610121565b80f35b5080fd5b67ffffffffffffffff811161013557604052565b634e487b7160e01b600052604160045260246000fd5b90601f8019910116810190811067ffffffffffffffff82111761013557604052565b61017690610265565b60408051929067ffffffffffffffff84820181811186821017610135578252600c85526020906b109bdd5b990814995cdd5b1d60a21b82870152825182810190632d839cb360e21b8252846024820152875180606483015260005b8181106102515750601f96979850918161020f60848286600083819982990101528d60448301528b199b8c910116810103606481018452018261014b565b51906a636f6e736f6c652e6c6f675afa503d1561024b573d90811161013557610243826000945195601f840116018561014b565b83523d92013e565b50505050565b8981018601518382016084015285016101d1565b6801a055690d9db80000906000908183821180156103325760038311158061033a575b610332576003198310158061031f575b61030f571561030857506801a055690d9db7ffff1981019081116102f4576801a055690d9db8000190069182156102ee575060001982019182116102da575090565b634e487b7160e01b81526011600452602490fd5b91505090565b634e487b7160e01b82526011600452602482fd5b9392505050565b50501982039182116102da575090565b5082196801a055690d9db8000111610298565b505091505090565b50826801a055690d9db800011161028856fea264697066735822122000425588355b7cd841dd032e7ce2254841132d496de72eddb3f1984163e4885e64736f6c63430008130033","linkReferences":{}},"methodIdentifiers":{"register(uint256)":"f207564e","stake(uint256)":"a694fc3a"},"id":102}