{"abi":[{"type":"function","name":"getSubnetDeployedByNonce","inputs":[{"name":"owner","type":"address","internalType":"address"},{"name":"nonce","type":"uint64","internalType":"uint64"}],"outputs":[{"name":"subnet","type":"address","internalType":"address"}],"stateMutability":"view"},{"type":"function","name":"latestSubnetDeployed","inputs":[{"name":"owner","type":"address","internalType":"address"}],"outputs":[{"name":"subnet","type":"address","internalType":"address"}],"stateMutability":"view"},{"type":"error","name":"CannotFindSubnet","inputs":[]}],"bytecode":{"object":"0x6080806040523461001657610173908161001c8239f35b600080fdfe6080604090808252600436101561001557600080fd5b600090813560e01c9081631163dca5146100ae5750639836b75f1461003957600080fd5b346100ab57816003193601126100ab57610051610122565b9060243567ffffffffffffffff81168091036100a7576001600160a01b0392831682526005602090815284832091835252829020541680156100965760209151908152f35b815163276e74a760e11b8152600490fd5b5080fd5b80fd5b8383346100ab5760203660031901126100ab576001600160a01b03908290826100d5610122565b168152600660205267ffffffffffffffff60001981848420541601166005602052828220908252602052205416908115610113576020925051908152f35b63276e74a760e11b8352600483fd5b600435906001600160a01b038216820361013857565b600080fdfea26469706673582212200501557ebfd60d81b91fcfbbadd6c1effde6d82aea52c69286e0471046eb64aa64736f6c63430008130033","linkReferences":{}},"methodIdentifiers":{"getSubnetDeployedByNonce(address,uint64)":"9836b75f","latestSubnetDeployed(address)":"1163dca5"},"id":57}