{
  "abi": [
    {
      "inputs": [
        {
          "internalType": "bytes4",
          "name": "_functionSelector",
          "type": "bytes4"
        }
      ],
      "name": "facetAddress",
      "outputs": [
        {
          "internalType": "address",
          "name": "facetAddress_",
          "type": "address"
        }
      ],
      "stateMutability": "view",
      "type": "function"
    },
    {
      "inputs": [],
      "name": "facetAddresses",
      "outputs": [
        {
          "internalType": "address[]",
          "name": "facetAddresses_",
          "type": "address[]"
        }
      ],
      "stateMutability": "view",
      "type": "function"
    },
    {
      "inputs": [
        {
          "internalType": "address",
          "name": "_facet",
          "type": "address"
        }
      ],
      "name": "facetFunctionSelectors",
      "outputs": [
        {
          "internalType": "bytes4[]",
          "name": "_facetFunctionSelectors",
          "type": "bytes4[]"
        }
      ],
      "stateMutability": "view",
      "type": "function"
    },
    {
      "inputs": [],
      "name": "facets",
      "outputs": [
        {
          "components": [
            {
              "internalType": "address",
              "name": "facetAddress",
              "type": "address"
            },
            {
              "internalType": "bytes4[]",
              "name": "functionSelectors",
              "type": "bytes4[]"
            }
          ],
          "internalType": "struct IDiamondLoupe.Facet[]",
          "name": "facets_",
          "type": "tuple[]"
        }
      ],
      "stateMutability": "view",
      "type": "function"
    },
    {
      "inputs": [
        {
          "internalType": "bytes4",
          "name": "_interfaceId",
          "type": "bytes4"
        }
      ],
      "name": "supportsInterface",
      "outputs": [
        {
          "internalType": "bool",
          "name": "",
          "type": "bool"
        }
      ],
      "stateMutability": "view",
      "type": "function"
    }
  ],
  "bytecode": {
    "object": "0x608080604052346100165761086d908161001c8239f35b600080fdfe6080604052600436101561001257600080fd5b60003560e01c806301ffc9a71461006757806352ef6b2c146100625780637a0ed6271461005d578063adfca15e146100585763cdffacc61461005357600080fd5b61060b565b61054a565b610305565b610126565b346100ba576001600160e01b031961007e366100bf565b166000527f806e0cbb9fce296bbc336a48f42bf1dbc69722d18d90d6fe705b7582c2bb4bd460205260ff60406000205416151560805260206080f35b600080fd5b60209060031901126100ba576004356001600160e01b0319811681036100ba5790565b6020908160408183019282815285518094520193019160005b828110610109575050505090565b83516001600160a01b0316855293810193928101926001016100fb565b346100ba5760008060031936011261024a5760008051602061081883398151915254610151816106f2565b90829083905b808210610173578284526040518061016f86826100e2565b0390f35b90916101a66101996101946101878661075a565b90549060031b1c60e01b90565b6107ab565b546001600160a01b031690565b856001600160a01b038216815b848110610201575b50506101f657816101e56101ea926101d66101f095896107f0565b6001600160a01b039091169052565b610730565b92610730565b90610157565b50916101f090610730565b61022a61021e610211838b6107f0565b516001600160a01b031690565b6001600160a01b031690565b821461023e5761023990610730565b6101b3565b505050600138806101bb565b80fd5b602080820190808352835180925260409283810182858560051b840101960194600080935b86851061028457505050505050505090565b909192939480969798603f198382030186528951826060818885019360018060a01b038151168652015193888382015284518094520192019085905b8082106102e15750505090806001929a019501950193969594929190610272565b82516001600160e01b03191684528a949384019390920191600191909101906102c0565b346100ba5760008060031936011261024a576000805160206108188339815191525461033081610689565b9061033a816106f2565b92809181905b80821061039f5750505b818110610362578183526040518061016f858261024d565b8061038561037e61037661039a94886107f0565b5161ffff1690565b61ffff1690565b602061039183876107f0565b51015152610730565b61034a565b90926103ad6101878561075a565b6103b9610199826107ab565b846001600160a01b038216815b858110610468575b505061045c579161043d610450926103fd610456956103ed858c6107f0565b516001600160a01b039091169052565b61042d8361040a886106f2565b8b61041860209384926107f0565b510152610425858c6107f0565b5101516107e3565b6001600160e01b03199091169052565b6101e561044a828a6107f0565b60019052565b93610730565b90610340565b50509261045690610730565b8a858b8461048a61021e61047c87856107f0565b51516001600160a01b031690565b146104a05750505061049b90610730565b6103c6565b6104fc9550838095506104ec936104e26104e79461042d60206104c96104f39a610376986107f0565b5101516104dc61037e61037688886107f0565b906107f0565b6107f0565b610804565b918b6107f0565b9061ffff169052565b600138806103ce565b6020908160408183019282815285518094520193019160005b82811061052c575050505090565b83516001600160e01b0319168552938101939281019260010161051e565b346100ba5760203660031901126100ba576001600160a01b03600435818116908190036100ba57600080516020610818833981519152549160009061058e846106f2565b92825b8581106105a9578385526040518061016f8782610505565b6105b28161075a565b90549060031b1c60e01b836105c6826107ab565b541683146105de575b506105d990610730565b610591565b84610604916105f16105d99497896107f0565b6001600160e01b03199091169052610730565b93906105cf565b346100ba5760206001600160a01b03610626610194366100bf565b5416604051908152f35b634e487b7160e01b600052604160045260246000fd5b6040519190601f01601f1916820167ffffffffffffffff81118382101761066c57604052565b610630565b67ffffffffffffffff811161066c5760051b60200190565b9061069b61069683610671565b610646565b82815280926106ac601f1991610671565b016000805b8281106106be5750505050565b604090815182810181811067ffffffffffffffff82111761066c5760209352838152826060818301528287010152016106b1565b906106ff61069683610671565b8281528092610710601f1991610671565b0190602036910137565b634e487b7160e01b600052601160045260246000fd5b600019811461073f5760010190565b61071a565b634e487b7160e01b600052603260045260246000fd5b9060008051602061081883398151915280548310156107a657600052601c8260031c7fb65beca8b6fa788bcb1528c2ab5f4dc6bc98e5896550baa013d8330fab0b86f4019260021b1690565b610744565b63ffffffff60e01b166000527f806e0cbb9fce296bbc336a48f42bf1dbc69722d18d90d6fe705b7582c2bb4bd2602052604060002090565b8051156107a65760200190565b80518210156107a65760209160051b010190565b61ffff80911690811461073f576001019056fe806e0cbb9fce296bbc336a48f42bf1dbc69722d18d90d6fe705b7582c2bb4bd3a2646970667358221220be68e0dd0cced6186bff533347f3b7c93e94d69fa7c97af752067010f34071ec64736f6c63430008130033",
    "linkReferences": {}
  },
  "methodIdentifiers": {
    "facetAddress(bytes4)": "cdffacc6",
    "facetAddresses()": "52ef6b2c",
    "facetFunctionSelectors(address)": "adfca15e",
    "facets()": "7a0ed627",
    "supportsInterface(bytes4)": "01ffc9a7"
  },
  "id": 40
}