{"abi":[{"type":"function","name":"DELEGATED","inputs":[],"outputs":[{"name":"","type":"uint8","internalType":"uint8"}],"stateMutability":"view"},{"type":"function","name":"EAM_ACTOR","inputs":[],"outputs":[{"name":"","type":"uint64","internalType":"uint64"}],"stateMutability":"view"},{"type":"function","name":"PAYLOAD_HASH_LEN","inputs":[],"outputs":[{"name":"","type":"uint8","internalType":"uint8"}],"stateMutability":"view"},{"type":"function","name":"SECP256K1","inputs":[],"outputs":[{"name":"","type":"uint8","internalType":"uint8"}],"stateMutability":"view"},{"type":"error","name":"NotDelegatedEvmAddress","inputs":[]}],"bytecode":{"object":"0x6080806040523460185760d7908161001e823930815050f35b600080fdfe6080806040526004361015601257600080fd5b60003560e01c9081635279ff9914608d575080639c6e06c0146077578063ab528f211460615763cf8e4a6e14604657600080fd5b6000366003190112605c57602060405160148152f35b600080fd5b6000366003190112605c57602060405160018152f35b6000366003190112605c57602060405160048152f35b6000366003190112605c5780600a60209252f3fea264697066735822122030d648971cb8eac2fd07d779a8c88f7c5b1144a4067595d71c29a65f8d08754164736f6c634300081a0033","linkReferences":{}},"methodIdentifiers":{"DELEGATED()":"9c6e06c0","EAM_ACTOR()":"5279ff99","PAYLOAD_HASH_LEN()":"cf8e4a6e","SECP256K1()":"ab528f21"},"id":72}