{"abi":[{"type":"function","name":"createFundMsg","inputs":[{"name":"subnet","type":"tuple","internalType":"struct SubnetID","components":[{"name":"root","type":"uint64","internalType":"uint64"},{"name":"route","type":"address[]","internalType":"address[]"}]},{"name":"signer","type":"address","internalType":"address"},{"name":"to","type":"tuple","internalType":"struct FvmAddress","components":[{"name":"addrType","type":"uint8","internalType":"uint8"},{"name":"payload","type":"bytes","internalType":"bytes"}]},{"name":"value","type":"uint256","internalType":"uint256"},{"name":"fee","type":"uint256","internalType":"uint256"}],"outputs":[{"name":"","type":"tuple","internalType":"struct CrossMsg","components":[{"name":"message","type":"tuple","internalType":"struct StorableMsg","components":[{"name":"from","type":"tuple","internalType":"struct IPCAddress","components":[{"name":"subnetId","type":"tuple","internalType":"struct SubnetID","components":[{"name":"root","type":"uint64","internalType":"uint64"},{"name":"route","type":"address[]","internalType":"address[]"}]},{"name":"rawAddress","type":"tuple","internalType":"struct FvmAddress","components":[{"name":"addrType","type":"uint8","internalType":"uint8"},{"name":"payload","type":"bytes","internalType":"bytes"}]}]},{"name":"to","type":"tuple","internalType":"struct IPCAddress","components":[{"name":"subnetId","type":"tuple","internalType":"struct SubnetID","components":[{"name":"root","type":"uint64","internalType":"uint64"},{"name":"route","type":"address[]","internalType":"address[]"}]},{"name":"rawAddress","type":"tuple","internalType":"struct FvmAddress","components":[{"name":"addrType","type":"uint8","internalType":"uint8"},{"name":"payload","type":"bytes","internalType":"bytes"}]}]},{"name":"value","type":"uint256","internalType":"uint256"},{"name":"nonce","type":"uint64","internalType":"uint64"},{"name":"method","type":"bytes4","internalType":"bytes4"},{"name":"params","type":"bytes","internalType":"bytes"},{"name":"fee","type":"uint256","internalType":"uint256"}]},{"name":"wrapped","type":"bool","internalType":"bool"}]}],"stateMutability":"pure"},{"type":"function","name":"createReleaseMsg","inputs":[{"name":"subnet","type":"tuple","internalType":"struct SubnetID","components":[{"name":"root","type":"uint64","internalType":"uint64"},{"name":"route","type":"address[]","internalType":"address[]"}]},{"name":"signer","type":"address","internalType":"address"},{"name":"to","type":"tuple","internalType":"struct FvmAddress","components":[{"name":"addrType","type":"uint8","internalType":"uint8"},{"name":"payload","type":"bytes","internalType":"bytes"}]},{"name":"value","type":"uint256","internalType":"uint256"},{"name":"fee","type":"uint256","internalType":"uint256"}],"outputs":[{"name":"","type":"tuple","internalType":"struct CrossMsg","components":[{"name":"message","type":"tuple","internalType":"struct StorableMsg","components":[{"name":"from","type":"tuple","internalType":"struct IPCAddress","components":[{"name":"subnetId","type":"tuple","internalType":"struct SubnetID","components":[{"name":"root","type":"uint64","internalType":"uint64"},{"name":"route","type":"address[]","internalType":"address[]"}]},{"name":"rawAddress","type":"tuple","internalType":"struct FvmAddress","components":[{"name":"addrType","type":"uint8","internalType":"uint8"},{"name":"payload","type":"bytes","internalType":"bytes"}]}]},{"name":"to","type":"tuple","internalType":"struct IPCAddress","components":[{"name":"subnetId","type":"tuple","internalType":"struct SubnetID","components":[{"name":"root","type":"uint64","internalType":"uint64"},{"name":"route","type":"address[]","internalType":"address[]"}]},{"name":"rawAddress","type":"tuple","internalType":"struct FvmAddress","components":[{"name":"addrType","type":"uint8","internalType":"uint8"},{"name":"payload","type":"bytes","internalType":"bytes"}]}]},{"name":"value","type":"uint256","internalType":"uint256"},{"name":"nonce","type":"uint64","internalType":"uint64"},{"name":"method","type":"bytes4","internalType":"bytes4"},{"name":"params","type":"bytes","internalType":"bytes"},{"name":"fee","type":"uint256","internalType":"uint256"}]},{"name":"wrapped","type":"bool","internalType":"bool"}]}],"stateMutability":"pure"},{"type":"function","name":"isSorted","inputs":[{"name":"crossMsgs","type":"tuple[]","internalType":"struct CrossMsg[]","components":[{"name":"message","type":"tuple","internalType":"struct StorableMsg","components":[{"name":"from","type":"tuple","internalType":"struct IPCAddress","components":[{"name":"subnetId","type":"tuple","internalType":"struct SubnetID","components":[{"name":"root","type":"uint64","internalType":"uint64"},{"name":"route","type":"address[]","internalType":"address[]"}]},{"name":"rawAddress","type":"tuple","internalType":"struct FvmAddress","components":[{"name":"addrType","type":"uint8","internalType":"uint8"},{"name":"payload","type":"bytes","internalType":"bytes"}]}]},{"name":"to","type":"tuple","internalType":"struct IPCAddress","components":[{"name":"subnetId","type":"tuple","internalType":"struct SubnetID","components":[{"name":"root","type":"uint64","internalType":"uint64"},{"name":"route","type":"address[]","internalType":"address[]"}]},{"name":"rawAddress","type":"tuple","internalType":"struct FvmAddress","components":[{"name":"addrType","type":"uint8","internalType":"uint8"},{"name":"payload","type":"bytes","internalType":"bytes"}]}]},{"name":"value","type":"uint256","internalType":"uint256"},{"name":"nonce","type":"uint64","internalType":"uint64"},{"name":"method","type":"bytes4","internalType":"bytes4"},{"name":"params","type":"bytes","internalType":"bytes"},{"name":"fee","type":"uint256","internalType":"uint256"}]},{"name":"wrapped","type":"bool","internalType":"bool"}]}],"outputs":[{"name":"","type":"bool","internalType":"bool"}],"stateMutability":"pure"},{"type":"function","name":"toHash","inputs":[{"name":"crossMsgs","type":"tuple[]","internalType":"struct CrossMsg[]","components":[{"name":"message","type":"tuple","internalType":"struct StorableMsg","components":[{"name":"from","type":"tuple","internalType":"struct IPCAddress","components":[{"name":"subnetId","type":"tuple","internalType":"struct SubnetID","components":[{"name":"root","type":"uint64","internalType":"uint64"},{"name":"route","type":"address[]","internalType":"address[]"}]},{"name":"rawAddress","type":"tuple","internalType":"struct FvmAddress","components":[{"name":"addrType","type":"uint8","internalType":"uint8"},{"name":"payload","type":"bytes","internalType":"bytes"}]}]},{"name":"to","type":"tuple","internalType":"struct IPCAddress","components":[{"name":"subnetId","type":"tuple","internalType":"struct SubnetID","components":[{"name":"root","type":"uint64","internalType":"uint64"},{"name":"route","type":"address[]","internalType":"address[]"}]},{"name":"rawAddress","type":"tuple","internalType":"struct FvmAddress","components":[{"name":"addrType","type":"uint8","internalType":"uint8"},{"name":"payload","type":"bytes","internalType":"bytes"}]}]},{"name":"value","type":"uint256","internalType":"uint256"},{"name":"nonce","type":"uint64","internalType":"uint64"},{"name":"method","type":"bytes4","internalType":"bytes4"},{"name":"params","type":"bytes","internalType":"bytes"},{"name":"fee","type":"uint256","internalType":"uint256"}]},{"name":"wrapped","type":"bool","internalType":"bool"}]}],"outputs":[{"name":"","type":"bytes32","internalType":"bytes32"}],"stateMutability":"pure"},{"type":"error","name":"AddressEmptyCode","inputs":[{"name":"target","type":"address","internalType":"address"}]},{"type":"error","name":"AddressInsufficientBalance","inputs":[{"name":"account","type":"address","internalType":"address"}]},{"type":"error","name":"FailedInnerCall","inputs":[]},{"type":"error","name":"NotDelegatedEvmAddress","inputs":[]},{"type":"error","name":"SafeERC20FailedOperation","inputs":[{"name":"token","type":"address","internalType":"address"}]}],"bytecode":{"object":"0x6080806040523461001c576117c390816100228239308160650152f35b600080fdfe6080604052600436101561001257600080fd5b60003560e01c8063716868301461008f57806373b464b714610062578063898414751461005d578063ba094234146100585763f230beb21461005357600080fd5b610973565b610847565b610657565b307f0000000000000000000000000000000000000000000000000000000000000000036105db575b600080fd5b602036600319011261008a576001600160401b036004351161008a5736602360043501121561008a57600435600401356100c881610338565b906100d660405192836102e9565b80825260208201903660248260051b60043501011161008a57602460043501915b60248260051b600435010183106101285761012461011485610c7b565b6040519081529081906020820190565b0390f35b82356001600160401b03811161008a576023199160406004358301360384011261008a5760405190610159826102ae565b602483600435010135936001600160401b03851161008a5760e090858560043501013603011261008a5761018b61030a565b9160248585600435010101356001600160401b03811161008a576101bb90602436918888600435010101016104ed565b83526001600160401b0360448686600435010101351161008a576101ee36600435860187016044810135016024016104ed565b6020840152600435840185016064810135604085015261021090608401610360565b606084015261022760a48686600435010101610554565b608084015260c48585600435010101356001600160401b03811161008a576044602095869560e4602499610269610287968c3691848860043501010101610483565b60a0840152836004350101013560c082015284526004350101610569565b8382015281520193019290506100f7565b634e487b7160e01b600052604160045260246000fd5b604081019081106001600160401b038211176102c957604052565b610298565b606081019081106001600160401b038211176102c957604052565b90601f801991011681019081106001600160401b038211176102c957604052565b6040519060e082018281106001600160401b038211176102c957604052565b60405190610336826102ae565b565b6001600160401b0381116102c95760051b60200190565b6001600160401b0381160361008a57565b35906103368261034f565b6001600160a01b0381160361008a57565b919060408382031261008a5760405192610395846102ae565b8381356103a18161034f565b815260209182810135906001600160401b03821161008a57019280601f8501121561008a5783356103d181610338565b946103df60405196876102e9565b818652848087019260051b82010192831161008a5784809101915b83831061040957505050500152565b819083356104168161036b565b81520191019084906103fa565b359060ff8216820361008a57565b6001600160401b0381116102c957601f01601f191660200190565b92919261045882610431565b9161046660405193846102e9565b82948184528183011161008a578281602093846000960137010152565b9080601f8301121561008a5781602061049e9335910161044c565b90565b919060408382031261008a57604051906104ba826102ae565b81936104c581610423565b83526020810135916001600160401b03831161008a576020926104e89201610483565b910152565b919060408382031261008a5760405190610506826102ae565b81938035916001600160401b039283811161008a578161052791840161037c565b8452602082013592831161008a576020926104e892016104a1565b6001600160e01b031981160361008a57565b359061033682610542565b8015150361008a57565b35906103368261055f565b9081604091031261008a5790565b60005b8381106105955750506000910152565b8181015183820152602001610585565b906020916105be81518092818552858086019101610582565b601f01601f1916010190565b90602061049e9281815201906105a5565b606036600319011261008a576004356001600160401b03811161008a57610606903690600401610574565b604036602319011261008a5760405161061e816102ae565b60243590600282101561008a576101249261064b9282526044356106418161036b565b6020830152611089565b604051918291826105ca565b602036600319011261008a576001600160401b0360043581811161008a573660238201121561008a57806004013591821161008a573660248360051b8301011161008a5760209160246106aa920161125c565b6040519015158152f35b60a060031982011261008a576001600160401b039160043583811161008a57826106e091600401610574565b926024356106ed8161036b565b9260443591821161008a5761070491600401610574565b906064359060843590565b60609060408301906001600160401b03815116845260209283809201519460408382015285518094520193019160005b82811061074d575050505090565b83516001600160a01b03168552938101939281019260010161073f565b6040602061049e938161078485518584528584019061070f565b940151908281860391015260ff815116845201519181602082015201906105a5565b61049e906020815260406020845194828285015260c06108356107d6885160e0606089015261014088019061076a565b6107f1858a015191605f1992838a83030160808b015261076a565b90868a015160a08901526001600160401b0360608b0151168489015263ffffffff60e01b60808b01511660e089015260a08a015190888303016101008901526105a5565b96015161012085015201511515910152565b61086e6108906108af610859366106b4565b93959192610868979197610a7d565b506112c2565b94610877610329565b95610882368361037c565b87526020870152369061037c565b94604051956308c7427760e11b87528680600096879360048301610ba3565b038173__$a0fe38a9a81205afccc10810b09a4d3f45$__5af491821561096e57610124968593610946575b506108f1906108e7610329565b93845236906104a1565b60208301526108fe610bcb565b9161090761030a565b9586526020860152604085015282606085015282608085015260a084015260c0830152610932610329565b9182526020820152604051918291826107a6565b6108f1919350610967903d8088833e61095f81836102e9565b810190610ae8565b92906108da565b610bb4565b6109b661097f366106b4565b919492939061098c610a7d565b50610997368361037c565b95604051966308c7427760e11b88528780600097889360048301610ba3565b038173__$a0fe38a9a81205afccc10810b09a4d3f45$__5af495861561096e57610124978697610a1b575b50906109ef6108f1926112c2565b6109f7610329565b9788526020880152610a12610a0a610329565b94369061037c565b845236906104a1565b6108f192919750610a386109ef913d808a833e61095f81836102e9565b979192506109e1565b60405190610a4e826102ae565b6060602083600081520152565b60405190610a68826102ae565b81610a71610a41565b815260206104e8610a41565b60405190610a8a826102ae565b60405160e08101836001600160401b038211838310176102c957600092602092604052610ab5610a5b565b8152610abf610a5b565b83820152836040820152836060820152836080820152606060a08201528360c082015281520152565b906020808383031261008a5782516001600160401b039384821161008a57019260408484031261008a5760405193610b1f856102ae565b8051610b2a8161034f565b85528281015191821161008a57019180601f8401121561008a578251610b4f81610338565b93610b5d60405195866102e9565b818552838086019260051b82010192831161008a5783809101915b838310610b89575050505082015290565b81908351610b968161036b565b8152019101908390610b78565b90602061049e92818152019061070f565b6040513d6000823e3d90fd5b61049e9036906104a1565b60405190602082018281106001600160401b038211176102c95760405260008252565b91908251906040815260808101936001600160401b038351166040830152602080930151946040606084015285518091528360a0840196019060005b818110610c5e575050509360408381938161049e97980151908281860391015260ff815116845201519382015201906105a5565b82516001600160a01b031688529685019691850191600101610c2a565b60408051908160209384820194838301908087528251809252606080850182828560051b8801019501966000925b858410610ccf57505050505050610cc9925003601f1981018352826102e9565b51902090565b919360019193959750808097605f198c8203018752610d838b519183808451948a845289610d718c8851610d0f60e09182848b01526101208a0190610bee565b906001600160401b03610d33888d015193603f19948c898782850301910152610bee565b938c015195608096878c01528c0151169460a095868b015263ffffffff60e01b908c0151169460c095868b01528b01519189840301908901526105a5565b96015161010085015201511515910152565b990194019401918896949197959397610ca9565b90359060de198136030182121561008a570190565b903590603e198136030182121561008a570190565b3561049e81610542565b903590601e198136030182121561008a57018035906001600160401b03821161008a5760200191813603831361008a57565b3561049e8161055f565b9035603e198236030181121561008a570190565b9035601e198236030181121561008a5701602081359101916001600160401b03821161008a57813603831361008a57565b908060209392818452848401376000828201840152601f01601f1916010190565b906040610e8f61049e9360ff610e8282610423565b1684526020810190610e1b565b9190928160208201520191610e4c565b919091610eac8180610e07565b604084526080840193813592610ec18461034f565b6001600160401b03809416604083015260209283810135601e198236030181121561008a570195838735970194871161008a578660051b3603851361008a578690604060608501525260a08201936000965b808810610f3b57505061049e9495508083610f2f920190610e07565b91818403910152610e6d565b909484806001928835610f4d8161036b565b848060a01b0316815201960197019690610f13565b6020815281359060de198336030182121561008a57604061104260208561049e950195838286015260c0611033610fae610f9c8a80610e07565b60e060608a0152610140890190610e9f565b610fd1610fbd868c018c610e07565b91605f1992838b83030160808c0152610e9f565b90878b013560a08a01526001600160401b0360608c0135610ff18161034f565b16848a015261101661100560808d01610554565b6001600160e01b03191660e08b0152565b61102360a08c018c610e1b565b918a8403016101008b0152610e4c565b97013561012086015201610569565b1515910152565b60246103369193929360405194859163ffffffff60e01b1660208301526110798151809260208686019101610582565b81010360048101855201836102e9565b9060406110968380610d97565b0135906110cb6110c66110c16110bc6110b26110b28880610d97565b6020810190610dac565b610bc0565b61141d565b6111a2565b906001600160e01b03196110ea60806110e48780610d97565b01610dc1565b16156111845761113e846111186111116111078361049e99610d97565b60a0810190610dcb565b369161044c565b9061112560208201610dfd565b61114e575b60806110e48261113993610d97565b611049565b916001600160a01b0316906116e2565b905061113960806110e460405161117a8161116c8760208301610f62565b03601f1981018352826102e9565b939250505061112a565b61119a93506001600160a01b03909116906114d5565b61049e610bcb565b60008073ffffffffffffffffffffffff0000000000000000831660ff60981b146111e7575b156111e3576111d5906111fa565b906111de575090565b905090565b5090565b50506001600160401b03811660016111c7565b60009081526016600a6020836002607f60991b015afa9181519161040a8360018060a01b03169360a01c61ffff1603611250575b83158015611245575b61123e5750565b9250829150565b5060163d1415611237565b6000935091508161122e565b600090815b8383106112715750505050600190565b6001600160401b03606061129361128d8660051b860186610dac565b80610d97565b013561129e8161034f565b16809110156112b3575b600190920191611261565b82156112a85750505050600090565b6113576001600160401b03916112d6610a41565b50604051906bffffffffffffffffffffffff199060601b16602082015260148152611300816102ae565b61116c60405191611310836102ce565b600a83526001600160801b036020840160148152604085019283526040519687956020808801525116604086015251166060840152516060608084015260a08301906105a5565b61135f610329565b6004815290602082015290565b906020808383031261008a5782516001600160401b039384821161008a57019260608484031261008a57604051936113a3856102ce565b80516113ae8161034f565b8552828101516001600160801b038116810361008a5783860152604081015191821161008a570182601f8201121561008a578051906113ec82610431565b936113fa60405195866102e9565b82855283838301011161008a57826114159385019101610582565b604082015290565b600460ff61142c835160ff1690565b16036114a35760206114499101516020808251830101910161136c565b600a6001600160401b0361146483516001600160401b031690565b16036114a35760146001600160801b0361148860208401516001600160801b031690565b16036114a3576040016014815151036114a357516014015190565b60405163c5f8961f60e01b8152600490fd5b600211156114bf57565b634e487b7160e01b600052602160045260246000fd5b805160028110156114bf576114e9816114b5565b611543575081471061152b576000918291829182916001600160a01b03165af1611511611623565b501561151957565b604051630a12f52160e11b8152600490fd5b60405163cd78605960e01b8152306004820152602490fd5b919060018351611552816114b5565b61155b816114b5565b1461156557505050565b60209290920151610336926001600160a01b0390811691165b60405163a9059cbb60e01b60208201526001600160a01b0392831660248201526044808201949094529283526080830191906001600160401b038311848410176102c9576115d192604052169182611653565b80519081151591826115ff575b50506115e75750565b60249060405190635274afe760e01b82526004820152fd5b819250906020918101031261008a576020015161161b8161055f565b1538806115de565b3d1561164e573d9061163482610431565b9161164260405193846102e9565b82523d6000602084013e565b606090565b60008061049e9360208151910182855af161166c611623565b91611694565b9082471061152b5760008161049e946020839451920190855af161166c611623565b90156116d2578151156116a5575090565b803b156116b0575090565b604051639996b31560e01b81526001600160a01b039091166004820152602490fd5b5080511561151957805190602001fd5b9291906060938315611772575b805160028110156114bf57611703816114b5565b61171b575061049e93506001600160a01b0316611672565b600181949293945161172c816114b5565b611735816114b5565b14611742575b5050505090565b6020015161176994506001600160a01b0392831692611764929184911661157e565b611653565b3880808061173b565b9350611787826001600160a01b038316611653565b936116ef56fea2646970667358221220e8b14ba86041f34684449dab009ab57e503e31cbeeaadfb1d17f57e279caadb164736f6c63430008130033","linkReferences":{"src/lib/SubnetIDHelper.sol":{"SubnetIDHelper":[{"start":2261,"length":20},{"start":2524,"length":20}]}}},"methodIdentifiers":{"createFundMsg(SubnetID,address,FvmAddress,uint256,uint256)":"f230beb2","createReleaseMsg(SubnetID,address,FvmAddress,uint256,uint256)":"ba094234","execute(CrossMsg,SupplySource)":"73b464b7","isSorted(CrossMsg[])":"89841475","toHash(CrossMsg[])":"71686830"},"id":60}