{
    "abi": [
        {
            "inputs": [],
            "name": "AA",
            "outputs": [
                {
                    "internalType": "uint256",
                    "name": "",
                    "type": "uint256"
                }
            ],
            "stateMutability": "view",
            "type": "function"
        },
        {
            "inputs": [],
            "name": "BB",
            "outputs": [
                {
                    "internalType": "uint256",
                    "name": "",
                    "type": "uint256"
                }
            ],
            "stateMutability": "view",
            "type": "function"
        },
        {
            "inputs": [],
            "name": "GX",
            "outputs": [
                {
                    "internalType": "uint256",
                    "name": "",
                    "type": "uint256"
                }
            ],
            "stateMutability": "view",
            "type": "function"
        },
        {
            "inputs": [],
            "name": "GY",
            "outputs": [
                {
                    "internalType": "uint256",
                    "name": "",
                    "type": "uint256"
                }
            ],
            "stateMutability": "view",
            "type": "function"
        },
        {
            "inputs": [],
            "name": "PP",
            "outputs": [
                {
                    "internalType": "uint256",
                    "name": "",
                    "type": "uint256"
                }
            ],
            "stateMutability": "view",
            "type": "function"
        },
        {
            "inputs": [
                {
                    "internalType": "uint256",
                    "name": "privKey",
                    "type": "uint256"
                }
            ],
            "name": "derivePubKey",
            "outputs": [
                {
                    "internalType": "uint256",
                    "name": "",
                    "type": "uint256"
                },
                {
                    "internalType": "uint256",
                    "name": "",
                    "type": "uint256"
                }
            ],
            "stateMutability": "pure",
            "type": "function"
        },
        {
            "inputs": [
                {
                    "internalType": "uint256",
                    "name": "privKey",
                    "type": "uint256"
                }
            ],
            "name": "derivePubKeyBytes",
            "outputs": [
                {
                    "internalType": "bytes",
                    "name": "",
                    "type": "bytes"
                }
            ],
            "stateMutability": "pure",
            "type": "function"
        },
        {
            "inputs": [
                {
                    "internalType": "uint256",
                    "name": "privKey",
                    "type": "uint256"
                }
            ],
            "name": "deriveValidatorPubKeyBytes",
            "outputs": [
                {
                    "internalType": "bytes",
                    "name": "",
                    "type": "bytes"
                }
            ],
            "stateMutability": "pure",
            "type": "function"
        }
    ],
    "bytecode": {
        "object": "0x6080806040523461001a5761072e9081610020823930815050f35b600080fdfe60806040818152600436101561001457600080fd5b600091823560e01c90816303a507be146101dd575080635727dc5c146101c7578063573081a2146101775780637a308a4c14610142578063997da8d41461012d578063bc9e2bcf14610104578063eeeac01e146100e95763f6caf0ac1461007a57600080fd5b60203660031901126100e55761009160043561025b565b8291925192602084015281830152808252606082019282841067ffffffffffffffff8511176100d15750829052605f19906100cc8184610212565b030190f35b634e487b7160e01b81526041600452602490fd5b5080fd5b50816003193601126100e557516401000003d0198152602090f35b5090602036600319011261012a575061011e60043561025b565b82519182526020820152f35b80fd5b50816003193601126100e55751908152602090f35b50816003193601126100e557602090517f483ada7726a3c4655da4fbfc0e1108a8fd17b448a68554199c47d08ffb10d4b88152f35b5060203660031901126100e5576101c39061019360043561025b565b8291925192600160fa1b602085015260218401526041830152604182526101b98261041c565b5191829182610212565b0390f35b50816003193601126100e5576020905160078152f35b8390816003193601126100e557807f79be667ef9dcbbac55a06295ce870b07029bfcdb2dce28d959f2815b16f8179860209252f35b6020808252825181830181905290939260005b82811061024757505060409293506000838284010152601f8019910116010190565b818101860151848201604001528501610225565b61026490610372565b9291908315158481610361575b5080610359575b156103235760009360016401000003d019825b6102b8575050506401000003d01984800991826401000003d0199109936401000003d01992839109900990565b91959091868104916401000003d0198484096401000003d019036401000003d019811161030d576401000003d01991089296809281810291818304149015171561030d57810390811161030d5791908261028b565b634e487b7160e01b600052601160045260246000fd5b60405162461bcd60e51b815260206004820152600e60248201526d24b73b30b634b210373ab6b132b960911b6044820152606490fd5b506001610278565b6401000003d0191415905038610271565b7f79be667ef9dcbbac55a06295ce870b07029bfcdb2dce28d959f2815b16f81798917f483ada7726a3c4655da4fbfc0e1108a8fd17b448a68554199c47d08ffb10d4b86001928015610417576000948592918590805b6103d55750505050929190565b600181166103f9575b906103ee9160011c938493610639565b9093919290916103c8565b9390838382986103ee9a61040c9561044e565b9097509590936103de565b509190565b6080810190811067ffffffffffffffff82111761043857604052565b634e487b7160e01b600052604160045260246000fd5b909295939194811580610631575b6106275786158061061f575b6106155760409283519461047b8661041c565b60803687376401000003d0199586898009928382528760208301948b09845287858009928783019684885289606085019588098552885197608089019289841067ffffffffffffffff85111761043857928a52518a928392839283910996878b525190099c8d9460208a019e8f525190099188880195838752519009906060870193828552149182159261060a575b5050156105c65784519161051d8361041c565b6080368437518451870387811161030d578791088252518851860386811161030d57869108936020820194808652868351818180099385019380855209916060840192808452880388811161030d578880885184519009600209890389811161030d5789809492818481950908089651955190519009988587039187831161030d578791519051900986039086821161030d57869485809492819351989c089009089509900990565b845162461bcd60e51b815260206004820152601e60248201527f557365206a6163446f75626c652066756e6374696f6e20696e737465616400006044820152606490fd5b14159050388061050a565b5091945050929190565b508215610468565b9194509092915050565b50831561045c565b92909180156106f5576401000003d01990818480098282800990838080838a0960040997818080806000978009870992800960030908908488800885038581116106e15785908184800908808603918683116106cd5786818192096008098603938685116106b95750859493919285809481939b08900908940960020990565b634e487b7160e01b81526011600452602490fd5b634e487b7160e01b85526011600452602485fd5b634e487b7160e01b84526011600452602484fd5b9056fea2646970667358221220eb2e7d8209d2393296ebcf843d1f4896d8f2d171522461385c1c12fbdc39d0be64736f6c63430008130033",
        "linkReferences": {}
    },
    "methodIdentifiers": {
        "AA()": "997da8d4",
        "BB()": "5727dc5c",
        "GX()": "03a507be",
        "GY()": "7a308a4c",
        "PP()": "eeeac01e",
        "derivePubKey(uint256)": "bc9e2bcf",
        "derivePubKeyBytes(uint256)": "f6caf0ac",
        "deriveValidatorPubKeyBytes(uint256)": "573081a2"
    },
    "id": 82
}