{"abi":[{"type":"function","name":"applyType","inputs":[{"name":"message","type":"tuple","internalType":"struct StorableMsg","components":[{"name":"from","type":"tuple","internalType":"struct IPCAddress","components":[{"name":"subnetId","type":"tuple","internalType":"struct SubnetID","components":[{"name":"root","type":"uint64","internalType":"uint64"},{"name":"route","type":"address[]","internalType":"address[]"}]},{"name":"rawAddress","type":"tuple","internalType":"struct FvmAddress","components":[{"name":"addrType","type":"uint8","internalType":"uint8"},{"name":"payload","type":"bytes","internalType":"bytes"}]}]},{"name":"to","type":"tuple","internalType":"struct IPCAddress","components":[{"name":"subnetId","type":"tuple","internalType":"struct SubnetID","components":[{"name":"root","type":"uint64","internalType":"uint64"},{"name":"route","type":"address[]","internalType":"address[]"}]},{"name":"rawAddress","type":"tuple","internalType":"struct FvmAddress","components":[{"name":"addrType","type":"uint8","internalType":"uint8"},{"name":"payload","type":"bytes","internalType":"bytes"}]}]},{"name":"value","type":"uint256","internalType":"uint256"},{"name":"nonce","type":"uint64","internalType":"uint64"},{"name":"method","type":"bytes4","internalType":"bytes4"},{"name":"params","type":"bytes","internalType":"bytes"},{"name":"fee","type":"uint256","internalType":"uint256"}]},{"name":"currentSubnet","type":"tuple","internalType":"struct SubnetID","components":[{"name":"root","type":"uint64","internalType":"uint64"},{"name":"route","type":"address[]","internalType":"address[]"}]}],"outputs":[{"name":"","type":"IPCMsgType","internalType":"enum IPCMsgType"}],"stateMutability":"pure"},{"type":"function","name":"toHash","inputs":[{"name":"storableMsg","type":"tuple","internalType":"struct StorableMsg","components":[{"name":"from","type":"tuple","internalType":"struct IPCAddress","components":[{"name":"subnetId","type":"tuple","internalType":"struct SubnetID","components":[{"name":"root","type":"uint64","internalType":"uint64"},{"name":"route","type":"address[]","internalType":"address[]"}]},{"name":"rawAddress","type":"tuple","internalType":"struct FvmAddress","components":[{"name":"addrType","type":"uint8","internalType":"uint8"},{"name":"payload","type":"bytes","internalType":"bytes"}]}]},{"name":"to","type":"tuple","internalType":"struct IPCAddress","components":[{"name":"subnetId","type":"tuple","internalType":"struct SubnetID","components":[{"name":"root","type":"uint64","internalType":"uint64"},{"name":"route","type":"address[]","internalType":"address[]"}]},{"name":"rawAddress","type":"tuple","internalType":"struct FvmAddress","components":[{"name":"addrType","type":"uint8","internalType":"uint8"},{"name":"payload","type":"bytes","internalType":"bytes"}]}]},{"name":"value","type":"uint256","internalType":"uint256"},{"name":"nonce","type":"uint64","internalType":"uint64"},{"name":"method","type":"bytes4","internalType":"bytes4"},{"name":"params","type":"bytes","internalType":"bytes"},{"name":"fee","type":"uint256","internalType":"uint256"}]}],"outputs":[{"name":"","type":"bytes32","internalType":"bytes32"}],"stateMutability":"pure"}],"bytecode":{"object":"0x6080806040523461001a576107a79081610020823930815050f35b600080fdfe60806040908082526004918236101561001757600080fd5b600091823560e01c9081632f645753146100be575063f47ad7eb1461003b57600080fd5b60031981813601126100ba5783359067ffffffffffffffff908183116100b65760e08184360301126100b6576024359182116100b657839082360301126100b2579061008b918501908501610460565b905191600282101561009f57602083838152f35b634e487b7160e01b815260218452602490fd5b8380fd5b8480fd5b8280fd5b6003199150846020368401126100b65780359467ffffffffffffffff918287116101c7578660e091019487360301126101c4576020830193602085526101186101078280610622565b60e088870152610120860190610689565b9161013d61012960248a0184610622565b93603f199485888303016060890152610689565b936044890135608087015261015460648a01610239565b1660a086015260848801359063ffffffff60e01b82168092036101c457506101a36101ba94869461019460209b9560c49560c089015260a4870190610636565b918784030160e0880152610668565b91013561010083015203601f198101835282610217565b5190209051908152f35b80fd5b5080fd5b903590603e19813603018212156101e0570190565b600080fd5b6040810190811067ffffffffffffffff82111761020157604052565b634e487b7160e01b600052604160045260246000fd5b90601f8019910116810190811067ffffffffffffffff82111761020157604052565b359067ffffffffffffffff821682036101e057565b67ffffffffffffffff81116102015760051b60200190565b35906001600160a01b03821682036101e057565b91906040838203126101e05760405192610293846101e5565b8361029d82610239565b8152602091828101359067ffffffffffffffff82116101e057019280601f850112156101e05783356102ce8161024e565b946102dc6040519687610217565b818652848087019260051b8201019283116101e05784809101915b83831061030657505050500152565b819061031184610266565b81520191019084906102f7565b90602080838303126101e057825167ffffffffffffffff938482116101e05701926040848403126101e05760405193610356856101e5565b805182811681036101e0578552828101519182116101e057019180601f840112156101e05782516103868161024e565b936103946040519586610217565b818552838086019260051b8201019283116101e0578301905b8282106103bd5750505082015290565b81516001600160a01b03811681036101e05781529083019083016103ad565b606090604083019067ffffffffffffffff815116845260209283809201519460408382015285518094520193019160005b82811061041b575050505090565b83516001600160a01b03168552938101939281019260010161040d565b909161044f61045d936040845260408401906103dc565b9160208184039101526103dc565b90565b91909160206104ac6104a461049461048d610486610480868801886101cb565b806101cb565b369061027a565b94806101cb565b61049f3691806101cb565b61027a565b94369061027a565b9373__$a0fe38a9a81205afccc10810b09a4d3f45$__604090815185631ccc893360e11b9889835282806104e760009a8b9460048401610438565b0381865af49182156106185790879899889261051799946105fc575b508551988992839283528860048401610438565b0381855af49586156105f25787966105c6575b508561054d928692855180958194829363c836244d60e01b845260048401610438565b03915af49182156105bd57508591610587575b5061056c575b50505090565b81015151910151511061058157388080610566565b50600190565b90508281813d83116105b6575b61059e8183610217565b810103126100b6575180151581036100b65738610560565b503d610594565b513d87823e3d90fd5b61054d929650906105e986923d808b833e6105e18183610217565b81019061031e565b9692509061052a565b83513d89823e3d90fd5b6106119194503d8085833e6105e18183610217565b9238610503565b84513d89823e3d90fd5b9035603e19823603018112156101e0570190565b9035601e19823603018112156101e057016020813591019167ffffffffffffffff82116101e05781360383136101e057565b908060209392818452848401376000828201840152601f01601f1916010190565b906106948280610622565b9060408152608081019267ffffffffffffffff93846106b285610239565b16604084015260209384810135601e19823603018112156101e057019084823592019582116101e0578160051b360386136101e0578190604060608601525260a08301949060005b81811061074c575050508083610711920190610622565b908281850391015280359060ff82168092036101e0578361073f60409392849361045d975285810190610636565b9390948201520191610668565b9091958580600192838060a01b036107638b610266565b1681520197019291016106fa56fea26469706673582212206f9ef640e0d3f6912f5a82c69b136c664598a183a398a79fc3adca27aaacbdd464736f6c63430008130033","linkReferences":{"src/lib/SubnetIDHelper.sol":{"SubnetIDHelper":[{"start":1231,"length":20}]}}},"methodIdentifiers":{"applyType(StorableMsg,SubnetID)":"f47ad7eb","toHash(StorableMsg)":"2f645753"},"id":66}