{
    "abi": [
        {
            "inputs": [
                {
                    "internalType": "address",
                    "name": "account",
                    "type": "address"
                }
            ],
            "name": "AddressInsufficientBalance",
            "type": "error"
        },
        {
            "inputs": [],
            "name": "AddressShouldBeValidator",
            "type": "error"
        },
        {
            "inputs": [],
            "name": "CannotConfirmFutureChanges",
            "type": "error"
        },
        {
            "inputs": [],
            "name": "CannotReleaseZero",
            "type": "error"
        },
        {
            "inputs": [],
            "name": "CollateralIsZero",
            "type": "error"
        },
        {
            "inputs": [],
            "name": "EmptyAddress",
            "type": "error"
        },
        {
            "inputs": [],
            "name": "FailedInnerCall",
            "type": "error"
        },
        {
            "inputs": [],
            "name": "InvalidCheckpointEpoch",
            "type": "error"
        },
        {
            "inputs": [],
            "name": "InvalidCheckpointMessagesHash",
            "type": "error"
        },
        {
            "inputs": [],
            "name": "InvalidPublicKeyLength",
            "type": "error"
        },
        {
            "inputs": [
                {
                    "internalType": "uint8",
                    "name": "",
                    "type": "uint8"
                }
            ],
            "name": "InvalidSignatureErr",
            "type": "error"
        },
        {
            "inputs": [],
            "name": "NoCollateralToWithdraw",
            "type": "error"
        },
        {
            "inputs": [],
            "name": "NotAllValidatorsHaveLeft",
            "type": "error"
        },
        {
            "inputs": [],
            "name": "NotEnoughBalance",
            "type": "error"
        },
        {
            "inputs": [],
            "name": "NotEnoughCollateral",
            "type": "error"
        },
        {
            "inputs": [],
            "name": "NotEnoughFunds",
            "type": "error"
        },
        {
            "inputs": [],
            "name": "NotGateway",
            "type": "error"
        },
        {
            "inputs": [],
            "name": "NotOwnerOfPublicKey",
            "type": "error"
        },
        {
            "inputs": [],
            "name": "NotStakedBefore",
            "type": "error"
        },
        {
            "inputs": [
                {
                    "internalType": "address",
                    "name": "",
                    "type": "address"
                }
            ],
            "name": "NotValidator",
            "type": "error"
        },
        {
            "inputs": [],
            "name": "PQDoesNotContainAddress",
            "type": "error"
        },
        {
            "inputs": [],
            "name": "PQEmpty",
            "type": "error"
        },
        {
            "inputs": [],
            "name": "ReentrancyError",
            "type": "error"
        },
        {
            "inputs": [],
            "name": "SubnetAlreadyBootstrapped",
            "type": "error"
        },
        {
            "inputs": [],
            "name": "SubnetAlreadyKilled",
            "type": "error"
        },
        {
            "inputs": [],
            "name": "WithdrawExceedingCollateral",
            "type": "error"
        },
        {
            "anonymous": false,
            "inputs": [
                {
                    "indexed": false,
                    "internalType": "uint64",
                    "name": "epoch",
                    "type": "uint64"
                },
                {
                    "indexed": false,
                    "internalType": "address",
                    "name": "submitter",
                    "type": "address"
                }
            ],
            "name": "BottomUpCheckpointExecuted",
            "type": "event"
        },
        {
            "anonymous": false,
            "inputs": [
                {
                    "components": [
                        {
                            "components": [
                                {
                                    "internalType": "uint64",
                                    "name": "root",
                                    "type": "uint64"
                                },
                                {
                                    "internalType": "address[]",
                                    "name": "route",
                                    "type": "address[]"
                                }
                            ],
                            "internalType": "struct SubnetID",
                            "name": "subnetID",
                            "type": "tuple"
                        },
                        {
                            "internalType": "uint64",
                            "name": "blockHeight",
                            "type": "uint64"
                        },
                        {
                            "internalType": "bytes32",
                            "name": "blockHash",
                            "type": "bytes32"
                        },
                        {
                            "internalType": "uint64",
                            "name": "nextConfigurationNumber",
                            "type": "uint64"
                        },
                        {
                            "internalType": "bytes32",
                            "name": "crossMessagesHash",
                            "type": "bytes32"
                        }
                    ],
                    "indexed": false,
                    "internalType": "struct BottomUpCheckpoint",
                    "name": "checkpoint",
                    "type": "tuple"
                },
                {
                    "indexed": false,
                    "internalType": "address",
                    "name": "submitter",
                    "type": "address"
                }
            ],
            "name": "BottomUpCheckpointSubmitted",
            "type": "event"
        },
        {
            "anonymous": false,
            "inputs": [
                {
                    "indexed": false,
                    "internalType": "uint64",
                    "name": "epoch",
                    "type": "uint64"
                },
                {
                    "indexed": false,
                    "internalType": "address",
                    "name": "submitter",
                    "type": "address"
                }
            ],
            "name": "NextBottomUpCheckpointExecuted",
            "type": "event"
        },
        {
            "anonymous": false,
            "inputs": [
                {
                    "components": [
                        {
                            "internalType": "uint256",
                            "name": "weight",
                            "type": "uint256"
                        },
                        {
                            "internalType": "address",
                            "name": "addr",
                            "type": "address"
                        },
                        {
                            "internalType": "bytes",
                            "name": "metadata",
                            "type": "bytes"
                        }
                    ],
                    "indexed": false,
                    "internalType": "struct Validator[]",
                    "name": "",
                    "type": "tuple[]"
                }
            ],
            "name": "SubnetBootstrapped",
            "type": "event"
        },
        {
            "inputs": [
                {
                    "internalType": "string",
                    "name": "netAddress",
                    "type": "string"
                }
            ],
            "name": "addBootstrapNode",
            "outputs": [],
            "stateMutability": "nonpayable",
            "type": "function"
        },
        {
            "inputs": [],
            "name": "claim",
            "outputs": [],
            "stateMutability": "nonpayable",
            "type": "function"
        },
        {
            "inputs": [],
            "name": "claimRewardForRelayer",
            "outputs": [],
            "stateMutability": "nonpayable",
            "type": "function"
        },
        {
            "inputs": [
                {
                    "internalType": "uint64",
                    "name": "_configurationNumber",
                    "type": "uint64"
                }
            ],
            "name": "confirmChange",
            "outputs": [],
            "stateMutability": "nonpayable",
            "type": "function"
        },
        {
            "inputs": [
                {
                    "internalType": "uint64",
                    "name": "height",
                    "type": "uint64"
                },
                {
                    "internalType": "uint256",
                    "name": "reward",
                    "type": "uint256"
                }
            ],
            "name": "distributeRewardToRelayers",
            "outputs": [],
            "stateMutability": "payable",
            "type": "function"
        },
        {
            "inputs": [
                {
                    "internalType": "bytes",
                    "name": "publicKey",
                    "type": "bytes"
                }
            ],
            "name": "join",
            "outputs": [],
            "stateMutability": "payable",
            "type": "function"
        },
        {
            "inputs": [],
            "name": "kill",
            "outputs": [],
            "stateMutability": "nonpayable",
            "type": "function"
        },
        {
            "inputs": [],
            "name": "leave",
            "outputs": [],
            "stateMutability": "nonpayable",
            "type": "function"
        },
        {
            "inputs": [],
            "name": "preFund",
            "outputs": [],
            "stateMutability": "payable",
            "type": "function"
        },
        {
            "inputs": [
                {
                    "internalType": "uint256",
                    "name": "amount",
                    "type": "uint256"
                }
            ],
            "name": "preRelease",
            "outputs": [],
            "stateMutability": "nonpayable",
            "type": "function"
        },
        {
            "inputs": [],
            "name": "stake",
            "outputs": [],
            "stateMutability": "payable",
            "type": "function"
        },
        {
            "inputs": [
                {
                    "components": [
                        {
                            "components": [
                                {
                                    "internalType": "uint64",
                                    "name": "root",
                                    "type": "uint64"
                                },
                                {
                                    "internalType": "address[]",
                                    "name": "route",
                                    "type": "address[]"
                                }
                            ],
                            "internalType": "struct SubnetID",
                            "name": "subnetID",
                            "type": "tuple"
                        },
                        {
                            "internalType": "uint64",
                            "name": "blockHeight",
                            "type": "uint64"
                        },
                        {
                            "internalType": "bytes32",
                            "name": "blockHash",
                            "type": "bytes32"
                        },
                        {
                            "internalType": "uint64",
                            "name": "nextConfigurationNumber",
                            "type": "uint64"
                        },
                        {
                            "internalType": "bytes32",
                            "name": "crossMessagesHash",
                            "type": "bytes32"
                        }
                    ],
                    "internalType": "struct BottomUpCheckpoint",
                    "name": "checkpoint",
                    "type": "tuple"
                },
                {
                    "components": [
                        {
                            "components": [
                                {
                                    "components": [
                                        {
                                            "components": [
                                                {
                                                    "internalType": "uint64",
                                                    "name": "root",
                                                    "type": "uint64"
                                                },
                                                {
                                                    "internalType": "address[]",
                                                    "name": "route",
                                                    "type": "address[]"
                                                }
                                            ],
                                            "internalType": "struct SubnetID",
                                            "name": "subnetId",
                                            "type": "tuple"
                                        },
                                        {
                                            "components": [
                                                {
                                                    "internalType": "uint8",
                                                    "name": "addrType",
                                                    "type": "uint8"
                                                },
                                                {
                                                    "internalType": "bytes",
                                                    "name": "payload",
                                                    "type": "bytes"
                                                }
                                            ],
                                            "internalType": "struct FvmAddress",
                                            "name": "rawAddress",
                                            "type": "tuple"
                                        }
                                    ],
                                    "internalType": "struct IPCAddress",
                                    "name": "from",
                                    "type": "tuple"
                                },
                                {
                                    "components": [
                                        {
                                            "components": [
                                                {
                                                    "internalType": "uint64",
                                                    "name": "root",
                                                    "type": "uint64"
                                                },
                                                {
                                                    "internalType": "address[]",
                                                    "name": "route",
                                                    "type": "address[]"
                                                }
                                            ],
                                            "internalType": "struct SubnetID",
                                            "name": "subnetId",
                                            "type": "tuple"
                                        },
                                        {
                                            "components": [
                                                {
                                                    "internalType": "uint8",
                                                    "name": "addrType",
                                                    "type": "uint8"
                                                },
                                                {
                                                    "internalType": "bytes",
                                                    "name": "payload",
                                                    "type": "bytes"
                                                }
                                            ],
                                            "internalType": "struct FvmAddress",
                                            "name": "rawAddress",
                                            "type": "tuple"
                                        }
                                    ],
                                    "internalType": "struct IPCAddress",
                                    "name": "to",
                                    "type": "tuple"
                                },
                                {
                                    "internalType": "uint256",
                                    "name": "value",
                                    "type": "uint256"
                                },
                                {
                                    "internalType": "uint64",
                                    "name": "nonce",
                                    "type": "uint64"
                                },
                                {
                                    "internalType": "bytes4",
                                    "name": "method",
                                    "type": "bytes4"
                                },
                                {
                                    "internalType": "bytes",
                                    "name": "params",
                                    "type": "bytes"
                                },
                                {
                                    "internalType": "uint256",
                                    "name": "fee",
                                    "type": "uint256"
                                }
                            ],
                            "internalType": "struct StorableMsg",
                            "name": "message",
                            "type": "tuple"
                        },
                        {
                            "internalType": "bool",
                            "name": "wrapped",
                            "type": "bool"
                        }
                    ],
                    "internalType": "struct CrossMsg[]",
                    "name": "messages",
                    "type": "tuple[]"
                },
                {
                    "internalType": "address[]",
                    "name": "signatories",
                    "type": "address[]"
                },
                {
                    "internalType": "bytes[]",
                    "name": "signatures",
                    "type": "bytes[]"
                }
            ],
            "name": "submitCheckpoint",
            "outputs": [],
            "stateMutability": "nonpayable",
            "type": "function"
        },
        {
            "inputs": [
                {
                    "internalType": "uint256",
                    "name": "amount",
                    "type": "uint256"
                }
            ],
            "name": "unstake",
            "outputs": [],
            "stateMutability": "nonpayable",
            "type": "function"
        },
        {
            "inputs": [
                {
                    "internalType": "address[]",
                    "name": "signatories",
                    "type": "address[]"
                },
                {
                    "internalType": "bytes32",
                    "name": "hash",
                    "type": "bytes32"
                },
                {
                    "internalType": "bytes[]",
                    "name": "signatures",
                    "type": "bytes[]"
                }
            ],
            "name": "validateActiveQuorumSignatures",
            "outputs": [],
            "stateMutability": "view",
            "type": "function"
        }
    ],
    "bytecode": {
        "object": "0x6080806040523461001657614125908161001c8239f35b600080fdfe608080604052600436101561001357600080fd5b600090813560e01c9081630b7fbe60146112935750806310fd4261146111385780632e17de7814611113578063350a14bf146110f65780633a4b66f1146110da57806341c0e1b5146110405780634e71d92d14610eb45780636170b1621461092357806366783c9b14610842578063a8284de31461027a578063cc2dc2b9146101fd578063d66d9e19146101ba578063ed7c4da1146101065763f9002bb1146100bb57600080fd5b6040366003190112610103576100cf611431565b6009546001600160a01b031633036100f1576100ee9060243590613b6a565b80f35b60405163e7e601db60e01b8152600490fd5b80fd5b50346101035780600319360112610103576000805160206140d083398151915260018154146101a85780600183925573__$4a8700ca5e162cb61a0c4650a4871f1ad5$__803b156101a45782602491604051928380926382985e0b60e01b82523360048301525af4908115610199578391610182575b50505580f35b61018b9061135a565b61019657813861017c565b50fd5b6040513d85823e3d90fd5b5050fd5b6040516329f745a760e01b8152600490fd5b50346101035780600319360112610103576101d361363c565b6000805160206140d083398151915260018154146101a8578060018392556101f9613990565b5580f35b5034610103576060366003190112610103576001600160401b036004358181116102765736602382011215610276576102409036906024816004013591016114b6565b60443591821161027657366023830112156102765761026c6100ee92369060248160040135910161150c565b9060243590613c42565b8280fd5b5034610103576080366003190112610103576001600160401b03600435116101035760a060043536036003190112610103576024356001600160401b03811161083e576102cb90369060040161145b565b91906044356001600160401b038111610276576102ec90369060040161145b565b6064356001600160401b0381116106b65761030b90369060040161145b565b9261031a60246004350161158b565b926001600160401b03600554166001600160401b0360075416946001600160401b038061034788856115cd565b16911614158061081e575b61080c57604051602081019060208252610383816103758d60408301908d611749565b03601f1981018352826113b9565b51902060846004350135036107fa576040516020808201526103b1816103756040820160043560040161187d565b60208151910120946001600160401b03806103da6103d360246004350161158b565b93856115cd565b169116146000146106ba5750916103fb6104039261040996959436916114b6565b93369161150c565b91613c42565b6001600160401b0361041f60246004350161158b565b168252816020526040822092600435600401356042196004353603018112156106b257600435016001600160401b0361045a6004830161158b565b166001600160401b0319865416178555602481013590602219813603018212156106b65701936001600160401b036004860135116106b257600485013560051b360360248601136106b257600160401b60048601351161069e576001948582018054600483013582558060048401351061067f575b5085526020852060248201865b600484013581106106535750505050839450600281016001600160401b0361050860246004350161158b565b166001600160401b03198254161790556044600435013560038201556001600160401b0361053a60646004350161158b565b1660048201906001600160401b03198254161790556005608460043501359101556001600160401b0361057160246004350161158b565b168352601d6020526105876040842033906119de565b506001600160401b0361059e60246004350161158b565b166001600160401b0319600554161760055560018060a01b036009541691823b1561064e5761060892849283604051809681958294637a2b59cf60e11b8452604060048501526105f66044850160043560040161187d565b84810360031901602486015291611749565b03925af180156106435761062f575b50506100ee61062a60646004350161158b565b611c58565b6106389061135a565b610103578038610617565b6040513d84823e3d90fd5b505050fd5b8135916001600160a01b038316830361067b5760049160208b920193818601550190506104dc565b8880fd5b81875260208720610698918101906004850135016118dc565b386104cf565b634e487b7160e01b84526041600452602484fd5b8380fd5b8480fd5b9550505050929350506001600160401b036106d960246004350161158b565b16146106e4575b5080f35b6001600160401b036106fa60246004350161158b565b168252816020526040822060405160208101916020835260a06040830152816101208101916001600160401b0381541660e0830152600190818101916040610100850152825480955261014084019289526020892090895b8681106107d95750505060028101546001600160401b0390811660608501526003820154608085015260048201541660a08401526005015460c083015203601f19810183526107a29150826113b9565b519020146107ad5780f35b6001600160401b036107c360246004350161158b565b168152601d6020526106e06040822033906119de565b82546001600160a01b03168552879550602090940193918101918101610752565b604051632d7f750360e21b8152600490fd5b60405163fae4eadb60e01b8152600490fd5b50806001600160401b0361083660246004350161158b565b161415610352565b5080fd5b5034610103576020366003190112610103576004356000805160206140d083398151915260018154146101a8576001815581156109115760ff600d5460081c166108ff573383526003602052816040842054106108ed576101f983923384526003602052604084206108b5828254611fec565b90556108c381600254611fec565b60025533845260036020526040842054156108df575b33613168565b6108e833613fc8565b6108d9565b60405163569d45cf60e11b8152600490fd5b604051631b39f2f360e11b8152600490fd5b604051631036b5ad60e31b8152600490fd5b50602036600319011261010357600435906001600160401b0382116101035736602383011215610103576001600160401b03826004013511610103576024368184600401358501011161083e5760016000805160206140d083398151915254146101a85760016000805160206140d0833981519152556109a161363c565b3415610ea25760418360040135148015610e90576109be90613023565b826004013560011161083e576109e036600485013560001901602586016113f5565b80516020909101206001600160a01b03163303610e7e57600d5460081c60ff16610c705733600090815260106020526040902060029390840190610a328160040135610a2c8454611a63565b84611b33565b83601f826004013511600114610bfa578385918360040135610bed575b5050816004013560011b91600019906004013560031b1c19161790555b610a76343361321d565b600f54600654811015610a9d575b505090505b806000805160206140d08339815191525580f35b61ffff601154166001600160401b0360075460401c1611610a845761010061ff0019600d541617600d556040519360208501602086526001548091526040860160408260051b88010191600187527fb10e2d527612073b26eecdfd717e6a320cf44b4afac2b0732d9fcbe2b7fa0cf69187905b828210610ba257505050508585967f4914d88063275a25a13b2df37125e216745d812f94c56504be4bd78cf60c9593920390a1610b5a60018060a01b036009541691548093611f6c565b92813b156106b65784926040519485938492637903ab2760e11b845260048401525af1801561064357610b8e575b80610a84565b610b979061135a565b610103578038610b88565b9091929360206003610bdf6001938d603f1990820301865288548152848060a01b03858a0154168482015260609081604082015201898901611a9d565b960192019201909291610b10565b8301013590508338610a4f565b828552602085208592916004830135601f19165b808510610c535760019450836004013511610c34575b505060040135811b019055610a6c565b8201850135600019600484013560031b60f8161c191690553880610c24565b838201870135835560209485019460019093019290910190610c0e565b610c813684600401358386016113f5565b926001600160401b0360175416604051610c9a8161139e565b600281526020810195865233604082015281600052601860205260406000209581516003811015610e695760ff80198954169116178755519586516001600160401b038111610e5457610cfd81610cf46001850154611a63565b60018501611b33565b6020601f8211600114610dd2579080600293926000805160206140b0833981519152999a600092610dc7575b50508160011b916000199060031b1c19161760018201555b0190604060018060a01b03910151166001600160601b0360a01b8254161790556001600160401b03610d728261159f565b166001600160401b03196017541617601755610daf60405193849360028552336020860152608060408601526080850191816004013591016116bf565b9060608301520390a1610dc23433613432565b610a89565b015190503880610d29565b6001830160005260206000209860005b601f1984168110610e3c5750916000805160206140b083398151915298996001926002959483601f19811610610e23575b505050811b016001820155610d41565b015160001960f88460031b161c19169055388080610e13565b828201518b556001909a019960209283019201610de2565b85634e487b7160e01b60005260416004526000fd5b85634e487b7160e01b60005260216004526000fd5b604051634be9251d60e11b8152600490fd5b6040516318dca5e960e21b8152600490fd5b604051635a78c58160e11b8152600490fd5b50346101035780600319360112610103576001906000805160206140d0833981519152828154146101a857828155336000908152601a602052604090209283549061ffff9081831692831561102e57829060101c16918391808795818a01915b610fa8575b50505086610f8a937f197c586353eaed0a1c53e6e540445b94befab8f932c8115d112115ecbeeed514959363ffff000093899a54911693849260101b169063ffffffff19161717905515610f91575b610f728133613168565b60408051338152602081019290925290918291820190565b0390a15580f35b336000908152601a60205260409020859055610f68565b9091939483811696828810156110255787600052602080918582526040600020604051610fd481611383565b8982549283835201549384910152431061101a5785949388968894610ffb86958a95611f6c565b9c60005252600082604082208281550155011696600019011694610f14565b985050509493610f19565b96509493610f19565b6040516364b0557f60e01b8152600490fd5b503461010357806003193601126101035761105961363c565b61ffff61106f8160145416826011541690611f8c565b166110c857600d805462ff000019166201000017905560095481906001600160a01b0316803b156101965781906004604051809481936341c0e1b560e01b83525af18015610643576110bf575080f35b6100ee9061135a565b604051636b62255160e11b8152600490fd5b5080600319360112610103576110ee61363c565b6100ee61365d565b5034610103576020366003190112610103576100ee61062a611431565b50346101035760203660031901126101035761112d61363c565b6100ee6004356136af565b50346101035760209081600319360112610103576001600160401b039160043583811161027657366023820112156102765761117e9036906024816004013591016113f5565b923383526012825261ffff6040842054161561127b5783511561126957338352601e82526040832091845191821161069e576111c4826111be8554611a63565b85611b33565b80601f831160011461120557508394829394926111fa575b50508160011b916000199060031b1c19161790555b6106e033611977565b0151905038806111dc565b90601f198316958486528286209286905b88821061125157505083600195969710611238575b505050811b0190556111f1565b015160001960f88460031b161c1916905538808061122b565b80600185968294968601518155019501930190611216565b604051637138356f60e01b8152600490fd5b604051633b4f6e2b60e21b8152336004820152602490fd5b90508160031936011261083e57341561134b575060ff600d5460081c166108ff5733815260036020526040812054156112f2575b3381526003602052604081206112de348254611f6c565b90556112ec34600254611f6c565b60025580f35b600454600160401b8110156113375761131481600161133293016004556118f3565b81546001600160a01b0360039290921b91821b19163390911b179055565b6112c7565b634e487b7160e01b82526041600452602482fd5b631036b5ad60e31b8152600490fd5b6001600160401b03811161136d57604052565b634e487b7160e01b600052604160045260246000fd5b604081019081106001600160401b0382111761136d57604052565b606081019081106001600160401b0382111761136d57604052565b90601f801991011681019081106001600160401b0382111761136d57604052565b6001600160401b03811161136d57601f01601f191660200190565b929192611401826113da565b9161140f60405193846113b9565b82948184528183011161142c578281602093846000960137010152565b600080fd5b600435906001600160401b038216820361142c57565b35906001600160401b038216820361142c57565b9181601f8401121561142c578235916001600160401b03831161142c576020808501948460051b01011161142c57565b6001600160401b03811161136d5760051b60200190565b35906001600160a01b038216820361142c57565b92916114c18261148b565b916114cf60405193846113b9565b829481845260208094019160051b810192831161142c57905b8282106114f55750505050565b838091611501846114a2565b8152019101906114e8565b929190926115198461148b565b9161152760405193846113b9565b829480845260208094019060051b83019282841161142c5780915b84831061155157505050505050565b82356001600160401b03811161142c57820184601f8201121561142c57869161158086838580953591016113f5565b815201920191611542565b356001600160401b038116810361142c5790565b9060016001600160401b03809316019182116115b757565b634e487b7160e01b600052601160045260246000fd5b9190916001600160401b03808094169116019182116115b757565b9035603e198236030181121561142c570190565b6001600160401b039190604082018361161483611447565b16835260209182810135601e198236030181121561142c570192828435940194841161142c578360051b3603851361142c576040818401529083905260600192919060005b828110611667575050505090565b909192938280600192838060a01b0361167f896114a2565b16815201950193929101611659565b9035601e198236030181121561142c5701602081359101916001600160401b03821161142c57813603831361142c57565b908060209392818452848401376000828201840152601f01601f1916010190565b6117096116fe6116f083806115e8565b6040855260408501906115fc565b9160208101906115e8565b91602081830391015281359160ff831680930361142c57611736604091611746948452602081019061168e565b91909281602082015201916116bf565b90565b90918092808252602080920191808260051b86010194846000915b848310611775575050505050505090565b90919293949596601f1982820301875261178f88846115e8565b90813560de198336030181121561142c578201916040908183526117b384806115e8565b6117c960e09182858701526101208601906116e0565b926117d68a8701876115e8565b6001600160401b0361180b6117f9603f1997606094898b830301868c01526116e0565b926080948a0135858a01528901611447565b169160a092838801528701359263ffffffff60e01b841680940361142c578b956118416118519460c096878b01528a018a61168e565b92909189850301908901526116bf565b94013561010084015201359081151580920361142c578601529684019584019493926001019190611764565b9060808061189c61188e85806115e8565b60a0855260a08501906115fc565b936001600160401b03806118b260208401611447565b166020860152604082013560408601526118ce60608301611447565b166060850152013591015290565b8181106118e7575050565b600081556001016118dc565b60045481101561192a5760046000527f8a35acfbc15ff81a39ae7d344fd709f28e8600b4aa8c65c6b64bfe7fe36bd19b0190600090565b634e487b7160e01b600052603260045260246000fd5b601f5481101561192a57601f6000527fa03837a25210ee280c2113ff4b77ca23440b19d4866cca721c801278fd08d8070190600090565b60008181526020805260408120546119d957601f54600160401b8110156113375790826119c66119af84600160409601601f55611940565b819391549060031b91821b91600019901b19161790565b9055601f54928152602080522055600190565b905090565b91906001830160009082825280602052604082205415600014611a5d57845494600160401b861015611a495760018601808255861015611a3557836040949596828552602085200155549382526020522055600190565b634e487b7160e01b83526032600452602483fd5b634e487b7160e01b83526041600452602483fd5b50925050565b90600182811c92168015611a93575b6020831014611a7d57565b634e487b7160e01b600052602260045260246000fd5b91607f1691611a72565b9060009291805491611aae83611a63565b918282526001938481169081600014611b105750600114611ad0575b50505050565b90919394506000526020928360002092846000945b838610611afc575050505001019038808080611aca565b805485870183015294019385908201611ae5565b9294505050602093945060ff191683830152151560051b01019038808080611aca565b9190601f8111611b4257505050565b611b6e926000526020600020906020601f840160051c83019310611b70575b601f0160051c01906118dc565b565b9091508190611b61565b90808214611c5457611b8c8154611a63565b906001600160401b03821161136d578190611bb182611bab8654611a63565b86611b33565b600090601f8311600114611be857600092611bdd575b50508160011b916000199060031b1c1916179055565b015490503880611bc7565b81526020808220858352818320935090601f1985169083905b828210611c3b575050908460019594939210611c22575b505050811b019055565b015460001960f88460031b161c19169055388080611c18565b8495819295850154815560018091019601940190611c01565b5050565b6017546001600160401b0382811692908083168410611c835760405163040aaa0560e11b8152600490fd5b808360401c168410611aca5780604093841c165b848282161115611cfe57505091602091611cd17f246f00b61ce672242f33bb680a47147cd54d3dfd04dbb76956ba42f88087bf639461159f565b67ffffffffffffffff60401b60175491831b169067ffffffffffffffff60401b19161760175551908152a1565b611d1b816001600160401b03166000526018602052604060002090565b60028181015482546001600160a01b03949293918516919060ff166003811015611f57578695818603611dad5750506001600160a01b039091166000908152601060205260409020611d7291600101908401611b7a565b611d8f816001600160401b03166000526018602052604060002090565b91600090818455600193611da4858201611ff9565b01550116611c97565b919394955091885193611dcf85611dc8816001809501611a9d565b03866113b9565b6020808680518101031261142c5781818c9701519514600014611f0c578490611df88285612042565b601954611e059043611f6c565b92875190611e1282611383565b8482528282018481526001600160a01b0387166000908152601a602052604090209091909283549161ffff9384848180961695869160101c1690611e5591611f8c565b169c60009d8e5282870188528d209251835551910155611e7490611f79565b1661ffff198254161790558b519384528301528982015260607f083b080788e20bd0930c2bca2ae4fbc51a59ced08c1b5992271f8cb439498a6391a16009541690813b15610276578291602483928a5195869384926345f5448560e01b845260048401525af1908115611f0157509084939291611ef2575b50611d72565b611efb9061135a565b38611eec565b8751903d90823e3d90fd5b505082935091611f1c9192611fa2565b6009541690813b1561142c578651916316989f6f60e21b83528260048160009485945af1908115611f0157509084939291611ef25750611d72565b60246000634e487b7160e01b81526021600452fd5b919082018092116115b757565b90600161ffff809316019182116115b757565b91909161ffff808094169116019182116115b757565b90611b6e91611fe460018060a01b03821692836000526010602052611fcc81604060002054611f6c565b93600052601060205283604060002055600f54611f6c565b600f556120c5565b919082039182116115b757565b6120038154611a63565b908161200d575050565b81601f6000931160011461201f575055565b90808391825261203e601f60208420940160051c8401600185016118dc565b5555565b906120a66120ae9260018060a01b038116906000828152601060205261206c856040832054611fec565b92815260106020526040812060018101848154811590816120bc575b50156120b3575090826002926120a19483555501611ff9565b612432565b600f54611fec565b600f55565b92505055612432565b90501538612088565b919060018060a01b03928381169360008581526020956012875261ffff916040978389832054166123165783600e54168460115416106122e25786612108612a63565b9190911061225c57508282526015815283898320541661217b5750505050506121767f19fe3ca603e87854a0747cc10abf06bac64d61bac73d6d15f2fd3ca448f15264939461215683612760565b516001600160a01b03909216825260208201929092529081906040820190565b0390a1565b61218a86959994989796612f7a565b92825260109081815284832054935b6001808b831611156122265781617fff911c1690818552601683528b87862054168552838352858786205410156121d9576121d490826130d9565b612199565b505093516001600160a01b0390951685525050505060208101919091529092507fda148fac2e1063174be7bc0895576bdaba90fd14e575463fa26a967cb895cadd91508060408101612176565b50505050505061217691929395507fda148fac2e1063174be7bc0895576bdaba90fd14e575463fa26a967cb895cadd9450612156565b9596506121769450906015899493927ffaeb8de771b867cf357f6b459a7002b62ec45d544a8078a3ecd91200cc826d75999a93612297612c32565b8352522054166122d4575b6122ab84612bc0565b6122b483612760565b516001600160a01b03928316815292909116602083015281906040820190565b6122dd8461294d565b6122a2565b50505050506121767f2e8038f5812f763c6ef0c5427cb5a05ce6d7064af2ba7d1d270bc02660b019fd939461215683612bc0565b612327869598979699949399612f43565b988252601090818152848320549861233e8b612b4f565b8560115416905b8681168281116123fa57828110156123dd57508061236561236b92611f79565b90612ef1565b9c909c5b8c111561238e57612380908d613040565b6123898c612b4f565b612345565b505094516001600160a01b0390961686525050505060208201929092529193507f143db27bc2036653dc6f962ff9d0b803163d4af50c256ca9e6927b3d6dcd0197925081905060408101612176565b869d919d526013845282888720541686528484528786205461236f565b505050505050505061217691929395507f143db27bc2036653dc6f962ff9d0b803163d4af50c256ca9e6927b3d6dcd01979450612156565b9160018060a01b0392838116926000918483526020946015865261ffff9060409482868220541661262157818152601288528286822054161561261057841561258b5761247e84612f43565b918152601080895286822054925b600180868316111561257a5781617fff911c169081845260138b528b89852054168452828b52848985205411156124cc576124c79082613040565b61248c565b5050505050919395509193505b6014541615612575576124ea612a63565b906124f3612aad565b90921061253c57505091516001600160a01b03909216825260208201527f143db27bc2036653dc6f962ff9d0b803163d4af50c256ca9e6927b3d6dcd0197908060408101612176565b915091506121767ffaeb8de771b867cf357f6b459a7002b62ec45d544a8078a3ecd91200cc826d759361256d612c32565b6122a26127e6565b505050565b5050505050919395509193506124d9565b50916125be919597507f4a4c5d1a281180eea1e99d8177fa4798b9f7e019d5c57e7d8d73c6a22199aa5b94969350612d7b565b8451908152a1601454166125cf5750565b6121767f2e8038f5812f763c6ef0c5427cb5a05ce6d7064af2ba7d1d270bc02660b019fd916125fc612aad565b9290916126076127e6565b61215683612bc0565b8551632a55ca5360e01b8152600490fd5b90939596869893959815612727579261fffe92949361263f87612f7a565b9483526010918282528a8420549580976001968792831b168160145416925b6126b3575b50509a516001600160a01b039098168852505050506020840194909452509293507fda148fac2e1063174be7bc0895576bdaba90fd14e575463fa26a967cb895cadd925090508060408101612176565b818116838111612721578e9080851115612705575050806126d66126dc92611f79565b90612b66565b9990995b891015612700576126f1908a6130d9565b6126fa89612b4f565b8761265e565b612663565b885260168652872054841687528585528d8720549099906126e0565b50612663565b955050505090936127597f3168ba660eed6ef1dc2258b2247cc05fd0f2f350d39e6ad2e2ebc76a8000b40b949561294d565b51908152a1565b611b6e90604061ffff6127768160145416611f79565b9260018060a01b031660009181835260156020528383209085169061ffff199082828254161790558184526016602052848420836001600160601b0360a01b825416179055601454161760145581526010602052205490612af7565b61ffff90811660001901919082116115b757565b61ffff8060145416801561293b57600161280282821115613023565b6000818152601660208181526040808420805487865282862080546001600160a01b0392831680895260158752858920805461ffff199081168d17909155918416808a52868a20805484168c17905588885283546001600160a01b0319908116909217909355898952845416909117909255939691949392916128989189612889836127d2565b16906014541617601455612f9f565b8483528581528184842054168352601091828252848420549686809960028160145416925b6128d0575b505050505050505050505050565b81811683811161293557838110156129195750806126d66128f092611f79565b9b909b5b8b101561291457612905908c6130d9565b61290e8b612b4f565b896128bd565b6128c2565b889c919c528386528489892054168852868652888820546128f4565b506128c2565b6040516340d9b01160e01b8152600490fd5b61295690612f7a565b61ffff80601454169061296982846130d9565b80612973836127d2565b1661ffff19601454161760145561298982612f9f565b80831680921461257557919061fffe906000818152601691602083815260018060a01b0360409481868620541685526010938484526129cb878720548a612af7565b85528083528186862054168552838352858520549780996001988992831b168160145416925b612a0357505050505050505050505050565b8181168381116129355783811015612a475750806126d6612a2392611f79565b9b909b5b8b101561291457612a38908c6130d9565b612a418b612b4f565b896129f1565b889c919c52838652848989205416885286865288882054612a27565b61ffff601154161561293b577f4155c2f711f2cdd34f8262ab8fb9b7020a700fe7b6948222152f7670d1fdf34d546001600160a01b03166000818152601060205260409020549091565b61ffff601454161561293b577f4c4dc693d7db52f85fe052106f4b4b920e78e8ef37dee82878a60ab8585faf49546001600160a01b03166000818152601060205260409020549091565b9190915b60018061ffff83161115612b495781617fff911c169083600083815260209060168252601060409260018060a01b03848420541683525220541015612b4957612b4490826130d9565b612afb565b50509050565b60011b906201fffe61fffe8316921682036115b757565b91909161ffff92604060008584168152601660205260018060a01b03808383205416825260106020528282205496841682526016602052828220541681526010602052205490818510612bb95750509190565b9350919050565b611b6e90604061ffff612bd68160115416611f79565b9260018060a01b031660009181835260126020528383209085169061ffff199082828254161790558184526013602052848420836001600160601b0360a01b825416179055601154161760115581526010602052205490612e9f565b61ffff8060115416801561293b576001612c4e82821115613023565b6000818152601360208181526040808420805487865282862080546001600160a01b0392831680895260128752858920805461ffff199081168d17909155918416808a52868a20805484168c17905588885283546001600160a01b031990811690921790935589895284541690911790925593969194939291612ce49189612cd5836127d2565b16906011541617601155612fe1565b8483528581528184842054168352601091828252848420549686809960028160115416925b612d1b57505050505050505050505050565b8181168381116129355783811015612d5f575080612365612d3b92611f79565b9b909b5b8b111561291457612d50908c613040565b612d598b612b4f565b89612d09565b889c919c52838652848989205416885286865288882054612d3f565b612d8490612f43565b9061ffff90816011541691612d998385613040565b80612da3846127d2565b1661ffff196011541617601155612db983612fe1565b808416809314612e995760009280845260139360209185835260018060a01b03926040938085852054168452601092838352612df8868620548b612e9f565b845287825280858520541684528282528484205497612e168a612b4f565b8760115416905b888116828111612e8a5782811015612e6e575080612365612e3d92611f79565b9b909b5b8b1115612e6057612e52908c613040565b612e5b8b612b4f565b612e1d565b505050505050505050915050565b879c919c52828552838888205416875285855287872054612e41565b50505050505050505050915050565b50915050565b9190915b60018061ffff83161115612b495781617fff911c169083600083815260209060138252601060409260018060a01b03848420541683525220541115612b4957612eec9082613040565b612ea3565b919061ffff604060008286168152601360205260018060a01b0380838320541682526010602052828220549385168252601360205282822054168152601060205220549384821115612bb95750509190565b6001600160a01b031660009081526012602052604090205461ffff16908115612f6857565b60405163f2755e3760e01b8152600490fd5b6001600160a01b031660009081526015602052604090205461ffff16908115612f6857565b61ffff16600090815260166020908152604080832080546001600160a01b031981169091556001600160a01b0316835260159091529020805461ffff19169055565b61ffff16600090815260136020908152604080832080546001600160a01b031981169091556001600160a01b0316835260129091529020805461ffff19169055565b1561302a57565b634e487b7160e01b600052600160045260246000fd5b61306561ffff80806011541693169361305b84861115613023565b1691821115613023565b6000828152601360208181526040808420805486865282862080546001600160a01b0392831680895260128752858920805461ffff19908116909b1790559216808852938720805490981689179097559390925284546001600160a01b031990811690931790945593909152825416179055565b6130f461ffff80806014541693169361305b84861115613023565b6000828152601660208181526040808420805486865282862080546001600160a01b0392831680895260158752858920805461ffff19908116909b1790559216808852938720805490981689179097559390925284546001600160a01b031990811690931790945593909152825416179055565b8147106131ca576000918291829182916001600160a01b03165af13d156131c5573d613193816113da565b906131a160405192836113b9565b8152600060203d92013e5b156131b357565b604051630a12f52160e11b8152600490fd5b6131ac565b60405163cd78605960e01b8152306004820152602490fd5b60015481101561192a576003906001600052027fb10e2d527612073b26eecdfd717e6a320cf44b4afac2b0732d9fcbe2b7fa0cf60190600090565b906132329061322c818461340b565b82611fa2565b60ff600d5460081c16156132435750565b60018054600082815b8381106133da575b50501561326057505050565b6001600160a01b038316600090815260106020526040902080546132b4949091600201604051926132908461139e565b83526020936132bb8585019260018060a01b03809516845260405198898092611a9d565b03886113b9565b60408401968752600160401b81101561136d5780866132dc920187556131e2565b9290926133c4576002935183558583019151166001600160601b0360a01b825416179055019251908151916001600160401b03831161136d57613329836133238754611a63565b87611b33565b81601f84116001146133625750928293918392600094613357575b50501b916000199060031b1c1916179055565b015192503880613344565b919083601f1981168760005284600020946000905b888383106133aa575050501061339157505050811b019055565b015160001960f88460031b161c19169055388080611c18565b858701518855909601959485019487935090810190613377565b634e487b7160e01b600052600060045260246000fd5b816133e4826131e2565b5001546001600160a01b038781169116146134015701839061324c565b5090508238613254565b60018060a01b0316600052601060205261342e6001604060002001918254611f6c565b9055565b919060409283516020838183015280825261344c82611383565b6001600160401b038060175416918751976134668961139e565b600092838a52828a0199868b528281019060018060a01b0390818a169c8d845288885260188752858820915160038110156136285760ff801984541691161782556001808301915190815191878311613614576134c783611bab8654611a63565b89908b601f85116001146135a65793600295938193829360809d9c9b9a99979461359b575b50501b916000199060031b1c19161790555b019151166001600160601b0360a01b82541617905561351c8661159f565b166001600160401b03196017541617601755805199848b52838b01528901528351938460808a0152825b858110613587575050508683819360a093846000805160206140b083398151915297611b6e9b9c0101526060830152601f80199101168101030190a161340b565b8181018301518a820160a001528201613546565b0151925038806134ec565b50848c528a8c209293929190601f1984168d5b8d8282106136005750509160809b9a999897959391856002989694106135e7575b505050811b0190556134fe565b015160001960f88460031b161c191690553880806135da565b8385015186559487019493840193016135b9565b634e487b7160e01b8b52604160045260248bfd5b634e487b7160e01b89526021600452602489fd5b60ff600d5460101c1661364b57565b60405163248c8efb60e11b8152600490fd5b3415610ea257336000908152601060205260409020600101541561369d5760ff600d5460081c161561369357611b6e3433613432565b611b6e343361321d565b60405163528fc16560e01b8152600490fd5b80156137165733600090815260106020526040902060010154801561127b578110156137055760ff600d5460081c16156136ed57611b6e903361377b565b806136fb611b6e9233613728565b6108d98133612042565b60405162d11df360e61b8152600490fd5b60405163c79cad7b60e01b8152600490fd5b6001600160a01b031660008181526010602052604090206001015490918082106137695761375591611fec565b906000526010602052600160406000200155565b60405163ac69360360e01b8152600490fd5b9190604051928160208501526020845261379484611383565b6001600160401b03806017541690604051916137af8361139e565b60018352602083019187835260018060a01b03938486166040820152600093838552601860205260408520908251600381101561397c5760ff8019845416911617825551805184811161396857908291600189940191613813826111be8554611a63565b602090601f83116001146138fb57918060029492604096948c926138f0575b50508160011b916000199060031b1c19161790555b01920151166001600160601b0360a01b8254161790556138668261159f565b166001600160401b0319601754161760175560405192600184528416602084015260806040840152865191826080850152805b8381106138da5750611b6e969750928260a0926000805160206140b083398151915295848496850101526060830152601f80199101168101030190a1613728565b80602080928b01015160a0828801015201613899565b015190503880613832565b838a5260208a209190601f1984168b5b81811061394d5750926001928592604098966002989610613934575b505050811b019055613847565b015160001960f88460031b161c19169055388080613927565b8284015185558d98506001909401936020938401930161390b565b634e487b7160e01b87526041600452602487fd5b634e487b7160e01b87526021600452602487fd5b33600090815260106020526040902060010154801561127b576139b233613a6f565b50600090338252601e60205281604081206139cd8154611a63565b80613a32575b50505060ff600d5460081c16156139ef57611b6e91503361377b565b6040611b6e923381526003602052205480613a10575b506136fb8133613728565b80613a20613a2c92600254611fec565b6002556108d933613fc8565b38613a05565b82601f8211600114613a4a575050555b8138806139d3565b9091808252613a68601f60208420940160051c8401600185016118dc565b5555613a42565b600081815260208080526040822054919290918015613b505760001990808201818111613b3c57601f5490838201918211613b2857808203613af6575b505050601f548015613ae257810190613ac482611940565b909182549160031b1b19169055601f55825280526040812055600190565b634e487b7160e01b85526031600452602485fd5b613b14613b056119af93611940565b90549060031b1c928392611940565b905585528380526040852055388080613aac565b634e487b7160e01b87526011600452602487fd5b634e487b7160e01b86526011600452602486fd5b50505090565b805182101561192a5760209160051b010190565b8115611c54576001600160401b0390818060075416911603908082116115b757600091168152602090601d8252604090818120928251808583829754938481520190855283852092855b85828210613c2c57505050613bcb925003856113b9565b8351948515613c2457858110613c245785900493825b868110613bf15750505050505050565b6001906001600160a01b03613c068285613b56565b51168552601c8452858520613c1c888254611f6c565b905501613be1565b505050505050565b855484526001958601958a955093019201613bb4565b91825191613c4f8361148b565b93604094613c5f865191826113b9565b848152601f19613c6e8661148b565b0194602095368784013760005b818110613d6057505060009461ffff8060115416600192839182945b613d0a575b505050505060ff60095460a01c16948581029581870414901517156115b7576064613cc8950491613ded565b9015613cd2575050565b6007811015613cf45760ff602492519163282ef1c160e01b8352166004820152fd5b634e487b7160e01b600052602160045260246000fd5b90919293988a858b16838111613d5857600090815260138552908120546001600160a01b031681526010602052604090208493929186918591613d4e915490611f6c565b9b01169493613c97565b505098613c9c565b6001600160a01b0380613d738387613b56565b51166000526012885261ffff89600020541615613dc95790613db7600192613d9b8388613b56565b51166001600160a01b0316600090815260106020526040902090565b54613dc28286613b56565b5201613c7b565b8890613dd760249387613b56565b519151633b4f6e2b60e21b815291166004820152fd5b84519294600094908415613eef5782518514801590613ee4575b613ed7579392919085945b848610613e35575050505050501015613e2d57600090600690565b600190600090565b909192939495613e4f613e488884613b56565b5184613efc565b509060049182811015613ec257613eb0576001600160a01b0380613e738b89613b56565b5116911603613ea05750613e94600191613e8d8988613b56565b5190611f6c565b96019493929190613e12565b9897505050505050505060009190565b50505050505050505050600090600590565b602183634e487b7160e01b6000525260246000fd5b5050505050905090600190565b508351851415613e07565b5050505050905090600290565b8151919060418303613f2d57613f2692506020820151906060604084015193015160001a90613f38565b9192909190565b505060009160029190565b91907f7fffffffffffffffffffffffffffffff5d576e7357a4501ddfe92f46681b20a08411613fbc57926020929160ff608095604051948552168484015260408301526060820152600092839182805260015afa15613fb05780516001600160a01b03811615613fa757918190565b50809160019190565b604051903d90823e3d90fd5b50505060009160039190565b60049081549160005b838110613fde5750505050565b613fe7816118f3565b90546003916001600160a01b039190831b1c81168582161461400d575050600101613fd1565b92935093906000199182810190811161409a579061403e8461403161405d946118f3565b905490891b1c16916118f3565b90919082549060031b9160018060a01b03809116831b921b1916179055565b82548015614085570192614070846118f3565b81939154921b1b191690555538808080611aca565b603184634e487b7160e01b6000525260246000fd5b601185634e487b7160e01b6000525260246000fdfe1c593a2b803c3f9038e8b6743ba79fbc4276d2770979a01d2768ed12bea3243f691bb03ffc16c56fc96b82fd16cd1b3715f0bc3cdc6407005f49bb6205860095a2646970667358221220b255165754d38a1d3d7a83e2600caf345fb4066f30c32b316cc45e3dce35a13464736f6c63430008130033",
        "linkReferences": {
            "src/lib/LibStaking.sol": {
                "LibStaking": [
                    {
                        "start": 339,
                        "length": 20
                    }
                ]
            }
        }
    },
    "methodIdentifiers": {
        "addBootstrapNode(string)": "10fd4261",
        "claim()": "4e71d92d",
        "claimRewardForRelayer()": "ed7c4da1",
        "confirmChange(uint64)": "350a14bf",
        "distributeRewardToRelayers(uint64,uint256)": "f9002bb1",
        "join(bytes)": "6170b162",
        "kill()": "41c0e1b5",
        "leave()": "d66d9e19",
        "preFund()": "0b7fbe60",
        "preRelease(uint256)": "66783c9b",
        "stake()": "3a4b66f1",
        "submitCheckpoint(((uint64,address[]),uint64,bytes32,uint64,bytes32),((((uint64,address[]),(uint8,bytes)),((uint64,address[]),(uint8,bytes)),uint256,uint64,bytes4,bytes,uint256),bool)[],address[],bytes[])": "a8284de3",
        "unstake(uint256)": "2e17de78",
        "validateActiveQuorumSignatures(address[],bytes32,bytes[])": "cc2dc2b9"
    },
    "id": 84
}