{
  "abi": [
    {
      "inputs": [
        {
          "internalType": "address",
          "name": "account",
          "type": "address"
        }
      ],
      "name": "AddressInsufficientBalance",
      "type": "error"
    },
    {
      "inputs": [],
      "name": "AddressShouldBeValidator",
      "type": "error"
    },
    {
      "inputs": [],
      "name": "CannotConfirmFutureChanges",
      "type": "error"
    },
    {
      "inputs": [],
      "name": "CannotReleaseZero",
      "type": "error"
    },
    {
      "inputs": [],
      "name": "CollateralIsZero",
      "type": "error"
    },
    {
      "inputs": [],
      "name": "EmptyAddress",
      "type": "error"
    },
    {
      "inputs": [],
      "name": "FailedInnerCall",
      "type": "error"
    },
    {
      "inputs": [],
      "name": "InvalidCheckpointEpoch",
      "type": "error"
    },
    {
      "inputs": [],
      "name": "InvalidCheckpointMessagesHash",
      "type": "error"
    },
    {
      "inputs": [],
      "name": "InvalidPublicKeyLength",
      "type": "error"
    },
    {
      "inputs": [
        {
          "internalType": "uint8",
          "name": "",
          "type": "uint8"
        }
      ],
      "name": "InvalidSignatureErr",
      "type": "error"
    },
    {
      "inputs": [],
      "name": "NoCollateralToWithdraw",
      "type": "error"
    },
    {
      "inputs": [],
      "name": "NotAllValidatorsHaveLeft",
      "type": "error"
    },
    {
      "inputs": [],
      "name": "NotEnoughBalance",
      "type": "error"
    },
    {
      "inputs": [],
      "name": "NotEnoughCollateral",
      "type": "error"
    },
    {
      "inputs": [],
      "name": "NotEnoughFunds",
      "type": "error"
    },
    {
      "inputs": [],
      "name": "NotGateway",
      "type": "error"
    },
    {
      "inputs": [],
      "name": "NotOwnerOfPublicKey",
      "type": "error"
    },
    {
      "inputs": [],
      "name": "NotStakedBefore",
      "type": "error"
    },
    {
      "inputs": [
        {
          "internalType": "address",
          "name": "",
          "type": "address"
        }
      ],
      "name": "NotValidator",
      "type": "error"
    },
    {
      "inputs": [],
      "name": "PQDoesNotContainAddress",
      "type": "error"
    },
    {
      "inputs": [],
      "name": "PQEmpty",
      "type": "error"
    },
    {
      "inputs": [],
      "name": "ReentrancyError",
      "type": "error"
    },
    {
      "inputs": [],
      "name": "SubnetAlreadyBootstrapped",
      "type": "error"
    },
    {
      "inputs": [],
      "name": "SubnetAlreadyKilled",
      "type": "error"
    },
    {
      "inputs": [],
      "name": "WithdrawExceedingCollateral",
      "type": "error"
    },
    {
      "anonymous": false,
      "inputs": [
        {
          "indexed": false,
          "internalType": "uint64",
          "name": "epoch",
          "type": "uint64"
        },
        {
          "indexed": false,
          "internalType": "address",
          "name": "submitter",
          "type": "address"
        }
      ],
      "name": "BottomUpCheckpointExecuted",
      "type": "event"
    },
    {
      "anonymous": false,
      "inputs": [
        {
          "components": [
            {
              "components": [
                {
                  "internalType": "uint64",
                  "name": "root",
                  "type": "uint64"
                },
                {
                  "internalType": "address[]",
                  "name": "route",
                  "type": "address[]"
                }
              ],
              "internalType": "struct SubnetID",
              "name": "subnetID",
              "type": "tuple"
            },
            {
              "internalType": "uint64",
              "name": "blockHeight",
              "type": "uint64"
            },
            {
              "internalType": "bytes32",
              "name": "blockHash",
              "type": "bytes32"
            },
            {
              "internalType": "uint64",
              "name": "nextConfigurationNumber",
              "type": "uint64"
            },
            {
              "internalType": "bytes32",
              "name": "crossMessagesHash",
              "type": "bytes32"
            }
          ],
          "indexed": false,
          "internalType": "struct BottomUpCheckpoint",
          "name": "checkpoint",
          "type": "tuple"
        },
        {
          "indexed": false,
          "internalType": "address",
          "name": "submitter",
          "type": "address"
        }
      ],
      "name": "BottomUpCheckpointSubmitted",
      "type": "event"
    },
    {
      "anonymous": false,
      "inputs": [
        {
          "indexed": false,
          "internalType": "uint64",
          "name": "epoch",
          "type": "uint64"
        },
        {
          "indexed": false,
          "internalType": "address",
          "name": "submitter",
          "type": "address"
        }
      ],
      "name": "NextBottomUpCheckpointExecuted",
      "type": "event"
    },
    {
      "anonymous": false,
      "inputs": [
        {
          "components": [
            {
              "internalType": "uint256",
              "name": "weight",
              "type": "uint256"
            },
            {
              "internalType": "address",
              "name": "addr",
              "type": "address"
            },
            {
              "internalType": "bytes",
              "name": "metadata",
              "type": "bytes"
            }
          ],
          "indexed": false,
          "internalType": "struct Validator[]",
          "name": "",
          "type": "tuple[]"
        }
      ],
      "name": "SubnetBootstrapped",
      "type": "event"
    },
    {
      "inputs": [
        {
          "internalType": "string",
          "name": "netAddress",
          "type": "string"
        }
      ],
      "name": "addBootstrapNode",
      "outputs": [],
      "stateMutability": "nonpayable",
      "type": "function"
    },
    {
      "inputs": [],
      "name": "claim",
      "outputs": [],
      "stateMutability": "nonpayable",
      "type": "function"
    },
    {
      "inputs": [],
      "name": "claimRewardForRelayer",
      "outputs": [],
      "stateMutability": "nonpayable",
      "type": "function"
    },
    {
      "inputs": [
        {
          "internalType": "uint64",
          "name": "_configurationNumber",
          "type": "uint64"
        }
      ],
      "name": "confirmChange",
      "outputs": [],
      "stateMutability": "nonpayable",
      "type": "function"
    },
    {
      "inputs": [
        {
          "internalType": "uint64",
          "name": "height",
          "type": "uint64"
        },
        {
          "internalType": "uint256",
          "name": "reward",
          "type": "uint256"
        }
      ],
      "name": "distributeRewardToRelayers",
      "outputs": [],
      "stateMutability": "payable",
      "type": "function"
    },
    {
      "inputs": [
        {
          "internalType": "bytes",
          "name": "publicKey",
          "type": "bytes"
        }
      ],
      "name": "join",
      "outputs": [],
      "stateMutability": "payable",
      "type": "function"
    },
    {
      "inputs": [],
      "name": "kill",
      "outputs": [],
      "stateMutability": "nonpayable",
      "type": "function"
    },
    {
      "inputs": [],
      "name": "leave",
      "outputs": [],
      "stateMutability": "nonpayable",
      "type": "function"
    },
    {
      "inputs": [],
      "name": "preFund",
      "outputs": [],
      "stateMutability": "payable",
      "type": "function"
    },
    {
      "inputs": [
        {
          "internalType": "uint256",
          "name": "amount",
          "type": "uint256"
        }
      ],
      "name": "preRelease",
      "outputs": [],
      "stateMutability": "nonpayable",
      "type": "function"
    },
    {
      "inputs": [],
      "name": "stake",
      "outputs": [],
      "stateMutability": "payable",
      "type": "function"
    },
    {
      "inputs": [
        {
          "components": [
            {
              "components": [
                {
                  "internalType": "uint64",
                  "name": "root",
                  "type": "uint64"
                },
                {
                  "internalType": "address[]",
                  "name": "route",
                  "type": "address[]"
                }
              ],
              "internalType": "struct SubnetID",
              "name": "subnetID",
              "type": "tuple"
            },
            {
              "internalType": "uint64",
              "name": "blockHeight",
              "type": "uint64"
            },
            {
              "internalType": "bytes32",
              "name": "blockHash",
              "type": "bytes32"
            },
            {
              "internalType": "uint64",
              "name": "nextConfigurationNumber",
              "type": "uint64"
            },
            {
              "internalType": "bytes32",
              "name": "crossMessagesHash",
              "type": "bytes32"
            }
          ],
          "internalType": "struct BottomUpCheckpoint",
          "name": "checkpoint",
          "type": "tuple"
        },
        {
          "components": [
            {
              "components": [
                {
                  "components": [
                    {
                      "components": [
                        {
                          "internalType": "uint64",
                          "name": "root",
                          "type": "uint64"
                        },
                        {
                          "internalType": "address[]",
                          "name": "route",
                          "type": "address[]"
                        }
                      ],
                      "internalType": "struct SubnetID",
                      "name": "subnetId",
                      "type": "tuple"
                    },
                    {
                      "components": [
                        {
                          "internalType": "uint8",
                          "name": "addrType",
                          "type": "uint8"
                        },
                        {
                          "internalType": "bytes",
                          "name": "payload",
                          "type": "bytes"
                        }
                      ],
                      "internalType": "struct FvmAddress",
                      "name": "rawAddress",
                      "type": "tuple"
                    }
                  ],
                  "internalType": "struct IPCAddress",
                  "name": "from",
                  "type": "tuple"
                },
                {
                  "components": [
                    {
                      "components": [
                        {
                          "internalType": "uint64",
                          "name": "root",
                          "type": "uint64"
                        },
                        {
                          "internalType": "address[]",
                          "name": "route",
                          "type": "address[]"
                        }
                      ],
                      "internalType": "struct SubnetID",
                      "name": "subnetId",
                      "type": "tuple"
                    },
                    {
                      "components": [
                        {
                          "internalType": "uint8",
                          "name": "addrType",
                          "type": "uint8"
                        },
                        {
                          "internalType": "bytes",
                          "name": "payload",
                          "type": "bytes"
                        }
                      ],
                      "internalType": "struct FvmAddress",
                      "name": "rawAddress",
                      "type": "tuple"
                    }
                  ],
                  "internalType": "struct IPCAddress",
                  "name": "to",
                  "type": "tuple"
                },
                {
                  "internalType": "uint256",
                  "name": "value",
                  "type": "uint256"
                },
                {
                  "internalType": "uint64",
                  "name": "nonce",
                  "type": "uint64"
                },
                {
                  "internalType": "bytes4",
                  "name": "method",
                  "type": "bytes4"
                },
                {
                  "internalType": "bytes",
                  "name": "params",
                  "type": "bytes"
                },
                {
                  "internalType": "uint256",
                  "name": "fee",
                  "type": "uint256"
                }
              ],
              "internalType": "struct StorableMsg",
              "name": "message",
              "type": "tuple"
            },
            {
              "internalType": "bool",
              "name": "wrapped",
              "type": "bool"
            }
          ],
          "internalType": "struct CrossMsg[]",
          "name": "messages",
          "type": "tuple[]"
        },
        {
          "internalType": "address[]",
          "name": "signatories",
          "type": "address[]"
        },
        {
          "internalType": "bytes[]",
          "name": "signatures",
          "type": "bytes[]"
        }
      ],
      "name": "submitCheckpoint",
      "outputs": [],
      "stateMutability": "nonpayable",
      "type": "function"
    },
    {
      "inputs": [
        {
          "internalType": "uint256",
          "name": "amount",
          "type": "uint256"
        }
      ],
      "name": "unstake",
      "outputs": [],
      "stateMutability": "nonpayable",
      "type": "function"
    },
    {
      "inputs": [
        {
          "internalType": "address[]",
          "name": "signatories",
          "type": "address[]"
        },
        {
          "internalType": "bytes32",
          "name": "hash",
          "type": "bytes32"
        },
        {
          "internalType": "bytes[]",
          "name": "signatures",
          "type": "bytes[]"
        }
      ],
      "name": "validateActiveQuorumSignatures",
      "outputs": [],
      "stateMutability": "view",
      "type": "function"
    }
  ],
  "bytecode": {
    "object": "0x6080806040523461001657614141908161001c8239f35b600080fdfe608080604052600436101561001357600080fd5b600090813560e01c9081630b7fbe601461129d5750806310fd4261146111425780632e17de781461111d578063350a14bf146111005780633a4b66f1146110e457806341c0e1b51461104a5780634e71d92d14610eb45780636170b1621461092357806366783c9b14610842578063a8284de31461027a578063cc2dc2b9146101fd578063d66d9e19146101ba578063ed7c4da1146101065763f9002bb1146100bb57600080fd5b6040366003190112610103576100cf61143b565b6009546001600160a01b031633036100f1576100ee9060243590613b66565b80f35b60405163e7e601db60e01b8152600490fd5b80fd5b50346101035780600319360112610103576000805160206140cc83398151915260018154146101a85780600183925573__$4a8700ca5e162cb61a0c4650a4871f1ad5$__803b156101a45782602491604051928380926382985e0b60e01b82523360048301525af4908115610199578391610182575b50505580f35b61018b90611364565b61019657813861017c565b50fd5b6040513d85823e3d90fd5b5050fd5b6040516329f745a760e01b8152600490fd5b50346101035780600319360112610103576101d3613604565b6000805160206140cc83398151915260018154146101a8578060018392556101f9613996565b5580f35b5034610103576060366003190112610103576001600160401b036004358181116102765736602382011215610276576102409036906024816004013591016114c0565b60443591821161027657366023830112156102765761026c6100ee923690602481600401359101611516565b9060243590613c3e565b8280fd5b5034610103576080366003190112610103576001600160401b03600435116101035760a060043536036003190112610103576024356001600160401b03811161083e576102cb903690600401611465565b91906044356001600160401b038111610276576102ec903690600401611465565b6064356001600160401b0381116106b65761030b903690600401611465565b9261031a602460043501611595565b926001600160401b03600554166001600160401b0360075416946001600160401b038061034788856115d7565b16911614158061081e575b61080c57604051602081019060208252610383816103758d60408301908d611753565b03601f1981018352826113c3565b51902060846004350135036107fa576040516020808201526103b18161037560408201600435600401611887565b60208151910120946001600160401b03806103da6103d3602460043501611595565b93856115d7565b169116146000146106ba5750916103fb6104039261040996959436916114c0565b933691611516565b91613c3e565b6001600160401b0361041f602460043501611595565b168252816020526040822092600435600401356042196004353603018112156106b257600435016001600160401b0361045a60048301611595565b166001600160401b0319865416178555602481013590602219813603018212156106b65701936001600160401b036004860135116106b257600485013560051b360360248601136106b257600160401b60048601351161069e576001948582018054600483013582558060048401351061067f575b5085526020852060248201865b600484013581106106535750505050839450600281016001600160401b03610508602460043501611595565b166001600160401b03198254161790556044600435013560038201556001600160401b0361053a606460043501611595565b1660048201906001600160401b03198254161790556005608460043501359101556001600160401b03610571602460043501611595565b168352601d6020526105876040842033906119e8565b506001600160401b0361059e602460043501611595565b166001600160401b0319600554161760055560018060a01b036009541691823b1561064e5761060892849283604051809681958294637a2b59cf60e11b8452604060048501526105f660448501600435600401611887565b84810360031901602486015291611753565b03925af180156106435761062f575b50506100ee61062a606460043501611595565b611c62565b61063890611364565b610103578038610617565b6040513d84823e3d90fd5b505050fd5b8135916001600160a01b038316830361067b5760049160208b920193818601550190506104dc565b8880fd5b81875260208720610698918101906004850135016118e6565b386104cf565b634e487b7160e01b84526041600452602484fd5b8380fd5b8480fd5b9550505050929350506001600160401b036106d9602460043501611595565b16146106e4575b5080f35b6001600160401b036106fa602460043501611595565b168252816020526040822060405160208101916020835260a06040830152816101208101916001600160401b0381541660e0830152600190818101916040610100850152825480955261014084019289526020892090895b8681106107d95750505060028101546001600160401b0390811660608501526003820154608085015260048201541660a08401526005015460c083015203601f19810183526107a29150826113c3565b519020146107ad5780f35b6001600160401b036107c3602460043501611595565b168152601d6020526106e06040822033906119e8565b82546001600160a01b03168552879550602090940193918101918101610752565b604051632d7f750360e21b8152600490fd5b60405163fae4eadb60e01b8152600490fd5b50806001600160401b03610836602460043501611595565b161415610352565b5080fd5b5034610103576020366003190112610103576004356000805160206140cc83398151915260018154146101a8576001815581156109115760ff600d5460081c166108ff573383526003602052816040842054106108ed576101f983923384526003602052604084206108b5828254611ff6565b90556108c381600254611ff6565b60025533845260036020526040842054156108df575b33613130565b6108e833613fc4565b6108d9565b60405163569d45cf60e11b8152600490fd5b604051631b39f2f360e11b8152600490fd5b604051631036b5ad60e31b8152600490fd5b50602036600319011261010357600435906001600160401b0382116101035736602383011215610103576001600160401b03826004013511610103576024368184600401358501011161083e5760016000805160206140cc83398151915254146101a85760016000805160206140cc833981519152556109a1613604565b3415610ea25760418360040135148015610e90576109be90612feb565b826004013560011161083e576109e036600485013560001901602586016113ff565b80516020909101206001600160a01b03163303610e7e57600d5460081c60ff16610c705733600090815260106020526040902060029390840190610a328160040135610a2c8454611a6d565b84611b3d565b83601f826004013511600114610bfa578385918360040135610bed575b5050816004013560011b91600019906004013560031b1c19161790555b610a7634336131e5565b600f54600654811015610a9d575b505090505b806000805160206140cc8339815191525580f35b61ffff601154166001600160401b0360075460401c1611610a845761010061ff0019600d541617600d556040519360208501602086526001548091526040860160408260051b88010191600187527fb10e2d527612073b26eecdfd717e6a320cf44b4afac2b0732d9fcbe2b7fa0cf69187905b828210610ba257505050508585967f4914d88063275a25a13b2df37125e216745d812f94c56504be4bd78cf60c9593920390a1610b5a60018060a01b036009541691548093611f76565b92813b156106b65784926040519485938492637903ab2760e11b845260048401525af1801561064357610b8e575b80610a84565b610b9790611364565b610103578038610b88565b9091929360206003610bdf6001938d603f1990820301865288548152848060a01b03858a0154168482015260609081604082015201898901611aa7565b960192019201909291610b10565b8301013590508338610a4f565b828552602085208592916004830135601f19165b808510610c535760019450836004013511610c34575b505060040135811b019055610a6c565b8201850135600019600484013560031b60f8161c191690553880610c24565b838201870135835560209485019460019093019290910190610c0e565b610c813684600401358386016113ff565b926001600160401b0360175416604051610c9a816113a8565b600281526020810195865233604082015281600052601860205260406000209581516003811015610e695760ff80198954169116178755519586516001600160401b038111610e5457610cfd81610cf46001850154611a6d565b60018501611b3d565b6020601f8211600114610dd2579080600293926000805160206140ac833981519152999a600092610dc7575b50508160011b916000199060031b1c19161760018201555b0190604060018060a01b03910151166001600160601b0360a01b8254161790556001600160401b03610d72826115a9565b166001600160401b03196017541617601755610daf60405193849360028552336020860152608060408601526080850191816004013591016116c9565b9060608301520390a1610dc234336133fa565b610a89565b015190503880610d29565b6001830160005260206000209860005b601f1984168110610e3c5750916000805160206140ac83398151915298996001926002959483601f19811610610e23575b505050811b016001820155610d41565b015160001960f88460031b161c19169055388080610e13565b828201518b556001909a019960209283019201610de2565b85634e487b7160e01b60005260416004526000fd5b85634e487b7160e01b60005260216004526000fd5b604051634be9251d60e11b8152600490fd5b6040516318dca5e960e21b8152600490fd5b604051635a78c58160e11b8152600490fd5b50346101035780600319360112610103576001906000805160206140cc833981519152828154146101a857828155336000908152601a602052604090209283549061ffff9081831692831561103857829060101c16918391808795818a01915b610fb2575b50505091869163ffff000093879854911693849260101b169063ffffffff19161717905515610f9b575b8280828015610f91575b8280929181923390f115610643576040805133815260208101929092527f197c586353eaed0a1c53e6e540445b94befab8f932c8115d112115ecbeeed51491a15580f35b6108fc9150610f4d565b336000908152601a60205260409020839055610f43565b90919394838116968288101561102f5787600052602080918582526040600020604051610fde8161138d565b89825492838352015493849101524310611024578594938896889461100586958a95611f76565b9c60005252600082604082208281550155011696600019011694610f14565b985050509493610f19565b96509493610f19565b6040516364b0557f60e01b8152600490fd5b5034610103578060031936011261010357611063613604565b61ffff6110798160145416826011541690611f96565b166110d257600d805462ff000019166201000017905560095481906001600160a01b0316803b156101965781906004604051809481936341c0e1b560e01b83525af18015610643576110c9575080f35b6100ee90611364565b604051636b62255160e11b8152600490fd5b5080600319360112610103576110f8613604565b6100ee613625565b5034610103576020366003190112610103576100ee61062a61143b565b503461010357602036600319011261010357611137613604565b6100ee600435613677565b50346101035760209081600319360112610103576001600160401b03916004358381116102765736602382011215610276576111889036906024816004013591016113ff565b923383526012825261ffff604084205416156112855783511561127357338352601e82526040832091845191821161069e576111ce826111c88554611a6d565b85611b3d565b80601f831160011461120f5750839482939492611204575b50508160011b916000199060031b1c19161790555b6106e033611981565b0151905038806111e6565b90601f198316958486528286209286905b88821061125b57505083600195969710611242575b505050811b0190556111fb565b015160001960f88460031b161c19169055388080611235565b80600185968294968601518155019501930190611220565b604051637138356f60e01b8152600490fd5b604051633b4f6e2b60e21b8152336004820152602490fd5b90508160031936011261083e573415611355575060ff600d5460081c166108ff5733815260036020526040812054156112fc575b3381526003602052604081206112e8348254611f76565b90556112f634600254611f76565b60025580f35b600454600160401b8110156113415761131e81600161133c93016004556118fd565b81546001600160a01b0360039290921b91821b19163390911b179055565b6112d1565b634e487b7160e01b82526041600452602482fd5b631036b5ad60e31b8152600490fd5b6001600160401b03811161137757604052565b634e487b7160e01b600052604160045260246000fd5b604081019081106001600160401b0382111761137757604052565b606081019081106001600160401b0382111761137757604052565b90601f801991011681019081106001600160401b0382111761137757604052565b6001600160401b03811161137757601f01601f191660200190565b92919261140b826113e4565b9161141960405193846113c3565b829481845281830111611436578281602093846000960137010152565b600080fd5b600435906001600160401b038216820361143657565b35906001600160401b038216820361143657565b9181601f84011215611436578235916001600160401b038311611436576020808501948460051b01011161143657565b6001600160401b0381116113775760051b60200190565b35906001600160a01b038216820361143657565b92916114cb82611495565b916114d960405193846113c3565b829481845260208094019160051b810192831161143657905b8282106114ff5750505050565b83809161150b846114ac565b8152019101906114f2565b9291909261152384611495565b9161153160405193846113c3565b829480845260208094019060051b8301928284116114365780915b84831061155b57505050505050565b82356001600160401b03811161143657820184601f8201121561143657869161158a86838580953591016113ff565b81520192019161154c565b356001600160401b03811681036114365790565b9060016001600160401b03809316019182116115c157565b634e487b7160e01b600052601160045260246000fd5b9190916001600160401b03808094169116019182116115c157565b9035603e1982360301811215611436570190565b6001600160401b039190604082018361161e83611451565b16835260209182810135601e19823603018112156114365701928284359401948411611436578360051b36038513611436576040818401529083905260600192919060005b828110611671575050505090565b909192938280600192838060a01b03611689896114ac565b16815201950193929101611663565b9035601e19823603018112156114365701602081359101916001600160401b03821161143657813603831361143657565b908060209392818452848401376000828201840152601f01601f1916010190565b6117136117086116fa83806115f2565b604085526040850190611606565b9160208101906115f2565b91602081830391015281359160ff8316809303611436576117406040916117509484526020810190611698565b91909281602082015201916116c9565b90565b90918092808252602080920191808260051b86010194846000915b84831061177f575050505050505090565b90919293949596601f1982820301875261179988846115f2565b90813560de1983360301811215611436578201916040908183526117bd84806115f2565b6117d360e09182858701526101208601906116ea565b926117e08a8701876115f2565b6001600160401b03611815611803603f1997606094898b830301868c01526116ea565b926080948a0135858a01528901611451565b169160a092838801528701359263ffffffff60e01b8416809403611436578b9561184b61185b9460c096878b01528a018a611698565b92909189850301908901526116c9565b94013561010084015201359081151580920361143657860152968401958401949392600101919061176e565b906080806118a661189885806115f2565b60a0855260a0850190611606565b936001600160401b03806118bc60208401611451565b166020860152604082013560408601526118d860608301611451565b166060850152013591015290565b8181106118f1575050565b600081556001016118e6565b6004548110156119345760046000527f8a35acfbc15ff81a39ae7d344fd709f28e8600b4aa8c65c6b64bfe7fe36bd19b0190600090565b634e487b7160e01b600052603260045260246000fd5b601f5481101561193457601f6000527fa03837a25210ee280c2113ff4b77ca23440b19d4866cca721c801278fd08d8070190600090565b60008181526020805260408120546119e357601f54600160401b8110156113415790826119d06119b984600160409601601f5561194a565b819391549060031b91821b91600019901b19161790565b9055601f54928152602080522055600190565b905090565b91906001830160009082825280602052604082205415600014611a6757845494600160401b861015611a535760018601808255861015611a3f57836040949596828552602085200155549382526020522055600190565b634e487b7160e01b83526032600452602483fd5b634e487b7160e01b83526041600452602483fd5b50925050565b90600182811c92168015611a9d575b6020831014611a8757565b634e487b7160e01b600052602260045260246000fd5b91607f1691611a7c565b9060009291805491611ab883611a6d565b918282526001938481169081600014611b1a5750600114611ada575b50505050565b90919394506000526020928360002092846000945b838610611b06575050505001019038808080611ad4565b805485870183015294019385908201611aef565b9294505050602093945060ff191683830152151560051b01019038808080611ad4565b9190601f8111611b4c57505050565b611b78926000526020600020906020601f840160051c83019310611b7a575b601f0160051c01906118e6565b565b9091508190611b6b565b90808214611c5e57611b968154611a6d565b906001600160401b038211611377578190611bbb82611bb58654611a6d565b86611b3d565b600090601f8311600114611bf257600092611be7575b50508160011b916000199060031b1c1916179055565b015490503880611bd1565b81526020808220858352818320935090601f1985169083905b828210611c45575050908460019594939210611c2c575b505050811b019055565b015460001960f88460031b161c19169055388080611c22565b8495819295850154815560018091019601940190611c0b565b5050565b6017546001600160401b0382811692908083168410611c8d5760405163040aaa0560e11b8152600490fd5b808360401c168410611ad45780604093841c165b848282161115611d0857505091602091611cdb7f246f00b61ce672242f33bb680a47147cd54d3dfd04dbb76956ba42f88087bf63946115a9565b67ffffffffffffffff60401b60175491831b169067ffffffffffffffff60401b19161760175551908152a1565b611d25816001600160401b03166000526018602052604060002090565b60028181015482546001600160a01b03949293918516919060ff166003811015611f61578695818603611db75750506001600160a01b039091166000908152601060205260409020611d7c91600101908401611b84565b611d99816001600160401b03166000526018602052604060002090565b91600090818455600193611dae858201612003565b01550116611ca1565b919394955091885193611dd985611dd2816001809501611aa7565b03866113c3565b602080868051810103126114365781818c9701519514600014611f16578490611e02828561204c565b601954611e0f9043611f76565b92875190611e1c8261138d565b8482528282018481526001600160a01b0387166000908152601a602052604090209091909283549161ffff9384848180961695869160101c1690611e5f91611f96565b169c60009d8e5282870188528d209251835551910155611e7e90611f83565b1661ffff198254161790558b519384528301528982015260607f083b080788e20bd0930c2bca2ae4fbc51a59ced08c1b5992271f8cb439498a6391a16009541690813b15610276578291602483928a5195869384926345f5448560e01b845260048401525af1908115611f0b57509084939291611efc575b50611d7c565b611f0590611364565b38611ef6565b8751903d90823e3d90fd5b505082935091611f269192611fac565b6009541690813b15611436578651916316989f6f60e21b83528260048160009485945af1908115611f0b57509084939291611efc5750611d7c565b60246000634e487b7160e01b81526021600452fd5b919082018092116115c157565b90600161ffff809316019182116115c157565b91909161ffff808094169116019182116115c157565b90611b7891611fee60018060a01b03821692836000526010602052611fd681604060002054611f76565b93600052601060205283604060002055600f54611f76565b600f556120cf565b919082039182116115c157565b61200d8154611a6d565b9081612017575050565b81601f60009311600114612029575055565b908083918252612048601f60208420940160051c8401600185016118e6565b5555565b906120b06120b89260018060a01b0381169060008281526010602052612076856040832054611ff6565b92815260106020526040812060018101848154811590816120c6575b50156120bd575090826002926120ab9483555501612003565b612418565b600f54611ff6565b600f55565b92505055612418565b90501538612092565b919060018060a01b03928381169360008581526020956012875261ffff916040978389832054166122fc5783600e54168460115416106122c85786612112612a4e565b919091106122425750828252601581528389832054166121855750505050506121807f19fe3ca603e87854a0747cc10abf06bac64d61bac73d6d15f2fd3ca448f1526493946121608361273d565b516001600160a01b03909216825260208201929092529081906040820190565b0390a1565b61219486959994989796612f42565b92825260109081815284832054935b6001808b8316111561221e5781617fff911c1690818552601683528b87862054168552838352858786205410156121e3576121de90826130a1565b6121a3565b505093516001600160a01b0390951685525050505060208101919091529092506000805160206140ec83398151915291508060408101612180565b50505050505061218091929395506000805160206140ec8339815191529450612160565b9596506121809450906015899493927ffaeb8de771b867cf357f6b459a7002b62ec45d544a8078a3ecd91200cc826d75999a9361227d612c1d565b8352522054166122ba575b61229184612bab565b61229a8361273d565b516001600160a01b03928316815292909116602083015281906040820190565b6122c38461292a565b612288565b50505050506121807f2e8038f5812f763c6ef0c5427cb5a05ce6d7064af2ba7d1d270bc02660b019fd939461216083612bab565b61230d869598979699949399612f0b565b98825260109081815284832054986123248b612b3a565b8560115416905b8681168281116123e057828110156123c357508061234b61235192611f83565b90612eb9565b9c909c5b8c111561237457612366908d613008565b61236f8c612b3a565b61232b565b505094516001600160a01b0390961686525050505060208201929092529193507f143db27bc2036653dc6f962ff9d0b803163d4af50c256ca9e6927b3d6dcd0197925081905060408101612180565b869d919d5260138452828887205416865284845287862054612355565b505050505050505061218091929395507f143db27bc2036653dc6f962ff9d0b803163d4af50c256ca9e6927b3d6dcd01979450612160565b9160018060a01b0392838116926000918483526020946015865261ffff906040948286822054166126075781815260128852828682205416156125f65784156125715761246484612f0b565b918152601080895286822054925b60018086831611156125605781617fff911c169081845260138b528b89852054168452828b52848985205411156124b2576124ad9082613008565b612472565b5050505050919395509193505b601454161561255b576124d0612a4e565b906124d9612a98565b90921061252257505091516001600160a01b03909216825260208201527f143db27bc2036653dc6f962ff9d0b803163d4af50c256ca9e6927b3d6dcd0197908060408101612180565b915091506121807ffaeb8de771b867cf357f6b459a7002b62ec45d544a8078a3ecd91200cc826d7593612553612c1d565b6122886127c3565b505050565b5050505050919395509193506124bf565b50916125a4919597507f4a4c5d1a281180eea1e99d8177fa4798b9f7e019d5c57e7d8d73c6a22199aa5b94969350612d66565b8451908152a1601454166125b55750565b6121807f2e8038f5812f763c6ef0c5427cb5a05ce6d7064af2ba7d1d270bc02660b019fd916125e2612a98565b9290916125ed6127c3565b61216083612bab565b8551632a55ca5360e01b8152600490fd5b90979684959394156127035761261c85612f42565b98825260109081815284832054986126338b612b3a565b8560145416905b8681168281116126dd57828110156126c057508061265a61266092611f83565b90612b51565b9c909c5b8c101561268357612675908d6130a1565b61267e8c612b3a565b61263a565b505094516001600160a01b0390961686525050505060208201929092529193506000805160206140ec833981519152925081905060408101612180565b869d919d5260168452828887205416865284845287862054612664565b505050505050505061218091929395506000805160206140ec8339815191529450612160565b959794505050907f3168ba660eed6ef1dc2258b2247cc05fd0f2f350d39e6ad2e2ebc76a8000b40b94506127369061292a565b51908152a1565b611b7890604061ffff6127538160145416611f83565b9260018060a01b031660009181835260156020528383209085169061ffff199082828254161790558184526016602052848420836001600160601b0360a01b825416179055601454161760145581526010602052205490612ae2565b61ffff90811660001901919082116115c157565b61ffff806014541680156129185760016127df82821115612feb565b6000818152601660208181526040808420805487865282862080546001600160a01b0392831680895260158752858920805461ffff199081168d17909155918416808a52868a20805484168c17905588885283546001600160a01b0319908116909217909355898952845416909117909255939691949392916128759189612866836127af565b16906014541617601455612f67565b8483528581528184842054168352601091828252848420549686809960028160145416925b6128ad575b505050505050505050505050565b81811683811161291257838110156128f657508061265a6128cd92611f83565b9b909b5b8b10156128f1576128e2908c6130a1565b6128eb8b612b3a565b8961289a565b61289f565b889c919c528386528489892054168852868652888820546128d1565b5061289f565b6040516340d9b01160e01b8152600490fd5b61293390612f42565b9061ffff9081601454169161294883856130a1565b80612952846127af565b1661ffff19601454161760145561296883612f67565b808416809314612a485760009280845260169360209185835260018060a01b039260409380858520541684526010928383526129a7868620548b612ae2565b8452878252808585205416845282825284842054976129c58a612b3a565b8760145416905b888116828111612a395782811015612a1d57508061265a6129ec92611f83565b9b909b5b8b1015612a0f57612a01908c6130a1565b612a0a8b612b3a565b6129cc565b505050505050505050915050565b879c919c528285528388882054168752858552878720546129f0565b50505050505050505050915050565b50915050565b61ffff6011541615612918577f4155c2f711f2cdd34f8262ab8fb9b7020a700fe7b6948222152f7670d1fdf34d546001600160a01b03166000818152601060205260409020549091565b61ffff6014541615612918577f4c4dc693d7db52f85fe052106f4b4b920e78e8ef37dee82878a60ab8585faf49546001600160a01b03166000818152601060205260409020549091565b9190915b60018061ffff83161115612b345781617fff911c169083600083815260209060168252601060409260018060a01b03848420541683525220541015612b3457612b2f90826130a1565b612ae6565b50509050565b60011b906201fffe61fffe8316921682036115c157565b91909161ffff92604060008584168152601660205260018060a01b03808383205416825260106020528282205496841682526016602052828220541681526010602052205490818510612ba45750509190565b9350919050565b611b7890604061ffff612bc18160115416611f83565b9260018060a01b031660009181835260126020528383209085169061ffff199082828254161790558184526013602052848420836001600160601b0360a01b825416179055601154161760115581526010602052205490612e67565b61ffff80601154168015612918576001612c3982821115612feb565b6000818152601360208181526040808420805487865282862080546001600160a01b0392831680895260128752858920805461ffff199081168d17909155918416808a52868a20805484168c17905588885283546001600160a01b031990811690921790935589895284541690911790925593969194939291612ccf9189612cc0836127af565b16906011541617601155612fa9565b8483528581528184842054168352601091828252848420549686809960028160115416925b612d0657505050505050505050505050565b8181168381116129125783811015612d4a57508061234b612d2692611f83565b9b909b5b8b11156128f157612d3b908c613008565b612d448b612b3a565b89612cf4565b889c919c52838652848989205416885286865288882054612d2a565b612d6f90612f0b565b9061ffff90816011541691612d848385613008565b80612d8e846127af565b1661ffff196011541617601155612da483612fa9565b808416809314612a485760009280845260139360209185835260018060a01b03926040938085852054168452601092838352612de3868620548b612e67565b845287825280858520541684528282528484205497612e018a612b3a565b8760115416905b888116828111612a395782811015612e4b57508061234b612e2892611f83565b9b909b5b8b1115612a0f57612e3d908c613008565b612e468b612b3a565b612e08565b879c919c52828552838888205416875285855287872054612e2c565b9190915b60018061ffff83161115612b345781617fff911c169083600083815260209060138252601060409260018060a01b03848420541683525220541115612b3457612eb49082613008565b612e6b565b919061ffff604060008286168152601360205260018060a01b0380838320541682526010602052828220549385168252601360205282822054168152601060205220549384821115612ba45750509190565b6001600160a01b031660009081526012602052604090205461ffff16908115612f3057565b60405163f2755e3760e01b8152600490fd5b6001600160a01b031660009081526015602052604090205461ffff16908115612f3057565b61ffff16600090815260166020908152604080832080546001600160a01b031981169091556001600160a01b0316835260159091529020805461ffff19169055565b61ffff16600090815260136020908152604080832080546001600160a01b031981169091556001600160a01b0316835260129091529020805461ffff19169055565b15612ff257565b634e487b7160e01b600052600160045260246000fd5b61302d61ffff80806011541693169361302384861115612feb565b1691821115612feb565b6000828152601360208181526040808420805486865282862080546001600160a01b0392831680895260128752858920805461ffff19908116909b1790559216808852938720805490981689179097559390925284546001600160a01b031990811690931790945593909152825416179055565b6130bc61ffff80806014541693169361302384861115612feb565b6000828152601660208181526040808420805486865282862080546001600160a01b0392831680895260158752858920805461ffff19908116909b1790559216808852938720805490981689179097559390925284546001600160a01b031990811690931790945593909152825416179055565b814710613192576000918291829182916001600160a01b03165af13d1561318d573d61315b816113e4565b9061316960405192836113c3565b8152600060203d92013e5b1561317b57565b604051630a12f52160e11b8152600490fd5b613174565b60405163cd78605960e01b8152306004820152602490fd5b600154811015611934576003906001600052027fb10e2d527612073b26eecdfd717e6a320cf44b4afac2b0732d9fcbe2b7fa0cf60190600090565b906131fa906131f481846133d3565b82611fac565b60ff600d5460081c161561320b5750565b60018054600082815b8381106133a2575b50501561322857505050565b6001600160a01b0383166000908152601060205260409020805461327c94909160020160405192613258846113a8565b83526020936132838585019260018060a01b03809516845260405198898092611aa7565b03886113c3565b60408401968752600160401b8110156113775780866132a4920187556131aa565b92909261338c576002935183558583019151166001600160601b0360a01b825416179055019251908151916001600160401b038311611377576132f1836132eb8754611a6d565b87611b3d565b81601f841160011461332a575092829391839260009461331f575b50501b916000199060031b1c1916179055565b01519250388061330c565b919083601f1981168760005284600020946000905b88838310613372575050501061335957505050811b019055565b015160001960f88460031b161c19169055388080611c22565b85870151885590960195948501948793509081019061333f565b634e487b7160e01b600052600060045260246000fd5b816133ac826131aa565b5001546001600160a01b038781169116146133c957018390613214565b509050823861321c565b60018060a01b031660005260106020526133f66001604060002001918254611f76565b9055565b91906040928351602083818301528082526134148261138d565b6001600160401b0380601754169187519761342e896113a8565b600092838a52828a0199868b528281019060018060a01b0390818a169c8d845288885260188752858820915160038110156135f05760ff8019845416911617825560018083019151908151918783116135dc5761348f83611bb58654611a6d565b89908b601f851160011461356e5793600295938193829360809d9c9b9a999794613563575b50501b916000199060031b1c19161790555b019151166001600160601b0360a01b8254161790556134e4866115a9565b166001600160401b03196017541617601755805199848b52838b01528901528351938460808a0152825b85811061354f575050508683819360a093846000805160206140ac83398151915297611b789b9c0101526060830152601f80199101168101030190a16133d3565b8181018301518a820160a00152820161350e565b0151925038806134b4565b50848c528a8c209293929190601f1984168d5b8d8282106135c85750509160809b9a999897959391856002989694106135af575b505050811b0190556134c6565b015160001960f88460031b161c191690553880806135a2565b838501518655948701949384019301613581565b634e487b7160e01b8b52604160045260248bfd5b634e487b7160e01b89526021600452602489fd5b60ff600d5460101c1661361357565b60405163248c8efb60e11b8152600490fd5b3415610ea25733600090815260106020526040902060010154156136655760ff600d5460081c161561365b57611b7834336133fa565b611b7834336131e5565b60405163528fc16560e01b8152600490fd5b80156136d057336000908152601060205260409020600101548015611285578110156136bf5760ff600d5460081c16156136b557611b789033613781565b611b7890336136e2565b60405162d11df360e61b8152600490fd5b60405163c79cad7b60e01b8152600490fd5b600080809381936136f3828261372e565b6136fd828261204c565b82908215613724575b6001600160a01b031690f11561371857565b6040513d6000823e3d90fd5b6108fc9150613706565b6001600160a01b0316600081815260106020526040902060010154909180821061376f5761375b91611ff6565b906000526010602052600160406000200155565b60405163ac69360360e01b8152600490fd5b9190604051928160208501526020845261379a8461138d565b6001600160401b03806017541690604051916137b5836113a8565b60018352602083019187835260018060a01b0393848616604082015260009383855260186020526040852090825160038110156139825760ff8019845416911617825551805184811161396e57908291600189940191613819826111c88554611a6d565b602090601f831160011461390157918060029492604096948c926138f6575b50508160011b916000199060031b1c19161790555b01920151166001600160601b0360a01b82541617905561386c826115a9565b166001600160401b0319601754161760175560405192600184528416602084015260806040840152865191826080850152805b8381106138e05750611b78969750928260a0926000805160206140ac83398151915295848496850101526060830152601f80199101168101030190a161372e565b80602080928b01015160a082880101520161389f565b015190503880613838565b838a5260208a209190601f1984168b5b818110613953575092600192859260409896600298961061393a575b505050811b01905561384d565b015160001960f88460031b161c1916905538808061392d565b8284015185558d985060019094019360209384019301613911565b634e487b7160e01b87526041600452602487fd5b634e487b7160e01b87526021600452602487fd5b336000908152601060205260409020600101548015611285576139b833613a6b565b506000338152601e60205280604081206139d28154611a6d565b80613a2e575b50505060ff600d5460081c16156139f45750611b789033613781565b613a00604092336136e2565b3381526003602052205480613a125750565b80613a22611b7892600254611ff6565b6002556108d933613fc4565b82601f8211600114613a46575050555b8038806139d8565b9091808252613a64601f60208420940160051c8401600185016118e6565b5555613a3e565b600081815260208080526040822054919290918015613b4c5760001990808201818111613b3857601f5490838201918211613b2457808203613af2575b505050601f548015613ade57810190613ac08261194a565b909182549160031b1b19169055601f55825280526040812055600190565b634e487b7160e01b85526031600452602485fd5b613b10613b016119b99361194a565b90549060031b1c92839261194a565b905585528380526040852055388080613aa8565b634e487b7160e01b87526011600452602487fd5b634e487b7160e01b86526011600452602486fd5b50505090565b80518210156119345760209160051b010190565b8115611c5e576001600160401b0390818060075416911603908082116115c157600091168152602090601d8252604090818120928251808583829754938481520190855283852092855b85828210613c2857505050613bc7925003856113c3565b8351948515613c2057858110613c205785900493825b868110613bed5750505050505050565b6001906001600160a01b03613c028285613b52565b51168552601c8452858520613c18888254611f76565b905501613bdd565b505050505050565b855484526001958601958a955093019201613bb0565b91825191613c4b83611495565b93604094613c5b865191826113c3565b848152601f19613c6a86611495565b0194602095368784013760005b818110613d5c57505060009461ffff8060115416600192839182945b613d06575b505050505060ff60095460a01c16948581029581870414901517156115c1576064613cc4950491613de9565b9015613cce575050565b6007811015613cf05760ff602492519163282ef1c160e01b8352166004820152fd5b634e487b7160e01b600052602160045260246000fd5b90919293988a858b16838111613d5457600090815260138552908120546001600160a01b031681526010602052604090208493929186918591613d4a915490611f76565b9b01169493613c93565b505098613c98565b6001600160a01b0380613d6f8387613b52565b51166000526012885261ffff89600020541615613dc55790613db3600192613d978388613b52565b51166001600160a01b0316600090815260106020526040902090565b54613dbe8286613b52565b5201613c77565b8890613dd360249387613b52565b519151633b4f6e2b60e21b815291166004820152fd5b84519294600094908415613eeb5782518514801590613ee0575b613ed3579392919085945b848610613e31575050505050501015613e2957600090600690565b600190600090565b909192939495613e4b613e448884613b52565b5184613ef8565b509060049182811015613ebe57613eac576001600160a01b0380613e6f8b89613b52565b5116911603613e9c5750613e90600191613e898988613b52565b5190611f76565b96019493929190613e0e565b9897505050505050505060009190565b50505050505050505050600090600590565b602183634e487b7160e01b6000525260246000fd5b5050505050905090600190565b508351851415613e03565b5050505050905090600290565b8151919060418303613f2957613f2292506020820151906060604084015193015160001a90613f34565b9192909190565b505060009160029190565b91907f7fffffffffffffffffffffffffffffff5d576e7357a4501ddfe92f46681b20a08411613fb857926020929160ff608095604051948552168484015260408301526060820152600092839182805260015afa15613fac5780516001600160a01b03811615613fa357918190565b50809160019190565b604051903d90823e3d90fd5b50505060009160039190565b60049081549160005b838110613fda5750505050565b613fe3816118fd565b90546003916001600160a01b039190831b1c811685821614614009575050600101613fcd565b929350939060001991828101908111614096579061403a8461402d614059946118fd565b905490891b1c16916118fd565b90919082549060031b9160018060a01b03809116831b921b1916179055565b8254801561408157019261406c846118fd565b81939154921b1b191690555538808080611ad4565b603184634e487b7160e01b6000525260246000fd5b601185634e487b7160e01b6000525260246000fdfe1c593a2b803c3f9038e8b6743ba79fbc4276d2770979a01d2768ed12bea3243f691bb03ffc16c56fc96b82fd16cd1b3715f0bc3cdc6407005f49bb6205860095da148fac2e1063174be7bc0895576bdaba90fd14e575463fa26a967cb895cadda264697066735822122016e656fdffcbcfc5bc77fdd1a05660a25c11280dc4075dd2d29caaa376ed683264736f6c63430008130033",
    "linkReferences": {
      "src/lib/LibStaking.sol": {
        "LibStaking": [
          {
            "start": 339,
            "length": 20
          }
        ]
      }
    }
  },
  "methodIdentifiers": {
    "addBootstrapNode(string)": "10fd4261",
    "claim()": "4e71d92d",
    "claimRewardForRelayer()": "ed7c4da1",
    "confirmChange(uint64)": "350a14bf",
    "distributeRewardToRelayers(uint64,uint256)": "f9002bb1",
    "join(bytes)": "6170b162",
    "kill()": "41c0e1b5",
    "leave()": "d66d9e19",
    "preFund()": "0b7fbe60",
    "preRelease(uint256)": "66783c9b",
    "stake()": "3a4b66f1",
    "submitCheckpoint(((uint64,address[]),uint64,bytes32,uint64,bytes32),((((uint64,address[]),(uint8,bytes)),((uint64,address[]),(uint8,bytes)),uint256,uint64,bytes4,bytes,uint256),bool)[],address[],bytes[])": "a8284de3",
    "unstake(uint256)": "2e17de78",
    "validateActiveQuorumSignatures(address[],bytes32,bytes[])": "cc2dc2b9"
  },
  "id": 82
}