{"abi":[{"type":"function","name":"getGateway","inputs":[],"outputs":[{"name":"","type":"address","internalType":"address"}],"stateMutability":"view"},{"type":"function","name":"getSubnetActorCheckpointerFacet","inputs":[],"outputs":[{"name":"","type":"address","internalType":"address"}],"stateMutability":"view"},{"type":"function","name":"getSubnetActorCheckpointerSelectors","inputs":[],"outputs":[{"name":"","type":"bytes4[]","internalType":"bytes4[]"}],"stateMutability":"view"},{"type":"function","name":"getSubnetActorGetterFacet","inputs":[],"outputs":[{"name":"","type":"address","internalType":"address"}],"stateMutability":"view"},{"type":"function","name":"getSubnetActorGetterSelectors","inputs":[],"outputs":[{"name":"","type":"bytes4[]","internalType":"bytes4[]"}],"stateMutability":"view"},{"type":"function","name":"getSubnetActorManagerFacet","inputs":[],"outputs":[{"name":"","type":"address","internalType":"address"}],"stateMutability":"view"},{"type":"function","name":"getSubnetActorManagerSelectors","inputs":[],"outputs":[{"name":"","type":"bytes4[]","internalType":"bytes4[]"}],"stateMutability":"view"},{"type":"function","name":"getSubnetActorPauserFacet","inputs":[],"outputs":[{"name":"","type":"address","internalType":"address"}],"stateMutability":"view"},{"type":"function","name":"getSubnetActorPauserSelectors","inputs":[],"outputs":[{"name":"","type":"bytes4[]","internalType":"bytes4[]"}],"stateMutability":"view"},{"type":"function","name":"getSubnetActorRewarderFacet","inputs":[],"outputs":[{"name":"","type":"address","internalType":"address"}],"stateMutability":"view"},{"type":"function","name":"getSubnetActorRewarderSelectors","inputs":[],"outputs":[{"name":"","type":"bytes4[]","internalType":"bytes4[]"}],"stateMutability":"view"},{"type":"function","name":"getSubnetDeployedByNonce","inputs":[{"name":"owner","type":"address","internalType":"address"},{"name":"nonce","type":"uint64","internalType":"uint64"}],"outputs":[{"name":"subnet","type":"address","internalType":"address"}],"stateMutability":"view"},{"type":"function","name":"getUserLastNonce","inputs":[{"name":"user","type":"address","internalType":"address"}],"outputs":[{"name":"nonce","type":"uint64","internalType":"uint64"}],"stateMutability":"view"},{"type":"function","name":"latestSubnetDeployed","inputs":[{"name":"owner","type":"address","internalType":"address"}],"outputs":[{"name":"subnet","type":"address","internalType":"address"}],"stateMutability":"view"},{"type":"function","name":"updateReferenceSubnetContract","inputs":[{"name":"newGetterFacet","type":"address","internalType":"address"},{"name":"newManagerFacet","type":"address","internalType":"address"},{"name":"newSubnetGetterSelectors","type":"bytes4[]","internalType":"bytes4[]"},{"name":"newSubnetManagerSelectors","type":"bytes4[]","internalType":"bytes4[]"}],"outputs":[],"stateMutability":"nonpayable"},{"type":"error","name":"CannotFindSubnet","inputs":[]},{"type":"error","name":"FacetCannotBeZero","inputs":[]},{"type":"error","name":"NotOwner","inputs":[]}],"bytecode":{"object":"0x60808060405234601557610fce908161001b8239f35b600080fdfe608080604052600436101561001357600080fd5b60003560e01c908163030f605114610e72575080630be0611114610e495780630f5849d114610d035780631163dca514610c855780631b0766c314610b3f57806342bf3cc114610b165780634d71151414610aed578063540b5ad614610ac457806354a4eddb1461096c57806362c9d7fb1461094357806389bba299146107eb578063967ba5371461059b5780639836b75f1461051d578063a372bf30146104f45763a46d044d146100c457600080fd5b346104ef5760803660031901126104ef576100dd610eb9565b6024356001600160a01b03811691908290036104ef576044356001600160401b0381116104ef57610112903690600401610f13565b906064356001600160401b0381116104ef57610132903690600401610f13565b7f806e0cbb9fce296bbc336a48f42bf1dbc69722d18d90d6fe705b7582c2bb4bd55490959194906001600160a01b031633036104de576001600160a01b031680156104cd5781156104cd576bffffffffffffffffffffffff60a01b60015416176001556bffffffffffffffffffffffff60a01b60025416176002556001600160401b03821161039b57600160401b821161039b576009548260095580831061043c575b509060096000528060031c9060005b8281106103f9575060071981169003806103b1575b5050506001600160401b03821161039b57600160401b821161039b57600a5482600a5580831061030a575b5090600a6000528060031c9060005b8281106102a95750600719811690038061024957005b9160009260005b81811061026d57505050600080516020610f598339815191520155005b909193602061029f60019261028188610f43565b60e01c908560021b63ffffffff809160031b9316831b921b19161790565b9501929101610250565b6000805b600881106102d05750600080516020610f59833981519152820155600101610233565b949060206103016001926102e385610f43565b60e01c908960021b63ffffffff809160031b9316831b921b19161790565b920195016102ad565b600780840160031c910160031c600080516020610f598339815191520190601c8460021b1680610360575b50600080516020610f59833981519152015b8181106103545750610224565b60008155600101610347565b7fc65a7bb8d6351c1cf70c95a316cc6a92839c986682d98bc35f958f4883f9d2a78201908154906000199060200360031b1c16905538610335565b634e487b7160e01b600052604160045260246000fd5b9160009260005b8181106103db57505050600080516020610f7983398151915201553880806101f9565b90919360206103ef60019261028188610f43565b95019291016103b8565b6000805b600881106104205750600080516020610f798339815191528201556001016101e4565b949060206104336001926102e385610f43565b920195016103fd565b600780840160031c910160031c600080516020610f798339815191520190601c8460021b1680610492575b50600080516020610f79833981519152015b81811061048657506101d5565b60008155600101610479565b7f6e1540171b6c0c960b71a7020d9f60077f6af931a8bbf590da0223dacf75c7ae8201908154906000199060200360031b1c16905538610467565b6307a0435160e51b60005260046000fd5b6330cd747160e01b60005260046000fd5b600080fd5b346104ef5760003660031901126104ef576002546040516001600160a01b039091168152602090f35b346104ef5760403660031901126104ef57610536610eb9565b602435906001600160401b0382168092036104ef57811561058a576001600160a01b039081166000908152601160209081526040808320948352939052919091205416801561058a57602090604051908152f35b63276e74a760e11b60005260046000fd5b346104ef5760003660031901126104ef57604051600c805480835260009182526020830191907fdf6966c971051c3d54ec59162606531493a51404a002842f56009d7e5cf4a8c75b81600784011061074c57549181811061072d575b81811061070e575b8181106106ef575b8181106106d0575b8181106106b1575b818110610692575b818110610675575b10610660575b50819003601f01601f19168101906001600160401b0382118183101761039b5761065c82918260405282610ecf565b0390f35b6001600160e01b03191681526020018261062d565b602083811b6001600160e01b031916855290930192600101610627565b604083901b6001600160e01b031916845260209093019260010161061f565b606083901b6001600160e01b0319168452602090930192600101610617565b608083901b6001600160e01b031916845260209093019260010161060f565b60a083901b6001600160e01b0319168452602090930192600101610607565b60c083901b6001600160e01b03191684526020909301926001016105ff565b60e083901b6001600160e01b03191684526020909301926001016105f7565b926001610100600892865463ffffffff60e01b8160e01b16825263ffffffff60e01b8160c01b16602083015263ffffffff60e01b8160a01b16604083015263ffffffff60e01b8160801b16606083015263ffffffff60e01b8160601b16608083015263ffffffff60e01b8160401b1660a083015263ffffffff60e01b8160201b1660c083015263ffffffff60e01b1660e08201520194019201916105e3565b346104ef5760003660031901126104ef57604051600d805480835260009182526020830191907fd7b6990105719101dabeb77144f2a3385c8033acd3af97e9423a695e81ad1eb55b8160078401106108a457549181811061072d5781811061070e578181106106ef578181106106d0578181106106b1578181106106925781811061067557106106605750819003601f01601f19168101906001600160401b0382118183101761039b5761065c82918260405282610ecf565b926001610100600892865463ffffffff60e01b8160e01b16825263ffffffff60e01b8160c01b16602083015263ffffffff60e01b8160a01b16604083015263ffffffff60e01b8160801b16606083015263ffffffff60e01b8160601b16608083015263ffffffff60e01b8160401b1660a083015263ffffffff60e01b8160201b1660c083015263ffffffff60e01b1660e0820152019401920191610833565b346104ef5760003660031901126104ef576004546040516001600160a01b039091168152602090f35b346104ef5760003660031901126104ef57604051600b805480835260009182526020830191907f0175b7a638427703f0dbe7bb9bbf987a2551717b34e79f33b5b1008d1fa01db95b816007840110610a2557549181811061072d5781811061070e578181106106ef578181106106d0578181106106b1578181106106925781811061067557106106605750819003601f01601f19168101906001600160401b0382118183101761039b5761065c82918260405282610ecf565b926001610100600892865463ffffffff60e01b8160e01b16825263ffffffff60e01b8160c01b16602083015263ffffffff60e01b8160a01b16604083015263ffffffff60e01b8160801b16606083015263ffffffff60e01b8160601b16608083015263ffffffff60e01b8160401b1660a083015263ffffffff60e01b8160201b1660c083015263ffffffff60e01b1660e08201520194019201916109b4565b346104ef5760003660031901126104ef576003546040516001600160a01b039091168152602090f35b346104ef5760003660031901126104ef576005546040516001600160a01b039091168152602090f35b346104ef5760003660031901126104ef576000546040516001600160a01b039091168152602090f35b346104ef5760003660031901126104ef57604051600980548083526000918252602083019190600080516020610f798339815191525b816007840110610be657549181811061072d5781811061070e578181106106ef578181106106d0578181106106b1578181106106925781811061067557106106605750819003601f01601f19168101906001600160401b0382118183101761039b5761065c82918260405282610ecf565b926001610100600892865463ffffffff60e01b8160e01b16825263ffffffff60e01b8160c01b16602083015263ffffffff60e01b8160a01b16604083015263ffffffff60e01b8160801b16606083015263ffffffff60e01b8160601b16608083015263ffffffff60e01b8160401b1660a083015263ffffffff60e01b8160201b1660c083015263ffffffff60e01b1660e0820152019401920191610b75565b346104ef5760203660031901126104ef576001600160a01b03610ca6610eb9565b168060005260126020526001600160401b036040600020541690811561058a5760005260116020526001600160401b0360406000209116600052602052604060002060018060a01b03905416801561058a57602090604051908152f35b346104ef5760003660031901126104ef57604051600a80548083526000918252602083019190600080516020610f598339815191525b816007840110610daa57549181811061072d5781811061070e578181106106ef578181106106d0578181106106b1578181106106925781811061067557106106605750819003601f01601f19168101906001600160401b0382118183101761039b5761065c82918260405282610ecf565b926001610100600892865463ffffffff60e01b8160e01b16825263ffffffff60e01b8160c01b16602083015263ffffffff60e01b8160a01b16604083015263ffffffff60e01b8160801b16606083015263ffffffff60e01b8160601b16608083015263ffffffff60e01b8160401b1660a083015263ffffffff60e01b8160201b1660c083015263ffffffff60e01b1660e0820152019401920191610d39565b346104ef5760003660031901126104ef576001546040516001600160a01b039091168152602090f35b346104ef5760203660031901126104ef576001600160a01b03610e93610eb9565b1660005260126020526001600160401b036040600020541690811561058a576020918152f35b600435906001600160a01b03821682036104ef57565b602060408183019282815284518094520192019060005b818110610ef35750505090565b82516001600160e01b031916845260209384019390920191600101610ee6565b9181601f840112156104ef578235916001600160401b0383116104ef576020808501948460051b0101116104ef57565b356001600160e01b0319811681036104ef579056fec65a7bb8d6351c1cf70c95a316cc6a92839c986682d98bc35f958f4883f9d2a86e1540171b6c0c960b71a7020d9f60077f6af931a8bbf590da0223dacf75c7afa26469706673582212205604dae8b64b60d3725feb017f53dc678eda9de8fa2901992b7dcd509a11a61264736f6c634300081a0033","linkReferences":{}},"methodIdentifiers":{"getGateway()":"42bf3cc1","getSubnetActorCheckpointerFacet()":"62c9d7fb","getSubnetActorCheckpointerSelectors()":"967ba537","getSubnetActorGetterFacet()":"0be06111","getSubnetActorGetterSelectors()":"1b0766c3","getSubnetActorManagerFacet()":"a372bf30","getSubnetActorManagerSelectors()":"0f5849d1","getSubnetActorPauserFacet()":"4d711514","getSubnetActorPauserSelectors()":"89bba299","getSubnetActorRewarderFacet()":"540b5ad6","getSubnetActorRewarderSelectors()":"54a4eddb","getSubnetDeployedByNonce(address,uint64)":"9836b75f","getUserLastNonce(address)":"030f6051","latestSubnetDeployed(address)":"1163dca5","updateReferenceSubnetContract(address,address,bytes4[],bytes4[])":"a46d044d"},"id":100}