{"abi":[{"type":"function","name":"addBootstrapNode","inputs":[{"name":"netAddress","type":"string","internalType":"string"}],"outputs":[],"stateMutability":"nonpayable"},{"type":"function","name":"claim","inputs":[],"outputs":[],"stateMutability":"nonpayable"},{"type":"function","name":"claimRewardForRelayer","inputs":[],"outputs":[],"stateMutability":"nonpayable"},{"type":"function","name":"distributeRewardToRelayers","inputs":[{"name":"height","type":"uint64","internalType":"uint64"},{"name":"reward","type":"uint256","internalType":"uint256"}],"outputs":[],"stateMutability":"payable"},{"type":"function","name":"join","inputs":[{"name":"publicKey","type":"bytes","internalType":"bytes"}],"outputs":[],"stateMutability":"payable"},{"type":"function","name":"kill","inputs":[],"outputs":[],"stateMutability":"nonpayable"},{"type":"function","name":"leave","inputs":[],"outputs":[],"stateMutability":"nonpayable"},{"type":"function","name":"pause","inputs":[],"outputs":[],"stateMutability":"nonpayable"},{"type":"function","name":"paused","inputs":[],"outputs":[{"name":"","type":"bool","internalType":"bool"}],"stateMutability":"view"},{"type":"function","name":"preFund","inputs":[],"outputs":[],"stateMutability":"payable"},{"type":"function","name":"preRelease","inputs":[{"name":"amount","type":"uint256","internalType":"uint256"}],"outputs":[],"stateMutability":"nonpayable"},{"type":"function","name":"setFederatedPower","inputs":[{"name":"validators","type":"address[]","internalType":"address[]"},{"name":"publicKeys","type":"bytes[]","internalType":"bytes[]"},{"name":"powers","type":"uint256[]","internalType":"uint256[]"}],"outputs":[],"stateMutability":"nonpayable"},{"type":"function","name":"stake","inputs":[],"outputs":[],"stateMutability":"payable"},{"type":"function","name":"submitCheckpoint","inputs":[{"name":"checkpoint","type":"tuple","internalType":"struct BottomUpCheckpoint","components":[{"name":"subnetID","type":"tuple","internalType":"struct SubnetID","components":[{"name":"root","type":"uint64","internalType":"uint64"},{"name":"route","type":"address[]","internalType":"address[]"}]},{"name":"blockHeight","type":"uint64","internalType":"uint64"},{"name":"blockHash","type":"bytes32","internalType":"bytes32"},{"name":"nextConfigurationNumber","type":"uint64","internalType":"uint64"},{"name":"crossMessagesHash","type":"bytes32","internalType":"bytes32"}]},{"name":"messages","type":"tuple[]","internalType":"struct CrossMsg[]","components":[{"name":"message","type":"tuple","internalType":"struct StorableMsg","components":[{"name":"from","type":"tuple","internalType":"struct IPCAddress","components":[{"name":"subnetId","type":"tuple","internalType":"struct SubnetID","components":[{"name":"root","type":"uint64","internalType":"uint64"},{"name":"route","type":"address[]","internalType":"address[]"}]},{"name":"rawAddress","type":"tuple","internalType":"struct FvmAddress","components":[{"name":"addrType","type":"uint8","internalType":"uint8"},{"name":"payload","type":"bytes","internalType":"bytes"}]}]},{"name":"to","type":"tuple","internalType":"struct IPCAddress","components":[{"name":"subnetId","type":"tuple","internalType":"struct SubnetID","components":[{"name":"root","type":"uint64","internalType":"uint64"},{"name":"route","type":"address[]","internalType":"address[]"}]},{"name":"rawAddress","type":"tuple","internalType":"struct FvmAddress","components":[{"name":"addrType","type":"uint8","internalType":"uint8"},{"name":"payload","type":"bytes","internalType":"bytes"}]}]},{"name":"value","type":"uint256","internalType":"uint256"},{"name":"nonce","type":"uint64","internalType":"uint64"},{"name":"method","type":"bytes4","internalType":"bytes4"},{"name":"params","type":"bytes","internalType":"bytes"},{"name":"fee","type":"uint256","internalType":"uint256"}]},{"name":"wrapped","type":"bool","internalType":"bool"}]},{"name":"signatories","type":"address[]","internalType":"address[]"},{"name":"signatures","type":"bytes[]","internalType":"bytes[]"}],"outputs":[],"stateMutability":"nonpayable"},{"type":"function","name":"unpause","inputs":[],"outputs":[],"stateMutability":"nonpayable"},{"type":"function","name":"unstake","inputs":[{"name":"amount","type":"uint256","internalType":"uint256"}],"outputs":[],"stateMutability":"nonpayable"},{"type":"function","name":"validateActiveQuorumSignatures","inputs":[{"name":"signatories","type":"address[]","internalType":"address[]"},{"name":"hash","type":"bytes32","internalType":"bytes32"},{"name":"signatures","type":"bytes[]","internalType":"bytes[]"}],"outputs":[],"stateMutability":"view"},{"type":"event","name":"BottomUpCheckpointExecuted","inputs":[{"name":"epoch","type":"uint64","indexed":false,"internalType":"uint64"},{"name":"submitter","type":"address","indexed":false,"internalType":"address"}],"anonymous":false},{"type":"event","name":"BottomUpCheckpointSubmitted","inputs":[{"name":"checkpoint","type":"tuple","indexed":false,"internalType":"struct BottomUpCheckpoint","components":[{"name":"subnetID","type":"tuple","internalType":"struct SubnetID","components":[{"name":"root","type":"uint64","internalType":"uint64"},{"name":"route","type":"address[]","internalType":"address[]"}]},{"name":"blockHeight","type":"uint64","internalType":"uint64"},{"name":"blockHash","type":"bytes32","internalType":"bytes32"},{"name":"nextConfigurationNumber","type":"uint64","internalType":"uint64"},{"name":"crossMessagesHash","type":"bytes32","internalType":"bytes32"}]},{"name":"submitter","type":"address","indexed":false,"internalType":"address"}],"anonymous":false},{"type":"event","name":"NextBottomUpCheckpointExecuted","inputs":[{"name":"epoch","type":"uint64","indexed":false,"internalType":"uint64"},{"name":"submitter","type":"address","indexed":false,"internalType":"address"}],"anonymous":false},{"type":"event","name":"Paused","inputs":[{"name":"account","type":"address","indexed":false,"internalType":"address"}],"anonymous":false},{"type":"event","name":"SubnetBootstrapped","inputs":[{"name":"","type":"tuple[]","indexed":false,"internalType":"struct Validator[]","components":[{"name":"weight","type":"uint256","internalType":"uint256"},{"name":"addr","type":"address","internalType":"address"},{"name":"metadata","type":"bytes","internalType":"bytes"}]}],"anonymous":false},{"type":"event","name":"Unpaused","inputs":[{"name":"account","type":"address","indexed":false,"internalType":"address"}],"anonymous":false},{"type":"error","name":"AddressInsufficientBalance","inputs":[{"name":"account","type":"address","internalType":"address"}]},{"type":"error","name":"AddressShouldBeValidator","inputs":[]},{"type":"error","name":"CannotConfirmFutureChanges","inputs":[]},{"type":"error","name":"CannotReleaseZero","inputs":[]},{"type":"error","name":"CollateralIsZero","inputs":[]},{"type":"error","name":"EmptyAddress","inputs":[]},{"type":"error","name":"EnforcedPause","inputs":[]},{"type":"error","name":"ExpectedPause","inputs":[]},{"type":"error","name":"FailedInnerCall","inputs":[]},{"type":"error","name":"InvalidCheckpointEpoch","inputs":[]},{"type":"error","name":"InvalidCheckpointMessagesHash","inputs":[]},{"type":"error","name":"InvalidFederationPayload","inputs":[]},{"type":"error","name":"InvalidPublicKeyLength","inputs":[]},{"type":"error","name":"InvalidSignatureErr","inputs":[{"name":"","type":"uint8","internalType":"uint8"}]},{"type":"error","name":"MethodNotAllowed","inputs":[{"name":"reason","type":"string","internalType":"string"}]},{"type":"error","name":"NoCollateralToWithdraw","inputs":[]},{"type":"error","name":"NotAllValidatorsHaveLeft","inputs":[]},{"type":"error","name":"NotEnoughBalance","inputs":[]},{"type":"error","name":"NotEnoughCollateral","inputs":[]},{"type":"error","name":"NotEnoughFunds","inputs":[]},{"type":"error","name":"NotGateway","inputs":[]},{"type":"error","name":"NotOwner","inputs":[]},{"type":"error","name":"NotOwnerOfPublicKey","inputs":[]},{"type":"error","name":"NotStakedBefore","inputs":[]},{"type":"error","name":"NotValidator","inputs":[{"name":"","type":"address","internalType":"address"}]},{"type":"error","name":"PQDoesNotContainAddress","inputs":[]},{"type":"error","name":"PQEmpty","inputs":[]},{"type":"error","name":"ReentrancyError","inputs":[]},{"type":"error","name":"SubnetAlreadyBootstrapped","inputs":[]},{"type":"error","name":"SubnetAlreadyKilled","inputs":[]},{"type":"error","name":"WithdrawExceedingCollateral","inputs":[]}],"bytecode":{"object":"0x6080806040523461001657614994908161001c8239f35b600080fdfe608080604052600436101561001357600080fd5b600090813560e01c9081630b7fbe60146117785750806310fd4261146116155780632e17de78146115e85780633a4b66f1146115c45780633f4ba83a1461154c57806341c0e1b5146114b25780634e71d92d1461131e5780635c975abb146112ee5780636170b16214610d7f57806366783c9b14610c9e5780638456cb5914610c36578063a8284de31461067b578063cc2dc2b9146105fe578063d66d9e19146105b3578063da5d09ee146101fb578063ed7c4da11461013f5763f9002bb1146100dc57600080fd5b604036600319011261013c576004356001600160401b038116810361013757610103611a84565b6009546001600160a01b031633036101255761012290602435906143d0565b80f35b60405163e7e601db60e01b8152600490fd5b600080fd5b80fd5b503461013c578060031936011261013c5760008051602061493f83398151915260018154146101e957806001839255610176611a84565b73__$4a8700ca5e162cb61a0c4650a4871f1ad5$__803b156101e55782602491604051928380926382985e0b60e01b82523360048301525af49081156101da5783916101c3575b50505580f35b6101cc9061183f565b6101d75781386101bd565b50fd5b6040513d85823e3d90fd5b5050fd5b6040516329f745a760e01b8152600490fd5b503461013c57606036600319011261013c576004356001600160401b0381116105af5761022c9036906004016118fb565b906024356001600160401b0381116105ab5761024c9036906004016118fb565b916044356001600160401b0381116105a75761026c9036906004016118fb565b90946102766139b6565b61027e611a3f565b60ff600e5416600281101561059357600103610563578181036105515784810361055157865b8181106102af578780f35b6102c36102bd828888613940565b906147db565b6001600160a01b036102de6102d9848689613981565b611e17565b166001600160a01b039091160361053f576103486103006102d9838588613981565b61030b838989613940565b61031985888d969496613981565b35610334604051958693604060208601526060850191611be3565b90604083015203601f198101845283611888565b6001600160401b03601754166040516103608161186d565b600381526020810184815260018060a01b0384166040830152826000526018602052604060002090825161039381611f9b565b61039c81611f9b565b60ff80198454169116178255518051906001600160401b038211610529576103d4826103cb6001860154611fbb565b600186016120ae565b602090601f83116001146104a25792826000805160206148ff83398151915297959360029360019b9a9896600092610497575b5050600019600383901b1c1916908a1b17818a01555b01906040888060a01b03910151166001600160601b0360a01b8254161790556001600160401b0361044d82611ac3565b166001600160401b0319601754161760175561048860405193849360038552888060a01b031660208501526080806040860152840190613991565b9060608301520390a1016102a4565b015190503880610407565b906001840160005260206000209160005b601f198516811061051157508360029360019b9a9896938c936000805160206148ff8339815191529b9997601f198116106104f8575b505050811b018982015561041d565b015160001960f88460031b161c191690553880806104e9565b919260206001819286850151815501940192016104b3565b634e487b7160e01b600052604160045260246000fd5b604051634be9251d60e11b8152600490fd5b604051637e65935960e01b8152600490fd5b61058f61056e6139d7565b60405163015538b160e01b8152602060048201529182916024830190613991565b0390fd5b634e487b7160e01b88526021600452602488fd5b8580fd5b8380fd5b5080fd5b503461013c578060031936011261013c5760008051602061493f83398151915260018154146101e9578060018392556105ea611a84565b6105f26139b6565b6105fa6141db565b5580f35b503461013c57606036600319011261013c576001600160401b03600435818111610677573660238201121561067757610641903690602481600401359101611956565b60443591821161067757366023830112156106775761066d6101229236906024816004013591016119ac565b90602435906144a0565b8280fd5b503461013c57608036600319011261013c576001600160401b036004351161013c5760a06004353603600319011261013c576024356001600160401b0381116105af576106cc9036906004016118fb565b91906044356001600160401b038111610677576106ed9036906004016118fb565b6064356001600160401b038111610aae5761070c9036906004016118fb565b92610715611a84565b610723602460043501611aaf565b926001600160401b03600554166001600160401b0360075416946001600160401b03806107508885611af1565b169116141580610c16575b610c045760405160208101906020825261078c8161077e8d60408301908d611c6d565b03601f198101835282611888565b5190206084600435013503610bf2576040516020808201526107ba8161077e60408201600435600401611da1565b60208151910120946001600160401b03806107e36107dc602460043501611aaf565b9385611af1565b16911614600014610ab257509161080461080c926108129695943691611956565b9336916119ac565b916144a0565b6001600160401b03610828602460043501611aaf565b168252816020526040822092600435600401356042196004353603018112156105ab57600435016001600160401b0361086360048301611aaf565b166001600160401b031986541617855560248101359060221981360301821215610aae5701936001600160401b036004860135116105ab57600485013560051b360360248601136105ab57600160401b600486013511610a9a5760019485820180546004830135825580600484013510610a7b575b506024820190865260208620865b60048401358110610a5d5750505050839450600281016001600160401b03610912602460043501611aaf565b166001600160401b03198254161790556044600435013560038201556001600160401b03610944606460043501611aaf565b1660048201906001600160401b03198254161790556005608460043501359101556001600160401b0361097b602460043501611aaf565b168352601d602052610991604084203390611f16565b506001600160401b036109a8602460043501611aaf565b166001600160401b0319600554161760055560018060a01b036009541691823b15610a5857610a1292849283604051809681958294637a2b59cf60e11b845260406004850152610a0060448501600435600401611da1565b84810360031901602486015291611c6d565b03925af18015610a4d57610a39575b5050610122610a34606460043501611aaf565b6121d3565b610a429061183f565b61013c578038610a21565b6040513d84823e3d90fd5b505050fd5b886004916020610a6c86611e17565b950194818501550190506108e6565b81875260208720610a9491810190600485013501611e00565b386108d8565b634e487b7160e01b84526041600452602484fd5b8480fd5b9550505050929350506001600160401b03610ad1602460043501611aaf565b1614610adc575b5080f35b6001600160401b03610af2602460043501611aaf565b168252816020526040822060405160208101916020835260a06040830152816101208101916001600160401b0381541660e0830152600190818101916040610100850152825480955261014084019289526020892090895b868110610bd15750505060028101546001600160401b0390811660608501526003820154608085015260048201541660a08401526005015460c083015203601f1981018352610b9a915082611888565b51902014610ba55780f35b6001600160401b03610bbb602460043501611aaf565b168152601d602052610ad8604082203390611f16565b82546001600160a01b03168552879550602090940193918101918101610b4a565b604051632d7f750360e21b8152600490fd5b60405163fae4eadb60e01b8152600490fd5b50806001600160401b03610c2e602460043501611aaf565b16141561075b565b503461013c578060031936011261013c57610c4f611a3f565b610c57611a84565b60008051602061491f833981519152600160ff198254161790557f5db9ee0a495bf2e6ff9c91a7834c1ba4fdd244a5e8aa4e537bd38aeae4b073aa6020604051338152a180f35b503461013c57602036600319011261013c5760043560008051602061493f83398151915260018154146101e957600181558115610d6d5760ff600d5460081c16610d5b57338352600360205281604084205410610d49576105fa8392338452600360205260408420610d1182825461274d565b9055610d1f8160025461274d565b6002553384526003602052604084205415610d3b575b336138c6565b610d4433614817565b610d35565b60405163569d45cf60e11b8152600490fd5b604051631b39f2f360e11b8152600490fd5b604051631036b5ad60e31b8152600490fd5b50602036600319011261013c57600435906001600160401b03821161013c573660238301121561013c576001600160401b0382600401351161013c57602436818460040135850101116105af57600160008051602061493f83398151915254146101e957600160008051602061493f83398151915255610dfd611a84565b610e056139b6565b60ff600d5460081c16806112e1575b34156112cf5760418460040135036112bd57610e3684600401358386016147db565b336001600160a01b039091160361053f576110bb5733600090815260106020526040902060039390840190610e798160040135610e738454611fbb565b846120ae565b83601f826004013511600114611046578385918360040135611039575b5050816004013560011b916000199060040135871b1c19161790555b610ebc3433613a8f565b600f54600654811015610ee3575b505090505b8060008051602061493f8339815191525580f35b61ffff601154166001600160401b0360075460401c1611610eca5761010061ff0019600d541617600d5560405193602085019060208652600154809252604086019160408160051b88010192600187527fb10e2d527612073b26eecdfd717e6a320cf44b4afac2b0732d9fcbe2b7fa0cf69287915b838310610fec5750505050508484957f4914d88063275a25a13b2df37125e216745d812f94c56504be4bd78cf60c9593920390a160018060a01b0360095416610fa46002548093612683565b92813b15610aae5784926040519485938492637903ab2760e11b845260048401525af18015610a4d57610fd8575b80610eca565b610fe19061183f565b61013c578038610fd2565b909192939460208361102a6001938d603f1990820301865289548152848060a01b03858b015416848201526060908160408201520160028a01611ff5565b97019201930191909392610f58565b8301013590508338610e96565b828552602085208592916004830135601f19165b80851061109e5760019450836004013511611080575b505060040135811b019055610eb2565b82018501356000196004840135891b60f8161c191690553880611070565b83820187013583556020948501946001909301929091019061105a565b6110cc3684600401358386016118c4565b926001600160401b03601754166040516110e58161186d565b6002815260208101958652336040820152816000526018602052604060002095815161111081611f9b565b61111981611f9b565b60ff80198954169116178755519586516001600160401b0381116112a857611151816111486001850154611fbb565b600185016120ae565b6020601f8211600114611226579080600293926000805160206148ff833981519152999a60009261121b575b50508160011b916000199060031b1c19161760018201555b0190604060018060a01b03910151166001600160601b0360a01b8254161790556001600160401b036111c682611ac3565b166001600160401b031960175416176017556112036040519384936002855233602086015260806040860152608085019181600401359101611be3565b9060608301520390a16112163433613ca0565b610ecf565b01519050388061117d565b6001830160005260206000209860005b601f19841681106112905750916000805160206148ff83398151915298996001926002959483601f19811610611277575b505050811b016001820155611195565b015160001960f88460031b161c19169055388080611267565b828201518b556001909a019960209283019201611236565b85634e487b7160e01b60005260416004526000fd5b6040516318dca5e960e21b8152600490fd5b604051635a78c58160e11b8152600490fd5b6112e9613e9c565b610e14565b503461013c578060031936011261013c57602060ff60008051602061491f83398151915254166040519015158152f35b503461013c578060031936011261013c5760019060008051602061493f833981519152828154146101e957828155611354611a84565b336000908152601a602052604090209283549061ffff908183169283156114a057829060101c16918391808795818a01915b61141a575b505050866113fc937f197c586353eaed0a1c53e6e540445b94befab8f932c8115d112115ecbeeed514959363ffff000093899a54911693849260101b169063ffffffff19161717905515611403575b6113e481336138c6565b60408051338152602081019290925290918291820190565b0390a15580f35b336000908152601a602052604090208590556113da565b909193948381169682881015611497578760005260208091858252604060002060405161144681611852565b8982549283835201549384910152431061148c578594938896889461146d86958a95612683565b9c60005252600082604082208281550155011696600019011694611386565b98505050949361138b565b9650949361138b565b6040516364b0557f60e01b8152600490fd5b503461013c578060031936011261013c576114cb6139b6565b61ffff6114e181601454168260115416906126a3565b1661153a57600d805462ff000019166201000017905560095481906001600160a01b0316803b156101d75781906004604051809481936341c0e1b560e01b83525af18015610a4d57611531575080f35b6101229061183f565b604051636b62255160e11b8152600490fd5b503461013c578060031936011261013c57611565611a3f565b60008051602061491f833981519152805460ff8116156115b25760ff191690557f5db9ee0a495bf2e6ff9c91a7834c1ba4fdd244a5e8aa4e537bd38aeae4b073aa6020604051338152a180f35b604051638dfc202b60e01b8152600490fd5b508060031936011261013c576115d8611a84565b6115e06139b6565b610122613eb1565b503461013c57602036600319011261013c57611602611a84565b61160a6139b6565b610122600435613f0b565b503461013c576020908160031936011261013c576001600160401b039160043583811161067757366023820112156106775761165b9036906024816004013591016118c4565b92611664611a84565b3383526012825261ffff604084205416156117605783511561174e57338352601e825260408320918451918211610a9a576116a9826116a38554611fbb565b856120ae565b80601f83116001146116ea57508394829394926116df575b50508160011b916000199060031b1c19161790555b610ad833611eaf565b0151905038806116c1565b90601f198316958486528286209286905b8882106117365750508360019596971061171d575b505050811b0190556116d6565b015160001960f88460031b161c19169055388080611710565b806001859682949686015181550195019301906116fb565b604051637138356f60e01b8152600490fd5b604051633b4f6e2b60e21b8152336004820152602490fd5b9050816003193601126105af573415611830575060ff600d5460081c16610d5b5733815260036020526040812054156117d7575b3381526003602052604081206117c3348254612683565b90556117d134600254612683565b60025580f35b600454600160401b81101561181c576117f98160016118179301600455611e2b565b81546001600160a01b0360039290921b91821b19163390911b179055565b6117ac565b634e487b7160e01b82526041600452602482fd5b631036b5ad60e31b8152600490fd5b6001600160401b03811161052957604052565b604081019081106001600160401b0382111761052957604052565b606081019081106001600160401b0382111761052957604052565b90601f801991011681019081106001600160401b0382111761052957604052565b6001600160401b03811161052957601f01601f191660200190565b9291926118d0826118a9565b916118de6040519384611888565b829481845281830111610137578281602093846000960137010152565b9181601f84011215610137578235916001600160401b038311610137576020808501948460051b01011161013757565b6001600160401b0381116105295760051b60200190565b35906001600160a01b038216820361013757565b92916119618261192b565b9161196f6040519384611888565b829481845260208094019160051b810192831161013757905b8282106119955750505050565b8380916119a184611942565b815201910190611988565b929190926119b98461192b565b916119c76040519384611888565b829480845260208094019060051b8301928284116101375780915b8483106119f157505050505050565b82356001600160401b03811161013757820184601f82011215610137578691611a2086838580953591016118c4565b8152019201916119e2565b35906001600160401b038216820361013757565b7f806e0cbb9fce296bbc336a48f42bf1dbc69722d18d90d6fe705b7582c2bb4bd5546001600160a01b03163303611a7257565b6040516330cd747160e01b8152600490fd5b60ff60008051602061491f8339815191525416611a9d57565b60405163d93c066560e01b8152600490fd5b356001600160401b03811681036101375790565b9060016001600160401b0380931601918211611adb57565b634e487b7160e01b600052601160045260246000fd5b9190916001600160401b0380809416911601918211611adb57565b9035603e1982360301811215610137570190565b6001600160401b0391906040820183611b3883611a2b565b16835260209182810135601e19823603018112156101375701928284359401948411610137578360051b36038513610137576040818401529083905260600192919060005b828110611b8b575050505090565b909192938280600192838060a01b03611ba389611942565b16815201950193929101611b7d565b9035601e19823603018112156101375701602081359101916001600160401b03821161013757813603831361013757565b908060209392818452848401376000828201840152601f01601f1916010190565b611c2d611c22611c148380611b0c565b604085526040850190611b20565b916020810190611b0c565b91602081830391015281359160ff831680930361013757611c5a604091611c6a9484526020810190611bb2565b9190928160208201520191611be3565b90565b90918092808252602080920191808260051b86010194846000915b848310611c99575050505050505090565b90919293949596601f19828203018752611cb38884611b0c565b90813560de198336030181121561013757820191604090818352611cd78480611b0c565b611ced60e0918285870152610120860190611c04565b92611cfa8a870187611b0c565b6001600160401b03611d2f611d1d603f1997606094898b830301868c0152611c04565b926080948a0135858a01528901611a2b565b169160a092838801528701359263ffffffff60e01b8416809403610137578b95611d65611d759460c096878b01528a018a611bb2565b9290918985030190890152611be3565b940135610100840152013590811515809203610137578601529684019584019493926001019190611c88565b90608080611dc0611db28580611b0c565b60a0855260a0850190611b20565b936001600160401b0380611dd660208401611a2b565b16602086015260408201356040860152611df260608301611a2b565b166060850152013591015290565b818110611e0b575050565b60008155600101611e00565b356001600160a01b03811681036101375790565b600454811015611e625760046000527f8a35acfbc15ff81a39ae7d344fd709f28e8600b4aa8c65c6b64bfe7fe36bd19b0190600090565b634e487b7160e01b600052603260045260246000fd5b601f54811015611e6257601f6000527fa03837a25210ee280c2113ff4b77ca23440b19d4866cca721c801278fd08d8070190600090565b6000818152602080526040812054611f1157601f54600160401b81101561181c579082611efe611ee784600160409601601f55611e78565b819391549060031b91821b91600019901b19161790565b9055601f54928152602080522055600190565b905090565b91906001830160009082825280602052604082205415600014611f9557845494600160401b861015611f815760018601808255861015611f6d57836040949596828552602085200155549382526020522055600190565b634e487b7160e01b83526032600452602483fd5b634e487b7160e01b83526041600452602483fd5b50925050565b60041115611fa557565b634e487b7160e01b600052602160045260246000fd5b90600182811c92168015611feb575b6020831014611fd557565b634e487b7160e01b600052602260045260246000fd5b91607f1691611fca565b906000929180549161200683611fbb565b9182825260019384811690816000146120685750600114612028575b50505050565b90919394506000526020928360002092846000945b838610612054575050505001019038808080612022565b80548587018301529401938590820161203d565b9294505050602093945060ff191683830152151560051b01019038808080612022565b60005b83811061209e5750506000910152565b818101518382015260200161208e565b9190601f81116120bd57505050565b6120e9926000526020600020906020601f840160051c830193106120eb575b601f0160051c0190611e00565b565b90915081906120dc565b908082146121cf576121078154611fbb565b906001600160401b03821161052957819061212c826121268654611fbb565b866120ae565b600090601f831160011461216357600092612158575b50508160011b916000199060031b1c1916179055565b015490503880612142565b81526020808220858352818320935090601f1985169083905b8282106121b657505090846001959493921061219d575b505050811b019055565b015460001960f88460031b161c19169055388080612193565b849581929585015481556001809101960194019061217c565b5050565b6017546001600160401b03828116929080831684106121fe5760405163040aaa0560e11b8152600490fd5b808360401c1684106120225780604093841c165b8482821611156122795750509160209161224c7f246f00b61ce672242f33bb680a47147cd54d3dfd04dbb76956ba42f88087bf6394611ac3565b67ffffffffffffffff60401b60175491831b169067ffffffffffffffff60401b19161760175551908152a1565b81612297826001600160401b03166000526018602052604060002090565b6002808201548254929491926001600160a01b03918216919060ff166122bc81611f9b565b80850361232e57505060036122ed60016122f394959697019260018060a01b03166000526010602052604060002090565b016120f5565b612310816001600160401b03166000526018602052604060002090565b9160009081845560019361232585820161275a565b01550116612212565b9091945061233b81611f9b565b6003918183036124d95750508751936123638561235c816001809a01611ff5565b0386611888565b84518501916020928a8785830192031261013757838701518981116101375787019681603f890112156101375787858d990151926123ac6123a3856118a9565b9a519a8b611888565b838a528d8483010111610137578c926123ca9184888c01910161208b565b015192816123ea8460018060a01b03166000526010602052604060002090565b01918751918a83116124c4578a9861240c846124068754611fbb565b876120ae565b81601f851160011461245157506124419798999a8493928492600095612446575b50501b92600019911b1c19161790556126b9565b6122f3565b01519350388061242d565b91601f9b9493919b1984169b866000528c84600020946000915b82106124a9575050846124419a9b9c9d1061248f575b50505050811b0190556126b9565b01519060f884600019921b161c1916905538808080612481565b8383015186558f9d509487019492830192908101908e61246b565b60246000634e487b7160e01b81526041600452fd5b915091938895939551936124f58561235c816001809501611ff5565b602080868051810103126101375781818c9701519561251381611f9b565b0361263857849061252482856127a3565b6019546125319043612683565b9287519061253e82611852565b8482528282018481526001600160a01b0387166000908152601a602052604090209091909283549161ffff9384848180961695869160101c1690612581916126a3565b169c60009d8e5282870188528d2092518355519101556125a090612690565b1661ffff198254161790558b519384528301528982015260607f083b080788e20bd0930c2bca2ae4fbc51a59ced08c1b5992271f8cb439498a6391a16009541690813b15610677578291602483928a5195869384926345f5448560e01b845260048401525af190811561262d5750908493929161261e575b506122f3565b6126279061183f565b38612618565b8751903d90823e3d90fd5b50508293509161264891926126fd565b6009541690813b15610137578651916316989f6f60e21b83528260048160009485945af190811561262d5750908493929161261e57506122f3565b91908201809211611adb57565b90600161ffff80931601918211611adb57565b91909161ffff80809416911601918211611adb57565b9060018060a01b0382166000526010602052604060002081815491558181146000146126e457505050565b8111156126f4576120e991612832565b6120e991612b78565b906120e99161274560018060a01b0382169283600052601060205261272a81600160406000200154612683565b93600052601060205283600160406000200155600f54612683565b600f55612832565b91908203918211611adb57565b6127648154611fbb565b908161276e575050565b81601f60009311600114612780575055565b90808391825261279f601f60208420940160051c840160018501611e00565b5555565b906128106128189260018060a01b03811690600082815260106020526127d085600160408420015461274d565b9281526010602052604081206002810184815481159081612829575b501561281d5750908260039261280b948355816001840155550161275a565b612b78565b600f5461274d565b600f55565b92505060010155612b78565b905015386127ec565b919060018060a01b03928381166000948186526020916012835261ffff91604097838982205416612a635783600e5460081c16846011541610612a2f57612877613685565b60019283825260138652828a832054168861289182612f63565b106129a957508152601585528389822054166129005750505050506128fb7f19fe3ca603e87854a0747cc10abf06bac64d61bac73d6d15f2fd3ca448f1526493946128db83612eee565b516001600160a01b03909216825260208201929092529081906040820190565b0390a1565b612909866136d8565b9261291387612f63565b935b818682161161296b575b505097516001600160a01b0390951685525050505060208101919091529091507fda148fac2e1063174be7bc0895576bdaba90fd14e575463fa26a967cb895cadd9080604081016128fb565b808561298a86617fff8f95871c169485885260168c5287205416612f63565b10156129a3579061299c839282613837565b9050612915565b5061291f565b969750899493507ffaeb8de771b867cf357f6b459a7002b62ec45d544a8078a3ecd91200cc826d75989992506128fb956015916129e461337d565b835252205416612a21575b6129f884613308565b612a0183612eee565b516001600160a01b03928316815292909116602083015281906040820190565b612a2a8461312d565b6129ef565b50505050506128fb7f2e8038f5812f763c6ef0c5427cb5a05ce6d7064af2ba7d1d270bc02660b019fd93946128db83613308565b97929150612a7485949796956136a1565b97612a7e85612f63565b97612a888a613299565b8460115416905b858116828111612b415782811015612b25575080612aaf612ab592612690565b90613635565b9b909b5b8b1115612ad857612aca908c61379e565b612ad38b613299565b612a8f565b505093516001600160a01b0390951685525050505060208101919091529092507f143db27bc2036653dc6f962ff9d0b803163d4af50c256ca9e6927b3d6dcd0197915080604081016128fb565b849c919c5260138352612b3c858886205416612f63565b612ab9565b505050505050506128fb91929395507f143db27bc2036653dc6f962ff9d0b803163d4af50c256ca9e6927b3d6dcd019794506128db565b909160018060a01b03928383169060009382855260206015815261ffff95604094878683205416612db2578082526012835287868320541615612da1578415612cf95750612bc5836136a1565b97612bcf84612f63565b985b6001808a83161115612cea5781617fff911c1690818452601385528a612bfb848a87205416612f63565b1115612c1057612c0b908261379e565b612bd1565b505091939597509193955b6014541615612ce257612c2c613685565b600182526013835285818184205416926016612c4785612f63565b95612c50613693565b600183525220541691612c6283612f63565b11612ca957505091516001600160a01b03909216825260208201527f143db27bc2036653dc6f962ff9d0b803163d4af50c256ca9e6927b3d6dcd01979080604081016128fb565b915091506128fb7ffaeb8de771b867cf357f6b459a7002b62ec45d544a8078a3ecd91200cc826d7593612cda61337d565b6129ef612fc6565b505050505050565b50509193959750919395612c1b565b829450612d2d7f4a4c5d1a281180eea1e99d8177fa4798b9f7e019d5c57e7d8d73c6a22199aa5b93929894999697996134c6565b8651908152a160145416612d415750505050565b7f2e8038f5812f763c6ef0c5427cb5a05ce6d7064af2ba7d1d270bc02660b019fd9360168492612d6f613693565b6001835252205416612d95612d8382612f63565b92612d8c612fc6565b6128db83613308565b0390a138808080612022565b8551632a55ca5360e01b8152600490fd5b84969792939598919415612eb3575061fffe9193612dcf866136d8565b93612dd987612f63565b9480966001958692831b168160145416925b612e3f575b505099516001600160a01b039097168752505050506020830193909352509192507fda148fac2e1063174be7bc0895576bdaba90fd14e575463fa26a967cb895cadd91905080604081016128fb565b818116838111612ead578d9084811015612e9157505080612e62612e6892612690565b906132b0565b9890985b881015612e8c57612e7d9089613837565b612e8688613299565b86612deb565b612df0565b865260168552852054909890612ea8908716612f63565b612e6c565b50612df0565b94915050612ee79194507f3168ba660eed6ef1dc2258b2247cc05fd0f2f350d39e6ad2e2ebc76a8000b40b9596925061312d565b51908152a1565b6120e990612f5d61ffff91612f068360145416612690565b9260018060a01b0382169081600052601560205260406000209085169161ffff199183838254161790558260005260166020526040600020906001600160601b0360a01b8254161790556014541617601455612f63565b90613244565b60ff600e54166002811015611fa557600103612f94576001600160a01b031660009081526010602052604090205490565b6001600160a01b031660009081526010602052604090206001015490565b61ffff9081166000190191908211611adb57565b61ffff806014541690811561311b5790600190612fe581831115613781565b6000828152601660208181526040808420805486865282862080546001600160a01b0392831680895260158752858920805461ffff199081168c17909155918416808a52868a20805484168d17905588885283546001600160a01b03199081169092179093558a89528454169091179092559295879593949293929161307f91908a61307083612fb2565b169060145416176014556136fd565b848252808652613093848484205416612f63565b95859860028160145416995b6130b1575b5050505050505050505050565b8181168a8111613115578a8110156130fa575080612e626130d192612690565b9a909a5b8910156130f5576130e6908b613837565b6130ef8a613299565b8761309f565b6130a4565b859b919b52838352613110878787205416612f63565b6130d5565b506130a4565b6040516340d9b01160e01b8152600490fd5b613136906136d8565b61ffff9081601454169161314a8383613837565b8061315484612fb2565b1661ffff19601454161760145561316a836136fd565b80821680931461323f579161fffe9160009180835260169060209382855260018060a01b03926040926131aa6131a4868686205416612f63565b87613244565b82528086526131bd848484205416612f63565b9585986001988997881b168160145416995b6131e0575050505050505050505050565b8181168a8111613115578a811015613224575080612e6261320092612690565b9a909a5b8910156130f557613215908b613837565b61321e8a613299565b876131cf565b859b919b5283835261323a878787205416612f63565b613204565b505050565b9190915b60018061ffff831611156132935781617fff911c16908361327e60008481526016602052604060018060a01b0391205416612f63565b10156132935761328e9082613837565b613248565b50509050565b60011b906201fffe61fffe831692168203611adb57565b91909161ffff9283821660005260166020526132f360018060a01b036132dc8160406000205416612f63565b958316600052601660205260406000205416612f63565b908185106133015750509190565b9350919050565b6120e99061337761ffff916133208360115416612690565b9260018060a01b0382169081600052601260205260406000209085169161ffff199183838254161790558260005260136020526040600020906001600160601b0360a01b8254161790556011541617601155612f63565b906135e6565b61ffff806011541690811561311b579060019061339c81831115613781565b6000828152601360208181526040808420805486865282862080546001600160a01b0392831680895260128752858920805461ffff199081168c17909155918416808a52868a20805484168d17905588885283546001600160a01b03199081169092179093558a89528454169091179092559295879593949293929161343691908a61342783612fb2565b1690601154161760115561373f565b84825280865261344a848484205416612f63565b95859860028160115416995b613467575050505050505050505050565b8181168a8111613115578a8110156134ab575080612aaf61348792612690565b9a909a5b8911156130f55761349c908b61379e565b6134a58a613299565b87613456565b859b919b528383526134c1878787205416612f63565b61348b565b6134cf906136a1565b9061ffff908160115416906134e4828561379e565b826134ee83612fb2565b1661ffff1960115416176011556135048261373f565b8284168092146135e05760009291929183835260139260209484865260018060a01b039160409161354261353c858585205416612f63565b8a6135e6565b8152858752613555838383205416612f63565b9561355f89613299565b978560115416985b8681168a81116135d2578a8110156135b7575080612aaf61358792612690565b9a909a5b8911156135aa5761359c908b61379e565b6135a58a613299565b613567565b5050505050505092505050565b849b919b528282526135cd868686205416612f63565b61358b565b505050505050505092505050565b92505050565b9190915b60018061ffff831611156132935781617fff911c16908361362060008481526013602052604060018060a01b0391205416612f63565b111561329357613630908261379e565b6135ea565b919061ffff808416600052601360205261367660018060a01b0361365f8160406000205416612f63565b928416600052601360205260406000205416612f63565b93848211156133015750509190565b61ffff601154161561311b57565b61ffff601454161561311b57565b6001600160a01b031660009081526012602052604090205461ffff169081156136c657565b60405163f2755e3760e01b8152600490fd5b6001600160a01b031660009081526015602052604090205461ffff169081156136c657565b61ffff16600090815260166020908152604080832080546001600160a01b031981169091556001600160a01b0316835260159091529020805461ffff19169055565b61ffff16600090815260136020908152604080832080546001600160a01b031981169091556001600160a01b0316835260129091529020805461ffff19169055565b1561378857565b634e487b7160e01b600052600160045260246000fd5b6137c361ffff8080601154169316936137b984861115613781565b1691821115613781565b6000828152601360208181526040808420805486865282862080546001600160a01b0392831680895260128752858920805461ffff19908116909b1790559216808852938720805490981689179097559390925284546001600160a01b031990811690931790945593909152825416179055565b61385261ffff8080601454169316936137b984861115613781565b6000828152601660208181526040808420805486865282862080546001600160a01b0392831680895260158752858920805461ffff19908116909b1790559216808852938720805490981689179097559390925284546001600160a01b031990811690931790945593909152825416179055565b814710613928576000918291829182916001600160a01b03165af13d15613923573d6138f1816118a9565b906138ff6040519283611888565b8152600060203d92013e5b1561391157565b604051630a12f52160e11b8152600490fd5b61390a565b60405163cd78605960e01b8152306004820152602490fd5b9190811015611e625760051b81013590601e19813603018212156101375701908135916001600160401b038311610137576020018236038113610137579190565b9190811015611e625760051b0190565b906020916139aa8151809281855285808601910161208b565b601f01601f1916010190565b60ff600d5460101c166139c557565b60405163248c8efb60e11b8152600490fd5b60405190608082018281106001600160401b03821117610529576040526045825264185c1c195960da1b6060837f4d6574686f64206e6f7420616c6c6f776564206966207065726d697373696f6e60208201527f656420697320656e61626c656420616e64207375626e657420626f6f7473747260408201520152565b600154811015611e62576003906001600052027fb10e2d527612073b26eecdfd717e6a320cf44b4afac2b0732d9fcbe2b7fa0cf60190600090565b90613aa490613a9e8184613c79565b826126fd565b60ff600d5460081c1615613ab55750565b60018054600082815b838110613c48575b505015613ad257505050565b6001600160a01b038316600090815260106020526040902082810154613b2894909160030160405192613b048461186d565b8352602093613b2f8585019260018060a01b03809516845260405198898092611ff5565b0388611888565b60408401968752600160401b811015610529578086613b5092018755613a54565b929092613c32576002935183558583019151166001600160601b0360a01b825416179055019251908151916001600160401b03831161052957613b97836124068754611fbb565b81601f8411600114613bd05750928293918392600094613bc5575b50501b916000199060031b1c1916179055565b015192503880613bb2565b919083601f1981168760005284600020946000905b88838310613c185750505010613bff57505050811b019055565b015160001960f88460031b161c19169055388080612193565b858701518855909601959485019487935090810190613be5565b634e487b7160e01b600052600060045260246000fd5b81613c5282613a54565b5001546001600160a01b03878116911614613c6f57018390613abe565b5090508238613ac6565b60018060a01b03166000526010602052613c9c6002604060002001918254612683565b9055565b91906040519281602085015260208452613cb984611852565b6001600160401b03601754169360405194613cd38661186d565b60008652602086019582875260018060a01b03841660408201528160005260186020526040600020968151613d0781611f9b565b613d1081611f9b565b60ff80198a54169116178855519687516001600160401b03811161052957613d3f816111486001850154611fbb565b6020601f8211600114613e1157613df89492826000805160206148ff8339815191529795936002936120e99c9d600092613e06575b50508160011b916000199060031b1c19161760018201555b0190604060018060a01b03910151166001600160601b0360a01b8254161790556001600160401b03613dbd82611ac3565b166001600160401b031960175416176017556040519283926000845260018060a01b0387166020850152608060408501526080840190613991565b9060608301520390a1613c79565b015190503880613d74565b6001830160005260206000209960005b601f1984168110613e845750926001836120e99b9c600294613df899976000805160206148ff8339815191529b9997601f19811610613e6b575b505050811b016001820155613d8c565b015160001960f88460031b161c19169055388080613e5b565b828201518c556001909b019a60209283019201613e21565b60ff600e54166002811015611fa55761056357565b613eb9613e9c565b34156112cf573360009081526010602052604090206002015415613ef95760ff600d5460081c1615613eef576120e93433613ca0565b6120e93433613a8f565b60405163528fc16560e01b8152600490fd5b613f13613e9c565b8015613f7a5733600090815260106020526040902060020154801561176057811015613f695760ff600d5460081c1615613f51576120e99033613fdf565b80613f5f6120e99233613f8c565b610d3581336127a3565b60405162d11df360e61b8152600490fd5b60405163c79cad7b60e01b8152600490fd5b6001600160a01b03166000818152601060205260409020600201549091808210613fcd57613fb99161274d565b906000526010602052600260406000200155565b60405163ac69360360e01b8152600490fd5b91906040519281602085015260208452613ff884611852565b6001600160401b036017541693604051946140128661186d565b60018652602086019582875260018060a01b0384166040820152816000526018602052604060002096815161404681611f9b565b61404f81611f9b565b60ff80198a54169116178855519687516001600160401b0381116105295761407e816111486001850154611fbb565b6020601f8211600114614150576141379492826000805160206148ff8339815191529795936002936120e99c9d600092614145575b50508160011b916000199060031b1c19161760018201555b0190604060018060a01b03910151166001600160601b0360a01b8254161790556001600160401b036140fc82611ac3565b166001600160401b031960175416176017556040519283926001845260018060a01b0387166020850152608060408501526080840190613991565b9060608301520390a1613f8c565b0151905038806140b3565b6001830160005260206000209960005b601f19841681106141c35750926001836120e99b9c60029461413799976000805160206148ff8339815191529b9997601f198116106141aa575b505050811b0160018201556140cb565b015160001960f88460031b161c1916905538808061419a565b828201518c556001909b019a60209283019201614160565b60ff600d5460081c166142c8575b3360009081526010602052604090206002015480156117605761420b336142d5565b50600090338252601e60205281604081206142268154611fbb565b8061428b575b50505060ff600d5460081c1615614248576120e9915033613fdf565b60406120e9923381526003602052205480614269575b50613f5f8133613f8c565b806142796142859260025461274d565b600255610d3533614817565b3861425e565b82601f82116001146142a3575050555b81388061422c565b90918082526142c1601f60208420940160051c840160018501611e00565b555561429b565b6142d0613e9c565b6141e9565b6000818152602080805260408220549192909180156143b657600019908082018181116143a257601f549083820191821161438e5780820361435c575b505050601f5480156143485781019061432a82611e78565b909182549160031b1b19169055601f55825280526040812055600190565b634e487b7160e01b85526031600452602485fd5b61437a61436b611ee793611e78565b90549060031b1c928392611e78565b905585528380526040852055388080614312565b634e487b7160e01b87526011600452602487fd5b634e487b7160e01b86526011600452602486fd5b50505090565b8051821015611e625760209160051b010190565b81156121cf576001600160401b039081806007541691160390808211611adb57600091168152602090601d8252604090818120928251808583829754938481520190855283852092855b8582821061448a5750505061443192500385611888565b8351948515612ce257858110612ce25785900493825b8681106144575750505050505050565b6001906001600160a01b0361446c82856143bc565b51168552601c8452858520614482888254612683565b905501614447565b855484526001958601958a95509301920161441a565b918251916144ad8361192b565b936040946144bd86519182611888565b848152601f196144cc8661192b565b0194602095368784013760005b8181106145a357505060009461ffff8060115416600192839182945b614552575b505050505060ff60095460a01c1694858102958187041490151715611adb57606461452695049161461a565b9015614530575050565b6007811015611fa55760ff602492519163282ef1c160e01b8352166004820152fd5b90919293988a858b1683811161459b57600090815260138552205484939291869185916145919161458b906001600160a01b0316612f63565b90612683565b9b011694936144f5565b5050986144fa565b6001600160a01b03806145b683876143bc565b51166000526012885261ffff896000205416156145f657906145e56001926145de83886143bc565b5116612f63565b6145ef82866143bc565b52016144d9565b8890614604602493876143bc565b519151633b4f6e2b60e21b815291166004820152fd5b8451929460009490841561470257825185148015906146f7575b6146ea579392919085945b84861061466257505050505050101561465a57600090600690565b600190600090565b90919293949561467c61467588846143bc565b518461470f565b5061468681611f9b565b6146d9576001600160a01b038061469d8a886143bc565b51169116036146c9576146bd6001916146b689886143bc565b5190612683565b9601949392919061463f565b5050505050505050600090600490565b505050505050505050600090600590565b5050505050905090600190565b508351851415614634565b5050505050905090600290565b81519190604183036147405761473992506020820151906060604084015193015160001a9061474b565b9192909190565b505060009160029190565b91907f7fffffffffffffffffffffffffffffff5d576e7357a4501ddfe92f46681b20a084116147cf57926020929160ff608095604051948552168484015260408301526060820152600092839182805260015afa156147c35780516001600160a01b038116156147ba57918190565b50809160019190565b604051903d90823e3d90fd5b50505060009160039190565b906147e860418214613781565b806001116101375761480391369160001901906001016118c4565b80516020909101206001600160a01b031690565b60049081549160005b83811061482d5750505050565b61483681611e2b565b90546003916001600160a01b039190831b1c81168582161461485c575050600101614820565b9293509390600019918281019081116148e9579061488d846148806148ac94611e2b565b905490891b1c1691611e2b565b90919082549060031b9160018060a01b03809116831b921b1916179055565b825480156148d45701926148bf84611e2b565b81939154921b1b191690555538808080612022565b603184634e487b7160e01b6000525260246000fd5b601185634e487b7160e01b6000525260246000fdfe1c593a2b803c3f9038e8b6743ba79fbc4276d2770979a01d2768ed12bea3243fc451c9429c27db68f286ab8a68f311f1dccab703ba9423aed29cd397ae63f863691bb03ffc16c56fc96b82fd16cd1b3715f0bc3cdc6407005f49bb6205860095a2646970667358221220b68aaee150015024c69faa78b7c48584efcfffb59d5ca788338f30b44b75318f64736f6c63430008130033","linkReferences":{"src/lib/LibStaking.sol":{"LibStaking":[{"start":404,"length":20}]}}},"methodIdentifiers":{"addBootstrapNode(string)":"10fd4261","claim()":"4e71d92d","claimRewardForRelayer()":"ed7c4da1","distributeRewardToRelayers(uint64,uint256)":"f9002bb1","join(bytes)":"6170b162","kill()":"41c0e1b5","leave()":"d66d9e19","pause()":"8456cb59","paused()":"5c975abb","preFund()":"0b7fbe60","preRelease(uint256)":"66783c9b","setFederatedPower(address[],bytes[],uint256[])":"da5d09ee","stake()":"3a4b66f1","submitCheckpoint(((uint64,address[]),uint64,bytes32,uint64,bytes32),((((uint64,address[]),(uint8,bytes)),((uint64,address[]),(uint8,bytes)),uint256,uint64,bytes4,bytes,uint256),bool)[],address[],bytes[])":"a8284de3","unpause()":"3f4ba83a","unstake(uint256)":"2e17de78","validateActiveQuorumSignatures(address[],bytes32,bytes[])":"cc2dc2b9"},"id":76}