{"abi":[{"type":"function","name":"addBootstrapNode","inputs":[{"name":"netAddress","type":"string","internalType":"string"}],"outputs":[],"stateMutability":"nonpayable"},{"type":"function","name":"join","inputs":[{"name":"publicKey","type":"bytes","internalType":"bytes"}],"outputs":[],"stateMutability":"payable"},{"type":"function","name":"kill","inputs":[],"outputs":[],"stateMutability":"nonpayable"},{"type":"function","name":"leave","inputs":[],"outputs":[],"stateMutability":"nonpayable"},{"type":"function","name":"preFund","inputs":[],"outputs":[],"stateMutability":"payable"},{"type":"function","name":"preRelease","inputs":[{"name":"amount","type":"uint256","internalType":"uint256"}],"outputs":[],"stateMutability":"nonpayable"},{"type":"function","name":"setFederatedPower","inputs":[{"name":"validators","type":"address[]","internalType":"address[]"},{"name":"publicKeys","type":"bytes[]","internalType":"bytes[]"},{"name":"powers","type":"uint256[]","internalType":"uint256[]"}],"outputs":[],"stateMutability":"nonpayable"},{"type":"function","name":"stake","inputs":[],"outputs":[],"stateMutability":"payable"},{"type":"function","name":"unstake","inputs":[{"name":"amount","type":"uint256","internalType":"uint256"}],"outputs":[],"stateMutability":"nonpayable"},{"type":"event","name":"Paused","inputs":[{"name":"account","type":"address","indexed":false,"internalType":"address"}],"anonymous":false},{"type":"event","name":"Unpaused","inputs":[{"name":"account","type":"address","indexed":false,"internalType":"address"}],"anonymous":false},{"type":"error","name":"AddressInsufficientBalance","inputs":[{"name":"account","type":"address","internalType":"address"}]},{"type":"error","name":"AddressShouldBeValidator","inputs":[]},{"type":"error","name":"CannotReleaseZero","inputs":[]},{"type":"error","name":"CollateralIsZero","inputs":[]},{"type":"error","name":"DuplicatedGenesisValidator","inputs":[]},{"type":"error","name":"EmptyAddress","inputs":[]},{"type":"error","name":"EnforcedPause","inputs":[]},{"type":"error","name":"ExpectedPause","inputs":[]},{"type":"error","name":"FailedInnerCall","inputs":[]},{"type":"error","name":"InvalidFederationPayload","inputs":[]},{"type":"error","name":"InvalidPublicKeyLength","inputs":[]},{"type":"error","name":"MethodNotAllowed","inputs":[{"name":"reason","type":"string","internalType":"string"}]},{"type":"error","name":"NotAllValidatorsHaveLeft","inputs":[]},{"type":"error","name":"NotEnoughBalance","inputs":[]},{"type":"error","name":"NotEnoughCollateral","inputs":[]},{"type":"error","name":"NotEnoughFunds","inputs":[]},{"type":"error","name":"NotEnoughGenesisValidators","inputs":[]},{"type":"error","name":"NotOwner","inputs":[]},{"type":"error","name":"NotOwnerOfPublicKey","inputs":[]},{"type":"error","name":"NotValidator","inputs":[{"name":"","type":"address","internalType":"address"}]},{"type":"error","name":"PQDoesNotContainAddress","inputs":[]},{"type":"error","name":"PQEmpty","inputs":[]},{"type":"error","name":"ReentrancyError","inputs":[]},{"type":"error","name":"SubnetAlreadyBootstrapped","inputs":[]},{"type":"error","name":"SubnetAlreadyKilled","inputs":[]},{"type":"error","name":"WithdrawExceedingCollateral","inputs":[]}],"bytecode":{"object":"0x6080806040523461001657613926908161001c8239f35b600080fdfe608080604052600436101561001357600080fd5b600090813560e01c9081630b7fbe6014610ec55750806310fd426114610d4c5780632e17de7814610d1f5780633a4b66f114610c4357806341c0e1b514610b905780636170b1621461084d57806366783c9b1461075a578063d66d9e19146106eb5763da5d09ee1461008457600080fd5b346104ed5760603660031901126104ed576004356001600160401b0381116106e7576100b490369060040161104d565b6024356001600160401b0381116106e3576100d390369060040161104d565b9190926044356001600160401b0381116106df576100f590369060040161104d565b90926100ff6121ce565b7f806e0cbb9fce296bbc336a48f42bf1dbc69722d18d90d6fe705b7582c2bb4bd5546001600160a01b031633036106cd5760ff6013541660038110156106b95760010361068957818103610677578481036106775760125460081c60ff161561043457865b818110610175575050505050505080f35b61018961018382888a61133a565b90612171565b6001600160a01b036101a461019f84868961137b565b61138b565b166001600160a01b0390911603610422576101c361019f82848761137b565b9061020f6101d282898b61133a565b6101e084888b95949561137b565b356101fb6040519485936040602086015260608501916121ad565b90604083015203601f198101835282610fd5565b6001600160401b03601c54169060405161022881610f9f565b6003815281602082015260018060a01b038516604082015282600052601d60205260406000208151600481101561040c5760ff8019835416911617815560208201518051906001600160401b0382116103f6576102958261028c600186015461139f565b600186016113f0565b602090601f831160011461038357600293929160009183610378575b50508160011b916000199060031b1c19161760018201555b0190604060018060a01b03910151166001600160601b0360a01b8254161790556001600160401b03600183011161036257600193826001600160401b03866000805160206138918339815191529501166001600160401b0319601c541617601c5561035360405193849360038552888060a01b0316602085015260808060408601528401906112fa565b9060608301520390a101610164565b634e487b7160e01b600052601160045260246000fd5b0151905038806102b1565b906001840160005260206000209160005b601f19851681106103de575091839160019360029695601f198116106103c5575b505050811b0160018201556102c9565b015160001960f88460031b161c191690553880806103b5565b91926020600181928685015181550194019201610394565b634e487b7160e01b600052604160045260246000fd5b634e487b7160e01b600052602160045260246000fd5b604051634be9251d60e11b8152600490fd5b94909391865b868110610511575050505050506001600160401b03600c541610156104ff5761010061ff001960125416176012557f4914d88063275a25a13b2df37125e216745d812f94c56504be4bd78cf60c95936040518061049681611641565b0390a1600e5460025482916001600160a01b0316803b156104fb578290602460405180948193637903ab2760e11b83528160048401525af180156104f0576104dd57505080f35b6104e690610f8c565b6104ed5780f35b80fd5b6040513d84823e3d90fd5b5050fd5b60405163031480b160e51b8152600490fd5b61051f61018382868661133a565b6001600160a01b0361053561019f848b8761137b565b166001600160a01b03909116036104225761055461019f82898561137b565b600060ff6013541660038110156106635760010361064457506001600160a01b03166000908152601560205260409020545b61063257806105af61059e61019f6001948b8761137b565b6105a983888861133a565b91612076565b6105d26105c061019f838b8761137b565b6105cb838a8a61137b565b359061173d565b61062c6105e361019f838b8761137b565b6106226105f1848b8b61137b565b35916105fe858a8a61133a565b90916040519461060d86610f9f565b8552878060a01b031660208501523691611011565b6040820152611437565b0161043a565b604051630472b35360e41b8152600490fd5b6001600160a01b03909116815260156020526040902060010154610586565b634e487b7160e01b82526021600452602482fd5b604051637e65935960e01b8152600490fd5b6106b561069461127d565b60405163015538b160e01b81526020600482015291829160248301906112fa565b0390fd5b634e487b7160e01b88526021600452602488fd5b6040516330cd747160e01b8152600490fd5b8580fd5b8380fd5b5080fd5b50346104ed57806003193601126104ed577f691bb03ffc16c56fc96b82fd16cd1b3715f0bc3cdc6407005f49bb6205860095600181541461074857806001839255610734612dab565b61073c6121ce565b610744613647565b5580f35b6040516329f745a760e01b8152600490fd5b50346104ed5760203660031901126104ed576004357f691bb03ffc16c56fc96b82fd16cd1b3715f0bc3cdc6407005f49bb620586009560018154146107485760018155811561083b5760ff60125460081c16610829573383526003602052816040842054106108175761074483923384526003602052604084206107df82825461110e565b90556107ed8160025461110e565b6002553384526003602052604084205415610809575b3361111b565b61081233611195565b610803565b60405163569d45cf60e11b8152600490fd5b604051631b39f2f360e11b8152600490fd5b604051631036b5ad60e31b8152600490fd5b506020806003193601126106e7576001600160401b03906004358281116106e357366023820112156106e357806004013590838211610b8c5760248101906024833692010111610b8c576001937f691bb03ffc16c56fc96b82fd16cd1b3715f0bc3cdc6407005f49bb62058600959385855414610748578585556108cf612dab565b6108d76121ce565b60ff60125460081c169586610b7f575b3415610b6d5733600090815260156020526040902060020154610af95760418503610ae7576001600160a01b039033826109218888612171565b160361042257889761094e57505050509061093c9133612076565b6109463433612de8565b6107446131a9565b90919294939650610960368589611011565b85601c54169260405161097281610f9f565b60028152858101928352604081019233845285600052601d875260406000209151600481101561040c5760ff8019845416911617825584820190518051908a82116103f6576109cb826109c5855461139f565b856113f0565b8890601f8311600114610a7f5760029493929160009183610a74575b5050600019600383901b1c191690871b1790555b019151166001600160601b0360a01b825416179055810184811161036257879660008051602061389183398151915295610a6192166001600160401b0319601c541617601c556040519485946002865233908601526080604086015260808501916121ad565b9060608301520390a16107443433612f78565b0151905038806109e7565b9392918791601f19821690846000528b6000209160005b8d828210610ad1575050968360029810610ab8575b505050811b0190556109fb565b015160001960f88460031b161c19169055388080610aab565b838a015185558c96909401939283019201610a96565b6040516318dca5e960e21b8152600490fd5b5060405190610b0782610f9f565b603282527f4d6574686f64206e6f7420616c6c6f7765642069662076616c696461746f722081830152711a185cc8185b1c9958591e481a9bda5b995960721b60408301526106b560405192839263015538b160e01b8452600484015260248301906112fa565b604051635a78c58160e11b8152600490fd5b610b87613194565b6108e7565b8480fd5b50346104ed57806003193601126104ed57610ba96121ce565b61ffff8060195416816016541601818111610c2f5716610c1d576012805462ff0000191662010000179055600e5481906001600160a01b0316803b15610c1a5781906004604051809481936341c0e1b560e01b83525af180156104f057610c0e575080f35b610c1790610f8c565b80f35b50fd5b604051636b62255160e11b8152600490fd5b634e487b7160e01b83526011600452602483fd5b50806003193601126104ed57610c57612dab565b610c5f6121ce565b610c67613194565b3415610b6d573360009081526015602052604090206002015415610cae5760125460081c60ff16610ca457610c9c3433612de8565b610c176131a9565b610c173433612f78565b6106b5604051610cbd81610f9f565b602e81527f4d6574686f64206e6f7420616c6c6f7765642069662076616c696461746f722060208201526d1a185cc81b9bdd081a9bda5b995960921b604082015260405191829163015538b160e01b83526020600484015260248301906112fa565b50346104ed5760203660031901126104ed57610d39612dab565b610d416121ce565b610c17600435613275565b50346104ed57602090816003193601126104ed576001600160401b0391600435838111610ec15736602382011215610ec157610d92903690602481600401359101611011565b92610d9b612dab565b3383526017825261ffff60408420541615610ea957835115610e97573383526024825260408320918451918211610e8357610dda826109c5855461139f565b80601f8311600114610e1f5750839482939492610e14575b50508160011b916000199060031b1c19161790555b610e103361383e565b5080f35b015190503880610df2565b90601f198316958486528286209286905b888210610e6b57505083600195969710610e52575b505050811b019055610e07565b015160001960f88460031b161c19169055388080610e45565b80600185968294968601518155019501930190610e30565b634e487b7160e01b84526041600452602484fd5b604051637138356f60e01b8152600490fd5b604051633b4f6e2b60e21b8152336004820152602490fd5b8280fd5b9050816003193601126106e7573415610f7d575060ff60125460081c16610829573381526003602052604081205415610f24575b338152600360205260408120610f10348254611101565b9055610f1e34600254611101565b60025580f35b600454600160401b811015610f6957610f46816001610f64930160045561107d565b81546001600160a01b0360039290921b91821b19163390911b179055565b610ef9565b634e487b7160e01b82526041600452602482fd5b631036b5ad60e31b8152600490fd5b6001600160401b0381116103f657604052565b606081019081106001600160401b038211176103f657604052565b604081019081106001600160401b038211176103f657604052565b90601f801991011681019081106001600160401b038211176103f657604052565b6001600160401b0381116103f657601f01601f191660200190565b92919261101d82610ff6565b9161102b6040519384610fd5565b829481845281830111611048578281602093846000960137010152565b600080fd5b9181601f84011215611048578235916001600160401b038311611048576020808501948460051b01011161104857565b6004548110156110b45760046000527f8a35acfbc15ff81a39ae7d344fd709f28e8600b4aa8c65c6b64bfe7fe36bd19b0190600090565b634e487b7160e01b600052603260045260246000fd5b6025548110156110b45760256000527f401968ff42a154441da5f6c4c935ac46b8671f0e062baaa62a7545ba53bb6e4c0190600090565b9190820180921161036257565b9190820391821161036257565b81471061117d576000918291829182916001600160a01b03165af13d15611178573d61114681610ff6565b906111546040519283610fd5565b8152600060203d92013e5b1561116657565b604051630a12f52160e11b8152600490fd5b61115f565b60405163cd78605960e01b8152306004820152602490fd5b60049081549160005b8381106111ac575b50505050565b6111b58161107d565b90546003916001600160a01b039190831b1c8116858216146111db57505060010161119e565b929350939060001991828101908111611268579061120c846111ff61122b9461107d565b905490891b1c169161107d565b90919082549060031b9160018060a01b03809116831b921b1916179055565b8254801561125357019261123e8461107d565b81939154921b1b1916905555388080806111a6565b603184634e487b7160e01b6000525260246000fd5b601185634e487b7160e01b6000525260246000fd5b60405190608082018281106001600160401b038211176103f6576040526045825264185c1c195960da1b6060837f4d6574686f64206e6f7420616c6c6f776564206966207065726d697373696f6e60208201527f656420697320656e61626c656420616e64207375626e657420626f6f7473747260408201520152565b919082519283825260005b848110611326575050826000602080949584010152601f8019910116010190565b602081830181015184830182015201611305565b91908110156110b45760051b81013590601e19813603018212156110485701908135916001600160401b038311611048576020018236038113611048579190565b91908110156110b45760051b0190565b356001600160a01b03811681036110485790565b90600182811c921680156113cf575b60208310146113b957565b634e487b7160e01b600052602260045260246000fd5b91607f16916113ae565b8181106113e4575050565b600081556001016113d9565b9190601f81116113ff57505050565b61142b926000526020600020906020601f840160051c8301931061142d575b601f0160051c01906113d9565b565b909150819061141e565b60018054600160401b8110156103f6578181018083558110156110b457600360009183835202918351837fb10e2d527612073b26eecdfd717e6a320cf44b4afac2b0732d9fcbe2b7fa0cf6015560407fb10e2d527612073b26eecdfd717e6a320cf44b4afac2b0732d9fcbe2b7fa0cf87fb10e2d527612073b26eecdfd717e6a320cf44b4afac2b0732d9fcbe2b7fa0cf785019460209560018060a01b0387890151166001600160601b0360a01b82541617905501940151918251926001600160401b038411610f69576115158461150f885461139f565b886113f0565b8491601f851160011461154d579394508492919083611542575b50501b916000199060031b1c1916179055565b01519250388061152f565b86815285812093958591601f198316915b888383106115925750505010611579575b505050811b019055565b015160001960f88460031b161c1916905538808061156f565b85870151885590960195948501948793509081019061155e565b90600092918054916115bd8361139f565b91828252600193848116908160001461161e57506001146115de5750505050565b90919394506000526020928360002092846000945b83861061160a5750505050010190388080806111a6565b8054858701830152940193859082016115f3565b9294505050602093945060ff191683830152151560051b010190388080806111a6565b6020808201818352600190815480915260409283850194848360051b82010195846000527fb10e2d527612073b26eecdfd717e6a320cf44b4afac2b0732d9fcbe2b7fa0cf6956000925b85841061169d57505050505050505090565b9091929394958560036116dc839a9b603f198682030188528c5481528c8560018060a01b03910154168482015260609081888201520160028d016115ac565b9a01940194019296959493919061168b565b60ff60135416600381101561040c5760010361171f576001600160a01b031660009081526015602052604090205490565b6001600160a01b031660009081526015602052604090206001015490565b9060018060a01b03821660005260156020526040600020818154915581811460001461176857505050565b8111156117785761142b91611a91565b61142b91611f69565b919060018060a01b03928381166000948186526020916017835261ffff916040978389822054166119a0578360135460081c1684601654161061196c576117c6612b87565b60019283825260188652828a83205416886117e0826116ee565b106118e657508152601a855283898220541661184f57505050505061184a7f19fe3ca603e87854a0747cc10abf06bac64d61bac73d6d15f2fd3ca448f15264939461182a83612202565b516001600160a01b03909216825260208201929092529081906040820190565b0390a1565b61185886612bda565b92611862876116ee565b935b81868216116118a8575b505097516001600160a01b0390951685525050505060208101919091529091506000805160206138d183398151915290806040810161184a565b80856118c786617fff8f95871c1694858852601b8c52872054166116ee565b10156118e057906118d9839282612d1c565b9050611864565b5061186e565b969750899493507ffaeb8de771b867cf357f6b459a7002b62ec45d544a8078a3ecd91200cc826d759899925061184a95601a91611921612761565b83525220541661195e575b611935846126f2565b61193e83612202565b516001600160a01b03928316815292909116602083015281906040820190565b611967846123ec565b61192c565b505050505061184a7f2e8038f5812f763c6ef0c5427cb5a05ce6d7064af2ba7d1d270bc02660b019fd939461182a836126f2565b979291506119b18594979695612ba3565b976119bb856116ee565b976119c58a6125e7565b8460165416905b858116828111611a6c5782811015611a505750806119ec6119f2926121ef565b90612b37565b9b909b5b8b1115611a1557611a07908c612c83565b611a108b6125e7565b6119cc565b505093516001600160a01b0390951685525050505060208101919091529092506000805160206138b18339815191529150806040810161184a565b849c919c5260188352611a678588862054166116ee565b6119f6565b5050505050505061184a91929395506000805160206138b1833981519152945061182a565b6001600160a01b03808216600081815260176020526040808220549095949361ffff93918416611be5578360135460081c16846016541610611bb357611ad5612b87565b600183526018602052868320541685611aed826116ee565b10611b5f57508152601a6020528490205416611b315761184a7f19fe3ca603e87854a0747cc10abf06bac64d61bac73d6d15f2fd3ca448f152649361182a83612202565b61184a6000805160206138d18339815191529361182a611b5084612bda565b611b59856116ee565b90612592565b93945091857ffaeb8de771b867cf357f6b459a7002b62ec45d544a8078a3ecd91200cc826d75969261184a94611b93612761565b8152601a602052205416611baa57611935846126f2565b6119678461247b565b5050505061184a7f2e8038f5812f763c6ef0c5427cb5a05ce6d7064af2ba7d1d270bc02660b019fd9361182a836126f2565b5050505061184a6000805160206138b18339815191529361182a611c0884612ba3565b611c11856116ee565b90612aa4565b909160018060a01b0392838316906000938285526020601a815261ffff95604094878683205416611e3f578082526017835287868320541615611e2e578415611d865750611c6483612ba3565b97611c6e846116ee565b985b6001808a83161115611d775781617fff911c1690818452601885528a611c9a848a872054166116ee565b1115611caf57611caa9082612c83565b611c70565b505091939597509193955b6019541615611d6f57611ccb612b87565b60018252601883528581818420541692601b611ce6856116ee565b95611cef612b95565b600183525220541691611d01836116ee565b11611d3657505091516001600160a01b03909216825260208201526000805160206138b183398151915290806040810161184a565b9150915061184a7ffaeb8de771b867cf357f6b459a7002b62ec45d544a8078a3ecd91200cc826d7593611d67612761565b61192c612285565b505050505050565b50509193959750919395611cba565b829450611dba7f4a4c5d1a281180eea1e99d8177fa4798b9f7e019d5c57e7d8d73c6a22199aa5b93929894999697996128aa565b8651908152a160195416611dce5750505050565b7f2e8038f5812f763c6ef0c5427cb5a05ce6d7064af2ba7d1d270bc02660b019fd93601b8492611dfc612b95565b6001835252205416611e22611e10826116ee565b92611e19612285565b61182a836126f2565b0390a1388080806111a6565b8551632a55ca5360e01b8152600490fd5b84969792939598919415611f2e575061fffe9193611e5c86612bda565b93611e66876116ee565b9480966001958692831b168160195416925b611eba575b505099516001600160a01b039097168752505050506020830193909352509192506000805160206138d1833981519152919050806040810161184a565b818116838111611f28578d9084811015611f0c57505080611edd611ee3926121ef565b9061269a565b9890985b881015611f0757611ef89089612d1c565b611f01886125e7565b86611e78565b611e7d565b8652601b8552852054909890611f239087166116ee565b611ee7565b50611e7d565b94915050611f629194507f3168ba660eed6ef1dc2258b2247cc05fd0f2f350d39e6ad2e2ebc76a8000b40b959692506123ec565b51908152a1565b6001600160a01b038082166000818152601a602090815260408083205490969594919361ffff91821661200c578084526017855281888520541615611ffb578615611fca5750611cba611fbb86612ba3565b611fc4876116ee565b90612a55565b849193979650611dba7f4a4c5d1a281180eea1e99d8177fa4798b9f7e019d5c57e7d8d73c6a22199aa5b9396612935565b8751632a55ca5360e01b8152600490fd5b969392505050831561204957506000805160206138d1833981519152935061184a9061182a61203a84612bda565b612043856116ee565b906125fe565b9250611f627f3168ba660eed6ef1dc2258b2247cc05fd0f2f350d39e6ad2e2ebc76a8000b40b949261247b565b6001600160a01b0316600090815260156020526040902090929190600301906001600160401b0381116103f6576120b7816120b1845461139f565b846113f0565b6000601f82116001146120f157819293946000926120e6575b50508160011b916000199060031b1c1916179055565b0135905038806120d0565b601f198216948382526020918281209281905b88821061213c5750508360019596971061212257505050811b019055565b0135600019600384901b60f8161c1916905538808061156f565b80600184968294958701358155019501920190612104565b1561215b57565b634e487b7160e01b600052600160045260246000fd5b9061217e60418214612154565b80600111611048576121999136916000190190600101611011565b80516020909101206001600160a01b031690565b908060209392818452848401376000828201840152601f01601f1916010190565b60ff60125460101c166121dd57565b60405163248c8efb60e11b8152600490fd5b90600161ffff8093160191821161036257565b61142b90611b5961ffff9161221a83601954166121ef565b9260018060a01b0382169081600052601a60205260406000209085169161ffff1991838382541617905582600052601b6020526040600020906001600160601b0360a01b82541617905560195416176019556116ee565b61ffff908116600019019190821161036257565b61ffff80601954169081156123da57906001906122a481831115612154565b6000828152601b60208181526040808420805486865282862080546001600160a01b03928316808952601a8752858920805461ffff199081168c17909155918416808a52868a20805484168d17905588885283546001600160a01b03199081169092179093558a89528454169091179092559295879593949293929161233e91908a61232f83612271565b16906019541617601955612bff565b8482528086526123528484842054166116ee565b95859860028160195416995b612370575b5050505050505050505050565b8181168a81116123d4578a8110156123b9575080611edd612390926121ef565b9a909a5b8910156123b4576123a5908b612d1c565b6123ae8a6125e7565b8761235e565b612363565b859b919b528383526123cf8787872054166116ee565b612394565b50612363565b6040516340d9b01160e01b8152600490fd5b6123f590612bda565b61ffff908160195416916124098383612d1c565b8061241384612271565b1661ffff19601954161760195561242983612bff565b8116809214612477576120438261142b93600052601b60205260018060a01b039061246361245d83604060002054166116ee565b85612592565b600052601b602052604060002054166116ee565b5050565b61248490612bda565b61ffff908160195416916124988383612d1c565b806124a284612271565b1661ffff1960195416176019556124b883612bff565b80821680931461258d579161fffe91600091808352601b9060209382855260018060a01b03926040926124f86124f28686862054166116ee565b87612592565b825280865261250b8484842054166116ee565b9585986001988997881b168160195416995b61252e575050505050505050505050565b8181168a81116123d4578a811015612572575080611edd61254e926121ef565b9a909a5b8910156123b457612563908b612d1c565b61256c8a6125e7565b8761251d565b859b919b528383526125888787872054166116ee565b612552565b505050565b9190915b60018061ffff831611156125e15781617fff911c1690836125cc6000848152601b602052604060018060a01b03912054166116ee565b10156125e1576125dc9082612d1c565b612596565b50509050565b60011b906201fffe61fffe83169216820361036257565b90600161fffe83821b168160009161ffff908160195416925b612625575b50505050505050565b818116838111612694578381101561266e575080611edd612645926121ef565b9690965b8610156126695761265a9087612d1c565b612663866125e7565b84612617565b61261c565b8452601b602052604084205490969061268f906001600160a01b03166116ee565b612649565b5061261c565b91909161ffff92838216600052601b6020526126dd60018060a01b036126c681604060002054166116ee565b958316600052601b602052604060002054166116ee565b908185106126eb5750509190565b9350919050565b61142b90611fc461ffff9161270a83601654166121ef565b9260018060a01b0382169081600052601760205260406000209085169161ffff199183838254161790558260005260186020526040600020906001600160601b0360a01b82541617905560165416176016556116ee565b61ffff80601654169081156123da579060019061278081831115612154565b6000828152601860208181526040808420805486865282862080546001600160a01b0392831680895260178752858920805461ffff199081168c17909155918416808a52868a20805484168d17905588885283546001600160a01b03199081169092179093558a89528454169091179092559295879593949293929161281a91908a61280b83612271565b16906016541617601655612c41565b84825280865261282e8484842054166116ee565b95859860028160165416995b61284b575050505050505050505050565b8181168a81116123d4578a81101561288f5750806119ec61286b926121ef565b9a909a5b8911156123b457612880908b612c83565b6128898a6125e7565b8761283a565b859b919b528383526128a58787872054166116ee565b61286f565b6128b390612ba3565b61ffff908160165416916128c78383612c83565b806128d184612271565b1661ffff1960165416176016556128e783612c41565b811680921461247757611c118261142b93600052601860205260018060a01b039061292161291b83604060002054166116ee565b85612a55565b6000526018602052604060002054166116ee565b61293e90612ba3565b9061ffff908160165416906129538285612c83565b8261295d83612271565b1661ffff19601654161760165561297382612c41565b828416809214612a4f5760009291929183835260189260209484865260018060a01b03916040916129b16129ab8585852054166116ee565b8a612a55565b81528587526129c48383832054166116ee565b956129ce896125e7565b978560165416985b8681168a8111612a41578a811015612a265750806119ec6129f6926121ef565b9a909a5b891115612a1957612a0b908b612c83565b612a148a6125e7565b6129d6565b5050505050505092505050565b849b919b52828252612a3c8686862054166116ee565b6129fa565b505050505050505092505050565b92505050565b9190915b60018061ffff831611156125e15781617fff911c169083612a8f60008481526018602052604060018060a01b03912054166116ee565b11156125e157612a9f9082612c83565b612a59565b91612aae836125e7565b600061ffff918260165416905b838116828111612b2d5782811015612b075750806119ec612adb926121ef565b9690965b861115612afe57612af09087612c83565b612af9866125e7565b612abb565b50505050915050565b835260186020526040832054909690612b28906001600160a01b03166116ee565b612adf565b5050505050915050565b919061ffff8084166000526018602052612b7860018060a01b03612b6181604060002054166116ee565b9284166000526018602052604060002054166116ee565b93848211156126eb5750509190565b61ffff60165416156123da57565b61ffff60195416156123da57565b6001600160a01b031660009081526017602052604090205461ffff16908115612bc857565b60405163f2755e3760e01b8152600490fd5b6001600160a01b03166000908152601a602052604090205461ffff16908115612bc857565b61ffff166000908152601b6020908152604080832080546001600160a01b031981169091556001600160a01b03168352601a9091529020805461ffff19169055565b61ffff16600090815260186020908152604080832080546001600160a01b031981169091556001600160a01b0316835260179091529020805461ffff19169055565b612ca861ffff808060165416931693612c9e84861115612154565b1691821115612154565b6000828152601860208181526040808420805486865282862080546001600160a01b0392831680895260178752858920805461ffff19908116909b1790559216808852938720805490981689179097559390925284546001600160a01b031990811690931790945593909152825416179055565b612d3761ffff808060195416931693612c9e84861115612154565b6000828152601b60208181526040808420805486865282862080546001600160a01b03928316808952601a8752858920805461ffff19908116909b1790559216808852938720805490981689179097559390925284546001600160a01b031990811690931790945593909152825416179055565b60ff7fc451c9429c27db68f286ab8a68f311f1dccab703ba9423aed29cd397ae63f8635416612dd657565b60405163d93c066560e01b8152600490fd5b612df28282612f51565b612e55600192612e4c612e238286612e1c8760018060a01b03166000526015602052604060002090565b0154611101565b918286612e428760018060a01b03166000526015602052604060002090565b0155601454611101565b60145582611781565b60ff60125460081c1615612e67575050565b60008083549084815b838110612eff575b5050505015612e85575050565b612ef861062261142b93612eab8460018060a01b03166000526015602052604060002090565b0154926003612ecc8260018060a01b03166000526015602052604060002090565b019060405194612edb86610f9f565b85526001600160a01b0316602085015260405192839182906115ac565b0382610fd5565b818352600381027fb10e2d527612073b26eecdfd717e6a320cf44b4afac2b0732d9fcbe2b7fa0cf701546001600160a01b03878116911614612f4357018590612e70565b509250505038808481612e78565b60018060a01b03166000526015602052612f746002604060002001918254611101565b9055565b91906040519281602085015260208452612f9184610fba565b6001600160401b03601c54169360405194612fab86610f9f565b600095868152602081019083825260018060a01b0385166040820152828852601d6020526040882091815160048110156131805760ff80198554169116178355519182516001600160401b03811161316c57600193613018826130108786015461139f565b8786016113f0565b602090601f83116001146131015760029392918c91836130f6575b5050600019600383901b1c191690851b17818501555b0190604060018060a01b03910151166001600160601b0360a01b82541617905581016001600160401b0381116130e2579560008051602061389183398151915292916001600160401b0361142b9798166001600160401b0319601c541617601c556130d4604051938493845260018060a01b03871660208501526080604085015260808401906112fa565b9060608301520390a1612f51565b634e487b7160e01b87526011600452602487fd5b015190503880613033565b929185918284018d5260208d20908d5b601f1984168110613154575060029583601f1981161061313b575b505050811b0184820155613049565b015160001960f88460031b161c1916905538808061312c565b81870151835588949092019160209182019101613111565b634e487b7160e01b8a52604160045260248afd5b634e487b7160e01b8a52602160045260248afd5b60ff60135416600381101561040c5761068957565b601454600a548110156131ba575b50565b61ffff601654166001600160401b03600c541611156131d65750565b61010061ff001960125416176012557f4914d88063275a25a13b2df37125e216745d812f94c56504be4bd78cf60c95936040518061321381611641565b0390a160018060a01b03600e54169061322f6002548092611101565b91803b156110485760246000926040519485938492637903ab2760e11b845260048401525af1801561326957156131b75761142b90610f8c565b6040513d6000823e3d90fd5b61327d613194565b80156132d657336000908152601560205260409020600201548015610ea9578110156132c55760ff60125460081c16156132bb5761142b903361346e565b61142b90336132e8565b60405162d11df360e61b8152600490fd5b60405163c79cad7b60e01b8152600490fd5b9061142b916132f7828261341b565b61339561332383600161331c8560018060a01b03166000526015602052604060002090565b015461110e565b6001600160a01b03831660009081526015602052604090206002015481159081613412575b50156133ef576001600160a01b0383166000908152601560205260409020600360009182815582600182015582600282015501613385815461139f565b806133b2575b5050505b82611c17565b6133a18260145461110e565b6014556001600160a01b031661111b565b82601f82116001146133ca575050555b38808061338b565b90918082526133e8601f60208420940160051c8401600185016113d9565b55556133c2565b6001600160a01b038316600090815260156020526040902081906001015561338f565b90501538613348565b6001600160a01b0316600081815260156020526040902060020154909180821061345c576134489161110e565b906000526015602052600260406000200155565b60405163ac69360360e01b8152600490fd5b90604051918160208401526020835261348683610fba565b6001600160401b03601c541692604051906134a082610f9f565b600182526020820191818352604081019060018060a01b0385169384835287600052601d60205260406000209151600481101561040c5760ff80198454169116178255518051906001600160401b0382116103f6576135068261028c600186015461139f565b602090601f83116001146135d4576002939291600091836135c9575b50508160011b916000199060031b1c19161760018201555b019060018060a01b039051166001600160601b0360a01b82541617905560018501916001600160401b0383116103625761142b956001600160401b0360008051602061389183398151915294166001600160401b0319601c541617601c556135bb6040519384936001855260208501526080604085015260808401906112fa565b9060608301520390a161341b565b015190503880613522565b906001840160005260206000209160005b601f198516811061362f575091839160019360029695601f19811610613616575b505050811b01600182015561353a565b015160001960f88460031b161c19169055388080613606565b919260206001819286850151815501940192016135e5565b60ff60125460081c16613730575b336000908152601560205260409020600201548015610ea9576136773361373d565b5060009033825260246020528160408120613692815461139f565b806136f3575b50505060ff60125460081c16156136b45761142b91503361346e565b604061142b9233815260036020522054806136d1575b50336132e8565b806136e16136ed9260025461110e565b60025561080333611195565b386136ca565b82601f821160011461370b575050555b813880613698565b9091808252613729601f60208420940160051c8401600185016113d9565b5555613703565b613738613194565b613655565b600081815260266020526040812054909190801561383957600019908082018181116138255760255490838201918211613811578082036137c6575b50505060255480156137b257810190613791826110ca565b909182549160031b1b19169055602555815260266020526040812055600190565b634e487b7160e01b84526031600452602484fd5b6137fb6137d56137e4936110ca565b90549060031b1c9283926110ca565b819391549060031b91821b91600019901b19161790565b9055845260266020526040842055388080613779565b634e487b7160e01b86526011600452602486fd5b634e487b7160e01b85526011600452602485fd5b505090565b60008181526026602052604081205461388b57602554600160401b811015610f695790826138776137e4846001604096016025556110ca565b905560255492815260266020522055600190565b90509056fe1c593a2b803c3f9038e8b6743ba79fbc4276d2770979a01d2768ed12bea3243f143db27bc2036653dc6f962ff9d0b803163d4af50c256ca9e6927b3d6dcd0197da148fac2e1063174be7bc0895576bdaba90fd14e575463fa26a967cb895cadda264697066735822122083f27a7a77250915921f99077b478e87411ad3c8f0a1e4a71f87e5481ace8fde64736f6c63430008130033","linkReferences":{}},"methodIdentifiers":{"addBootstrapNode(string)":"10fd4261","join(bytes)":"6170b162","kill()":"41c0e1b5","leave()":"d66d9e19","preFund()":"0b7fbe60","preRelease(uint256)":"66783c9b","setFederatedPower(address[],bytes[],uint256[])":"da5d09ee","stake()":"3a4b66f1","unstake(uint256)":"2e17de78"},"id":86}