{"abi":[{"type":"function","name":"addBootstrapNode","inputs":[{"name":"netAddress","type":"string","internalType":"string"}],"outputs":[],"stateMutability":"nonpayable"},{"type":"function","name":"claim","inputs":[],"outputs":[],"stateMutability":"nonpayable"},{"type":"function","name":"claimRewardForRelayer","inputs":[],"outputs":[],"stateMutability":"nonpayable"},{"type":"function","name":"distributeRewardToRelayers","inputs":[{"name":"height","type":"uint64","internalType":"uint64"},{"name":"reward","type":"uint256","internalType":"uint256"}],"outputs":[],"stateMutability":"payable"},{"type":"function","name":"join","inputs":[{"name":"publicKey","type":"bytes","internalType":"bytes"}],"outputs":[],"stateMutability":"payable"},{"type":"function","name":"kill","inputs":[],"outputs":[],"stateMutability":"nonpayable"},{"type":"function","name":"leave","inputs":[],"outputs":[],"stateMutability":"nonpayable"},{"type":"function","name":"preFund","inputs":[],"outputs":[],"stateMutability":"payable"},{"type":"function","name":"preRelease","inputs":[{"name":"amount","type":"uint256","internalType":"uint256"}],"outputs":[],"stateMutability":"nonpayable"},{"type":"function","name":"setFederatedPower","inputs":[{"name":"validators","type":"address[]","internalType":"address[]"},{"name":"publicKeys","type":"bytes[]","internalType":"bytes[]"},{"name":"powers","type":"uint256[]","internalType":"uint256[]"}],"outputs":[],"stateMutability":"nonpayable"},{"type":"function","name":"stake","inputs":[],"outputs":[],"stateMutability":"payable"},{"type":"function","name":"submitCheckpoint","inputs":[{"name":"checkpoint","type":"tuple","internalType":"struct BottomUpCheckpoint","components":[{"name":"subnetID","type":"tuple","internalType":"struct SubnetID","components":[{"name":"root","type":"uint64","internalType":"uint64"},{"name":"route","type":"address[]","internalType":"address[]"}]},{"name":"blockHeight","type":"uint64","internalType":"uint64"},{"name":"blockHash","type":"bytes32","internalType":"bytes32"},{"name":"nextConfigurationNumber","type":"uint64","internalType":"uint64"},{"name":"crossMessagesHash","type":"bytes32","internalType":"bytes32"}]},{"name":"messages","type":"tuple[]","internalType":"struct CrossMsg[]","components":[{"name":"message","type":"tuple","internalType":"struct StorableMsg","components":[{"name":"from","type":"tuple","internalType":"struct IPCAddress","components":[{"name":"subnetId","type":"tuple","internalType":"struct SubnetID","components":[{"name":"root","type":"uint64","internalType":"uint64"},{"name":"route","type":"address[]","internalType":"address[]"}]},{"name":"rawAddress","type":"tuple","internalType":"struct FvmAddress","components":[{"name":"addrType","type":"uint8","internalType":"uint8"},{"name":"payload","type":"bytes","internalType":"bytes"}]}]},{"name":"to","type":"tuple","internalType":"struct IPCAddress","components":[{"name":"subnetId","type":"tuple","internalType":"struct SubnetID","components":[{"name":"root","type":"uint64","internalType":"uint64"},{"name":"route","type":"address[]","internalType":"address[]"}]},{"name":"rawAddress","type":"tuple","internalType":"struct FvmAddress","components":[{"name":"addrType","type":"uint8","internalType":"uint8"},{"name":"payload","type":"bytes","internalType":"bytes"}]}]},{"name":"value","type":"uint256","internalType":"uint256"},{"name":"nonce","type":"uint64","internalType":"uint64"},{"name":"method","type":"bytes4","internalType":"bytes4"},{"name":"params","type":"bytes","internalType":"bytes"},{"name":"fee","type":"uint256","internalType":"uint256"}]},{"name":"wrapped","type":"bool","internalType":"bool"}]},{"name":"signatories","type":"address[]","internalType":"address[]"},{"name":"signatures","type":"bytes[]","internalType":"bytes[]"}],"outputs":[],"stateMutability":"nonpayable"},{"type":"function","name":"unstake","inputs":[{"name":"amount","type":"uint256","internalType":"uint256"}],"outputs":[],"stateMutability":"nonpayable"},{"type":"function","name":"validateActiveQuorumSignatures","inputs":[{"name":"signatories","type":"address[]","internalType":"address[]"},{"name":"hash","type":"bytes32","internalType":"bytes32"},{"name":"signatures","type":"bytes[]","internalType":"bytes[]"}],"outputs":[],"stateMutability":"view"},{"type":"event","name":"BottomUpCheckpointExecuted","inputs":[{"name":"epoch","type":"uint64","indexed":false,"internalType":"uint64"},{"name":"submitter","type":"address","indexed":false,"internalType":"address"}],"anonymous":false},{"type":"event","name":"BottomUpCheckpointSubmitted","inputs":[{"name":"checkpoint","type":"tuple","indexed":false,"internalType":"struct BottomUpCheckpoint","components":[{"name":"subnetID","type":"tuple","internalType":"struct SubnetID","components":[{"name":"root","type":"uint64","internalType":"uint64"},{"name":"route","type":"address[]","internalType":"address[]"}]},{"name":"blockHeight","type":"uint64","internalType":"uint64"},{"name":"blockHash","type":"bytes32","internalType":"bytes32"},{"name":"nextConfigurationNumber","type":"uint64","internalType":"uint64"},{"name":"crossMessagesHash","type":"bytes32","internalType":"bytes32"}]},{"name":"submitter","type":"address","indexed":false,"internalType":"address"}],"anonymous":false},{"type":"event","name":"NextBottomUpCheckpointExecuted","inputs":[{"name":"epoch","type":"uint64","indexed":false,"internalType":"uint64"},{"name":"submitter","type":"address","indexed":false,"internalType":"address"}],"anonymous":false},{"type":"event","name":"SubnetBootstrapped","inputs":[{"name":"","type":"tuple[]","indexed":false,"internalType":"struct Validator[]","components":[{"name":"weight","type":"uint256","internalType":"uint256"},{"name":"addr","type":"address","internalType":"address"},{"name":"metadata","type":"bytes","internalType":"bytes"}]}],"anonymous":false},{"type":"error","name":"AddressInsufficientBalance","inputs":[{"name":"account","type":"address","internalType":"address"}]},{"type":"error","name":"AddressShouldBeValidator","inputs":[]},{"type":"error","name":"CannotConfirmFutureChanges","inputs":[]},{"type":"error","name":"CannotReleaseZero","inputs":[]},{"type":"error","name":"CollateralIsZero","inputs":[]},{"type":"error","name":"EmptyAddress","inputs":[]},{"type":"error","name":"FailedInnerCall","inputs":[]},{"type":"error","name":"InvalidCheckpointEpoch","inputs":[]},{"type":"error","name":"InvalidCheckpointMessagesHash","inputs":[]},{"type":"error","name":"InvalidFederationPayload","inputs":[]},{"type":"error","name":"InvalidPublicKeyLength","inputs":[]},{"type":"error","name":"InvalidSignatureErr","inputs":[{"name":"","type":"uint8","internalType":"uint8"}]},{"type":"error","name":"MethodNotAllowed","inputs":[{"name":"reason","type":"string","internalType":"string"}]},{"type":"error","name":"NoCollateralToWithdraw","inputs":[]},{"type":"error","name":"NotAllValidatorsHaveLeft","inputs":[]},{"type":"error","name":"NotEnoughBalance","inputs":[]},{"type":"error","name":"NotEnoughCollateral","inputs":[]},{"type":"error","name":"NotEnoughFunds","inputs":[]},{"type":"error","name":"NotGateway","inputs":[]},{"type":"error","name":"NotOwner","inputs":[]},{"type":"error","name":"NotOwnerOfPublicKey","inputs":[]},{"type":"error","name":"NotStakedBefore","inputs":[]},{"type":"error","name":"NotValidator","inputs":[{"name":"","type":"address","internalType":"address"}]},{"type":"error","name":"PQDoesNotContainAddress","inputs":[]},{"type":"error","name":"PQEmpty","inputs":[]},{"type":"error","name":"ReentrancyError","inputs":[]},{"type":"error","name":"SubnetAlreadyBootstrapped","inputs":[]},{"type":"error","name":"SubnetAlreadyKilled","inputs":[]},{"type":"error","name":"WithdrawExceedingCollateral","inputs":[]}],"bytecode":{"object":"0x60808060405234610016576147c6908161001c8239f35b600080fdfe608080604052600436101561001357600080fd5b600090813560e01c9081630b7fbe601461163a5750806310fd4261146114df5780632e17de78146114ba5780633a4b66f11461149e57806341c0e1b5146114045780634e71d92d146112785780636170b16214610d1157806366783c9b14610c30578063a8284de31461067d578063cc2dc2b914610600578063d66d9e19146105bd578063da5d09ee146101ca578063ed7c4da1146101165763f9002bb1146100bb57600080fd5b6040366003190112610113576004356001600160401b038116810361010e576009546001600160a01b031633036100fc576100f99060243590614222565b80f35b60405163e7e601db60e01b8152600490fd5b600080fd5b80fd5b503461011357806003193601126101135760008051602061477183398151915260018154146101b85780600183925573__$4a8700ca5e162cb61a0c4650a4871f1ad5$__803b156101b45782602491604051928380926382985e0b60e01b82523360048301525af49081156101a9578391610192575b50505580f35b61019b90611701565b6101a657813861018c565b50fd5b6040513d85823e3d90fd5b5050fd5b6040516329f745a760e01b8152600490fd5b5034610113576060366003190112610113576004356001600160401b0381116105b9576101fb9036906004016117bd565b906024356001600160401b0381116105b55761021b9036906004016117bd565b916044356001600160401b0381116105b15761023b9036906004016117bd565b9094610245613808565b7f806e0cbb9fce296bbc336a48f42bf1dbc69722d18d90d6fe705b7582c2bb4bd5546001600160a01b0316330361059f5760ff600e5416600281101561058b5760010361055b578181036105495784810361054957865b8181106102a7578780f35b6102bb6102b5828888613792565b9061462d565b6001600160a01b036102d66102d18486896137d3565b611c69565b166001600160a01b0390911603610537576103406102f86102d18385886137d3565b610303838989613792565b61031185888d9694966137d3565b3561032c604051958693604060208601526060850191611a35565b90604083015203601f19810184528361174a565b6001600160401b03601754166040516103588161172f565b600381526020810184815260018060a01b0384166040830152826000526018602052604060002090825161038b81611ded565b61039481611ded565b60ff80198454169116178255518051906001600160401b038211610521576103cc826103c36001860154611e0d565b60018601611f00565b602090601f831160011461049a57928260008051602061475183398151915297959360029360019b9a989660009261048f575b5050600019600383901b1c1916908a1b17818a01555b01906040888060a01b03910151166001600160601b0360a01b8254161790556001600160401b0361044582611915565b166001600160401b0319601754161760175561048060405193849360038552888060a01b0316602085015260808060408601528401906137e3565b9060608301520390a10161029c565b0151905038806103ff565b906001840160005260206000209160005b601f198516811061050957508360029360019b9a9896938c936000805160206147518339815191529b9997601f198116106104f0575b505050811b0189820155610415565b015160001960f88460031b161c191690553880806104e1565b919260206001819286850151815501940192016104ab565b634e487b7160e01b600052604160045260246000fd5b604051634be9251d60e11b8152600490fd5b604051637e65935960e01b8152600490fd5b610587610566613829565b60405163015538b160e01b81526020600482015291829160248301906137e3565b0390fd5b634e487b7160e01b88526021600452602488fd5b6040516330cd747160e01b8152600490fd5b8580fd5b8380fd5b5080fd5b503461011357806003193601126101135760008051602061477183398151915260018154146101b8578060018392556105f4613808565b6105fc61402d565b5580f35b5034610113576060366003190112610113576001600160401b03600435818111610679573660238201121561067957610643903690602481600401359101611818565b60443591821161067957366023830112156106795761066f6100f992369060248160040135910161186e565b90602435906142f2565b8280fd5b5034610113576080366003190112610113576001600160401b03600435116101135760a060043536036003190112610113576024356001600160401b0381116105b9576106ce9036906004016117bd565b91906044356001600160401b038111610679576106ef9036906004016117bd565b6064356001600160401b038111610aa85761070e9036906004016117bd565b9261071d602460043501611901565b926001600160401b03600554166001600160401b0360075416946001600160401b038061074a8885611943565b169116141580610c10575b610bfe57604051602081019060208252610786816107788d60408301908d611abf565b03601f19810183528261174a565b5190206084600435013503610bec576040516020808201526107b48161077860408201600435600401611bf3565b60208151910120946001600160401b03806107dd6107d6602460043501611901565b9385611943565b16911614600014610aac5750916107fe6108069261080c9695943691611818565b93369161186e565b916142f2565b6001600160401b03610822602460043501611901565b168252816020526040822092600435600401356042196004353603018112156105b557600435016001600160401b0361085d60048301611901565b166001600160401b031986541617855560248101359060221981360301821215610aa85701936001600160401b036004860135116105b557600485013560051b360360248601136105b557600160401b600486013511610a945760019485820180546004830135825580600484013510610a75575b506024820190865260208620865b60048401358110610a575750505050839450600281016001600160401b0361090c602460043501611901565b166001600160401b03198254161790556044600435013560038201556001600160401b0361093e606460043501611901565b1660048201906001600160401b03198254161790556005608460043501359101556001600160401b03610975602460043501611901565b168352601d60205261098b604084203390611d68565b506001600160401b036109a2602460043501611901565b166001600160401b0319600554161760055560018060a01b036009541691823b15610a5257610a0c92849283604051809681958294637a2b59cf60e11b8452604060048501526109fa60448501600435600401611bf3565b84810360031901602486015291611abf565b03925af18015610a4757610a33575b50506100f9610a2e606460043501611901565b612025565b610a3c90611701565b610113578038610a1b565b6040513d84823e3d90fd5b505050fd5b886004916020610a6686611c69565b950194818501550190506108e0565b81875260208720610a8e91810190600485013501611c52565b386108d2565b634e487b7160e01b84526041600452602484fd5b8480fd5b9550505050929350506001600160401b03610acb602460043501611901565b1614610ad6575b5080f35b6001600160401b03610aec602460043501611901565b168252816020526040822060405160208101916020835260a06040830152816101208101916001600160401b0381541660e0830152600190818101916040610100850152825480955261014084019289526020892090895b868110610bcb5750505060028101546001600160401b0390811660608501526003820154608085015260048201541660a08401526005015460c083015203601f1981018352610b9491508261174a565b51902014610b9f5780f35b6001600160401b03610bb5602460043501611901565b168152601d602052610ad2604082203390611d68565b82546001600160a01b03168552879550602090940193918101918101610b44565b604051632d7f750360e21b8152600490fd5b60405163fae4eadb60e01b8152600490fd5b50806001600160401b03610c28602460043501611901565b161415610755565b50346101135760203660031901126101135760043560008051602061477183398151915260018154146101b857600181558115610cff5760ff600d5460081c16610ced57338352600360205281604084205410610cdb576105fc8392338452600360205260408420610ca382825461259f565b9055610cb18160025461259f565b6002553384526003602052604084205415610ccd575b33613718565b610cd633614669565b610cc7565b60405163569d45cf60e11b8152600490fd5b604051631b39f2f360e11b8152600490fd5b604051631036b5ad60e31b8152600490fd5b50602036600319011261011357600435906001600160401b0382116101135736602383011215610113576001600160401b0382600401351161011357602436818460040135850101116105b957600160008051602061477183398151915254146101b857600160008051602061477183398151915255610d8f613808565b60ff600d5460081c168061126b575b341561125957604184600401350361124757610dc0846004013583860161462d565b336001600160a01b0390911603610537576110455733600090815260106020526040902060039390840190610e038160040135610dfd8454611e0d565b84611f00565b83601f826004013511600114610fd0578385918360040135610fc3575b5050816004013560011b916000199060040135871b1c19161790555b610e4634336138e1565b600f54600654811015610e6d575b505090505b806000805160206147718339815191525580f35b61ffff601154166001600160401b0360075460401c1611610e545761010061ff0019600d541617600d5560405193602085019060208652600154809252604086019160408160051b88010192600187527fb10e2d527612073b26eecdfd717e6a320cf44b4afac2b0732d9fcbe2b7fa0cf69287915b838310610f765750505050508484957f4914d88063275a25a13b2df37125e216745d812f94c56504be4bd78cf60c9593920390a160018060a01b0360095416610f2e60025480936124d5565b92813b15610aa85784926040519485938492637903ab2760e11b845260048401525af18015610a4757610f62575b80610e54565b610f6b90611701565b610113578038610f5c565b9091929394602083610fb46001938d603f1990820301865289548152848060a01b03858b015416848201526060908160408201520160028a01611e47565b97019201930191909392610ee2565b8301013590508338610e20565b828552602085208592916004830135601f19165b808510611028576001945083600401351161100a575b505060040135811b019055610e3c565b82018501356000196004840135891b60f8161c191690553880610ffa565b838201870135835560209485019460019093019290910190610fe4565b611056368460040135838601611786565b926001600160401b036017541660405161106f8161172f565b6002815260208101958652336040820152816000526018602052604060002095815161109a81611ded565b6110a381611ded565b60ff80198954169116178755519586516001600160401b038111611232576110db816110d26001850154611e0d565b60018501611f00565b6020601f82116001146111b057908060029392600080516020614751833981519152999a6000926111a5575b50508160011b916000199060031b1c19161760018201555b0190604060018060a01b03910151166001600160601b0360a01b8254161790556001600160401b0361115082611915565b166001600160401b0319601754161760175561118d6040519384936002855233602086015260806040860152608085019181600401359101611a35565b9060608301520390a16111a03433613af2565b610e59565b015190503880611107565b6001830160005260206000209860005b601f198416811061121a57509160008051602061475183398151915298996001926002959483601f19811610611201575b505050811b01600182015561111f565b015160001960f88460031b161c191690553880806111f1565b828201518b556001909a0199602092830192016111c0565b85634e487b7160e01b60005260416004526000fd5b6040516318dca5e960e21b8152600490fd5b604051635a78c58160e11b8152600490fd5b611273613cee565b610d9e565b5034610113578060031936011261011357600190600080516020614771833981519152828154146101b857828155336000908152601a602052604090209283549061ffff908183169283156113f257829060101c16918391808795818a01915b61136c575b5050508661134e937f197c586353eaed0a1c53e6e540445b94befab8f932c8115d112115ecbeeed514959363ffff000093899a54911693849260101b169063ffffffff19161717905515611355575b6113368133613718565b60408051338152602081019290925290918291820190565b0390a15580f35b336000908152601a6020526040902085905561132c565b9091939483811696828810156113e9578760005260208091858252604060002060405161139881611714565b898254928383520154938491015243106113de57859493889688946113bf86958a956124d5565b9c600052526000826040822082815501550116966000190116946112d8565b9850505094936112dd565b965094936112dd565b6040516364b0557f60e01b8152600490fd5b503461011357806003193601126101135761141d613808565b61ffff61143381601454168260115416906124f5565b1661148c57600d805462ff000019166201000017905560095481906001600160a01b0316803b156101a65781906004604051809481936341c0e1b560e01b83525af18015610a4757611483575080f35b6100f990611701565b604051636b62255160e11b8152600490fd5b5080600319360112610113576114b2613808565b6100f9613d03565b5034610113576020366003190112610113576114d4613808565b6100f9600435613d5d565b50346101135760209081600319360112610113576001600160401b0391600435838111610679573660238201121561067957611525903690602481600401359101611786565b923383526012825261ffff604084205416156116225783511561161057338352601e825260408320918451918211610a945761156b826115658554611e0d565b85611f00565b80601f83116001146115ac57508394829394926115a1575b50508160011b916000199060031b1c19161790555b610ad233611d01565b015190503880611583565b90601f198316958486528286209286905b8882106115f8575050836001959697106115df575b505050811b019055611598565b015160001960f88460031b161c191690553880806115d2565b806001859682949686015181550195019301906115bd565b604051637138356f60e01b8152600490fd5b604051633b4f6e2b60e21b8152336004820152602490fd5b9050816003193601126105b95734156116f2575060ff600d5460081c16610ced573381526003602052604081205415611699575b3381526003602052604081206116853482546124d5565b9055611693346002546124d5565b60025580f35b600454600160401b8110156116de576116bb8160016116d99301600455611c7d565b81546001600160a01b0360039290921b91821b19163390911b179055565b61166e565b634e487b7160e01b82526041600452602482fd5b631036b5ad60e31b8152600490fd5b6001600160401b03811161052157604052565b604081019081106001600160401b0382111761052157604052565b606081019081106001600160401b0382111761052157604052565b90601f801991011681019081106001600160401b0382111761052157604052565b6001600160401b03811161052157601f01601f191660200190565b9291926117928261176b565b916117a0604051938461174a565b82948184528183011161010e578281602093846000960137010152565b9181601f8401121561010e578235916001600160401b03831161010e576020808501948460051b01011161010e57565b6001600160401b0381116105215760051b60200190565b35906001600160a01b038216820361010e57565b9291611823826117ed565b91611831604051938461174a565b829481845260208094019160051b810192831161010e57905b8282106118575750505050565b83809161186384611804565b81520191019061184a565b9291909261187b846117ed565b91611889604051938461174a565b829480845260208094019060051b83019282841161010e5780915b8483106118b357505050505050565b82356001600160401b03811161010e57820184601f8201121561010e5786916118e28683858095359101611786565b8152019201916118a4565b35906001600160401b038216820361010e57565b356001600160401b038116810361010e5790565b9060016001600160401b038093160191821161192d57565b634e487b7160e01b600052601160045260246000fd5b9190916001600160401b038080941691160191821161192d57565b9035603e198236030181121561010e570190565b6001600160401b039190604082018361198a836118ed565b16835260209182810135601e198236030181121561010e570192828435940194841161010e578360051b3603851361010e576040818401529083905260600192919060005b8281106119dd575050505090565b909192938280600192838060a01b036119f589611804565b168152019501939291016119cf565b9035601e198236030181121561010e5701602081359101916001600160401b03821161010e57813603831361010e57565b908060209392818452848401376000828201840152601f01601f1916010190565b611a7f611a74611a66838061195e565b604085526040850190611972565b91602081019061195e565b91602081830391015281359160ff831680930361010e57611aac604091611abc9484526020810190611a04565b9190928160208201520191611a35565b90565b90918092808252602080920191808260051b86010194846000915b848310611aeb575050505050505090565b90919293949596601f19828203018752611b05888461195e565b90813560de198336030181121561010e57820191604090818352611b29848061195e565b611b3f60e0918285870152610120860190611a56565b92611b4c8a87018761195e565b6001600160401b03611b81611b6f603f1997606094898b830301868c0152611a56565b926080948a0135858a015289016118ed565b169160a092838801528701359263ffffffff60e01b841680940361010e578b95611bb7611bc79460c096878b01528a018a611a04565b9290918985030190890152611a35565b94013561010084015201359081151580920361010e578601529684019584019493926001019190611ada565b90608080611c12611c04858061195e565b60a0855260a0850190611972565b936001600160401b0380611c28602084016118ed565b16602086015260408201356040860152611c44606083016118ed565b166060850152013591015290565b818110611c5d575050565b60008155600101611c52565b356001600160a01b038116810361010e5790565b600454811015611cb45760046000527f8a35acfbc15ff81a39ae7d344fd709f28e8600b4aa8c65c6b64bfe7fe36bd19b0190600090565b634e487b7160e01b600052603260045260246000fd5b601f54811015611cb457601f6000527fa03837a25210ee280c2113ff4b77ca23440b19d4866cca721c801278fd08d8070190600090565b6000818152602080526040812054611d6357601f54600160401b8110156116de579082611d50611d3984600160409601601f55611cca565b819391549060031b91821b91600019901b19161790565b9055601f54928152602080522055600190565b905090565b91906001830160009082825280602052604082205415600014611de757845494600160401b861015611dd35760018601808255861015611dbf57836040949596828552602085200155549382526020522055600190565b634e487b7160e01b83526032600452602483fd5b634e487b7160e01b83526041600452602483fd5b50925050565b60041115611df757565b634e487b7160e01b600052602160045260246000fd5b90600182811c92168015611e3d575b6020831014611e2757565b634e487b7160e01b600052602260045260246000fd5b91607f1691611e1c565b9060009291805491611e5883611e0d565b918282526001938481169081600014611eba5750600114611e7a575b50505050565b90919394506000526020928360002092846000945b838610611ea6575050505001019038808080611e74565b805485870183015294019385908201611e8f565b9294505050602093945060ff191683830152151560051b01019038808080611e74565b60005b838110611ef05750506000910152565b8181015183820152602001611ee0565b9190601f8111611f0f57505050565b611f3b926000526020600020906020601f840160051c83019310611f3d575b601f0160051c0190611c52565b565b9091508190611f2e565b9080821461202157611f598154611e0d565b906001600160401b038211610521578190611f7e82611f788654611e0d565b86611f00565b600090601f8311600114611fb557600092611faa575b50508160011b916000199060031b1c1916179055565b015490503880611f94565b81526020808220858352818320935090601f1985169083905b828210612008575050908460019594939210611fef575b505050811b019055565b015460001960f88460031b161c19169055388080611fe5565b8495819295850154815560018091019601940190611fce565b5050565b6017546001600160401b03828116929080831684106120505760405163040aaa0560e11b8152600490fd5b808360401c168410611e745780604093841c165b8482821611156120cb5750509160209161209e7f246f00b61ce672242f33bb680a47147cd54d3dfd04dbb76956ba42f88087bf6394611915565b67ffffffffffffffff60401b60175491831b169067ffffffffffffffff60401b19161760175551908152a1565b816120e9826001600160401b03166000526018602052604060002090565b6002808201548254929491926001600160a01b03918216919060ff1661210e81611ded565b808503612180575050600361213f600161214594959697019260018060a01b03166000526010602052604060002090565b01611f47565b612162816001600160401b03166000526018602052604060002090565b916000908184556001936121778582016125ac565b01550116612064565b9091945061218d81611ded565b60039181830361232b5750508751936121b5856121ae816001809a01611e47565b038661174a565b84518501916020928a8785830192031261010e578387015189811161010e5787019681603f8901121561010e5787858d990151926121fe6121f58561176b565b9a519a8b61174a565b838a528d848301011161010e578c9261221c9184888c019101611edd565b0151928161223c8460018060a01b03166000526010602052604060002090565b01918751918a8311612316578a9861225e846122588754611e0d565b87611f00565b81601f85116001146122a357506122939798999a8493928492600095612298575b50501b92600019911b1c191617905561250b565b612145565b01519350388061227f565b91601f9b9493919b1984169b866000528c84600020946000915b82106122fb575050846122939a9b9c9d106122e1575b50505050811b01905561250b565b01519060f884600019921b161c19169055388080806122d3565b8383015186558f9d509487019492830192908101908e6122bd565b60246000634e487b7160e01b81526041600452fd5b91509193889593955193612347856121ae816001809501611e47565b6020808680518101031261010e5781818c9701519561236581611ded565b0361248a57849061237682856125f5565b60195461238390436124d5565b9287519061239082611714565b8482528282018481526001600160a01b0387166000908152601a602052604090209091909283549161ffff9384848180961695869160101c16906123d3916124f5565b169c60009d8e5282870188528d2092518355519101556123f2906124e2565b1661ffff198254161790558b519384528301528982015260607f083b080788e20bd0930c2bca2ae4fbc51a59ced08c1b5992271f8cb439498a6391a16009541690813b15610679578291602483928a5195869384926345f5448560e01b845260048401525af190811561247f57509084939291612470575b50612145565b61247990611701565b3861246a565b8751903d90823e3d90fd5b50508293509161249a919261254f565b6009541690813b1561010e578651916316989f6f60e21b83528260048160009485945af190811561247f575090849392916124705750612145565b9190820180921161192d57565b90600161ffff8093160191821161192d57565b91909161ffff8080941691160191821161192d57565b9060018060a01b03821660005260106020526040600020818154915581811460001461253657505050565b81111561254657611f3b91612684565b611f3b916129ca565b90611f3b9161259760018060a01b0382169283600052601060205261257c816001604060002001546124d5565b93600052601060205283600160406000200155600f546124d5565b600f55612684565b9190820391821161192d57565b6125b68154611e0d565b90816125c0575050565b81601f600093116001146125d2575055565b9080839182526125f1601f60208420940160051c840160018501611c52565b5555565b9061266261266a9260018060a01b038116906000828152601060205261262285600160408420015461259f565b928152601060205260408120600281018481548115908161267b575b501561266f5750908260039261265d94835581600184015555016125ac565b6129ca565b600f5461259f565b600f55565b925050600101556129ca565b9050153861263e565b919060018060a01b03928381166000948186526020916012835261ffff916040978389822054166128b55783600e5460081c16846011541610612881576126c96134d7565b60019283825260138652828a83205416886126e382612db5565b106127fb575081526015855283898220541661275257505050505061274d7f19fe3ca603e87854a0747cc10abf06bac64d61bac73d6d15f2fd3ca448f15264939461272d83612d40565b516001600160a01b03909216825260208201929092529081906040820190565b0390a1565b61275b8661352a565b9261276587612db5565b935b81868216116127bd575b505097516001600160a01b0390951685525050505060208101919091529091507fda148fac2e1063174be7bc0895576bdaba90fd14e575463fa26a967cb895cadd90806040810161274d565b80856127dc86617fff8f95871c169485885260168c5287205416612db5565b10156127f557906127ee839282613689565b9050612767565b50612771565b969750899493507ffaeb8de771b867cf357f6b459a7002b62ec45d544a8078a3ecd91200cc826d759899925061274d956015916128366131cf565b835252205416612873575b61284a8461315a565b61285383612d40565b516001600160a01b03928316815292909116602083015281906040820190565b61287c84612f7f565b612841565b505050505061274d7f2e8038f5812f763c6ef0c5427cb5a05ce6d7064af2ba7d1d270bc02660b019fd939461272d8361315a565b979291506128c685949796956134f3565b976128d085612db5565b976128da8a6130eb565b8460115416905b8581168281116129935782811015612977575080612901612907926124e2565b90613487565b9b909b5b8b111561292a5761291c908c6135f0565b6129258b6130eb565b6128e1565b505093516001600160a01b0390951685525050505060208101919091529092507f143db27bc2036653dc6f962ff9d0b803163d4af50c256ca9e6927b3d6dcd01979150806040810161274d565b849c919c526013835261298e858886205416612db5565b61290b565b5050505050505061274d91929395507f143db27bc2036653dc6f962ff9d0b803163d4af50c256ca9e6927b3d6dcd0197945061272d565b909160018060a01b03928383169060009382855260206015815261ffff95604094878683205416612c04578082526012835287868320541615612bf3578415612b4b5750612a17836134f3565b97612a2184612db5565b985b6001808a83161115612b3c5781617fff911c1690818452601385528a612a4d848a87205416612db5565b1115612a6257612a5d90826135f0565b612a23565b505091939597509193955b6014541615612b3457612a7e6134d7565b600182526013835285818184205416926016612a9985612db5565b95612aa26134e5565b600183525220541691612ab483612db5565b11612afb57505091516001600160a01b03909216825260208201527f143db27bc2036653dc6f962ff9d0b803163d4af50c256ca9e6927b3d6dcd019790806040810161274d565b9150915061274d7ffaeb8de771b867cf357f6b459a7002b62ec45d544a8078a3ecd91200cc826d7593612b2c6131cf565b612841612e18565b505050505050565b50509193959750919395612a6d565b829450612b7f7f4a4c5d1a281180eea1e99d8177fa4798b9f7e019d5c57e7d8d73c6a22199aa5b9392989499969799613318565b8651908152a160145416612b935750505050565b7f2e8038f5812f763c6ef0c5427cb5a05ce6d7064af2ba7d1d270bc02660b019fd9360168492612bc16134e5565b6001835252205416612be7612bd582612db5565b92612bde612e18565b61272d8361315a565b0390a138808080611e74565b8551632a55ca5360e01b8152600490fd5b84969792939598919415612d05575061fffe9193612c218661352a565b93612c2b87612db5565b9480966001958692831b168160145416925b612c91575b505099516001600160a01b039097168752505050506020830193909352509192507fda148fac2e1063174be7bc0895576bdaba90fd14e575463fa26a967cb895cadd919050806040810161274d565b818116838111612cff578d9084811015612ce357505080612cb4612cba926124e2565b90613102565b9890985b881015612cde57612ccf9089613689565b612cd8886130eb565b86612c3d565b612c42565b865260168552852054909890612cfa908716612db5565b612cbe565b50612c42565b94915050612d399194507f3168ba660eed6ef1dc2258b2247cc05fd0f2f350d39e6ad2e2ebc76a8000b40b95969250612f7f565b51908152a1565b611f3b90612daf61ffff91612d5883601454166124e2565b9260018060a01b0382169081600052601560205260406000209085169161ffff199183838254161790558260005260166020526040600020906001600160601b0360a01b8254161790556014541617601455612db5565b90613096565b60ff600e54166002811015611df757600103612de6576001600160a01b031660009081526010602052604090205490565b6001600160a01b031660009081526010602052604090206001015490565b61ffff908116600019019190821161192d57565b61ffff8060145416908115612f6d5790600190612e37818311156135d3565b6000828152601660208181526040808420805486865282862080546001600160a01b0392831680895260158752858920805461ffff199081168c17909155918416808a52868a20805484168d17905588885283546001600160a01b03199081169092179093558a895284541690911790925592958795939492939291612ed191908a612ec283612e04565b1690601454161760145561354f565b848252808652612ee5848484205416612db5565b95859860028160145416995b612f03575b5050505050505050505050565b8181168a8111612f67578a811015612f4c575080612cb4612f23926124e2565b9a909a5b891015612f4757612f38908b613689565b612f418a6130eb565b87612ef1565b612ef6565b859b919b52838352612f62878787205416612db5565b612f27565b50612ef6565b6040516340d9b01160e01b8152600490fd5b612f889061352a565b61ffff90816014541691612f9c8383613689565b80612fa684612e04565b1661ffff196014541617601455612fbc8361354f565b808216809314613091579161fffe9160009180835260169060209382855260018060a01b0392604092612ffc612ff6868686205416612db5565b87613096565b825280865261300f848484205416612db5565b9585986001988997881b168160145416995b613032575050505050505050505050565b8181168a8111612f67578a811015613076575080612cb4613052926124e2565b9a909a5b891015612f4757613067908b613689565b6130708a6130eb565b87613021565b859b919b5283835261308c878787205416612db5565b613056565b505050565b9190915b60018061ffff831611156130e55781617fff911c1690836130d060008481526016602052604060018060a01b0391205416612db5565b10156130e5576130e09082613689565b61309a565b50509050565b60011b906201fffe61fffe83169216820361192d57565b91909161ffff92838216600052601660205261314560018060a01b0361312e8160406000205416612db5565b958316600052601660205260406000205416612db5565b908185106131535750509190565b9350919050565b611f3b906131c961ffff9161317283601154166124e2565b9260018060a01b0382169081600052601260205260406000209085169161ffff199183838254161790558260005260136020526040600020906001600160601b0360a01b8254161790556011541617601155612db5565b90613438565b61ffff8060115416908115612f6d57906001906131ee818311156135d3565b6000828152601360208181526040808420805486865282862080546001600160a01b0392831680895260128752858920805461ffff199081168c17909155918416808a52868a20805484168d17905588885283546001600160a01b03199081169092179093558a89528454169091179092559295879593949293929161328891908a61327983612e04565b16906011541617601155613591565b84825280865261329c848484205416612db5565b95859860028160115416995b6132b9575050505050505050505050565b8181168a8111612f67578a8110156132fd5750806129016132d9926124e2565b9a909a5b891115612f47576132ee908b6135f0565b6132f78a6130eb565b876132a8565b859b919b52838352613313878787205416612db5565b6132dd565b613321906134f3565b9061ffff9081601154169061333682856135f0565b8261334083612e04565b1661ffff19601154161760115561335682613591565b8284168092146134325760009291929183835260139260209484865260018060a01b039160409161339461338e858585205416612db5565b8a613438565b81528587526133a7838383205416612db5565b956133b1896130eb565b978560115416985b8681168a8111613424578a8110156134095750806129016133d9926124e2565b9a909a5b8911156133fc576133ee908b6135f0565b6133f78a6130eb565b6133b9565b5050505050505092505050565b849b919b5282825261341f868686205416612db5565b6133dd565b505050505050505092505050565b92505050565b9190915b60018061ffff831611156130e55781617fff911c16908361347260008481526013602052604060018060a01b0391205416612db5565b11156130e55761348290826135f0565b61343c565b919061ffff80841660005260136020526134c860018060a01b036134b18160406000205416612db5565b928416600052601360205260406000205416612db5565b93848211156131535750509190565b61ffff6011541615612f6d57565b61ffff6014541615612f6d57565b6001600160a01b031660009081526012602052604090205461ffff1690811561351857565b60405163f2755e3760e01b8152600490fd5b6001600160a01b031660009081526015602052604090205461ffff1690811561351857565b61ffff16600090815260166020908152604080832080546001600160a01b031981169091556001600160a01b0316835260159091529020805461ffff19169055565b61ffff16600090815260136020908152604080832080546001600160a01b031981169091556001600160a01b0316835260129091529020805461ffff19169055565b156135da57565b634e487b7160e01b600052600160045260246000fd5b61361561ffff80806011541693169361360b848611156135d3565b16918211156135d3565b6000828152601360208181526040808420805486865282862080546001600160a01b0392831680895260128752858920805461ffff19908116909b1790559216808852938720805490981689179097559390925284546001600160a01b031990811690931790945593909152825416179055565b6136a461ffff80806014541693169361360b848611156135d3565b6000828152601660208181526040808420805486865282862080546001600160a01b0392831680895260158752858920805461ffff19908116909b1790559216808852938720805490981689179097559390925284546001600160a01b031990811690931790945593909152825416179055565b81471061377a576000918291829182916001600160a01b03165af13d15613775573d6137438161176b565b90613751604051928361174a565b8152600060203d92013e5b1561376357565b604051630a12f52160e11b8152600490fd5b61375c565b60405163cd78605960e01b8152306004820152602490fd5b9190811015611cb45760051b81013590601e198136030182121561010e5701908135916001600160401b03831161010e57602001823603811361010e579190565b9190811015611cb45760051b0190565b906020916137fc81518092818552858086019101611edd565b601f01601f1916010190565b60ff600d5460101c1661381757565b60405163248c8efb60e11b8152600490fd5b60405190608082018281106001600160401b03821117610521576040526045825264185c1c195960da1b6060837f4d6574686f64206e6f7420616c6c6f776564206966207065726d697373696f6e60208201527f656420697320656e61626c656420616e64207375626e657420626f6f7473747260408201520152565b600154811015611cb4576003906001600052027fb10e2d527612073b26eecdfd717e6a320cf44b4afac2b0732d9fcbe2b7fa0cf60190600090565b906138f6906138f08184613acb565b8261254f565b60ff600d5460081c16156139075750565b60018054600082815b838110613a9a575b50501561392457505050565b6001600160a01b03831660009081526010602052604090208281015461397a949091600301604051926139568461172f565b83526020936139818585019260018060a01b03809516845260405198898092611e47565b038861174a565b60408401968752600160401b8110156105215780866139a2920187556138a6565b929092613a84576002935183558583019151166001600160601b0360a01b825416179055019251908151916001600160401b038311610521576139e9836122588754611e0d565b81601f8411600114613a225750928293918392600094613a17575b50501b916000199060031b1c1916179055565b015192503880613a04565b919083601f1981168760005284600020946000905b88838310613a6a5750505010613a5157505050811b019055565b015160001960f88460031b161c19169055388080611fe5565b858701518855909601959485019487935090810190613a37565b634e487b7160e01b600052600060045260246000fd5b81613aa4826138a6565b5001546001600160a01b03878116911614613ac157018390613910565b5090508238613918565b60018060a01b03166000526010602052613aee60026040600020019182546124d5565b9055565b91906040519281602085015260208452613b0b84611714565b6001600160401b03601754169360405194613b258661172f565b60008652602086019582875260018060a01b03841660408201528160005260186020526040600020968151613b5981611ded565b613b6281611ded565b60ff80198a54169116178855519687516001600160401b03811161052157613b91816110d26001850154611e0d565b6020601f8211600114613c6357613c4a949282600080516020614751833981519152979593600293611f3b9c9d600092613c58575b50508160011b916000199060031b1c19161760018201555b0190604060018060a01b03910151166001600160601b0360a01b8254161790556001600160401b03613c0f82611915565b166001600160401b031960175416176017556040519283926000845260018060a01b03871660208501526080604085015260808401906137e3565b9060608301520390a1613acb565b015190503880613bc6565b6001830160005260206000209960005b601f1984168110613cd6575092600183611f3b9b9c600294613c4a99976000805160206147518339815191529b9997601f19811610613cbd575b505050811b016001820155613bde565b015160001960f88460031b161c19169055388080613cad565b828201518c556001909b019a60209283019201613c73565b60ff600e54166002811015611df75761055b57565b613d0b613cee565b3415611259573360009081526010602052604090206002015415613d4b5760ff600d5460081c1615613d4157611f3b3433613af2565b611f3b34336138e1565b60405163528fc16560e01b8152600490fd5b613d65613cee565b8015613dcc5733600090815260106020526040902060020154801561162257811015613dbb5760ff600d5460081c1615613da357611f3b9033613e31565b80613db1611f3b9233613dde565b610cc781336125f5565b60405162d11df360e61b8152600490fd5b60405163c79cad7b60e01b8152600490fd5b6001600160a01b03166000818152601060205260409020600201549091808210613e1f57613e0b9161259f565b906000526010602052600260406000200155565b60405163ac69360360e01b8152600490fd5b91906040519281602085015260208452613e4a84611714565b6001600160401b03601754169360405194613e648661172f565b60018652602086019582875260018060a01b03841660408201528160005260186020526040600020968151613e9881611ded565b613ea181611ded565b60ff80198a54169116178855519687516001600160401b03811161052157613ed0816110d26001850154611e0d565b6020601f8211600114613fa257613f89949282600080516020614751833981519152979593600293611f3b9c9d600092613f97575b50508160011b916000199060031b1c19161760018201555b0190604060018060a01b03910151166001600160601b0360a01b8254161790556001600160401b03613f4e82611915565b166001600160401b031960175416176017556040519283926001845260018060a01b03871660208501526080604085015260808401906137e3565b9060608301520390a1613dde565b015190503880613f05565b6001830160005260206000209960005b601f1984168110614015575092600183611f3b9b9c600294613f8999976000805160206147518339815191529b9997601f19811610613ffc575b505050811b016001820155613f1d565b015160001960f88460031b161c19169055388080613fec565b828201518c556001909b019a60209283019201613fb2565b60ff600d5460081c1661411a575b3360009081526010602052604090206002015480156116225761405d33614127565b50600090338252601e60205281604081206140788154611e0d565b806140dd575b50505060ff600d5460081c161561409a57611f3b915033613e31565b6040611f3b9233815260036020522054806140bb575b50613db18133613dde565b806140cb6140d79260025461259f565b600255610cc733614669565b386140b0565b82601f82116001146140f5575050555b81388061407e565b9091808252614113601f60208420940160051c840160018501611c52565b55556140ed565b614122613cee565b61403b565b60008181526020808052604082205491929091801561420857600019908082018181116141f457601f54908382019182116141e0578082036141ae575b505050601f54801561419a5781019061417c82611cca565b909182549160031b1b19169055601f55825280526040812055600190565b634e487b7160e01b85526031600452602485fd5b6141cc6141bd611d3993611cca565b90549060031b1c928392611cca565b905585528380526040852055388080614164565b634e487b7160e01b87526011600452602487fd5b634e487b7160e01b86526011600452602486fd5b50505090565b8051821015611cb45760209160051b010190565b8115612021576001600160401b03908180600754169116039080821161192d57600091168152602090601d8252604090818120928251808583829754938481520190855283852092855b858282106142dc575050506142839250038561174a565b8351948515612b3457858110612b345785900493825b8681106142a95750505050505050565b6001906001600160a01b036142be828561420e565b51168552601c84528585206142d48882546124d5565b905501614299565b855484526001958601958a95509301920161426c565b918251916142ff836117ed565b9360409461430f8651918261174a565b848152601f1961431e866117ed565b0194602095368784013760005b8181106143f557505060009461ffff8060115416600192839182945b6143a4575b505050505060ff60095460a01c169485810295818704149015171561192d57606461437895049161446c565b9015614382575050565b6007811015611df75760ff602492519163282ef1c160e01b8352166004820152fd5b90919293988a858b168381116143ed57600090815260138552205484939291869185916143e3916143dd906001600160a01b0316612db5565b906124d5565b9b01169493614347565b50509861434c565b6001600160a01b0380614408838761420e565b51166000526012885261ffff896000205416156144485790614437600192614430838861420e565b5116612db5565b614441828661420e565b520161432b565b88906144566024938761420e565b519151633b4f6e2b60e21b815291166004820152fd5b845192946000949084156145545782518514801590614549575b61453c579392919085945b8486106144b45750505050505010156144ac57600090600690565b600190600090565b9091929394956144ce6144c7888461420e565b5184614561565b506144d881611ded565b61452b576001600160a01b03806144ef8a8861420e565b511691160361451b5761450f600191614508898861420e565b51906124d5565b96019493929190614491565b5050505050505050600090600490565b505050505050505050600090600590565b5050505050905090600190565b508351851415614486565b5050505050905090600290565b81519190604183036145925761458b92506020820151906060604084015193015160001a9061459d565b9192909190565b505060009160029190565b91907f7fffffffffffffffffffffffffffffff5d576e7357a4501ddfe92f46681b20a0841161462157926020929160ff608095604051948552168484015260408301526060820152600092839182805260015afa156146155780516001600160a01b0381161561460c57918190565b50809160019190565b604051903d90823e3d90fd5b50505060009160039190565b9061463a604182146135d3565b8060011161010e576146559136916000190190600101611786565b80516020909101206001600160a01b031690565b60049081549160005b83811061467f5750505050565b61468881611c7d565b90546003916001600160a01b039190831b1c8116858216146146ae575050600101614672565b92935093906000199182810190811161473b57906146df846146d26146fe94611c7d565b905490891b1c1691611c7d565b90919082549060031b9160018060a01b03809116831b921b1916179055565b8254801561472657019261471184611c7d565b81939154921b1b191690555538808080611e74565b603184634e487b7160e01b6000525260246000fd5b601185634e487b7160e01b6000525260246000fdfe1c593a2b803c3f9038e8b6743ba79fbc4276d2770979a01d2768ed12bea3243f691bb03ffc16c56fc96b82fd16cd1b3715f0bc3cdc6407005f49bb6205860095a26469706673582212205ddbdbb6eeba24d8ce6931835e1d8b1e8f051113c290f42b1b1d3c65212e49cd64736f6c63430008130033","linkReferences":{"src/lib/LibStaking.sol":{"LibStaking":[{"start":355,"length":20}]}}},"methodIdentifiers":{"addBootstrapNode(string)":"10fd4261","claim()":"4e71d92d","claimRewardForRelayer()":"ed7c4da1","distributeRewardToRelayers(uint64,uint256)":"f9002bb1","join(bytes)":"6170b162","kill()":"41c0e1b5","leave()":"d66d9e19","preFund()":"0b7fbe60","preRelease(uint256)":"66783c9b","setFederatedPower(address[],bytes[],uint256[])":"da5d09ee","stake()":"3a4b66f1","submitCheckpoint(((uint64,address[]),uint64,bytes32,uint64,bytes32),((((uint64,address[]),(uint8,bytes)),((uint64,address[]),(uint8,bytes)),uint256,uint64,bytes4,bytes,uint256),bool)[],address[],bytes[])":"a8284de3","unstake(uint256)":"2e17de78","validateActiveQuorumSignatures(address[],bytes32,bytes[])":"cc2dc2b9"},"id":75}