{"abi":[{"type":"function","name":"addBootstrapNode","inputs":[{"name":"netAddress","type":"string","internalType":"string"}],"outputs":[],"stateMutability":"nonpayable"},{"type":"function","name":"claim","inputs":[],"outputs":[],"stateMutability":"nonpayable"},{"type":"function","name":"claimRewardForRelayer","inputs":[],"outputs":[],"stateMutability":"nonpayable"},{"type":"function","name":"distributeRewardToRelayers","inputs":[{"name":"height","type":"uint64","internalType":"uint64"},{"name":"reward","type":"uint256","internalType":"uint256"}],"outputs":[],"stateMutability":"payable"},{"type":"function","name":"join","inputs":[{"name":"publicKey","type":"bytes","internalType":"bytes"}],"outputs":[],"stateMutability":"payable"},{"type":"function","name":"kill","inputs":[],"outputs":[],"stateMutability":"nonpayable"},{"type":"function","name":"leave","inputs":[],"outputs":[],"stateMutability":"nonpayable"},{"type":"function","name":"preFund","inputs":[],"outputs":[],"stateMutability":"payable"},{"type":"function","name":"preRelease","inputs":[{"name":"amount","type":"uint256","internalType":"uint256"}],"outputs":[],"stateMutability":"nonpayable"},{"type":"function","name":"setFederatedPower","inputs":[{"name":"validators","type":"address[]","internalType":"address[]"},{"name":"publicKeys","type":"bytes[]","internalType":"bytes[]"},{"name":"powers","type":"uint256[]","internalType":"uint256[]"}],"outputs":[],"stateMutability":"nonpayable"},{"type":"function","name":"stake","inputs":[],"outputs":[],"stateMutability":"payable"},{"type":"function","name":"submitCheckpoint","inputs":[{"name":"checkpoint","type":"tuple","internalType":"struct BottomUpCheckpoint","components":[{"name":"subnetID","type":"tuple","internalType":"struct SubnetID","components":[{"name":"root","type":"uint64","internalType":"uint64"},{"name":"route","type":"address[]","internalType":"address[]"}]},{"name":"blockHeight","type":"uint64","internalType":"uint64"},{"name":"blockHash","type":"bytes32","internalType":"bytes32"},{"name":"nextConfigurationNumber","type":"uint64","internalType":"uint64"},{"name":"crossMessagesHash","type":"bytes32","internalType":"bytes32"}]},{"name":"messages","type":"tuple[]","internalType":"struct CrossMsg[]","components":[{"name":"message","type":"tuple","internalType":"struct StorableMsg","components":[{"name":"from","type":"tuple","internalType":"struct IPCAddress","components":[{"name":"subnetId","type":"tuple","internalType":"struct SubnetID","components":[{"name":"root","type":"uint64","internalType":"uint64"},{"name":"route","type":"address[]","internalType":"address[]"}]},{"name":"rawAddress","type":"tuple","internalType":"struct FvmAddress","components":[{"name":"addrType","type":"uint8","internalType":"uint8"},{"name":"payload","type":"bytes","internalType":"bytes"}]}]},{"name":"to","type":"tuple","internalType":"struct IPCAddress","components":[{"name":"subnetId","type":"tuple","internalType":"struct SubnetID","components":[{"name":"root","type":"uint64","internalType":"uint64"},{"name":"route","type":"address[]","internalType":"address[]"}]},{"name":"rawAddress","type":"tuple","internalType":"struct FvmAddress","components":[{"name":"addrType","type":"uint8","internalType":"uint8"},{"name":"payload","type":"bytes","internalType":"bytes"}]}]},{"name":"value","type":"uint256","internalType":"uint256"},{"name":"nonce","type":"uint64","internalType":"uint64"},{"name":"method","type":"bytes4","internalType":"bytes4"},{"name":"params","type":"bytes","internalType":"bytes"},{"name":"fee","type":"uint256","internalType":"uint256"}]},{"name":"wrapped","type":"bool","internalType":"bool"}]},{"name":"signatories","type":"address[]","internalType":"address[]"},{"name":"signatures","type":"bytes[]","internalType":"bytes[]"}],"outputs":[],"stateMutability":"nonpayable"},{"type":"function","name":"unstake","inputs":[{"name":"amount","type":"uint256","internalType":"uint256"}],"outputs":[],"stateMutability":"nonpayable"},{"type":"function","name":"validateActiveQuorumSignatures","inputs":[{"name":"signatories","type":"address[]","internalType":"address[]"},{"name":"hash","type":"bytes32","internalType":"bytes32"},{"name":"signatures","type":"bytes[]","internalType":"bytes[]"}],"outputs":[],"stateMutability":"view"},{"type":"event","name":"BottomUpCheckpointExecuted","inputs":[{"name":"epoch","type":"uint64","indexed":false,"internalType":"uint64"},{"name":"submitter","type":"address","indexed":false,"internalType":"address"}],"anonymous":false},{"type":"event","name":"BottomUpCheckpointSubmitted","inputs":[{"name":"checkpoint","type":"tuple","indexed":false,"internalType":"struct BottomUpCheckpoint","components":[{"name":"subnetID","type":"tuple","internalType":"struct SubnetID","components":[{"name":"root","type":"uint64","internalType":"uint64"},{"name":"route","type":"address[]","internalType":"address[]"}]},{"name":"blockHeight","type":"uint64","internalType":"uint64"},{"name":"blockHash","type":"bytes32","internalType":"bytes32"},{"name":"nextConfigurationNumber","type":"uint64","internalType":"uint64"},{"name":"crossMessagesHash","type":"bytes32","internalType":"bytes32"}]},{"name":"submitter","type":"address","indexed":false,"internalType":"address"}],"anonymous":false},{"type":"event","name":"NextBottomUpCheckpointExecuted","inputs":[{"name":"epoch","type":"uint64","indexed":false,"internalType":"uint64"},{"name":"submitter","type":"address","indexed":false,"internalType":"address"}],"anonymous":false},{"type":"event","name":"SubnetBootstrapped","inputs":[{"name":"","type":"tuple[]","indexed":false,"internalType":"struct Validator[]","components":[{"name":"weight","type":"uint256","internalType":"uint256"},{"name":"addr","type":"address","internalType":"address"},{"name":"metadata","type":"bytes","internalType":"bytes"}]}],"anonymous":false},{"type":"error","name":"AddressInsufficientBalance","inputs":[{"name":"account","type":"address","internalType":"address"}]},{"type":"error","name":"AddressShouldBeValidator","inputs":[]},{"type":"error","name":"CannotConfirmFutureChanges","inputs":[]},{"type":"error","name":"CannotReleaseZero","inputs":[]},{"type":"error","name":"CollateralIsZero","inputs":[]},{"type":"error","name":"EmptyAddress","inputs":[]},{"type":"error","name":"FailedInnerCall","inputs":[]},{"type":"error","name":"InvalidCheckpointEpoch","inputs":[]},{"type":"error","name":"InvalidCheckpointMessagesHash","inputs":[]},{"type":"error","name":"InvalidFederationPayload","inputs":[]},{"type":"error","name":"InvalidPublicKeyLength","inputs":[]},{"type":"error","name":"InvalidSignatureErr","inputs":[{"name":"","type":"uint8","internalType":"uint8"}]},{"type":"error","name":"MethodNotAllowed","inputs":[]},{"type":"error","name":"NoCollateralToWithdraw","inputs":[]},{"type":"error","name":"NotAllValidatorsHaveLeft","inputs":[]},{"type":"error","name":"NotEnoughBalance","inputs":[]},{"type":"error","name":"NotEnoughCollateral","inputs":[]},{"type":"error","name":"NotEnoughFunds","inputs":[]},{"type":"error","name":"NotGateway","inputs":[]},{"type":"error","name":"NotOwner","inputs":[]},{"type":"error","name":"NotOwnerOfPublicKey","inputs":[]},{"type":"error","name":"NotStakedBefore","inputs":[]},{"type":"error","name":"NotValidator","inputs":[{"name":"","type":"address","internalType":"address"}]},{"type":"error","name":"PQDoesNotContainAddress","inputs":[]},{"type":"error","name":"PQEmpty","inputs":[]},{"type":"error","name":"ReentrancyError","inputs":[]},{"type":"error","name":"SubnetAlreadyBootstrapped","inputs":[]},{"type":"error","name":"SubnetAlreadyKilled","inputs":[]},{"type":"error","name":"WithdrawExceedingCollateral","inputs":[]}],"bytecode":{"object":"0x6080806040523461001657614747908161001c8239f35b600080fdfe608080604052600436101561001357600080fd5b600090813560e01c9081630b7fbe60146116375750806310fd4261146114dc5780632e17de78146114b75780633a4b66f11461149b57806341c0e1b5146114015780634e71d92d146112755780636170b16214610d0e57806366783c9b14610c2d578063a8284de31461067a578063cc2dc2b9146105fd578063d66d9e19146105ba578063da5d09ee146101ca578063ed7c4da1146101165763f9002bb1146100bb57600080fd5b6040366003190112610113576004356001600160401b038116810361010e576009546001600160a01b031633036100fc576100f990602435906141a3565b80f35b60405163e7e601db60e01b8152600490fd5b600080fd5b80fd5b50346101135780600319360112610113576000805160206146f283398151915260018154146101b85780600183925573__$4a8700ca5e162cb61a0c4650a4871f1ad5$__803b156101b45782602491604051928380926382985e0b60e01b82523360048301525af49081156101a9578391610192575b50505580f35b61019b906116fe565b6101a657813861018c565b50fd5b6040513d85823e3d90fd5b5050fd5b6040516329f745a760e01b8152600490fd5b5034610113576060366003190112610113576004356001600160401b0381116105b6576101fb9036906004016117ba565b6024356001600160401b0381116105b25761021a9036906004016117ba565b9190926044356001600160401b0381116105ae5761023c9036906004016117ba565b90926102466137e0565b7f806e0cbb9fce296bbc336a48f42bf1dbc69722d18d90d6fe705b7582c2bb4bd5546001600160a01b0316330361059c5760ff600e5416600281101561058857600103610576578181036105645784810361056457865b8181106102a8578780f35b6102bc6102b682888a61378f565b906145ae565b6001600160a01b036102d76102d28486896137d0565b611c66565b166001600160a01b0390911603610552576102f66102d28284876137d0565b61034161030483898b61378f565b61031285888b9594956137d0565b3561032d604051948593604060208601526060850191611a32565b90604083015203601f198101835282611747565b6001600160401b03601754169160405161035a8161172c565b600381526020810183815260018060a01b0383166040830152846000526018602052604060002090825161038d81611dea565b61039681611dea565b60ff80198454169116178255518051906001600160401b03821161053c576103ce826103c56001860154611e0a565b60018601611efd565b602090601f83116001146104b55792826000805160206146d283398151915297959360029360019b9a98966000926104aa575b5050600019600383901b1c1916908a1b17818a01555b01906040888060a01b03910151166001600160601b0360a01b8254161790556001600160401b0361044784611912565b166001600160401b0319601754161760175560405192839160038352878060a01b03166020830152608090816040840152835180928401526104928260a09560208787019101611eda565b6060830152601f01601f19168101030190a10161029d565b015190503880610401565b906001840160005260206000209160005b601f198516811061052457508360029360019b9a9896938c936000805160206146d28339815191529b9997601f1981161061050b575b505050811b0189820155610417565b015160001960f88460031b161c191690553880806104fc565b919260206001819286850151815501940192016104c6565b634e487b7160e01b600052604160045260246000fd5b604051634be9251d60e11b8152600490fd5b604051637e65935960e01b8152600490fd5b6040516341f8b8eb60e11b8152600490fd5b634e487b7160e01b88526021600452602488fd5b6040516330cd747160e01b8152600490fd5b8580fd5b8380fd5b5080fd5b50346101135780600319360112610113576000805160206146f283398151915260018154146101b8578060018392556105f16137e0565b6105f9613fae565b5580f35b5034610113576060366003190112610113576001600160401b03600435818111610676573660238201121561067657610640903690602481600401359101611815565b60443591821161067657366023830112156106765761066c6100f992369060248160040135910161186b565b9060243590614273565b8280fd5b5034610113576080366003190112610113576001600160401b03600435116101135760a060043536036003190112610113576024356001600160401b0381116105b6576106cb9036906004016117ba565b91906044356001600160401b038111610676576106ec9036906004016117ba565b6064356001600160401b038111610aa55761070b9036906004016117ba565b9261071a6024600435016118fe565b926001600160401b03600554166001600160401b0360075416946001600160401b03806107478885611940565b169116141580610c0d575b610bfb57604051602081019060208252610783816107758d60408301908d611abc565b03601f198101835282611747565b5190206084600435013503610be9576040516020808201526107b18161077560408201600435600401611bf0565b60208151910120946001600160401b03806107da6107d36024600435016118fe565b9385611940565b16911614600014610aa95750916107fb610803926108099695943691611815565b93369161186b565b91614273565b6001600160401b0361081f6024600435016118fe565b168252816020526040822092600435600401356042196004353603018112156105b257600435016001600160401b0361085a600483016118fe565b166001600160401b031986541617855560248101359060221981360301821215610aa55701936001600160401b036004860135116105b257600485013560051b360360248601136105b257600160401b600486013511610a915760019485820180546004830135825580600484013510610a72575b506024820190865260208620865b60048401358110610a545750505050839450600281016001600160401b036109096024600435016118fe565b166001600160401b03198254161790556044600435013560038201556001600160401b0361093b6064600435016118fe565b1660048201906001600160401b03198254161790556005608460043501359101556001600160401b036109726024600435016118fe565b168352601d602052610988604084203390611d65565b506001600160401b0361099f6024600435016118fe565b166001600160401b0319600554161760055560018060a01b036009541691823b15610a4f57610a0992849283604051809681958294637a2b59cf60e11b8452604060048501526109f760448501600435600401611bf0565b84810360031901602486015291611abc565b03925af18015610a4457610a30575b50506100f9610a2b6064600435016118fe565b612022565b610a39906116fe565b610113578038610a18565b6040513d84823e3d90fd5b505050fd5b886004916020610a6386611c66565b950194818501550190506108dd565b81875260208720610a8b91810190600485013501611c4f565b386108cf565b634e487b7160e01b84526041600452602484fd5b8480fd5b9550505050929350506001600160401b03610ac86024600435016118fe565b1614610ad3575b5080f35b6001600160401b03610ae96024600435016118fe565b168252816020526040822060405160208101916020835260a06040830152816101208101916001600160401b0381541660e0830152600190818101916040610100850152825480955261014084019289526020892090895b868110610bc85750505060028101546001600160401b0390811660608501526003820154608085015260048201541660a08401526005015460c083015203601f1981018352610b91915082611747565b51902014610b9c5780f35b6001600160401b03610bb26024600435016118fe565b168152601d602052610acf604082203390611d65565b82546001600160a01b03168552879550602090940193918101918101610b41565b604051632d7f750360e21b8152600490fd5b60405163fae4eadb60e01b8152600490fd5b50806001600160401b03610c256024600435016118fe565b161415610752565b5034610113576020366003190112610113576004356000805160206146f283398151915260018154146101b857600181558115610cfc5760ff600d5460081c16610cea57338352600360205281604084205410610cd8576105f98392338452600360205260408420610ca082825461259c565b9055610cae8160025461259c565b6002553384526003602052604084205415610cca575b33613715565b610cd3336145ea565b610cc4565b60405163569d45cf60e11b8152600490fd5b604051631b39f2f360e11b8152600490fd5b604051631036b5ad60e31b8152600490fd5b50602036600319011261011357600435906001600160401b0382116101135736602383011215610113576001600160401b0382600401351161011357602436818460040135850101116105b65760016000805160206146f283398151915254146101b85760016000805160206146f283398151915255610d8c6137e0565b60ff600d5460081c1680611268575b341561125657604184600401350361124457610dbd84600401358386016145ae565b336001600160a01b0390911603610552576110425733600090815260106020526040902060039390840190610e008160040135610dfa8454611e0a565b84611efd565b83601f826004013511600114610fcd578385918360040135610fc0575b5050816004013560011b916000199060040135871b1c19161790555b610e43343361383c565b600f54600654811015610e6a575b505090505b806000805160206146f28339815191525580f35b61ffff601154166001600160401b0360075460401c1611610e515761010061ff0019600d541617600d5560405193602085019060208652600154809252604086019160408160051b88010192600187527fb10e2d527612073b26eecdfd717e6a320cf44b4afac2b0732d9fcbe2b7fa0cf69287915b838310610f735750505050508484957f4914d88063275a25a13b2df37125e216745d812f94c56504be4bd78cf60c9593920390a160018060a01b0360095416610f2b60025480936124d2565b92813b15610aa55784926040519485938492637903ab2760e11b845260048401525af18015610a4457610f5f575b80610e51565b610f68906116fe565b610113578038610f59565b9091929394602083610fb16001938d603f1990820301865289548152848060a01b03858b015416848201526060908160408201520160028a01611e44565b97019201930191909392610edf565b8301013590508338610e1d565b828552602085208592916004830135601f19165b8085106110255760019450836004013511611007575b505060040135811b019055610e39565b82018501356000196004840135891b60f8161c191690553880610ff7565b838201870135835560209485019460019093019290910190610fe1565b611053368460040135838601611783565b926001600160401b036017541660405161106c8161172c565b6002815260208101958652336040820152816000526018602052604060002095815161109781611dea565b6110a081611dea565b60ff80198954169116178755519586516001600160401b03811161122f576110d8816110cf6001850154611e0a565b60018501611efd565b6020601f82116001146111ad579080600293926000805160206146d2833981519152999a6000926111a2575b50508160011b916000199060031b1c19161760018201555b0190604060018060a01b03910151166001600160601b0360a01b8254161790556001600160401b0361114d82611912565b166001600160401b0319601754161760175561118a6040519384936002855233602086015260806040860152608085019181600401359101611a32565b9060608301520390a161119d3433613a4d565b610e56565b015190503880611104565b6001830160005260206000209860005b601f19841681106112175750916000805160206146d283398151915298996001926002959483601f198116106111fe575b505050811b01600182015561111c565b015160001960f88460031b161c191690553880806111ee565b828201518b556001909a0199602092830192016111bd565b85634e487b7160e01b60005260416004526000fd5b6040516318dca5e960e21b8152600490fd5b604051635a78c58160e11b8152600490fd5b611270613c5c565b610d9b565b50346101135780600319360112610113576001906000805160206146f2833981519152828154146101b857828155336000908152601a602052604090209283549061ffff908183169283156113ef57829060101c16918391808795818a01915b611369575b5050508661134b937f197c586353eaed0a1c53e6e540445b94befab8f932c8115d112115ecbeeed514959363ffff000093899a54911693849260101b169063ffffffff19161717905515611352575b6113338133613715565b60408051338152602081019290925290918291820190565b0390a15580f35b336000908152601a60205260409020859055611329565b9091939483811696828810156113e6578760005260208091858252604060002060405161139581611711565b898254928383520154938491015243106113db57859493889688946113bc86958a956124d2565b9c600052526000826040822082815501550116966000190116946112d5565b9850505094936112da565b965094936112da565b6040516364b0557f60e01b8152600490fd5b503461011357806003193601126101135761141a6137e0565b61ffff61143081601454168260115416906124f2565b1661148957600d805462ff000019166201000017905560095481906001600160a01b0316803b156101a65781906004604051809481936341c0e1b560e01b83525af18015610a4457611480575080f35b6100f9906116fe565b604051636b62255160e11b8152600490fd5b5080600319360112610113576114af6137e0565b6100f9613c71565b5034610113576020366003190112610113576114d16137e0565b6100f9600435613ccb565b50346101135760209081600319360112610113576001600160401b0391600435838111610676573660238201121561067657611522903690602481600401359101611783565b923383526012825261ffff6040842054161561161f5783511561160d57338352601e825260408320918451918211610a9157611568826115628554611e0a565b85611efd565b80601f83116001146115a9575083948293949261159e575b50508160011b916000199060031b1c19161790555b610acf33611cfe565b015190503880611580565b90601f198316958486528286209286905b8882106115f5575050836001959697106115dc575b505050811b019055611595565b015160001960f88460031b161c191690553880806115cf565b806001859682949686015181550195019301906115ba565b604051637138356f60e01b8152600490fd5b604051633b4f6e2b60e21b8152336004820152602490fd5b9050816003193601126105b65734156116ef575060ff600d5460081c16610cea573381526003602052604081205415611696575b3381526003602052604081206116823482546124d2565b9055611690346002546124d2565b60025580f35b600454600160401b8110156116db576116b88160016116d69301600455611c7a565b81546001600160a01b0360039290921b91821b19163390911b179055565b61166b565b634e487b7160e01b82526041600452602482fd5b631036b5ad60e31b8152600490fd5b6001600160401b03811161053c57604052565b604081019081106001600160401b0382111761053c57604052565b606081019081106001600160401b0382111761053c57604052565b90601f801991011681019081106001600160401b0382111761053c57604052565b6001600160401b03811161053c57601f01601f191660200190565b92919261178f82611768565b9161179d6040519384611747565b82948184528183011161010e578281602093846000960137010152565b9181601f8401121561010e578235916001600160401b03831161010e576020808501948460051b01011161010e57565b6001600160401b03811161053c5760051b60200190565b35906001600160a01b038216820361010e57565b9291611820826117ea565b9161182e6040519384611747565b829481845260208094019160051b810192831161010e57905b8282106118545750505050565b83809161186084611801565b815201910190611847565b92919092611878846117ea565b916118866040519384611747565b829480845260208094019060051b83019282841161010e5780915b8483106118b057505050505050565b82356001600160401b03811161010e57820184601f8201121561010e5786916118df8683858095359101611783565b8152019201916118a1565b35906001600160401b038216820361010e57565b356001600160401b038116810361010e5790565b9060016001600160401b038093160191821161192a57565b634e487b7160e01b600052601160045260246000fd5b9190916001600160401b038080941691160191821161192a57565b9035603e198236030181121561010e570190565b6001600160401b0391906040820183611987836118ea565b16835260209182810135601e198236030181121561010e570192828435940194841161010e578360051b3603851361010e576040818401529083905260600192919060005b8281106119da575050505090565b909192938280600192838060a01b036119f289611801565b168152019501939291016119cc565b9035601e198236030181121561010e5701602081359101916001600160401b03821161010e57813603831361010e57565b908060209392818452848401376000828201840152601f01601f1916010190565b611a7c611a71611a63838061195b565b60408552604085019061196f565b91602081019061195b565b91602081830391015281359160ff831680930361010e57611aa9604091611ab99484526020810190611a01565b9190928160208201520191611a32565b90565b90918092808252602080920191808260051b86010194846000915b848310611ae8575050505050505090565b90919293949596601f19828203018752611b02888461195b565b90813560de198336030181121561010e57820191604090818352611b26848061195b565b611b3c60e0918285870152610120860190611a53565b92611b498a87018761195b565b6001600160401b03611b7e611b6c603f1997606094898b830301868c0152611a53565b926080948a0135858a015289016118ea565b169160a092838801528701359263ffffffff60e01b841680940361010e578b95611bb4611bc49460c096878b01528a018a611a01565b9290918985030190890152611a32565b94013561010084015201359081151580920361010e578601529684019584019493926001019190611ad7565b90608080611c0f611c01858061195b565b60a0855260a085019061196f565b936001600160401b0380611c25602084016118ea565b16602086015260408201356040860152611c41606083016118ea565b166060850152013591015290565b818110611c5a575050565b60008155600101611c4f565b356001600160a01b038116810361010e5790565b600454811015611cb15760046000527f8a35acfbc15ff81a39ae7d344fd709f28e8600b4aa8c65c6b64bfe7fe36bd19b0190600090565b634e487b7160e01b600052603260045260246000fd5b601f54811015611cb157601f6000527fa03837a25210ee280c2113ff4b77ca23440b19d4866cca721c801278fd08d8070190600090565b6000818152602080526040812054611d6057601f54600160401b8110156116db579082611d4d611d3684600160409601601f55611cc7565b819391549060031b91821b91600019901b19161790565b9055601f54928152602080522055600190565b905090565b91906001830160009082825280602052604082205415600014611de457845494600160401b861015611dd05760018601808255861015611dbc57836040949596828552602085200155549382526020522055600190565b634e487b7160e01b83526032600452602483fd5b634e487b7160e01b83526041600452602483fd5b50925050565b60041115611df457565b634e487b7160e01b600052602160045260246000fd5b90600182811c92168015611e3a575b6020831014611e2457565b634e487b7160e01b600052602260045260246000fd5b91607f1691611e19565b9060009291805491611e5583611e0a565b918282526001938481169081600014611eb75750600114611e77575b50505050565b90919394506000526020928360002092846000945b838610611ea3575050505001019038808080611e71565b805485870183015294019385908201611e8c565b9294505050602093945060ff191683830152151560051b01019038808080611e71565b60005b838110611eed5750506000910152565b8181015183820152602001611edd565b9190601f8111611f0c57505050565b611f38926000526020600020906020601f840160051c83019310611f3a575b601f0160051c0190611c4f565b565b9091508190611f2b565b9080821461201e57611f568154611e0a565b906001600160401b03821161053c578190611f7b82611f758654611e0a565b86611efd565b600090601f8311600114611fb257600092611fa7575b50508160011b916000199060031b1c1916179055565b015490503880611f91565b81526020808220858352818320935090601f1985169083905b828210612005575050908460019594939210611fec575b505050811b019055565b015460001960f88460031b161c19169055388080611fe2565b8495819295850154815560018091019601940190611fcb565b5050565b6017546001600160401b038281169290808316841061204d5760405163040aaa0560e11b8152600490fd5b808360401c168410611e715780604093841c165b8482821611156120c85750509160209161209b7f246f00b61ce672242f33bb680a47147cd54d3dfd04dbb76956ba42f88087bf6394611912565b67ffffffffffffffff60401b60175491831b169067ffffffffffffffff60401b19161760175551908152a1565b816120e6826001600160401b03166000526018602052604060002090565b6002808201548254929491926001600160a01b03918216919060ff1661210b81611dea565b80850361217d575050600361213c600161214294959697019260018060a01b03166000526010602052604060002090565b01611f44565b61215f816001600160401b03166000526018602052604060002090565b916000908184556001936121748582016125a9565b01550116612061565b9091945061218a81611dea565b6003918183036123285750508751936121b2856121ab816001809a01611e44565b0386611747565b84518501916020928a8785830192031261010e578387015189811161010e5787019681603f8901121561010e5787858d990151926121fb6121f285611768565b9a519a8b611747565b838a528d848301011161010e578c926122199184888c019101611eda565b015192816122398460018060a01b03166000526010602052604060002090565b01918751918a8311612313578a9861225b846122558754611e0a565b87611efd565b81601f85116001146122a057506122909798999a8493928492600095612295575b50501b92600019911b1c1916179055612508565b612142565b01519350388061227c565b91601f9b9493919b1984169b866000528c84600020946000915b82106122f8575050846122909a9b9c9d106122de575b50505050811b019055612508565b01519060f884600019921b161c19169055388080806122d0565b8383015186558f9d509487019492830192908101908e6122ba565b60246000634e487b7160e01b81526041600452fd5b91509193889593955193612344856121ab816001809501611e44565b6020808680518101031261010e5781818c9701519561236281611dea565b0361248757849061237382856125f2565b60195461238090436124d2565b9287519061238d82611711565b8482528282018481526001600160a01b0387166000908152601a602052604090209091909283549161ffff9384848180961695869160101c16906123d0916124f2565b169c60009d8e5282870188528d2092518355519101556123ef906124df565b1661ffff198254161790558b519384528301528982015260607f083b080788e20bd0930c2bca2ae4fbc51a59ced08c1b5992271f8cb439498a6391a16009541690813b15610676578291602483928a5195869384926345f5448560e01b845260048401525af190811561247c5750908493929161246d575b50612142565b612476906116fe565b38612467565b8751903d90823e3d90fd5b505082935091612497919261254c565b6009541690813b1561010e578651916316989f6f60e21b83528260048160009485945af190811561247c5750908493929161246d5750612142565b9190820180921161192a57565b90600161ffff8093160191821161192a57565b91909161ffff8080941691160191821161192a57565b9060018060a01b03821660005260106020526040600020818154915581811460001461253357505050565b81111561254357611f3891612681565b611f38916129c7565b90611f389161259460018060a01b03821692836000526010602052612579816001604060002001546124d2565b93600052601060205283600160406000200155600f546124d2565b600f55612681565b9190820391821161192a57565b6125b38154611e0a565b90816125bd575050565b81601f600093116001146125cf575055565b9080839182526125ee601f60208420940160051c840160018501611c4f565b5555565b9061265f6126679260018060a01b038116906000828152601060205261261f85600160408420015461259c565b9281526010602052604081206002810184815481159081612678575b501561266c5750908260039261265a94835581600184015555016125a9565b6129c7565b600f5461259c565b600f55565b925050600101556129c7565b9050153861263b565b919060018060a01b03928381166000948186526020916012835261ffff916040978389822054166128b25783600e5460081c1684601154161061287e576126c66134d4565b60019283825260138652828a83205416886126e082612db2565b106127f8575081526015855283898220541661274f57505050505061274a7f19fe3ca603e87854a0747cc10abf06bac64d61bac73d6d15f2fd3ca448f15264939461272a83612d3d565b516001600160a01b03909216825260208201929092529081906040820190565b0390a1565b61275886613527565b9261276287612db2565b935b81868216116127ba575b505097516001600160a01b0390951685525050505060208101919091529091507fda148fac2e1063174be7bc0895576bdaba90fd14e575463fa26a967cb895cadd90806040810161274a565b80856127d986617fff8f95871c169485885260168c5287205416612db2565b10156127f257906127eb839282613686565b9050612764565b5061276e565b969750899493507ffaeb8de771b867cf357f6b459a7002b62ec45d544a8078a3ecd91200cc826d759899925061274a956015916128336131cc565b835252205416612870575b61284784613157565b61285083612d3d565b516001600160a01b03928316815292909116602083015281906040820190565b61287984612f7c565b61283e565b505050505061274a7f2e8038f5812f763c6ef0c5427cb5a05ce6d7064af2ba7d1d270bc02660b019fd939461272a83613157565b979291506128c385949796956134f0565b976128cd85612db2565b976128d78a6130e8565b8460115416905b85811682811161299057828110156129745750806128fe612904926124df565b90613484565b9b909b5b8b111561292757612919908c6135ed565b6129228b6130e8565b6128de565b505093516001600160a01b0390951685525050505060208101919091529092507f143db27bc2036653dc6f962ff9d0b803163d4af50c256ca9e6927b3d6dcd01979150806040810161274a565b849c919c526013835261298b858886205416612db2565b612908565b5050505050505061274a91929395507f143db27bc2036653dc6f962ff9d0b803163d4af50c256ca9e6927b3d6dcd0197945061272a565b909160018060a01b03928383169060009382855260206015815261ffff95604094878683205416612c01578082526012835287868320541615612bf0578415612b485750612a14836134f0565b97612a1e84612db2565b985b6001808a83161115612b395781617fff911c1690818452601385528a612a4a848a87205416612db2565b1115612a5f57612a5a90826135ed565b612a20565b505091939597509193955b6014541615612b3157612a7b6134d4565b600182526013835285818184205416926016612a9685612db2565b95612a9f6134e2565b600183525220541691612ab183612db2565b11612af857505091516001600160a01b03909216825260208201527f143db27bc2036653dc6f962ff9d0b803163d4af50c256ca9e6927b3d6dcd019790806040810161274a565b9150915061274a7ffaeb8de771b867cf357f6b459a7002b62ec45d544a8078a3ecd91200cc826d7593612b296131cc565b61283e612e15565b505050505050565b50509193959750919395612a6a565b829450612b7c7f4a4c5d1a281180eea1e99d8177fa4798b9f7e019d5c57e7d8d73c6a22199aa5b9392989499969799613315565b8651908152a160145416612b905750505050565b7f2e8038f5812f763c6ef0c5427cb5a05ce6d7064af2ba7d1d270bc02660b019fd9360168492612bbe6134e2565b6001835252205416612be4612bd282612db2565b92612bdb612e15565b61272a83613157565b0390a138808080611e71565b8551632a55ca5360e01b8152600490fd5b84969792939598919415612d02575061fffe9193612c1e86613527565b93612c2887612db2565b9480966001958692831b168160145416925b612c8e575b505099516001600160a01b039097168752505050506020830193909352509192507fda148fac2e1063174be7bc0895576bdaba90fd14e575463fa26a967cb895cadd919050806040810161274a565b818116838111612cfc578d9084811015612ce057505080612cb1612cb7926124df565b906130ff565b9890985b881015612cdb57612ccc9089613686565b612cd5886130e8565b86612c3a565b612c3f565b865260168552852054909890612cf7908716612db2565b612cbb565b50612c3f565b94915050612d369194507f3168ba660eed6ef1dc2258b2247cc05fd0f2f350d39e6ad2e2ebc76a8000b40b95969250612f7c565b51908152a1565b611f3890612dac61ffff91612d5583601454166124df565b9260018060a01b0382169081600052601560205260406000209085169161ffff199183838254161790558260005260166020526040600020906001600160601b0360a01b8254161790556014541617601455612db2565b90613093565b60ff600e54166002811015611df457600103612de3576001600160a01b031660009081526010602052604090205490565b6001600160a01b031660009081526010602052604090206001015490565b61ffff908116600019019190821161192a57565b61ffff8060145416908115612f6a5790600190612e34818311156135d0565b6000828152601660208181526040808420805486865282862080546001600160a01b0392831680895260158752858920805461ffff199081168c17909155918416808a52868a20805484168d17905588885283546001600160a01b03199081169092179093558a895284541690911790925592958795939492939291612ece91908a612ebf83612e01565b1690601454161760145561354c565b848252808652612ee2848484205416612db2565b95859860028160145416995b612f00575b5050505050505050505050565b8181168a8111612f64578a811015612f49575080612cb1612f20926124df565b9a909a5b891015612f4457612f35908b613686565b612f3e8a6130e8565b87612eee565b612ef3565b859b919b52838352612f5f878787205416612db2565b612f24565b50612ef3565b6040516340d9b01160e01b8152600490fd5b612f8590613527565b61ffff90816014541691612f998383613686565b80612fa384612e01565b1661ffff196014541617601455612fb98361354c565b80821680931461308e579161fffe9160009180835260169060209382855260018060a01b0392604092612ff9612ff3868686205416612db2565b87613093565b825280865261300c848484205416612db2565b9585986001988997881b168160145416995b61302f575050505050505050505050565b8181168a8111612f64578a811015613073575080612cb161304f926124df565b9a909a5b891015612f4457613064908b613686565b61306d8a6130e8565b8761301e565b859b919b52838352613089878787205416612db2565b613053565b505050565b9190915b60018061ffff831611156130e25781617fff911c1690836130cd60008481526016602052604060018060a01b0391205416612db2565b10156130e2576130dd9082613686565b613097565b50509050565b60011b906201fffe61fffe83169216820361192a57565b91909161ffff92838216600052601660205261314260018060a01b0361312b8160406000205416612db2565b958316600052601660205260406000205416612db2565b908185106131505750509190565b9350919050565b611f38906131c661ffff9161316f83601154166124df565b9260018060a01b0382169081600052601260205260406000209085169161ffff199183838254161790558260005260136020526040600020906001600160601b0360a01b8254161790556011541617601155612db2565b90613435565b61ffff8060115416908115612f6a57906001906131eb818311156135d0565b6000828152601360208181526040808420805486865282862080546001600160a01b0392831680895260128752858920805461ffff199081168c17909155918416808a52868a20805484168d17905588885283546001600160a01b03199081169092179093558a89528454169091179092559295879593949293929161328591908a61327683612e01565b1690601154161760115561358e565b848252808652613299848484205416612db2565b95859860028160115416995b6132b6575050505050505050505050565b8181168a8111612f64578a8110156132fa5750806128fe6132d6926124df565b9a909a5b891115612f44576132eb908b6135ed565b6132f48a6130e8565b876132a5565b859b919b52838352613310878787205416612db2565b6132da565b61331e906134f0565b9061ffff9081601154169061333382856135ed565b8261333d83612e01565b1661ffff1960115416176011556133538261358e565b82841680921461342f5760009291929183835260139260209484865260018060a01b039160409161339161338b858585205416612db2565b8a613435565b81528587526133a4838383205416612db2565b956133ae896130e8565b978560115416985b8681168a8111613421578a8110156134065750806128fe6133d6926124df565b9a909a5b8911156133f9576133eb908b6135ed565b6133f48a6130e8565b6133b6565b5050505050505092505050565b849b919b5282825261341c868686205416612db2565b6133da565b505050505050505092505050565b92505050565b9190915b60018061ffff831611156130e25781617fff911c16908361346f60008481526013602052604060018060a01b0391205416612db2565b11156130e25761347f90826135ed565b613439565b919061ffff80841660005260136020526134c560018060a01b036134ae8160406000205416612db2565b928416600052601360205260406000205416612db2565b93848211156131505750509190565b61ffff6011541615612f6a57565b61ffff6014541615612f6a57565b6001600160a01b031660009081526012602052604090205461ffff1690811561351557565b60405163f2755e3760e01b8152600490fd5b6001600160a01b031660009081526015602052604090205461ffff1690811561351557565b61ffff16600090815260166020908152604080832080546001600160a01b031981169091556001600160a01b0316835260159091529020805461ffff19169055565b61ffff16600090815260136020908152604080832080546001600160a01b031981169091556001600160a01b0316835260129091529020805461ffff19169055565b156135d757565b634e487b7160e01b600052600160045260246000fd5b61361261ffff808060115416931693613608848611156135d0565b16918211156135d0565b6000828152601360208181526040808420805486865282862080546001600160a01b0392831680895260128752858920805461ffff19908116909b1790559216808852938720805490981689179097559390925284546001600160a01b031990811690931790945593909152825416179055565b6136a161ffff808060145416931693613608848611156135d0565b6000828152601660208181526040808420805486865282862080546001600160a01b0392831680895260158752858920805461ffff19908116909b1790559216808852938720805490981689179097559390925284546001600160a01b031990811690931790945593909152825416179055565b814710613777576000918291829182916001600160a01b03165af13d15613772573d61374081611768565b9061374e6040519283611747565b8152600060203d92013e5b1561376057565b604051630a12f52160e11b8152600490fd5b613759565b60405163cd78605960e01b8152306004820152602490fd5b9190811015611cb15760051b81013590601e198136030182121561010e5701908135916001600160401b03831161010e57602001823603811361010e579190565b9190811015611cb15760051b0190565b60ff600d5460101c166137ef57565b60405163248c8efb60e11b8152600490fd5b600154811015611cb1576003906001600052027fb10e2d527612073b26eecdfd717e6a320cf44b4afac2b0732d9fcbe2b7fa0cf60190600090565b906138519061384b8184613a26565b8261254c565b60ff600d5460081c16156138625750565b60018054600082815b8381106139f5575b50501561387f57505050565b6001600160a01b0383166000908152601060205260409020828101546138d5949091600301604051926138b18461172c565b83526020936138dc8585019260018060a01b03809516845260405198898092611e44565b0388611747565b60408401968752600160401b81101561053c5780866138fd92018755613801565b9290926139df576002935183558583019151166001600160601b0360a01b825416179055019251908151916001600160401b03831161053c57613944836122558754611e0a565b81601f841160011461397d5750928293918392600094613972575b50501b916000199060031b1c1916179055565b01519250388061395f565b919083601f1981168760005284600020946000905b888383106139c557505050106139ac57505050811b019055565b015160001960f88460031b161c19169055388080611fe2565b858701518855909601959485019487935090810190613992565b634e487b7160e01b600052600060045260246000fd5b816139ff82613801565b5001546001600160a01b03878116911614613a1c5701839061386b565b5090508238613873565b60018060a01b03166000526010602052613a4960026040600020019182546124d2565b9055565b91906040519281602085015260208452613a6684611711565b6001600160401b03601754169360405194613a808661172c565b60008652602086019582875260018060a01b03841660408201528160005260186020526040600020968151613ab481611dea565b613abd81611dea565b60ff80198a54169116178855519687516001600160401b03811161053c57613aec816110cf6001850154611e0a565b6020601f8211600114613bd2576000805160206146d28339815191529594928260a09593600293611f389c9d600092613bc7575b50508160011b916000199060031b1c19161760018201555b01906040600180861b03910151166001600160601b03841b8254161790556001600160401b03613b6782611912565b166001600160401b0319601754161760175560405192839160008352600180851b038716602084015260806040840152613bb08251809381608087015260208787019101611eda565b6060830152601f01601f19168101030190a1613a26565b015190503880613b20565b6001830160005260206000209960005b601f1984168110613c44575092600183611f389b9c6002946000805160206146d28339815191529a999760a09997601f19811610613c2b575b505050811b016001820155613b38565b015160001960f88460031b161c19169055388080613c1b565b828201518c556001909b019a60209283019201613be2565b60ff600e54166002811015611df45761057657565b613c79613c5c565b3415611256573360009081526010602052604090206002015415613cb95760ff600d5460081c1615613caf57611f383433613a4d565b611f38343361383c565b60405163528fc16560e01b8152600490fd5b613cd3613c5c565b8015613d3a5733600090815260106020526040902060020154801561161f57811015613d295760ff600d5460081c1615613d1157611f389033613d9f565b80613d1f611f389233613d4c565b610cc481336125f2565b60405162d11df360e61b8152600490fd5b60405163c79cad7b60e01b8152600490fd5b6001600160a01b03166000818152601060205260409020600201549091808210613d8d57613d799161259c565b906000526010602052600260406000200155565b60405163ac69360360e01b8152600490fd5b91906040519281602085015260208452613db884611711565b6001600160401b03601754169360405194613dd28661172c565b60018652602086019582875260018060a01b03841660408201528160005260186020526040600020968151613e0681611dea565b613e0f81611dea565b60ff80198a54169116178855519687516001600160401b03811161053c57613e3e816110cf6001850154611e0a565b6020601f8211600114613f24576000805160206146d28339815191529594928260a09593600293611f389c9d600092613f19575b50508160011b916000199060031b1c19161760018201555b01906040600180861b03910151166001600160601b03841b8254161790556001600160401b03613eb982611912565b166001600160401b0319601754161760175560405192839160018352600180851b038716602084015260806040840152613f028251809381608087015260208787019101611eda565b6060830152601f01601f19168101030190a1613d4c565b015190503880613e72565b6001830160005260206000209960005b601f1984168110613f96575092600183611f389b9c6002946000805160206146d28339815191529a999760a09997601f19811610613f7d575b505050811b016001820155613e8a565b015160001960f88460031b161c19169055388080613f6d565b828201518c556001909b019a60209283019201613f34565b60ff600d5460081c1661409b575b33600090815260106020526040902060020154801561161f57613fde336140a8565b50600090338252601e6020528160408120613ff98154611e0a565b8061405e575b50505060ff600d5460081c161561401b57611f38915033613d9f565b6040611f3892338152600360205220548061403c575b50613d1f8133613d4c565b8061404c6140589260025461259c565b600255610cc4336145ea565b38614031565b82601f8211600114614076575050555b813880613fff565b9091808252614094601f60208420940160051c840160018501611c4f565b555561406e565b6140a3613c5c565b613fbc565b600081815260208080526040822054919290918015614189576000199080820181811161417557601f54908382019182116141615780820361412f575b505050601f54801561411b578101906140fd82611cc7565b909182549160031b1b19169055601f55825280526040812055600190565b634e487b7160e01b85526031600452602485fd5b61414d61413e611d3693611cc7565b90549060031b1c928392611cc7565b9055855283805260408520553880806140e5565b634e487b7160e01b87526011600452602487fd5b634e487b7160e01b86526011600452602486fd5b50505090565b8051821015611cb15760209160051b010190565b811561201e576001600160401b03908180600754169116039080821161192a57600091168152602090601d8252604090818120928251808583829754938481520190855283852092855b8582821061425d5750505061420492500385611747565b8351948515612b3157858110612b315785900493825b86811061422a5750505050505050565b6001906001600160a01b0361423f828561418f565b51168552601c84528585206142558882546124d2565b90550161421a565b855484526001958601958a9550930192016141ed565b91825191614280836117ea565b9360409461429086519182611747565b848152601f1961429f866117ea565b0194602095368784013760005b81811061437657505060009461ffff8060115416600192839182945b614325575b505050505060ff60095460a01c169485810295818704149015171561192a5760646142f99504916143ed565b9015614303575050565b6007811015611df45760ff602492519163282ef1c160e01b8352166004820152fd5b90919293988a858b1683811161436e57600090815260138552205484939291869185916143649161435e906001600160a01b0316612db2565b906124d2565b9b011694936142c8565b5050986142cd565b6001600160a01b0380614389838761418f565b51166000526012885261ffff896000205416156143c957906143b86001926143b1838861418f565b5116612db2565b6143c2828661418f565b52016142ac565b88906143d76024938761418f565b519151633b4f6e2b60e21b815291166004820152fd5b845192946000949084156144d557825185148015906144ca575b6144bd579392919085945b84861061443557505050505050101561442d57600090600690565b600190600090565b90919293949561444f614448888461418f565b51846144e2565b5061445981611dea565b6144ac576001600160a01b03806144708a8861418f565b511691160361449c57614490600191614489898861418f565b51906124d2565b96019493929190614412565b5050505050505050600090600490565b505050505050505050600090600590565b5050505050905090600190565b508351851415614407565b5050505050905090600290565b81519190604183036145135761450c92506020820151906060604084015193015160001a9061451e565b9192909190565b505060009160029190565b91907f7fffffffffffffffffffffffffffffff5d576e7357a4501ddfe92f46681b20a084116145a257926020929160ff608095604051948552168484015260408301526060820152600092839182805260015afa156145965780516001600160a01b0381161561458d57918190565b50809160019190565b604051903d90823e3d90fd5b50505060009160039190565b906145bb604182146135d0565b8060011161010e576145d69136916000190190600101611783565b80516020909101206001600160a01b031690565b60049081549160005b8381106146005750505050565b61460981611c7a565b90546003916001600160a01b039190831b1c81168582161461462f5750506001016145f3565b9293509390600019918281019081116146bc57906146608461465361467f94611c7a565b905490891b1c1691611c7a565b90919082549060031b9160018060a01b03809116831b921b1916179055565b825480156146a757019261469284611c7a565b81939154921b1b191690555538808080611e71565b603184634e487b7160e01b6000525260246000fd5b601185634e487b7160e01b6000525260246000fdfe1c593a2b803c3f9038e8b6743ba79fbc4276d2770979a01d2768ed12bea3243f691bb03ffc16c56fc96b82fd16cd1b3715f0bc3cdc6407005f49bb6205860095a26469706673582212208f0b2dca00ce12f278bfe2050ea40bc385fec465fa932f5b2366cfa84142e38864736f6c63430008130033","linkReferences":{"src/lib/LibStaking.sol":{"LibStaking":[{"start":355,"length":20}]}}},"methodIdentifiers":{"addBootstrapNode(string)":"10fd4261","claim()":"4e71d92d","claimRewardForRelayer()":"ed7c4da1","distributeRewardToRelayers(uint64,uint256)":"f9002bb1","join(bytes)":"6170b162","kill()":"41c0e1b5","leave()":"d66d9e19","preFund()":"0b7fbe60","preRelease(uint256)":"66783c9b","setFederatedPower(address[],bytes[],uint256[])":"da5d09ee","stake()":"3a4b66f1","submitCheckpoint(((uint64,address[]),uint64,bytes32,uint64,bytes32),((((uint64,address[]),(uint8,bytes)),((uint64,address[]),(uint8,bytes)),uint256,uint64,bytes4,bytes,uint256),bool)[],address[],bytes[])":"a8284de3","unstake(uint256)":"2e17de78","validateActiveQuorumSignatures(address[],bytes32,bytes[])":"cc2dc2b9"},"id":75}