{"abi":[{"type":"function","name":"addBootstrapNode","inputs":[{"name":"netAddress","type":"string","internalType":"string"}],"outputs":[],"stateMutability":"nonpayable"},{"type":"function","name":"claim","inputs":[],"outputs":[],"stateMutability":"nonpayable"},{"type":"function","name":"claimRewardForRelayer","inputs":[],"outputs":[],"stateMutability":"nonpayable"},{"type":"function","name":"distributeRewardToRelayers","inputs":[{"name":"height","type":"uint256","internalType":"uint256"},{"name":"reward","type":"uint256","internalType":"uint256"},{"name":"kind","type":"uint8","internalType":"enum QuorumObjKind"}],"outputs":[],"stateMutability":"payable"},{"type":"function","name":"join","inputs":[{"name":"publicKey","type":"bytes","internalType":"bytes"}],"outputs":[],"stateMutability":"payable"},{"type":"function","name":"kill","inputs":[],"outputs":[],"stateMutability":"nonpayable"},{"type":"function","name":"leave","inputs":[],"outputs":[],"stateMutability":"nonpayable"},{"type":"function","name":"pause","inputs":[],"outputs":[],"stateMutability":"nonpayable"},{"type":"function","name":"paused","inputs":[],"outputs":[{"name":"","type":"bool","internalType":"bool"}],"stateMutability":"view"},{"type":"function","name":"preFund","inputs":[],"outputs":[],"stateMutability":"payable"},{"type":"function","name":"preRelease","inputs":[{"name":"amount","type":"uint256","internalType":"uint256"}],"outputs":[],"stateMutability":"nonpayable"},{"type":"function","name":"setFederatedPower","inputs":[{"name":"validators","type":"address[]","internalType":"address[]"},{"name":"publicKeys","type":"bytes[]","internalType":"bytes[]"},{"name":"powers","type":"uint256[]","internalType":"uint256[]"}],"outputs":[],"stateMutability":"nonpayable"},{"type":"function","name":"stake","inputs":[],"outputs":[],"stateMutability":"payable"},{"type":"function","name":"submitBottomUpMsgBatch","inputs":[{"name":"batch","type":"tuple","internalType":"struct BottomUpMsgBatch","components":[{"name":"subnetID","type":"tuple","internalType":"struct SubnetID","components":[{"name":"root","type":"uint64","internalType":"uint64"},{"name":"route","type":"address[]","internalType":"address[]"}]},{"name":"blockHeight","type":"uint256","internalType":"uint256"},{"name":"msgs","type":"tuple[]","internalType":"struct CrossMsg[]","components":[{"name":"message","type":"tuple","internalType":"struct StorableMsg","components":[{"name":"from","type":"tuple","internalType":"struct IPCAddress","components":[{"name":"subnetId","type":"tuple","internalType":"struct SubnetID","components":[{"name":"root","type":"uint64","internalType":"uint64"},{"name":"route","type":"address[]","internalType":"address[]"}]},{"name":"rawAddress","type":"tuple","internalType":"struct FvmAddress","components":[{"name":"addrType","type":"uint8","internalType":"uint8"},{"name":"payload","type":"bytes","internalType":"bytes"}]}]},{"name":"to","type":"tuple","internalType":"struct IPCAddress","components":[{"name":"subnetId","type":"tuple","internalType":"struct SubnetID","components":[{"name":"root","type":"uint64","internalType":"uint64"},{"name":"route","type":"address[]","internalType":"address[]"}]},{"name":"rawAddress","type":"tuple","internalType":"struct FvmAddress","components":[{"name":"addrType","type":"uint8","internalType":"uint8"},{"name":"payload","type":"bytes","internalType":"bytes"}]}]},{"name":"value","type":"uint256","internalType":"uint256"},{"name":"nonce","type":"uint64","internalType":"uint64"},{"name":"method","type":"bytes4","internalType":"bytes4"},{"name":"params","type":"bytes","internalType":"bytes"},{"name":"fee","type":"uint256","internalType":"uint256"}]},{"name":"wrapped","type":"bool","internalType":"bool"}]}]},{"name":"signatories","type":"address[]","internalType":"address[]"},{"name":"signatures","type":"bytes[]","internalType":"bytes[]"}],"outputs":[],"stateMutability":"nonpayable"},{"type":"function","name":"submitCheckpoint","inputs":[{"name":"checkpoint","type":"tuple","internalType":"struct BottomUpCheckpoint","components":[{"name":"subnetID","type":"tuple","internalType":"struct SubnetID","components":[{"name":"root","type":"uint64","internalType":"uint64"},{"name":"route","type":"address[]","internalType":"address[]"}]},{"name":"blockHeight","type":"uint256","internalType":"uint256"},{"name":"blockHash","type":"bytes32","internalType":"bytes32"},{"name":"nextConfigurationNumber","type":"uint64","internalType":"uint64"}]},{"name":"signatories","type":"address[]","internalType":"address[]"},{"name":"signatures","type":"bytes[]","internalType":"bytes[]"}],"outputs":[],"stateMutability":"nonpayable"},{"type":"function","name":"unpause","inputs":[],"outputs":[],"stateMutability":"nonpayable"},{"type":"function","name":"unstake","inputs":[{"name":"amount","type":"uint256","internalType":"uint256"}],"outputs":[],"stateMutability":"nonpayable"},{"type":"function","name":"validateActiveQuorumSignatures","inputs":[{"name":"signatories","type":"address[]","internalType":"address[]"},{"name":"hash","type":"bytes32","internalType":"bytes32"},{"name":"signatures","type":"bytes[]","internalType":"bytes[]"}],"outputs":[],"stateMutability":"view"},{"type":"event","name":"BottomUpCheckpointExecuted","inputs":[{"name":"epoch","type":"uint256","indexed":false,"internalType":"uint256"},{"name":"submitter","type":"address","indexed":false,"internalType":"address"}],"anonymous":false},{"type":"event","name":"BottomUpCheckpointSubmitted","inputs":[{"name":"checkpoint","type":"tuple","indexed":false,"internalType":"struct BottomUpCheckpoint","components":[{"name":"subnetID","type":"tuple","internalType":"struct SubnetID","components":[{"name":"root","type":"uint64","internalType":"uint64"},{"name":"route","type":"address[]","internalType":"address[]"}]},{"name":"blockHeight","type":"uint256","internalType":"uint256"},{"name":"blockHash","type":"bytes32","internalType":"bytes32"},{"name":"nextConfigurationNumber","type":"uint64","internalType":"uint64"}]},{"name":"submitter","type":"address","indexed":false,"internalType":"address"}],"anonymous":false},{"type":"event","name":"NextBottomUpCheckpointExecuted","inputs":[{"name":"epoch","type":"uint256","indexed":false,"internalType":"uint256"},{"name":"submitter","type":"address","indexed":false,"internalType":"address"}],"anonymous":false},{"type":"event","name":"Paused","inputs":[{"name":"account","type":"address","indexed":false,"internalType":"address"}],"anonymous":false},{"type":"event","name":"SubnetBootstrapped","inputs":[{"name":"","type":"tuple[]","indexed":false,"internalType":"struct Validator[]","components":[{"name":"weight","type":"uint256","internalType":"uint256"},{"name":"addr","type":"address","internalType":"address"},{"name":"metadata","type":"bytes","internalType":"bytes"}]}],"anonymous":false},{"type":"event","name":"Unpaused","inputs":[{"name":"account","type":"address","indexed":false,"internalType":"address"}],"anonymous":false},{"type":"error","name":"AddressInsufficientBalance","inputs":[{"name":"account","type":"address","internalType":"address"}]},{"type":"error","name":"AddressShouldBeValidator","inputs":[]},{"type":"error","name":"BatchWithNoMessages","inputs":[]},{"type":"error","name":"CannotConfirmFutureChanges","inputs":[]},{"type":"error","name":"CannotReleaseZero","inputs":[]},{"type":"error","name":"CollateralIsZero","inputs":[]},{"type":"error","name":"DuplicatedGenesisValidator","inputs":[]},{"type":"error","name":"EmptyAddress","inputs":[]},{"type":"error","name":"EnforcedPause","inputs":[]},{"type":"error","name":"ExpectedPause","inputs":[]},{"type":"error","name":"FailedInnerCall","inputs":[]},{"type":"error","name":"InvalidBatchEpoch","inputs":[]},{"type":"error","name":"InvalidCheckpointEpoch","inputs":[]},{"type":"error","name":"InvalidFederationPayload","inputs":[]},{"type":"error","name":"InvalidPublicKeyLength","inputs":[]},{"type":"error","name":"InvalidSignatureErr","inputs":[{"name":"","type":"uint8","internalType":"uint8"}]},{"type":"error","name":"MaxMsgsPerBatchExceeded","inputs":[]},{"type":"error","name":"MethodNotAllowed","inputs":[{"name":"reason","type":"string","internalType":"string"}]},{"type":"error","name":"NoCollateralToWithdraw","inputs":[]},{"type":"error","name":"NotAllValidatorsHaveLeft","inputs":[]},{"type":"error","name":"NotEnoughBalance","inputs":[]},{"type":"error","name":"NotEnoughCollateral","inputs":[]},{"type":"error","name":"NotEnoughFunds","inputs":[]},{"type":"error","name":"NotEnoughGenesisValidators","inputs":[]},{"type":"error","name":"NotGateway","inputs":[]},{"type":"error","name":"NotOwner","inputs":[]},{"type":"error","name":"NotOwnerOfPublicKey","inputs":[]},{"type":"error","name":"NotValidator","inputs":[{"name":"","type":"address","internalType":"address"}]},{"type":"error","name":"PQDoesNotContainAddress","inputs":[]},{"type":"error","name":"PQEmpty","inputs":[]},{"type":"error","name":"ReentrancyError","inputs":[]},{"type":"error","name":"SubnetAlreadyBootstrapped","inputs":[]},{"type":"error","name":"SubnetAlreadyKilled","inputs":[]},{"type":"error","name":"WithdrawExceedingCollateral","inputs":[]}],"bytecode":{"object":"0x6080806040523461001657614f17908161001c8239f35b600080fdfe608080604052600436101561001357600080fd5b600090813560e01c9081630b7fbe60146119595750806310fd4261146117e257806326811936146115cf5780632e17de78146115a25780633a4b66f1146114c65780633f4ba83a1461144e57806341c0e1b5146113bd5780634c860af6146113695780634e71d92d146111d55780635c975abb146111a55780636170b16214610df557806366783c9b14610d145780638456cb5914610cac578063b9ee2bb9146108ad578063cc2dc2b91461082d578063d66d9e19146107e2578063da5d09ee146101a55763ed7c4da1146100e757600080fd5b346101a257806003193601126101a257600080516020614ec283398151915260018154146101905780600183925561011d611c56565b73__$4a8700ca5e162cb61a0c4650a4871f1ad5$__803b1561018c5782602491604051928380926382985e0b60e01b82523360048301525af490811561018157839161016a575b50505580f35b61017390611a3b565b61017e578138610164565b50fd5b6040513d85823e3d90fd5b5050fd5b6040516329f745a760e01b8152600490fd5b80fd5b50346101a25760603660031901126101a2576004356001600160401b0381116107de576101d6903690600401611ae1565b906024356001600160401b0381116107da576101f6903690600401611ae1565b916044356001600160401b0381116107d657610216903690600401611ae1565b9094610220613b94565b610228611c11565b60ff6013541660038110156107c25760010361079257818103610780578481036107805760125460081c60ff161561050f57865b81811061026d575050505050505080f35b61028161027b828888614e30565b90614d0d565b6001600160a01b0361029c610297848689614e71565b611e21565b166001600160a01b03909116036104fd576103066102be610297838588614e71565b6102c9838989614e30565b6102d785888d969496614e71565b356102f260405195869360406020860152606085019161390e565b90604083015203601f198101845283611a69565b6001600160401b03601c541660405161031e81611a4e565b600381526020810184815260018060a01b038416604083015282600052601d602052604060002090825161035181611fa7565b61035a81611fa7565b60ff80198454169116178255518051906001600160401b0382116104e757610392826103896001860154611fc7565b600186016120ba565b602090601f8311600114610460579282600080516020614e8283398151915297959360029360019b9a9896600092610455575b5050600019600383901b1c1916908a1b17818a01555b01906040888060a01b03910151166001600160601b0360a01b8254161790556001600160401b0361040b826121df565b166001600160401b0319601c541617601c5561044660405193849360038552888060a01b031660208501526080806040860152840190613c32565b9060608301520390a10161025c565b0151905038806103c5565b906001840160005260206000209160005b601f19851681106104cf57508360029360019b9a9896938c93600080516020614e828339815191529b9997601f198116106104b6575b505050811b01898201556103db565b015160001960f88460031b161c191690553880806104a7565b91926020600181928685015181550194019201610471565b634e487b7160e01b600052604160045260246000fd5b604051634be9251d60e11b8152600490fd5b9492909391865b868110610681575050505050506001600160401b03600c5416101561066f5761010061ff0019601254161760125560405190602091828101838252600154809152604082019060408160051b8401019460016000527fb10e2d527612073b26eecdfd717e6a320cf44b4afac2b0732d9fcbe2b7fa0cf6926000905b838210610623575050505050807f4914d88063275a25a13b2df37125e216745d812f94c56504be4bd78cf60c959392930390a1600e5460025482916001600160a01b0316803b1561018c578290602460405180948193637903ab2760e11b83528160048401525af180156106185761060857505080f35b61061190611a3b565b6101a25780f35b6040513d84823e3d90fd5b90919293968360036106606060600194603f198b82030187528c5481528c86808060a01b0391015416858201528160408201520160028c01612001565b99019201920190939291610591565b60405163031480b160e51b8152600490fd5b61068f61027b828686614e30565b6001600160a01b03919082806106a9610297858d89614e71565b169116036104fd576106c76106c2610297838b87614e71565b612f7a565b61076e576107686001926106f36106e2610297858d89614e71565b6106ed858a8a614e30565b91613c57565b610716610704610297858d89614e71565b61070f858c8c614e71565b35906126d0565b61075e610727610297858d89614e71565b610732858c8c614e71565b359261073f868b8b614e30565b9190926040519561074f87611a4e565b86521660208501523691611aa5565b6040820152613d34565b01610516565b604051630472b35360e41b8152600490fd5b604051637e65935960e01b8152600490fd5b6107be61079d613bb5565b60405163015538b160e01b8152602060048201529182916024830190613c32565b0390fd5b634e487b7160e01b88526021600452602488fd5b8580fd5b8380fd5b5080fd5b50346101a257806003193601126101a257600080516020614ec2833981519152600181541461019057806001839255610819611c56565b610821613b94565b610829614637565b5580f35b50346101a25760603660031901126101a2576001600160401b036004358181116108a957366023820112156108a957610870903690602481600401359101611b3c565b6044359182116108a957366023830112156108a95761089c6108a6923690602481600401359101611b92565b90602435906149d2565b80f35b8280fd5b50346101a2576003196060368201126107de576001600160401b03600435116107de57608060043560040191600435360301126107de576024356001600160401b0381116108a957610903903690600401611ae1565b91906044356001600160401b038111610ca857610924903690600401611ae1565b9161092d611c56565b60055494600b549561093f8782611c81565b60246004350135141580610c98575b610c86576040519061098660208301836109688a83611d70565b039361097c601f1995868101835282611a69565b5190209882611c81565b6004356024013503610b83575050916109a96109b1926109b79697943691611b3c565b933691611b92565b916149d2565b60246004350135825281602052604082209080356042196004353603018112156107da576004350191600483016001600160401b036109f582611dc1565b16936001600160401b03199485845416178355610a1b6001926024848601930190611dd5565b91906001600160401b038311610b6f57600160401b8311610b6f578154838355808410610b54575b509087959493929190865260208620865b838110610b2d575050505050600480356024810135600284015560448101356003840155606401949101906001600160401b03610a9086611dc1565b16908254161790556024600435013582526022602052610ab4604083203390611f22565b5060043560240135600555600e546001600160a01b0316803b156108a9576040516347dc9b4f60e01b81529183918391829084908290610af79060048301611d70565b03925af1801561061857610b19575b5050610b146108a691611dc1565b6121f7565b610b2290611a3b565b6107de578138610b06565b84959697506020610b418495969394611e21565b848301558a989796959401929101610a54565b82895260208920610b69918101908501611e0a565b38610a43565b634e487b7160e01b88526041600452602488fd5b945094505050506024600435013514610b9b57505080f35b60246004350135835282602052604083206040519060208201926020845260806040840152826101008101926001600160401b0381541660c083015260019081810191604060e085015282548096526101208401928a5260208a20908a5b878110610c65575050506002810154606084015260038101546080840152600401546001600160401b031660a0830152039081018352610c3a915082611a69565b51902014610c455780f35b6024600435013581526022602052610c61604082203390611f22565b5080f35b82546001600160a01b03168552889550602090940193918101918101610bf9565b60405163fae4eadb60e01b8152600490fd5b508060246004350135141561094e565b8480fd5b50346101a257806003193601126101a257610cc5611c11565b610ccd611c56565b600080516020614ea2833981519152600160ff198254161790557f5db9ee0a495bf2e6ff9c91a7834c1ba4fdd244a5e8aa4e537bd38aeae4b073aa6020604051338152a180f35b50346101a25760203660031901126101a257600435600080516020614ec2833981519152600181541461019057600181558115610de35760ff60125460081c16610dd157338352600360205281604084205410610dbf576108298392338452600360205260408420610d87828254612764565b9055610d9581600254612764565b6002553384526003602052604084205415610db1575b33613b1a565b610dba33614d49565b610dab565b60405163569d45cf60e11b8152600490fd5b604051631b39f2f360e11b8152600490fd5b604051631036b5ad60e31b8152600490fd5b5060203660031901126101a2576004356001600160401b0381116107de57366023820112156107de576001600160401b038160040135116107de573660248260040135830101116107de576001600080516020614ec28339815191525414610190576001600080516020614ec283398151915255610e71611c56565b610e79613b94565b60ff60125460081c1680611198575b341561118657336000908152601560205260409020600201546111115760418260040135036110ff57336001600160a01b03610ecb600485013560248601614d0d565b16036104fd57610f0e57806024610ee89260040135910133613c57565b610ef23433613ea8565b610efa6141fd565b80600080516020614ec28339815191525580f35b610f2036826004013560248401611aa5565b6001600160401b03601c54169060405190610f3a82611a4e565b600282526020820190815233604083015282600052601d6020526040600020908251610f6581611fa7565b610f6e81611fa7565b60ff80198454169116178255518051906001600160401b0382116104e757610f9d826103896001860154611fc7565b602090601f8311600114611077579282600080516020614e82833981519152979593600293611054989660009261106c575b50508160011b916000199060031b1c19161760018201555b0190604060018060a01b03910151166001600160601b0360a01b8254161790556001600160401b03611018826121df565b166001600160401b0319601c541617601c556040519283926002845233602085015260806040850152608084019060248160040135910161390e565b9060608301520390a16110673433613fe3565b610efa565b015190503880610fcf565b906001840160005260206000209160005b601f19851681106110e7575083600293611054989693600193600080516020614e828339815191529b9997601f198116106110ce575b505050811b016001820155610fe7565b015160001960f88460031b161c191690553880806110be565b91926020600181928685015181550194019201611088565b6040516318dca5e960e21b8152600490fd5b6107be60405161112081611a4e565b603281527f4d6574686f64206e6f7420616c6c6f7765642069662076616c696461746f72206020820152711a185cc8185b1c9958591e481a9bda5b995960721b604082015260405191829163015538b160e01b8352602060048401526024830190613c32565b604051635a78c58160e11b8152600490fd5b6111a06141e8565b610e88565b50346101a257806003193601126101a257602060ff600080516020614ea283398151915254166040519015158152f35b50346101a257806003193601126101a257600190600080516020614ec2833981519152828154146101905782815561120b611c56565b336000908152601f602052604090209283549061ffff9081831692831561135757829060101c16918391808795818a01915b6112d1575b505050866112b3937f197c586353eaed0a1c53e6e540445b94befab8f932c8115d112115ecbeeed514959363ffff000093899a54911693849260101b169063ffffffff191617179055156112ba575b61129b8133613b1a565b60408051338152602081019290925290918291820190565b0390a15580f35b336000908152601f60205260409020859055611291565b90919394838116968288101561134e57876000526020809185825260406000206040516112fd81611a20565b89825492838352015493849101524310611343578594938896889461132486958a95611c81565b9c6000525260008260408220828155015501169660001901169461123d565b985050509493611242565b96509493611242565b6040516364b0557f60e01b8152600490fd5b5060603660031901126101a25760443560028110156107de5761138a611c56565b600e546001600160a01b031633036113ab576108a69060243560043561482f565b60405163e7e601db60e01b8152600490fd5b50346101a257806003193601126101a2576113d6613b94565b61ffff6113ec81601954168260165416906126ba565b1661143c576012805462ff0000191662010000179055600e5481906001600160a01b0316803b1561017e578180916004604051809481936341c0e1b560e01b83525af18015610618576106085750f35b604051636b62255160e11b8152600490fd5b50346101a257806003193601126101a257611467611c11565b600080516020614ea2833981519152805460ff8116156114b45760ff191690557f5db9ee0a495bf2e6ff9c91a7834c1ba4fdd244a5e8aa4e537bd38aeae4b073aa6020604051338152a180f35b604051638dfc202b60e01b8152600490fd5b50806003193601126101a2576114da611c56565b6114e2613b94565b6114ea6141e8565b34156111865733600090815260156020526040902060020154156115315760125460081c60ff166115275761151f3433613ea8565b6108a66141fd565b6108a63433613fe3565b6107be60405161154081611a4e565b602e81527f4d6574686f64206e6f7420616c6c6f7765642069662076616c696461746f722060208201526d1a185cc81b9bdd081a9bda5b995960921b604082015260405191829163015538b160e01b8352602060048401526024830190613c32565b50346101a25760203660031901126101a2576115bc611c56565b6115c4613b94565b6108a6600435614367565b50346101a2576003196060368201126107de576004356001600160401b03918282116107da576060826004019183360301126107da57602435838111610ca85761161d903690600401611ae1565b91906044358581116117de57611637903690600401611ae1565b916024860135966006549687891061179357604401906116578287611dd5565b919050600954168091116117cc5761166f8287611dd5565b90501415806117a5575b611793576116879085611dd5565b90501561178157879460405160208101906116b4816116a68985613998565b03601f198101835282611a69565b5190209688036116e557505050505050600754146116d0575080f35b81526023602052610c61604082203390611f22565b6116ff93926109a9889698936109b1939a989a3691611b3c565b80602060405161170e81611a20565b8481520152816006556007558252602360205261172f604083203390611f22565b50600e546001600160a01b031690813b1561018c57829161176691604051948580948193630bed761560e01b835260048301613998565b03925af1801561061857611778575080f35b6108a690611a3b565b6040516338d2307f60e01b8152600490fd5b60405163200c52f760e21b8152600490fd5b5060085480156117b85788061515611679565b634e487b7160e01b8a52601260045260248afd5b60405163351c700760e01b8152600490fd5b8680fd5b50346101a257602090816003193601126101a2576001600160401b03916004358381116108a957366023820112156108a957611828903690602481600401359101611aa5565b92611831611c56565b3383526017825261ffff604084205416156119415783511561192f57338352602482526040832091845191821161191b57611876826118708554611fc7565b856120ba565b80601f83116001146118b757508394829394926118ac575b50508160011b916000199060031b1c19161790555b610c6133611eb9565b01519050388061188e565b90601f198316958486528286209286905b888210611903575050836001959697106118ea575b505050811b0190556118a3565b015160001960f88460031b161c191690553880806118dd565b806001859682949686015181550195019301906118c8565b634e487b7160e01b84526041600452602484fd5b604051637138356f60e01b8152600490fd5b604051633b4f6e2b60e21b8152336004820152602490fd5b9050816003193601126107de573415611a11575060ff60125460081c16610dd15733815260036020526040812054156119b8575b3381526003602052604081206119a4348254611c81565b90556119b234600254611c81565b60025580f35b600454600160401b8110156119fd576119da8160016119f89301600455611e35565b81546001600160a01b0360039290921b91821b19163390911b179055565b61198d565b634e487b7160e01b82526041600452602482fd5b631036b5ad60e31b8152600490fd5b604081019081106001600160401b038211176104e757604052565b6001600160401b0381116104e757604052565b606081019081106001600160401b038211176104e757604052565b90601f801991011681019081106001600160401b038211176104e757604052565b6001600160401b0381116104e757601f01601f191660200190565b929192611ab182611a8a565b91611abf6040519384611a69565b829481845281830111611adc578281602093846000960137010152565b600080fd5b9181601f84011215611adc578235916001600160401b038311611adc576020808501948460051b010111611adc57565b6001600160401b0381116104e75760051b60200190565b35906001600160a01b0382168203611adc57565b9291611b4782611b11565b91611b556040519384611a69565b829481845260208094019160051b8101928311611adc57905b828210611b7b5750505050565b838091611b8784611b28565b815201910190611b6e565b92919092611b9f84611b11565b91611bad6040519384611a69565b829480845260208094019060051b830192828411611adc5780915b848310611bd757505050505050565b82356001600160401b038111611adc57820184601f82011215611adc578691611c068683858095359101611aa5565b815201920191611bc8565b7f806e0cbb9fce296bbc336a48f42bf1dbc69722d18d90d6fe705b7582c2bb4bd5546001600160a01b03163303611c4457565b6040516330cd747160e01b8152600490fd5b60ff600080516020614ea28339815191525416611c6f57565b60405163d93c066560e01b8152600490fd5b91908201809211611c8e57565b634e487b7160e01b600052601160045260246000fd5b9035603e1982360301811215611adc570190565b35906001600160401b0382168203611adc57565b9035601e1982360301811215611adc5701602081359101916001600160401b038211611adc578160051b36038313611adc57565b60408201916001600160401b03611d1683611cb8565b1681526060611d2a60209384810190611ccc565b839195604086839601525201929160005b828110611d49575050505090565b909192938280600192838060a01b03611d6189611b28565b16815201950193929101611d3b565b6020815260806001600160401b03611dba6060611da0611d908780611ca4565b85602088015260a0870190611d00565b956020810135604087015260408101358287015201611cb8565b1691015290565b356001600160401b0381168103611adc5790565b903590601e1981360301821215611adc57018035906001600160401b038211611adc57602001918160051b36038313611adc57565b818110611e15575050565b60008155600101611e0a565b356001600160a01b0381168103611adc5790565b600454811015611e6c5760046000527f8a35acfbc15ff81a39ae7d344fd709f28e8600b4aa8c65c6b64bfe7fe36bd19b0190600090565b634e487b7160e01b600052603260045260246000fd5b602554811015611e6c5760256000527f401968ff42a154441da5f6c4c935ac46b8671f0e062baaa62a7545ba53bb6e4c0190600090565b600081815260266020526040812054611f1d57602554600160401b8110156119fd579082611f09611ef284600160409601602555611e82565b819391549060031b91821b91600019901b19161790565b905560255492815260266020522055600190565b905090565b91906001830160009082825280602052604082205415600014611fa157845494600160401b861015611f8d5760018601808255861015611f7957836040949596828552602085200155549382526020522055600190565b634e487b7160e01b83526032600452602483fd5b634e487b7160e01b83526041600452602483fd5b50925050565b60041115611fb157565b634e487b7160e01b600052602160045260246000fd5b90600182811c92168015611ff7575b6020831014611fe157565b634e487b7160e01b600052602260045260246000fd5b91607f1691611fd6565b906000929180549161201283611fc7565b9182825260019384811690816000146120745750600114612034575b50505050565b90919394506000526020928360002092846000945b83861061206057505050500101903880808061202e565b805485870183015294019385908201612049565b9294505050602093945060ff191683830152151560051b0101903880808061202e565b60005b8381106120aa5750506000910152565b818101518382015260200161209a565b9190601f81116120c957505050565b6120f5926000526020600020906020601f840160051c830193106120f7575b601f0160051c0190611e0a565b565b90915081906120e8565b908082146121db576121138154611fc7565b906001600160401b0382116104e7578190612138826121328654611fc7565b866120ba565b600090601f831160011461216f57600092612164575b50508160011b916000199060031b1c1916179055565b01549050388061214e565b81526020808220858352818320935090601f1985169083905b8282106121c25750509084600195949392106121a9575b505050811b019055565b015460001960f88460031b161c1916905538808061219f565b8495819295850154815560018091019601940190612188565b5050565b9060016001600160401b0380931601918211611c8e57565b601c546001600160401b03828116929080831684106122225760405163040aaa0560e11b8152600490fd5b808360401c16841061202e5780604093841c165b84828216111561229d575050916020916122707f246f00b61ce672242f33bb680a47147cd54d3dfd04dbb76956ba42f88087bf63946121df565b67ffffffffffffffff60401b601c5491831b169067ffffffffffffffff60401b191617601c5551908152a1565b816122bb826001600160401b0316600052601d602052604060002090565b6002808201548254929491926001600160a01b03918216919060ff166122e081611fa7565b8085036123525750506003612311600161231794959697019260018060a01b03166000526015602052604060002090565b01612101565b612334816001600160401b0316600052601d602052604060002090565b91600090818455600193612349858201612771565b01550116612236565b9091945061235f81611fa7565b6003918183036124fd57505087519361238785612380816001809a01612001565b0386611a69565b84518501916020928a87858301920312611adc5783870151898111611adc5787019681603f89011215611adc5787858d990151926123d06123c785611a8a565b9a519a8b611a69565b838a528d8483010111611adc578c926123ee9184888c019101612097565b0151928161240e8460018060a01b03166000526015602052604060002090565b01918751918a83116124e8578a986124308461242a8754611fc7565b876120ba565b81601f851160011461247557506124659798999a849392849260009561246a575b50501b92600019911b1c19161790556126d0565b612317565b015193503880612451565b91601f9b9493919b1984169b866000528c84600020946000915b82106124cd575050846124659a9b9c9d106124b3575b50505050811b0190556126d0565b01519060f884600019921b161c19169055388080806124a5565b8383015186558f9d509487019492830192908101908e61248f565b60246000634e487b7160e01b81526041600452fd5b9150919388959395519361251985612380816001809501612001565b60208086805181010312611adc5781818c9701519561253781611fa7565b0361265c57849061254882856127ba565b601e546125559043611c81565b9287519061256282611a20565b8482528282018481526001600160a01b0387166000908152601f602052604090209091909283549161ffff9384848180961695869160101c16906125a5916126ba565b169c60009d8e5282870188528d2092518355519101556125c4906126a7565b1661ffff198254161790558b519384528301528982015260607f083b080788e20bd0930c2bca2ae4fbc51a59ced08c1b5992271f8cb439498a6391a1600e541690813b156108a9578291602483928a5195869384926345f5448560e01b845260048401525af190811561265157509084939291612642575b50612317565b61264b90611a3b565b3861263c565b8751903d90823e3d90fd5b50508293509161266c9192612714565b600e541690813b15611adc578651916316989f6f60e21b83528260048160009485945af1908115612651575090849392916126425750612317565b90600161ffff80931601918211611c8e57565b91909161ffff80809416911601918211611c8e57565b9060018060a01b0382166000526015602052604060002081815491558181146000146126fb57505050565b81111561270b576120f591612849565b6120f591612b8f565b906120f59161275c60018060a01b0382169283600052601560205261274181600160406000200154611c81565b93600052601560205283600160406000200155601454611c81565b601455612849565b91908203918211611c8e57565b61277b8154611fc7565b9081612785575050565b81601f60009311600114612797575055565b9080839182526127b6601f60208420940160051c840160018501611e0a565b5555565b9061282761282f9260018060a01b03811690600082815260156020526127e7856001604084200154612764565b9281526015602052604081206002810184815481159081612840575b5015612834575090826003926128229483558160018401555501612771565b612b8f565b601454612764565b601455565b92505060010155612b8f565b90501538612803565b919060018060a01b03928381166000948186526020916017835261ffff91604097838982205416612a7a578360135460081c16846016541610612a465761288e61369c565b60019283825260188652828a83205416886128a882612f7a565b106129c057508152601a85528389822054166129175750505050506129127f19fe3ca603e87854a0747cc10abf06bac64d61bac73d6d15f2fd3ca448f1526493946128f283612f05565b516001600160a01b03909216825260208201929092529081906040820190565b0390a1565b612920866136ef565b9261292a87612f7a565b935b8186821611612982575b505097516001600160a01b0390951685525050505060208101919091529091507fda148fac2e1063174be7bc0895576bdaba90fd14e575463fa26a967cb895cadd908060408101612912565b80856129a186617fff8f95871c1694858852601b8c5287205416612f7a565b10156129ba57906129b383928261384e565b905061292c565b50612936565b969750899493507ffaeb8de771b867cf357f6b459a7002b62ec45d544a8078a3ecd91200cc826d759899925061291295601a916129fb613394565b835252205416612a38575b612a0f8461331f565b612a1883612f05565b516001600160a01b03928316815292909116602083015281906040820190565b612a4184613144565b612a06565b50505050506129127f2e8038f5812f763c6ef0c5427cb5a05ce6d7064af2ba7d1d270bc02660b019fd93946128f28361331f565b97929150612a8b85949796956136b8565b97612a9585612f7a565b97612a9f8a6132b0565b8460165416905b858116828111612b585782811015612b3c575080612ac6612acc926126a7565b9061364c565b9b909b5b8b1115612aef57612ae1908c6137b5565b612aea8b6132b0565b612aa6565b505093516001600160a01b0390951685525050505060208101919091529092507f143db27bc2036653dc6f962ff9d0b803163d4af50c256ca9e6927b3d6dcd019791508060408101612912565b849c919c5260188352612b53858886205416612f7a565b612ad0565b5050505050505061291291929395507f143db27bc2036653dc6f962ff9d0b803163d4af50c256ca9e6927b3d6dcd019794506128f2565b909160018060a01b0392838316906000938285526020601a815261ffff95604094878683205416612dc9578082526017835287868320541615612db8578415612d105750612bdc836136b8565b97612be684612f7a565b985b6001808a83161115612d015781617fff911c1690818452601885528a612c12848a87205416612f7a565b1115612c2757612c2290826137b5565b612be8565b505091939597509193955b6019541615612cf957612c4361369c565b60018252601883528581818420541692601b612c5e85612f7a565b95612c676136aa565b600183525220541691612c7983612f7a565b11612cc057505091516001600160a01b03909216825260208201527f143db27bc2036653dc6f962ff9d0b803163d4af50c256ca9e6927b3d6dcd0197908060408101612912565b915091506129127ffaeb8de771b867cf357f6b459a7002b62ec45d544a8078a3ecd91200cc826d7593612cf1613394565b612a06612fdd565b505050505050565b50509193959750919395612c32565b829450612d447f4a4c5d1a281180eea1e99d8177fa4798b9f7e019d5c57e7d8d73c6a22199aa5b93929894999697996134dd565b8651908152a160195416612d585750505050565b7f2e8038f5812f763c6ef0c5427cb5a05ce6d7064af2ba7d1d270bc02660b019fd93601b8492612d866136aa565b6001835252205416612dac612d9a82612f7a565b92612da3612fdd565b6128f28361331f565b0390a13880808061202e565b8551632a55ca5360e01b8152600490fd5b84969792939598919415612eca575061fffe9193612de6866136ef565b93612df087612f7a565b9480966001958692831b168160195416925b612e56575b505099516001600160a01b039097168752505050506020830193909352509192507fda148fac2e1063174be7bc0895576bdaba90fd14e575463fa26a967cb895cadd9190508060408101612912565b818116838111612ec4578d9084811015612ea857505080612e79612e7f926126a7565b906132c7565b9890985b881015612ea357612e94908961384e565b612e9d886132b0565b86612e02565b612e07565b8652601b8552852054909890612ebf908716612f7a565b612e83565b50612e07565b94915050612efe9194507f3168ba660eed6ef1dc2258b2247cc05fd0f2f350d39e6ad2e2ebc76a8000b40b95969250613144565b51908152a1565b6120f590612f7461ffff91612f1d83601954166126a7565b9260018060a01b0382169081600052601a60205260406000209085169161ffff1991838382541617905582600052601b6020526040600020906001600160601b0360a01b8254161790556019541617601955612f7a565b9061325b565b60ff601354166003811015611fb157600103612fab576001600160a01b031660009081526015602052604090205490565b6001600160a01b031660009081526015602052604090206001015490565b61ffff9081166000190191908211611c8e57565b61ffff80601954169081156131325790600190612ffc81831115613798565b6000828152601b60208181526040808420805486865282862080546001600160a01b03928316808952601a8752858920805461ffff199081168c17909155918416808a52868a20805484168d17905588885283546001600160a01b03199081169092179093558a89528454169091179092559295879593949293929161309691908a61308783612fc9565b16906019541617601955613714565b8482528086526130aa848484205416612f7a565b95859860028160195416995b6130c8575b5050505050505050505050565b8181168a811161312c578a811015613111575080612e796130e8926126a7565b9a909a5b89101561310c576130fd908b61384e565b6131068a6132b0565b876130b6565b6130bb565b859b919b52838352613127878787205416612f7a565b6130ec565b506130bb565b6040516340d9b01160e01b8152600490fd5b61314d906136ef565b61ffff90816019541691613161838361384e565b8061316b84612fc9565b1661ffff19601954161760195561318183613714565b808216809314613256579161fffe91600091808352601b9060209382855260018060a01b03926040926131c16131bb868686205416612f7a565b8761325b565b82528086526131d4848484205416612f7a565b9585986001988997881b168160195416995b6131f7575050505050505050505050565b8181168a811161312c578a81101561323b575080612e79613217926126a7565b9a909a5b89101561310c5761322c908b61384e565b6132358a6132b0565b876131e6565b859b919b52838352613251878787205416612f7a565b61321b565b505050565b9190915b60018061ffff831611156132aa5781617fff911c1690836132956000848152601b602052604060018060a01b0391205416612f7a565b10156132aa576132a5908261384e565b61325f565b50509050565b60011b906201fffe61fffe831692168203611c8e57565b91909161ffff92838216600052601b60205261330a60018060a01b036132f38160406000205416612f7a565b958316600052601b60205260406000205416612f7a565b908185106133185750509190565b9350919050565b6120f59061338e61ffff9161333783601654166126a7565b9260018060a01b0382169081600052601760205260406000209085169161ffff199183838254161790558260005260186020526040600020906001600160601b0360a01b8254161790556016541617601655612f7a565b906135fd565b61ffff806016541690811561313257906001906133b381831115613798565b6000828152601860208181526040808420805486865282862080546001600160a01b0392831680895260178752858920805461ffff199081168c17909155918416808a52868a20805484168d17905588885283546001600160a01b03199081169092179093558a89528454169091179092559295879593949293929161344d91908a61343e83612fc9565b16906016541617601655613756565b848252808652613461848484205416612f7a565b95859860028160165416995b61347e575050505050505050505050565b8181168a811161312c578a8110156134c2575080612ac661349e926126a7565b9a909a5b89111561310c576134b3908b6137b5565b6134bc8a6132b0565b8761346d565b859b919b528383526134d8878787205416612f7a565b6134a2565b6134e6906136b8565b9061ffff908160165416906134fb82856137b5565b8261350583612fc9565b1661ffff19601654161760165561351b82613756565b8284168092146135f75760009291929183835260189260209484865260018060a01b0391604091613559613553858585205416612f7a565b8a6135fd565b815285875261356c838383205416612f7a565b95613576896132b0565b978560165416985b8681168a81116135e9578a8110156135ce575080612ac661359e926126a7565b9a909a5b8911156135c1576135b3908b6137b5565b6135bc8a6132b0565b61357e565b5050505050505092505050565b849b919b528282526135e4868686205416612f7a565b6135a2565b505050505050505092505050565b92505050565b9190915b60018061ffff831611156132aa5781617fff911c16908361363760008481526018602052604060018060a01b0391205416612f7a565b11156132aa5761364790826137b5565b613601565b919061ffff808416600052601860205261368d60018060a01b036136768160406000205416612f7a565b928416600052601860205260406000205416612f7a565b93848211156133185750509190565b61ffff601654161561313257565b61ffff601954161561313257565b6001600160a01b031660009081526017602052604090205461ffff169081156136dd57565b60405163f2755e3760e01b8152600490fd5b6001600160a01b03166000908152601a602052604090205461ffff169081156136dd57565b61ffff166000908152601b6020908152604080832080546001600160a01b031981169091556001600160a01b03168352601a9091529020805461ffff19169055565b61ffff16600090815260186020908152604080832080546001600160a01b031981169091556001600160a01b0316835260179091529020805461ffff19169055565b1561379f57565b634e487b7160e01b600052600160045260246000fd5b6137da61ffff8080601654169316936137d084861115613798565b1691821115613798565b6000828152601860208181526040808420805486865282862080546001600160a01b0392831680895260178752858920805461ffff19908116909b1790559216808852938720805490981689179097559390925284546001600160a01b031990811690931790945593909152825416179055565b61386961ffff8080601954169316936137d084861115613798565b6000828152601b60208181526040808420805486865282862080546001600160a01b03928316808952601a8752858920805461ffff19908116909b1790559216808852938720805490981689179097559390925284546001600160a01b031990811690931790945593909152825416179055565b9035601e1982360301811215611adc5701602081359101916001600160401b038211611adc578136038313611adc57565b908060209392818452848401376000828201840152601f01601f1916010190565b61395861394d61393f8380611ca4565b604085526040850190611d00565b916020810190611ca4565b91602081830391015281359160ff8316809303611adc5761398560409161399594845260208101906138dd565b919092816020820152019161390e565b90565b60208082526139a78380611ca4565b60609182818501526139be60809283860190611d00565b6139d5604096838101358888015287810190611ccc565b939096601f199686888286030191015284835283830191848660051b8501019880986000955b888710613a1057505050505050505050505090565b909192939495969798999a82828203018752613a2c8c85611ca4565b90813560de1983360301811215611adc578782528201918a90888e6001600160401b03613aa3613a93613a80613a77613a658b80611ca4565b60e080988c01526101208b019061392f565b978a018a611ca4565b96603f1997888a830301868b015261392f565b928d8901358d8901528801611cb8565b169060a091828701528a8701359263ffffffff60e01b8416809403611adc578f95613ada613aea9460c096878b01528a018a6138dd565b929091898503019089015261390e565b940135610100840152013590811515809203611adc578a01529a88019998979660010195870194939291906139fb565b814710613b7c576000918291829182916001600160a01b03165af13d15613b77573d613b4581611a8a565b90613b536040519283611a69565b8152600060203d92013e5b15613b6557565b604051630a12f52160e11b8152600490fd5b613b5e565b60405163cd78605960e01b8152306004820152602490fd5b60ff60125460101c16613ba357565b60405163248c8efb60e11b8152600490fd5b60405190608082018281106001600160401b038211176104e7576040526045825264185c1c195960da1b6060837f4d6574686f64206e6f7420616c6c6f776564206966207065726d697373696f6e60208201527f656420697320656e61626c656420616e64207375626e657420626f6f7473747260408201520152565b90602091613c4b81518092818552858086019101612097565b601f01601f1916010190565b6001600160a01b0316600090815260156020526040902090929190600301906001600160401b0381116104e757613c9881613c928454611fc7565b846120ba565b6000601f8211600114613cd15781929394600092613cc65750508160011b916000199060031b1c1916179055565b01359050388061214e565b601f198216948382526020918281209281905b888210613d1c57505083600195969710613d0257505050811b019055565b0135600019600384901b60f8161c1916905538808061219f565b80600184968294958701358155019501920190613ce4565b60018054600160401b8110156104e757818101808355811015611e6c57600360009183835202918351837fb10e2d527612073b26eecdfd717e6a320cf44b4afac2b0732d9fcbe2b7fa0cf6015560407fb10e2d527612073b26eecdfd717e6a320cf44b4afac2b0732d9fcbe2b7fa0cf87fb10e2d527612073b26eecdfd717e6a320cf44b4afac2b0732d9fcbe2b7fa0cf785019460209560018060a01b0387890151166001600160601b0360a01b82541617905501940151918251926001600160401b0384116119fd57613e1284613e0c8854611fc7565b886120ba565b8491601f8511600114613e4a579394508492919083613e3f575b50501b916000199060031b1c1916179055565b015192503880613e2c565b86815285812093958591601f198316915b88838310613e8e5750505010613e7557505050811b019055565b015160001960f88460031b161c1916905538808061219f565b858701518855909601959485019487935090810190613e5b565b90613ebd90613eb78184613fbc565b82612714565b60ff60125460081c1615613ece5750565b6000908160019283549084815b838110613f6a575b5050505015613ef0575050565b613f6361075e6120f593613f168460018060a01b03166000526015602052604060002090565b0154926003613f378260018060a01b03166000526015602052604060002090565b019060405194613f4686611a4e565b85526001600160a01b031660208501526040519283918290612001565b0382611a69565b818352600381027fb10e2d527612073b26eecdfd717e6a320cf44b4afac2b0732d9fcbe2b7fa0cf701546001600160a01b03878116911614613fae57018590613edb565b509250505038808481613ee3565b60018060a01b03166000526015602052613fdf6002604060002001918254611c81565b9055565b91906040519281602085015260208452613ffc84611a20565b6001600160401b03601c5416936040519461401686611a4e565b60008652602086019582875260018060a01b038416604082015281600052601d602052604060002096815161404a81611fa7565b61405381611fa7565b60ff80198a54169116178855519687516001600160401b0381116104e75761408b816140826001850154611fc7565b600185016120ba565b6020601f821160011461415d57614144949282600080516020614e828339815191529795936002936120f59c9d600092614152575b50508160011b916000199060031b1c19161760018201555b0190604060018060a01b03910151166001600160601b0360a01b8254161790556001600160401b03614109826121df565b166001600160401b0319601c541617601c556040519283926000845260018060a01b0387166020850152608060408501526080840190613c32565b9060608301520390a1613fbc565b0151905038806140c0565b6001830160005260206000209960005b601f19841681106141d05750926001836120f59b9c6002946141449997600080516020614e828339815191529b9997601f198116106141b7575b505050811b0160018201556140d8565b015160001960f88460031b161c191690553880806141a7565b828201518c556001909b019a6020928301920161416d565b60ff601354166003811015611fb15761079257565b601454600a5481101561420e575b50565b61ffff601654166001600160401b03600c5416111561422a5750565b61010061ff00196012541617601255604080516020908181018282526001805480925284830190858360051b850101926000958287527fb10e2d527612073b26eecdfd717e6a320cf44b4afac2b0732d9fcbe2b7fa0cf69387905b89848310614319575050505050505090807f4914d88063275a25a13b2df37125e216745d812f94c56504be4bd78cf60c9593920390a160018060a01b03600e54166142d36002548095611c81565b93813b156108a957906024839285519687938492637903ab2760e11b845260048401525af191821561430f5750501561420b576120f590611a3b565b51903d90823e3d90fd5b92600361435787989995839798949596603f198d82030187528b54815260018060a01b03868d01541685820152606080928201520160028b01612001565b9801920192019094939291614285565b61436f6141e8565b80156143d657336000908152601560205260409020600201548015611941578110156143c55760ff60125460081c16156143ad576120f5903361443b565b806143bb6120f592336143e8565b610dab81336127ba565b60405162d11df360e61b8152600490fd5b60405163c79cad7b60e01b8152600490fd5b6001600160a01b031660008181526015602052604090206002015490918082106144295761441591612764565b906000526015602052600260406000200155565b60405163ac69360360e01b8152600490fd5b9190604051928160208501526020845261445484611a20565b6001600160401b03601c5416936040519461446e86611a4e565b60018652602086019582875260018060a01b038416604082015281600052601d60205260406000209681516144a281611fa7565b6144ab81611fa7565b60ff80198a54169116178855519687516001600160401b0381116104e7576144da816140826001850154611fc7565b6020601f82116001146145ac57614593949282600080516020614e828339815191529795936002936120f59c9d6000926145a1575b50508160011b916000199060031b1c19161760018201555b0190604060018060a01b03910151166001600160601b0360a01b8254161790556001600160401b03614558826121df565b166001600160401b0319601c541617601c556040519283926001845260018060a01b0387166020850152608060408501526080840190613c32565b9060608301520390a16143e8565b01519050388061450f565b6001830160005260206000209960005b601f198416811061461f5750926001836120f59b9c6002946145939997600080516020614e828339815191529b9997601f19811610614606575b505050811b016001820155614527565b015160001960f88460031b161c191690553880806145f6565b828201518c556001909b019a602092830192016145bc565b60ff60125460081c16614724575b3360009081526015602052604090206002015480156119415761466733614731565b50600090338252602460205281604081206146828154611fc7565b806146e7575b50505060ff60125460081c16156146a4576120f591503361443b565b60406120f59233815260036020522054806146c5575b506143bb81336143e8565b806146d56146e192600254612764565b600255610dab33614d49565b386146ba565b82601f82116001146146ff575050555b813880614688565b909180825261471d601f60208420940160051c840160018501611e0a565b55556146f7565b61472c6141e8565b614645565b6000818152602660205260408120549091908015614816576000199080820181811161480257602554908382019182116147ee578082036147ba575b50505060255480156147a65781019061478582611e82565b909182549160031b1b19169055602555815260266020526040812055600190565b634e487b7160e01b84526031600452602484fd5b6147d86147c9611ef293611e82565b90549060031b1c928392611e82565b905584526026602052604084205538808061476d565b634e487b7160e01b86526011600452602486fd5b634e487b7160e01b85526011600452602485fd5b505090565b8051821015611e6c5760209160051b010190565b9190918215613256576040908151906020938483018381106001600160401b038211176104e757845260009283905260028110156149be578061491f5750600b5461487991612764565b8152602283528181208251808286829454938481520190855286852092855b88828210614909575050506148af92500382611a69565b928351948515612cf957858110612cf95785900493825b8681106148d65750505050505050565b6001906001600160a01b036148eb828561481b565b5116855260218452858520614901888254611c81565b9055016148c6565b8554845260019586019587955093019201614898565b84600185921460001461496f57606491519063015538b160e01b82526004820152601f60248201527f72657761726473206e6f7420646566696e656420666f722062617463686573006044820152fd5b608491519063015538b160e01b82526004820152602360248201527f72657761726473206e6f7420646566696e656420666f72206f626a656374206b6044820152621a5b9960ea1b6064820152fd5b634e487b7160e01b83526021600452602483fd5b918251916149df83611b11565b936040946149ef86519182611a69565b848152601f196149fe86611b11565b0194602095368784013760005b818110614ad557505060009461ffff8060165416600192839182945b614a84575b505050505060ff600e5460a01c1694858102958187041490151715611c8e576064614a58950491614b4c565b9015614a62575050565b6006811015611fb15760ff602492519163282ef1c160e01b8352166004820152fd5b90919293988a858b16838111614acd5760009081526018855220548493929186918591614ac391614abd906001600160a01b0316612f7a565b90611c81565b9b01169493614a27565b505098614a2c565b6001600160a01b0380614ae8838761481b565b51166000526017885261ffff89600020541615614b285790614b17600192614b10838861481b565b5116612f7a565b614b21828661481b565b5201614a0b565b8890614b366024938761481b565b519151633b4f6e2b60e21b815291166004820152fd5b84519294600094908415614c345782518514801590614c29575b614c1c579392919085945b848610614b94575050505050501015614b8c57600090600590565b600190600090565b909192939495614bae614ba7888461481b565b5184614c41565b50614bb881611fa7565b614c0b576001600160a01b0380614bcf8a8861481b565b5116911603614bfb57614bef600191614be8898861481b565b5190611c81565b96019493929190614b71565b5050505050505050600090600390565b505050505050505050600090600490565b5050505050905090600190565b508351851415614b66565b5050505050905090600290565b8151919060418303614c7257614c6b92506020820151906060604084015193015160001a90614c7d565b9192909190565b505060009160029190565b91907f7fffffffffffffffffffffffffffffff5d576e7357a4501ddfe92f46681b20a08411614d0157926020929160ff608095604051948552168484015260408301526060820152600092839182805260015afa15614cf55780516001600160a01b03811615614cec57918190565b50809160019190565b604051903d90823e3d90fd5b50505060009160039190565b90614d1a60418214613798565b80600111611adc57614d359136916000190190600101611aa5565b80516020909101206001600160a01b031690565b60049081549160005b838110614d5f5750505050565b614d6881611e35565b90546003916001600160a01b039190831b1c811685821614614d8e575050600101614d52565b929350939060001991828101908111614e1b5790614dbf84614db2614dde94611e35565b905490891b1c1691611e35565b90919082549060031b9160018060a01b03809116831b921b1916179055565b82548015614e06570192614df184611e35565b81939154921b1b19169055553880808061202e565b603184634e487b7160e01b6000525260246000fd5b601185634e487b7160e01b6000525260246000fd5b9190811015611e6c5760051b81013590601e1981360301821215611adc5701908135916001600160401b038311611adc576020018236038113611adc579190565b9190811015611e6c5760051b019056fe1c593a2b803c3f9038e8b6743ba79fbc4276d2770979a01d2768ed12bea3243fc451c9429c27db68f286ab8a68f311f1dccab703ba9423aed29cd397ae63f863691bb03ffc16c56fc96b82fd16cd1b3715f0bc3cdc6407005f49bb6205860095a2646970667358221220f487f4fe0e6e75782ae96580d371978acf3197c7adce5b1b1b8d8058e883ff6e64736f6c63430008130033","linkReferences":{"src/lib/LibStaking.sol":{"LibStaking":[{"start":315,"length":20}]}}},"methodIdentifiers":{"addBootstrapNode(string)":"10fd4261","claim()":"4e71d92d","claimRewardForRelayer()":"ed7c4da1","distributeRewardToRelayers(uint256,uint256,uint8)":"4c860af6","join(bytes)":"6170b162","kill()":"41c0e1b5","leave()":"d66d9e19","pause()":"8456cb59","paused()":"5c975abb","preFund()":"0b7fbe60","preRelease(uint256)":"66783c9b","setFederatedPower(address[],bytes[],uint256[])":"da5d09ee","stake()":"3a4b66f1","submitBottomUpMsgBatch(((uint64,address[]),uint256,((((uint64,address[]),(uint8,bytes)),((uint64,address[]),(uint8,bytes)),uint256,uint64,bytes4,bytes,uint256),bool)[]),address[],bytes[])":"26811936","submitCheckpoint(((uint64,address[]),uint256,bytes32,uint64),address[],bytes[])":"b9ee2bb9","unpause()":"3f4ba83a","unstake(uint256)":"2e17de78","validateActiveQuorumSignatures(address[],bytes32,bytes[])":"cc2dc2b9"},"id":82}