{"abi":[{"type":"function","name":"addBootstrapNode","inputs":[{"name":"netAddress","type":"string","internalType":"string"}],"outputs":[],"stateMutability":"nonpayable"},{"type":"function","name":"claim","inputs":[],"outputs":[],"stateMutability":"nonpayable"},{"type":"function","name":"claimRewardForRelayer","inputs":[],"outputs":[],"stateMutability":"nonpayable"},{"type":"function","name":"distributeRewardToRelayers","inputs":[{"name":"height","type":"uint64","internalType":"uint64"},{"name":"reward","type":"uint256","internalType":"uint256"}],"outputs":[],"stateMutability":"payable"},{"type":"function","name":"join","inputs":[{"name":"publicKey","type":"bytes","internalType":"bytes"}],"outputs":[],"stateMutability":"payable"},{"type":"function","name":"kill","inputs":[],"outputs":[],"stateMutability":"nonpayable"},{"type":"function","name":"leave","inputs":[],"outputs":[],"stateMutability":"nonpayable"},{"type":"function","name":"preFund","inputs":[],"outputs":[],"stateMutability":"payable"},{"type":"function","name":"preRelease","inputs":[{"name":"amount","type":"uint256","internalType":"uint256"}],"outputs":[],"stateMutability":"nonpayable"},{"type":"function","name":"stake","inputs":[],"outputs":[],"stateMutability":"payable"},{"type":"function","name":"submitCheckpoint","inputs":[{"name":"checkpoint","type":"tuple","internalType":"struct BottomUpCheckpoint","components":[{"name":"subnetID","type":"tuple","internalType":"struct SubnetID","components":[{"name":"root","type":"uint64","internalType":"uint64"},{"name":"route","type":"address[]","internalType":"address[]"}]},{"name":"blockHeight","type":"uint64","internalType":"uint64"},{"name":"blockHash","type":"bytes32","internalType":"bytes32"},{"name":"nextConfigurationNumber","type":"uint64","internalType":"uint64"},{"name":"crossMessagesHash","type":"bytes32","internalType":"bytes32"}]},{"name":"messages","type":"tuple[]","internalType":"struct CrossMsg[]","components":[{"name":"message","type":"tuple","internalType":"struct StorableMsg","components":[{"name":"from","type":"tuple","internalType":"struct IPCAddress","components":[{"name":"subnetId","type":"tuple","internalType":"struct SubnetID","components":[{"name":"root","type":"uint64","internalType":"uint64"},{"name":"route","type":"address[]","internalType":"address[]"}]},{"name":"rawAddress","type":"tuple","internalType":"struct FvmAddress","components":[{"name":"addrType","type":"uint8","internalType":"uint8"},{"name":"payload","type":"bytes","internalType":"bytes"}]}]},{"name":"to","type":"tuple","internalType":"struct IPCAddress","components":[{"name":"subnetId","type":"tuple","internalType":"struct SubnetID","components":[{"name":"root","type":"uint64","internalType":"uint64"},{"name":"route","type":"address[]","internalType":"address[]"}]},{"name":"rawAddress","type":"tuple","internalType":"struct FvmAddress","components":[{"name":"addrType","type":"uint8","internalType":"uint8"},{"name":"payload","type":"bytes","internalType":"bytes"}]}]},{"name":"value","type":"uint256","internalType":"uint256"},{"name":"nonce","type":"uint64","internalType":"uint64"},{"name":"method","type":"bytes4","internalType":"bytes4"},{"name":"params","type":"bytes","internalType":"bytes"},{"name":"fee","type":"uint256","internalType":"uint256"}]},{"name":"wrapped","type":"bool","internalType":"bool"}]},{"name":"signatories","type":"address[]","internalType":"address[]"},{"name":"signatures","type":"bytes[]","internalType":"bytes[]"}],"outputs":[],"stateMutability":"nonpayable"},{"type":"function","name":"unstake","inputs":[{"name":"amount","type":"uint256","internalType":"uint256"}],"outputs":[],"stateMutability":"nonpayable"},{"type":"function","name":"validateActiveQuorumSignatures","inputs":[{"name":"signatories","type":"address[]","internalType":"address[]"},{"name":"hash","type":"bytes32","internalType":"bytes32"},{"name":"signatures","type":"bytes[]","internalType":"bytes[]"}],"outputs":[],"stateMutability":"view"},{"type":"event","name":"BottomUpCheckpointExecuted","inputs":[{"name":"epoch","type":"uint64","indexed":false,"internalType":"uint64"},{"name":"submitter","type":"address","indexed":false,"internalType":"address"}],"anonymous":false},{"type":"event","name":"BottomUpCheckpointSubmitted","inputs":[{"name":"checkpoint","type":"tuple","indexed":false,"internalType":"struct BottomUpCheckpoint","components":[{"name":"subnetID","type":"tuple","internalType":"struct SubnetID","components":[{"name":"root","type":"uint64","internalType":"uint64"},{"name":"route","type":"address[]","internalType":"address[]"}]},{"name":"blockHeight","type":"uint64","internalType":"uint64"},{"name":"blockHash","type":"bytes32","internalType":"bytes32"},{"name":"nextConfigurationNumber","type":"uint64","internalType":"uint64"},{"name":"crossMessagesHash","type":"bytes32","internalType":"bytes32"}]},{"name":"submitter","type":"address","indexed":false,"internalType":"address"}],"anonymous":false},{"type":"event","name":"NextBottomUpCheckpointExecuted","inputs":[{"name":"epoch","type":"uint64","indexed":false,"internalType":"uint64"},{"name":"submitter","type":"address","indexed":false,"internalType":"address"}],"anonymous":false},{"type":"event","name":"SubnetBootstrapped","inputs":[{"name":"","type":"tuple[]","indexed":false,"internalType":"struct Validator[]","components":[{"name":"weight","type":"uint256","internalType":"uint256"},{"name":"addr","type":"address","internalType":"address"},{"name":"metadata","type":"bytes","internalType":"bytes"}]}],"anonymous":false},{"type":"error","name":"AddressInsufficientBalance","inputs":[{"name":"account","type":"address","internalType":"address"}]},{"type":"error","name":"AddressShouldBeValidator","inputs":[]},{"type":"error","name":"CannotConfirmFutureChanges","inputs":[]},{"type":"error","name":"CannotReleaseZero","inputs":[]},{"type":"error","name":"CollateralIsZero","inputs":[]},{"type":"error","name":"EmptyAddress","inputs":[]},{"type":"error","name":"FailedInnerCall","inputs":[]},{"type":"error","name":"InvalidCheckpointEpoch","inputs":[]},{"type":"error","name":"InvalidCheckpointMessagesHash","inputs":[]},{"type":"error","name":"InvalidPublicKeyLength","inputs":[]},{"type":"error","name":"InvalidSignatureErr","inputs":[{"name":"","type":"uint8","internalType":"uint8"}]},{"type":"error","name":"MethodNotAllowed","inputs":[]},{"type":"error","name":"NoCollateralToWithdraw","inputs":[]},{"type":"error","name":"NotAllValidatorsHaveLeft","inputs":[]},{"type":"error","name":"NotEnoughBalance","inputs":[]},{"type":"error","name":"NotEnoughCollateral","inputs":[]},{"type":"error","name":"NotEnoughFunds","inputs":[]},{"type":"error","name":"NotGateway","inputs":[]},{"type":"error","name":"NotOwnerOfPublicKey","inputs":[]},{"type":"error","name":"NotStakedBefore","inputs":[]},{"type":"error","name":"NotValidator","inputs":[{"name":"","type":"address","internalType":"address"}]},{"type":"error","name":"PQDoesNotContainAddress","inputs":[]},{"type":"error","name":"PQEmpty","inputs":[]},{"type":"error","name":"ReentrancyError","inputs":[]},{"type":"error","name":"SubnetAlreadyBootstrapped","inputs":[]},{"type":"error","name":"SubnetAlreadyKilled","inputs":[]},{"type":"error","name":"WithdrawExceedingCollateral","inputs":[]}],"bytecode":{"object":"0x60808060405234610016576142bf908161001c8239f35b600080fdfe608080604052600436101561001357600080fd5b600090813560e01c9081630b7fbe60146112a95750806310fd42611461114e5780632e17de78146111295780633a4b66f11461110d57806341c0e1b5146110715780634e71d92d14610ee55780636170b1621461092557806366783c9b14610844578063a8284de31461027f578063cc2dc2b914610202578063d66d9e19146101bf578063ed7c4da11461010b5763f9002bb1146100b057600080fd5b6040366003190112610108576004356001600160401b0381168103610103576009546001600160a01b031633036100f1576100ee9060243590613d04565b80f35b60405163e7e601db60e01b8152600490fd5b600080fd5b80fd5b503461010857806003193601126101085760008051602061426a83398151915260018154146101ad5780600183925573__$4a8700ca5e162cb61a0c4650a4871f1ad5$__803b156101a95782602491604051928380926382985e0b60e01b82523360048301525af490811561019e578391610187575b50505580f35b61019090611370565b61019b578138610181565b50fd5b6040513d85823e3d90fd5b5050fd5b6040516329f745a760e01b8152600490fd5b503461010857806003193601126101085760008051602061426a83398151915260018154146101ad578060018392556101f661379c565b6101fe613b06565b5580f35b5034610108576060366003190112610108576001600160401b0360043581811161027b573660238201121561027b5761024590369060248160040135910161149d565b60443591821161027b573660238301121561027b576102716100ee9236906024816004013591016114f3565b9060243590613ddc565b8280fd5b5034610108576080366003190112610108576001600160401b03600435116101085760a060043536036003190112610108576024356001600160401b038111610840576102d0903690600401611442565b91906044356001600160401b03811161027b576102f1903690600401611442565b6064356001600160401b0381116106b857610310903690600401611442565b9261031f602460043501611586565b926001600160401b03600554166001600160401b0360075416946001600160401b038061034c88856115c8565b169116141580610820575b61080e576040516020810190602082526103888161037a8d60408301908d611744565b03601f1981018352826113cf565b51902060846004350135036107fc576040516020808201526103b68161037a60408201600435600401611878565b60208151910120946001600160401b03806103df6103d8602460043501611586565b93856115c8565b169116146000146106bc5750916104006104089261040e969594369161149d565b9336916114f3565b91613ddc565b6001600160401b03610424602460043501611586565b168252816020526040822092600435600401356042196004353603018112156106b457600435016001600160401b0361045f60048301611586565b166001600160401b0319865416178555602481013590602219813603018212156106b85701936001600160401b036004860135116106b457600485013560051b360360248601136106b457600160401b6004860135116106a05760019485820180546004830135825580600484013510610681575b506024820190865260208620865b600484013581106106595750505050839450600281016001600160401b0361050e602460043501611586565b166001600160401b03198254161790556044600435013560038201556001600160401b03610540606460043501611586565b1660048201906001600160401b03198254161790556005608460043501359101556001600160401b03610577602460043501611586565b168352601d60205261058d6040842033906119d9565b506001600160401b036105a4602460043501611586565b166001600160401b0319600554161760055560018060a01b036009541691823b156106545761060e92849283604051809681958294637a2b59cf60e11b8452604060048501526105fc60448501600435600401611878565b84810360031901602486015291611744565b03925af1801561064957610635575b50506100ee610630606460043501611586565b611c53565b61063e90611370565b61010857803861061d565b6040513d84823e3d90fd5b505050fd5b82356001600160a01b038116810361067d57828201556020929092019188016104e2565b8880fd5b8187526020872061069a918101906004850135016118d7565b386104d4565b634e487b7160e01b84526041600452602484fd5b8380fd5b8480fd5b9550505050929350506001600160401b036106db602460043501611586565b16146106e6575b5080f35b6001600160401b036106fc602460043501611586565b168252816020526040822060405160208101916020835260a06040830152816101208101916001600160401b0381541660e0830152600190818101916040610100850152825480955261014084019289526020892090895b8681106107db5750505060028101546001600160401b0390811660608501526003820154608085015260048201541660a08401526005015460c083015203601f19810183526107a49150826113cf565b519020146107af5780f35b6001600160401b036107c5602460043501611586565b168152601d6020526106e26040822033906119d9565b82546001600160a01b03168552879550602090940193918101918101610754565b604051632d7f750360e21b8152600490fd5b60405163fae4eadb60e01b8152600490fd5b50806001600160401b03610838602460043501611586565b161415610357565b5080fd5b50346101085760203660031901126101085760043560008051602061426a83398151915260018154146101ad576001815581156109135760ff600d5460081c16610901573383526003602052816040842054106108ef576101fe83923384526003602052604084206108b7828254611fe7565b90556108c581600254611fe7565b60025533845260036020526040842054156108e1575b336132c8565b6108ea33614162565b6108db565b60405163569d45cf60e11b8152600490fd5b604051631b39f2f360e11b8152600490fd5b604051631036b5ad60e31b8152600490fd5b50602036600319011261010857600435906001600160401b0382116101085736602383011215610108576001600160401b03826004013511610108576024368184600401358501011161084057600160008051602061426a83398151915254146101ad57600160008051602061426a833981519152556109a361379c565b600d5460ff8160081c1680918192610ed7575b50610ec5573415610eb35760418460040135148015610ea1576109d8906130d4565b836004013560011161027b576109fa366004860135600019016025870161140b565b80516020909101206001600160a01b03163303610e8f57610c815733600090815260106020526040902060029390840190610a438160040135610a3d8454611a5e565b84611b2e565b83601f826004013511600114610c0b578385918360040135610bfe575b5050816004013560011b91600019906004013560031b1c19161790555b610a87343361337d565b600f54600654811015610aae575b505090505b8060008051602061426a8339815191525580f35b61ffff601154166001600160401b0360075460401c1611610a955761010061ff0019600d541617600d556040519360208501602086526001548091526040860160408260051b88010191600187527fb10e2d527612073b26eecdfd717e6a320cf44b4afac2b0732d9fcbe2b7fa0cf69187905b828210610bb357505050508585967f4914d88063275a25a13b2df37125e216745d812f94c56504be4bd78cf60c9593920390a1610b6b60018060a01b036009541691548093611f67565b92813b156106b85784926040519485938492637903ab2760e11b845260048401525af1801561064957610b9f575b80610a95565b610ba890611370565b610108578038610b99565b9091929360206003610bf06001938d603f1990820301865288548152848060a01b03858a0154168482015260609081604082015201898901611a98565b960192019201909291610b21565b8301013590508338610a60565b828552602085208592916004830135601f19165b808510610c645760019450836004013511610c45575b505060040135811b019055610a7d565b8201850135600019600484013560031b60f8161c191690553880610c35565b838201870135835560209485019460019093019290910190610c1f565b610c9236846004013583860161140b565b926001600160401b0360175416604051610cab816113b4565b600281526020810195865233604082015281600052601860205260406000209581516003811015610e7a5760ff80198954169116178755519586516001600160401b038111610e6557610d0e81610d056001850154611a5e565b60018501611b2e565b6020601f8211600114610de35790806002939260008051602061424a833981519152999a600092610dd8575b50508160011b916000199060031b1c19161760018201555b0190604060018060a01b03910151166001600160601b0360a01b8254161790556001600160401b03610d838261159a565b166001600160401b03196017541617601755610dc060405193849360028552336020860152608060408601526080850191816004013591016116ba565b9060608301520390a1610dd33433613592565b610a9a565b015190503880610d3a565b6001830160005260206000209860005b601f1984168110610e4d57509160008051602061424a83398151915298996001926002959483601f19811610610e34575b505050811b016001820155610d52565b015160001960f88460031b161c19169055388080610e24565b828201518b556001909a019960209283019201610df3565b85634e487b7160e01b60005260416004526000fd5b85634e487b7160e01b60005260216004526000fd5b604051634be9251d60e11b8152600490fd5b6040516318dca5e960e21b8152600490fd5b604051635a78c58160e11b8152600490fd5b6040516341f8b8eb60e11b8152600490fd5b60ff915060101c16386109b6565b503461010857806003193601126101085760019060008051602061426a833981519152828154146101ad57828155336000908152601a602052604090209283549061ffff9081831692831561105f57829060101c16918391808795818a01915b610fd9575b50505086610fbb937f197c586353eaed0a1c53e6e540445b94befab8f932c8115d112115ecbeeed514959363ffff000093899a54911693849260101b169063ffffffff19161717905515610fc2575b610fa381336132c8565b60408051338152602081019290925290918291820190565b0390a15580f35b336000908152601a60205260409020859055610f99565b909193948381169682881015611056578760005260208091858252604060002060405161100581611399565b8982549283835201549384910152431061104b578594938896889461102c86958a95611f67565b9c60005252600082604082208281550155011696600019011694610f45565b985050509493610f4a565b96509493610f4a565b6040516364b0557f60e01b8152600490fd5b503461010857806003193601126101085761108a61379c565b61ffff6110a08160145416826011541690611f87565b166110fb57600d805463ff0000001916630100000017905560095481906001600160a01b0316803b1561019b5781906004604051809481936341c0e1b560e01b83525af18015610649576110f2575080f35b6100ee90611370565b604051636b62255160e11b8152600490fd5b50806003193601126101085761112161379c565b6100ee6137bd565b50346101085760203660031901126101085761114361379c565b6100ee60043561381a565b50346101085760209081600319360112610108576001600160401b039160043583811161027b573660238201121561027b5761119490369060248160040135910161140b565b923383526012825261ffff604084205416156112915783511561127f57338352601e8252604083209184519182116106a0576111da826111d48554611a5e565b85611b2e565b80601f831160011461121b5750839482939492611210575b50508160011b916000199060031b1c19161790555b6106e233611972565b0151905038806111f2565b90601f198316958486528286209286905b8882106112675750508360019596971061124e575b505050811b019055611207565b015160001960f88460031b161c19169055388080611241565b8060018596829496860151815501950193019061122c565b604051637138356f60e01b8152600490fd5b604051633b4f6e2b60e21b8152336004820152602490fd5b905081600319360112610840573415611361575060ff600d5460081c16610901573381526003602052604081205415611308575b3381526003602052604081206112f4348254611f67565b905561130234600254611f67565b60025580f35b600454600160401b81101561134d5761132a81600161134893016004556118ee565b81546001600160a01b0360039290921b91821b19163390911b179055565b6112dd565b634e487b7160e01b82526041600452602482fd5b631036b5ad60e31b8152600490fd5b6001600160401b03811161138357604052565b634e487b7160e01b600052604160045260246000fd5b604081019081106001600160401b0382111761138357604052565b606081019081106001600160401b0382111761138357604052565b90601f801991011681019081106001600160401b0382111761138357604052565b6001600160401b03811161138357601f01601f191660200190565b929192611417826113f0565b9161142560405193846113cf565b829481845281830111610103578281602093846000960137010152565b9181601f84011215610103578235916001600160401b038311610103576020808501948460051b01011161010357565b6001600160401b0381116113835760051b60200190565b35906001600160a01b038216820361010357565b92916114a882611472565b916114b660405193846113cf565b829481845260208094019160051b810192831161010357905b8282106114dc5750505050565b8380916114e884611489565b8152019101906114cf565b9291909261150084611472565b9161150e60405193846113cf565b829480845260208094019060051b8301928284116101035780915b84831061153857505050505050565b82356001600160401b03811161010357820184601f82011215610103578691611567868385809535910161140b565b815201920191611529565b35906001600160401b038216820361010357565b356001600160401b03811681036101035790565b9060016001600160401b03809316019182116115b257565b634e487b7160e01b600052601160045260246000fd5b9190916001600160401b03808094169116019182116115b257565b9035603e1982360301811215610103570190565b6001600160401b039190604082018361160f83611572565b16835260209182810135601e19823603018112156101035701928284359401948411610103578360051b36038513610103576040818401529083905260600192919060005b828110611662575050505090565b909192938280600192838060a01b0361167a89611489565b16815201950193929101611654565b9035601e19823603018112156101035701602081359101916001600160401b03821161010357813603831361010357565b908060209392818452848401376000828201840152601f01601f1916010190565b6117046116f96116eb83806115e3565b6040855260408501906115f7565b9160208101906115e3565b91602081830391015281359160ff8316809303610103576117316040916117419484526020810190611689565b91909281602082015201916116ba565b90565b90918092808252602080920191808260051b86010194846000915b848310611770575050505050505090565b90919293949596601f1982820301875261178a88846115e3565b90813560de1983360301811215610103578201916040908183526117ae84806115e3565b6117c460e09182858701526101208601906116db565b926117d18a8701876115e3565b6001600160401b036118066117f4603f1997606094898b830301868c01526116db565b926080948a0135858a01528901611572565b169160a092838801528701359263ffffffff60e01b8416809403610103578b9561183c61184c9460c096878b01528a018a611689565b92909189850301908901526116ba565b94013561010084015201359081151580920361010357860152968401958401949392600101919061175f565b9060808061189761188985806115e3565b60a0855260a08501906115f7565b936001600160401b03806118ad60208401611572565b166020860152604082013560408601526118c960608301611572565b166060850152013591015290565b8181106118e2575050565b600081556001016118d7565b6004548110156119255760046000527f8a35acfbc15ff81a39ae7d344fd709f28e8600b4aa8c65c6b64bfe7fe36bd19b0190600090565b634e487b7160e01b600052603260045260246000fd5b601f5481101561192557601f6000527fa03837a25210ee280c2113ff4b77ca23440b19d4866cca721c801278fd08d8070190600090565b60008181526020805260408120546119d457601f54600160401b81101561134d5790826119c16119aa84600160409601601f5561193b565b819391549060031b91821b91600019901b19161790565b9055601f54928152602080522055600190565b905090565b91906001830160009082825280602052604082205415600014611a5857845494600160401b861015611a445760018601808255861015611a3057836040949596828552602085200155549382526020522055600190565b634e487b7160e01b83526032600452602483fd5b634e487b7160e01b83526041600452602483fd5b50925050565b90600182811c92168015611a8e575b6020831014611a7857565b634e487b7160e01b600052602260045260246000fd5b91607f1691611a6d565b9060009291805491611aa983611a5e565b918282526001938481169081600014611b0b5750600114611acb575b50505050565b90919394506000526020928360002092846000945b838610611af7575050505001019038808080611ac5565b805485870183015294019385908201611ae0565b9294505050602093945060ff191683830152151560051b01019038808080611ac5565b9190601f8111611b3d57505050565b611b69926000526020600020906020601f840160051c83019310611b6b575b601f0160051c01906118d7565b565b9091508190611b5c565b90808214611c4f57611b878154611a5e565b906001600160401b038211611383578190611bac82611ba68654611a5e565b86611b2e565b600090601f8311600114611be357600092611bd8575b50508160011b916000199060031b1c1916179055565b015490503880611bc2565b81526020808220858352818320935090601f1985169083905b828210611c36575050908460019594939210611c1d575b505050811b019055565b015460001960f88460031b161c19169055388080611c13565b8495819295850154815560018091019601940190611bfc565b5050565b6017546001600160401b0382811692908083168410611c7e5760405163040aaa0560e11b8152600490fd5b808360401c168410611ac55780604093841c165b848282161115611cf957505091602091611ccc7f246f00b61ce672242f33bb680a47147cd54d3dfd04dbb76956ba42f88087bf639461159a565b67ffffffffffffffff60401b60175491831b169067ffffffffffffffff60401b19161760175551908152a1565b611d16816001600160401b03166000526018602052604060002090565b60028181015482546001600160a01b03949293918516919060ff166003811015611f52578695818603611da85750506001600160a01b039091166000908152601060205260409020611d6d91600101908401611b75565b611d8a816001600160401b03166000526018602052604060002090565b91600090818455600193611d9f858201611ff4565b01550116611c92565b919394955091885193611dca85611dc3816001809501611a98565b03866113cf565b602080868051810103126101035781818c9701519514600014611f07578490611df3828561203d565b601954611e009043611f67565b92875190611e0d82611399565b8482528282018481526001600160a01b0387166000908152601a602052604090209091909283549161ffff9384848180961695869160101c1690611e5091611f87565b169c60009d8e5282870188528d209251835551910155611e6f90611f74565b1661ffff198254161790558b519384528301528982015260607f083b080788e20bd0930c2bca2ae4fbc51a59ced08c1b5992271f8cb439498a6391a16009541690813b1561027b578291602483928a5195869384926345f5448560e01b845260048401525af1908115611efc57509084939291611eed575b50611d6d565b611ef690611370565b38611ee7565b8751903d90823e3d90fd5b505082935091611f179192611f9d565b6009541690813b15610103578651916316989f6f60e21b83528260048160009485945af1908115611efc57509084939291611eed5750611d6d565b60246000634e487b7160e01b81526021600452fd5b919082018092116115b257565b90600161ffff809316019182116115b257565b91909161ffff808094169116019182116115b257565b90611b6991611fdf60018060a01b03821692836000526010602052611fc781604060002054611f67565b93600052601060205283604060002055600f54611f67565b600f556120c0565b919082039182116115b257565b611ffe8154611a5e565b9081612008575050565b81601f6000931160011461201a575055565b908083918252612039601f60208420940160051c8401600185016118d7565b5555565b906120a16120a99260018060a01b0381169060008281526010602052612067856040832054611fe7565b92815260106020526040812060018101848154811590816120b7575b50156120ae5750908260029261209c9483555501611ff4565b61242d565b600f54611fe7565b600f55565b9250505561242d565b90501538612083565b919060018060a01b03928381169360008581526020956012875261ffff916040978389832054166123115783600e54168460115416106122dd5786612103612b02565b919091106122575750828252601581528389832054166121765750505050506121717f19fe3ca603e87854a0747cc10abf06bac64d61bac73d6d15f2fd3ca448f15264939461215183612955565b516001600160a01b03909216825260208201929092529081906040820190565b0390a1565b6121858695999498979661302b565b92825260109081815284832054935b6001808b831611156122215781617fff911c1690818552601683528b87862054168552838352858786205410156121d4576121cf9082613239565b612194565b505093516001600160a01b0390951685525050505060208101919091529092507fda148fac2e1063174be7bc0895576bdaba90fd14e575463fa26a967cb895cadd91508060408101612171565b50505050505061217191929395507fda148fac2e1063174be7bc0895576bdaba90fd14e575463fa26a967cb895cadd9450612151565b9596506121719450906015899493927ffaeb8de771b867cf357f6b459a7002b62ec45d544a8078a3ecd91200cc826d75999a93612292612ce3565b8352522054166122cf575b6122a684612c71565b6122af83612955565b516001600160a01b03928316815292909116602083015281906040820190565b6122d8846129db565b61229d565b50505050506121717f2e8038f5812f763c6ef0c5427cb5a05ce6d7064af2ba7d1d270bc02660b019fd939461215183612c71565b612322869598979699949399612ff4565b98825260109081815284832054986123398b612c00565b8560115416905b8681168281116123f557828110156123d857508061236061236692611f74565b90612fa2565b9c909c5b8c11156123895761237b908d6131aa565b6123848c612c00565b612340565b505094516001600160a01b0390961686525050505060208201929092529193507f143db27bc2036653dc6f962ff9d0b803163d4af50c256ca9e6927b3d6dcd0197925081905060408101612171565b869d919d526013845282888720541686528484528786205461236a565b505050505050505061217191929395507f143db27bc2036653dc6f962ff9d0b803163d4af50c256ca9e6927b3d6dcd01979450612151565b91909160018060a01b0391828216936000928584526020936015855261ffff9560409587878420541661281b57888352601281528787842054161561280a5784156126965761247b84612ff4565b98835260109182825287842054995b6001808b831611156126855781617fff911c169081865260138452828a8720541686528484528b8a87205411156124ca576124c590826131aa565b61248a565b5050919395979092949698505b80601454161561267a576124e9612b02565b9590946124f4612b5e565b90971061254757505097516001600160a01b0390951685525050505060208101919091529091507f143db27bc2036653dc6f962ff9d0b803163d4af50c256ca9e6927b3d6dcd0197908060408101612171565b919395975091939550612558612ce3565b82601454168015612669578061257361258f929795976130f1565b8661257d826129c7565b1661ffff196014541617601455613050565b600192838352601694858252808b8520541684528282528a8420549585809860028160145416925b6125f6575b50505050505050505050506121717ffaeb8de771b867cf357f6b459a7002b62ec45d544a8078a3ecd91200cc826d7593946122a684612c71565b818116838111612663578f90848110156126485750508061261961261f92611f74565b90612c17565b9a909a5b8a101561264357612634908b613239565b61263d8a612c00565b886125b7565b6125bc565b899c929c5284875285818a2054168952878752882054612623565b506125bc565b89516340d9b01160e01b8152600490fd5b505050505050509050565b5050919395979092949698506124d7565b9283919450976126ca7f4a4c5d1a281180eea1e99d8177fa4798b9f7e019d5c57e7d8d73c6a22199aa5b9396989799612e2c565b8851908152a183601454169384159384156126ea575b5050505050509050565b6126f2612b5e565b9690956127f95780612709612713929694966130f1565b8561257d826129c7565b600191828252601693848152818a8420541683526010918282528a8420549585809860028160145416925b61278c575b505050505050505050505061277d7f2e8038f5812f763c6ef0c5427cb5a05ce6d7064af2ba7d1d270bc02660b019fd939461215183612c71565b0390a1803880808080806126e0565b8181168381116127f3578f90848110156127d8575050806126196127af92611f74565b9a909a5b8a10156127d3576127c4908b613239565b6127cd8a612c00565b8861273e565b612743565b899c929c5284875285818a20541689528787528820546127b3565b50612743565b88516340d9b01160e01b8152600490fd5b8651632a55ca5360e01b8152600490fd5b849698949792919395971561291c579261fffe92949361283a8761302b565b9483526010918282528a8420549580976001968792831b168160145416925b6128ae575b50509a516001600160a01b039098168852505050506020840194909452509293507fda148fac2e1063174be7bc0895576bdaba90fd14e575463fa26a967cb895cadd925090508060408101612171565b818116838111612916578e90808511156128fa575050806126196128d192611f74565b9990995b8910156128f5576128e6908a613239565b6128ef89612c00565b87612859565b61285e565b885260168652872054841687528585528d8720549099906128d5565b5061285e565b9550505050909361294e7f3168ba660eed6ef1dc2258b2247cc05fd0f2f350d39e6ad2e2ebc76a8000b40b94956129db565b51908152a1565b611b6990604061ffff61296b8160145416611f74565b9260018060a01b031660009181835260156020528383209085169061ffff199082828254161790558184526016602052848420836001600160601b0360a01b825416179055601454161760145581526010602052205490612ba8565b61ffff90811660001901919082116115b257565b6129e49061302b565b61ffff8060145416906129f78284613239565b80612a01836129c7565b1661ffff196014541617601455612a1782613050565b808316809214612afd57919061fffe906000818152601691602083815260018060a01b036040948186862054168552601093848452612a59878720548a612ba8565b85528083528186862054168552838352858520549780996001988992831b168160145416925b612a92575b505050505050505050505050565b818116838111612af75783811015612adb575080612619612ab292611f74565b9b909b5b8b1015612ad657612ac7908c613239565b612ad08b612c00565b89612a7f565b612a84565b889c919c52838652848989205416885286865288882054612ab6565b50612a84565b505050565b61ffff6011541615612b4c577f4155c2f711f2cdd34f8262ab8fb9b7020a700fe7b6948222152f7670d1fdf34d546001600160a01b03166000818152601060205260409020549091565b6040516340d9b01160e01b8152600490fd5b61ffff6014541615612b4c577f4c4dc693d7db52f85fe052106f4b4b920e78e8ef37dee82878a60ab8585faf49546001600160a01b03166000818152601060205260409020549091565b9190915b60018061ffff83161115612bfa5781617fff911c169083600083815260209060168252601060409260018060a01b03848420541683525220541015612bfa57612bf59082613239565b612bac565b50509050565b60011b906201fffe61fffe8316921682036115b257565b91909161ffff92604060008584168152601660205260018060a01b03808383205416825260106020528282205496841682526016602052828220541681526010602052205490818510612c6a5750509190565b9350919050565b611b6990604061ffff612c878160115416611f74565b9260018060a01b031660009181835260126020528383209085169061ffff199082828254161790558184526013602052848420836001600160601b0360a01b825416179055601154161760115581526010602052205490612f50565b61ffff80601154168015612b4c576001612cff828211156130d4565b6000818152601360208181526040808420805487865282862080546001600160a01b0392831680895260128752858920805461ffff199081168d17909155918416808a52868a20805484168c17905588885283546001600160a01b031990811690921790935589895284541690911790925593969194939291612d959189612d86836129c7565b16906011541617601155613092565b8483528581528184842054168352601091828252848420549686809960028160115416925b612dcc57505050505050505050505050565b818116838111612af75783811015612e10575080612360612dec92611f74565b9b909b5b8b1115612ad657612e01908c6131aa565b612e0a8b612c00565b89612dba565b889c919c52838652848989205416885286865288882054612df0565b612e3590612ff4565b9061ffff90816011541691612e4a83856131aa565b80612e54846129c7565b1661ffff196011541617601155612e6a83613092565b808416809314612f4a5760009280845260139360209185835260018060a01b03926040938085852054168452601092838352612ea9868620548b612f50565b845287825280858520541684528282528484205497612ec78a612c00565b8760115416905b888116828111612f3b5782811015612f1f575080612360612eee92611f74565b9b909b5b8b1115612f1157612f03908c6131aa565b612f0c8b612c00565b612ece565b505050505050505050915050565b879c919c52828552838888205416875285855287872054612ef2565b50505050505050505050915050565b50915050565b9190915b60018061ffff83161115612bfa5781617fff911c169083600083815260209060138252601060409260018060a01b03848420541683525220541115612bfa57612f9d90826131aa565b612f54565b919061ffff604060008286168152601360205260018060a01b0380838320541682526010602052828220549385168252601360205282822054168152601060205220549384821115612c6a5750509190565b6001600160a01b031660009081526012602052604090205461ffff1690811561301957565b60405163f2755e3760e01b8152600490fd5b6001600160a01b031660009081526015602052604090205461ffff1690811561301957565b61ffff16600090815260166020908152604080832080546001600160a01b031981169091556001600160a01b0316835260159091529020805461ffff19169055565b61ffff16600090815260136020908152604080832080546001600160a01b031981169091556001600160a01b0316835260129091529020805461ffff19169055565b156130db57565b634e487b7160e01b600052600160045260246000fd5b61311461ffff80601454169261310a84600111156130d4565b16918211156130d4565b601660208181527f4c4dc693d7db52f85fe052106f4b4b920e78e8ef37dee82878a60ab8585faf4980546000858152604080822080546001600160a01b0394851680855260158852838520805461ffff19908116909b1790559416808452918320805490981660019081179098559590945284546001600160a01b03199081169092179094559390925281549092169091179055565b6131c561ffff80806011541693169361310a848611156130d4565b6000828152601360208181526040808420805486865282862080546001600160a01b0392831680895260128752858920805461ffff19908116909b1790559216808852938720805490981689179097559390925284546001600160a01b031990811690931790945593909152825416179055565b61325461ffff80806014541693169361310a848611156130d4565b6000828152601660208181526040808420805486865282862080546001600160a01b0392831680895260158752858920805461ffff19908116909b1790559216808852938720805490981689179097559390925284546001600160a01b031990811690931790945593909152825416179055565b81471061332a576000918291829182916001600160a01b03165af13d15613325573d6132f3816113f0565b9061330160405192836113cf565b8152600060203d92013e5b1561331357565b604051630a12f52160e11b8152600490fd5b61330c565b60405163cd78605960e01b8152306004820152602490fd5b600154811015611925576003906001600052027fb10e2d527612073b26eecdfd717e6a320cf44b4afac2b0732d9fcbe2b7fa0cf60190600090565b906133929061338c818461356b565b82611f9d565b60ff600d5460081c16156133a35750565b60018054600082815b83811061353a575b5050156133c057505050565b6001600160a01b03831660009081526010602052604090208054613414949091600201604051926133f0846113b4565b835260209361341b8585019260018060a01b03809516845260405198898092611a98565b03886113cf565b60408401968752600160401b81101561138357808661343c92018755613342565b929092613524576002935183558583019151166001600160601b0360a01b825416179055019251908151916001600160401b03831161138357613489836134838754611a5e565b87611b2e565b81601f84116001146134c257509282939183926000946134b7575b50501b916000199060031b1c1916179055565b0151925038806134a4565b919083601f1981168760005284600020946000905b8883831061350a57505050106134f157505050811b019055565b015160001960f88460031b161c19169055388080611c13565b8587015188559096019594850194879350908101906134d7565b634e487b7160e01b600052600060045260246000fd5b8161354482613342565b5001546001600160a01b03878116911614613561570183906133ac565b50905082386133b4565b60018060a01b0316600052601060205261358e6001604060002001918254611f67565b9055565b91906040928351602083818301528082526135ac82611399565b6001600160401b038060175416918751976135c6896113b4565b600092838a52828a0199868b528281019060018060a01b0390818a169c8d845288885260188752858820915160038110156137885760ff8019845416911617825560018083019151908151918783116137745761362783611ba68654611a5e565b89908b601f85116001146137065793600295938193829360809d9c9b9a9997946136fb575b50501b916000199060031b1c19161790555b019151166001600160601b0360a01b82541617905561367c8661159a565b166001600160401b03196017541617601755805199848b52838b01528901528351938460808a0152825b8581106136e7575050508683819360a0938460008051602061424a83398151915297611b699b9c0101526060830152601f80199101168101030190a161356b565b8181018301518a820160a0015282016136a6565b01519250388061364c565b50848c528a8c209293929190601f1984168d5b8d8282106137605750509160809b9a99989795939185600298969410613747575b505050811b01905561365e565b015160001960f88460031b161c1916905538808061373a565b838501518655948701949384019301613719565b634e487b7160e01b8b52604160045260248bfd5b634e487b7160e01b89526021600452602489fd5b60ff600d5460181c166137ab57565b60405163248c8efb60e11b8152600490fd5b600d5460ff8160101c16610ec5573415610eb35733600090815260106020526040902060010154156138085760081c60ff16156137fe57611b693433613592565b611b69343361337d565b60405163528fc16560e01b8152600490fd5b600d5460ff8160101c16610ec557811561388c573360009081526010602052604090206001015480156112915782101561387b5760081c60ff161561386357611b6990336138f1565b80613871611b69923361389e565b6108db813361203d565b60405162d11df360e61b8152600490fd5b60405163c79cad7b60e01b8152600490fd5b6001600160a01b031660008181526010602052604090206001015490918082106138df576138cb91611fe7565b906000526010602052600160406000200155565b60405163ac69360360e01b8152600490fd5b9190604051928160208501526020845261390a84611399565b6001600160401b0380601754169060405191613925836113b4565b60018352602083019187835260018060a01b039384861660408201526000938385526018602052604085209082516003811015613af25760ff80198454169116178255518051848111613ade57908291600189940191613989826111d48554611a5e565b602090601f8311600114613a7157918060029492604096948c92613a66575b50508160011b916000199060031b1c19161790555b01920151166001600160601b0360a01b8254161790556139dc8261159a565b166001600160401b0319601754161760175560405192600184528416602084015260806040840152865191826080850152805b838110613a505750611b69969750928260a09260008051602061424a83398151915295848496850101526060830152601f80199101168101030190a161389e565b80602080928b01015160a0828801015201613a0f565b0151905038806139a8565b838a5260208a209190601f1984168b5b818110613ac35750926001928592604098966002989610613aaa575b505050811b0190556139bd565b015160001960f88460031b161c19169055388080613a9d565b8284015185558d985060019094019360209384019301613a81565b634e487b7160e01b87526041600452602487fd5b634e487b7160e01b87526021600452602487fd5b600d5460ff8160081c169081613bfb575b50610ec55733600090815260106020526040902060010154801561129157613b3e33613c09565b50600090338252601e6020528160408120613b598154611a5e565b80613bbe575b50505060ff600d5460081c1615613b7b57611b699150336138f1565b6040611b69923381526003602052205480613b9c575b50613871813361389e565b80613bac613bb892600254611fe7565b6002556108db33614162565b38613b91565b82601f8211600114613bd6575050555b813880613b5f565b9091808252613bf4601f60208420940160051c8401600185016118d7565b5555613bce565b60ff915060101c1638613b17565b600081815260208080526040822054919290918015613cea5760001990808201818111613cd657601f5490838201918211613cc257808203613c90575b505050601f548015613c7c57810190613c5e8261193b565b909182549160031b1b19169055601f55825280526040812055600190565b634e487b7160e01b85526031600452602485fd5b613cae613c9f6119aa9361193b565b90549060031b1c92839261193b565b905585528380526040852055388080613c46565b634e487b7160e01b87526011600452602487fd5b634e487b7160e01b86526011600452602486fd5b50505090565b80518210156119255760209160051b010190565b8115611c4f576001600160401b0390818060075416911603908082116115b257600091168152602090601d8252604090818120928251808583829754938481520190855283852092855b85828210613dc657505050613d65925003856113cf565b8351948515613dbe57858110613dbe5785900493825b868110613d8b5750505050505050565b6001906001600160a01b03613da08285613cf0565b51168552601c8452858520613db6888254611f67565b905501613d7b565b505050505050565b855484526001958601958a955093019201613d4e565b91825191613de983611472565b93604094613df9865191826113cf565b848152601f19613e0886611472565b0194602095368784013760005b818110613efa57505060009461ffff8060115416600192839182945b613ea4575b505050505060ff60095460a01c16948581029581870414901517156115b2576064613e62950491613f87565b9015613e6c575050565b6007811015613e8e5760ff602492519163282ef1c160e01b8352166004820152fd5b634e487b7160e01b600052602160045260246000fd5b90919293988a858b16838111613ef257600090815260138552908120546001600160a01b031681526010602052604090208493929186918591613ee8915490611f67565b9b01169493613e31565b505098613e36565b6001600160a01b0380613f0d8387613cf0565b51166000526012885261ffff89600020541615613f635790613f51600192613f358388613cf0565b51166001600160a01b0316600090815260106020526040902090565b54613f5c8286613cf0565b5201613e15565b8890613f7160249387613cf0565b519151633b4f6e2b60e21b815291166004820152fd5b84519294600094908415614089578251851480159061407e575b614071579392919085945b848610613fcf575050505050501015613fc757600090600690565b600190600090565b909192939495613fe9613fe28884613cf0565b5184614096565b50906004918281101561405c5761404a576001600160a01b038061400d8b89613cf0565b511691160361403a575061402e6001916140278988613cf0565b5190611f67565b96019493929190613fac565b9897505050505050505060009190565b50505050505050505050600090600590565b602183634e487b7160e01b6000525260246000fd5b5050505050905090600190565b508351851415613fa1565b5050505050905090600290565b81519190604183036140c7576140c092506020820151906060604084015193015160001a906140d2565b9192909190565b505060009160029190565b91907f7fffffffffffffffffffffffffffffff5d576e7357a4501ddfe92f46681b20a0841161415657926020929160ff608095604051948552168484015260408301526060820152600092839182805260015afa1561414a5780516001600160a01b0381161561414157918190565b50809160019190565b604051903d90823e3d90fd5b50505060009160039190565b60049081549160005b8381106141785750505050565b614181816118ee565b90546003916001600160a01b039190831b1c8116858216146141a757505060010161416b565b92935093906000199182810190811161423457906141d8846141cb6141f7946118ee565b905490891b1c16916118ee565b90919082549060031b9160018060a01b03809116831b921b1916179055565b8254801561421f57019261420a846118ee565b81939154921b1b191690555538808080611ac5565b603184634e487b7160e01b6000525260246000fd5b601185634e487b7160e01b6000525260246000fdfe1c593a2b803c3f9038e8b6743ba79fbc4276d2770979a01d2768ed12bea3243f691bb03ffc16c56fc96b82fd16cd1b3715f0bc3cdc6407005f49bb6205860095a2646970667358221220b83df8bd528eba74ff9b100de9236795e2b7a2e8252abd02282c3e9d7db2f06364736f6c63430008130033","linkReferences":{"src/lib/LibStaking.sol":{"LibStaking":[{"start":344,"length":20}]}}},"methodIdentifiers":{"addBootstrapNode(string)":"10fd4261","claim()":"4e71d92d","claimRewardForRelayer()":"ed7c4da1","distributeRewardToRelayers(uint64,uint256)":"f9002bb1","join(bytes)":"6170b162","kill()":"41c0e1b5","leave()":"d66d9e19","preFund()":"0b7fbe60","preRelease(uint256)":"66783c9b","stake()":"3a4b66f1","submitCheckpoint(((uint64,address[]),uint64,bytes32,uint64,bytes32),((((uint64,address[]),(uint8,bytes)),((uint64,address[]),(uint8,bytes)),uint256,uint64,bytes4,bytes,uint256),bool)[],address[],bytes[])":"a8284de3","unstake(uint256)":"2e17de78","validateActiveQuorumSignatures(address[],bytes32,bytes[])":"cc2dc2b9"},"id":75}