{"abi":[{"type":"function","name":"addBootstrapNode","inputs":[{"name":"netAddress","type":"string","internalType":"string"}],"outputs":[],"stateMutability":"nonpayable"},{"type":"function","name":"claim","inputs":[],"outputs":[],"stateMutability":"nonpayable"},{"type":"function","name":"claimRewardForRelayer","inputs":[],"outputs":[],"stateMutability":"nonpayable"},{"type":"function","name":"confirmChange","inputs":[{"name":"_configurationNumber","type":"uint64","internalType":"uint64"}],"outputs":[],"stateMutability":"nonpayable"},{"type":"function","name":"confirmNextChange","inputs":[],"outputs":[],"stateMutability":"nonpayable"},{"type":"function","name":"distributeRewardToRelayers","inputs":[{"name":"height","type":"uint64","internalType":"uint64"},{"name":"reward","type":"uint256","internalType":"uint256"}],"outputs":[],"stateMutability":"payable"},{"type":"function","name":"join","inputs":[{"name":"publicKey","type":"bytes","internalType":"bytes"}],"outputs":[],"stateMutability":"payable"},{"type":"function","name":"kill","inputs":[],"outputs":[],"stateMutability":"nonpayable"},{"type":"function","name":"leave","inputs":[],"outputs":[],"stateMutability":"nonpayable"},{"type":"function","name":"preFund","inputs":[],"outputs":[],"stateMutability":"payable"},{"type":"function","name":"preRelease","inputs":[{"name":"amount","type":"uint256","internalType":"uint256"}],"outputs":[],"stateMutability":"nonpayable"},{"type":"function","name":"setFederatedPower","inputs":[{"name":"validators","type":"address[]","internalType":"address[]"},{"name":"publicKeys","type":"bytes[]","internalType":"bytes[]"},{"name":"powers","type":"uint256[]","internalType":"uint256[]"}],"outputs":[],"stateMutability":"nonpayable"},{"type":"function","name":"stake","inputs":[],"outputs":[],"stateMutability":"payable"},{"type":"function","name":"submitCheckpoint","inputs":[{"name":"checkpoint","type":"tuple","internalType":"struct BottomUpCheckpoint","components":[{"name":"subnetID","type":"tuple","internalType":"struct SubnetID","components":[{"name":"root","type":"uint64","internalType":"uint64"},{"name":"route","type":"address[]","internalType":"address[]"}]},{"name":"blockHeight","type":"uint64","internalType":"uint64"},{"name":"blockHash","type":"bytes32","internalType":"bytes32"},{"name":"nextConfigurationNumber","type":"uint64","internalType":"uint64"},{"name":"crossMessagesHash","type":"bytes32","internalType":"bytes32"}]},{"name":"messages","type":"tuple[]","internalType":"struct CrossMsg[]","components":[{"name":"message","type":"tuple","internalType":"struct StorableMsg","components":[{"name":"from","type":"tuple","internalType":"struct IPCAddress","components":[{"name":"subnetId","type":"tuple","internalType":"struct SubnetID","components":[{"name":"root","type":"uint64","internalType":"uint64"},{"name":"route","type":"address[]","internalType":"address[]"}]},{"name":"rawAddress","type":"tuple","internalType":"struct FvmAddress","components":[{"name":"addrType","type":"uint8","internalType":"uint8"},{"name":"payload","type":"bytes","internalType":"bytes"}]}]},{"name":"to","type":"tuple","internalType":"struct IPCAddress","components":[{"name":"subnetId","type":"tuple","internalType":"struct SubnetID","components":[{"name":"root","type":"uint64","internalType":"uint64"},{"name":"route","type":"address[]","internalType":"address[]"}]},{"name":"rawAddress","type":"tuple","internalType":"struct FvmAddress","components":[{"name":"addrType","type":"uint8","internalType":"uint8"},{"name":"payload","type":"bytes","internalType":"bytes"}]}]},{"name":"value","type":"uint256","internalType":"uint256"},{"name":"nonce","type":"uint64","internalType":"uint64"},{"name":"method","type":"bytes4","internalType":"bytes4"},{"name":"params","type":"bytes","internalType":"bytes"},{"name":"fee","type":"uint256","internalType":"uint256"}]},{"name":"wrapped","type":"bool","internalType":"bool"}]},{"name":"signatories","type":"address[]","internalType":"address[]"},{"name":"signatures","type":"bytes[]","internalType":"bytes[]"}],"outputs":[],"stateMutability":"nonpayable"},{"type":"function","name":"unstake","inputs":[{"name":"amount","type":"uint256","internalType":"uint256"}],"outputs":[],"stateMutability":"nonpayable"},{"type":"function","name":"validateActiveQuorumSignatures","inputs":[{"name":"signatories","type":"address[]","internalType":"address[]"},{"name":"hash","type":"bytes32","internalType":"bytes32"},{"name":"signatures","type":"bytes[]","internalType":"bytes[]"}],"outputs":[],"stateMutability":"view"},{"type":"event","name":"BottomUpCheckpointExecuted","inputs":[{"name":"epoch","type":"uint64","indexed":false,"internalType":"uint64"},{"name":"submitter","type":"address","indexed":false,"internalType":"address"}],"anonymous":false},{"type":"event","name":"BottomUpCheckpointSubmitted","inputs":[{"name":"checkpoint","type":"tuple","indexed":false,"internalType":"struct BottomUpCheckpoint","components":[{"name":"subnetID","type":"tuple","internalType":"struct SubnetID","components":[{"name":"root","type":"uint64","internalType":"uint64"},{"name":"route","type":"address[]","internalType":"address[]"}]},{"name":"blockHeight","type":"uint64","internalType":"uint64"},{"name":"blockHash","type":"bytes32","internalType":"bytes32"},{"name":"nextConfigurationNumber","type":"uint64","internalType":"uint64"},{"name":"crossMessagesHash","type":"bytes32","internalType":"bytes32"}]},{"name":"submitter","type":"address","indexed":false,"internalType":"address"}],"anonymous":false},{"type":"event","name":"NextBottomUpCheckpointExecuted","inputs":[{"name":"epoch","type":"uint64","indexed":false,"internalType":"uint64"},{"name":"submitter","type":"address","indexed":false,"internalType":"address"}],"anonymous":false},{"type":"event","name":"SubnetBootstrapped","inputs":[{"name":"","type":"tuple[]","indexed":false,"internalType":"struct Validator[]","components":[{"name":"weight","type":"uint256","internalType":"uint256"},{"name":"addr","type":"address","internalType":"address"},{"name":"metadata","type":"bytes","internalType":"bytes"}]}],"anonymous":false},{"type":"error","name":"AddressInsufficientBalance","inputs":[{"name":"account","type":"address","internalType":"address"}]},{"type":"error","name":"AddressShouldBeValidator","inputs":[]},{"type":"error","name":"CannotConfirmFutureChanges","inputs":[]},{"type":"error","name":"CannotReleaseZero","inputs":[]},{"type":"error","name":"CollateralIsZero","inputs":[]},{"type":"error","name":"EmptyAddress","inputs":[]},{"type":"error","name":"FailedInnerCall","inputs":[]},{"type":"error","name":"InvalidCheckpointEpoch","inputs":[]},{"type":"error","name":"InvalidCheckpointMessagesHash","inputs":[]},{"type":"error","name":"InvalidFederationPayload","inputs":[]},{"type":"error","name":"InvalidPublicKeyLength","inputs":[]},{"type":"error","name":"InvalidSignatureErr","inputs":[{"name":"","type":"uint8","internalType":"uint8"}]},{"type":"error","name":"MethodNotAllowed","inputs":[{"name":"reason","type":"string","internalType":"string"}]},{"type":"error","name":"NoCollateralToWithdraw","inputs":[]},{"type":"error","name":"NotAllValidatorsHaveLeft","inputs":[]},{"type":"error","name":"NotEnoughBalance","inputs":[]},{"type":"error","name":"NotEnoughCollateral","inputs":[]},{"type":"error","name":"NotEnoughFunds","inputs":[]},{"type":"error","name":"NotGateway","inputs":[]},{"type":"error","name":"NotOwner","inputs":[]},{"type":"error","name":"NotOwnerOfPublicKey","inputs":[]},{"type":"error","name":"NotStakedBefore","inputs":[]},{"type":"error","name":"NotValidator","inputs":[{"name":"","type":"address","internalType":"address"}]},{"type":"error","name":"PQDoesNotContainAddress","inputs":[]},{"type":"error","name":"PQEmpty","inputs":[]},{"type":"error","name":"ReentrancyError","inputs":[]},{"type":"error","name":"SubnetAlreadyBootstrapped","inputs":[]},{"type":"error","name":"SubnetAlreadyKilled","inputs":[]},{"type":"error","name":"WithdrawExceedingCollateral","inputs":[]}],"bytecode":{"object":"0x6080806040523461001657614836908161001c8239f35b600080fdfe608080604052600436101561001357600080fd5b600090813560e01c9081630b7fbe60146116a55750806310fd42611461154a5780632e17de7814611525578063350a14bf146115085780633a4b66f1146114ec57806341c0e1b5146114525780634e71d92d146112c65780636170b16214610d5f57806366783c9b14610c7e578063a8284de3146106cb578063c7ebdaef14610683578063cc2dc2b914610606578063d66d9e19146105c3578063da5d09ee146101d0578063ed7c4da11461011c5763f9002bb1146100d157600080fd5b6040366003190112610119576100e561182d565b6009546001600160a01b03163303610107576101049060243590614292565b80f35b60405163e7e601db60e01b8152600490fd5b80fd5b50346101195780600319360112610119576000805160206147e183398151915260018154146101be5780600183925573__$4a8700ca5e162cb61a0c4650a4871f1ad5$__803b156101ba5782602491604051928380926382985e0b60e01b82523360048301525af49081156101af578391610198575b50505580f35b6101a19061176c565b6101ac578138610192565b50fd5b6040513d85823e3d90fd5b5050fd5b6040516329f745a760e01b8152600490fd5b5034610119576060366003190112610119576004356001600160401b0381116105bf57610201903690600401611857565b906024356001600160401b0381116105bb57610221903690600401611857565b916044356001600160401b0381116105b757610241903690600401611857565b909461024b613878565b7f806e0cbb9fce296bbc336a48f42bf1dbc69722d18d90d6fe705b7582c2bb4bd5546001600160a01b031633036105a55760ff600e54166002811015610591576001036105615781810361054f5784810361054f57865b8181106102ad578780f35b6102c16102bb828888613802565b9061469d565b6001600160a01b036102dc6102d7848689613843565b611cd9565b166001600160a01b039091160361053d576103466102fe6102d7838588613843565b610309838989613802565b61031785888d969496613843565b35610332604051958693604060208601526060850191611aa5565b90604083015203601f1981018452836117b5565b6001600160401b036017541660405161035e8161179a565b600381526020810184815260018060a01b0384166040830152826000526018602052604060002090825161039181611e5d565b61039a81611e5d565b60ff80198454169116178255518051906001600160401b038211610527576103d2826103c96001860154611e7d565b60018601611f70565b602090601f83116001146104a05792826000805160206147c183398151915297959360029360019b9a9896600092610495575b5050600019600383901b1c1916908a1b17818a01555b01906040888060a01b03910151166001600160601b0360a01b8254161790556001600160401b0361044b8261199b565b166001600160401b0319601754161760175561048660405193849360038552888060a01b031660208501526080806040860152840190613853565b9060608301520390a1016102a2565b015190503880610405565b906001840160005260206000209160005b601f198516811061050f57508360029360019b9a9896938c936000805160206147c18339815191529b9997601f198116106104f6575b505050811b018982015561041b565b015160001960f88460031b161c191690553880806104e7565b919260206001819286850151815501940192016104b1565b634e487b7160e01b600052604160045260246000fd5b604051634be9251d60e11b8152600490fd5b604051637e65935960e01b8152600490fd5b61058d61056c613899565b60405163015538b160e01b8152602060048201529182916024830190613853565b0390fd5b634e487b7160e01b88526021600452602488fd5b6040516330cd747160e01b8152600490fd5b8580fd5b8380fd5b5080fd5b50346101195780600319360112610119576000805160206147e183398151915260018154146101be578060018392556105fa613878565b61060261409d565b5580f35b5034610119576060366003190112610119576001600160401b0360043581811161067f573660238201121561067f576106499036906024816004013591016118b2565b60443591821161067f573660238301121561067f57610675610104923690602481600401359101611908565b9060243590614362565b8280fd5b50346101195780600319360112610119576001600160401b036000198160175416019081116106b55761010490612095565b634e487b7160e01b600052601160045260246000fd5b5034610119576080366003190112610119576001600160401b03600435116101195760a060043536036003190112610119576024356001600160401b0381116105bf5761071c903690600401611857565b91906044356001600160401b03811161067f5761073d903690600401611857565b6064356001600160401b038111610af65761075c903690600401611857565b9261076b602460043501611987565b926001600160401b03600554166001600160401b0360075416946001600160401b038061079888856119b3565b169116141580610c5e575b610c4c576040516020810190602082526107d4816107c68d60408301908d611b2f565b03601f1981018352826117b5565b5190206084600435013503610c3a57604051602080820152610802816107c660408201600435600401611c63565b60208151910120946001600160401b038061082b610824602460043501611987565b93856119b3565b16911614600014610afa57509161084c6108549261085a96959436916118b2565b933691611908565b91614362565b6001600160401b03610870602460043501611987565b168252816020526040822092600435600401356042196004353603018112156105bb57600435016001600160401b036108ab60048301611987565b166001600160401b031986541617855560248101359060221981360301821215610af65701936001600160401b036004860135116105bb57600485013560051b360360248601136105bb57600160401b600486013511610ae25760019485820180546004830135825580600484013510610ac3575b506024820190865260208620865b60048401358110610aa55750505050839450600281016001600160401b0361095a602460043501611987565b166001600160401b03198254161790556044600435013560038201556001600160401b0361098c606460043501611987565b1660048201906001600160401b03198254161790556005608460043501359101556001600160401b036109c3602460043501611987565b168352601d6020526109d9604084203390611dd8565b506001600160401b036109f0602460043501611987565b166001600160401b0319600554161760055560018060a01b036009541691823b15610aa057610a5a92849283604051809681958294637a2b59cf60e11b845260406004850152610a4860448501600435600401611c63565b84810360031901602486015291611b2f565b03925af18015610a9557610a81575b5050610104610a7c606460043501611987565b612095565b610a8a9061176c565b610119578038610a69565b6040513d84823e3d90fd5b505050fd5b886004916020610ab486611cd9565b9501948185015501905061092e565b81875260208720610adc91810190600485013501611cc2565b38610920565b634e487b7160e01b84526041600452602484fd5b8480fd5b9550505050929350506001600160401b03610b19602460043501611987565b1614610b24575b5080f35b6001600160401b03610b3a602460043501611987565b168252816020526040822060405160208101916020835260a06040830152816101208101916001600160401b0381541660e0830152600190818101916040610100850152825480955261014084019289526020892090895b868110610c195750505060028101546001600160401b0390811660608501526003820154608085015260048201541660a08401526005015460c083015203601f1981018352610be29150826117b5565b51902014610bed5780f35b6001600160401b03610c03602460043501611987565b168152601d602052610b20604082203390611dd8565b82546001600160a01b03168552879550602090940193918101918101610b92565b604051632d7f750360e21b8152600490fd5b60405163fae4eadb60e01b8152600490fd5b50806001600160401b03610c76602460043501611987565b1614156107a3565b5034610119576020366003190112610119576004356000805160206147e183398151915260018154146101be57600181558115610d4d5760ff600d5460081c16610d3b57338352600360205281604084205410610d29576106028392338452600360205260408420610cf182825461260f565b9055610cff8160025461260f565b6002553384526003602052604084205415610d1b575b33613788565b610d24336146d9565b610d15565b60405163569d45cf60e11b8152600490fd5b604051631b39f2f360e11b8152600490fd5b604051631036b5ad60e31b8152600490fd5b50602036600319011261011957600435906001600160401b0382116101195736602383011215610119576001600160401b0382600401351161011957602436818460040135850101116105bf5760016000805160206147e183398151915254146101be5760016000805160206147e183398151915255610ddd613878565b60ff600d5460081c16806112b9575b34156112a757604184600401350361129557610e0e846004013583860161469d565b336001600160a01b039091160361053d576110935733600090815260106020526040902060039390840190610e518160040135610e4b8454611e7d565b84611f70565b83601f82600401351160011461101e578385918360040135611011575b5050816004013560011b916000199060040135871b1c19161790555b610e943433613951565b600f54600654811015610ebb575b505090505b806000805160206147e18339815191525580f35b61ffff601154166001600160401b0360075460401c1611610ea25761010061ff0019600d541617600d5560405193602085019060208652600154809252604086019160408160051b88010192600187527fb10e2d527612073b26eecdfd717e6a320cf44b4afac2b0732d9fcbe2b7fa0cf69287915b838310610fc45750505050508484957f4914d88063275a25a13b2df37125e216745d812f94c56504be4bd78cf60c9593920390a160018060a01b0360095416610f7c6002548093612545565b92813b15610af65784926040519485938492637903ab2760e11b845260048401525af18015610a9557610fb0575b80610ea2565b610fb99061176c565b610119578038610faa565b90919293946020836110026001938d603f1990820301865289548152848060a01b03858b015416848201526060908160408201520160028a01611eb7565b97019201930191909392610f30565b8301013590508338610e6e565b828552602085208592916004830135601f19165b8085106110765760019450836004013511611058575b505060040135811b019055610e8a565b82018501356000196004840135891b60f8161c191690553880611048565b838201870135835560209485019460019093019290910190611032565b6110a43684600401358386016117f1565b926001600160401b03601754166040516110bd8161179a565b600281526020810195865233604082015281600052601860205260406000209581516110e881611e5d565b6110f181611e5d565b60ff80198954169116178755519586516001600160401b03811161128057611129816111206001850154611e7d565b60018501611f70565b6020601f82116001146111fe579080600293926000805160206147c1833981519152999a6000926111f3575b50508160011b916000199060031b1c19161760018201555b0190604060018060a01b03910151166001600160601b0360a01b8254161790556001600160401b0361119e8261199b565b166001600160401b031960175416176017556111db6040519384936002855233602086015260806040860152608085019181600401359101611aa5565b9060608301520390a16111ee3433613b62565b610ea7565b015190503880611155565b6001830160005260206000209860005b601f19841681106112685750916000805160206147c183398151915298996001926002959483601f1981161061124f575b505050811b01600182015561116d565b015160001960f88460031b161c1916905538808061123f565b828201518b556001909a01996020928301920161120e565b85634e487b7160e01b60005260416004526000fd5b6040516318dca5e960e21b8152600490fd5b604051635a78c58160e11b8152600490fd5b6112c1613d5e565b610dec565b50346101195780600319360112610119576001906000805160206147e1833981519152828154146101be57828155336000908152601a602052604090209283549061ffff9081831692831561144057829060101c16918391808795818a01915b6113ba575b5050508661139c937f197c586353eaed0a1c53e6e540445b94befab8f932c8115d112115ecbeeed514959363ffff000093899a54911693849260101b169063ffffffff191617179055156113a3575b6113848133613788565b60408051338152602081019290925290918291820190565b0390a15580f35b336000908152601a6020526040902085905561137a565b90919394838116968288101561143757876000526020809185825260406000206040516113e68161177f565b8982549283835201549384910152431061142c578594938896889461140d86958a95612545565b9c60005252600082604082208281550155011696600019011694611326565b98505050949361132b565b9650949361132b565b6040516364b0557f60e01b8152600490fd5b503461011957806003193601126101195761146b613878565b61ffff6114818160145416826011541690612565565b166114da57600d805462ff000019166201000017905560095481906001600160a01b0316803b156101ac5781906004604051809481936341c0e1b560e01b83525af18015610a95576114d1575080f35b6101049061176c565b604051636b62255160e11b8152600490fd5b508060031936011261011957611500613878565b610104613d73565b503461011957602036600319011261011957610104610a7c61182d565b50346101195760203660031901126101195761153f613878565b610104600435613dcd565b50346101195760209081600319360112610119576001600160401b039160043583811161067f573660238201121561067f576115909036906024816004013591016117f1565b923383526012825261ffff6040842054161561168d5783511561167b57338352601e825260408320918451918211610ae2576115d6826115d08554611e7d565b85611f70565b80601f8311600114611617575083948293949261160c575b50508160011b916000199060031b1c19161790555b610b2033611d71565b0151905038806115ee565b90601f198316958486528286209286905b8882106116635750508360019596971061164a575b505050811b019055611603565b015160001960f88460031b161c1916905538808061163d565b80600185968294968601518155019501930190611628565b604051637138356f60e01b8152600490fd5b604051633b4f6e2b60e21b8152336004820152602490fd5b9050816003193601126105bf57341561175d575060ff600d5460081c16610d3b573381526003602052604081205415611704575b3381526003602052604081206116f0348254612545565b90556116fe34600254612545565b60025580f35b600454600160401b811015611749576117268160016117449301600455611ced565b81546001600160a01b0360039290921b91821b19163390911b179055565b6116d9565b634e487b7160e01b82526041600452602482fd5b631036b5ad60e31b8152600490fd5b6001600160401b03811161052757604052565b604081019081106001600160401b0382111761052757604052565b606081019081106001600160401b0382111761052757604052565b90601f801991011681019081106001600160401b0382111761052757604052565b6001600160401b03811161052757601f01601f191660200190565b9291926117fd826117d6565b9161180b60405193846117b5565b829481845281830111611828578281602093846000960137010152565b600080fd5b600435906001600160401b038216820361182857565b35906001600160401b038216820361182857565b9181601f84011215611828578235916001600160401b038311611828576020808501948460051b01011161182857565b6001600160401b0381116105275760051b60200190565b35906001600160a01b038216820361182857565b92916118bd82611887565b916118cb60405193846117b5565b829481845260208094019160051b810192831161182857905b8282106118f15750505050565b8380916118fd8461189e565b8152019101906118e4565b9291909261191584611887565b9161192360405193846117b5565b829480845260208094019060051b8301928284116118285780915b84831061194d57505050505050565b82356001600160401b03811161182857820184601f8201121561182857869161197c86838580953591016117f1565b81520192019161193e565b356001600160401b03811681036118285790565b9060016001600160401b03809316019182116106b557565b9190916001600160401b03808094169116019182116106b557565b9035603e1982360301811215611828570190565b6001600160401b03919060408201836119fa83611843565b16835260209182810135601e19823603018112156118285701928284359401948411611828578360051b36038513611828576040818401529083905260600192919060005b828110611a4d575050505090565b909192938280600192838060a01b03611a658961189e565b16815201950193929101611a3f565b9035601e19823603018112156118285701602081359101916001600160401b03821161182857813603831361182857565b908060209392818452848401376000828201840152601f01601f1916010190565b611aef611ae4611ad683806119ce565b6040855260408501906119e2565b9160208101906119ce565b91602081830391015281359160ff831680930361182857611b1c604091611b2c9484526020810190611a74565b9190928160208201520191611aa5565b90565b90918092808252602080920191808260051b86010194846000915b848310611b5b575050505050505090565b90919293949596601f19828203018752611b7588846119ce565b90813560de198336030181121561182857820191604090818352611b9984806119ce565b611baf60e0918285870152610120860190611ac6565b92611bbc8a8701876119ce565b6001600160401b03611bf1611bdf603f1997606094898b830301868c0152611ac6565b926080948a0135858a01528901611843565b169160a092838801528701359263ffffffff60e01b8416809403611828578b95611c27611c379460c096878b01528a018a611a74565b9290918985030190890152611aa5565b940135610100840152013590811515809203611828578601529684019584019493926001019190611b4a565b90608080611c82611c7485806119ce565b60a0855260a08501906119e2565b936001600160401b0380611c9860208401611843565b16602086015260408201356040860152611cb460608301611843565b166060850152013591015290565b818110611ccd575050565b60008155600101611cc2565b356001600160a01b03811681036118285790565b600454811015611d245760046000527f8a35acfbc15ff81a39ae7d344fd709f28e8600b4aa8c65c6b64bfe7fe36bd19b0190600090565b634e487b7160e01b600052603260045260246000fd5b601f54811015611d2457601f6000527fa03837a25210ee280c2113ff4b77ca23440b19d4866cca721c801278fd08d8070190600090565b6000818152602080526040812054611dd357601f54600160401b811015611749579082611dc0611da984600160409601601f55611d3a565b819391549060031b91821b91600019901b19161790565b9055601f54928152602080522055600190565b905090565b91906001830160009082825280602052604082205415600014611e5757845494600160401b861015611e435760018601808255861015611e2f57836040949596828552602085200155549382526020522055600190565b634e487b7160e01b83526032600452602483fd5b634e487b7160e01b83526041600452602483fd5b50925050565b60041115611e6757565b634e487b7160e01b600052602160045260246000fd5b90600182811c92168015611ead575b6020831014611e9757565b634e487b7160e01b600052602260045260246000fd5b91607f1691611e8c565b9060009291805491611ec883611e7d565b918282526001938481169081600014611f2a5750600114611eea575b50505050565b90919394506000526020928360002092846000945b838610611f16575050505001019038808080611ee4565b805485870183015294019385908201611eff565b9294505050602093945060ff191683830152151560051b01019038808080611ee4565b60005b838110611f605750506000910152565b8181015183820152602001611f50565b9190601f8111611f7f57505050565b611fab926000526020600020906020601f840160051c83019310611fad575b601f0160051c0190611cc2565b565b9091508190611f9e565b9080821461209157611fc98154611e7d565b906001600160401b038211610527578190611fee82611fe88654611e7d565b86611f70565b600090601f83116001146120255760009261201a575b50508160011b916000199060031b1c1916179055565b015490503880612004565b81526020808220858352818320935090601f1985169083905b82821061207857505090846001959493921061205f575b505050811b019055565b015460001960f88460031b161c19169055388080612055565b849581929585015481556001809101960194019061203e565b5050565b6017546001600160401b03828116929080831684106120c05760405163040aaa0560e11b8152600490fd5b808360401c168410611ee45780604093841c165b84828216111561213b5750509160209161210e7f246f00b61ce672242f33bb680a47147cd54d3dfd04dbb76956ba42f88087bf639461199b565b67ffffffffffffffff60401b60175491831b169067ffffffffffffffff60401b19161760175551908152a1565b81612159826001600160401b03166000526018602052604060002090565b6002808201548254929491926001600160a01b03918216919060ff1661217e81611e5d565b8085036121f057505060036121af60016121b594959697019260018060a01b03166000526010602052604060002090565b01611fb7565b6121d2816001600160401b03166000526018602052604060002090565b916000908184556001936121e785820161261c565b015501166120d4565b909194506121fd81611e5d565b60039181830361239b5750508751936122258561221e816001809a01611eb7565b03866117b5565b84518501916020928a8785830192031261182857838701518981116118285787019681603f890112156118285787858d9901519261226e612265856117d6565b9a519a8b6117b5565b838a528d8483010111611828578c9261228c9184888c019101611f4d565b015192816122ac8460018060a01b03166000526010602052604060002090565b01918751918a8311612386578a986122ce846122c88754611e7d565b87611f70565b81601f851160011461231357506123039798999a8493928492600095612308575b50501b92600019911b1c191617905561257b565b6121b5565b0151935038806122ef565b91601f9b9493919b1984169b866000528c84600020946000915b821061236b575050846123039a9b9c9d10612351575b50505050811b01905561257b565b01519060f884600019921b161c1916905538808080612343565b8383015186558f9d509487019492830192908101908e61232d565b60246000634e487b7160e01b81526041600452fd5b915091938895939551936123b78561221e816001809501611eb7565b602080868051810103126118285781818c970151956123d581611e5d565b036124fa5784906123e68285612665565b6019546123f39043612545565b928751906124008261177f565b8482528282018481526001600160a01b0387166000908152601a602052604090209091909283549161ffff9384848180961695869160101c169061244391612565565b169c60009d8e5282870188528d20925183555191015561246290612552565b1661ffff198254161790558b519384528301528982015260607f083b080788e20bd0930c2bca2ae4fbc51a59ced08c1b5992271f8cb439498a6391a16009541690813b1561067f578291602483928a5195869384926345f5448560e01b845260048401525af19081156124ef575090849392916124e0575b506121b5565b6124e99061176c565b386124da565b8751903d90823e3d90fd5b50508293509161250a91926125bf565b6009541690813b15611828578651916316989f6f60e21b83528260048160009485945af19081156124ef575090849392916124e057506121b5565b919082018092116106b557565b90600161ffff809316019182116106b557565b91909161ffff808094169116019182116106b557565b9060018060a01b0382166000526010602052604060002081815491558181146000146125a657505050565b8111156125b657611fab916126f4565b611fab91612a3a565b90611fab9161260760018060a01b038216928360005260106020526125ec81600160406000200154612545565b93600052601060205283600160406000200155600f54612545565b600f556126f4565b919082039182116106b557565b6126268154611e7d565b9081612630575050565b81601f60009311600114612642575055565b908083918252612661601f60208420940160051c840160018501611cc2565b5555565b906126d26126da9260018060a01b038116906000828152601060205261269285600160408420015461260f565b92815260106020526040812060028101848154811590816126eb575b50156126df575090826003926126cd948355816001840155550161261c565b612a3a565b600f5461260f565b600f55565b92505060010155612a3a565b905015386126ae565b919060018060a01b03928381166000948186526020916012835261ffff916040978389822054166129255783600e5460081c168460115416106128f157612739613547565b60019283825260138652828a832054168861275382612e25565b1061286b57508152601585528389822054166127c25750505050506127bd7f19fe3ca603e87854a0747cc10abf06bac64d61bac73d6d15f2fd3ca448f15264939461279d83612db0565b516001600160a01b03909216825260208201929092529081906040820190565b0390a1565b6127cb8661359a565b926127d587612e25565b935b818682161161282d575b505097516001600160a01b0390951685525050505060208101919091529091507fda148fac2e1063174be7bc0895576bdaba90fd14e575463fa26a967cb895cadd9080604081016127bd565b808561284c86617fff8f95871c169485885260168c5287205416612e25565b1015612865579061285e8392826136f9565b90506127d7565b506127e1565b969750899493507ffaeb8de771b867cf357f6b459a7002b62ec45d544a8078a3ecd91200cc826d75989992506127bd956015916128a661323f565b8352522054166128e3575b6128ba846131ca565b6128c383612db0565b516001600160a01b03928316815292909116602083015281906040820190565b6128ec84612fef565b6128b1565b50505050506127bd7f2e8038f5812f763c6ef0c5427cb5a05ce6d7064af2ba7d1d270bc02660b019fd939461279d836131ca565b979291506129368594979695613563565b9761294085612e25565b9761294a8a61315b565b8460115416905b858116828111612a0357828110156129e757508061297161297792612552565b906134f7565b9b909b5b8b111561299a5761298c908c613660565b6129958b61315b565b612951565b505093516001600160a01b0390951685525050505060208101919091529092507f143db27bc2036653dc6f962ff9d0b803163d4af50c256ca9e6927b3d6dcd0197915080604081016127bd565b849c919c52601383526129fe858886205416612e25565b61297b565b505050505050506127bd91929395507f143db27bc2036653dc6f962ff9d0b803163d4af50c256ca9e6927b3d6dcd0197945061279d565b909160018060a01b03928383169060009382855260206015815261ffff95604094878683205416612c74578082526012835287868320541615612c63578415612bbb5750612a8783613563565b97612a9184612e25565b985b6001808a83161115612bac5781617fff911c1690818452601385528a612abd848a87205416612e25565b1115612ad257612acd9082613660565b612a93565b505091939597509193955b6014541615612ba457612aee613547565b600182526013835285818184205416926016612b0985612e25565b95612b12613555565b600183525220541691612b2483612e25565b11612b6b57505091516001600160a01b03909216825260208201527f143db27bc2036653dc6f962ff9d0b803163d4af50c256ca9e6927b3d6dcd01979080604081016127bd565b915091506127bd7ffaeb8de771b867cf357f6b459a7002b62ec45d544a8078a3ecd91200cc826d7593612b9c61323f565b6128b1612e88565b505050505050565b50509193959750919395612add565b829450612bef7f4a4c5d1a281180eea1e99d8177fa4798b9f7e019d5c57e7d8d73c6a22199aa5b9392989499969799613388565b8651908152a160145416612c035750505050565b7f2e8038f5812f763c6ef0c5427cb5a05ce6d7064af2ba7d1d270bc02660b019fd9360168492612c31613555565b6001835252205416612c57612c4582612e25565b92612c4e612e88565b61279d836131ca565b0390a138808080611ee4565b8551632a55ca5360e01b8152600490fd5b84969792939598919415612d75575061fffe9193612c918661359a565b93612c9b87612e25565b9480966001958692831b168160145416925b612d01575b505099516001600160a01b039097168752505050506020830193909352509192507fda148fac2e1063174be7bc0895576bdaba90fd14e575463fa26a967cb895cadd91905080604081016127bd565b818116838111612d6f578d9084811015612d5357505080612d24612d2a92612552565b90613172565b9890985b881015612d4e57612d3f90896136f9565b612d488861315b565b86612cad565b612cb2565b865260168552852054909890612d6a908716612e25565b612d2e565b50612cb2565b94915050612da99194507f3168ba660eed6ef1dc2258b2247cc05fd0f2f350d39e6ad2e2ebc76a8000b40b95969250612fef565b51908152a1565b611fab90612e1f61ffff91612dc88360145416612552565b9260018060a01b0382169081600052601560205260406000209085169161ffff199183838254161790558260005260166020526040600020906001600160601b0360a01b8254161790556014541617601455612e25565b90613106565b60ff600e54166002811015611e6757600103612e56576001600160a01b031660009081526010602052604090205490565b6001600160a01b031660009081526010602052604090206001015490565b61ffff90811660001901919082116106b557565b61ffff8060145416908115612fdd5790600190612ea781831115613643565b6000828152601660208181526040808420805486865282862080546001600160a01b0392831680895260158752858920805461ffff199081168c17909155918416808a52868a20805484168d17905588885283546001600160a01b03199081169092179093558a895284541690911790925592958795939492939291612f4191908a612f3283612e74565b169060145416176014556135bf565b848252808652612f55848484205416612e25565b95859860028160145416995b612f73575b5050505050505050505050565b8181168a8111612fd7578a811015612fbc575080612d24612f9392612552565b9a909a5b891015612fb757612fa8908b6136f9565b612fb18a61315b565b87612f61565b612f66565b859b919b52838352612fd2878787205416612e25565b612f97565b50612f66565b6040516340d9b01160e01b8152600490fd5b612ff89061359a565b61ffff9081601454169161300c83836136f9565b8061301684612e74565b1661ffff19601454161760145561302c836135bf565b808216809314613101579161fffe9160009180835260169060209382855260018060a01b039260409261306c613066868686205416612e25565b87613106565b825280865261307f848484205416612e25565b9585986001988997881b168160145416995b6130a2575050505050505050505050565b8181168a8111612fd7578a8110156130e6575080612d246130c292612552565b9a909a5b891015612fb7576130d7908b6136f9565b6130e08a61315b565b87613091565b859b919b528383526130fc878787205416612e25565b6130c6565b505050565b9190915b60018061ffff831611156131555781617fff911c16908361314060008481526016602052604060018060a01b0391205416612e25565b10156131555761315090826136f9565b61310a565b50509050565b60011b906201fffe61fffe8316921682036106b557565b91909161ffff9283821660005260166020526131b560018060a01b0361319e8160406000205416612e25565b958316600052601660205260406000205416612e25565b908185106131c35750509190565b9350919050565b611fab9061323961ffff916131e28360115416612552565b9260018060a01b0382169081600052601260205260406000209085169161ffff199183838254161790558260005260136020526040600020906001600160601b0360a01b8254161790556011541617601155612e25565b906134a8565b61ffff8060115416908115612fdd579060019061325e81831115613643565b6000828152601360208181526040808420805486865282862080546001600160a01b0392831680895260128752858920805461ffff199081168c17909155918416808a52868a20805484168d17905588885283546001600160a01b03199081169092179093558a8952845416909117909255929587959394929392916132f891908a6132e983612e74565b16906011541617601155613601565b84825280865261330c848484205416612e25565b95859860028160115416995b613329575050505050505050505050565b8181168a8111612fd7578a81101561336d57508061297161334992612552565b9a909a5b891115612fb75761335e908b613660565b6133678a61315b565b87613318565b859b919b52838352613383878787205416612e25565b61334d565b61339190613563565b9061ffff908160115416906133a68285613660565b826133b083612e74565b1661ffff1960115416176011556133c682613601565b8284168092146134a25760009291929183835260139260209484865260018060a01b03916040916134046133fe858585205416612e25565b8a6134a8565b8152858752613417838383205416612e25565b956134218961315b565b978560115416985b8681168a8111613494578a81101561347957508061297161344992612552565b9a909a5b89111561346c5761345e908b613660565b6134678a61315b565b613429565b5050505050505092505050565b849b919b5282825261348f868686205416612e25565b61344d565b505050505050505092505050565b92505050565b9190915b60018061ffff831611156131555781617fff911c1690836134e260008481526013602052604060018060a01b0391205416612e25565b1115613155576134f29082613660565b6134ac565b919061ffff808416600052601360205261353860018060a01b036135218160406000205416612e25565b928416600052601360205260406000205416612e25565b93848211156131c35750509190565b61ffff6011541615612fdd57565b61ffff6014541615612fdd57565b6001600160a01b031660009081526012602052604090205461ffff1690811561358857565b60405163f2755e3760e01b8152600490fd5b6001600160a01b031660009081526015602052604090205461ffff1690811561358857565b61ffff16600090815260166020908152604080832080546001600160a01b031981169091556001600160a01b0316835260159091529020805461ffff19169055565b61ffff16600090815260136020908152604080832080546001600160a01b031981169091556001600160a01b0316835260129091529020805461ffff19169055565b1561364a57565b634e487b7160e01b600052600160045260246000fd5b61368561ffff80806011541693169361367b84861115613643565b1691821115613643565b6000828152601360208181526040808420805486865282862080546001600160a01b0392831680895260128752858920805461ffff19908116909b1790559216808852938720805490981689179097559390925284546001600160a01b031990811690931790945593909152825416179055565b61371461ffff80806014541693169361367b84861115613643565b6000828152601660208181526040808420805486865282862080546001600160a01b0392831680895260158752858920805461ffff19908116909b1790559216808852938720805490981689179097559390925284546001600160a01b031990811690931790945593909152825416179055565b8147106137ea576000918291829182916001600160a01b03165af13d156137e5573d6137b3816117d6565b906137c160405192836117b5565b8152600060203d92013e5b156137d357565b604051630a12f52160e11b8152600490fd5b6137cc565b60405163cd78605960e01b8152306004820152602490fd5b9190811015611d245760051b81013590601e19813603018212156118285701908135916001600160401b038311611828576020018236038113611828579190565b9190811015611d245760051b0190565b9060209161386c81518092818552858086019101611f4d565b601f01601f1916010190565b60ff600d5460101c1661388757565b60405163248c8efb60e11b8152600490fd5b60405190608082018281106001600160401b03821117610527576040526045825264185c1c195960da1b6060837f4d6574686f64206e6f7420616c6c6f776564206966207065726d697373696f6e60208201527f656420697320656e61626c656420616e64207375626e657420626f6f7473747260408201520152565b600154811015611d24576003906001600052027fb10e2d527612073b26eecdfd717e6a320cf44b4afac2b0732d9fcbe2b7fa0cf60190600090565b90613966906139608184613b3b565b826125bf565b60ff600d5460081c16156139775750565b60018054600082815b838110613b0a575b50501561399457505050565b6001600160a01b0383166000908152601060205260409020828101546139ea949091600301604051926139c68461179a565b83526020936139f18585019260018060a01b03809516845260405198898092611eb7565b03886117b5565b60408401968752600160401b811015610527578086613a1292018755613916565b929092613af4576002935183558583019151166001600160601b0360a01b825416179055019251908151916001600160401b03831161052757613a59836122c88754611e7d565b81601f8411600114613a925750928293918392600094613a87575b50501b916000199060031b1c1916179055565b015192503880613a74565b919083601f1981168760005284600020946000905b88838310613ada5750505010613ac157505050811b019055565b015160001960f88460031b161c19169055388080612055565b858701518855909601959485019487935090810190613aa7565b634e487b7160e01b600052600060045260246000fd5b81613b1482613916565b5001546001600160a01b03878116911614613b3157018390613980565b5090508238613988565b60018060a01b03166000526010602052613b5e6002604060002001918254612545565b9055565b91906040519281602085015260208452613b7b8461177f565b6001600160401b03601754169360405194613b958661179a565b60008652602086019582875260018060a01b03841660408201528160005260186020526040600020968151613bc981611e5d565b613bd281611e5d565b60ff80198a54169116178855519687516001600160401b03811161052757613c01816111206001850154611e7d565b6020601f8211600114613cd357613cba9492826000805160206147c1833981519152979593600293611fab9c9d600092613cc8575b50508160011b916000199060031b1c19161760018201555b0190604060018060a01b03910151166001600160601b0360a01b8254161790556001600160401b03613c7f8261199b565b166001600160401b031960175416176017556040519283926000845260018060a01b0387166020850152608060408501526080840190613853565b9060608301520390a1613b3b565b015190503880613c36565b6001830160005260206000209960005b601f1984168110613d46575092600183611fab9b9c600294613cba99976000805160206147c18339815191529b9997601f19811610613d2d575b505050811b016001820155613c4e565b015160001960f88460031b161c19169055388080613d1d565b828201518c556001909b019a60209283019201613ce3565b60ff600e54166002811015611e675761056157565b613d7b613d5e565b34156112a7573360009081526010602052604090206002015415613dbb5760ff600d5460081c1615613db157611fab3433613b62565b611fab3433613951565b60405163528fc16560e01b8152600490fd5b613dd5613d5e565b8015613e3c5733600090815260106020526040902060020154801561168d57811015613e2b5760ff600d5460081c1615613e1357611fab9033613ea1565b80613e21611fab9233613e4e565b610d158133612665565b60405162d11df360e61b8152600490fd5b60405163c79cad7b60e01b8152600490fd5b6001600160a01b03166000818152601060205260409020600201549091808210613e8f57613e7b9161260f565b906000526010602052600260406000200155565b60405163ac69360360e01b8152600490fd5b91906040519281602085015260208452613eba8461177f565b6001600160401b03601754169360405194613ed48661179a565b60018652602086019582875260018060a01b03841660408201528160005260186020526040600020968151613f0881611e5d565b613f1181611e5d565b60ff80198a54169116178855519687516001600160401b03811161052757613f40816111206001850154611e7d565b6020601f821160011461401257613ff99492826000805160206147c1833981519152979593600293611fab9c9d600092614007575b50508160011b916000199060031b1c19161760018201555b0190604060018060a01b03910151166001600160601b0360a01b8254161790556001600160401b03613fbe8261199b565b166001600160401b031960175416176017556040519283926001845260018060a01b0387166020850152608060408501526080840190613853565b9060608301520390a1613e4e565b015190503880613f75565b6001830160005260206000209960005b601f1984168110614085575092600183611fab9b9c600294613ff999976000805160206147c18339815191529b9997601f1981161061406c575b505050811b016001820155613f8d565b015160001960f88460031b161c1916905538808061405c565b828201518c556001909b019a60209283019201614022565b60ff600d5460081c1661418a575b33600090815260106020526040902060020154801561168d576140cd33614197565b50600090338252601e60205281604081206140e88154611e7d565b8061414d575b50505060ff600d5460081c161561410a57611fab915033613ea1565b6040611fab92338152600360205220548061412b575b50613e218133613e4e565b8061413b6141479260025461260f565b600255610d15336146d9565b38614120565b82601f8211600114614165575050555b8138806140ee565b9091808252614183601f60208420940160051c840160018501611cc2565b555561415d565b614192613d5e565b6140ab565b600081815260208080526040822054919290918015614278576000199080820181811161426457601f54908382019182116142505780820361421e575b505050601f54801561420a578101906141ec82611d3a565b909182549160031b1b19169055601f55825280526040812055600190565b634e487b7160e01b85526031600452602485fd5b61423c61422d611da993611d3a565b90549060031b1c928392611d3a565b9055855283805260408520553880806141d4565b634e487b7160e01b87526011600452602487fd5b634e487b7160e01b86526011600452602486fd5b50505090565b8051821015611d245760209160051b010190565b8115612091576001600160401b0390818060075416911603908082116106b557600091168152602090601d8252604090818120928251808583829754938481520190855283852092855b8582821061434c575050506142f3925003856117b5565b8351948515612ba457858110612ba45785900493825b8681106143195750505050505050565b6001906001600160a01b0361432e828561427e565b51168552601c8452858520614344888254612545565b905501614309565b855484526001958601958a9550930192016142dc565b9182519161436f83611887565b9360409461437f865191826117b5565b848152601f1961438e86611887565b0194602095368784013760005b81811061446557505060009461ffff8060115416600192839182945b614414575b505050505060ff60095460a01c16948581029581870414901517156106b55760646143e89504916144dc565b90156143f2575050565b6007811015611e675760ff602492519163282ef1c160e01b8352166004820152fd5b90919293988a858b1683811161445d57600090815260138552205484939291869185916144539161444d906001600160a01b0316612e25565b90612545565b9b011694936143b7565b5050986143bc565b6001600160a01b0380614478838761427e565b51166000526012885261ffff896000205416156144b857906144a76001926144a0838861427e565b5116612e25565b6144b1828661427e565b520161439b565b88906144c66024938761427e565b519151633b4f6e2b60e21b815291166004820152fd5b845192946000949084156145c457825185148015906145b9575b6145ac579392919085945b84861061452457505050505050101561451c57600090600690565b600190600090565b90919293949561453e614537888461427e565b51846145d1565b5061454881611e5d565b61459b576001600160a01b038061455f8a8861427e565b511691160361458b5761457f600191614578898861427e565b5190612545565b96019493929190614501565b5050505050505050600090600490565b505050505050505050600090600590565b5050505050905090600190565b5083518514156144f6565b5050505050905090600290565b8151919060418303614602576145fb92506020820151906060604084015193015160001a9061460d565b9192909190565b505060009160029190565b91907f7fffffffffffffffffffffffffffffff5d576e7357a4501ddfe92f46681b20a0841161469157926020929160ff608095604051948552168484015260408301526060820152600092839182805260015afa156146855780516001600160a01b0381161561467c57918190565b50809160019190565b604051903d90823e3d90fd5b50505060009160039190565b906146aa60418214613643565b80600111611828576146c591369160001901906001016117f1565b80516020909101206001600160a01b031690565b60049081549160005b8381106146ef5750505050565b6146f881611ced565b90546003916001600160a01b039190831b1c81168582161461471e5750506001016146e2565b9293509390600019918281019081116147ab579061474f8461474261476e94611ced565b905490891b1c1691611ced565b90919082549060031b9160018060a01b03809116831b921b1916179055565b8254801561479657019261478184611ced565b81939154921b1b191690555538808080611ee4565b603184634e487b7160e01b6000525260246000fd5b601185634e487b7160e01b6000525260246000fdfe1c593a2b803c3f9038e8b6743ba79fbc4276d2770979a01d2768ed12bea3243f691bb03ffc16c56fc96b82fd16cd1b3715f0bc3cdc6407005f49bb6205860095a26469706673582212204600e8ab43b3387b3d33e7839d13a50e8419b4560222b3d82497d996296d56fc64736f6c63430008130033","linkReferences":{"src/lib/LibStaking.sol":{"LibStaking":[{"start":361,"length":20}]}}},"methodIdentifiers":{"addBootstrapNode(string)":"10fd4261","claim()":"4e71d92d","claimRewardForRelayer()":"ed7c4da1","confirmChange(uint64)":"350a14bf","confirmNextChange()":"c7ebdaef","distributeRewardToRelayers(uint64,uint256)":"f9002bb1","join(bytes)":"6170b162","kill()":"41c0e1b5","leave()":"d66d9e19","preFund()":"0b7fbe60","preRelease(uint256)":"66783c9b","setFederatedPower(address[],bytes[],uint256[])":"da5d09ee","stake()":"3a4b66f1","submitCheckpoint(((uint64,address[]),uint64,bytes32,uint64,bytes32),((((uint64,address[]),(uint8,bytes)),((uint64,address[]),(uint8,bytes)),uint256,uint64,bytes4,bytes,uint256),bool)[],address[],bytes[])":"a8284de3","unstake(uint256)":"2e17de78","validateActiveQuorumSignatures(address[],bytes32,bytes[])":"cc2dc2b9"},"id":86}