{"abi":[{"type":"function","name":"addBootstrapNode","inputs":[{"name":"netAddress","type":"string","internalType":"string"}],"outputs":[],"stateMutability":"nonpayable"},{"type":"function","name":"claim","inputs":[],"outputs":[],"stateMutability":"nonpayable"},{"type":"function","name":"claimRewardForRelayer","inputs":[],"outputs":[],"stateMutability":"nonpayable"},{"type":"function","name":"confirmChange","inputs":[{"name":"_configurationNumber","type":"uint64","internalType":"uint64"}],"outputs":[],"stateMutability":"nonpayable"},{"type":"function","name":"confirmNextChange","inputs":[],"outputs":[],"stateMutability":"nonpayable"},{"type":"function","name":"distributeRewardToRelayers","inputs":[{"name":"height","type":"uint64","internalType":"uint64"},{"name":"reward","type":"uint256","internalType":"uint256"}],"outputs":[],"stateMutability":"payable"},{"type":"function","name":"join","inputs":[{"name":"publicKey","type":"bytes","internalType":"bytes"}],"outputs":[],"stateMutability":"payable"},{"type":"function","name":"kill","inputs":[],"outputs":[],"stateMutability":"nonpayable"},{"type":"function","name":"leave","inputs":[],"outputs":[],"stateMutability":"nonpayable"},{"type":"function","name":"pause","inputs":[],"outputs":[],"stateMutability":"nonpayable"},{"type":"function","name":"paused","inputs":[],"outputs":[{"name":"","type":"bool","internalType":"bool"}],"stateMutability":"view"},{"type":"function","name":"preFund","inputs":[],"outputs":[],"stateMutability":"payable"},{"type":"function","name":"preRelease","inputs":[{"name":"amount","type":"uint256","internalType":"uint256"}],"outputs":[],"stateMutability":"nonpayable"},{"type":"function","name":"setFederatedPower","inputs":[{"name":"validators","type":"address[]","internalType":"address[]"},{"name":"publicKeys","type":"bytes[]","internalType":"bytes[]"},{"name":"powers","type":"uint256[]","internalType":"uint256[]"}],"outputs":[],"stateMutability":"nonpayable"},{"type":"function","name":"stake","inputs":[],"outputs":[],"stateMutability":"payable"},{"type":"function","name":"submitCheckpoint","inputs":[{"name":"checkpoint","type":"tuple","internalType":"struct BottomUpCheckpoint","components":[{"name":"subnetID","type":"tuple","internalType":"struct SubnetID","components":[{"name":"root","type":"uint64","internalType":"uint64"},{"name":"route","type":"address[]","internalType":"address[]"}]},{"name":"blockHeight","type":"uint64","internalType":"uint64"},{"name":"blockHash","type":"bytes32","internalType":"bytes32"},{"name":"nextConfigurationNumber","type":"uint64","internalType":"uint64"},{"name":"crossMessagesHash","type":"bytes32","internalType":"bytes32"}]},{"name":"messages","type":"tuple[]","internalType":"struct CrossMsg[]","components":[{"name":"message","type":"tuple","internalType":"struct StorableMsg","components":[{"name":"from","type":"tuple","internalType":"struct IPCAddress","components":[{"name":"subnetId","type":"tuple","internalType":"struct SubnetID","components":[{"name":"root","type":"uint64","internalType":"uint64"},{"name":"route","type":"address[]","internalType":"address[]"}]},{"name":"rawAddress","type":"tuple","internalType":"struct FvmAddress","components":[{"name":"addrType","type":"uint8","internalType":"uint8"},{"name":"payload","type":"bytes","internalType":"bytes"}]}]},{"name":"to","type":"tuple","internalType":"struct IPCAddress","components":[{"name":"subnetId","type":"tuple","internalType":"struct SubnetID","components":[{"name":"root","type":"uint64","internalType":"uint64"},{"name":"route","type":"address[]","internalType":"address[]"}]},{"name":"rawAddress","type":"tuple","internalType":"struct FvmAddress","components":[{"name":"addrType","type":"uint8","internalType":"uint8"},{"name":"payload","type":"bytes","internalType":"bytes"}]}]},{"name":"value","type":"uint256","internalType":"uint256"},{"name":"nonce","type":"uint64","internalType":"uint64"},{"name":"method","type":"bytes4","internalType":"bytes4"},{"name":"params","type":"bytes","internalType":"bytes"},{"name":"fee","type":"uint256","internalType":"uint256"}]},{"name":"wrapped","type":"bool","internalType":"bool"}]},{"name":"signatories","type":"address[]","internalType":"address[]"},{"name":"signatures","type":"bytes[]","internalType":"bytes[]"}],"outputs":[],"stateMutability":"nonpayable"},{"type":"function","name":"unpause","inputs":[],"outputs":[],"stateMutability":"nonpayable"},{"type":"function","name":"unstake","inputs":[{"name":"amount","type":"uint256","internalType":"uint256"}],"outputs":[],"stateMutability":"nonpayable"},{"type":"function","name":"validateActiveQuorumSignatures","inputs":[{"name":"signatories","type":"address[]","internalType":"address[]"},{"name":"hash","type":"bytes32","internalType":"bytes32"},{"name":"signatures","type":"bytes[]","internalType":"bytes[]"}],"outputs":[],"stateMutability":"view"},{"type":"event","name":"BottomUpCheckpointExecuted","inputs":[{"name":"epoch","type":"uint64","indexed":false,"internalType":"uint64"},{"name":"submitter","type":"address","indexed":false,"internalType":"address"}],"anonymous":false},{"type":"event","name":"BottomUpCheckpointSubmitted","inputs":[{"name":"checkpoint","type":"tuple","indexed":false,"internalType":"struct BottomUpCheckpoint","components":[{"name":"subnetID","type":"tuple","internalType":"struct SubnetID","components":[{"name":"root","type":"uint64","internalType":"uint64"},{"name":"route","type":"address[]","internalType":"address[]"}]},{"name":"blockHeight","type":"uint64","internalType":"uint64"},{"name":"blockHash","type":"bytes32","internalType":"bytes32"},{"name":"nextConfigurationNumber","type":"uint64","internalType":"uint64"},{"name":"crossMessagesHash","type":"bytes32","internalType":"bytes32"}]},{"name":"submitter","type":"address","indexed":false,"internalType":"address"}],"anonymous":false},{"type":"event","name":"NextBottomUpCheckpointExecuted","inputs":[{"name":"epoch","type":"uint64","indexed":false,"internalType":"uint64"},{"name":"submitter","type":"address","indexed":false,"internalType":"address"}],"anonymous":false},{"type":"event","name":"Paused","inputs":[{"name":"account","type":"address","indexed":false,"internalType":"address"}],"anonymous":false},{"type":"event","name":"SubnetBootstrapped","inputs":[{"name":"","type":"tuple[]","indexed":false,"internalType":"struct Validator[]","components":[{"name":"weight","type":"uint256","internalType":"uint256"},{"name":"addr","type":"address","internalType":"address"},{"name":"metadata","type":"bytes","internalType":"bytes"}]}],"anonymous":false},{"type":"event","name":"Unpaused","inputs":[{"name":"account","type":"address","indexed":false,"internalType":"address"}],"anonymous":false},{"type":"error","name":"AddressInsufficientBalance","inputs":[{"name":"account","type":"address","internalType":"address"}]},{"type":"error","name":"AddressShouldBeValidator","inputs":[]},{"type":"error","name":"CannotConfirmFutureChanges","inputs":[]},{"type":"error","name":"CannotReleaseZero","inputs":[]},{"type":"error","name":"CollateralIsZero","inputs":[]},{"type":"error","name":"EmptyAddress","inputs":[]},{"type":"error","name":"EnforcedPause","inputs":[]},{"type":"error","name":"ExpectedPause","inputs":[]},{"type":"error","name":"FailedInnerCall","inputs":[]},{"type":"error","name":"InvalidCheckpointEpoch","inputs":[]},{"type":"error","name":"InvalidCheckpointMessagesHash","inputs":[]},{"type":"error","name":"InvalidFederationPayload","inputs":[]},{"type":"error","name":"InvalidPublicKeyLength","inputs":[]},{"type":"error","name":"InvalidSignatureErr","inputs":[{"name":"","type":"uint8","internalType":"uint8"}]},{"type":"error","name":"MethodNotAllowed","inputs":[{"name":"reason","type":"string","internalType":"string"}]},{"type":"error","name":"NoCollateralToWithdraw","inputs":[]},{"type":"error","name":"NotAllValidatorsHaveLeft","inputs":[]},{"type":"error","name":"NotEnoughBalance","inputs":[]},{"type":"error","name":"NotEnoughCollateral","inputs":[]},{"type":"error","name":"NotEnoughFunds","inputs":[]},{"type":"error","name":"NotGateway","inputs":[]},{"type":"error","name":"NotOwner","inputs":[]},{"type":"error","name":"NotOwnerOfPublicKey","inputs":[]},{"type":"error","name":"NotStakedBefore","inputs":[]},{"type":"error","name":"NotValidator","inputs":[{"name":"","type":"address","internalType":"address"}]},{"type":"error","name":"PQDoesNotContainAddress","inputs":[]},{"type":"error","name":"PQEmpty","inputs":[]},{"type":"error","name":"ReentrancyError","inputs":[]},{"type":"error","name":"SubnetAlreadyBootstrapped","inputs":[]},{"type":"error","name":"SubnetAlreadyKilled","inputs":[]},{"type":"error","name":"WithdrawExceedingCollateral","inputs":[]}],"bytecode":{"object":"0x6080806040523461001657614a04908161001c8239f35b600080fdfe608080604052600436101561001357600080fd5b600090813560e01c9081630b7fbe60146117e35750806310fd4261146116805780632e17de7814611653578063350a14bf146116365780633a4b66f1146116125780633f4ba83a1461159a57806341c0e1b5146115005780634e71d92d1461136c5780635c975abb1461133c5780636170b16214610dcd57806366783c9b14610cec5780638456cb5914610c84578063a8284de3146106c9578063c7ebdaef14610681578063cc2dc2b914610604578063d66d9e19146105b9578063da5d09ee14610201578063ed7c4da1146101455763f9002bb1146100f257600080fd5b60403660031901126101425761010661196b565b61010e611b0a565b6009546001600160a01b031633036101305761012d9060243590614440565b80f35b60405163e7e601db60e01b8152600490fd5b80fd5b50346101425780600319360112610142576000805160206149af83398151915260018154146101ef5780600183925561017c611b0a565b73__$4a8700ca5e162cb61a0c4650a4871f1ad5$__803b156101eb5782602491604051928380926382985e0b60e01b82523360048301525af49081156101e05783916101c9575b50505580f35b6101d2906118aa565b6101dd5781386101c3565b50fd5b6040513d85823e3d90fd5b5050fd5b6040516329f745a760e01b8152600490fd5b5034610142576060366003190112610142576004356001600160401b0381116105b557610232903690600401611995565b906024356001600160401b0381116105b157610252903690600401611995565b916044356001600160401b0381116105ad57610272903690600401611995565b909461027c613a26565b610284611ac5565b60ff600e5416600281101561059957600103610569578181036105575784810361055757865b8181106102b5578780f35b6102c96102c38288886139b0565b9061484b565b6001600160a01b036102e46102df8486896139f1565b611e87565b166001600160a01b03909116036105455761034e6103066102df8385886139f1565b6103118389896139b0565b61031f85888d9694966139f1565b3561033a604051958693604060208601526060850191611c53565b90604083015203601f1981018452836118f3565b6001600160401b0360175416604051610366816118d8565b600381526020810184815260018060a01b038416604083015282600052601860205260406000209082516103998161200b565b6103a28161200b565b60ff80198454169116178255518051906001600160401b03821161052f576103da826103d1600186015461202b565b6001860161211e565b602090601f83116001146104a857928260008051602061496f83398151915297959360029360019b9a989660009261049d575b5050600019600383901b1c1916908a1b17818a01555b01906040888060a01b03910151166001600160601b0360a01b8254161790556001600160401b0361045382611b49565b166001600160401b0319601754161760175561048e60405193849360038552888060a01b031660208501526080806040860152840190613a01565b9060608301520390a1016102aa565b01519050388061040d565b906001840160005260206000209160005b601f198516811061051757508360029360019b9a9896938c9360008051602061496f8339815191529b9997601f198116106104fe575b505050811b0189820155610423565b015160001960f88460031b161c191690553880806104ef565b919260206001819286850151815501940192016104b9565b634e487b7160e01b600052604160045260246000fd5b604051634be9251d60e11b8152600490fd5b604051637e65935960e01b8152600490fd5b610595610574613a47565b60405163015538b160e01b8152602060048201529182916024830190613a01565b0390fd5b634e487b7160e01b88526021600452602488fd5b8580fd5b8380fd5b5080fd5b50346101425780600319360112610142576000805160206149af83398151915260018154146101ef578060018392556105f0611b0a565b6105f8613a26565b61060061424b565b5580f35b5034610142576060366003190112610142576001600160401b0360043581811161067d573660238201121561067d576106479036906024816004013591016119f0565b60443591821161067d573660238301121561067d5761067361012d923690602481600401359101611a46565b9060243590614510565b8280fd5b50346101425780600319360112610142576001600160401b036000198160175416019081116106b35761012d90612243565b634e487b7160e01b600052601160045260246000fd5b5034610142576080366003190112610142576001600160401b03600435116101425760a060043536036003190112610142576024356001600160401b0381116105b55761071a903690600401611995565b91906044356001600160401b03811161067d5761073b903690600401611995565b6064356001600160401b038111610afc5761075a903690600401611995565b92610763611b0a565b610771602460043501611b35565b926001600160401b03600554166001600160401b0360075416946001600160401b038061079e8885611b61565b169116141580610c64575b610c52576040516020810190602082526107da816107cc8d60408301908d611cdd565b03601f1981018352826118f3565b5190206084600435013503610c4057604051602080820152610808816107cc60408201600435600401611e11565b60208151910120946001600160401b038061083161082a602460043501611b35565b9385611b61565b16911614600014610b0057509161085261085a9261086096959436916119f0565b933691611a46565b91614510565b6001600160401b03610876602460043501611b35565b168252816020526040822092600435600401356042196004353603018112156105b157600435016001600160401b036108b160048301611b35565b166001600160401b031986541617855560248101359060221981360301821215610afc5701936001600160401b036004860135116105b157600485013560051b360360248601136105b157600160401b600486013511610ae85760019485820180546004830135825580600484013510610ac9575b506024820190865260208620865b60048401358110610aab5750505050839450600281016001600160401b03610960602460043501611b35565b166001600160401b03198254161790556044600435013560038201556001600160401b03610992606460043501611b35565b1660048201906001600160401b03198254161790556005608460043501359101556001600160401b036109c9602460043501611b35565b168352601d6020526109df604084203390611f86565b506001600160401b036109f6602460043501611b35565b166001600160401b0319600554161760055560018060a01b036009541691823b15610aa657610a6092849283604051809681958294637a2b59cf60e11b845260406004850152610a4e60448501600435600401611e11565b84810360031901602486015291611cdd565b03925af18015610a9b57610a87575b505061012d610a82606460043501611b35565b612243565b610a90906118aa565b610142578038610a6f565b6040513d84823e3d90fd5b505050fd5b886004916020610aba86611e87565b95019481850155019050610934565b81875260208720610ae291810190600485013501611e70565b38610926565b634e487b7160e01b84526041600452602484fd5b8480fd5b9550505050929350506001600160401b03610b1f602460043501611b35565b1614610b2a575b5080f35b6001600160401b03610b40602460043501611b35565b168252816020526040822060405160208101916020835260a06040830152816101208101916001600160401b0381541660e0830152600190818101916040610100850152825480955261014084019289526020892090895b868110610c1f5750505060028101546001600160401b0390811660608501526003820154608085015260048201541660a08401526005015460c083015203601f1981018352610be89150826118f3565b51902014610bf35780f35b6001600160401b03610c09602460043501611b35565b168152601d602052610b26604082203390611f86565b82546001600160a01b03168552879550602090940193918101918101610b98565b604051632d7f750360e21b8152600490fd5b60405163fae4eadb60e01b8152600490fd5b50806001600160401b03610c7c602460043501611b35565b1614156107a9565b5034610142578060031936011261014257610c9d611ac5565b610ca5611b0a565b60008051602061498f833981519152600160ff198254161790557f5db9ee0a495bf2e6ff9c91a7834c1ba4fdd244a5e8aa4e537bd38aeae4b073aa6020604051338152a180f35b5034610142576020366003190112610142576004356000805160206149af83398151915260018154146101ef57600181558115610dbb5760ff600d5460081c16610da957338352600360205281604084205410610d97576106008392338452600360205260408420610d5f8282546127bd565b9055610d6d816002546127bd565b6002553384526003602052604084205415610d89575b33613936565b610d9233614887565b610d83565b60405163569d45cf60e11b8152600490fd5b604051631b39f2f360e11b8152600490fd5b604051631036b5ad60e31b8152600490fd5b50602036600319011261014257600435906001600160401b0382116101425736602383011215610142576001600160401b0382600401351161014257602436818460040135850101116105b55760016000805160206149af83398151915254146101ef5760016000805160206149af83398151915255610e4b611b0a565b610e53613a26565b60ff600d5460081c168061132f575b341561131d57604184600401350361130b57610e84846004013583860161484b565b336001600160a01b0390911603610545576111095733600090815260106020526040902060039390840190610ec78160040135610ec1845461202b565b8461211e565b83601f826004013511600114611094578385918360040135611087575b5050816004013560011b916000199060040135871b1c19161790555b610f0a3433613aff565b600f54600654811015610f31575b505090505b806000805160206149af8339815191525580f35b61ffff601154166001600160401b0360075460401c1611610f185761010061ff0019600d541617600d5560405193602085019060208652600154809252604086019160408160051b88010192600187527fb10e2d527612073b26eecdfd717e6a320cf44b4afac2b0732d9fcbe2b7fa0cf69287915b83831061103a5750505050508484957f4914d88063275a25a13b2df37125e216745d812f94c56504be4bd78cf60c9593920390a160018060a01b0360095416610ff260025480936126f3565b92813b15610afc5784926040519485938492637903ab2760e11b845260048401525af18015610a9b57611026575b80610f18565b61102f906118aa565b610142578038611020565b90919293946020836110786001938d603f1990820301865289548152848060a01b03858b015416848201526060908160408201520160028a01612065565b97019201930191909392610fa6565b8301013590508338610ee4565b828552602085208592916004830135601f19165b8085106110ec57600194508360040135116110ce575b505060040135811b019055610f00565b82018501356000196004840135891b60f8161c1916905538806110be565b8382018701358355602094850194600190930192909101906110a8565b61111a36846004013583860161192f565b926001600160401b0360175416604051611133816118d8565b6002815260208101958652336040820152816000526018602052604060002095815161115e8161200b565b6111678161200b565b60ff80198954169116178755519586516001600160401b0381116112f65761119f81611196600185015461202b565b6001850161211e565b6020601f82116001146112745790806002939260008051602061496f833981519152999a600092611269575b50508160011b916000199060031b1c19161760018201555b0190604060018060a01b03910151166001600160601b0360a01b8254161790556001600160401b0361121482611b49565b166001600160401b031960175416176017556112516040519384936002855233602086015260806040860152608085019181600401359101611c53565b9060608301520390a16112643433613d10565b610f1d565b0151905038806111cb565b6001830160005260206000209860005b601f19841681106112de57509160008051602061496f83398151915298996001926002959483601f198116106112c5575b505050811b0160018201556111e3565b015160001960f88460031b161c191690553880806112b5565b828201518b556001909a019960209283019201611284565b85634e487b7160e01b60005260416004526000fd5b6040516318dca5e960e21b8152600490fd5b604051635a78c58160e11b8152600490fd5b611337613f0c565b610e62565b5034610142578060031936011261014257602060ff60008051602061498f83398151915254166040519015158152f35b50346101425780600319360112610142576001906000805160206149af833981519152828154146101ef578281556113a2611b0a565b336000908152601a602052604090209283549061ffff908183169283156114ee57829060101c16918391808795818a01915b611468575b5050508661144a937f197c586353eaed0a1c53e6e540445b94befab8f932c8115d112115ecbeeed514959363ffff000093899a54911693849260101b169063ffffffff19161717905515611451575b6114328133613936565b60408051338152602081019290925290918291820190565b0390a15580f35b336000908152601a60205260409020859055611428565b9091939483811696828810156114e55787600052602080918582526040600020604051611494816118bd565b898254928383520154938491015243106114da57859493889688946114bb86958a956126f3565b9c600052526000826040822082815501550116966000190116946113d4565b9850505094936113d9565b965094936113d9565b6040516364b0557f60e01b8152600490fd5b5034610142578060031936011261014257611519613a26565b61ffff61152f8160145416826011541690612713565b1661158857600d805462ff000019166201000017905560095481906001600160a01b0316803b156101dd5781906004604051809481936341c0e1b560e01b83525af18015610a9b5761157f575080f35b61012d906118aa565b604051636b62255160e11b8152600490fd5b50346101425780600319360112610142576115b3611ac5565b60008051602061498f833981519152805460ff8116156116005760ff191690557f5db9ee0a495bf2e6ff9c91a7834c1ba4fdd244a5e8aa4e537bd38aeae4b073aa6020604051338152a180f35b604051638dfc202b60e01b8152600490fd5b508060031936011261014257611626611b0a565b61162e613a26565b61012d613f21565b50346101425760203660031901126101425761012d610a8261196b565b50346101425760203660031901126101425761166d611b0a565b611675613a26565b61012d600435613f7b565b50346101425760209081600319360112610142576001600160401b039160043583811161067d573660238201121561067d576116c690369060248160040135910161192f565b926116cf611b0a565b3383526012825261ffff604084205416156117cb578351156117b957338352601e825260408320918451918211610ae8576117148261170e855461202b565b8561211e565b80601f8311600114611755575083948293949261174a575b50508160011b916000199060031b1c19161790555b610b2633611f1f565b01519050388061172c565b90601f198316958486528286209286905b8882106117a157505083600195969710611788575b505050811b019055611741565b015160001960f88460031b161c1916905538808061177b565b80600185968294968601518155019501930190611766565b604051637138356f60e01b8152600490fd5b604051633b4f6e2b60e21b8152336004820152602490fd5b9050816003193601126105b557341561189b575060ff600d5460081c16610da9573381526003602052604081205415611842575b33815260036020526040812061182e3482546126f3565b905561183c346002546126f3565b60025580f35b600454600160401b811015611887576118648160016118829301600455611e9b565b81546001600160a01b0360039290921b91821b19163390911b179055565b611817565b634e487b7160e01b82526041600452602482fd5b631036b5ad60e31b8152600490fd5b6001600160401b03811161052f57604052565b604081019081106001600160401b0382111761052f57604052565b606081019081106001600160401b0382111761052f57604052565b90601f801991011681019081106001600160401b0382111761052f57604052565b6001600160401b03811161052f57601f01601f191660200190565b92919261193b82611914565b9161194960405193846118f3565b829481845281830111611966578281602093846000960137010152565b600080fd5b600435906001600160401b038216820361196657565b35906001600160401b038216820361196657565b9181601f84011215611966578235916001600160401b038311611966576020808501948460051b01011161196657565b6001600160401b03811161052f5760051b60200190565b35906001600160a01b038216820361196657565b92916119fb826119c5565b91611a0960405193846118f3565b829481845260208094019160051b810192831161196657905b828210611a2f5750505050565b838091611a3b846119dc565b815201910190611a22565b92919092611a53846119c5565b91611a6160405193846118f3565b829480845260208094019060051b8301928284116119665780915b848310611a8b57505050505050565b82356001600160401b03811161196657820184601f82011215611966578691611aba868385809535910161192f565b815201920191611a7c565b7f806e0cbb9fce296bbc336a48f42bf1dbc69722d18d90d6fe705b7582c2bb4bd5546001600160a01b03163303611af857565b6040516330cd747160e01b8152600490fd5b60ff60008051602061498f8339815191525416611b2357565b60405163d93c066560e01b8152600490fd5b356001600160401b03811681036119665790565b9060016001600160401b03809316019182116106b357565b9190916001600160401b03808094169116019182116106b357565b9035603e1982360301811215611966570190565b6001600160401b0391906040820183611ba883611981565b16835260209182810135601e19823603018112156119665701928284359401948411611966578360051b36038513611966576040818401529083905260600192919060005b828110611bfb575050505090565b909192938280600192838060a01b03611c13896119dc565b16815201950193929101611bed565b9035601e19823603018112156119665701602081359101916001600160401b03821161196657813603831361196657565b908060209392818452848401376000828201840152601f01601f1916010190565b611c9d611c92611c848380611b7c565b604085526040850190611b90565b916020810190611b7c565b91602081830391015281359160ff831680930361196657611cca604091611cda9484526020810190611c22565b9190928160208201520191611c53565b90565b90918092808252602080920191808260051b86010194846000915b848310611d09575050505050505090565b90919293949596601f19828203018752611d238884611b7c565b90813560de198336030181121561196657820191604090818352611d478480611b7c565b611d5d60e0918285870152610120860190611c74565b92611d6a8a870187611b7c565b6001600160401b03611d9f611d8d603f1997606094898b830301868c0152611c74565b926080948a0135858a01528901611981565b169160a092838801528701359263ffffffff60e01b8416809403611966578b95611dd5611de59460c096878b01528a018a611c22565b9290918985030190890152611c53565b940135610100840152013590811515809203611966578601529684019584019493926001019190611cf8565b90608080611e30611e228580611b7c565b60a0855260a0850190611b90565b936001600160401b0380611e4660208401611981565b16602086015260408201356040860152611e6260608301611981565b166060850152013591015290565b818110611e7b575050565b60008155600101611e70565b356001600160a01b03811681036119665790565b600454811015611ed25760046000527f8a35acfbc15ff81a39ae7d344fd709f28e8600b4aa8c65c6b64bfe7fe36bd19b0190600090565b634e487b7160e01b600052603260045260246000fd5b601f54811015611ed257601f6000527fa03837a25210ee280c2113ff4b77ca23440b19d4866cca721c801278fd08d8070190600090565b6000818152602080526040812054611f8157601f54600160401b811015611887579082611f6e611f5784600160409601601f55611ee8565b819391549060031b91821b91600019901b19161790565b9055601f54928152602080522055600190565b905090565b9190600183016000908282528060205260408220541560001461200557845494600160401b861015611ff15760018601808255861015611fdd57836040949596828552602085200155549382526020522055600190565b634e487b7160e01b83526032600452602483fd5b634e487b7160e01b83526041600452602483fd5b50925050565b6004111561201557565b634e487b7160e01b600052602160045260246000fd5b90600182811c9216801561205b575b602083101461204557565b634e487b7160e01b600052602260045260246000fd5b91607f169161203a565b90600092918054916120768361202b565b9182825260019384811690816000146120d85750600114612098575b50505050565b90919394506000526020928360002092846000945b8386106120c4575050505001019038808080612092565b8054858701830152940193859082016120ad565b9294505050602093945060ff191683830152151560051b01019038808080612092565b60005b83811061210e5750506000910152565b81810151838201526020016120fe565b9190601f811161212d57505050565b612159926000526020600020906020601f840160051c8301931061215b575b601f0160051c0190611e70565b565b909150819061214c565b9080821461223f57612177815461202b565b906001600160401b03821161052f57819061219c82612196865461202b565b8661211e565b600090601f83116001146121d3576000926121c8575b50508160011b916000199060031b1c1916179055565b0154905038806121b2565b81526020808220858352818320935090601f1985169083905b82821061222657505090846001959493921061220d575b505050811b019055565b015460001960f88460031b161c19169055388080612203565b84958192958501548155600180910196019401906121ec565b5050565b6017546001600160401b038281169290808316841061226e5760405163040aaa0560e11b8152600490fd5b808360401c1684106120925780604093841c165b8482821611156122e9575050916020916122bc7f246f00b61ce672242f33bb680a47147cd54d3dfd04dbb76956ba42f88087bf6394611b49565b67ffffffffffffffff60401b60175491831b169067ffffffffffffffff60401b19161760175551908152a1565b81612307826001600160401b03166000526018602052604060002090565b6002808201548254929491926001600160a01b03918216919060ff1661232c8161200b565b80850361239e575050600361235d600161236394959697019260018060a01b03166000526010602052604060002090565b01612165565b612380816001600160401b03166000526018602052604060002090565b916000908184556001936123958582016127ca565b01550116612282565b909194506123ab8161200b565b6003918183036125495750508751936123d3856123cc816001809a01612065565b03866118f3565b84518501916020928a8785830192031261196657838701518981116119665787019681603f890112156119665787858d9901519261241c61241385611914565b9a519a8b6118f3565b838a528d8483010111611966578c9261243a9184888c0191016120fb565b0151928161245a8460018060a01b03166000526010602052604060002090565b01918751918a8311612534578a9861247c84612476875461202b565b8761211e565b81601f85116001146124c157506124b19798999a84939284926000956124b6575b50501b92600019911b1c1916179055612729565b612363565b01519350388061249d565b91601f9b9493919b1984169b866000528c84600020946000915b8210612519575050846124b19a9b9c9d106124ff575b50505050811b019055612729565b01519060f884600019921b161c19169055388080806124f1565b8383015186558f9d509487019492830192908101908e6124db565b60246000634e487b7160e01b81526041600452fd5b91509193889593955193612565856123cc816001809501612065565b602080868051810103126119665781818c970151956125838161200b565b036126a85784906125948285612813565b6019546125a190436126f3565b928751906125ae826118bd565b8482528282018481526001600160a01b0387166000908152601a602052604090209091909283549161ffff9384848180961695869160101c16906125f191612713565b169c60009d8e5282870188528d20925183555191015561261090612700565b1661ffff198254161790558b519384528301528982015260607f083b080788e20bd0930c2bca2ae4fbc51a59ced08c1b5992271f8cb439498a6391a16009541690813b1561067d578291602483928a5195869384926345f5448560e01b845260048401525af190811561269d5750908493929161268e575b50612363565b612697906118aa565b38612688565b8751903d90823e3d90fd5b5050829350916126b8919261276d565b6009541690813b15611966578651916316989f6f60e21b83528260048160009485945af190811561269d5750908493929161268e5750612363565b919082018092116106b357565b90600161ffff809316019182116106b357565b91909161ffff808094169116019182116106b357565b9060018060a01b03821660005260106020526040600020818154915581811460001461275457505050565b81111561276457612159916128a2565b61215991612be8565b90612159916127b560018060a01b0382169283600052601060205261279a816001604060002001546126f3565b93600052601060205283600160406000200155600f546126f3565b600f556128a2565b919082039182116106b357565b6127d4815461202b565b90816127de575050565b81601f600093116001146127f0575055565b90808391825261280f601f60208420940160051c840160018501611e70565b5555565b906128806128889260018060a01b03811690600082815260106020526128408560016040842001546127bd565b9281526010602052604081206002810184815481159081612899575b501561288d5750908260039261287b94835581600184015555016127ca565b612be8565b600f546127bd565b600f55565b92505060010155612be8565b9050153861285c565b919060018060a01b03928381166000948186526020916012835261ffff91604097838982205416612ad35783600e5460081c16846011541610612a9f576128e76136f5565b60019283825260138652828a832054168861290182612fd3565b10612a19575081526015855283898220541661297057505050505061296b7f19fe3ca603e87854a0747cc10abf06bac64d61bac73d6d15f2fd3ca448f15264939461294b83612f5e565b516001600160a01b03909216825260208201929092529081906040820190565b0390a1565b61297986613748565b9261298387612fd3565b935b81868216116129db575b505097516001600160a01b0390951685525050505060208101919091529091507fda148fac2e1063174be7bc0895576bdaba90fd14e575463fa26a967cb895cadd90806040810161296b565b80856129fa86617fff8f95871c169485885260168c5287205416612fd3565b1015612a135790612a0c8392826138a7565b9050612985565b5061298f565b969750899493507ffaeb8de771b867cf357f6b459a7002b62ec45d544a8078a3ecd91200cc826d759899925061296b95601591612a546133ed565b835252205416612a91575b612a6884613378565b612a7183612f5e565b516001600160a01b03928316815292909116602083015281906040820190565b612a9a8461319d565b612a5f565b505050505061296b7f2e8038f5812f763c6ef0c5427cb5a05ce6d7064af2ba7d1d270bc02660b019fd939461294b83613378565b97929150612ae48594979695613711565b97612aee85612fd3565b97612af88a613309565b8460115416905b858116828111612bb15782811015612b95575080612b1f612b2592612700565b906136a5565b9b909b5b8b1115612b4857612b3a908c61380e565b612b438b613309565b612aff565b505093516001600160a01b0390951685525050505060208101919091529092507f143db27bc2036653dc6f962ff9d0b803163d4af50c256ca9e6927b3d6dcd01979150806040810161296b565b849c919c5260138352612bac858886205416612fd3565b612b29565b5050505050505061296b91929395507f143db27bc2036653dc6f962ff9d0b803163d4af50c256ca9e6927b3d6dcd0197945061294b565b909160018060a01b03928383169060009382855260206015815261ffff95604094878683205416612e22578082526012835287868320541615612e11578415612d695750612c3583613711565b97612c3f84612fd3565b985b6001808a83161115612d5a5781617fff911c1690818452601385528a612c6b848a87205416612fd3565b1115612c8057612c7b908261380e565b612c41565b505091939597509193955b6014541615612d5257612c9c6136f5565b600182526013835285818184205416926016612cb785612fd3565b95612cc0613703565b600183525220541691612cd283612fd3565b11612d1957505091516001600160a01b03909216825260208201527f143db27bc2036653dc6f962ff9d0b803163d4af50c256ca9e6927b3d6dcd019790806040810161296b565b9150915061296b7ffaeb8de771b867cf357f6b459a7002b62ec45d544a8078a3ecd91200cc826d7593612d4a6133ed565b612a5f613036565b505050505050565b50509193959750919395612c8b565b829450612d9d7f4a4c5d1a281180eea1e99d8177fa4798b9f7e019d5c57e7d8d73c6a22199aa5b9392989499969799613536565b8651908152a160145416612db15750505050565b7f2e8038f5812f763c6ef0c5427cb5a05ce6d7064af2ba7d1d270bc02660b019fd9360168492612ddf613703565b6001835252205416612e05612df382612fd3565b92612dfc613036565b61294b83613378565b0390a138808080612092565b8551632a55ca5360e01b8152600490fd5b84969792939598919415612f23575061fffe9193612e3f86613748565b93612e4987612fd3565b9480966001958692831b168160145416925b612eaf575b505099516001600160a01b039097168752505050506020830193909352509192507fda148fac2e1063174be7bc0895576bdaba90fd14e575463fa26a967cb895cadd919050806040810161296b565b818116838111612f1d578d9084811015612f0157505080612ed2612ed892612700565b90613320565b9890985b881015612efc57612eed90896138a7565b612ef688613309565b86612e5b565b612e60565b865260168552852054909890612f18908716612fd3565b612edc565b50612e60565b94915050612f579194507f3168ba660eed6ef1dc2258b2247cc05fd0f2f350d39e6ad2e2ebc76a8000b40b9596925061319d565b51908152a1565b61215990612fcd61ffff91612f768360145416612700565b9260018060a01b0382169081600052601560205260406000209085169161ffff199183838254161790558260005260166020526040600020906001600160601b0360a01b8254161790556014541617601455612fd3565b906132b4565b60ff600e5416600281101561201557600103613004576001600160a01b031660009081526010602052604090205490565b6001600160a01b031660009081526010602052604090206001015490565b61ffff90811660001901919082116106b357565b61ffff806014541690811561318b5790600190613055818311156137f1565b6000828152601660208181526040808420805486865282862080546001600160a01b0392831680895260158752858920805461ffff199081168c17909155918416808a52868a20805484168d17905588885283546001600160a01b03199081169092179093558a8952845416909117909255929587959394929392916130ef91908a6130e083613022565b1690601454161760145561376d565b848252808652613103848484205416612fd3565b95859860028160145416995b613121575b5050505050505050505050565b8181168a8111613185578a81101561316a575080612ed261314192612700565b9a909a5b89101561316557613156908b6138a7565b61315f8a613309565b8761310f565b613114565b859b919b52838352613180878787205416612fd3565b613145565b50613114565b6040516340d9b01160e01b8152600490fd5b6131a690613748565b61ffff908160145416916131ba83836138a7565b806131c484613022565b1661ffff1960145416176014556131da8361376d565b8082168093146132af579161fffe9160009180835260169060209382855260018060a01b039260409261321a613214868686205416612fd3565b876132b4565b825280865261322d848484205416612fd3565b9585986001988997881b168160145416995b613250575050505050505050505050565b8181168a8111613185578a811015613294575080612ed261327092612700565b9a909a5b89101561316557613285908b6138a7565b61328e8a613309565b8761323f565b859b919b528383526132aa878787205416612fd3565b613274565b505050565b9190915b60018061ffff831611156133035781617fff911c1690836132ee60008481526016602052604060018060a01b0391205416612fd3565b1015613303576132fe90826138a7565b6132b8565b50509050565b60011b906201fffe61fffe8316921682036106b357565b91909161ffff92838216600052601660205261336360018060a01b0361334c8160406000205416612fd3565b958316600052601660205260406000205416612fd3565b908185106133715750509190565b9350919050565b612159906133e761ffff916133908360115416612700565b9260018060a01b0382169081600052601260205260406000209085169161ffff199183838254161790558260005260136020526040600020906001600160601b0360a01b8254161790556011541617601155612fd3565b90613656565b61ffff806011541690811561318b579060019061340c818311156137f1565b6000828152601360208181526040808420805486865282862080546001600160a01b0392831680895260128752858920805461ffff199081168c17909155918416808a52868a20805484168d17905588885283546001600160a01b03199081169092179093558a8952845416909117909255929587959394929392916134a691908a61349783613022565b169060115416176011556137af565b8482528086526134ba848484205416612fd3565b95859860028160115416995b6134d7575050505050505050505050565b8181168a8111613185578a81101561351b575080612b1f6134f792612700565b9a909a5b8911156131655761350c908b61380e565b6135158a613309565b876134c6565b859b919b52838352613531878787205416612fd3565b6134fb565b61353f90613711565b9061ffff90816011541690613554828561380e565b8261355e83613022565b1661ffff196011541617601155613574826137af565b8284168092146136505760009291929183835260139260209484865260018060a01b03916040916135b26135ac858585205416612fd3565b8a613656565b81528587526135c5838383205416612fd3565b956135cf89613309565b978560115416985b8681168a8111613642578a811015613627575080612b1f6135f792612700565b9a909a5b89111561361a5761360c908b61380e565b6136158a613309565b6135d7565b5050505050505092505050565b849b919b5282825261363d868686205416612fd3565b6135fb565b505050505050505092505050565b92505050565b9190915b60018061ffff831611156133035781617fff911c16908361369060008481526013602052604060018060a01b0391205416612fd3565b1115613303576136a0908261380e565b61365a565b919061ffff80841660005260136020526136e660018060a01b036136cf8160406000205416612fd3565b928416600052601360205260406000205416612fd3565b93848211156133715750509190565b61ffff601154161561318b57565b61ffff601454161561318b57565b6001600160a01b031660009081526012602052604090205461ffff1690811561373657565b60405163f2755e3760e01b8152600490fd5b6001600160a01b031660009081526015602052604090205461ffff1690811561373657565b61ffff16600090815260166020908152604080832080546001600160a01b031981169091556001600160a01b0316835260159091529020805461ffff19169055565b61ffff16600090815260136020908152604080832080546001600160a01b031981169091556001600160a01b0316835260129091529020805461ffff19169055565b156137f857565b634e487b7160e01b600052600160045260246000fd5b61383361ffff808060115416931693613829848611156137f1565b16918211156137f1565b6000828152601360208181526040808420805486865282862080546001600160a01b0392831680895260128752858920805461ffff19908116909b1790559216808852938720805490981689179097559390925284546001600160a01b031990811690931790945593909152825416179055565b6138c261ffff808060145416931693613829848611156137f1565b6000828152601660208181526040808420805486865282862080546001600160a01b0392831680895260158752858920805461ffff19908116909b1790559216808852938720805490981689179097559390925284546001600160a01b031990811690931790945593909152825416179055565b814710613998576000918291829182916001600160a01b03165af13d15613993573d61396181611914565b9061396f60405192836118f3565b8152600060203d92013e5b1561398157565b604051630a12f52160e11b8152600490fd5b61397a565b60405163cd78605960e01b8152306004820152602490fd5b9190811015611ed25760051b81013590601e19813603018212156119665701908135916001600160401b038311611966576020018236038113611966579190565b9190811015611ed25760051b0190565b90602091613a1a815180928185528580860191016120fb565b601f01601f1916010190565b60ff600d5460101c16613a3557565b60405163248c8efb60e11b8152600490fd5b60405190608082018281106001600160401b0382111761052f576040526045825264185c1c195960da1b6060837f4d6574686f64206e6f7420616c6c6f776564206966207065726d697373696f6e60208201527f656420697320656e61626c656420616e64207375626e657420626f6f7473747260408201520152565b600154811015611ed2576003906001600052027fb10e2d527612073b26eecdfd717e6a320cf44b4afac2b0732d9fcbe2b7fa0cf60190600090565b90613b1490613b0e8184613ce9565b8261276d565b60ff600d5460081c1615613b255750565b60018054600082815b838110613cb8575b505015613b4257505050565b6001600160a01b038316600090815260106020526040902082810154613b9894909160030160405192613b74846118d8565b8352602093613b9f8585019260018060a01b03809516845260405198898092612065565b03886118f3565b60408401968752600160401b81101561052f578086613bc092018755613ac4565b929092613ca2576002935183558583019151166001600160601b0360a01b825416179055019251908151916001600160401b03831161052f57613c0783612476875461202b565b81601f8411600114613c405750928293918392600094613c35575b50501b916000199060031b1c1916179055565b015192503880613c22565b919083601f1981168760005284600020946000905b88838310613c885750505010613c6f57505050811b019055565b015160001960f88460031b161c19169055388080612203565b858701518855909601959485019487935090810190613c55565b634e487b7160e01b600052600060045260246000fd5b81613cc282613ac4565b5001546001600160a01b03878116911614613cdf57018390613b2e565b5090508238613b36565b60018060a01b03166000526010602052613d0c60026040600020019182546126f3565b9055565b91906040519281602085015260208452613d29846118bd565b6001600160401b03601754169360405194613d43866118d8565b60008652602086019582875260018060a01b03841660408201528160005260186020526040600020968151613d778161200b565b613d808161200b565b60ff80198a54169116178855519687516001600160401b03811161052f57613daf81611196600185015461202b565b6020601f8211600114613e8157613e6894928260008051602061496f8339815191529795936002936121599c9d600092613e76575b50508160011b916000199060031b1c19161760018201555b0190604060018060a01b03910151166001600160601b0360a01b8254161790556001600160401b03613e2d82611b49565b166001600160401b031960175416176017556040519283926000845260018060a01b0387166020850152608060408501526080840190613a01565b9060608301520390a1613ce9565b015190503880613de4565b6001830160005260206000209960005b601f1984168110613ef45750926001836121599b9c600294613e68999760008051602061496f8339815191529b9997601f19811610613edb575b505050811b016001820155613dfc565b015160001960f88460031b161c19169055388080613ecb565b828201518c556001909b019a60209283019201613e91565b60ff600e541660028110156120155761056957565b613f29613f0c565b341561131d573360009081526010602052604090206002015415613f695760ff600d5460081c1615613f5f576121593433613d10565b6121593433613aff565b60405163528fc16560e01b8152600490fd5b613f83613f0c565b8015613fea573360009081526010602052604090206002015480156117cb57811015613fd95760ff600d5460081c1615613fc157612159903361404f565b80613fcf6121599233613ffc565b610d838133612813565b60405162d11df360e61b8152600490fd5b60405163c79cad7b60e01b8152600490fd5b6001600160a01b0316600081815260106020526040902060020154909180821061403d57614029916127bd565b906000526010602052600260406000200155565b60405163ac69360360e01b8152600490fd5b91906040519281602085015260208452614068846118bd565b6001600160401b03601754169360405194614082866118d8565b60018652602086019582875260018060a01b038416604082015281600052601860205260406000209681516140b68161200b565b6140bf8161200b565b60ff80198a54169116178855519687516001600160401b03811161052f576140ee81611196600185015461202b565b6020601f82116001146141c0576141a794928260008051602061496f8339815191529795936002936121599c9d6000926141b5575b50508160011b916000199060031b1c19161760018201555b0190604060018060a01b03910151166001600160601b0360a01b8254161790556001600160401b0361416c82611b49565b166001600160401b031960175416176017556040519283926001845260018060a01b0387166020850152608060408501526080840190613a01565b9060608301520390a1613ffc565b015190503880614123565b6001830160005260206000209960005b601f19841681106142335750926001836121599b9c6002946141a7999760008051602061496f8339815191529b9997601f1981161061421a575b505050811b01600182015561413b565b015160001960f88460031b161c1916905538808061420a565b828201518c556001909b019a602092830192016141d0565b60ff600d5460081c16614338575b3360009081526010602052604090206002015480156117cb5761427b33614345565b50600090338252601e6020528160408120614296815461202b565b806142fb575b50505060ff600d5460081c16156142b85761215991503361404f565b60406121599233815260036020522054806142d9575b50613fcf8133613ffc565b806142e96142f5926002546127bd565b600255610d8333614887565b386142ce565b82601f8211600114614313575050555b81388061429c565b9091808252614331601f60208420940160051c840160018501611e70565b555561430b565b614340613f0c565b614259565b600081815260208080526040822054919290918015614426576000199080820181811161441257601f54908382019182116143fe578082036143cc575b505050601f5480156143b85781019061439a82611ee8565b909182549160031b1b19169055601f55825280526040812055600190565b634e487b7160e01b85526031600452602485fd5b6143ea6143db611f5793611ee8565b90549060031b1c928392611ee8565b905585528380526040852055388080614382565b634e487b7160e01b87526011600452602487fd5b634e487b7160e01b86526011600452602486fd5b50505090565b8051821015611ed25760209160051b010190565b811561223f576001600160401b0390818060075416911603908082116106b357600091168152602090601d8252604090818120928251808583829754938481520190855283852092855b858282106144fa575050506144a1925003856118f3565b8351948515612d5257858110612d525785900493825b8681106144c75750505050505050565b6001906001600160a01b036144dc828561442c565b51168552601c84528585206144f28882546126f3565b9055016144b7565b855484526001958601958a95509301920161448a565b9182519161451d836119c5565b9360409461452d865191826118f3565b848152601f1961453c866119c5565b0194602095368784013760005b81811061461357505060009461ffff8060115416600192839182945b6145c2575b505050505060ff60095460a01c16948581029581870414901517156106b357606461459695049161468a565b90156145a0575050565b60078110156120155760ff602492519163282ef1c160e01b8352166004820152fd5b90919293988a858b1683811161460b5760009081526013855220548493929186918591614601916145fb906001600160a01b0316612fd3565b906126f3565b9b01169493614565565b50509861456a565b6001600160a01b0380614626838761442c565b51166000526012885261ffff89600020541615614666579061465560019261464e838861442c565b5116612fd3565b61465f828661442c565b5201614549565b88906146746024938761442c565b519151633b4f6e2b60e21b815291166004820152fd5b845192946000949084156147725782518514801590614767575b61475a579392919085945b8486106146d25750505050505010156146ca57600090600690565b600190600090565b9091929394956146ec6146e5888461442c565b518461477f565b506146f68161200b565b614749576001600160a01b038061470d8a8861442c565b51169116036147395761472d600191614726898861442c565b51906126f3565b960194939291906146af565b5050505050505050600090600490565b505050505050505050600090600590565b5050505050905090600190565b5083518514156146a4565b5050505050905090600290565b81519190604183036147b0576147a992506020820151906060604084015193015160001a906147bb565b9192909190565b505060009160029190565b91907f7fffffffffffffffffffffffffffffff5d576e7357a4501ddfe92f46681b20a0841161483f57926020929160ff608095604051948552168484015260408301526060820152600092839182805260015afa156148335780516001600160a01b0381161561482a57918190565b50809160019190565b604051903d90823e3d90fd5b50505060009160039190565b90614858604182146137f1565b8060011161196657614873913691600019019060010161192f565b80516020909101206001600160a01b031690565b60049081549160005b83811061489d5750505050565b6148a681611e9b565b90546003916001600160a01b039190831b1c8116858216146148cc575050600101614890565b92935093906000199182810190811161495957906148fd846148f061491c94611e9b565b905490891b1c1691611e9b565b90919082549060031b9160018060a01b03809116831b921b1916179055565b8254801561494457019261492f84611e9b565b81939154921b1b191690555538808080612092565b603184634e487b7160e01b6000525260246000fd5b601185634e487b7160e01b6000525260246000fdfe1c593a2b803c3f9038e8b6743ba79fbc4276d2770979a01d2768ed12bea3243fc451c9429c27db68f286ab8a68f311f1dccab703ba9423aed29cd397ae63f863691bb03ffc16c56fc96b82fd16cd1b3715f0bc3cdc6407005f49bb6205860095a2646970667358221220f46c9a68b29fc420476a4204aea800dd881055bd685ef96f6de9cb24a41021b864736f6c63430008130033","linkReferences":{"src/lib/LibStaking.sol":{"LibStaking":[{"start":410,"length":20}]}}},"methodIdentifiers":{"addBootstrapNode(string)":"10fd4261","claim()":"4e71d92d","claimRewardForRelayer()":"ed7c4da1","confirmChange(uint64)":"350a14bf","confirmNextChange()":"c7ebdaef","distributeRewardToRelayers(uint64,uint256)":"f9002bb1","join(bytes)":"6170b162","kill()":"41c0e1b5","leave()":"d66d9e19","pause()":"8456cb59","paused()":"5c975abb","preFund()":"0b7fbe60","preRelease(uint256)":"66783c9b","setFederatedPower(address[],bytes[],uint256[])":"da5d09ee","stake()":"3a4b66f1","submitCheckpoint(((uint64,address[]),uint64,bytes32,uint64,bytes32),((((uint64,address[]),(uint8,bytes)),((uint64,address[]),(uint8,bytes)),uint256,uint64,bytes4,bytes,uint256),bool)[],address[],bytes[])":"a8284de3","unpause()":"3f4ba83a","unstake(uint256)":"2e17de78","validateActiveQuorumSignatures(address[],bytes32,bytes[])":"cc2dc2b9"},"id":87}