{"abi":[{"type":"function","name":"addBootstrapNode","inputs":[{"name":"netAddress","type":"string","internalType":"string"}],"outputs":[],"stateMutability":"nonpayable"},{"type":"function","name":"claim","inputs":[],"outputs":[],"stateMutability":"nonpayable"},{"type":"function","name":"claimRewardForRelayer","inputs":[],"outputs":[],"stateMutability":"nonpayable"},{"type":"function","name":"confirmChange","inputs":[{"name":"_configurationNumber","type":"uint64","internalType":"uint64"}],"outputs":[],"stateMutability":"nonpayable"},{"type":"function","name":"confirmNextChange","inputs":[],"outputs":[],"stateMutability":"nonpayable"},{"type":"function","name":"distributeRewardToRelayers","inputs":[{"name":"height","type":"uint64","internalType":"uint64"},{"name":"reward","type":"uint256","internalType":"uint256"}],"outputs":[],"stateMutability":"payable"},{"type":"function","name":"join","inputs":[{"name":"publicKey","type":"bytes","internalType":"bytes"}],"outputs":[],"stateMutability":"payable"},{"type":"function","name":"kill","inputs":[],"outputs":[],"stateMutability":"nonpayable"},{"type":"function","name":"leave","inputs":[],"outputs":[],"stateMutability":"nonpayable"},{"type":"function","name":"preFund","inputs":[],"outputs":[],"stateMutability":"payable"},{"type":"function","name":"preRelease","inputs":[{"name":"amount","type":"uint256","internalType":"uint256"}],"outputs":[],"stateMutability":"nonpayable"},{"type":"function","name":"setFederatedPower","inputs":[{"name":"validators","type":"address[]","internalType":"address[]"},{"name":"publicKeys","type":"bytes[]","internalType":"bytes[]"},{"name":"powers","type":"uint256[]","internalType":"uint256[]"}],"outputs":[],"stateMutability":"nonpayable"},{"type":"function","name":"stake","inputs":[],"outputs":[],"stateMutability":"payable"},{"type":"function","name":"submitCheckpoint","inputs":[{"name":"checkpoint","type":"tuple","internalType":"struct BottomUpCheckpoint","components":[{"name":"subnetID","type":"tuple","internalType":"struct SubnetID","components":[{"name":"root","type":"uint64","internalType":"uint64"},{"name":"route","type":"address[]","internalType":"address[]"}]},{"name":"blockHeight","type":"uint64","internalType":"uint64"},{"name":"blockHash","type":"bytes32","internalType":"bytes32"},{"name":"nextConfigurationNumber","type":"uint64","internalType":"uint64"},{"name":"crossMessagesHash","type":"bytes32","internalType":"bytes32"}]},{"name":"messages","type":"tuple[]","internalType":"struct CrossMsg[]","components":[{"name":"message","type":"tuple","internalType":"struct StorableMsg","components":[{"name":"from","type":"tuple","internalType":"struct IPCAddress","components":[{"name":"subnetId","type":"tuple","internalType":"struct SubnetID","components":[{"name":"root","type":"uint64","internalType":"uint64"},{"name":"route","type":"address[]","internalType":"address[]"}]},{"name":"rawAddress","type":"tuple","internalType":"struct FvmAddress","components":[{"name":"addrType","type":"uint8","internalType":"uint8"},{"name":"payload","type":"bytes","internalType":"bytes"}]}]},{"name":"to","type":"tuple","internalType":"struct IPCAddress","components":[{"name":"subnetId","type":"tuple","internalType":"struct SubnetID","components":[{"name":"root","type":"uint64","internalType":"uint64"},{"name":"route","type":"address[]","internalType":"address[]"}]},{"name":"rawAddress","type":"tuple","internalType":"struct FvmAddress","components":[{"name":"addrType","type":"uint8","internalType":"uint8"},{"name":"payload","type":"bytes","internalType":"bytes"}]}]},{"name":"value","type":"uint256","internalType":"uint256"},{"name":"nonce","type":"uint64","internalType":"uint64"},{"name":"method","type":"bytes4","internalType":"bytes4"},{"name":"params","type":"bytes","internalType":"bytes"},{"name":"fee","type":"uint256","internalType":"uint256"}]},{"name":"wrapped","type":"bool","internalType":"bool"}]},{"name":"signatories","type":"address[]","internalType":"address[]"},{"name":"signatures","type":"bytes[]","internalType":"bytes[]"}],"outputs":[],"stateMutability":"nonpayable"},{"type":"function","name":"unstake","inputs":[{"name":"amount","type":"uint256","internalType":"uint256"}],"outputs":[],"stateMutability":"nonpayable"},{"type":"function","name":"validateActiveQuorumSignatures","inputs":[{"name":"signatories","type":"address[]","internalType":"address[]"},{"name":"hash","type":"bytes32","internalType":"bytes32"},{"name":"signatures","type":"bytes[]","internalType":"bytes[]"}],"outputs":[],"stateMutability":"view"},{"type":"event","name":"BottomUpCheckpointExecuted","inputs":[{"name":"epoch","type":"uint64","indexed":false,"internalType":"uint64"},{"name":"submitter","type":"address","indexed":false,"internalType":"address"}],"anonymous":false},{"type":"event","name":"BottomUpCheckpointSubmitted","inputs":[{"name":"checkpoint","type":"tuple","indexed":false,"internalType":"struct BottomUpCheckpoint","components":[{"name":"subnetID","type":"tuple","internalType":"struct SubnetID","components":[{"name":"root","type":"uint64","internalType":"uint64"},{"name":"route","type":"address[]","internalType":"address[]"}]},{"name":"blockHeight","type":"uint64","internalType":"uint64"},{"name":"blockHash","type":"bytes32","internalType":"bytes32"},{"name":"nextConfigurationNumber","type":"uint64","internalType":"uint64"},{"name":"crossMessagesHash","type":"bytes32","internalType":"bytes32"}]},{"name":"submitter","type":"address","indexed":false,"internalType":"address"}],"anonymous":false},{"type":"event","name":"NextBottomUpCheckpointExecuted","inputs":[{"name":"epoch","type":"uint64","indexed":false,"internalType":"uint64"},{"name":"submitter","type":"address","indexed":false,"internalType":"address"}],"anonymous":false},{"type":"event","name":"SubnetBootstrapped","inputs":[{"name":"","type":"tuple[]","indexed":false,"internalType":"struct Validator[]","components":[{"name":"weight","type":"uint256","internalType":"uint256"},{"name":"addr","type":"address","internalType":"address"},{"name":"metadata","type":"bytes","internalType":"bytes"}]}],"anonymous":false},{"type":"error","name":"AddressInsufficientBalance","inputs":[{"name":"account","type":"address","internalType":"address"}]},{"type":"error","name":"AddressShouldBeValidator","inputs":[]},{"type":"error","name":"CannotConfirmFutureChanges","inputs":[]},{"type":"error","name":"CannotReleaseZero","inputs":[]},{"type":"error","name":"CollateralIsZero","inputs":[]},{"type":"error","name":"EmptyAddress","inputs":[]},{"type":"error","name":"FailedInnerCall","inputs":[]},{"type":"error","name":"InvalidCheckpointEpoch","inputs":[]},{"type":"error","name":"InvalidCheckpointMessagesHash","inputs":[]},{"type":"error","name":"InvalidFederationPayload","inputs":[]},{"type":"error","name":"InvalidPublicKeyLength","inputs":[]},{"type":"error","name":"InvalidSignatureErr","inputs":[{"name":"","type":"uint8","internalType":"uint8"}]},{"type":"error","name":"MethodNotAllowed","inputs":[]},{"type":"error","name":"NoCollateralToWithdraw","inputs":[]},{"type":"error","name":"NotAllValidatorsHaveLeft","inputs":[]},{"type":"error","name":"NotEnoughBalance","inputs":[]},{"type":"error","name":"NotEnoughCollateral","inputs":[]},{"type":"error","name":"NotEnoughFunds","inputs":[]},{"type":"error","name":"NotGateway","inputs":[]},{"type":"error","name":"NotOwner","inputs":[]},{"type":"error","name":"NotOwnerOfPublicKey","inputs":[]},{"type":"error","name":"NotStakedBefore","inputs":[]},{"type":"error","name":"NotValidator","inputs":[{"name":"","type":"address","internalType":"address"}]},{"type":"error","name":"PQDoesNotContainAddress","inputs":[]},{"type":"error","name":"PQEmpty","inputs":[]},{"type":"error","name":"ReentrancyError","inputs":[]},{"type":"error","name":"SubnetAlreadyBootstrapped","inputs":[]},{"type":"error","name":"SubnetAlreadyKilled","inputs":[]},{"type":"error","name":"WithdrawExceedingCollateral","inputs":[]}],"bytecode":{"object":"0x60808060405234610016576147b7908161001c8239f35b600080fdfe608080604052600436101561001357600080fd5b600090813560e01c9081630b7fbe60146116a25750806310fd4261146115475780632e17de7814611522578063350a14bf146115055780633a4b66f1146114e957806341c0e1b51461144f5780634e71d92d146112c35780636170b16214610d5c57806366783c9b14610c7b578063a8284de3146106c8578063c7ebdaef14610680578063cc2dc2b914610603578063d66d9e19146105c0578063da5d09ee146101d0578063ed7c4da11461011c5763f9002bb1146100d157600080fd5b6040366003190112610119576100e561182a565b6009546001600160a01b03163303610107576101049060243590614213565b80f35b60405163e7e601db60e01b8152600490fd5b80fd5b503461011957806003193601126101195760008051602061476283398151915260018154146101be5780600183925573__$4a8700ca5e162cb61a0c4650a4871f1ad5$__803b156101ba5782602491604051928380926382985e0b60e01b82523360048301525af49081156101af578391610198575b50505580f35b6101a190611769565b6101ac578138610192565b50fd5b6040513d85823e3d90fd5b5050fd5b6040516329f745a760e01b8152600490fd5b5034610119576060366003190112610119576004356001600160401b0381116105bc57610201903690600401611854565b6024356001600160401b0381116105b857610220903690600401611854565b9190926044356001600160401b0381116105b457610242903690600401611854565b909261024c613850565b7f806e0cbb9fce296bbc336a48f42bf1dbc69722d18d90d6fe705b7582c2bb4bd5546001600160a01b031633036105a25760ff600e5416600281101561058e5760010361057c5781810361056a5784810361056a57865b8181106102ae578780f35b6102c26102bc82888a6137ff565b9061461e565b6001600160a01b036102dd6102d8848689613840565b611cd6565b166001600160a01b0390911603610558576102fc6102d8828487613840565b61034761030a83898b6137ff565b61031885888b959495613840565b35610333604051948593604060208601526060850191611aa2565b90604083015203601f1981018352826117b2565b6001600160401b03601754169160405161036081611797565b600381526020810183815260018060a01b0383166040830152846000526018602052604060002090825161039381611e5a565b61039c81611e5a565b60ff80198454169116178255518051906001600160401b038211610542576103d4826103cb6001860154611e7a565b60018601611f6d565b602090601f83116001146104bb57928260008051602061474283398151915297959360029360019b9a98966000926104b0575b5050600019600383901b1c1916908a1b17818a01555b01906040888060a01b03910151166001600160601b0360a01b8254161790556001600160401b0361044d84611998565b166001600160401b0319601754161760175560405192839160038352878060a01b03166020830152608090816040840152835180928401526104988260a09560208787019101611f4a565b6060830152601f01601f19168101030190a1016102a3565b015190503880610407565b906001840160005260206000209160005b601f198516811061052a57508360029360019b9a9896938c936000805160206147428339815191529b9997601f19811610610511575b505050811b018982015561041d565b015160001960f88460031b161c19169055388080610502565b919260206001819286850151815501940192016104cc565b634e487b7160e01b600052604160045260246000fd5b604051634be9251d60e11b8152600490fd5b604051637e65935960e01b8152600490fd5b6040516341f8b8eb60e11b8152600490fd5b634e487b7160e01b88526021600452602488fd5b6040516330cd747160e01b8152600490fd5b8580fd5b8380fd5b5080fd5b503461011957806003193601126101195760008051602061476283398151915260018154146101be578060018392556105f7613850565b6105ff61401e565b5580f35b5034610119576060366003190112610119576001600160401b0360043581811161067c573660238201121561067c576106469036906024816004013591016118af565b60443591821161067c573660238301121561067c57610672610104923690602481600401359101611905565b90602435906142e3565b8280fd5b50346101195780600319360112610119576001600160401b036000198160175416019081116106b25761010490612092565b634e487b7160e01b600052601160045260246000fd5b5034610119576080366003190112610119576001600160401b03600435116101195760a060043536036003190112610119576024356001600160401b0381116105bc57610719903690600401611854565b91906044356001600160401b03811161067c5761073a903690600401611854565b6064356001600160401b038111610af357610759903690600401611854565b92610768602460043501611984565b926001600160401b03600554166001600160401b0360075416946001600160401b038061079588856119b0565b169116141580610c5b575b610c49576040516020810190602082526107d1816107c38d60408301908d611b2c565b03601f1981018352826117b2565b5190206084600435013503610c37576040516020808201526107ff816107c360408201600435600401611c60565b60208151910120946001600160401b0380610828610821602460043501611984565b93856119b0565b16911614600014610af75750916108496108519261085796959436916118af565b933691611905565b916142e3565b6001600160401b0361086d602460043501611984565b168252816020526040822092600435600401356042196004353603018112156105b857600435016001600160401b036108a860048301611984565b166001600160401b031986541617855560248101359060221981360301821215610af35701936001600160401b036004860135116105b857600485013560051b360360248601136105b857600160401b600486013511610adf5760019485820180546004830135825580600484013510610ac0575b506024820190865260208620865b60048401358110610aa25750505050839450600281016001600160401b03610957602460043501611984565b166001600160401b03198254161790556044600435013560038201556001600160401b03610989606460043501611984565b1660048201906001600160401b03198254161790556005608460043501359101556001600160401b036109c0602460043501611984565b168352601d6020526109d6604084203390611dd5565b506001600160401b036109ed602460043501611984565b166001600160401b0319600554161760055560018060a01b036009541691823b15610a9d57610a5792849283604051809681958294637a2b59cf60e11b845260406004850152610a4560448501600435600401611c60565b84810360031901602486015291611b2c565b03925af18015610a9257610a7e575b5050610104610a79606460043501611984565b612092565b610a8790611769565b610119578038610a66565b6040513d84823e3d90fd5b505050fd5b886004916020610ab186611cd6565b9501948185015501905061092b565b81875260208720610ad991810190600485013501611cbf565b3861091d565b634e487b7160e01b84526041600452602484fd5b8480fd5b9550505050929350506001600160401b03610b16602460043501611984565b1614610b21575b5080f35b6001600160401b03610b37602460043501611984565b168252816020526040822060405160208101916020835260a06040830152816101208101916001600160401b0381541660e0830152600190818101916040610100850152825480955261014084019289526020892090895b868110610c165750505060028101546001600160401b0390811660608501526003820154608085015260048201541660a08401526005015460c083015203601f1981018352610bdf9150826117b2565b51902014610bea5780f35b6001600160401b03610c00602460043501611984565b168152601d602052610b1d604082203390611dd5565b82546001600160a01b03168552879550602090940193918101918101610b8f565b604051632d7f750360e21b8152600490fd5b60405163fae4eadb60e01b8152600490fd5b50806001600160401b03610c73602460043501611984565b1614156107a0565b50346101195760203660031901126101195760043560008051602061476283398151915260018154146101be57600181558115610d4a5760ff600d5460081c16610d3857338352600360205281604084205410610d26576105ff8392338452600360205260408420610cee82825461260c565b9055610cfc8160025461260c565b6002553384526003602052604084205415610d18575b33613785565b610d213361465a565b610d12565b60405163569d45cf60e11b8152600490fd5b604051631b39f2f360e11b8152600490fd5b604051631036b5ad60e31b8152600490fd5b50602036600319011261011957600435906001600160401b0382116101195736602383011215610119576001600160401b0382600401351161011957602436818460040135850101116105bc57600160008051602061476283398151915254146101be57600160008051602061476283398151915255610dda613850565b60ff600d5460081c16806112b6575b34156112a457604184600401350361129257610e0b846004013583860161461e565b336001600160a01b0390911603610558576110905733600090815260106020526040902060039390840190610e4e8160040135610e488454611e7a565b84611f6d565b83601f82600401351160011461101b57838591836004013561100e575b5050816004013560011b916000199060040135871b1c19161790555b610e9134336138ac565b600f54600654811015610eb8575b505090505b806000805160206147628339815191525580f35b61ffff601154166001600160401b0360075460401c1611610e9f5761010061ff0019600d541617600d5560405193602085019060208652600154809252604086019160408160051b88010192600187527fb10e2d527612073b26eecdfd717e6a320cf44b4afac2b0732d9fcbe2b7fa0cf69287915b838310610fc15750505050508484957f4914d88063275a25a13b2df37125e216745d812f94c56504be4bd78cf60c9593920390a160018060a01b0360095416610f796002548093612542565b92813b15610af35784926040519485938492637903ab2760e11b845260048401525af18015610a9257610fad575b80610e9f565b610fb690611769565b610119578038610fa7565b9091929394602083610fff6001938d603f1990820301865289548152848060a01b03858b015416848201526060908160408201520160028a01611eb4565b97019201930191909392610f2d565b8301013590508338610e6b565b828552602085208592916004830135601f19165b8085106110735760019450836004013511611055575b505060040135811b019055610e87565b82018501356000196004840135891b60f8161c191690553880611045565b83820187013583556020948501946001909301929091019061102f565b6110a13684600401358386016117ee565b926001600160401b03601754166040516110ba81611797565b600281526020810195865233604082015281600052601860205260406000209581516110e581611e5a565b6110ee81611e5a565b60ff80198954169116178755519586516001600160401b03811161127d576111268161111d6001850154611e7a565b60018501611f6d565b6020601f82116001146111fb57908060029392600080516020614742833981519152999a6000926111f0575b50508160011b916000199060031b1c19161760018201555b0190604060018060a01b03910151166001600160601b0360a01b8254161790556001600160401b0361119b82611998565b166001600160401b031960175416176017556111d86040519384936002855233602086015260806040860152608085019181600401359101611aa2565b9060608301520390a16111eb3433613abd565b610ea4565b015190503880611152565b6001830160005260206000209860005b601f198416811061126557509160008051602061474283398151915298996001926002959483601f1981161061124c575b505050811b01600182015561116a565b015160001960f88460031b161c1916905538808061123c565b828201518b556001909a01996020928301920161120b565b85634e487b7160e01b60005260416004526000fd5b6040516318dca5e960e21b8152600490fd5b604051635a78c58160e11b8152600490fd5b6112be613ccc565b610de9565b5034610119578060031936011261011957600190600080516020614762833981519152828154146101be57828155336000908152601a602052604090209283549061ffff9081831692831561143d57829060101c16918391808795818a01915b6113b7575b50505086611399937f197c586353eaed0a1c53e6e540445b94befab8f932c8115d112115ecbeeed514959363ffff000093899a54911693849260101b169063ffffffff191617179055156113a0575b6113818133613785565b60408051338152602081019290925290918291820190565b0390a15580f35b336000908152601a60205260409020859055611377565b90919394838116968288101561143457876000526020809185825260406000206040516113e38161177c565b89825492838352015493849101524310611429578594938896889461140a86958a95612542565b9c60005252600082604082208281550155011696600019011694611323565b985050509493611328565b96509493611328565b6040516364b0557f60e01b8152600490fd5b5034610119578060031936011261011957611468613850565b61ffff61147e8160145416826011541690612562565b166114d757600d805462ff000019166201000017905560095481906001600160a01b0316803b156101ac5781906004604051809481936341c0e1b560e01b83525af18015610a92576114ce575080f35b61010490611769565b604051636b62255160e11b8152600490fd5b5080600319360112610119576114fd613850565b610104613ce1565b503461011957602036600319011261011957610104610a7961182a565b50346101195760203660031901126101195761153c613850565b610104600435613d3b565b50346101195760209081600319360112610119576001600160401b039160043583811161067c573660238201121561067c5761158d9036906024816004013591016117ee565b923383526012825261ffff6040842054161561168a5783511561167857338352601e825260408320918451918211610adf576115d3826115cd8554611e7a565b85611f6d565b80601f83116001146116145750839482939492611609575b50508160011b916000199060031b1c19161790555b610b1d33611d6e565b0151905038806115eb565b90601f198316958486528286209286905b88821061166057505083600195969710611647575b505050811b019055611600565b015160001960f88460031b161c1916905538808061163a565b80600185968294968601518155019501930190611625565b604051637138356f60e01b8152600490fd5b604051633b4f6e2b60e21b8152336004820152602490fd5b9050816003193601126105bc57341561175a575060ff600d5460081c16610d38573381526003602052604081205415611701575b3381526003602052604081206116ed348254612542565b90556116fb34600254612542565b60025580f35b600454600160401b811015611746576117238160016117419301600455611cea565b81546001600160a01b0360039290921b91821b19163390911b179055565b6116d6565b634e487b7160e01b82526041600452602482fd5b631036b5ad60e31b8152600490fd5b6001600160401b03811161054257604052565b604081019081106001600160401b0382111761054257604052565b606081019081106001600160401b0382111761054257604052565b90601f801991011681019081106001600160401b0382111761054257604052565b6001600160401b03811161054257601f01601f191660200190565b9291926117fa826117d3565b9161180860405193846117b2565b829481845281830111611825578281602093846000960137010152565b600080fd5b600435906001600160401b038216820361182557565b35906001600160401b038216820361182557565b9181601f84011215611825578235916001600160401b038311611825576020808501948460051b01011161182557565b6001600160401b0381116105425760051b60200190565b35906001600160a01b038216820361182557565b92916118ba82611884565b916118c860405193846117b2565b829481845260208094019160051b810192831161182557905b8282106118ee5750505050565b8380916118fa8461189b565b8152019101906118e1565b9291909261191284611884565b9161192060405193846117b2565b829480845260208094019060051b8301928284116118255780915b84831061194a57505050505050565b82356001600160401b03811161182557820184601f8201121561182557869161197986838580953591016117ee565b81520192019161193b565b356001600160401b03811681036118255790565b9060016001600160401b03809316019182116106b257565b9190916001600160401b03808094169116019182116106b257565b9035603e1982360301811215611825570190565b6001600160401b03919060408201836119f783611840565b16835260209182810135601e19823603018112156118255701928284359401948411611825578360051b36038513611825576040818401529083905260600192919060005b828110611a4a575050505090565b909192938280600192838060a01b03611a628961189b565b16815201950193929101611a3c565b9035601e19823603018112156118255701602081359101916001600160401b03821161182557813603831361182557565b908060209392818452848401376000828201840152601f01601f1916010190565b611aec611ae1611ad383806119cb565b6040855260408501906119df565b9160208101906119cb565b91602081830391015281359160ff831680930361182557611b19604091611b299484526020810190611a71565b9190928160208201520191611aa2565b90565b90918092808252602080920191808260051b86010194846000915b848310611b58575050505050505090565b90919293949596601f19828203018752611b7288846119cb565b90813560de198336030181121561182557820191604090818352611b9684806119cb565b611bac60e0918285870152610120860190611ac3565b92611bb98a8701876119cb565b6001600160401b03611bee611bdc603f1997606094898b830301868c0152611ac3565b926080948a0135858a01528901611840565b169160a092838801528701359263ffffffff60e01b8416809403611825578b95611c24611c349460c096878b01528a018a611a71565b9290918985030190890152611aa2565b940135610100840152013590811515809203611825578601529684019584019493926001019190611b47565b90608080611c7f611c7185806119cb565b60a0855260a08501906119df565b936001600160401b0380611c9560208401611840565b16602086015260408201356040860152611cb160608301611840565b166060850152013591015290565b818110611cca575050565b60008155600101611cbf565b356001600160a01b03811681036118255790565b600454811015611d215760046000527f8a35acfbc15ff81a39ae7d344fd709f28e8600b4aa8c65c6b64bfe7fe36bd19b0190600090565b634e487b7160e01b600052603260045260246000fd5b601f54811015611d2157601f6000527fa03837a25210ee280c2113ff4b77ca23440b19d4866cca721c801278fd08d8070190600090565b6000818152602080526040812054611dd057601f54600160401b811015611746579082611dbd611da684600160409601601f55611d37565b819391549060031b91821b91600019901b19161790565b9055601f54928152602080522055600190565b905090565b91906001830160009082825280602052604082205415600014611e5457845494600160401b861015611e405760018601808255861015611e2c57836040949596828552602085200155549382526020522055600190565b634e487b7160e01b83526032600452602483fd5b634e487b7160e01b83526041600452602483fd5b50925050565b60041115611e6457565b634e487b7160e01b600052602160045260246000fd5b90600182811c92168015611eaa575b6020831014611e9457565b634e487b7160e01b600052602260045260246000fd5b91607f1691611e89565b9060009291805491611ec583611e7a565b918282526001938481169081600014611f275750600114611ee7575b50505050565b90919394506000526020928360002092846000945b838610611f13575050505001019038808080611ee1565b805485870183015294019385908201611efc565b9294505050602093945060ff191683830152151560051b01019038808080611ee1565b60005b838110611f5d5750506000910152565b8181015183820152602001611f4d565b9190601f8111611f7c57505050565b611fa8926000526020600020906020601f840160051c83019310611faa575b601f0160051c0190611cbf565b565b9091508190611f9b565b9080821461208e57611fc68154611e7a565b906001600160401b038211610542578190611feb82611fe58654611e7a565b86611f6d565b600090601f831160011461202257600092612017575b50508160011b916000199060031b1c1916179055565b015490503880612001565b81526020808220858352818320935090601f1985169083905b82821061207557505090846001959493921061205c575b505050811b019055565b015460001960f88460031b161c19169055388080612052565b849581929585015481556001809101960194019061203b565b5050565b6017546001600160401b03828116929080831684106120bd5760405163040aaa0560e11b8152600490fd5b808360401c168410611ee15780604093841c165b8482821611156121385750509160209161210b7f246f00b61ce672242f33bb680a47147cd54d3dfd04dbb76956ba42f88087bf6394611998565b67ffffffffffffffff60401b60175491831b169067ffffffffffffffff60401b19161760175551908152a1565b81612156826001600160401b03166000526018602052604060002090565b6002808201548254929491926001600160a01b03918216919060ff1661217b81611e5a565b8085036121ed57505060036121ac60016121b294959697019260018060a01b03166000526010602052604060002090565b01611fb4565b6121cf816001600160401b03166000526018602052604060002090565b916000908184556001936121e4858201612619565b015501166120d1565b909194506121fa81611e5a565b6003918183036123985750508751936122228561221b816001809a01611eb4565b03866117b2565b84518501916020928a8785830192031261182557838701518981116118255787019681603f890112156118255787858d9901519261226b612262856117d3565b9a519a8b6117b2565b838a528d8483010111611825578c926122899184888c019101611f4a565b015192816122a98460018060a01b03166000526010602052604060002090565b01918751918a8311612383578a986122cb846122c58754611e7a565b87611f6d565b81601f851160011461231057506123009798999a8493928492600095612305575b50501b92600019911b1c1916179055612578565b6121b2565b0151935038806122ec565b91601f9b9493919b1984169b866000528c84600020946000915b8210612368575050846123009a9b9c9d1061234e575b50505050811b019055612578565b01519060f884600019921b161c1916905538808080612340565b8383015186558f9d509487019492830192908101908e61232a565b60246000634e487b7160e01b81526041600452fd5b915091938895939551936123b48561221b816001809501611eb4565b602080868051810103126118255781818c970151956123d281611e5a565b036124f75784906123e38285612662565b6019546123f09043612542565b928751906123fd8261177c565b8482528282018481526001600160a01b0387166000908152601a602052604090209091909283549161ffff9384848180961695869160101c169061244091612562565b169c60009d8e5282870188528d20925183555191015561245f9061254f565b1661ffff198254161790558b519384528301528982015260607f083b080788e20bd0930c2bca2ae4fbc51a59ced08c1b5992271f8cb439498a6391a16009541690813b1561067c578291602483928a5195869384926345f5448560e01b845260048401525af19081156124ec575090849392916124dd575b506121b2565b6124e690611769565b386124d7565b8751903d90823e3d90fd5b50508293509161250791926125bc565b6009541690813b15611825578651916316989f6f60e21b83528260048160009485945af19081156124ec575090849392916124dd57506121b2565b919082018092116106b257565b90600161ffff809316019182116106b257565b91909161ffff808094169116019182116106b257565b9060018060a01b0382166000526010602052604060002081815491558181146000146125a357505050565b8111156125b357611fa8916126f1565b611fa891612a37565b90611fa89161260460018060a01b038216928360005260106020526125e981600160406000200154612542565b93600052601060205283600160406000200155600f54612542565b600f556126f1565b919082039182116106b257565b6126238154611e7a565b908161262d575050565b81601f6000931160011461263f575055565b90808391825261265e601f60208420940160051c840160018501611cbf565b5555565b906126cf6126d79260018060a01b038116906000828152601060205261268f85600160408420015461260c565b92815260106020526040812060028101848154811590816126e8575b50156126dc575090826003926126ca9483558160018401555501612619565b612a37565b600f5461260c565b600f55565b92505060010155612a37565b905015386126ab565b919060018060a01b03928381166000948186526020916012835261ffff916040978389822054166129225783600e5460081c168460115416106128ee57612736613544565b60019283825260138652828a832054168861275082612e22565b1061286857508152601585528389822054166127bf5750505050506127ba7f19fe3ca603e87854a0747cc10abf06bac64d61bac73d6d15f2fd3ca448f15264939461279a83612dad565b516001600160a01b03909216825260208201929092529081906040820190565b0390a1565b6127c886613597565b926127d287612e22565b935b818682161161282a575b505097516001600160a01b0390951685525050505060208101919091529091507fda148fac2e1063174be7bc0895576bdaba90fd14e575463fa26a967cb895cadd9080604081016127ba565b808561284986617fff8f95871c169485885260168c5287205416612e22565b1015612862579061285b8392826136f6565b90506127d4565b506127de565b969750899493507ffaeb8de771b867cf357f6b459a7002b62ec45d544a8078a3ecd91200cc826d75989992506127ba956015916128a361323c565b8352522054166128e0575b6128b7846131c7565b6128c083612dad565b516001600160a01b03928316815292909116602083015281906040820190565b6128e984612fec565b6128ae565b50505050506127ba7f2e8038f5812f763c6ef0c5427cb5a05ce6d7064af2ba7d1d270bc02660b019fd939461279a836131c7565b979291506129338594979695613560565b9761293d85612e22565b976129478a613158565b8460115416905b858116828111612a0057828110156129e457508061296e6129749261254f565b906134f4565b9b909b5b8b111561299757612989908c61365d565b6129928b613158565b61294e565b505093516001600160a01b0390951685525050505060208101919091529092507f143db27bc2036653dc6f962ff9d0b803163d4af50c256ca9e6927b3d6dcd0197915080604081016127ba565b849c919c52601383526129fb858886205416612e22565b612978565b505050505050506127ba91929395507f143db27bc2036653dc6f962ff9d0b803163d4af50c256ca9e6927b3d6dcd0197945061279a565b909160018060a01b03928383169060009382855260206015815261ffff95604094878683205416612c71578082526012835287868320541615612c60578415612bb85750612a8483613560565b97612a8e84612e22565b985b6001808a83161115612ba95781617fff911c1690818452601385528a612aba848a87205416612e22565b1115612acf57612aca908261365d565b612a90565b505091939597509193955b6014541615612ba157612aeb613544565b600182526013835285818184205416926016612b0685612e22565b95612b0f613552565b600183525220541691612b2183612e22565b11612b6857505091516001600160a01b03909216825260208201527f143db27bc2036653dc6f962ff9d0b803163d4af50c256ca9e6927b3d6dcd01979080604081016127ba565b915091506127ba7ffaeb8de771b867cf357f6b459a7002b62ec45d544a8078a3ecd91200cc826d7593612b9961323c565b6128ae612e85565b505050505050565b50509193959750919395612ada565b829450612bec7f4a4c5d1a281180eea1e99d8177fa4798b9f7e019d5c57e7d8d73c6a22199aa5b9392989499969799613385565b8651908152a160145416612c005750505050565b7f2e8038f5812f763c6ef0c5427cb5a05ce6d7064af2ba7d1d270bc02660b019fd9360168492612c2e613552565b6001835252205416612c54612c4282612e22565b92612c4b612e85565b61279a836131c7565b0390a138808080611ee1565b8551632a55ca5360e01b8152600490fd5b84969792939598919415612d72575061fffe9193612c8e86613597565b93612c9887612e22565b9480966001958692831b168160145416925b612cfe575b505099516001600160a01b039097168752505050506020830193909352509192507fda148fac2e1063174be7bc0895576bdaba90fd14e575463fa26a967cb895cadd91905080604081016127ba565b818116838111612d6c578d9084811015612d5057505080612d21612d279261254f565b9061316f565b9890985b881015612d4b57612d3c90896136f6565b612d4588613158565b86612caa565b612caf565b865260168552852054909890612d67908716612e22565b612d2b565b50612caf565b94915050612da69194507f3168ba660eed6ef1dc2258b2247cc05fd0f2f350d39e6ad2e2ebc76a8000b40b95969250612fec565b51908152a1565b611fa890612e1c61ffff91612dc5836014541661254f565b9260018060a01b0382169081600052601560205260406000209085169161ffff199183838254161790558260005260166020526040600020906001600160601b0360a01b8254161790556014541617601455612e22565b90613103565b60ff600e54166002811015611e6457600103612e53576001600160a01b031660009081526010602052604090205490565b6001600160a01b031660009081526010602052604090206001015490565b61ffff90811660001901919082116106b257565b61ffff8060145416908115612fda5790600190612ea481831115613640565b6000828152601660208181526040808420805486865282862080546001600160a01b0392831680895260158752858920805461ffff199081168c17909155918416808a52868a20805484168d17905588885283546001600160a01b03199081169092179093558a895284541690911790925592958795939492939291612f3e91908a612f2f83612e71565b169060145416176014556135bc565b848252808652612f52848484205416612e22565b95859860028160145416995b612f70575b5050505050505050505050565b8181168a8111612fd4578a811015612fb9575080612d21612f909261254f565b9a909a5b891015612fb457612fa5908b6136f6565b612fae8a613158565b87612f5e565b612f63565b859b919b52838352612fcf878787205416612e22565b612f94565b50612f63565b6040516340d9b01160e01b8152600490fd5b612ff590613597565b61ffff9081601454169161300983836136f6565b8061301384612e71565b1661ffff196014541617601455613029836135bc565b8082168093146130fe579161fffe9160009180835260169060209382855260018060a01b0392604092613069613063868686205416612e22565b87613103565b825280865261307c848484205416612e22565b9585986001988997881b168160145416995b61309f575050505050505050505050565b8181168a8111612fd4578a8110156130e3575080612d216130bf9261254f565b9a909a5b891015612fb4576130d4908b6136f6565b6130dd8a613158565b8761308e565b859b919b528383526130f9878787205416612e22565b6130c3565b505050565b9190915b60018061ffff831611156131525781617fff911c16908361313d60008481526016602052604060018060a01b0391205416612e22565b10156131525761314d90826136f6565b613107565b50509050565b60011b906201fffe61fffe8316921682036106b257565b91909161ffff9283821660005260166020526131b260018060a01b0361319b8160406000205416612e22565b958316600052601660205260406000205416612e22565b908185106131c05750509190565b9350919050565b611fa89061323661ffff916131df836011541661254f565b9260018060a01b0382169081600052601260205260406000209085169161ffff199183838254161790558260005260136020526040600020906001600160601b0360a01b8254161790556011541617601155612e22565b906134a5565b61ffff8060115416908115612fda579060019061325b81831115613640565b6000828152601360208181526040808420805486865282862080546001600160a01b0392831680895260128752858920805461ffff199081168c17909155918416808a52868a20805484168d17905588885283546001600160a01b03199081169092179093558a8952845416909117909255929587959394929392916132f591908a6132e683612e71565b169060115416176011556135fe565b848252808652613309848484205416612e22565b95859860028160115416995b613326575050505050505050505050565b8181168a8111612fd4578a81101561336a57508061296e6133469261254f565b9a909a5b891115612fb45761335b908b61365d565b6133648a613158565b87613315565b859b919b52838352613380878787205416612e22565b61334a565b61338e90613560565b9061ffff908160115416906133a3828561365d565b826133ad83612e71565b1661ffff1960115416176011556133c3826135fe565b82841680921461349f5760009291929183835260139260209484865260018060a01b03916040916134016133fb858585205416612e22565b8a6134a5565b8152858752613414838383205416612e22565b9561341e89613158565b978560115416985b8681168a8111613491578a81101561347657508061296e6134469261254f565b9a909a5b8911156134695761345b908b61365d565b6134648a613158565b613426565b5050505050505092505050565b849b919b5282825261348c868686205416612e22565b61344a565b505050505050505092505050565b92505050565b9190915b60018061ffff831611156131525781617fff911c1690836134df60008481526013602052604060018060a01b0391205416612e22565b1115613152576134ef908261365d565b6134a9565b919061ffff808416600052601360205261353560018060a01b0361351e8160406000205416612e22565b928416600052601360205260406000205416612e22565b93848211156131c05750509190565b61ffff6011541615612fda57565b61ffff6014541615612fda57565b6001600160a01b031660009081526012602052604090205461ffff1690811561358557565b60405163f2755e3760e01b8152600490fd5b6001600160a01b031660009081526015602052604090205461ffff1690811561358557565b61ffff16600090815260166020908152604080832080546001600160a01b031981169091556001600160a01b0316835260159091529020805461ffff19169055565b61ffff16600090815260136020908152604080832080546001600160a01b031981169091556001600160a01b0316835260129091529020805461ffff19169055565b1561364757565b634e487b7160e01b600052600160045260246000fd5b61368261ffff80806011541693169361367884861115613640565b1691821115613640565b6000828152601360208181526040808420805486865282862080546001600160a01b0392831680895260128752858920805461ffff19908116909b1790559216808852938720805490981689179097559390925284546001600160a01b031990811690931790945593909152825416179055565b61371161ffff80806014541693169361367884861115613640565b6000828152601660208181526040808420805486865282862080546001600160a01b0392831680895260158752858920805461ffff19908116909b1790559216808852938720805490981689179097559390925284546001600160a01b031990811690931790945593909152825416179055565b8147106137e7576000918291829182916001600160a01b03165af13d156137e2573d6137b0816117d3565b906137be60405192836117b2565b8152600060203d92013e5b156137d057565b604051630a12f52160e11b8152600490fd5b6137c9565b60405163cd78605960e01b8152306004820152602490fd5b9190811015611d215760051b81013590601e19813603018212156118255701908135916001600160401b038311611825576020018236038113611825579190565b9190811015611d215760051b0190565b60ff600d5460101c1661385f57565b60405163248c8efb60e11b8152600490fd5b600154811015611d21576003906001600052027fb10e2d527612073b26eecdfd717e6a320cf44b4afac2b0732d9fcbe2b7fa0cf60190600090565b906138c1906138bb8184613a96565b826125bc565b60ff600d5460081c16156138d25750565b60018054600082815b838110613a65575b5050156138ef57505050565b6001600160a01b0383166000908152601060205260409020828101546139459490916003016040519261392184611797565b835260209361394c8585019260018060a01b03809516845260405198898092611eb4565b03886117b2565b60408401968752600160401b81101561054257808661396d92018755613871565b929092613a4f576002935183558583019151166001600160601b0360a01b825416179055019251908151916001600160401b038311610542576139b4836122c58754611e7a565b81601f84116001146139ed57509282939183926000946139e2575b50501b916000199060031b1c1916179055565b0151925038806139cf565b919083601f1981168760005284600020946000905b88838310613a355750505010613a1c57505050811b019055565b015160001960f88460031b161c19169055388080612052565b858701518855909601959485019487935090810190613a02565b634e487b7160e01b600052600060045260246000fd5b81613a6f82613871565b5001546001600160a01b03878116911614613a8c570183906138db565b50905082386138e3565b60018060a01b03166000526010602052613ab96002604060002001918254612542565b9055565b91906040519281602085015260208452613ad68461177c565b6001600160401b03601754169360405194613af086611797565b60008652602086019582875260018060a01b03841660408201528160005260186020526040600020968151613b2481611e5a565b613b2d81611e5a565b60ff80198a54169116178855519687516001600160401b03811161054257613b5c8161111d6001850154611e7a565b6020601f8211600114613c42576000805160206147428339815191529594928260a09593600293611fa89c9d600092613c37575b50508160011b916000199060031b1c19161760018201555b01906040600180861b03910151166001600160601b03841b8254161790556001600160401b03613bd782611998565b166001600160401b0319601754161760175560405192839160008352600180851b038716602084015260806040840152613c208251809381608087015260208787019101611f4a565b6060830152601f01601f19168101030190a1613a96565b015190503880613b90565b6001830160005260206000209960005b601f1984168110613cb4575092600183611fa89b9c6002946000805160206147428339815191529a999760a09997601f19811610613c9b575b505050811b016001820155613ba8565b015160001960f88460031b161c19169055388080613c8b565b828201518c556001909b019a60209283019201613c52565b60ff600e54166002811015611e645761057c57565b613ce9613ccc565b34156112a4573360009081526010602052604090206002015415613d295760ff600d5460081c1615613d1f57611fa83433613abd565b611fa834336138ac565b60405163528fc16560e01b8152600490fd5b613d43613ccc565b8015613daa5733600090815260106020526040902060020154801561168a57811015613d995760ff600d5460081c1615613d8157611fa89033613e0f565b80613d8f611fa89233613dbc565b610d128133612662565b60405162d11df360e61b8152600490fd5b60405163c79cad7b60e01b8152600490fd5b6001600160a01b03166000818152601060205260409020600201549091808210613dfd57613de99161260c565b906000526010602052600260406000200155565b60405163ac69360360e01b8152600490fd5b91906040519281602085015260208452613e288461177c565b6001600160401b03601754169360405194613e4286611797565b60018652602086019582875260018060a01b03841660408201528160005260186020526040600020968151613e7681611e5a565b613e7f81611e5a565b60ff80198a54169116178855519687516001600160401b03811161054257613eae8161111d6001850154611e7a565b6020601f8211600114613f94576000805160206147428339815191529594928260a09593600293611fa89c9d600092613f89575b50508160011b916000199060031b1c19161760018201555b01906040600180861b03910151166001600160601b03841b8254161790556001600160401b03613f2982611998565b166001600160401b0319601754161760175560405192839160018352600180851b038716602084015260806040840152613f728251809381608087015260208787019101611f4a565b6060830152601f01601f19168101030190a1613dbc565b015190503880613ee2565b6001830160005260206000209960005b601f1984168110614006575092600183611fa89b9c6002946000805160206147428339815191529a999760a09997601f19811610613fed575b505050811b016001820155613efa565b015160001960f88460031b161c19169055388080613fdd565b828201518c556001909b019a60209283019201613fa4565b60ff600d5460081c1661410b575b33600090815260106020526040902060020154801561168a5761404e33614118565b50600090338252601e60205281604081206140698154611e7a565b806140ce575b50505060ff600d5460081c161561408b57611fa8915033613e0f565b6040611fa89233815260036020522054806140ac575b50613d8f8133613dbc565b806140bc6140c89260025461260c565b600255610d123361465a565b386140a1565b82601f82116001146140e6575050555b81388061406f565b9091808252614104601f60208420940160051c840160018501611cbf565b55556140de565b614113613ccc565b61402c565b6000818152602080805260408220549192909180156141f957600019908082018181116141e557601f54908382019182116141d15780820361419f575b505050601f54801561418b5781019061416d82611d37565b909182549160031b1b19169055601f55825280526040812055600190565b634e487b7160e01b85526031600452602485fd5b6141bd6141ae611da693611d37565b90549060031b1c928392611d37565b905585528380526040852055388080614155565b634e487b7160e01b87526011600452602487fd5b634e487b7160e01b86526011600452602486fd5b50505090565b8051821015611d215760209160051b010190565b811561208e576001600160401b0390818060075416911603908082116106b257600091168152602090601d8252604090818120928251808583829754938481520190855283852092855b858282106142cd57505050614274925003856117b2565b8351948515612ba157858110612ba15785900493825b86811061429a5750505050505050565b6001906001600160a01b036142af82856141ff565b51168552601c84528585206142c5888254612542565b90550161428a565b855484526001958601958a95509301920161425d565b918251916142f083611884565b93604094614300865191826117b2565b848152601f1961430f86611884565b0194602095368784013760005b8181106143e657505060009461ffff8060115416600192839182945b614395575b505050505060ff60095460a01c16948581029581870414901517156106b257606461436995049161445d565b9015614373575050565b6007811015611e645760ff602492519163282ef1c160e01b8352166004820152fd5b90919293988a858b168381116143de57600090815260138552205484939291869185916143d4916143ce906001600160a01b0316612e22565b90612542565b9b01169493614338565b50509861433d565b6001600160a01b03806143f983876141ff565b51166000526012885261ffff89600020541615614439579061442860019261442183886141ff565b5116612e22565b61443282866141ff565b520161431c565b8890614447602493876141ff565b519151633b4f6e2b60e21b815291166004820152fd5b84519294600094908415614545578251851480159061453a575b61452d579392919085945b8486106144a557505050505050101561449d57600090600690565b600190600090565b9091929394956144bf6144b888846141ff565b5184614552565b506144c981611e5a565b61451c576001600160a01b03806144e08a886141ff565b511691160361450c576145006001916144f989886141ff565b5190612542565b96019493929190614482565b5050505050505050600090600490565b505050505050505050600090600590565b5050505050905090600190565b508351851415614477565b5050505050905090600290565b81519190604183036145835761457c92506020820151906060604084015193015160001a9061458e565b9192909190565b505060009160029190565b91907f7fffffffffffffffffffffffffffffff5d576e7357a4501ddfe92f46681b20a0841161461257926020929160ff608095604051948552168484015260408301526060820152600092839182805260015afa156146065780516001600160a01b038116156145fd57918190565b50809160019190565b604051903d90823e3d90fd5b50505060009160039190565b9061462b60418214613640565b806001116118255761464691369160001901906001016117ee565b80516020909101206001600160a01b031690565b60049081549160005b8381106146705750505050565b61467981611cea565b90546003916001600160a01b039190831b1c81168582161461469f575050600101614663565b92935093906000199182810190811161472c57906146d0846146c36146ef94611cea565b905490891b1c1691611cea565b90919082549060031b9160018060a01b03809116831b921b1916179055565b8254801561471757019261470284611cea565b81939154921b1b191690555538808080611ee1565b603184634e487b7160e01b6000525260246000fd5b601185634e487b7160e01b6000525260246000fdfe1c593a2b803c3f9038e8b6743ba79fbc4276d2770979a01d2768ed12bea3243f691bb03ffc16c56fc96b82fd16cd1b3715f0bc3cdc6407005f49bb6205860095a2646970667358221220d123e1050b711428c3ec29fbf59200fd4f397508a53db9d28801d9f8cd75525d64736f6c63430008130033","linkReferences":{"src/lib/LibStaking.sol":{"LibStaking":[{"start":361,"length":20}]}}},"methodIdentifiers":{"addBootstrapNode(string)":"10fd4261","claim()":"4e71d92d","claimRewardForRelayer()":"ed7c4da1","confirmChange(uint64)":"350a14bf","confirmNextChange()":"c7ebdaef","distributeRewardToRelayers(uint64,uint256)":"f9002bb1","join(bytes)":"6170b162","kill()":"41c0e1b5","leave()":"d66d9e19","preFund()":"0b7fbe60","preRelease(uint256)":"66783c9b","setFederatedPower(address[],bytes[],uint256[])":"da5d09ee","stake()":"3a4b66f1","submitCheckpoint(((uint64,address[]),uint64,bytes32,uint64,bytes32),((((uint64,address[]),(uint8,bytes)),((uint64,address[]),(uint8,bytes)),uint256,uint64,bytes4,bytes,uint256),bool)[],address[],bytes[])":"a8284de3","unstake(uint256)":"2e17de78","validateActiveQuorumSignatures(address[],bytes32,bytes[])":"cc2dc2b9"},"id":86}