{"abi":[{"type":"function","name":"pause","inputs":[],"outputs":[],"stateMutability":"nonpayable"},{"type":"function","name":"paused","inputs":[],"outputs":[{"name":"","type":"bool","internalType":"bool"}],"stateMutability":"view"},{"type":"function","name":"unpause","inputs":[],"outputs":[],"stateMutability":"nonpayable"},{"type":"event","name":"Paused","inputs":[{"name":"account","type":"address","indexed":false,"internalType":"address"}],"anonymous":false},{"type":"event","name":"Unpaused","inputs":[{"name":"account","type":"address","indexed":false,"internalType":"address"}],"anonymous":false},{"type":"error","name":"EnforcedPause","inputs":[]},{"type":"error","name":"ExpectedPause","inputs":[]},{"type":"error","name":"NotOwner","inputs":[]}],"bytecode":{"object":"0x60808060405234601557610215908161001b8239f35b600080fdfe6080604052600436101561001257600080fd5b60003560e01c80633f4ba83a146100f85780635c975abb146100c857638456cb591461003d57600080fd5b346100c35760003660031901126100c35761005661017b565b6000805160206101c08339815191525460ff81166100b25760019060ff1916176000805160206101c0833981519152557f62e78cea01bee320cd4e420270b5ea74000d11b0c9f74754ebdbfc544b05a2586020604051338152a1005b63d93c066560e01b60005260046000fd5b600080fd5b346100c35760003660031901126100c357602060ff6000805160206101c083398151915254166040519015158152f35b346100c35760003660031901126100c35761011161017b565b6000805160206101c08339815191525460ff81161561016a5760ff19166000805160206101c0833981519152557f5db9ee0a495bf2e6ff9c91a7834c1ba4fdd244a5e8aa4e537bd38aeae4b073aa6020604051338152a1005b638dfc202b60e01b60005260046000fd5b7f806e0cbb9fce296bbc336a48f42bf1dbc69722d18d90d6fe705b7582c2bb4bd5546001600160a01b031633036101ae57565b6330cd747160e01b60005260046000fdfec451c9429c27db68f286ab8a68f311f1dccab703ba9423aed29cd397ae63f863a26469706673582212202a1a0343948b7393f8fc9ef2a6128564d661c7419cf681cd8e0b21c911817a8f64736f6c634300081a0033","linkReferences":{}},"methodIdentifiers":{"pause()":"8456cb59","paused()":"5c975abb","unpause()":"3f4ba83a"},"id":97}