{
    "abi": [
        {
            "inputs": [],
            "name": "appliedTopDownNonce",
            "outputs": [
                {
                    "internalType": "uint64",
                    "name": "",
                    "type": "uint64"
                }
            ],
            "stateMutability": "view",
            "type": "function"
        },
        {
            "inputs": [],
            "name": "bottomUpCheckPeriod",
            "outputs": [
                {
                    "internalType": "uint64",
                    "name": "",
                    "type": "uint64"
                }
            ],
            "stateMutability": "view",
            "type": "function"
        },
        {
            "inputs": [
                {
                    "internalType": "uint64",
                    "name": "e",
                    "type": "uint64"
                }
            ],
            "name": "bottomUpCheckpoint",
            "outputs": [
                {
                    "components": [
                        {
                            "components": [
                                {
                                    "internalType": "uint64",
                                    "name": "root",
                                    "type": "uint64"
                                },
                                {
                                    "internalType": "address[]",
                                    "name": "route",
                                    "type": "address[]"
                                }
                            ],
                            "internalType": "struct SubnetID",
                            "name": "subnetID",
                            "type": "tuple"
                        },
                        {
                            "internalType": "uint64",
                            "name": "blockHeight",
                            "type": "uint64"
                        },
                        {
                            "internalType": "bytes32",
                            "name": "blockHash",
                            "type": "bytes32"
                        },
                        {
                            "internalType": "uint64",
                            "name": "nextConfigurationNumber",
                            "type": "uint64"
                        },
                        {
                            "internalType": "bytes32",
                            "name": "crossMessagesHash",
                            "type": "bytes32"
                        }
                    ],
                    "internalType": "struct BottomUpCheckpoint",
                    "name": "",
                    "type": "tuple"
                }
            ],
            "stateMutability": "view",
            "type": "function"
        },
        {
            "inputs": [
                {
                    "internalType": "uint64",
                    "name": "e",
                    "type": "uint64"
                }
            ],
            "name": "bottomUpMessages",
            "outputs": [
                {
                    "components": [
                        {
                            "components": [
                                {
                                    "components": [
                                        {
                                            "components": [
                                                {
                                                    "internalType": "uint64",
                                                    "name": "root",
                                                    "type": "uint64"
                                                },
                                                {
                                                    "internalType": "address[]",
                                                    "name": "route",
                                                    "type": "address[]"
                                                }
                                            ],
                                            "internalType": "struct SubnetID",
                                            "name": "subnetId",
                                            "type": "tuple"
                                        },
                                        {
                                            "components": [
                                                {
                                                    "internalType": "uint8",
                                                    "name": "addrType",
                                                    "type": "uint8"
                                                },
                                                {
                                                    "internalType": "bytes",
                                                    "name": "payload",
                                                    "type": "bytes"
                                                }
                                            ],
                                            "internalType": "struct FvmAddress",
                                            "name": "rawAddress",
                                            "type": "tuple"
                                        }
                                    ],
                                    "internalType": "struct IPCAddress",
                                    "name": "from",
                                    "type": "tuple"
                                },
                                {
                                    "components": [
                                        {
                                            "components": [
                                                {
                                                    "internalType": "uint64",
                                                    "name": "root",
                                                    "type": "uint64"
                                                },
                                                {
                                                    "internalType": "address[]",
                                                    "name": "route",
                                                    "type": "address[]"
                                                }
                                            ],
                                            "internalType": "struct SubnetID",
                                            "name": "subnetId",
                                            "type": "tuple"
                                        },
                                        {
                                            "components": [
                                                {
                                                    "internalType": "uint8",
                                                    "name": "addrType",
                                                    "type": "uint8"
                                                },
                                                {
                                                    "internalType": "bytes",
                                                    "name": "payload",
                                                    "type": "bytes"
                                                }
                                            ],
                                            "internalType": "struct FvmAddress",
                                            "name": "rawAddress",
                                            "type": "tuple"
                                        }
                                    ],
                                    "internalType": "struct IPCAddress",
                                    "name": "to",
                                    "type": "tuple"
                                },
                                {
                                    "internalType": "uint256",
                                    "name": "value",
                                    "type": "uint256"
                                },
                                {
                                    "internalType": "uint64",
                                    "name": "nonce",
                                    "type": "uint64"
                                },
                                {
                                    "internalType": "bytes4",
                                    "name": "method",
                                    "type": "bytes4"
                                },
                                {
                                    "internalType": "bytes",
                                    "name": "params",
                                    "type": "bytes"
                                },
                                {
                                    "internalType": "uint256",
                                    "name": "fee",
                                    "type": "uint256"
                                }
                            ],
                            "internalType": "struct StorableMsg",
                            "name": "message",
                            "type": "tuple"
                        },
                        {
                            "internalType": "bool",
                            "name": "wrapped",
                            "type": "bool"
                        }
                    ],
                    "internalType": "struct CrossMsg[]",
                    "name": "",
                    "type": "tuple[]"
                }
            ],
            "stateMutability": "view",
            "type": "function"
        },
        {
            "inputs": [],
            "name": "bottomUpNonce",
            "outputs": [
                {
                    "internalType": "uint64",
                    "name": "",
                    "type": "uint64"
                }
            ],
            "stateMutability": "view",
            "type": "function"
        },
        {
            "inputs": [],
            "name": "crossMsgFee",
            "outputs": [
                {
                    "internalType": "uint256",
                    "name": "",
                    "type": "uint256"
                }
            ],
            "stateMutability": "view",
            "type": "function"
        },
        {
            "inputs": [
                {
                    "components": [
                        {
                            "internalType": "uint64",
                            "name": "root",
                            "type": "uint64"
                        },
                        {
                            "internalType": "address[]",
                            "name": "route",
                            "type": "address[]"
                        }
                    ],
                    "internalType": "struct SubnetID",
                    "name": "subnetId",
                    "type": "tuple"
                }
            ],
            "name": "getAppliedTopDownNonce",
            "outputs": [
                {
                    "internalType": "bool",
                    "name": "",
                    "type": "bool"
                },
                {
                    "internalType": "uint64",
                    "name": "",
                    "type": "uint64"
                }
            ],
            "stateMutability": "view",
            "type": "function"
        },
        {
            "inputs": [],
            "name": "getBottomUpRetentionHeight",
            "outputs": [
                {
                    "internalType": "uint64",
                    "name": "",
                    "type": "uint64"
                }
            ],
            "stateMutability": "view",
            "type": "function"
        },
        {
            "inputs": [
                {
                    "internalType": "uint64",
                    "name": "h",
                    "type": "uint64"
                }
            ],
            "name": "getCheckpointCurrentWeight",
            "outputs": [
                {
                    "internalType": "uint256",
                    "name": "",
                    "type": "uint256"
                }
            ],
            "stateMutability": "view",
            "type": "function"
        },
        {
            "inputs": [
                {
                    "internalType": "uint64",
                    "name": "h",
                    "type": "uint64"
                }
            ],
            "name": "getCheckpointInfo",
            "outputs": [
                {
                    "components": [
                        {
                            "internalType": "bytes32",
                            "name": "hash",
                            "type": "bytes32"
                        },
                        {
                            "internalType": "bytes32",
                            "name": "rootHash",
                            "type": "bytes32"
                        },
                        {
                            "internalType": "uint256",
                            "name": "threshold",
                            "type": "uint256"
                        },
                        {
                            "internalType": "uint256",
                            "name": "currentWeight",
                            "type": "uint256"
                        },
                        {
                            "internalType": "bool",
                            "name": "reached",
                            "type": "bool"
                        }
                    ],
                    "internalType": "struct CheckpointInfo",
                    "name": "",
                    "type": "tuple"
                }
            ],
            "stateMutability": "view",
            "type": "function"
        },
        {
            "inputs": [],
            "name": "getCurrentBottomUpCheckpoint",
            "outputs": [
                {
                    "internalType": "bool",
                    "name": "exists",
                    "type": "bool"
                },
                {
                    "internalType": "uint64",
                    "name": "epoch",
                    "type": "uint64"
                },
                {
                    "components": [
                        {
                            "components": [
                                {
                                    "internalType": "uint64",
                                    "name": "root",
                                    "type": "uint64"
                                },
                                {
                                    "internalType": "address[]",
                                    "name": "route",
                                    "type": "address[]"
                                }
                            ],
                            "internalType": "struct SubnetID",
                            "name": "subnetID",
                            "type": "tuple"
                        },
                        {
                            "internalType": "uint64",
                            "name": "blockHeight",
                            "type": "uint64"
                        },
                        {
                            "internalType": "bytes32",
                            "name": "blockHash",
                            "type": "bytes32"
                        },
                        {
                            "internalType": "uint64",
                            "name": "nextConfigurationNumber",
                            "type": "uint64"
                        },
                        {
                            "internalType": "bytes32",
                            "name": "crossMessagesHash",
                            "type": "bytes32"
                        }
                    ],
                    "internalType": "struct BottomUpCheckpoint",
                    "name": "checkpoint",
                    "type": "tuple"
                }
            ],
            "stateMutability": "view",
            "type": "function"
        },
        {
            "inputs": [],
            "name": "getCurrentConfigurationNumber",
            "outputs": [
                {
                    "internalType": "uint64",
                    "name": "",
                    "type": "uint64"
                }
            ],
            "stateMutability": "view",
            "type": "function"
        },
        {
            "inputs": [],
            "name": "getCurrentMembership",
            "outputs": [
                {
                    "components": [
                        {
                            "components": [
                                {
                                    "internalType": "uint256",
                                    "name": "weight",
                                    "type": "uint256"
                                },
                                {
                                    "internalType": "address",
                                    "name": "addr",
                                    "type": "address"
                                },
                                {
                                    "internalType": "bytes",
                                    "name": "metadata",
                                    "type": "bytes"
                                }
                            ],
                            "internalType": "struct Validator[]",
                            "name": "validators",
                            "type": "tuple[]"
                        },
                        {
                            "internalType": "uint64",
                            "name": "configurationNumber",
                            "type": "uint64"
                        }
                    ],
                    "internalType": "struct Membership",
                    "name": "",
                    "type": "tuple"
                }
            ],
            "stateMutability": "view",
            "type": "function"
        },
        {
            "inputs": [],
            "name": "getIncompleteCheckpointHeights",
            "outputs": [
                {
                    "internalType": "uint256[]",
                    "name": "",
                    "type": "uint256[]"
                }
            ],
            "stateMutability": "view",
            "type": "function"
        },
        {
            "inputs": [],
            "name": "getIncompleteCheckpoints",
            "outputs": [
                {
                    "components": [
                        {
                            "components": [
                                {
                                    "internalType": "uint64",
                                    "name": "root",
                                    "type": "uint64"
                                },
                                {
                                    "internalType": "address[]",
                                    "name": "route",
                                    "type": "address[]"
                                }
                            ],
                            "internalType": "struct SubnetID",
                            "name": "subnetID",
                            "type": "tuple"
                        },
                        {
                            "internalType": "uint64",
                            "name": "blockHeight",
                            "type": "uint64"
                        },
                        {
                            "internalType": "bytes32",
                            "name": "blockHash",
                            "type": "bytes32"
                        },
                        {
                            "internalType": "uint64",
                            "name": "nextConfigurationNumber",
                            "type": "uint64"
                        },
                        {
                            "internalType": "bytes32",
                            "name": "crossMessagesHash",
                            "type": "bytes32"
                        }
                    ],
                    "internalType": "struct BottomUpCheckpoint[]",
                    "name": "",
                    "type": "tuple[]"
                }
            ],
            "stateMutability": "view",
            "type": "function"
        },
        {
            "inputs": [],
            "name": "getLastConfigurationNumber",
            "outputs": [
                {
                    "internalType": "uint64",
                    "name": "",
                    "type": "uint64"
                }
            ],
            "stateMutability": "view",
            "type": "function"
        },
        {
            "inputs": [],
            "name": "getLastMembership",
            "outputs": [
                {
                    "components": [
                        {
                            "components": [
                                {
                                    "internalType": "uint256",
                                    "name": "weight",
                                    "type": "uint256"
                                },
                                {
                                    "internalType": "address",
                                    "name": "addr",
                                    "type": "address"
                                },
                                {
                                    "internalType": "bytes",
                                    "name": "metadata",
                                    "type": "bytes"
                                }
                            ],
                            "internalType": "struct Validator[]",
                            "name": "validators",
                            "type": "tuple[]"
                        },
                        {
                            "internalType": "uint64",
                            "name": "configurationNumber",
                            "type": "uint64"
                        }
                    ],
                    "internalType": "struct Membership",
                    "name": "",
                    "type": "tuple"
                }
            ],
            "stateMutability": "view",
            "type": "function"
        },
        {
            "inputs": [],
            "name": "getLatestParentFinality",
            "outputs": [
                {
                    "components": [
                        {
                            "internalType": "uint256",
                            "name": "height",
                            "type": "uint256"
                        },
                        {
                            "internalType": "bytes32",
                            "name": "blockHash",
                            "type": "bytes32"
                        }
                    ],
                    "internalType": "struct ParentFinality",
                    "name": "",
                    "type": "tuple"
                }
            ],
            "stateMutability": "view",
            "type": "function"
        },
        {
            "inputs": [],
            "name": "getNetworkName",
            "outputs": [
                {
                    "components": [
                        {
                            "internalType": "uint64",
                            "name": "root",
                            "type": "uint64"
                        },
                        {
                            "internalType": "address[]",
                            "name": "route",
                            "type": "address[]"
                        }
                    ],
                    "internalType": "struct SubnetID",
                    "name": "",
                    "type": "tuple"
                }
            ],
            "stateMutability": "view",
            "type": "function"
        },
        {
            "inputs": [
                {
                    "internalType": "uint256",
                    "name": "blockNumber",
                    "type": "uint256"
                }
            ],
            "name": "getParentFinality",
            "outputs": [
                {
                    "components": [
                        {
                            "internalType": "uint256",
                            "name": "height",
                            "type": "uint256"
                        },
                        {
                            "internalType": "bytes32",
                            "name": "blockHash",
                            "type": "bytes32"
                        }
                    ],
                    "internalType": "struct ParentFinality",
                    "name": "",
                    "type": "tuple"
                }
            ],
            "stateMutability": "view",
            "type": "function"
        },
        {
            "inputs": [
                {
                    "internalType": "uint256",
                    "name": "totalWeight",
                    "type": "uint256"
                }
            ],
            "name": "getQuorumThreshold",
            "outputs": [
                {
                    "internalType": "uint256",
                    "name": "",
                    "type": "uint256"
                }
            ],
            "stateMutability": "view",
            "type": "function"
        },
        {
            "inputs": [
                {
                    "internalType": "uint64",
                    "name": "h",
                    "type": "uint64"
                }
            ],
            "name": "getSignatureBundle",
            "outputs": [
                {
                    "components": [
                        {
                            "components": [
                                {
                                    "internalType": "uint64",
                                    "name": "root",
                                    "type": "uint64"
                                },
                                {
                                    "internalType": "address[]",
                                    "name": "route",
                                    "type": "address[]"
                                }
                            ],
                            "internalType": "struct SubnetID",
                            "name": "subnetID",
                            "type": "tuple"
                        },
                        {
                            "internalType": "uint64",
                            "name": "blockHeight",
                            "type": "uint64"
                        },
                        {
                            "internalType": "bytes32",
                            "name": "blockHash",
                            "type": "bytes32"
                        },
                        {
                            "internalType": "uint64",
                            "name": "nextConfigurationNumber",
                            "type": "uint64"
                        },
                        {
                            "internalType": "bytes32",
                            "name": "crossMessagesHash",
                            "type": "bytes32"
                        }
                    ],
                    "internalType": "struct BottomUpCheckpoint",
                    "name": "ch",
                    "type": "tuple"
                },
                {
                    "components": [
                        {
                            "internalType": "bytes32",
                            "name": "hash",
                            "type": "bytes32"
                        },
                        {
                            "internalType": "bytes32",
                            "name": "rootHash",
                            "type": "bytes32"
                        },
                        {
                            "internalType": "uint256",
                            "name": "threshold",
                            "type": "uint256"
                        },
                        {
                            "internalType": "uint256",
                            "name": "currentWeight",
                            "type": "uint256"
                        },
                        {
                            "internalType": "bool",
                            "name": "reached",
                            "type": "bool"
                        }
                    ],
                    "internalType": "struct CheckpointInfo",
                    "name": "info",
                    "type": "tuple"
                },
                {
                    "internalType": "address[]",
                    "name": "signatories",
                    "type": "address[]"
                },
                {
                    "internalType": "bytes[]",
                    "name": "signatures",
                    "type": "bytes[]"
                }
            ],
            "stateMutability": "view",
            "type": "function"
        },
        {
            "inputs": [
                {
                    "components": [
                        {
                            "internalType": "uint64",
                            "name": "root",
                            "type": "uint64"
                        },
                        {
                            "internalType": "address[]",
                            "name": "route",
                            "type": "address[]"
                        }
                    ],
                    "internalType": "struct SubnetID",
                    "name": "subnetId",
                    "type": "tuple"
                }
            ],
            "name": "getSubnet",
            "outputs": [
                {
                    "internalType": "bool",
                    "name": "",
                    "type": "bool"
                },
                {
                    "components": [
                        {
                            "internalType": "uint256",
                            "name": "stake",
                            "type": "uint256"
                        },
                        {
                            "internalType": "uint256",
                            "name": "genesisEpoch",
                            "type": "uint256"
                        },
                        {
                            "internalType": "uint256",
                            "name": "circSupply",
                            "type": "uint256"
                        },
                        {
                            "internalType": "uint64",
                            "name": "topDownNonce",
                            "type": "uint64"
                        },
                        {
                            "internalType": "uint64",
                            "name": "appliedBottomUpNonce",
                            "type": "uint64"
                        },
                        {
                            "internalType": "enum Status",
                            "name": "status",
                            "type": "uint8"
                        },
                        {
                            "components": [
                                {
                                    "internalType": "uint64",
                                    "name": "root",
                                    "type": "uint64"
                                },
                                {
                                    "internalType": "address[]",
                                    "name": "route",
                                    "type": "address[]"
                                }
                            ],
                            "internalType": "struct SubnetID",
                            "name": "id",
                            "type": "tuple"
                        }
                    ],
                    "internalType": "struct Subnet",
                    "name": "",
                    "type": "tuple"
                }
            ],
            "stateMutability": "view",
            "type": "function"
        },
        {
            "inputs": [
                {
                    "components": [
                        {
                            "internalType": "uint64",
                            "name": "root",
                            "type": "uint64"
                        },
                        {
                            "internalType": "address[]",
                            "name": "route",
                            "type": "address[]"
                        }
                    ],
                    "internalType": "struct SubnetID",
                    "name": "subnetId",
                    "type": "tuple"
                }
            ],
            "name": "getSubnetTopDownMsgsLength",
            "outputs": [
                {
                    "internalType": "uint256",
                    "name": "",
                    "type": "uint256"
                }
            ],
            "stateMutability": "view",
            "type": "function"
        },
        {
            "inputs": [],
            "name": "listSubnets",
            "outputs": [
                {
                    "components": [
                        {
                            "internalType": "uint256",
                            "name": "stake",
                            "type": "uint256"
                        },
                        {
                            "internalType": "uint256",
                            "name": "genesisEpoch",
                            "type": "uint256"
                        },
                        {
                            "internalType": "uint256",
                            "name": "circSupply",
                            "type": "uint256"
                        },
                        {
                            "internalType": "uint64",
                            "name": "topDownNonce",
                            "type": "uint64"
                        },
                        {
                            "internalType": "uint64",
                            "name": "appliedBottomUpNonce",
                            "type": "uint64"
                        },
                        {
                            "internalType": "enum Status",
                            "name": "status",
                            "type": "uint8"
                        },
                        {
                            "components": [
                                {
                                    "internalType": "uint64",
                                    "name": "root",
                                    "type": "uint64"
                                },
                                {
                                    "internalType": "address[]",
                                    "name": "route",
                                    "type": "address[]"
                                }
                            ],
                            "internalType": "struct SubnetID",
                            "name": "id",
                            "type": "tuple"
                        }
                    ],
                    "internalType": "struct Subnet[]",
                    "name": "",
                    "type": "tuple[]"
                }
            ],
            "stateMutability": "view",
            "type": "function"
        },
        {
            "inputs": [],
            "name": "majorityPercentage",
            "outputs": [
                {
                    "internalType": "uint64",
                    "name": "",
                    "type": "uint64"
                }
            ],
            "stateMutability": "view",
            "type": "function"
        },
        {
            "inputs": [],
            "name": "minStake",
            "outputs": [
                {
                    "internalType": "uint256",
                    "name": "",
                    "type": "uint256"
                }
            ],
            "stateMutability": "view",
            "type": "function"
        },
        {
            "inputs": [
                {
                    "internalType": "bytes32",
                    "name": "id",
                    "type": "bytes32"
                }
            ],
            "name": "postbox",
            "outputs": [
                {
                    "components": [
                        {
                            "components": [
                                {
                                    "components": [
                                        {
                                            "internalType": "uint64",
                                            "name": "root",
                                            "type": "uint64"
                                        },
                                        {
                                            "internalType": "address[]",
                                            "name": "route",
                                            "type": "address[]"
                                        }
                                    ],
                                    "internalType": "struct SubnetID",
                                    "name": "subnetId",
                                    "type": "tuple"
                                },
                                {
                                    "components": [
                                        {
                                            "internalType": "uint8",
                                            "name": "addrType",
                                            "type": "uint8"
                                        },
                                        {
                                            "internalType": "bytes",
                                            "name": "payload",
                                            "type": "bytes"
                                        }
                                    ],
                                    "internalType": "struct FvmAddress",
                                    "name": "rawAddress",
                                    "type": "tuple"
                                }
                            ],
                            "internalType": "struct IPCAddress",
                            "name": "from",
                            "type": "tuple"
                        },
                        {
                            "components": [
                                {
                                    "components": [
                                        {
                                            "internalType": "uint64",
                                            "name": "root",
                                            "type": "uint64"
                                        },
                                        {
                                            "internalType": "address[]",
                                            "name": "route",
                                            "type": "address[]"
                                        }
                                    ],
                                    "internalType": "struct SubnetID",
                                    "name": "subnetId",
                                    "type": "tuple"
                                },
                                {
                                    "components": [
                                        {
                                            "internalType": "uint8",
                                            "name": "addrType",
                                            "type": "uint8"
                                        },
                                        {
                                            "internalType": "bytes",
                                            "name": "payload",
                                            "type": "bytes"
                                        }
                                    ],
                                    "internalType": "struct FvmAddress",
                                    "name": "rawAddress",
                                    "type": "tuple"
                                }
                            ],
                            "internalType": "struct IPCAddress",
                            "name": "to",
                            "type": "tuple"
                        },
                        {
                            "internalType": "uint256",
                            "name": "value",
                            "type": "uint256"
                        },
                        {
                            "internalType": "uint64",
                            "name": "nonce",
                            "type": "uint64"
                        },
                        {
                            "internalType": "bytes4",
                            "name": "method",
                            "type": "bytes4"
                        },
                        {
                            "internalType": "bytes",
                            "name": "params",
                            "type": "bytes"
                        },
                        {
                            "internalType": "uint256",
                            "name": "fee",
                            "type": "uint256"
                        }
                    ],
                    "internalType": "struct StorableMsg",
                    "name": "storableMsg",
                    "type": "tuple"
                },
                {
                    "internalType": "bool",
                    "name": "wrapped",
                    "type": "bool"
                }
            ],
            "stateMutability": "view",
            "type": "function"
        },
        {
            "inputs": [
                {
                    "internalType": "bytes32",
                    "name": "h",
                    "type": "bytes32"
                }
            ],
            "name": "subnets",
            "outputs": [
                {
                    "components": [
                        {
                            "internalType": "uint256",
                            "name": "stake",
                            "type": "uint256"
                        },
                        {
                            "internalType": "uint256",
                            "name": "genesisEpoch",
                            "type": "uint256"
                        },
                        {
                            "internalType": "uint256",
                            "name": "circSupply",
                            "type": "uint256"
                        },
                        {
                            "internalType": "uint64",
                            "name": "topDownNonce",
                            "type": "uint64"
                        },
                        {
                            "internalType": "uint64",
                            "name": "appliedBottomUpNonce",
                            "type": "uint64"
                        },
                        {
                            "internalType": "enum Status",
                            "name": "status",
                            "type": "uint8"
                        },
                        {
                            "components": [
                                {
                                    "internalType": "uint64",
                                    "name": "root",
                                    "type": "uint64"
                                },
                                {
                                    "internalType": "address[]",
                                    "name": "route",
                                    "type": "address[]"
                                }
                            ],
                            "internalType": "struct SubnetID",
                            "name": "id",
                            "type": "tuple"
                        }
                    ],
                    "internalType": "struct Subnet",
                    "name": "subnet",
                    "type": "tuple"
                }
            ],
            "stateMutability": "view",
            "type": "function"
        },
        {
            "inputs": [],
            "name": "totalSubnets",
            "outputs": [
                {
                    "internalType": "uint64",
                    "name": "",
                    "type": "uint64"
                }
            ],
            "stateMutability": "view",
            "type": "function"
        }
    ],
    "bytecode": {
        "object": "0x6080806040523461001657611bcd908161001c8239f35b600080fdfe6040608081526004908136101561001557600080fd5b600091823560e01c90816302e30f9a146111135781630338150f146110cd57816306572c1a1461108057816306c46853146110585781632472942514611039578163375b3c0a1461101a5781633e37cfa214610ff257816341b6a2e814610fc75781634512ff6314610f1b578163544dddff14610ef3578163599c7bd114610ed15781635d02968514610dba5781636ad21bb014610cdd5781637edeac9214610c8e5781638789f83b14610c635781638cfd78e714610bd357816394074b0314610b1d57816397042766146109cc5781639d3070b5146109865781639e530b5714610954578163a2b6715814610929578163a517218f146108cf578163ad8c4f741461062a578163b1ba49b014610602578163b45ff1721461056f578163b932488f14610460578163c66c66a11461040f578163d6c5c3971461028957508063f3229131146101a95763f7ceaf761461016d57600080fd5b346101a55760203660031901126101a5576003816020936001600160401b03610194611231565b168152600a85522001549051908152f35b5080fd5b50346101a557816003193601126101a5576101c261193b565b508051906101cf82611477565b6007546101db816114ce565b6101e7835191826114ad565b818152602091828201600787527fa66cc928b5edb82af9bd49922954155ab7b0942694bea4ce44661d9a8736c68896905b82821061024757505050610243945083526001600160401b036008541690830152519182918261128c565b0390f35b600385600192885161025881611492565b8b548152848060a01b03858d0154168382015261027760028d01611686565b8a820152815201980191019096610218565b82843461040c578060031936011261040c576102a3611654565b506102ac611654565b506001600160401b0392836017541680156103f957600185828143160416018581116103e657851602928484169384036103d35783835261034b60208096600982528386209460058551966103008861142b565b610309816115d9565b80895260028201548516868a01526003820154888a0152838201549094166060890152015460808701528451630c133d1360e31b815293849283928301611a05565b038173__$a0fe38a9a81205afccc10810b09a4d3f45$__5af49384156103c85793610392575b508061024393946060925196879615875286015284015260608301906113e2565b6102439350906103b9606092873d89116103c1575b6103b181836114ad565b8101906119ed565b935090610371565b503d6103a7565b8251903d90823e3d90fd5b634e487b7160e01b835260118252602483fd5b634e487b7160e01b845260118352602484fd5b634e487b7160e01b835260128252602483fd5b80fd5b82843461040c575061044961024361044161043c61042c3661158e565b610434611814565b5036906114e5565b611aa3565b929092611853565b8351938493151584528060208501528301906111b3565b82843461040c576020806003193601126101a557906001600160401b03610485611231565b168152600b825282812090815461049b816114ce565b906104a8865192836114ad565b8082528482018094845285842084915b83831061052f57505050508451938085019181865251809252858501868360051b8701019493965b8388106104ed5786860387f35b90919293948380600192603f198a82030186528851908280610516845189855289850190611368565b93015115159101529701930197019690939291936104e0565b600d886001928b9a97989a5161054481611477565b61054d8661179d565b815260ff600c87015416151583820152815201920192019190969493966104b8565b919050346105fe5760203660031901126105fe5760056102439382610592611231565b9161059b611654565b506001600160401b038093168152600960205220908351946105bc8661142b565b6105c5836115d9565b865281600284015416602087015260038301548587015282015416606085015201546080830152519182916020835260208301906113e2565b8280fd5b5050346101a557816003193601126101a5576020906001600160401b03600854169051908152f35b8383346101a5576020918260031936011261040c578390610649611231565b92610652611654565b5061065b611955565b506001600160401b0380941694858352600981528183209160058151966106818861142b565b61068a856115d9565b885280600286015416848901526003850154838901528685015416936060948589015201546080870152868452600a82528084209460ff8251916106cd8361142b565b87548352600197888101548685015260028101548585015260038101548785015201541615156080820152878552600f835281852091805190818585549182815201908195895286892090895b8181106108bc57505050826107309103836114ad565b815161073b816114ce565b9a61074883519c8d6114ad565b818c52601f199788610759846114ce565b01908a5b8281106108ad57505050885b82811061085457505050906107c061078c8693519a610100808d528c01906113e2565b93838b0190608080918051845260208101516020850152604081015160408501526060810151606085015201511515910152565b88830360c08a01525191828152019190855b8181106108385750505085810360e08701528651928382528282019083808660051b850101990195925b85841061080957888a0389f35b9091929394959685806108258c8686869f030188528b5161124c565b9b990197969591909101930191906107fc565b82516001600160a01b03168452928401929184019187016107d2565b99809c9a828b98999a9b5260108a5284882060018060a01b036108778389611911565b511689528a528b6108938261088d888c20611686565b92611911565b5261089e818d611911565b50019b999b9897969598610769565b8e81018a01829052890161075d565b8254845292880192918b01918b0161071a565b5050346101a557816003193601126101a5576108e9611980565b815192839260208080860192818752855180945286019401925b82811061091257505050500390f35b835185528695509381019392810192600101610903565b5050346101a557816003193601126101a5576020906001600160401b0360165460881c169051908152f35b82843461040c57506001600160401b036109756109703661158e565b6118bd565b835191151582529091166020820152f35b82843461040c57602036600319011261040c5782356001600160401b039182821161040c57506109c061043c6020956003933691016114e5565b90500154169051908152f35b839150346101a557816003193601126101a5576109e7611980565b918251906109f4826114ce565b90610a01865192836114ad565b828252601f19610a10846114ce565b01815b818110610b06575050805b6001600160401b039081811685811015610aa95790610aa18284610a446001958c611911565b5116865260206009815260058c88208d5192610a5f8461142b565b610a68826115d9565b8452600282015489169084015260038101548e8401528b8101548816606084015201546080820152610a9a8289611911565b5286611911565b500116610a1e565b885160208082528651818301819052869291600582901b83018d0191818a0191848f015b828710610ada5785850386f35b909192938280610af6600193603f198a820301865288516113e2565b9601920196019592919092610acd565b602090610b11611654565b82828701015201610a13565b82843461040c578060031936011261040c57610b376115bf565b50815191610b4483611477565b6012546001600160401b03168352805160138054808352908452602093848301917f66de8ffda797e3de9c05e8fc57b3bf0ec28a930d40b0d285d93c06501cf6a090915b86828210610bb65788906102438888610ba3818a03826114ad565b8385015251928284938452830190611158565b83546001600160a01b031685529093019260019283019201610b88565b9050346105fe5760203660031901126105fe579181928160c08451610bf78161145c565b610bff6118ef565b8152610c096118ef565b60208201528286820152826060820152826080820152606060a0820152015235815260036020522090610c4360ff600c840154169261179d565b91610c578251938385948552840190611368565b90151560208301520390f35b5050346101a557816003193601126101a5576020906001600160401b0360165460481c169051908152f35b9050346105fe5760203660031901126105fe57610cc1906102439360208451610cb681611477565b828152015235611a64565b9051918291829190916020806040830194805184520151910152565b5050346101a557816003193601126101a557610cf761193b565b50805190610d0482611477565b600554610d10816114ce565b610d1c835191826114ad565b818152602091828201600587527f036b6384b5eca791c62761152d0c79bb0604c104a5fb6f4eb0703f3154bb3db096905b828210610d7857505050610243945083526001600160401b036006541690830152519182918261128c565b6003856001928851610d8981611492565b8b548152848060a01b03858d01541683820152610da860028d01611686565b8a820152815201980191019096610d4d565b82843461040c578060031936011261040c57601154610dd8816114ce565b90610de5845192836114ad565b808252601f19610df4826114ce565b01835b818110610eba575050825b818110610e66575050825191602080840190808552835180925280868601968360051b870101940192955b828710610e3a5785850386f35b909192938280610e56600193603f198a820301865288516111b3565b9601920196019592919092610e2d565b806001917f31ecc21a745e3968a04e9570e4425bc18fa8019c68028196b546d1669c200c680154855284602052610e9e868620611853565b610ea88286611911565b52610eb38185611911565b5001610e02565b602090610ec5611814565b82828701015201610df7565b5050346101a557816003193601126101a55760209060ff601654169051908152f35b5050346101a557816003193601126101a5576020906001600160401b03600654169051908152f35b919050346105fe5760203660031901126105fe578060ff610fc59260a0956001600160401b03610f49611231565b610f51611955565b50168152600a6020522093825194610f688661142b565b80548652600181015460208701526002810154848701526003810154606087015201541615156080840152518092608080918051845260208101516020850152604081015160408501526060810151606085015201511515910152565bf35b5050346101a557816003193601126101a5576020906001600160401b0360165460081c169051908152f35b5050346101a557816003193601126101a5576020906001600160401b03600c54169051908152f35b5050346101a557816003193601126101a5576020906014549051908152f35b5050346101a557816003193601126101a5576020906015549051908152f35b5050346101a557816003193601126101a5576020906001600160401b03601754169051908152f35b9050823461040c57602036600319011261040c5760165460ff168235818102939181159185041417156110ba576020836064865191048152f35b634e487b7160e01b825260119052602490fd5b5050346101a557816003193601126101a5578161024392602083516110f181611477565b82815201526020825161110381611477565b8281520152610cc1600254611a64565b9050346105fe5760203660031901126105fe57816102439361114592611137611814565b503581528060205220611853565b90519182916020835260208301906111b3565b60609060408301906001600160401b03815116845260209283809201519460408382015285518094520193019160005b828110611196575050505090565b83516001600160a01b031685529381019392810192600101611188565b908151815260208201516020820152604082015160408201526001600160401b03806060840151166060830152608083015116608082015260a082015191600683101561121b5760c060e0916112189460a08501520151918160c08201520190611158565b90565b634e487b7160e01b600052602160045260246000fd5b600435906001600160401b038216820361124757565b600080fd5b919082519283825260005b848110611278575050826000602080949584010152601f8019910116010190565b602081830181015184830182015201611257565b602091828252606092838301918051946040938484870152865180915260808601918460808360051b8901019801926000915b8383106112de575050505050906001600160401b039101511691015290565b9091929398868061131d8a856001958f8f83918591607f19908503018c525180518452898060a01b03888201511688850152015193820152019061124c565b9b0193019301919392906112bf565b604060206112189381611346855185845285840190611158565b940151908281860391015260ff8151168452015191816020820152019061124c565b9060c0806113d9611397611385865160e0875260e087019061132c565b6020870151868203602088015261132c565b604086015160408601526001600160401b03606087015116606086015263ffffffff60e01b608087015116608086015260a086015185820360a087015261124c565b93015191015290565b906080806113f9845160a0855260a0850190611158565b936001600160401b03806020830151166020860152604082015160408601526060820151166060850152015191015290565b60a081019081106001600160401b0382111761144657604052565b634e487b7160e01b600052604160045260246000fd5b60e081019081106001600160401b0382111761144657604052565b604081019081106001600160401b0382111761144657604052565b606081019081106001600160401b0382111761144657604052565b90601f801991011681019081106001600160401b0382111761144657604052565b6001600160401b0381116114465760051b60200190565b919060408382031261124757604051926114fe84611477565b836001600160401b03823581811681036112475782526020928381013591821161124757019280601f8501121561124757833561153a816114ce565b9461154860405196876114ad565b818652848087019260051b820101928311611247578401905b82821061156f575050500152565b81356001600160a01b0381168103611247578152908401908401611561565b6003199060208183011261124757600435916001600160401b03831161124757826040920301126112475760040190565b604051906115cc82611477565b6060602083600081520152565b906040516115e681611477565b80926001600160401b03815416825260018091019160405191828481955492838652602080960191600052856000209060005b878682106116355750505050611631925003846114ad565b0152565b83546001600160a01b0316855289955090930192918101918101611619565b604051906116618261142b565b600060808361166e6115bf565b81528260208201528260408201528260608201520152565b90604051906000835490600182811c9080841696871561174d575b6020948584108914611739578798848997989952908160001461171757506001146116d8575b5050506116d6925003836114ad565b565b600090815285812095935091905b8183106116ff5750506116d693508201013880806116c7565b855488840185015294850194879450918301916116e6565b925050506116d694925060ff191682840152151560051b8201013880806116c7565b634e487b7160e01b85526022600452602485fd5b91607f16916116a1565b906040519161176583611477565b602083611771836115d9565b815261179560036040519461178586611477565b60ff600282015416865201611686565b828401520152565b906040516117aa8161145c565b60c0600b82946117b981611757565b84526117c760048201611757565b60208501526008810154604085015260098101546001600160401b038116606086015260a01b6001600160e01b0319166080850152611808600a8201611686565b60a08501520154910152565b604051906118218261145c565b81600080825280602083015280604083015280606083015280608083015260a082015260c061184e6115bf565b910152565b906040516118608161145c565b809280548252600181015460208301526002810154604083015260ff60038201546001600160401b0380821660608601528160401c16608085015260801c1690600682101561121b57600461184e9160c09360a0860152016115d9565b61043c6118cb9136906114e5565b90156118e65760036001600160401b03910154169060019190565b50600090600090565b604051906118fc82611477565b816119056115bf565b8152602061184e6115bf565b80518210156119255760209160051b010190565b634e487b7160e01b600052603260045260246000fd5b6040519061194882611477565b6000602083606081520152565b604051906119628261142b565b60006080838281528260208201528260408201528260608201520152565b60405190600d548083528260209182820190600d6000527fd7b6990105719101dabeb77144f2a3385c8033acd3af97e9423a695e81ad1eb5936000905b8282106119d3575050506116d6925003836114ad565b8554845260019586019588955093810193909101906119bd565b90816020910312611247575180151581036112475790565b906020908183528160808160608601936001600160401b038151168288015201519460408082015285518094520193019160005b828110611a47575050505090565b83516001600160a01b031685529381019392810192600101611a39565b60006020604051611a7481611477565b828152015260005260016020526040600020600160405191611a9583611477565b805483520154602082015290565b611ada73__$a0fe38a9a81205afccc10810b09a4d3f45$__91604051906390ba52cf60e01b82528180602094859360048301611a05565b0381865af4908115611b5e57600091611b6a575b5060005260008152611b2881604060002093611b0c600486016115d9565b906040518080958194630c133d1360e31b835260048301611a05565b03915af4918215611b5e57600092611b41575b50501591565b611b579250803d106103c1576103b181836114ad565b3880611b3b565b6040513d6000823e3d90fd5b908282813d8311611b90575b611b8081836114ad565b8101031261040c57505138611aee565b503d611b7656fea2646970667358221220c149e6cd6b0501c29d743f6255134a3e274557032a875aa6972b7fc216e73ccb64736f6c63430008130033",
        "linkReferences": {
            "src/lib/SubnetIDHelper.sol": {
                "SubnetIDHelper": [
                    {
                        "start": 875,
                        "length": 20
                    },
                    {
                        "start": 6852,
                        "length": 20
                    }
                ]
            }
        }
    },
    "methodIdentifiers": {
        "appliedTopDownNonce()": "8789f83b",
        "bottomUpCheckPeriod()": "06c46853",
        "bottomUpCheckpoint(uint64)": "b45ff172",
        "bottomUpMessages(uint64)": "b932488f",
        "bottomUpNonce()": "41b6a2e8",
        "crossMsgFee()": "24729425",
        "getAppliedTopDownNonce((uint64,address[]))": "9e530b57",
        "getBottomUpRetentionHeight()": "3e37cfa2",
        "getCheckpointCurrentWeight(uint64)": "f7ceaf76",
        "getCheckpointInfo(uint64)": "4512ff63",
        "getCurrentBottomUpCheckpoint()": "d6c5c397",
        "getCurrentConfigurationNumber()": "544dddff",
        "getCurrentMembership()": "6ad21bb0",
        "getIncompleteCheckpointHeights()": "a517218f",
        "getIncompleteCheckpoints()": "97042766",
        "getLastConfigurationNumber()": "b1ba49b0",
        "getLastMembership()": "f3229131",
        "getLatestParentFinality()": "0338150f",
        "getNetworkName()": "94074b03",
        "getParentFinality(uint256)": "7edeac92",
        "getQuorumThreshold(uint256)": "06572c1a",
        "getSignatureBundle(uint64)": "ad8c4f74",
        "getSubnet((uint64,address[]))": "c66c66a1",
        "getSubnetTopDownMsgsLength((uint64,address[]))": "9d3070b5",
        "listSubnets()": "5d029685",
        "majorityPercentage()": "599c7bd1",
        "minStake()": "375b3c0a",
        "postbox(bytes32)": "8cfd78e7",
        "subnets(bytes32)": "02e30f9a",
        "totalSubnets()": "a2b67158"
    },
    "id": 44
}