{"abi":[{"type":"function","name":"applyFinalityChanges","inputs":[],"outputs":[{"name":"","type":"uint64","internalType":"uint64"}],"stateMutability":"nonpayable"},{"type":"function","name":"commitParentFinality","inputs":[{"name":"finality","type":"tuple","internalType":"struct ParentFinality","components":[{"name":"height","type":"uint256","internalType":"uint256"},{"name":"blockHash","type":"bytes32","internalType":"bytes32"}]}],"outputs":[{"name":"hasCommittedBefore","type":"bool","internalType":"bool"},{"name":"previousFinality","type":"tuple","internalType":"struct ParentFinality","components":[{"name":"height","type":"uint256","internalType":"uint256"},{"name":"blockHash","type":"bytes32","internalType":"bytes32"}]}],"stateMutability":"nonpayable"},{"type":"function","name":"getTrackerConfigurationNumbers","inputs":[],"outputs":[{"name":"","type":"uint64","internalType":"uint64"},{"name":"","type":"uint64","internalType":"uint64"}],"stateMutability":"view"},{"type":"function","name":"storeValidatorChanges","inputs":[{"name":"changeRequests","type":"tuple[]","internalType":"struct StakingChangeRequest[]","components":[{"name":"change","type":"tuple","internalType":"struct StakingChange","components":[{"name":"op","type":"uint8","internalType":"enum StakingOperation"},{"name":"payload","type":"bytes","internalType":"bytes"},{"name":"validator","type":"address","internalType":"address"}]},{"name":"configurationNumber","type":"uint64","internalType":"uint64"}]}],"outputs":[],"stateMutability":"nonpayable"},{"type":"event","name":"ActiveValidatorCollateralUpdated","inputs":[{"name":"validator","type":"address","indexed":false,"internalType":"address"},{"name":"newPower","type":"uint256","indexed":false,"internalType":"uint256"}],"anonymous":false},{"type":"event","name":"ActiveValidatorLeft","inputs":[{"name":"validator","type":"address","indexed":false,"internalType":"address"}],"anonymous":false},{"type":"event","name":"ActiveValidatorReplaced","inputs":[{"name":"oldValidator","type":"address","indexed":false,"internalType":"address"},{"name":"newValidator","type":"address","indexed":false,"internalType":"address"}],"anonymous":false},{"type":"event","name":"MembershipUpdated","inputs":[{"name":"","type":"tuple","indexed":false,"internalType":"struct Membership","components":[{"name":"validators","type":"tuple[]","internalType":"struct Validator[]","components":[{"name":"weight","type":"uint256","internalType":"uint256"},{"name":"addr","type":"address","internalType":"address"},{"name":"metadata","type":"bytes","internalType":"bytes"}]},{"name":"configurationNumber","type":"uint64","internalType":"uint64"}]}],"anonymous":false},{"type":"event","name":"NewActiveValidator","inputs":[{"name":"validator","type":"address","indexed":false,"internalType":"address"},{"name":"power","type":"uint256","indexed":false,"internalType":"uint256"}],"anonymous":false},{"type":"event","name":"NewWaitingValidator","inputs":[{"name":"validator","type":"address","indexed":false,"internalType":"address"},{"name":"power","type":"uint256","indexed":false,"internalType":"uint256"}],"anonymous":false},{"type":"event","name":"WaitingValidatorCollateralUpdated","inputs":[{"name":"validator","type":"address","indexed":false,"internalType":"address"},{"name":"newPower","type":"uint256","indexed":false,"internalType":"uint256"}],"anonymous":false},{"type":"event","name":"WaitingValidatorLeft","inputs":[{"name":"validator","type":"address","indexed":false,"internalType":"address"}],"anonymous":false},{"type":"error","name":"AddressShouldBeValidator","inputs":[]},{"type":"error","name":"CannotConfirmFutureChanges","inputs":[]},{"type":"error","name":"InvalidConfigurationNumber","inputs":[]},{"type":"error","name":"NotSystemActor","inputs":[]},{"type":"error","name":"OldConfigurationNumber","inputs":[]},{"type":"error","name":"PQDoesNotContainAddress","inputs":[]},{"type":"error","name":"PQEmpty","inputs":[]},{"type":"error","name":"ParentFinalityAlreadyCommitted","inputs":[]}],"bytecode":{"object":"0x6080806040523460155761230f908161001b8239f35b600080fdfe6080604052600436101561001257600080fd5b60003560e01c80630df144611461018857806311196974146100e25780638fbe0b7c146100b25763e49a547d1461004857600080fd5b346100ad5760203660031901126100ad576004356001600160401b0381116100ad57366023820112156100ad5780600401356001600160401b0381116100ad573660248260051b840101116100ad5760246100ab926100a561057e565b01611181565b005b600080fd5b346100ad5760003660031901126100ad576040601d546001600160401b038251918181168352831c166020820152f35b346100ad5760403660031901126100ad5760006100fd610565565b5061010661057e565b61010e610565565b50805460043590818110156101795791606092815260208052604081209160016040519361013b856101f0565b805485520154916020840192835281815260208052604081208281556001602435910155558151151591604051928352516020830152516040820152f35b63153ad84160e11b8352600483fd5b346100ad5760003660031901126100ad576101a161057e565b60206101ab610389565b6001600160401b0360405191168152f35b6001600160401b036001911601906001600160401b0382116101da57565b634e487b7160e01b600052601160045260246000fd5b604081019081106001600160401b0382111761020b57604052565b634e487b7160e01b600052604160045260246000fd5b606081019081106001600160401b0382111761020b57604052565b90601f801991011681019081106001600160401b0382111761020b57604052565b6001600160401b03811161020b5760051b60200190565b80518210156102885760209160051b010190565b634e487b7160e01b600052603260045260246000fd5b919082018092116101da57565b90600182811c921680156102db575b60208310146102c557565b634e487b7160e01b600052602260045260246000fd5b91607f16916102ba565b90604051918260008254926102f9846102ab565b80845293600181169081156103675750600114610320575b5061031e9250038361023c565b565b90506000929192526020600020906000915b81831061034b57505090602061031e9282010138610311565b6020919350806001915483858901015201910190918492610332565b90506020925061031e94915060ff191682840152151560051b82010138610311565b601d546000196001600160401b03821601906001600160401b0382116101da576001600160401b03806103bb846101bc565b9260401c1691161461055f576103d0816107a1565b61ffff60175416916103e18361025d565b906103ef604051928361023c565b838252601f196103fe8561025d565b0136602084013760015b61ffff811685811161044f5760009081526019602052604090205461ffff916001916001600160a01b03166104478461044084610b8b565b1687610274565b520116610408565b50509250805161045e8161025d565b9161046c604051938461023c565b818352601f1961047b8361025d565b0160005b81811061053357505060005b8281106104bf575050506104bc90604051906104a6826101f0565b81526001600160401b0383166020820152610da7565b90565b6001906001600160a01b036104d48285610274565b51166105126003604060008481526016602052206104f78682015482549061029e565b936040519461050586610221565b85526020850152016102e5565b60408201526105218287610274565b5261052c8186610274565b500161048b565b60209060405161054281610221565b60008152600083820152606060408201528282880101520161047f565b50600090565b60405190610572826101f0565b60006020838281520152565b604051635d3f8a6960e01b815233600482015260208160248173__$e800e3908cdbb6b1b5bd452383a17b18f7$__5af4908115610618576000916105d6575b50156105c557565b63f0d97f3b60e01b60005260046000fd5b6020813d602011610610575b816105ef6020938361023c565b8101031261060c57519081151582036106095750386105bd565b80fd5b5080fd5b3d91506105e2565b6040513d6000823e3d90fd5b6001600160401b03811161020b57601f01601f191660200190565b60005b8381106106525750506000910152565b8181015183820152602001610642565b81811061066d575050565b60008155600101610662565b9190601f811161068857505050565b61031e926000526020600020906020601f840160051c830193106106b4575b601f0160051c0190610662565b90915081906106a7565b91909182811461079c576106d283546102ab565b6001600160401b03811161020b576106f4816106ee84546102ab565b84610679565b600093601f821160011461073657610727929394829160009261072b575b50508160011b916000199060031b1c19161790565b9055565b015490503880610712565b845260208085208386529085209094601f198316815b8181106107845750958360019596971061076b575b505050811b019055565b015460001960f88460031b161c19169055388080610761565b9192600180602092868b01548155019401920161074c565b509050565b601d546001600160401b03828116939190811684106107cb5763040aaa0560e11b60005260046000fd5b6001600160401b038160401c168410610b855760401c6001600160401b03165b6001600160401b038116848111610b4f5760406000828152601e6020522060018060a01b0360028201541660ff8254166004811015610b39576002810361087b57506002604060019461085b6001600160401b0397956003888560009889908152601660205220920191016106be565b8352601e6020528220828155610872858201610c33565b015501166107eb565b90919060009060038103610a22575050600161089791016102e5565b908151820191604081602085019403126100ad5760208101516001600160401b0381116100ad5781019083603f830112156100ad576020820151916108db83610624565b946108e9604051968761023c565b838652604082850101116100ad5760409261090a918460208801910161063f565b01519160036040600084815260166020522001908051906001600160401b03821161020b576109438261093d85546102ab565b85610679565b602090601f83116001146109a5576001600160401b03979560009560029561098b8660409760019c97610995978c9261099a5750508160011b916000199060031b1c19161790565b90555b6014611426565b61085b565b015190503880610712565b90601f1983169184600052816000209260005b818110610a0a575095600295600186819b96610995966001600160401b039e9c9660409a60009d106109f2575b505050811b01905561098e565b01518b1960f88460031b161c191690553880806109e5565b929360206001819287860151815501950193016109b8565b90916001610a3091016102e5565b602081805181010312610b35576001946001600160401b03969460009487600295602060409601519250148614610af557610ac8610ad092610a7f838b888b8581526016602052200154611419565b9087878a838152601660205220015482159081610aec575b508914610ad857610ac16003888b8481526016602052208b81558b8e8201558b8b82015501610c33565b6014611741565b601554611419565b60155561085b565b818b888b8481526016602052200155610ac1565b90501538610a97565b61099591610b2b610b13838b888b868152601660205220015461029e565b92838b888b868152601660205220015560155461029e565b6015556014611523565b8280fd5b634e487b7160e01b600052602160045260246000fd5b50509150610b5c906101bc565b67ffffffffffffffff60401b601d549160401b169067ffffffffffffffff60401b191617601d55565b50915050565b61ffff6000199116019061ffff82116101da57565b9080602083519182815201916020808360051b8301019401926000915b838310610bcc57505050505090565b90919293946020806080600193601f1986820301875260408a5180518352868060a01b03858201511685840152015160606040830152610c1a8151809281606086015286868601910161063f565b601f01601f191601019701959491909101920190610bbd565b610c3d81546102ab565b9081610c47575050565b81601f60009311600114610c59575055565b81835260208320610c7591601f0160051c810190600101610662565b8082528160208120915555565b6007548110156102885760076000526003602060002091020190600090565b90929192610d91578251815560208301516001820180546001600160a01b0319166001600160a01b03929092169190911790556040929092015180519092600201906001600160401b03811161020b57610cff816106ee84546102ab565b6020601f8211600114610d3057819061072793949560009261099a5750508160011b916000199060031b1c19161790565b601f1982169083600052806000209160005b818110610d7957509583600195969710610d6057505050811b019055565b015160001960f88460031b161c19169055388080610761565b9192602060018192868b015181550194019201610d42565b634e487b7160e01b600052600060045260246000fd5b604051602081527f7ecdac482334c36fccbe374318cfe74ea0c8181394890ddec894a10f0fcc7481610de58351604060208501526060840190610ba0565b918060208501936001600160401b0385511660408301520390a16001600160401b036008541680611076575b50600754600160401b811161020b5760095481600955808210611001575b50600960009081527f6e1540171b6c0c960b71a7020d9f60077f6af931a8bbf590da0223dacf75c7af7fa66cc928b5edb82af9bd49922954155ab7b0942694bea4ce44661d9a8736c6885b838310610fa257505050506001600160401b03600854166001600160401b0319600a541617600a55815151906007549260005b838110610f3d5750506001600160401b039051166001600160401b03196008541617600855808211610edd575050565b818110610ee8575050565b6007548015610f27576000190190610eff82610c82565b929092610d9157610f1e60028460006001965560008682015501610c33565b60075501610edd565b634e487b7160e01b600052603160045260246000fd5b84811015610f6c5780610f66610f566001938551610274565b51610f6083610c82565b90610ca1565b01610ead565b610f77818351610274565b5190600754600160401b81101561020b57600192610f608285610f9d9401600755610c82565b610f66565b600380826001938503610fbc575b01920192019190610e7a565b80548555838060a01b03848201541684860190858060a01b03166bffffffffffffffffffffffff60a01b825416179055610ffc60028201600287016106be565b610fb0565b806003029060038204036101da57816003026003810483036101da5760096000527f6e1540171b6c0c960b71a7020d9f60077f6af931a8bbf590da0223dacf75c7af91820191015b8181106110565750610e2f565b600390600081556000600182015561107060028201610c33565b01611049565b9291906001600160401b038151166001600160401b03600a5416908181146111795710611168576040516110a9816101f0565b600754946110b68661025d565b6110c3604051918261023c565b868152600760009081527fa66cc928b5edb82af9bd49922954155ab7b0942694bea4ce44661d9a8736c6889790602083015b8282106111225750505061111493949596508252602082015283611470565b61111e5738610e11565b5050565b600360206001928c61115560026040519261113c84610221565b80548452878060a01b03888201541686850152016102e5565b60408201528152019a01910190986110f5565b633746be2560e11b60005260046000fd5b505050509050565b909182156114145760005b83811015610b855760008160051b840135603e198536030181121561060c57840160406111b9828061150e565b01356001600160a01b0381169190829003610b35576111d8818061150e565b356004811015611410576111ec828061150e565b602081013590601e198136030182121561140c57019283356001600160401b03811161140c576020850181360381136114085761122882610624565b95611236604051978861023c565b82875260208336920101116114085781879260209283890137860101526001600160401b03601d5416936040519261126d84610221565b83526020830190815260408301918252848652601e60205260408620925160048110156113f45760ff801985541691161783556001830190518051906001600160401b0382116113e0576112c58261093d85546102ab565b602090601f83116001146113755782602097969593600295936112fd938c9261099a5750508160011b916000199060031b1c19161790565b90555b51910180546001600160a01b0319166001600160a01b03929092169190911790556001600160401b03611332846101bc565b166001600160401b0319601d541617601d550135906001600160401b038216809203610b355703611366575060010161118c565b631aba532960e21b8152600490fd5b8389528189209190601f1984168a5b8181106113c8575092600192859260209a99989660029896106113af575b505050811b019055611300565b015160001960f88460031b161c191690553880806113a2565b92936020600181928786015181550195019301611384565b634e487b7160e01b88526041600452602488fd5b634e487b7160e01b87526021600452602487fd5b8680fd5b8580fd5b8380fd5b915050565b919082039182116101da57565b6001600160a01b03821660009081526002820160205260409020805490849055909291908083036114575750505050565b8211156114675761031e92611523565b61031e92611741565b6001600160401b036020820151166001600160401b03602084015116036115075761149a816119a6565b6114a3836119a6565b036115075751805182515103611507576040516114de816114d06020820194602086526040830190610ba0565b03601f19810183528261023c565b5190209051604051611500816114d06020820194602086526040830190610ba0565b5190201490565b5050600090565b903590605e19813603018212156100ad570190565b6001600160a01b038216600090815260048201602052604090205490929190600384019061ffff166117005761ffff845460081c1661ffff825416106116d4578061156f858593611a71565b929092106116325750506001600160a01b0381166000908152600784016020526040902054600684019061ffff166115f157817f19fe3ca603e87854a0747cc10abf06bac64d61bac73d6d15f2fd3ca448f15264946115cd92611c4a565b604080516001600160a01b039092168252602082019290925290819081015b0390a1565b807fda148fac2e1063174be7bc0895576bdaba90fd14e575463fa26a967cb895cadd94611621846115cd94611dca565b9061162c8582611dff565b92612129565b819293509084826116677ffaeb8de771b867cf357f6b459a7002b62ec45d544a8078a3ecd91200cc826d75976116a195611aa1565b6001600160a01b0386166000908152600783016020526040902054600683019161169c918891859161ffff166116c4576119f7565b611c4a565b604080516001600160a01b039283168152929091166020830152819081016115ec565b6116cf838387611ba3565b6119f7565b817f2e8038f5812f763c6ef0c5427cb5a05ce6d7064af2ba7d1d270bc02660b019fd946115cd926119f7565b807f143db27bc2036653dc6f962ff9d0b803163d4af50c256ca9e6927b3d6dcd019794611730846115cd94611dca565b9061173b8582611dff565b92611e68565b6001600160a01b0382166000908152600782016020526040902054600682019392919061ffff1661191c576001600160a01b038216600090815260048201602052604090205460038201949061ffff161561190b57831561187a576117bb6117a98487611dca565b6117b38585611dff565b908488611eff565b61ffff81541615611873576117d08286611a71565b9290916117dd8282611a71565b90941061182f575050604080516001600160a01b0390941684526020840194909452507f143db27bc2036653dc6f962ff9d0b803163d4af50c256ca9e6927b3d6dcd01979350909182915081016115ec565b83955082945061169c6116a1948389611869827ffaeb8de771b867cf357f6b459a7002b62ec45d544a8078a3ecd91200cc826d759c611aa1565b6116cf8286611d03565b5050505050565b91819350806118ad6020927f4a4c5d1a281180eea1e99d8177fa4798b9f7e019d5c57e7d8d73c6a22199aa5b9488611c61565b6040516001600160a01b039091168152a161ffff8154166118cd57505050565b6115cd81837f2e8038f5812f763c6ef0c5427cb5a05ce6d7064af2ba7d1d270bc02660b019fd95611901826116cf96611a71565b9681969194611d03565b632a55ca5360e01b60005260046000fd5b821561196357836115cd91611952847fda148fac2e1063174be7bc0895576bdaba90fd14e575463fa26a967cb895cadd97611dca565b9061195d8582611dff565b92612187565b6020925081611993917f3168ba660eed6ef1dc2258b2247cc05fd0f2f350d39e6ad2e2ebc76a8000b40b95611ba3565b6040516001600160a01b039091168152a1565b805151906000916000915b8183106119be5750505090565b9091926119da6001916119d2868551610274565b51519061029e565b930191906119b1565b61ffff60019116019061ffff82116101da57565b909161031e92611a6b611a0e61ffff8554166119e3565b6001600160a01b03841660008181526001870160209081526040808320805461ffff871661ffff19918216811790925581855260028b01909352922080546001600160a01b03191690931790925586549091161785559282611dff565b92611eff565b600290929192611a8081611f64565b6001600052016020526104bc60018060a01b03604060002054168093611dff565b611aaa81611f64565b611ada61ffff825416611abd8184611f9e565b61ffff611ac982610b8b565b1661ffff19845416178355826120e1565b6002810192600160005283602052611b00604060002060018060a01b0390541684611dff565b92600194611b0e6001611e51565b61ffff855416905b61ffff8116828111611b985782811015611b6e575080611b38611b40926119e3565b908588612213565b9790975b871115611b6457611b56908887612041565b611b5f87611e51565b611b16565b5050505092505050565b600090815260208490526040902054909790611b93906001600160a01b031685611dff565b611b44565b505050505092505050565b9091611baf9082611dca565b61ffff825416611bc0818385612041565b61ffff611bcc82610b8b565b1661ffff19845416178355611be181846120e1565b61ffff821614611c455761031e926002830161ffff831660005280602052611c22611c1a604060002060018060a01b0390541684611dff565b848487612129565b61ffff831660005260205261195d604060002060018060a01b0390541682611dff565b505050565b909161031e9261162c611a0e61ffff8554166119e3565b9091611c6d9082611dca565b61ffff825416611c7e818385612041565b61ffff611c8a82610b8b565b1661ffff19845416178355611c9f81846120e1565b61ffff821614611c455761031e926002830161ffff831660005280602052611ce0611cd8604060002060018060a01b0390541684611dff565b848487611eff565b61ffff831660005260205261173b604060002060018060a01b0390541682611dff565b611d0c81611f64565b611d1f61ffff825416611abd8184611f9e565b6002810192600160005283602052611d45604060002060018060a01b0390541684611dff565b92600194600261ffff855416905b61ffff8116828111611b985782811015611da0575080611d75611d7d926119e3565b90858861227a565b9790975b871015611b6457611d93908887612041565b61fffe8760011b16611d53565b600090815260208490526040902054909790611dc5906001600160a01b031685611dff565b611d81565b600191828060a01b03166000520160205261ffff60406000205416908115611dee57565b63f2755e3760e01b60005260046000fd5b60ff815416916003831015610b3957600292600103611e33576001600160a01b031660009081529101602052604090205490565b6001600160a01b031660009081529101602052604090206001015490565b60011b906201fffe61fffe8316921682036101da57565b919390611e7485611e51565b61ffff845416905b61ffff8116828111611b645782811015611ed3575080611e9e611ea6926119e3565b908487612213565b9690965b861115611eca57611ebc908786612041565b611ec586611e51565b611e7c565b50505092505050565b6000908152600286016020526040902054909690611efa906001600160a01b031684611dff565b611eaa565b9092915b600161ffff821611611f16575b50505050565b600181901c617fff1660008181526002840160205260409020549091908490611f48906001600160a01b031687611dff565b1115611f5e57611f59908284612041565b611f03565b50611f10565b5461ffff1615611f7057565b6340d9b01160e01b60005260046000fd5b15611f8857565b634e487b7160e01b600052600160045260246000fd5b90611fc161ffff835416611fb58160011115611f81565b61ffff83161115611f81565b600160008181526002840160208181526040808420805461ffff90971680865282862080546001600160a01b03998a168089529a89018652848820805461ffff1990811690941790559098168087529286208054909116871790559290915284546001600160a01b03199081169096179094559190528054909216179055565b919061ffff906120668285541661205c818585161115611f81565b8385161115611f81565b811660008181526002850160208181526040808420805497871680865282862080546001600160a01b039a8b168089526001909c01865284882080549a199a8b1690931790925598168086529185208054909716861790965591905284546001600160a01b0319908116909617909455528054909216179055565b61ffff9091166000908152600282016020908152604080832080546001600160a01b031981169091556001600160a01b03168352600193909301905220805461ffff19169055565b9092915b600161ffff82161161213f5750505050565b600181901c617fff1660008181526002840160205260409020549091908490612171906001600160a01b031687611dff565b1015611f5e57612182908284612041565b61212d565b91939061fffe8560011b1661ffff845416905b61ffff8116828111611b6457828110156121e75750806121bc6121c4926119e3565b90848761227a565b9690965b861015611eca576121da908786612041565b61fffe8660011b1661219a565b600090815260028601602052604090205490969061220e906001600160a01b031684611dff565b6121c8565b60026122649195949395019161ffff861660005282602052612243604060002060018060a01b0390541682611dff565b9261ffff8516600052602052604060002060018060a01b0390541690611dff565b93848211156122735750509190565b9350919050565b60026122cb9195949295019461ffff8416600052856020526122aa604060002060018060a01b0390541682611dff565b9561ffff8416600052602052604060002060018060a01b0390541690611dff565b90818510612273575050919056fea2646970667358221220f887d42c0cb6657f00253fcd6c1444f18d3321f6a7ca19b58d1277e213fc63fd64736f6c634300081a0033","linkReferences":{"src/lib/AccountHelper.sol":{"AccountHelper":[{"start":1460,"length":20}]}}},"methodIdentifiers":{"applyFinalityChanges()":"0df14461","commitParentFinality((uint256,bytes32))":"11196974","getTrackerConfigurationNumbers()":"8fbe0b7c","storeValidatorChanges(((uint8,bytes,address),uint64)[])":"e49a547d"},"id":63}