{"abi":[{"type":"constructor","inputs":[{"name":"_name","type":"string","internalType":"string"},{"name":"_symbol","type":"string","internalType":"string"},{"name":"_initialSupply","type":"uint256","internalType":"uint256"}],"stateMutability":"nonpayable"},{"type":"function","name":"allowance","inputs":[{"name":"owner","type":"address","internalType":"address"},{"name":"spender","type":"address","internalType":"address"}],"outputs":[{"name":"","type":"uint256","internalType":"uint256"}],"stateMutability":"view"},{"type":"function","name":"approve","inputs":[{"name":"spender","type":"address","internalType":"address"},{"name":"amount","type":"uint256","internalType":"uint256"}],"outputs":[{"name":"","type":"bool","internalType":"bool"}],"stateMutability":"nonpayable"},{"type":"function","name":"balanceOf","inputs":[{"name":"account","type":"address","internalType":"address"}],"outputs":[{"name":"","type":"uint256","internalType":"uint256"}],"stateMutability":"view"},{"type":"function","name":"currentSupply","inputs":[],"outputs":[{"name":"","type":"uint256","internalType":"uint256"}],"stateMutability":"view"},{"type":"function","name":"decimals","inputs":[],"outputs":[{"name":"","type":"uint8","internalType":"uint8"}],"stateMutability":"view"},{"type":"function","name":"decreaseAllowance","inputs":[{"name":"spender","type":"address","internalType":"address"},{"name":"requestedDecrease","type":"uint256","internalType":"uint256"}],"outputs":[{"name":"","type":"bool","internalType":"bool"}],"stateMutability":"nonpayable"},{"type":"function","name":"increaseAllowance","inputs":[{"name":"spender","type":"address","internalType":"address"},{"name":"addedValue","type":"uint256","internalType":"uint256"}],"outputs":[{"name":"","type":"bool","internalType":"bool"}],"stateMutability":"nonpayable"},{"type":"function","name":"mint","inputs":[{"name":"_to","type":"address","internalType":"address"},{"name":"_amount","type":"uint256","internalType":"uint256"}],"outputs":[],"stateMutability":"nonpayable"},{"type":"function","name":"name","inputs":[],"outputs":[{"name":"","type":"string","internalType":"string"}],"stateMutability":"view"},{"type":"function","name":"owner","inputs":[],"outputs":[{"name":"","type":"address","internalType":"address"}],"stateMutability":"view"},{"type":"function","name":"renounceOwnership","inputs":[],"outputs":[],"stateMutability":"nonpayable"},{"type":"function","name":"symbol","inputs":[],"outputs":[{"name":"","type":"string","internalType":"string"}],"stateMutability":"view"},{"type":"function","name":"totalSupply","inputs":[],"outputs":[{"name":"","type":"uint256","internalType":"uint256"}],"stateMutability":"view"},{"type":"function","name":"transfer","inputs":[{"name":"to","type":"address","internalType":"address"},{"name":"amount","type":"uint256","internalType":"uint256"}],"outputs":[{"name":"","type":"bool","internalType":"bool"}],"stateMutability":"nonpayable"},{"type":"function","name":"transferFrom","inputs":[{"name":"from","type":"address","internalType":"address"},{"name":"to","type":"address","internalType":"address"},{"name":"amount","type":"uint256","internalType":"uint256"}],"outputs":[{"name":"","type":"bool","internalType":"bool"}],"stateMutability":"nonpayable"},{"type":"function","name":"transferOwnership","inputs":[{"name":"newOwner","type":"address","internalType":"address"}],"outputs":[],"stateMutability":"nonpayable"},{"type":"event","name":"Approval","inputs":[{"name":"owner","type":"address","indexed":true,"internalType":"address"},{"name":"spender","type":"address","indexed":true,"internalType":"address"},{"name":"value","type":"uint256","indexed":false,"internalType":"uint256"}],"anonymous":false},{"type":"event","name":"OwnershipTransferred","inputs":[{"name":"previousOwner","type":"address","indexed":true,"internalType":"address"},{"name":"newOwner","type":"address","indexed":true,"internalType":"address"}],"anonymous":false},{"type":"event","name":"Transfer","inputs":[{"name":"from","type":"address","indexed":true,"internalType":"address"},{"name":"to","type":"address","indexed":true,"internalType":"address"},{"name":"value","type":"uint256","indexed":false,"internalType":"uint256"}],"anonymous":false},{"type":"error","name":"ERC20FailedDecreaseAllowance","inputs":[{"name":"spender","type":"address","internalType":"address"},{"name":"currentAllowance","type":"uint256","internalType":"uint256"},{"name":"requestedDecrease","type":"uint256","internalType":"uint256"}]},{"type":"error","name":"ERC20InsufficientAllowance","inputs":[{"name":"spender","type":"address","internalType":"address"},{"name":"allowance","type":"uint256","internalType":"uint256"},{"name":"needed","type":"uint256","internalType":"uint256"}]},{"type":"error","name":"ERC20InsufficientBalance","inputs":[{"name":"sender","type":"address","internalType":"address"},{"name":"balance","type":"uint256","internalType":"uint256"},{"name":"needed","type":"uint256","internalType":"uint256"}]},{"type":"error","name":"ERC20InvalidApprover","inputs":[{"name":"approver","type":"address","internalType":"address"}]},{"type":"error","name":"ERC20InvalidReceiver","inputs":[{"name":"receiver","type":"address","internalType":"address"}]},{"type":"error","name":"ERC20InvalidSender","inputs":[{"name":"sender","type":"address","internalType":"address"}]},{"type":"error","name":"ERC20InvalidSpender","inputs":[{"name":"spender","type":"address","internalType":"address"}]},{"type":"error","name":"OwnableInvalidOwner","inputs":[{"name":"owner","type":"address","internalType":"address"}]},{"type":"error","name":"OwnableUnauthorizedAccount","inputs":[{"name":"account","type":"address","internalType":"address"}]}],"bytecode":{"object":"0x60406080815234620003ea5762000e4e803803806200001e81620003ef565b9283398101606082820312620003ea5781516001600160401b039290838111620003ea57826200005091830162000415565b60209283830151858111620003ea5786916200006e91850162000415565b920151938151818111620002ea576003908154906001948583811c93168015620003df575b88841014620003c9578190601f9384811162000373575b5088908483116001146200030c5760009262000300575b505060001982851b1c191690851b1782555b8451928311620002ea5760049485548581811c91168015620002df575b88821014620002ca578281116200027f575b5086918411600114620002145793839491849260009562000208575b50501b92600019911b1c19161781555b60058054336001600160a01b031982168117909255855191906001600160a01b03167f8be0079c531659141344cd1fd0a4f28419497f9722a3daafe3b4186f6b6457e0600080a360006006553315620001f4575060025490838201809211620001df57506000917fddf252ad1be2c89b69c2b068fc378daa952ba7f163c4a11628f55a4df523b3ef9160025533835282815284832084815401905584519384523393a3516109c69081620004888239f35b601190634e487b7160e01b6000525260246000fd5b600060249263ec442f0560e01b8352820152fd5b0151935038806200011e565b9190601f198416928660005284886000209460005b8a898383106200026757505050106200024c575b50505050811b0181556200012e565b01519060f884600019921b161c19169055388080806200023d565b86860151895590970196948501948893500162000229565b86600052876000208380870160051c8201928a8810620002c0575b0160051c019086905b828110620002b357505062000102565b60008155018690620002a3565b925081926200029a565b602287634e487b7160e01b6000525260246000fd5b90607f1690620000f0565b634e487b7160e01b600052604160045260246000fd5b015190503880620000c1565b90879350601f19831691866000528a6000209260005b8c8282106200035c575050841162000343575b505050811b018255620000d3565b015160001983871b60f8161c1916905538808062000335565b8385015186558b9790950194938401930162000322565b90915084600052886000208480850160051c8201928b8610620003bf575b918991869594930160051c01915b828110620003af575050620000aa565b600081558594508991016200039f565b9250819262000391565b634e487b7160e01b600052602260045260246000fd5b92607f169262000093565b600080fd5b6040519190601f01601f191682016001600160401b03811183821017620002ea57604052565b919080601f84011215620003ea5782516001600160401b038111620002ea576020906200044b601f8201601f19168301620003ef565b92818452828287010111620003ea5760005b8181106200047357508260009394955001015290565b85810183015184820184015282016200045d56fe6080604081815260048036101561001557600080fd5b600092833560e01c90816306fdde031461066157508063095ea7b31461063757806318160ddd1461061857806323b872dd1461056b578063313ce5671461054f57806339509351146104ff57806340c10f191461046657806370a082311461042f578063715018a6146103d2578063771282f6146103b35780638da5cb5b1461038a57806395d89b411461026a578063a457c2d7146101e3578063a9059cbb146101b2578063dd62ed3e146101655763f2fde38b146100d357600080fd5b34610161576020366003190112610161576100ec61079f565b906100f56107d0565b6001600160a01b0391821692831561014b575050600554826bffffffffffffffffffffffff60a01b821617600555167f8be0079c531659141344cd1fd0a4f28419497f9722a3daafe3b4186f6b6457e08380a380f35b51631e4fbdf760e01b8152908101849052602490fd5b8280fd5b5050346101ae57806003193601126101ae578060209261018361079f565b61018b6107ba565b6001600160a01b0391821683526001865283832091168252845220549051908152f35b5080fd5b5050346101ae57806003193601126101ae576020906101dc6101d261079f565b602435903361081f565b5160018152f35b5091346102675781600319360112610267576101fd61079f565b928260243592338152600160205281812060018060a01b03871682526020522054908282106102375750926101dc916020940390336108fd565b9251632983c0c360e21b81526001600160a01b039094169284019283526020830152604082015281906060010390fd5b80fd5b509190346101ae57816003193601126101ae57805190828454600181811c90808316928315610380575b602093848410811461036d5783885290811561035157506001146102fc575b505050829003601f01601f191682019267ffffffffffffffff8411838510176102e957508291826102e5925282610756565b0390f35b634e487b7160e01b815260418552602490fd5b8787529192508591837f8a35acfbc15ff81a39ae7d344fd709f28e8600b4aa8c65c6b64bfe7fe36bd19b5b83851061033d57505050508301013880806102b3565b805488860183015293019284908201610327565b60ff1916878501525050151560051b84010190503880806102b3565b634e487b7160e01b895260228a52602489fd5b91607f1691610294565b5050346101ae57816003193601126101ae5760055490516001600160a01b039091168152602090f35b5050346101ae57816003193601126101ae576020906006549051908152f35b83346102675780600319360112610267576103eb6107d0565b600580546001600160a01b0319811690915581906001600160a01b03167f8be0079c531659141344cd1fd0a4f28419497f9722a3daafe3b4186f6b6457e08280a380f35b5050346101ae5760203660031901126101ae5760209181906001600160a01b0361045761079f565b16815280845220549051908152f35b50903461016157806003193601126101615761048061079f565b906024359161048d6107d0565b6001600160a01b03169283156104ea57506020827fddf252ad1be2c89b69c2b068fc378daa952ba7f163c4a11628f55a4df523b3ef926104d087956002546107fc565b60025585855284835280852082815401905551908152a380f35b84602492519163ec442f0560e01b8352820152fd5b5050346101ae57806003193601126101ae576101dc60209261054861052261079f565b338352600186528483206001600160a01b038216845286529184902054602435906107fc565b90336108fd565b5050346101ae57816003193601126101ae576020905160128152f35b5091346102675760603660031901126102675761058661079f565b61058e6107ba565b90836044359360018060a01b0383168152600160205281812033825260205220549460001986036105c8575b6020856101dc86868661081f565b8386106105ed57509082916105e56101dc946020970333836108fd565b9091926105ba565b8451637dc7a0d960e11b81523391810191825260208201879052604082018590529081906060010390fd5b5050346101ae57816003193601126101ae576020906002549051908152f35b5050346101ae57806003193601126101ae576020906101dc61065761079f565b60243590336108fd565b849150833461016157826003193601126101615782600354600181811c9080831692831561074c575b602093848410811461036d5783885290811561073057506001146106da57505050829003601f01601f191682019267ffffffffffffffff8411838510176102e957508291826102e5925282610756565b600387529192508591837fc2575a0e9e593c00f959f8c92f12db2869c3395a3b0502d05e2516446f71f85b5b83851061071c57505050508301018580806102b3565b805488860183015293019284908201610706565b60ff1916878501525050151560051b84010190508580806102b3565b91607f169161068a565b6020808252825181830181905290939260005b82811061078b57505060409293506000838284010152601f8019910116010190565b818101860151848201604001528501610769565b600435906001600160a01b03821682036107b557565b600080fd5b602435906001600160a01b03821682036107b557565b6005546001600160a01b031633036107e457565b60405163118cdaa760e01b8152336004820152602490fd5b9190820180921161080957565b634e487b7160e01b600052601160045260246000fd5b916001600160a01b038084169283156108e457169283156108cb5760009083825281602052604082205490838210610899575091604082827fddf252ad1be2c89b69c2b068fc378daa952ba7f163c4a11628f55a4df523b3ef958760209652828652038282205586815220818154019055604051908152a3565b60405163391434e360e21b81526001600160a01b03919091166004820152602481019190915260448101839052606490fd5b60405163ec442f0560e01b815260006004820152602490fd5b604051634b637e8f60e11b815260006004820152602490fd5b6001600160a01b03908116918215610977571691821561095e5760207f8c5be1e5ebec7d5bd14f71427d1e84f3dd0314c0f7b2291e5b200ac8c7c3b925918360005260018252604060002085600052825280604060002055604051908152a3565b604051634a1406b160e11b815260006004820152602490fd5b60405163e602df0560e01b815260006004820152602490fdfea26469706673582212209f2d0f0fb32201d8951f754ba0d7f4be6415f74cdbdebcc4ef040c0121610cad64736f6c63430008130033","linkReferences":{}},"methodIdentifiers":{"allowance(address,address)":"dd62ed3e","approve(address,uint256)":"095ea7b3","balanceOf(address)":"70a08231","currentSupply()":"771282f6","decimals()":"313ce567","decreaseAllowance(address,uint256)":"a457c2d7","increaseAllowance(address,uint256)":"39509351","mint(address,uint256)":"40c10f19","name()":"06fdde03","owner()":"8da5cb5b","renounceOwnership()":"715018a6","symbol()":"95d89b41","totalSupply()":"18160ddd","transfer(address,uint256)":"a9059cbb","transferFrom(address,address,uint256)":"23b872dd","transferOwnership(address)":"f2fde38b"},"id":78}