{"abi":[{"type":"function","name":"addCheckpointSignature","inputs":[{"name":"height","type":"uint64","internalType":"uint64"},{"name":"membershipProof","type":"bytes32[]","internalType":"bytes32[]"},{"name":"weight","type":"uint256","internalType":"uint256"},{"name":"signature","type":"bytes","internalType":"bytes"}],"outputs":[],"stateMutability":"nonpayable"},{"type":"function","name":"applyCrossMessages","inputs":[{"name":"crossMsgs","type":"tuple[]","internalType":"struct CrossMsg[]","components":[{"name":"message","type":"tuple","internalType":"struct StorableMsg","components":[{"name":"from","type":"tuple","internalType":"struct IPCAddress","components":[{"name":"subnetId","type":"tuple","internalType":"struct SubnetID","components":[{"name":"root","type":"uint64","internalType":"uint64"},{"name":"route","type":"address[]","internalType":"address[]"}]},{"name":"rawAddress","type":"tuple","internalType":"struct FvmAddress","components":[{"name":"addrType","type":"uint8","internalType":"uint8"},{"name":"payload","type":"bytes","internalType":"bytes"}]}]},{"name":"to","type":"tuple","internalType":"struct IPCAddress","components":[{"name":"subnetId","type":"tuple","internalType":"struct SubnetID","components":[{"name":"root","type":"uint64","internalType":"uint64"},{"name":"route","type":"address[]","internalType":"address[]"}]},{"name":"rawAddress","type":"tuple","internalType":"struct FvmAddress","components":[{"name":"addrType","type":"uint8","internalType":"uint8"},{"name":"payload","type":"bytes","internalType":"bytes"}]}]},{"name":"value","type":"uint256","internalType":"uint256"},{"name":"nonce","type":"uint64","internalType":"uint64"},{"name":"method","type":"bytes4","internalType":"bytes4"},{"name":"params","type":"bytes","internalType":"bytes"},{"name":"fee","type":"uint256","internalType":"uint256"}]},{"name":"wrapped","type":"bool","internalType":"bool"}]}],"outputs":[],"stateMutability":"nonpayable"},{"type":"function","name":"applyFinalityChanges","inputs":[],"outputs":[{"name":"","type":"uint64","internalType":"uint64"}],"stateMutability":"nonpayable"},{"type":"function","name":"commitBottomUpCheckpoint","inputs":[{"name":"checkpoint","type":"tuple","internalType":"struct BottomUpCheckpoint","components":[{"name":"subnetID","type":"tuple","internalType":"struct SubnetID","components":[{"name":"root","type":"uint64","internalType":"uint64"},{"name":"route","type":"address[]","internalType":"address[]"}]},{"name":"blockHeight","type":"uint64","internalType":"uint64"},{"name":"blockHash","type":"bytes32","internalType":"bytes32"},{"name":"nextConfigurationNumber","type":"uint64","internalType":"uint64"},{"name":"crossMessagesHash","type":"bytes32","internalType":"bytes32"}]},{"name":"messages","type":"tuple[]","internalType":"struct CrossMsg[]","components":[{"name":"message","type":"tuple","internalType":"struct StorableMsg","components":[{"name":"from","type":"tuple","internalType":"struct IPCAddress","components":[{"name":"subnetId","type":"tuple","internalType":"struct SubnetID","components":[{"name":"root","type":"uint64","internalType":"uint64"},{"name":"route","type":"address[]","internalType":"address[]"}]},{"name":"rawAddress","type":"tuple","internalType":"struct FvmAddress","components":[{"name":"addrType","type":"uint8","internalType":"uint8"},{"name":"payload","type":"bytes","internalType":"bytes"}]}]},{"name":"to","type":"tuple","internalType":"struct IPCAddress","components":[{"name":"subnetId","type":"tuple","internalType":"struct SubnetID","components":[{"name":"root","type":"uint64","internalType":"uint64"},{"name":"route","type":"address[]","internalType":"address[]"}]},{"name":"rawAddress","type":"tuple","internalType":"struct FvmAddress","components":[{"name":"addrType","type":"uint8","internalType":"uint8"},{"name":"payload","type":"bytes","internalType":"bytes"}]}]},{"name":"value","type":"uint256","internalType":"uint256"},{"name":"nonce","type":"uint64","internalType":"uint64"},{"name":"method","type":"bytes4","internalType":"bytes4"},{"name":"params","type":"bytes","internalType":"bytes"},{"name":"fee","type":"uint256","internalType":"uint256"}]},{"name":"wrapped","type":"bool","internalType":"bool"}]}],"outputs":[],"stateMutability":"nonpayable"},{"type":"function","name":"commitParentFinality","inputs":[{"name":"finality","type":"tuple","internalType":"struct ParentFinality","components":[{"name":"height","type":"uint256","internalType":"uint256"},{"name":"blockHash","type":"bytes32","internalType":"bytes32"}]}],"outputs":[{"name":"hasCommittedBefore","type":"bool","internalType":"bool"},{"name":"previousFinality","type":"tuple","internalType":"struct ParentFinality","components":[{"name":"height","type":"uint256","internalType":"uint256"},{"name":"blockHash","type":"bytes32","internalType":"bytes32"}]}],"stateMutability":"nonpayable"},{"type":"function","name":"createBottomUpCheckpoint","inputs":[{"name":"checkpoint","type":"tuple","internalType":"struct BottomUpCheckpoint","components":[{"name":"subnetID","type":"tuple","internalType":"struct SubnetID","components":[{"name":"root","type":"uint64","internalType":"uint64"},{"name":"route","type":"address[]","internalType":"address[]"}]},{"name":"blockHeight","type":"uint64","internalType":"uint64"},{"name":"blockHash","type":"bytes32","internalType":"bytes32"},{"name":"nextConfigurationNumber","type":"uint64","internalType":"uint64"},{"name":"crossMessagesHash","type":"bytes32","internalType":"bytes32"}]},{"name":"membershipRootHash","type":"bytes32","internalType":"bytes32"},{"name":"membershipWeight","type":"uint256","internalType":"uint256"}],"outputs":[],"stateMutability":"nonpayable"},{"type":"function","name":"pruneBottomUpCheckpoints","inputs":[{"name":"newRetentionHeight","type":"uint64","internalType":"uint64"}],"outputs":[],"stateMutability":"nonpayable"},{"type":"function","name":"storeValidatorChanges","inputs":[{"name":"changeRequests","type":"tuple[]","internalType":"struct StakingChangeRequest[]","components":[{"name":"change","type":"tuple","internalType":"struct StakingChange","components":[{"name":"op","type":"uint8","internalType":"enum StakingOperation"},{"name":"payload","type":"bytes","internalType":"bytes"},{"name":"validator","type":"address","internalType":"address"}]},{"name":"configurationNumber","type":"uint64","internalType":"uint64"}]}],"outputs":[],"stateMutability":"nonpayable"},{"type":"event","name":"QuorumReached","inputs":[{"name":"height","type":"uint64","indexed":false,"internalType":"uint64"},{"name":"checkpoint","type":"bytes32","indexed":false,"internalType":"bytes32"},{"name":"quorumWeight","type":"uint256","indexed":false,"internalType":"uint256"}],"anonymous":false},{"type":"event","name":"QuorumWeightUpdated","inputs":[{"name":"height","type":"uint64","indexed":false,"internalType":"uint64"},{"name":"checkpoint","type":"bytes32","indexed":false,"internalType":"bytes32"},{"name":"newWeight","type":"uint256","indexed":false,"internalType":"uint256"}],"anonymous":false},{"type":"error","name":"AddressEmptyCode","inputs":[{"name":"target","type":"address","internalType":"address"}]},{"type":"error","name":"AddressInsufficientBalance","inputs":[{"name":"account","type":"address","internalType":"address"}]},{"type":"error","name":"AddressShouldBeValidator","inputs":[]},{"type":"error","name":"CannotConfirmFutureChanges","inputs":[]},{"type":"error","name":"CheckpointAlreadyExists","inputs":[]},{"type":"error","name":"CheckpointAlreadyProcessed","inputs":[]},{"type":"error","name":"CheckpointNotCreated","inputs":[]},{"type":"error","name":"FailedAddIncompleteCheckpoint","inputs":[]},{"type":"error","name":"FailedAddSignatory","inputs":[]},{"type":"error","name":"FailedInnerCall","inputs":[]},{"type":"error","name":"FailedRemoveIncompleteCheckpoint","inputs":[]},{"type":"error","name":"InvalidActorAddress","inputs":[]},{"type":"error","name":"InvalidCheckpointEpoch","inputs":[]},{"type":"error","name":"InvalidCheckpointSource","inputs":[]},{"type":"error","name":"InvalidConfigurationNumber","inputs":[]},{"type":"error","name":"InvalidCrossMsgDstSubnet","inputs":[]},{"type":"error","name":"InvalidCrossMsgNonce","inputs":[]},{"type":"error","name":"InvalidRetentionHeight","inputs":[]},{"type":"error","name":"InvalidSignature","inputs":[]},{"type":"error","name":"InvalidSubnet","inputs":[]},{"type":"error","name":"NotAuthorized","inputs":[{"name":"","type":"address","internalType":"address"}]},{"type":"error","name":"NotEnoughBalance","inputs":[]},{"type":"error","name":"NotEnoughSubnetCircSupply","inputs":[]},{"type":"error","name":"NotRegisteredSubnet","inputs":[]},{"type":"error","name":"NotSystemActor","inputs":[]},{"type":"error","name":"OldConfigurationNumber","inputs":[]},{"type":"error","name":"PQDoesNotContainAddress","inputs":[]},{"type":"error","name":"PQEmpty","inputs":[]},{"type":"error","name":"ParentFinalityAlreadyCommitted","inputs":[]},{"type":"error","name":"SignatureReplay","inputs":[]},{"type":"error","name":"SubnetNotActive","inputs":[]},{"type":"error","name":"SubnetNotFound","inputs":[]},{"type":"error","name":"ZeroMembershipWeight","inputs":[]}],"bytecode":{"object":"0x6080806040523461001657614941908161001c8239f35b600080fdfe6080604052600436101561001257600080fd5b60003560e01c80630df14461146113c057806311196974146112fc5780632a04f22014610e5e578063a656ca5b146109cb578063ae00c29814610727578063c62eb4d5146106ae578063e49a547d1461066d5763f456b39e1461007457600080fd5b346105eb576003196040368201126105eb576001600160401b03600435116105eb5760a081600435360301126105eb576024356001600160401b0381116105eb576100c3903690600401611517565b61010060206100df366100da600480350180611547565b611570565b60405180938192632cff562160e11b83528460048401526024830190611627565b038173__$a0fe38a9a81205afccc10810b09a4d3f45$__5af49081156104cb57600091610633575b50336001600160a01b039091160361062157331561060f5760405161014c8161141e565b6001600160401b0360115416815260405180602060125491828152019060126000527fbb8a6a4669ba250d26cd7a459eca9d215f8307e33aebe50379bc5a3617ec34449060005b8181106105f05750505091816101b06000936101d795038261146f565b60208201526040518093819263aa5106cb60e01b8352604060048401526044830190611627565b336024830152038173__$a0fe38a9a81205afccc10810b09a4d3f45$__5af480156104cb5760009061050a575b61020e915061320b565b9390156104f95761024d9061022b366100da600480350180611547565b9060405192839263c836244d60e01b8452604060048501526044840190611627565b90828203016024830152604081016001600160401b03600488015416825260606005880192604060208201528354809352019160005260206000209060005b8181106104d7575050509080602092038173__$a0fe38a9a81205afccc10810b09a4d3f45$__5af49081156104cb5760009161049c575b501561048a5760ff600384015460801c1692600684101561047457600180940361046257600080946000905b8482106104215750506103046002918661175b565b91019283549382851061040f5761032161033d9361034396611768565b9055610335366100da600480350180611547565b923691611804565b90611ca3565b610351602460043501611964565b6040516001600160401b03602082019263f9002bb160e01b845216602482015282604482015260448152608081018181106001600160401b038211176103f957806040528347106103e4576103da6000808686865191335af13d156103dc573d906103bb826114a7565b916103c9604051938461146f565b82523d6000602084013e5b33611978565b005b6060906103d4565b60249163cd78605960e01b8252608430910152fd5b634e487b7160e01b600052604160045260246000fd5b604051631d36ca1560e21b8152600490fd5b61045a610449839894604061044161043b86978b8d611719565b80611746565b01359061175b565b9360c061044161043b8b8a8c611719565b9601906102ef565b60405163c18316bf60e01b8152600490fd5b634e487b7160e01b600052602160045260246000fd5b6040516303b5db8360e11b8152600490fd5b6104be915060203d6020116104c4575b6104b6818361146f565b810190611682565b386102c3565b503d6104ac565b6040513d6000823e3d90fd5b82546001600160a01b031684528594506020909301926001928301920161028c565b6040516208ed5b60e31b8152600490fd5b503d806000833e61051b818361146f565b8101906020818303126105eb578051906001600160401b0382116105eb5701906040828203126105eb57604051916105528361141e565b80516001600160401b03811681036105eb5783526020810151906001600160401b0382116105eb57019080601f830112156105eb57815161059281611490565b926105a0604051948561146f565b81845260208085019260051b8201019283116105eb57602001905b8282106105d357505050602082015261020e90610204565b602080916105e084611613565b8152019101906105bb565b600080fd5b82546001600160a01b0316845260209093019260019283019201610193565b6040516370e4510960e01b8152600490fd5b604051637f39132760e11b8152600490fd5b90506020813d602011610665575b8161064e6020938361146f565b810103126105eb5761065f90611613565b38610128565b3d9150610641565b346105eb5760203660031901126105eb576004356001600160401b0381116105eb576106a06103da913690600401611517565b906106a961337d565b613408565b346105eb5760203660031901126105eb576001600160401b036004358181116105eb576106df903690600401611517565b916106e861337d565b6040519160208301918211838310176103f9576103da9361033d9260405260008452604051936107178561141e565b6000855260208501523691611804565b346105eb5760203660031901126105eb576107406113f4565b61074861337d565b6001600160401b03600b5416806001600160401b03831611156109b9575b6001600160401b0382166001600160401b038216101561099b576001600160401b038116600052600860205260006004604082208281556107a960018201611e0f565b8260029181838201558160056003928284820155828782015501556001600160401b038616825260096020528160408120938185558160018601558401558201550155600e6020526040600020805490600081558161097a575b50506001600160401b038116600052600a602052604060002080549060008155816108fa575b50506001600160401b038116600052600e6020526040600020604051808260208294549384815201906000526020600020926000905b8082106108de5750506108749250038261146f565b80519060005b828110610895575050506001016001600160401b0316610766565b6001600160401b0384166000908152600f60205260409020600191906001600160a01b036108c383866119f0565b51166000526020526108d86040600020612a17565b0161087a565b916001919350602082918654815201940192018492939161085f565b600d82810204820361096457600052602060002090600d028101905b81811015610829578061092a600d92612a60565b61093660048201612a60565b6000600882015560006009820155610950600a8201612a17565b6000600b8201556000600c82015501610916565b634e487b7160e01b600052601160045260246000fd5b6000526020600020908101905b818110156108035760008155600101610987565b600b805467ffffffffffffffff19166001600160401b038416179055005b604051636819a3a960e01b8152600490fd5b346105eb576003196060368201126105eb576001600160401b03600435116105eb5760a06004353603918201126105eb57604435610a0761337d565b610a15602460043501611964565b6001600160401b0380600b5416911610610e4c57610a37602460043501611964565b6001600160401b03601654168015610e36576001600160401b038092160616610e24576001600160401b036002610a8e610a75602460043501611964565b6001600160401b03166000526008602052604060002090565b015416610e12578015610e005760ff601554168181810204810361096457610acb6001600160401b03610ac5602460043501611964565b16612853565b15610dee57604051602080820152926042190160048035013512156105eb5760043560043560040135019260a060408201526101208101936001600160401b03610b176004830161140a565b1660e08301526024810135602219823603018112156105eb5701602460048201359101946001600160401b0382116105eb578160051b360386136105eb5781906040610100850152526101408201949060005b818110610dc857505050610bd981606494956001600160401b03610b9260246004350161140a565b1660608301526044600435013560808301526001600160401b03610bb9876004350161140a565b1660a08301526004356084013560c083015203601f19810183528261146f565b602081519101209260405193610bee85611439565b8452602435602085015202046040820152600060608201526000608082015260405190610c1a82611439565b6001600160401b0360043560040135116105eb57610c413660048035808201350101611570565b8252610c5160246004350161140a565b918260208201526040810192604460043501358452610c7460646004350161140a565b9060608301918252610caf6001600160401b036080850192608460043501358452166001600160401b03166000526008602052604060002090565b91835160206001600160401b03825116916001600160401b0319928387541617865501519687516001600160401b0381116103f95760019860208a880191610cf78484611e33565b0190600052602060002060005b838110610dac57506103da8b600460808d610d738e8e60058f8f8f8f6001600160401b03602060028801980151169687838254161790555160038601556001600160401b038a860192511690825416179055519101556001600160401b03166000526009602052604060002090565b938151855560208201519085015560408101516002850155606081015160038501550151151591019060ff801983541691151516179055565b82516001600160a01b0316818301556020909201918b01610d04565b909195602080600192838060a01b03610de08b61155c565b168152019701929101610b6a565b60405163ee6c026760e01b8152600490fd5b604051634e8ac6e560e01b8152600490fd5b60405163b8a1eae160e01b8152600490fd5b60405163fae4eadb60e01b8152600490fd5b634e487b7160e01b600052601260045260246000fd5b6040516376afb88d60e01b8152600490fd5b346105eb5760803660031901126105eb57610e776113f4565b602435906001600160401b0382116105eb57366023830112156105eb57816004013591610ea383611490565b92610eb1604051948561146f565b8084526024602085019160051b830101913683116105eb57602401905b8282106112ec575050506064356001600160401b0381116105eb57610ef79036906004016114f9565b916001600160401b03600b54166001600160401b03831610610e4c57610f30826001600160401b03166000526008602052604060002090565b610f4d836001600160401b03166000526009602052604060002090565b906001600160401b03600282015416156112da57610f6c858354612750565b506004819692961015610474576112c8576001600160401b0381166000908152600e602090815260408083206001600160a01b03891684526001019091529020546112b657604080516001600160a01b0387166020820190815260443582840152918152610fdb60608261146f565b5190206040516020810191825260208152610ff58161141e565b51902095600184015496956000965b86518810156110515761101788886119f0565b5190818110156110405760005260205260406000205b9660001981146109645760010196611004565b90600052602052604060002061102d565b8803611294576001600160401b038316600052600e60205261107f60018060a01b03821660406000206128d0565b15611282576001600160401b038316600052600f60205260406000209060018060a01b03166000526020526040600020908051906001600160401b0382116103f95781906110d7826110d18654611a04565b86611e67565b602090601f831160011461121c57600092611211575b50508160011b916000199060031b1c19161790555b6003830191611114604435845461175b565b808455600285015481101561112557005b600485018054909160ff82166111bf575060ff1916600117905560020154611155906001600160401b031661292d565b156111ad576111a87f6e19758a6cc7e71b17c341543844325f2a6ad8294af979c7b386fc4d3814e93493549254604051938493846040919493926001600160401b03606083019616825260208201520152565b0390a1005b604051637e5145ed60e01b8152600490fd5b94505050506111a87f24836090f2da17128f839618852e98c2586a5693517e15f15497223bd26c6045935492604051938493846040919493926001600160401b03606083019616825260208201520152565b0151905086806110ed565b6000858152602081209350601f198516905b81811061126a5750908460019594939210611251575b505050811b019055611102565b015160001960f88460031b161c19169055868080611244565b9293602060018192878601518155019501930161122e565b604051633363140f60e01b8152600490fd5b604051634a0bfec160e01b81526001600160a01b039091166004820152602490fd5b604051635a3fd0d960e11b8152600490fd5b604051638baa579f60e01b8152600490fd5b6040516358cdd2e760e01b8152600490fd5b8135815260209182019101610ece565b346105eb5760403660031901126105eb576040516113198161141e565b60008152600060208092015261132d61337d565b60008160405161133c8161141e565b8281520152600254906004358083116113ae576060926000526001825260406000209160016040519361136e8561141e565b8054855201549181840192835280600052600182526040600020818155600160243591015560025582511515926040519384525190830152516040820152f35b60405163153ad84160e11b8152600490fd5b346105eb5760003660031901126105eb576113d961337d565b60206113e3611ae4565b6001600160401b0360405191168152f35b600435906001600160401b03821682036105eb57565b35906001600160401b03821682036105eb57565b604081019081106001600160401b038211176103f957604052565b60a081019081106001600160401b038211176103f957604052565b606081019081106001600160401b038211176103f957604052565b90601f801991011681019081106001600160401b038211176103f957604052565b6001600160401b0381116103f95760051b60200190565b6001600160401b0381116103f957601f01601f191660200190565b9291926114ce826114a7565b916114dc604051938461146f565b8294818452818301116105eb578281602093846000960137010152565b9080601f830112156105eb57816020611514933591016114c2565b90565b9181601f840112156105eb578235916001600160401b0383116105eb576020808501948460051b0101116105eb57565b903590603e19813603018212156105eb570190565b35906001600160a01b03821682036105eb57565b91906040838203126105eb57604051926115898461141e565b836115938261140a565b815260209182810135906001600160401b0382116105eb57019280601f850112156105eb5783356115c381611490565b946115d1604051968761146f565b818652848087019260051b8201019283116105eb5784809101915b8383106115fb57505050500152565b81906116068461155c565b81520191019084906115ec565b51906001600160a01b03821682036105eb57565b60609060408301906001600160401b03815116845260209283809201519460408382015285518094520193019160005b828110611665575050505090565b83516001600160a01b031685529381019392810192600101611657565b908160209103126105eb575180151581036105eb5790565b60408101906001600160401b036011541681526060602091604083820152601254809452019160126000527fbb8a6a4669ba250d26cd7a459eca9d215f8307e33aebe50379bc5a3617ec3444916000905b8282106116f9575050505090565b83546001600160a01b0316855293840193600193840193909101906116eb565b90821015611730576115149160051b810190611547565b634e487b7160e01b600052603260045260246000fd5b90359060de19813603018212156105eb570190565b9190820180921161096457565b9190820391821161096457565b91906040838203126105eb576040519261178e8461141e565b838135916001600160401b03928381116105eb57846117ae918301611570565b82526020810135908382116105eb57016040818503126105eb57604051936117d58561141e565b813560ff811681036105eb57855260208201359384116105eb576020936117fc92016114f9565b828401520152565b9092919261181181611490565b916040916118218351948561146f565b839581855260208095019160051b8301938185116105eb5783925b85841061184c5750505050505050565b6001600160401b039084358281116105eb5786019183838603126105eb578351926118768461141e565b80358281116105eb57810160e09081818903126105eb5786519182018281108582111761194f57875280358481116105eb57886118b4918301611775565b82528b8101358481116105eb57886118cd918301611775565b8c830152868101358783015260606118e681830161140a565b90830152608081810135906001600160e01b0319821682036105eb5783015260a0808201359485116105eb5761191f898e9684016114f9565b9083015260c08091013590820152845201359081151582036105eb5782899392848094015281520193019261183c565b60246000634e487b7160e01b81526041600452fd5b356001600160401b03811681036105eb5790565b90156119b657815115611989575090565b803b15611994575090565b604051639996b31560e01b81526001600160a01b039091166004820152602490fd5b508051156119c657805190602001fd5b604051630a12f52160e11b8152600490fd5b9060016001600160401b038093160191821161096457565b80518210156117305760209160051b010190565b90600182811c92168015611a34575b6020831014611a1e57565b634e487b7160e01b600052602260045260246000fd5b91607f1691611a13565b9060405191826000825492611a5284611a04565b908184526001948581169081600014611ac15750600114611a7e575b5050611a7c9250038361146f565b565b9093915060005260209081600020936000915b818310611aa9575050611a7c93508201013880611a6e565b85548884018501529485019487945091830191611a91565b915050611a7c94506020925060ff191682840152151560051b8201013880611a6e565b6020805491906001600160401b03808416600019019181831161096457611b0a836119d8565b8280604097881c16911614611c9a57611b228361365a565b61ffff9182601a541695611b3587611490565b611b418251918261146f565b878152601f199485611b528a611490565b0136868401376001809981805b611c53575b50505050805190611b7482611490565b95611b818451978861146f565b828752611b8d83611490565b018560005b828110611c2a5750505060005b828110611bc857505050611514949596505192611bbb8461141e565b8352841690820152612d24565b89906001600160a01b03611bdc82856119f0565b51168060005260198852611c0a600287600020805493895194611bfe86611454565b85528b85015201611a3e565b86820152611c18828a6119f0565b52611c2381896119f0565b5001611b9f565b8551611c3581611454565b6000815260008382015260608782015282828b010152018690611b92565b838116828111611c94576000908152601c895286902054849184916001600160a01b0316611c8b84611c84846133f4565b16896119f0565b52011682611b5f565b50611b64565b50600093505050565b81519160005b838110611cb65750505050565b80611ccd611cc6600193856119f0565b5185611eac565b01611ca9565b60005b838110611ce65750506000910152565b8181015183820152602001611cd6565b90602091611d0f81518092818552858086019101611cd3565b601f01601f1916010190565b604060206115149381611d35855185845285840190611627565b940151908281860391015260ff81511684520151918160208201520190611cf6565b9060c080611dc8611d86611d74865160e0875260e0870190611d1b565b60208701518682036020880152611d1b565b604086015160408601526001600160401b03606087015116606086015263ffffffff60e01b608087015116608086015260a086015185820360a0870152611cf6565b93015191015290565b6020815260406020611ded845183838601526060850190611d57565b930151151591015290565b818110611e03575050565b60008155600101611df8565b80546000825580611e1e575050565b611a7c91600052602060002090810190611df8565b90600160401b81116103f957815490808355818110611e5157505050565b611a7c9260005260206000209182019101611df8565b9190601f8111611e7657505050565b611a7c926000526020600020906020601f840160051c83019310611ea2575b601f0160051c0190611df8565b9091508190611e95565b602082510151519073__$a0fe38a9a81205afccc10810b09a4d3f45$__60405160208180611eef630c133d1360e31b978883528460048401526024830190611627565b0381855af49081156104cb57600091612731575b5061271f57835160808101516001600160e01b031916156126fd575b50835192611f456040519463f47ad7eb60e01b8652604060048701526044860190611d57565b60208580611f5f600319948583820301602484015261169a565b038173__$386b5c41ce93e8b832daf8008b3d30ae09$__5af49485156104cb576000956126ba575b506020611fb9818851015151611fc8604051948593849363c836244d60e01b8552604060048601526044850190611627565b9083820301602484015261169a565b0381865af49081156104cb5760009161269b575b5061248957505050509060405163e5f0a62b60e01b8152602081806120048660048301611dd1565b038173__$33b79814e84bf6cf5e47244090b19ce5f8$__5af49081156104cb57600091612454575b5060005260036020526040600020825192835180516001600160401b038151166001600160401b0319855416178455602060018501910151908151916001600160401b0383116103f9576020906120838484611e33565b0190600052602060002060005b838110612437575050505060209081600285019101519060ff82511660ff1982541617905501518051906001600160401b0382116103f95781906120e4826120db6003880154611a04565b60038801611e67565b602090601f83116001146123ca576000926123bf575b50508160011b916000199060031b1c19161760038301555b600482016020850151908151906001600160401b038251166001600160401b0319825416179055602060058501910151908151916001600160401b0383116103f9576020906121618484611e33565b0190600052602060002060005b8381106123a257505050506020600684019101519060ff82511660ff198254161790556020600784019101518051906001600160401b0382116103f95781906121bb826110d18654611a04565b602090601f831160011461233c57600092612331575b50508160011b916000199060031b1c19161790555b60408401516008830155600982016001600160401b036060860151168154906bffffffff0000000000000000608088015160a01c16916001600160601b03191617179055600a82019360a08101519485516001600160401b0381116103f957612259816122538454611a04565b84611e67565b6020601f82116001146122bd5792600c94928260c093602096611a7c9a9b6000926122b2575b50508160011b916000199060031b1c19161790555b0151600b8501550151151591019060ff801983541691151516179055565b01519050388061227f565b601f198216978360005260206000209860005b818110612319575083611a7c999a60209794600c99979460c09760019510612300575b505050811b019055612294565b015160001960f88460031b161c191690553880806122f3565b838301518b556001909a0199602093840193016122d0565b0151905038806121d1565b6000858152602081209350601f198516905b81811061238a5750908460019594939210612371575b505050811b0190556121e6565b015160001960f88460031b161c19169055388080612364565b9293602060018192878601518155019501930161234e565b82516001600160a01b03168183015560209092019160010161216e565b0151905038806120fa565b600386016000908152602081209350601f198516905b81811061241f5750908460019594939210612406575b505050811b016003830155612112565b015160001960f88460031b161c191690553880806123f6565b929360206001819287860151815501950193016123e0565b82516001600160a01b031681830155602090920191600101612090565b906020823d602011612481575b8161246e6020938361146f565b8101031261247e5750513861202c565b80fd5b3d9150612461565b600284101561047457600184146125c8575b5050501561255b575b60006124c49160405180938192635c46fefb60e11b835260048301611dd1565b038173__$33b79814e84bf6cf5e47244090b19ce5f8$__5af480156104cb576124ea5750565b3d806000833e6124fa818361146f565b8101906020818303126105eb578051906001600160401b0382116105eb570181601f820112156105eb57805190612530826114a7565b9261253e604051948561146f565b828452602083830101116105eb57602080611a7c94019101611cd3565b601554906001600160401b0390818360481c16916060825101511682036125b6576124c49267ffffffffffffffff60481b6125976000946119d8565b60481b169067ffffffffffffffff60481b1916176015559150506124a4565b60405163a57cadff60e01b8152600490fd5b602090604051928391825282600483015281806125e86024820188611627565b03915af49081156104cb5760009161267c575b5015612609575b808061249b565b6126129061320b565b901561266a5760030180546001600160401b03808260401c16906060865101511681036125b65761264e67ffffffffffffffff60401b916119d8565b60401b169067ffffffffffffffff60401b191617905538612602565b604051630e991abd60e41b8152600490fd5b612695915060203d6020116104c4576104b6818361146f565b386125fb565b6126b4915060203d6020116104c4576104b6818361146f565b38611fdc565b6020959195813d6020116126f5575b816126d66020938361146f565b810103126126f1575190600282101561247e57509338611f87565b5080fd5b3d91506126c9565b60400151471061270d5738611f1f565b60405163569d45cf60e11b8152600490fd5b60405163c5f563eb60e01b8152600490fd5b61274a915060203d6020116104c4576104b6818361146f565b38611f03565b81519190604183036127815761277a92506020820151906060604084015193015160001a9061278c565b9192909190565b505060009160029190565b91907f7fffffffffffffffffffffffffffffff5d576e7357a4501ddfe92f46681b20a0841161281057926020929160ff608095604051948552168484015260408301526060820152600092839182805260015afa156128045780516001600160a01b038116156127fb57918190565b50809160019190565b604051903d90823e3d90fd5b50505060009160039190565b600c5481101561173057600c6000527fdf6966c971051c3d54ec59162606531493a51404a002842f56009d7e5cf4a8c70190600090565b6000818152600d60205260408120546128cb57600c54600160401b8110156128b75790826128a361288c84600160409601600c5561281c565b819391549060031b91821b91600019901b19161790565b9055600c54928152600d6020522055600190565b634e487b7160e01b82526041600452602482fd5b905090565b600082815260018201602052604090205461292657805490600160401b8210156103f957600182018082558210156117305782600192826000526020600020015580549260005201602052604060002055600190565b5050600090565b6000818152600d60205260408120549091908015612a1257600019908082018181116129fe57600c54908382019182116129ea578082036129b6575b505050600c5480156129a2578101906129818261281c565b909182549160031b1b19169055600c558152600d6020526040812055600190565b634e487b7160e01b84526031600452602484fd5b6129d46129c561288c9361281c565b90549060031b1c92839261281c565b90558452600d6020526040842055388080612969565b634e487b7160e01b86526011600452602486fd5b634e487b7160e01b85526011600452602485fd5b505090565b612a218154611a04565b9081612a2b575050565b81601f60009311600114612a3d575055565b908083918252612a5c601f60208420940160051c840160018501611df8565b5555565b6003611a7c9160008155612a7660018201611e0f565b6000600282015501612a17565b908082519081815260208091019281808460051b8301019501936000915b848310612ab15750505050505090565b9091929394958480612af2600193601f198682030187528a5180518252858060a01b0384820151168483015260408091015191606080928201520190611cf6565b9801930193019194939290612aa1565b90808214612bd657612b148154611a04565b906001600160401b0382116103f9578190612b33826110d18654611a04565b600090601f8311600114612b6a57600092612b5f575b50508160011b916000199060031b1c1916179055565b015490503880612b49565b81526020808220858352818320935090601f1985169083905b828210612bbd575050908460019594939210612ba4575b505050811b019055565b015460001960f88460031b161c19169055388080612b9a565b8495819295850154815560018091019601940190612b83565b5050565b600454811015611730576003906004600052027f8a35acfbc15ff81a39ae7d344fd709f28e8600b4aa8c65c6b64bfe7fe36bd19b0190600090565b90612d0e5781518155600190604060028383019260209360018060a01b0385880151166001600160601b0360a01b82541617905501930151908151916001600160401b0383116103f957612c7383612c6d8754611a04565b87611e67565b81601f8411600114612cac5750928293918392600094612ca1575b50501b916000199060031b1c1916179055565b015192503880612c8e565b919083601f1981168760005284600020946000905b88838310612cf45750505010612cdb57505050811b019055565b015160001960f88460031b161c19169055388080612b9a565b858701518855909601959485019487935090810190612cc1565b634e487b7160e01b600052600060045260246000fd5b6040805191602091828452612d43825182858701526060860190612a83565b927f7ecdac482334c36fccbe374318cfe74ea0c8181394890ddec894a10f0fcc748181840195806001600160401b039687895116868301520390a18360055416908161302f575b505050600490815493600160401b9384861161301a5760065486600655808710612f7b575b5060066000908152957ff652222313e28459528d920b65115c16c04f3efc82aaedc97be59f3f377c0d3f877f8a35acfbc15ff81a39ae7d344fd709f28e8600b4aa8c65c6b64bfe7fe36bd19b5b838210612f2657505050508060055416916001600160401b03199283600754161760075583515193855496885b868110612eb4575050505116906005541617600555808311612e4c575b50505050565b82811015612e465781548015612ea1576000190190612e6a82612bda565b929092612e8f57858355612e876002600194888682015501612a17565b835501612e4c565b634e487b7160e01b8652858452602486fd5b634e487b7160e01b855260318352602485fd5b88811015612ee35780612edd612ecd60019386516119f0565b51612ed783612bda565b90612c15565b01612e29565b612eee8184516119f0565b51885483811015612f135760019291612ed78285612f0e94018d55612bda565b612edd565b634e487b7160e01b8c5260418a5260248cfd5b806001918403612f41575b6003809101930191019091612dfc565b805484558180850190838060a01b0390830154166001600160601b0360a01b825416179055612f766002808301908601612b02565b612f31565b6003908082029082820403613005578782028281048903612ff057600090600682527ff652222313e28459528d920b65115c16c04f3efc82aaedc97be59f3f377c0d3f92830192015b828110612fd357505050612daf565b8082859255826001820155612fea60028201612a17565b01612fc4565b601187634e487b7160e01b6000525260246000fd5b601186634e487b7160e01b6000525260246000fd5b604184634e487b7160e01b6000525260246000fd5b8486511685600754169081811461311c571061310b578251926130518461141e565b60045461305d81611490565b9161306a8151938461146f565b8183528383019060046000527f8a35acfbc15ff81a39ae7d344fd709f28e8600b4aa8c65c6b64bfe7fe36bd19b906000925b8484106130c95750505091855250508201526130b89082613126565b6130c457388080612d8a565b505050565b60038760019284516130da81611454565b86548152848060a01b038588015416838201526130f960028801611a3e565b8682015281520193019301929161309c565b8251633746be2560e11b8152600490fd5b5050505050505050565b6001600160401b0390602091808383015116908385015116036131c75761314c816131cf565b613155846131cf565b036131c757518051835151036131c7576131c06131b4916040519081613185868201928784526040830190612a83565b0391613199601f199384810183528261146f565b51902094516040519384918683019687526040830190612a83565b0390810183528261146f565b5190201490565b505050600090565b8051519060009182915b8183106131e65750505090565b9091926132026001916131fa8685516119f0565b51519061175b565b930191906131d9565b73__$a0fe38a9a81205afccc10810b09a4d3f45$__9061324b6040918251906390ba52cf60e01b8252818060209485938460048401526024830190611627565b0381875af490811561337257600091613345575b506000526000815281600020928251906132788261141e565b6001600160401b0360048601541682526005850184519081858254918281520191600052856000209060005b8181106133285750505091816132c28695936132e79795038261146f565b8383015285518080968194630c133d1360e31b83528660048401526024830190611627565b03915af492831561331e5750600092613301575b50501591565b6133179250803d106104c4576104b6818361146f565b38806132fb565b513d6000823e3d90fd5b82546001600160a01b0316845292870192600192830192016132a4565b908282813d831161336b575b61335b818361146f565b8101031261247e5750513861325f565b503d613351565b83513d6000823e3d90fd5b604051635d3f8a6960e01b815233600482015260208160248173__$e800e3908cdbb6b1b5bd452383a17b18f7$__5af49081156104cb576000916133d6575b50156133c457565b60405163f0d97f3b60e01b8152600490fd5b6133ee915060203d81116104c4576104b6818361146f565b386133bc565b61ffff908116600019019190821161096457565b919080156136405760005b8181106134205750509050565b61342b818386611719565b9060406134388380613645565b6001600160a01b03910135818116908190036105eb576134588480613645565b359360038510156105eb5761346d8180613645565b906020918281013590601e19813603018212156105eb57019283356001600160401b03948582116105eb57840181360381136105eb576134ae9136916114c2565b948484541695604051986134c18a611454565b8952848901908152604089019283528660005260218086526040600020995190600382101561362c575060ff80198b541691161789555197885198868a116103f9576001998a80840192613519836110d18654611a04565b8890601f84116001146135af5792806002959381936135869c9b9a9998966000946135a4575b50501b916000199060031b1c19161790555b019151166001600160601b0360a01b82541617905583613570866119d8565b166001600160401b031983541617825501611964565b16036135925701613413565b604051631aba532960e21b8152600490fd5b01519250388061353f565b908460009493945289600020916000601f198516905b81811061360b5750916135869b9a999897959391856002989694106135f2575b505050811b019055613551565b015160001960f88460031b161c191690553880806135e5565b938395968d92939491839286015181550195019301908f95949392916135c5565b634e487b7160e01b60005260045260246000fd5b509050565b903590605e19813603018212156105eb570190565b602080546001600160401b03938484169392919085821685106136895760405163040aaa0560e11b8152600490fd5b858260401c16851061386657949392919084604091821c16955b85871685811161382d576000978189526021988986528481209960029360018060a01b03858d0154169b60ff81541660038110156138195780870361372b57506001613703918d9e869e999a9b9c9d9e5260198c5201868a862001612b02565b825287528581209281845560019361371c858201612a17565b015501169594939291906136a3565b6137386001809301611a3e565b8a8180518101031261381557988d9e8b809d9e9f9a9b85849e8c92015195146000146137d2576137ab9495838a528960199586855261377a8982842054611768565b9687958784525281209182018054851590816137c9575b50156137bf576137a694508183555501612a17565b613bdb565b6137b86018918254611768565b9055613703565b5050905055613bdb565b90501538613791565b505061381093508091508652601991828d526137f1818d89205461175b565b928288528d52828c882055613809601891825461175b565b905561386e565b613703565b8580fd5b634e487b7160e01b85526004849052602485fd5b5095509250925061384967ffffffffffffffff60401b916119d8565b83546fffffffffffffffff00000000000000001916921b16179055565b945050505050565b919060018060a01b0392838116936000858152602095601b875261ffff91604097838983205416613abf57836017541684601a541610613a8b57866138b1614206565b91909110613a055750828252601e815283898320541661392457505050505061391f7f19fe3ca603e87854a0747cc10abf06bac64d61bac73d6d15f2fd3ca448f1526493946138ff83613f17565b516001600160a01b03909216825260208201929092529081906040820190565b0390a1565b6139338695999498979661471d565b92825260199081815284832054935b6001808b831611156139cf5781617fff911c1690818552601f83528b87862054168552838352858786205410156139825761397d908261487c565b613942565b505093516001600160a01b0390951685525050505060208101919091529092507fda148fac2e1063174be7bc0895576bdaba90fd14e575463fa26a967cb895cadd9150806040810161391f565b50505050505061391f91929395507fda148fac2e1063174be7bc0895576bdaba90fd14e575463fa26a967cb895cadd94506138ff565b95965061391f945090601e899493927ffaeb8de771b867cf357f6b459a7002b62ec45d544a8078a3ecd91200cc826d75999a93613a406143d5565b835252205416613a7d575b613a5484614363565b613a5d83613f17565b516001600160a01b03928316815292909116602083015281906040820190565b613a86846140f0565b613a4b565b505050505061391f7f2e8038f5812f763c6ef0c5427cb5a05ce6d7064af2ba7d1d270bc02660b019fd93946138ff83614363565b613ad08695989796999493996146e6565b9882526019908181528483205498613ae78b6142f2565b85601a5416905b868116828111613ba35782811015613b86575080613b0e613b1492613f04565b90614694565b9c909c5b8c1115613b3757613b29908d6147e3565b613b328c6142f2565b613aee565b505094516001600160a01b0390961686525050505060208201929092529193507f143db27bc2036653dc6f962ff9d0b803163d4af50c256ca9e6927b3d6dcd019792508190506040810161391f565b869d919d52601c8452828887205416865284845287862054613b18565b505050505050505061391f91929395507f143db27bc2036653dc6f962ff9d0b803163d4af50c256ca9e6927b3d6dcd019794506138ff565b9160018060a01b039283811692600091848352602094601e865261ffff90604094828682205416613dc557818152601b885282868220541615613db4578415613d2f57613c27846146e6565b918152601980895286822054925b6001808683161115613d1e5781617fff911c1690818452601c8b528b89852054168452828b5284898520541115613c7557613c7090826147e3565b613c35565b5050505050919395509193505b601d5416156130c457613c93614206565b90613c9c614250565b909210613ce557505091516001600160a01b03909216825260208201527f143db27bc2036653dc6f962ff9d0b803163d4af50c256ca9e6927b3d6dcd019790806040810161391f565b9150915061391f7ffaeb8de771b867cf357f6b459a7002b62ec45d544a8078a3ecd91200cc826d7593613d166143d5565b613a4b613f89565b505050505091939550919350613c82565b5091613d62919597507f4a4c5d1a281180eea1e99d8177fa4798b9f7e019d5c57e7d8d73c6a22199aa5b9496935061451e565b8451908152a1601d5416613d735750565b61391f7f2e8038f5812f763c6ef0c5427cb5a05ce6d7064af2ba7d1d270bc02660b019fd91613da0614250565b929091613dab613f89565b6138ff83614363565b8551632a55ca5360e01b8152600490fd5b90939596869893959815613ecb579261fffe929493613de38761471d565b9483526019918282528a8420549580976001968792831b1681601d5416925b613e57575b50509a516001600160a01b039098168852505050506020840194909452509293507fda148fac2e1063174be7bc0895576bdaba90fd14e575463fa26a967cb895cadd92509050806040810161391f565b818116838111613ec5578e9080851115613ea957505080613e7a613e8092613f04565b90614309565b9990995b891015613ea457613e95908a61487c565b613e9e896142f2565b87613e02565b613e07565b8852601f8652872054841687528585528d872054909990613e84565b50613e07565b95505050509093613efd7f3168ba660eed6ef1dc2258b2247cc05fd0f2f350d39e6ad2e2ebc76a8000b40b94956140f0565b51908152a1565b90600161ffff8093160191821161096457565b611a7c90604061ffff613f2d81601d5416613f04565b9260018060a01b0316600091818352601e6020528383209085169061ffff19908282825416179055818452601f602052848420836001600160601b0360a01b825416179055601d541617601d558152601960205220549061429a565b61ffff80601d541680156140de576001613fa5828211156147c6565b6000818152601f60208181526040808420805487865282862080546001600160a01b03928316808952601e8752858920805461ffff199081168d17909155918416808a52868a20805484168c17905588885283546001600160a01b03199081169092179093558989528454169091179092559396919493929161403b918961402c836133f4565b1690601d541617601d55614742565b84835285815281848420541683526019918282528484205496868099600281601d5416925b614073575b505050505050505050505050565b8181168381116140d857838110156140bc575080613e7a61409392613f04565b9b909b5b8b10156140b7576140a8908c61487c565b6140b18b6142f2565b89614060565b614065565b889c919c52838652848989205416885286865288882054614097565b50614065565b6040516340d9b01160e01b8152600490fd5b6140f99061471d565b61ffff80601d54169061410c828461487c565b80614116836133f4565b1661ffff19601d541617601d5561412c82614742565b8083168092146130c457919061fffe906000818152601f91602083815260018060a01b03604094818686205416855260199384845261416e878720548a61429a565b85528083528186862054168552838352858520549780996001988992831b1681601d5416925b6141a657505050505050505050505050565b8181168381116140d857838110156141ea575080613e7a6141c692613f04565b9b909b5b8b10156140b7576141db908c61487c565b6141e48b6142f2565b89614194565b889c919c528386528489892054168852868652888820546141ca565b61ffff601a5416156140de577f6de76108811faf2f94afbe5ac6c98e8393206cd093932de1fbfd61bbeec43a02546001600160a01b03166000818152601960205260409020549091565b61ffff601d5416156140de577f820fef5837650fa3b8e45045b88059d8deaf0810350ec511c47ef768a28c2c9b546001600160a01b03166000818152601960205260409020549091565b9190915b60018061ffff831611156142ec5781617fff911c1690836000838152602090601f8252601960409260018060a01b038484205416835252205410156142ec576142e7908261487c565b61429e565b50509050565b60011b906201fffe61fffe83169216820361096457565b91909161ffff92604060008584168152601f60205260018060a01b0380838320541682526019602052828220549684168252601f60205282822054168152601960205220549081851061435c5750509190565b9350919050565b611a7c90604061ffff61437981601a5416613f04565b9260018060a01b0316600091818352601b6020528383209085169061ffff19908282825416179055818452601c602052848420836001600160601b0360a01b825416179055601a541617601a5581526019602052205490614642565b61ffff80601a541680156140de5760016143f1828211156147c6565b6000818152601c60208181526040808420805487865282862080546001600160a01b03928316808952601b8752858920805461ffff199081168d17909155918416808a52868a20805484168c17905588885283546001600160a01b0319908116909217909355898952845416909117909255939691949392916144879189614478836133f4565b1690601a541617601a55614784565b84835285815281848420541683526019918282528484205496868099600281601a5416925b6144be57505050505050505050505050565b8181168381116140d85783811015614502575080613b0e6144de92613f04565b9b909b5b8b11156140b7576144f3908c6147e3565b6144fc8b6142f2565b896144ac565b889c919c528386528489892054168852868652888820546144e2565b614527906146e6565b9061ffff9081601a54169161453c83856147e3565b80614546846133f4565b1661ffff19601a541617601a5561455c83614784565b80841680931461463c57600092808452601c9360209185835260018060a01b0392604093808585205416845260199283835261459b868620548b614642565b8452878252808585205416845282825284842054976145b98a6142f2565b87601a5416905b88811682811161462d5782811015614611575080613b0e6145e092613f04565b9b909b5b8b1115614603576145f5908c6147e3565b6145fe8b6142f2565b6145c0565b505050505050505050915050565b879c919c528285528388882054168752858552878720546145e4565b50505050505050505050915050565b50915050565b9190915b60018061ffff831611156142ec5781617fff911c1690836000838152602090601c8252601960409260018060a01b038484205416835252205411156142ec5761468f90826147e3565b614646565b919061ffff604060008286168152601c60205260018060a01b0380838320541682526019602052828220549385168252601c6020528282205416815260196020522054938482111561435c5750509190565b6001600160a01b03166000908152601b602052604090205461ffff1690811561470b57565b60405163f2755e3760e01b8152600490fd5b6001600160a01b03166000908152601e602052604090205461ffff1690811561470b57565b61ffff166000908152601f6020908152604080832080546001600160a01b031981169091556001600160a01b03168352601e9091529020805461ffff19169055565b61ffff166000908152601c6020908152604080832080546001600160a01b031981169091556001600160a01b03168352601b9091529020805461ffff19169055565b156147cd57565b634e487b7160e01b600052600160045260246000fd5b61480861ffff8080601a54169316936147fe848611156147c6565b16918211156147c6565b6000828152601c60208181526040808420805486865282862080546001600160a01b03928316808952601b8752858920805461ffff19908116909b1790559216808852938720805490981689179097559390925284546001600160a01b031990811690931790945593909152825416179055565b61489761ffff8080601d54169316936147fe848611156147c6565b6000828152601f60208181526040808420805486865282862080546001600160a01b03928316808952601e8752858920805461ffff19908116909b1790559216808852938720805490981689179097559390925284546001600160a01b03199081169093179094559390915282541617905556fea2646970667358221220d4a8a29492a8f752b17f4bb160f9be2fe695f101086d31b255c3c3720f2f955a64736f6c63430008130033","linkReferences":{"src/lib/AccountHelper.sol":{"AccountHelper":[{"start":13236,"length":20}]},"src/lib/CrossMsgHelper.sol":{"CrossMsgHelper":[{"start":8228,"length":20},{"start":9444,"length":20}]},"src/lib/StorableMsgHelper.sol":{"StorableMsgHelper":[{"start":8063,"length":20}]},"src/lib/SubnetIDHelper.sol":{"SubnetIDHelper":[{"start":288,"length":20},{"start":509,"length":20},{"start":699,"length":20},{"start":7890,"length":20},{"start":12841,"length":20}]}}},"methodIdentifiers":{"addCheckpointSignature(uint64,bytes32[],uint256,bytes)":"2a04f220","applyCrossMessages(((((uint64,address[]),(uint8,bytes)),((uint64,address[]),(uint8,bytes)),uint256,uint64,bytes4,bytes,uint256),bool)[])":"c62eb4d5","applyFinalityChanges()":"0df14461","commitBottomUpCheckpoint(((uint64,address[]),uint64,bytes32,uint64,bytes32),((((uint64,address[]),(uint8,bytes)),((uint64,address[]),(uint8,bytes)),uint256,uint64,bytes4,bytes,uint256),bool)[])":"f456b39e","commitParentFinality((uint256,bytes32))":"11196974","createBottomUpCheckpoint(((uint64,address[]),uint64,bytes32,uint64,bytes32),bytes32,uint256)":"a656ca5b","pruneBottomUpCheckpoints(uint64)":"ae00c298","storeValidatorChanges(((uint8,bytes,address),uint64)[])":"e49a547d"},"id":47}