{"abi":[{"type":"receive","stateMutability":"payable"},{"type":"function","name":"handleIpcMessage","inputs":[{"name":"","type":"tuple","internalType":"struct IpcEnvelope","components":[{"name":"kind","type":"uint8","internalType":"enum IpcMsgKind"},{"name":"to","type":"tuple","internalType":"struct IPCAddress","components":[{"name":"subnetId","type":"tuple","internalType":"struct SubnetID","components":[{"name":"root","type":"uint64","internalType":"uint64"},{"name":"route","type":"address[]","internalType":"address[]"}]},{"name":"rawAddress","type":"tuple","internalType":"struct FvmAddress","components":[{"name":"addrType","type":"uint8","internalType":"uint8"},{"name":"payload","type":"bytes","internalType":"bytes"}]}]},{"name":"from","type":"tuple","internalType":"struct IPCAddress","components":[{"name":"subnetId","type":"tuple","internalType":"struct SubnetID","components":[{"name":"root","type":"uint64","internalType":"uint64"},{"name":"route","type":"address[]","internalType":"address[]"}]},{"name":"rawAddress","type":"tuple","internalType":"struct FvmAddress","components":[{"name":"addrType","type":"uint8","internalType":"uint8"},{"name":"payload","type":"bytes","internalType":"bytes"}]}]},{"name":"nonce","type":"uint64","internalType":"uint64"},{"name":"value","type":"uint256","internalType":"uint256"},{"name":"message","type":"bytes","internalType":"bytes"}]}],"outputs":[{"name":"ret","type":"bytes","internalType":"bytes"}],"stateMutability":"payable"},{"type":"error","name":"CallerIsNotGateway","inputs":[]},{"type":"error","name":"UnrecognizedResult","inputs":[]},{"type":"error","name":"UnsupportedMsgKind","inputs":[]}],"bytecode":{"object":"0x6080806040523460155761010b908161001b8239f35b600080fdfe608060043610156017575b503615601557600080fd5b005b60003560e01c63a9490a0403600a57602036600319011260d05760043567ffffffffffffffff811160d05760c090600319903603011260d0576020810181811067ffffffffffffffff82111760ba576040526000815260405190602082528181519182602083015260005b83811060a35750508160006040809484010152601f80199101168101030190f35b602082820181015160408784010152859350016082565b634e487b7160e01b600052604160045260246000fd5b600080fdfea2646970667358221220a2be2cd3af8d38a5ca9e109dbaa8e26220a7269a42608481015ffcebf147bead64736f6c634300081a0033","linkReferences":{}},"methodIdentifiers":{"handleIpcMessage((uint8,((uint64,address[]),(uint8,bytes)),((uint64,address[]),(uint8,bytes)),uint64,uint256,bytes))":"a9490a04"},"id":117}