{"abi":[{"type":"function","name":"AA","inputs":[],"outputs":[{"name":"","type":"uint256","internalType":"uint256"}],"stateMutability":"view"},{"type":"function","name":"BB","inputs":[],"outputs":[{"name":"","type":"uint256","internalType":"uint256"}],"stateMutability":"view"},{"type":"function","name":"GX","inputs":[],"outputs":[{"name":"","type":"uint256","internalType":"uint256"}],"stateMutability":"view"},{"type":"function","name":"GY","inputs":[],"outputs":[{"name":"","type":"uint256","internalType":"uint256"}],"stateMutability":"view"},{"type":"function","name":"PP","inputs":[],"outputs":[{"name":"","type":"uint256","internalType":"uint256"}],"stateMutability":"view"},{"type":"function","name":"derivePubKey","inputs":[{"name":"privKey","type":"uint256","internalType":"uint256"}],"outputs":[{"name":"","type":"uint256","internalType":"uint256"},{"name":"","type":"uint256","internalType":"uint256"}],"stateMutability":"pure"},{"type":"function","name":"derivePubKeyBytes","inputs":[{"name":"privKey","type":"uint256","internalType":"uint256"}],"outputs":[{"name":"","type":"bytes","internalType":"bytes"}],"stateMutability":"pure"},{"type":"function","name":"deriveValidatorPubKeyBytes","inputs":[{"name":"privKey","type":"uint256","internalType":"uint256"}],"outputs":[{"name":"","type":"bytes","internalType":"bytes"}],"stateMutability":"pure"}],"bytecode":{"object":"0x60808060405234601957610782908161001f823930815050f35b600080fdfe608080604052600436101561001357600080fd5b60003560e01c90816303a507be146101a9575080635727dc5c14610192578063573081a2146101515780637a308a4c1461011b578063997da8d414610104578063bc9e2bcf146100df578063eeeac01e146100c35763f6caf0ac1461007757600080fd5b60203660031901126100be576100ba61009160043561025e565b6040519160208301526040820152604081526100ae606082610226565b604051918291826101dd565b0390f35b600080fd5b60003660031901126100be5760206040516401000003d0198152f35b60203660031901126100be5760406100f860043561025e565b82519182526020820152f35b60003660031901126100be57602060405160008152f35b60003660031901126100be5760206040517f483ada7726a3c4655da4fbfc0e1108a8fd17b448a68554199c47d08ffb10d4b88152f35b60203660031901126100be576100ba61016b60043561025e565b60405191600160fa1b602084015260218301526041820152604181526100ae606182610226565b60003660031901126100be57602060405160078152f35b60003660031901126100be57807f79be667ef9dcbbac55a06295ce870b07029bfcdb2dce28d959f2815b16f8179860209252f35b91909160208152825180602083015260005b818110610210575060409293506000838284010152601f8019910116010190565b80602080928701015160408286010152016101ef565b90601f8019910116810190811067ffffffffffffffff82111761024857604052565b634e487b7160e01b600052604160045260246000fd5b906102b5600092837f483ada7726a3c4655da4fbfc0e1108a8fd17b448a68554199c47d08ffb10d4b87f79be667ef9dcbbac55a06295ce870b07029bfcdb2dce28d959f2815b16f817986401000003d019936103fd565b9384151585816103ec575b50806103e4575b156103ae5780946001906401000003d019918184925b61030c5750505050506401000003d01984800991826401000003d0199109936401000003d01992839109900990565b92979192801561039a57808904918094610386576401000003d0199083096401000003d01903926401000003d01984116103725785936401000003d01991089398819282810292818404149015171561037257906103699161047c565b909290806102dd565b634e487b7160e01b86526011600452602486fd5b634e487b7160e01b86526012600452602486fd5b634e487b7160e01b85526012600452602485fd5b60405162461bcd60e51b815260206004820152600e60248201526d24b73b30b634b210373ab6b132b960911b6044820152606490fd5b5060016102c7565b6401000003d01914159050386102c0565b93909492600194801561047057600096600196889592805b61042457505050505050929190565b6001811661044a575b8461043f92879260011c9586956106b3565b909391929091610415565b956104608683868661043f969d8a9f859761049f565b909b50999097909250905061042d565b50919350600192915050565b9190820391821161048957565b634e487b7160e01b600052601160045260246000fd5b96949092959391958715806106ab575b6106a057801580610698575b61068e57608090604051936104d08386610226565b823686378615610678578689800985528685518a0999602086019a8b5260408601928886800984528884518709936060880194855260405198868a01958a871067ffffffffffffffff881117610248578b80979581969482956040525190098b52519009966020890197885251900999604087019a8b525190099260608501938452845189511480159061066c575b15610627578580949281808095816040519e8f9561057d8188610226565b368737518b5161058d908361047c565b9008845251855161059e908361047c565b9008976020830198895281808a8180808089518a5190099360408a019485528185518b5190096060909a01998a5251800988516105db908361047c565b900881808751855190096002096105f2908361047c565b90089b519351905190096106068b8361047c565b9008900992519051900961061a908361047c565b9008965192969509900990565b60405162461bcd60e51b815260206004820152601e60248201527f557365206a6163446f75626c652066756e6374696f6e20696e737465616400006044820152606490fd5b5080518451141561055f565b634e487b7160e01b600052601260045260246000fd5b5091949392505050565b5082156104bb565b965090945092915050565b5083156104af565b94929093918015610746578215610678578280878180610706818b81808080809d818e818082800991800909900981808b800960030908978180808087800984096004099480099009600409088261047c565b81848009089981806107188d8261047c565b92818d8009900960040908900961073c8280808a8009818b8009096008098361047c565b9008940960020990565b9291505056fea26469706673582212201d4869a658e91be0ff2499549101e443531eac53a213e0a0f2b230a1969dfaa764736f6c634300081a0033","linkReferences":{}},"methodIdentifiers":{"AA()":"997da8d4","BB()":"5727dc5c","GX()":"03a507be","GY()":"7a308a4c","PP()":"eeeac01e","derivePubKey(uint256)":"bc9e2bcf","derivePubKeyBytes(uint256)":"f6caf0ac","deriveValidatorPubKeyBytes(uint256)":"573081a2"},"id":117}