{"abi":[{"type":"function","name":"DELEGATED","inputs":[],"outputs":[{"name":"","type":"uint8","internalType":"uint8"}],"stateMutability":"view"},{"type":"function","name":"EAM_ACTOR","inputs":[],"outputs":[{"name":"","type":"uint64","internalType":"uint64"}],"stateMutability":"view"},{"type":"function","name":"PAYLOAD_HASH_LEN","inputs":[],"outputs":[{"name":"","type":"uint8","internalType":"uint8"}],"stateMutability":"view"},{"type":"function","name":"SECP256K1","inputs":[],"outputs":[{"name":"","type":"uint8","internalType":"uint8"}],"stateMutability":"view"},{"type":"error","name":"NotDelegatedEvmAddress","inputs":[]}],"bytecode":{"object":"0x608080604052346100195760db908161001f823930815050f35b600080fdfe6080806040526004361015601257600080fd5b600090813560e01c9081635279ff9914608c575080639c6e06c0146076578063ab528f211460605763cf8e4a6e14604857600080fd5b80600319360112605d57602060405160148152f35b80fd5b5080600319360112605d57602060405160018152f35b5080600319360112605d57602060405160048152f35b90508160031936011260a15780600a60209252f35b5080fdfea26469706673582212201bcbe64d2e452b2aae503400031b4c27a516824afd0fd7d363dedcf341af152464736f6c63430008130033","linkReferences":{}},"methodIdentifiers":{"DELEGATED()":"9c6e06c0","EAM_ACTOR()":"5279ff99","PAYLOAD_HASH_LEN()":"cf8e4a6e","SECP256K1()":"ab528f21"},"id":59}