{"abi":[{"type":"function","name":"addBottomUpMsgBatchSignature","inputs":[{"name":"height","type":"uint256","internalType":"uint256"},{"name":"membershipProof","type":"bytes32[]","internalType":"bytes32[]"},{"name":"weight","type":"uint256","internalType":"uint256"},{"name":"signature","type":"bytes","internalType":"bytes"}],"outputs":[],"stateMutability":"nonpayable"},{"type":"function","name":"createBottomUpMsgBatch","inputs":[{"name":"batch","type":"tuple","internalType":"struct BottomUpMsgBatch","components":[{"name":"subnetID","type":"tuple","internalType":"struct SubnetID","components":[{"name":"root","type":"uint64","internalType":"uint64"},{"name":"route","type":"address[]","internalType":"address[]"}]},{"name":"blockHeight","type":"uint256","internalType":"uint256"},{"name":"msgs","type":"tuple[]","internalType":"struct CrossMsg[]","components":[{"name":"message","type":"tuple","internalType":"struct StorableMsg","components":[{"name":"from","type":"tuple","internalType":"struct IPCAddress","components":[{"name":"subnetId","type":"tuple","internalType":"struct SubnetID","components":[{"name":"root","type":"uint64","internalType":"uint64"},{"name":"route","type":"address[]","internalType":"address[]"}]},{"name":"rawAddress","type":"tuple","internalType":"struct FvmAddress","components":[{"name":"addrType","type":"uint8","internalType":"uint8"},{"name":"payload","type":"bytes","internalType":"bytes"}]}]},{"name":"to","type":"tuple","internalType":"struct IPCAddress","components":[{"name":"subnetId","type":"tuple","internalType":"struct SubnetID","components":[{"name":"root","type":"uint64","internalType":"uint64"},{"name":"route","type":"address[]","internalType":"address[]"}]},{"name":"rawAddress","type":"tuple","internalType":"struct FvmAddress","components":[{"name":"addrType","type":"uint8","internalType":"uint8"},{"name":"payload","type":"bytes","internalType":"bytes"}]}]},{"name":"value","type":"uint256","internalType":"uint256"},{"name":"nonce","type":"uint64","internalType":"uint64"},{"name":"method","type":"bytes4","internalType":"bytes4"},{"name":"params","type":"bytes","internalType":"bytes"},{"name":"fee","type":"uint256","internalType":"uint256"}]},{"name":"wrapped","type":"bool","internalType":"bool"}]}]},{"name":"membershipRootHash","type":"bytes32","internalType":"bytes32"},{"name":"membershipWeight","type":"uint256","internalType":"uint256"}],"outputs":[],"stateMutability":"nonpayable"},{"type":"function","name":"execBottomUpMsgBatch","inputs":[{"name":"batch","type":"tuple","internalType":"struct BottomUpMsgBatch","components":[{"name":"subnetID","type":"tuple","internalType":"struct SubnetID","components":[{"name":"root","type":"uint64","internalType":"uint64"},{"name":"route","type":"address[]","internalType":"address[]"}]},{"name":"blockHeight","type":"uint256","internalType":"uint256"},{"name":"msgs","type":"tuple[]","internalType":"struct CrossMsg[]","components":[{"name":"message","type":"tuple","internalType":"struct StorableMsg","components":[{"name":"from","type":"tuple","internalType":"struct IPCAddress","components":[{"name":"subnetId","type":"tuple","internalType":"struct SubnetID","components":[{"name":"root","type":"uint64","internalType":"uint64"},{"name":"route","type":"address[]","internalType":"address[]"}]},{"name":"rawAddress","type":"tuple","internalType":"struct FvmAddress","components":[{"name":"addrType","type":"uint8","internalType":"uint8"},{"name":"payload","type":"bytes","internalType":"bytes"}]}]},{"name":"to","type":"tuple","internalType":"struct IPCAddress","components":[{"name":"subnetId","type":"tuple","internalType":"struct SubnetID","components":[{"name":"root","type":"uint64","internalType":"uint64"},{"name":"route","type":"address[]","internalType":"address[]"}]},{"name":"rawAddress","type":"tuple","internalType":"struct FvmAddress","components":[{"name":"addrType","type":"uint8","internalType":"uint8"},{"name":"payload","type":"bytes","internalType":"bytes"}]}]},{"name":"value","type":"uint256","internalType":"uint256"},{"name":"nonce","type":"uint64","internalType":"uint64"},{"name":"method","type":"bytes4","internalType":"bytes4"},{"name":"params","type":"bytes","internalType":"bytes"},{"name":"fee","type":"uint256","internalType":"uint256"}]},{"name":"wrapped","type":"bool","internalType":"bool"}]}]}],"outputs":[],"stateMutability":"nonpayable"},{"type":"function","name":"pruneBottomUpMsgBatches","inputs":[{"name":"newRetentionHeight","type":"uint256","internalType":"uint256"}],"outputs":[],"stateMutability":"nonpayable"},{"type":"error","name":"AddressEmptyCode","inputs":[{"name":"target","type":"address","internalType":"address"}]},{"type":"error","name":"AddressInsufficientBalance","inputs":[{"name":"account","type":"address","internalType":"address"}]},{"type":"error","name":"BatchAlreadyExists","inputs":[]},{"type":"error","name":"BatchNotCreated","inputs":[]},{"type":"error","name":"BatchWithNoMessages","inputs":[]},{"type":"error","name":"FailedAddIncompleteQuorum","inputs":[]},{"type":"error","name":"FailedAddSignatory","inputs":[]},{"type":"error","name":"FailedInnerCall","inputs":[]},{"type":"error","name":"FailedRemoveIncompleteQuorum","inputs":[]},{"type":"error","name":"InvalidActorAddress","inputs":[]},{"type":"error","name":"InvalidBatchEpoch","inputs":[]},{"type":"error","name":"InvalidBatchSource","inputs":[]},{"type":"error","name":"InvalidCrossMsgDstSubnet","inputs":[]},{"type":"error","name":"InvalidCrossMsgNonce","inputs":[]},{"type":"error","name":"InvalidRetentionHeight","inputs":[]},{"type":"error","name":"InvalidSignature","inputs":[]},{"type":"error","name":"MaxMsgsPerBatchExceeded","inputs":[]},{"type":"error","name":"NotAuthorized","inputs":[{"name":"","type":"address","internalType":"address"}]},{"type":"error","name":"NotEnoughSubnetCircSupply","inputs":[]},{"type":"error","name":"NotRegisteredSubnet","inputs":[]},{"type":"error","name":"NotSystemActor","inputs":[]},{"type":"error","name":"QuorumAlreadyProcessed","inputs":[]},{"type":"error","name":"SignatureReplay","inputs":[]},{"type":"error","name":"SubnetNotFound","inputs":[]},{"type":"error","name":"ZeroMembershipWeight","inputs":[]}],"bytecode":{"object":"0x6080806040523461001657612a56908161001c8239f35b600080fdfe6080604052600436101561001257600080fd5b60003560e01c80630bed761514610b845780630db0f77c1461070357806332e7661f1461027b5763bacc656d1461004857600080fd5b346102765760208060031936011261027657600435906100666126bd565b6012545b8281106101b157506012548083111561019f575b82811061008c576012839055005b80600052601382526040600020906000825560006004600193828582015582600282015582600382015501556016835260406000208054906000815581610179575b505080600052604060002060405180828682945493848152019060005286600020926000905b8789828410610160575050505061010d9250038261104c565b8051908360005b83811061012557505050500161007e565b600085815260178852604090206001600160a01b036101448386611899565b51166000528752610158604060002061182d565b018490610114565b90929450829193865481520194019201849293916100f4565b6000528284600020918201915b82811061019357506100ce565b60008155018390610186565b604051636819a3a960e01b8152600490fd5b806000526009908183526040600020916000835560036001936101d5858201611799565b60006002820155019081549060008355816101f4575b5050500161006a565b600d9282840292848404036102605760005285600020918201915b82811061021c57506101eb565b806102278592611876565b61023360048201611876565b6000600882015560008382015561024c600a820161182d565b6000600b8201556000600c8201550161020f565b634e487b7160e01b600052601160045260246000fd5b600080fd5b346102765760031960603682011261027657600435906001600160401b038211610276576060908236030112610276576102b36126bd565b6102c86102c33683600401611445565b612679565b601e5480156106ed57602482013506158015906106df575b6106cd57602481013560005260096020526002604060002001546106bb576040516020808201526103286103176004840180611617565b6060604084015260a083019061165f565b6024830135606083015281610343604485018560040161162b565b603f93919319838303016080840152808252602082019060208160051b84010192856000915b8383106105b4578987610385818903601f19810183528261104c565b6020815191012060ff601c5416916012546024820135106105a2576044359283156105905780840293840403610260576103c2602482013561285c565b1561057e5760405160a08101908082106001600160401b0383111761054b5761045f9361045592604052815260046020820160243581526064604084019704875260608301600081526080840191600083526024870135600052601360205260406000209451855551976001988986015551600285015551600384015551151591019060ff801983541691151516179055565b3690600401611445565b6020810190815160005260096020526040600020908051926001600160401b038451166001600160401b03198454161783556020858401940151938451946001600160401b03861161054b576020906104b887846117bf565b019060005260206000208660005b8781106105615750835160028701556040850180515190600388019060005b8381106104ee57005b6104f9818351611899565b51908354600160401b81101561054b5786810180865581101561053557869261052f9186600052600d60206000209102016118ad565b016104e5565b634e487b7160e01b600052603260045260246000fd5b634e487b7160e01b600052604160045260246000fd5b83516001600160a01b0316818401556020909301928891016104c6565b604051630cbd1cd360e11b8152600490fd5b604051634e8ac6e560e01b8152600490fd5b604051630108e13760e21b8152600490fd5b919395509193601f198282030186526105cd8784611617565b90813560de19833603018112156102765782602092836106a48160019781960194604085526106316106146106028880611617565b60e06040890152610120880190611721565b61062084890189611617565b878203603f19016060890152611721565b604087013560808701526001600160401b0361064f606089016110fb565b1660a08701526106956001600160e01b031961066d60808a016112cf565b169160c0928389015261068360a08a018a6116cf565b898303603f190160e08b015290611700565b960135610100860152016112e4565b151591015298019601930190918795969492610369565b60405163d15f973b60e01b8152600490fd5b60405163200c52f760e21b8152600490fd5b5060248101354311156102e0565b634e487b7160e01b600052601260045260246000fd5b34610276576080366003190112610276576024356001600160401b03811161027657366023820112156102765780600401359061073f8261106d565b9161074d604051938461104c565b8083526024602084019160051b8301019136831161027657602401905b828210610b7457836064356001600160401b0381116102765761079190369060040161109f565b601254600435106105a257600435600052600960205260026040600020015415610b625760043560005260136020526040600020916107d1828454612759565b506004819492941015610b4c57610b3a5760043560009081526016602090815260408083206001600160a01b0387168452600101909152902054610b2857604080516001600160a01b03851660208201908152604435828401529181529060608201906001600160401b0382118383101761054b57608090826040528351902092019182526020815261086381611031565b51902093600181015494936000945b84518610156108bf576108858686611899565b5190818110156108ae5760005260205260406000205b9460001981146102605760010194610872565b90600052602052604060002061089b565b8603610b065760043560005260166020526108e660018060a01b03821660406000206128d9565b15610af457600435600052601760205260406000209060018060a01b0316600052602052604060002082516001600160401b03811161054b5761092982546117f3565b601f8111610ab7575b506020601f8211600114610a515781929394600092610a46575b50508160011b916000199060031b1c19161790555b600381016109726044358254611525565b808255600283015481101561098357005b600483018054909160ff8216610a04575060ff191660011790556109a8600435612936565b156109f2577fc08568b61a3224ac0d48121f065552f2f645d3777d353bd87291108bc3651494916109ec60ff60115416915492546040519384936004359085612734565b0390a15b005b6040516344a7b48760e11b8152600490fd5b925050507f103355808c87614c31e835c1a86487b17b1e54cf36e0ac4469c8d1e892239cbc916109ec60ff601154169154926040519384936004359085612734565b01519050848061094c565b601f198216908360005260206000209160005b818110610a9f57509583600195969710610a86575b505050811b019055610961565b015160001960f88460031b161c19169055848080610a79565b9192602060018192868b015181550194019201610a64565b610ae490836000526020600020601f840160051c81019160208510610aea575b601f0160051c0190611782565b84610932565b9091508190610ad7565b604051633363140f60e01b8152600490fd5b604051634a0bfec160e01b81526001600160a01b039091166004820152602490fd5b604051635a3fd0d960e11b8152600490fd5b604051638baa579f60e01b8152600490fd5b634e487b7160e01b600052602160045260246000fd5b60405163a88f96f160e01b8152600490fd5b813581526020918201910161076a565b34610276576003196020368201811361027657600435916001600160401b03908184116102765760608460040191853603011261027657610bce36610bc983806110e6565b611123565b9073__$a0fe38a9a81205afccc10810b09a4d3f45$__60405190632cff562160e11b8252856004830152858280610c0a602497888301906111da565b0381845af4918215610fad57600092610ffa575b506001600160a01b03913390831603610fe557610c3e6102c33685611445565b3315610fd35760405191610c5183611031565b85601954168352604051809188601a54928381520191601a6000527f057c384a7d1c54f3a1b2e5e67b2617b8224fdfd1ea7234eea573a6ff665ff63e916000905b8b838310610fb95750505050509181610cb3610cda9593600095038261104c565b88830152604051808095819463aa5106cb60e01b83526040600484015260448301906111da565b338983015203915af48015610fad57600090610ee2575b610cfb9150611d63565b919015610ed1576000956044019086610d1483836114c1565b600091505b808210610e80575050610d2c9088611525565b60028401805491808310610e6e578203918211610e5957610d6a9360049593610d6293610d5993556114c1565b94909201611532565b9236916112f1565b9081519160005b838110610e3c575050505060ff602b54841c16610d8a57005b6040519083820192632643057b60e11b84524382840152856044840152600060648401526064835260a083019083821090821117610e275780604052854710610e155750506109f09360009283925191335af13d15610e0c573d610ded81611084565b90610dfb604051928361104c565b8152600081933d92013e5b336115b7565b60609150610e06565b63cd78605960e01b81523060a4840152fd5b50634e487b7160e01b60009081526041600452fd5b80610e53610e4c60019385611899565b5185612001565b01610d71565b85634e487b7160e01b60005260116004526000fd5b604051631d36ca1560e21b8152600490fd5b9098610ec960019160c0610eb6610eb0610ebe8f986040610eb6610eb08c8f8f90610eaa916114c1565b906114f6565b80611510565b013590611525565b97610eaa8b8b6114c1565b990190610d19565b6040516208ed5b60e31b8152600490fd5b503d806000833e610ef3818361104c565b8101908581830312610276578051908582116102765701906040828203126102765760405191610f2283611031565b80518681168103610276578352868101519086821161027657019080601f83011215610276578151610f538161106d565b92610f61604051948561104c565b818452888085019260051b8201019283116102765788809101915b838310610f955750905083610cfb949392500152610cf1565b8190610fa0846111c6565b8152019101908890610f7c565b6040513d6000823e3d90fd5b845482168652909401936001938401939190910190610c92565b6040516370e4510960e01b8152600490fd5b60405160016201ad9360e61b03198152600490fd5b9091508581813d831161102a575b611012818361104c565b8101031261027657611023906111c6565b9087610c1e565b503d611008565b604081019081106001600160401b0382111761054b57604052565b90601f801991011681019081106001600160401b0382111761054b57604052565b6001600160401b03811161054b5760051b60200190565b6001600160401b03811161054b57601f01601f191660200190565b81601f82011215610276578035906110b682611084565b926110c4604051948561104c565b8284526020838301011161027657816000926020809301838601378301015290565b903590603e1981360301821215610276570190565b35906001600160401b038216820361027657565b35906001600160a01b038216820361027657565b9190604083820312610276576040519261113c84611031565b83611146826110fb565b815260209182810135906001600160401b03821161027657019280601f850112156102765783356111768161106d565b94611184604051968761104c565b818652848087019260051b8201019283116102765784809101915b8383106111ae57505050500152565b81906111b98461110f565b815201910190849061119f565b51906001600160a01b038216820361027657565b60609060408301906001600160401b03815116845260209283809201519460408382015285518094520193019160005b828110611218575050505090565b83516001600160a01b03168552938101939281019260010161120a565b359060ff8216820361027657565b9190604083820312610276576040519261125c84611031565b838135916001600160401b0392838111610276578461127c918301611123565b8252602081013590838211610276570160408185031261027657604051936112a385611031565b6112ac82611235565b85526020820135938411610276576020936112c7920161109f565b828401520152565b35906001600160e01b03198216820361027657565b3590811515820361027657565b9291926112fd8261106d565b9160409061130d8251948561104c565b839581855260208095019160051b8401938185116102765780925b8584106113385750505050505050565b6001600160401b0390843582811161027657830190868286031261027657865161136181611031565b82358481116102765783019260e094858589031261027657895195860186811082821117611430578a52843581811161027657886113a0918701611243565b86528b85013581811161027657886113b9918701611243565b8c870152898501358a87015260606113d28187016110fb565b9087015260806113e38187016112cf565b9087015260a09182860135918211610276578c96866114219461140b8c8b9a968b970161109f565b9083015260c080910135908201528452016112e4565b83820152815201930192611328565b60246000634e487b7160e01b81526041600452fd5b919060608382031261027657604051906001600160401b03606083018181118482101761054b57604052829480358281116102765783611486918301611123565b8452602081013560208501526040810135918211610276570181601f82011215610276576040918160206114bc933591016112f1565b910152565b903590601e198136030182121561027657018035906001600160401b03821161027657602001918160051b3603831361027657565b908210156105355761150d9160051b8101906110e6565b90565b90359060de1981360301821215610276570190565b9190820180921161026057565b9060405161153f81611031565b80926001600160401b03815416825260018091019160405191828481955492838652602080960191600052856000209060005b8786821061158e575050505061158a9250038461104c565b0152565b83546001600160a01b0316855289955090930192918101918101611572565b60021115610b4c57565b90156115f5578151156115c8575090565b803b156115d3575090565b604051639996b31560e01b81526001600160a01b039091166004820152602490fd5b5080511561160557805190602001fd5b604051630a12f52160e11b8152600490fd5b9035603e1982360301811215610276570190565b9035601e19823603018112156102765701602081359101916001600160401b038211610276578160051b3603831361027657565b60408201916001600160401b03611675836110fb565b16815260606116896020938481019061162b565b839195604086839601525201929160005b8281106116a8575050505090565b909192938280600192838060a01b036116c08961110f565b1681520195019392910161169a565b9035601e19823603018112156102765701602081359101916001600160401b03821161027657813603831361027657565b908060209392818452848401376000828201840152601f01601f1916010190565b604061177261150d9361175161174661173a8680611617565b8584528584019061165f565b946020810190611617565b90602081860391015260ff61176582611235565b16845260208101906116cf565b9190928160208201520191611700565b81811061178d575050565b60008155600101611782565b805460008255806117a8575050565b6117bd91600052602060002090810190611782565b565b90600160401b811161054b578154908083558181106117dd57505050565b6117bd9260005260206000209182019101611782565b90600182811c92168015611823575b602083101461180d57565b634e487b7160e01b600052602260045260246000fd5b91607f1691611802565b61183781546117f3565b9081611841575050565b81601f60009311600114611853575055565b908083918252611872601f60208420940160051c840160018501611782565b5555565b60036117bd916000815561188c60018201611799565b600060028201550161182d565b80518210156105355760209160051b010190565b908051908151918251926001600160401b03808551166001600160401b0319908188541617875560018088019360208098015180519085821161054b5789906118f683896117bf565b01600096875289872084885b848110611d305750505050508760028a019101519060ff82511660ff1982541617905560039288848b01920151918251868111611c4a578061194483546117f3565b94898d601f9788808211611d03575b505050508c90868311600114611c98578a92611c8d575b505060001982881b1c191690851b1790555b60048a0190898801519182519187835116908254161790558960058c0191015190815191878311611c79578b906119b384846117bf565b019088528a882085895b848110611c5e5750505050508860068b019101519060ff82511660ff198254161790558860078b01910151805190868211611c4a5781906119fe84546117f3565b8c868211611c1d575b50508b90858311600114611bbe578992611bb3575b505060001982871b1c191690841b1790555b604086015160088a015560098901846060880151168154906bffffffff000000000000000060808a015160a01c16916bffffffffffffffffffffffff191617179055600a89019460a0870151908151958611611b9f57611a8e87546117f3565b8a848211611b68575b505089928611600114611af7579385600c999794819460c098946117bd9e9d9b9895611aec575b50501b92600019911b1c19161790555b0151600b8501550151151591019060ff801983541691151516179055565b015193503880611abe565b9294939190601f1985168785528a8520945b818110611b535750928592600c9a9895926117bd9d9c9a9760c0999610611b39575b50505050811b019055611ace565b01519060f884600019921b161c1916905538808080611b2b565b82840151865594870194928b01928b01611b09565b611b8f918984528582852091818b0160051c8301938b10611b96575b0160051c0190611782565b388a611a97565b92508192611b84565b634e487b7160e01b81526041600452602490fd5b015190503880611a1c565b848a528c8a208794509190601f1984168b8f5b828210611c065750508411611bee575b505050811b019055611a2e565b015160001983891b60f8161c19169055388080611be1565b8385015186558a979095019493840193018f611bd1565b611c4391868c5287828d209181870160051c8301938710611b96570160051c0190611782565b388c611a07565b634e487b7160e01b88526041600452602488fd5b83516001600160a01b031683820155928d01928791016119bd565b634e487b7160e01b89526041600452602489fd5b01519050388061196a565b879350908d91601f198416868d52838d20938d905b828210611ce25750508411611cca575b505050811b01905561197c565b0151600019838a1b60f8161c19169055388080611cbd565b91929395968291958786015181550195019301908f918a9695949392611cad565b828489611d279652209181870160051c8301938710611b96570160051c0190611782565b898d3888611953565b83516001600160a01b031683820155928c0192869101611902565b90816020910312610276575180151581036102765790565b611da173__$a0fe38a9a81205afccc10810b09a4d3f45$__91604051906390ba52cf60e01b82528180602094859384600484015260248301906111da565b0381865af4908115610fad57600091611e3c575b5060005260008152611df681604060002093611dd360048601611532565b906040518080958194630c133d1360e31b835286600484015260248301906111da565b03915af4918215610fad57600092611e0f575b50501591565b611e2e9250803d10611e35575b611e26818361104c565b810190611d4b565b3880611e09565b503d611e1c565b908282813d8311611e65575b611e52818361104c565b81010312611e6257505138611db5565b80fd5b503d611e48565b60408101906001600160401b036019541681526060602091604083820152601a548094520191601a6000527f057c384a7d1c54f3a1b2e5e67b2617b8224fdfd1ea7234eea573a6ff665ff63e916000905b828210611ecb575050505090565b83546001600160a01b031685529384019360019384019390910190611ebd565b60005b838110611efe5750506000910152565b8181015183820152602001611eee565b90602091611f2781518092818552858086019101611eeb565b601f01601f1916010190565b6040602061150d9381611f4d8551858452858401906111da565b940151908281860391015260ff81511684520151918160208201520190611f0e565b9060c080611fe0611f9e611f8c865160e0875260e0870190611f33565b60208701518682036020880152611f33565b604086015160408601526001600160401b03606087015116606086015263ffffffff60e01b608087015116608086015260a086015185820360a0870152611f0e565b93015191015290565b9060016001600160401b038093160191821161026057565b90602080825101515173__$a0fe38a9a81205afccc10810b09a4d3f45$__6040948551630c133d1360e31b8152848180612046600497848984015260248301906111da565b0381865af49081156125e1576000916125c4575b506125b45783855101515161208487519163c836244d60e01b8352888684015260448301906111da565b9085818061209e6003199586838203016024840152611e6c565b0381875af49081156124be57600091612597575b50156124c9576120f88560008951906120ca82611031565b8082528282015292896121078a51928251958694859463f47ad7eb60e01b86528c8601526044850190611f6f565b90838203016024840152611e6c565b038173__$386b5c41ce93e8b832daf8008b3d30ae09$__5af49081156124be57600091612488575b50612139816115ad565b600181036123d657505061214c90611d63565b90156123c6576003810180546001600160401b0380828a1c16906060895101511681036123b65786936121d095936121af9367ffffffffffffffff60401b6121948a95611fe9565b8d1b169067ffffffffffffffff60401b191617905501611532565b9087518080958194632cff562160e11b8352868984015260248301906111da565b03915af4908115612371578291869160009161237c575b5081516380875df760e01b815292839182906001600160a01b03165afa90811561237157600091612310575b50600091606091945b865195869384936373b464b760e01b85528401528561224683518a606487015260a4860190611f6f565b92015115156084840152805161225b816115ad565b60248401528501516001600160a01b03166044830152038173__$33b79814e84bf6cf5e47244090b19ce5f8$__5af480156123055761229957505050565b3d806000843e6122a9818461104c565b8201918181840312610276578051906001600160401b03821161027657019082601f83011215610276578151926122eb6122e285611084565b9551958661104c565b83855281848401011161027657806117bd94019101611eeb565b83513d6000823e3d90fd5b8581813d831161236a575b612325818361104c565b810103126123665785519161233983611031565b8151906002821015611e6257509161235a85600095936060958452016111c6565b85820152915091612213565b5080fd5b503d61231b565b85513d6000823e3d90fd5b925090508382813d81116123af575b612395818361104c565b81010312611e625750846123a983926111c6565b386121e7565b503d61238b565b885163a57cadff60e01b81528690fd5b8551630e991abd60e41b81528390fd5b6123e5919693508092506115ad565b156123f6575b60009160609161221c565b9250601c546001600160401b03808260481c1690606086510151168103612478579160609167ffffffffffffffff60481b612432600095611fe9565b60481b169067ffffffffffffffff60481b191617601c558284875161245681611031565b8281520152855161246681611031565b838152838582015294915091506123eb565b855163a57cadff60e01b81528390fd5b8681813d83116124b7575b61249d818361104c565b810103126123665751906002821015611e6257503861212f565b503d612493565b88513d6000823e3d90fd5b505050509160036117bd93825181810190828252612588818751878083015260c0612566612504835160e060808701526101608601906125ec565b61251f8985015191607f1992838883030160a08901526125ec565b848c01518685015260608501516001600160401b031660e087015260808501516001600160e01b03191661010087015260a085015186820390920161012087015290611f0e565b910151610140830152858901511515606083015203601f19810183528261104c565b519020600052526000206118ad565b6125ae9150863d8811611e3557611e26818361104c565b386120b2565b855163c5f563eb60e01b81528390fd5b6125db9150853d8711611e3557611e26818361104c565b3861205a565b87513d6000823e3d90fd5b91908251906040815260808101936001600160401b038351166040830152602080930151946040606084015285518091528360a0840196019060005b81811061265c575050509360408381938161150d97980151908281860391015260ff81511684520151938201520190611f0e565b82516001600160a01b031688529685019691850191600101612628565b6040018051516001600160401b03601f5416106126ab5751511561269957565b6040516338d2307f60e01b8152600490fd5b60405163351c700760e01b8152600490fd5b604051635d3f8a6960e01b815233600482015260208160248173__$e800e3908cdbb6b1b5bd452383a17b18f7$__5af4908115610fad57600091612716575b501561270457565b60405163f0d97f3b60e01b8152600490fd5b61272e915060203d8111611e3557611e26818361104c565b386126fc565b909493926060926080830196612749816115ad565b8352602083015260408201520152565b815191906041830361278a5761278392506020820151906060604084015193015160001a90612795565b9192909190565b505060009160029190565b91907f7fffffffffffffffffffffffffffffff5d576e7357a4501ddfe92f46681b20a0841161281957926020929160ff608095604051948552168484015260408301526060820152600092839182805260015afa1561280d5780516001600160a01b0381161561280457918190565b50809160019190565b604051903d90823e3d90fd5b50505060009160039190565b6014548110156105355760146000527fce6d7b5282bd9a3661ae061feed1dbda4e52ab073b1f9285be6e155d9c38d4ec0190600090565b6000818152601560205260408120546128d457601454600160401b8110156128c05790826128ac61289584600160409601601455612825565b819391549060031b91821b91600019901b19161790565b905560145492815260156020522055600190565b634e487b7160e01b82526041600452602482fd5b905090565b600082815260018201602052604090205461292f57805490600160401b82101561054b57600182018082558210156105355782600192826000526020600020015580549260005201602052604060002055600190565b5050600090565b6000818152601560205260408120549091908015612a1b5760001990808201818111612a0757601454908382019182116129f3578082036129bf575b50505060145480156129ab5781019061298a82612825565b909182549160031b1b19169055601455815260156020526040812055600190565b634e487b7160e01b84526031600452602484fd5b6129dd6129ce61289593612825565b90549060031b1c928392612825565b9055845260156020526040842055388080612972565b634e487b7160e01b86526011600452602486fd5b634e487b7160e01b85526011600452602485fd5b50509056fea2646970667358221220b48c09038cb95ca358f6b3b986231aac3e6aa9fe9a876f90865eb1782122308064736f6c63430008130033","linkReferences":{"src/lib/AccountHelper.sol":{"AccountHelper":[{"start":9972,"length":20}]},"src/lib/CrossMsgHelper.sol":{"CrossMsgHelper":[{"start":8849,"length":20}]},"src/lib/StorableMsgHelper.sol":{"StorableMsgHelper":[{"start":8487,"length":20}]},"src/lib/SubnetIDHelper.sol":{"SubnetIDHelper":[{"start":3053,"length":20},{"start":7556,"length":20},{"start":8232,"length":20}]}}},"methodIdentifiers":{"addBottomUpMsgBatchSignature(uint256,bytes32[],uint256,bytes)":"0db0f77c","createBottomUpMsgBatch(((uint64,address[]),uint256,((((uint64,address[]),(uint8,bytes)),((uint64,address[]),(uint8,bytes)),uint256,uint64,bytes4,bytes,uint256),bool)[]),bytes32,uint256)":"32e7661f","execBottomUpMsgBatch(((uint64,address[]),uint256,((((uint64,address[]),(uint8,bytes)),((uint64,address[]),(uint8,bytes)),uint256,uint64,bytes4,bytes,uint256),bool)[]))":"0bed7615","pruneBottomUpMsgBatches(uint256)":"bacc656d"},"id":49}