{"abi":[{"type":"function","name":"appliedTopDownNonce","inputs":[],"outputs":[{"name":"","type":"uint64","internalType":"uint64"}],"stateMutability":"view"},{"type":"function","name":"bottomUpCheckPeriod","inputs":[],"outputs":[{"name":"","type":"uint256","internalType":"uint256"}],"stateMutability":"view"},{"type":"function","name":"bottomUpCheckpoint","inputs":[{"name":"e","type":"uint256","internalType":"uint256"}],"outputs":[{"name":"","type":"tuple","internalType":"struct BottomUpCheckpoint","components":[{"name":"subnetID","type":"tuple","internalType":"struct SubnetID","components":[{"name":"root","type":"uint64","internalType":"uint64"},{"name":"route","type":"address[]","internalType":"address[]"}]},{"name":"blockHeight","type":"uint256","internalType":"uint256"},{"name":"blockHash","type":"bytes32","internalType":"bytes32"},{"name":"nextConfigurationNumber","type":"uint64","internalType":"uint64"},{"name":"msgs","type":"tuple[]","internalType":"struct IpcEnvelope[]","components":[{"name":"kind","type":"uint8","internalType":"enum IpcMsgKind"},{"name":"to","type":"tuple","internalType":"struct IPCAddress","components":[{"name":"subnetId","type":"tuple","internalType":"struct SubnetID","components":[{"name":"root","type":"uint64","internalType":"uint64"},{"name":"route","type":"address[]","internalType":"address[]"}]},{"name":"rawAddress","type":"tuple","internalType":"struct FvmAddress","components":[{"name":"addrType","type":"uint8","internalType":"uint8"},{"name":"payload","type":"bytes","internalType":"bytes"}]}]},{"name":"from","type":"tuple","internalType":"struct IPCAddress","components":[{"name":"subnetId","type":"tuple","internalType":"struct SubnetID","components":[{"name":"root","type":"uint64","internalType":"uint64"},{"name":"route","type":"address[]","internalType":"address[]"}]},{"name":"rawAddress","type":"tuple","internalType":"struct FvmAddress","components":[{"name":"addrType","type":"uint8","internalType":"uint8"},{"name":"payload","type":"bytes","internalType":"bytes"}]}]},{"name":"nonce","type":"uint64","internalType":"uint64"},{"name":"value","type":"uint256","internalType":"uint256"},{"name":"message","type":"bytes","internalType":"bytes"}]}]}],"stateMutability":"view"},{"type":"function","name":"bottomUpMsgBatch","inputs":[{"name":"e","type":"uint256","internalType":"uint256"}],"outputs":[{"name":"","type":"tuple","internalType":"struct BottomUpMsgBatch","components":[{"name":"subnetID","type":"tuple","internalType":"struct SubnetID","components":[{"name":"root","type":"uint64","internalType":"uint64"},{"name":"route","type":"address[]","internalType":"address[]"}]},{"name":"blockHeight","type":"uint256","internalType":"uint256"},{"name":"msgs","type":"tuple[]","internalType":"struct IpcEnvelope[]","components":[{"name":"kind","type":"uint8","internalType":"enum IpcMsgKind"},{"name":"to","type":"tuple","internalType":"struct IPCAddress","components":[{"name":"subnetId","type":"tuple","internalType":"struct SubnetID","components":[{"name":"root","type":"uint64","internalType":"uint64"},{"name":"route","type":"address[]","internalType":"address[]"}]},{"name":"rawAddress","type":"tuple","internalType":"struct FvmAddress","components":[{"name":"addrType","type":"uint8","internalType":"uint8"},{"name":"payload","type":"bytes","internalType":"bytes"}]}]},{"name":"from","type":"tuple","internalType":"struct IPCAddress","components":[{"name":"subnetId","type":"tuple","internalType":"struct SubnetID","components":[{"name":"root","type":"uint64","internalType":"uint64"},{"name":"route","type":"address[]","internalType":"address[]"}]},{"name":"rawAddress","type":"tuple","internalType":"struct FvmAddress","components":[{"name":"addrType","type":"uint8","internalType":"uint8"},{"name":"payload","type":"bytes","internalType":"bytes"}]}]},{"name":"nonce","type":"uint64","internalType":"uint64"},{"name":"value","type":"uint256","internalType":"uint256"},{"name":"message","type":"bytes","internalType":"bytes"}]}]}],"stateMutability":"view"},{"type":"function","name":"bottomUpNonce","inputs":[],"outputs":[{"name":"","type":"uint64","internalType":"uint64"}],"stateMutability":"view"},{"type":"function","name":"getAppliedBottomUpNonce","inputs":[{"name":"subnetId","type":"tuple","internalType":"struct SubnetID","components":[{"name":"root","type":"uint64","internalType":"uint64"},{"name":"route","type":"address[]","internalType":"address[]"}]}],"outputs":[{"name":"","type":"bool","internalType":"bool"},{"name":"","type":"uint64","internalType":"uint64"}],"stateMutability":"view"},{"type":"function","name":"getCheckpointCurrentWeight","inputs":[{"name":"h","type":"uint256","internalType":"uint256"}],"outputs":[{"name":"","type":"uint256","internalType":"uint256"}],"stateMutability":"view"},{"type":"function","name":"getCheckpointInfo","inputs":[{"name":"h","type":"uint256","internalType":"uint256"}],"outputs":[{"name":"","type":"tuple","internalType":"struct QuorumInfo","components":[{"name":"hash","type":"bytes32","internalType":"bytes32"},{"name":"rootHash","type":"bytes32","internalType":"bytes32"},{"name":"threshold","type":"uint256","internalType":"uint256"},{"name":"currentWeight","type":"uint256","internalType":"uint256"},{"name":"reached","type":"bool","internalType":"bool"}]}],"stateMutability":"view"},{"type":"function","name":"getCheckpointRetentionHeight","inputs":[],"outputs":[{"name":"","type":"uint256","internalType":"uint256"}],"stateMutability":"view"},{"type":"function","name":"getCheckpointSignatureBundle","inputs":[{"name":"h","type":"uint256","internalType":"uint256"}],"outputs":[{"name":"ch","type":"tuple","internalType":"struct BottomUpCheckpoint","components":[{"name":"subnetID","type":"tuple","internalType":"struct SubnetID","components":[{"name":"root","type":"uint64","internalType":"uint64"},{"name":"route","type":"address[]","internalType":"address[]"}]},{"name":"blockHeight","type":"uint256","internalType":"uint256"},{"name":"blockHash","type":"bytes32","internalType":"bytes32"},{"name":"nextConfigurationNumber","type":"uint64","internalType":"uint64"},{"name":"msgs","type":"tuple[]","internalType":"struct IpcEnvelope[]","components":[{"name":"kind","type":"uint8","internalType":"enum IpcMsgKind"},{"name":"to","type":"tuple","internalType":"struct IPCAddress","components":[{"name":"subnetId","type":"tuple","internalType":"struct SubnetID","components":[{"name":"root","type":"uint64","internalType":"uint64"},{"name":"route","type":"address[]","internalType":"address[]"}]},{"name":"rawAddress","type":"tuple","internalType":"struct FvmAddress","components":[{"name":"addrType","type":"uint8","internalType":"uint8"},{"name":"payload","type":"bytes","internalType":"bytes"}]}]},{"name":"from","type":"tuple","internalType":"struct IPCAddress","components":[{"name":"subnetId","type":"tuple","internalType":"struct SubnetID","components":[{"name":"root","type":"uint64","internalType":"uint64"},{"name":"route","type":"address[]","internalType":"address[]"}]},{"name":"rawAddress","type":"tuple","internalType":"struct FvmAddress","components":[{"name":"addrType","type":"uint8","internalType":"uint8"},{"name":"payload","type":"bytes","internalType":"bytes"}]}]},{"name":"nonce","type":"uint64","internalType":"uint64"},{"name":"value","type":"uint256","internalType":"uint256"},{"name":"message","type":"bytes","internalType":"bytes"}]}]},{"name":"info","type":"tuple","internalType":"struct QuorumInfo","components":[{"name":"hash","type":"bytes32","internalType":"bytes32"},{"name":"rootHash","type":"bytes32","internalType":"bytes32"},{"name":"threshold","type":"uint256","internalType":"uint256"},{"name":"currentWeight","type":"uint256","internalType":"uint256"},{"name":"reached","type":"bool","internalType":"bool"}]},{"name":"signatories","type":"address[]","internalType":"address[]"},{"name":"signatures","type":"bytes[]","internalType":"bytes[]"}],"stateMutability":"view"},{"type":"function","name":"getCommitSha","inputs":[],"outputs":[{"name":"","type":"bytes32","internalType":"bytes32"}],"stateMutability":"view"},{"type":"function","name":"getCurrentBottomUpCheckpoint","inputs":[],"outputs":[{"name":"exists","type":"bool","internalType":"bool"},{"name":"epoch","type":"uint256","internalType":"uint256"},{"name":"checkpoint","type":"tuple","internalType":"struct BottomUpCheckpoint","components":[{"name":"subnetID","type":"tuple","internalType":"struct SubnetID","components":[{"name":"root","type":"uint64","internalType":"uint64"},{"name":"route","type":"address[]","internalType":"address[]"}]},{"name":"blockHeight","type":"uint256","internalType":"uint256"},{"name":"blockHash","type":"bytes32","internalType":"bytes32"},{"name":"nextConfigurationNumber","type":"uint64","internalType":"uint64"},{"name":"msgs","type":"tuple[]","internalType":"struct IpcEnvelope[]","components":[{"name":"kind","type":"uint8","internalType":"enum IpcMsgKind"},{"name":"to","type":"tuple","internalType":"struct IPCAddress","components":[{"name":"subnetId","type":"tuple","internalType":"struct SubnetID","components":[{"name":"root","type":"uint64","internalType":"uint64"},{"name":"route","type":"address[]","internalType":"address[]"}]},{"name":"rawAddress","type":"tuple","internalType":"struct FvmAddress","components":[{"name":"addrType","type":"uint8","internalType":"uint8"},{"name":"payload","type":"bytes","internalType":"bytes"}]}]},{"name":"from","type":"tuple","internalType":"struct IPCAddress","components":[{"name":"subnetId","type":"tuple","internalType":"struct SubnetID","components":[{"name":"root","type":"uint64","internalType":"uint64"},{"name":"route","type":"address[]","internalType":"address[]"}]},{"name":"rawAddress","type":"tuple","internalType":"struct FvmAddress","components":[{"name":"addrType","type":"uint8","internalType":"uint8"},{"name":"payload","type":"bytes","internalType":"bytes"}]}]},{"name":"nonce","type":"uint64","internalType":"uint64"},{"name":"value","type":"uint256","internalType":"uint256"},{"name":"message","type":"bytes","internalType":"bytes"}]}]}],"stateMutability":"view"},{"type":"function","name":"getCurrentConfigurationNumber","inputs":[],"outputs":[{"name":"","type":"uint64","internalType":"uint64"}],"stateMutability":"view"},{"type":"function","name":"getCurrentMembership","inputs":[],"outputs":[{"name":"","type":"tuple","internalType":"struct Membership","components":[{"name":"validators","type":"tuple[]","internalType":"struct Validator[]","components":[{"name":"weight","type":"uint256","internalType":"uint256"},{"name":"addr","type":"address","internalType":"address"},{"name":"metadata","type":"bytes","internalType":"bytes"}]},{"name":"configurationNumber","type":"uint64","internalType":"uint64"}]}],"stateMutability":"view"},{"type":"function","name":"getIncompleteCheckpointHeights","inputs":[],"outputs":[{"name":"","type":"uint256[]","internalType":"uint256[]"}],"stateMutability":"view"},{"type":"function","name":"getIncompleteCheckpoints","inputs":[],"outputs":[{"name":"","type":"tuple[]","internalType":"struct BottomUpCheckpoint[]","components":[{"name":"subnetID","type":"tuple","internalType":"struct SubnetID","components":[{"name":"root","type":"uint64","internalType":"uint64"},{"name":"route","type":"address[]","internalType":"address[]"}]},{"name":"blockHeight","type":"uint256","internalType":"uint256"},{"name":"blockHash","type":"bytes32","internalType":"bytes32"},{"name":"nextConfigurationNumber","type":"uint64","internalType":"uint64"},{"name":"msgs","type":"tuple[]","internalType":"struct IpcEnvelope[]","components":[{"name":"kind","type":"uint8","internalType":"enum IpcMsgKind"},{"name":"to","type":"tuple","internalType":"struct IPCAddress","components":[{"name":"subnetId","type":"tuple","internalType":"struct SubnetID","components":[{"name":"root","type":"uint64","internalType":"uint64"},{"name":"route","type":"address[]","internalType":"address[]"}]},{"name":"rawAddress","type":"tuple","internalType":"struct FvmAddress","components":[{"name":"addrType","type":"uint8","internalType":"uint8"},{"name":"payload","type":"bytes","internalType":"bytes"}]}]},{"name":"from","type":"tuple","internalType":"struct IPCAddress","components":[{"name":"subnetId","type":"tuple","internalType":"struct SubnetID","components":[{"name":"root","type":"uint64","internalType":"uint64"},{"name":"route","type":"address[]","internalType":"address[]"}]},{"name":"rawAddress","type":"tuple","internalType":"struct FvmAddress","components":[{"name":"addrType","type":"uint8","internalType":"uint8"},{"name":"payload","type":"bytes","internalType":"bytes"}]}]},{"name":"nonce","type":"uint64","internalType":"uint64"},{"name":"value","type":"uint256","internalType":"uint256"},{"name":"message","type":"bytes","internalType":"bytes"}]}]}],"stateMutability":"view"},{"type":"function","name":"getLastConfigurationNumber","inputs":[],"outputs":[{"name":"","type":"uint64","internalType":"uint64"}],"stateMutability":"view"},{"type":"function","name":"getLastMembership","inputs":[],"outputs":[{"name":"","type":"tuple","internalType":"struct Membership","components":[{"name":"validators","type":"tuple[]","internalType":"struct Validator[]","components":[{"name":"weight","type":"uint256","internalType":"uint256"},{"name":"addr","type":"address","internalType":"address"},{"name":"metadata","type":"bytes","internalType":"bytes"}]},{"name":"configurationNumber","type":"uint64","internalType":"uint64"}]}],"stateMutability":"view"},{"type":"function","name":"getLatestParentFinality","inputs":[],"outputs":[{"name":"","type":"tuple","internalType":"struct ParentFinality","components":[{"name":"height","type":"uint256","internalType":"uint256"},{"name":"blockHash","type":"bytes32","internalType":"bytes32"}]}],"stateMutability":"view"},{"type":"function","name":"getNetworkName","inputs":[],"outputs":[{"name":"","type":"tuple","internalType":"struct SubnetID","components":[{"name":"root","type":"uint64","internalType":"uint64"},{"name":"route","type":"address[]","internalType":"address[]"}]}],"stateMutability":"view"},{"type":"function","name":"getParentFinality","inputs":[{"name":"blockNumber","type":"uint256","internalType":"uint256"}],"outputs":[{"name":"","type":"tuple","internalType":"struct ParentFinality","components":[{"name":"height","type":"uint256","internalType":"uint256"},{"name":"blockHash","type":"bytes32","internalType":"bytes32"}]}],"stateMutability":"view"},{"type":"function","name":"getQuorumThreshold","inputs":[{"name":"totalWeight","type":"uint256","internalType":"uint256"}],"outputs":[{"name":"","type":"uint256","internalType":"uint256"}],"stateMutability":"view"},{"type":"function","name":"getSubnet","inputs":[{"name":"subnetId","type":"tuple","internalType":"struct SubnetID","components":[{"name":"root","type":"uint64","internalType":"uint64"},{"name":"route","type":"address[]","internalType":"address[]"}]}],"outputs":[{"name":"","type":"bool","internalType":"bool"},{"name":"","type":"tuple","internalType":"struct Subnet","components":[{"name":"stake","type":"uint256","internalType":"uint256"},{"name":"genesisEpoch","type":"uint256","internalType":"uint256"},{"name":"circSupply","type":"uint256","internalType":"uint256"},{"name":"topDownNonce","type":"uint64","internalType":"uint64"},{"name":"appliedBottomUpNonce","type":"uint64","internalType":"uint64"},{"name":"id","type":"tuple","internalType":"struct SubnetID","components":[{"name":"root","type":"uint64","internalType":"uint64"},{"name":"route","type":"address[]","internalType":"address[]"}]}]}],"stateMutability":"view"},{"type":"function","name":"getSubnetKeys","inputs":[],"outputs":[{"name":"","type":"bytes32[]","internalType":"bytes32[]"}],"stateMutability":"view"},{"type":"function","name":"getSubnetTopDownMsgsLength","inputs":[{"name":"subnetId","type":"tuple","internalType":"struct SubnetID","components":[{"name":"root","type":"uint64","internalType":"uint64"},{"name":"route","type":"address[]","internalType":"address[]"}]}],"outputs":[{"name":"","type":"uint256","internalType":"uint256"}],"stateMutability":"view"},{"type":"function","name":"getTopDownNonce","inputs":[{"name":"subnetId","type":"tuple","internalType":"struct SubnetID","components":[{"name":"root","type":"uint64","internalType":"uint64"},{"name":"route","type":"address[]","internalType":"address[]"}]}],"outputs":[{"name":"","type":"bool","internalType":"bool"},{"name":"","type":"uint64","internalType":"uint64"}],"stateMutability":"view"},{"type":"function","name":"getValidatorConfigurationNumbers","inputs":[],"outputs":[{"name":"","type":"uint64","internalType":"uint64"},{"name":"","type":"uint64","internalType":"uint64"}],"stateMutability":"view"},{"type":"function","name":"listSubnets","inputs":[],"outputs":[{"name":"","type":"tuple[]","internalType":"struct Subnet[]","components":[{"name":"stake","type":"uint256","internalType":"uint256"},{"name":"genesisEpoch","type":"uint256","internalType":"uint256"},{"name":"circSupply","type":"uint256","internalType":"uint256"},{"name":"topDownNonce","type":"uint64","internalType":"uint64"},{"name":"appliedBottomUpNonce","type":"uint64","internalType":"uint64"},{"name":"id","type":"tuple","internalType":"struct SubnetID","components":[{"name":"root","type":"uint64","internalType":"uint64"},{"name":"route","type":"address[]","internalType":"address[]"}]}]}],"stateMutability":"view"},{"type":"function","name":"majorityPercentage","inputs":[],"outputs":[{"name":"","type":"uint64","internalType":"uint64"}],"stateMutability":"view"},{"type":"function","name":"maxMsgsPerBottomUpBatch","inputs":[],"outputs":[{"name":"","type":"uint64","internalType":"uint64"}],"stateMutability":"view"},{"type":"function","name":"postbox","inputs":[{"name":"id","type":"bytes32","internalType":"bytes32"}],"outputs":[{"name":"storableMsg","type":"tuple","internalType":"struct IpcEnvelope","components":[{"name":"kind","type":"uint8","internalType":"enum IpcMsgKind"},{"name":"to","type":"tuple","internalType":"struct IPCAddress","components":[{"name":"subnetId","type":"tuple","internalType":"struct SubnetID","components":[{"name":"root","type":"uint64","internalType":"uint64"},{"name":"route","type":"address[]","internalType":"address[]"}]},{"name":"rawAddress","type":"tuple","internalType":"struct FvmAddress","components":[{"name":"addrType","type":"uint8","internalType":"uint8"},{"name":"payload","type":"bytes","internalType":"bytes"}]}]},{"name":"from","type":"tuple","internalType":"struct IPCAddress","components":[{"name":"subnetId","type":"tuple","internalType":"struct SubnetID","components":[{"name":"root","type":"uint64","internalType":"uint64"},{"name":"route","type":"address[]","internalType":"address[]"}]},{"name":"rawAddress","type":"tuple","internalType":"struct FvmAddress","components":[{"name":"addrType","type":"uint8","internalType":"uint8"},{"name":"payload","type":"bytes","internalType":"bytes"}]}]},{"name":"nonce","type":"uint64","internalType":"uint64"},{"name":"value","type":"uint256","internalType":"uint256"},{"name":"message","type":"bytes","internalType":"bytes"}]}],"stateMutability":"view"},{"type":"function","name":"subnets","inputs":[{"name":"h","type":"bytes32","internalType":"bytes32"}],"outputs":[{"name":"subnet","type":"tuple","internalType":"struct Subnet","components":[{"name":"stake","type":"uint256","internalType":"uint256"},{"name":"genesisEpoch","type":"uint256","internalType":"uint256"},{"name":"circSupply","type":"uint256","internalType":"uint256"},{"name":"topDownNonce","type":"uint64","internalType":"uint64"},{"name":"appliedBottomUpNonce","type":"uint64","internalType":"uint64"},{"name":"id","type":"tuple","internalType":"struct SubnetID","components":[{"name":"root","type":"uint64","internalType":"uint64"},{"name":"route","type":"address[]","internalType":"address[]"}]}]}],"stateMutability":"view"},{"type":"function","name":"totalSubnets","inputs":[],"outputs":[{"name":"","type":"uint64","internalType":"uint64"}],"stateMutability":"view"}],"bytecode":{"object":"0x60808060405234601557611db1908161001b8239f35b600080fdfe6080604052600436101561001257600080fd5b60003560e01c806302e30f9a1461124e5780630338150f1461121d57806305aff0b3146111fc57806306572c1a146111cd57806306c46853146111af5780632da5794a146111575780633594c3c1146110b957806338d66932146110a357806341b6a2e81461107c57806342398a9a14611049578063444ead511461102b5780634aa8f8a51461100d578063544dddff14610fe6578063599c7bd114610fc55780635d02968514610e9d5780636ad21bb014610dbe5780637edeac9214610d795780638789f83b14610d4f5780638cfd78e714610cd257806394074b0314610c305780639704276614610ac55780639d3070b514610a79578063a2b6715814610a4f578063a517218f146109f1578063ac12d7631461094f578063b1ba49b014610928578063b3ab3f74146108f9578063c66c66a1146108a6578063ca41d5ce146104e2578063d6c5c39714610354578063dd81b5cf1461029f578063f3229131146101bc5763fa34a4001461018757600080fd5b346101b75760003660031901126101b75760406013546001600160401b038251918181168352831c166020820152f35b600080fd5b346101b75760003660031901126101b7576101d5611b12565b506040516101e281611634565b600954906101ef82611670565b916101fd604051938461164f565b808352600960009081527f6e1540171b6c0c960b71a7020d9f60077f6af931a8bbf590da0223dacf75c7af602085015b83831061025a57858552600a546001600160401b03166020860152604051806102568782611530565b0390f35b6003602060019260405161026d81611619565b85548152848060a01b0385870154168382015261028c600287016118ad565b604082015281520192019201919061022d565b346101b75760203660031901126101b7576060604080516102bf81611619565b6102c761173b565b8152600060208201520152600435600052602360205261033b6040600020610256604051916102f583611619565b6102fe81611792565b835261031860036002830154926020860193845201611a31565b604084019081526040519485946020865251606060208701526080860190611297565b9151604085015251838203601f19016060850152611453565b346101b75760003660031901126101b75761036d611879565b50610376611879565b5060015480156104cc57806001600160401b0343160490600182018092116104b6576103a191611b86565b80600052602260205261041f60406000206103fc6005604051926103c4846115cd565b6103cd81611792565b845260028101546020850152600381015460408501526001600160401b03600482015416606085015201611a31565b60808201526020815160405180948192630c133d1360e31b835260048301611b99565b038173__$a0fe38a9a81205afccc10810b09a4d3f45$__5af49182156104aa5760009261046b575b506102569060405193849315845260208401526060604084015260608301906114ac565b9091506020813d6020116104a2575b816104876020938361164f565b810103126101b75761049b61025691611b79565b9190610447565b3d915061047a565b6040513d6000823e3d90fd5b634e487b7160e01b600052601160045260246000fd5b634e487b7160e01b600052601260045260246000fd5b346101b75760203660031901126101b7576004356104fe611879565b50610507611b4e565b50806000526022602052604060002090610561600560405193610529856115cd565b61053281611792565b855260028101546020860152600381015460408601526001600160401b03600482015416606086015201611a31565b6080830152604051906308a6ad2560e01b8252600b6004830152602482015260008160448173__$dd40c2ca5826d197ed7e2b6aae8146ec7b$__5af49081156104aa576000809181936106aa575b50906105d093929161060560405195869561010087526101008701906114ac565b916020860190608080918051845260208101516020850152604081015160408501526060810151606085015201511515910152565b83810360c08501526020808351928381520192019060005b8181106106885750505082810360e0840152815180825260208201916020808360051b8301019401926000915b8383106106575786860387f35b919395509193602080610676600193601f19868203018752895161136c565b9701930193019092869594929361064a565b82516001600160a01b031684528695506020938401939092019160010161061d565b925090503d8082843e6106bd818461164f565b820182810360e081126108a25760a01361087257604051906106de826115cd565b8351825260208401516020830152604084015160408301526060840151606083015261070c60808501611b79565b608083015260a08401516001600160401b03811161086e5784019381601f8601121561086e57845161073d81611670565b9561074b604051978861164f565b81875260208088019260051b8201019084821161089e57602001915b81831061087a5750505060c0810151906001600160401b038211610876570181601f8201121561086e5780519161079d83611670565b946107ab604051968761164f565b83865260208087019460051b840101928284116108725760208101945b8486106107de57505050505050919091846105af565b85516001600160401b03811161086e57820184603f8201121561086e5760208101516001600160401b03811161085a5760405191610826601f8301601f19166020018461164f565b8183526040818301018710610856579161084b60209492859460408685019101611349565b8152019501946107c8565b8580fd5b634e487b7160e01b85526041600452602485fd5b8380fd5b5080fd5b8480fd5b82516001600160a01b038116810361089a57815260209283019201610767565b8780fd5b8680fd5b8280fd5b346101b7576108da6108d26108cd6108bd366114fd565b6108c5611755565b503690611687565b611bf8565b91909161180e565b90610256604051928392151583526040602084015260408301906112ef565b346101b75760203660031901126101b757600435600052600d6020526020600360406000200154604051908152f35b346101b75760003660031901126101b75760206001600160401b03600a5416604051908152f35b346101b75760203660031901126101b757610968611b4e565b50600435600052600d60205260a0604060002060ff60046040519261098c846115cd565b80548452600181015460208501526002810154604085015260038101546060850152015416151560808201526109ef6040518092608080918051845260208101516020850152604081015160408501526060810151606085015201511515910152565bf35b346101b75760003660031901126101b757610a0a611d30565b60405180916020820160208352815180915260206040840192019060005b818110610a36575050500390f35b8251845285945060209384019390920191600101610a28565b346101b75760003660031901126101b75760206001600160401b0360035460801c16604051908152f35b346101b75760203660031901126101b7576004356001600160401b0381116101b7576001600160401b036003610ab86108cd6020943690600401611687565b9050015416604051908152f35b346101b75760003660031901126101b757610ade611d30565b805190610aea82611670565b91610af8604051938461164f565b808352601f19610b0782611670565b0160005b818110610c1957505060005b6001600160401b03811682811015610bb1576001600160401b0391610ba982610b4260019488611ae8565b5160005260226020526040600020610b93600560405192610b62846115cd565b610b6b81611792565b8452600281015460208501526003810154604085015288600482015416606085015201611a31565b6080820152610ba2828a611ae8565b5287611ae8565b500116610b17565b846040518091602082016020835281518091526040830190602060408260051b8601019301916000905b828210610bea57505050500390f35b91936001919395506020610c098192603f198a820301865288516114ac565b9601920192018594939192610bdb565b602090610c24611879565b82828801015201610b0b565b346101b75760003660031901126101b757610c4961173b565b50604051610c5681611634565b6001600160401b0360125416815260405190816020601354918281520190601360005260206000209060005b818110610cb3576102568587610c9a8188038261164f565b6020820152604051918291602083526020830190611297565b82546001600160a01b0316845260209093019260019283019201610c82565b346101b75760203660031901126101b757606060a0604051610cf3816115fe565b60008152610cff611b2c565b6020820152610d0c611b2c565b60408201526000838201526000608082015201526004356000526021602052610256610d3b60406000206119c3565b6040519182916020835260208301906113cd565b346101b75760003660031901126101b75760206001600160401b0360035460401c16604051908152f35b346101b75760203660031901126101b757610d92611860565b50610256610da1600435611cfe565b604051918291829190916020806040830194805184520151910152565b346101b75760003660031901126101b757610dd7611b12565b50604051610de481611634565b60075490610df182611670565b91610dff604051938461164f565b808352600760009081527fa66cc928b5edb82af9bd49922954155ab7b0942694bea4ce44661d9a8736c688602085015b838310610e58578585526008546001600160401b03166020860152604051806102568782611530565b60036020600192604051610e6b81611619565b85548152848060a01b03858701541683820152610e8a600287016118ad565b6040820152815201920192019190610e2f565b346101b75760003660031901126101b757602454610eba81611670565b90610ec8604051928361164f565b808252601f19610ed782611670565b0160005b818110610fae57505060005b81811015610f4657600190610f2a60406000837f7cd332d19b93bcabe3cce7ca0c18a052f57e5fd03b4758a09f30f5ddc4b22ec401548152601f6020522061180e565b610f348286611ae8565b52610f3f8185611ae8565b5001610ee7565b826040518091602082016020835281518091526040830190602060408260051b8601019301916000905b828210610f7f57505050500390f35b91936001919395506020610f9e8192603f198a820301865288516112ef565b9601920192018594939192610f70565b602090610fb9611755565b82828701015201610edb565b346101b75760003660031901126101b757602060ff60045416604051908152f35b346101b75760003660031901126101b75760206001600160401b0360085416604051908152f35b346101b75760003660031901126101b7576020600c54604051908152f35b346101b75760003660031901126101b7576020600554604051908152f35b346101b75761105f61105a366114fd565b611abf565b6040805192151583526001600160401b0391909116602083015290f35b346101b75760003660031901126101b75760206001600160401b0360035416604051908152f35b346101b75761105f6110b4366114fd565b611a8a565b346101b75760003660031901126101b75760405160245490818152602081018092602460005260206000209060005b81811061114157505050816110fe91038261164f565b6040519182916020830190602084525180915260408301919060005b818110611128575050500390f35b825184528594506020938401939092019160010161111a565b82548452602090930192600192830192016110e8565b346101b75760203660031901126101b757611170611879565b50600435600052602260205261025660406000206111966005604051926103c4846115cd565b60808201526040519182916020835260208301906114ac565b346101b75760003660031901126101b7576020600154604051908152f35b346101b75760203660031901126101b757602060646111f360ff60045416600435611b86565b04604051908152f35b346101b75760003660031901126101b757602060035460c01c604051908152f35b346101b75760003660031901126101b757611236611860565b5061123f611860565b50610256610da1600054611cfe565b346101b75760203660031901126101b757611267611755565b50600435600052601f602052610256611283604060002061180e565b6040519182916020835260208301906112ef565b602060608160408501936001600160401b03815116865201519360408382015284518094520192019060005b8181106112d05750505090565b82516001600160a01b03168452602093840193909201916001016112c3565b9060c060a0611346938051845260208101516020850152604081015160408501526001600160401b0360608201511660608501526001600160401b0360808201511660808501520151918160a08201520190611297565b90565b60005b83811061135c5750506000910152565b818101518382015260200161134c565b9060209161138581518092818552858086019101611349565b601f01601f1916010190565b6040602061134693816113ab855185845285840190611297565b940151908281860391015260ff8151168452015191816020820152019061136c565b805191600383101561143d5761134692815260a061140f6113fd602085015160c0602086015260c0850190611391565b60408501518482036040860152611391565b926001600160401b0360608201511660608401526080810151608084015201519060a081840391015261136c565b634e487b7160e01b600052602160045260246000fd5b9080602083519182815201916020808360051b8301019401926000915b83831061147f57505050505090565b909192939460208061149d600193601f1986820301875289516113cd565b97019301930191939290611470565b6113469160806114c5835160a0845260a0840190611297565b9260208101516020840152604081015160408401526001600160401b0360608201511660608401520151906080818403910152611453565b60206003198201126101b757600435906001600160401b0382116101b75760409082900360031901126101b75760040190565b6020815260608101918051926040602084015283518091526080830190602060808260051b8601019501916000905b82821061158057505050506001600160401b03602060409201511691015290565b909192956020806115bf600193607f198a8203018652606060408c5180518452878060a01b03868201511686850152015191816040820152019061136c565b98019201920190929161155f565b60a081019081106001600160401b038211176115e857604052565b634e487b7160e01b600052604160045260246000fd5b60c081019081106001600160401b038211176115e857604052565b606081019081106001600160401b038211176115e857604052565b604081019081106001600160401b038211176115e857604052565b90601f801991011681019081106001600160401b038211176115e857604052565b6001600160401b0381116115e85760051b60200190565b91906040838203126101b75760405161169f81611634565b809380356001600160401b03811681036101b75782526020810135906001600160401b0382116101b757019180601f840112156101b7578235906116e282611670565b936116f0604051958661164f565b82855260208086019360051b8201019182116101b757602001915b81831061171b5750505060200152565b82356001600160a01b03811681036101b75781526020928301920161170b565b6040519061174882611634565b6060602083600081520152565b60405190611762826115fe565b81600081526000602082015260006040820152600060608201526000608082015260a061178d61173b565b910152565b9060405161179f81611634565b600181936001600160401b0381541683520190604051809283916020825491828152019160005260206000209060005b8181106117ec57505050602092916117e891038461164f565b0152565b82546001600160a01b03168452869450602090930192600192830192016117cf565b9060405161181b816115fe565b60a061178d600483958054855260018101546020860152600281015460408601526001600160401b036003820154818116606088015260401c16608086015201611792565b6040519061186d82611634565b60006020838281520152565b60405190611886826115cd565b606060808361189361173b565b815260006020820152600060408201526000838201520152565b906040519160008154918260011c92600181168015611973575b60208510811461195f5784875286939291811561193d57506001146118f6575b506118f49250038361164f565b565b90506000929192526020600020906000915b8183106119215750509060206118f492820101386118e7565b6020919350806001915483858901015201910190918492611908565b9050602092506118f494915060ff191682840152151560051b820101386118e7565b634e487b7160e01b84526022600452602484fd5b93607f16936118c7565b906040519161198b83611634565b60208361199783611792565b81526119bb6003604051946119ab86611634565b60ff6002820154168652016118ad565b828401520152565b906040516119d0816115fe565b809260ff81541690600382101561143d57600b61178d9160a09385526119f86001820161197d565b6020860152611a096005820161197d565b60408601526001600160401b036009820154166060860152600a8101546080860152016118ad565b908154611a3d81611670565b92611a4b604051948561164f565b818452602084019060005260206000206000915b838310611a6c5750505050565b600c6020600192611a7c856119c3565b815201920192019190611a5f565b6108cd611a98913690611687565b9015611ab65760036001600160401b0391015460401c169060019190565b50600090600090565b6108cd611acd913690611687565b9015611ab65760036001600160401b03910154169060019190565b8051821015611afc5760209160051b010190565b634e487b7160e01b600052603260045260246000fd5b60405190611b1f82611634565b6000602083606081520152565b60405190611b3982611634565b81611b4261173b565b8152602061178d61173b565b60405190611b5b826115cd565b60006080838281528260208201528260408201528260608201520152565b519081151582036101b757565b818102929181159184041417156104b657565b9060208252602060808160608501936001600160401b038151168287015201519360408082015284518094520192019060005b818110611bd95750505090565b82516001600160a01b0316845260209384019390920191600101611bcc565b611c2d602073__$a0fe38a9a81205afccc10810b09a4d3f45$__92604051809381926390ba52cf60e01b835260048301611b99565b0381855af49081156104aa57600091611ccc575b50600052601f602052611c7d6020604060002092611c6160048501611792565b906040518080958194630c133d1360e31b835260048301611b99565b03915af49081156104aa57600091611c9457501591565b90506020813d602011611cc4575b81611caf6020938361164f565b810103126101b757611cc090611b79565b1591565b3d9150611ca2565b90506020813d602011611cf6575b81611ce76020938361164f565b810103126101b7575138611c41565b3d9150611cda565b611d06611860565b50600052602080526040600020600160405191611d2283611634565b805483520154602082015290565b60405190600e548083528260208101600e60005260206000209260005b818110611d625750506118f49250038361164f565b8454835260019485019487945060209093019201611d4d56fea264697066735822122092476963f20ab2f9a56e87dad755e600573972fc39a03648491a099d725e8d3a64736f6c634300081a0033","linkReferences":{"src/lib/LibQuorum.sol":{"LibQuorum":[{"start":1443,"length":20}]},"src/lib/SubnetIDHelper.sol":{"SubnetIDHelper":[{"start":1086,"length":20},{"start":7194,"length":20}]}}},"methodIdentifiers":{"appliedTopDownNonce()":"8789f83b","bottomUpCheckPeriod()":"06c46853","bottomUpCheckpoint(uint256)":"2da5794a","bottomUpMsgBatch(uint256)":"dd81b5cf","bottomUpNonce()":"41b6a2e8","getAppliedBottomUpNonce((uint64,address[]))":"38d66932","getCheckpointCurrentWeight(uint256)":"b3ab3f74","getCheckpointInfo(uint256)":"ac12d763","getCheckpointRetentionHeight()":"4aa8f8a5","getCheckpointSignatureBundle(uint256)":"ca41d5ce","getCommitSha()":"444ead51","getCurrentBottomUpCheckpoint()":"d6c5c397","getCurrentConfigurationNumber()":"544dddff","getCurrentMembership()":"6ad21bb0","getIncompleteCheckpointHeights()":"a517218f","getIncompleteCheckpoints()":"97042766","getLastConfigurationNumber()":"b1ba49b0","getLastMembership()":"f3229131","getLatestParentFinality()":"0338150f","getNetworkName()":"94074b03","getParentFinality(uint256)":"7edeac92","getQuorumThreshold(uint256)":"06572c1a","getSubnet((uint64,address[]))":"c66c66a1","getSubnetKeys()":"3594c3c1","getSubnetTopDownMsgsLength((uint64,address[]))":"9d3070b5","getTopDownNonce((uint64,address[]))":"42398a9a","getValidatorConfigurationNumbers()":"fa34a400","listSubnets()":"5d029685","majorityPercentage()":"599c7bd1","maxMsgsPerBottomUpBatch()":"05aff0b3","postbox(bytes32)":"8cfd78e7","subnets(bytes32)":"02e30f9a","totalSubnets()":"a2b67158"},"id":59}