{"abi":[{"type":"function","name":"commonParent","inputs":[{"name":"subnet1","type":"tuple","internalType":"struct SubnetID","components":[{"name":"root","type":"uint64","internalType":"uint64"},{"name":"route","type":"address[]","internalType":"address[]"}]},{"name":"subnet2","type":"tuple","internalType":"struct SubnetID","components":[{"name":"root","type":"uint64","internalType":"uint64"},{"name":"route","type":"address[]","internalType":"address[]"}]}],"outputs":[{"name":"","type":"tuple","internalType":"struct SubnetID","components":[{"name":"root","type":"uint64","internalType":"uint64"},{"name":"route","type":"address[]","internalType":"address[]"}]}],"stateMutability":"pure"},{"type":"function","name":"createSubnetId","inputs":[{"name":"subnet","type":"tuple","internalType":"struct SubnetID","components":[{"name":"root","type":"uint64","internalType":"uint64"},{"name":"route","type":"address[]","internalType":"address[]"}]},{"name":"actor","type":"address","internalType":"address"}],"outputs":[{"name":"newSubnet","type":"tuple","internalType":"struct SubnetID","components":[{"name":"root","type":"uint64","internalType":"uint64"},{"name":"route","type":"address[]","internalType":"address[]"}]}],"stateMutability":"pure"},{"type":"function","name":"down","inputs":[{"name":"subnet1","type":"tuple","internalType":"struct SubnetID","components":[{"name":"root","type":"uint64","internalType":"uint64"},{"name":"route","type":"address[]","internalType":"address[]"}]},{"name":"subnet2","type":"tuple","internalType":"struct SubnetID","components":[{"name":"root","type":"uint64","internalType":"uint64"},{"name":"route","type":"address[]","internalType":"address[]"}]}],"outputs":[{"name":"","type":"tuple","internalType":"struct SubnetID","components":[{"name":"root","type":"uint64","internalType":"uint64"},{"name":"route","type":"address[]","internalType":"address[]"}]}],"stateMutability":"pure"},{"type":"function","name":"equals","inputs":[{"name":"subnet1","type":"tuple","internalType":"struct SubnetID","components":[{"name":"root","type":"uint64","internalType":"uint64"},{"name":"route","type":"address[]","internalType":"address[]"}]},{"name":"subnet2","type":"tuple","internalType":"struct SubnetID","components":[{"name":"root","type":"uint64","internalType":"uint64"},{"name":"route","type":"address[]","internalType":"address[]"}]}],"outputs":[{"name":"","type":"bool","internalType":"bool"}],"stateMutability":"pure"},{"type":"function","name":"getActor","inputs":[{"name":"subnet","type":"tuple","internalType":"struct SubnetID","components":[{"name":"root","type":"uint64","internalType":"uint64"},{"name":"route","type":"address[]","internalType":"address[]"}]}],"outputs":[{"name":"","type":"address","internalType":"address"}],"stateMutability":"pure"},{"type":"function","name":"getAddress","inputs":[{"name":"subnet","type":"tuple","internalType":"struct SubnetID","components":[{"name":"root","type":"uint64","internalType":"uint64"},{"name":"route","type":"address[]","internalType":"address[]"}]}],"outputs":[{"name":"","type":"address","internalType":"address"}],"stateMutability":"pure"},{"type":"function","name":"getParentSubnet","inputs":[{"name":"subnet","type":"tuple","internalType":"struct SubnetID","components":[{"name":"root","type":"uint64","internalType":"uint64"},{"name":"route","type":"address[]","internalType":"address[]"}]}],"outputs":[{"name":"","type":"tuple","internalType":"struct SubnetID","components":[{"name":"root","type":"uint64","internalType":"uint64"},{"name":"route","type":"address[]","internalType":"address[]"}]}],"stateMutability":"pure"},{"type":"function","name":"isEmpty","inputs":[{"name":"subnetId","type":"tuple","internalType":"struct SubnetID","components":[{"name":"root","type":"uint64","internalType":"uint64"},{"name":"route","type":"address[]","internalType":"address[]"}]}],"outputs":[{"name":"","type":"bool","internalType":"bool"}],"stateMutability":"pure"},{"type":"function","name":"isRoot","inputs":[{"name":"subnet","type":"tuple","internalType":"struct SubnetID","components":[{"name":"root","type":"uint64","internalType":"uint64"},{"name":"route","type":"address[]","internalType":"address[]"}]}],"outputs":[{"name":"","type":"bool","internalType":"bool"}],"stateMutability":"pure"},{"type":"function","name":"toHash","inputs":[{"name":"subnet","type":"tuple","internalType":"struct SubnetID","components":[{"name":"root","type":"uint64","internalType":"uint64"},{"name":"route","type":"address[]","internalType":"address[]"}]}],"outputs":[{"name":"","type":"bytes32","internalType":"bytes32"}],"stateMutability":"pure"},{"type":"function","name":"toString","inputs":[{"name":"subnet","type":"tuple","internalType":"struct SubnetID","components":[{"name":"root","type":"uint64","internalType":"uint64"},{"name":"route","type":"address[]","internalType":"address[]"}]}],"outputs":[{"name":"","type":"string","internalType":"string"}],"stateMutability":"pure"},{"type":"error","name":"DifferentRootNetwork","inputs":[]},{"type":"error","name":"EmptySubnet","inputs":[]},{"type":"error","name":"InvalidRoute","inputs":[]},{"type":"error","name":"NoAddressForRoot","inputs":[]},{"type":"error","name":"NoParentForSubnet","inputs":[]},{"type":"error","name":"StringsInsufficientHexLength","inputs":[{"name":"value","type":"uint256","internalType":"uint256"},{"name":"length","type":"uint256","internalType":"uint256"}]}],"bytecode":{"object":"0x6080806040523461001a57610f269081610020823930815050f35b600080fdfe6080604052600436101561001257600080fd5b60003560e01c8063089032d514610751578063118e84ee146106a4578063138e13fc1461064f578063399912661461062e57806359feac42146106095780636099e898146105c3578063862a88f81461057b57806390ba52cf14610560578063aa5106cb14610456578063c836244d146104385763e4ebe92c1461009557600080fd5b61009e36610ac6565b6001600160401b036100af82610b7a565b166000817a184f03e93ff9f4daa797ed6e38ed64bf6a1f0100000000000000008082101561042a575b506d04ee2d6d415b85acef81000000008082101561041d575b50662386f26fc1000080821015610410575b506305f5e10080821015610403575b50612710808210156103f6575b5060648110156103e8575b600a809110156103de575b600182019061015c61014683610be7565b9261015460405194856109a1565b808452610be7565b938160216020850195601f198098013688378501015b60001901916f181899199a1a9b1b9c1cb0b131b232b360811b8282061a8353049081156101a0578290610172565b50505060226101da916101ca936040519485926117b960f11b602085015251809285850190610af7565b81010360028101845201826109a1565b916101e86020820182610b8e565b90506000915b81831061022657601f6040868682519384926020845261021d8151809281602088015260208888019101610af7565b01168101030190f35b909193610260602160405183610246829551809260208086019101610af7565b8101602f60f81b60208201520360018101845201826109a1565b846102886102836102746020860186610b8e565b6001600160a01b039491610bc3565b610bd3565b169081604051928360608101106001600160401b036060860111176103c85760608401604052602a845260403660208601378351156103b257603060208501538351600110156103b2576078602185015360295b60018111610353575061033457509061032b6020600193604051938161030b8693518092868087019101610af7565b820161031f82518093868085019101610af7565b010380845201826109a1565b940191906101ee565b6044906040519063e22e27eb60e01b8252600482015260146024820152fd5b906010600f821610156103b25784518210156103b2576f181899199a1a9b1b9c1cb0b131b232b360811b600f82161a8583016020015360041c90801561039c57600019016102dc565b634e487b7160e01b600052601160045260246000fd5b634e487b7160e01b600052603260045260246000fd5b634e487b7160e01b600052604160045260246000fd5b9060010190610135565b60646002910491019061012a565b600491049101903861011f565b6008910491019038610112565b6010910491019038610103565b60209104910190386100f1565b9150508104604090386100d8565b602061044c610446366108bf565b90610d0d565b6040519015158152f35b60031960403682011261055b57600435906001600160401b039081831161055b5760408360040191843603011261055b576001600160a01b03602435818116949085900361055b576024906104a9610b2e565b946104b385610b7a565b16855201916104c28382610b8e565b92905060019283810180911161039c576104db90610b48565b93602086019485526104ed8184610b8e565b93905060005b84811061052c578888885191825192600019840193841161039c576105289361051b91610b1a565b526040519182918261090c565b0390f35b80610545610283889361053f8787610b8e565b90610bc3565b85610551838b51610b1a565b91169052016104f3565b600080fd5b602061057361056e36610ac6565b610c02565b604051908152f35b602061058636610ac6565b61059282820182610b8e565b90501590816105a7575b506040519015158152f35b6001600160401b0391506105ba90610b7a565b1615158261059c565b60206105ce36610ac6565b6105da82820182610b8e565b90501590816105ee57506040519015158152f35b6001600160401b03915061060190610b7a565b16158261059c565b602061061c61061736610ac6565b610cbe565b6040516001600160a01b039091168152f35b61052861064361063d366108bf565b90610d6a565b6040519182918261090c565b602061065a36610a01565b018051519081156106925751600019820191821161039c576020916001600160a01b03916106889190610b1a565b5116604051908152f35b60405163142b83b360e31b8152600490fd5b6106ad36610a01565b6106b5610b2e565b5060208101908151511561073f57815151600019810190811161039c576106db90610b48565b90815160005b81811061071857610528846001600160401b0385511690604051916107058361096b565b825260208201526040519182918261090c565b600190818060a01b0361072c828851610b1a565b51166107388287610b1a565b52016106e1565b604051632f10c6c160e01b8152600490fd5b61075a366108bf565b610762610b2e565b5061076c82610b7a565b6001600160401b0390818061078085610b7a565b169116036108ad57602083016107968185610b8e565b6020850191506107a68286610b8e565b919050111561089b576000936107bc8282610b8e565b9590505b8581108061085c575b156107d6576001016107c0565b84848892600019811461039c5760018091016107f181610b48565b9260005b82811061082c57610528868661080a8a610b7a565b91604051926108188461096b565b16825260208201526040519182918261090c565b8061083f610283869361053f868c610b8e565b6108498288610b1a565b6001600160a01b039091169052016107f5565b5061086e6102838261053f878b610b8e565b6108788484610b8e565b6001600160a01b0391829161089291610283918791610bc3565b169116146107c9565b60405163427282e960e11b8152600490fd5b604051637185935560e01b8152600490fd5b600319919060408382011261055b576001600160401b039060043582811161055b57604085828403011261055b576004019360243592831161055b578260409203011261055b5760040190565b906020908183528160808160608601936001600160401b038151168288015201519460408082015285518094520193019160005b82811061094e575050505090565b83516001600160a01b031685529381019392810192600101610940565b604081019081106001600160401b038211176103c857604052565b602081019081106001600160401b038211176103c857604052565b90601f801991011681019081106001600160401b038211176103c857604052565b35906001600160401b038216820361055b57565b6001600160401b0381116103c85760051b60200190565b35906001600160a01b038216820361055b57565b600319906020828201811361055b57600435926001600160401b039081851161055b57604090858503011261055b5760405193610a3d8561096b565b610a49816004016109c2565b8552602481013591821161055b5701918060238401121561055b576004830135610a72816109d6565b93610a8060405195866109a1565b81855260248486019260051b82010192831161055b576024849101915b838310610aae575050505082015290565b8190610ab9846109ed565b8152019101908390610a9d565b6003199060208183011261055b57600435916001600160401b03831161055b578260409203011261055b5760040190565b60005b838110610b0a5750506000910152565b8181015183820152602001610afa565b80518210156103b25760209160051b010190565b60405190610b3b8261096b565b6060602083600081520152565b90610b52826109d6565b610b5f60405191826109a1565b8281528092610b70601f19916109d6565b0190602036910137565b356001600160401b038116810361055b5790565b903590601e198136030182121561055b57018035906001600160401b03821161055b57602001918160051b3603831361055b57565b91908110156103b25760051b0190565b356001600160a01b038116810361055b5790565b6001600160401b0381116103c857601f01601f191660200190565b6040516020808201818152926001600160401b0391608084019183610c26826109c2565b16604086015281810135601e198236030181121561055b570191818335930193831161055b578260051b3603841361055b5760406060860152829052839160a083019160005b828110610c8f57505050610c89925003601f1981018352826109a1565b51902090565b91935091600190839081906001600160a01b03610cab896109ed565b1681520195019101918593919492610c6c565b6020810190610ccd8282610b8e565b905015610d0657610ce9610ce18383610b8e565b939092610b8e565b60001981019150811161039c57610d039261028392610bc3565b90565b5050600090565b610d1681610b7a565b6001600160401b0380610d2885610b7a565b16911603610d0657610d3d6020820182610b8e565b9050610d4c6020840184610b8e565b91905003610d0657610d60610d6691610c02565b91610c02565b1490565b90610d73610b2e565b50610d7d82610b7a565b906001600160401b03918280610d9284610b7a565b16911603610ec4579160208101906000610dac8383610b8e565b95905060208101610dbd8183610b8e565b9390505b87811080610ebb575b80610e7c575b15610ddd57600101610dc1565b93949596505050508015610e5257610df481610b48565b9260005b828110610e2457505050610e0b90610b7a565b9160405192610e198461096b565b168252602082015290565b80610e3861028360019361053f8689610b8e565b610e428288610b1a565b90838060a01b0316905201610df8565b50610e5d9150610b7a565b9060405190610e6b82610986565b6000825260405192610e198461096b565b50610e8e6102838261053f8989610b8e565b610e988385610b8e565b6001600160a01b03918291610eb291610283918791610bc3565b16911614610dd0565b50838110610dca565b505050604051610ed381610986565b6000815260405190610ee48261096b565b6000825260208201529056fea26469706673582212204730209345973a41307c0b2a0d66e609de689a3f554874222364eca471d51b4664736f6c63430008130033","linkReferences":{}},"methodIdentifiers":{"commonParent(SubnetID,SubnetID)":"39991266","createSubnetId(SubnetID,address)":"aa5106cb","down(SubnetID,SubnetID)":"089032d5","equals(SubnetID,SubnetID)":"c836244d","getActor(SubnetID)":"59feac42","getAddress(SubnetID)":"138e13fc","getParentSubnet(SubnetID)":"118e84ee","isEmpty(SubnetID)":"6099e898","isRoot(SubnetID)":"862a88f8","toHash(SubnetID)":"90ba52cf","toString(SubnetID)":"e4ebe92c"},"id":69}