{"abi":[{"type":"function","name":"addStake","inputs":[],"outputs":[],"stateMutability":"payable"},{"type":"function","name":"fund","inputs":[{"name":"subnetId","type":"tuple","internalType":"struct SubnetID","components":[{"name":"root","type":"uint64","internalType":"uint64"},{"name":"route","type":"address[]","internalType":"address[]"}]},{"name":"to","type":"tuple","internalType":"struct FvmAddress","components":[{"name":"addrType","type":"uint8","internalType":"uint8"},{"name":"payload","type":"bytes","internalType":"bytes"}]}],"outputs":[],"stateMutability":"payable"},{"type":"function","name":"fundWithToken","inputs":[{"name":"subnetId","type":"tuple","internalType":"struct SubnetID","components":[{"name":"root","type":"uint64","internalType":"uint64"},{"name":"route","type":"address[]","internalType":"address[]"}]},{"name":"to","type":"tuple","internalType":"struct FvmAddress","components":[{"name":"addrType","type":"uint8","internalType":"uint8"},{"name":"payload","type":"bytes","internalType":"bytes"}]},{"name":"amount","type":"uint256","internalType":"uint256"}],"outputs":[],"stateMutability":"nonpayable"},{"type":"function","name":"kill","inputs":[],"outputs":[],"stateMutability":"nonpayable"},{"type":"function","name":"register","inputs":[{"name":"genesisCircSupply","type":"uint256","internalType":"uint256"}],"outputs":[],"stateMutability":"payable"},{"type":"function","name":"release","inputs":[{"name":"to","type":"tuple","internalType":"struct FvmAddress","components":[{"name":"addrType","type":"uint8","internalType":"uint8"},{"name":"payload","type":"bytes","internalType":"bytes"}]}],"outputs":[],"stateMutability":"payable"},{"type":"function","name":"releaseStake","inputs":[{"name":"amount","type":"uint256","internalType":"uint256"}],"outputs":[],"stateMutability":"nonpayable"},{"type":"event","name":"NewBottomUpMsgBatch","inputs":[{"name":"epoch","type":"uint256","indexed":true,"internalType":"uint256"}],"anonymous":false},{"type":"event","name":"NewTopDownMessage","inputs":[{"name":"subnet","type":"address","indexed":true,"internalType":"address"},{"name":"message","type":"tuple","indexed":false,"internalType":"struct IpcEnvelope","components":[{"name":"kind","type":"uint8","internalType":"enum IpcMsgKind"},{"name":"to","type":"tuple","internalType":"struct IPCAddress","components":[{"name":"subnetId","type":"tuple","internalType":"struct SubnetID","components":[{"name":"root","type":"uint64","internalType":"uint64"},{"name":"route","type":"address[]","internalType":"address[]"}]},{"name":"rawAddress","type":"tuple","internalType":"struct FvmAddress","components":[{"name":"addrType","type":"uint8","internalType":"uint8"},{"name":"payload","type":"bytes","internalType":"bytes"}]}]},{"name":"from","type":"tuple","internalType":"struct IPCAddress","components":[{"name":"subnetId","type":"tuple","internalType":"struct SubnetID","components":[{"name":"root","type":"uint64","internalType":"uint64"},{"name":"route","type":"address[]","internalType":"address[]"}]},{"name":"rawAddress","type":"tuple","internalType":"struct FvmAddress","components":[{"name":"addrType","type":"uint8","internalType":"uint8"},{"name":"payload","type":"bytes","internalType":"bytes"}]}]},{"name":"nonce","type":"uint64","internalType":"uint64"},{"name":"value","type":"uint256","internalType":"uint256"},{"name":"message","type":"bytes","internalType":"bytes"}]}],"anonymous":false},{"type":"error","name":"AddressEmptyCode","inputs":[{"name":"target","type":"address","internalType":"address"}]},{"type":"error","name":"AddressInsufficientBalance","inputs":[{"name":"account","type":"address","internalType":"address"}]},{"type":"error","name":"AlreadyRegisteredSubnet","inputs":[]},{"type":"error","name":"CallFailed","inputs":[]},{"type":"error","name":"CannotReleaseZero","inputs":[]},{"type":"error","name":"FailedInnerCall","inputs":[]},{"type":"error","name":"InsufficientFunds","inputs":[]},{"type":"error","name":"InvalidActorAddress","inputs":[]},{"type":"error","name":"InvalidXnetMessage","inputs":[{"name":"reason","type":"uint8","internalType":"enum InvalidXnetMessageReason"}]},{"type":"error","name":"MethodNotAllowed","inputs":[{"name":"reason","type":"string","internalType":"string"}]},{"type":"error","name":"NoBalanceIncrease","inputs":[]},{"type":"error","name":"NotEmptySubnetCircSupply","inputs":[]},{"type":"error","name":"NotEnoughFunds","inputs":[]},{"type":"error","name":"NotEnoughFundsToRelease","inputs":[]},{"type":"error","name":"NotRegisteredSubnet","inputs":[]},{"type":"error","name":"ReentrancyError","inputs":[]},{"type":"error","name":"SafeERC20FailedOperation","inputs":[{"name":"token","type":"address","internalType":"address"}]},{"type":"error","name":"UnexpectedSupplySource","inputs":[]}],"bytecode":{"object":"0x60808060405234601557612788908161001b8239f35b600080fdfe6080604052600436101561001257600080fd5b60003560e01c80630517e1aa1461097f57806318f44b701461076257806341c0e1b5146105fe57806345f54485146104a85780635a627dbc146104675780636b2c1eef1461033e5763f207564e1461006957600080fd5b602036600319011261022b57600435601354600181018091116103285760ff6006541611156102bc578034106102ab576100e46100a682346112c6565b916100af611147565b90600073__$a0fe38a9a81205afccc10810b09a4d3f45$__926040518095819263aa5106cb60e01b8352339060048401611388565b0381855af492831561023857600093610288575b50610102836113e6565b90610277576001600160401b038451166001600160401b036004830191166001600160401b0319825416179055600581019460208501518051906001600160401b03821161026157602090610157838a611292565b019660005260206000209660005b82811061024457838555436001860155600285018690556040516390ba52cf60e01b8152602060048201819052818981806101a3602482018f610ce9565b03915af48015610238576000906101ff575b6101be90612676565b5060035467ffffffffffffffff60801b6101e4608083901c6001600160401b03166113b0565b60801b1667ffffffffffffffff60801b199190911617600355005b506020813d602011610230575b8161021960209383610bd3565b8101031261022b576101be90516101b5565b600080fd5b3d915061020c565b6040513d6000823e3d90fd5b81516001600160a01b0316818a0155602090910190600101610165565b634e487b7160e01b600052604160045260246000fd5b631b538cdf60e11b60005260046000fd5b6102a491933d8091833e61029c8183610bd3565b810190611363565b91386100f8565b631036b5ad60e31b60005260046000fd5b6103246040516102cd606082610bd3565b602381527f5375626e657420646f6573206e6f7420616c6c6f77206368696c64207375626e60208201526265747360e81b604082015260405191829163015538b160e01b835260206004840152602483019061133e565b0390fd5b634e487b7160e01b600052601160045260246000fd5b602036600319011261022b576004356001600160401b03811161022b576040600319823603011261022b5734156104515760006103b49160405180938192630c30422f60e11b835260806004840152610399608484016112e0565b33602485015283810360031901604485015290600401611018565b346064830152038173__$33b79814e84bf6cf5e47244090b19ce5f8$__5af48015610238576103eb9160009161042e575b506121b8565b34471061041d5760008080803460635af16104046119d4565b501561040c57005b633204506f60e01b60005260046000fd5b63356680b760e01b60005260046000fd5b61044b91503d806000833e6104438183610bd3565b810190610f50565b826103e5565b63bc0f01cf60e01b600052600360045260246000fd5b600036600319011261022b5734156102ab576104823361193b565b9015610497576104933482546112d3565b9055005b630e991abd60e41b60005260046000fd5b3461022b57602036600319011261022b57600435600160008051602061273383398151915254146105ed5760016000805160206127338339815191525580156105dc576104f43361193b565b9190156104975781548181106105cb57610521600461054294610519856020956112c6565b8155016111dd565b60405180948192632cff562160e11b83528460048401526024830190610ce9565b038173__$a0fe38a9a81205afccc10810b09a4d3f45$__5af4801561023857600090610590575b61057c92506001600160a01b0316611a04565b600060008051602061273383398151915255005b506020823d6020116105c3575b816105aa60209383610bd3565b8101031261022b576105be61057c92610cd5565b610569565b3d915061059d565b6379b33e7960e01b60005260046000fd5b63c79cad7b60e01b60005260046000fd5b6329f745a760e01b60005260046000fd5b3461022b57600036600319011261022b576106183361193b565b90156104975760028101546107515780602061063b600461065c945493016111dd565b604051809481926390ba52cf60e01b83528460048401526024830190610ce9565b038173__$a0fe38a9a81205afccc10810b09a4d3f45$__5af49182156102385760009261071a575b50600354916000196001600160401b038460801c1601906001600160401b0382116103285761071893610711926001600160401b0360801b9060801b16906001600160401b0360801b19161760035580600052601f60205261070c6005604060002060008155600060018201556000600282015560006003820155600060048201550161126c565b61258e565b5033611a04565b005b90916020823d602011610749575b8161073560209383610bd3565b810103126107465750519082610684565b80fd5b3d9150610728565b637c67c70160e11b60005260046000fd5b604036600319011261022b576004356001600160401b03811161022b5760408160040191600319903603011261022b576024356001600160401b03811161022b576040600319823603011261022b573415610451576107c96107c43684610c33565b6113e6565b5015610497576107ff60206107de3685610c33565b60405180938192632cff562160e11b83528460048401526024830190610ce9565b038173__$a0fe38a9a81205afccc10810b09a4d3f45$__5af490811561023857600091610940575b50604080516380875df760e01b815291829060049082906001600160a01b03165afa90811561023857600091610911575b50519160028310156108fb576000926108ec57610894918391604051938492839263266a83ad60e21b8452349160040190339060048601611083565b038173__$33b79814e84bf6cf5e47244090b19ce5f8$__5af480156108e1576108c49183916108c7575b5061172a565b80f35b6108db91503d8085833e6104438183610bd3565b836108be565b6040513d84823e3d90fd5b6340772cb360e11b8352600483fd5b634e487b7160e01b600052602160045260246000fd5b610933915060403d604011610939575b61092b8183610bd3565b810190610d41565b83610858565b503d610921565b90506020813d602011610977575b8161095b60209383610bd3565b8101031261022b576040610970600492610cd5565b9150610827565b3d915061094e565b3461022b57606036600319011261022b576004356001600160401b03811161022b5760408160040191600319903603011261022b576024356001600160401b03811161022b576040600319823603011261022b5760443591600160008051602061273383398151915254146105ed57600160008051602061273383398151915255821561045157610a136107c43683610c33565b501561049757610a4a926020610a293684610c33565b60405180968192632cff562160e11b83528460048401526024830190610ce9565b038173__$a0fe38a9a81205afccc10810b09a4d3f45$__5af493841561023857600094610b5e575b50604080516380875df760e01b815294859060049082906001600160a01b03165afa93841561023857600094610b3d575b5083519360028510156108fb57600160009503610b2e57849291610ac6916114ef565b92610aeb604051948593849363266a83ad60e21b855260040190339060048601611083565b038173__$33b79814e84bf6cf5e47244090b19ce5f8$__5af480156108e157610b1a9183916108c7575061172a565b806000805160206127338339815191525580f35b6340772cb360e11b8552600485fd5b610b5791945060403d6040116109395761092b8183610bd3565b9284610aa3565b93506020843d602011610b95575b81610b7960209383610bd3565b8101031261022b576040610b8e600495610cd5565b9450610a72565b3d9150610b6c565b604081019081106001600160401b0382111761026157604052565b60c081019081106001600160401b0382111761026157604052565b90601f801991011681019081106001600160401b0382111761026157604052565b35906001600160401b038216820361022b57565b6001600160401b0381116102615760051b60200190565b35906001600160a01b038216820361022b57565b919060408382031261022b57604051610c4b81610b9d565b8093610c5681610bf4565b82526020810135906001600160401b03821161022b57019180601f8401121561022b578235610c8481610c08565b93610c926040519586610bd3565b81855260208086019260051b82010192831161022b57602001905b828210610cbd5750505060200152565b60208091610cca84610c1f565b815201910190610cad565b51906001600160a01b038216820361022b57565b602060608160408501936001600160401b03815116865201519360408382015284518094520192019060005b818110610d225750505090565b82516001600160a01b0316845260209384019390920191600101610d15565b9081604091031261022b5760405190610d5982610b9d565b8051600281101561022b578252610d7290602001610cd5565b602082015290565b51906001600160401b038216820361022b57565b919060408382031261022b57604051610da681610b9d565b8093610db181610d7a565b82526020810151906001600160401b03821161022b57019180601f8401121561022b578251610ddf81610c08565b93610ded6040519586610bd3565b81855260208086019260051b82010192831161022b57602001905b828210610e185750505060200152565b60208091610e2584610cd5565b815201910190610e08565b6001600160401b03811161026157601f01601f191660200190565b60005b838110610e5e5750506000910152565b8181015183820152602001610e4e565b81601f8201121561022b578051610e8481610e30565b92610e926040519485610bd3565b8184526020828401011161022b57610eb09160208085019101610e4b565b90565b919060408382031261022b5760405190610ecc82610b9d565b819380516001600160401b03811161022b5782610eea918301610d8e565b83526020810151906001600160401b03821161022b57019160408383031261022b5760405192610f1984610b9d565b805160ff8116810361022b5784526020810151926001600160401b03841161022b57602093610f489201610e6e565b828401520152565b60208183031261022b578051906001600160401b03821161022b570160c08183031261022b5760405191610f8383610bb8565b8151600381101561022b57835260208201516001600160401b03811161022b5781610faf918401610eb3565b602084015260408201516001600160401b03811161022b5781610fd3918401610eb3565b6040840152610fe460608301610d7a565b60608401526080820151608084015260a08201516001600160401b03811161022b576110109201610e6e565b60a082015290565b803560ff811680910361022b5782526020810135601e198236030181121561022b570190602082359201916001600160401b03811161022b57803603831361022b578060609360406020850152816040850152848401376000828201840152601f01601f1916010190565b94939290916080865260c08601926001600160401b036110a282610bf4565b1660808801526020810135601e198236030181121561022b5701602081359101936001600160401b03821161022b578160051b3603851361022b578190604060a08a01525260e08701939060005b818110611121575050506001600160a01b03166020860152848203604086015260609161111c91611018565b930152565b909194602080600192838060a01b036111398a610c1f565b1681520196019291016110f0565b6040519061115482610b9d565b6012546001600160401b031682526040516013805480835260009182528491839160208301917f66de8ffda797e3de9c05e8fc57b3bf0ec28a930d40b0d285d93c06501cf6a09091905b8181106111bb57505050602092916111b7910384610bd3565b0152565b82546001600160a01b031684528694506020909301926001928301920161119e565b906040516111ea81610b9d565b600181936001600160401b0381541683520190604051809283916020825491828152019160005260206000209060005b81811061123357505050602092916111b7910384610bd3565b82546001600160a01b031684528694506020909301926001928301920161121a565b818110611260575050565b60008155600101611255565b8054600082558061127b575050565b61129091600052602060002090810190611255565b565b90600160401b8111610261578154908083558181106112b057505050565b6112909260005260206000209182019101611255565b9190820391821161032857565b9190820180921161032857565b606060408201916001600160401b03601254168152604060208201526013548093520190601360005260206000209060005b81811061131f5750505090565b82546001600160a01b0316845260209093019260019283019201611312565b9060209161135781518092818552858086019101610e4b565b601f01601f1916010190565b9060208282031261022b5781516001600160401b03811161022b57610eb09201610d8e565b906113a0602091949394604084526040840190610ce9565b6001600160a01b03909416910152565b6001600160401b036001911601906001600160401b03821161032857565b9081602091031261022b5751801515810361022b5790565b611422602073__$a0fe38a9a81205afccc10810b09a4d3f45$__92604051809381926390ba52cf60e01b83528460048401526024830190610ce9565b0381855af4908115610238576000916114bd575b50600052601f6020526114796020604060002092611456600485016111dd565b906040518080958194630c133d1360e31b83528660048401526024830190610ce9565b03915af49081156102385760009161149057501591565b6114b2915060203d6020116114b6575b6114aa8183610bd3565b8101906113ce565b1591565b503d6114a0565b90506020813d6020116114e7575b816114d860209383610bd3565b8101031261022b575138611436565b3d91506114cb565b919082519260028410156108fb5760016000941461150c57509150565b602060018060a01b039101511683604051926370a0823160e01b8452306004850152602084602481865afa9384156108e1578294611663575b5090806115939260405160208101916323b872dd60e01b835233602483015230604483015260648201526064815261157e608482610bd3565b519082865af161158c6119d4565b90836126d1565b8051908115159182611648575b5050611636576020602491604051928380926370a0823160e01b82523060048301525afa90811561162b5784916115f5575b50818111156115e657610eb09293506112c6565b6304b1353560e21b8452600484fd5b90506020813d602011611623575b8161161060209383610bd3565b8101031261161f5751386115d2565b8380fd5b3d9150611603565b6040513d86823e3d90fd5b635274afe760e01b8452600452602483fd5b61165b92506020809183010191016113ce565b1538806115a0565b919093506020823d602011611691575b8161168060209383610bd3565b810103126107465790519281611545565b3d9150611673565b91909180519060408452602060808501926001600160401b038151166040870152015191604060608601528251809152602060a0860193019060005b81811061170b575050506020610eb09394816040930151908281860391015260ff8151168452015191816020820152019061133e565b82516001600160a01b03168552602094850194909201916001016116d5565b611785906020810180515190600061177473__$a0fe38a9a81205afccc10810b09a4d3f45$__93604051968792839263089032d560e01b8452604060048501526044840190610ce9565b8281036003190160248401526112e0565b0381855af49384156102385760009461191e575b506117a3846113e6565b9190156104975760206118239560038401946001600160401b03865416956001600160401b036117d960608a0198808a526113b0565b166001600160401b031982541617905560808701946117ff6002875192019182546112d3565b905560405180809981946304e384ff60e21b83528660048401526024830190610ce9565b03915af4948515610238576000956118e2575b50604051926020845284519160038310156108fb577ffdd39ce2560484814971f663392e78ae37dc62ba184b3370d830371dd271a8b79585946001600160401b036118b161189b60a0956118dd9860208b01525160c060408b015260e08a0190611699565b6040850151898203601f190160608b0152611699565b945116608087015251828601520151838203601f190160c08501526001600160a01b039096169561133e565b0390a2565b9094506020813d602011611916575b816118fe60209383610bd3565b8101031261022b5761190f90610cd5565b9338611836565b3d91506118f1565b6119349194503d806000833e61029c8183610bd3565b9238611799565b6001600160a01b038116156119c357600061197391611958611147565b60405163aa5106cb60e01b8152938492839260048401611388565b038173__$a0fe38a9a81205afccc10810b09a4d3f45$__5af48015610238576119a4916000916119a8575b506113e6565b9091565b6119bd91503d806000833e61029c8183610bd3565b3861199e565b6370e4510960e01b60005260046000fd5b3d156119ff573d906119e582610e30565b916119f36040519384610bd3565b82523d6000602084013e565b606090565b81471061041d576000918291829182916001600160a01b03165af1611a276119d4565b501561040c57565b60138114611aaf57601354906001600160401b03821161026157611a538282611292565b6000908152602081207f66de8ffda797e3de9c05e8fc57b3bf0ec28a930d40b0d285d93c06501cf6a09080545b848410611a8e575050505050565b600191820180546001600160a01b0390921684860155939091019290611a80565b50565b8054821015611ace57600052600c602060002091020190600090565b634e487b7160e01b600052603260045260246000fd5b90600182811c92168015611b14575b6020831014611afe57565b634e487b7160e01b600052602260045260246000fd5b91607f1691611af3565b9190918054600160401b81101561026157611b3e91600182018155611ab2565b929092611ffb5780519260038410156108fb5760009360ff80198354169116178155602082015180516001600160401b038151166001600160401b036001850191166001600160401b0319825416179055602060028401910151908151916001600160401b038311611f3757602090611bb78484611292565b0190875260208720875b838110611fde57505050506020600383019101519060ff82511660ff198254161790556020600483019101518051906001600160401b038211611f0657611c088354611ae4565b601f8111611fae575b50602090601f8311600114611f4b57611c429291889183611db5575b50508160011b916000199060031b1c19161790565b90555b60408201518051805160058401805467ffffffffffffffff19166001600160401b039283161790556020909101518051916006850191908311611f3757602090611c8f8484611292565b0190875260208720875b838110611f1a57505050506020600783019101519060ff82511660ff198254161790556020600883019101518051906001600160401b038211611f0657611ce08354611ae4565b601f8111611ed6575b50602090601f8311600114611e6d578260a09593600b9593611d20938b92611db55750508160011b916000199060031b1c19161790565b90555b6001600160401b036060850151166001600160401b036009830191166001600160401b03198254161790556080840151600a82015501910151928351906001600160401b038211611e5957611d788354611ae4565b601f8111611e1e575b50602090601f8311600114611dc05790611db193949583611db55750508160011b916000199060031b1c19161790565b9055565b015190503880611c2d565b90601f198316848352818320925b818110611e0657509583600195969710611ded575b505050811b019055565b015160001960f88460031b161c19169055388080611de3565b9192602060018192868b015181550194019201611dce565b611e499084835260208320601f850160051c81019160208610611e4f575b601f0160051c0190611255565b38611d81565b9091508190611e3c565b634e487b7160e01b81526041600452602490fd5b8388528188209190601f198416895b818110611ebe575092600192859260a09896600b989610611ea5575b505050811b019055611d23565b015160001960f88460031b161c19169055388080611e98565b92936020600181928786015181550195019301611e7c565b611f009084895260208920601f850160051c81019160208610611e4f57601f0160051c0190611255565b38611ce9565b634e487b7160e01b87526041600452602487fd5b82516001600160a01b031681830155602090920191600101611c99565b634e487b7160e01b88526041600452602488fd5b8388528188209190601f198416895b818110611f965750908460019594939210611f7d575b505050811b019055611c45565b015160001960f88460031b161c19169055388080611f70565b92936020600181928786015181550195019301611f5a565b611fd89084895260208920601f850160051c81019160208610611e4f57601f0160051c0190611255565b38611c11565b82516001600160a01b031681830155602090920191600101611bc1565b634e487b7160e01b600052600060045260246000fd5b6040519061201e82610b9d565b6060602083600081520152565b6040519061203882610b9d565b81612041612011565b8152602061204d612011565b910152565b8051821015611ace5760209160051b010190565b906040519182600082549261207a84611ae4565b80845293600181169081156120e6575060011461209f575b5061129092500383610bd3565b90506000929192526020600020906000915b8183106120ca5750509060206112909282010138612092565b60209193508060019154838589010152019101909184926120b1565b90506020925061129094915060ff191682840152151560051b82010138612092565b906040519161211683610b9d565b602083612122836111dd565b8152610f4860036040519461213686610b9d565b60ff600282015416865201612066565b6121508154611ae4565b908161215a575050565b81601f6000931160011461216c575055565b8183526020832061218891601f0160051c810190600101611255565b8082528160208120915555565b600361129091600081556121ab6001820161126c565b6000600282015501612146565b600154801561256057806001600160401b034316046001810180911161032857818102918183041490151715610328576001600160401b0361220381600354168060608601526113b0565b166001600160401b031960035416176003558060005260236020526040600020906002820180541561251957505060030190815460035460c01c1460001461251057815461225081610c08565b9161225e6040519384610bd3565b818352601f1961226d83610c08565b0160005b8181106124c357505060405193606085018581106001600160401b038211176102615760405261229f611147565b855260208501924384526040860194855260005b8181106124285750437f4ecfe3c1ed32ef0a63d3801d51eb20214db90b14dc5fd1ca58a9de54f16f46a6600080a260008255806123c0575b50906122f691611b1e565b80516000526023602052604060002092516001600160401b0380825116166001600160401b0319855416178455602060018501910151908151916001600160401b0383116102615760209061234e8484989798611292565b0190600052602060002060005b8381106123a3575050505051600282015581515191600360009201915b8381106123855750505050565b8061239d6123966001938551612052565b5185611b1e565b01612378565b82516001600160a01b03168183015560209092019160010161235b565b80600c0290600c82040361032857816000526020600020908101905b8181106123e957506122eb565b806000600c92556123fc60018201612195565b61240860058201612195565b600060098201556000600a820155612422600b8201612146565b016123dc565b6124328184611ab2565b50908651916040519261244484610bb8565b60ff8254169060038210156108fb57846124a7600b6124bc9587956001995261246e898201612108565b602085015261247f60058201612108565b60408501526001600160401b036009820154166060850152600a810154608085015201612066565b60a08201526124b68383612052565b52612052565b50016122b3565b6020906040516124d281610bb8565b600081526124de61202b565b838201526124ea61202b565b60408201526000606082015260006080820152606060a082015282828801015201612271565b61129091611b1e565b91600391611290949360128303612532575b5501611b1e565b6001600160401b038060125416166001600160401b031984541617835561255b60018401611a2f565b61252b565b634e487b7160e01b600052601260045260246000fd5b8054821015611ace5760005260206000200190600090565b600081815260256020526040902054801561266f576000198101818111610328576024546000198101919082116103285781810361261e575b505050602454801561260857600019016125e2816024612576565b8154906000199060031b1b19169055602455600052602560205260006040812055600190565b634e487b7160e01b600052603160045260246000fd5b61265761262f612640936024612576565b90549060031b1c9283926024612576565b819391549060031b91821b91600019901b19161790565b905560005260256020526040600020553880806125c7565b5050600090565b806000526025602052604060002054156000146126cb57602454600160401b811015610261576126b26126408260018594016024556024612576565b9055602454906000526025602052604060002055600190565b50600090565b906126f757508051156126e657805190602001fd5b630a12f52160e11b60005260046000fd5b81511580612729575b612708575090565b639996b31560e01b60009081526001600160a01b0391909116600452602490fd5b50803b1561270056fe691bb03ffc16c56fc96b82fd16cd1b3715f0bc3cdc6407005f49bb6205860095a264697066735822122076ec4760faefdad2fd951b204d34be076a46f2099e452f4e1c97e5209926c33a64736f6c634300081a0033","linkReferences":{"src/lib/CrossMsgHelper.sol":{"CrossMsgHelper":[{"start":985,"length":20},{"start":2227,"length":20},{"start":2826,"length":20}]},"src/lib/SubnetIDHelper.sol":{"SubnetIDHelper":[{"start":207,"length":20},{"start":1377,"length":20},{"start":1659,"length":20},{"start":2078,"length":20},{"start":2665,"length":20},{"start":5128,"length":20},{"start":5976,"length":20},{"start":6546,"length":20}]}}},"methodIdentifiers":{"addStake()":"5a627dbc","fund((uint64,address[]),(uint8,bytes))":"18f44b70","fundWithToken((uint64,address[]),(uint8,bytes),uint256)":"0517e1aa","kill()":"41c0e1b5","register(uint256)":"f207564e","release((uint8,bytes))":"6b2c1eef","releaseStake(uint256)":"45f54485"},"id":60}