{"abi":[{"type":"function","name":"applyCrossMessages","inputs":[{"name":"crossMsgs","type":"tuple[]","internalType":"struct IpcEnvelope[]","components":[{"name":"kind","type":"uint8","internalType":"enum IpcMsgKind"},{"name":"to","type":"tuple","internalType":"struct IPCAddress","components":[{"name":"subnetId","type":"tuple","internalType":"struct SubnetID","components":[{"name":"root","type":"uint64","internalType":"uint64"},{"name":"route","type":"address[]","internalType":"address[]"}]},{"name":"rawAddress","type":"tuple","internalType":"struct FvmAddress","components":[{"name":"addrType","type":"uint8","internalType":"uint8"},{"name":"payload","type":"bytes","internalType":"bytes"}]}]},{"name":"from","type":"tuple","internalType":"struct IPCAddress","components":[{"name":"subnetId","type":"tuple","internalType":"struct SubnetID","components":[{"name":"root","type":"uint64","internalType":"uint64"},{"name":"route","type":"address[]","internalType":"address[]"}]},{"name":"rawAddress","type":"tuple","internalType":"struct FvmAddress","components":[{"name":"addrType","type":"uint8","internalType":"uint8"},{"name":"payload","type":"bytes","internalType":"bytes"}]}]},{"name":"nonce","type":"uint64","internalType":"uint64"},{"name":"value","type":"uint256","internalType":"uint256"},{"name":"message","type":"bytes","internalType":"bytes"}]}],"outputs":[],"stateMutability":"nonpayable"},{"type":"event","name":"NewBottomUpMsgBatch","inputs":[{"name":"epoch","type":"uint256","indexed":true,"internalType":"uint256"}],"anonymous":false},{"type":"event","name":"NewTopDownMessage","inputs":[{"name":"subnet","type":"address","indexed":true,"internalType":"address"},{"name":"message","type":"tuple","indexed":false,"internalType":"struct IpcEnvelope","components":[{"name":"kind","type":"uint8","internalType":"enum IpcMsgKind"},{"name":"to","type":"tuple","internalType":"struct IPCAddress","components":[{"name":"subnetId","type":"tuple","internalType":"struct SubnetID","components":[{"name":"root","type":"uint64","internalType":"uint64"},{"name":"route","type":"address[]","internalType":"address[]"}]},{"name":"rawAddress","type":"tuple","internalType":"struct FvmAddress","components":[{"name":"addrType","type":"uint8","internalType":"uint8"},{"name":"payload","type":"bytes","internalType":"bytes"}]}]},{"name":"from","type":"tuple","internalType":"struct IPCAddress","components":[{"name":"subnetId","type":"tuple","internalType":"struct SubnetID","components":[{"name":"root","type":"uint64","internalType":"uint64"},{"name":"route","type":"address[]","internalType":"address[]"}]},{"name":"rawAddress","type":"tuple","internalType":"struct FvmAddress","components":[{"name":"addrType","type":"uint8","internalType":"uint8"},{"name":"payload","type":"bytes","internalType":"bytes"}]}]},{"name":"nonce","type":"uint64","internalType":"uint64"},{"name":"value","type":"uint256","internalType":"uint256"},{"name":"message","type":"bytes","internalType":"bytes"}]}],"anonymous":false},{"type":"error","name":"CannotSendCrossMsgToItself","inputs":[]},{"type":"error","name":"InvalidXnetMessage","inputs":[{"name":"reason","type":"uint8","internalType":"enum InvalidXnetMessageReason"}]},{"type":"error","name":"MethodNotAllowed","inputs":[{"name":"reason","type":"string","internalType":"string"}]},{"type":"error","name":"NotRegisteredSubnet","inputs":[]},{"type":"error","name":"NotSystemActor","inputs":[]}],"bytecode":{"object":"0x608080604052346015576128c8908161001b8239f35b600080fdfe608080604052600436101561001357600080fd5b60003560e01c63dd8319ee1461002857600080fd5b346102d15760203660031901126102d157600435906001600160401b0382116102d157366023830112156102d1578160040135906001600160401b0382116102d15760248260051b840101903682116102d157635d3f8a6960e01b815233600482015260208160248173__$e800e3908cdbb6b1b5bd452383a17b18f7$__5af49081156102825760009161029f575b501561028e576100ed9060006100cb61034b565b604051809481926308c7427760e11b8352602060048401526024830190610562565b038173__$a0fe38a9a81205afccc10810b09a4d3f45$__5af49182156102825760009261025d575b5061011f8361046d565b9261012d604051948561032a565b8352602083019060009460248101925b8284106101755750505050815191835b838110610158578480f35b8061016f61016860019385610776565b5185610f17565b0161014d565b83356001600160401b03811161025957820160c0602319823603011261025957604051916101a2836102de565b6024820135600381101561025557835260448201356001600160401b038111610255576101d59060243691850101610630565b602084015260648201356001600160401b038111610255576101fd9060243691850101610630565b604084015261020e608483016105ba565b606084015260a4820135608084015260c4820135926001600160401b038411610255576102456020949360248695369201016105e9565b60a082015281520193019261013d565b8980fd5b8780fd5b61027b9192503d806000833e610273818361032a565b81019061053a565b9038610115565b6040513d6000823e3d90fd5b63f0d97f3b60e01b60005260046000fd5b90506020813d6020116102d6575b816102ba6020938361032a565b810103126102d1576102cb90610769565b386100b7565b600080fd5b3d91506102ad565b60c081019081106001600160401b038211176102f957604052565b634e487b7160e01b600052604160045260246000fd5b604081019081106001600160401b038211176102f957604052565b90601f801991011681019081106001600160401b038211176102f957604052565b604051906103588261030f565b6012546001600160401b031682526040516013805480835260009182528491839160208301917f66de8ffda797e3de9c05e8fc57b3bf0ec28a930d40b0d285d93c06501cf6a09091905b8181106103bf57505050602092916103bb91038461032a565b0152565b82546001600160a01b03168452869450602090930192600192830192016103a2565b906040516103ee8161030f565b600181936001600160401b0381541683520190604051809283916020825491828152019160005260206000209060005b81811061043757505050602092916103bb91038461032a565b82546001600160a01b031684528694506020909301926001928301920161041e565b51906001600160401b03821682036102d157565b6001600160401b0381116102f95760051b60200190565b51906001600160a01b03821682036102d157565b91906040838203126102d1576040516104b08161030f565b80936104bb81610459565b82526020810151906001600160401b0382116102d157019180601f840112156102d15782516104e98161046d565b936104f7604051958661032a565b81855260208086019260051b8201019283116102d157602001905b8282106105225750505060200152565b6020809161052f84610484565b815201910190610512565b906020828203126102d15781516001600160401b0381116102d15761055f9201610498565b90565b602060608160408501936001600160401b03815116865201519360408382015284518094520192019060005b81811061059b5750505090565b82516001600160a01b031684526020938401939092019160010161058e565b35906001600160401b03821682036102d157565b6001600160401b0381116102f957601f01601f191660200190565b81601f820112156102d157803590610600826105ce565b9261060e604051948561032a565b828452602083830101116102d157816000926020809301838601378301015290565b91906040838203126102d157604051906106498261030f565b819380356001600160401b0381116102d15781016040818403126102d157604051906106748261030f565b61067d816105ba565b82526020810135906001600160401b0382116102d1570183601f820112156102d15780356106aa8161046d565b916106b8604051938461032a565b81835260208084019260051b820101908682116102d157602001915b81831061074957505050602082015283526020810135906001600160401b0382116102d15701916040838303126102d157604051926107128461030f565b803560ff811681036102d15784526020810135926001600160401b0384116102d15760209361074192016105e9565b828401520152565b82356001600160a01b03811681036102d1578152602092830192016106d4565b519081151582036102d157565b805182101561078a5760209160051b010190565b634e487b7160e01b600052603260045260246000fd5b604051906107ad8261030f565b60006020838281520152565b908160209103126102d1575160028110156102d15790565b600311156107db57565b634e487b7160e01b600052602160045260246000fd5b60005b8381106108045750506000910152565b81810151838201526020016107f4565b9060209161082d815180928185528580860191016107f1565b601f01601f1916010190565b6040602061055f9381610853855185845285840190610562565b940151908281860391015260ff81511684520151918160208201520190610814565b61055f918151610884816107d1565b815260a06108b66108a4602085015160c0602086015260c0850190610839565b60408501518482036040860152610839565b926001600160401b0360608201511660608401526080810151608084015201519060a0818403910152610814565b6060600160408401926001600160401b0381541685520192604060208201528354809352019160005260206000209060005b8181106109235750505090565b82546001600160a01b0316845260209093019260019283019201610916565b61095761055f92604083526040830190610875565b90602081830391015260126108e4565b600211156107db57565b6001600160401b036001911601906001600160401b03821161098f57565b634e487b7160e01b600052601160045260246000fd5b908160409103126102d157604051906109bd8261030f565b805160028110156102d15782526109d690602001610484565b602082015290565b61095761055f92604083526040830190610562565b8181106109fe575050565b600081556001016109f3565b90600160401b81116102f957815490808355818110610a2857505050565b610a3e92600052602060002091820191016109f3565b565b90600182811c92168015610a70575b6020831014610a5a57565b634e487b7160e01b600052602260045260246000fd5b91607f1691610a4f565b9190918251610a88816107d1565b610a91816107d1565b60ff80198354169116178155602083015180516001600160401b038151166001600160401b036001850191166001600160401b0319825416179055602060028401910151908151916001600160401b0383116102f957602090610af48484610a0a565b0190600052602060002060005b838110610efa57505050506020600383019101519060ff82511660ff198254161790556020600483019101518051906001600160401b0382116102f957610b488354610a40565b601f8111610ec8575b50602090601f8311600114610e6157610b83929160009183610cfb575b50508160011b916000199060031b1c19161790565b90555b60408301518051805160058401805467ffffffffffffffff19166001600160401b0392831617905560209091015180519160068501919083116102f957602090610bd08484610a0a565b0190600052602060002060005b838110610e4457505050506020600783019101519060ff82511660ff198254161790556020600883019101518051906001600160401b0382116102f957610c248354610a40565b601f8111610e12575b50602090601f8311600114610da5578260a09593600b9593610c6593600092610cfb5750508160011b916000199060031b1c19161790565b90555b6001600160401b036060860151166001600160401b036009830191166001600160401b03198254161790556080850151600a820155019201519182516001600160401b0381116102f957610cbc8254610a40565b601f8111610d68575b506020601f8211600114610d06578190610cf7939495600092610cfb5750508160011b916000199060031b1c19161790565b9055565b015190503880610b6e565b601f1982169083600052806000209160005b818110610d5057509583600195969710610d37575b505050811b019055565b015160001960f88460031b161c19169055388080610d2d565b9192602060018192868b015181550194019201610d18565b610d9590836000526020600020601f840160051c81019160208510610d9b575b601f0160051c01906109f3565b38610cc5565b9091508190610d88565b90601f1983169184600052816000209260005b818110610dfa575092600192859260a09896600b989610610de1575b505050811b019055610c68565b015160001960f88460031b161c19169055388080610dd4565b92936020600181928786015181550195019301610db8565b610e3e90846000526020600020601f850160051c81019160208610610d9b57601f0160051c01906109f3565b38610c2d565b82516001600160a01b031681830155602090920191600101610bdd565b90601f1983169184600052816000209260005b818110610eb05750908460019594939210610e97575b505050811b019055610b86565b015160001960f88460031b161c19169055388080610e8a565b92936020600181928786015181550195019301610e74565b610ef490846000526020600020601f850160051c81019160208610610d9b57601f0160051c01906109f3565b38610b51565b82516001600160a01b031681830155602090920191600101610b01565b602082019081515190610f5c602073__$a0fe38a9a81205afccc10810b09a4d3f45$__9360405180938192630c133d1360e31b83528460048401526024830190610562565b0381865af490811561028257600091611395575b50611367576040516000610f838261030f565b808252602082015260405163855f7e4560e01b815260208180610fa98960048301610942565b038173__$33b79814e84bf6cf5e47244090b19ce5f8$__5af490811561028257600091611338575b50610fdb81610967565b60018103611256575050610fee90611719565b901561125057600381016001600160401b03815460401c166001600160401b036060870151160361121c576110666004611087938361103b6001600160401b036020965460401c16610971565b67ffffffffffffffff60401b82549160401b169067ffffffffffffffff60401b1916179055016103e1565b60405180938192632cff562160e11b83528460048401526024830190610562565b0381855af4908115610282576000916111dd575b50604080516380875df760e01b815291829060049082906001600160a01b03165afa918215610282576110f4926020926000916111ae575b50935b515190604051808095819463c836244d60e01b8352600483016109de565b03915af490811561028257600091611174575b501561112f5761111790826118ff565b901561112657610a3e916116ac565b610a3e9161163e565b50610a3e9060405160208101906020825261115f8161115160408201866118be565b03601f19810183528261032a565b51902060005260216020526040600020610a7a565b90506020813d6020116111a6575b8161118f6020938361032a565b810103126102d1576111a090610769565b38611107565b3d9150611182565b6111d0915060403d6040116111d6575b6111c8818361032a565b8101906109a5565b386110d3565b503d6111be565b90506020813d602011611214575b816111f86020938361032a565b810103126102d157604061120d600492610484565b915061109b565b3d91506111eb565b50505050610a3e906040519063bc0f01cf60e01b6020830152600260248301526024825261124b60448361032a565b6114a6565b50505050565b9093915061126381610967565b15611275575b6110f4916020916110d6565b91506001600160401b0360035460401c166001600160401b036060850151160361130b5760206110f4916112e26112b96001600160401b0360035460401c16610971565b67ffffffffffffffff60401b6003549160401b169067ffffffffffffffff60401b191617600355565b6112ea6107a0565b506040516112f78161030f565b600081526000838201529391509150611269565b5050610a3e906040519063bc0f01cf60e01b6020830152600260248301526024825261124b60448361032a565b61135a915060203d602011611360575b611352818361032a565b8101906107b9565b38610fd1565b503d611348565b505050610a3e906040519063bc0f01cf60e01b6020830152600160248301526024825261124b60448361032a565b90506020813d6020116113c7575b816113b06020938361032a565b810103126102d1576113c190610769565b38610f70565b3d91506113a3565b81601f820112156102d15780516113e5816105ce565b926113f3604051948561032a565b818452602082840101116102d15761055f91602080850191016107f1565b91906040838203126102d1576040519061142a8261030f565b819380516001600160401b0381116102d15782611448918301610498565b83526020810151906001600160401b0382116102d15701916040838303126102d157604051926114778461030f565b805160ff811681036102d15784526020810151926001600160401b0384116102d15760209361074192016113cf565b906114b0826119fb565b61163a57600282516114c1816107d1565b6114ca816107d1565b1461163a57604051634dbefc2d60e11b815260606004820152916114f2906064840190610875565b9082611514600093829360016024850152600319848303016044850152610814565b038173__$33b79814e84bf6cf5e47244090b19ce5f8$__5af490811561028257600091611549575b5061154690611a25565b50565b3d8083833e611558818361032a565b810190602081830312611632578051906001600160401b03821161163657019160c08383031261162f576040519261158f846102de565b8051600381101561163257845260208101516001600160401b03811161163257836115bb918301611411565b602085015260408101516001600160401b03811161163257836115df918301611411565b60408501526115f060608201610459565b60608501526080810151608085015260a0810151916001600160401b03831161162f575091611624916115469493016113cf565b60a08201529061153c565b80fd5b8280fd5b8380fd5b5050565b90611648826119fb565b61163a5760028251611659816107d1565b611662816107d1565b1461163a57604051634dbefc2d60e11b8152606060048201529161168a906064840190610875565b9082611514600093829360026024850152600319848303016044850152610814565b906116b6826119fb565b61163a57600282516116c7816107d1565b6116d0816107d1565b1461163a57604051634dbefc2d60e11b815260606004820152916116f8906064840190610875565b90826115146000938293856024850152600319848303016044850152610814565b611755602073__$a0fe38a9a81205afccc10810b09a4d3f45$__92604051809381926390ba52cf60e01b83528460048401526024830190610562565b0381855af4908115610282576000916117fb575b50600052601f6020526117ac6020604060002092611789600485016103e1565b906040518080958194630c133d1360e31b83528660048401526024830190610562565b03915af4908115610282576000916117c357501591565b90506020813d6020116117f3575b816117de6020938361032a565b810103126102d1576117ef90610769565b1591565b3d91506117d1565b90506020813d602011611825575b816118166020938361032a565b810103126102d1575138611769565b3d9150611809565b91909180519060408452602060808501926001600160401b038151166040870152015191604060608601528251809152602060a0860193019060005b81811061189f57505050602061055f9394816040930151908281860391015260ff81511684520151918160208201520190610814565b82516001600160a01b0316855260209485019490920191600101611869565b61055f9181516118cd816107d1565b815260a06108b66118ed602085015160c0602086015260c085019061182d565b6040850151848203604086015261182d565b6000919082916119616040518092611930602083019563065c4c3160e11b87526060602485015260848401906118be565b90805161193c81610967565b6044840152602001516001600160a01b0316606483015203601f19810183528261032a565b519073__$33b79814e84bf6cf5e47244090b19ce5f8$__5af4903d156119f3573d9161198c836105ce565b9261199a604051948561032a565b83523d6000602085013e5b82816119b057509190565b925050815182016040838203126102d1576119cd60208401610769565b926040810151916001600160401b0383116102d15761055f9260208092019201016113cf565b6060916119a5565b8051611a06816107d1565b611a0f816107d1565b15611a1d5760a00151511590565b608001511590565b6020810180515173__$a0fe38a9a81205afccc10810b09a4d3f45$__90604051630c133d1360e31b81526020600482015260208180611a676024820186610562565b0381865af4908115610282576000916121a0575b5061218a5760405163c836244d60e01b815260208180611a9e85600483016109de565b0381865af490811561028257600091612150575b5061213f5760408481015151905163855f7e4560e01b81529060208280611adc8960048301610942565b038173__$33b79814e84bf6cf5e47244090b19ce5f8$__5af49182156102825760009261211e575b5060405192631ccc893360e11b84526040600485015260008480611b40611b2e6044830186610562565b82810360031901602484015286610562565b0381885af493841561028257611b7694602091600091612103575b506040518096819263c836244d60e01b8352600483016109de565b0381885af4938415610282576000946120c7575b50600090611b9784610967565b60018403611fbc5750506040516308c7427760e11b8152602060048201529060008280611bc76024820185610562565b0381885af491821561028257611bfd92602091600091611fa1575b506040518094819263c836244d60e01b8352600483016109de565b0381885af491821561028257600092611f65575b5081611ede575b505b611e42575b611c2881610967565b15908115611e3a575b50611c4b57505080611c446080926124d8565b0151151590565b6001600160401b0360035460401c166001600160401b03811461098f57611cba92611c9e60016000930167ffffffffffffffff60401b6003549160401b169067ffffffffffffffff60401b191617600355565b51516040518094819263089032d560e01b8352600483016109de565b0381845af491821561028257600092611e1d575b50611cd882611719565b929015611e0c57600383016001600160401b03611cfd81835416806060890152610971565b166001600160401b031982541617905560026080850151930191825493840180941161098f57611d4d936020935560405180809581946304e384ff60e21b83528660048401526024830190610562565b03915af490811561028257600091611dad575b5060405160208082526001600160a01b03909216927ffdd39ce2560484814971f663392e78ae37dc62ba184b3370d830371dd271a8b7928291611da5918301906118be565b0390a2600090565b90506020813d602011611e04575b81611dc86020938361032a565b810103126102d157611da5611dfd7ffdd39ce2560484814971f663392e78ae37dc62ba184b3370d830371dd271a8b792610484565b9150611d60565b3d9150611dbb565b630e991abd60e41b60005260046000fd5b611e339192503d806000833e610273818361032a565b9038611cce565b905038611c31565b8451611e4d816107d1565b611e56816107d1565b611c1f5760405163015538b160e01b815260206004820152604f60248201527f70726f7061676174696f6e206f6620605472616e7366657260206d657373616760448201527f6573206e6f742073757070706f7274656420666f72207375626e65747320776960648201526e746820455243323020737570706c7960881b608482015260a490fd5b611f07915060209060405180938192632cff562160e11b83528460048401526024830190610562565b0381875af4801561028257600090611f2a575b611f2491506121da565b38611c18565b506020813d602011611f5d575b81611f446020938361032a565b810103126102d157611f58611f2491610484565b611f1a565b3d9150611f37565b9091506020813d602011611f99575b81611f816020938361032a565b810103126102d157611f9290610769565b9038611c11565b3d9150611f74565b611fb691503d806000833e610273818361032a565b38611be2565b909150611fc883610967565b818315611fd7575b5050611c1a565b60405163089032d560e01b81529182908190611ff690600483016109de565b0381885af49081156120bc57829160209161203394916120a2575b5060405180948192632cff562160e11b83528460048401526024830190610562565b0381885af4908115612096578091612058575b5061205191506121da565b3881611fd0565b90506020823d60201161208e575b816120736020938361032a565b8101031261162f575061208861205191610484565b38612046565b3d9150612066565b604051903d90823e3d90fd5b6120b691503d8085833e610273818361032a565b38612011565b6040513d84823e3d90fd5b9093506020813d6020116120fb575b816120e36020938361032a565b810103126102d1576120f490610769565b9238611b8a565b3d91506120d6565b61211891503d806000833e610273818361032a565b38611b5b565b61213891925060203d60201161136057611352818361032a565b9038611b04565b632f3335ff60e21b60005260046000fd5b90506020813d602011612182575b8161216b6020938361032a565b810103126102d15761217c90610769565b38611ab2565b3d915061215e565b63bc0f01cf60e01b600052600160045260246000fd5b90506020813d6020116121d2575b816121bb6020938361032a565b810103126102d1576121cc90610769565b38611a7b565b3d91506121ae565b604080516380875df760e01b815291829060049082906001600160a01b03165afa90811561028257600091612225575b505161221581610967565b80612221600192610967565b1490565b61223e915060403d6040116111d6576111c8818361032a565b3861220a565b6013811461154657601354906001600160401b0382116102f9576122688282610a0a565b6000908152602081207f66de8ffda797e3de9c05e8fc57b3bf0ec28a930d40b0d285d93c06501cf6a09080545b8484106122a3575050505050565b600191820180546001600160a01b0390921684860155939091019290612295565b805482101561078a57600052600c602060002091020190600090565b8054600160401b8110156102f9576122fd916001820181556122c4565b91909161230d57610a3e91610a7a565b634e487b7160e01b600052600060045260246000fd5b604051906123308261030f565b6060602083600081520152565b6040519061234a8261030f565b81612353612323565b8152602061235f612323565b910152565b906040519182600082549261237884610a40565b80845293600181169081156123e4575060011461239d575b50610a3e9250038361032a565b90506000929192526020600020906000915b8183106123c8575050906020610a3e9282010138612390565b60209193508060019154838589010152019101909184926123af565b905060209250610a3e94915060ff191682840152151560051b82010138612390565b90604051916124148361030f565b602083612420836103e1565b81526107416003604051946124348661030f565b60ff600282015416865201612364565b61244e8154610a40565b9081612458575050565b81601f6000931160011461246a575055565b8183526020832061248691601f0160051c8101906001016109f3565b8082528160208120915555565b6003610a3e916000815560018101805460008255806124bc575b50506000600282015501612444565b6124d1916000526020600020908101906109f3565b38806124ad565b600154801561287c57806001600160401b034316046001810180911161098f5781810291818304149015171561098f576001600160401b036125238160035416806060860152610971565b166001600160401b031960035416176003558060005260236020526040600020906002820180541561283557505060030190815460035460c01c1460001461282c5781546125708161046d565b9161257e604051938461032a565b818352601f1961258d8361046d565b0160005b8181106127df57505060405193606085018581106001600160401b038211176102f9576040526125bf61034b565b855260208501924384526040860194855260005b8181106127485750437f4ecfe3c1ed32ef0a63d3801d51eb20214db90b14dc5fd1ca58a9de54f16f46a6600080a260008255806126e0575b5090612616916122e0565b80516000526023602052604060002092516001600160401b0380825116166001600160401b0319855416178455602060018501910151908151916001600160401b0383116102f95760209061266e8484989798610a0a565b0190600052602060002060005b8381106126c3575050505051600282015581515191600360009201915b8381106126a55750505050565b806126bd6126b66001938551610776565b51856122e0565b01612698565b82516001600160a01b03168183015560209092019160010161267b565b80600c0290600c82040361098f57816000526020600020908101905b818110612709575061260b565b806000600c925561271c60018201612493565b61272860058201612493565b600060098201556000600a820155612742600b8201612444565b016126fc565b806127d881612759600194876122c4565b508951906127c3600b6040519261276f846102de565b60ff81541661277d816107d1565b845261278a898201612406565b602085015261279b60058201612406565b60408501526001600160401b036009820154166060850152600a810154608085015201612364565b60a08201526127d28383610776565b52610776565b50016125d3565b6020906040516127ee816102de565b600081526127fa61233d565b8382015261280661233d565b60408201526000606082015260006080820152606060a082015282828801015201612591565b610a3e916122e0565b91600391610a3e94936012830361284e575b55016122e0565b6001600160401b038060125416166001600160401b031984541617835561287760018401612244565b612847565b634e487b7160e01b600052601260045260246000fdfea26469706673582212203be70bc04c6bf1e86f2d1ae651bef9b2e66059862baa7bdc86bd5083f1b59e1b64736f6c634300081a0033","linkReferences":{"src/lib/AccountHelper.sol":{"AccountHelper":[{"start":174,"length":20}]},"src/lib/CrossMsgHelper.sol":{"CrossMsgHelper":[{"start":4040,"length":20},{"start":5427,"length":20},{"start":6528,"length":20},{"start":6907,"length":20}]},"src/lib/SubnetIDHelper.sol":{"SubnetIDHelper":[{"start":268,"length":20},{"start":3906,"length":20},{"start":5947,"length":20},{"start":6729,"length":20}]}}},"methodIdentifiers":{"applyCrossMessages((uint8,((uint64,address[]),(uint8,bytes)),((uint64,address[]),(uint8,bytes)),uint64,uint256,bytes)[])":"dd8319ee"},"id":64}