{"abi":[{"type":"constructor","inputs":[{"name":"_subnetActor","type":"address","internalType":"contract SubnetActorDiamond"}],"stateMutability":"nonpayable"},{"type":"receive","stateMutability":"payable"},{"type":"function","name":"getRandomValidator","inputs":[{"name":"id","type":"uint8","internalType":"uint8"}],"outputs":[{"name":"","type":"address","internalType":"address"}],"stateMutability":"view"},{"type":"function","name":"getRandomValidatorFromSetOrZero","inputs":[{"name":"seed","type":"uint8","internalType":"uint8"}],"outputs":[{"name":"","type":"address","internalType":"address"}],"stateMutability":"view"},{"type":"function","name":"ghost_stakedSum","inputs":[],"outputs":[{"name":"","type":"uint256","internalType":"uint256"}],"stateMutability":"view"},{"type":"function","name":"ghost_unstakedSum","inputs":[],"outputs":[{"name":"","type":"uint256","internalType":"uint256"}],"stateMutability":"view"},{"type":"function","name":"ghost_validators_staked","inputs":[{"name":"","type":"address","internalType":"address"}],"outputs":[{"name":"","type":"uint256","internalType":"uint256"}],"stateMutability":"view"},{"type":"function","name":"ghost_validators_unstaked","inputs":[{"name":"","type":"address","internalType":"address"}],"outputs":[{"name":"","type":"uint256","internalType":"uint256"}],"stateMutability":"view"},{"type":"function","name":"join","inputs":[{"name":"id","type":"uint8","internalType":"uint8"},{"name":"amount","type":"uint256","internalType":"uint256"}],"outputs":[],"stateMutability":"nonpayable"},{"type":"function","name":"joinedValidators","inputs":[],"outputs":[{"name":"","type":"address[]","internalType":"address[]"}],"stateMutability":"view"},{"type":"function","name":"joinedValidatorsNumber","inputs":[],"outputs":[{"name":"","type":"uint256","internalType":"uint256"}],"stateMutability":"view"},{"type":"function","name":"leave","inputs":[{"name":"id","type":"uint8","internalType":"uint8"}],"outputs":[{"name":"","type":"address","internalType":"address"}],"stateMutability":"nonpayable"},{"type":"function","name":"stake","inputs":[{"name":"id","type":"uint8","internalType":"uint8"},{"name":"amount","type":"uint256","internalType":"uint256"}],"outputs":[],"stateMutability":"nonpayable"},{"type":"function","name":"unstake","inputs":[{"name":"id","type":"uint8","internalType":"uint8"},{"name":"amount","type":"uint256","internalType":"uint256"}],"outputs":[],"stateMutability":"nonpayable"}],"bytecode":{"object":"0x608034610106576001600160401b0390601f6110eb38819003918201601f1916830191848311848410176100e45780849260209460405283398101031261010657516001600160a01b038116908190036101065760018060a01b03198181600f541617600f556010541617601055737109709ecfa91a80626ff3989d68f67f5b1dd12d90813b15610106576000809260446040518095819363c88a5e6d60e01b83523060048401526a6b31bffa03c1c535c0000060248401525af180156100fa576100d4575b604051610fdf908161010c8239f35b81116100e45760405238806100c5565b634e487b7160e01b600052604160045260246000fd5b6040513d6000823e3d90fd5b600080fdfe6080604081815260049182361015610022575b505050361561002057600080fd5b005b600092833560e01c9182630a52ee9614610547575081632cb5402514610521578163a0758127146104be578163a64efe5d14610498578163a7818a481461045e578163b00053cf1461043f578163b4545b9e146102e8578163bc5683e1146102c3578163bd0fa1b114610298578163c2da05121461025e578163dd752e55146100ef575063f2a2870b146100b65780610012565b346100eb5760203660031901126100eb576020906100da6100d5610563565b610771565b90516001600160a01b039091168152f35b5080fd5b905034610228578160031936011261022857610109610563565b918361011f610119602435610a68565b94610578565b9261012a8585610f5c565b737109709ecfa91a80626ff3989d68f67f5b1dd12d93843b1561022857835163ca669fa760e01b815283816024818360018060a01b038097169a8b898401525af180156102405790849161024a575b505080600f5416803b1561021a5783879184875180948193633a4b66f160e01b83525af180156102405790849161022c575b5050600f541690813b1561022857835163c7ebdaef60e01b81529183918391829084905af1801561021e57610206575b5050610201916101ed846015546108b7565b6015558452601360205283209182546108b7565b905580f35b61020f906105b3565b61021a5783386101db565b8380fd5b83513d84823e3d90fd5b8280fd5b610235906105b3565b6102285782386101ab565b85513d86823e3d90fd5b610253906105b3565b610228578238610179565b90503461022857602036600319011261022857356001600160a01b0381169081900361022857828291602094526014845220549051908152f35b5050346100eb573660031901126102c0576102bd6102b4610563565b602435906108da565b80f35b80fd5b5050346100eb57816003193601126100eb576020906102e0610808565b519051908152f35b905034610228578160031936011261022857610302610563565b91610317610311602435610a68565b93610578565b91737109709ecfa91a80626ff3989d68f67f5b1dd12d92833b1561043b57825163ca669fa760e01b815286816024818360018060a01b03809716998a898401525af180156104315761041c575b5090818692600f5416803b1561021a5783809160248751809481936305c2fbcf60e31b83528c898401525af1801561024057908491610408575b5050600f541690813b1561022857835163c7ebdaef60e01b81529183918391829084905af1801561021e576103f4575b5050610201916103e0846016546108b7565b6016558452601460205283209182546108b7565b6103fd906105b3565b61021a5783386103ce565b610411906105b3565b61022857823861039e565b61042990969192966105b3565b949038610364565b84513d89823e3d90fd5b8580fd5b5050346100eb57816003193601126100eb576020906015549051908152f35b90503461022857602036600319011261022857356001600160a01b0381169081900361022857828291602094526013845220549051908152f35b5050346100eb5760203660031901126100eb576020906100da6104b9610563565b610578565b5050346100eb57816003193601126100eb576104d8610808565b815192839260208080860192818752855180945286019401925b82811061050157505050500390f35b83516001600160a01b0316855286955093810193928101926001016104f2565b5050346100eb5760203660031901126100eb576020906100da610542610563565b610cd4565b8490346100eb57816003193601126100eb576020906016548152f35b6004359060ff8216820361057357565b600080fd5b60c860ff821610156105a45761058d90610771565b6001600160a01b0381161561059f5790565b503390565b6105ad90610642565b5061058d565b67ffffffffffffffff81116105c757604052565b634e487b7160e01b600052604160045260246000fd5b90601f8019910116810190811067ffffffffffffffff8211176105c757604052565b67ffffffffffffffff81116105c757601f01601f191660200190565b90815181101561062c570160200190565b634e487b7160e01b600052603260045260246000fd5b604051906080820182811067ffffffffffffffff8211176105c75760405260418252606036602084013781805160019081101561062c576001600160f81b03199260009060f81b8416811a60218401538251600019808201959091861161075d576106c56106af876105ff565b966106bd60405198896105dd565b8088526105ff565b602087019590601f190136873784805b6106f2575b505094519093206001600160a01b0316959350505050565b81518110156107585782610706828461061b565b5116848201908282116107445761072090871a918a61061b565b53838114610730578501856106d5565b634e487b7160e01b85526011600452602485fd5b634e487b7160e01b87526011600452602487fd5b6106da565b634e487b7160e01b83526011600452602483fd5b60115480156108015760405190819281835283602080940160116000527f31ecc21a745e3968a04e9570e4425bc18fa8019c68028196b546d1669c200c6860005b868682106107ea5750505060ff92916107cc9103866105dd565b160691805183101561062c5760018060a01b039260051b0101511690565b8254845288945090920191600191820191016107b2565b5050600090565b60405190601154808352826020918282019060116000527f31ecc21a745e3968a04e9570e4425bc18fa8019c68028196b546d1669c200c68936000905b82821061085d5750505061085b925003836105dd565b565b855484526001958601958895509381019390910190610845565b919082519283825260005b8481106108a3575050826000602080949584010152601f8019910116010190565b602081830181015184830182015201610882565b919082018092116108c457565b634e487b7160e01b600052601160045260246000fd5b6000929160ff821615610a62576108f36108f991610a68565b91610642565b61090583839493610f5c565b737109709ecfa91a80626ff3989d68f67f5b1dd12d92833b1561043b57604091825163ca669fa760e01b815287816024818360018060a01b038098169a8b60048401525af18015610a5857610a43575b5090869181600f5416803b1561021a5761098f8491879387519485809481936330b858b160e11b8352602060048401526024830190610877565b03925af18015610a3957908391610a25575b5050600f5416803b156100eb578190600484518094819363c7ebdaef60e01b83525af18015610a1b57610a03575b506109f990610a0094956109e5846015546108b7565b6015558481526013602052209182546108b7565b9055610c52565b50565b610a0d86916105b3565b610a1757386109cf565b8480fd5b82513d88823e3d90fd5b610a2e906105b3565b6100eb5781386109a1565b84513d85823e3d90fd5b610a5090979192976105b3565b959038610955565b84513d8a823e3d90fd5b50509050565b610a7190610b04565b906040516040810181811067ffffffffffffffff8211176105c7576000918291604052600c81526b109bdd5b990814995cdd5b1d60a21b6020820152604051610aeb81610ad76020820194632d839cb360e21b8652604060248401526064830190610877565b88604483015203601f1981018352826105dd565b51906a636f6e736f6c652e6c6f675afa50610a00610beb565b6801a055690d9db8000090600090818382118015610bd157600383111580610bd9575b610bd15760031983101580610bbe575b610bae5715610ba757506801a055690d9db7ffff198101908111610b93576801a055690d9db800019006918215610b8d57506000198201918211610b79575090565b634e487b7160e01b81526011600452602490fd5b91505090565b634e487b7160e01b82526011600452602482fd5b9392505050565b5050198203918211610b79575090565b5082196801a055690d9db8000111610b37565b505091505090565b50826801a055690d9db8000111610b27565b3d15610c16573d90610bfc826105ff565b91610c0a60405193846105dd565b82523d6000602084013e565b606090565b60115481101561062c5760116000527f31ecc21a745e3968a04e9570e4425bc18fa8019c68028196b546d1669c200c680190600090565b600081815260126020526040812054610ccf5760115468010000000000000000811015610cbb579082610ca7610c9084600160409601601155610c1b565b819391549060031b91821b91600019901b19161790565b905560115492815260126020522055600190565b634e487b7160e01b82526041600452602482fd5b905090565b610cdd90610771565b600091906001600160a01b038082168015610e7f57906024918160105416916020604093845195868092630acbdfbf60e11b82528660048301525afa938415610e0d578794610e48575b5086737109709ecfa91a80626ff3989d68f67f5b1dd12d803b156100eb578190602486518094819363ca669fa760e01b83528860048401525af18015610a5857610e35575b50808791600f5416803b1561022857828091600487518094819363d66d9e1960e01b83525af18015610e2b57908391610e17575b5050600f5416803b156100eb578190600485518094819363c7ebdaef60e01b83525af18015610e0d57610df9575b5090610df393949582610de18594610e86565b508152601460205220556016546108b7565b60165590565b610e0387916105b3565b61043b5738610dce565b83513d89823e3d90fd5b610e20906105b3565b6100eb578138610da0565b85513d85823e3d90fd5b610e41909791976105b3565b9538610d6c565b9093506020813d8211610e77575b81610e63602093836105dd565b81010312610e7357519238610d27565b8680fd5b3d9150610e56565b5090925050565b6000818152601260205260408120549091908015610f5757600019908082018181116107305760115490838201918211610f4357808203610f0f575b5050506011548015610efb57810190610eda82610c1b565b909182549160031b1b19169055601155815260126020526040812055600190565b634e487b7160e01b84526031600452602484fd5b610f2d610f1e610c9093610c1b565b90549060031b1c928392610c1b565b9055845260126020526040842055388080610ec2565b634e487b7160e01b86526011600452602486fd5b505090565b600080809381935af1610f6d610beb565b5015610f7557565b60405162461bcd60e51b815260206004820152600c60248201526b1c185e4a0a4819985a5b195960a21b6044820152606490fdfea2646970667358221220a27b148e3fad6a825164f1d6e9df33f7935cf7b362b1ee6b723f172b6a06191364736f6c63430008130033","linkReferences":{}},"methodIdentifiers":{"getRandomValidator(uint8)":"a64efe5d","getRandomValidatorFromSetOrZero(uint8)":"f2a2870b","ghost_stakedSum()":"b00053cf","ghost_unstakedSum()":"0a52ee96","ghost_validators_staked(address)":"a7818a48","ghost_validators_unstaked(address)":"c2da0512","join(uint8,uint256)":"bd0fa1b1","joinedValidators()":"a0758127","joinedValidatorsNumber()":"bc5683e1","leave(uint8)":"2cb54025","stake(uint8,uint256)":"dd752e55","unstake(uint8,uint256)":"b4545b9e"},"id":87}