{"abi":[{"type":"function","name":"arithmeticError","inputs":[],"outputs":[{"name":"","type":"bytes","internalType":"bytes"}],"stateMutability":"view"},{"type":"function","name":"assertionError","inputs":[],"outputs":[{"name":"","type":"bytes","internalType":"bytes"}],"stateMutability":"view"},{"type":"function","name":"divisionError","inputs":[],"outputs":[{"name":"","type":"bytes","internalType":"bytes"}],"stateMutability":"view"},{"type":"function","name":"encodeStorageError","inputs":[],"outputs":[{"name":"","type":"bytes","internalType":"bytes"}],"stateMutability":"view"},{"type":"function","name":"enumConversionError","inputs":[],"outputs":[{"name":"","type":"bytes","internalType":"bytes"}],"stateMutability":"view"},{"type":"function","name":"indexOOBError","inputs":[],"outputs":[{"name":"","type":"bytes","internalType":"bytes"}],"stateMutability":"view"},{"type":"function","name":"memOverflowError","inputs":[],"outputs":[{"name":"","type":"bytes","internalType":"bytes"}],"stateMutability":"view"},{"type":"function","name":"popError","inputs":[],"outputs":[{"name":"","type":"bytes","internalType":"bytes"}],"stateMutability":"view"},{"type":"function","name":"zeroVarError","inputs":[],"outputs":[{"name":"","type":"bytes","internalType":"bytes"}],"stateMutability":"view"}],"bytecode":{"object":"0x60808060405234601957610325908161001f823930815050f35b600080fdfe608080604052600436101561001357600080fd5b60003560e01c90816305ee86121461023f57508063103329771461020a5780631de45560146101d55780638995290f146101a0578063986c5f681461016b578063b22dc54d14610136578063b67689da14610101578063d160e4de146100cc5763fa784a441461008257600080fd5b60003660031901126100c7576100c3604051634e487b7160e01b602082015260126024820152602481526100b760448261026e565b604051918291826102a6565b0390f35b600080fd5b60003660031901126100c7576100c3604051634e487b7160e01b602082015260226024820152602481526100b760448261026e565b60003660031901126100c7576100c3604051634e487b7160e01b602082015260516024820152602481526100b760448261026e565b60003660031901126100c7576100c3604051634e487b7160e01b602082015260316024820152602481526100b760448261026e565b60003660031901126100c7576100c3604051634e487b7160e01b602082015260416024820152602481526100b760448261026e565b60003660031901126100c7576100c3604051634e487b7160e01b602082015260116024820152602481526100b760448261026e565b60003660031901126100c7576100c3604051634e487b7160e01b602082015260216024820152602481526100b760448261026e565b60003660031901126100c7576100c3604051634e487b7160e01b602082015260016024820152602481526100b760448261026e565b60003660031901126100c7576100c390634e487b7160e01b602082015260326024820152602481526100b76044825b90601f8019910116810190811067ffffffffffffffff82111761029057604052565b634e487b7160e01b600052604160045260246000fd5b91909160208152825180602083015260005b8181106102d9575060409293506000838284010152601f8019910116010190565b80602080928701015160408286010152016102b856fea26469706673582212201449b072e2bf8a489ca99c728aa9e5e158d46c252a71ff130ddb3bdc4cf701d564736f6c634300081a0033","linkReferences":{}},"methodIdentifiers":{"arithmeticError()":"8995290f","assertionError()":"10332977","divisionError()":"fa784a44","encodeStorageError()":"d160e4de","enumConversionError()":"1de45560","indexOOBError()":"05ee8612","memOverflowError()":"986c5f68","popError()":"b22dc54d","zeroVarError()":"b67689da"},"id":7}