{"abi":[{"type":"constructor","inputs":[{"name":"_subnetActor","type":"address","internalType":"contract SubnetActorDiamond"}],"stateMutability":"nonpayable"},{"type":"receive","stateMutability":"payable"},{"type":"function","name":"getRandomValidator","inputs":[{"name":"id","type":"uint8","internalType":"uint8"}],"outputs":[{"name":"","type":"address","internalType":"address"}],"stateMutability":"view"},{"type":"function","name":"getRandomValidatorFromSetOrZero","inputs":[{"name":"seed","type":"uint8","internalType":"uint8"}],"outputs":[{"name":"","type":"address","internalType":"address"}],"stateMutability":"view"},{"type":"function","name":"ghost_stakedSum","inputs":[],"outputs":[{"name":"","type":"uint256","internalType":"uint256"}],"stateMutability":"view"},{"type":"function","name":"ghost_unstakedSum","inputs":[],"outputs":[{"name":"","type":"uint256","internalType":"uint256"}],"stateMutability":"view"},{"type":"function","name":"ghost_validators_staked","inputs":[{"name":"","type":"address","internalType":"address"}],"outputs":[{"name":"","type":"uint256","internalType":"uint256"}],"stateMutability":"view"},{"type":"function","name":"ghost_validators_unstaked","inputs":[{"name":"","type":"address","internalType":"address"}],"outputs":[{"name":"","type":"uint256","internalType":"uint256"}],"stateMutability":"view"},{"type":"function","name":"join","inputs":[{"name":"id","type":"uint8","internalType":"uint8"},{"name":"amount","type":"uint256","internalType":"uint256"}],"outputs":[],"stateMutability":"nonpayable"},{"type":"function","name":"joinedValidators","inputs":[],"outputs":[{"name":"","type":"address[]","internalType":"address[]"}],"stateMutability":"view"},{"type":"function","name":"joinedValidatorsNumber","inputs":[],"outputs":[{"name":"","type":"uint256","internalType":"uint256"}],"stateMutability":"view"},{"type":"function","name":"leave","inputs":[{"name":"id","type":"uint8","internalType":"uint8"}],"outputs":[{"name":"","type":"address","internalType":"address"}],"stateMutability":"nonpayable"},{"type":"function","name":"stake","inputs":[{"name":"id","type":"uint8","internalType":"uint8"},{"name":"amount","type":"uint256","internalType":"uint256"}],"outputs":[],"stateMutability":"nonpayable"},{"type":"function","name":"unstake","inputs":[{"name":"id","type":"uint8","internalType":"uint8"},{"name":"amount","type":"uint256","internalType":"uint256"}],"outputs":[],"stateMutability":"nonpayable"}],"bytecode":{"object":"0x608034610106576001600160401b0390601f6110e738819003918201601f1916830191848311848410176100e45780849260209460405283398101031261010657516001600160a01b038116908190036101065760018060a01b03198181600f541617600f556010541617601055737109709ecfa91a80626ff3989d68f67f5b1dd12d90813b15610106576000809260446040518095819363c88a5e6d60e01b83523060048401526a6b31bffa03c1c535c0000060248401525af180156100fa576100d4575b604051610fdb908161010c8239f35b81116100e45760405238806100c5565b634e487b7160e01b600052604160045260246000fd5b6040513d6000823e3d90fd5b600080fdfe6080604081815260049182361015610022575b505050361561002057600080fd5b005b600092833560e01c9182630a52ee96146105a0575081632cb540251461057a578163a0758127146104be578163a64efe5d14610498578163a7818a481461045e578163b00053cf1461043f578163b4545b9e146102e8578163bc5683e1146102c3578163bd0fa1b114610298578163c2da05121461025e578163dd752e55146100ef575063f2a2870b146100b65780610012565b346100eb5760203660031901126100eb576020906100da6100d56105bc565b6107c6565b90516001600160a01b039091168152f35b5080fd5b9050346102285781600319360112610228576101096105bc565b918361011f610119602435610a64565b946105d1565b9261012a8585610f58565b737109709ecfa91a80626ff3989d68f67f5b1dd12d93843b1561022857835163ca669fa760e01b815283816024818360018060a01b038097169a8b898401525af180156102405790849161024a575b505080600f5416803b1561021a5783879184875180948193633a4b66f160e01b83525af180156102405790849161022c575b5050600f541690813b1561022857835163c7ebdaef60e01b81529183918391829084905af1801561021e57610206575b5050610201916101ed846015546108b3565b6015558452601360205283209182546108b3565b905580f35b61020f90610608565b61021a5783386101db565b8380fd5b83513d84823e3d90fd5b8280fd5b61023590610608565b6102285782386101ab565b85513d86823e3d90fd5b61025390610608565b610228578238610179565b90503461022857602036600319011261022857356001600160a01b0381169081900361022857828291602094526014845220549051908152f35b5050346100eb573660031901126102c0576102bd6102b46105bc565b602435906108d6565b80f35b80fd5b5050346100eb57816003193601126100eb576020906102e0610804565b519051908152f35b9050346102285781600319360112610228576103026105bc565b91610317610311602435610a64565b936105d1565b91737109709ecfa91a80626ff3989d68f67f5b1dd12d92833b1561043b57825163ca669fa760e01b815286816024818360018060a01b03809716998a898401525af180156104315761041c575b5090818692600f5416803b1561021a5783809160248751809481936305c2fbcf60e31b83528c898401525af1801561024057908491610408575b5050600f541690813b1561022857835163c7ebdaef60e01b81529183918391829084905af1801561021e576103f4575b5050610201916103e0846016546108b3565b6016558452601460205283209182546108b3565b6103fd90610608565b61021a5783386103ce565b61041190610608565b61022857823861039e565b6104299096919296610608565b949038610364565b84513d89823e3d90fd5b8580fd5b5050346100eb57816003193601126100eb576020906015549051908152f35b90503461022857602036600319011261022857356001600160a01b0381169081900361022857828291602094526013845220549051908152f35b5050346100eb5760203660031901126100eb576020906100da6104b96105bc565b6105d1565b8284346102c057806003193601126102c0579080519182906011549182855260208095018093601184527f31ecc21a745e3968a04e9570e4425bc18fa8019c68028196b546d1669c200c6890845b8181106105665750505081610522910382610632565b83519485948186019282875251809352850193925b82811061054657505050500390f35b83516001600160a01b031685528695509381019392810192600101610537565b82548452928801926001928301920161050c565b5050346100eb5760203660031901126100eb576020906100da61059b6105bc565b610cd0565b8490346100eb57816003193601126100eb576020906016548152f35b6004359060ff821682036105cc57565b600080fd5b600181166105f9576105e2906107c6565b6001600160a01b038116156105f45790565b503390565b61060290610697565b506105e2565b67ffffffffffffffff811161061c57604052565b634e487b7160e01b600052604160045260246000fd5b90601f8019910116810190811067ffffffffffffffff82111761061c57604052565b67ffffffffffffffff811161061c57601f01601f191660200190565b908151811015610681570160200190565b634e487b7160e01b600052603260045260246000fd5b604051906080820182811067ffffffffffffffff82111761061c57604052604182526060366020840137818051600190811015610681576001600160f81b03199260009060f81b8416811a6021840153825160001980820195909186116107b25761071a61070487610654565b966107126040519889610632565b808852610654565b602087019590601f190136873784805b610747575b505094519093206001600160a01b0316959350505050565b81518110156107ad578261075b8284610670565b5116848201908282116107995761077590871a918a610670565b538381146107855785018561072a565b634e487b7160e01b85526011600452602485fd5b634e487b7160e01b87526011600452602487fd5b61072f565b634e487b7160e01b83526011600452602483fd5b60115480156107fd5760ff6107d9610804565b9216069080518210156106815760059190911b01602001516001600160a01b031690565b5050600090565b60405190601154808352826020918282019060116000527f31ecc21a745e3968a04e9570e4425bc18fa8019c68028196b546d1669c200c68936000905b8282106108595750505061085792500383610632565b565b855484526001958601958895509381019390910190610841565b919082519283825260005b84811061089f575050826000602080949584010152601f8019910116010190565b60208183018101518483018201520161087e565b919082018092116108c057565b634e487b7160e01b600052601160045260246000fd5b6000929160ff821615610a5e576108ef6108f591610a64565b91610697565b61090183839493610f58565b737109709ecfa91a80626ff3989d68f67f5b1dd12d92833b1561043b57604091825163ca669fa760e01b815287816024818360018060a01b038098169a8b60048401525af18015610a5457610a3f575b5090869181600f5416803b1561021a5761098b8491879387519485809481936330b858b160e11b8352602060048401526024830190610873565b03925af18015610a3557908391610a21575b5050600f5416803b156100eb578190600484518094819363c7ebdaef60e01b83525af18015610a17576109ff575b506109f5906109fc94956109e1846015546108b3565b6015558481526013602052209182546108b3565b9055610c4e565b50565b610a098691610608565b610a1357386109cb565b8480fd5b82513d88823e3d90fd5b610a2a90610608565b6100eb57813861099d565b84513d85823e3d90fd5b610a4c9097919297610608565b959038610951565b84513d8a823e3d90fd5b50509050565b610a6d90610b00565b906040516040810181811067ffffffffffffffff82111761061c576000918291604052600c81526b109bdd5b990814995cdd5b1d60a21b6020820152604051610ae781610ad36020820194632d839cb360e21b8652604060248401526064830190610873565b88604483015203601f198101835282610632565b51906a636f6e736f6c652e6c6f675afa506109fc610be7565b6801a055690d9db8000090600090818382118015610bcd57600383111580610bd5575b610bcd5760031983101580610bba575b610baa5715610ba357506801a055690d9db7ffff198101908111610b8f576801a055690d9db800019006918215610b8957506000198201918211610b75575090565b634e487b7160e01b81526011600452602490fd5b91505090565b634e487b7160e01b82526011600452602482fd5b9392505050565b5050198203918211610b75575090565b5082196801a055690d9db8000111610b33565b505091505090565b50826801a055690d9db8000111610b23565b3d15610c12573d90610bf882610654565b91610c066040519384610632565b82523d6000602084013e565b606090565b6011548110156106815760116000527f31ecc21a745e3968a04e9570e4425bc18fa8019c68028196b546d1669c200c680190600090565b600081815260126020526040812054610ccb5760115468010000000000000000811015610cb7579082610ca3610c8c84600160409601601155610c17565b819391549060031b91821b91600019901b19161790565b905560115492815260126020522055600190565b634e487b7160e01b82526041600452602482fd5b905090565b610cd9906107c6565b600091906001600160a01b038082168015610e7b57906024918160105416916020604093845195868092630acbdfbf60e11b82528660048301525afa938415610e09578794610e44575b5086737109709ecfa91a80626ff3989d68f67f5b1dd12d803b156100eb578190602486518094819363ca669fa760e01b83528860048401525af18015610a5457610e31575b50808791600f5416803b1561022857828091600487518094819363d66d9e1960e01b83525af18015610e2757908391610e13575b5050600f5416803b156100eb578190600485518094819363c7ebdaef60e01b83525af18015610e0957610df5575b5090610def93949582610ddd8594610e82565b508152601460205220556016546108b3565b60165590565b610dff8791610608565b61043b5738610dca565b83513d89823e3d90fd5b610e1c90610608565b6100eb578138610d9c565b85513d85823e3d90fd5b610e3d90979197610608565b9538610d68565b9093506020813d8211610e73575b81610e5f60209383610632565b81010312610e6f57519238610d23565b8680fd5b3d9150610e52565b5090925050565b6000818152601260205260408120549091908015610f5357600019908082018181116107855760115490838201918211610f3f57808203610f0b575b5050506011548015610ef757810190610ed682610c17565b909182549160031b1b19169055601155815260126020526040812055600190565b634e487b7160e01b84526031600452602484fd5b610f29610f1a610c8c93610c17565b90549060031b1c928392610c17565b9055845260126020526040842055388080610ebe565b634e487b7160e01b86526011600452602486fd5b505090565b600080809381935af1610f69610be7565b5015610f7157565b60405162461bcd60e51b815260206004820152600c60248201526b1c185e4a0a4819985a5b195960a21b6044820152606490fdfea26469706673582212209fec2a25ef17ef300ae03018af587d6f9f4abcd3364616a9ba1c16dbfd72ed2964736f6c63430008130033","linkReferences":{}},"methodIdentifiers":{"getRandomValidator(uint8)":"a64efe5d","getRandomValidatorFromSetOrZero(uint8)":"f2a2870b","ghost_stakedSum()":"b00053cf","ghost_unstakedSum()":"0a52ee96","ghost_validators_staked(address)":"a7818a48","ghost_validators_unstaked(address)":"c2da0512","join(uint8,uint256)":"bd0fa1b1","joinedValidators()":"a0758127","joinedValidatorsNumber()":"bc5683e1","leave(uint8)":"2cb54025","stake(uint8,uint256)":"dd752e55","unstake(uint8,uint256)":"b4545b9e"},"id":82}