{"abi":[{"type":"function","name":"addStake","inputs":[],"outputs":[],"stateMutability":"payable"},{"type":"function","name":"fund","inputs":[{"name":"subnetId","type":"tuple","internalType":"struct SubnetID","components":[{"name":"root","type":"uint64","internalType":"uint64"},{"name":"route","type":"address[]","internalType":"address[]"}]},{"name":"to","type":"tuple","internalType":"struct FvmAddress","components":[{"name":"addrType","type":"uint8","internalType":"uint8"},{"name":"payload","type":"bytes","internalType":"bytes"}]}],"outputs":[],"stateMutability":"payable"},{"type":"function","name":"kill","inputs":[],"outputs":[],"stateMutability":"nonpayable"},{"type":"function","name":"register","inputs":[{"name":"genesisCircSupply","type":"uint256","internalType":"uint256"}],"outputs":[],"stateMutability":"payable"},{"type":"function","name":"release","inputs":[{"name":"to","type":"tuple","internalType":"struct FvmAddress","components":[{"name":"addrType","type":"uint8","internalType":"uint8"},{"name":"payload","type":"bytes","internalType":"bytes"}]}],"outputs":[],"stateMutability":"payable"},{"type":"function","name":"releaseRewardForRelayer","inputs":[{"name":"amount","type":"uint256","internalType":"uint256"}],"outputs":[],"stateMutability":"nonpayable"},{"type":"function","name":"releaseStake","inputs":[{"name":"amount","type":"uint256","internalType":"uint256"}],"outputs":[],"stateMutability":"nonpayable"},{"type":"error","name":"AlreadyRegisteredSubnet","inputs":[]},{"type":"error","name":"CallFailed","inputs":[]},{"type":"error","name":"CannotReleaseZero","inputs":[]},{"type":"error","name":"InsufficientFunds","inputs":[]},{"type":"error","name":"InvalidActorAddress","inputs":[]},{"type":"error","name":"InvalidCrossMsgValue","inputs":[]},{"type":"error","name":"MethodNotAllowed","inputs":[{"name":"reason","type":"string","internalType":"string"}]},{"type":"error","name":"NotEmptySubnetCircSupply","inputs":[]},{"type":"error","name":"NotEnoughFunds","inputs":[]},{"type":"error","name":"NotEnoughFundsToRelease","inputs":[]},{"type":"error","name":"NotRegisteredSubnet","inputs":[]},{"type":"error","name":"ReentrancyError","inputs":[]}],"bytecode":{"object":"0x6080806040523461001657612228908161001c8239f35b600080fdfe608080604052600436101561001357600080fd5b60003560e01c90816318f44b7014610d855750806341c0e1b514610c3857806345f5448514610b835780635a627dbc14610b005780636b2c1eef146104ea578063d8e25572146103aa5763f207564e1461006c57600080fd5b60208060031936011261029d5760043590601a546001908181018091116103945760ff602c5416111561031b57823410610309576100eb6100ad8434611175565b936100b6611182565b90600073__$a0fe38a9a81205afccc10810b09a4d3f45$__926040518095819263aa5106cb60e01b83523390600484016113dd565b0381855af49283156102a9576000936102e4575b50610109836120bd565b906102d25760048101966001600160401b0397888651166001600160401b03198254161790556005820187860151908151918a831161025e57908983926101568299979a98969584611442565b0190600052866000208960005b8481106102b5575050505050856002916101b6975560038101600160801b60ff60801b198254161790554388820155015560405180809581946390ba52cf60e01b83528660048401526024830190611382565b03915af49283156102a957600093610274575b505060185490600160401b82101561025e578101806018558110156102485760186000527fb13d2d76d1f4b7be834882e410b3e3a8afaf69f83600ae24db354391d2378d2e0155601d549061022d6001600160401b0360881b918360881c16611476565b60881b1667ffffffffffffffff60881b199190911617601d55005b634e487b7160e01b600052603260045260246000fd5b634e487b7160e01b600052604160045260246000fd5b9080929350813d83116102a2575b61028c81836110f1565b8101031261029d57519038806101c9565b600080fd5b503d610282565b6040513d6000823e3d90fd5b83516001600160a01b0316838201558c99909301928b9101610163565b604051631b538cdf60e11b8152600490fd5b6103029193503d806000833e6102fa81836110f1565b81019061135a565b91386100ff565b604051631036b5ad60e31b8152600490fd5b5060405190606082018281106001600160401b0382111761025e57604052602382527f5375626e657420646f6573206e6f7420616c6c6f77206368696c64207375626e818301526265747360e81b604083015261039060405192839263015538b160e01b845260048401526024830190611150565b0390fd5b634e487b7160e01b600052601160045260246000fd5b3461029d5760208060031936011261029d57600435907f691bb03ffc16c56fc96b82fd16cd1b3715f0bc3cdc6407005f49bb62058600959060018254146104d8576001825582156104c6576103fe33611f9f565b90156104b4578161041460046104359301611201565b60405180938192632cff562160e11b83528460048401526024830190611382565b038173__$a0fe38a9a81205afccc10810b09a4d3f45$__5af49182156102a957600092610476575b600084610473876001600160a01b03871661148e565b55005b90809250813d83116104ad575b61048d81836110f1565b8101031261029d576000926104a4610473926112a3565b9181945061045d565b503d610483565b604051630e991abd60e41b8152600490fd5b60405163c79cad7b60e01b8152600490fd5b6040516329f745a760e01b8152600490fd5b60031960203682011261029d576004356001600160401b03811161029d57604082823603011261029d573415610aee57604051632e82508d60e21b815260a06004820152916000918391829161055f919061054760a48501611726565b913360248601528483030160448501526004016116bb565b346064830152836084830152038173__$33b79814e84bf6cf5e47244090b19ce5f8$__5af49081156102a957600091610acb575b50601f54908115610ab557816001600160401b03431604600181018091116103945782810292818404149015171561039457601d5468ffffffffffffffff006105ee6001600160401b038360081c1680606086510152611476565b60081b169068ffffffffffffffff00191617601d55816000526009602052604060002091600283018054156000146106ce579260039161063894601983036106a2575b55016118be565b3447106106905760008080803460635af13d1561068b573d61065981611112565b9061066760405192836110f1565b8152600060203d92013e5b1561067957005b604051633204506f60e01b8152600490fd5b610672565b60405163356680b760e01b8152600490fd5b6001600160401b03601954166001600160401b03198454161783556106c960018401611f2e565b610631565b505060038201546020546001600160401b031603610aa4576003820154916106f58361128c565b9261070360405194856110f1565b808452601f196107128261128c565b0160005b818110610a3c575050604051938460608101106001600160401b0360608701111761025e576060850160405261074a611182565b8552436020860152604085015260005b81811061097a57506040516020815261077f8551606060208401526080830190611382565b9060208601516040820152604086015191601f19828203016060830152825180825260208201916020808360051b8301019501926000915b83831061094d575050505050807f39504a936d8c0cbc12ddec43d5f3e7a937285064bed71961953e3de67d86215e9143930390a260006003830155806108db575b5090600361080692016118be565b60208101516000526009602052604060002081516001600160401b038151166001600160401b0319835416178255602060018301910151908151916001600160401b03831161025e5760209061085c8484611442565b0190600052602060002060005b8381106108be57505050602083015160028301555060408201515160039091019160005b82811061089d5750505050610638565b806108b86108b16001936040860151611dcc565b51866118be565b0161088d565b82516001600160a01b031681830155602090920191600101610869565b80600d0290600d82040361039457600382016000526020600020908101905b81811061090757506107f8565b80610913600d92611f0b565b61091f60048201611f0b565b6000600882015560006009820155610939600a8201611ec2565b6000600b8201556000600c820155016108fa565b909192939560208061096b600193601f198682030187528a516117cf565b980193019301919392906107b7565b80610a358161098e60019460038801611868565b5060408901519060ff600c604051926109a6846110bb565b6040516109b2816110d6565b6109bb82611e84565b81526109c960048301611e84565b60208201526008820154604082015260098201546001600160401b038116606083015260a01b6001600160e01b0319166080820152610a0a600a8301611de0565b60a0820152600b82015460c0820152845201541615156020820152610a2f8383611dcc565b52611dcc565b500161075a565b602090604051610a4b816110bb565b604051610a57816110d6565b610a5f611da5565b8152610a69611da5565b84820152600060408201526000606082015260006080820152606060a0820152600060c0820152815260008382015282828901015201610716565b6003610ab092016118be565b610638565b634e487b7160e01b600052601260045260246000fd5b610ae891503d806000833e610ae081836110f1565b8101906115bc565b81610593565b6040516360ec4e6b60e11b8152600490fd5b600036600319011261029d57341561030957610b1b33611f9f565b90156104b4576003610b2e3483546110ae565b91828155019081549060ff8260801c166006811015610b6d57600214610b5057005b601b541115610b5c575b005b60ff60801b1916600160801b179055005b634e487b7160e01b600052602160045260246000fd5b3461029d5760208060031936011261029d57600435907f691bb03ffc16c56fc96b82fd16cd1b3715f0bc3cdc6407005f49bb62058600959060018254146104d8576001825582156104c657610bd733611f9f565b90156104b4578054848110610c2657610414600461043593610bfa888795611175565b808255601b5411610c0c575b01611201565b60038101805460ff60801b1916600160811b179055610c06565b6040516379b33e7960e01b8152600490fd5b3461029d57600036600319011261029d57610c5233611f9f565b90156104b4576002810154610d73578054601d546001600160401b03600019818360881c16019081116103945767ffffffffffffffff60881b1990911660889190911b67ffffffffffffffff60881b1617601d55610cdb91610cb690600401611201565b604051906390ba52cf60e01b8252818060209586938460048401526024830190611382565b038173__$a0fe38a9a81205afccc10810b09a4d3f45$__5af49081156102a957600091610d44575b50610b5a92600091825252610d3e6005604060002060008155600060018201556000600282015560006003820155600060048201550161141c565b3361148e565b90508281813d8311610d6c575b610d5b81836110f1565b8101031261029d5751610b5a610d03565b503d610d51565b604051637c67c70160e11b8152600490fd5b6003199060403683011261029d576004356001600160401b0380821161029d5781360360408582011261029d5760249384359083821161029d57604087833603011261029d57341561109f5750604051936379185f5960e11b855260a0600486015260e4850192816004013585811680910361029d5760a487015281870135906022190181121561029d570185600482013591019284821161029d578160051b3603841361029d57908086939492604060c486015252610104830191906000905b80821061106d57505050610e6f82916000943389850152898483030160448501526004016116bb565b346064830152836084830152038173__$33b79814e84bf6cf5e47244090b19ce5f8$__5af49182156102a957600092611050575b506020938483510151516000610eee73__$a0fe38a9a81205afccc10810b09a4d3f45$__92610efc604051958693849363089032d560e01b8552604060048601526044850190611382565b90838203018a840152611726565b0381845af49182156102a957600092611033575b50610f1a826120bd565b9590156104b4578587946003610f88980190815490610f418183168060608c510152611476565b16906001600160401b031916179055610f65600260408851015192019182546110ae565b90556040518096819482936304e384ff60e21b8452876004850152830190611382565b03915af480156102a957600090610fdf575b7f392fae29c67f3b47710cb5b84d7a6fd08e0155a4f22565971f7159f12c6f70969250610fda60405192839286845260018060a01b0316958301906117cf565b0390a2005b508282813d831161102c575b610ff581836110f1565b8101031261029d576110277f392fae29c67f3b47710cb5b84d7a6fd08e0155a4f22565971f7159f12c6f7096926112a3565b610f9a565b503d610feb565b6110499192503d806000833e6102fa81836110f1565b9086610f10565b6110669192503d806000833e610ae081836110f1565b9084610ea3565b919493509184356001600160a01b038116919082900361029d5760019181526020809101950192018693949291610e46565b6360ec4e6b60e11b8152600490fd5b9190820180921161039457565b604081019081106001600160401b0382111761025e57604052565b60e081019081106001600160401b0382111761025e57604052565b90601f801991011681019081106001600160401b0382111761025e57604052565b6001600160401b03811161025e57601f01601f191660200190565b60005b8381106111405750506000910152565b8181015183820152602001611130565b906020916111698151809281855285808601910161112d565b601f01601f1916010190565b9190820391821161039457565b6040519061118f826110bb565b816001600160401b036019541681526040518091601a54808352836020809401601a6000526000805160206121d38339815191529260005b868282106111e2575050506111de925003846110f1565b0152565b85546001600160a01b03168452600195860195899550930192016111c7565b9060405161120e816110bb565b80926001600160401b03815416825260018091019160405191828481955492838652602080960191600052856000209060005b8786821061125957505050506111de925003846110f1565b83546001600160a01b0316855289955090930192918101918101611241565b51906001600160401b038216820361029d57565b6001600160401b03811161025e5760051b60200190565b51906001600160a01b038216820361029d57565b919060408382031261029d57604051926112d0846110bb565b836112da82611278565b815260209182810151906001600160401b03821161029d57019280601f8501121561029d57835161130a8161128c565b9461131860405196876110f1565b818652848087019260051b82010192831161029d5784809101915b83831061134257505050500152565b819061134d846112a3565b8152019101908490611333565b9060208282031261029d5781516001600160401b03811161029d5761137f92016112b7565b90565b60609060408301906001600160401b03815116845260209283809201519460408382015285518094520193019160005b8281106113c0575050505090565b83516001600160a01b0316855293810193928101926001016113b2565b906113f5602091949394604084526040840190611382565b6001600160a01b03909416910152565b818110611410575050565b60008155600101611405565b8054600082558061142b575050565b61144091600052602060002090810190611405565b565b90600160401b811161025e5781549080835581811061146057505050565b6114409260005260206000209182019101611405565b9060016001600160401b038093160191821161039457565b814710610690576000918291829182916001600160a01b03165af13d156114d9573d6114b981611112565b906114c760405192836110f1565b8152600060203d92013e5b1561067957565b6114d2565b81601f8201121561029d5780516114f481611112565b9261150260405194856110f1565b8184526020828401011161029d5761137f916020808501910161112d565b919060408382031261029d5760405192611539846110bb565b838151916001600160401b039283811161029d57846115599183016112b7565b825260208101519083821161029d570160408185031261029d5760405193611580856110bb565b815160ff8116810361029d578552602082015193841161029d576020936115a792016114de565b828401520152565b5190811515820361029d57565b9060208282031261029d5781516001600160401b039283821161029d57019160408383031261029d57604051926115f2846110bb565b805182811161029d5781019260e08482031261029d5760405190611615826110d6565b845184811161029d578161162a918701611520565b8252602085015184811161029d5781611644918701611520565b60208301526040850151604083015261165f60608601611278565b606083015260808501516001600160e01b03198116810361029d57608083015260a085015193841161029d578461169f60c0926020966116b398016114de565b60a0840152015160c08201528452016115af565b602082015290565b803560ff811680910361029d5782526020810135601e198236030181121561029d570190602082359201916001600160401b03811161029d57803603831361029d578060609360406020850152816040850152848401376000828201840152601f01601f1916010190565b60408101906001600160401b036019541681526060602091604083820152601a548094520191601a6000526000805160206121d3833981519152916000905b828210611773575050505090565b83546001600160a01b031685529384019360019384019390910190611765565b6040602061137f93816117ad855185845285840190611382565b940151908281860391015260ff81511684520151918160208201520190611150565b906020808351936040845260c06118556117f6875160e06040890152610120880190611793565b6118118589015191603f1992838a83030160608b0152611793565b90604089015160808901526001600160401b0360608a01511660a089015263ffffffff60e01b60808a0151168489015260a0890151908883030160e0890152611150565b9501516101008501520151151591015290565b805482101561024857600052600d602060002091020190600090565b90600182811c921680156118b4575b602083101461189e57565b634e487b7160e01b600052602260045260246000fd5b91607f1691611893565b8054600160401b81101561025e576118dd906001928382018155611868565b919091611d75578251918251928351926001600160401b03808551166001600160401b031990818654161785558285019260208097015180519084821161025e57889061192a8388611442565b01600095865288862083875b848110611d5a575050505050866002870198015160ff8151169860ff19998a82541617905560039288848901920151918251868111611c74578061197a8354611884565b94898d601f9788808211611d2d575b505050508c90868311600114611cc2578a92611cb7575b505060001982881b1c191690851b1790555b6004880190898801519182519187835116908254161790558960058a0191015190815191878311611ca3578b906119e98484611442565b019088528a882085895b848110611c8857505050505088600689019101519060ff8251168b8254161790558860078901910151805190868211611c74578190611a328454611884565b8c868211611c47575b50508b90858311600114611be8578992611bdd575b505060001982871b1c191690841b1790555b6040860151600888015560098701846060880151168154906bffffffff000000000000000060808a015160a01c16916bffffffffffffffffffffffff191617179055600a87019460a0870151908151958611611bc957611ac28754611884565b8a848211611b92575b505089928611600114611b2357938560ff9a999794819460c09894600c9b9895611b18575b50501b92600019911b1c19161790555b0151600b820155019301511515918354169116179055565b015193503880611af0565b9294939190601f1985168785528a8520945b818110611b7d575092859260ff9b9a989592600c9a9760c0999610611b63575b50505050811b019055611b00565b01519060f884600019921b161c1916905538808080611b55565b82840151865594870194928b01928b01611b35565b611bb9918984528582852091818b0160051c8301938b10611bc0575b0160051c0190611405565b388a611acb565b92508192611bae565b634e487b7160e01b81526041600452602490fd5b015190503880611a50565b848a528c8a208794509190601f1984168b8f5b828210611c305750508411611c18575b505050811b019055611a62565b015160001983891b60f8161c19169055388080611c0b565b8385015186558a979095019493840193018f611bfb565b611c6d91868c5287828d209181870160051c8301938710611bc0570160051c0190611405565b388c611a3b565b634e487b7160e01b88526041600452602488fd5b83516001600160a01b031683820155928d01928791016119f3565b634e487b7160e01b89526041600452602489fd5b0151905038806119a0565b879350908d91601f198416868d52838d20938d905b828210611d0c5750508411611cf4575b505050811b0190556119b2565b0151600019838a1b60f8161c19169055388080611ce7565b91929395968291958786015181550195019301908f918a9695949392611cd7565b828489611d519652209181870160051c8301938710611bc0570160051c0190611405565b898d3888611989565b83516001600160a01b031683820155928b0192859101611936565b634e487b7160e01b600052600060045260246000fd5b60405190611d98826110bb565b6060602083600081520152565b60405190611db2826110bb565b81611dbb611d8b565b81526020611dc7611d8b565b910152565b80518210156102485760209160051b010190565b9060405191826000825492611df484611884565b908184526001948581169081600014611e615750600114611e1e575b5050611440925003836110f1565b9093915060005260209081600020936000915b818310611e4957505061144093508201013880611e10565b85548884018501529485019487945091830191611e31565b91505061144094506020925060ff191682840152151560051b8201013880611e10565b9060405191611e92836110bb565b602083611e9e83611201565b81526115a7600360405194611eb2866110bb565b60ff600282015416865201611de0565b611ecc8154611884565b9081611ed6575050565b81601f60009311600114611ee8575055565b908083918252611f07601f60208420940160051c840160018501611405565b5555565b60036114409160008155611f216001820161141c565b6000600282015501611ec2565b601a8114611f9c57601a54906001600160401b03821161025e57611f528282611442565b6000908152602081206000805160206121d383398151915280545b848410611f7b575050505050565b600191820180546001600160a01b0390921684860155939091019290611f6d565b50565b6001600160a01b039190828116156120ab57604051611fbd816110bb565b6001600160401b03601954168152604051918291601a54928385526020809501946000978895601a87526000805160206121d38339815191529187905b82821061208f5750505050612014826120329703836110f1565b82015260405163aa5106cb60e01b81529384928392600484016113dd565b038173__$a0fe38a9a81205afccc10810b09a4d3f45$__5af49081156120845783612065939492612069575b50506120bd565b9091565b61207d92503d8091833e6102fa81836110f1565b388061205e565b6040513d85823e3d90fd5b835481168a52988401988b985060019384019390910190611ffa565b6040516370e4510960e01b8152600490fd5b6120fb73__$a0fe38a9a81205afccc10810b09a4d3f45$__91604051906390ba52cf60e01b8252818060209485938460048401526024830190611382565b0381865af49081156102a9576000916121a3575b509061215291600052600081528060406000209361212f60048601611201565b906040518080968194630c133d1360e31b83528660048401526024830190611382565b03915af49081156102a95760009161216c575b5090501591565b82813d831161219c575b61218081836110f1565b810103126121995750612192906115af565b8038612165565b80fd5b503d612176565b908282813d83116121cb575b6121b981836110f1565b8101031261219957505161215261210f565b503d6121af56fe057c384a7d1c54f3a1b2e5e67b2617b8224fdfd1ea7234eea573a6ff665ff63ea2646970667358221220acbf28f3c1bbdd7e2cb1d9044f01fb6e14ac0808692405782f49d96bd3db170464736f6c63430008130033","linkReferences":{"src/lib/CrossMsgHelper.sol":{"CrossMsgHelper":[{"start":1419,"length":20},{"start":3739,"length":20}]},"src/lib/SubnetIDHelper.sol":{"SubnetIDHelper":[{"start":215,"length":20},{"start":1109,"length":20},{"start":3323,"length":20},{"start":3792,"length":20},{"start":8274,"length":20},{"start":8414,"length":20}]}}},"methodIdentifiers":{"addStake()":"5a627dbc","fund((uint64,address[]),(uint8,bytes))":"18f44b70","kill()":"41c0e1b5","register(uint256)":"f207564e","release((uint8,bytes))":"6b2c1eef","releaseRewardForRelayer(uint256)":"d8e25572","releaseStake(uint256)":"45f54485"},"id":45}