{"abi":[{"type":"function","name":"addStake","inputs":[],"outputs":[],"stateMutability":"payable"},{"type":"function","name":"fund","inputs":[{"name":"subnetId","type":"tuple","internalType":"struct SubnetID","components":[{"name":"root","type":"uint64","internalType":"uint64"},{"name":"route","type":"address[]","internalType":"address[]"}]},{"name":"to","type":"tuple","internalType":"struct FvmAddress","components":[{"name":"addrType","type":"uint8","internalType":"uint8"},{"name":"payload","type":"bytes","internalType":"bytes"}]}],"outputs":[],"stateMutability":"payable"},{"type":"function","name":"fundWithToken","inputs":[{"name":"subnetId","type":"tuple","internalType":"struct SubnetID","components":[{"name":"root","type":"uint64","internalType":"uint64"},{"name":"route","type":"address[]","internalType":"address[]"}]},{"name":"to","type":"tuple","internalType":"struct FvmAddress","components":[{"name":"addrType","type":"uint8","internalType":"uint8"},{"name":"payload","type":"bytes","internalType":"bytes"}]},{"name":"amount","type":"uint256","internalType":"uint256"}],"outputs":[],"stateMutability":"nonpayable"},{"type":"function","name":"kill","inputs":[],"outputs":[],"stateMutability":"nonpayable"},{"type":"function","name":"register","inputs":[{"name":"genesisCircSupply","type":"uint256","internalType":"uint256"}],"outputs":[],"stateMutability":"payable"},{"type":"function","name":"release","inputs":[{"name":"to","type":"tuple","internalType":"struct FvmAddress","components":[{"name":"addrType","type":"uint8","internalType":"uint8"},{"name":"payload","type":"bytes","internalType":"bytes"}]}],"outputs":[],"stateMutability":"payable"},{"type":"function","name":"releaseRewardForRelayer","inputs":[{"name":"amount","type":"uint256","internalType":"uint256"}],"outputs":[],"stateMutability":"nonpayable"},{"type":"function","name":"releaseStake","inputs":[{"name":"amount","type":"uint256","internalType":"uint256"}],"outputs":[],"stateMutability":"nonpayable"},{"type":"error","name":"AddressEmptyCode","inputs":[{"name":"target","type":"address","internalType":"address"}]},{"type":"error","name":"AddressInsufficientBalance","inputs":[{"name":"account","type":"address","internalType":"address"}]},{"type":"error","name":"AlreadyRegisteredSubnet","inputs":[]},{"type":"error","name":"CallFailed","inputs":[]},{"type":"error","name":"CannotReleaseZero","inputs":[]},{"type":"error","name":"FailedInnerCall","inputs":[]},{"type":"error","name":"InsufficientFunds","inputs":[]},{"type":"error","name":"InvalidActorAddress","inputs":[]},{"type":"error","name":"InvalidCrossMsgValue","inputs":[]},{"type":"error","name":"MethodNotAllowed","inputs":[{"name":"reason","type":"string","internalType":"string"}]},{"type":"error","name":"NotEmptySubnetCircSupply","inputs":[]},{"type":"error","name":"NotEnoughFunds","inputs":[]},{"type":"error","name":"NotEnoughFundsToRelease","inputs":[]},{"type":"error","name":"NotRegisteredSubnet","inputs":[]},{"type":"error","name":"ReentrancyError","inputs":[]},{"type":"error","name":"SafeERC20FailedOperation","inputs":[{"name":"token","type":"address","internalType":"address"}]},{"type":"error","name":"UnexpectedSupplySource","inputs":[]}],"bytecode":{"object":"0x60808060405234610016576127af908161001c8239f35b600080fdfe608080604052600436101561001357600080fd5b60003560e01c9081630517e1aa14610f3b5750806318f44b7014610d6b57806341c0e1b514610c1e57806345f5448514610b695780635a627dbc14610ae65780636b2c1eef146104f5578063d8e25572146103b55763f207564e1461007757600080fd5b6020806003193601126102a85760043590601a5460019081810180911161039f5760ff602c5416111561032657823410610314576100f66100b884346112e6565b936100c16112f3565b90600073__$a0fe38a9a81205afccc10810b09a4d3f45$__926040518095819263aa5106cb60e01b835233906004840161154e565b0381855af49283156102b4576000936102ef575b50610114836125e7565b906102dd5760048101966001600160401b0397888651166001600160401b03198254161790556005820187860151908151918a831161026957908983926101618299979a989695846115b3565b0190600052866000208960005b8481106102c0575050505050856002916101c1975560038101600160801b60ff60801b198254161790554388820155015560405180809581946390ba52cf60e01b835286600484015260248301906114f3565b03915af49283156102b45760009361027f575b505060185490600160401b821015610269578101806018558110156102535760186000527fb13d2d76d1f4b7be834882e410b3e3a8afaf69f83600ae24db354391d2378d2e0155601d54906102386001600160401b0360881b918360881c166115e7565b60881b1667ffffffffffffffff60881b199190911617601d55005b634e487b7160e01b600052603260045260246000fd5b634e487b7160e01b600052604160045260246000fd5b9080929350813d83116102ad575b6102978183611262565b810103126102a857519038806101d4565b600080fd5b503d61028d565b6040513d6000823e3d90fd5b83516001600160a01b0316838201558c99909301928b910161016e565b604051631b538cdf60e11b8152600490fd5b61030d9193503d806000833e6103058183611262565b8101906114cb565b913861010a565b604051631036b5ad60e31b8152600490fd5b5060405190606082018281106001600160401b0382111761026957604052602382527f5375626e657420646f6573206e6f7420616c6c6f77206368696c64207375626e818301526265747360e81b604083015261039b60405192839263015538b160e01b8452600484015260248301906112c1565b0390fd5b634e487b7160e01b600052601160045260246000fd5b346102a8576020806003193601126102a857600435907f691bb03ffc16c56fc96b82fd16cd1b3715f0bc3cdc6407005f49bb62058600959060018254146104e3576001825582156104d157610409336124c9565b90156104bf578161041f60046104409301611372565b60405180938192632cff562160e11b835284600484015260248301906114f3565b038173__$a0fe38a9a81205afccc10810b09a4d3f45$__5af49182156102b457600092610481575b60008461047e876001600160a01b03871661162f565b55005b90809250813d83116104b8575b6104988183611262565b810103126102a8576000926104af61047e92611414565b91819450610468565b503d61048e565b604051630e991abd60e41b8152600490fd5b60405163c79cad7b60e01b8152600490fd5b6040516329f745a760e01b8152600490fd5b6003196020368201126102a8576004356001600160401b0381116102a85760408282360301126102a8573415610ad457604051632e82508d60e21b815260a06004820152916000918391829161056a919061055260a48501611a68565b91336024860152848303016044850152600401611933565b346064830152836084830152038173__$33b79814e84bf6cf5e47244090b19ce5f8$__5af49081156102b457600091610ab1575b50601f54908115610a9b57816001600160401b034316046001810180911161039f5782810292818404149015171561039f57601d5468ffffffffffffffff006105f96001600160401b038360081c16806060865101526115e7565b60081b169068ffffffffffffffff00191617601d55816000526009602052604060002091600283018054156000146106b457926003916106439460198303610688575b5501611de8565b3447106106765760008080803460635af161065c6115ff565b501561066457005b604051633204506f60e01b8152600490fd5b60405163356680b760e01b8152600490fd5b6001600160401b03601954166001600160401b03198454161783556106af60018401612458565b61063c565b505060038201546020546001600160401b031603610a8a576003820154916106db836113fd565b926106e96040519485611262565b808452601f196106f8826113fd565b0160005b818110610a22575050604051938460608101106001600160401b0360608701111761026957606085016040526107306112f3565b8552436020860152604085015260005b81811061096057506040516020815261076585516060602084015260808301906114f3565b9060208601516040820152604086015191601f19828203016060830152825180825260208201916020808360051b8301019501926000915b838310610933575050505050807f39504a936d8c0cbc12ddec43d5f3e7a937285064bed71961953e3de67d86215e9143930390a260006003830155806108c1575b509060036107ec9201611de8565b60208101516000526009602052604060002081516001600160401b038151166001600160401b0319835416178255602060018301910151908151916001600160401b0383116102695760209061084284846115b3565b0190600052602060002060005b8381106108a457505050602083015160028301555060408201515160039091019160005b8281106108835750505050610643565b8061089e61089760019360408601516122f6565b5186611de8565b01610873565b82516001600160a01b03168183015560209092019160010161084f565b80600d0290600d82040361039f57600382016000526020600020908101905b8181106108ed57506107de565b806108f9600d92612435565b61090560048201612435565b600060088201556000600982015561091f600a82016123ec565b6000600b8201556000600c820155016108e0565b9091929395602080610951600193601f198682030187528a51611b11565b9801930193019193929061079d565b80610a1b8161097460019460038801611d92565b5060408901519060ff600c6040519261098c8461122c565b60405161099881611247565b6109a1826123ae565b81526109af600483016123ae565b60208201526008820154604082015260098201546001600160401b038116606083015260a01b6001600160e01b03191660808201526109f0600a830161230a565b60a0820152600b82015460c0820152845201541615156020820152610a1583836122f6565b526122f6565b5001610740565b602090604051610a318161122c565b604051610a3d81611247565b610a456122cf565b8152610a4f6122cf565b84820152600060408201526000606082015260006080820152606060a0820152600060c08201528152600083820152828289010152016106fc565b6003610a969201611de8565b610643565b634e487b7160e01b600052601260045260246000fd5b610ace91503d806000833e610ac68183611262565b81019061183c565b8161059e565b6040516360ec4e6b60e11b8152600490fd5b60003660031901126102a857341561031457610b01336124c9565b90156104bf576003610b1434835461121f565b91828155019081549060ff8260801c166006811015610b5357600214610b3657005b601b541115610b42575b005b60ff60801b1916600160801b179055005b634e487b7160e01b600052602160045260246000fd5b346102a8576020806003193601126102a857600435907f691bb03ffc16c56fc96b82fd16cd1b3715f0bc3cdc6407005f49bb62058600959060018254146104e3576001825582156104d157610bbd336124c9565b90156104bf578054848110610c0c5761041f600461044093610be08887956112e6565b808255601b5411610bf2575b01611372565b60038101805460ff60801b1916600160811b179055610bec565b6040516379b33e7960e01b8152600490fd5b346102a85760003660031901126102a857610c38336124c9565b90156104bf576002810154610d59578054601d546001600160401b03600019818360881c160190811161039f5767ffffffffffffffff60881b1990911660889190911b67ffffffffffffffff60881b1617601d55610cc191610c9c90600401611372565b604051906390ba52cf60e01b82528180602095869384600484015260248301906114f3565b038173__$a0fe38a9a81205afccc10810b09a4d3f45$__5af49081156102b457600091610d2a575b50610b4092600091825252610d246005604060002060008155600060018201556000600282015560006003820155600060048201550161158d565b3361162f565b90508281813d8311610d52575b610d418183611262565b810103126102a85751610b40610ce9565b503d610d37565b604051637c67c70160e11b8152600490fd5b6003196040368201126102a8576004356001600160401b03918282116102a8576040818360040193360301126102a8576024359283116102a85760409083360301126102a8573415610ad457610dc9610dc43683611682565b6125e7565b50156104bf57610dde602061041f3684611682565b038173__$a0fe38a9a81205afccc10810b09a4d3f45$__5af49081156102b457600091610efd575b50604080516380875df760e01b815291829060049082906001600160a01b03165afa9081156102b457600091610ece575b50516002811015610b5357610ebc57610e709160009160405193849283926379185f5960e11b845234916004019033906004860161199e565b038173__$33b79814e84bf6cf5e47244090b19ce5f8$__5af480156102b457610b4091600091610ea1575b50611baa565b610eb691503d806000833e610ac68183611262565b82610e9b565b6040516340772cb360e11b8152600490fd5b610ef0915060403d604011610ef6575b610ee88183611262565b810190611725565b83610e37565b503d610ede565b90506020813d8211610f33575b81610f1760209383611262565b810103126102a8576040610f2c600492611414565b9150610e06565b3d9150610f0a565b346102a857600319906060368301126102a8576004356001600160401b03928382116102a8576040818360040193360301126102a85760248035918583116102a85760409083360301126102a857604435947f691bb03ffc16c56fc96b82fd16cd1b3715f0bc3cdc6407005f49bb6205860095946001865414611210575060018555610fee610fca3686611682565b60405190632cff562160e11b825281806020948593846004840152888301906114f3565b038173__$a0fe38a9a81205afccc10810b09a4d3f45$__5af49081156102b4576000916111db575b506040516380875df760e01b815260408160048160018060a01b038096165afa9081156102b4576000916111bc575b50805160028110156111a757600103610ebc57805160028110156111a7576001146110e5575b50505050509060009161109860405195869384936379185f5960e11b85526004019033906004860161199e565b038173__$33b79814e84bf6cf5e47244090b19ce5f8$__5af49182156102b45760009261047e9184916110cb5750611baa565b6110df91503d8086833e610ac68183611262565b84610e9b565b8201511691604051828101916323b872dd60e01b835233868301523060448301528960648301526064825260a082019082821090821117611192576040525161114091600091829182875af16111396115ff565b90846126f9565b8051918215159283611171575b50505061115c5780808061106b565b60405190635274afe760e01b82526004820152fd5b829350918192810103126102a857611189910161182f565b1587808061114d565b85634e487b7160e01b60005260416004526000fd5b85634e487b7160e01b60005260216004526000fd5b6111d5915060403d604011610ef657610ee88183611262565b89611045565b90508181813d8311611209575b6111f28183611262565b810103126102a85761120390611414565b88611016565b503d6111e8565b6329f745a760e01b8152600490fd5b9190820180921161039f57565b604081019081106001600160401b0382111761026957604052565b60e081019081106001600160401b0382111761026957604052565b90601f801991011681019081106001600160401b0382111761026957604052565b6001600160401b03811161026957601f01601f191660200190565b60005b8381106112b15750506000910152565b81810151838201526020016112a1565b906020916112da8151809281855285808601910161129e565b601f01601f1916010190565b9190820391821161039f57565b604051906113008261122c565b816001600160401b036019541681526040518091601a54808352836020809401601a60005260008051602061275a8339815191529260005b868282106113535750505061134f92500384611262565b0152565b85546001600160a01b0316845260019586019589955093019201611338565b9060405161137f8161122c565b80926001600160401b03815416825260018091019160405191828481955492838652602080960191600052856000209060005b878682106113ca575050505061134f92500384611262565b83546001600160a01b03168552899550909301929181019181016113b2565b51906001600160401b03821682036102a857565b6001600160401b0381116102695760051b60200190565b51906001600160a01b03821682036102a857565b91906040838203126102a857604051926114418461122c565b8361144b826113e9565b815260209182810151906001600160401b0382116102a857019280601f850112156102a857835161147b816113fd565b946114896040519687611262565b818652848087019260051b8201019283116102a85784809101915b8383106114b357505050500152565b81906114be84611414565b81520191019084906114a4565b906020828203126102a85781516001600160401b0381116102a8576114f09201611428565b90565b60609060408301906001600160401b03815116845260209283809201519460408382015285518094520193019160005b828110611531575050505090565b83516001600160a01b031685529381019392810192600101611523565b906115666020919493946040845260408401906114f3565b6001600160a01b03909416910152565b818110611581575050565b60008155600101611576565b8054600082558061159c575050565b6115b191600052602060002090810190611576565b565b90600160401b8111610269578154908083558181106115d157505050565b6115b19260005260206000209182019101611576565b9060016001600160401b038093160191821161039f57565b3d1561162a573d9061161082611283565b9161161e6040519384611262565b82523d6000602084013e565b606090565b814710610676576000918291829182916001600160a01b03165af16116526115ff565b501561066457565b35906001600160401b03821682036102a857565b35906001600160a01b03821682036102a857565b91906040838203126102a8576040519261169b8461122c565b836116a58261165a565b815260209182810135906001600160401b0382116102a857019280601f850112156102a85783356116d5816113fd565b946116e36040519687611262565b818652848087019260051b8201019283116102a85784809101915b83831061170d57505050500152565b81906117188461166e565b81520191019084906116fe565b908160409103126102a8576040519061173d8261122c565b805160028110156102a857825261175690602001611414565b602082015290565b81601f820112156102a857805161177481611283565b926117826040519485611262565b818452602082840101116102a8576114f0916020808501910161129e565b91906040838203126102a857604051926117b98461122c565b838151916001600160401b03928381116102a857846117d9918301611428565b82526020810151908382116102a857016040818503126102a857604051936118008561122c565b815160ff811681036102a857855260208201519384116102a857602093611827920161175e565b828401520152565b519081151582036102a857565b906020828203126102a85781516001600160401b03928382116102a85701916040838303126102a857604051926118728461122c565b80518281116102a85781019260e0848203126102a8576040519061189582611247565b84518481116102a857816118aa9187016117a0565b825260208501518481116102a857816118c49187016117a0565b6020830152604085015160408301526118df606086016113e9565b606083015260808501516001600160e01b0319811681036102a857608083015260a08501519384116102a8578461191f60c092602096611756980161175e565b60a0840152015160c082015284520161182f565b803560ff81168091036102a85782526020810135601e19823603018112156102a8570190602082359201916001600160401b0381116102a85780360383136102a8578060609360406020850152816040850152848401376000828201840152601f01601f1916010190565b929094939460a0845260e08401926001600160401b0393846119bf8461165a565b1660a087015260209283810135601e19823603018112156102a857019083823592019582116102a8578160051b360386136102a8578190604060c0890152526101008601949060005b818110611a43575050506001600160a01b03169084015282820360408401526000926080929091611a399190611933565b9460608201520152565b9091958480600192838060a01b03611a5a8b61166e565b168152019701929101611a08565b60408101906001600160401b036019541681526060602091604083820152601a548094520191601a60005260008051602061275a833981519152916000905b828210611ab5575050505090565b83546001600160a01b031685529384019360019384019390910190611aa7565b604060206114f09381611aef8551858452858401906114f3565b940151908281860391015260ff815116845201519181602082015201906112c1565b906020808351936040845260c0611b97611b38875160e06040890152610120880190611ad5565b611b538589015191603f1992838a83030160608b0152611ad5565b90604089015160808901526001600160401b0360608a01511660a089015263ffffffff60e01b60808a0151168489015260a0890151908883030160e08901526112c1565b9501516101008501520151151591015290565b611c0760209182815101515173__$a0fe38a9a81205afccc10810b09a4d3f45$__90604091611bef83519263089032d560e01b845284600485015260448401906114f3565b60031983820301602484015282806000978893611a68565b0381845af4918215611d88578592611d6c575b50611c24826125e7565b9015611d5b57918691836003611c9896950180546001600160401b03611c528183168060608d5101526115e7565b16906001600160401b031916179055611c7560028689510151920191825461121f565b9055835180809681946304e384ff60e21b835286600484015260248301906114f3565b03915af4918215611d51578492611cef575b507f392fae29c67f3b47710cb5b84d7a6fd08e0155a4f22565971f7159f12c6f70969350611cea905192839286845260018060a01b031695830190611b11565b0390a2565b915091928482813d8311611d4a575b611d088183611262565b81010312611d47575090611cea611d407f392fae29c67f3b47710cb5b84d7a6fd08e0155a4f22565971f7159f12c6f70969493611414565b9190611caa565b80fd5b503d611cfe565b81513d86823e3d90fd5b8351630e991abd60e41b8152600490fd5b611d819192503d8087833e6103058183611262565b9038611c1a565b83513d87823e3d90fd5b805482101561025357600052600d602060002091020190600090565b90600182811c92168015611dde575b6020831014611dc857565b634e487b7160e01b600052602260045260246000fd5b91607f1691611dbd565b8054600160401b81101561026957611e07906001928382018155611d92565b91909161229f578251918251928351926001600160401b03808551166001600160401b0319908186541617855582850192602080970151805190848211610269578890611e5483886115b3565b01600095865288862083875b848110612284575050505050866002870198015160ff8151169860ff19998a8254161790556003928884890192015191825186811161219e5780611ea48354611dae565b94898d601f9788808211612257575b505050508c908683116001146121ec578a926121e1575b505060001982881b1c191690851b1790555b6004880190898801519182519187835116908254161790558960058a01910151908151918783116121cd578b90611f1384846115b3565b019088528a882085895b8481106121b257505050505088600689019101519060ff8251168b825416179055886007890191015180519086821161219e578190611f5c8454611dae565b8c868211612171575b50508b90858311600114612112578992612107575b505060001982871b1c191690841b1790555b6040860151600888015560098701846060880151168154906bffffffff000000000000000060808a015160a01c16916bffffffffffffffffffffffff191617179055600a87019460a08701519081519586116120f357611fec8754611dae565b8a8482116120bc575b50508992861160011461204d57938560ff9a999794819460c09894600c9b9895612042575b50501b92600019911b1c19161790555b0151600b820155019301511515918354169116179055565b01519350388061201a565b9294939190601f1985168785528a8520945b8181106120a7575092859260ff9b9a989592600c9a9760c099961061208d575b50505050811b01905561202a565b01519060f884600019921b161c191690553880808061207f565b82840151865594870194928b01928b0161205f565b6120e3918984528582852091818b0160051c8301938b106120ea575b0160051c0190611576565b388a611ff5565b925081926120d8565b634e487b7160e01b81526041600452602490fd5b015190503880611f7a565b848a528c8a208794509190601f1984168b8f5b82821061215a5750508411612142575b505050811b019055611f8c565b015160001983891b60f8161c19169055388080612135565b8385015186558a979095019493840193018f612125565b61219791868c5287828d209181870160051c83019387106120ea570160051c0190611576565b388c611f65565b634e487b7160e01b88526041600452602488fd5b83516001600160a01b031683820155928d0192879101611f1d565b634e487b7160e01b89526041600452602489fd5b015190503880611eca565b879350908d91601f198416868d52838d20938d905b828210612236575050841161221e575b505050811b019055611edc565b0151600019838a1b60f8161c19169055388080612211565b91929395968291958786015181550195019301908f918a9695949392612201565b82848961227b9652209181870160051c83019387106120ea570160051c0190611576565b898d3888611eb3565b83516001600160a01b031683820155928b0192859101611e60565b634e487b7160e01b600052600060045260246000fd5b604051906122c28261122c565b6060602083600081520152565b604051906122dc8261122c565b816122e56122b5565b815260206122f16122b5565b910152565b80518210156102535760209160051b010190565b906040519182600082549261231e84611dae565b90818452600194858116908160001461238b5750600114612348575b50506115b192500383611262565b9093915060005260209081600020936000915b8183106123735750506115b19350820101388061233a565b8554888401850152948501948794509183019161235b565b9150506115b194506020925060ff191682840152151560051b820101388061233a565b90604051916123bc8361122c565b6020836123c883611372565b81526118276003604051946123dc8661122c565b60ff60028201541686520161230a565b6123f68154611dae565b9081612400575050565b81601f60009311600114612412575055565b908083918252612431601f60208420940160051c840160018501611576565b5555565b60036115b1916000815561244b6001820161158d565b60006002820155016123ec565b601a81146124c657601a54906001600160401b0382116102695761247c82826115b3565b60009081526020812060008051602061275a83398151915280545b8484106124a5575050505050565b600191820180546001600160a01b0390921684860155939091019290612497565b50565b6001600160a01b039190828116156125d5576040516124e78161122c565b6001600160401b03601954168152604051918291601a54928385526020809501946000978895601a875260008051602061275a8339815191529187905b8282106125b9575050505061253e8261255c970383611262565b82015260405163aa5106cb60e01b815293849283926004840161154e565b038173__$a0fe38a9a81205afccc10810b09a4d3f45$__5af49081156125ae578361258f939492612593575b50506125e7565b9091565b6125a792503d8091833e6103058183611262565b3880612588565b6040513d85823e3d90fd5b835481168a52988401988b985060019384019390910190612524565b6040516370e4510960e01b8152600490fd5b61262573__$a0fe38a9a81205afccc10810b09a4d3f45$__91604051906390ba52cf60e01b82528180602094859384600484015260248301906114f3565b0381865af49081156102b4576000916126ca575b509061267c91600052600081528060406000209361265960048601611372565b906040518080968194630c133d1360e31b835286600484015260248301906114f3565b03915af49081156102b457600091612696575b5090501591565b82813d83116126c3575b6126aa8183611262565b81010312611d4757506126bc9061182f565b803861268f565b503d6126a0565b908282813d83116126f2575b6126e08183611262565b81010312611d4757505161267c612639565b503d6126d6565b90156127375781511561270a575090565b803b15612715575090565b604051639996b31560e01b81526001600160a01b039091166004820152602490fd5b5080511561274757805190602001fd5b604051630a12f52160e11b8152600490fdfe057c384a7d1c54f3a1b2e5e67b2617b8224fdfd1ea7234eea573a6ff665ff63ea2646970667358221220e9822ce9802995e244f692f259180be2c22f9ba9e6bd1882abdb22d2ac45d36464736f6c63430008130033","linkReferences":{"src/lib/CrossMsgHelper.sol":{"CrossMsgHelper":[{"start":1430,"length":20},{"start":3728,"length":20},{"start":4280,"length":20}]},"src/lib/SubnetIDHelper.sol":{"SubnetIDHelper":[{"start":226,"length":20},{"start":1120,"length":20},{"start":3297,"length":20},{"start":3582,"length":20},{"start":4110,"length":20},{"start":7124,"length":20},{"start":9596,"length":20},{"start":9736,"length":20}]}}},"methodIdentifiers":{"addStake()":"5a627dbc","fund((uint64,address[]),(uint8,bytes))":"18f44b70","fundWithToken((uint64,address[]),(uint8,bytes),uint256)":"0517e1aa","kill()":"41c0e1b5","register(uint256)":"f207564e","release((uint8,bytes))":"6b2c1eef","releaseRewardForRelayer(uint256)":"d8e25572","releaseStake(uint256)":"45f54485"},"id":48}