{"abi":[{"type":"function","name":"addStake","inputs":[],"outputs":[],"stateMutability":"payable"},{"type":"function","name":"fund","inputs":[{"name":"subnetId","type":"tuple","internalType":"struct SubnetID","components":[{"name":"root","type":"uint64","internalType":"uint64"},{"name":"route","type":"address[]","internalType":"address[]"}]},{"name":"to","type":"tuple","internalType":"struct FvmAddress","components":[{"name":"addrType","type":"uint8","internalType":"uint8"},{"name":"payload","type":"bytes","internalType":"bytes"}]}],"outputs":[],"stateMutability":"payable"},{"type":"function","name":"fundWithToken","inputs":[{"name":"subnetId","type":"tuple","internalType":"struct SubnetID","components":[{"name":"root","type":"uint64","internalType":"uint64"},{"name":"route","type":"address[]","internalType":"address[]"}]},{"name":"to","type":"tuple","internalType":"struct FvmAddress","components":[{"name":"addrType","type":"uint8","internalType":"uint8"},{"name":"payload","type":"bytes","internalType":"bytes"}]},{"name":"amount","type":"uint256","internalType":"uint256"}],"outputs":[],"stateMutability":"nonpayable"},{"type":"function","name":"kill","inputs":[],"outputs":[],"stateMutability":"nonpayable"},{"type":"function","name":"register","inputs":[{"name":"genesisCircSupply","type":"uint256","internalType":"uint256"}],"outputs":[],"stateMutability":"payable"},{"type":"function","name":"release","inputs":[{"name":"to","type":"tuple","internalType":"struct FvmAddress","components":[{"name":"addrType","type":"uint8","internalType":"uint8"},{"name":"payload","type":"bytes","internalType":"bytes"}]}],"outputs":[],"stateMutability":"payable"},{"type":"function","name":"releaseRewardForRelayer","inputs":[{"name":"amount","type":"uint256","internalType":"uint256"}],"outputs":[],"stateMutability":"nonpayable"},{"type":"function","name":"releaseStake","inputs":[{"name":"amount","type":"uint256","internalType":"uint256"}],"outputs":[],"stateMutability":"nonpayable"},{"type":"error","name":"AddressEmptyCode","inputs":[{"name":"target","type":"address","internalType":"address"}]},{"type":"error","name":"AddressInsufficientBalance","inputs":[{"name":"account","type":"address","internalType":"address"}]},{"type":"error","name":"AlreadyRegisteredSubnet","inputs":[]},{"type":"error","name":"CallFailed","inputs":[]},{"type":"error","name":"CannotReleaseZero","inputs":[]},{"type":"error","name":"FailedInnerCall","inputs":[]},{"type":"error","name":"InsufficientFunds","inputs":[]},{"type":"error","name":"InvalidActorAddress","inputs":[]},{"type":"error","name":"InvalidCrossMsgValue","inputs":[]},{"type":"error","name":"MethodNotAllowed","inputs":[{"name":"reason","type":"string","internalType":"string"}]},{"type":"error","name":"NotEmptySubnetCircSupply","inputs":[]},{"type":"error","name":"NotEnoughFunds","inputs":[]},{"type":"error","name":"NotEnoughFundsToRelease","inputs":[]},{"type":"error","name":"NotRegisteredSubnet","inputs":[]},{"type":"error","name":"ReentrancyError","inputs":[]},{"type":"error","name":"SafeERC20FailedOperation","inputs":[{"name":"token","type":"address","internalType":"address"}]},{"type":"error","name":"UnexpectedSupplySource","inputs":[]}],"bytecode":{"object":"0x60808060405234610016576126cb908161001c8239f35b600080fdfe608080604052600436101561001357600080fd5b60003560e01c9081630517e1aa14610ec75750806318f44b7014610ce157806341c0e1b514610b9257806345f5448514610b015780635a627dbc14610ad15780636b2c1eef146104e0578063d8e25572146103a05763f207564e1461007757600080fd5b6020806003193601126102935760043590601a5460019081810180911161038a5760ff602b54161115610311578234106102ff576100f66100b88434611272565b936100c161127f565b90600073__$a0fe38a9a81205afccc10810b09a4d3f45$__926040518095819263aa5106cb60e01b83523390600484016114ec565b0381855af492831561029f576000936102da575b5061011483612523565b906102c85760048101966001600160401b0397888651166001600160401b03198254161790556005820187860151908151918a831161025457908983926101618299979a98969584611551565b0190600052866000208960005b8481106102ab575050505050856002916101ac97554388820155015560405180809581946390ba52cf60e01b83528660048401526024830190611491565b03915af492831561029f5760009361026a575b505060185490600160401b8210156102545781018060185581101561023e5760186000527fb13d2d76d1f4b7be834882e410b3e3a8afaf69f83600ae24db354391d2378d2e0155601c54906102236001600160401b0360881b918360881c16611585565b60881b1667ffffffffffffffff60881b199190911617601c55005b634e487b7160e01b600052603260045260246000fd5b634e487b7160e01b600052604160045260246000fd5b9080929350813d8311610298575b61028281836111ee565b8101031261029357519038806101bf565b600080fd5b503d610278565b6040513d6000823e3d90fd5b83516001600160a01b0316838201558c99909301928b910161016e565b604051631b538cdf60e11b8152600490fd5b6102f89193503d806000833e6102f081836111ee565b810190611469565b913861010a565b604051631036b5ad60e31b8152600490fd5b5060405190606082018281106001600160401b0382111761025457604052602382527f5375626e657420646f6573206e6f7420616c6c6f77206368696c64207375626e818301526265747360e81b604083015261038660405192839263015538b160e01b84526004840152602483019061124d565b0390fd5b634e487b7160e01b600052601160045260246000fd5b346102935760208060031936011261029357600435907f691bb03ffc16c56fc96b82fd16cd1b3715f0bc3cdc6407005f49bb62058600959060018254146104ce576001825582156104bc576103f43361248b565b90156104aa578161040a600461042b9301611310565b60405180938192632cff562160e11b83528460048401526024830190611491565b038173__$a0fe38a9a81205afccc10810b09a4d3f45$__5af491821561029f5760009261046c575b600084610469876001600160a01b0387166115cd565b55005b90809250813d83116104a3575b61048381836111ee565b810103126102935760009261049a610469926113b2565b91819450610453565b503d610479565b604051630e991abd60e41b8152600490fd5b60405163c79cad7b60e01b8152600490fd5b6040516329f745a760e01b8152600490fd5b600319602036820112610293576004356001600160401b038111610293576040828236030112610293573415610abf57604051632e82508d60e21b815260a060048201529160009183918291610555919061053d60a48501611a06565b913360248601528483030160448501526004016118d1565b346064830152836084830152038173__$33b79814e84bf6cf5e47244090b19ce5f8$__5af490811561029f57600091610a9c575b50601e54908115610a8657816001600160401b034316046001810180911161038a5782810292818404149015171561038a57601c5468ffffffffffffffff006105e46001600160401b038360081c1680606086510152611585565b60081b169068ffffffffffffffff00191617601c558160005260096020526040600020916002830180541560001461069f579260039161062e9460198303610673575b5501611d98565b3447106106615760008080803460635af161064761159d565b501561064f57005b604051633204506f60e01b8152600490fd5b60405163356680b760e01b8152600490fd5b6001600160401b03601954166001600160401b031984541617835561069a60018401612408565b610627565b50506003820154601f546001600160401b031603610a75576003820154916106c68361139b565b926106d460405194856111ee565b808452601f196106e38261139b565b0160005b818110610a0d575050604051938460608101106001600160401b03606087011117610254576060850160405261071b61127f565b8552436020860152604085015260005b81811061094b5750604051602081526107508551606060208401526080830190611491565b9060208601516040820152604086015191601f19828203016060830152825180825260208201916020808360051b8301019501926000915b83831061091e575050505050807f39504a936d8c0cbc12ddec43d5f3e7a937285064bed71961953e3de67d86215e9143930390a260006003830155806108ac575b509060036107d79201611d98565b60208101516000526009602052604060002081516001600160401b038151166001600160401b0319835416178255602060018301910151908151916001600160401b0383116102545760209061082d8484611551565b0190600052602060002060005b83811061088f57505050602083015160028301555060408201515160039091019160005b82811061086e575050505061062e565b8061088961088260019360408601516122a6565b5186611d98565b0161085e565b82516001600160a01b03168183015560209092019160010161083a565b80600d0290600d82040361038a57600382016000526020600020908101905b8181106108d857506107c9565b806108e4600d926123e5565b6108f0600482016123e5565b600060088201556000600982015561090a600a820161239c565b6000600b8201556000600c820155016108cb565b909192939560208061093c600193601f198682030187528a51611ac1565b98019301930191939290610788565b80610a068161095f60019460038801611d42565b5060408901519060ff600c60405192610977846111b8565b604051610983816111d3565b61098c8261235e565b815261099a6004830161235e565b60208201526008820154604082015260098201546001600160401b038116606083015260a01b6001600160e01b03191660808201526109db600a83016122ba565b60a0820152600b82015460c0820152845201541615156020820152610a0083836122a6565b526122a6565b500161072b565b602090604051610a1c816111b8565b604051610a28816111d3565b610a3061227f565b8152610a3a61227f565b84820152600060408201526000606082015260006080820152606060a0820152600060c08201528152600083820152828289010152016106e7565b6003610a819201611d98565b61062e565b634e487b7160e01b600052601260045260246000fd5b610ab991503d806000833e610ab181836111ee565b8101906117da565b81610589565b6040516360ec4e6b60e11b8152600490fd5b60003660031901126102935734156102ff57610aec3361248b565b90156104aa57610afd3482546111ab565b9055005b346102935760208060031936011261029357600435907f691bb03ffc16c56fc96b82fd16cd1b3715f0bc3cdc6407005f49bb62058600959060018254146104ce576001825582156104bc57610b553361248b565b90156104aa578054848110610b805761040a600461042b93610b78888795611272565b815501611310565b6040516379b33e7960e01b8152600490fd5b3461029357600036600319011261029357610bac3361248b565b90156104aa576002810154610ccf578054601c546001600160401b03600019818360881c160190811161038a5767ffffffffffffffff60881b1990911660889190911b67ffffffffffffffff60881b1617601c55610c3591610c1090600401611310565b604051906390ba52cf60e01b8252818060209586938460048401526024830190611491565b038173__$a0fe38a9a81205afccc10810b09a4d3f45$__5af490811561029f57600091610ca0575b50610c9e92600091825252610c986005604060002060008155600060018201556000600282015560006003820155600060048201550161152b565b336115cd565b005b90508281813d8311610cc8575b610cb781836111ee565b810103126102935751610c9e610c5d565b503d610cad565b604051637c67c70160e11b8152600490fd5b600319604036820112610293576004356001600160401b03918282116102935760408183600401933603011261029357602435928311610293576040908336030112610293573415610abf57610d3f610d3a3683611620565b612523565b50156104aa57610d54602061040a3684611620565b038173__$a0fe38a9a81205afccc10810b09a4d3f45$__5af490811561029f57600091610e89575b50604080516380875df760e01b815291829060049082906001600160a01b03165afa90811561029f57600091610e5a575b50516002811015610e4457610e3257610de69160009160405193849283926379185f5960e11b845234916004019033906004860161193c565b038173__$33b79814e84bf6cf5e47244090b19ce5f8$__5af4801561029f57610c9e91600091610e17575b50611b5a565b610e2c91503d806000833e610ab181836111ee565b82610e11565b6040516340772cb360e11b8152600490fd5b634e487b7160e01b600052602160045260246000fd5b610e7c915060403d604011610e82575b610e7481836111ee565b8101906116c3565b83610dad565b503d610e6a565b90506020813d8211610ebf575b81610ea3602093836111ee565b81010312610293576040610eb86004926113b2565b9150610d7c565b3d9150610e96565b346102935760031990606036830112610293576004356001600160401b03928382116102935760408183600401933603011261029357602480359185831161029357604090833603011261029357604435947f691bb03ffc16c56fc96b82fd16cd1b3715f0bc3cdc6407005f49bb620586009594600186541461119c575060018555610f7a610f563686611620565b60405190632cff562160e11b82528180602094859384600484015288830190611491565b038173__$a0fe38a9a81205afccc10810b09a4d3f45$__5af490811561029f57600091611167575b506040516380875df760e01b815260408160048160018060a01b038096165afa90811561029f57600091611148575b508051600281101561113357600103610e32578051600281101561113357600114611071575b50505050509060009161102460405195869384936379185f5960e11b85526004019033906004860161193c565b038173__$33b79814e84bf6cf5e47244090b19ce5f8$__5af491821561029f576000926104699184916110575750611b5a565b61106b91503d8086833e610ab181836111ee565b84610e11565b8201511691604051828101916323b872dd60e01b835233868301523060448301528960648301526064825260a08201908282109082111761111e57604052516110cc91600091829182875af16110c561159d565b9084612635565b80519182151592836110fd575b5050506110e857808080610ff7565b60405190635274afe760e01b82526004820152fd5b829350918192810103126102935761111591016117cd565b158780806110d9565b85634e487b7160e01b60005260416004526000fd5b85634e487b7160e01b60005260216004526000fd5b611161915060403d604011610e8257610e7481836111ee565b89610fd1565b90508181813d8311611195575b61117e81836111ee565b810103126102935761118f906113b2565b88610fa2565b503d611174565b6329f745a760e01b8152600490fd5b9190820180921161038a57565b604081019081106001600160401b0382111761025457604052565b60e081019081106001600160401b0382111761025457604052565b90601f801991011681019081106001600160401b0382111761025457604052565b6001600160401b03811161025457601f01601f191660200190565b60005b83811061123d5750506000910152565b818101518382015260200161122d565b906020916112668151809281855285808601910161122a565b601f01601f1916010190565b9190820391821161038a57565b6040519061128c826111b8565b816001600160401b036019541681526040518091601a54808352836020809401601a6000527f057c384a7d1c54f3a1b2e5e67b2617b8224fdfd1ea7234eea573a6ff665ff63e9260005b868282106112f1575050506112ed925003846111ee565b0152565b85546001600160a01b03168452600195860195899550930192016112d6565b9060405161131d816111b8565b80926001600160401b03815416825260018091019160405191828481955492838652602080960191600052856000209060005b8786821061136857505050506112ed925003846111ee565b83546001600160a01b0316855289955090930192918101918101611350565b51906001600160401b038216820361029357565b6001600160401b0381116102545760051b60200190565b51906001600160a01b038216820361029357565b919060408382031261029357604051926113df846111b8565b836113e982611387565b815260209182810151906001600160401b03821161029357019280601f850112156102935783516114198161139b565b9461142760405196876111ee565b818652848087019260051b8201019283116102935784809101915b83831061145157505050500152565b819061145c846113b2565b8152019101908490611442565b906020828203126102935781516001600160401b0381116102935761148e92016113c6565b90565b60609060408301906001600160401b03815116845260209283809201519460408382015285518094520193019160005b8281106114cf575050505090565b83516001600160a01b0316855293810193928101926001016114c1565b90611504602091949394604084526040840190611491565b6001600160a01b03909416910152565b81811061151f575050565b60008155600101611514565b8054600082558061153a575050565b61154f91600052602060002090810190611514565b565b90600160401b81116102545781549080835581811061156f57505050565b61154f9260005260206000209182019101611514565b9060016001600160401b038093160191821161038a57565b3d156115c8573d906115ae8261120f565b916115bc60405193846111ee565b82523d6000602084013e565b606090565b814710610661576000918291829182916001600160a01b03165af16115f061159d565b501561064f57565b35906001600160401b038216820361029357565b35906001600160a01b038216820361029357565b91906040838203126102935760405192611639846111b8565b83611643826115f8565b815260209182810135906001600160401b03821161029357019280601f850112156102935783356116738161139b565b9461168160405196876111ee565b818652848087019260051b8201019283116102935784809101915b8383106116ab57505050500152565b81906116b68461160c565b815201910190849061169c565b9081604091031261029357604051906116db826111b8565b805160028110156102935782526116f4906020016113b2565b602082015290565b81601f820112156102935780516117128161120f565b9261172060405194856111ee565b818452602082840101116102935761148e916020808501910161122a565b91906040838203126102935760405192611757846111b8565b838151916001600160401b039283811161029357846117779183016113c6565b82526020810151908382116102935701604081850312610293576040519361179e856111b8565b815160ff811681036102935785526020820151938411610293576020936117c592016116fc565b828401520152565b5190811515820361029357565b906020828203126102935781516001600160401b03928382116102935701916040838303126102935760405192611810846111b8565b80518281116102935781019260e0848203126102935760405190611833826111d3565b8451848111610293578161184891870161173e565b82526020850151848111610293578161186291870161173e565b60208301526040850151604083015261187d60608601611387565b606083015260808501516001600160e01b03198116810361029357608083015260a085015193841161029357846118bd60c0926020966116f498016116fc565b60a0840152015160c08201528452016117cd565b803560ff81168091036102935782526020810135601e1982360301811215610293570190602082359201916001600160401b038111610293578036038313610293578060609360406020850152816040850152848401376000828201840152601f01601f1916010190565b929094939460a0845260e08401926001600160401b03938461195d846115f8565b1660a087015260209283810135601e19823603018112156102935701908382359201958211610293578160051b36038613610293578190604060c0890152526101008601949060005b8181106119e1575050506001600160a01b031690840152828203604084015260009260809290916119d791906118d1565b9460608201520152565b9091958480600192838060a01b036119f88b61160c565b1681520197019291016119a6565b60408101906001600160401b036019541681526060602091604083820152601a548094520191601a6000527f057c384a7d1c54f3a1b2e5e67b2617b8224fdfd1ea7234eea573a6ff665ff63e916000905b828210611a65575050505090565b83546001600160a01b031685529384019360019384019390910190611a57565b6040602061148e9381611a9f855185845285840190611491565b940151908281860391015260ff8151168452015191816020820152019061124d565b906020808351936040845260c0611b47611ae8875160e06040890152610120880190611a85565b611b038589015191603f1992838a83030160608b0152611a85565b90604089015160808901526001600160401b0360608a01511660a089015263ffffffff60e01b60808a0151168489015260a0890151908883030160e089015261124d565b9501516101008501520151151591015290565b611bb760209182815101515173__$a0fe38a9a81205afccc10810b09a4d3f45$__90604091611b9f83519263089032d560e01b84528460048501526044840190611491565b60031983820301602484015282806000978893611a06565b0381845af4918215611d38578592611d1c575b50611bd482612523565b9015611d0b57918691836003611c4896950180546001600160401b03611c028183168060608d510152611585565b16906001600160401b031916179055611c256002868951015192019182546111ab565b9055835180809681946304e384ff60e21b83528660048401526024830190611491565b03915af4918215611d01578492611c9f575b507f392fae29c67f3b47710cb5b84d7a6fd08e0155a4f22565971f7159f12c6f70969350611c9a905192839286845260018060a01b031695830190611ac1565b0390a2565b915091928482813d8311611cfa575b611cb881836111ee565b81010312611cf7575090611c9a611cf07f392fae29c67f3b47710cb5b84d7a6fd08e0155a4f22565971f7159f12c6f709694936113b2565b9190611c5a565b80fd5b503d611cae565b81513d86823e3d90fd5b8351630e991abd60e41b8152600490fd5b611d319192503d8087833e6102f081836111ee565b9038611bca565b83513d87823e3d90fd5b805482101561023e57600052600d602060002091020190600090565b90600182811c92168015611d8e575b6020831014611d7857565b634e487b7160e01b600052602260045260246000fd5b91607f1691611d6d565b8054600160401b81101561025457611db7906001928382018155611d42565b91909161224f578251918251928351926001600160401b03808551166001600160401b0319908186541617855582850192602080970151805190848211610254578890611e048388611551565b01600095865288862083875b848110612234575050505050866002870198015160ff8151169860ff19998a8254161790556003928884890192015191825186811161214e5780611e548354611d5e565b94898d601f9788808211612207575b505050508c9086831160011461219c578a92612191575b505060001982881b1c191690851b1790555b6004880190898801519182519187835116908254161790558960058a019101519081519187831161217d578b90611ec38484611551565b019088528a882085895b84811061216257505050505088600689019101519060ff8251168b825416179055886007890191015180519086821161214e578190611f0c8454611d5e565b8c868211612121575b50508b908583116001146120c25789926120b7575b505060001982871b1c191690841b1790555b6040860151600888015560098701846060880151168154906bffffffff000000000000000060808a015160a01c16916bffffffffffffffffffffffff191617179055600a87019460a08701519081519586116120a357611f9c8754611d5e565b8a84821161206c575b505089928611600114611ffd57938560ff9a999794819460c09894600c9b9895611ff2575b50501b92600019911b1c19161790555b0151600b820155019301511515918354169116179055565b015193503880611fca565b9294939190601f1985168785528a8520945b818110612057575092859260ff9b9a989592600c9a9760c099961061203d575b50505050811b019055611fda565b01519060f884600019921b161c191690553880808061202f565b82840151865594870194928b01928b0161200f565b612093918984528582852091818b0160051c8301938b1061209a575b0160051c0190611514565b388a611fa5565b92508192612088565b634e487b7160e01b81526041600452602490fd5b015190503880611f2a565b848a528c8a208794509190601f1984168b8f5b82821061210a57505084116120f2575b505050811b019055611f3c565b015160001983891b60f8161c191690553880806120e5565b8385015186558a979095019493840193018f6120d5565b61214791868c5287828d209181870160051c830193871061209a570160051c0190611514565b388c611f15565b634e487b7160e01b88526041600452602488fd5b83516001600160a01b031683820155928d0192879101611ecd565b634e487b7160e01b89526041600452602489fd5b015190503880611e7a565b879350908d91601f198416868d52838d20938d905b8282106121e657505084116121ce575b505050811b019055611e8c565b0151600019838a1b60f8161c191690553880806121c1565b91929395968291958786015181550195019301908f918a96959493926121b1565b82848961222b9652209181870160051c830193871061209a570160051c0190611514565b898d3888611e63565b83516001600160a01b031683820155928b0192859101611e10565b634e487b7160e01b600052600060045260246000fd5b60405190612272826111b8565b6060602083600081520152565b6040519061228c826111b8565b81612295612265565b815260206122a1612265565b910152565b805182101561023e5760209160051b010190565b90604051918260008254926122ce84611d5e565b90818452600194858116908160001461233b57506001146122f8575b505061154f925003836111ee565b9093915060005260209081600020936000915b81831061232357505061154f935082010138806122ea565b8554888401850152948501948794509183019161230b565b91505061154f94506020925060ff191682840152151560051b82010138806122ea565b906040519161236c836111b8565b60208361237883611310565b81526117c560036040519461238c866111b8565b60ff6002820154168652016122ba565b6123a68154611d5e565b90816123b0575050565b81601f600093116001146123c2575055565b9080839182526123e1601f60208420940160051c840160018501611514565b5555565b600361154f91600081556123fb6001820161152b565b600060028201550161239c565b601a811461248857601a54906001600160401b0382116102545761242c8282611551565b6000908152602081207f057c384a7d1c54f3a1b2e5e67b2617b8224fdfd1ea7234eea573a6ff665ff63e80545b848410612467575050505050565b600191820180546001600160a01b0390921684860155939091019290612459565b50565b6001600160a01b038116156125115760006124c3916124a861127f565b60405163aa5106cb60e01b81529384928392600484016114ec565b038173__$a0fe38a9a81205afccc10810b09a4d3f45$__5af4801561029f576124f4916000916124f8575b50612523565b9091565b61250b913d8091833e6102f081836111ee565b386124ee565b6040516370e4510960e01b8152600490fd5b61256173__$a0fe38a9a81205afccc10810b09a4d3f45$__91604051906390ba52cf60e01b8252818060209485938460048401526024830190611491565b0381865af490811561029f57600091612606575b50906125b891600052600081528060406000209361259560048601611310565b906040518080968194630c133d1360e31b83528660048401526024830190611491565b03915af490811561029f576000916125d2575b5090501591565b82813d83116125ff575b6125e681836111ee565b81010312611cf757506125f8906117cd565b80386125cb565b503d6125dc565b908282813d831161262e575b61261c81836111ee565b81010312611cf75750516125b8612575565b503d612612565b901561267357815115612646575090565b803b15612651575090565b604051639996b31560e01b81526001600160a01b039091166004820152602490fd5b5080511561268357805190602001fd5b604051630a12f52160e11b8152600490fdfea2646970667358221220dd92a67b67699877016ad359a138b85ca6f355bae9c3a9f9e69e9c5d927b8a0264736f6c63430008130033","linkReferences":{"src/lib/CrossMsgHelper.sol":{"CrossMsgHelper":[{"start":1409,"length":20},{"start":3590,"length":20},{"start":4164,"length":20}]},"src/lib/SubnetIDHelper.sol":{"SubnetIDHelper":[{"start":226,"length":20},{"start":1099,"length":20},{"start":3157,"length":20},{"start":3444,"length":20},{"start":3994,"length":20},{"start":7044,"length":20},{"start":9443,"length":20},{"start":9540,"length":20}]}}},"methodIdentifiers":{"addStake()":"5a627dbc","fund((uint64,address[]),(uint8,bytes))":"18f44b70","fundWithToken((uint64,address[]),(uint8,bytes),uint256)":"0517e1aa","kill()":"41c0e1b5","register(uint256)":"f207564e","release((uint8,bytes))":"6b2c1eef","releaseRewardForRelayer(uint256)":"d8e25572","releaseStake(uint256)":"45f54485"},"id":47}