{"abi":[{"type":"function","name":"addStake","inputs":[],"outputs":[],"stateMutability":"payable"},{"type":"function","name":"fund","inputs":[{"name":"subnetId","type":"tuple","internalType":"struct SubnetID","components":[{"name":"root","type":"uint64","internalType":"uint64"},{"name":"route","type":"address[]","internalType":"address[]"}]},{"name":"to","type":"tuple","internalType":"struct FvmAddress","components":[{"name":"addrType","type":"uint8","internalType":"uint8"},{"name":"payload","type":"bytes","internalType":"bytes"}]}],"outputs":[],"stateMutability":"payable"},{"type":"function","name":"kill","inputs":[],"outputs":[],"stateMutability":"nonpayable"},{"type":"function","name":"register","inputs":[{"name":"genesisCircSupply","type":"uint256","internalType":"uint256"}],"outputs":[],"stateMutability":"payable"},{"type":"function","name":"release","inputs":[{"name":"to","type":"tuple","internalType":"struct FvmAddress","components":[{"name":"addrType","type":"uint8","internalType":"uint8"},{"name":"payload","type":"bytes","internalType":"bytes"}]}],"outputs":[],"stateMutability":"payable"},{"type":"function","name":"releaseRewardForRelayer","inputs":[{"name":"amount","type":"uint256","internalType":"uint256"}],"outputs":[],"stateMutability":"nonpayable"},{"type":"function","name":"releaseStake","inputs":[{"name":"amount","type":"uint256","internalType":"uint256"}],"outputs":[],"stateMutability":"nonpayable"},{"type":"error","name":"AlreadyRegisteredSubnet","inputs":[]},{"type":"error","name":"CallFailed","inputs":[]},{"type":"error","name":"CannotReleaseZero","inputs":[]},{"type":"error","name":"InsufficientFunds","inputs":[]},{"type":"error","name":"InvalidActorAddress","inputs":[]},{"type":"error","name":"InvalidCrossMsgValue","inputs":[]},{"type":"error","name":"MethodNotAllowed","inputs":[{"name":"reason","type":"string","internalType":"string"}]},{"type":"error","name":"NotEmptySubnetCircSupply","inputs":[]},{"type":"error","name":"NotEnoughCollateral","inputs":[]},{"type":"error","name":"NotEnoughFunds","inputs":[]},{"type":"error","name":"NotEnoughFundsToRelease","inputs":[]},{"type":"error","name":"NotRegisteredSubnet","inputs":[]},{"type":"error","name":"ReentrancyError","inputs":[]}],"bytecode":{"object":"0x60808060405234610016576121d3908161001c8239f35b600080fdfe608080604052600436101561001357600080fd5b60003560e01c90816318f44b7014610da05750806341c0e1b514610c5357806345f5448514610b9e5780635a627dbc14610b1b5780636b2c1eef14610505578063d8e25572146103c55763f207564e1461006c57600080fd5b6020806003193601126102a75760043590601a546001908181018091116103af5760ff602c5416111561033657823410610324576100aa8334611190565b92601b548410610313576100f5906100c061119d565b90600073__$a0fe38a9a81205afccc10810b09a4d3f45$__926040518095819263aa5106cb60e01b835233906004840161140a565b0381855af49283156102b3576000936102ee575b5061011383612088565b906102dc5760048101966001600160401b0397888651166001600160401b03198254161790556005820187860151908151918a831161026857908983926101608299979a9896958461146f565b0190600052866000208960005b8481106102bf575050505050856002916101c0975560038101600160801b60ff60801b198254161790554388820155015560405180809581946390ba52cf60e01b835286600484015260248301906113af565b03915af49283156102b35760009361027e575b505060185490600160401b821015610268578101806018558110156102525760186000527fb13d2d76d1f4b7be834882e410b3e3a8afaf69f83600ae24db354391d2378d2e0155601d54906102376001600160401b0360881b918360881c166114a3565b60881b1667ffffffffffffffff60881b199190911617601d55005b634e487b7160e01b600052603260045260246000fd5b634e487b7160e01b600052604160045260246000fd5b9080929350813d83116102ac575b610296818361110c565b810103126102a757519038806101d3565b600080fd5b503d61028c565b6040513d6000823e3d90fd5b83516001600160a01b0316838201558c99909301928b910161016d565b604051631b538cdf60e11b8152600490fd5b61030c9193503d806000833e610304818361110c565b810190611387565b9138610109565b60405162d11df360e61b8152600490fd5b604051631036b5ad60e31b8152600490fd5b5060405190606082018281106001600160401b0382111761026857604052602382527f5375626e657420646f6573206e6f7420616c6c6f77206368696c64207375626e818301526265747360e81b60408301526103ab60405192839263015538b160e01b84526004840152602483019061116b565b0390fd5b634e487b7160e01b600052601160045260246000fd5b346102a7576020806003193601126102a757600435907f691bb03ffc16c56fc96b82fd16cd1b3715f0bc3cdc6407005f49bb62058600959060018254146104f3576001825582156104e15761041933611ff0565b90156104cf578161042f6004610450930161122e565b60405180938192632cff562160e11b835284600484015260248301906113af565b038173__$a0fe38a9a81205afccc10810b09a4d3f45$__5af49182156102b357600092610491575b60008461048e876001600160a01b0387166114bb565b55005b90809250813d83116104c8575b6104a8818361110c565b810103126102a7576000926104bf61048e926112d0565b91819450610478565b503d61049e565b604051630e991abd60e41b8152600490fd5b60405163c79cad7b60e01b8152600490fd5b6040516329f745a760e01b8152600490fd5b6003196020368201126102a7576004356001600160401b0381116102a75760408282360301126102a7573415610b0957604051632e82508d60e21b815260a06004820152916000918391829161057a919061056260a48501611753565b913360248601528483030160448501526004016116e8565b346064830152836084830152038173__$33b79814e84bf6cf5e47244090b19ce5f8$__5af49081156102b357600091610ae6575b50601f54908115610ad057816001600160401b03431604600181018091116103af578281029281840414901517156103af57601d5468ffffffffffffffff006106096001600160401b038360081c16806060865101526114a3565b60081b169068ffffffffffffffff00191617601d55816000526009602052604060002091600283018054156000146106e9579260039161065394601983036106bd575b55016118fd565b3447106106ab5760008080803460635af13d156106a6573d6106748161112d565b90610682604051928361110c565b8152600060203d92013e5b1561069457005b604051633204506f60e01b8152600490fd5b61068d565b60405163356680b760e01b8152600490fd5b6001600160401b03601954166001600160401b03198454161783556106e460018401611f6d565b61064c565b505060038201546020546001600160401b031603610abf57600382015491610710836112b9565b9261071e604051948561110c565b808452601f1961072d826112b9565b0160005b818110610a57575050604051938460608101106001600160401b03606087011117610268576060850160405261076561119d565b8552436020860152604085015260005b81811061099557506040516020815261079a85516060602084015260808301906113af565b9060208601516040820152604086015191601f19828203016060830152825180825260208201916020808360051b8301019501926000915b838310610968575050505050807f39504a936d8c0cbc12ddec43d5f3e7a937285064bed71961953e3de67d86215e9143930390a260006003830155806108f6575b5090600361082192016118fd565b60208101516000526009602052604060002081516001600160401b038151166001600160401b0319835416178255602060018301910151908151916001600160401b03831161026857602090610877848461146f565b0190600052602060002060005b8381106108d957505050602083015160028301555060408201515160039091019160005b8281106108b85750505050610653565b806108d36108cc6001936040860151611e0b565b51866118fd565b016108a8565b82516001600160a01b031681830155602090920191600101610884565b80600d0290600d8204036103af57600382016000526020600020908101905b8181106109225750610813565b8061092e600d92611f4a565b61093a60048201611f4a565b6000600882015560006009820155610954600a8201611f01565b6000600b8201556000600c82015501610915565b9091929395602080610986600193601f198682030187528a5161180e565b980193019301919392906107d2565b80610a50816109a9600194600388016118a7565b5060408901519060ff600c604051926109c1846110d6565b6040516109cd816110f1565b6109d682611ec3565b81526109e460048301611ec3565b60208201526008820154604082015260098201546001600160401b038116606083015260a01b6001600160e01b0319166080820152610a25600a8301611e1f565b60a0820152600b82015460c0820152845201541615156020820152610a4a8383611e0b565b52611e0b565b5001610775565b602090604051610a66816110d6565b604051610a72816110f1565b610a7a611de4565b8152610a84611de4565b84820152600060408201526000606082015260006080820152606060a0820152600060c0820152815260008382015282828901015201610731565b6003610acb92016118fd565b610653565b634e487b7160e01b600052601260045260246000fd5b610b0391503d806000833e610afb818361110c565b8101906115e9565b816105ae565b6040516360ec4e6b60e11b8152600490fd5b60003660031901126102a757341561032457610b3633611ff0565b90156104cf576003610b493483546110c9565b91828155019081549060ff8260801c166006811015610b8857600214610b6b57005b601b541115610b77575b005b60ff60801b1916600160801b179055005b634e487b7160e01b600052602160045260246000fd5b346102a7576020806003193601126102a757600435907f691bb03ffc16c56fc96b82fd16cd1b3715f0bc3cdc6407005f49bb62058600959060018254146104f3576001825582156104e157610bf233611ff0565b90156104cf578054848110610c415761042f600461045093610c15888795611190565b808255601b5411610c27575b0161122e565b60038101805460ff60801b1916600160811b179055610c21565b6040516379b33e7960e01b8152600490fd5b346102a75760003660031901126102a757610c6d33611ff0565b90156104cf576002810154610d8e578054601d546001600160401b03600019818360881c16019081116103af5767ffffffffffffffff60881b1990911660889190911b67ffffffffffffffff60881b1617601d55610cf691610cd19060040161122e565b604051906390ba52cf60e01b82528180602095869384600484015260248301906113af565b038173__$a0fe38a9a81205afccc10810b09a4d3f45$__5af49081156102b357600091610d5f575b50610b7592600091825252610d5960056040600020600081556000600182015560006002820155600060038201556000600482015501611449565b336114bb565b90508281813d8311610d87575b610d76818361110c565b810103126102a75751610b75610d1e565b503d610d6c565b604051637c67c70160e11b8152600490fd5b600319906040368301126102a7576004356001600160401b038082116102a7578136036040858201126102a7576024938435908382116102a75760408783360301126102a75734156110ba5750604051936379185f5960e11b855260a0600486015260e485019281600401358581168091036102a75760a48701528187013590602219018112156102a757018560048201359101928482116102a7578160051b360384136102a757908086939492604060c486015252610104830191906000905b80821061108857505050610e8a82916000943389850152898483030160448501526004016116e8565b346064830152836084830152038173__$33b79814e84bf6cf5e47244090b19ce5f8$__5af49182156102b35760009261106b575b506020938483510151516000610f0973__$a0fe38a9a81205afccc10810b09a4d3f45$__92610f17604051958693849363089032d560e01b85526040600486015260448501906113af565b90838203018a840152611753565b0381845af49182156102b35760009261104e575b50610f3582612088565b9590156104cf578587946003610fa3980190815490610f5c8183168060608c5101526114a3565b16906001600160401b031916179055610f80600260408851015192019182546110c9565b90556040518096819482936304e384ff60e21b84528760048501528301906113af565b03915af480156102b357600090610ffa575b7f392fae29c67f3b47710cb5b84d7a6fd08e0155a4f22565971f7159f12c6f70969250610ff560405192839286845260018060a01b03169583019061180e565b0390a2005b508282813d8311611047575b611010818361110c565b810103126102a7576110427f392fae29c67f3b47710cb5b84d7a6fd08e0155a4f22565971f7159f12c6f7096926112d0565b610fb5565b503d611006565b6110649192503d806000833e610304818361110c565b9086610f2b565b6110819192503d806000833e610afb818361110c565b9084610ebe565b919493509184356001600160a01b03811691908290036102a75760019181526020809101950192018693949291610e61565b6360ec4e6b60e11b8152600490fd5b919082018092116103af57565b604081019081106001600160401b0382111761026857604052565b60e081019081106001600160401b0382111761026857604052565b90601f801991011681019081106001600160401b0382111761026857604052565b6001600160401b03811161026857601f01601f191660200190565b60005b83811061115b5750506000910152565b818101518382015260200161114b565b9060209161118481518092818552858086019101611148565b601f01601f1916010190565b919082039182116103af57565b604051906111aa826110d6565b816001600160401b036019541681526040518091601a54808352836020809401601a6000527f057c384a7d1c54f3a1b2e5e67b2617b8224fdfd1ea7234eea573a6ff665ff63e9260005b8682821061120f5750505061120b9250038461110c565b0152565b85546001600160a01b03168452600195860195899550930192016111f4565b9060405161123b816110d6565b80926001600160401b03815416825260018091019160405191828481955492838652602080960191600052856000209060005b87868210611286575050505061120b9250038461110c565b83546001600160a01b031685528995509093019291810191810161126e565b51906001600160401b03821682036102a757565b6001600160401b0381116102685760051b60200190565b51906001600160a01b03821682036102a757565b91906040838203126102a757604051926112fd846110d6565b83611307826112a5565b815260209182810151906001600160401b0382116102a757019280601f850112156102a7578351611337816112b9565b94611345604051968761110c565b818652848087019260051b8201019283116102a75784809101915b83831061136f57505050500152565b819061137a846112d0565b8152019101908490611360565b906020828203126102a75781516001600160401b0381116102a7576113ac92016112e4565b90565b60609060408301906001600160401b03815116845260209283809201519460408382015285518094520193019160005b8281106113ed575050505090565b83516001600160a01b0316855293810193928101926001016113df565b906114226020919493946040845260408401906113af565b6001600160a01b03909416910152565b81811061143d575050565b60008155600101611432565b80546000825580611458575050565b61146d91600052602060002090810190611432565b565b90600160401b81116102685781549080835581811061148d57505050565b61146d9260005260206000209182019101611432565b9060016001600160401b03809316019182116103af57565b8147106106ab576000918291829182916001600160a01b03165af13d15611506573d6114e68161112d565b906114f4604051928361110c565b8152600060203d92013e5b1561069457565b6114ff565b81601f820112156102a75780516115218161112d565b9261152f604051948561110c565b818452602082840101116102a7576113ac9160208085019101611148565b91906040838203126102a75760405192611566846110d6565b838151916001600160401b03928381116102a757846115869183016112e4565b82526020810151908382116102a757016040818503126102a757604051936115ad856110d6565b815160ff811681036102a757855260208201519384116102a7576020936115d4920161150b565b828401520152565b519081151582036102a757565b906020828203126102a75781516001600160401b03928382116102a75701916040838303126102a7576040519261161f846110d6565b80518281116102a75781019260e0848203126102a75760405190611642826110f1565b84518481116102a7578161165791870161154d565b825260208501518481116102a7578161167191870161154d565b60208301526040850151604083015261168c606086016112a5565b606083015260808501516001600160e01b0319811681036102a757608083015260a08501519384116102a757846116cc60c0926020966116e0980161150b565b60a0840152015160c08201528452016115dc565b602082015290565b803560ff81168091036102a75782526020810135601e19823603018112156102a7570190602082359201916001600160401b0381116102a75780360383136102a7578060609360406020850152816040850152848401376000828201840152601f01601f1916010190565b60408101906001600160401b036019541681526060602091604083820152601a548094520191601a6000527f057c384a7d1c54f3a1b2e5e67b2617b8224fdfd1ea7234eea573a6ff665ff63e916000905b8282106117b2575050505090565b83546001600160a01b0316855293840193600193840193909101906117a4565b604060206113ac93816117ec8551858452858401906113af565b940151908281860391015260ff8151168452015191816020820152019061116b565b906020808351936040845260c0611894611835875160e060408901526101208801906117d2565b6118508589015191603f1992838a83030160608b01526117d2565b90604089015160808901526001600160401b0360608a01511660a089015263ffffffff60e01b60808a0151168489015260a0890151908883030160e089015261116b565b9501516101008501520151151591015290565b805482101561025257600052600d602060002091020190600090565b90600182811c921680156118f3575b60208310146118dd57565b634e487b7160e01b600052602260045260246000fd5b91607f16916118d2565b8054600160401b8110156102685761191c9060019283820181556118a7565b919091611db4578251918251928351926001600160401b03808551166001600160401b0319908186541617855582850192602080970151805190848211610268578890611969838861146f565b01600095865288862083875b848110611d99575050505050866002870198015160ff8151169860ff19998a82541617905560039288848901920151918251868111611cb357806119b983546118c3565b94898d601f9788808211611d6c575b505050508c90868311600114611d01578a92611cf6575b505060001982881b1c191690851b1790555b6004880190898801519182519187835116908254161790558960058a0191015190815191878311611ce2578b90611a28848461146f565b019088528a882085895b848110611cc757505050505088600689019101519060ff8251168b8254161790558860078901910151805190868211611cb3578190611a7184546118c3565b8c868211611c86575b50508b90858311600114611c27578992611c1c575b505060001982871b1c191690841b1790555b6040860151600888015560098701846060880151168154906bffffffff000000000000000060808a015160a01c16916bffffffffffffffffffffffff191617179055600a87019460a0870151908151958611611c0857611b0187546118c3565b8a848211611bd1575b505089928611600114611b6257938560ff9a999794819460c09894600c9b9895611b57575b50501b92600019911b1c19161790555b0151600b820155019301511515918354169116179055565b015193503880611b2f565b9294939190601f1985168785528a8520945b818110611bbc575092859260ff9b9a989592600c9a9760c0999610611ba2575b50505050811b019055611b3f565b01519060f884600019921b161c1916905538808080611b94565b82840151865594870194928b01928b01611b74565b611bf8918984528582852091818b0160051c8301938b10611bff575b0160051c0190611432565b388a611b0a565b92508192611bed565b634e487b7160e01b81526041600452602490fd5b015190503880611a8f565b848a528c8a208794509190601f1984168b8f5b828210611c6f5750508411611c57575b505050811b019055611aa1565b015160001983891b60f8161c19169055388080611c4a565b8385015186558a979095019493840193018f611c3a565b611cac91868c5287828d209181870160051c8301938710611bff570160051c0190611432565b388c611a7a565b634e487b7160e01b88526041600452602488fd5b83516001600160a01b031683820155928d0192879101611a32565b634e487b7160e01b89526041600452602489fd5b0151905038806119df565b879350908d91601f198416868d52838d20938d905b828210611d4b5750508411611d33575b505050811b0190556119f1565b0151600019838a1b60f8161c19169055388080611d26565b91929395968291958786015181550195019301908f918a9695949392611d16565b828489611d909652209181870160051c8301938710611bff570160051c0190611432565b898d38886119c8565b83516001600160a01b031683820155928b0192859101611975565b634e487b7160e01b600052600060045260246000fd5b60405190611dd7826110d6565b6060602083600081520152565b60405190611df1826110d6565b81611dfa611dca565b81526020611e06611dca565b910152565b80518210156102525760209160051b010190565b9060405191826000825492611e33846118c3565b908184526001948581169081600014611ea05750600114611e5d575b505061146d9250038361110c565b9093915060005260209081600020936000915b818310611e8857505061146d93508201013880611e4f565b85548884018501529485019487945091830191611e70565b91505061146d94506020925060ff191682840152151560051b8201013880611e4f565b9060405191611ed1836110d6565b602083611edd8361122e565b81526115d4600360405194611ef1866110d6565b60ff600282015416865201611e1f565b611f0b81546118c3565b9081611f15575050565b81601f60009311600114611f27575055565b908083918252611f46601f60208420940160051c840160018501611432565b5555565b600361146d9160008155611f6060018201611449565b6000600282015501611f01565b601a8114611fed57601a54906001600160401b03821161026857611f91828261146f565b6000908152602081207f057c384a7d1c54f3a1b2e5e67b2617b8224fdfd1ea7234eea573a6ff665ff63e80545b848410611fcc575050505050565b600191820180546001600160a01b0390921684860155939091019290611fbe565b50565b6001600160a01b038116156120765760006120289161200d61119d565b60405163aa5106cb60e01b815293849283926004840161140a565b038173__$a0fe38a9a81205afccc10810b09a4d3f45$__5af480156102b3576120599160009161205d575b50612088565b9091565b612070913d8091833e610304818361110c565b38612053565b6040516370e4510960e01b8152600490fd5b6120c673__$a0fe38a9a81205afccc10810b09a4d3f45$__91604051906390ba52cf60e01b82528180602094859384600484015260248301906113af565b0381865af49081156102b35760009161216e575b509061211d9160005260008152806040600020936120fa6004860161122e565b906040518080968194630c133d1360e31b835286600484015260248301906113af565b03915af49081156102b357600091612137575b5090501591565b82813d8311612167575b61214b818361110c565b81010312612164575061215d906115dc565b8038612130565b80fd5b503d612141565b908282813d8311612196575b612184818361110c565b8101031261216457505161211d6120da565b503d61217a56fea264697066735822122022501b2665c4eb29e9aa4058e7c6c465e6027b1d40dcc82b0e4d1b02d908bdb264736f6c63430008130033","linkReferences":{"src/lib/CrossMsgHelper.sol":{"CrossMsgHelper":[{"start":1446,"length":20},{"start":3766,"length":20}]},"src/lib/SubnetIDHelper.sol":{"SubnetIDHelper":[{"start":225,"length":20},{"start":1136,"length":20},{"start":3350,"length":20},{"start":3819,"length":20},{"start":8264,"length":20},{"start":8361,"length":20}]}}},"methodIdentifiers":{"addStake()":"5a627dbc","fund((uint64,address[]),(uint8,bytes))":"18f44b70","kill()":"41c0e1b5","register(uint256)":"f207564e","release((uint8,bytes))":"6b2c1eef","releaseRewardForRelayer(uint256)":"d8e25572","releaseStake(uint256)":"45f54485"},"id":45}