{"abi":[{"type":"constructor","inputs":[{"name":"name_","type":"string","internalType":"string"},{"name":"symbol_","type":"string","internalType":"string"},{"name":"initialSupply","type":"uint256","internalType":"uint256"},{"name":"owner","type":"address","internalType":"address"},{"name":"inflationRate_","type":"uint256","internalType":"uint256"}],"stateMutability":"nonpayable"},{"type":"function","name":"allowance","inputs":[{"name":"owner","type":"address","internalType":"address"},{"name":"spender","type":"address","internalType":"address"}],"outputs":[{"name":"","type":"uint256","internalType":"uint256"}],"stateMutability":"view"},{"type":"function","name":"approve","inputs":[{"name":"spender","type":"address","internalType":"address"},{"name":"value","type":"uint256","internalType":"uint256"}],"outputs":[{"name":"","type":"bool","internalType":"bool"}],"stateMutability":"nonpayable"},{"type":"function","name":"balanceOf","inputs":[{"name":"account","type":"address","internalType":"address"}],"outputs":[{"name":"","type":"uint256","internalType":"uint256"}],"stateMutability":"view"},{"type":"function","name":"decimals","inputs":[],"outputs":[{"name":"","type":"uint8","internalType":"uint8"}],"stateMutability":"view"},{"type":"function","name":"inflationRatePercentage","inputs":[],"outputs":[{"name":"","type":"uint256","internalType":"uint256"}],"stateMutability":"view"},{"type":"function","name":"name","inputs":[],"outputs":[{"name":"","type":"string","internalType":"string"}],"stateMutability":"view"},{"type":"function","name":"owner","inputs":[],"outputs":[{"name":"","type":"address","internalType":"address"}],"stateMutability":"view"},{"type":"function","name":"renounceOwnership","inputs":[],"outputs":[],"stateMutability":"nonpayable"},{"type":"function","name":"setInflationRate","inputs":[{"name":"newRate","type":"uint256","internalType":"uint256"}],"outputs":[],"stateMutability":"nonpayable"},{"type":"function","name":"symbol","inputs":[],"outputs":[{"name":"","type":"string","internalType":"string"}],"stateMutability":"view"},{"type":"function","name":"totalSupply","inputs":[],"outputs":[{"name":"","type":"uint256","internalType":"uint256"}],"stateMutability":"view"},{"type":"function","name":"transfer","inputs":[{"name":"to","type":"address","internalType":"address"},{"name":"value","type":"uint256","internalType":"uint256"}],"outputs":[{"name":"","type":"bool","internalType":"bool"}],"stateMutability":"nonpayable"},{"type":"function","name":"transferFrom","inputs":[{"name":"from","type":"address","internalType":"address"},{"name":"to","type":"address","internalType":"address"},{"name":"value","type":"uint256","internalType":"uint256"}],"outputs":[{"name":"","type":"bool","internalType":"bool"}],"stateMutability":"nonpayable"},{"type":"function","name":"transferOwnership","inputs":[{"name":"newOwner","type":"address","internalType":"address"}],"outputs":[],"stateMutability":"nonpayable"},{"type":"event","name":"Approval","inputs":[{"name":"owner","type":"address","indexed":true,"internalType":"address"},{"name":"spender","type":"address","indexed":true,"internalType":"address"},{"name":"value","type":"uint256","indexed":false,"internalType":"uint256"}],"anonymous":false},{"type":"event","name":"OwnershipTransferred","inputs":[{"name":"previousOwner","type":"address","indexed":true,"internalType":"address"},{"name":"newOwner","type":"address","indexed":true,"internalType":"address"}],"anonymous":false},{"type":"event","name":"Transfer","inputs":[{"name":"from","type":"address","indexed":true,"internalType":"address"},{"name":"to","type":"address","indexed":true,"internalType":"address"},{"name":"value","type":"uint256","indexed":false,"internalType":"uint256"}],"anonymous":false},{"type":"error","name":"ERC20InsufficientAllowance","inputs":[{"name":"spender","type":"address","internalType":"address"},{"name":"allowance","type":"uint256","internalType":"uint256"},{"name":"needed","type":"uint256","internalType":"uint256"}]},{"type":"error","name":"ERC20InsufficientBalance","inputs":[{"name":"sender","type":"address","internalType":"address"},{"name":"balance","type":"uint256","internalType":"uint256"},{"name":"needed","type":"uint256","internalType":"uint256"}]},{"type":"error","name":"ERC20InvalidApprover","inputs":[{"name":"approver","type":"address","internalType":"address"}]},{"type":"error","name":"ERC20InvalidReceiver","inputs":[{"name":"receiver","type":"address","internalType":"address"}]},{"type":"error","name":"ERC20InvalidSender","inputs":[{"name":"sender","type":"address","internalType":"address"}]},{"type":"error","name":"ERC20InvalidSpender","inputs":[{"name":"spender","type":"address","internalType":"address"}]},{"type":"error","name":"OwnableInvalidOwner","inputs":[{"name":"owner","type":"address","internalType":"address"}]},{"type":"error","name":"OwnableUnauthorizedAccount","inputs":[{"name":"account","type":"address","internalType":"address"}]}],"bytecode":{"object":"0x60806040523461048157610e7d8038038061001981610486565b92833981019060a0818303126104815780516001600160401b03811161048157826100459183016104ab565b602082015190926001600160401b038211610481576100659183016104ab565b9160408201519060608301519260018060a01b0384168094036104815760800151815190916001600160401b03821161037e5760035490600182811c92168015610477575b602083101461035e5781601f849311610407575b50602090601f831160011461039f57600092610394575b50508160011b916000199060031b1c1916176003555b83516001600160401b03811161037e57600454600181811c91168015610374575b602082101461035e57601f81116102f9575b50602094601f821160011461029257948192939495600092610287575b50508160011b916000199060031b1c1916176004555b821561027157600580546001600160a01b0319811685179091556040519084906001600160a01b03167f8be0079c531659141344cd1fd0a4f28419497f9722a3daafe3b4186f6b6457e0600080a36064821161021d5750600655600254818101809111610207576002557fddf252ad1be2c89b69c2b068fc378daa952ba7f163c4a11628f55a4df523b3ef602060009284845283825260408420818154019055604051908152a360405161096690816105178239f35b634e487b7160e01b600052601160045260246000fd5b62461bcd60e51b815260206004820152602960248201527f496e666c6174696f6e2072617465206d757374206265206265747765656e20306044820152681030b732101898181760b91b6064820152608490fd5b631e4fbdf760e01b600052600060045260246000fd5b01519050388061013b565b601f198216956004600052806000209160005b8881106102e1575083600195969798106102c8575b505050811b01600455610151565b015160001960f88460031b161c191690553880806102ba565b919260206001819286850151815501940192016102a5565b60046000527f8a35acfbc15ff81a39ae7d344fd709f28e8600b4aa8c65c6b64bfe7fe36bd19b601f830160051c81019160208410610354575b601f0160051c01905b818110610348575061011e565b6000815560010161033b565b9091508190610332565b634e487b7160e01b600052602260045260246000fd5b90607f169061010c565b634e487b7160e01b600052604160045260246000fd5b0151905038806100d5565b600360009081528281209350601f198516905b8181106103ef57509084600195949392106103d6575b505050811b016003556100eb565b015160001960f88460031b161c191690553880806103c8565b929360206001819287860151815501950193016103b2565b60036000529091507fc2575a0e9e593c00f959f8c92f12db2869c3395a3b0502d05e2516446f71f85b601f840160051c8101916020851061046d575b90601f859493920160051c01905b81811061045e57506100be565b60008155849350600101610451565b9091508190610443565b91607f16916100aa565b600080fd5b6040519190601f01601f191682016001600160401b0381118382101761037e57604052565b81601f82011215610481578051906001600160401b03821161037e576104da601f8301601f1916602001610486565b92828452602083830101116104815760005b82811061050157505060206000918301015290565b806020809284010151828287010152016104ec56fe608080604052600436101561001357600080fd5b60003560e01c90816306fdde03146105f657508063095ea7b31461057057806318160ddd1461055257806323b872dd14610465578063313ce5671461044957806370a082311461040f578063715018a6146103b25780638da5cb5b1461038957806395d89b4114610268578063a9059cbb14610237578063b1551b95146101b7578063b236066414610199578063dd62ed3e146101485763f2fde38b146100b957600080fd5b34610143576020366003190112610143576100d2610712565b6100da610795565b6001600160a01b0316801561012d57600580546001600160a01b0319811683179091556001600160a01b03167f8be0079c531659141344cd1fd0a4f28419497f9722a3daafe3b4186f6b6457e0600080a3005b631e4fbdf760e01b600052600060045260246000fd5b600080fd5b3461014357604036600319011261014357610161610712565b610169610728565b6001600160a01b039182166000908152600160209081526040808320949093168252928352819020549051908152f35b34610143576000366003190112610143576020600654604051908152f35b34610143576020366003190112610143576004356101d3610795565b606481116101e057600655005b60405162461bcd60e51b815260206004820152602960248201527f496e666c6174696f6e2072617465206d757374206265206265747765656e20306044820152681030b732101898181760b91b6064820152608490fd5b346101435760403660031901126101435761025d610253610712565b602435903361073e565b602060405160018152f35b346101435760003660031901126101435760405160006004548060011c9060018116801561037f575b60208310811461036b5782855290811561034f57506001146102f8575b50819003601f01601f191681019067ffffffffffffffff8211818310176102e2576102de829182604052826106c9565b0390f35b634e487b7160e01b600052604160045260246000fd5b905060046000527f8a35acfbc15ff81a39ae7d344fd709f28e8600b4aa8c65c6b64bfe7fe36bd19b6000905b828210610339575060209150820101826102ae565b6001816020925483858801015201910190610324565b90506020925060ff191682840152151560051b820101826102ae565b634e487b7160e01b84526022600452602484fd5b91607f1691610291565b34610143576000366003190112610143576005546040516001600160a01b039091168152602090f35b34610143576000366003190112610143576103cb610795565b600580546001600160a01b031981169091556000906001600160a01b03167f8be0079c531659141344cd1fd0a4f28419497f9722a3daafe3b4186f6b6457e08280a3005b34610143576020366003190112610143576001600160a01b03610430610712565b1660005260006020526020604060002054604051908152f35b3461014357600036600319011261014357602060405160128152f35b346101435760603660031901126101435761047e610712565b610486610728565b6001600160a01b03821660008181526001602081815260408084203385529091529091205491936044359392909181016104c6575b5061025d935061073e565b83811061053557841561051f5733156105095761025d946000526001602052604060002060018060a01b03331660005260205283604060002091039055846104bb565b634a1406b160e11b600052600060045260246000fd5b63e602df0560e01b600052600060045260246000fd5b8390637dc7a0d960e11b6000523360045260245260445260646000fd5b34610143576000366003190112610143576020600254604051908152f35b3461014357604036600319011261014357610589610712565b60243590331561051f576001600160a01b031690811561050957336000526001602052604060002082600052602052806040600020556040519081527f8c5be1e5ebec7d5bd14f71427d1e84f3dd0314c0f7b2291e5b200ac8c7c3b92560203392a3602060405160018152f35b346101435760003660031901126101435760006003548060011c906001811680156106bf575b60208310811461036b5782855290811561034f57506001146106685750819003601f01601f191681019067ffffffffffffffff8211818310176102e2576102de829182604052826106c9565b905060036000527fc2575a0e9e593c00f959f8c92f12db2869c3395a3b0502d05e2516446f71f85b6000905b8282106106a9575060209150820101826102ae565b6001816020925483858801015201910190610694565b91607f169161061c565b91909160208152825180602083015260005b8181106106fc575060409293506000838284010152601f8019910116010190565b80602080928701015160408286010152016106db565b600435906001600160a01b038216820361014357565b602435906001600160a01b038216820361014357565b91906001600160a01b0383161561077f576001600160a01b0381161561076957610767926107be565b565b63ec442f0560e01b600052600060045260246000fd5b634b637e8f60e11b600052600060045260246000fd5b6005546001600160a01b031633036107a957565b63118cdaa760e01b6000523360045260246000fd5b6001600160a01b038116151580610833575b156108285782826107e092610845565b60065491828102928184041490151715610812576001600160a01b0381161561076957606461076792049060006107be565b634e487b7160e01b600052601160045260246000fd5b906107679291610845565b506001600160a01b03821615156107d0565b6001600160a01b031690816108c357600254838101809111610812577fddf252ad1be2c89b69c2b068fc378daa952ba7f163c4a11628f55a4df523b3ef916020916002555b6001600160a01b031693846108ab5780600254036002555b604051908152a3565b846000526000825260406000208181540190556108a2565b816000526000602052604060002054838110610913577fddf252ad1be2c89b69c2b068fc378daa952ba7f163c4a11628f55a4df523b3ef918460209285600052600084520360406000205561088a565b91905063391434e360e21b60005260045260245260445260646000fdfea2646970667358221220e6a49d517155d326958cc80b8e2929fa956fc00d6a41a8ec4d44ca8cbc63655464736f6c634300081a0033","linkReferences":{}},"methodIdentifiers":{"allowance(address,address)":"dd62ed3e","approve(address,uint256)":"095ea7b3","balanceOf(address)":"70a08231","decimals()":"313ce567","inflationRatePercentage()":"b2360664","name()":"06fdde03","owner()":"8da5cb5b","renounceOwnership()":"715018a6","setInflationRate(uint256)":"b1551b95","symbol()":"95d89b41","totalSupply()":"18160ddd","transfer(address,uint256)":"a9059cbb","transferFrom(address,address,uint256)":"23b872dd","transferOwnership(address)":"f2fde38b"},"id":106}