{"abi":[{"type":"function","name":"addBootstrapNode","inputs":[{"name":"netAddress","type":"string","internalType":"string"}],"outputs":[],"stateMutability":"nonpayable"},{"type":"function","name":"claim","inputs":[],"outputs":[],"stateMutability":"nonpayable"},{"type":"function","name":"claimRewardForRelayer","inputs":[],"outputs":[],"stateMutability":"nonpayable"},{"type":"function","name":"confirmChange","inputs":[{"name":"_configurationNumber","type":"uint64","internalType":"uint64"}],"outputs":[],"stateMutability":"nonpayable"},{"type":"function","name":"confirmNextChange","inputs":[],"outputs":[],"stateMutability":"nonpayable"},{"type":"function","name":"distributeRewardToRelayers","inputs":[{"name":"height","type":"uint256","internalType":"uint256"},{"name":"reward","type":"uint256","internalType":"uint256"},{"name":"kind","type":"uint8","internalType":"enum QuorumObjKind"}],"outputs":[],"stateMutability":"payable"},{"type":"function","name":"join","inputs":[{"name":"publicKey","type":"bytes","internalType":"bytes"}],"outputs":[],"stateMutability":"payable"},{"type":"function","name":"kill","inputs":[],"outputs":[],"stateMutability":"nonpayable"},{"type":"function","name":"leave","inputs":[],"outputs":[],"stateMutability":"nonpayable"},{"type":"function","name":"pause","inputs":[],"outputs":[],"stateMutability":"nonpayable"},{"type":"function","name":"paused","inputs":[],"outputs":[{"name":"","type":"bool","internalType":"bool"}],"stateMutability":"view"},{"type":"function","name":"preFund","inputs":[],"outputs":[],"stateMutability":"payable"},{"type":"function","name":"preRelease","inputs":[{"name":"amount","type":"uint256","internalType":"uint256"}],"outputs":[],"stateMutability":"nonpayable"},{"type":"function","name":"setFederatedPower","inputs":[{"name":"validators","type":"address[]","internalType":"address[]"},{"name":"publicKeys","type":"bytes[]","internalType":"bytes[]"},{"name":"powers","type":"uint256[]","internalType":"uint256[]"}],"outputs":[],"stateMutability":"nonpayable"},{"type":"function","name":"stake","inputs":[],"outputs":[],"stateMutability":"payable"},{"type":"function","name":"submitBottomUpMsgBatch","inputs":[{"name":"batch","type":"tuple","internalType":"struct BottomUpMsgBatch","components":[{"name":"subnetID","type":"tuple","internalType":"struct SubnetID","components":[{"name":"root","type":"uint64","internalType":"uint64"},{"name":"route","type":"address[]","internalType":"address[]"}]},{"name":"blockHeight","type":"uint256","internalType":"uint256"},{"name":"msgs","type":"tuple[]","internalType":"struct CrossMsg[]","components":[{"name":"message","type":"tuple","internalType":"struct StorableMsg","components":[{"name":"from","type":"tuple","internalType":"struct IPCAddress","components":[{"name":"subnetId","type":"tuple","internalType":"struct SubnetID","components":[{"name":"root","type":"uint64","internalType":"uint64"},{"name":"route","type":"address[]","internalType":"address[]"}]},{"name":"rawAddress","type":"tuple","internalType":"struct FvmAddress","components":[{"name":"addrType","type":"uint8","internalType":"uint8"},{"name":"payload","type":"bytes","internalType":"bytes"}]}]},{"name":"to","type":"tuple","internalType":"struct IPCAddress","components":[{"name":"subnetId","type":"tuple","internalType":"struct SubnetID","components":[{"name":"root","type":"uint64","internalType":"uint64"},{"name":"route","type":"address[]","internalType":"address[]"}]},{"name":"rawAddress","type":"tuple","internalType":"struct FvmAddress","components":[{"name":"addrType","type":"uint8","internalType":"uint8"},{"name":"payload","type":"bytes","internalType":"bytes"}]}]},{"name":"value","type":"uint256","internalType":"uint256"},{"name":"nonce","type":"uint64","internalType":"uint64"},{"name":"method","type":"bytes4","internalType":"bytes4"},{"name":"params","type":"bytes","internalType":"bytes"},{"name":"fee","type":"uint256","internalType":"uint256"}]},{"name":"wrapped","type":"bool","internalType":"bool"}]}]},{"name":"signatories","type":"address[]","internalType":"address[]"},{"name":"signatures","type":"bytes[]","internalType":"bytes[]"}],"outputs":[],"stateMutability":"nonpayable"},{"type":"function","name":"submitCheckpoint","inputs":[{"name":"checkpoint","type":"tuple","internalType":"struct BottomUpCheckpoint","components":[{"name":"subnetID","type":"tuple","internalType":"struct SubnetID","components":[{"name":"root","type":"uint64","internalType":"uint64"},{"name":"route","type":"address[]","internalType":"address[]"}]},{"name":"blockHeight","type":"uint256","internalType":"uint256"},{"name":"blockHash","type":"bytes32","internalType":"bytes32"},{"name":"nextConfigurationNumber","type":"uint64","internalType":"uint64"}]},{"name":"signatories","type":"address[]","internalType":"address[]"},{"name":"signatures","type":"bytes[]","internalType":"bytes[]"}],"outputs":[],"stateMutability":"nonpayable"},{"type":"function","name":"unpause","inputs":[],"outputs":[],"stateMutability":"nonpayable"},{"type":"function","name":"unstake","inputs":[{"name":"amount","type":"uint256","internalType":"uint256"}],"outputs":[],"stateMutability":"nonpayable"},{"type":"function","name":"validateActiveQuorumSignatures","inputs":[{"name":"signatories","type":"address[]","internalType":"address[]"},{"name":"hash","type":"bytes32","internalType":"bytes32"},{"name":"signatures","type":"bytes[]","internalType":"bytes[]"}],"outputs":[],"stateMutability":"view"},{"type":"event","name":"Paused","inputs":[{"name":"account","type":"address","indexed":false,"internalType":"address"}],"anonymous":false},{"type":"event","name":"Unpaused","inputs":[{"name":"account","type":"address","indexed":false,"internalType":"address"}],"anonymous":false},{"type":"error","name":"AddressInsufficientBalance","inputs":[{"name":"account","type":"address","internalType":"address"}]},{"type":"error","name":"AddressShouldBeValidator","inputs":[]},{"type":"error","name":"BatchWithNoMessages","inputs":[]},{"type":"error","name":"CannotConfirmFutureChanges","inputs":[]},{"type":"error","name":"CannotReleaseZero","inputs":[]},{"type":"error","name":"CollateralIsZero","inputs":[]},{"type":"error","name":"DuplicatedGenesisValidator","inputs":[]},{"type":"error","name":"EmptyAddress","inputs":[]},{"type":"error","name":"EnforcedPause","inputs":[]},{"type":"error","name":"ExpectedPause","inputs":[]},{"type":"error","name":"FailedInnerCall","inputs":[]},{"type":"error","name":"InvalidBatchEpoch","inputs":[]},{"type":"error","name":"InvalidCheckpointEpoch","inputs":[]},{"type":"error","name":"InvalidFederationPayload","inputs":[]},{"type":"error","name":"InvalidPublicKeyLength","inputs":[]},{"type":"error","name":"InvalidSignatureErr","inputs":[{"name":"","type":"uint8","internalType":"uint8"}]},{"type":"error","name":"MaxMsgsPerBatchExceeded","inputs":[]},{"type":"error","name":"MethodNotAllowed","inputs":[{"name":"reason","type":"string","internalType":"string"}]},{"type":"error","name":"NoCollateralToWithdraw","inputs":[]},{"type":"error","name":"NotAllValidatorsHaveLeft","inputs":[]},{"type":"error","name":"NotEnoughBalance","inputs":[]},{"type":"error","name":"NotEnoughCollateral","inputs":[]},{"type":"error","name":"NotEnoughFunds","inputs":[]},{"type":"error","name":"NotEnoughGenesisValidators","inputs":[]},{"type":"error","name":"NotGateway","inputs":[]},{"type":"error","name":"NotOwner","inputs":[]},{"type":"error","name":"NotOwnerOfPublicKey","inputs":[]},{"type":"error","name":"NotValidator","inputs":[{"name":"","type":"address","internalType":"address"}]},{"type":"error","name":"PQDoesNotContainAddress","inputs":[]},{"type":"error","name":"PQEmpty","inputs":[]},{"type":"error","name":"ReentrancyError","inputs":[]},{"type":"error","name":"SubnetAlreadyBootstrapped","inputs":[]},{"type":"error","name":"SubnetAlreadyKilled","inputs":[]},{"type":"error","name":"WithdrawExceedingCollateral","inputs":[]}],"bytecode":{"object":"0x6080806040523461001657614fde908161001c8239f35b600080fdfe608080604052600436101561001357600080fd5b600090813560e01c9081630b7fbe6014611a705750806310fd4261146118ff57806326811936146116ec5780632e17de78146116bf578063350a14bf1461168c5780633a4b66f1146115b05780633f4ba83a1461153857806341c0e1b5146114a75780634c860af6146114535780634e71d92d146112bf5780635c975abb1461128f5780636170b16214610edf57806366783c9b14610dfe5780638456cb5914610d96578063b9ee2bb914610997578063c7ebdaef14610951578063cc2dc2b9146108d1578063d66d9e1914610886578063da5d09ee146101bb5763ed7c4da1146100fd57600080fd5b346101b857806003193601126101b857600080516020614f8983398151915260018154146101a657806001839255610133612049565b73__$4a8700ca5e162cb61a0c4650a4871f1ad5$__803b156101a25782602491604051928380926382985e0b60e01b82523360048301525af4908115610197578391610180575b50505580f35b61018990611b52565b61019457813861017a565b50fd5b6040513d85823e3d90fd5b5050fd5b6040516329f745a760e01b8152600490fd5b80fd5b50346101b85760603660031901126101b8576004356001600160401b038111610882576101ec903690600401611bf3565b906024356001600160401b03811161087e5761020c903690600401611bf3565b916044356001600160401b03811161087a5761022c903690600401611bf3565b90946102366143d0565b61023e614097565b60ff6013541660038110156108665760010361083657818103610824578481036108245760125460081c60ff161561052557865b818110610283575050505050505080f35b61029761029182888861417e565b90614394565b6001600160a01b036102b26102ad8486896141bf565b611ec3565b166001600160a01b03909116036105135761031c6102d46102ad8385886141bf565b6102df83898961417e565b6102ed85888d9694966141bf565b356103086040519586936040602086015260608501916139db565b90604083015203601f198101845283611b80565b6001600160401b03601c541660405161033481611b65565b600381526020810184815260018060a01b038416604083015282600052601d602052604060002090825161036781612074565b61037081612074565b60ff80198454169116178255518051906001600160401b0382116104fd576103a88261039f6001860154612094565b60018601612187565b602090601f8311600114610476579282600080516020614f4983398151915297959360029360019b9a989660009261046b575b5050600019600383901b1c1916908a1b17818a01555b01906040888060a01b03910151166001600160601b0360a01b8254161790556001600160401b03610421826122ac565b166001600160401b0319601c541617601c5561045c60405193849360038552888060a01b031660208501526080806040860152840190614159565b9060608301520390a101610272565b0151905038806103db565b906001840160005260206000209160005b601f19851681106104e557508360029360019b9a9896938c93600080516020614f498339815191529b9997601f198116106104cc575b505050811b01898201556103f1565b015160001960f88460031b161c191690553880806104bd565b91926020600181928685015181550194019201610487565b634e487b7160e01b600052604160045260246000fd5b604051634be9251d60e11b8152600490fd5b9491939290865b8681106105fc575050505050506001600160401b03600c541610156105ea5761010061ff001960125416176012557f4914d88063275a25a13b2df37125e216745d812f94c56504be4bd78cf60c9593604051806105888161420a565b0390a1600e5460025482916001600160a01b0316803b156101a2578290602460405180948193637903ab2760e11b83528160048401525af180156105df576105cf57505080f35b6105d890611b52565b6101b85780f35b6040513d84823e3d90fd5b60405163031480b160e51b8152600490fd5b61060a61029182878661417e565b6001600160a01b03919082806106246102ad858d8d6141bf565b169116036105135761064261063d6102ad838b8b6141bf565b613047565b610812576106d99161066c61065b6102ad848c8c6141bf565b610666848a8961417e565b916142b7565b61068f61067d6102ad848c8c6141bf565b61068884878a6141bf565b359061279d565b61069d6102ad838b8b6141bf565b906106a98386896141bf565b35906106b6848a8961417e565b9590604051936106c585611b65565b845260209683888601961686523691611bbc565b9260408301938452600154600160401b8110156104fd5780600161070092016001556141cf565b9290926107fc57600293518355600183019151166001600160601b0360a01b825416179055019051928351906001600160401b0382116104fd5761074e826107488554612094565b85612187565b80601f831160011461078d57508190600195600092610782575b5050600019600383901b1c191690841b1790555b0161052c565b015190503880610768565b91929394601f1984168560005283600020936000905b8282106107e4575050916001969594929183889593106107cb575b505050811b01905561077c565b015160001960f88460031b161c191690553880806107be565b806001869782949787015181550196019401906107a3565b634e487b7160e01b600052600060045260246000fd5b604051630472b35360e41b8152600490fd5b604051637e65935960e01b8152600490fd5b6108626108416140dc565b60405163015538b160e01b8152602060048201529182916024830190614159565b0390fd5b634e487b7160e01b88526021600452602488fd5b8580fd5b8380fd5b5080fd5b50346101b857806003193601126101b857600080516020614f8983398151915260018154146101a6578060018392556108bd612049565b6108c56143d0565b6108cd614bc1565b5580f35b50346101b85760603660031901126101b8576001600160401b0360043581811161094d573660238201121561094d57610914903690602481600401359101611c62565b60443591821161094d573660238301121561094d5761094061094a923690602481600401359101611cb8565b9060243590613be7565b80f35b8280fd5b50346101b857806003193601126101b8576001600160401b0360001981601c5416019081116109835761094a906122c4565b634e487b7160e01b82526011600452602482fd5b50346101b857600319606036820112610882576001600160401b03600435116108825760806004356004019160043536030112610882576024356001600160401b03811161094d576109ed903690600401611bf3565b91906044356001600160401b038111610d9257610a0e903690600401611bf3565b91610a17612049565b60055494600b5495610a298782611d37565b60246004350135141580610d82575b610d705760405190610a706020830183610a528a83611e12565b0393610a66601f1995868101835282611b80565b5190209882611d37565b6004356024013503610c6d57505091610a93610a9b92610aa19697943691611c62565b933691611cb8565b91613be7565b602460043501358252816020526040822090803560421960043536030181121561087e576004350191600483016001600160401b03610adf82611e63565b16936001600160401b03199485845416178355610b056001926024848601930190611e77565b91906001600160401b038311610c5957600160401b8311610c59578154838355808410610c3e575b509087959493929190865260208620865b838110610c17575050505050600480356024810135600284015560448101356003840155606401949101906001600160401b03610b7a86611e63565b16908254161790556024600435013582526022602052610b9e604083203390611fc4565b5060043560240135600555600e546001600160a01b0316803b1561094d576040516347dc9b4f60e01b81529183918391829084908290610be19060048301611e12565b03925af180156105df57610c03575b5050610bfe61094a91611e63565b6122c4565b610c0c90611b52565b610882578138610bf0565b84959697506020610c2b8495969394611ec3565b848301558a989796959401929101610b3e565b82895260208920610c53918101908501611eac565b38610b2d565b634e487b7160e01b88526041600452602488fd5b945094505050506024600435013514610c8557505080f35b60246004350135835282602052604083206040519060208201926020845260806040840152826101008101926001600160401b0381541660c083015260019081810191604060e085015282548096526101208401928a5260208a20908a5b878110610d4f575050506002810154606084015260038101546080840152600401546001600160401b031660a0830152039081018352610d24915082611b80565b51902014610d2f5780f35b6024600435013581526022602052610d4b604082203390611fc4565b5080f35b82546001600160a01b03168552889550602090940193918101918101610ce3565b60405163fae4eadb60e01b8152600490fd5b5080602460043501351415610a38565b8480fd5b50346101b857806003193601126101b857610daf614097565b610db7612049565b600080516020614f69833981519152600160ff198254161790557f62e78cea01bee320cd4e420270b5ea74000d11b0c9f74754ebdbfc544b05a2586020604051338152a180f35b50346101b85760203660031901126101b857600435600080516020614f8983398151915260018154146101a657600181558115610ecd5760ff60125460081c16610ebb57338352600360205281604084205410610ea9576108cd8392338452600360205260408420610e71828254612831565b9055610e7f81600254612831565b6002553384526003602052604084205415610e9b575b33613f36565b610ea433613fb0565b610e95565b60405163569d45cf60e11b8152600490fd5b604051631b39f2f360e11b8152600490fd5b604051631036b5ad60e31b8152600490fd5b5060203660031901126101b8576004356001600160401b0381116108825736602382011215610882576001600160401b0381600401351161088257366024826004013583010111610882576001600080516020614f8983398151915254146101a6576001600080516020614f8983398151915255610f5b612049565b610f636143d0565b60ff60125460081c1680611282575b341561127057336000908152601560205260409020600201546111fb5760418260040135036111e957336001600160a01b03610fb5600485013560248601614394565b160361051357610ff857806024610fd292600401359101336142b7565b610fdc34336143f1565b610fe4614825565b80600080516020614f898339815191525580f35b61100a36826004013560248401611bbc565b6001600160401b03601c5416906040519061102482611b65565b600282526020820190815233604083015282600052601d602052604060002090825161104f81612074565b61105881612074565b60ff80198454169116178255518051906001600160401b0382116104fd576110878261039f6001860154612094565b602090601f8311600114611161579282600080516020614f4983398151915297959360029361113e9896600092611156575b50508160011b916000199060031b1c19161760018201555b0190604060018060a01b03910151166001600160601b0360a01b8254161790556001600160401b03611102826122ac565b166001600160401b0319601c541617601c55604051928392600284523360208501526080604085015260808401906024816004013591016139db565b9060608301520390a1611151343361460b565b610fe4565b0151905038806110b9565b906001840160005260206000209160005b601f19851681106111d157508360029361113e989693600193600080516020614f498339815191529b9997601f198116106111b8575b505050811b0160018201556110d1565b015160001960f88460031b161c191690553880806111a8565b91926020600181928685015181550194019201611172565b6040516318dca5e960e21b8152600490fd5b61086260405161120a81611b65565b603281527f4d6574686f64206e6f7420616c6c6f7765642069662076616c696461746f72206020820152711a185cc8185b1c9958591e481a9bda5b995960721b604082015260405191829163015538b160e01b8352602060048401526024830190614159565b604051635a78c58160e11b8152600490fd5b61128a614810565b610f72565b50346101b857806003193601126101b857602060ff600080516020614f6983398151915254166040519015158152f35b50346101b857806003193601126101b857600190600080516020614f89833981519152828154146101a6578281556112f5612049565b336000908152601f602052604090209283549061ffff9081831692831561144157829060101c16918391808795818a01915b6113bb575b5050508661139d937f197c586353eaed0a1c53e6e540445b94befab8f932c8115d112115ecbeeed514959363ffff000093899a54911693849260101b169063ffffffff191617179055156113a4575b6113858133613f36565b60408051338152602081019290925290918291820190565b0390a15580f35b336000908152601f6020526040902085905561137b565b90919394838116968288101561143857876000526020809185825260406000206040516113e781611b37565b8982549283835201549384910152431061142d578594938896889461140e86958a95611d37565b9c60005252600082604082208281550155011696600019011694611327565b98505050949361132c565b9650949361132c565b6040516364b0557f60e01b8152600490fd5b5060603660031901126101b857604435600281101561088257611474612049565b600e546001600160a01b031633036114955761094a90602435600435614da5565b60405163e7e601db60e01b8152600490fd5b50346101b857806003193601126101b8576114c06143d0565b61ffff6114d68160195416826016541690612787565b16611526576012805462ff0000191662010000179055600e5481906001600160a01b0316803b15610194578180916004604051809481936341c0e1b560e01b83525af180156105df576105cf5750f35b604051636b62255160e11b8152600490fd5b50346101b857806003193601126101b857611551614097565b600080516020614f69833981519152805460ff81161561159e5760ff191690557f5db9ee0a495bf2e6ff9c91a7834c1ba4fdd244a5e8aa4e537bd38aeae4b073aa6020604051338152a180f35b604051638dfc202b60e01b8152600490fd5b50806003193601126101b8576115c4612049565b6115cc6143d0565b6115d4614810565b341561127057336000908152601560205260409020600201541561161b5760125460081c60ff166116115761160934336143f1565b61094a614825565b61094a343361460b565b61086260405161162a81611b65565b602e81527f4d6574686f64206e6f7420616c6c6f7765642069662076616c696461746f722060208201526d1a185cc81b9bdd081a9bda5b995960921b604082015260405191829163015538b160e01b8352602060048401526024830190614159565b50346101b85760203660031901126101b8576004356001600160401b03811681036116ba5761094a906122c4565b600080fd5b50346101b85760203660031901126101b8576116d9612049565b6116e16143d0565b61094a6004356148f1565b50346101b857600319606036820112610882576004356001600160401b039182821161087e5760608260040191833603011261087e57602435838111610d925761173a903690600401611bf3565b91906044358581116118fb57611754903690600401611bf3565b91602486013596600654968789106118b057604401906117748287611e77565b919050600954168091116118e95761178c8287611e77565b90501415806118c2575b6118b0576117a49085611e77565b90501561189e57879460405160208101906117d1816117c38985613a65565b03601f198101835282611b80565b51902096880361180257505050505050600754146117ed575080f35b81526023602052610d4b604082203390611fc4565b61181c9392610a9388969893610a9b939a989a3691611c62565b80602060405161182b81611b37565b8481520152816006556007558252602360205261184c604083203390611fc4565b50600e546001600160a01b031690813b156101a257829161188391604051948580948193630bed761560e01b835260048301613a65565b03925af180156105df57611895575080f35b61094a90611b52565b6040516338d2307f60e01b8152600490fd5b60405163200c52f760e21b8152600490fd5b5060085480156118d55788061515611796565b634e487b7160e01b8a52601260045260248afd5b60405163351c700760e01b8152600490fd5b8680fd5b50346101b857602090816003193601126101b8576001600160401b039160043583811161094d573660238201121561094d57611945903690602481600401359101611bbc565b9261194e612049565b3383526017825261ffff60408420541615611a5857835115611a46573383526024825260408320918451918211611a325761198d826107488554612094565b80601f83116001146119ce57508394829394926119c3575b50508160011b916000199060031b1c19161790555b610d4b33611f5b565b0151905038806119a5565b90601f198316958486528286209286905b888210611a1a57505083600195969710611a01575b505050811b0190556119ba565b015160001960f88460031b161c191690553880806119f4565b806001859682949686015181550195019301906119df565b634e487b7160e01b84526041600452602484fd5b604051637138356f60e01b8152600490fd5b604051633b4f6e2b60e21b8152336004820152602490fd5b905081600319360112610882573415611b28575060ff60125460081c16610ebb573381526003602052604081205415611acf575b338152600360205260408120611abb348254611d37565b9055611ac934600254611d37565b60025580f35b600454600160401b811015611b1457611af1816001611b0f9301600455611ed7565b81546001600160a01b0360039290921b91821b19163390911b179055565b611aa4565b634e487b7160e01b82526041600452602482fd5b631036b5ad60e31b8152600490fd5b604081019081106001600160401b038211176104fd57604052565b6001600160401b0381116104fd57604052565b606081019081106001600160401b038211176104fd57604052565b90601f801991011681019081106001600160401b038211176104fd57604052565b6001600160401b0381116104fd57601f01601f191660200190565b929192611bc882611ba1565b91611bd66040519384611b80565b8294818452818301116116ba578281602093846000960137010152565b9181601f840112156116ba578235916001600160401b0383116116ba576020808501948460051b0101116116ba57565b35906001600160401b03821682036116ba57565b6001600160401b0381116104fd5760051b60200190565b35906001600160a01b03821682036116ba57565b9291611c6d82611c37565b91611c7b6040519384611b80565b829481845260208094019160051b81019283116116ba57905b828210611ca15750505050565b838091611cad84611c4e565b815201910190611c94565b92919092611cc584611c37565b91611cd36040519384611b80565b829480845260208094019060051b8301928284116116ba5780915b848310611cfd57505050505050565b82356001600160401b0381116116ba57820184601f820112156116ba578691611d2c8683858095359101611bbc565b815201920191611cee565b91908201809211611d4457565b634e487b7160e01b600052601160045260246000fd5b9035603e19823603018112156116ba570190565b9035601e19823603018112156116ba5701602081359101916001600160401b0382116116ba578160051b360383136116ba57565b60408201916001600160401b03611db883611c23565b1681526060611dcc60209384810190611d6e565b839195604086839601525201929160005b828110611deb575050505090565b909192938280600192838060a01b03611e0389611c4e565b16815201950193929101611ddd565b6020815260806001600160401b03611e5c6060611e42611e328780611d5a565b85602088015260a0870190611da2565b956020810135604087015260408101358287015201611c23565b1691015290565b356001600160401b03811681036116ba5790565b903590601e19813603018212156116ba57018035906001600160401b0382116116ba57602001918160051b360383136116ba57565b818110611eb7575050565b60008155600101611eac565b356001600160a01b03811681036116ba5790565b600454811015611f0e5760046000527f8a35acfbc15ff81a39ae7d344fd709f28e8600b4aa8c65c6b64bfe7fe36bd19b0190600090565b634e487b7160e01b600052603260045260246000fd5b602554811015611f0e5760256000527f401968ff42a154441da5f6c4c935ac46b8671f0e062baaa62a7545ba53bb6e4c0190600090565b600081815260266020526040812054611fbf57602554600160401b811015611b14579082611fab611f9484600160409601602555611f24565b819391549060031b91821b91600019901b19161790565b905560255492815260266020522055600190565b905090565b9190600183016000908282528060205260408220541560001461204357845494600160401b86101561202f576001860180825586101561201b57836040949596828552602085200155549382526020522055600190565b634e487b7160e01b83526032600452602483fd5b634e487b7160e01b83526041600452602483fd5b50925050565b60ff600080516020614f69833981519152541661206257565b60405163d93c066560e01b8152600490fd5b6004111561207e57565b634e487b7160e01b600052602160045260246000fd5b90600182811c921680156120c4575b60208310146120ae57565b634e487b7160e01b600052602260045260246000fd5b91607f16916120a3565b90600092918054916120df83612094565b9182825260019384811690816000146121415750600114612101575b50505050565b90919394506000526020928360002092846000945b83861061212d5750505050010190388080806120fb565b805485870183015294019385908201612116565b9294505050602093945060ff191683830152151560051b010190388080806120fb565b60005b8381106121775750506000910152565b8181015183820152602001612167565b9190601f811161219657505050565b6121c2926000526020600020906020601f840160051c830193106121c4575b601f0160051c0190611eac565b565b90915081906121b5565b908082146122a8576121e08154612094565b906001600160401b0382116104fd578190612205826121ff8654612094565b86612187565b600090601f831160011461223c57600092612231575b50508160011b916000199060031b1c1916179055565b01549050388061221b565b81526020808220858352818320935090601f1985169083905b82821061228f575050908460019594939210612276575b505050811b019055565b015460001960f88460031b161c1916905538808061226c565b8495819295850154815560018091019601940190612255565b5050565b9060016001600160401b0380931601918211611d4457565b601c546001600160401b03828116929080831684106122ef5760405163040aaa0560e11b8152600490fd5b808360401c1684106120fb5780604093841c165b84828216111561236a5750509160209161233d7f246f00b61ce672242f33bb680a47147cd54d3dfd04dbb76956ba42f88087bf63946122ac565b67ffffffffffffffff60401b601c5491831b169067ffffffffffffffff60401b191617601c5551908152a1565b81612388826001600160401b0316600052601d602052604060002090565b6002808201548254929491926001600160a01b03918216919060ff166123ad81612074565b80850361241f57505060036123de60016123e494959697019260018060a01b03166000526015602052604060002090565b016121ce565b612401816001600160401b0316600052601d602052604060002090565b9160009081845560019361241685820161283e565b01550116612303565b9091945061242c81612074565b6003918183036125ca5750508751936124548561244d816001809a016120ce565b0386611b80565b84518501916020928a878583019203126116ba57838701518981116116ba5787019681603f890112156116ba5787858d9901519261249d61249485611ba1565b9a519a8b611b80565b838a528d84830101116116ba578c926124bb9184888c019101612164565b015192816124db8460018060a01b03166000526015602052604060002090565b01918751918a83116125b5578a986124fd846124f78754612094565b87612187565b81601f851160011461254257506125329798999a8493928492600095612537575b50501b92600019911b1c191617905561279d565b6123e4565b01519350388061251e565b91601f9b9493919b1984169b866000528c84600020946000915b821061259a575050846125329a9b9c9d10612580575b50505050811b01905561279d565b01519060f884600019921b161c1916905538808080612572565b8383015186558f9d509487019492830192908101908e61255c565b60246000634e487b7160e01b81526041600452fd5b915091938895939551936125e68561244d8160018095016120ce565b602080868051810103126116ba5781818c9701519561260481612074565b036127295784906126158285612887565b601e546126229043611d37565b9287519061262f82611b37565b8482528282018481526001600160a01b0387166000908152601f602052604090209091909283549161ffff9384848180961695869160101c169061267291612787565b169c60009d8e5282870188528d20925183555191015561269190612774565b1661ffff198254161790558b519384528301528982015260607f083b080788e20bd0930c2bca2ae4fbc51a59ced08c1b5992271f8cb439498a6391a1600e541690813b1561094d578291602483928a5195869384926345f5448560e01b845260048401525af190811561271e5750908493929161270f575b506123e4565b61271890611b52565b38612709565b8751903d90823e3d90fd5b50508293509161273991926127e1565b600e541690813b156116ba578651916316989f6f60e21b83528260048160009485945af190811561271e5750908493929161270f57506123e4565b90600161ffff80931601918211611d4457565b91909161ffff80809416911601918211611d4457565b9060018060a01b0382166000526015602052604060002081815491558181146000146127c857505050565b8111156127d8576121c291612916565b6121c291612c5c565b906121c29161282960018060a01b0382169283600052601560205261280e81600160406000200154611d37565b93600052601560205283600160406000200155601454611d37565b601455612916565b91908203918211611d4457565b6128488154612094565b9081612852575050565b81601f60009311600114612864575055565b908083918252612883601f60208420940160051c840160018501611eac565b5555565b906128f46128fc9260018060a01b03811690600082815260156020526128b4856001604084200154612831565b928152601560205260408120600281018481548115908161290d575b5015612901575090826003926128ef948355816001840155550161283e565b612c5c565b601454612831565b601455565b92505060010155612c5c565b905015386128d0565b919060018060a01b03928381166000948186526020916017835261ffff91604097838982205416612b47578360135460081c16846016541610612b135761295b613769565b60019283825260188652828a832054168861297582613047565b10612a8d57508152601a85528389822054166129e45750505050506129df7f19fe3ca603e87854a0747cc10abf06bac64d61bac73d6d15f2fd3ca448f1526493946129bf83612fd2565b516001600160a01b03909216825260208201929092529081906040820190565b0390a1565b6129ed866137bc565b926129f787613047565b935b8186821611612a4f575b505097516001600160a01b0390951685525050505060208101919091529091507fda148fac2e1063174be7bc0895576bdaba90fd14e575463fa26a967cb895cadd9080604081016129df565b8085612a6e86617fff8f95871c1694858852601b8c5287205416613047565b1015612a875790612a8083928261391b565b90506129f9565b50612a03565b969750899493507ffaeb8de771b867cf357f6b459a7002b62ec45d544a8078a3ecd91200cc826d75989992506129df95601a91612ac8613461565b835252205416612b05575b612adc846133ec565b612ae583612fd2565b516001600160a01b03928316815292909116602083015281906040820190565b612b0e84613211565b612ad3565b50505050506129df7f2e8038f5812f763c6ef0c5427cb5a05ce6d7064af2ba7d1d270bc02660b019fd93946129bf836133ec565b97929150612b588594979695613785565b97612b6285613047565b97612b6c8a61337d565b8460165416905b858116828111612c255782811015612c09575080612b93612b9992612774565b90613719565b9b909b5b8b1115612bbc57612bae908c613882565b612bb78b61337d565b612b73565b505093516001600160a01b0390951685525050505060208101919091529092507f143db27bc2036653dc6f962ff9d0b803163d4af50c256ca9e6927b3d6dcd0197915080604081016129df565b849c919c5260188352612c20858886205416613047565b612b9d565b505050505050506129df91929395507f143db27bc2036653dc6f962ff9d0b803163d4af50c256ca9e6927b3d6dcd019794506129bf565b909160018060a01b0392838316906000938285526020601a815261ffff95604094878683205416612e96578082526017835287868320541615612e85578415612ddd5750612ca983613785565b97612cb384613047565b985b6001808a83161115612dce5781617fff911c1690818452601885528a612cdf848a87205416613047565b1115612cf457612cef9082613882565b612cb5565b505091939597509193955b6019541615612dc657612d10613769565b60018252601883528581818420541692601b612d2b85613047565b95612d34613777565b600183525220541691612d4683613047565b11612d8d57505091516001600160a01b03909216825260208201527f143db27bc2036653dc6f962ff9d0b803163d4af50c256ca9e6927b3d6dcd01979080604081016129df565b915091506129df7ffaeb8de771b867cf357f6b459a7002b62ec45d544a8078a3ecd91200cc826d7593612dbe613461565b612ad36130aa565b505050505050565b50509193959750919395612cff565b829450612e117f4a4c5d1a281180eea1e99d8177fa4798b9f7e019d5c57e7d8d73c6a22199aa5b93929894999697996135aa565b8651908152a160195416612e255750505050565b7f2e8038f5812f763c6ef0c5427cb5a05ce6d7064af2ba7d1d270bc02660b019fd93601b8492612e53613777565b6001835252205416612e79612e6782613047565b92612e706130aa565b6129bf836133ec565b0390a1388080806120fb565b8551632a55ca5360e01b8152600490fd5b84969792939598919415612f97575061fffe9193612eb3866137bc565b93612ebd87613047565b9480966001958692831b168160195416925b612f23575b505099516001600160a01b039097168752505050506020830193909352509192507fda148fac2e1063174be7bc0895576bdaba90fd14e575463fa26a967cb895cadd91905080604081016129df565b818116838111612f91578d9084811015612f7557505080612f46612f4c92612774565b90613394565b9890985b881015612f7057612f61908961391b565b612f6a8861337d565b86612ecf565b612ed4565b8652601b8552852054909890612f8c908716613047565b612f50565b50612ed4565b94915050612fcb9194507f3168ba660eed6ef1dc2258b2247cc05fd0f2f350d39e6ad2e2ebc76a8000b40b95969250613211565b51908152a1565b6121c29061304161ffff91612fea8360195416612774565b9260018060a01b0382169081600052601a60205260406000209085169161ffff1991838382541617905582600052601b6020526040600020906001600160601b0360a01b8254161790556019541617601955613047565b90613328565b60ff60135416600381101561207e57600103613078576001600160a01b031660009081526015602052604090205490565b6001600160a01b031660009081526015602052604090206001015490565b61ffff9081166000190191908211611d4457565b61ffff80601954169081156131ff57906001906130c981831115613865565b6000828152601b60208181526040808420805486865282862080546001600160a01b03928316808952601a8752858920805461ffff199081168c17909155918416808a52868a20805484168d17905588885283546001600160a01b03199081169092179093558a89528454169091179092559295879593949293929161316391908a61315483613096565b169060195416176019556137e1565b848252808652613177848484205416613047565b95859860028160195416995b613195575b5050505050505050505050565b8181168a81116131f9578a8110156131de575080612f466131b592612774565b9a909a5b8910156131d9576131ca908b61391b565b6131d38a61337d565b87613183565b613188565b859b919b528383526131f4878787205416613047565b6131b9565b50613188565b6040516340d9b01160e01b8152600490fd5b61321a906137bc565b61ffff9081601954169161322e838361391b565b8061323884613096565b1661ffff19601954161760195561324e836137e1565b808216809314613323579161fffe91600091808352601b9060209382855260018060a01b039260409261328e613288868686205416613047565b87613328565b82528086526132a1848484205416613047565b9585986001988997881b168160195416995b6132c4575050505050505050505050565b8181168a81116131f9578a811015613308575080612f466132e492612774565b9a909a5b8910156131d9576132f9908b61391b565b6133028a61337d565b876132b3565b859b919b5283835261331e878787205416613047565b6132e8565b505050565b9190915b60018061ffff831611156133775781617fff911c1690836133626000848152601b602052604060018060a01b0391205416613047565b101561337757613372908261391b565b61332c565b50509050565b60011b906201fffe61fffe831692168203611d4457565b91909161ffff92838216600052601b6020526133d760018060a01b036133c08160406000205416613047565b958316600052601b60205260406000205416613047565b908185106133e55750509190565b9350919050565b6121c29061345b61ffff916134048360165416612774565b9260018060a01b0382169081600052601760205260406000209085169161ffff199183838254161790558260005260186020526040600020906001600160601b0360a01b8254161790556016541617601655613047565b906136ca565b61ffff80601654169081156131ff579060019061348081831115613865565b6000828152601860208181526040808420805486865282862080546001600160a01b0392831680895260178752858920805461ffff199081168c17909155918416808a52868a20805484168d17905588885283546001600160a01b03199081169092179093558a89528454169091179092559295879593949293929161351a91908a61350b83613096565b16906016541617601655613823565b84825280865261352e848484205416613047565b95859860028160165416995b61354b575050505050505050505050565b8181168a81116131f9578a81101561358f575080612b9361356b92612774565b9a909a5b8911156131d957613580908b613882565b6135898a61337d565b8761353a565b859b919b528383526135a5878787205416613047565b61356f565b6135b390613785565b9061ffff908160165416906135c88285613882565b826135d283613096565b1661ffff1960165416176016556135e882613823565b8284168092146136c45760009291929183835260189260209484865260018060a01b0391604091613626613620858585205416613047565b8a6136ca565b8152858752613639838383205416613047565b956136438961337d565b978560165416985b8681168a81116136b6578a81101561369b575080612b9361366b92612774565b9a909a5b89111561368e57613680908b613882565b6136898a61337d565b61364b565b5050505050505092505050565b849b919b528282526136b1868686205416613047565b61366f565b505050505050505092505050565b92505050565b9190915b60018061ffff831611156133775781617fff911c16908361370460008481526018602052604060018060a01b0391205416613047565b1115613377576137149082613882565b6136ce565b919061ffff808416600052601860205261375a60018060a01b036137438160406000205416613047565b928416600052601860205260406000205416613047565b93848211156133e55750509190565b61ffff60165416156131ff57565b61ffff60195416156131ff57565b6001600160a01b031660009081526017602052604090205461ffff169081156137aa57565b60405163f2755e3760e01b8152600490fd5b6001600160a01b03166000908152601a602052604090205461ffff169081156137aa57565b61ffff166000908152601b6020908152604080832080546001600160a01b031981169091556001600160a01b03168352601a9091529020805461ffff19169055565b61ffff16600090815260186020908152604080832080546001600160a01b031981169091556001600160a01b0316835260179091529020805461ffff19169055565b1561386c57565b634e487b7160e01b600052600160045260246000fd5b6138a761ffff80806016541693169361389d84861115613865565b1691821115613865565b6000828152601860208181526040808420805486865282862080546001600160a01b0392831680895260178752858920805461ffff19908116909b1790559216808852938720805490981689179097559390925284546001600160a01b031990811690931790945593909152825416179055565b61393661ffff80806019541693169361389d84861115613865565b6000828152601b60208181526040808420805486865282862080546001600160a01b03928316808952601a8752858920805461ffff19908116909b1790559216808852938720805490981689179097559390925284546001600160a01b031990811690931790945593909152825416179055565b9035601e19823603018112156116ba5701602081359101916001600160401b0382116116ba5781360383136116ba57565b908060209392818452848401376000828201840152601f01601f1916010190565b613a25613a1a613a0c8380611d5a565b604085526040850190611da2565b916020810190611d5a565b91602081830391015281359160ff83168093036116ba57613a52604091613a6294845260208101906139aa565b91909281602082015201916139db565b90565b6020808252613a748380611d5a565b6060918281850152613a8b60809283860190611da2565b613aa2604096838101358888015287810190611d6e565b939096601f199686888286030191015284835283830191848660051b8501019880986000955b888710613add57505050505050505050505090565b909192939495969798999a82828203018752613af98c85611d5a565b90813560de19833603018112156116ba578782528201918a90888e6001600160401b03613b70613b60613b4d613b44613b328b80611d5a565b60e080988c01526101208b01906139fc565b978a018a611d5a565b96603f1997888a830301868b01526139fc565b928d8901358d8901528801611c23565b169060a091828701528a8701359263ffffffff60e01b84168094036116ba578f95613ba7613bb79460c096878b01528a018a6139aa565b92909189850301908901526139db565b9401356101008401520135908115158092036116ba578a01529a8801999897966001019587019493929190613ac8565b91825191613bf483611c37565b93604094613c0486519182611b80565b848152601f19613c1386611c37565b0194602095368784013760005b818110613cea57505060009461ffff8060165416600192839182945b613c99575b505050505060ff600e5460a01c1694858102958187041490151715611d44576064613c6d950491613d75565b9015613c77575050565b600681101561207e5760ff602492519163282ef1c160e01b8352166004820152fd5b90919293988a858b16838111613ce25760009081526018855220548493929186918591613cd891613cd2906001600160a01b0316613047565b90611d37565b9b01169493613c3c565b505098613c41565b6001600160a01b0380613cfd8387613d61565b51166000526017885261ffff89600020541615613d3d5790613d2c600192613d258388613d61565b5116613047565b613d368286613d61565b5201613c20565b8890613d4b60249387613d61565b519151633b4f6e2b60e21b815291166004820152fd5b8051821015611f0e5760209160051b010190565b84519294600094908415613e5d5782518514801590613e52575b613e45579392919085945b848610613dbd575050505050501015613db557600090600590565b600190600090565b909192939495613dd7613dd08884613d61565b5184613e6a565b50613de181612074565b613e34576001600160a01b0380613df88a88613d61565b5116911603613e2457613e18600191613e118988613d61565b5190611d37565b96019493929190613d9a565b5050505050505050600090600390565b505050505050505050600090600490565b5050505050905090600190565b508351851415613d8f565b5050505050905090600290565b8151919060418303613e9b57613e9492506020820151906060604084015193015160001a90613ea6565b9192909190565b505060009160029190565b91907f7fffffffffffffffffffffffffffffff5d576e7357a4501ddfe92f46681b20a08411613f2a57926020929160ff608095604051948552168484015260408301526060820152600092839182805260015afa15613f1e5780516001600160a01b03811615613f1557918190565b50809160019190565b604051903d90823e3d90fd5b50505060009160039190565b814710613f98576000918291829182916001600160a01b03165af13d15613f93573d613f6181611ba1565b90613f6f6040519283611b80565b8152600060203d92013e5b15613f8157565b604051630a12f52160e11b8152600490fd5b613f7a565b60405163cd78605960e01b8152306004820152602490fd5b60049081549160005b838110613fc65750505050565b613fcf81611ed7565b90546003916001600160a01b039190831b1c811685821614613ff5575050600101613fb9565b92935093906000199182810190811161408257906140268461401961404594611ed7565b905490891b1c1691611ed7565b90919082549060031b9160018060a01b03809116831b921b1916179055565b8254801561406d57019261405884611ed7565b81939154921b1b1916905555388080806120fb565b603184634e487b7160e01b6000525260246000fd5b601185634e487b7160e01b6000525260246000fd5b7f806e0cbb9fce296bbc336a48f42bf1dbc69722d18d90d6fe705b7582c2bb4bd5546001600160a01b031633036140ca57565b6040516330cd747160e01b8152600490fd5b60405190608082018281106001600160401b038211176104fd576040526045825264185c1c195960da1b6060837f4d6574686f64206e6f7420616c6c6f776564206966207065726d697373696f6e60208201527f656420697320656e61626c656420616e64207375626e657420626f6f7473747260408201520152565b9060209161417281518092818552858086019101612164565b601f01601f1916010190565b9190811015611f0e5760051b81013590601e19813603018212156116ba5701908135916001600160401b0383116116ba5760200182360381136116ba579190565b9190811015611f0e5760051b0190565b600154811015611f0e576003906001600052027fb10e2d527612073b26eecdfd717e6a320cf44b4afac2b0732d9fcbe2b7fa0cf60190600090565b6020808201818352600190815480915260409283850194848360051b82010195846000527fb10e2d527612073b26eecdfd717e6a320cf44b4afac2b0732d9fcbe2b7fa0cf6956000925b85841061426657505050505050505090565b9091929394958560036142a5839a9b603f198682030188528c5481528c8560018060a01b03910154168482015260609081888201520160028d016120ce565b9a019401940192969594939190614254565b6001600160a01b0316600090815260156020526040902090929190600301906001600160401b0381116104fd576142f8816142f28454612094565b84612187565b6000601f821160011461433157819293946000926143265750508160011b916000199060031b1c1916179055565b01359050388061221b565b601f198216948382526020918281209281905b88821061437c5750508360019596971061436257505050811b019055565b0135600019600384901b60f8161c1916905538808061226c565b80600184968294958701358155019501920190614344565b906143a160418214613865565b806001116116ba576143bc9136916000190190600101611bbc565b80516020909101206001600160a01b031690565b60ff60125460101c166143df57565b60405163248c8efb60e11b8152600490fd5b906144069061440081846145e4565b826127e1565b60ff60125460081c16156144175750565b60018054600082815b838110614594575b50501561443457505050565b6001600160a01b03831660009081526015602052604090208281015461448a9490916003016040519261446684611b65565b83526020936144918585019260018060a01b038095168452604051988980926120ce565b0388611b80565b60408401968752600160401b8110156104fd5780866144b2920187556141cf565b9290926107fc576002935183558583019151166001600160601b0360a01b825416179055019251908151916001600160401b0383116104fd576144f9836124f78754612094565b81601f84116001146145325750928293918392600094614527575b50501b916000199060031b1c1916179055565b015192503880614514565b919083601f1981168760005284600020946000905b8883831061457a575050501061456157505050811b019055565b015160001960f88460031b161c1916905538808061226c565b858701518855909601959485019487935090810190614547565b6000829052600381027fb10e2d527612073b26eecdfd717e6a320cf44b4afac2b0732d9fcbe2b7fa0cf701546001600160a01b038781169116146145da57018390614420565b5090508238614428565b60018060a01b031660005260156020526146076002604060002001918254611d37565b9055565b9190604051928160208501526020845261462484611b37565b6001600160401b03601c5416936040519461463e86611b65565b60008652602086019582875260018060a01b038416604082015281600052601d602052604060002096815161467281612074565b61467b81612074565b60ff80198a54169116178855519687516001600160401b0381116104fd576146b3816146aa6001850154612094565b60018501612187565b6020601f82116001146147855761476c949282600080516020614f498339815191529795936002936121c29c9d60009261477a575b50508160011b916000199060031b1c19161760018201555b0190604060018060a01b03910151166001600160601b0360a01b8254161790556001600160401b03614731826122ac565b166001600160401b0319601c541617601c556040519283926000845260018060a01b0387166020850152608060408501526080840190614159565b9060608301520390a16145e4565b0151905038806146e8565b6001830160005260206000209960005b601f19841681106147f85750926001836121c29b9c60029461476c9997600080516020614f498339815191529b9997601f198116106147df575b505050811b016001820155614700565b015160001960f88460031b161c191690553880806147cf565b828201518c556001909b019a60209283019201614795565b60ff60135416600381101561207e5761083657565b601454600a54811015614836575b50565b61ffff601654166001600160401b03600c541611156148525750565b61010061ff001960125416176012557f4914d88063275a25a13b2df37125e216745d812f94c56504be4bd78cf60c95936040518061488f8161420a565b0390a160018060a01b03600e5416906148ab6002548092611d37565b91803b156116ba5760246000926040519485938492637903ab2760e11b845260048401525af180156148e55715614833576121c290611b52565b6040513d6000823e3d90fd5b6148f9614810565b801561496057336000908152601560205260409020600201548015611a585781101561494f5760ff60125460081c1615614937576121c290336149c5565b806149456121c29233614972565b610e958133612887565b60405162d11df360e61b8152600490fd5b60405163c79cad7b60e01b8152600490fd5b6001600160a01b031660008181526015602052604090206002015490918082106149b35761499f91612831565b906000526015602052600260406000200155565b60405163ac69360360e01b8152600490fd5b919060405192816020850152602084526149de84611b37565b6001600160401b03601c541693604051946149f886611b65565b60018652602086019582875260018060a01b038416604082015281600052601d6020526040600020968151614a2c81612074565b614a3581612074565b60ff80198a54169116178855519687516001600160401b0381116104fd57614a64816146aa6001850154612094565b6020601f8211600114614b3657614b1d949282600080516020614f498339815191529795936002936121c29c9d600092614b2b575b50508160011b916000199060031b1c19161760018201555b0190604060018060a01b03910151166001600160601b0360a01b8254161790556001600160401b03614ae2826122ac565b166001600160401b0319601c541617601c556040519283926001845260018060a01b0387166020850152608060408501526080840190614159565b9060608301520390a1614972565b015190503880614a99565b6001830160005260206000209960005b601f1984168110614ba95750926001836121c29b9c600294614b1d9997600080516020614f498339815191529b9997601f19811610614b90575b505050811b016001820155614ab1565b015160001960f88460031b161c19169055388080614b80565b828201518c556001909b019a60209283019201614b46565b60ff60125460081c16614cae575b336000908152601560205260409020600201548015611a5857614bf133614cbb565b5060009033825260246020528160408120614c0c8154612094565b80614c71575b50505060ff60125460081c1615614c2e576121c29150336149c5565b60406121c2923381526003602052205480614c4f575b506149458133614972565b80614c5f614c6b92600254612831565b600255610e9533613fb0565b38614c44565b82601f8211600114614c89575050555b813880614c12565b9091808252614ca7601f60208420940160051c840160018501611eac565b5555614c81565b614cb6614810565b614bcf565b6000818152602660205260408120549091908015614da05760001990808201818111614d8c5760255490838201918211614d7857808203614d44575b5050506025548015614d3057810190614d0f82611f24565b909182549160031b1b19169055602555815260266020526040812055600190565b634e487b7160e01b84526031600452602484fd5b614d62614d53611f9493611f24565b90549060031b1c928392611f24565b9055845260266020526040842055388080614cf7565b634e487b7160e01b86526011600452602486fd5b634e487b7160e01b85526011600452602485fd5b505090565b9190918215613323576040908151906020938483018381106001600160401b038211176104fd5784526000928390526002811015614f345780614e955750600b54614def91612831565b8152602283528181208251808286829454938481520190855286852092855b88828210614e7f57505050614e2592500382611b80565b928351948515612dc657858110612dc65785900493825b868110614e4c5750505050505050565b6001906001600160a01b03614e618285613d61565b5116855260218452858520614e77888254611d37565b905501614e3c565b8554845260019586019587955093019201614e0e565b846001859214600014614ee557606491519063015538b160e01b82526004820152601f60248201527f72657761726473206e6f7420646566696e656420666f722062617463686573006044820152fd5b608491519063015538b160e01b82526004820152602360248201527f72657761726473206e6f7420646566696e656420666f72206f626a656374206b6044820152621a5b9960ea1b6064820152fd5b634e487b7160e01b83526021600452602483fdfe1c593a2b803c3f9038e8b6743ba79fbc4276d2770979a01d2768ed12bea3243fc451c9429c27db68f286ab8a68f311f1dccab703ba9423aed29cd397ae63f863691bb03ffc16c56fc96b82fd16cd1b3715f0bc3cdc6407005f49bb6205860095a264697066735822122064f7e181625ff5443755cb2b8dd1812d64b7420ba3126efeb33b109af40c35e264736f6c63430008130033","linkReferences":{"src/lib/LibStaking.sol":{"LibStaking":[{"start":337,"length":20}]}}},"methodIdentifiers":{"addBootstrapNode(string)":"10fd4261","claim()":"4e71d92d","claimRewardForRelayer()":"ed7c4da1","confirmChange(uint64)":"350a14bf","confirmNextChange()":"c7ebdaef","distributeRewardToRelayers(uint256,uint256,uint8)":"4c860af6","join(bytes)":"6170b162","kill()":"41c0e1b5","leave()":"d66d9e19","pause()":"8456cb59","paused()":"5c975abb","preFund()":"0b7fbe60","preRelease(uint256)":"66783c9b","setFederatedPower(address[],bytes[],uint256[])":"da5d09ee","stake()":"3a4b66f1","submitBottomUpMsgBatch(((uint64,address[]),uint256,((((uint64,address[]),(uint8,bytes)),((uint64,address[]),(uint8,bytes)),uint256,uint64,bytes4,bytes,uint256),bool)[]),address[],bytes[])":"26811936","submitCheckpoint(((uint64,address[]),uint256,bytes32,uint64),address[],bytes[])":"b9ee2bb9","unpause()":"3f4ba83a","unstake(uint256)":"2e17de78","validateActiveQuorumSignatures(address[],bytes32,bytes[])":"cc2dc2b9"},"id":105}