{"abi":[{"type":"function","name":"isSystemActor","inputs":[{"name":"_address","type":"address","internalType":"address"}],"outputs":[{"name":"","type":"bool","internalType":"bool"}],"stateMutability":"pure"}],"bytecode":{"object":"0x60808060405234601857608e908161001e823930815050f35b600080fdfe6080806040526004361015601257600080fd5b60003560e01c635d3f8a6914602657600080fd5b60203660031901126053576004356001600160a01b038116919082900360535760209160ff60981b148152f35b600080fdfea2646970667358221220a68cfeb6ce6fe5ab87c1d872ad609dc3c957d43ea1ed4e786fd87e5275e58c6164736f6c63430008130033","linkReferences":{}},"methodIdentifiers":{"isSystemActor(address)":"5d3f8a69"},"id":57}