{
    "abi": [
        {
            "type": "function",
            "name": "addStake",
            "inputs": [],
            "outputs": [],
            "stateMutability": "payable"
        },
        {
            "type": "function",
            "name": "commitBottomUpCheckpoint",
            "inputs": [
                {
                    "name": "bottomUpCheckpoint",
                    "type": "tuple",
                    "internalType": "struct BottomUpCheckpoint",
                    "components": [
                        {
                            "name": "subnetID",
                            "type": "tuple",
                            "internalType": "struct SubnetID",
                            "components": [
                                {
                                    "name": "root",
                                    "type": "uint64",
                                    "internalType": "uint64"
                                },
                                {
                                    "name": "route",
                                    "type": "address[]",
                                    "internalType": "address[]"
                                }
                            ]
                        },
                        {
                            "name": "blockHeight",
                            "type": "uint64",
                            "internalType": "uint64"
                        },
                        {
                            "name": "blockHash",
                            "type": "bytes32",
                            "internalType": "bytes32"
                        },
                        {
                            "name": "nextConfigurationNumber",
                            "type": "uint64",
                            "internalType": "uint64"
                        },
                        {
                            "name": "crossMessagesHash",
                            "type": "bytes32",
                            "internalType": "bytes32"
                        }
                    ]
                },
                {
                    "name": "messages",
                    "type": "tuple[]",
                    "internalType": "struct CrossMsg[]",
                    "components": [
                        {
                            "name": "message",
                            "type": "tuple",
                            "internalType": "struct StorableMsg",
                            "components": [
                                {
                                    "name": "from",
                                    "type": "tuple",
                                    "internalType": "struct IPCAddress",
                                    "components": [
                                        {
                                            "name": "subnetId",
                                            "type": "tuple",
                                            "internalType": "struct SubnetID",
                                            "components": [
                                                {
                                                    "name": "root",
                                                    "type": "uint64",
                                                    "internalType": "uint64"
                                                },
                                                {
                                                    "name": "route",
                                                    "type": "address[]",
                                                    "internalType": "address[]"
                                                }
                                            ]
                                        },
                                        {
                                            "name": "rawAddress",
                                            "type": "tuple",
                                            "internalType": "struct FvmAddress",
                                            "components": [
                                                {
                                                    "name": "addrType",
                                                    "type": "uint8",
                                                    "internalType": "uint8"
                                                },
                                                {
                                                    "name": "payload",
                                                    "type": "bytes",
                                                    "internalType": "bytes"
                                                }
                                            ]
                                        }
                                    ]
                                },
                                {
                                    "name": "to",
                                    "type": "tuple",
                                    "internalType": "struct IPCAddress",
                                    "components": [
                                        {
                                            "name": "subnetId",
                                            "type": "tuple",
                                            "internalType": "struct SubnetID",
                                            "components": [
                                                {
                                                    "name": "root",
                                                    "type": "uint64",
                                                    "internalType": "uint64"
                                                },
                                                {
                                                    "name": "route",
                                                    "type": "address[]",
                                                    "internalType": "address[]"
                                                }
                                            ]
                                        },
                                        {
                                            "name": "rawAddress",
                                            "type": "tuple",
                                            "internalType": "struct FvmAddress",
                                            "components": [
                                                {
                                                    "name": "addrType",
                                                    "type": "uint8",
                                                    "internalType": "uint8"
                                                },
                                                {
                                                    "name": "payload",
                                                    "type": "bytes",
                                                    "internalType": "bytes"
                                                }
                                            ]
                                        }
                                    ]
                                },
                                {
                                    "name": "value",
                                    "type": "uint256",
                                    "internalType": "uint256"
                                },
                                {
                                    "name": "nonce",
                                    "type": "uint64",
                                    "internalType": "uint64"
                                },
                                {
                                    "name": "method",
                                    "type": "bytes4",
                                    "internalType": "bytes4"
                                },
                                {
                                    "name": "params",
                                    "type": "bytes",
                                    "internalType": "bytes"
                                },
                                {
                                    "name": "fee",
                                    "type": "uint256",
                                    "internalType": "uint256"
                                }
                            ]
                        },
                        {
                            "name": "wrapped",
                            "type": "bool",
                            "internalType": "bool"
                        }
                    ]
                }
            ],
            "outputs": [],
            "stateMutability": "nonpayable"
        },
        {
            "type": "function",
            "name": "commitParentFinality",
            "inputs": [
                {
                    "name": "finality",
                    "type": "tuple",
                    "internalType": "struct ParentFinality",
                    "components": [
                        {
                            "name": "height",
                            "type": "uint256",
                            "internalType": "uint256"
                        },
                        {
                            "name": "blockHash",
                            "type": "bytes32",
                            "internalType": "bytes32"
                        }
                    ]
                }
            ],
            "outputs": [],
            "stateMutability": "nonpayable"
        },
        {
            "type": "function",
            "name": "createBottomUpCheckpoint",
            "inputs": [
                {
                    "name": "checkpoint",
                    "type": "tuple",
                    "internalType": "struct BottomUpCheckpoint",
                    "components": [
                        {
                            "name": "subnetID",
                            "type": "tuple",
                            "internalType": "struct SubnetID",
                            "components": [
                                {
                                    "name": "root",
                                    "type": "uint64",
                                    "internalType": "uint64"
                                },
                                {
                                    "name": "route",
                                    "type": "address[]",
                                    "internalType": "address[]"
                                }
                            ]
                        },
                        {
                            "name": "blockHeight",
                            "type": "uint64",
                            "internalType": "uint64"
                        },
                        {
                            "name": "blockHash",
                            "type": "bytes32",
                            "internalType": "bytes32"
                        },
                        {
                            "name": "nextConfigurationNumber",
                            "type": "uint64",
                            "internalType": "uint64"
                        },
                        {
                            "name": "crossMessagesHash",
                            "type": "bytes32",
                            "internalType": "bytes32"
                        }
                    ]
                },
                {
                    "name": "membershipRootHash",
                    "type": "bytes32",
                    "internalType": "bytes32"
                },
                {
                    "name": "membershipWeight",
                    "type": "uint256",
                    "internalType": "uint256"
                }
            ],
            "outputs": [],
            "stateMutability": "nonpayable"
        },
        {
            "type": "function",
            "name": "fund",
            "inputs": [
                {
                    "name": "subnetId",
                    "type": "tuple",
                    "internalType": "struct SubnetID",
                    "components": [
                        {
                            "name": "root",
                            "type": "uint64",
                            "internalType": "uint64"
                        },
                        {
                            "name": "route",
                            "type": "address[]",
                            "internalType": "address[]"
                        }
                    ]
                },
                {
                    "name": "to",
                    "type": "tuple",
                    "internalType": "struct FvmAddress",
                    "components": [
                        {
                            "name": "addrType",
                            "type": "uint8",
                            "internalType": "uint8"
                        },
                        {
                            "name": "payload",
                            "type": "bytes",
                            "internalType": "bytes"
                        }
                    ]
                }
            ],
            "outputs": [],
            "stateMutability": "payable"
        },
        {
            "type": "function",
            "name": "kill",
            "inputs": [],
            "outputs": [],
            "stateMutability": "nonpayable"
        },
        {
            "type": "function",
            "name": "propagate",
            "inputs": [
                {
                    "name": "msgCid",
                    "type": "bytes32",
                    "internalType": "bytes32"
                }
            ],
            "outputs": [],
            "stateMutability": "payable"
        },
        {
            "type": "function",
            "name": "register",
            "inputs": [
                {
                    "name": "_genesisCircSupply",
                    "type": "uint256",
                    "internalType": "uint256"
                }
            ],
            "outputs": [],
            "stateMutability": "payable"
        },
        {
            "type": "function",
            "name": "release",
            "inputs": [
                {
                    "name": "to",
                    "type": "tuple",
                    "internalType": "struct FvmAddress",
                    "components": [
                        {
                            "name": "addrType",
                            "type": "uint8",
                            "internalType": "uint8"
                        },
                        {
                            "name": "payload",
                            "type": "bytes",
                            "internalType": "bytes"
                        }
                    ]
                }
            ],
            "outputs": [],
            "stateMutability": "payable"
        },
        {
            "type": "function",
            "name": "releaseRewardForRelayer",
            "inputs": [
                {
                    "name": "amount",
                    "type": "uint256",
                    "internalType": "uint256"
                }
            ],
            "outputs": [],
            "stateMutability": "nonpayable"
        },
        {
            "type": "function",
            "name": "releaseStake",
            "inputs": [
                {
                    "name": "amount",
                    "type": "uint256",
                    "internalType": "uint256"
                }
            ],
            "outputs": [],
            "stateMutability": "nonpayable"
        },
        {
            "type": "function",
            "name": "sendCrossMessage",
            "inputs": [
                {
                    "name": "crossMsg",
                    "type": "tuple",
                    "internalType": "struct CrossMsg",
                    "components": [
                        {
                            "name": "message",
                            "type": "tuple",
                            "internalType": "struct StorableMsg",
                            "components": [
                                {
                                    "name": "from",
                                    "type": "tuple",
                                    "internalType": "struct IPCAddress",
                                    "components": [
                                        {
                                            "name": "subnetId",
                                            "type": "tuple",
                                            "internalType": "struct SubnetID",
                                            "components": [
                                                {
                                                    "name": "root",
                                                    "type": "uint64",
                                                    "internalType": "uint64"
                                                },
                                                {
                                                    "name": "route",
                                                    "type": "address[]",
                                                    "internalType": "address[]"
                                                }
                                            ]
                                        },
                                        {
                                            "name": "rawAddress",
                                            "type": "tuple",
                                            "internalType": "struct FvmAddress",
                                            "components": [
                                                {
                                                    "name": "addrType",
                                                    "type": "uint8",
                                                    "internalType": "uint8"
                                                },
                                                {
                                                    "name": "payload",
                                                    "type": "bytes",
                                                    "internalType": "bytes"
                                                }
                                            ]
                                        }
                                    ]
                                },
                                {
                                    "name": "to",
                                    "type": "tuple",
                                    "internalType": "struct IPCAddress",
                                    "components": [
                                        {
                                            "name": "subnetId",
                                            "type": "tuple",
                                            "internalType": "struct SubnetID",
                                            "components": [
                                                {
                                                    "name": "root",
                                                    "type": "uint64",
                                                    "internalType": "uint64"
                                                },
                                                {
                                                    "name": "route",
                                                    "type": "address[]",
                                                    "internalType": "address[]"
                                                }
                                            ]
                                        },
                                        {
                                            "name": "rawAddress",
                                            "type": "tuple",
                                            "internalType": "struct FvmAddress",
                                            "components": [
                                                {
                                                    "name": "addrType",
                                                    "type": "uint8",
                                                    "internalType": "uint8"
                                                },
                                                {
                                                    "name": "payload",
                                                    "type": "bytes",
                                                    "internalType": "bytes"
                                                }
                                            ]
                                        }
                                    ]
                                },
                                {
                                    "name": "value",
                                    "type": "uint256",
                                    "internalType": "uint256"
                                },
                                {
                                    "name": "nonce",
                                    "type": "uint64",
                                    "internalType": "uint64"
                                },
                                {
                                    "name": "method",
                                    "type": "bytes4",
                                    "internalType": "bytes4"
                                },
                                {
                                    "name": "params",
                                    "type": "bytes",
                                    "internalType": "bytes"
                                },
                                {
                                    "name": "fee",
                                    "type": "uint256",
                                    "internalType": "uint256"
                                }
                            ]
                        },
                        {
                            "name": "wrapped",
                            "type": "bool",
                            "internalType": "bool"
                        }
                    ]
                }
            ],
            "outputs": [],
            "stateMutability": "payable"
        },
        {
            "type": "error",
            "name": "AddressInsufficientBalance",
            "inputs": [
                {
                    "name": "account",
                    "type": "address",
                    "internalType": "address"
                }
            ]
        },
        {
            "type": "error",
            "name": "FailedInnerCall",
            "inputs": []
        }
    ],
    "bytecode": {
        "object": "0x608080604052346100165761067d908161001c8239f35b600080fdfe6080604081815260048036101561001557600080fd5b600092833560e01c908163111969741461044957816318f44b70146103fd57816325bf0db6146103e257816341c0e1b5146103c357816345f544851461032f575080635a627dbc146103155780636b2c1eef146102e0578063a656ca5b1461029d578063c13175ef14610172578063d8e2557214610152578063f207564e146101225763f456b39e146100a757600080fd5b3461011657600319913683011261011657803567ffffffffffffffff9283821161011e5760a09136030112610116576024359082821161011a573660238301121561011a5781013591821161011657602490369260051b01011161011357805460ff1916600117815580f35b80fd5b8280fd5b8380fd5b8480fd5b8360203660031901126101135780546001600160a81b0319163360081b610100600160a81b031617600117815580f35b833461011357602036600319011261011357805460ff1916600117815580f35b50906003199060203683011261011a5782359167ffffffffffffffff918284116102995780828536030112610299576101a9610469565b508385013583811161027e5760e09085019283360301126102995780519060e082018281108582111761028657815285830135848111610282576101f290873691860101610538565b825260248301358481116102825761020f90873691860101610538565b6020830152604483013590820152610229606483016104c5565b60608201526084820135906001600160e01b03198216820361027e576080015260a481013591821161011e5760249361026592369201016104fb565b5001358015150361011357805460ff1916600117815580f35b8680fd5b8780fd5b634e487b7160e01b885260418752602488fd5b8580fd5b8382346102dc576003199060603683011261011657359067ffffffffffffffff82116101165760a0913603011261011357805460ff1916600117815580f35b5080fd5b506003199060203683011261011a573567ffffffffffffffff811161011a573603011261011357805460ff1916600117815580f35b838060031936011261011357805460ff1916600117815580f35b849391503461011a57602036600319011261011a57835460ff19166001178085558335914783116103af5750849182918291829160081c6001600160a01b03165af13d156103aa573d610389610384826104df565b61049f565b9081528460203d92013e5b1561039d578280f35b51630a12f52160e11b8152fd5b610394565b63cd78605960e01b81523085820152602490fd5b8434610113578060031936011261011357805460ff1916600117815580f35b84602036600319011261011357805460ff1916600117815580f35b505060031990828236011261011a573567ffffffffffffffff9081811161011e578284913603011261011a5760243590811161011a573603011261011357805460ff1916600117815580f35b505050346102dc5736600319011261011357805460ff1916600117815580f35b604051906040820182811067ffffffffffffffff82111761048957604052565b634e487b7160e01b600052604160045260246000fd5b6040519190601f01601f1916820167ffffffffffffffff81118382101761048957604052565b359067ffffffffffffffff821682036104da57565b600080fd5b67ffffffffffffffff811161048957601f01601f191660200190565b81601f820112156104da57803590610515610384836104df565b92828452602083830101116104da57816000926020809301838601378301015290565b91906040838203126104da5761054c610469565b9267ffffffffffffffff9181358381116104da578201916040838303126104da57610575610469565b61057e846104c5565b815260209384810135908682116104da570183601f820112156104da57803590868211610489578160051b86806105b681840161049f565b809581520191830101918683116104da578701905b8282106106285750505084820152865282810135908482116104da5701906040828203126104da576105fb610469565b93823560ff811681036104da578552838301359081116104da5761061f92016104fb565b81830152830152565b81356001600160a01b03811681036104da5781529087019087016105cb56fea26469706673582212203a2af7999e5ea76fc5c227f0db005d82df5a755670e51461b74b81e7a1f62b0664736f6c63430008130033",
        "linkReferences": {}
    },
    "methodIdentifiers": {
        "addStake()": "5a627dbc",
        "commitBottomUpCheckpoint(((uint64,address[]),uint64,bytes32,uint64,bytes32),((((uint64,address[]),(uint8,bytes)),((uint64,address[]),(uint8,bytes)),uint256,uint64,bytes4,bytes,uint256),bool)[])": "f456b39e",
        "commitParentFinality((uint256,bytes32))": "11196974",
        "createBottomUpCheckpoint(((uint64,address[]),uint64,bytes32,uint64,bytes32),bytes32,uint256)": "a656ca5b",
        "fund((uint64,address[]),(uint8,bytes))": "18f44b70",
        "kill()": "41c0e1b5",
        "propagate(bytes32)": "25bf0db6",
        "register(uint256)": "f207564e",
        "release((uint8,bytes))": "6b2c1eef",
        "releaseRewardForRelayer(uint256)": "d8e25572",
        "releaseStake(uint256)": "45f54485",
        "sendCrossMessage(((((uint64,address[]),(uint8,bytes)),((uint64,address[]),(uint8,bytes)),uint256,uint64,bytes4,bytes,uint256),bool))": "c13175ef"
    },
    "id": 82
}