{
    "abi": [
        {
            "inputs": [],
            "name": "AlreadyRegisteredSubnet",
            "type": "error"
        },
        {
            "inputs": [],
            "name": "CallFailed",
            "type": "error"
        },
        {
            "inputs": [],
            "name": "CannotReleaseZero",
            "type": "error"
        },
        {
            "inputs": [],
            "name": "InsufficientFunds",
            "type": "error"
        },
        {
            "inputs": [],
            "name": "InvalidActorAddress",
            "type": "error"
        },
        {
            "inputs": [],
            "name": "NotEmptySubnetCircSupply",
            "type": "error"
        },
        {
            "inputs": [],
            "name": "NotEnoughFee",
            "type": "error"
        },
        {
            "inputs": [],
            "name": "NotEnoughFunds",
            "type": "error"
        },
        {
            "inputs": [],
            "name": "NotEnoughFundsToRelease",
            "type": "error"
        },
        {
            "inputs": [],
            "name": "NotRegisteredSubnet",
            "type": "error"
        },
        {
            "inputs": [],
            "name": "ReentrancyError",
            "type": "error"
        },
        {
            "inputs": [],
            "name": "addStake",
            "outputs": [],
            "stateMutability": "payable",
            "type": "function"
        },
        {
            "inputs": [
                {
                    "components": [
                        {
                            "internalType": "uint64",
                            "name": "root",
                            "type": "uint64"
                        },
                        {
                            "internalType": "address[]",
                            "name": "route",
                            "type": "address[]"
                        }
                    ],
                    "internalType": "struct SubnetID",
                    "name": "subnetId",
                    "type": "tuple"
                },
                {
                    "components": [
                        {
                            "internalType": "uint8",
                            "name": "addrType",
                            "type": "uint8"
                        },
                        {
                            "internalType": "bytes",
                            "name": "payload",
                            "type": "bytes"
                        }
                    ],
                    "internalType": "struct FvmAddress",
                    "name": "to",
                    "type": "tuple"
                }
            ],
            "name": "fund",
            "outputs": [],
            "stateMutability": "payable",
            "type": "function"
        },
        {
            "inputs": [],
            "name": "kill",
            "outputs": [],
            "stateMutability": "nonpayable",
            "type": "function"
        },
        {
            "inputs": [
                {
                    "internalType": "uint256",
                    "name": "genesisCircSupply",
                    "type": "uint256"
                }
            ],
            "name": "register",
            "outputs": [],
            "stateMutability": "payable",
            "type": "function"
        },
        {
            "inputs": [
                {
                    "components": [
                        {
                            "internalType": "uint8",
                            "name": "addrType",
                            "type": "uint8"
                        },
                        {
                            "internalType": "bytes",
                            "name": "payload",
                            "type": "bytes"
                        }
                    ],
                    "internalType": "struct FvmAddress",
                    "name": "to",
                    "type": "tuple"
                },
                {
                    "internalType": "uint256",
                    "name": "fee",
                    "type": "uint256"
                }
            ],
            "name": "release",
            "outputs": [],
            "stateMutability": "payable",
            "type": "function"
        },
        {
            "inputs": [
                {
                    "internalType": "uint256",
                    "name": "amount",
                    "type": "uint256"
                }
            ],
            "name": "releaseRewardForRelayer",
            "outputs": [],
            "stateMutability": "nonpayable",
            "type": "function"
        },
        {
            "inputs": [
                {
                    "internalType": "uint256",
                    "name": "amount",
                    "type": "uint256"
                }
            ],
            "name": "releaseStake",
            "outputs": [],
            "stateMutability": "nonpayable",
            "type": "function"
        }
    ],
    "bytecode": {
        "object": "0x6080806040523461001657611b87908161001c8239f35b600080fdfe608080604052600436101561001357600080fd5b60003560e01c90816318f44b7014610ecb5750806341c0e1b514610d5757806345f5448514610ca25780635a627dbc14610c1f5780639ba5358014610440578063d8e25572146103005763f207564e1461006c57600080fd5b6020806003193601126102825760043590610087823461125c565b9160145483106102ee576100d29061009d6112a5565b90600073__$a0fe38a9a81205afccc10810b09a4d3f45$__926040518095819263aa5106cb60e01b83523390600484016114fd565b0381855af492831561028e576000936102c9575b506100f083611a3c565b906102b75760048101956001600160401b0396878651166001600160401b0319825416179055600582018686015190815191898311610245579088839261013d8299979a9896958461153c565b01906000528660002060005b83811061029a57505050508560029161019c975560038101600160801b60ff60801b19825416179055436001820155015560405180809581946390ba52cf60e01b835286600484015260248301906114a2565b03915af491821561028e5760009261025b575b5050601154600160401b81101561024557600181018060115581101561022f5760116000527f31ecc21a745e3968a04e9570e4425bc18fa8019c68028196b546d1669c200c680155601654906102146001600160401b0360881b918360881c16611572565b60881b1667ffffffffffffffff60881b199190911617601655005b634e487b7160e01b600052603260045260246000fd5b634e487b7160e01b600052604160045260246000fd5b90809250813d8311610287575b6102728183611284565b81010312610282575138806101af565b600080fd5b503d610268565b6040513d6000823e3d90fd5b82516001600160a01b0316818301558a9890920191600101610149565b604051631b538cdf60e11b8152600490fd5b6102e79193503d806000833e6102df8183611284565b81019061147a565b91386100e6565b604051631036b5ad60e31b8152600490fd5b346102825760208060031936011261028257600435907f691bb03ffc16c56fc96b82fd16cd1b3715f0bc3cdc6407005f49bb620586009590600182541461042e5760018255821561041c57610354336119a4565b901561040a578161036a600461038b9301611336565b60405180938192632cff562160e11b835284600484015260248301906114a2565b038173__$a0fe38a9a81205afccc10810b09a4d3f45$__5af491821561028e576000926103cc575b6000846103c9876001600160a01b0387166115b2565b55005b90809250813d8311610403575b6103e38183611284565b81010312610282576000926103fa6103c9926113c1565b918194506103b3565b503d6103d9565b604051630e991abd60e41b8152600490fd5b60405163c79cad7b60e01b8152600490fd5b6040516329f745a760e01b8152600490fd5b60031960403682011261028257600435906001600160401b03821161028257604081833603011261028257602435906015548210610c0d578134106102ee576104ce92826104906000943461125c565b906040519586948594632e82508d60e21b865260a060048701526104b660a48701611873565b91336024880152868303016044870152600401611808565b9160648401526084830152038173__$33b79814e84bf6cf5e47244090b19ce5f8$__5af490811561028e57600091610bea575b506001600160401b03601754168015610bd4576001600160401b036105298282431604611572565b16026001600160401b038116908103610bbe576001600160401b0360165460081c16606083510152600052600b6020526040600020805490600160401b821015610245576001820180825582101561022f576000526020600020908251805180516001600160401b038151166001600160401b0319600d86028701541617600d850286015560206001600d8602870101910151908151916001600160401b038311610245576020906105db848461153c565b0190600052602060002060005b838110610ba15750505050602090816002600d86028701019101519060ff82511660ff1982541617905501518051906001600160401b038211610245576003600d85028601015490600182811c92168015610b97575b60208310146109ce5781601f849311610b5d575b50602090601f8311600114610ae157600092610ad6575b50508160011b916000199060031b1c1916176003600d8402850101555b60208181015180518051600d8602870160048101805467ffffffffffffffff19166001600160401b039384161790559190930151805192936005909201918311610245576020906106d7848461153c565b0190600052602060002060005b838110610ab95750505050602090816006600d86028701019101519060ff82511660ff1982541617905501518051906001600160401b038211610245576007600d85028601015490600182811c92168015610aaf575b60208310146109ce5781601f849311610a75575b50602090601f83116001146109f9576000926109ee575b50508160011b916000199060031b1c1916176007600d8402850101555b60408101516008600d8402850101556009600d83028401016001600160401b036060830151168154906bffffffff0000000000000000608085015160a01c16916bffffffffffffffffffffffff191617179055600a600d830284010160a08201518051906001600160401b038211610245578254600181811c911680156109e4575b60208210146109ce57601f8111610991575b50602090601f831160011461091d5793600d9383600c979460c09460209a98600092610912575b50508160011b916000199060031b1c19161790555b0151600b83830285010155020101910151151560ff8019835416911617905560165468ffffffffffffffff006108936001600160401b038360081c16611572565b60081b169068ffffffffffffffff001916176016553447106109005760008080803460635af13d156108fb573d6108c981611597565b906108d76040519283611284565b8152600060203d92013e5b156108e957005b604051633204506f60e01b8152600490fd5b6108e2565b60405163356680b760e01b8152600490fd5b015190508b8061083d565b90601f198316918460005260206000209260005b81811061097957508460c09460209a9894600d9894600c9b9860019510610960575b505050811b019055610852565b015160001960f88460031b161c191690558b8080610953565b92936020600181928786015181550195019301610931565b6109be90846000526020600020601f850160051c810191602086106109c4575b601f0160051c0190611525565b87610816565b90915081906109b1565b634e487b7160e01b600052602260045260246000fd5b90607f1690610804565b015190508680610765565b92506007600d86028701016000526020600020906000935b601f1984168510610a5a576001945083601f19811610610a41575b505050811b016007600d840285010155610782565b015160001960f88460031b161c19169055868080610a2c565b81810151835560209485019460019093019290910190610a11565b610aa9906007600d88028901016000526020600020601f850160051c810191602086106109c457601f0160051c0190611525565b8761074e565b91607f169161073a565b82516001600160a01b0316818301556020909201916001016106e4565b015190508680610669565b92506003600d86028701016000526020600020906000935b601f1984168510610b42576001945083601f19811610610b29575b505050811b016003600d840285010155610686565b015160001960f88460031b161c19169055868080610b14565b81810151835560209485019460019093019290910190610af9565b610b91906003600d88028901016000526020600020601f850160051c810191602086106109c457601f0160051c0190611525565b87610652565b91607f169161063e565b82516001600160a01b0316818301556020909201916001016105e8565b634e487b7160e01b600052601160045260246000fd5b634e487b7160e01b600052601260045260246000fd5b610c0791503d806000833e610bff8183611284565b810190611703565b81610501565b6040516334472ad760e11b8152600490fd5b60003660031901126102825734156102ee57610c3a336119a4565b901561040a576003610c4d34835461158a565b91828155019081549060ff8260801c166006811015610c8c57600214610c6f57005b6014541115610c7b575b005b60ff60801b1916600160801b179055005b634e487b7160e01b600052602160045260246000fd5b346102825760208060031936011261028257600435907f691bb03ffc16c56fc96b82fd16cd1b3715f0bc3cdc6407005f49bb620586009590600182541461042e5760018255821561041c57610cf6336119a4565b901561040a578054848110610d455761036a600461038b93610d1988879561125c565b80825560145411610d2b575b01611336565b60038101805460ff60801b1916600160811b179055610d25565b6040516379b33e7960e01b8152600490fd5b3461028257600036600319011261028257610d71336119a4565b901561040a576002810154610eb957805490601654906001600160401b0390600019828460881c1601918211610bbe5767ffffffffffffffff60881b1990921660889190911b67ffffffffffffffff60881b1617601655610dd490600401611336565b90610dfd604051926390ba52cf60e01b84528380602093849384600484015260248301906114a2565b038173__$a0fe38a9a81205afccc10810b09a4d3f45$__5af4801561028e57600090610e8a575b610c7993506000526000815260056040600020600081556000600182015560006002820155600060038201556000600482015501908154906000835581610e6f575b505050336115b2565b610e829260005260002090810190611525565b828080610e66565b508083813d8311610eb2575b610ea08183611284565b8101031261028257610c799251610e24565b503d610e96565b604051637c67c70160e11b8152600490fd5b60031960403682011261028257600435906001600160401b03928383116102825782360360408382011261028257602493843590868211610282576040858336030112610282576379185f5960e11b845260a0600485015260e484019281600401358881168091036102825760a48601528187013590602219018112156102825701856004820135910192878211610282578160051b3603841361028257908085939492604060c486015252610104830191906000905b80821061122a57505050610fab8291600094338985015287848303016044850152600401611808565b346064830152836084830152038173__$33b79814e84bf6cf5e47244090b19ce5f8$__5af490811561028e5760009161120f575b5060209182825101515190600061102b73__$a0fe38a9a81205afccc10810b09a4d3f45$__93611039604051948593849363089032d560e01b85526040600486015260448501906114a2565b90838203018a840152611873565b0381855af490811561028e576000916111f4575b5061105781611a3c565b92901561040a576110c49583600387950180548a61107d8183168060608c510152611572565b16906001600160401b0319161790556110a16002604088510151920191825461158a565b90556040518097819482936304e384ff60e21b84528760048501528301906114a2565b03915af4801561028e576000906111a0575b7f392fae29c67f3b47710cb5b84d7a6fd08e0155a4f22565971f7159f12c6f7096935060405192839281845260c061117f8251986040858801526111278a5160e060608a0152610140890190611917565b611142868c015191605f1992838b83030160808c0152611917565b9160408c015160a08a015260608c0151168489015263ffffffff60e01b60808c01511660e089015260a08b015190888303016101008901526118f2565b9701516101208501520151151560408301526001600160a01b0316930390a2005b508183813d83116111ed575b6111b68183611284565b81010312610282576111e87f392fae29c67f3b47710cb5b84d7a6fd08e0155a4f22565971f7159f12c6f7096936113c1565b6110d6565b503d6111ac565b61120991503d806000833e6102df8183611284565b8661104d565b61122491503d806000833e610bff8183611284565b84610fdf565b919493509184356001600160a01b03811691908290036102825760019181526020809101950192018593949291610f82565b91908203918211610bbe57565b604081019081106001600160401b0382111761024557604052565b90601f801991011681019081106001600160401b0382111761024557604052565b604051906112b282611269565b816001600160401b03601254168152604051809160135480835283602080940160136000527f66de8ffda797e3de9c05e8fc57b3bf0ec28a930d40b0d285d93c06501cf6a0909260005b868282106113175750505061131392500384611284565b0152565b85546001600160a01b03168452600195860195899550930192016112fc565b9060405161134381611269565b80926001600160401b03815416825260018091019160405191828481955492838652602080960191600052856000209060005b8786821061138e575050505061131392500384611284565b83546001600160a01b0316855289955090930192918101918101611376565b51906001600160401b038216820361028257565b51906001600160a01b038216820361028257565b91909160408184031261028257604051926113ef84611269565b836113f9836113ad565b8152602091828401516001600160401b0394858211610282570181601f82011215610282578051948511610245578460051b906040519561143c86840188611284565b865284808701928201019283116102825784809101915b83831061146257505050500152565b819061146d846113c1565b8152019101908490611453565b906020828203126102825781516001600160401b0381116102825761149f92016113d5565b90565b60609060408301906001600160401b03815116845260209283809201519460408382015285518094520193019160005b8281106114e0575050505090565b83516001600160a01b0316855293810193928101926001016114d2565b906115156020919493946040845260408401906114a2565b6001600160a01b03909416910152565b818110611530575050565b60008155600101611525565b90600160401b81116102455781549080835581811061155a57505050565b6115709260005260206000209182019101611525565b565b9060016001600160401b0380931601918211610bbe57565b91908201809211610bbe57565b6001600160401b03811161024557601f01601f191660200190565b814710610900576000918291829182916001600160a01b03165af13d156115fd573d6115dd81611597565b906115eb6040519283611284565b8152600060203d92013e5b156108e957565b6115f6565b60005b8381106116155750506000910152565b8181015183820152602001611605565b81601f8201121561028257805161163b81611597565b926116496040519485611284565b818452602082840101116102825761149f9160208085019101611602565b9190604083820312610282576040519261168084611269565b838151916001600160401b039283811161028257846116a09183016113d5565b8252602081015190838211610282570160408185031261028257604051936116c785611269565b815160ff811681036102825785526020820151938411610282576020936116ee9201611625565b828401520152565b5190811515820361028257565b906020828203126102825781516001600160401b039283821161028257019160409283818403126102825783519361173a85611269565b81518381116102825782019360e0858203126102825781519160e083018381108682111761024557815285518581116102825782611779918801611667565b835260208601518581116102825782611793918801611667565b602084015280860151908301526117ac606086016113ad565b606083015260808501516001600160e01b03198116810361028257608083015260a085015193841161028257846117ec60c0926020966118009801611625565b60a0840152015160c08201528452016116f6565b602082015290565b803560ff81168091036102825782526020810135601e1982360301811215610282570190602082359201916001600160401b038111610282578036038313610282578060609360406020850152816040850152848401376000828201840152601f01601f1916010190565b60408101906001600160401b036012541681526060602091604083820152601354809452019160136000527f66de8ffda797e3de9c05e8fc57b3bf0ec28a930d40b0d285d93c06501cf6a090916000905b8282106118d2575050505090565b83546001600160a01b0316855293840193600193840193909101906118c4565b9060209161190b81518092818552858086019101611602565b601f01601f1916010190565b91908251906040815260808101936001600160401b038351166040830152602080930151946040606084015285518091528360a0840196019060005b818110611987575050509360408381938161149f97980151908281860391015260ff815116845201519382015201906118f2565b82516001600160a01b031688529685019691850191600101611953565b6001600160a01b03811615611a2a5760006119dc916119c16112a5565b60405163aa5106cb60e01b81529384928392600484016114fd565b038173__$a0fe38a9a81205afccc10810b09a4d3f45$__5af4801561028e57611a0d91600091611a11575b50611a3c565b9091565b611a24913d8091833e6102df8183611284565b38611a07565b6040516370e4510960e01b8152600490fd5b611a7a73__$a0fe38a9a81205afccc10810b09a4d3f45$__91604051906390ba52cf60e01b82528180602094859384600484015260248301906114a2565b0381865af490811561028e57600091611b22575b5090611ad1916000526000815280604060002093611aae60048601611336565b906040518080968194630c133d1360e31b835286600484015260248301906114a2565b03915af490811561028e57600091611aeb575b5090501591565b82813d8311611b1b575b611aff8183611284565b81010312611b185750611b11906116f6565b8038611ae4565b80fd5b503d611af5565b908282813d8311611b4a575b611b388183611284565b81010312611b18575051611ad1611a8e565b503d611b2e56fea2646970667358221220780dcc18c735900f0878be6207d0a18dbd8a7526ec970576453a0ff61b618d6264736f6c63430008130033",
        "linkReferences": {
            "src/lib/CrossMsgHelper.sol": {
                "CrossMsgHelper": [
                    {
                        "start": 1273,
                        "length": 20
                    },
                    {
                        "start": 4055,
                        "length": 20
                    }
                ]
            },
            "src/lib/SubnetIDHelper.sol": {
                "SubnetIDHelper": [
                    {
                        "start": 190,
                        "length": 20
                    },
                    {
                        "start": 939,
                        "length": 20
                    },
                    {
                        "start": 3613,
                        "length": 20
                    },
                    {
                        "start": 4109,
                        "length": 20
                    },
                    {
                        "start": 6652,
                        "length": 20
                    },
                    {
                        "start": 6749,
                        "length": 20
                    }
                ]
            }
        }
    },
    "methodIdentifiers": {
        "addStake()": "5a627dbc",
        "fund((uint64,address[]),(uint8,bytes))": "18f44b70",
        "kill()": "41c0e1b5",
        "register(uint256)": "f207564e",
        "release((uint8,bytes),uint256)": "9ba53580",
        "releaseRewardForRelayer(uint256)": "d8e25572",
        "releaseStake(uint256)": "45f54485"
    },
    "id": 45
}