{
  "abi": [
    {
      "inputs": [
        {
          "internalType": "address",
          "name": "_gateway",
          "type": "address"
        },
        {
          "internalType": "address",
          "name": "_getterFacet",
          "type": "address"
        },
        {
          "internalType": "address",
          "name": "_managerFacet",
          "type": "address"
        },
        {
          "internalType": "bytes4[]",
          "name": "_subnetGetterSelectors",
          "type": "bytes4[]"
        },
        {
          "internalType": "bytes4[]",
          "name": "_subnetManagerSelectors",
          "type": "bytes4[]"
        }
      ],
      "stateMutability": "nonpayable",
      "type": "constructor"
    },
    {
      "inputs": [],
      "name": "CannotFindSubnet",
      "type": "error"
    },
    {
      "inputs": [],
      "name": "FacetCannotBeZero",
      "type": "error"
    },
    {
      "inputs": [],
      "name": "GatewayCannotBeZero",
      "type": "error"
    },
    {
      "inputs": [],
      "name": "ReentrancyGuardReentrantCall",
      "type": "error"
    },
    {
      "inputs": [],
      "name": "UnknownSubnet",
      "type": "error"
    },
    {
      "inputs": [],
      "name": "WrongGateway",
      "type": "error"
    },
    {
      "anonymous": false,
      "inputs": [
        {
          "indexed": false,
          "internalType": "address",
          "name": "subnetAddr",
          "type": "address"
        }
      ],
      "name": "SubnetDeployed",
      "type": "event"
    },
    {
      "inputs": [],
      "name": "GATEWAY",
      "outputs": [
        {
          "internalType": "address",
          "name": "",
          "type": "address"
        }
      ],
      "stateMutability": "view",
      "type": "function"
    },
    {
      "inputs": [],
      "name": "SUBNET_GETTER_FACET",
      "outputs": [
        {
          "internalType": "address",
          "name": "",
          "type": "address"
        }
      ],
      "stateMutability": "view",
      "type": "function"
    },
    {
      "inputs": [],
      "name": "SUBNET_MANAGER_FACET",
      "outputs": [
        {
          "internalType": "address",
          "name": "",
          "type": "address"
        }
      ],
      "stateMutability": "view",
      "type": "function"
    },
    {
      "inputs": [
        {
          "internalType": "address",
          "name": "owner",
          "type": "address"
        },
        {
          "internalType": "uint64",
          "name": "nonce",
          "type": "uint64"
        }
      ],
      "name": "getSubnetDeployedByNonce",
      "outputs": [
        {
          "internalType": "address",
          "name": "subnet",
          "type": "address"
        }
      ],
      "stateMutability": "view",
      "type": "function"
    },
    {
      "inputs": [
        {
          "internalType": "address",
          "name": "owner",
          "type": "address"
        }
      ],
      "name": "latestSubnetDeployed",
      "outputs": [
        {
          "internalType": "address",
          "name": "subnet",
          "type": "address"
        }
      ],
      "stateMutability": "view",
      "type": "function"
    },
    {
      "inputs": [
        {
          "components": [
            {
              "components": [
                {
                  "internalType": "uint64",
                  "name": "root",
                  "type": "uint64"
                },
                {
                  "internalType": "address[]",
                  "name": "route",
                  "type": "address[]"
                }
              ],
              "internalType": "struct SubnetID",
              "name": "parentId",
              "type": "tuple"
            },
            {
              "internalType": "address",
              "name": "ipcGatewayAddr",
              "type": "address"
            },
            {
              "internalType": "enum ConsensusType",
              "name": "consensus",
              "type": "uint8"
            },
            {
              "internalType": "uint256",
              "name": "minActivationCollateral",
              "type": "uint256"
            },
            {
              "internalType": "uint64",
              "name": "minValidators",
              "type": "uint64"
            },
            {
              "internalType": "uint64",
              "name": "bottomUpCheckPeriod",
              "type": "uint64"
            },
            {
              "internalType": "uint8",
              "name": "majorityPercentage",
              "type": "uint8"
            },
            {
              "internalType": "uint16",
              "name": "activeValidatorsLimit",
              "type": "uint16"
            },
            {
              "internalType": "uint256",
              "name": "minCrossMsgFee",
              "type": "uint256"
            },
            {
              "internalType": "int8",
              "name": "powerScale",
              "type": "int8"
            }
          ],
          "internalType": "struct SubnetActorDiamond.ConstructorParams",
          "name": "_params",
          "type": "tuple"
        }
      ],
      "name": "newSubnetActor",
      "outputs": [
        {
          "internalType": "address",
          "name": "subnetAddr",
          "type": "address"
        }
      ],
      "stateMutability": "nonpayable",
      "type": "function"
    },
    {
      "inputs": [
        {
          "internalType": "uint256",
          "name": "",
          "type": "uint256"
        }
      ],
      "name": "subnetGetterSelectors",
      "outputs": [
        {
          "internalType": "bytes4",
          "name": "",
          "type": "bytes4"
        }
      ],
      "stateMutability": "view",
      "type": "function"
    },
    {
      "inputs": [
        {
          "internalType": "uint256",
          "name": "",
          "type": "uint256"
        }
      ],
      "name": "subnetManagerSelectors",
      "outputs": [
        {
          "internalType": "bytes4",
          "name": "",
          "type": "bytes4"
        }
      ],
      "stateMutability": "view",
      "type": "function"
    },
    {
      "inputs": [
        {
          "internalType": "address",
          "name": "",
          "type": "address"
        },
        {
          "internalType": "uint64",
          "name": "",
          "type": "uint64"
        }
      ],
      "name": "subnets",
      "outputs": [
        {
          "internalType": "address",
          "name": "",
          "type": "address"
        }
      ],
      "stateMutability": "view",
      "type": "function"
    },
    {
      "inputs": [
        {
          "internalType": "address",
          "name": "",
          "type": "address"
        }
      ],
      "name": "userNonces",
      "outputs": [
        {
          "internalType": "uint64",
          "name": "",
          "type": "uint64"
        }
      ],
      "stateMutability": "view",
      "type": "function"
    }
  ],
  "bytecode": {
    "object": "0x604060e08152346200044b5762002499803803806200001e8162000450565b928339810160a0828203126200044b5762000039826200048c565b916020906200004a8282016200048c565b90620000588682016200048c565b606082015190936001600160401b039290918381116200044b578662000080918301620004a1565b9560808201518481116200044b576200009a9201620004a1565b9360019360009785895560018060a01b03808216156200043a57808316156200042957831615620004185760805260a05260c052845194828611620002de5768010000000000000000908187116200040457829085548887558089106200039b575b50018488528288208760031c90895b82811062000347575060071998808a16900380620002f2575b505050508451928311620002de578211620002ca5780600294855484875580851062000262575b5001848752818720948360031c96885b8881106200020f575084168085039403620001b0575b8851611f7d90816200051c8239608051818181610284015261035b015260a05181818161018a01526103bf015260c0518181816101d101526104b70152f35b909392919087905b838210620001d6575050505050500155388080808080808062000171565b909192938362000201879a83985160e01c9086861b60031b9163ffffffff809116831b921b19161790565b9901959493920190620001b8565b86908a8b5b87600882106200022b575050818a0155016200015b565b90969293916200025490845160e01c9089891b60031b9163ffffffff809116831b921b19161790565b920195019088929162000214565b909150858852828820600780860160031c8201920160031c0190601c85881b1680620002af575b5090858493925b828110620002a05750506200014b565b8a815585945087910162000290565b6000199081830191825491870360031b1c1690553862000289565b634e487b7160e01b86526041600452602486fd5b634e487b7160e01b87526041600452602487fd5b928a938b5b89888383106200031257505050505001553880808062000124565b90919293966200033c90885160e01c908560021b60031b9163ffffffff809116831b921b19161790565b9601929101620002f7565b87908b8c5b88600882106200036357505081840155016200010b565b90969293916200038d90845160e01c908960021b60031b9163ffffffff809116831b921b19161790565b92019501908992916200034c565b9091508589528389206007808a0160031c8201920160031c0190601c8960021b1680620003e9575b5090868593925b828110620003da575050620000fc565b8b8155869450889101620003ca565b6000199081830191825491880360031b1c16905538620003c3565b634e487b7160e01b88526041600452602488fd5b89516307a0435160e51b8152600490fd5b8a516307a0435160e51b8152600490fd5b8a51638b3ddc3360e01b8152600490fd5b600080fd5b6040519190601f01601f191682016001600160401b038111838210176200047657604052565b634e487b7160e01b600052604160045260246000fd5b51906001600160a01b03821682036200044b57565b81601f820112156200044b578051916001600160401b03831162000476578260051b6020928380620004d581850162000450565b8097815201928201019283116200044b578301905b828210620004f9575050505090565b81516001600160e01b0319811681036200044b578152908301908301620004ea56fe60808060405260043610156200001457600080fd5b60003560e01c9081629b57751462000c0b575080631163dca51462000b9d5780631842679a14620002fa5780632f7801f414620002b3578063338c5371146200026c5780633e2b8ad714620002005780636ec26a4914620001b95780637da1d64b14620001725780639836b75f14620000f95763b67c7b4a146200009757600080fd5b34620000f4576040366003190112620000f4576020620000b662000c75565b620000c062000ca1565b60018060a01b03809216600052600383526001600160401b0360406000209116600052825260406000205416604051908152f35b600080fd5b34620000f4576040366003190112620000f4576200011662000c75565b6200012062000ca1565b60018060a01b0380921660005260036020526001600160401b03604060002091166000526020526040600020541680156200016057602090604051908152f35b60405163276e74a760e11b8152600490fd5b34620000f4576000366003190112620000f4576040517f00000000000000000000000000000000000000000000000000000000000000006001600160a01b03168152602090f35b34620000f4576000366003190112620000f4576040517f00000000000000000000000000000000000000000000000000000000000000006001600160a01b03168152602090f35b34620000f4576020366003190112620000f457600435600154811015620000f45760209060016000528060031c7fb10e2d527612073b26eecdfd717e6a320cf44b4afac2b0732d9fcbe2b7fa0cf60154906040519160e063ffffffff811b9260051b161c60e01b168152f35b34620000f4576000366003190112620000f4576040517f00000000000000000000000000000000000000000000000000000000000000006001600160a01b03168152602090f35b34620000f4576020366003190112620000f4576001600160a01b03620002d862000c75565b16600052600460205260206001600160401b0360406000205416604051908152f35b34620000f457600319602036820112620000f4576001600160401b0360043511620000f4576101409060043536030112620000f45760026000541462000b8b576002600055602460043501356001600160a01b03811690819003620000f4577f00000000000000000000000000000000000000000000000000000000000000006001600160a01b03160362000b7957604051620003978162000ccd565b6002815260005b6040811062000b4a5750604051620003b68162000ccd565b60018060a01b037f00000000000000000000000000000000000000000000000000000000000000001681526000602082015260405180816020600154928381520160016000527fb10e2d527612073b26eecdfd717e6a320cf44b4afac2b0732d9fcbe2b7fa0cf6926000905b80600783011062000ad5576200048394549181811062000a40575b81811062000a20575b81811062000a00575b818110620009e0575b818110620009c0575b818110620009a0575b81811062000982575b106200096c575b50038262000ce9565b6040820152620004938262000d0b565b526200049f8162000d0b565b50604051620004ae8162000ccd565b60018060a01b037f00000000000000000000000000000000000000000000000000000000000000001681526000602082015260405180816020600254928381520160026000527f405787fa12a823e0f2b7631cc41b3ba8828b3321ca811111fa75cd3aa3bb5ace926000905b80600783011062000a60576200057394549181811062000a405781811062000a205781811062000a0057818110620009e057818110620009c057818110620009a0578181106200098257106200096c5750038262000ce9565b6040820152620005838262000d2f565b526200058f8162000d2f565b5060405190816112078101106001600160401b0361120784011117620009565761120762000d4183396040611207830181815282519181018290526060600583901b82018101936020019291600091015b828210620008a05785856112078201810360206112078401015260043560040135604219600435360301811215620000f4576004350161014082526001600160401b03620006316004830162000cb8565b16610140830152602481013560221982360301811215620000f457016001600160401b03600482013511620000f4576024810190600481013560051b36038213620000f457604061016084015260048101356101808401526101a08301919060005b600482013581106200087357506001600160a01b039150620006bc905060043560240162000c8c565b166020830152604460043501356001811015620000f45760408301526064600435013560608301526001600160401b03620006fc60846004350162000cb8565b1660808301526001600160401b036200071a60a46004350162000cb8565b1660a083015260c4600435013560ff8116809103620000f45760c083015260e4600435013561ffff8116809103620000f45760e0830152610104600435013561010083015261012460043501358060000b809103620000f4576101208493015203906000f08015620008675760018060a01b0316336000526003602052604060002060046020526001600160401b03604060002054166000526020526040600020816bffffffffffffffffffffffff60a01b8254161790553360005260046020526040600020908154916001600160401b038316926001600160401b03841462000851576001600160401b0360016020950116906001600160401b0319161790557f0431ea4d93af299b92f2c606ddcaf4b31cb0013c5ed1fdea837b8a912347c96582604051838152a16001600055604051908152f35b634e487b7160e01b600052601160045260246000fd5b6040513d6000823e3d90fd5b9091926001602080600493838060a01b036200088f8962000c8c565b168152019501939201905062000693565b61120786018503605f19018152835180516001600160a01b031686526020810151949593949293919290600382101562000940576040916020840152015190606060408201526020608060608301928451809452019201906000905b8082106200091c57505050602080600192960192019201909291620005e0565b82516001600160e01b031916845260209384019390920191600190910190620008fc565b634e487b7160e01b600052602160045260246000fd5b634e487b7160e01b600052604160045260246000fd5b6001600160e01b0319168152602001866200047a565b602083811b6001600160e01b03191685529093019260010162000473565b604083901b6001600160e01b03191684526020909301926001016200046a565b606083901b6001600160e01b031916845260209093019260010162000461565b608083901b6001600160e01b031916845260209093019260010162000458565b60a083901b6001600160e01b03191684526020909301926001016200044f565b60c083901b6001600160e01b031916845260209093019260010162000446565b60e083901b6001600160e01b03191684526020909301926001016200043d565b916008919350610100600191865463ffffffff60e01b90818160e01b16835260c08282821b16602085015260a08383821b1660408601526080848460608282851b16818a01521b1690860152838360401b1690850152828260201b16908401521660e08201520194019201849293916200051a565b916008919350610100600191865463ffffffff60e01b90818160e01b16835260c08282821b16602085015260a08383821b1660408601526080848460608282851b16818a01521b1690860152838360401b1690850152828260201b16908401521660e082015201940192018492939162000422565b60209060405162000b5b8162000ccd565b6000815260008382015260606040820152828285010152016200039e565b604051633bed049960e01b8152600490fd5b604051633ee5aeb560e01b8152600490fd5b34620000f4576020366003190112620000f4576001600160a01b038062000bc362000c75565b1660005260046020526001600160401b036000198160406000205416011660036020526040600020906000526020526040600020541680156200016057602090604051908152f35b34620000f4576020366003190112620000f45760043590600254821015620000f457602091600260005263ffffffff60e01b9060e08160031c7f405787fa12a823e0f2b7631cc41b3ba8828b3321ca811111fa75cd3aa3bb5ace01549160051b161c60e01b168152f35b600435906001600160a01b0382168203620000f457565b35906001600160a01b0382168203620000f457565b602435906001600160401b0382168203620000f457565b35906001600160401b0382168203620000f457565b606081019081106001600160401b038211176200095657604052565b90601f801991011681019081106001600160401b038211176200095657604052565b80511562000d195760200190565b634e487b7160e01b600052603260045260246000fd5b80516001101562000d19576040019056fe6080806040523461053c57611207803803809161001c8285610e48565b833981019060408183031261053c5780516001600160401b03811161053c57810182601f8201121561053c57805161005381610e6b565b916100616040519384610e48565b818352602083016020819360051b8301019186831161053c5760208101915b838310610d09575050505060208301516001600160401b03811161053c57610140948582860182031261053c576040519586016001600160401b0381118782101761063a5760405284820151906001600160401b03821161053c576100e89183870101610eaa565b85526100f8602082860101610e82565b9081602087015260408186010151600181101561053c57604087015260608186010151606087015261012e608082870101610e96565b608087015261014160a082870101610e96565b60a087015260c0818601015160ff8116810361053c5760c087015260e081860101519061ffff8216820361053c576101209160e088015261010095868282010151878901520101518060000b810361053c576101208601526001600160a01b031615610cf75760a08401516001600160401b031615610ce557606084015115610cd35760ff60c08501511660338110908115610cc8575b50610cb657601261012085015160000b13610ca4577f806e0cbb9fce296bbc336a48f42bf1dbc69722d18d90d6fe705b7582c2bb4bd580546001600160a01b031916331790556040516001600160401b03602082019081119082111761063a576020810160405260008152825160005b8181106106a55750506040519260608401906060855251809152608084019060808160051b86010193916000905b8282106106505788887f8faa70878671ccd212d20771b795c50af8fd3ff6cf27f4bde57e5d4de0aeb67389806102bb8b8b60006020850152838203604085015261101d565b0390a181518051600b80546001600160401b0319166001600160401b0392831617905560209190910151805191821161063a5768010000000000000000821161063a57600c5482600c558083106105f3575b50602001600c600052602060002060005b8381106105d657858560018060a01b0360208301511660095490604084015160018110156105c05760ff8019600d5416911617600d556060840151600655608084015160075460018060401b0360a0870151169168010000000000000000600160801b039060401b169060018060801b031916171760075560ff60a01b60c085015160a01b169160018060a81b031916171760095561012082015160ff19601b54169060ff1617601b55810151600a556040516103da81610e12565b600b546001600160401b03168152604051600c805480835260009182527fdf6966c971051c3d54ec59162606531493a51404a002842f56009d7e5cf4a8c791839160208301915b81811061059e57505061043692500382610e48565b6020820152610478600073__$a0fe38a9a81205afccc10810b09a4d3f45$__926040518093819263aa5106cb60e01b8352604060048401526044830190610f4d565b3060248301520381855af490811561054957600091610555575b506020906104bc9260405180809581946390ba52cf60e01b83528660048401526024830190610f4d565b03915af490811561054957600091610510575b61ffff60e0848460085501511661ffff19600e541617600e556801000000000000000160018060801b0319601754161760175560405160eb90816110dc8239f35b90506020813d602011610541575b8161052b60209383610e48565b8101031261053c575161ffff6104cf565b600080fd5b3d915061051e565b6040513d6000823e3d90fd5b90503d806000833e6105678183610e48565b81019160208284031261053c578151916001600160401b03831161053c576104bc936020936105969201610eaa565b915091610492565b84546001600160a01b0316835260019485019486945060209093019201610421565b634e487b7160e01b600052602160045260246000fd5b82516001600160a01b03168183015560209092019160010161031e565b600c6000527fdf6966c971051c3d54ec59162606531493a51404a002842f56009d7e5cf4a8c7908382015b818301811061062e57505061030d565b6000815560010161061e565b634e487b7160e01b600052604160045260246000fd5b90919294602080610697600193607f198b8203018652606060408b51878060a01b0381511684526106878682015187860190610fd2565b0151918160408201520190610fdf565b970192019201909291610276565b60406106b18287610fa8565b5101516001600160a01b036106c68388610fa8565b51511690805115610c8b5760206106dd8489610fa8565b51015160038110156105c057806108eb575081156108c25761ffff6000805160206111c783398151915254169161075360405161071981610e2d565b602181527f6469616d6f6e644375743a2041646420666163657420686173206e6f20636f646020820152606560f81b60408201528261109c565b8151916000935b8385106107705750505050506001905b01610248565b6001600160e01b03196107838684610fa8565b511660008181526000805160206111e783398151915260205260409020546001600160a01b03166108aa576108196040516107bd81610e12565b85815261ffff8416602080830191825260008581526000805160206111e7833981519152909152604090209151825491516001600160b01b03199092166001600160a01b03919091161760a09190911b61ffff60a01b16179055565b6000805160206111c783398151915254906801000000000000000082101561063a5761085b82600161087894016000805160206111c78339815191525561105d565b90919063ffffffff83549160031b9260e01c831b921b1916179055565b61ffff8082161461089457600161ffff8192160194019361075a565b634e487b7160e01b600052601160045260246000fd5b6024906040519063ebbf5d0760e01b82526004820152fd5b6040516302b8da0760e21b8152602060048201529081906108e7906024830190610fdf565b0390fd5b6001819a96929894999597939a14600014610a6657508815610a445761095760405161091681610e2d565b602881527f4c69624469616d6f6e644375743a205265706c61636520666163657420686173602082015267206e6f20636f646560c01b60408201528a61109c565b60005b8751811015610a33576001600160e01b0319610976828a610fa8565b511660008181526000805160206111e783398151915260205260409020546001600160a01b0316308114610a1a578b8114610a0157156109e95760009081526000805160206111e78339815191526020526040902080546001600160a01b0319168b1790556109e49061108d565b61095a565b60249060405190637479f93960e01b82526004820152fd5b604051631ac6ce8d60e11b815260048101839052602490fd5b604051632901806d60e11b815260048101839052602490fd5b50939750939195600191955061076a565b60405163cd98a96f60e01b815260206004820152806108e7602482018a610fdf565b60028103610c6b57506000805160206111c7833981519152549880610c53575060005b8751811015610a33576001600160e01b0319610aa5828a610fa8565b511690816000526000805160206111e783398151915260205260406000209a6040519b610ad18d610e12565b546001600160a01b038116808e5260a09190911c61ffff1660208e015215610c3a578b516001600160a01b03163014610c2157801561089457600019018b8161ffff6020829f01511603610ba6575b50506000805160206111c783398151915254918215610b9057610b8b9260001901610b4a8161105d565b63ffffffff82549160031b1b191690556000805160206111c7833981519152556000526000805160206111e78339815191526020526000604081205561108d565b610a89565b634e487b7160e01b600052603160045260246000fd5b61ffff6020610bb7610c1a9461105d565b90549060031b1c60e01b92610bd48461085b85858501511661105d565b01516001600160e01b031990921660009081526000805160206111e783398151915260205260409020805461ffff60a01b19169190921660a01b61ffff60a01b16179055565b8a38610b20565b604051630df5fd6160e31b815260048101849052602490fd5b604051637a08a22d60e01b815260048101849052602490fd5b6024906040519063d091bc8160e01b82526004820152fd5b604051633ff4d20f60e11b8152602491610c89906004830190610fd2565bfd5b60405163e767f91f60e01b815260048101839052602490fd5b6040516378b177e560e11b8152600490fd5b6040516375c3b42760e01b8152600490fd5b6064915011386101d8565b6040516368f7a67560e11b8152600490fd5b60405163312f8e0560e01b8152600490fd5b604051638b3ddc3360e01b8152600490fd5b82516001600160401b03811161053c57820160609081601f19828c03011261053c57604051918083016001600160401b03811184821017610dfd57604052610d5360208301610e82565b83526040820151600381101561053c576020840152810151906001600160401b03821161053c570189603f8201121561053c576020810151610d9481610e6b565b91610da26040519384610e48565b8183526040602084019260051b820101908c821161053c57604001915b818310610ddc575050506040820152815260209283019201610080565b82516001600160e01b03198116810361053c57815260209283019201610dbf565b60246000634e487b7160e01b81526041600452fd5b604081019081106001600160401b0382111761063a57604052565b606081019081106001600160401b0382111761063a57604052565b601f909101601f19168101906001600160401b0382119082101761063a57604052565b6001600160401b03811161063a5760051b60200190565b51906001600160a01b038216820361053c57565b51906001600160401b038216820361053c57565b919060408382031261053c5760405192610ec384610e12565b83610ecd82610e96565b815260208281015190926001600160401b03821161053c57019280601f8501121561053c578351610efd81610e6b565b94610f0b6040519687610e48565b818652848087019260051b82010192831161053c5784809101915b838310610f3557505050500152565b8190610f4084610e82565b8152019101908490610f26565b80516001600160401b03168252602090810151604082840181905281519084018190526060909301929082019160005b828110610f8b575050505090565b83516001600160a01b031685529381019392810192600101610f7d565b8051821015610fbc5760209160051b010190565b634e487b7160e01b600052603260045260246000fd5b9060038210156105c05752565b90815180825260208080930193019160005b828110610fff575050505090565b83516001600160e01b03191685529381019392810192600101610ff1565b919082519283825260005b848110611049575050826000602080949584010152601f8019910116010190565b602081830181015184830182015201611028565b906000805160206111c78339815191528054831015610fbc57600052601c60206000208360031c019260021b1690565b60001981146108945760010190565b803b156110a7575050565b6040805163919834b960e01b81526001600160a01b03909216600483015260248201529081906108e790604483019061101d56fe60806040523615609157600080356001600160e01b0319168082527f806e0cbb9fce296bbc336a48f42bf1dbc69722d18d90d6fe705b7582c2bb4bd260205260408220546001600160a01b0316908115606f5750818091368280378136915af43d82803e15606b573d90f35b3d90fd5b630a82dd7360e31b6080526001600160e01b031916608452607f1960a4016080fd5b6009546001600160a01b0316330360a457005b63e7e601db60e01b60805260046080fdfea26469706673582212201398304c349521c5a7aa6696d086970834243077a13c6b9f218040b3cd3041d764736f6c63430008130033806e0cbb9fce296bbc336a48f42bf1dbc69722d18d90d6fe705b7582c2bb4bd3806e0cbb9fce296bbc336a48f42bf1dbc69722d18d90d6fe705b7582c2bb4bd2a26469706673582212206694ec66616cc248dfd73d3c914e7308077a5eb9b46510eb37cedf174535b60764736f6c63430008130033",
    "linkReferences": {
      "src/lib/SubnetIDHelper.sol": {
        "SubnetIDHelper": [
          {
            "start": 5791,
            "length": 20
          }
        ]
      }
    }
  },
  "methodIdentifiers": {
    "GATEWAY()": "338c5371",
    "SUBNET_GETTER_FACET()": "7da1d64b",
    "SUBNET_MANAGER_FACET()": "6ec26a49",
    "getSubnetDeployedByNonce(address,uint64)": "9836b75f",
    "latestSubnetDeployed(address)": "1163dca5",
    "newSubnetActor(((uint64,address[]),address,uint8,uint256,uint64,uint64,uint8,uint16,uint256,int8))": "1842679a",
    "subnetGetterSelectors(uint256)": "3e2b8ad7",
    "subnetManagerSelectors(uint256)": "009b5775",
    "subnets(address,uint64)": "b67c7b4a",
    "userNonces(address)": "2f7801f4"
  },
  "id": 37
}