{
  "abi": [
    {
      "inputs": [],
      "name": "activeValidatorsLimit",
      "outputs": [
        {
          "internalType": "uint16",
          "name": "",
          "type": "uint16"
        }
      ],
      "stateMutability": "view",
      "type": "function"
    },
    {
      "inputs": [],
      "name": "bootstrapped",
      "outputs": [
        {
          "internalType": "bool",
          "name": "",
          "type": "bool"
        }
      ],
      "stateMutability": "view",
      "type": "function"
    },
    {
      "inputs": [],
      "name": "bottomUpCheckPeriod",
      "outputs": [
        {
          "internalType": "uint64",
          "name": "",
          "type": "uint64"
        }
      ],
      "stateMutability": "view",
      "type": "function"
    },
    {
      "inputs": [
        {
          "internalType": "uint64",
          "name": "epoch",
          "type": "uint64"
        }
      ],
      "name": "bottomUpCheckpointAtEpoch",
      "outputs": [
        {
          "internalType": "bool",
          "name": "exists",
          "type": "bool"
        },
        {
          "components": [
            {
              "components": [
                {
                  "internalType": "uint64",
                  "name": "root",
                  "type": "uint64"
                },
                {
                  "internalType": "address[]",
                  "name": "route",
                  "type": "address[]"
                }
              ],
              "internalType": "struct SubnetID",
              "name": "subnetID",
              "type": "tuple"
            },
            {
              "internalType": "uint64",
              "name": "blockHeight",
              "type": "uint64"
            },
            {
              "internalType": "bytes32",
              "name": "blockHash",
              "type": "bytes32"
            },
            {
              "internalType": "uint64",
              "name": "nextConfigurationNumber",
              "type": "uint64"
            },
            {
              "internalType": "bytes32",
              "name": "crossMessagesHash",
              "type": "bytes32"
            }
          ],
          "internalType": "struct BottomUpCheckpoint",
          "name": "checkpoint",
          "type": "tuple"
        }
      ],
      "stateMutability": "view",
      "type": "function"
    },
    {
      "inputs": [
        {
          "internalType": "uint64",
          "name": "epoch",
          "type": "uint64"
        }
      ],
      "name": "bottomUpCheckpointHashAtEpoch",
      "outputs": [
        {
          "internalType": "bool",
          "name": "",
          "type": "bool"
        },
        {
          "internalType": "bytes32",
          "name": "",
          "type": "bytes32"
        }
      ],
      "stateMutability": "view",
      "type": "function"
    },
    {
      "inputs": [],
      "name": "consensus",
      "outputs": [
        {
          "internalType": "enum ConsensusType",
          "name": "",
          "type": "uint8"
        }
      ],
      "stateMutability": "view",
      "type": "function"
    },
    {
      "inputs": [
        {
          "components": [
            {
              "components": [
                {
                  "components": [
                    {
                      "components": [
                        {
                          "internalType": "uint64",
                          "name": "root",
                          "type": "uint64"
                        },
                        {
                          "internalType": "address[]",
                          "name": "route",
                          "type": "address[]"
                        }
                      ],
                      "internalType": "struct SubnetID",
                      "name": "subnetId",
                      "type": "tuple"
                    },
                    {
                      "components": [
                        {
                          "internalType": "uint8",
                          "name": "addrType",
                          "type": "uint8"
                        },
                        {
                          "internalType": "bytes",
                          "name": "payload",
                          "type": "bytes"
                        }
                      ],
                      "internalType": "struct FvmAddress",
                      "name": "rawAddress",
                      "type": "tuple"
                    }
                  ],
                  "internalType": "struct IPCAddress",
                  "name": "from",
                  "type": "tuple"
                },
                {
                  "components": [
                    {
                      "components": [
                        {
                          "internalType": "uint64",
                          "name": "root",
                          "type": "uint64"
                        },
                        {
                          "internalType": "address[]",
                          "name": "route",
                          "type": "address[]"
                        }
                      ],
                      "internalType": "struct SubnetID",
                      "name": "subnetId",
                      "type": "tuple"
                    },
                    {
                      "components": [
                        {
                          "internalType": "uint8",
                          "name": "addrType",
                          "type": "uint8"
                        },
                        {
                          "internalType": "bytes",
                          "name": "payload",
                          "type": "bytes"
                        }
                      ],
                      "internalType": "struct FvmAddress",
                      "name": "rawAddress",
                      "type": "tuple"
                    }
                  ],
                  "internalType": "struct IPCAddress",
                  "name": "to",
                  "type": "tuple"
                },
                {
                  "internalType": "uint256",
                  "name": "value",
                  "type": "uint256"
                },
                {
                  "internalType": "uint64",
                  "name": "nonce",
                  "type": "uint64"
                },
                {
                  "internalType": "bytes4",
                  "name": "method",
                  "type": "bytes4"
                },
                {
                  "internalType": "bytes",
                  "name": "params",
                  "type": "bytes"
                },
                {
                  "internalType": "uint256",
                  "name": "fee",
                  "type": "uint256"
                }
              ],
              "internalType": "struct StorableMsg",
              "name": "message",
              "type": "tuple"
            },
            {
              "internalType": "bool",
              "name": "wrapped",
              "type": "bool"
            }
          ],
          "internalType": "struct CrossMsg[]",
          "name": "messages",
          "type": "tuple[]"
        }
      ],
      "name": "crossMsgsHash",
      "outputs": [
        {
          "internalType": "bytes32",
          "name": "",
          "type": "bytes32"
        }
      ],
      "stateMutability": "pure",
      "type": "function"
    },
    {
      "inputs": [],
      "name": "genesisBalances",
      "outputs": [
        {
          "internalType": "address[]",
          "name": "",
          "type": "address[]"
        },
        {
          "internalType": "uint256[]",
          "name": "",
          "type": "uint256[]"
        }
      ],
      "stateMutability": "view",
      "type": "function"
    },
    {
      "inputs": [],
      "name": "genesisCircSupply",
      "outputs": [
        {
          "internalType": "uint256",
          "name": "",
          "type": "uint256"
        }
      ],
      "stateMutability": "view",
      "type": "function"
    },
    {
      "inputs": [],
      "name": "genesisValidators",
      "outputs": [
        {
          "components": [
            {
              "internalType": "uint256",
              "name": "weight",
              "type": "uint256"
            },
            {
              "internalType": "address",
              "name": "addr",
              "type": "address"
            },
            {
              "internalType": "bytes",
              "name": "metadata",
              "type": "bytes"
            }
          ],
          "internalType": "struct Validator[]",
          "name": "",
          "type": "tuple[]"
        }
      ],
      "stateMutability": "view",
      "type": "function"
    },
    {
      "inputs": [],
      "name": "getBootstrapNodes",
      "outputs": [
        {
          "internalType": "string[]",
          "name": "",
          "type": "string[]"
        }
      ],
      "stateMutability": "view",
      "type": "function"
    },
    {
      "inputs": [],
      "name": "getConfigurationNumbers",
      "outputs": [
        {
          "internalType": "uint64",
          "name": "",
          "type": "uint64"
        },
        {
          "internalType": "uint64",
          "name": "",
          "type": "uint64"
        }
      ],
      "stateMutability": "view",
      "type": "function"
    },
    {
      "inputs": [],
      "name": "getParent",
      "outputs": [
        {
          "components": [
            {
              "internalType": "uint64",
              "name": "root",
              "type": "uint64"
            },
            {
              "internalType": "address[]",
              "name": "route",
              "type": "address[]"
            }
          ],
          "internalType": "struct SubnetID",
          "name": "",
          "type": "tuple"
        }
      ],
      "stateMutability": "view",
      "type": "function"
    },
    {
      "inputs": [
        {
          "internalType": "address",
          "name": "relayer",
          "type": "address"
        }
      ],
      "name": "getRelayerReward",
      "outputs": [
        {
          "internalType": "uint256",
          "name": "",
          "type": "uint256"
        }
      ],
      "stateMutability": "view",
      "type": "function"
    },
    {
      "inputs": [
        {
          "internalType": "address",
          "name": "validatorAddress",
          "type": "address"
        }
      ],
      "name": "getValidator",
      "outputs": [
        {
          "components": [
            {
              "internalType": "uint256",
              "name": "confirmedCollateral",
              "type": "uint256"
            },
            {
              "internalType": "uint256",
              "name": "totalCollateral",
              "type": "uint256"
            },
            {
              "internalType": "bytes",
              "name": "metadata",
              "type": "bytes"
            }
          ],
          "internalType": "struct ValidatorInfo",
          "name": "validator",
          "type": "tuple"
        }
      ],
      "stateMutability": "view",
      "type": "function"
    },
    {
      "inputs": [
        {
          "internalType": "address",
          "name": "validator",
          "type": "address"
        }
      ],
      "name": "hasSubmittedInLastBottomUpCheckpointHeight",
      "outputs": [
        {
          "internalType": "bool",
          "name": "",
          "type": "bool"
        }
      ],
      "stateMutability": "view",
      "type": "function"
    },
    {
      "inputs": [],
      "name": "ipcGatewayAddr",
      "outputs": [
        {
          "internalType": "address",
          "name": "",
          "type": "address"
        }
      ],
      "stateMutability": "view",
      "type": "function"
    },
    {
      "inputs": [
        {
          "internalType": "address",
          "name": "validator",
          "type": "address"
        }
      ],
      "name": "isActiveValidator",
      "outputs": [
        {
          "internalType": "bool",
          "name": "",
          "type": "bool"
        }
      ],
      "stateMutability": "view",
      "type": "function"
    },
    {
      "inputs": [
        {
          "internalType": "address",
          "name": "validator",
          "type": "address"
        }
      ],
      "name": "isWaitingValidator",
      "outputs": [
        {
          "internalType": "bool",
          "name": "",
          "type": "bool"
        }
      ],
      "stateMutability": "view",
      "type": "function"
    },
    {
      "inputs": [],
      "name": "killed",
      "outputs": [
        {
          "internalType": "bool",
          "name": "",
          "type": "bool"
        }
      ],
      "stateMutability": "view",
      "type": "function"
    },
    {
      "inputs": [],
      "name": "lastBottomUpCheckpointHeight",
      "outputs": [
        {
          "internalType": "uint64",
          "name": "",
          "type": "uint64"
        }
      ],
      "stateMutability": "view",
      "type": "function"
    },
    {
      "inputs": [],
      "name": "majorityPercentage",
      "outputs": [
        {
          "internalType": "uint8",
          "name": "",
          "type": "uint8"
        }
      ],
      "stateMutability": "view",
      "type": "function"
    },
    {
      "inputs": [],
      "name": "minActivationCollateral",
      "outputs": [
        {
          "internalType": "uint256",
          "name": "",
          "type": "uint256"
        }
      ],
      "stateMutability": "view",
      "type": "function"
    },
    {
      "inputs": [],
      "name": "minCrossMsgFee",
      "outputs": [
        {
          "internalType": "uint256",
          "name": "",
          "type": "uint256"
        }
      ],
      "stateMutability": "view",
      "type": "function"
    },
    {
      "inputs": [],
      "name": "minValidators",
      "outputs": [
        {
          "internalType": "uint64",
          "name": "",
          "type": "uint64"
        }
      ],
      "stateMutability": "view",
      "type": "function"
    },
    {
      "inputs": [],
      "name": "powerScale",
      "outputs": [
        {
          "internalType": "int8",
          "name": "",
          "type": "int8"
        }
      ],
      "stateMutability": "view",
      "type": "function"
    }
  ],
  "bytecode": {
    "object": "0x60808060405234610016576112e0908161001c8239f35b600080fdfe60806040908082526004908136101561001757600080fd5b600091823560e01c91826306c4685314610bbb57508163133f74ea14610ac95781631904bb2e14610a1d5781631f3a0e41146109f65781632bc31eb3146109a85781633354c3e11461098557816335142c8c1461095e57816338a210b31461092d5781633da332411461077657816340550a1c14610737578163599c7bd1146107125781636704287c146106f35781636cb2ecee1461067557816372d0a0e01461064d57816380f76021146105935781638ef3f76114610554578163903e69301461042657508063948628a9146104075780639754b29e146103935780639e33bd0214610374578063ad81e4d614610354578063b2bd295e1461031c578063c5ab2241146102f3578063cfca2824146102ca578063d081be03146102875763d92e8f121461014457600080fd5b3461028457806003193601126102845790600180549261016384610d6d565b61016f84519182610d32565b848152828252602080820195837fb10e2d527612073b26eecdfd717e6a320cf44b4afac2b0732d9fcbe2b7fa0cf6885b83831061022557505050508451948186019282875251809352808601818460051b8801019794915b8483106101d45787890388f35b9091929394958480610213839b603f198c8203018752858b518051835260018060a01b0385820151168584015201519060609081888201520190610c25565b9a9801969594919091019201906101c7565b96600385829b998b9798999b5161023b81610ccb565b85548152848601546001600160a01b031683820152885161026a816102638160028b01610d84565b0382610d32565b89820152815201920192019190989698979594939761019f565b80fd5b5090346102c65760203660031901126102c65760209161ffff9082906001600160a01b036102b3610c0f565b1681526015855220541615159051908152f35b5080fd5b5090346102c657816003193601126102c65760095490516001600160a01b039091168152602090f35b5090346102c657816003193601126102c6576007548151911c6001600160401b03168152602090f35b5090346102c65760203660031901126102c65760209181906001600160a01b03610344610c0f565b168152601c845220549051908152f35b5090346102c657816003193601126102c657601b549051910b8152602090f35b5090346102c657816003193601126102c6576020906006549051908152f35b50346102845780600319360112610284576103ac611044565b825191602080840190808552835180925280868601968360051b870101940192955b8287106103db5785850386f35b9091929382806103f7600193603f198a82030186528851610c25565b96019201960195929190926103ce565b5090346102c657816003193601126102c6576020906002549051908152f35b9050346102c657816003193601126102c657919082549061044682610d6d565b9361045384519586610d32565b828552601f19928361046482610d6d565b0190602091368389013761047781610d6d565b9261048487519485610d32565b81845261049082610d6d565b8484019601368737845b8281106104ef57505050806104b88651978789988952880190610c65565b928684038288015251928381520193925b8281106104d857505050500390f35b8351855286955093810193928101926001016104c9565b60019082879698999a959752818060a01b03817f8a35acfbc15ff81a39ae7d344fd709f28e8600b4aa8c65c6b64bfe7fe36bd19b015416806105318388610e41565b5286526003875289862054610546828a610e41565b52019796959394929761049a565b8284346102c657816003193601126102c65760ff600d5416905191600182101561058057602083838152f35b634e487b7160e01b815260218452602490fd5b5050346102845780600319360112610284576105ad610d53565b508151916105ba83610cfc565b600b546001600160401b031683528051600c8054808352908452602093848301917fdf6966c971051c3d54ec59162606531493a51404a002842f56009d7e5cf4a8c7915b8682821061063057889061062c8888610619818a0382610d32565b8385015251928284938452830190610ca2565b0390f35b83546001600160a01b0316855290930192600192830192016105fe565b8284346102c657816003193601126102c6576020906001600160401b03600554169051908152f35b5050346102845760203660031901126102845750610699610694610be0565b610ec6565b9160808151938493151584528260208501526106c0815160a08587015260e0860190610ca2565b926001600160401b03908160208401511660608701528201518386015260608201511660a0850152015160c08301520390f35b8284346102c657816003193601126102c657602090600a549051908152f35b8284346102c657816003193601126102c65760209060ff60095460a01c169051908152f35b8284346102c65760203660031901126102c65760209161ffff9082906001600160a01b03610763610c0f565b1681526012855220541615159051908152f35b83833461028457602092836003193601126102c6578035906001600160401b03908183116109295736602384011215610929578201358181116109295760248301908060051b936024853692010111610925579093855193849288840196818986018b8a525260608086019386010193819681925b8484106108155750505050505061080b925003601f198101835282610d32565b5190209051908152f35b9193959092949650605f19898203018752610830888361115a565b803560de198236030181121561091d579061088a8e6108798f95948461087091019680875260e0610861898061115a565b918801526101208701906111c0565b9186018661115a565b848203603f190160608601526111c0565b8d60809085013581850152866108a260608701610bfb565b1660a08501528401359063ffffffff60e01b821680920361092157908f92916108eb9060c092838701526108d960a088018861116e565b878303603f190160e08901529061119f565b94013561010084015201359081151580920361091d576001928e928380930152990197019401918896979593916107eb565b8580fd5b8780fd5b8480fd5b8380fd5b505034610284578060031936011261028457506017548151906001600160401b03908181168352831c166020820152f35b8284346102c657816003193601126102c65760209060ff600d5460081c1690519015158152f35b8284346102c657816003193601126102c65760209061ffff600e54169051908152f35b8284346102c65760203660031901126102c6578060209260016109c9610c0f565b6001600160401b03600554168352601d865283832090828060a01b03168352018452205415159051908152f35b8284346102c657816003193601126102c65760209060ff600d5460101c1690519015158152f35b8284346102c657602091826003193601126102845760028261062c92610a41610c0f565b6060838051610a4f81610ccb565b84815289810185905201526001600160a01b03168152601086522083519390610a7785610ccb565b80548552610aa0600182015491878701928352610a9984518096819301610d84565b0384610d32565b818501928352815195869581875251908601525190840152516060808401526080830190610c25565b91905034610284576020806003193601126102c6578080610aeb610694610be0565b929095875193849283926339aa47fb60e01b84528301526080610b1a825160a0602486015260c4850190610e6b565b916001600160401b0380878301511660448601528b82015160648601526060820151166084850152015160a4830152038173__$1cd67d4dc9e627f0bec7928aa480e7d951$__5af4928315610bb0578093610b7e575b505083519215158352820152f35b909180935082813d8311610ba9575b610b978183610d32565b81010312610284575051903880610b70565b503d610b8d565b8551903d90823e3d90fd5b8390346102c657816003193601126102c6576020906001600160401b03600754168152f35b600435906001600160401b0382168203610bf657565b600080fd5b35906001600160401b0382168203610bf657565b600435906001600160a01b0382168203610bf657565b919082519283825260005b848110610c51575050826000602080949584010152601f8019910116010190565b602081830181015184830182015201610c30565b90815180825260208080930193019160005b828110610c85575050505090565b83516001600160a01b031685529381019392810192600101610c77565b9060406020610cc8936001600160401b0381511684520151918160208201520190610c65565b90565b606081019081106001600160401b03821117610ce657604052565b634e487b7160e01b600052604160045260246000fd5b604081019081106001600160401b03821117610ce657604052565b60a081019081106001600160401b03821117610ce657604052565b90601f801991011681019081106001600160401b03821117610ce657604052565b60405190610d6082610cfc565b6060602083600081520152565b6001600160401b038111610ce65760051b60200190565b80546000939260018083169383821c938515610e37575b6020958686108114610e2157858552908115610e025750600114610dc1575b5050505050565b90939495506000929192528360002092846000945b838610610dee57505050500101903880808080610dba565b805485870183015294019385908201610dd6565b60ff19168685015250505090151560051b010191503880808080610dba565b634e487b7160e01b600052602260045260246000fd5b93607f1693610d9b565b8051821015610e555760209160051b010190565b634e487b7160e01b600052603260045260246000fd5b60609060408301906001600160401b03815116845260209283809201519460408382015285518094520193019160005b828110610ea9575050505090565b83516001600160a01b031685529381019392810192600101610e9b565b9060408051610ed481610d17565b610edc610d53565b81526000908160806020928284820152828682015282606082015201526001600160401b03809516825281815282822094835195610f1987610d17565b845191610f2583610cfc565b808254168352600180830187518092878354928381520192895287892091895b81811061102857505050509285949282610f67600594610fb499970382610d32565b85850152838b5280600283015416858c01526003820154898c015260048201541660608b015201546080890152855180948192630c133d1360e31b83528460048401526024830190610e6b565b038173__$a0fe38a9a81205afccc10810b09a4d3f45$__5af493841561101f57508293610fe4575b505050159190565b9080929350813d8311611018575b610ffc8183610d32565b810103126102c657519081151582036102845750388080610fdc565b503d610ff2565b513d84823e3d90fd5b83546001600160a01b0316855293890193928201928201610f45565b601f5461105081610d6d565b90604061105f81519384610d32565b818352601f1961106e83610d6d565b0160005b8181106111495750508115611144578051808382526020809201601f600052817fa03837a25210ee280c2113ff4b77ca23440b19d4866cca721c801278fd08d8079160005b8588821061112e5750506110cd92500382610d32565b60005b8481106110df57505050505090565b6001906001600160a01b036110f48285610e41565b5116600052601e845261026361111286600020875192838092610d84565b61111c8289610e41565b526111278188610e41565b50016110d0565b84548352600194850194869450920191016110b7565b505090565b806060602080938801015201611072565b9035603e1982360301811215610bf6570190565b9035601e1982360301811215610bf65701602081359101916001600160401b038211610bf6578136038313610bf657565b908060209392818452848401376000828201840152601f01601f1916010190565b906111cb828061115a565b906040815260808101926001600160401b0393846111e885610bfb565b16604084015260209384810135601e1982360301811215610bf65701908482359201958211610bf6578160051b36038613610bf6578190604060608601525260a08301949060005b81811061128257505050808361124792019061115a565b908281850391015280359060ff8216809203610bf65783611275604093928493610cc897528581019061116e565b939094820152019161119f565b90919586359060018060a01b038216809203610bf6579081528501958501919060010161123056fea264697066735822122087aa927f52232e97a107f5bd0169619f9b5507a966d695fff3c48b4ef4146e2664736f6c63430008130033",
    "linkReferences": {
      "src/lib/CheckpointHelper.sol": {
        "CheckpointHelper": [
          {
            "start": 2921,
            "length": 20
          }
        ]
      },
      "src/lib/SubnetIDHelper.sol": {
        "SubnetIDHelper": [
          {
            "start": 4052,
            "length": 20
          }
        ]
      }
    }
  },
  "methodIdentifiers": {
    "activeValidatorsLimit()": "3354c3e1",
    "bootstrapped()": "35142c8c",
    "bottomUpCheckPeriod()": "06c46853",
    "bottomUpCheckpointAtEpoch(uint64)": "6cb2ecee",
    "bottomUpCheckpointHashAtEpoch(uint64)": "133f74ea",
    "consensus()": "8ef3f761",
    "crossMsgsHash(((((uint64,address[]),(uint8,bytes)),((uint64,address[]),(uint8,bytes)),uint256,uint64,bytes4,bytes,uint256),bool)[])": "3da33241",
    "genesisBalances()": "903e6930",
    "genesisCircSupply()": "948628a9",
    "genesisValidators()": "d92e8f12",
    "getBootstrapNodes()": "9754b29e",
    "getConfigurationNumbers()": "38a210b3",
    "getParent()": "80f76021",
    "getRelayerReward(address)": "b2bd295e",
    "getValidator(address)": "1904bb2e",
    "hasSubmittedInLastBottomUpCheckpointHeight(address)": "2bc31eb3",
    "ipcGatewayAddr()": "cfca2824",
    "isActiveValidator(address)": "40550a1c",
    "isWaitingValidator(address)": "d081be03",
    "killed()": "1f3a0e41",
    "lastBottomUpCheckpointHeight()": "72d0a0e0",
    "majorityPercentage()": "599c7bd1",
    "minActivationCollateral()": "9e33bd02",
    "minCrossMsgFee()": "6704287c",
    "minValidators()": "c5ab2241",
    "powerScale()": "ad81e4d6"
  },
  "id": 75
}