{"abi":[{"type":"function","name":"applyFinalityChanges","inputs":[],"outputs":[{"name":"","type":"uint64","internalType":"uint64"}],"stateMutability":"nonpayable"},{"type":"function","name":"commitParentFinality","inputs":[{"name":"finality","type":"tuple","internalType":"struct ParentFinality","components":[{"name":"height","type":"uint256","internalType":"uint256"},{"name":"blockHash","type":"bytes32","internalType":"bytes32"}]}],"outputs":[{"name":"hasCommittedBefore","type":"bool","internalType":"bool"},{"name":"previousFinality","type":"tuple","internalType":"struct ParentFinality","components":[{"name":"height","type":"uint256","internalType":"uint256"},{"name":"blockHash","type":"bytes32","internalType":"bytes32"}]}],"stateMutability":"nonpayable"},{"type":"function","name":"storeValidatorChanges","inputs":[{"name":"changeRequests","type":"tuple[]","internalType":"struct StakingChangeRequest[]","components":[{"name":"change","type":"tuple","internalType":"struct StakingChange","components":[{"name":"op","type":"uint8","internalType":"enum StakingOperation"},{"name":"payload","type":"bytes","internalType":"bytes"},{"name":"validator","type":"address","internalType":"address"}]},{"name":"configurationNumber","type":"uint64","internalType":"uint64"}]}],"outputs":[],"stateMutability":"nonpayable"},{"type":"error","name":"AddressShouldBeValidator","inputs":[]},{"type":"error","name":"CannotConfirmFutureChanges","inputs":[]},{"type":"error","name":"InvalidConfigurationNumber","inputs":[]},{"type":"error","name":"NotSystemActor","inputs":[]},{"type":"error","name":"OldConfigurationNumber","inputs":[]},{"type":"error","name":"PQDoesNotContainAddress","inputs":[]},{"type":"error","name":"PQEmpty","inputs":[]},{"type":"error","name":"ParentFinalityAlreadyCommitted","inputs":[]}],"bytecode":{"object":"0x6080806040523461001657612a65908161001c8239f35b600080fdfe604060a08152600436101561001357600080fd5b600090813560e01c9081630df144611461016457816311196974146100a9575063e49a547d1461004257600080fd5b346100a65760203660031901126100a6576004356001600160401b038082116100a257366023830112156100a25781600401359081116100a2573660248260051b840101116100a257602461009f92610099610d88565b01610e3b565b80f35b8280fd5b80fd5b9050346101605780600319360112610160578051906100c782610199565b828252826020809301526100d9610d88565b828282516100e681610199565b8281520152600254926004359283851161014f576060948252600181528282209383600181519661011688610199565b80548852015493838701948552828152600184522081815560016024359101556002558351151593835194855251908401525190820152f35b825163153ad84160e11b8152600490fd5b5080fd5b905034610160578160031936011261016057602090610181610d88565b6001600160401b03610191610355565b915191168152f35b604081019081106001600160401b038211176101b457604052565b634e487b7160e01b600052604160045260246000fd5b606081019081106001600160401b038211176101b457604052565b90601f801991011681019081106001600160401b038211176101b457604052565b9060016001600160401b038093160191821161021e57565b634e487b7160e01b600052601160045260246000fd5b6001600160401b0381116101b45760051b60200190565b805182101561025f5760209160051b010190565b634e487b7160e01b600052603260045260246000fd5b90600182811c921680156102a5575b602083101461028f57565b634e487b7160e01b600052602260045260246000fd5b91607f1691610284565b90604051918260008254926102c384610275565b90818452600194858116908160001461033257506001146102ef575b50506102ed925003836101e5565b565b9093915060005260209081600020936000915b81831061031a5750506102ed935082010138806102df565b85548884018501529485019487945091830191610302565b9150506102ed94506020925060ff191682840152151560051b82010138806102df565b6029546001600160401b038082166000190181811161021e5761037781610206565b8280604095861c169116146105085761038f816110d2565b61ffff928360235416916103a283610234565b956103af835197886101e5565b838752601f1991826103c086610234565b019260209336858b013760015b88811687811161040f576000908152602586528690205489916001916001600160a01b03166104078d8561040085610e27565b169061024b565b5201166103cd565b50509450949192909550865161042481610234565b94610431835196876101e5565b81865261043d82610234565b018460005b8281106104df5750505060005b81811061047a57505061047794959650519261046a84610199565b8352841690820152610897565b90565b6001906001600160a01b0361048f828c61024b565b511680600052602287526104bf60038660002085810154938851946104b3866101ca565b85528a850152016102af565b858201526104cd828961024b565b526104d8818861024b565b500161044f565b84516104ea816101ca565b6000815260008382015260608682015282828a010152018590610442565b505050600090565b60005b8381106105235750506000910152565b8181015183820152602001610513565b908082519081815260208091019281808460051b8301019501936000915b8483106105615750505050505090565b9091929394958480600192601f1990818682030187528a519182518252858060a01b03848401511684830152601f6040809401519360608091850152845180918501526105b681608096888888019101610510565b011601019801930193019194939290610551565b8181106105d5575050565b600081556001016105ca565b6105eb8154610275565b90816105f5575050565b81601f60009311600114610607575055565b908083918252610626601f60208420940160051c8401600185016105ca565b5555565b9190601f811161063957505050565b6102ed926000526020600020906020601f840160051c83019310610665575b601f0160051c01906105ca565b9091508190610658565b90808214610749576106818154610275565b906001600160401b0382116101b45781906106a6826106a08654610275565b8661062a565b600090601f83116001146106dd576000926106d2575b50508160011b916000199060031b1c1916179055565b0154905038806106bc565b81526020808220858352818320935090601f1985169083905b828210610730575050908460019594939210610717575b505050811b019055565b015460001960f88460031b161c1916905538808061070d565b84958192958501548155600180910196019401906106f6565b5050565b60045481101561025f576003906004600052027f8a35acfbc15ff81a39ae7d344fd709f28e8600b4aa8c65c6b64bfe7fe36bd19b0190600090565b906108815781518155600190604060028383019260209360018060a01b0385880151166001600160601b0360a01b82541617905501930151908151916001600160401b0383116101b4576107e6836107e08754610275565b8761062a565b81601f841160011461081f5750928293918392600094610814575b50501b916000199060031b1c1916179055565b015192503880610801565b919083601f1981168760005284600020946000905b88838310610867575050501061084e57505050811b019055565b015160001960f88460031b161c1916905538808061070d565b858701518855909601959485019487935090810190610834565b634e487b7160e01b600052600060045260246000fd5b60408051916020918284526108b6825182858701526060860190610533565b927f7ecdac482334c36fccbe374318cfe74ea0c8181394890ddec894a10f0fcc748181840195806001600160401b039687895116868301520390a183600554169081610ba7575b5050506004908154936801000000000000000093848611610b925760065486600655808710610af3575b5060066000908152957ff652222313e28459528d920b65115c16c04f3efc82aaedc97be59f3f377c0d3f877f8a35acfbc15ff81a39ae7d344fd709f28e8600b4aa8c65c6b64bfe7fe36bd19b5b838210610a9e57505050508060055416916001600160401b03199283600754161760075583515193855496885b868110610a2c5750505051169060055416176005558083116109c4575b50505050565b828110156109be5781548015610a195760001901906109e28261074d565b929092610a07578583556109ff60026001948886820155016105e1565b8355016109c4565b634e487b7160e01b8652858452602486fd5b634e487b7160e01b855260318352602485fd5b88811015610a5b5780610a55610a45600193865161024b565b51610a4f8361074d565b90610788565b016109a1565b610a6681845161024b565b51885483811015610a8b5760019291610a4f8285610a8694018d5561074d565b610a55565b634e487b7160e01b8c5260418a5260248cfd5b806001918403610ab9575b6003809101930191019091610974565b805484558180850190838060a01b0390830154166001600160601b0360a01b825416179055610aee600280830190860161066f565b610aa9565b6003908082029082820403610b7d578782028281048903610b6857600090600682527ff652222313e28459528d920b65115c16c04f3efc82aaedc97be59f3f377c0d3f92830192015b828110610b4b57505050610927565b8082859255826001820155610b62600282016105e1565b01610b3c565b601187634e487b7160e01b6000525260246000fd5b601186634e487b7160e01b6000525260246000fd5b604184634e487b7160e01b6000525260246000fd5b84865116856007541690818114610c945710610c8357825192610bc984610199565b600454610bd581610234565b91610be2815193846101e5565b8183528383019060046000527f8a35acfbc15ff81a39ae7d344fd709f28e8600b4aa8c65c6b64bfe7fe36bd19b906000925b848410610c41575050509185525050820152610c309082610c9e565b610c3c573880806108fd565b505050565b6003876001928451610c52816101ca565b86548152848060a01b03858801541683820152610c71600288016102af565b86820152815201930193019291610c14565b8251633746be2560e11b8152600490fd5b5050505050505050565b6001600160401b03906020918083830151169083850151160361050857610cc481610d4c565b610ccd84610d4c565b03610508575180518351510361050857610d38610d2c916040519081610cfd868201928784526040830190610533565b0391610d11601f19938481018352826101e5565b51902094516040519384918683019687526040830190610533565b039081018352826101e5565b5190201490565b9190820180921161021e57565b8051519060009182915b818310610d635750505090565b909192610d7f600191610d7786855161024b565b515190610d3f565b93019190610d56565b604051635d3f8a6960e01b815233600482015260208160248173__$e800e3908cdbb6b1b5bd452383a17b18f7$__5af4908115610e1b57600091610de1575b5015610dcf57565b60405163f0d97f3b60e01b8152600490fd5b6020813d8211610e13575b81610df9602093836101e5565b8101031261016057519081151582036100a6575038610dc7565b3d9150610dec565b6040513d6000823e3d90fd5b61ffff908116600019019190821161021e57565b81156107495760005b828110610e5057505050565b8060051b820135603e198336030181121561100757820190604080610e7584806110a2565b013560018060a01b0380608052811680910361100757610e9584806110a2565b35600481101561100757610ea985806110a2565b6020908181013590601e19813603018212156110075701956001600160401b0393873585811161100757838901813603811361100757610ee8826110b7565b99610ef589519b8c6101e5565b828b528583369201011161100757816000928692838d01378a010152846029541693865190610f23826101ca565b815283810198895286810191825284600052602a8452866000209051600481101561108c5760ff8019835416911617815560019889820190518051908882116101b457610f7a82610f748554610275565b8561062a565b8690601f8311600114611017576002949392916000918361100c575b5050600019600383901b1c1916908c1b1790555b01906080519051166001600160601b0360a01b82541617905583610fcd84610206565b166001600160401b0319602954161760295501359182168092036110075703610ff7575001610e44565b51631aba532960e21b8152600490fd5b600080fd5b015190503880610f96565b9392918c91601f1982169084600052896000209160005b8b828210611069575050968360029810611050575b505050811b019055610faa565b015160001960f88460031b161c19169055388080611043565b919295899487849397999a9b015181550195019301908f9492979695939161102e565b634e487b7160e01b600052602160045260246000fd5b903590605e1981360301821215611007570190565b6001600160401b0381116101b457601f01601f191660200190565b906029546001600160401b0381166001600160401b03841610156000146111055760405163040aaa0560e11b8152600490fd5b6001600160401b038160401c166001600160401b0384161061149e5760401c6001600160401b03165b6001600160401b0383166001600160401b0382161161146a576001600160401b038116600052602a60205260406000209060018060a01b036002830154169160ff815416600481101561108c57600281036111d9575060016111a9916001600160401b0394600052602260205201600360406000200161066f565b818116600052602a60205260406000209060008255600060026001936111d08582016105e1565b0155011661112e565b91929160038103611367575060016111f191016102af565b90815182019160408160208501940312611007576020810151906001600160401b0382116110075783603f838301011215611007576020828201015191611237836110b7565b9461124560405196876101e5565b8386526040848385010101116110075760409261126a91846020880191850101610510565b0151918160005260226020526003604060002001908051906001600160401b0382116101b45761129e82610f748554610275565b602090601f83116001146112f05791806001600160401b03979694926112e096946000926112e5575b50508160011b916000199060031b1c19161790556114a3565b6111a9565b0151905038806112c7565b90601f198316918460005260206000209260005b81811061134f57509260019285926112e098966001600160401b039b9a989610611336575b505050811b0190556114a3565b015160001960f88460031b161c19169055388080611329565b92936020600181928786015181550195019301611304565b9061137860019493948092016102af565b93602085805181010312611007578160206001600160401b03960151931460001461142657908161140092600052602291826020526113be8582604060002001546114e7565b9282600052602052604060002060028101918483548115908161141d575b501561141457509060006113fb938160039481855584015555016105e1565b611989565b61140d60219182546114e7565b90556111a9565b92500155611989565b905015386113dc565b6112e09281600052602280602052611445828560406000200154610d3f565b93849184600052602052604060002001556114636021918254610d3f565b90556114f4565b509061147590610206565b67ffffffffffffffff60401b6029549160401b169067ffffffffffffffff60401b191617602955565b509050565b9060018060a01b0382166000526022602052604060002081815491558181146000146114ce57505050565b8111156114de576102ed91611803565b6102ed91611cdb565b9190820391821161021e57565b919060018060a01b03928381166000948186526020916024835261ffff916040978389822054166117125783855460081c168460235416106116de576115386127ae565b60019283825260258652828a832054168861155282611e66565b1061165857508152602785528389822054166115c15750505050506115bc7f19fe3ca603e87854a0747cc10abf06bac64d61bac73d6d15f2fd3ca448f15264939461159c83611dfb565b516001600160a01b03909216825260208201929092529081906040820190565b0390a1565b6115ca86612801565b926115d487611e66565b935b818682161161161a575b505097516001600160a01b039095168552505050506020810191909152909150600080516020612a108339815191529080604081016115bc565b808561163986617fff8f95871c169485885260288c5287205416611e66565b1015611652579061164b839282612960565b90506115d6565b506115e0565b969750899493507ffaeb8de771b867cf357f6b459a7002b62ec45d544a8078a3ecd91200cc826d75989992506115bc95602791611693612388565b8352522054166116d0575b6116a784612319565b6116b083611dfb565b516001600160a01b03928316815292909116602083015281906040820190565b6116d98461201c565b61169e565b50505050506115bc7f2e8038f5812f763c6ef0c5427cb5a05ce6d7064af2ba7d1d270bc02660b019fd939461159c83612319565b9792915061172385949796956127ca565b9761172d85611e66565b976117378a61220e565b8460235416905b8581168281116117de57828110156117c257508061175e61176492611de8565b9061275e565b9b909b5b8b111561178757611779908c6128c7565b6117828b61220e565b61173e565b505093516001600160a01b0390951685525050505060208101919091529092506000805160206129f0833981519152915080604081016115bc565b849c919c52602583526117d9858886205416611e66565b611768565b505050505050506115bc91929395506000805160206129f0833981519152945061159c565b6001600160a01b03808216600081815260246020526040808220549095949361ffff93918416611957578360205460081c16846023541610611925576118476127ae565b60018352602560205286832054168561185f82611e66565b106118d157508152602760205284902054166118a3576115bc7f19fe3ca603e87854a0747cc10abf06bac64d61bac73d6d15f2fd3ca448f152649361159c83611dfb565b6115bc600080516020612a108339815191529361159c6118c284612801565b6118cb85611e66565b906121b9565b93945091857ffaeb8de771b867cf357f6b459a7002b62ec45d544a8078a3ecd91200cc826d7596926115bc94611905612388565b8152602760205220541661191c576116a784612319565b6116d9846120a7565b505050506115bc7f2e8038f5812f763c6ef0c5427cb5a05ce6d7064af2ba7d1d270bc02660b019fd9361159c83612319565b505050506115bc6000805160206129f08339815191529361159c61197a846127ca565b61198385611e66565b906126cb565b909160018060a01b03928383169060009382855260206027815261ffff95604094878683205416611bb1578082526024835287868320541615611ba0578415611af857506119d6836127ca565b976119e084611e66565b985b6001808a83161115611ae95781617fff911c1690818452602585528a611a0c848a87205416611e66565b1115611a2157611a1c90826128c7565b6119e2565b505091939597509193955b6026541615611ae157611a3d6127ae565b600182526025835285818184205416926028611a5885611e66565b95611a616127bc565b600183525220541691611a7383611e66565b11611aa857505091516001600160a01b03909216825260208201526000805160206129f08339815191529080604081016115bc565b915091506115bc7ffaeb8de771b867cf357f6b459a7002b62ec45d544a8078a3ecd91200cc826d7593611ad9612388565b61169e611eb5565b505050505050565b50509193959750919395611a2c565b829450611b2c7f4a4c5d1a281180eea1e99d8177fa4798b9f7e019d5c57e7d8d73c6a22199aa5b93929894999697996124d1565b8651908152a160265416611b405750505050565b7f2e8038f5812f763c6ef0c5427cb5a05ce6d7064af2ba7d1d270bc02660b019fd9360288492611b6e6127bc565b6001835252205416611b94611b8282611e66565b92611b8b611eb5565b61159c83612319565b0390a1388080806109be565b8551632a55ca5360e01b8152600490fd5b84969792939598919415611ca0575061fffe9193611bce86612801565b93611bd887611e66565b9480966001958692831b168160265416925b611c2c575b505099516001600160a01b03909716875250505050602083019390935250919250600080516020612a1083398151915291905080604081016115bc565b818116838111611c9a578d9084811015611c7e57505080611c4f611c5592611de8565b906122c1565b9890985b881015611c7957611c6a9089612960565b611c738861220e565b86611bea565b611bef565b865260288552852054909890611c95908716611e66565b611c59565b50611bef565b94915050611cd49194507f3168ba660eed6ef1dc2258b2247cc05fd0f2f350d39e6ad2e2ebc76a8000b40b9596925061201c565b51908152a1565b6001600160a01b0380821660008181526027602090815260408083205490969594919361ffff918216611d7e578084526024855281888520541615611d6d578615611d3c5750611a2c611d2d866127ca565b611d3687611e66565b9061267c565b849193979650611b2c7f4a4c5d1a281180eea1e99d8177fa4798b9f7e019d5c57e7d8d73c6a22199aa5b939661255c565b8751632a55ca5360e01b8152600490fd5b9693925050508315611dbb5750600080516020612a1083398151915293506115bc9061159c611dac84612801565b611db585611e66565b90612225565b9250611cd47f3168ba660eed6ef1dc2258b2247cc05fd0f2f350d39e6ad2e2ebc76a8000b40b94926120a7565b90600161ffff8093160191821161021e57565b6102ed906118cb61ffff91611e138360265416611de8565b9260018060a01b0382169081600052602760205260406000209085169161ffff199183838254161790558260005260286020526040600020906001600160601b0360a01b82541617905560265416176026555b60ff60205416600381101561108c57600103611e97576001600160a01b031660009081526022602052604090205490565b6001600160a01b031660009081526022602052604090206001015490565b61ffff806026541690811561200a5790600190611ed4818311156128aa565b6000828152602860208181526040808420805486865282862080546001600160a01b0392831680895260278752858920805461ffff199081168c17909155918416808a52868a20805484168d17905588885283546001600160a01b03199081169092179093558a895284541690911790925592958795939492939291611f6e91908a611f5f83610e27565b16906026541617602655612826565b848252808652611f82848484205416611e66565b95859860028160265416995b611fa0575b5050505050505050505050565b8181168a8111612004578a811015611fe9575080611c4f611fc092611de8565b9a909a5b891015611fe457611fd5908b612960565b611fde8a61220e565b87611f8e565b611f93565b859b919b52838352611fff878787205416611e66565b611fc4565b50611f93565b6040516340d9b01160e01b8152600490fd5b61202590612801565b61ffff908160265416916120398383612960565b8061204384610e27565b1661ffff19602654161760265561205983612826565b811680921461074957611db5826102ed93600052602860205260018060a01b039061209361208d8360406000205416611e66565b856121b9565b600052602860205260406000205416611e66565b6120b090612801565b61ffff908160265416916120c48383612960565b806120ce84610e27565b1661ffff1960265416176026556120e483612826565b808216809314610c3c579161fffe9160009180835260289060209382855260018060a01b039260409261212461211e868686205416611e66565b876121b9565b8252808652612137848484205416611e66565b9585986001988997881b168160265416995b61215a575050505050505050505050565b8181168a8111612004578a81101561219e575080611c4f61217a92611de8565b9a909a5b891015611fe45761218f908b612960565b6121988a61220e565b87612149565b859b919b528383526121b4878787205416611e66565b61217e565b9190915b60018061ffff831611156122085781617fff911c1690836121f360008481526028602052604060018060a01b0391205416611e66565b1015612208576122039082612960565b6121bd565b50509050565b60011b906201fffe61fffe83169216820361021e57565b90600161fffe83821b168160009161ffff908160265416925b61224c575b50505050505050565b8181168381116122bb5783811015612295575080611c4f61226c92611de8565b9690965b861015612290576122819087612960565b61228a8661220e565b8461223e565b612243565b8452602860205260408420549096906122b6906001600160a01b0316611e66565b612270565b50612243565b91909161ffff92838216600052602860205261230460018060a01b036122ed8160406000205416611e66565b958316600052602860205260406000205416611e66565b908185106123125750509190565b9350919050565b6102ed90611d3661ffff916123318360235416611de8565b9260018060a01b0382169081600052602460205260406000209085169161ffff199183838254161790558260005260256020526040600020906001600160601b0360a01b8254161790556023541617602355611e66565b61ffff806023541690811561200a57906001906123a7818311156128aa565b6000828152602560208181526040808420805486865282862080546001600160a01b0392831680895260248752858920805461ffff199081168c17909155918416808a52868a20805484168d17905588885283546001600160a01b03199081169092179093558a89528454169091179092559295879593949293929161244191908a61243283610e27565b16906023541617602355612868565b848252808652612455848484205416611e66565b95859860028160235416995b612472575050505050505050505050565b8181168a8111612004578a8110156124b657508061175e61249292611de8565b9a909a5b891115611fe4576124a7908b6128c7565b6124b08a61220e565b87612461565b859b919b528383526124cc878787205416611e66565b612496565b6124da906127ca565b61ffff908160235416916124ee83836128c7565b806124f884610e27565b1661ffff19602354161760235561250e83612868565b811680921461074957611983826102ed93600052602560205260018060a01b03906125486125428360406000205416611e66565b8561267c565b600052602560205260406000205416611e66565b612565906127ca565b9061ffff9081602354169061257a82856128c7565b8261258483610e27565b1661ffff19602354161760235561259a82612868565b8284168092146126765760009291929183835260259260209484865260018060a01b03916040916125d86125d2858585205416611e66565b8a61267c565b81528587526125eb838383205416611e66565b956125f58961220e565b978560235416985b8681168a8111612668578a81101561264d57508061175e61261d92611de8565b9a909a5b89111561264057612632908b6128c7565b61263b8a61220e565b6125fd565b5050505050505092505050565b849b919b52828252612663868686205416611e66565b612621565b505050505050505092505050565b92505050565b9190915b60018061ffff831611156122085781617fff911c1690836126b660008481526025602052604060018060a01b0391205416611e66565b1115612208576126c690826128c7565b612680565b916126d58361220e565b600061ffff918260235416905b838116828111612754578281101561272e57508061175e61270292611de8565b9690965b8611156127255761271790876128c7565b6127208661220e565b6126e2565b50505050915050565b83526025602052604083205490969061274f906001600160a01b0316611e66565b612706565b5050505050915050565b919061ffff808416600052602560205261279f60018060a01b036127888160406000205416611e66565b928416600052602560205260406000205416611e66565b93848211156123125750509190565b61ffff602354161561200a57565b61ffff602654161561200a57565b6001600160a01b031660009081526024602052604090205461ffff169081156127ef57565b60405163f2755e3760e01b8152600490fd5b6001600160a01b031660009081526027602052604090205461ffff169081156127ef57565b61ffff16600090815260286020908152604080832080546001600160a01b031981169091556001600160a01b0316835260279091529020805461ffff19169055565b61ffff16600090815260256020908152604080832080546001600160a01b031981169091556001600160a01b0316835260249091529020805461ffff19169055565b156128b157565b634e487b7160e01b600052600160045260246000fd5b6128ec61ffff8080602354169316936128e2848611156128aa565b16918211156128aa565b6000828152602560208181526040808420805486865282862080546001600160a01b0392831680895260248752858920805461ffff19908116909b1790559216808852938720805490981689179097559390925284546001600160a01b031990811690931790945593909152825416179055565b61297b61ffff8080602654169316936128e2848611156128aa565b6000828152602860208181526040808420805486865282862080546001600160a01b0392831680895260278752858920805461ffff19908116909b1790559216808852938720805490981689179097559390925284546001600160a01b03199081169093179094559390915282541617905556fe143db27bc2036653dc6f962ff9d0b803163d4af50c256ca9e6927b3d6dcd0197da148fac2e1063174be7bc0895576bdaba90fd14e575463fa26a967cb895cadda2646970667358221220cff9f210462ab66eb409caf3ccd6d5276d22bbdb298d3cafd0f082e4e5621cc564736f6c63430008130033","linkReferences":{"src/lib/AccountHelper.sol":{"AccountHelper":[{"start":3519,"length":20}]}}},"methodIdentifiers":{"applyFinalityChanges()":"0df14461","commitParentFinality((uint256,bytes32))":"11196974","storeValidatorChanges(((uint8,bytes,address),uint64)[])":"e49a547d"},"id":51}