{"abi":[{"type":"constructor","inputs":[{"name":"name","type":"string","internalType":"string"},{"name":"symbol","type":"string","internalType":"string"},{"name":"initialSupply","type":"uint256","internalType":"uint256"},{"name":"owner","type":"address","internalType":"address"}],"stateMutability":"nonpayable"},{"type":"function","name":"allowance","inputs":[{"name":"owner","type":"address","internalType":"address"},{"name":"spender","type":"address","internalType":"address"}],"outputs":[{"name":"","type":"uint256","internalType":"uint256"}],"stateMutability":"view"},{"type":"function","name":"approve","inputs":[{"name":"spender","type":"address","internalType":"address"},{"name":"value","type":"uint256","internalType":"uint256"}],"outputs":[{"name":"","type":"bool","internalType":"bool"}],"stateMutability":"nonpayable"},{"type":"function","name":"balanceOf","inputs":[{"name":"account","type":"address","internalType":"address"}],"outputs":[{"name":"","type":"uint256","internalType":"uint256"}],"stateMutability":"view"},{"type":"function","name":"burn","inputs":[{"name":"value","type":"uint256","internalType":"uint256"}],"outputs":[],"stateMutability":"nonpayable"},{"type":"function","name":"burnFrom","inputs":[{"name":"account","type":"address","internalType":"address"},{"name":"value","type":"uint256","internalType":"uint256"}],"outputs":[],"stateMutability":"nonpayable"},{"type":"function","name":"decimals","inputs":[],"outputs":[{"name":"","type":"uint8","internalType":"uint8"}],"stateMutability":"view"},{"type":"function","name":"name","inputs":[],"outputs":[{"name":"","type":"string","internalType":"string"}],"stateMutability":"view"},{"type":"function","name":"symbol","inputs":[],"outputs":[{"name":"","type":"string","internalType":"string"}],"stateMutability":"view"},{"type":"function","name":"totalSupply","inputs":[],"outputs":[{"name":"","type":"uint256","internalType":"uint256"}],"stateMutability":"view"},{"type":"function","name":"transfer","inputs":[{"name":"to","type":"address","internalType":"address"},{"name":"value","type":"uint256","internalType":"uint256"}],"outputs":[{"name":"","type":"bool","internalType":"bool"}],"stateMutability":"nonpayable"},{"type":"function","name":"transferFrom","inputs":[{"name":"from","type":"address","internalType":"address"},{"name":"to","type":"address","internalType":"address"},{"name":"value","type":"uint256","internalType":"uint256"}],"outputs":[{"name":"","type":"bool","internalType":"bool"}],"stateMutability":"nonpayable"},{"type":"event","name":"Approval","inputs":[{"name":"owner","type":"address","indexed":true,"internalType":"address"},{"name":"spender","type":"address","indexed":true,"internalType":"address"},{"name":"value","type":"uint256","indexed":false,"internalType":"uint256"}],"anonymous":false},{"type":"event","name":"Transfer","inputs":[{"name":"from","type":"address","indexed":true,"internalType":"address"},{"name":"to","type":"address","indexed":true,"internalType":"address"},{"name":"value","type":"uint256","indexed":false,"internalType":"uint256"}],"anonymous":false},{"type":"error","name":"ERC20InsufficientAllowance","inputs":[{"name":"spender","type":"address","internalType":"address"},{"name":"allowance","type":"uint256","internalType":"uint256"},{"name":"needed","type":"uint256","internalType":"uint256"}]},{"type":"error","name":"ERC20InsufficientBalance","inputs":[{"name":"sender","type":"address","internalType":"address"},{"name":"balance","type":"uint256","internalType":"uint256"},{"name":"needed","type":"uint256","internalType":"uint256"}]},{"type":"error","name":"ERC20InvalidApprover","inputs":[{"name":"approver","type":"address","internalType":"address"}]},{"type":"error","name":"ERC20InvalidReceiver","inputs":[{"name":"receiver","type":"address","internalType":"address"}]},{"type":"error","name":"ERC20InvalidSender","inputs":[{"name":"sender","type":"address","internalType":"address"}]},{"type":"error","name":"ERC20InvalidSpender","inputs":[{"name":"spender","type":"address","internalType":"address"}]}],"bytecode":{"object":"0x6080604052346103c957610bb780380380610019816103ce565b9283398101906080818303126103c95780516001600160401b0381116103c957826100459183016103f3565b602082015190926001600160401b0382116103c9576100659183016103f3565b604082015160609092015190916001600160a01b038216918290036103c95783516001600160401b0381116102d257600354600181811c911680156103bf575b60208210146102b257601f811161035a575b50602094601f82116001146102f3579481929394956000926102e8575b50508160011b916000199060031b1c1916176003555b82516001600160401b0381116102d257600454600181811c911680156102c8575b60208210146102b257601f811161024d575b506020601f82116001146101e657819293946000926101db575b50508160011b916000199060031b1c1916176004555b81156101c5576002548181018091116101af576002557fddf252ad1be2c89b69c2b068fc378daa952ba7f163c4a11628f55a4df523b3ef602060009284845283825260408420818154019055604051908152a3604051610758908161045f8239f35b634e487b7160e01b600052601160045260246000fd5b63ec442f0560e01b600052600060045260246000fd5b015190503880610137565b601f198216906004600052806000209160005b8181106102355750958360019596971061021c575b505050811b0160045561014d565b015160001960f88460031b161c1916905538808061020e565b9192602060018192868b0151815501940192016101f9565b60046000527f8a35acfbc15ff81a39ae7d344fd709f28e8600b4aa8c65c6b64bfe7fe36bd19b601f830160051c810191602084106102a8575b601f0160051c01905b81811061029c575061011d565b6000815560010161028f565b9091508190610286565b634e487b7160e01b600052602260045260246000fd5b90607f169061010b565b634e487b7160e01b600052604160045260246000fd5b0151905038806100d4565b601f198216956003600052806000209160005b88811061034257508360019596979810610329575b505050811b016003556100ea565b015160001960f88460031b161c1916905538808061031b565b91926020600181928685015181550194019201610306565b60036000527fc2575a0e9e593c00f959f8c92f12db2869c3395a3b0502d05e2516446f71f85b601f830160051c810191602084106103b5575b601f0160051c01905b8181106103a957506100b7565b6000815560010161039c565b9091508190610393565b90607f16906100a5565b600080fd5b6040519190601f01601f191682016001600160401b038111838210176102d257604052565b81601f820112156103c9578051906001600160401b0382116102d257610422601f8301601f19166020016103ce565b92828452602083830101116103c95760005b82811061044957505060206000918301015290565b8060208092840101518282870101520161043456fe608080604052600436101561001357600080fd5b60003560e01c90816306fdde03146103ed57508063095ea7b31461033b57806318160ddd1461031d57806323b872dd146102e5578063313ce567146102c957806342966c68146102ac57806370a082311461027257806379cc67901461024057806395d89b411461011f578063a9059cbb146100ee5763dd62ed3e1461009857600080fd5b346100e95760403660031901126100e9576100b1610509565b6100b961051f565b6001600160a01b039182166000908152600160209081526040808320949093168252928352819020549051908152f35b600080fd5b346100e95760403660031901126100e95761011461010a610509565b60243590336105dc565b602060405160018152f35b346100e95760003660031901126100e95760405160006004548060011c90600181168015610236575b6020831081146102225782855290811561020657506001146101af575b50819003601f01601f191681019067ffffffffffffffff82118183101761019957610195829182604052826104c0565b0390f35b634e487b7160e01b600052604160045260246000fd5b905060046000527f8a35acfbc15ff81a39ae7d344fd709f28e8600b4aa8c65c6b64bfe7fe36bd19b6000905b8282106101f057506020915082010182610165565b60018160209254838588010152019101906101db565b90506020925060ff191682840152151560051b82010182610165565b634e487b7160e01b84526022600452602484fd5b91607f1691610148565b346100e95760403660031901126100e95761027061025c610509565b6024359061026b823383610535565b6106a1565b005b346100e95760203660031901126100e9576001600160a01b03610293610509565b1660005260006020526020604060002054604051908152f35b346100e95760203660031901126100e957610270600435336106a1565b346100e95760003660031901126100e957602060405160128152f35b346100e95760603660031901126100e957610114610301610509565b61030961051f565b60443591610318833383610535565b6105dc565b346100e95760003660031901126100e9576020600254604051908152f35b346100e95760403660031901126100e957610354610509565b6024359033156103d7576001600160a01b03169081156103c157336000526001602052604060002082600052602052806040600020556040519081527f8c5be1e5ebec7d5bd14f71427d1e84f3dd0314c0f7b2291e5b200ac8c7c3b92560203392a3602060405160018152f35b634a1406b160e11b600052600060045260246000fd5b63e602df0560e01b600052600060045260246000fd5b346100e95760003660031901126100e95760006003548060011c906001811680156104b6575b60208310811461022257828552908115610206575060011461045f5750819003601f01601f191681019067ffffffffffffffff82118183101761019957610195829182604052826104c0565b905060036000527fc2575a0e9e593c00f959f8c92f12db2869c3395a3b0502d05e2516446f71f85b6000905b8282106104a057506020915082010182610165565b600181602092548385880101520191019061048b565b91607f1691610413565b91909160208152825180602083015260005b8181106104f3575060409293506000838284010152601f8019910116010190565b80602080928701015160408286010152016104d2565b600435906001600160a01b03821682036100e957565b602435906001600160a01b03821682036100e957565b6001600160a01b039081166000818152600160208181526040808420958716845294905292902054939291840161056d575b50505050565b8284106105b75780156103d7576001600160a01b038216156103c157600052600160205260406000209060018060a01b031660005260205260406000209103905538808080610567565b508290637dc7a0d960e11b60005260018060a01b031660045260245260445260646000fd5b6001600160a01b031690811561068b576001600160a01b031691821561067557600082815280602052604081205482811061065b5791604082827fddf252ad1be2c89b69c2b068fc378daa952ba7f163c4a11628f55a4df523b3ef958760209652828652038282205586815280845220818154019055604051908152a3565b916064928463391434e360e21b8452600452602452604452fd5b63ec442f0560e01b600052600060045260246000fd5b634b637e8f60e11b600052600060045260246000fd5b6001600160a01b0316801561068b5760009181835282602052604083205481811061070957817fddf252ad1be2c89b69c2b068fc378daa952ba7f163c4a11628f55a4df523b3ef926020928587528684520360408620558060025403600255604051908152a3565b6064939263391434e360e21b8452600452602452604452fdfea264697066735822122061ff877874caba81984bf4a7d538921daa3a805b43618f3fdacbdd0ea706d17a64736f6c634300081a0033","linkReferences":{}},"methodIdentifiers":{"allowance(address,address)":"dd62ed3e","approve(address,uint256)":"095ea7b3","balanceOf(address)":"70a08231","burn(uint256)":"42966c68","burnFrom(address,uint256)":"79cc6790","decimals()":"313ce567","name()":"06fdde03","symbol()":"95d89b41","totalSupply()":"18160ddd","transfer(address,uint256)":"a9059cbb","transferFrom(address,address,uint256)":"23b872dd"},"id":108}