{"abi":[{"type":"function","name":"claim","inputs":[],"outputs":[],"stateMutability":"nonpayable"},{"type":"event","name":"CollateralClaimed","inputs":[{"name":"validator","type":"address","indexed":false,"internalType":"address"},{"name":"amount","type":"uint256","indexed":false,"internalType":"uint256"}],"anonymous":false},{"type":"event","name":"Paused","inputs":[{"name":"account","type":"address","indexed":false,"internalType":"address"}],"anonymous":false},{"type":"event","name":"Unpaused","inputs":[{"name":"account","type":"address","indexed":false,"internalType":"address"}],"anonymous":false},{"type":"error","name":"AddressInsufficientBalance","inputs":[{"name":"account","type":"address","internalType":"address"}]},{"type":"error","name":"EnforcedPause","inputs":[]},{"type":"error","name":"ExpectedPause","inputs":[]},{"type":"error","name":"FailedInnerCall","inputs":[]},{"type":"error","name":"NoCollateralToWithdraw","inputs":[]},{"type":"error","name":"ReentrancyError","inputs":[]}],"bytecode":{"object":"0x6080806040523460155761032c908161001b8239f35b600080fdfe6080604052600436101561001257600080fd5b60003560e01c634e71d92d1461002757600080fd5b346102f15760003660031901126102f15760017f691bb03ffc16c56fc96b82fd16cd1b3715f0bc3cdc6407005f49bb620586009554146102e05760017f691bb03ffc16c56fc96b82fd16cd1b3715f0bc3cdc6407005f49bb62058600955560ff7fc451c9429c27db68f286ab8a68f311f1dccab703ba9423aed29cd397ae63f86354166102cf57336000908152601660205260409020805461ffff81169081156102be57909160009160101c61ffff1683600183015b8161ffff84161061021e575b505063ffff0000929361ffff8354911693849260101b169063ffffffff19161717905515610209575b8047106101f457600080808084335af13d156101ef573d67ffffffffffffffff81116101d95760405190601f8101601f19908116603f0116820167ffffffffffffffff8111838210176101d9576040528152600060203d92013e5b156101c85760407f197c586353eaed0a1c53e6e540445b94befab8f932c8115d112115ecbeeed514918151903382526020820152a160007f691bb03ffc16c56fc96b82fd16cd1b3715f0bc3cdc6407005f49bb620586009555005b630a12f52160e11b60005260046000fd5b634e487b7160e01b600052604160045260246000fd5b61016d565b63cd78605960e01b6000523060045260246000fd5b33600090815260166020526040812055610112565b9091936040600061ffff87168152836020522060405190604082019180831067ffffffffffffffff8411176101d95760209260405260018254928383520154928391015243106102b65781018091116102a05761ffff6001819296600082604082868516815288602052208281550155011695600019011691909491946100dd565b634e487b7160e01b600052601160045260246000fd5b5093916100e9565b6364b0557f60e01b60005260046000fd5b63d93c066560e01b60005260046000fd5b6329f745a760e01b60005260046000fd5b600080fdfea264697066735822122058ec47aa1001e590096a4eb317a2f50f2bec91d0d7e5998920793278e65883cd64736f6c634300081a0033","linkReferences":{}},"methodIdentifiers":{"claim()":"4e71d92d"},"id":98}