{"abi":[{"type":"constructor","inputs":[{"name":"_registry","type":"address","internalType":"contract SubnetRegistryDiamond"}],"stateMutability":"nonpayable"},{"type":"function","name":"deploySubnetActorFromRegistry","inputs":[{"name":"_minCollateral","type":"uint256","internalType":"uint256"},{"name":"_minValidators","type":"uint64","internalType":"uint64"},{"name":"_bottomUpCheckPeriod","type":"uint64","internalType":"uint64"},{"name":"_activeValidatorsLimit","type":"uint16","internalType":"uint16"},{"name":"_majorityPercentage","type":"uint8","internalType":"uint8"},{"name":"_minCrossMsgFee","type":"uint256","internalType":"uint256"},{"name":"_pathSize","type":"uint8","internalType":"uint8"},{"name":"_powerScale","type":"int8","internalType":"int8"},{"name":"seed","type":"uint256","internalType":"uint256"}],"outputs":[],"stateMutability":"nonpayable"},{"type":"function","name":"getGateway","inputs":[],"outputs":[{"name":"","type":"address","internalType":"address"}],"stateMutability":"view"},{"type":"function","name":"getOwners","inputs":[],"outputs":[{"name":"","type":"address[]","internalType":"address[]"}],"stateMutability":"view"},{"type":"function","name":"getSubnetDeployedBy","inputs":[{"name":"owner","type":"address","internalType":"address"}],"outputs":[{"name":"subnet","type":"address","internalType":"address"}],"stateMutability":"view"},{"type":"function","name":"getSubnetDeployedWithNonce","inputs":[{"name":"owner","type":"address","internalType":"address"},{"name":"nonce","type":"uint64","internalType":"uint64"}],"outputs":[{"name":"subnet","type":"address","internalType":"address"}],"stateMutability":"view"},{"type":"function","name":"getUserLastNonce","inputs":[{"name":"user","type":"address","internalType":"address"}],"outputs":[{"name":"nonce","type":"uint64","internalType":"uint64"}],"stateMutability":"view"}],"bytecode":{"object":"0x60803461007a57601f610bc438819003918201601f19168301916001600160401b0383118484101761007f5780849260209460405283398101031261007a57516001600160a01b0381169081900361007a5760018060a01b0319818160115416176011556012541617601255604051610b2e90816100968239f35b600080fd5b634e487b7160e01b600052604160045260246000fdfe608080604052600436101561001357600080fd5b600090813560e01c908163030f60511461083a5750806342bf3cc1146107e857806358b1bc921461076e57806364675ce8146101c0578063a0e67e2b146101035763ce75761f1461006357600080fd5b346101005760203660031901126101005761007c6108eb565b601254604051631163dca560e01b81526001600160a01b03928316600482015291906020908390602490829085165afa9182156100f557602093926100c6575b5060405191168152f35b6100e7919250833d81116100ee575b6100df818361091c565b810190610953565b90386100bc565b503d6100d5565b6040513d85823e3d90fd5b80fd5b50346101005780600319360112610100576040518091600f549081835260208093018092600f83527f8d1108e10bcb7c27dddfc02ed9d693a074039d026cf4ea4240b40f7d581ac80290835b8181106101ac575050508461016591038561091c565b60405193838594850191818652518092526040850193925b82811061018c57505050500390f35b83516001600160a01b03168552869550938101939281019260010161017d565b82548452928601926001928301920161014f565b503461010057610120366003190112610100576101db610906565b6001600160401b03604435166044350361076a5761ffff606435166064350361076a5760ff608435166084350361076a5760ff60c4351660c4350361076a5760e435820b60e4350361076a5760c4359060e4359060a43590606435906084359060443590600435670de0b6b3a7640000828183118015610762575b610759575b600a6001600160401b0360443516118015610746575b61073d575b603360ff6084351610801561072e575b610725575b601260e4358c0b1361071c575b6001600160401b031660018111908115610713575b5061070a575b600560ff60c4351611610701575b861180156106f9575b6106ec575b603261ffff606435161180156106de575b6106d5575b6102f160ff8916610972565b976102ff604051998a61091c565b60ff8116808a52601f199061031390610972565b013660208b0137895b60ff8216811061069b575050604051978860408101106001600160401b0360408b0111176106875760408901604052607b895260208901526004602060018060a01b0360125416604051928380926342bf3cc160e01b82525afa90811561067c578a9161065d575b5060405198896101608101106001600160401b036101608c011117610649576101608a016040908152908a526001600160a01b0390911660208a0152880189905260608801526001600160401b0390811660808801521660a086015260ff1660c085015261ffff1660e0840152610100830152820b610120820152610140810182905261041361010435610a3c565b737109709ecfa91a80626ff3989d68f67f5b1dd12d3b156106455760405163ca669fa760e01b81526001600160a01b0382166004820152838160248183737109709ecfa91a80626ff3989d68f67f5b1dd12d5af1801561063a5761060b575b5060018060a01b036011541660405192631547a2b160e31b8452602060048501526020815161016060248701526001600160401b0381511661018487015201519060406101a48601526101c48501825180915260206101e48701930190875b8181106105ec5750505060208101516001600160a01b03166044860152604081015160018110156105d85760648601526060810151608486015260808101516001600160401b0390811660a487015260a08201511660c486015260c081015160ff1660e486015260e081015161ffff16610104860152610100810151610124860152610120810151860b610144860152610140015160028110156105c45791848681809460209661016483015203925af19182156100f5576105a1926105a5575b506001600160a01b03166109b3565b5080f35b6105bd9060203d6020116100ee576100df818361091c565b5038610592565b634e487b7160e01b86526021600452602486fd5b634e487b7160e01b87526021600452602487fd5b82516001600160a01b03168552602094850194909201916001016104d1565b6001600160401b038194929411610626576040529138610472565b634e487b7160e01b82526041600452602482fd5b6040513d86823e3d90fd5b8280fd5b634e487b7160e01b8b52604160045260248bfd5b610676915060203d6020116100ee576100df818361091c565b38610384565b6040513d8c823e3d90fd5b634e487b7160e01b8a52604160045260248afd5b6001600160a01b0381166106af828c610989565b5260001981146106c15760010161031c565b634e487b7160e01b8b52601160045260248bfd5b603294506102e5565b5061ffff60643516156102e0565b6402540be40095506102cf565b5085156102ca565b600198506102c1565b600192506102b3565b905015386102ad565b60129850610298565b6046955061028b565b50606460ff6084351611610286565b600a9450610276565b506001600160401b036044351615610271565b9150809161025b565b508215610256565b5080fd5b5034610100576040366003190112610100576107886108eb565b60446020610794610906565b601254604051639836b75f60e01b81526001600160a01b0395861660048201526001600160401b0390921660248301529093928491829085165afa9182156100f557602093926100c6575060405191168152f35b50346101005780600319360112610100576012546040516342bf3cc160e01b8152906001600160a01b03906020908390600490829085165afa9182156100f557602093926100c6575060405191168152f35b90503461076a576020918260031936011261010057828260248161085c6108eb565b60125463030f605160e01b83526001600160a01b039182166004840152165afa9182156108de57819261089d575b50506001600160401b0360405191168152f35b9091508281813d83116108d7575b6108b5818361091c565b8101031261076a5751906001600160401b03821682036101005750388061088a565b503d6108ab565b50604051903d90823e3d90fd5b600435906001600160a01b038216820361090157565b600080fd5b602435906001600160401b038216820361090157565b90601f801991011681019081106001600160401b0382111761093d57604052565b634e487b7160e01b600052604160045260246000fd5b9081602091031261090157516001600160a01b03811681036109015790565b6001600160401b03811161093d5760051b60200190565b805182101561099d5760209160051b010190565b634e487b7160e01b600052603260045260246000fd5b600081815260106020526040812054610a3757600f5468010000000000000000811015610626576001810180600f55811015610a235790826040927f8d1108e10bcb7c27dddfc02ed9d693a074039d026cf4ea4240b40f7d581ac8020155600f5492815260106020522055600190565b634e487b7160e01b82526032600452602482fd5b905090565b600f548015808015610aed575b15610a55575050503390565b6040519081838152826020809201600f6000527f8d1108e10bcb7c27dddfc02ed9d693a074039d026cf4ea4240b40f7d581ac8029260005b878110610ad6575050610aa29250038361091c565b610ac0576001600160a01b0392610abb92900690610989565b511690565b634e487b7160e01b600052601260045260246000fd5b845483526001948501948794509282019201610a8d565b506003831615610a4956fea2646970667358221220e01451cc9938bf49396307375f30ebcbf1ebef4966c475768e3e27c7ff889ae264736f6c63430008130033","linkReferences":{}},"methodIdentifiers":{"deploySubnetActorFromRegistry(uint256,uint64,uint64,uint16,uint8,uint256,uint8,int8,uint256)":"64675ce8","getGateway()":"42bf3cc1","getOwners()":"a0e67e2b","getSubnetDeployedBy(address)":"ce75761f","getSubnetDeployedWithNonce(address,uint64)":"58b1bc92","getUserLastNonce(address)":"030f6051"},"id":86}