{"abi":[{"type":"function","name":"applyType","inputs":[{"name":"message","type":"tuple","internalType":"struct IpcEnvelope","components":[{"name":"kind","type":"IpcMsgKind","internalType":"enum IpcMsgKind"},{"name":"to","type":"tuple","internalType":"struct IPCAddress","components":[{"name":"subnetId","type":"tuple","internalType":"struct SubnetID","components":[{"name":"root","type":"uint64","internalType":"uint64"},{"name":"route","type":"address[]","internalType":"address[]"}]},{"name":"rawAddress","type":"tuple","internalType":"struct FvmAddress","components":[{"name":"addrType","type":"uint8","internalType":"uint8"},{"name":"payload","type":"bytes","internalType":"bytes"}]}]},{"name":"from","type":"tuple","internalType":"struct IPCAddress","components":[{"name":"subnetId","type":"tuple","internalType":"struct SubnetID","components":[{"name":"root","type":"uint64","internalType":"uint64"},{"name":"route","type":"address[]","internalType":"address[]"}]},{"name":"rawAddress","type":"tuple","internalType":"struct FvmAddress","components":[{"name":"addrType","type":"uint8","internalType":"uint8"},{"name":"payload","type":"bytes","internalType":"bytes"}]}]},{"name":"nonce","type":"uint64","internalType":"uint64"},{"name":"value","type":"uint256","internalType":"uint256"},{"name":"message","type":"bytes","internalType":"bytes"}]},{"name":"currentSubnet","type":"tuple","internalType":"struct SubnetID","components":[{"name":"root","type":"uint64","internalType":"uint64"},{"name":"route","type":"address[]","internalType":"address[]"}]}],"outputs":[{"name":"","type":"IPCMsgType","internalType":"enum IPCMsgType"}],"stateMutability":"pure"},{"type":"function","name":"createCallMsg","inputs":[{"name":"from","type":"tuple","internalType":"struct IPCAddress","components":[{"name":"subnetId","type":"tuple","internalType":"struct SubnetID","components":[{"name":"root","type":"uint64","internalType":"uint64"},{"name":"route","type":"address[]","internalType":"address[]"}]},{"name":"rawAddress","type":"tuple","internalType":"struct FvmAddress","components":[{"name":"addrType","type":"uint8","internalType":"uint8"},{"name":"payload","type":"bytes","internalType":"bytes"}]}]},{"name":"to","type":"tuple","internalType":"struct IPCAddress","components":[{"name":"subnetId","type":"tuple","internalType":"struct SubnetID","components":[{"name":"root","type":"uint64","internalType":"uint64"},{"name":"route","type":"address[]","internalType":"address[]"}]},{"name":"rawAddress","type":"tuple","internalType":"struct FvmAddress","components":[{"name":"addrType","type":"uint8","internalType":"uint8"},{"name":"payload","type":"bytes","internalType":"bytes"}]}]},{"name":"value","type":"uint256","internalType":"uint256"},{"name":"method","type":"bytes4","internalType":"bytes4"},{"name":"params","type":"bytes","internalType":"bytes"}],"outputs":[{"name":"","type":"tuple","internalType":"struct IpcEnvelope","components":[{"name":"kind","type":"IpcMsgKind","internalType":"enum IpcMsgKind"},{"name":"to","type":"tuple","internalType":"struct IPCAddress","components":[{"name":"subnetId","type":"tuple","internalType":"struct SubnetID","components":[{"name":"root","type":"uint64","internalType":"uint64"},{"name":"route","type":"address[]","internalType":"address[]"}]},{"name":"rawAddress","type":"tuple","internalType":"struct FvmAddress","components":[{"name":"addrType","type":"uint8","internalType":"uint8"},{"name":"payload","type":"bytes","internalType":"bytes"}]}]},{"name":"from","type":"tuple","internalType":"struct IPCAddress","components":[{"name":"subnetId","type":"tuple","internalType":"struct SubnetID","components":[{"name":"root","type":"uint64","internalType":"uint64"},{"name":"route","type":"address[]","internalType":"address[]"}]},{"name":"rawAddress","type":"tuple","internalType":"struct FvmAddress","components":[{"name":"addrType","type":"uint8","internalType":"uint8"},{"name":"payload","type":"bytes","internalType":"bytes"}]}]},{"name":"nonce","type":"uint64","internalType":"uint64"},{"name":"value","type":"uint256","internalType":"uint256"},{"name":"message","type":"bytes","internalType":"bytes"}]}],"stateMutability":"pure"},{"type":"function","name":"createFundMsg","inputs":[{"name":"subnet","type":"tuple","internalType":"struct SubnetID","components":[{"name":"root","type":"uint64","internalType":"uint64"},{"name":"route","type":"address[]","internalType":"address[]"}]},{"name":"signer","type":"address","internalType":"address"},{"name":"to","type":"tuple","internalType":"struct FvmAddress","components":[{"name":"addrType","type":"uint8","internalType":"uint8"},{"name":"payload","type":"bytes","internalType":"bytes"}]},{"name":"value","type":"uint256","internalType":"uint256"}],"outputs":[{"name":"","type":"tuple","internalType":"struct IpcEnvelope","components":[{"name":"kind","type":"IpcMsgKind","internalType":"enum IpcMsgKind"},{"name":"to","type":"tuple","internalType":"struct IPCAddress","components":[{"name":"subnetId","type":"tuple","internalType":"struct SubnetID","components":[{"name":"root","type":"uint64","internalType":"uint64"},{"name":"route","type":"address[]","internalType":"address[]"}]},{"name":"rawAddress","type":"tuple","internalType":"struct FvmAddress","components":[{"name":"addrType","type":"uint8","internalType":"uint8"},{"name":"payload","type":"bytes","internalType":"bytes"}]}]},{"name":"from","type":"tuple","internalType":"struct IPCAddress","components":[{"name":"subnetId","type":"tuple","internalType":"struct SubnetID","components":[{"name":"root","type":"uint64","internalType":"uint64"},{"name":"route","type":"address[]","internalType":"address[]"}]},{"name":"rawAddress","type":"tuple","internalType":"struct FvmAddress","components":[{"name":"addrType","type":"uint8","internalType":"uint8"},{"name":"payload","type":"bytes","internalType":"bytes"}]}]},{"name":"nonce","type":"uint64","internalType":"uint64"},{"name":"value","type":"uint256","internalType":"uint256"},{"name":"message","type":"bytes","internalType":"bytes"}]}],"stateMutability":"pure"},{"type":"function","name":"createReleaseMsg","inputs":[{"name":"subnet","type":"tuple","internalType":"struct SubnetID","components":[{"name":"root","type":"uint64","internalType":"uint64"},{"name":"route","type":"address[]","internalType":"address[]"}]},{"name":"signer","type":"address","internalType":"address"},{"name":"to","type":"tuple","internalType":"struct FvmAddress","components":[{"name":"addrType","type":"uint8","internalType":"uint8"},{"name":"payload","type":"bytes","internalType":"bytes"}]},{"name":"value","type":"uint256","internalType":"uint256"}],"outputs":[{"name":"","type":"tuple","internalType":"struct IpcEnvelope","components":[{"name":"kind","type":"IpcMsgKind","internalType":"enum IpcMsgKind"},{"name":"to","type":"tuple","internalType":"struct IPCAddress","components":[{"name":"subnetId","type":"tuple","internalType":"struct SubnetID","components":[{"name":"root","type":"uint64","internalType":"uint64"},{"name":"route","type":"address[]","internalType":"address[]"}]},{"name":"rawAddress","type":"tuple","internalType":"struct FvmAddress","components":[{"name":"addrType","type":"uint8","internalType":"uint8"},{"name":"payload","type":"bytes","internalType":"bytes"}]}]},{"name":"from","type":"tuple","internalType":"struct IPCAddress","components":[{"name":"subnetId","type":"tuple","internalType":"struct SubnetID","components":[{"name":"root","type":"uint64","internalType":"uint64"},{"name":"route","type":"address[]","internalType":"address[]"}]},{"name":"rawAddress","type":"tuple","internalType":"struct FvmAddress","components":[{"name":"addrType","type":"uint8","internalType":"uint8"},{"name":"payload","type":"bytes","internalType":"bytes"}]}]},{"name":"nonce","type":"uint64","internalType":"uint64"},{"name":"value","type":"uint256","internalType":"uint256"},{"name":"message","type":"bytes","internalType":"bytes"}]}],"stateMutability":"pure"},{"type":"function","name":"createResultMsg","inputs":[{"name":"crossMsg","type":"tuple","internalType":"struct IpcEnvelope","components":[{"name":"kind","type":"IpcMsgKind","internalType":"enum IpcMsgKind"},{"name":"to","type":"tuple","internalType":"struct IPCAddress","components":[{"name":"subnetId","type":"tuple","internalType":"struct SubnetID","components":[{"name":"root","type":"uint64","internalType":"uint64"},{"name":"route","type":"address[]","internalType":"address[]"}]},{"name":"rawAddress","type":"tuple","internalType":"struct FvmAddress","components":[{"name":"addrType","type":"uint8","internalType":"uint8"},{"name":"payload","type":"bytes","internalType":"bytes"}]}]},{"name":"from","type":"tuple","internalType":"struct IPCAddress","components":[{"name":"subnetId","type":"tuple","internalType":"struct SubnetID","components":[{"name":"root","type":"uint64","internalType":"uint64"},{"name":"route","type":"address[]","internalType":"address[]"}]},{"name":"rawAddress","type":"tuple","internalType":"struct FvmAddress","components":[{"name":"addrType","type":"uint8","internalType":"uint8"},{"name":"payload","type":"bytes","internalType":"bytes"}]}]},{"name":"nonce","type":"uint64","internalType":"uint64"},{"name":"value","type":"uint256","internalType":"uint256"},{"name":"message","type":"bytes","internalType":"bytes"}]},{"name":"outcome","type":"OutcomeType","internalType":"enum OutcomeType"},{"name":"ret","type":"bytes","internalType":"bytes"}],"outputs":[{"name":"","type":"tuple","internalType":"struct IpcEnvelope","components":[{"name":"kind","type":"IpcMsgKind","internalType":"enum IpcMsgKind"},{"name":"to","type":"tuple","internalType":"struct IPCAddress","components":[{"name":"subnetId","type":"tuple","internalType":"struct SubnetID","components":[{"name":"root","type":"uint64","internalType":"uint64"},{"name":"route","type":"address[]","internalType":"address[]"}]},{"name":"rawAddress","type":"tuple","internalType":"struct FvmAddress","components":[{"name":"addrType","type":"uint8","internalType":"uint8"},{"name":"payload","type":"bytes","internalType":"bytes"}]}]},{"name":"from","type":"tuple","internalType":"struct IPCAddress","components":[{"name":"subnetId","type":"tuple","internalType":"struct SubnetID","components":[{"name":"root","type":"uint64","internalType":"uint64"},{"name":"route","type":"address[]","internalType":"address[]"}]},{"name":"rawAddress","type":"tuple","internalType":"struct FvmAddress","components":[{"name":"addrType","type":"uint8","internalType":"uint8"},{"name":"payload","type":"bytes","internalType":"bytes"}]}]},{"name":"nonce","type":"uint64","internalType":"uint64"},{"name":"value","type":"uint256","internalType":"uint256"},{"name":"message","type":"bytes","internalType":"bytes"}]}],"stateMutability":"pure"},{"type":"function","name":"createTransferMsg","inputs":[{"name":"from","type":"tuple","internalType":"struct IPCAddress","components":[{"name":"subnetId","type":"tuple","internalType":"struct SubnetID","components":[{"name":"root","type":"uint64","internalType":"uint64"},{"name":"route","type":"address[]","internalType":"address[]"}]},{"name":"rawAddress","type":"tuple","internalType":"struct FvmAddress","components":[{"name":"addrType","type":"uint8","internalType":"uint8"},{"name":"payload","type":"bytes","internalType":"bytes"}]}]},{"name":"to","type":"tuple","internalType":"struct IPCAddress","components":[{"name":"subnetId","type":"tuple","internalType":"struct SubnetID","components":[{"name":"root","type":"uint64","internalType":"uint64"},{"name":"route","type":"address[]","internalType":"address[]"}]},{"name":"rawAddress","type":"tuple","internalType":"struct FvmAddress","components":[{"name":"addrType","type":"uint8","internalType":"uint8"},{"name":"payload","type":"bytes","internalType":"bytes"}]}]},{"name":"value","type":"uint256","internalType":"uint256"}],"outputs":[{"name":"","type":"tuple","internalType":"struct IpcEnvelope","components":[{"name":"kind","type":"IpcMsgKind","internalType":"enum IpcMsgKind"},{"name":"to","type":"tuple","internalType":"struct IPCAddress","components":[{"name":"subnetId","type":"tuple","internalType":"struct SubnetID","components":[{"name":"root","type":"uint64","internalType":"uint64"},{"name":"route","type":"address[]","internalType":"address[]"}]},{"name":"rawAddress","type":"tuple","internalType":"struct FvmAddress","components":[{"name":"addrType","type":"uint8","internalType":"uint8"},{"name":"payload","type":"bytes","internalType":"bytes"}]}]},{"name":"from","type":"tuple","internalType":"struct IPCAddress","components":[{"name":"subnetId","type":"tuple","internalType":"struct SubnetID","components":[{"name":"root","type":"uint64","internalType":"uint64"},{"name":"route","type":"address[]","internalType":"address[]"}]},{"name":"rawAddress","type":"tuple","internalType":"struct FvmAddress","components":[{"name":"addrType","type":"uint8","internalType":"uint8"},{"name":"payload","type":"bytes","internalType":"bytes"}]}]},{"name":"nonce","type":"uint64","internalType":"uint64"},{"name":"value","type":"uint256","internalType":"uint256"},{"name":"message","type":"bytes","internalType":"bytes"}]}],"stateMutability":"pure"},{"type":"function","name":"isSorted","inputs":[{"name":"crossMsgs","type":"tuple[]","internalType":"struct IpcEnvelope[]","components":[{"name":"kind","type":"IpcMsgKind","internalType":"enum IpcMsgKind"},{"name":"to","type":"tuple","internalType":"struct IPCAddress","components":[{"name":"subnetId","type":"tuple","internalType":"struct SubnetID","components":[{"name":"root","type":"uint64","internalType":"uint64"},{"name":"route","type":"address[]","internalType":"address[]"}]},{"name":"rawAddress","type":"tuple","internalType":"struct FvmAddress","components":[{"name":"addrType","type":"uint8","internalType":"uint8"},{"name":"payload","type":"bytes","internalType":"bytes"}]}]},{"name":"from","type":"tuple","internalType":"struct IPCAddress","components":[{"name":"subnetId","type":"tuple","internalType":"struct SubnetID","components":[{"name":"root","type":"uint64","internalType":"uint64"},{"name":"route","type":"address[]","internalType":"address[]"}]},{"name":"rawAddress","type":"tuple","internalType":"struct FvmAddress","components":[{"name":"addrType","type":"uint8","internalType":"uint8"},{"name":"payload","type":"bytes","internalType":"bytes"}]}]},{"name":"nonce","type":"uint64","internalType":"uint64"},{"name":"value","type":"uint256","internalType":"uint256"},{"name":"message","type":"bytes","internalType":"bytes"}]}],"outputs":[{"name":"","type":"bool","internalType":"bool"}],"stateMutability":"pure"},{"type":"function","name":"toHash","inputs":[{"name":"crossMsgs","type":"tuple[]","internalType":"struct IpcEnvelope[]","components":[{"name":"kind","type":"IpcMsgKind","internalType":"enum IpcMsgKind"},{"name":"to","type":"tuple","internalType":"struct IPCAddress","components":[{"name":"subnetId","type":"tuple","internalType":"struct SubnetID","components":[{"name":"root","type":"uint64","internalType":"uint64"},{"name":"route","type":"address[]","internalType":"address[]"}]},{"name":"rawAddress","type":"tuple","internalType":"struct FvmAddress","components":[{"name":"addrType","type":"uint8","internalType":"uint8"},{"name":"payload","type":"bytes","internalType":"bytes"}]}]},{"name":"from","type":"tuple","internalType":"struct IPCAddress","components":[{"name":"subnetId","type":"tuple","internalType":"struct SubnetID","components":[{"name":"root","type":"uint64","internalType":"uint64"},{"name":"route","type":"address[]","internalType":"address[]"}]},{"name":"rawAddress","type":"tuple","internalType":"struct FvmAddress","components":[{"name":"addrType","type":"uint8","internalType":"uint8"},{"name":"payload","type":"bytes","internalType":"bytes"}]}]},{"name":"nonce","type":"uint64","internalType":"uint64"},{"name":"value","type":"uint256","internalType":"uint256"},{"name":"message","type":"bytes","internalType":"bytes"}]}],"outputs":[{"name":"","type":"bytes32","internalType":"bytes32"}],"stateMutability":"pure"},{"type":"error","name":"CannotExecuteEmptyEnvelope","inputs":[]},{"type":"error","name":"NotDelegatedEvmAddress","inputs":[]},{"type":"error","name":"NotEnoughBalance","inputs":[]}],"bytecode":{"object":"0x60808060405234601b57611beb90816100218239308160aa0152f35b600080fdfe6080604052600436101561001257600080fd5b60003560e01c80630cb89862146100a75780631860845e146100a25780635404605f1461009d578063855f7e451461009857806399aa0eb4146100935780639b7df85a1461008e5780639b814ea014610089578063dd1fcec7146100845763f43cec671461007f57600080fd5b610b9e565b610a92565b610a02565b6108c7565b6107e7565b610780565b61071c565b610435565b307f000000000000000000000000000000000000000000000000000000000000000003610213575b600080fd5b908160c09103126100cf5790565b634e487b7160e01b600052604160045260246000fd5b604081019081106001600160401b0382111761011357604052565b6100e2565b60c081019081106001600160401b0382111761011357604052565b606081019081106001600160401b0382111761011357604052565b90601f801991011681019081106001600160401b0382111761011357604052565b6040519061017e60608361014e565b565b6040519061017e60c08361014e565b6040519061017e60408361014e565b6001600160a01b038116036100cf57565b60005b8381106101c25750506000910152565b81810151838201526020016101b2565b906020916101eb815180928185528580860191016101af565b601f01601f1916010190565b60409061021093921515815281602082015201906101d2565b90565b60603660031901126100cf576004356001600160401b0381116100cf5761023e9036906004016100d4565b60403660231901126100cf57604051610256816100f8565b6024359160028310156100cf5761027f9282526044356102758161019e565b6020830152610e9e565b9061028f604051928392836101f7565b0390f35b908160409103126100cf5790565b60806003198201126100cf576004356001600160401b0381116100cf57816102cb91600401610293565b916024356102d88161019e565b91604435906001600160401b0382116100cf576102f791600401610293565b9060643590565b634e487b7160e01b600052602160045260246000fd5b6003111561031e57565b6102fe565b602060608160408501936001600160401b03815116865201519360408382015284518094520192019060005b81811061035c5750505090565b82516001600160a01b031684526020938401939092019160010161034f565b604060206102109381610395855185845285840190610323565b940151908281860391015260ff815116845201519181602082015201906101d2565b90610210916020815281516103cb81610314565b602082015260a06104046103ee602085015160c0604086015260e085019061037b565b6040850151848203601f1901606086015261037b565b926001600160401b03606082015116608084015260808101518284015201519060c0601f19828503019101526101d2565b61045e61049e6000610484610449366102a1565b94929391610458979197610fed565b5061198b565b926040519361046c856100f8565b6104763683610560565b855260208501523690610560565b604051809581926308c7427760e11b8352600483016110fb565b038173__$a0fe38a9a81205afccc10810b09a4d3f45$__5af49081156105285761028f946104f3946000936104ff575b506104e990604051936104e0856100f8565b84523690610676565b6020830152611118565b604051918291826103b7565b6104e9919350610521903d806000833e610519818361014e565b810190611039565b92906104ce565b61110c565b6001600160401b038116036100cf57565b359061017e8261052d565b6001600160401b0381116101135760051b60200190565b91906040838203126100cf57604051610578816100f8565b809380356105858161052d565b82526020810135906001600160401b0382116100cf57019180601f840112156100cf5782356105b381610549565b936105c1604051958661014e565b81855260208086019260051b8201019283116100cf57602001905b8282106105ec5750505060200152565b6020809183356105fb8161019e565b8152019101906105dc565b359060ff821682036100cf57565b6001600160401b03811161011357601f01601f191660200190565b81601f820112156100cf5780359061064682610614565b92610654604051948561014e565b828452602083830101116100cf57816000926020809301838601378301015290565b91906040838203126100cf576040519061068f826100f8565b819361069a81610606565b83526020810135916001600160401b0383116100cf576020926106bd920161062f565b910152565b91906040838203126100cf57604051906106db826100f8565b819380356001600160401b0381116100cf57826106f9918301610560565b83526020810135916001600160401b0383116100cf576020926106bd9201610676565b60603660031901126100cf576004356001600160401b0381116100cf576107479036906004016106c2565b6024356001600160401b0381116100cf5761028f9161076d6104f39236906004016106c2565b60443591611118565b6002111561031e57565b60403660031901126100cf576004356001600160401b0381116100cf576107ab9036906004016100d4565b6024356001600160401b0381116100cf576020916107d06107d6923690600401610293565b906111a2565b604051906107e381610776565b8152f35b6108276107f3366102a1565b9161080094939194610fed565b50600061080d3684610560565b604051809681926308c7427760e11b8352600483016110fb565b038173__$a0fe38a9a81205afccc10810b09a4d3f45$__5af480156105285761028f956104f39560009261088f575b506108646104e9929361198b565b60405193610871856100f8565b845260208401526104e060405194610888866100f8565b3690610560565b6104e992506108ab610864913d806000833e610519818361014e565b9250610856565b600311156100cf57565b359061017e826108b2565b60603660031901126100cf576004356001600160401b0381116100cf576108f29036906004016100d4565b602435906108ff826108b2565b6044356001600160401b0381116100cf5761028f926109256109a692369060040161062f565b9261092e610fed565b5061094161093c3683610af6565b611a4d565b9361094a61016f565b94855261095a836020870161133a565b604085015260808101359161096e81610314565b156109f9575b806109b461099661098b60206109d7950184610c52565b926040810190610c52565b9560405195869160208301611346565b03601f19810186528561014e565b6109cb6109bf610180565b600281529536906106c2565b602086015236906106c2565b604084015260006060840152608083015260a0820152604051918291826103b7565b60009150610974565b60a03660031901126100cf576004356001600160401b0381116100cf57610a2d9036906004016106c2565b6024356001600160401b0381116100cf57610a4c9036906004016106c2565b90604435906064356001600160e01b0319811681036100cf57608435926001600160401b0384116100cf5761028f94610a8c6104f395369060040161062f565b936113b0565b60203660031901126100cf576004356001600160401b0381116100cf57366023820112156100cf578060040135906001600160401b0382116100cf573660248360051b830101116100cf576020916024610aec9201611444565b6040519015158152f35b91909160c0818403126100cf57610b0b610180565b92610b15826108bc565b845260208201356001600160401b0381116100cf5781610b369184016106c2565b602085015260408201356001600160401b0381116100cf5781610b5a9184016106c2565b6040850152610b6b6060830161053e565b60608501526080820135608085015260a08201356001600160401b0381116100cf57610b97920161062f565b60a0830152565b60203660031901126100cf576004356001600160401b0381116100cf57366023820112156100cf578060040135610bd481610549565b91610be2604051938461014e565b8183526024602084019260051b820101903682116100cf5760248101925b828410610c235761028f610c13866115bb565b6040519081529081906020820190565b83356001600160401b0381116100cf57602091610c47839260243691870101610af6565b815201930192610c00565b903590603e19813603018212156100cf570190565b610210903690610676565b35610210816108b2565b9035603e19823603018112156100cf570190565b9035601e19823603018112156100cf5701602081359101916001600160401b0382116100cf5781360383136100cf57565b908060209392818452848401376000828201840152601f01601f1916010190565b906040610d046102109360ff610cf782610606565b1684526020810190610c90565b9190928160208201520191610cc1565b9190610d208380610c7c565b906040815260808101916001600160401b038135610d3d8161052d565b1660408301526020810135601e19823603018112156100cf5701602081359101926001600160401b0382116100cf578160051b360384136100cf578190604060608501525260a08201929060005b818110610db557505050610da784602061021095960190610c7c565b906020818403910152610ce2565b9091936020806001928735610dc98161019e565b848060a01b031681520195019101919091610d8b565b9061021091602081528135610df3816108b2565b610dfc81610314565b6020820152610e77610e46610e28610e176020860186610c7c565b60c0604086015260e0850190610d14565b610e356040860186610c7c565b848203601f19016060860152610d14565b926001600160401b036060820135610e5d8161052d565b166080840152608081013560a084015260a0810190610c90565b9160c0601f1982860301910152610cc1565b60405190610e9860208361014e565b60008252565b610eb0610eab3683610af6565b611639565b610fa057610ee6610ee1610edc610ed7610ecd6020860186610c52565b6020810190610c52565b610c67565b61171d565b6117b4565b90610ef081610c72565b610ef981610314565b610f1b57610f1792608090910135916001600160a01b0316906118ee565b9091565b6001610f2682610c72565b610f2f81610314565b148015610f85575b610f4b57505050610f46610e89565b600091565b610f1792608060405192632a52428160e21b6020850152610f73846109a68360248301610ddf565b0135926001600160a01b03169061180c565b506002610f9182610c72565b610f9a81610314565b14610f37565b630c2f41e760e41b60005260046000fd5b60405190610fbe826100f8565b6060602083600081520152565b60405190610fd8826100f8565b81610fe1610fb1565b815260206106bd610fb1565b60405190610ffa82610118565b606060a0836000815261100b610fcb565b6020820152611018610fcb565b6040820152600083820152600060808201520152565b610210903690610560565b6020818303126100cf578051906001600160401b0382116100cf5701906040828203126100cf576040519161106d836100f8565b80516110788161052d565b83526020810151906001600160401b0382116100cf57019080601f830112156100cf5781516110a681610549565b926110b4604051948561014e565b81845260208085019260051b8201019283116100cf57602001905b8282106110e157505050602082015290565b6020809183516110f08161019e565b8152019101906110cf565b906020610210928181520190610323565b6040513d6000823e3d90fd5b9091611122610fed565b506040519161113260208461014e565b600083526040519361114385610118565b600085526020850152604084015260006060840152608083015260a082015290565b909161117c61021093604084526040840190610323565b916020818403910152610323565b908160209103126100cf575180151581036100cf5790565b90611219916111e46111dc6111cc6111c66111d16111cc6111c66020880188610c52565b80610c52565b61102e565b946040810190610c52565b923690610560565b9060008173__$a0fe38a9a81205afccc10810b09a4d3f45$__936040519687928392631ccc893360e11b845260048401611165565b0381855af4908115610528576112519460009261131b575b50604051631ccc893360e11b815294600091869182918760048401611165565b0381855af4938415610528576000946112f5575b508361128a9260209260405180958194829363c836244d60e01b845260048401611165565b03915af4908115610528576000916112c6575b506112aa575b5050600090565b6020809101515191015151106112c15738806112a3565b600190565b6112e8915060203d6020116112ee575b6112e0818361014e565b81019061118a565b3861129d565b503d6112d6565b61128a929450906113126020923d806000833e610519818361014e565b94925090611265565b6000919250611333903d8084833e610519818361014e565b9190611231565b61134382610314565b52565b60806040610210936020845280516020850152602081015161136781610314565b8285015201519160608082015201906101d2565b906102109160208152602061139b835160408385015260608401906101d2565b920151906040601f19828503019101526101d2565b909361140b93611419916113c2610fed565b506040516001600160e01b03199092166020830152600482526113e660248361014e565b604051916113f560408461014e565b825260208201526040519485916020830161137b565b03601f19810185528461014e565b611421610180565b60018152936020850152604084015260006060840152608083015260a082015290565b600090815b838310156114a85760008360051b83013560be19843603018112156114a45760606001600160401b0391850101356114808161052d565b1680921015611496575b50600190920191611449565b831561148a57935050505090565b5080fd5b50505050600190565b90604060206102109360ff815116845201519181602082015201906101d2565b919082519060408152602060808201926001600160401b038151166040840152015191604060608301528251809152602060a0830193019060005b81811061152d575050506020610210939401519060208184039101526114b1565b82516001600160a01b031685526020948501949092019160010161150c565b61021091815161155b81610314565b815260a061158d61157b602085015160c0602086015260c08501906114d1565b604085015184820360408601526114d1565b926001600160401b0360608201511660608401526080810151608084015201519060a08184039101526101d2565b60405160208101918160408101916020855280518093526060820192602060608260051b8501019201936000905b82821061160c57505050611606925003601f19810183528261014e565b51902090565b91935091602080611629600193605f198a8203018652885161154c565b96019201920185939194926115e9565b805161164481610314565b61164d81610314565b1561165b5760a00151511590565b608001511590565b6020818303126100cf578051906001600160401b0382116100cf5701906060828203126100cf576040519161169783610133565b80516116a28161052d565b835260208101516001600160801b03811681036100cf5760208401526040810151906001600160401b0382116100cf570181601f820112156100cf5780516116e981610614565b926116f7604051948561014e565b818452602082840101116100cf5761171591602080850191016101af565b604082015290565b600460ff61172c835160ff1690565b16036117a357602061174991015160208082518301019101611663565b600a6001600160401b0361176483516001600160401b031690565b16036117a35760146001600160801b0361178860208401516001600160801b031690565b16036117a3576040016014815151036117a357516014015190565b63c5f8961f60e01b60005260046000fd5b60008073ffffffffffffffffffffffff0000000000000000831660ff60981b146117f9575b156117f5576117e790611a6a565b906117f0575090565b905090565b5090565b50506001600160401b03811660016117d9565b93929190600060609584156118d457805161182681610776565b61182f81610776565b61184a5750939450610f1793506001600160a01b0316611b15565b916001839592955161185b81610776565b61186481610776565b14611872575b505050509190565b9295506001600160a01b03909216925061188e91908390611b35565b93909391846118bc575b505082156118aa57913880808061186a565b805190816118b757600080fd5b602001fd5b9091506118ca929350611afd565b9190913880611898565b50939450610f1793509091506001600160a01b0316611afd565b60009060609080516118ff81610776565b61190881610776565b61194d5750505081471061193c576000918291829182916001600160a01b03165af190611933611acd565b50610210610e89565b63569d45cf60e11b60005260046000fd5b90939194926001825161195f81610776565b61196881610776565b1461197257505050565b929450610f17935090916001600160a01b031690611b35565b611a38611a2a9161199a610fb1565b50604051906bffffffffffffffffffffffff199060601b166020820152601481526119c660348261014e565b604051906119d560608361014e565b600a8252601460208301526040820152604051928391608060406020850192602084526001600160401b0381511660208501526001600160801b036020820151168285015201519160608082015201906101d2565b03601f19810183528261014e565b611a4061018f565b6004815290602082015290565b60405161160681611a2a602082019460208652604083019061154c565b6000526016600a602060006002607f60991b015afa906000519061040a8260018060a01b03169260a01c61ffff1603611ac1575b82158015611ab6575b611aad57565b60009250829150565b5060163d1415611aa7565b60009250829150611a9e565b3d15611af8573d90611ade82610614565b91611aec604051938461014e565b82523d6000602084013e565b606090565b600091829182602083519301915af190610210611acd565b919081471061193c576000928392602083519301915af190610210611acd565b602090810151604080516001600160a01b039485169381019384528082019590955284526000938493909116918390611b6f60608461014e565b611ba860246040518093611b97602083019763a9059cbb60e01b8952518092858501906101af565b81010301601f19810183528261014e565b51925af190610210611acd56fea2646970667358221220117271ff9438b10685fbc73f515bb07425f1d33c00fec5c6c67fa890a15b8e3d64736f6c634300081a0033","linkReferences":{"src/lib/SubnetIDHelper.sol":{"SubnetIDHelper":[{"start":1219,"length":20},{"start":2124,"length":20},{"start":4619,"length":20}]}}},"methodIdentifiers":{"applyType(IpcEnvelope,SubnetID)":"855f7e45","createCallMsg(IPCAddress,IPCAddress,uint256,bytes4,bytes)":"9b814ea0","createFundMsg(SubnetID,address,FvmAddress,uint256)":"99aa0eb4","createReleaseMsg(SubnetID,address,FvmAddress,uint256)":"1860845e","createResultMsg(IpcEnvelope,OutcomeType,bytes)":"9b7df85a","createTransferMsg(IPCAddress,IPCAddress,uint256)":"5404605f","execute(IpcEnvelope,SupplySource)":"0cb89862","isSorted(IpcEnvelope[])":"dd1fcec7","toHash(IpcEnvelope[])":"f43cec67"},"id":71}