{"abi":[{"type":"function","name":"propagate","inputs":[{"name":"msgCid","type":"bytes32","internalType":"bytes32"}],"outputs":[],"stateMutability":"payable"},{"type":"function","name":"sendCrossMessage","inputs":[{"name":"crossMsg","type":"tuple","internalType":"struct CrossMsg","components":[{"name":"message","type":"tuple","internalType":"struct StorableMsg","components":[{"name":"from","type":"tuple","internalType":"struct IPCAddress","components":[{"name":"subnetId","type":"tuple","internalType":"struct SubnetID","components":[{"name":"root","type":"uint64","internalType":"uint64"},{"name":"route","type":"address[]","internalType":"address[]"}]},{"name":"rawAddress","type":"tuple","internalType":"struct FvmAddress","components":[{"name":"addrType","type":"uint8","internalType":"uint8"},{"name":"payload","type":"bytes","internalType":"bytes"}]}]},{"name":"to","type":"tuple","internalType":"struct IPCAddress","components":[{"name":"subnetId","type":"tuple","internalType":"struct SubnetID","components":[{"name":"root","type":"uint64","internalType":"uint64"},{"name":"route","type":"address[]","internalType":"address[]"}]},{"name":"rawAddress","type":"tuple","internalType":"struct FvmAddress","components":[{"name":"addrType","type":"uint8","internalType":"uint8"},{"name":"payload","type":"bytes","internalType":"bytes"}]}]},{"name":"value","type":"uint256","internalType":"uint256"},{"name":"nonce","type":"uint64","internalType":"uint64"},{"name":"method","type":"bytes4","internalType":"bytes4"},{"name":"params","type":"bytes","internalType":"bytes"},{"name":"fee","type":"uint256","internalType":"uint256"}]},{"name":"wrapped","type":"bool","internalType":"bool"}]}],"outputs":[],"stateMutability":"payable"},{"type":"error","name":"CallFailed","inputs":[]},{"type":"error","name":"CannotSendCrossMsgToItself","inputs":[]},{"type":"error","name":"InsufficientFunds","inputs":[]},{"type":"error","name":"InvalidCrossMsgDstSubnet","inputs":[]},{"type":"error","name":"InvalidCrossMsgFromSubnet","inputs":[]},{"type":"error","name":"InvalidCrossMsgValue","inputs":[]},{"type":"error","name":"NotEnoughFee","inputs":[]},{"type":"error","name":"NotEnoughFunds","inputs":[]},{"type":"error","name":"NotRegisteredSubnet","inputs":[]}],"bytecode":{"object":"0x6080806040523461001657611b25908161001c8239f35b600080fdfe60406080815260048036101561001457600080fd5b600091823560e01c806325bf0db6146103065763c13175ef1461003657600080fd5b6003199060203683018113610302576001600160401b039380358581116102fe5780820194848183360301126102fa5761007c60c06100758880610486565b0135611aba565b846100878780610486565b01356100a060c06100988980610486565b0135346104a0565b036102ea576100ee846100cf6100bf6100b98a80610486565b806104c3565b6100ca3691806104c3565b610570565b875163c836244d60e01b8152868101899052928391604483019061062f565b848282030160248301526060898201918c6011541681528a85820152601254809352019060128d527fbb8a6a4669ba250d26cd7a459eca9d215f8307e33aebe50379bc5a3617ec3444908d5b8181106102c8575050508190038173__$a0fe38a9a81205afccc10810b09a4d3f45$__5af49081156102be578991610291575b50156102815784519661017f886104d8565b86358181116102755760e090840192833603011261027d578551916101a383610509565b84810135828111610279576101bd9086369184010161076b565b83526024810135828111610279576101da9086369184010161076b565b868401526044810135878401526101f360648201610545565b606084015260848101356001600160e01b03198116810361027957608084015260a48101359182116102755761023260c4926024963691840101610724565b60a0840152013560c0820152865201359081151582036102715784610267926102609261026e970152610bb8565b9280610486565b01356119a3565b80f35b8580fd5b8980fd5b8a80fd5b8880fd5b845163508847ab60e11b81528390fd5b6102b19150853d87116102b7575b6102a98183610524565b810190610617565b3861016d565b503d61029f565b86513d8b823e3d90fd5b82546001600160a01b031684528a95879550909301926001928301920161013a565b84516360ec4e6b60e11b81528390fd5b8780fd5b8680fd5b8480fd5b506020806003193601126104825761040a833580865260038352838620906103c2600b8301549261033684611aba565b60ff600c885192610346846104d8565b895161035181610509565b61035a82610955565b81526103678c8301610955565b818b01526008820180548c83015260098301546001600160401b038116606084015260a01b6001600160e01b0319166080830152976103a8600a84016108af565b60a083015260c08201528452015416151586820152610bb8565b91549087526003845286600c8682206103da81610a27565b6103e5898201610a27565b8260088201558260098201556103fd600a82016109de565b82600b82015501556119a3565b610416601454346104a0565b8061041f578480f35b804710610473578480808093335af1903d1561046d57843d9161044183610709565b9261044e86519485610524565b83523d92013e5b156104605780808480f35b51633204506f60e01b8152fd5b50610455565b50505163356680b760e01b8152fd5b8380fd5b90359060de198136030182121561049b570190565b600080fd5b919082039182116104ad57565b634e487b7160e01b600052601160045260246000fd5b903590603e198136030182121561049b570190565b604081019081106001600160401b038211176104f357604052565b634e487b7160e01b600052604160045260246000fd5b60e081019081106001600160401b038211176104f357604052565b90601f801991011681019081106001600160401b038211176104f357604052565b35906001600160401b038216820361049b57565b6001600160401b0381116104f35760051b60200190565b919060408382031261049b5760405192610589846104d8565b8361059382610545565b815260209182810135906001600160401b03821161049b57019280601f8501121561049b5783356105c381610559565b946105d16040519687610524565b818652848087019260051b82010192831161049b578401905b8282106105f8575050500152565b81356001600160a01b038116810361049b5781529084019084016105ea565b9081602091031261049b5751801515810361049b5790565b60609060408301906001600160401b03815116845260209283809201519460408382015285518094520193019160005b82811061066d575050505090565b83516001600160a01b03168552938101939281019260010161065f565b60408101906001600160401b036011541681526060602091604083820152601254809452019160126000527fbb8a6a4669ba250d26cd7a459eca9d215f8307e33aebe50379bc5a3617ec3444916000905b8282106106e9575050505090565b83546001600160a01b0316855293840193600193840193909101906106db565b6001600160401b0381116104f357601f01601f191660200190565b81601f8201121561049b5780359061073b82610709565b926107496040519485610524565b8284526020838301011161049b57816000926020809301838601378301015290565b919060408382031261049b5760405192610784846104d8565b838135916001600160401b039283811161049b57846107a4918301610570565b825260208101359083821161049b570160408185031261049b57604051936107cb856104d8565b813560ff8116810361049b578552602082013593841161049b576020936107f29201610724565b828401520152565b90604051610807816104d8565b80926001600160401b03815416825260018091019160405191828481955492838652602080960191600052856000209060005b87868210610856575050505061085292500384610524565b0152565b83546001600160a01b031685528995509093019291810191810161083a565b90600182811c921680156108a5575b602083101461088f57565b634e487b7160e01b600052602260045260246000fd5b91607f1691610884565b90604051918260008254926108c384610875565b90818452600194858116908160001461093257506001146108ef575b50506108ed92500383610524565b565b9093915060005260209081600020936000915b81831061091a5750506108ed935082010138806108df565b85548884018501529485019487945091830191610902565b9150506108ed94506020925060ff191682840152151560051b82010138806108df565b9060405191610963836104d8565b60208361096f836107fa565b81526107f2600360405194610983866104d8565b60ff6002820154168652016108af565b81811061099e575050565b60008155600101610993565b90600160401b81116104f3578154908083558181106109c857505050565b6108ed9260005260206000209182019101610993565b6109e88154610875565b90816109f2575050565b81601f60009311600114610a04575055565b908083918252610a23601f60208420940160051c840160018501610993565b5555565b60036108ed91600081556001810180546000825580610a50575b505060006002820155016109de565b610a6591600052602060002090810190610993565b3880610a41565b919082519283825260005b848110610a98575050826000602080949584010152601f8019910116010190565b602081830181015184830182015201610a77565b60406020610ae89381610ac685518584528584019061062f565b940151908281860391015260ff81511684520151918160208201520190610a6c565b90565b51906001600160a01b038216820361049b57565b906020808383031261049b5782516001600160401b039384821161049b57019260408484031261049b5760405193610b36856104d8565b8051828116810361049b5785528281015191821161049b57019180601f8401121561049b578251610b6681610559565b93610b746040519586610524565b818552838086019260051b82010192831161049b5783809101915b838310610ba0575050505082015290565b8190610bab84610aeb565b8152019101908390610b8f565b60208151015151604051630c133d1360e31b81526020600482015260208180610be4602482018661062f565b038173__$a0fe38a9a81205afccc10810b09a4d3f45$__5af49081156110be57600091611984575b506119725760405163c836244d60e01b81526040600482015260208180610c4a610c39604483018761062f565b82810360031901602484015261068a565b038173__$a0fe38a9a81205afccc10810b09a4d3f45$__5af49081156110be57600091611953575b5061194157610d309082516020815151916040518095819263f47ad7eb60e01b83526040600484015260c0610d16610ccf610cba845160e06044890152610124880190610aac565b84890151878203604319016064890152610aac565b6040840151608487015260608401516001600160401b031660a487015260808401516001600160e01b03191660c487015260a08401518682036043190160e4880152610a6c565b91015161010484015282810360031901602484015261068a565b038173__$386b5c41ce93e8b832daf8008b3d30ae09$__5af49283156110be576000936118fe575b5060009160028410156118ea578290600185146117d9575b5050506111ba5715611170575b610da86020825101515160405191829163089032d560e01b835260406004840152604483019061062f565b600319828203016024830152606060408201916001600160401b0360115416815260406020820152601254809352019060126000527fbb8a6a4669ba250d26cd7a459eca9d215f8307e33aebe50379bc5a3617ec34449060005b81811061114e575050509080600092038173__$a0fe38a9a81205afccc10810b09a4d3f45$__5af49081156110be5760009161112d575b506040516390ba52cf60e01b81526020600482018190528180610e5f602482018661062f565b038173__$a0fe38a9a81205afccc10810b09a4d3f45$__5af49081156110be576000916110fb575b506000526000602052604060002090610ec86020610ea7600485016107fa565b60405180938192630c133d1360e31b8352846004840152602483019061062f565b038173__$a0fe38a9a81205afccc10810b09a4d3f45$__5af49081156110be576000916110dc575b506110ca576003820180546001600160401b03610f1581831680606089510152611a15565b16906001600160401b031916179055600260408451015192019081549283018093116104ad57610f649260209255604051809381926304e384ff60e21b8352846004840152602483019061062f565b038173__$a0fe38a9a81205afccc10810b09a4d3f45$__5af480156110be57600090611062575b7f392fae29c67f3b47710cb5b84d7a6fd08e0155a4f22565971f7159f12c6f70969150604051809160208252602085519560408285015260c061103e610fde895160e06060890152610140880190611a2d565b610ff9858b015191605f1992838a83030160808b0152611a2d565b9060408b015160a08901526001600160401b0360608c0151168489015263ffffffff60e01b60808c01511660e089015260a08b01519088830301610100890152610a6c565b9701516101208501520151151560408301526001600160a01b0316930390a2600090565b6020823d6020116110b6575b8161107b60209383610524565b810103126110b357506110ae7f392fae29c67f3b47710cb5b84d7a6fd08e0155a4f22565971f7159f12c6f709691610aeb565b610f8b565b80fd5b3d915061106e565b6040513d6000823e3d90fd5b604051630e991abd60e41b8152600490fd5b6110f5915060203d6020116102b7576102a98183610524565b38610ef0565b906020823d602011611125575b8161111560209383610524565b810103126110b357505138610e87565b3d9150611108565b611148913d8091833e6111408183610524565b810190610aff565b38610e39565b82546001600160a01b0316845285945060209093019260019283019201610e02565b6015546001600160401b038160481c166001600160401b0381146104ad57600167ffffffffffffffff60481b910160481b169067ffffffffffffffff60481b191617601555610d7d565b50906001600160401b036016541680156117c3576001600160401b036111e38282431604611a15565b16026001600160401b0381169081036104ad576001600160401b0360155460081c16606084510152600052600a602052604060002091825492600160401b8410156104f357600184018082558410156117ad576000526020600020815193845180516001600160401b038151166001600160401b0319600d85028601541617600d840285015560206001600d8502860101910151908151916001600160401b0383116104f35760209061129684846109aa565b0190600052602060002060005b8381106117905750505050602090816002600d85028601019101519060ff82511660ff1982541617905501518051906001600160401b0382116104f35781906112f46003600d860287010154610875565b601f8111611756575b50602090601f83116001146116da576000926116cf575b50508160011b916000199060031b1c1916176003600d8302840101555b60208581015180518051600d8502860160048101805467ffffffffffffffff19166001600160401b0393841617905591909301518051929360059092019183116104f35760209061138284846109aa565b0190600052602060002060005b8381106116b25750505050602090816006600d85028601019101519060ff82511660ff1982541617905501518051906001600160401b0382116104f35781906113e06007600d860287010154610875565b601f8111611678575b50602090601f83116001146115fc576000926115f1575b50508160011b916000199060031b1c1916176007600d8302840101555b6040850151600d820283016008810191909155606086015160098201805460808901516bffffffffffffffffffffffff199091166001600160401b039384161760a091821c6bffffffff000000000000000016179091558701518051909792600a019181116104f3576114908254610875565b601f81116115b4575b506020601f82116001146115405792600c9594928260c093600d9660409b9c600092611535575b50508160011b916000199060031b1c19161790555b0151600b838302850101550201016020820151151560ff8019835416911617905560155468ffffffffffffffff006115186001600160401b038360081c16611a15565b60081b169068ffffffffffffffff00191617601555510151151590565b0151905038806114c0565b601f198216988360005260206000209960005b81811061159c57508360409a9b600d9794600c9a99979460c09760019510611583575b505050811b0190556114d5565b015160001960f88460031b161c19169055388080611576565b838301518c556001909b019a60209384019301611553565b6115e190836000526020600020601f840160051c810191602085106115e7575b601f0160051c0190610993565b38611499565b90915081906115d4565b015190503880611400565b92506007600d85028601016000526020600020906000935b601f198416851061165d576001945083601f19811610611644575b505050811b016007600d83028401015561141d565b015160001960f88460031b161c1916905538808061162f565b81810151835560209485019460019093019290910190611614565b6116ac906007600d87028801016000526020600020601f850160051c810191602086106115e757601f0160051c0190610993565b386113e9565b82516001600160a01b03168183015560209092019160010161138f565b015190503880611314565b92506003600d85028601016000526020600020906000935b601f198416851061173b576001945083601f19811610611722575b505050811b016003600d830284010155611331565b015160001960f88460031b161c1916905538808061170d565b818101518355602094850194600190930192909101906116f2565b61178a906003600d87028801016000526020600020601f850160051c810191602086106115e757601f0160051c0190610993565b386112fd565b82516001600160a01b0316818301556020909201916001016112a3565b634e487b7160e01b600052603260045260246000fd5b634e487b7160e01b600052601260045260246000fd5b611803906118156040519485938493631ccc893360e11b855260406004860152604485019061062f565b8381036003190160248501529061062f565b038173__$a0fe38a9a81205afccc10810b09a4d3f45$__5af49081156118df57610c3961186a9260209285916118c5575b50604051938492839263c836244d60e01b845260406004850152604484019061062f565b038173__$a0fe38a9a81205afccc10810b09a4d3f45$__5af49182156118b9579161189a575b5015388181610d70565b6118b3915060203d6020116102b7576102a98183610524565b38611890565b604051903d90823e3d90fd5b6118d991503d8087833e6111408183610524565b38611846565b6040513d84823e3d90fd5b634e487b7160e01b83526021600452602483fd5b6020939193813d602011611939575b8161191a60209383610524565b8101031261193557519060028210156110b357509138610d58565b5080fd5b3d915061190d565b604051632f3335ff60e21b8152600490fd5b61196c915060203d6020116102b7576102a98183610524565b38610c72565b60405163c5f563eb60e01b8152600490fd5b61199d915060203d6020116102b7576102a98183610524565b38610c0c565b906119ab5750565b804710611a035760008080809360635af13d156119fe573d6119cc81610709565b906119da6040519283610524565b8152600060203d92013e5b156119ec57565b604051633204506f60e01b8152600490fd5b6119e5565b60405163356680b760e01b8152600490fd5b9060016001600160401b03809316019182116104ad57565b91908251906040815260808101936001600160401b038351166040830152602080930151946040606084015285518091528360a0840196019060005b818110611a9d5750505093604083819381610ae897980151908281860391015260ff81511684520151938201520190610a6c565b82516001600160a01b031688529685019691850191600101611a69565b6014548110611add573410611acb57565b604051631036b5ad60e31b8152600490fd5b6040516334472ad760e11b8152600490fdfea2646970667358221220eaad32cd39fe77be8fd515fc970cb90fa2469dbfae5ed1033d63d44bead41bef64736f6c63430008130033","linkReferences":{"src/lib/StorableMsgHelper.sol":{"StorableMsgHelper":[{"start":3408,"length":20}]},"src/lib/SubnetIDHelper.sol":{"SubnetIDHelper":[{"start":358,"length":20},{"start":3076,"length":20},{"start":3178,"length":20},{"start":3633,"length":20},{"start":3711,"length":20},{"start":3816,"length":20},{"start":3972,"length":20},{"start":6197,"length":20},{"start":6282,"length":20}]}}},"methodIdentifiers":{"propagate(bytes32)":"25bf0db6","sendCrossMessage(((((uint64,address[]),(uint8,bytes)),((uint64,address[]),(uint8,bytes)),uint256,uint64,bytes4,bytes,uint256),bool))":"c13175ef"},"id":46}