{"abi":[{"type":"function","name":"activeValidatorsLimit","inputs":[],"outputs":[{"name":"","type":"uint16","internalType":"uint16"}],"stateMutability":"view"},{"type":"function","name":"bootstrapped","inputs":[],"outputs":[{"name":"","type":"bool","internalType":"bool"}],"stateMutability":"view"},{"type":"function","name":"bottomUpCheckPeriod","inputs":[],"outputs":[{"name":"","type":"uint256","internalType":"uint256"}],"stateMutability":"view"},{"type":"function","name":"bottomUpCheckpointAtEpoch","inputs":[{"name":"epoch","type":"uint256","internalType":"uint256"}],"outputs":[{"name":"exists","type":"bool","internalType":"bool"},{"name":"checkpoint","type":"tuple","internalType":"struct BottomUpCheckpoint","components":[{"name":"subnetID","type":"tuple","internalType":"struct SubnetID","components":[{"name":"root","type":"uint64","internalType":"uint64"},{"name":"route","type":"address[]","internalType":"address[]"}]},{"name":"blockHeight","type":"uint256","internalType":"uint256"},{"name":"blockHash","type":"bytes32","internalType":"bytes32"},{"name":"nextConfigurationNumber","type":"uint64","internalType":"uint64"},{"name":"msgs","type":"tuple[]","internalType":"struct IpcEnvelope[]","components":[{"name":"kind","type":"uint8","internalType":"enum IpcMsgKind"},{"name":"to","type":"tuple","internalType":"struct IPCAddress","components":[{"name":"subnetId","type":"tuple","internalType":"struct SubnetID","components":[{"name":"root","type":"uint64","internalType":"uint64"},{"name":"route","type":"address[]","internalType":"address[]"}]},{"name":"rawAddress","type":"tuple","internalType":"struct FvmAddress","components":[{"name":"addrType","type":"uint8","internalType":"uint8"},{"name":"payload","type":"bytes","internalType":"bytes"}]}]},{"name":"from","type":"tuple","internalType":"struct IPCAddress","components":[{"name":"subnetId","type":"tuple","internalType":"struct SubnetID","components":[{"name":"root","type":"uint64","internalType":"uint64"},{"name":"route","type":"address[]","internalType":"address[]"}]},{"name":"rawAddress","type":"tuple","internalType":"struct FvmAddress","components":[{"name":"addrType","type":"uint8","internalType":"uint8"},{"name":"payload","type":"bytes","internalType":"bytes"}]}]},{"name":"nonce","type":"uint64","internalType":"uint64"},{"name":"value","type":"uint256","internalType":"uint256"},{"name":"message","type":"bytes","internalType":"bytes"}]}]}],"stateMutability":"view"},{"type":"function","name":"bottomUpCheckpointHashAtEpoch","inputs":[{"name":"epoch","type":"uint256","internalType":"uint256"}],"outputs":[{"name":"","type":"bool","internalType":"bool"},{"name":"","type":"bytes32","internalType":"bytes32"}],"stateMutability":"view"},{"type":"function","name":"consensus","inputs":[],"outputs":[{"name":"","type":"uint8","internalType":"enum ConsensusType"}],"stateMutability":"view"},{"type":"function","name":"crossMsgsHash","inputs":[{"name":"messages","type":"tuple[]","internalType":"struct IpcEnvelope[]","components":[{"name":"kind","type":"uint8","internalType":"enum IpcMsgKind"},{"name":"to","type":"tuple","internalType":"struct IPCAddress","components":[{"name":"subnetId","type":"tuple","internalType":"struct SubnetID","components":[{"name":"root","type":"uint64","internalType":"uint64"},{"name":"route","type":"address[]","internalType":"address[]"}]},{"name":"rawAddress","type":"tuple","internalType":"struct FvmAddress","components":[{"name":"addrType","type":"uint8","internalType":"uint8"},{"name":"payload","type":"bytes","internalType":"bytes"}]}]},{"name":"from","type":"tuple","internalType":"struct IPCAddress","components":[{"name":"subnetId","type":"tuple","internalType":"struct SubnetID","components":[{"name":"root","type":"uint64","internalType":"uint64"},{"name":"route","type":"address[]","internalType":"address[]"}]},{"name":"rawAddress","type":"tuple","internalType":"struct FvmAddress","components":[{"name":"addrType","type":"uint8","internalType":"uint8"},{"name":"payload","type":"bytes","internalType":"bytes"}]}]},{"name":"nonce","type":"uint64","internalType":"uint64"},{"name":"value","type":"uint256","internalType":"uint256"},{"name":"message","type":"bytes","internalType":"bytes"}]}],"outputs":[{"name":"","type":"bytes32","internalType":"bytes32"}],"stateMutability":"pure"},{"type":"function","name":"genesisBalances","inputs":[],"outputs":[{"name":"","type":"address[]","internalType":"address[]"},{"name":"","type":"uint256[]","internalType":"uint256[]"}],"stateMutability":"view"},{"type":"function","name":"genesisCircSupply","inputs":[],"outputs":[{"name":"","type":"uint256","internalType":"uint256"}],"stateMutability":"view"},{"type":"function","name":"genesisValidators","inputs":[],"outputs":[{"name":"","type":"tuple[]","internalType":"struct Validator[]","components":[{"name":"weight","type":"uint256","internalType":"uint256"},{"name":"addr","type":"address","internalType":"address"},{"name":"metadata","type":"bytes","internalType":"bytes"}]}],"stateMutability":"view"},{"type":"function","name":"getActiveValidatorsNumber","inputs":[],"outputs":[{"name":"","type":"uint16","internalType":"uint16"}],"stateMutability":"view"},{"type":"function","name":"getBootstrapNodes","inputs":[],"outputs":[{"name":"","type":"string[]","internalType":"string[]"}],"stateMutability":"view"},{"type":"function","name":"getConfigurationNumbers","inputs":[],"outputs":[{"name":"","type":"uint64","internalType":"uint64"},{"name":"","type":"uint64","internalType":"uint64"}],"stateMutability":"view"},{"type":"function","name":"getParent","inputs":[],"outputs":[{"name":"","type":"tuple","internalType":"struct SubnetID","components":[{"name":"root","type":"uint64","internalType":"uint64"},{"name":"route","type":"address[]","internalType":"address[]"}]}],"stateMutability":"view"},{"type":"function","name":"getPower","inputs":[{"name":"validator","type":"address","internalType":"address"}],"outputs":[{"name":"","type":"uint256","internalType":"uint256"}],"stateMutability":"view"},{"type":"function","name":"getTotalCollateral","inputs":[],"outputs":[{"name":"","type":"uint256","internalType":"uint256"}],"stateMutability":"view"},{"type":"function","name":"getTotalConfirmedCollateral","inputs":[],"outputs":[{"name":"","type":"uint256","internalType":"uint256"}],"stateMutability":"view"},{"type":"function","name":"getTotalValidatorCollateral","inputs":[{"name":"validator","type":"address","internalType":"address"}],"outputs":[{"name":"","type":"uint256","internalType":"uint256"}],"stateMutability":"view"},{"type":"function","name":"getTotalValidatorsNumber","inputs":[],"outputs":[{"name":"","type":"uint16","internalType":"uint16"}],"stateMutability":"view"},{"type":"function","name":"getValidator","inputs":[{"name":"validatorAddress","type":"address","internalType":"address"}],"outputs":[{"name":"validator","type":"tuple","internalType":"struct ValidatorInfo","components":[{"name":"federatedPower","type":"uint256","internalType":"uint256"},{"name":"confirmedCollateral","type":"uint256","internalType":"uint256"},{"name":"totalCollateral","type":"uint256","internalType":"uint256"},{"name":"metadata","type":"bytes","internalType":"bytes"}]}],"stateMutability":"view"},{"type":"function","name":"ipcGatewayAddr","inputs":[],"outputs":[{"name":"","type":"address","internalType":"address"}],"stateMutability":"view"},{"type":"function","name":"isActiveValidator","inputs":[{"name":"validator","type":"address","internalType":"address"}],"outputs":[{"name":"","type":"bool","internalType":"bool"}],"stateMutability":"view"},{"type":"function","name":"isWaitingValidator","inputs":[{"name":"validator","type":"address","internalType":"address"}],"outputs":[{"name":"","type":"bool","internalType":"bool"}],"stateMutability":"view"},{"type":"function","name":"killed","inputs":[],"outputs":[{"name":"","type":"bool","internalType":"bool"}],"stateMutability":"view"},{"type":"function","name":"lastBottomUpCheckpointHeight","inputs":[],"outputs":[{"name":"","type":"uint256","internalType":"uint256"}],"stateMutability":"view"},{"type":"function","name":"majorityPercentage","inputs":[],"outputs":[{"name":"","type":"uint8","internalType":"uint8"}],"stateMutability":"view"},{"type":"function","name":"minActivationCollateral","inputs":[],"outputs":[{"name":"","type":"uint256","internalType":"uint256"}],"stateMutability":"view"},{"type":"function","name":"minValidators","inputs":[],"outputs":[{"name":"","type":"uint64","internalType":"uint64"}],"stateMutability":"view"},{"type":"function","name":"permissionMode","inputs":[],"outputs":[{"name":"","type":"uint8","internalType":"enum PermissionMode"}],"stateMutability":"view"},{"type":"function","name":"powerScale","inputs":[],"outputs":[{"name":"","type":"int8","internalType":"int8"}],"stateMutability":"view"},{"type":"function","name":"supplySource","inputs":[],"outputs":[{"name":"supply","type":"tuple","internalType":"struct SupplySource","components":[{"name":"kind","type":"uint8","internalType":"enum SupplyKind"},{"name":"tokenAddress","type":"address","internalType":"address"}]}],"stateMutability":"view"}],"bytecode":{"object":"0x608080604052346015576115c3908161001b8239f35b600080fdfe608080604052600436101561001357600080fd5b60003560e01c90816306c4685314610c30575080631597bf7e14610bec5780631904bb2e14610b185780631f3a0e4114610af2578063332a5ac9146104835780633354c3e114610acd57806335142c8c14610aaa57806338a210b314610a7a57806340550a1c14610a3b5780634b0694e2146109e35780634b27aa72146109a857806352d182d11461095a578063599c7bd1146109365780635dd9147c146108c457806372d0a0e0146108a657806380875df71461083557806380f760211461078f5780638ef3f7611461074c578063903e693014610619578063948628a9146105fb5780639754b29e1461057b5780639e33bd021461055d578063ad81e4d614610539578063c5ab224114610512578063c7cda762146104f0578063cfca2824146104c7578063d081be0314610488578063d6eb591014610483578063d92e8f1214610318578063e02d971b146101a35763f0cf6c961461017457600080fd5b3461019e57600036600319011261019e57602060ff600a54166040519061019a81610d26565b8152f35b600080fd5b3461019e57602036600319011261019e576004356001600160401b03811161019e573660238201121561019e578060040135906001600160401b03821161019e578160051b366024828401011161019e57916040519160208301938260408501602087525260608085019185010192602483019260009060e219813603015b83831061024b5760208989610240818b03601f198101835282610ec1565b519020604051908152f35b909192939495605f1988820301865286358281121561019e5783019060248201803590600382101561019e576001936020936102fc61030a938561028f8897610d26565b835260c46102d06102b66102a66044880185611420565b60c08a88015260c087019061149a565b6102c36064880185611420565b868203604088015261149a565b946001600160401b036102e560848301611434565b16606086015260a481013560808601520190611448565b9160a0818503910152611479565b980196019493019190610222565b3461019e57600036600319011261019e57601b5461033581611027565b906103436040519283610ec1565b808252602082018091601b6000527f3ad8aa4f87544323a9d1e5dd902f40c356527a7955687113db5f9a85ad579dc1916000905b82821061040757848660405191829160208301906020845251809152604083019060408160051b85010192916000905b8282106103b657505050500390f35b919360019193955060206103f78192603f198a8203018652606060408a5180518452878060a01b038682015116868501520151918160408201520190610c61565b96019201920185949391926103a7565b604051606081018181106001600160401b0382111761046d5760019260039260209260405287548152848060a01b0385890154168382015260405161045a816104538160028d01610ee2565b0382610ec1565b6040820152815201940191019092610377565b634e487b7160e01b600052604160045260246000fd5b610ca2565b3461019e57602036600319011261019e576104a1610c4b565b60018060a01b03166000526011602052602061ffff604060002054161515604051908152f35b3461019e57600036600319011261019e576005546040516001600160a01b039091168152602090f35b3461019e57600036600319011261019e57602061ffff600d5416604051908152f35b3461019e57600036600319011261019e5760206001600160401b0360065416604051908152f35b3461019e57600036600319011261019e57602060055460e81c60000b604051908152f35b3461019e57600036600319011261019e576020600254604051908152f35b3461019e57600036600319011261019e57610594611307565b6040518091602082016020835281518091526040830190602060408260051b8601019301916000905b8282106105cc57505050500390f35b919360019193955060206105eb8192603f198a82030186528851610c61565b96019201920185949391926105bd565b3461019e57600036600319011261019e576020600054604051908152f35b3461019e57600036600319011261019e57601d5461063681611027565b906106446040519283610ec1565b808252601f1961065382611027565b0136602084013761066381611027565b6106706040519182610ec1565b81815261067c82611027565b6020820190601f190136823760005b838110156106f457601d60009081527f6d4407e7be21f808e6509aa9fa9143369579dd7d760fe20a2c09680fc146134f820154600192916040916001600160a01b0316806106d9858b6112dd565b528152601c60205220546106ed82866112dd565b520161068b565b50906107129392506020604051948594604086526040860190610cc0565b9184830382860152519182815201919060005b818110610733575050500390f35b8251845285945060209384019390920191600101610725565b3461019e57600036600319011261019e5760ff60055460f01c166040516001821015610779576020918152f35b634e487b7160e01b600052602160045260246000fd5b3461019e57600036600319011261019e576107a8610f91565b506040516107b581610e8b565b6001600160401b0360085416815260405190816020600954918281520190600960005260206000209060005b8181106108165761081285876107f981880382610ec1565b6020820152604051918291602083526020830190610cfd565b0390f35b82546001600160a01b03168452602090930192600192830192016107e1565b3461019e57600036600319011261019e576000602060405161085681610e8b565b828152015260405161086781610e8b565b60075460ff81169060028210156107795781835260081c6001600160a01b03908116602093840190815260408051938452905190911692820192909252f35b3461019e57600036600319011261019e576020600154604051908152f35b3461019e57602036600319011261019e5760206108df610c4b565b600160ff600a54166108f081610d26565b03610916576001600160a01b03166000908152600c60205260409020545b604051908152f35b6001600160a01b03166000908152600c602052604090206001015461090e565b3461019e57600036600319011261019e57602060ff60055460e01c16604051908152f35b3461019e57600036600319011261019e5761ffff6010541661ffff600d54160161ffff81116109925760209061ffff60405191168152f35b634e487b7160e01b600052601160045260246000fd5b3461019e57602036600319011261019e576109c460043561108e565b9061081260405192839215158352604060208401526040830190610d6c565b3461019e57602036600319011261019e576040610a0160043561108e565b8251610a2a81610a1c60208201946020865287830190610d6c565b03601f198101835282610ec1565b519020825191151582526020820152f35b3461019e57602036600319011261019e57610a54610c4b565b60018060a01b0316600052600e602052602061ffff604060002054161515604051908152f35b3461019e57600036600319011261019e5760406013546001600160401b038251918181168352831c166020820152f35b3461019e57600036600319011261019e57602060055460f81c6040519015158152f35b3461019e57600036600319011261019e57602061ffff600a5460081c16604051908152f35b3461019e57600036600319011261019e57602060ff60065460401c166040519015158152f35b3461019e57602036600319011261019e57610b6f610b34610c4b565b606080604051610b4381610e70565b600081526000602082015260006040820152015260018060a01b0316600052600c602052604060002090565b604051610b7b81610e70565b81548152610812600360018401549360208401948552610bb860028201549160408601928352610bb16040518095819301610ee2565b0383610ec1565b60608401918252604051948594602086525160208601525160408501525160608401525160808084015260a0830190610c61565b3461019e57602036600319011261019e5760206002610c26610c0c610c4b565b6001600160a01b03166000908152600c6020526040902090565b0154604051908152f35b3461019e57600036600319011261019e576020906003548152f35b600435906001600160a01b038216820361019e57565b919082519283825260005b848110610c8d575050826000602080949584010152601f8019910116010190565b80602080928401015182828601015201610c6c565b3461019e57600036600319011261019e576020600b54604051908152f35b906020808351928381520192019060005b818110610cde5750505090565b82516001600160a01b0316845260209384019390920191600101610cd1565b9060406020610d23936001600160401b0381511684520151918160208201520190610cc0565b90565b6003111561077957565b60406020610d239381610d4a855185845285840190610cfd565b940151908281860391015260ff81511684520151918160208201520190610c61565b6080610d81825160a0855260a0850190610cfd565b9160208101516020850152604081015160408501526001600160401b0360608201511660608501520151916080818303910152815180825260208201916020808360051b8301019401926000915b838310610dde57505050505090565b9091929394602080610e61600193601f198682030187528951908151610e0381610d26565b815260a0610e33610e218685015160c08886015260c0850190610d30565b60408501518482036040860152610d30565b926001600160401b0360608201511660608401526080810151608084015201519060a0818403910152610c61565b97019301930191939290610dcf565b608081019081106001600160401b0382111761046d57604052565b604081019081106001600160401b0382111761046d57604052565b60a081019081106001600160401b0382111761046d57604052565b90601f801991011681019081106001600160401b0382111761046d57604052565b600092918154918260011c92600181168015610f87575b602085108114610f7157848452908115610f545750600114610f1a57505050565b60009081526020812093945091925b838310610f3a575060209250010190565b600181602092949394548385870101520191019190610f29565b915050602093945060ff929192191683830152151560051b010190565b634e487b7160e01b600052602260045260246000fd5b93607f1693610ef9565b60405190610f9e82610e8b565b6060602083600081520152565b90604051610fb881610e8b565b600181936001600160401b0381541683520190604051809283916020825491828152019160005260206000209060005b8181106110055750505060209291611001910384610ec1565b0152565b82546001600160a01b0316845286945060209093019260019283019201610fe8565b6001600160401b03811161046d5760051b60200190565b906040519161104c83610e8b565b60208361105883610fab565b815260036110866040519461106c86610e8b565b60ff60028201541686526104536040518094819301610ee2565b828401520152565b6060608060405161109e81610ea6565b6110a6610f91565b815260006020820152600060408201526000838201520152600052601a6020526040600020906005604051926110db84610ea6565b6110e481610fab565b845260028101546020850152600381015460408501526001600160401b0360048201541660608501520180549061111a82611027565b916111286040519384610ec1565b80835260208301916000526020600020916000905b8282106112445750505050608083015281516040518091630c133d1360e31b825260206004830152602060648301916001600160401b03815116602485015201519060406044840152815180915260206084840192019060005b818110611222575050509080602092038173__$a0fe38a9a81205afccc10810b09a4d3f45$__5af4908115611216576000916111d4575b50159190565b6020813d60201161120e575b816111ed60209383610ec1565b8101031261120a57519081151582036112075750386111ce565b80fd5b5080fd5b3d91506111e0565b6040513d6000823e3d90fd5b82516001600160a01b0316845285945060209384019390920191600101611197565b60405160c081018181106001600160401b0382111761046d57600192600c9260209260405260ff88541661127781610d26565b815261128485890161103e565b838201526112946005890161103e565b60408201526001600160401b036009890154166060820152600a88015460808201526040516112ca8161045381600b8d01610ee2565b60a082015281520194019101909261113d565b80518210156112f15760209160051b010190565b634e487b7160e01b600052603260045260246000fd5b606060185461131581611027565b916113236040519384610ec1565b818352601f1961133283611027565b019060005b82811061141057505050801561140c57604051602081838152016018600052817fb13d2d76d1f4b7be834882e410b3e3a8afaf69f83600ae24db354391d2378d2e9160005b8581106113f2575061139092500382610ec1565b60005b8281106113a05750505090565b6001906001600160a01b036113b582856112dd565b511660005260176020526104536113d6604060002060405192838092610ee2565b6113e082876112dd565b526113eb81866112dd565b5001611393565b91506001602081928554815201930191019183919261137c565b5090565b8082602080938801015201611337565b9035603e198236030181121561019e570190565b35906001600160401b038216820361019e57565b9035601e198236030181121561019e5701602081359101916001600160401b03821161019e57813603831361019e57565b908060209392818452848401376000828201840152601f01601f1916010190565b6114a48180611420565b906040835260808301916001600160401b036114bf82611434565b1660408501526020810135601e198236030181121561019e5701602081359101926001600160401b03821161019e578160051b3603841361019e578190604060608701525260a0840192906000905b80821061156357505050806020611526920190611420565b91602081830391015281359160ff831680930361019e57611553604091610d239484526020810190611448565b9190928160208201520191611479565b90919384359060018060a01b03821680920361019e5760208160019382935201950192019061150e56fea2646970667358221220d69b00f0489486312b12f28208c92be6de2e3f28c847460f6faf3abe7091f55a64736f6c634300081a0033","linkReferences":{"src/lib/SubnetIDHelper.sol":{"SubnetIDHelper":[{"start":4549,"length":20}]}}},"methodIdentifiers":{"activeValidatorsLimit()":"3354c3e1","bootstrapped()":"35142c8c","bottomUpCheckPeriod()":"06c46853","bottomUpCheckpointAtEpoch(uint256)":"4b27aa72","bottomUpCheckpointHashAtEpoch(uint256)":"4b0694e2","consensus()":"8ef3f761","crossMsgsHash((uint8,((uint64,address[]),(uint8,bytes)),((uint64,address[]),(uint8,bytes)),uint64,uint256,bytes)[])":"e02d971b","genesisBalances()":"903e6930","genesisCircSupply()":"948628a9","genesisValidators()":"d92e8f12","getActiveValidatorsNumber()":"c7cda762","getBootstrapNodes()":"9754b29e","getConfigurationNumbers()":"38a210b3","getParent()":"80f76021","getPower(address)":"5dd9147c","getTotalCollateral()":"d6eb5910","getTotalConfirmedCollateral()":"332a5ac9","getTotalValidatorCollateral(address)":"1597bf7e","getTotalValidatorsNumber()":"52d182d1","getValidator(address)":"1904bb2e","ipcGatewayAddr()":"cfca2824","isActiveValidator(address)":"40550a1c","isWaitingValidator(address)":"d081be03","killed()":"1f3a0e41","lastBottomUpCheckpointHeight()":"72d0a0e0","majorityPercentage()":"599c7bd1","minActivationCollateral()":"9e33bd02","minValidators()":"c5ab2241","permissionMode()":"f0cf6c96","powerScale()":"ad81e4d6","supplySource()":"80875df7"},"id":95}