{"abi":[{"type":"function","name":"addBootstrapNode","inputs":[{"name":"netAddress","type":"string","internalType":"string"}],"outputs":[],"stateMutability":"nonpayable"},{"type":"function","name":"join","inputs":[{"name":"publicKey","type":"bytes","internalType":"bytes"}],"outputs":[],"stateMutability":"payable"},{"type":"function","name":"kill","inputs":[],"outputs":[],"stateMutability":"nonpayable"},{"type":"function","name":"leave","inputs":[],"outputs":[],"stateMutability":"nonpayable"},{"type":"function","name":"preFund","inputs":[],"outputs":[],"stateMutability":"payable"},{"type":"function","name":"preRelease","inputs":[{"name":"amount","type":"uint256","internalType":"uint256"}],"outputs":[],"stateMutability":"nonpayable"},{"type":"function","name":"setFederatedPower","inputs":[{"name":"validators","type":"address[]","internalType":"address[]"},{"name":"publicKeys","type":"bytes[]","internalType":"bytes[]"},{"name":"powers","type":"uint256[]","internalType":"uint256[]"}],"outputs":[],"stateMutability":"nonpayable"},{"type":"function","name":"stake","inputs":[],"outputs":[],"stateMutability":"payable"},{"type":"function","name":"unstake","inputs":[{"name":"amount","type":"uint256","internalType":"uint256"}],"outputs":[],"stateMutability":"nonpayable"},{"type":"event","name":"ActiveValidatorCollateralUpdated","inputs":[{"name":"validator","type":"address","indexed":false,"internalType":"address"},{"name":"newPower","type":"uint256","indexed":false,"internalType":"uint256"}],"anonymous":false},{"type":"event","name":"ActiveValidatorLeft","inputs":[{"name":"validator","type":"address","indexed":false,"internalType":"address"}],"anonymous":false},{"type":"event","name":"ActiveValidatorReplaced","inputs":[{"name":"oldValidator","type":"address","indexed":false,"internalType":"address"},{"name":"newValidator","type":"address","indexed":false,"internalType":"address"}],"anonymous":false},{"type":"event","name":"NewActiveValidator","inputs":[{"name":"validator","type":"address","indexed":false,"internalType":"address"},{"name":"power","type":"uint256","indexed":false,"internalType":"uint256"}],"anonymous":false},{"type":"event","name":"NewStakingChangeRequest","inputs":[{"name":"op","type":"uint8","indexed":false,"internalType":"enum StakingOperation"},{"name":"validator","type":"address","indexed":false,"internalType":"address"},{"name":"payload","type":"bytes","indexed":false,"internalType":"bytes"},{"name":"configurationNumber","type":"uint64","indexed":false,"internalType":"uint64"}],"anonymous":false},{"type":"event","name":"NewWaitingValidator","inputs":[{"name":"validator","type":"address","indexed":false,"internalType":"address"},{"name":"power","type":"uint256","indexed":false,"internalType":"uint256"}],"anonymous":false},{"type":"event","name":"Paused","inputs":[{"name":"account","type":"address","indexed":false,"internalType":"address"}],"anonymous":false},{"type":"event","name":"SubnetBootstrapped","inputs":[{"name":"","type":"tuple[]","indexed":false,"internalType":"struct Validator[]","components":[{"name":"weight","type":"uint256","internalType":"uint256"},{"name":"addr","type":"address","internalType":"address"},{"name":"metadata","type":"bytes","internalType":"bytes"}]}],"anonymous":false},{"type":"event","name":"Unpaused","inputs":[{"name":"account","type":"address","indexed":false,"internalType":"address"}],"anonymous":false},{"type":"event","name":"WaitingValidatorCollateralUpdated","inputs":[{"name":"validator","type":"address","indexed":false,"internalType":"address"},{"name":"newPower","type":"uint256","indexed":false,"internalType":"uint256"}],"anonymous":false},{"type":"event","name":"WaitingValidatorLeft","inputs":[{"name":"validator","type":"address","indexed":false,"internalType":"address"}],"anonymous":false},{"type":"error","name":"AddressInsufficientBalance","inputs":[{"name":"account","type":"address","internalType":"address"}]},{"type":"error","name":"AddressShouldBeValidator","inputs":[]},{"type":"error","name":"CannotReleaseZero","inputs":[]},{"type":"error","name":"CollateralIsZero","inputs":[]},{"type":"error","name":"DuplicatedGenesisValidator","inputs":[]},{"type":"error","name":"EmptyAddress","inputs":[]},{"type":"error","name":"EnforcedPause","inputs":[]},{"type":"error","name":"ExpectedPause","inputs":[]},{"type":"error","name":"FailedInnerCall","inputs":[]},{"type":"error","name":"InvalidFederationPayload","inputs":[]},{"type":"error","name":"InvalidPublicKeyLength","inputs":[]},{"type":"error","name":"MethodNotAllowed","inputs":[{"name":"reason","type":"string","internalType":"string"}]},{"type":"error","name":"NotAllValidatorsHaveLeft","inputs":[]},{"type":"error","name":"NotEnoughBalance","inputs":[]},{"type":"error","name":"NotEnoughCollateral","inputs":[]},{"type":"error","name":"NotEnoughFunds","inputs":[]},{"type":"error","name":"NotEnoughGenesisValidators","inputs":[]},{"type":"error","name":"NotOwner","inputs":[]},{"type":"error","name":"NotOwnerOfPublicKey","inputs":[]},{"type":"error","name":"NotValidator","inputs":[{"name":"","type":"address","internalType":"address"}]},{"type":"error","name":"PQDoesNotContainAddress","inputs":[]},{"type":"error","name":"PQEmpty","inputs":[]},{"type":"error","name":"ReentrancyError","inputs":[]},{"type":"error","name":"SubnetAlreadyBootstrapped","inputs":[]},{"type":"error","name":"SubnetAlreadyKilled","inputs":[]},{"type":"error","name":"SubnetNotBootstrapped","inputs":[]},{"type":"error","name":"WithdrawExceedingCollateral","inputs":[]}],"bytecode":{"object":"0x6080806040523460155761363c908161001b8239f35b600080fdfe6080604052600436101561001257600080fd5b6000803560e01c80630b7fbe6014610f8557806310fd426114610e165780632e17de7814610dc05780633a4b66f114610cd257806341c0e1b514610bee5780636170b1621461084d57806366783c9b1461075f578063d66d9e19146106ea5763da5d09ee1461008057600080fd5b34610500576060366003190112610500576004356001600160401b0381116106e6576100b09036906004016110fd565b906024356001600160401b0381116106e2576100d09036906004016110fd565b6044356001600160401b0381116106de576100ef9036906004016110fd565b9190946100fa61143e565b7f806e0cbb9fce296bbc336a48f42bf1dbc69722d18d90d6fe705b7582c2bb4bd5546001600160a01b031633036106cf5760ff600a541660038110156106bb5760010361068b5782810361067c5781810361067c5760055460f81c1561044357865b81811061016d575050505050505080f35b61018161017b828588612195565b90611f31565b6001600160a01b0361019c61019784868b6121d6565b6121e6565b166001600160a01b039091160361043457806101bf61019761020793858a6121d6565b6101ca828689612195565b6101d884898d9794976121d6565b356101f36040519687936040602086015260608501916122e1565b90604083015203601f198101855284611085565b6001600160401b03601354169260405161022081611054565b60038152602081019082825260018060a01b0384166040820152858d52601460205260408d2091815160048110156104205760ff80198554169116178355518051906001600160401b03821161040c578e9061028c836102836001880154611199565b600188016111ea565b602091601f84116001146103a057600294936102bf93909283610395575b50508160011b916000199060031b1c19161790565b60018401555b60400151910180546001600160a01b0319166001600160a01b0392909216919091179055600184016001600160401b038111610381576001600160401b03166001600160401b031960135416176013556040519060046003101561036b5760019461035c83926000805160206135478339815191529560038552888060a01b031660208501526080604085015260808401906112b4565b9060608301520390a10161015c565b634e487b7160e01b600052602160045260246000fd5b634e487b7160e01b8c52601160045260248cfd5b0151905038806102aa565b9190601f198416600187018452828420935b8181106103f457509160019391856002979694106103db575b505050811b0160018401556102c5565b015160001960f88460031b161c191690553880806103cb565b929360206001819287860151815501950193016103b2565b634e487b7160e01b8f52604160045260248ffd5b634e487b7160e01b8f52602160045260248ffd5b634be9251d60e11b8852600488fd5b6001600160401b036006939293541681111561066d57865b818110610512575050505050505080600554600160f81b60018060f81b038216176005557f4914d88063275a25a13b2df37125e216745d812f94c56504be4bd78cf60c9593604051806104ad81611dad565b0390a18154906001600160a01b0316803b1561050e578290602460405180948193637903ab2760e11b83528160048401525af18015610503576104ef57505080f35b816104f991611085565b6105005780f35b80fd5b6040513d84823e3d90fd5b5050fd5b61052061017b828688612195565b6001600160a01b0361053661019784868b6121d6565b166001600160a01b0390911603610434576105556101978284896121d6565b60ff600a541660038110156106595760010361063c576001600160a01b03168852600c60205260408820545b61062d57806105aa610599610197600194868b6121d6565b6105a483888a612195565b91611f6d565b6105cd6105bb61019783868b6121d6565b6105c683878c6121d6565b3590612c71565b6106276105de61019783868b6121d6565b61061d6105ec84888d6121d6565b35916105f9858a8c612195565b90916040519461060886611054565b8552878060a01b0316602085015236916110c1565b6040820152611a9e565b0161045b565b630472b35360e41b8852600488fd5b6001600160a01b03168852600c6020526040882060010154610581565b634e487b7160e01b8a52602160045260248afd5b63031480b160e51b8752600487fd5b637e65935960e01b8752600487fd5b6106b761069661145e565b60405163015538b160e01b81526020600482015291829160248301906112b4565b0390fd5b634e487b7160e01b88526021600452602488fd5b6330cd747160e01b8752600487fd5b8580fd5b8380fd5b5080fd5b503461050057806003193601126105005760016000805160206135a783398151915254146107505760016000805160206135a78339815191525561072c611402565b61073461143e565b61073c611302565b806000805160206135a78339815191525580f35b6329f745a760e01b8152600490fd5b50346105005760203660031901126105005760043560016000805160206135a7833981519152541461083e5760016000805160206135a783398151915255801561082f5760055460f81c61082057338252601c602052806040832054106108115761073c90338352601c602052604083206107db8282546112f5565b90556107e88184546112f5565b8355338352601c602052604083205415610803575b3361211f565b61080c33612043565b6107fd565b63569d45cf60e11b8252600482fd5b631b39f2f360e11b8252600482fd5b631036b5ad60e31b8252600482fd5b6329f745a760e01b8252600482fd5b50602036600319011261050057600435906001600160401b0382116105005736602383011215610500578160040135916001600160401b0383116106e657602481019060248436920101116106e65760016000805160206135a7833981519152541461083e5760016000805160206135a7833981519152556108cd611402565b6108d561143e565b60055460f81c80610be1575b3415610bd257336000908152600c6020526040902060020154610b5b5760418403610b4c57336001600160a01b036109198685611f31565b1603610b3d57610941579161092f919233611f6d565b6109393433611c3c565b61073c611e34565b61094c3684836110c1565b926001600160401b0360135416936040519061096782611054565b6002825260208201908152604082019033825286865260146020526040862092516004811015610b295760ff801985541691161783556001830190518051906001600160401b038211610b15576109c8826109c28554611199565b856111ea565b602090601f8311600114610aae5791806109fc9260029695948b926103955750508160011b916000199060031b1c19161790565b90555b51910180546001600160a01b0319166001600160a01b039290921691909117905560018401936001600160401b038511610a9a576001600160401b036000805160206135478339815191529495166001600160401b03196013541617601355610a82604051938493600285523360208601526080604086015260808501916122e1565b9060608301520390a1610a953433611846565b61073c565b634e487b7160e01b84526011600452602484fd5b8389528189209190601f1984168a5b818110610afd575091600193918560029897969410610ae4575b505050811b0190556109ff565b015160001960f88460031b161c19169055388080610ad7565b92936020600181928786015181550195019301610abd565b634e487b7160e01b88526041600452602488fd5b634e487b7160e01b87526021600452602487fd5b634be9251d60e11b8352600483fd5b6318dca5e960e21b8352600483fd5b6106b7604051610b6c606082611085565b603281527f4d6574686f64206e6f7420616c6c6f7765642069662076616c696461746f72206020820152711a185cc8185b1c9958591e481a9bda5b995960721b604082015260405191829163015538b160e01b83526020600484015260248301906112b4565b635a78c58160e11b8352600483fd5b610be96114cd565b6108e1565b5034610500578060031936011261050057610c0761143e565b61ffff6010541661ffff600d54160161ffff8111610cbe5761ffff16610caf576005548060f81c15610ca0576006805468ff00000000000000001916600160401b17905581906001600160a01b0316803b15610c9d578180916004604051809581936341c0e1b560e01b83525af18015610c9057610c825780f35b610c8b91611085565b388180f35b50604051903d90823e3d90fd5b50fd5b63dfd06d8f60e01b8252600482fd5b636b62255160e11b8152600490fd5b634e487b7160e01b82526011600452602482fd5b508060031936011261050057610ce6611402565b610cee61143e565b610cf66114cd565b3415610db157336000908152600c602052604090206002015415610d3d5760055460f81c610d3357610d283433611c3c565b610d30611e34565b80f35b610d303433611846565b506106b7604051610d4f606082611085565b602e81527f4d6574686f64206e6f7420616c6c6f7765642069662076616c696461746f722060208201526d1a185cc81b9bdd081a9bda5b995960921b604082015260405191829163015538b160e01b83526020600484015260248301906112b4565b635a78c58160e11b8152600490fd5b50346105005760203660031901126105005760016000805160206135a783398151915254146107505760016000805160206135a783398151915255610e03611402565b610e0b61143e565b61073c600435611231565b5034610500576020366003190112610500576004356001600160401b0381116106e657366023820112156106e657610e589036906024816004013591016110c1565b90610e61611402565b338152600e60205261ffff60408220541615610f7257815115610f635733815260176020526040812082516001600160401b038111610f4f57610eae81610ea88454611199565b846111ea565b6020601f8211600114610eee5781908495610ede9495926103955750508160011b916000199060031b1c19161790565b90555b610eea336121fa565b5080f35b82845280842090601f198316855b818110610f3757509583600195969710610f1e575b505050811b019055610ee1565b015160001960f88460031b161c19169055388080610f11565b9192602060018192868b015181550194019201610efc565b634e487b7160e01b83526041600452602483fd5b637138356f60e01b8152600490fd5b633b4f6e2b60e21b815233600452602490fd5b50806003193601126105005734156110455760055460f81c61103657338152601c602052604081205415610fdd575b338152601c60205260408120610fcb348254611176565b9055610fd8348254611176565b815580f35b601d54600160401b81101561102257610fff81600161101d9301601d5561112d565b81546001600160a01b0360039290921b91821b19163390911b179055565b610fb4565b634e487b7160e01b82526041600452602482fd5b631b39f2f360e11b8152600490fd5b631036b5ad60e31b8152600490fd5b606081019081106001600160401b0382111761106f57604052565b634e487b7160e01b600052604160045260246000fd5b90601f801991011681019081106001600160401b0382111761106f57604052565b6001600160401b03811161106f57601f01601f191660200190565b9291926110cd826110a6565b916110db6040519384611085565b8294818452818301116110f8578281602093846000960137010152565b600080fd5b9181601f840112156110f8578235916001600160401b0383116110f8576020808501948460051b0101116110f857565b601d5481101561114857601d60005260206000200190600090565b634e487b7160e01b600052603260045260246000fd5b80548210156111485760005260206000200190600090565b9190820180921161118357565b634e487b7160e01b600052601160045260246000fd5b90600182811c921680156111c9575b60208310146111b357565b634e487b7160e01b600052602260045260246000fd5b91607f16916111a8565b8181106111de575050565b600081556001016111d3565b9190601f81116111f957505050565b611225926000526020600020906020601f840160051c83019310611227575b601f0160051c01906111d3565b565b9091508190611218565b6112396114cd565b80156112a357336000908152600c6020526040902060020154801561128e5781101561127e5760055460f81c1561127457611225903361161d565b61122590336114e2565b62d11df360e61b60005260046000fd5b633b4f6e2b60e21b6000523360045260246000fd5b63c79cad7b60e01b60005260046000fd5b919082519283825260005b8481106112e0575050826000602080949584010152601f8019910116010190565b806020809284010151828286010152016112bf565b9190820391821161118357565b60055460f81c6113f5575b336000908152600c6020526040902060020154801561128e5761132f33612302565b5033600052601760205260406000206113488154611199565b90816113b1575b505060055460f81c1561136657611225903361161d565b6112259033600052601c60205260406000205480611386575b50336114e2565b6113ab9033600052601c60205261139f816000546112f5565b6000556107fd33612043565b3861137f565b81601f600093116001146113c95750555b388061134f565b818352602083206113e591601f0160051c8101906001016111d3565b80825281602081209155556113c2565b6113fd6114cd565b61130d565b60ff7fc451c9429c27db68f286ab8a68f311f1dccab703ba9423aed29cd397ae63f863541661142d57565b63d93c066560e01b60005260046000fd5b60ff60065460401c1661144d57565b63248c8efb60e11b60005260046000fd5b6040519061146d608083611085565b6045825264185c1c195960da1b6060837f4d6574686f64206e6f7420616c6c6f776564206966207065726d697373696f6e60208201527f656420697320656e61626c656420616e64207375626e657420626f6f7473747260408201520152565b60ff600a5416600381101561036b5761068b57565b90611225916114f1828261226c565b61159061151d8360016115168560018060a01b0316600052600c602052604060002090565b01546112f5565b6001600160a01b0383166000908152600c602052604090206002015481159081611614575b50156115f1576001600160a01b0383166000908152600c60205260409020600390600081556000600182015560006002820155016115808154611199565b90816115ad575b50505b826123bd565b61159c82600b546112f5565b600b556001600160a01b031661211f565b81601f600093116001146115c55750555b3880611587565b818352602083206115e191601f0160051c8101906001016111d3565b80825281602081209155556115be565b6001600160a01b0383166000908152600c6020526040902081906001015561158a565b90501538611542565b91906040519281602085015260208452611638604085611085565b6001600160401b03601354166040519461165186611054565b6000956001815260208101908282526040810160018060a01b03861692838252858a52601460205260408a20925160048110156118325760ff801985541691161783556001830190518051906001600160401b03821161181e576116b9826109c28554611199565b6020908c601f84116001146117b75760029594936116ed939092836103955750508160011b916000199060031b1c19161790565b90555b51910180546001600160a01b0319166001600160a01b0392909216919091179055600183016001600160401b0381116117a3576001600160401b03166001600160401b031960135416176013556040519660046001101561178f57509560008051602061354783398151915292611781829361122598996001855260208501526080604085015260808401906112b4565b9060608301520390a161226c565b634e487b7160e01b81526021600452602490fd5b634e487b7160e01b88526011600452602488fd5b9190601f198416858452828420935b8181106118065750916001939185600298979694106117ed575b505050811b0190556116f0565b015160001960f88460031b161c191690553880806117e0565b929360206001819287860151815501950193016117c6565b634e487b7160e01b8c52604160045260248cfd5b634e487b7160e01b8b52602160045260248bfd5b91906040519281602085015260208452611861604085611085565b6001600160401b03601354166040519461187a86611054565b60009586815260208101908282526040810160018060a01b03861692838252858a52601460205260408a20925160048110156118325760ff801985541691161783556001830190518051906001600160401b03821161181e576118e1826109c28554611199565b6020908c601f84116001146119b4576002959493611915939092836103955750508160011b916000199060031b1c19161790565b90555b51910180546001600160a01b0319166001600160a01b0392909216919091179055600183016001600160401b0381116117a3576001600160401b03166001600160401b0319601354161760135560405196600481101561178f57926119a688938493600080516020613547833981519152966112259a9b5260208501526080604085015260808401906112b4565b9060608301520390a16122be565b9190601f198416858452828420935b818110611a035750916001939185600298979694106119ea575b505050811b019055611918565b015160001960f88460031b161c191690553880806119dd565b929360206001819287860151815501950193016119c3565b60009291815491611a2b83611199565b8083529260018116908115611a815750600114611a4757505050565b60009081526020812093945091925b838310611a67575060209250010190565b600181602092949394548385870101520191019190611a56565b915050602093945060ff929192191683830152151560051b010190565b90601b54600160401b81101561106f5760018101601b556000601b54821015611c2857601b905282517f3ad8aa4f87544323a9d1e5dd902f40c356527a7955687113db5f9a85ad579dc160039092029182015560208301517f3ad8aa4f87544323a9d1e5dd902f40c356527a7955687113db5f9a85ad579dc2820180546001600160a01b039092166001600160a01b0319909216919091179055604090920151805190927f3ad8aa4f87544323a9d1e5dd902f40c356527a7955687113db5f9a85ad579dc3019060006001600160401b038211611c1457611b83826109c28554611199565b602090601f8311600114611bb65790611bb2939495836103955750508160011b916000199060031b1c19161790565b9055565b90601f198316848352818320925b818110611bfc57509583600195969710611be3575b505050811b019055565b015160001960f88460031b161c19169055388080611bd9565b9192602060018192868b015181550194019201611bc4565b634e487b7160e01b81526041600452602490fd5b634e487b7160e01b81526032600452602490fd5b90611caa90611c4b81846122be565b611ca1611c77826001611c708760018060a01b0316600052600c602052604060002090565b0154611176565b91826001611c978760018060a01b0316600052600c602052604060002090565b0155600b54611176565b600b55826128e6565b60055460f81c15611cb85750565b601b5460009080825b828110611d50575b50505015611cd45750565b80611d4961061d6001611cfc6112259560018060a01b0316600052600c602052604060002090565b0154926003611d1d8260018060a01b0316600052600c602052604060002090565b019060405194611d2c86611054565b85526001600160a01b031660208501526040519283918290611a1b565b0382611085565b600082821015611c2857601b90527f3ad8aa4f87544323a9d1e5dd902f40c356527a7955687113db5f9a85ad579dc26003820201546001600160a01b03868116911614611d9f57600101611cc1565b505050506001388080611cc9565b6020810160208252601b54809152604082019060408160051b84010192601b6000526020600020926000915b838310611de857505050505090565b909192939460206003611e256060600194603f198782030188528a548152858060a01b03868c015416858201528160408201520160028a01611a1b565b97019301930191939290611dd9565b6000600b54600254811015611e48575b5050565b61ffff600d54166001600160401b03600654161115611e65575050565b600580546001600160f81b038116600160f81b179091556040517f4914d88063275a25a13b2df37125e216745d812f94c56504be4bd78cf60c95939080611eab81611dad565b0390a160018060a01b0316611ec283548093611176565b91813b156106e25790602484926040519485938492637903ab2760e11b845260048401525af180156105035715611e445781611efd91611085565b50565b61ffff60019116019061ffff821161118357565b15611f1b57565b634e487b7160e01b600052600160045260246000fd5b90611f3e60418214611f14565b806001116110f857611f5991369160001901906001016110c1565b80516020909101206001600160a01b031690565b6001600160a01b03166000908152600c6020526040902090929190600301906001600160401b03811161106f57611fa881610ea88454611199565b6000601f8211600114611fe4578190611bb2939495600092611fd95750508160011b916000199060031b1c19161790565b0135905038806102aa565b601f198216948382526020822091805b87811061202b57508360019596971061201157505050811b019055565b0135600019600384901b60f8161c19169055388080611bd9565b90926020600181928686013581550194019101611ff4565b601d5460005b81811061205557505050565b61205e8161112d565b905460039190911b1c6001600160a01b039081169084161461208257600101612049565b60001982019250908211611183576120b761209f6120db9361112d565b905460039190911b1c6001600160a01b03169161112d565b81546001600160a01b0393841660039290921b91821b9390911b1916919091179055565b601d54801561210957600019016120f18161112d565b81549060018060a01b039060031b1b19169055601d55565b634e487b7160e01b600052603160045260246000fd5b814710612180576000918291829182916001600160a01b03165af13d1561217b573d61214a816110a6565b906121586040519283611085565b8152600060203d92013e5b1561216a57565b630a12f52160e11b60005260046000fd5b612163565b63cd78605960e01b6000523060045260246000fd5b91908110156111485760051b81013590601e19813603018212156110f85701908135916001600160401b0383116110f85760200182360381136110f8579190565b91908110156111485760051b0190565b356001600160a01b03811681036110f85790565b8060005260196020526040600020541560001461226657601854600160401b81101561106f5761224d612236826001859401601855601861115e565b819391549060031b91821b91600019901b19161790565b9055601854906000526019602052604060002055600190565b50600090565b6001600160a01b03166000818152600c602052604090206002015490918082106122ad57612299916112f5565b90600052600c602052600260406000200155565b63ac69360360e01b60005260046000fd5b60018060a01b0316600052600c602052611bb26002604060002001918254611176565b908060209392818452848401376000828201840152601f01601f1916010190565b60008181526019602052604090205480156123b6576000198101818111611183576018546000198101919082116111835781810361237c575b5050506018548015612109576000190161235681601861115e565b8154906000199060031b1b19169055601855600052601960205260006040812055600190565b61239e61238d61223693601861115e565b90549060031b1c928392601861115e565b9055600052601960205260406000205538808061233b565b5050600090565b9060018060a01b038216600052601160205261ffff60406000205416612665576001600160a01b0382166000908152600e602052604090205461ffff161561265457801561256d5761242861241383600d6130a6565b61241e84600a612c1f565b90600a600d613360565b61ffff6010541615611e445761243e600d613463565b6001600052600f6020527f169f97de0d9a84d840042b17d3c6b9638b3d6fd9024c9eb0c7a306a17b49f88f546001600160a01b03169161247f83600a612c1f565b6124896010613463565b600160005260126020527f71a67924699a20698523213e55fe499d539379d7769cd5567e2c45d583f815a3546001600160a01b0316906124ca82600a612c1f565b116125055750604080516001600160a01b0390921682526020820192909252600080516020613567833981519152925090819081015b0390a1565b91505060008051602061358783398151915291612524600a600d612fbf565b612530600a6010612e4c565b61253d82600a600d612f45565b61254a81600a601061308f565b604080516001600160a01b03928316815292909116602083015281908101612500565b5060208161259f7f4a4c5d1a281180eea1e99d8177fa4798b9f7e019d5c57e7d8d73c6a22199aa5b93600a600d612d77565b6040516001600160a01b039091168152a161ffff601054166125bd57565b6125c76010613463565b600160005260126020527f71a67924699a20698523213e55fe499d539379d7769cd5567e2c45d583f815a3546000805160206135e7833981519152906001600160a01b031661261781600a612c1f565b90612624600a6010612e4c565b61263181600a600d612f45565b604080516001600160a01b03909216825260208201929092529081908101612500565b632a55ca5360e01b60005260046000fd5b801561269e57816126316126896000805160206135c78339815191529460106130a6565b61269483600a612c1f565b90600a60106132cb565b506020816126d07f3168ba660eed6ef1dc2258b2247cc05fd0f2f350d39e6ad2e2ebc76a8000b40b93600a6010612cd0565b6040516001600160a01b039091168152a1565b6001600160a01b0382166000908152600782016020526040902054600682019392919061ffff16612881576001600160a01b038216600090815260048201602052604090205460038201949061ffff16156126545783156128025761275d61274b84876130a6565b6127558585612c1f565b908488613360565b61ffff815416156127fb576127728286612e19565b92909161277f8282612e19565b9094106127bf575050604080516001600160a01b039094168452602084019490945250600080516020613567833981519152935090918291508101612500565b8395508294506127f661254a9483896127e7826000805160206135878339815191529c612fbf565b6127f18286612e4c565b612f45565b61308f565b5050505050565b91819350806128356020927f4a4c5d1a281180eea1e99d8177fa4798b9f7e019d5c57e7d8d73c6a22199aa5b9488612d77565b6040516001600160a01b039091168152a161ffff81541661285557505050565b61263181836000805160206135e783398151915295612877826127f196612e19565b9681969194612e4c565b82156128b65783612631916128a5846000805160206135c7833981519152976130a6565b906128b08582612c1f565b926132cb565b60209250816126d0917f3168ba660eed6ef1dc2258b2247cc05fd0f2f350d39e6ad2e2ebc76a8000b40b95612cd0565b9060018060a01b038216600052600e60205261ffff60406000205416612a6b5761ffff600a5460081c1661ffff600d541610612a4e57612926600d613463565b6001600052600f6020527f169f97de0d9a84d840042b17d3c6b9638b3d6fd9024c9eb0c7a306a17b49f88f546001600160a01b03168161296782600a612c1f565b106129f057506001600160a01b03821660009081526011602052604090205461ffff166129bd57816126317f19fe3ca603e87854a0747cc10abf06bac64d61bac73d6d15f2fd3ca448f1526493600a601061308f565b816126316129db6000805160206135c78339815191529460106130a6565b6129e683600a612c1f565b90600a6010613266565b600080516020613587833981519152929150612a0e600a600d612fbf565b6001600160a01b03821660009081526011602052604090205461ffff16612a3c5761253d82600a600d612f45565b612a4982600a6010612cd0565b612530565b816126316000805160206135e783398151915293600a600d612f45565b81612631612a8960008051602061356783398151915294600d6130a6565b612a9483600a612c1f565b90600a600d6133d5565b6001600160a01b038216600090815260048201602052604090205490929190600384019061ffff16612bf05761ffff845460081c1661ffff82541610612bd65780612aea858593612e19565b92909210612b775750506001600160a01b0381166000908152600784016020526040902054600684019061ffff16612b4857817f19fe3ca603e87854a0747cc10abf06bac64d61bac73d6d15f2fd3ca448f15264946126319261308f565b806000805160206135c783398151915294612b6684612631946130a6565b90612b718582612c1f565b92613266565b81929350908482612b9a6000805160206135878339815191529761254a95612fbf565b6001600160a01b038616600090815260078301602052604090205460068301916127f6918891859161ffff1615612f45576127f1838387612cd0565b816000805160206135e78339815191529461263192612f45565b8060008051602061356783398151915294612c0e84612631946130a6565b90612c198582612c1f565b926133d5565b60ff81541691600383101561036b57600292600103612c53576001600160a01b031660009081529101602052604090205490565b6001600160a01b031660009081529101602052604090206001015490565b6001600160a01b0381166000908152600c60205260409020805490839055909190808203612c9e57505050565b811115612cb05761122591600a612a9e565b61122591600a6126e3565b61ffff6000199116019061ffff821161118357565b9091612cdc90826130a6565b61ffff825416612ced81838561317e565b61ffff612cf982612cbb565b1661ffff19845416178355612d0e818461321e565b61ffff821614612d7257611225926002830161ffff831660005280602052612d4f612d47604060002060018060a01b0390541684612c1f565b848487613266565b61ffff83166000526020526128b0604060002060018060a01b0390541682612c1f565b505050565b9091612d8390826130a6565b61ffff825416612d9481838561317e565b61ffff612da082612cbb565b1661ffff19845416178355612db5818461321e565b61ffff821614612d7257611225926002830161ffff831660005280602052612df6612dee604060002060018060a01b0390541684612c1f565b848487613360565b61ffff8316600052602052612c19604060002060018060a01b0390541682612c1f565b600290929192612e2881613463565b600160005201602052612e4960018060a01b03604060002054168093612c1f565b90565b612e5581613463565b612e8561ffff825416612e6881846130db565b61ffff612e7482612cbb565b1661ffff198454161783558261321e565b6002810192600160005283602052612eab604060002060018060a01b0390541684612c1f565b92600194600261ffff855416905b61ffff8116828111612f3a5782811015612f10575080612edb612ee392611f00565b908588613480565b9790975b871015612f0657612ef990888761317e565b61fffe8760011b16612eb9565b5050505092505050565b600090815260208490526040902054909790612f35906001600160a01b031685612c1f565b612ee7565b505050505092505050565b909161122592612fb9612f5c61ffff855416611f00565b6001600160a01b03841660008181526001870160209081526040808320805461ffff871661ffff19918216811790925581855260028b01909352922080546001600160a01b03191690931790925586549091161785559282612c1f565b92613360565b612fc881613463565b612fdb61ffff825416612e6881846130db565b6002810192600160005283602052613001604060002060018060a01b0390541684612c1f565b9260019461300f60016133be565b61ffff855416905b61ffff8116828111612f3a578281101561306557508061303961304192611f00565b9085886134e6565b9790975b871115612f065761305790888761317e565b613060876133be565b613017565b60009081526020849052604090205490979061308a906001600160a01b031685612c1f565b613045565b909161122592612b71612f5c61ffff855416611f00565b600191828060a01b03166000520160205261ffff604060002054169081156130ca57565b63f2755e3760e01b60005260046000fd5b906130fe61ffff8354166130f28160011115611f14565b61ffff83161115611f14565b600160008181526002840160208181526040808420805461ffff90971680865282862080546001600160a01b03998a168089529a89018652848820805461ffff1990811690941790559098168087529286208054909116871790559290915284546001600160a01b03199081169096179094559190528054909216179055565b919061ffff906131a382855416613199818585161115611f14565b8385161115611f14565b811660008181526002850160208181526040808420805497871680865282862080546001600160a01b039a8b168089526001909c01865284882080549a199a8b1690931790925598168086529185208054909716861790965591905284546001600160a01b0319908116909617909455528054909216179055565b61ffff9091166000908152600282016020908152604080832080546001600160a01b031981169091556001600160a01b03168352600193909301905220805461ffff19169055565b9092915b600161ffff82161161327d575b50505050565b600181901c617fff16600081815260028401602052604090205490919084906132af906001600160a01b031687612c1f565b10156132c5576132c090828461317e565b61326a565b50613277565b91939061fffe8560011b1661ffff845416905b61ffff8116828111612f06578281101561333457508061330061330892611f00565b908487613480565b9690965b86101561332b5761331e90878661317e565b61fffe8660011b166132de565b50505092505050565b600090815260028601602052604090205490969061335b906001600160a01b031684612c1f565b61330c565b9092915b600161ffff8216116133765750505050565b600181901c617fff16600081815260028401602052604090205490919084906133a8906001600160a01b031687612c1f565b11156132c5576133b990828461317e565b613364565b60011b906201fffe61fffe83169216820361118357565b9193906133e1856133be565b61ffff845416905b61ffff8116828111612f06578281101561343757508061340b61341392611f00565b9084876134e6565b9690965b86111561332b5761342990878661317e565b613432866133be565b6133e9565b600090815260028601602052604090205490969061345e906001600160a01b031684612c1f565b613417565b5461ffff161561346f57565b6340d9b01160e01b60005260046000fd5b60026134d19195949295019461ffff8416600052856020526134b0604060002060018060a01b0390541682612c1f565b9561ffff8416600052602052604060002060018060a01b0390541690612c1f565b908185106134df5750509190565b9350919050565b60026135379195949395019161ffff861660005282602052613516604060002060018060a01b0390541682612c1f565b9261ffff8516600052602052604060002060018060a01b0390541690612c1f565b93848211156134df575050919056fe1c593a2b803c3f9038e8b6743ba79fbc4276d2770979a01d2768ed12bea3243f143db27bc2036653dc6f962ff9d0b803163d4af50c256ca9e6927b3d6dcd0197faeb8de771b867cf357f6b459a7002b62ec45d544a8078a3ecd91200cc826d75691bb03ffc16c56fc96b82fd16cd1b3715f0bc3cdc6407005f49bb6205860095da148fac2e1063174be7bc0895576bdaba90fd14e575463fa26a967cb895cadd2e8038f5812f763c6ef0c5427cb5a05ce6d7064af2ba7d1d270bc02660b019fda2646970667358221220973f02e1c9e1ec704fe6415e5c9651bdd2c665024ee31b256105b79b34c426a864736f6c634300081a0033","linkReferences":{}},"methodIdentifiers":{"addBootstrapNode(string)":"10fd4261","join(bytes)":"6170b162","kill()":"41c0e1b5","leave()":"d66d9e19","preFund()":"0b7fbe60","preRelease(uint256)":"66783c9b","setFederatedPower(address[],bytes[],uint256[])":"da5d09ee","stake()":"3a4b66f1","unstake(uint256)":"2e17de78"},"id":96}