{
    "abi": [
        {
            "type": "function",
            "name": "activeValidatorsLimit",
            "inputs": [],
            "outputs": [
                {
                    "name": "",
                    "type": "uint16",
                    "internalType": "uint16"
                }
            ],
            "stateMutability": "view"
        },
        {
            "type": "function",
            "name": "bootstrapped",
            "inputs": [],
            "outputs": [
                {
                    "name": "",
                    "type": "bool",
                    "internalType": "bool"
                }
            ],
            "stateMutability": "view"
        },
        {
            "type": "function",
            "name": "bottomUpCheckPeriod",
            "inputs": [],
            "outputs": [
                {
                    "name": "",
                    "type": "uint64",
                    "internalType": "uint64"
                }
            ],
            "stateMutability": "view"
        },
        {
            "type": "function",
            "name": "bottomUpCheckpointAtEpoch",
            "inputs": [
                {
                    "name": "epoch",
                    "type": "uint64",
                    "internalType": "uint64"
                }
            ],
            "outputs": [
                {
                    "name": "exists",
                    "type": "bool",
                    "internalType": "bool"
                },
                {
                    "name": "checkpoint",
                    "type": "tuple",
                    "internalType": "struct BottomUpCheckpoint",
                    "components": [
                        {
                            "name": "subnetID",
                            "type": "tuple",
                            "internalType": "struct SubnetID",
                            "components": [
                                {
                                    "name": "root",
                                    "type": "uint64",
                                    "internalType": "uint64"
                                },
                                {
                                    "name": "route",
                                    "type": "address[]",
                                    "internalType": "address[]"
                                }
                            ]
                        },
                        {
                            "name": "blockHeight",
                            "type": "uint64",
                            "internalType": "uint64"
                        },
                        {
                            "name": "blockHash",
                            "type": "bytes32",
                            "internalType": "bytes32"
                        },
                        {
                            "name": "nextConfigurationNumber",
                            "type": "uint64",
                            "internalType": "uint64"
                        },
                        {
                            "name": "crossMessagesHash",
                            "type": "bytes32",
                            "internalType": "bytes32"
                        }
                    ]
                }
            ],
            "stateMutability": "view"
        },
        {
            "type": "function",
            "name": "bottomUpCheckpointHashAtEpoch",
            "inputs": [
                {
                    "name": "epoch",
                    "type": "uint64",
                    "internalType": "uint64"
                }
            ],
            "outputs": [
                {
                    "name": "",
                    "type": "bool",
                    "internalType": "bool"
                },
                {
                    "name": "",
                    "type": "bytes32",
                    "internalType": "bytes32"
                }
            ],
            "stateMutability": "view"
        },
        {
            "type": "function",
            "name": "consensus",
            "inputs": [],
            "outputs": [
                {
                    "name": "",
                    "type": "uint8",
                    "internalType": "enum ConsensusType"
                }
            ],
            "stateMutability": "view"
        },
        {
            "type": "function",
            "name": "crossMsgsHash",
            "inputs": [
                {
                    "name": "messages",
                    "type": "tuple[]",
                    "internalType": "struct CrossMsg[]",
                    "components": [
                        {
                            "name": "message",
                            "type": "tuple",
                            "internalType": "struct StorableMsg",
                            "components": [
                                {
                                    "name": "from",
                                    "type": "tuple",
                                    "internalType": "struct IPCAddress",
                                    "components": [
                                        {
                                            "name": "subnetId",
                                            "type": "tuple",
                                            "internalType": "struct SubnetID",
                                            "components": [
                                                {
                                                    "name": "root",
                                                    "type": "uint64",
                                                    "internalType": "uint64"
                                                },
                                                {
                                                    "name": "route",
                                                    "type": "address[]",
                                                    "internalType": "address[]"
                                                }
                                            ]
                                        },
                                        {
                                            "name": "rawAddress",
                                            "type": "tuple",
                                            "internalType": "struct FvmAddress",
                                            "components": [
                                                {
                                                    "name": "addrType",
                                                    "type": "uint8",
                                                    "internalType": "uint8"
                                                },
                                                {
                                                    "name": "payload",
                                                    "type": "bytes",
                                                    "internalType": "bytes"
                                                }
                                            ]
                                        }
                                    ]
                                },
                                {
                                    "name": "to",
                                    "type": "tuple",
                                    "internalType": "struct IPCAddress",
                                    "components": [
                                        {
                                            "name": "subnetId",
                                            "type": "tuple",
                                            "internalType": "struct SubnetID",
                                            "components": [
                                                {
                                                    "name": "root",
                                                    "type": "uint64",
                                                    "internalType": "uint64"
                                                },
                                                {
                                                    "name": "route",
                                                    "type": "address[]",
                                                    "internalType": "address[]"
                                                }
                                            ]
                                        },
                                        {
                                            "name": "rawAddress",
                                            "type": "tuple",
                                            "internalType": "struct FvmAddress",
                                            "components": [
                                                {
                                                    "name": "addrType",
                                                    "type": "uint8",
                                                    "internalType": "uint8"
                                                },
                                                {
                                                    "name": "payload",
                                                    "type": "bytes",
                                                    "internalType": "bytes"
                                                }
                                            ]
                                        }
                                    ]
                                },
                                {
                                    "name": "value",
                                    "type": "uint256",
                                    "internalType": "uint256"
                                },
                                {
                                    "name": "nonce",
                                    "type": "uint64",
                                    "internalType": "uint64"
                                },
                                {
                                    "name": "method",
                                    "type": "bytes4",
                                    "internalType": "bytes4"
                                },
                                {
                                    "name": "params",
                                    "type": "bytes",
                                    "internalType": "bytes"
                                },
                                {
                                    "name": "fee",
                                    "type": "uint256",
                                    "internalType": "uint256"
                                }
                            ]
                        },
                        {
                            "name": "wrapped",
                            "type": "bool",
                            "internalType": "bool"
                        }
                    ]
                }
            ],
            "outputs": [
                {
                    "name": "",
                    "type": "bytes32",
                    "internalType": "bytes32"
                }
            ],
            "stateMutability": "pure"
        },
        {
            "type": "function",
            "name": "genesisBalances",
            "inputs": [],
            "outputs": [
                {
                    "name": "",
                    "type": "address[]",
                    "internalType": "address[]"
                },
                {
                    "name": "",
                    "type": "uint256[]",
                    "internalType": "uint256[]"
                }
            ],
            "stateMutability": "view"
        },
        {
            "type": "function",
            "name": "genesisCircSupply",
            "inputs": [],
            "outputs": [
                {
                    "name": "",
                    "type": "uint256",
                    "internalType": "uint256"
                }
            ],
            "stateMutability": "view"
        },
        {
            "type": "function",
            "name": "genesisValidators",
            "inputs": [],
            "outputs": [
                {
                    "name": "",
                    "type": "tuple[]",
                    "internalType": "struct Validator[]",
                    "components": [
                        {
                            "name": "weight",
                            "type": "uint256",
                            "internalType": "uint256"
                        },
                        {
                            "name": "addr",
                            "type": "address",
                            "internalType": "address"
                        },
                        {
                            "name": "metadata",
                            "type": "bytes",
                            "internalType": "bytes"
                        }
                    ]
                }
            ],
            "stateMutability": "view"
        },
        {
            "type": "function",
            "name": "getBootstrapNodes",
            "inputs": [],
            "outputs": [
                {
                    "name": "",
                    "type": "string[]",
                    "internalType": "string[]"
                }
            ],
            "stateMutability": "view"
        },
        {
            "type": "function",
            "name": "getConfigurationNumbers",
            "inputs": [],
            "outputs": [
                {
                    "name": "",
                    "type": "uint64",
                    "internalType": "uint64"
                },
                {
                    "name": "",
                    "type": "uint64",
                    "internalType": "uint64"
                }
            ],
            "stateMutability": "view"
        },
        {
            "type": "function",
            "name": "getParent",
            "inputs": [],
            "outputs": [
                {
                    "name": "",
                    "type": "tuple",
                    "internalType": "struct SubnetID",
                    "components": [
                        {
                            "name": "root",
                            "type": "uint64",
                            "internalType": "uint64"
                        },
                        {
                            "name": "route",
                            "type": "address[]",
                            "internalType": "address[]"
                        }
                    ]
                }
            ],
            "stateMutability": "view"
        },
        {
            "type": "function",
            "name": "getRelayerReward",
            "inputs": [
                {
                    "name": "relayer",
                    "type": "address",
                    "internalType": "address"
                }
            ],
            "outputs": [
                {
                    "name": "",
                    "type": "uint256",
                    "internalType": "uint256"
                }
            ],
            "stateMutability": "view"
        },
        {
            "type": "function",
            "name": "getValidator",
            "inputs": [
                {
                    "name": "validatorAddress",
                    "type": "address",
                    "internalType": "address"
                }
            ],
            "outputs": [
                {
                    "name": "validator",
                    "type": "tuple",
                    "internalType": "struct ValidatorInfo",
                    "components": [
                        {
                            "name": "confirmedCollateral",
                            "type": "uint256",
                            "internalType": "uint256"
                        },
                        {
                            "name": "totalCollateral",
                            "type": "uint256",
                            "internalType": "uint256"
                        },
                        {
                            "name": "metadata",
                            "type": "bytes",
                            "internalType": "bytes"
                        }
                    ]
                }
            ],
            "stateMutability": "view"
        },
        {
            "type": "function",
            "name": "hasSubmittedInLastBottomUpCheckpointHeight",
            "inputs": [
                {
                    "name": "validator",
                    "type": "address",
                    "internalType": "address"
                }
            ],
            "outputs": [
                {
                    "name": "",
                    "type": "bool",
                    "internalType": "bool"
                }
            ],
            "stateMutability": "view"
        },
        {
            "type": "function",
            "name": "ipcGatewayAddr",
            "inputs": [],
            "outputs": [
                {
                    "name": "",
                    "type": "address",
                    "internalType": "address"
                }
            ],
            "stateMutability": "view"
        },
        {
            "type": "function",
            "name": "isActiveValidator",
            "inputs": [
                {
                    "name": "validator",
                    "type": "address",
                    "internalType": "address"
                }
            ],
            "outputs": [
                {
                    "name": "",
                    "type": "bool",
                    "internalType": "bool"
                }
            ],
            "stateMutability": "view"
        },
        {
            "type": "function",
            "name": "isWaitingValidator",
            "inputs": [
                {
                    "name": "validator",
                    "type": "address",
                    "internalType": "address"
                }
            ],
            "outputs": [
                {
                    "name": "",
                    "type": "bool",
                    "internalType": "bool"
                }
            ],
            "stateMutability": "view"
        },
        {
            "type": "function",
            "name": "killed",
            "inputs": [],
            "outputs": [
                {
                    "name": "",
                    "type": "bool",
                    "internalType": "bool"
                }
            ],
            "stateMutability": "view"
        },
        {
            "type": "function",
            "name": "lastBottomUpCheckpointHeight",
            "inputs": [],
            "outputs": [
                {
                    "name": "",
                    "type": "uint64",
                    "internalType": "uint64"
                }
            ],
            "stateMutability": "view"
        },
        {
            "type": "function",
            "name": "majorityPercentage",
            "inputs": [],
            "outputs": [
                {
                    "name": "",
                    "type": "uint8",
                    "internalType": "uint8"
                }
            ],
            "stateMutability": "view"
        },
        {
            "type": "function",
            "name": "minActivationCollateral",
            "inputs": [],
            "outputs": [
                {
                    "name": "",
                    "type": "uint256",
                    "internalType": "uint256"
                }
            ],
            "stateMutability": "view"
        },
        {
            "type": "function",
            "name": "minCrossMsgFee",
            "inputs": [],
            "outputs": [
                {
                    "name": "",
                    "type": "uint256",
                    "internalType": "uint256"
                }
            ],
            "stateMutability": "view"
        },
        {
            "type": "function",
            "name": "minValidators",
            "inputs": [],
            "outputs": [
                {
                    "name": "",
                    "type": "uint64",
                    "internalType": "uint64"
                }
            ],
            "stateMutability": "view"
        },
        {
            "type": "function",
            "name": "powerScale",
            "inputs": [],
            "outputs": [
                {
                    "name": "",
                    "type": "int8",
                    "internalType": "int8"
                }
            ],
            "stateMutability": "view"
        }
    ],
    "bytecode": {
        "object": "0x608080604052346100165761123b908161001c8239f35b600080fdfe60806040908082526004908136101561001757600080fd5b600091823560e01c91826306c4685314610ae557508163133f74ea14610a8c5781631904bb2e146109e05781631f3a0e41146109b95781632bc31eb31461096b5781633354c3e11461094857816335142c8c1461092157816338a210b3146108f05781633da332411461073957816340550a1c146106fa578163599c7bd1146106d55781636704287c146106b65781636cb2ecee1461067557816372d0a0e01461064d57816380f76021146105935781638ef3f76114610554578163903e69301461042657508063948628a9146104075780639754b29e146103935780639e33bd0214610374578063ad81e4d614610354578063b2bd295e1461031c578063c5ab2241146102f3578063cfca2824146102ca578063d081be03146102875763d92e8f121461014457600080fd5b3461028457806003193601126102845790600180549261016384610ce0565b61016f84519182610ca5565b848152828252602080820195837fb10e2d527612073b26eecdfd717e6a320cf44b4afac2b0732d9fcbe2b7fa0cf6885b83831061022557505050508451948186019282875251809352808601818460051b8801019794915b8483106101d45787890388f35b9091929394958480610213839b603f198c8203018752858b518051835260018060a01b0385820151168584015201519060609081888201520190610b4f565b9a9801969594919091019201906101c7565b96600385829b998b9798999b5161023b81610c3e565b85548152848601546001600160a01b031683820152885161026a816102638160028b01610cf7565b0382610ca5565b89820152815201920192019190989698979594939761019f565b80fd5b5090346102c65760203660031901126102c65760209161ffff9082906001600160a01b036102b3610b39565b1681526015855220541615159051908152f35b5080fd5b5090346102c657816003193601126102c65760095490516001600160a01b039091168152602090f35b5090346102c657816003193601126102c6576007548151911c6001600160401b03168152602090f35b5090346102c65760203660031901126102c65760209181906001600160a01b03610344610b39565b168152601c845220549051908152f35b5090346102c657816003193601126102c657601b549051910b8152602090f35b5090346102c657816003193601126102c6576020906006549051908152f35b50346102845780600319360112610284576103ac610f9f565b825191602080840190808552835180925280868601968360051b870101940192955b8287106103db5785850386f35b9091929382806103f7600193603f198a82030186528851610b4f565b96019201960195929190926103ce565b5090346102c657816003193601126102c6576020906002549051908152f35b9050346102c657816003193601126102c657919082549061044682610ce0565b9361045384519586610ca5565b828552601f19928361046482610ce0565b0190602091368389013761047781610ce0565b9261048487519485610ca5565b81845261049082610ce0565b8484019601368737845b8281106104ef57505050806104b88651978789988952880190610b8f565b928684038288015251928381520193925b8281106104d857505050500390f35b8351855286955093810193928101926001016104c9565b60019082879698999a959752818060a01b03817f8a35acfbc15ff81a39ae7d344fd709f28e8600b4aa8c65c6b64bfe7fe36bd19b015416806105318388610db4565b5286526003875289862054610546828a610db4565b52019796959394929761049a565b8284346102c657816003193601126102c65760ff600d5416905191600182101561058057602083838152f35b634e487b7160e01b815260218452602490fd5b5050346102845780600319360112610284576105ad610cc6565b508151916105ba83610c6f565b600b546001600160401b031683528051600c8054808352908452602093848301917fdf6966c971051c3d54ec59162606531493a51404a002842f56009d7e5cf4a8c7915b8682821061063057889061062c8888610619818a0382610ca5565b8385015251928284938452830190610bcc565b0390f35b83546001600160a01b0316855290930192600192830192016105fe565b8284346102c657816003193601126102c6576020906001600160401b03600554169051908152f35b505034610284576020366003190112610284575061062c61069c610697610b0a565b610dde565b839291925193849315158452806020850152830190610bf5565b8284346102c657816003193601126102c657602090600a549051908152f35b8284346102c657816003193601126102c65760209060ff60095460a01c169051908152f35b8284346102c65760203660031901126102c65760209161ffff9082906001600160a01b03610726610b39565b1681526012855220541615159051908152f35b83833461028457602092836003193601126102c6578035906001600160401b03908183116108ec57366023840112156108ec578201358181116108ec5760248301908060051b9360248536920101116108e8579093855193849288840196818986018b8a525260608086019386010193819681925b8484106107d8575050505050506107ce925003601f198101835282610ca5565b5190209051908152f35b9193959092949650605f198982030187526107f388836110b5565b803560de19823603018112156108e0579061084d8e61083c8f95948461083391019680875260e061082489806110b5565b9188015261012087019061111b565b918601866110b5565b848203603f1901606086015261111b565b8d608090850135818501528661086560608701610b25565b1660a08501528401359063ffffffff60e01b82168092036108e457908f92916108ae9060c0928387015261089c60a08801886110c9565b878303603f190160e0890152906110fa565b9401356101008401520135908115158092036108e0576001928e928380930152990197019401918896979593916107ae565b8580fd5b8780fd5b8480fd5b8380fd5b505034610284578060031936011261028457506017548151906001600160401b03908181168352831c166020820152f35b8284346102c657816003193601126102c65760209060ff600d5460081c1690519015158152f35b8284346102c657816003193601126102c65760209061ffff600e54169051908152f35b8284346102c65760203660031901126102c65780602092600161098c610b39565b6001600160401b03600554168352601d865283832090828060a01b03168352018452205415159051908152f35b8284346102c657816003193601126102c65760209060ff600d5460101c1690519015158152f35b8284346102c657602091826003193601126102845760028261062c92610a04610b39565b6060838051610a1281610c3e565b84815289810185905201526001600160a01b03168152601086522083519390610a3a85610c3e565b80548552610a63600182015491878701928352610a5c84518096819301610cf7565b0384610ca5565b818501928352815195869581875251908601525190840152516060808401526080830190610b4f565b5050346102845760203660031901126102845750610aab610697610b0a565b8251610ad481610ac660208201946020865287830190610bf5565b03601f198101835282610ca5565b519020825191151582526020820152f35b8390346102c657816003193601126102c6576020906001600160401b03600754168152f35b600435906001600160401b0382168203610b2057565b600080fd5b35906001600160401b0382168203610b2057565b600435906001600160a01b0382168203610b2057565b919082519283825260005b848110610b7b575050826000602080949584010152601f8019910116010190565b602081830181015184830182015201610b5a565b90815180825260208080930193019160005b828110610baf575050505090565b83516001600160a01b031685529381019392810192600101610ba1565b9060406020610bf2936001600160401b0381511684520151918160208201520190610b8f565b90565b90608080610c0c845160a0855260a0850190610bcc565b936001600160401b03806020830151166020860152604082015160408601526060820151166060850152015191015290565b606081019081106001600160401b03821117610c5957604052565b634e487b7160e01b600052604160045260246000fd5b604081019081106001600160401b03821117610c5957604052565b60a081019081106001600160401b03821117610c5957604052565b90601f801991011681019081106001600160401b03821117610c5957604052565b60405190610cd382610c6f565b6060602083600081520152565b6001600160401b038111610c595760051b60200190565b80546000939260018083169383821c938515610daa575b6020958686108114610d9457858552908115610d755750600114610d34575b5050505050565b90939495506000929192528360002092846000945b838610610d6157505050500101903880808080610d2d565b805485870183015294019385908201610d49565b60ff19168685015250505090151560051b010191503880808080610d2d565b634e487b7160e01b600052602260045260246000fd5b93607f1693610d0e565b8051821015610dc85760209160051b010190565b634e487b7160e01b600052603260045260246000fd5b906040805192610ded84610c8a565b610df5610cc6565b84526000908160806020968288820152828682015282606082015201526001600160401b038091168252818552828220835195610e3187610c8a565b845192610e3d84610c6f565b80835416845260018084019487519485858854918281520197895285892090895b818110610f8357505050600590610e79878798990389610ca5565b858301978852828c5284600282015416868d015260038101548a8d01528460048201541660608d0152015460808b01528751958693630c133d1360e31b8552856004860152606485019251166024850152519188604485015282518092528460848501930191885b818110610f6257505050508190038173__$a0fe38a9a81205afccc10810b09a4d3f45$__5af4938415610f5957508293610f1e575b505050159190565b9080929350813d8311610f52575b610f368183610ca5565b810103126102c657519081151582036102845750388080610f16565b503d610f2c565b513d84823e3d90fd5b83516001600160a01b03168552879689965094850194909301928201610ee1565b82546001600160a01b03168a5298870198918501918501610e5e565b601f54610fab81610ce0565b906040610fba81519384610ca5565b818352601f19610fc983610ce0565b0160005b8181106110a4575050811561109f578051808382526020809201601f600052817fa03837a25210ee280c2113ff4b77ca23440b19d4866cca721c801278fd08d8079160005b8588821061108957505061102892500382610ca5565b60005b84811061103a57505050505090565b6001906001600160a01b0361104f8285610db4565b5116600052601e845261026361106d86600020875192838092610cf7565b6110778289610db4565b526110828188610db4565b500161102b565b8454835260019485019486945092019101611012565b505090565b806060602080938801015201610fcd565b9035603e1982360301811215610b20570190565b9035601e1982360301811215610b205701602081359101916001600160401b038211610b20578136038313610b2057565b908060209392818452848401376000828201840152601f01601f1916010190565b9061112682806110b5565b906040815260808101926001600160401b03938461114385610b25565b16604084015260209384810135601e1982360301811215610b205701908482359201958211610b20578160051b36038613610b20578190604060608601525260a08301949060005b8181106111dd5750505080836111a29201906110b5565b908281850391015280359060ff8216809203610b2057836111d0604093928493610bf29752858101906110c9565b93909482015201916110fa565b90919586359060018060a01b038216809203610b20579081528501958501919060010161118b56fea2646970667358221220da44fd1defe99d4c7719d7a13f6a48d90037947f40edf776fc5ac1a2477b7cce64736f6c63430008130033",
        "linkReferences": {
            "src/lib/SubnetIDHelper.sol": {
                "SubnetIDHelper": [
                    {
                        "start": 3854,
                        "length": 20
                    }
                ]
            }
        }
    },
    "methodIdentifiers": {
        "activeValidatorsLimit()": "3354c3e1",
        "bootstrapped()": "35142c8c",
        "bottomUpCheckPeriod()": "06c46853",
        "bottomUpCheckpointAtEpoch(uint64)": "6cb2ecee",
        "bottomUpCheckpointHashAtEpoch(uint64)": "133f74ea",
        "consensus()": "8ef3f761",
        "crossMsgsHash(((((uint64,address[]),(uint8,bytes)),((uint64,address[]),(uint8,bytes)),uint256,uint64,bytes4,bytes,uint256),bool)[])": "3da33241",
        "genesisBalances()": "903e6930",
        "genesisCircSupply()": "948628a9",
        "genesisValidators()": "d92e8f12",
        "getBootstrapNodes()": "9754b29e",
        "getConfigurationNumbers()": "38a210b3",
        "getParent()": "80f76021",
        "getRelayerReward(address)": "b2bd295e",
        "getValidator(address)": "1904bb2e",
        "hasSubmittedInLastBottomUpCheckpointHeight(address)": "2bc31eb3",
        "ipcGatewayAddr()": "cfca2824",
        "isActiveValidator(address)": "40550a1c",
        "isWaitingValidator(address)": "d081be03",
        "killed()": "1f3a0e41",
        "lastBottomUpCheckpointHeight()": "72d0a0e0",
        "majorityPercentage()": "599c7bd1",
        "minActivationCollateral()": "9e33bd02",
        "minCrossMsgFee()": "6704287c",
        "minValidators()": "c5ab2241",
        "powerScale()": "ad81e4d6"
    },
    "id": 74
}