{"abi":[{"type":"function","name":"facetAddress","inputs":[{"name":"_functionSelector","type":"bytes4","internalType":"bytes4"}],"outputs":[{"name":"facetAddress_","type":"address","internalType":"address"}],"stateMutability":"view"},{"type":"function","name":"facetAddresses","inputs":[],"outputs":[{"name":"facetAddresses_","type":"address[]","internalType":"address[]"}],"stateMutability":"view"},{"type":"function","name":"facetFunctionSelectors","inputs":[{"name":"_facet","type":"address","internalType":"address"}],"outputs":[{"name":"_facetFunctionSelectors","type":"bytes4[]","internalType":"bytes4[]"}],"stateMutability":"view"},{"type":"function","name":"facets","inputs":[],"outputs":[{"name":"facets_","type":"tuple[]","internalType":"struct IDiamondLoupe.Facet[]","components":[{"name":"facetAddress","type":"address","internalType":"address"},{"name":"functionSelectors","type":"bytes4[]","internalType":"bytes4[]"}]}],"stateMutability":"view"},{"type":"function","name":"supportsInterface","inputs":[{"name":"_interfaceId","type":"bytes4","internalType":"bytes4"}],"outputs":[{"name":"","type":"bool","internalType":"bool"}],"stateMutability":"view"}],"bytecode":{"object":"0x60808060405234601557610873908161001b8239f35b600080fdfe6080604052600436101561001257600080fd5b60003560e01c806301ffc9a71461006757806352ef6b2c146100625780637a0ed6271461005d578063adfca15e146100585763cdffacc61461005357600080fd5b610600565b61053f565b6102ee565b610125565b346100ba57610075366100bf565b63ffffffff60e01b166000527f806e0cbb9fce296bbc336a48f42bf1dbc69722d18d90d6fe705b7582c2bb4bd4602052602060ff604060002054166040519015158152f35b600080fd5b60209060031901126100ba576004356001600160e01b0319811681036100ba5790565b602060408183019282815284518094520192019060005b8181106101065750505090565b82516001600160a01b03168452602093840193909201916001016100f9565b346100ba5760003660031901126100ba5760008051602061081e8339815191525461014f816106b6565b600080925b808410610170578183526040518061016c85826100e2565b0390f35b906101a2610195610190610183876106f9565b90549060031b1c60e01b90565b610625565b546001600160a01b031690565b60006001600160a01b038216815b8481106101fa575b50506101f057816101e16101e6926101d260019588610766565b6001600160a01b039091169052565b610790565b935b019290610154565b50926001906101e8565b61022361021761020a838a610766565b516001600160a01b031690565b6001600160a01b031690565b8214610231576001016101b0565b505050600138806101b8565b602081016020825282518091526040820191602060408360051b8301019401926000915b83831061027057505050505090565b9091929394603f1982820301835285516020606081604085019360018060a01b0381511686520151936040838201528451809452019201906000905b8082106102cb5750505060208060019297019301930191939290610261565b82516001600160e01b0319168452602093840193909201916001909101906102ac565b346100ba5760003660031901126100ba5760008051602061081e83398151915254610318816107a4565b610321826106b6565b916000906000905b80821061038557505060005b81811061034d578183526040518061016c858261023d565b8061036f61036861036060019488610766565b5161ffff1690565b61ffff1690565b602061037b8387610766565b5101515201610335565b9091610393610183846106f9565b61039f61019582610625565b6000806001600160a01b0383165b858210610449575b505061043e5791610422610435926103e36001956103d3858b610766565b516001600160a01b039091169052565b6103ec866106b6565b60206103f8858b610766565b510152610412602061040a858b610766565b510151610759565b6001600160e01b03199091169052565b6101e161042f8289610766565b60019052565b925b0190610329565b505091600190610437565b80610473610217610465858d989c9d9e97969e9b999a9b610766565b51516001600160a01b031690565b1461048e576001809a019192995097969297959493956103ad565b505096806104ca856104128b6104c4610368610360878a9f9e9a6104bb9c9e9d9c6104f29b602092610766565b51015194610766565b90610766565b6104e96104e26104dd610360848d610766565b61080a565b918a610766565b9061ffff169052565b600138806103b5565b602060408183019282815284518094520192019060005b81811061051f5750505090565b82516001600160e01b031916845260209384019390920191600101610512565b346100ba5760203660031901126100ba576004356001600160a01b038116908190036100ba5760008051602061081e833981519152546000610580826106b6565b9160005b81811061059c578284526040518061016c86826104fb565b6105a5816106f9565b905460039190911b1c60e01b6001600160a01b036105c282610625565b541686146105d4575b50600101610584565b836105f9916105e66001949688610766565b6001600160e01b03199091169052610790565b92906105cb565b346100ba5760206001600160a01b0361061b610190366100bf565b5416604051908152f35b63ffffffff60e01b166000527f806e0cbb9fce296bbc336a48f42bf1dbc69722d18d90d6fe705b7582c2bb4bd2602052604060002090565b634e487b7160e01b600052604160045260246000fd5b6040519190601f01601f1916820167ffffffffffffffff81118382101761069957604052565b61065d565b67ffffffffffffffff81116106995760051b60200190565b906106c86106c38361069e565b610673565b82815280926106d9601f199161069e565b0190602036910137565b634e487b7160e01b600052603260045260246000fd5b9060008051602061081e833981519152548210156107545760008051602061081e833981519152600052600382901c7fb65beca8b6fa788bcb1528c2ab5f4dc6bc98e5896550baa013d8330fab0b86f4019160021b601c1690565b6106e3565b8051156107545760200190565b80518210156107545760209160051b010190565b634e487b7160e01b600052601160045260246000fd5b600019811461079f5760010190565b61077a565b906107b16106c38361069e565b82815280926107c2601f199161069e565b0160005b8181106107d257505050565b60405190604082019180831067ffffffffffffffff8411176106995760209260405260008152606083820152828286010152016107c6565b61ffff1661ffff811461079f576001019056fe806e0cbb9fce296bbc336a48f42bf1dbc69722d18d90d6fe705b7582c2bb4bd3a2646970667358221220dceedf1d5d3590d115888458b6200ba1c671f56ca08f90309e3af71ee0acee8564736f6c634300081a0033","linkReferences":{}},"methodIdentifiers":{"facetAddress(bytes4)":"cdffacc6","facetAddresses()":"52ef6b2c","facetFunctionSelectors(address)":"adfca15e","facets()":"7a0ed627","supportsInterface(bytes4)":"01ffc9a7"},"id":55}