{"abi":[{"type":"function","name":"addBottomUpMsgBatchSignature","inputs":[{"name":"height","type":"uint256","internalType":"uint256"},{"name":"membershipProof","type":"bytes32[]","internalType":"bytes32[]"},{"name":"weight","type":"uint256","internalType":"uint256"},{"name":"signature","type":"bytes","internalType":"bytes"}],"outputs":[],"stateMutability":"nonpayable"},{"type":"function","name":"addCheckpointSignature","inputs":[{"name":"height","type":"uint256","internalType":"uint256"},{"name":"membershipProof","type":"bytes32[]","internalType":"bytes32[]"},{"name":"weight","type":"uint256","internalType":"uint256"},{"name":"signature","type":"bytes","internalType":"bytes"}],"outputs":[],"stateMutability":"nonpayable"},{"type":"function","name":"applyCrossMessages","inputs":[{"name":"crossMsgs","type":"tuple[]","internalType":"struct CrossMsg[]","components":[{"name":"message","type":"tuple","internalType":"struct StorableMsg","components":[{"name":"from","type":"tuple","internalType":"struct IPCAddress","components":[{"name":"subnetId","type":"tuple","internalType":"struct SubnetID","components":[{"name":"root","type":"uint64","internalType":"uint64"},{"name":"route","type":"address[]","internalType":"address[]"}]},{"name":"rawAddress","type":"tuple","internalType":"struct FvmAddress","components":[{"name":"addrType","type":"uint8","internalType":"uint8"},{"name":"payload","type":"bytes","internalType":"bytes"}]}]},{"name":"to","type":"tuple","internalType":"struct IPCAddress","components":[{"name":"subnetId","type":"tuple","internalType":"struct SubnetID","components":[{"name":"root","type":"uint64","internalType":"uint64"},{"name":"route","type":"address[]","internalType":"address[]"}]},{"name":"rawAddress","type":"tuple","internalType":"struct FvmAddress","components":[{"name":"addrType","type":"uint8","internalType":"uint8"},{"name":"payload","type":"bytes","internalType":"bytes"}]}]},{"name":"value","type":"uint256","internalType":"uint256"},{"name":"nonce","type":"uint64","internalType":"uint64"},{"name":"method","type":"bytes4","internalType":"bytes4"},{"name":"params","type":"bytes","internalType":"bytes"},{"name":"fee","type":"uint256","internalType":"uint256"}]},{"name":"wrapped","type":"bool","internalType":"bool"}]}],"outputs":[],"stateMutability":"nonpayable"},{"type":"function","name":"applyFinalityChanges","inputs":[],"outputs":[{"name":"","type":"uint64","internalType":"uint64"}],"stateMutability":"nonpayable"},{"type":"function","name":"commitCheckpoint","inputs":[{"name":"checkpoint","type":"tuple","internalType":"struct BottomUpCheckpoint","components":[{"name":"subnetID","type":"tuple","internalType":"struct SubnetID","components":[{"name":"root","type":"uint64","internalType":"uint64"},{"name":"route","type":"address[]","internalType":"address[]"}]},{"name":"blockHeight","type":"uint256","internalType":"uint256"},{"name":"blockHash","type":"bytes32","internalType":"bytes32"},{"name":"nextConfigurationNumber","type":"uint64","internalType":"uint64"}]}],"outputs":[],"stateMutability":"nonpayable"},{"type":"function","name":"commitParentFinality","inputs":[{"name":"finality","type":"tuple","internalType":"struct ParentFinality","components":[{"name":"height","type":"uint256","internalType":"uint256"},{"name":"blockHash","type":"bytes32","internalType":"bytes32"}]}],"outputs":[{"name":"hasCommittedBefore","type":"bool","internalType":"bool"},{"name":"previousFinality","type":"tuple","internalType":"struct ParentFinality","components":[{"name":"height","type":"uint256","internalType":"uint256"},{"name":"blockHash","type":"bytes32","internalType":"bytes32"}]}],"stateMutability":"nonpayable"},{"type":"function","name":"createBottomUpCheckpoint","inputs":[{"name":"checkpoint","type":"tuple","internalType":"struct BottomUpCheckpoint","components":[{"name":"subnetID","type":"tuple","internalType":"struct SubnetID","components":[{"name":"root","type":"uint64","internalType":"uint64"},{"name":"route","type":"address[]","internalType":"address[]"}]},{"name":"blockHeight","type":"uint256","internalType":"uint256"},{"name":"blockHash","type":"bytes32","internalType":"bytes32"},{"name":"nextConfigurationNumber","type":"uint64","internalType":"uint64"}]},{"name":"membershipRootHash","type":"bytes32","internalType":"bytes32"},{"name":"membershipWeight","type":"uint256","internalType":"uint256"}],"outputs":[],"stateMutability":"nonpayable"},{"type":"function","name":"createBottomUpMsgBatch","inputs":[{"name":"batch","type":"tuple","internalType":"struct BottomUpMsgBatch","components":[{"name":"subnetID","type":"tuple","internalType":"struct SubnetID","components":[{"name":"root","type":"uint64","internalType":"uint64"},{"name":"route","type":"address[]","internalType":"address[]"}]},{"name":"blockHeight","type":"uint256","internalType":"uint256"},{"name":"msgs","type":"tuple[]","internalType":"struct CrossMsg[]","components":[{"name":"message","type":"tuple","internalType":"struct StorableMsg","components":[{"name":"from","type":"tuple","internalType":"struct IPCAddress","components":[{"name":"subnetId","type":"tuple","internalType":"struct SubnetID","components":[{"name":"root","type":"uint64","internalType":"uint64"},{"name":"route","type":"address[]","internalType":"address[]"}]},{"name":"rawAddress","type":"tuple","internalType":"struct FvmAddress","components":[{"name":"addrType","type":"uint8","internalType":"uint8"},{"name":"payload","type":"bytes","internalType":"bytes"}]}]},{"name":"to","type":"tuple","internalType":"struct IPCAddress","components":[{"name":"subnetId","type":"tuple","internalType":"struct SubnetID","components":[{"name":"root","type":"uint64","internalType":"uint64"},{"name":"route","type":"address[]","internalType":"address[]"}]},{"name":"rawAddress","type":"tuple","internalType":"struct FvmAddress","components":[{"name":"addrType","type":"uint8","internalType":"uint8"},{"name":"payload","type":"bytes","internalType":"bytes"}]}]},{"name":"value","type":"uint256","internalType":"uint256"},{"name":"nonce","type":"uint64","internalType":"uint64"},{"name":"method","type":"bytes4","internalType":"bytes4"},{"name":"params","type":"bytes","internalType":"bytes"},{"name":"fee","type":"uint256","internalType":"uint256"}]},{"name":"wrapped","type":"bool","internalType":"bool"}]}]},{"name":"membershipRootHash","type":"bytes32","internalType":"bytes32"},{"name":"membershipWeight","type":"uint256","internalType":"uint256"}],"outputs":[],"stateMutability":"nonpayable"},{"type":"function","name":"execBottomUpMsgBatch","inputs":[{"name":"batch","type":"tuple","internalType":"struct BottomUpMsgBatch","components":[{"name":"subnetID","type":"tuple","internalType":"struct SubnetID","components":[{"name":"root","type":"uint64","internalType":"uint64"},{"name":"route","type":"address[]","internalType":"address[]"}]},{"name":"blockHeight","type":"uint256","internalType":"uint256"},{"name":"msgs","type":"tuple[]","internalType":"struct CrossMsg[]","components":[{"name":"message","type":"tuple","internalType":"struct StorableMsg","components":[{"name":"from","type":"tuple","internalType":"struct IPCAddress","components":[{"name":"subnetId","type":"tuple","internalType":"struct SubnetID","components":[{"name":"root","type":"uint64","internalType":"uint64"},{"name":"route","type":"address[]","internalType":"address[]"}]},{"name":"rawAddress","type":"tuple","internalType":"struct FvmAddress","components":[{"name":"addrType","type":"uint8","internalType":"uint8"},{"name":"payload","type":"bytes","internalType":"bytes"}]}]},{"name":"to","type":"tuple","internalType":"struct IPCAddress","components":[{"name":"subnetId","type":"tuple","internalType":"struct SubnetID","components":[{"name":"root","type":"uint64","internalType":"uint64"},{"name":"route","type":"address[]","internalType":"address[]"}]},{"name":"rawAddress","type":"tuple","internalType":"struct FvmAddress","components":[{"name":"addrType","type":"uint8","internalType":"uint8"},{"name":"payload","type":"bytes","internalType":"bytes"}]}]},{"name":"value","type":"uint256","internalType":"uint256"},{"name":"nonce","type":"uint64","internalType":"uint64"},{"name":"method","type":"bytes4","internalType":"bytes4"},{"name":"params","type":"bytes","internalType":"bytes"},{"name":"fee","type":"uint256","internalType":"uint256"}]},{"name":"wrapped","type":"bool","internalType":"bool"}]}]}],"outputs":[],"stateMutability":"nonpayable"},{"type":"function","name":"pruneBottomUpCheckpoints","inputs":[{"name":"newRetentionHeight","type":"uint256","internalType":"uint256"}],"outputs":[],"stateMutability":"nonpayable"},{"type":"function","name":"pruneBottomUpMsgBatches","inputs":[{"name":"newRetentionHeight","type":"uint256","internalType":"uint256"}],"outputs":[],"stateMutability":"nonpayable"},{"type":"function","name":"storeValidatorChanges","inputs":[{"name":"changeRequests","type":"tuple[]","internalType":"struct StakingChangeRequest[]","components":[{"name":"change","type":"tuple","internalType":"struct StakingChange","components":[{"name":"op","type":"uint8","internalType":"enum StakingOperation"},{"name":"payload","type":"bytes","internalType":"bytes"},{"name":"validator","type":"address","internalType":"address"}]},{"name":"configurationNumber","type":"uint64","internalType":"uint64"}]}],"outputs":[],"stateMutability":"nonpayable"},{"type":"error","name":"AddressEmptyCode","inputs":[{"name":"target","type":"address","internalType":"address"}]},{"type":"error","name":"AddressInsufficientBalance","inputs":[{"name":"account","type":"address","internalType":"address"}]},{"type":"error","name":"AddressShouldBeValidator","inputs":[]},{"type":"error","name":"BatchAlreadyExists","inputs":[]},{"type":"error","name":"BatchNotCreated","inputs":[]},{"type":"error","name":"BatchWithNoMessages","inputs":[]},{"type":"error","name":"CannotConfirmFutureChanges","inputs":[]},{"type":"error","name":"CheckpointAlreadyExists","inputs":[]},{"type":"error","name":"CheckpointNotCreated","inputs":[]},{"type":"error","name":"FailedAddIncompleteQuorum","inputs":[]},{"type":"error","name":"FailedAddSignatory","inputs":[]},{"type":"error","name":"FailedInnerCall","inputs":[]},{"type":"error","name":"FailedRemoveIncompleteQuorum","inputs":[]},{"type":"error","name":"InvalidActorAddress","inputs":[]},{"type":"error","name":"InvalidBatchEpoch","inputs":[]},{"type":"error","name":"InvalidBatchSource","inputs":[]},{"type":"error","name":"InvalidCheckpointEpoch","inputs":[]},{"type":"error","name":"InvalidCheckpointSource","inputs":[]},{"type":"error","name":"InvalidConfigurationNumber","inputs":[]},{"type":"error","name":"InvalidCrossMsgDstSubnet","inputs":[]},{"type":"error","name":"InvalidCrossMsgNonce","inputs":[]},{"type":"error","name":"InvalidRetentionHeight","inputs":[]},{"type":"error","name":"InvalidSignature","inputs":[]},{"type":"error","name":"InvalidSubnet","inputs":[]},{"type":"error","name":"MaxMsgsPerBatchExceeded","inputs":[]},{"type":"error","name":"NotAuthorized","inputs":[{"name":"","type":"address","internalType":"address"}]},{"type":"error","name":"NotEnoughBalance","inputs":[]},{"type":"error","name":"NotEnoughSubnetCircSupply","inputs":[]},{"type":"error","name":"NotRegisteredSubnet","inputs":[]},{"type":"error","name":"NotSystemActor","inputs":[]},{"type":"error","name":"OldConfigurationNumber","inputs":[]},{"type":"error","name":"PQDoesNotContainAddress","inputs":[]},{"type":"error","name":"PQEmpty","inputs":[]},{"type":"error","name":"ParentFinalityAlreadyCommitted","inputs":[]},{"type":"error","name":"QuorumAlreadyProcessed","inputs":[]},{"type":"error","name":"SignatureReplay","inputs":[]},{"type":"error","name":"SubnetNotActive","inputs":[]},{"type":"error","name":"SubnetNotFound","inputs":[]},{"type":"error","name":"ZeroMembershipWeight","inputs":[]}],"bytecode":{"object":"0x6080806040523461001757615c0990816200001d8239f35b600080fdfe6080604052600436101561001257600080fd5b6000803560e01c80630bed7615146116845780630db0f77c1461138e5780630df144611461135a578063111969741461129d57806332e7661f14610e7a57806347dc9b4f14610b8257806353b4e7bf146107e9578063743037711461050d578063ac81837914610393578063bacc656d14610183578063c62eb4d5146100ec5763e49a547d146100a157600080fd5b346100e95760203660031901126100e9576004356001600160401b0381116100e5576100d46100e2913690600401611abc565b906100dd613c0f565b6140a9565b80f35b5080fd5b80fd5b50346100e95760203660031901126100e9576001600160401b0360043581811161017f5761011e903690600401611abc565b610126613c0f565b60405192602084019081118482101761016b5791610165916100e294936040528584526040519361015685611909565b86855260208501523691611e0e565b906123bd565b634e487b7160e01b85526041600452602485fd5b8280fd5b50346100e9576020806003193601126100e557600435906101a2613c0f565b6012545b8281106102db5750601254808311156102c9575b8281106101c957505060125580f35b808452601382526040842090848255846004600193828582015582600282015582600382015501556016835260408520805490868155816102a6575b50508085526040852060405180828682945493848152019089528689209289905b878982841061028d575050505061023f92500382611970565b80519083875b8381106102565750505050016101ba565b84895260178752604089206001600160a01b036102738386612111565b51168a52875261028560408a2061305e565b018490610245565b9092945082919386548152019401920184929391610226565b865282848720918201915b8281106102be5750610205565b8781550183906102b1565b604051636819a3a960e01b8152600490fd5b808452600990818352604085209185835560036001936102fc858201612557565b876002820155019081549087835581610319575b505050016101a6565b600d92828402928484040361037f578852858820918201915b82811061033f5750610310565b8061034a85926130a7565b610356600482016130a7565b896008820155898382015561036d600a820161305e565b89600b82015589600c82015501610332565b634e487b7160e01b89526011600452602489fd5b50346100e9576020806003193601126100e557600435906103b2613c0f565b600b545b8281106104d95750600b54808311156102c9575b8281106103d9575050600b5580f35b808452600c8252604084209084825584600460019382858201558260028201558260038201550155600f835260408520805490868155816104b6575b50508085526040852060405180828682945493848152019089528689209289905b878982841061049d575050505061044f92500382611970565b80519083875b8381106104665750505050016103ca565b84895260108752604089206001600160a01b036104838386612111565b51168a52875261049560408a2061305e565b018490610455565b9092945082919386548152019401920184929391610436565b865282848720918201915b8281106104ce5750610415565b8781550183906104c1565b8084526008825260408420908482558460046001936104f9858201612557565b8260028201558260038201550155016103b6565b50346100e9576003196060368201126100e5576004356001600160401b038082116107e5576080826004019383360301126107e5576044359261054e613c0f565b602483013593610560601e5486612ed3565b6107d3578486526020936008855260026040882001546107c15760405191858301918683526105a36105928680612ef3565b6080604087015260c0860190612f3b565b928860608601526044820135948560808201526105dd8160648501968a6105c989611b01565b1660a083015203601f198101835282611970565b5190209160ff601d541690600b548a106107af57801561079d576064916106039161252d565b049161060e89613e58565b1561078b576040516106809161062382611955565b815260048a8a8d6040828601916024358352818701998a52600c60608801948286526080890196838852835252209451855551966001978886015551600285015551600384015551151591019060ff801983541691151516179055565b6040519460808601868110888211176107775760405235908682116107735760046106ae9236920101611b29565b84526106c68685019288845260408601948552611b01565b96606085019788528852600886526040882093519585875116966001600160401b03199788875416178655818387019101519182519288841161075f57819061070f858561257b565b01918b52808b20908b5b848110610745575050505050509060049291516002830155516003820155019251169082541617905580f35b83516001600160a01b031683820155928101928501610719565b634e487b7160e01b8c52604160045260248cfd5b8980fd5b634e487b7160e01b8b52604160045260248bfd5b604051630cbd1cd360e11b8152600490fd5b604051634e8ac6e560e01b8152600490fd5b604051630108e13760e21b8152600490fd5b60405163b8a1eae160e01b8152600490fd5b60405163fae4eadb60e01b8152600490fd5b8380fd5b50346100e9576107f836611a1d565b909291600b5483106107af5782855260209160088352600260408720015415610b7057838652600c83526040862092610832828554613cb5565b5061083c81613c86565b610b5e57858852600f825260408089206001600160a01b0383166000818152600190920160205291902054610b4c57604080516001600160a01b03909316848401908152602081018a9052908390820103926108a0601f1994858101835282611970565b5190206040518481019182528481526108b881611909565b519020600195868089015492918c915b610ae9575b505003610ad157868952600f83526108e88160408b20613ea5565b15610abf578689526010835260408920908952825260408820928051926001600160401b038411610aab579083929161092b846109258854612125565b886125af565b8092601f8511600114610a4b5750508992610a40575b5050600019600383901b1c191690831b1790555b6109646003830194855461204e565b908185556002830154821015610978578580f35b600483018054909260ff82166109f9575060ff191617905561099982613fec565b156109e7576109da7fc08568b61a3224ac0d48121f065552f2f645d3777d353bd87291108bc36514949360ff600a5416925490549060405194859485613c90565b0390a15b38808080808580f35b6040516344a7b48760e11b8152600490fd5b9150507f103355808c87614c31e835c1a86487b17b1e54cf36e0ac4469c8d1e892239cbc9450610a38915060ff600a5416925460405194859485613c90565b0390a16109de565b015190503880610941565b87959392919316868c52838c20938c905b828210610a925750508411610a79575b505050811b019055610955565b015160001960f88460031b161c19169055388080610a6c565b8484015186558997909501949384019390810190610a5c565b634e487b7160e01b8a52604160045260248afd5b604051633363140f60e01b8152600490fd5b60249060405190634a0bfec160e01b82526004820152fd5b90918151831015610b4657610afe8383612111565b519081811015610b38578d52865260408c205b916000198114610b2457880190886108c8565b634e487b7160e01b8d52601160045260248dfd5b908d52865260408c20610b11565b916108cd565b604051635a3fd0d960e11b8152600490fd5b604051638baa579f60e01b8152600490fd5b6040516358cdd2e760e01b8152600490fd5b50346100e9576003196020368201811361017f57600435916001600160401b0390818411610e765783600401916080828636030112610e7257610c0b91610bd236610bcd8680611aec565b611b29565b918573__$a0fe38a9a81205afccc10810b09a4d3f45$__9360405180968192632cff562160e11b83528460048401526024830190611be0565b0381865af4938415610e67578894610e2c575b506001600160a01b03933390851603610e1a57610c3a33613914565b959015610e095791610c7a94610c5888959394610bcd369180611aec565b9360405196879563c836244d60e01b8752604060048801526044870190611be0565b928584030160248601526040830190600489015416835260606005890193604088820152845480935201928b52858b20918b905b828210610deb575050505082809103915af4908115610de0578591610db3575b5015610da1576003015460801c60ff166006811015610d8d57600103610d7b578260ff602c5460181c16610cff5780f35b80610d6b93604051602485820192632643057b60e11b84520135602482015282604482015282606482015260648152610d3781611955565b519082335af13d15610d72573d610d4d816119a8565b90610d5b6040519283611970565b81528481933d92013e5b33611cf2565b5038808280f35b60609150610d65565b60405163c18316bf60e01b8152600490fd5b634e487b7160e01b84526021600452602484fd5b6040516303b5db8360e11b8152600490fd5b610dd39150833d8511610dd9575b610dcb8183611970565b810190611c3b565b38610cce565b503d610dc1565b6040513d87823e3d90fd5b8354811685528a978997509094019360019384019390910190610cae565b6040516208ed5b60e31b8152600490fd5b604051637f39132760e11b8152600490fd5b9093508581813d8311610e60575b610e448183611970565b81010312610e5c57610e5590611bcc565b9238610c1e565b8780fd5b503d610e3a565b6040513d8a823e3d90fd5b8580fd5b8480fd5b50346100e9576003196060368201126100e557600435906001600160401b03821161017f5760609082360301126100e557610eb3613c0f565b610ec8610ec33683600401611f62565b6130ca565b610ed8601f546024830135612ed3565b1580159061128f575b61127d57602481013582526009602052600260408320015461126b57604051602080820152610f27610f166004840180612ef3565b6060604084015260a0830190612f3b565b6024830135606083015281610f426044850185600401612f07565b603f93919319838303016080840152808252602082019160208260051b820101928589925b848410611160575050505050610f86925003601f198101835282611970565b6020815191012060ff601d54166012546024840135106107af57604435801561079d57606491610fb59161252d565b0491610fc46024820135613def565b1561078b5761103f6110499260405190610fdd82611955565b815260046020820160243581526040830196875260608301888152608084019189835260248701358a52601360205260408a209451855551976001988986015551600285015551600384015551151591019060ff801983541691151516179055565b3690600401611f62565b6020810190815184526009602052604084209181516001600160401b038151166001600160401b03198554161784556020858501910151908151916001600160401b03831161112f5760209061109f848461257b565b019087526020872086885b8481106111435789828960408a8a5160028401550190815151916003859201915b8381106110d6578580f35b6110e1818351612111565b518354600160401b81101561112f5786810180865581101561111b5786929161111591868a52600d60208b209102016125f4565b016110cb565b634e487b7160e01b88526032600452602488fd5b634e487b7160e01b88526041600452602488fd5b83516001600160a01b0316818401556020909301928891016110aa565b919395509193601f198282030184526111798784612ef3565b90813560de19833603018112156112675782602092836112508160019781960194604085526111dd6111c06111ae8880612ef3565b60e06040890152610120880190612ffd565b6111cc84890189612ef3565b878203603f19016060890152612ffd565b604087013560808701526001600160401b036111fb60608901611b01565b1660a08701526112416001600160e01b031961121960808a01611dec565b169160c0928389015261122f60a08a018a612fab565b898303603f190160e08b015290612fdc565b96013561010086015201611e01565b151591015298019401940191879593969491610f67565b8b80fd5b60405163d15f973b60e01b8152600490fd5b60405163200c52f760e21b8152600490fd5b506024810135431115610ee1565b50346100e95760403660031901126100e9576040516112bb81611909565b818152816020809201526112cd613c0f565b81816040516112db81611909565b828152015260025491600435918284116113485760609382526001815260408220926040600181519561130d87611909565b805487520154938386019485528281526001845220818155600160243591015560025582511515926040519384525190830152516040820152f35b60405163153ad84160e11b8152600490fd5b50346100e957806003193601126100e957611373613c0f565b602061137d612205565b6001600160401b0360405191168152f35b50346100e95761139d36611a1d565b90929160125483106107af5782855260209160098352600260408720015415611672578386526013835260408620926113d7828554613cb5565b506113e181613c86565b610b5e578588526016825260408089206001600160a01b0383166000818152600190920160205291902054610b4c57604080516001600160a01b03909316848401908152602081018a905290839082010392611445601f1994858101835282611970565b51902060405184810191825284815261145d81611909565b519020600195868089015492918c915b611623575b505003610ad1578689526016835261148d8160408b20613ea5565b15610abf578689526017835260408920908952825260408820928051926001600160401b038411610aab57908392916114ca846109258854612125565b8092601f85116001146115c357505089926115b8575b5050600019600383901b1c191690831b1790555b6115036003830194855461204e565b908185556002830154821015611517578580f35b600483018054909260ff8216611579575060ff191617905561153882613f02565b156109e7576109da7fc08568b61a3224ac0d48121f065552f2f645d3777d353bd87291108bc36514949360ff60115416925490549060405194859485613c90565b9150507f103355808c87614c31e835c1a86487b17b1e54cf36e0ac4469c8d1e892239cbc9450610a38915060ff60115416925460405194859485613c90565b0151905038806114e0565b87959392919316868c52838c20938c905b82821061160a57505084116115f1575b505050811b0190556114f4565b015160001960f88460031b161c191690553880806115e4565b84840151865589979095019493840193908101906115d4565b9091815183101561166c576116388383612111565b51908181101561165e578d52865260408c205b916000198114610b24578801908861146d565b908d52865260408c2061164b565b91611472565b60405163a88f96f160e01b8152600490fd5b50346100e9576003196020368201811361017f57600435916001600160401b0383116107e5576060836004019184360301126107e5576116ed826116cc36610bcd8580611aec565b60405180938192632cff562160e11b83528460048401526024830190611be0565b038173__$a0fe38a9a81205afccc10810b09a4d3f45$__5af4908115610de05785916118d4575b50336001600160a01b03909116036118bf57611733610ec33683611f62565b61173c33613914565b919015610e095760ff600383015460801c169160068310156118ab576001809303610d7b57856044879601936117728585611fd7565b899291505b80831061185c5750505061178b908661204e565b90600281019182549080821061184a576117ce95600495610165956117b66117bd946117c696612071565b9055611fd7565b9490920161207e565b923691611e0e565b60ff602c54821c166117de578280f35b60405181810190632643057b60e11b82524360248201528360448201528460648201526064815261180e81611955565b83471061183257610d6b93859283925191335af13d15610d72573d610d4d816119a8565b60405163cd78605960e01b8152306004820152602490fd5b604051631d36ca1560e21b8152600490fd5b906118a261188e849a956040611886611880869861187a8e8e611fd7565b9061200c565b80612039565b01359061204e565b9460c06118866118808d61187a8d8d611fd7565b98019190611777565b634e487b7160e01b86526021600452602486fd5b60405160016201ad9360e61b03198152600490fd5b90508281813d8311611902575b6118eb8183611970565b81010312610e76576118fc90611bcc565b38611714565b503d6118e1565b604081019081106001600160401b0382111761192457604052565b634e487b7160e01b600052604160045260246000fd5b606081019081106001600160401b0382111761192457604052565b60a081019081106001600160401b0382111761192457604052565b90601f801991011681019081106001600160401b0382111761192457604052565b6001600160401b0381116119245760051b60200190565b6001600160401b03811161192457601f01601f191660200190565b9291926119cf826119a8565b916119dd6040519384611970565b8294818452818301116119fa578281602093846000960137010152565b600080fd5b9080601f830112156119fa57816020611a1a933591016119c3565b90565b9060806003198301126119fa57600435916001600160401b03916024358381116119fa57826023820112156119fa578060040135611a5a81611991565b91611a686040519384611970565b81835260209160248385019160051b830101918683116119fa57602401905b828210611aad575050505092604435926064359182116119fa57611a1a916004016119ff565b81358152908301908301611a87565b9181601f840112156119fa578235916001600160401b0383116119fa576020808501948460051b0101116119fa57565b903590603e19813603018212156119fa570190565b35906001600160401b03821682036119fa57565b35906001600160a01b03821682036119fa57565b91906040838203126119fa5760405192611b4284611909565b83611b4c82611b01565b815260209182810135906001600160401b0382116119fa57019280601f850112156119fa578335611b7c81611991565b94611b8a6040519687611970565b818652848087019260051b8201019283116119fa5784809101915b838310611bb457505050500152565b8190611bbf84611b15565b8152019101908490611ba5565b51906001600160a01b03821682036119fa57565b60609060408301906001600160401b03815116845260209283809201519460408382015285518094520193019160005b828110611c1e575050505090565b83516001600160a01b031685529381019392810192600101611c10565b908160209103126119fa575180151581036119fa5790565b60408101906001600160401b036019541681526060602091604083820152601a548094520191601a6000527f057c384a7d1c54f3a1b2e5e67b2617b8224fdfd1ea7234eea573a6ff665ff63e916000905b828210611cb2575050505090565b83546001600160a01b031685529384019360019384019390910190611ca4565b60021115611cdc57565b634e487b7160e01b600052602160045260246000fd5b9015611d3057815115611d03575090565b803b15611d0e575090565b604051639996b31560e01b81526001600160a01b039091166004820152602490fd5b50805115611d4057805190602001fd5b604051630a12f52160e11b8152600490fd5b359060ff821682036119fa57565b91906040838203126119fa5760405192611d7984611909565b838135916001600160401b03928381116119fa5784611d99918301611b29565b82526020810135908382116119fa57016040818503126119fa5760405193611dc085611909565b611dc982611d52565b855260208201359384116119fa57602093611de492016119ff565b828401520152565b35906001600160e01b0319821682036119fa57565b359081151582036119fa57565b929192611e1a82611991565b91604090611e2a82519485611970565b839581855260208095019160051b8401938185116119fa5780925b858410611e555750505050505050565b6001600160401b039084358281116119fa5783019086828603126119fa578651611e7e81611909565b82358481116119fa5783019260e09485858903126119fa57895195860186811082821117611f4d578a5284358181116119fa5788611ebd918701611d60565b86528b8501358181116119fa5788611ed6918701611d60565b8c870152898501358a8701526060611eef818701611b01565b908701526080611f00818701611dec565b9087015260a091828601359182116119fa578c9686611f3e94611f288c8b9a968b97016119ff565b9083015260c08091013590820152845201611e01565b83820152815201930192611e45565b60246000634e487b7160e01b81526041600452fd5b91906060838203126119fa5760405190611f7b8261193a565b81938035906001600160401b03918281116119fa5783611f9c918301611b29565b84526020810135602085015260408101359182116119fa570181601f820112156119fa57604091816020611fd293359101611e0e565b910152565b903590601e19813603018212156119fa57018035906001600160401b0382116119fa57602001918160051b360383136119fa57565b9082101561202357611a1a9160051b810190611aec565b634e487b7160e01b600052603260045260246000fd5b90359060de19813603018212156119fa570190565b9190820180921161205b57565b634e487b7160e01b600052601160045260246000fd5b9190820391821161205b57565b9060405161208b81611909565b80926001600160401b03815416825260018091019160405191828481955492838652602080960191600052856000209060005b878682106120da57505050506120d692500384611970565b0152565b83546001600160a01b03168552899550909301929181019181016120be565b9060016001600160401b038093160191821161205b57565b80518210156120235760209160051b010190565b90600182811c92168015612155575b602083101461213f57565b634e487b7160e01b600052602260045260246000fd5b91607f1691612134565b906040519182600082549261217384612125565b9081845260019485811690816000146121e2575060011461219f575b505061219d92500383611970565b565b9093915060005260209081600020936000915b8183106121ca57505061219d9350820101388061218f565b855488840185015294850194879450918301916121b2565b91505061219d94506020925060ff191682840152151560051b820101388061218f565b602a546001600160401b038082166000190181811161205b57612227816120f9565b8280604095861c169116146123b55761223f816142f2565b61ffff9283602454169161225283611991565b9561225f83519788611970565b838752601f19918261227086611991565b019260209336858b013760015b8881168781116122bf576000908152602686528690205489916001916001600160a01b03166122b78d856122b085614095565b1690612111565b52011661227d565b5050945094919290955086516122d481611991565b946122e183519687611970565b8186526122ed82611991565b018460005b82811061238c5750505060005b818110612327575050611a1a94959650519261231a84611909565b8352841690820152613435565b6001906001600160a01b0361233c828c612111565b5116806000526023875261236c60038660002085810154938851946123608661193a565b85528a8501520161215f565b8582015261237a8289612111565b526123858188612111565b50016122ff565b84516123978161193a565b6000815260008382015260608682015282828a0101520185906122f2565b505050600090565b81519160005b8381106123d05750505050565b806123e76123e060019385612111565b51856129ea565b016123c3565b60005b8381106124005750506000910152565b81810151838201526020016123f0565b90602091612429815180928185528580860191016123ed565b601f01601f1916010190565b60406020611a1a938161244f855185845285840190611be0565b940151908281860391015260ff81511684520151918160208201520190612410565b9060c0806124e26124a061248e865160e0875260e0870190612435565b60208701518682036020880152612435565b604086015160408601526001600160401b03606087015116606086015263ffffffff60e01b608087015116608086015260a086015185820360a0870152612410565b93015191015290565b81601f820112156119fa578051612501816119a8565b9261250f6040519485611970565b818452602082840101116119fa57611a1a91602080850191016123ed565b8181029291811591840414171561205b57565b81811061254b575050565b60008155600101612540565b80546000825580612566575050565b61219d91600052602060002090810190612540565b90600160401b81116119245781549080835581811061259957505050565b61219d9260005260206000209182019101612540565b9190601f81116125be57505050565b61219d926000526020600020906020601f840160051c830193106125ea575b601f0160051c0190612540565b90915081906125dd565b908051908151918251926001600160401b03808551166001600160401b0319908188541617875560018088019360208098015180519085821161192457899061263d838961257b565b01600096875289872084885b8481106129cf5750505050508760028a019101519260ff8451169160ff19928382541617905560039389858c01910151805190878211612945578190612699826126938654612125565b866125af565b8c90601f8311600114612964578a92612959575b505060001982881b1c191690851b1790555b60048a0190898801519182519187835116908254161790558960058c0191015190815191878311612945578b906126f6848461257b565b019088528a882085895b84811061292a5750505050508860068b019101519160ff835116908254161790558760078a01910151805190858211612916578190612743826126938654612125565b8a90601f83116001146128b75788926128ac575b505060001982861b1c191690831b1790555b6040850151600889015560098801836060870151168154906bffffffff0000000000000000608089015160a01c16916001600160601b03191617179055600a88019360a08601518051948511612898576127c7856109258854612125565b8891601f8611600114612827579385600c999794819460c0989461219d9e9d9b989561281c575b50501b92600019911b1c19161790555b0151600b8501550151151591019060ff801983541691151516179055565b0151935038806127ee565b9294939190601f1985168785528a8520945b8181106128835750928592600c9a98959261219d9d9c9a9760c0999610612869575b50505050811b0190556127fe565b01519060f884600019921b161c191690553880808061285b565b82840151865594870194928b01928b01612839565b634e487b7160e01b82526041600452602482fd5b015190503880612757565b8489528b89208694509190601f1984168a8e5b8282106128ff57505084116128e7575b505050811b019055612769565b015160001983881b60f8161c191690553880806128da565b83850151865589979095019493840193018e6128ca565b634e487b7160e01b87526041600452602487fd5b83516001600160a01b031683820155928d0192879101612700565b634e487b7160e01b89526041600452602489fd5b0151905038806126ad565b879350908d91601f198416868d52838d20938d905b8282106129ae5750508411612996575b505050811b0190556126bf565b0151600019838a1b60f8161c19169055388080612989565b91929395968291958786015181550195019301908f918a9695949392612979565b83516001600160a01b031683820155928c0192869101612649565b9060209182825101515173__$a0fe38a9a81205afccc10810b09a4d3f45$__90604092835190630c133d1360e31b91828152878180612a3460049784898401526024830190611be0565b0381885af4908115612ec857600091612eab575b50612e9b57855160808101516001600160e01b031995918791871615612e7c575b5050865192612a8d87519463f47ad7eb60e01b865288878701526044860190612471565b898580612aa66003199485838203016024840152611c53565b038173__$386b5c41ce93e8b832daf8008b3d30ae09$__5af4948515612e3457908a91600096612e3f575b50895182015151895163c836244d60e01b81528881018b9052929183918291612b1191612b02906044850190611be0565b90838203016024840152611c53565b0381865af4908115612e3457600091612e17575b50612bf057505050505061219d936003918351612be1818481019385855260c0612bbf8a51928a80860152612b67845160e0608088015261016087019061310e565b612b828a86015191607f1992838983030160a08a015261310e565b918c860151858801526001600160401b0360608701511660e088015260808601511661010087015260a08501519086830301610120870152612410565b910151610140830152858901511515606083015203601f198101835282611970565b519020600052526000206125f4565b889798949550612bff84611cd2565b60018414612d24575b505050612c1481611cd2565b15612cbc575b60009183519586928392635c46fefb60e11b845283015285612c4782518760248601526064850190612471565b91015115156044830152038173__$33b79814e84bf6cf5e47244090b19ce5f8$__5af4908115612cb25750612c7a575050565b3d806000843e612c8a8184611970565b820190828203126119fa5781516001600160401b0381116119fa57612caf92016124eb565b50565b513d6000823e3d90fd5b50601d546001600160401b03808260481c1690606087510151168103612d145791849167ffffffffffffffff60481b612cf66000956120f9565b60481b169067ffffffffffffffff60481b191617601d559150612c1a565b835163a57cadff60e01b81528390fd5b86949192939451928391825282878301528180612d446024820188611be0565b03915af4908115612e0c579086939291600091612def575b5015612d6a575b8080612c08565b612d75919250613b0d565b9015612ddf5760030180546001600160401b038082871c1690606089510151168103612dcf579067ffffffffffffffff60401b612db4889594936120f9565b871b169067ffffffffffffffff60401b191617905538612d63565b855163a57cadff60e01b81528590fd5b8351630e991abd60e41b81528390fd5b612e069150843d8611610dd957610dcb8183611970565b38612d5c565b85513d6000823e3d90fd5b612e2e91508a3d8c11610dd957610dcb8183611970565b38612b25565b88513d6000823e3d90fd5b90959181813d8311612e75575b612e568183611970565b810103126100e557519060028210156100e95750938990612b02612ad1565b503d612e4c565b01514710612e8b578538612a69565b855163569d45cf60e11b81528490fd5b845163c5f563eb60e01b81528390fd5b612ec29150883d8a11610dd957610dcb8183611970565b38612a48565b86513d6000823e3d90fd5b8115612edd570690565b634e487b7160e01b600052601260045260246000fd5b9035603e19823603018112156119fa570190565b9035601e19823603018112156119fa5701602081359101916001600160401b0382116119fa578160051b360383136119fa57565b60408201916001600160401b03612f5183611b01565b1681526060612f6560209384810190612f07565b839195604086839601525201929160005b828110612f84575050505090565b909192938280600192838060a01b03612f9c89611b15565b16815201950193929101612f76565b9035601e19823603018112156119fa5701602081359101916001600160401b0382116119fa5781360383136119fa57565b908060209392818452848401376000828201840152601f01601f1916010190565b604061304e611a1a9361302d6130226130168680612ef3565b85845285840190612f3b565b946020810190612ef3565b90602081860391015260ff61304182611d52565b1684526020810190612fab565b9190928160208201520191612fdc565b6130688154612125565b9081613072575050565b81601f60009311600114613084575055565b9080839182526130a3601f60208420940160051c840160018501612540565b5555565b600361219d91600081556130bd60018201612557565b600060028201550161305e565b6040018051516001600160401b0360205416106130fc575151156130ea57565b6040516338d2307f60e01b8152600490fd5b60405163351c700760e01b8152600490fd5b91908251906040815260808101936001600160401b038351166040830152602080930151946040606084015285518091528360a0840196019060005b81811061317e5750505093604083819381611a1a97980151908281860391015260ff81511684520151938201520190612410565b82516001600160a01b03168852968501969185019160010161314a565b90815180825260208092019182818360051b85019501936000915b8483106131c65750505050505090565b909192939495848061320383856001950387528a5180518252858060a01b0384820151168483015260408091015191606080928201520190612410565b98019301930191949392906131b6565b908082146132e7576132258154612125565b906001600160401b038211611924578190613244826126938654612125565b600090601f831160011461327b57600092613270575b50508160011b916000199060031b1c1916179055565b01549050388061325a565b81526020808220858352818320935090601f1985169083905b8282106132ce5750509084600195949392106132b5575b505050811b019055565b015460001960f88460031b161c191690553880806132ab565b8495819295850154815560018091019601940190613294565b5050565b600454811015612023576003906004600052027f8a35acfbc15ff81a39ae7d344fd709f28e8600b4aa8c65c6b64bfe7fe36bd19b0190600090565b9061341f5781518155600190604060028383019260209360018060a01b0385880151166001600160601b0360a01b82541617905501930151908151916001600160401b038311611924576133848361337e8754612125565b876125af565b81601f84116001146133bd57509282939183926000946133b2575b50501b916000199060031b1c1916179055565b01519250388061339f565b919083601f1981168760005284600020946000905b8883831061340557505050106133ec57505050811b019055565b015160001960f88460031b161c191690553880806132ab565b8587015188559096019594850194879350908101906133d2565b634e487b7160e01b600052600060045260246000fd5b604080519160209182845261345482518285870152606086019061319b565b927f7ecdac482334c36fccbe374318cfe74ea0c8181394890ddec894a10f0fcc748181840195806001600160401b039687895116868301520390a183600554169081613740575b505050600490815493600160401b9384861161372b576006548660065580871061368c575b5060066000908152957ff652222313e28459528d920b65115c16c04f3efc82aaedc97be59f3f377c0d3f877f8a35acfbc15ff81a39ae7d344fd709f28e8600b4aa8c65c6b64bfe7fe36bd19b5b83821061363757505050508060055416916001600160401b03199283600754161760075583515193855496885b8681106135c557505050511690600554161760055580831161355d575b50505050565b8281101561355757815480156135b257600019019061357b826132eb565b9290926135a057858355613598600260019488868201550161305e565b83550161355d565b634e487b7160e01b8652858452602486fd5b634e487b7160e01b855260318352602485fd5b888110156135f457806135ee6135de6001938651612111565b516135e8836132eb565b90613326565b0161353a565b6135ff818451612111565b5188548381101561362457600192916135e8828561361f94018d556132eb565b6135ee565b634e487b7160e01b8c5260418a5260248cfd5b806001918403613652575b600380910193019101909161350d565b805484558180850190838060a01b0390830154166001600160601b0360a01b8254161790556136876002808301908601613213565b613642565b600390808202908282040361371657878202828104890361370157600090600682527ff652222313e28459528d920b65115c16c04f3efc82aaedc97be59f3f377c0d3f92830192015b8281106136e4575050506134c0565b80828592558260018201556136fb6002820161305e565b016136d5565b601187634e487b7160e01b6000525260246000fd5b601186634e487b7160e01b6000525260246000fd5b604184634e487b7160e01b6000525260246000fd5b8486511685600754169081811461382d571061381c5782519261376284611909565b60045461376e81611991565b9161377b81519384611970565b8183528383019060046000527f8a35acfbc15ff81a39ae7d344fd709f28e8600b4aa8c65c6b64bfe7fe36bd19b906000925b8484106137da5750505091855250508201526137c99082613837565b6137d55738808061349b565b505050565b60038760019284516137eb8161193a565b86548152848060a01b0385880154168382015261380a6002880161215f565b868201528152019301930192916137ad565b8251633746be2560e11b8152600490fd5b5050505050505050565b6001600160401b0390602091808383015116908385015116036123b55761385d816138d8565b613866846138d8565b036123b557518051835151036123b5576138d16138c591604051908161389686820192878452604083019061319b565b03916138aa601f1993848101835282611970565b5190209451604051938491868301968752604083019061319b565b03908101835282611970565b5190201490565b8051519060009182915b8183106138ef5750505090565b90919261390b600191613903868551612111565b51519061204e565b930191906138e2565b6001600160a01b0390811691908215613afb5760409283519361393685611909565b6001600160401b0391826019541686528151958690601a54908189526020809901926000978893601a85527f057c384a7d1c54f3a1b2e5e67b2617b8224fdfd1ea7234eea573a6ff665ff63e9185905b8d838310613ade5750505050506139a3816139c994950382611970565b818a0152845163aa5106cb60e01b81526004810186905293849283926044840190611be0565b906024830152038173__$a0fe38a9a81205afccc10810b09a4d3f45$__5af4938415613ad3578094613a09575b50505050613a05919250613b0d565b9091565b90919293503d8082843e613a1d8184611970565b82019186818403126100e55780519085821161017f57019383858403126100e557835194613a4a86611909565b805182811681036107e55786528781015191821161017f570182601f820112156100e557805191613a86613a7d84611991565b95519586611970565b828552878086019360051b8301019384116100e957508601905b828210613abc57505050613a05929382015282913880806139f6565b868091613ac884611bcc565b815201910190613aa0565b8251903d90823e3d90fd5b845482168952909701968b96506001938401939190910190613986565b6040516370e4510960e01b8152600490fd5b613b4b73__$a0fe38a9a81205afccc10810b09a4d3f45$__91604051906390ba52cf60e01b8252818060209485938460048401526024830190611be0565b0381865af4908115613bd657600091613be2575b5060005260008152613ba081604060002093613b7d6004860161207e565b906040518080958194630c133d1360e31b83528660048401526024830190611be0565b03915af4918215613bd657600092613bb9575b50501591565b613bcf9250803d10610dd957610dcb8183611970565b3880613bb3565b6040513d6000823e3d90fd5b908282813d8311613c08575b613bf88183611970565b810103126100e957505138613b5f565b503d613bee565b604051635d3f8a6960e01b815233600482015260208160248173__$e800e3908cdbb6b1b5bd452383a17b18f7$__5af4908115613bd657600091613c68575b5015613c5657565b60405163f0d97f3b60e01b8152600490fd5b613c80915060203d8111610dd957610dcb8183611970565b38613c4e565b60041115611cdc57565b909493926060926080830196613ca581611cd2565b8352602083015260408201520152565b8151919060418303613ce657613cdf92506020820151906060604084015193015160001a90613cf1565b9192909190565b505060009160029190565b91907f7fffffffffffffffffffffffffffffff5d576e7357a4501ddfe92f46681b20a08411613d7557926020929160ff608095604051948552168484015260408301526060820152600092839182805260015afa15613d695780516001600160a01b03811615613d6057918190565b50809160019190565b604051903d90823e3d90fd5b50505060009160039190565b6014548110156120235760146000527fce6d7b5282bd9a3661ae061feed1dbda4e52ab073b1f9285be6e155d9c38d4ec0190600090565b600d5481101561202357600d6000527fd7b6990105719101dabeb77144f2a3385c8033acd3af97e9423a695e81ad1eb50190600090565b600081815260156020526040812054613e5357601454600160401b811015612898579082613e3f613e2884600160409601601455613d81565b819391549060031b91821b91600019901b19161790565b905560145492815260156020522055600190565b905090565b6000818152600e6020526040812054613e5357600d54600160401b811015612898579082613e91613e2884600160409601600d55613db8565b9055600d54928152600e6020522055600190565b6000828152600182016020526040902054613efb57805490600160401b82101561192457600182018082558210156120235782600192826000526020600020015580549260005201602052604060002055600190565b5050600090565b6000818152601560205260408120549091908015613fe75760001990808201818111613fd35760145490838201918211613fbf57808203613f8b575b5050506014548015613f7757810190613f5682613d81565b909182549160031b1b19169055601455815260156020526040812055600190565b634e487b7160e01b84526031600452602484fd5b613fa9613f9a613e2893613d81565b90549060031b1c928392613d81565b9055845260156020526040842055388080613f3e565b634e487b7160e01b86526011600452602486fd5b634e487b7160e01b85526011600452602485fd5b505090565b6000818152600e60205260408120549091908015613fe75760001990808201818111613fd357600d5490838201918211613fbf57808203614061575b505050600d548015613f775781019061404082613db8565b909182549160031b1b19169055600d558152600e6020526040812055600190565b61407f614070613e2893613db8565b90549060031b1c928392613db8565b90558452600e6020526040842055388080614028565b61ffff908116600019019190821161205b57565b919080156142d85760005b8181106140c15750509050565b6140cc81838661200c565b9060406140d983806142dd565b01356001600160a01b03818116918290036119fa576140f884806142dd565b359360048510156119fa5761410d81806142dd565b906020918281013590601e19813603018212156119fa57019384356001600160401b03958682116119fa57840181360381136119fa5761414e9136916119c3565b9385602a541694604051986141628a61193a565b61416b81613c86565b89528489019081526040890192835285600052602b85526040600020985161419281613c86565b61419b81613c86565b60ff80198b541691161789555197885198878a11611924576001998a8301916141ce826141c88554612125565b856125af565b8790601f83116001146142635760029493929160009183614258575b5050600019600383901b1c1916908c1b1790555b019151166001600160601b0360a01b8254161790558361421d846120f9565b166001600160401b0319602a541617602a5501359182168092036119fa570361424657016140b4565b604051631aba532960e21b8152600490fd5b0151905038806141ea565b9392918c918360005289600020906000601f198416905b8c8282106142b557505096836002981061429c575b505050811b0190556141fe565b015160001960f88460031b161c1916905538808061428f565b919295899487849397999a9b015181550195019301908f9492979695939161427a565b509050565b903590605e19813603018212156119fa570190565b602a546001600160401b0392838316929190848216841061431f5760405163040aaa0560e11b8152600490fd5b848260401c16841061464c579392919083604091821c16945b84861695848711614615576000908782526020602b81528483209860018060a01b0360028b0154169960ff81541661436f81613c86565b600281036143c457509061439c6001602b94938c9d889d999a9b9c9d52602385520160038a882001613213565b8452528482209180835560026001936143b685820161305e565b015501169493929190614338565b9a6143d28c9a99989a613c86565b60039b808d0361451057506143ea600180930161215f565b809c8b825183019e8f0312610e5c57818601519d9b9c9b8c8f1161450c57906144218e9f8e9f9c9d9e9389809101918601016124eb565b9e8f93015194848a5260238852818c8b20019351928311610aab578e9f9d9e9a9b9c9d6144528461337e8754612125565b88908b601f861160011461449c579480938193602b9c9b9a98969361448c9a9895614491575b50501b92600019911b1c1916179055614653565b61439c565b015193503880614478565b50858c52898c209294939190601f1985168d5b8181106144f7575091859391602b9c9b9a989661448c9a989694106144dd575b50505050811b019055614653565b01519060f884600019921b161c19169055388080806144cf565b82840151865594870194928c01928c016144af565b8880fd5b92939495969799989a9b61452a600193929380930161215f565b868180518101031261450c5797602b9593838f9a938d958a859c9b999601519561455381613c86565b036145d45761457385836145ab9798868852602397888d52200154612071565b93838c5288528d8b208b60028201868154811590816145cb575b50156145bf5750816145a695818555840155550161305e565b614b2d565b6145b86022918254612071565b905561439c565b94935050500155614b2d565b9050153861458d565b50929061448c94508092528b6145f48285602393848b528d20015461204e565b938491848c5288528d8b20015561460e602291825461204e565b9055614697565b509450925067ffffffffffffffff60401b9150614631906120f9565b602a54921b169067ffffffffffffffff60401b191617602a55565b9350505050565b9060018060a01b03821660005260236020526040600020818154915581811460001461467e57505050565b81111561468e5761219d916149a7565b61219d91614e7f565b919060018060a01b03928381166000948186526020916025835261ffff916040978389822054166148b6578360215460081c16846024541610614882576146dc615952565b60019283825260268652828a83205416886146f68261500a565b106147fc57508152602885528389822054166147655750505050506147607f19fe3ca603e87854a0747cc10abf06bac64d61bac73d6d15f2fd3ca448f15264939461474083614f9f565b516001600160a01b03909216825260208201929092529081906040820190565b0390a1565b61476e866159a5565b926147788761500a565b935b81868216116147be575b505097516001600160a01b039095168552505050506020810191909152909150600080516020615bb4833981519152908060408101614760565b80856147dd86617fff8f95871c169485885260298c528720541661500a565b10156147f657906147ef839282615b04565b905061477a565b50614784565b969750899493507ffaeb8de771b867cf357f6b459a7002b62ec45d544a8078a3ecd91200cc826d75989992506147609560289161483761552c565b835252205416614874575b61484b846154bd565b61485483614f9f565b516001600160a01b03928316815292909116602083015281906040820190565b61487d846151c0565b614842565b50505050506147607f2e8038f5812f763c6ef0c5427cb5a05ce6d7064af2ba7d1d270bc02660b019fd9394614740836154bd565b979291506148c7859497969561596e565b976148d18561500a565b976148db8a6153b2565b8460245416905b858116828111614982578281101561496657508061490261490892614f8c565b90615902565b9b909b5b8b111561492b5761491d908c615a6b565b6149268b6153b2565b6148e2565b505093516001600160a01b039095168552505050506020810191909152909250600080516020615b9483398151915291508060408101614760565b849c919c526026835261497d85888620541661500a565b61490c565b505050505050506147609192939550600080516020615b948339815191529450614740565b6001600160a01b03808216600081815260256020526040808220549095949361ffff93918416614afb578360215460081c16846024541610614ac9576149eb615952565b600183526026602052868320541685614a038261500a565b10614a755750815260286020528490205416614a47576147607f19fe3ca603e87854a0747cc10abf06bac64d61bac73d6d15f2fd3ca448f152649361474083614f9f565b614760600080516020615bb483398151915293614740614a66846159a5565b614a6f8561500a565b9061535d565b93945091857ffaeb8de771b867cf357f6b459a7002b62ec45d544a8078a3ecd91200cc826d75969261476094614aa961552c565b81526028602052205416614ac05761484b846154bd565b61487d8461524b565b505050506147607f2e8038f5812f763c6ef0c5427cb5a05ce6d7064af2ba7d1d270bc02660b019fd93614740836154bd565b50505050614760600080516020615b9483398151915293614740614b1e8461596e565b614b278561500a565b9061586f565b909160018060a01b03928383169060009382855260206028815261ffff95604094878683205416614d55578082526025835287868320541615614d44578415614c9c5750614b7a8361596e565b97614b848461500a565b985b6001808a83161115614c8d5781617fff911c1690818452602685528a614bb0848a8720541661500a565b1115614bc557614bc09082615a6b565b614b86565b505091939597509193955b6027541615614c8557614be1615952565b600182526026835285818184205416926029614bfc8561500a565b95614c05615960565b600183525220541691614c178361500a565b11614c4c57505091516001600160a01b0390921682526020820152600080516020615b94833981519152908060408101614760565b915091506147607ffaeb8de771b867cf357f6b459a7002b62ec45d544a8078a3ecd91200cc826d7593614c7d61552c565b614842615059565b505050505050565b50509193959750919395614bd0565b829450614cd07f4a4c5d1a281180eea1e99d8177fa4798b9f7e019d5c57e7d8d73c6a22199aa5b9392989499969799615675565b8651908152a160275416614ce45750505050565b7f2e8038f5812f763c6ef0c5427cb5a05ce6d7064af2ba7d1d270bc02660b019fd9360298492614d12615960565b6001835252205416614d38614d268261500a565b92614d2f615059565b614740836154bd565b0390a138808080613557565b8551632a55ca5360e01b8152600490fd5b84969792939598919415614e44575061fffe9193614d72866159a5565b93614d7c8761500a565b9480966001958692831b168160275416925b614dd0575b505099516001600160a01b03909716875250505050602083019390935250919250600080516020615bb48339815191529190508060408101614760565b818116838111614e3e578d9084811015614e2257505080614df3614df992614f8c565b90615465565b9890985b881015614e1d57614e0e9089615b04565b614e17886153b2565b86614d8e565b614d93565b865260298552852054909890614e3990871661500a565b614dfd565b50614d93565b94915050614e789194507f3168ba660eed6ef1dc2258b2247cc05fd0f2f350d39e6ad2e2ebc76a8000b40b959692506151c0565b51908152a1565b6001600160a01b0380821660008181526028602090815260408083205490969594919361ffff918216614f22578084526025855281888520541615614f11578615614ee05750614bd0614ed18661596e565b614eda8761500a565b90615820565b849193979650614cd07f4a4c5d1a281180eea1e99d8177fa4798b9f7e019d5c57e7d8d73c6a22199aa5b9396615700565b8751632a55ca5360e01b8152600490fd5b9693925050508315614f5f5750600080516020615bb4833981519152935061476090614740614f50846159a5565b614f598561500a565b906153c9565b9250614e787f3168ba660eed6ef1dc2258b2247cc05fd0f2f350d39e6ad2e2ebc76a8000b40b949261524b565b90600161ffff8093160191821161205b57565b61219d90614a6f61ffff91614fb78360275416614f8c565b9260018060a01b0382169081600052602860205260406000209085169161ffff199183838254161790558260005260296020526040600020906001600160601b0360a01b82541617905560275416176027555b60ff602154166003811015611cdc5760010361503b576001600160a01b031660009081526023602052604090205490565b6001600160a01b031660009081526023602052604090206001015490565b61ffff80602754169081156151ae579060019061507881831115615a4e565b6000828152602960208181526040808420805486865282862080546001600160a01b0392831680895260288752858920805461ffff199081168c17909155918416808a52868a20805484168d17905588885283546001600160a01b03199081169092179093558a89528454169091179092559295879593949293929161511291908a61510383614095565b169060275416176027556159ca565b84825280865261512684848420541661500a565b95859860028160275416995b615144575b5050505050505050505050565b8181168a81116151a8578a81101561518d575080614df361516492614f8c565b9a909a5b89101561518857615179908b615b04565b6151828a6153b2565b87615132565b615137565b859b919b528383526151a387878720541661500a565b615168565b50615137565b6040516340d9b01160e01b8152600490fd5b6151c9906159a5565b61ffff908160275416916151dd8383615b04565b806151e784614095565b1661ffff1960275416176027556151fd836159ca565b81168092146132e757614f598261219d93600052602960205260018060a01b0390615237615231836040600020541661500a565b8561535d565b60005260296020526040600020541661500a565b615254906159a5565b61ffff908160275416916152688383615b04565b8061527284614095565b1661ffff196027541617602755615288836159ca565b8082168093146137d5579161fffe9160009180835260299060209382855260018060a01b03926040926152c86152c286868620541661500a565b8761535d565b82528086526152db84848420541661500a565b9585986001988997881b168160275416995b6152fe575050505050505050505050565b8181168a81116151a8578a811015615342575080614df361531e92614f8c565b9a909a5b89101561518857615333908b615b04565b61533c8a6153b2565b876152ed565b859b919b5283835261535887878720541661500a565b615322565b9190915b60018061ffff831611156153ac5781617fff911c16908361539760008481526029602052604060018060a01b039120541661500a565b10156153ac576153a79082615b04565b615361565b50509050565b60011b906201fffe61fffe83169216820361205b57565b90600161fffe83821b168160009161ffff908160275416925b6153f0575b50505050505050565b81811683811161545f5783811015615439575080614df361541092614f8c565b9690965b861015615434576154259087615b04565b61542e866153b2565b846153e2565b6153e7565b84526029602052604084205490969061545a906001600160a01b031661500a565b615414565b506153e7565b91909161ffff9283821660005260296020526154a860018060a01b03615491816040600020541661500a565b95831660005260296020526040600020541661500a565b908185106154b65750509190565b9350919050565b61219d90614eda61ffff916154d58360245416614f8c565b9260018060a01b0382169081600052602560205260406000209085169161ffff199183838254161790558260005260266020526040600020906001600160601b0360a01b825416179055602454161760245561500a565b61ffff80602454169081156151ae579060019061554b81831115615a4e565b6000828152602660208181526040808420805486865282862080546001600160a01b0392831680895260258752858920805461ffff199081168c17909155918416808a52868a20805484168d17905588885283546001600160a01b03199081169092179093558a8952845416909117909255929587959394929392916155e591908a6155d683614095565b16906024541617602455615a0c565b8482528086526155f984848420541661500a565b95859860028160245416995b615616575050505050505050505050565b8181168a81116151a8578a81101561565a57508061490261563692614f8c565b9a909a5b8911156151885761564b908b615a6b565b6156548a6153b2565b87615605565b859b919b5283835261567087878720541661500a565b61563a565b61567e9061596e565b61ffff908160245416916156928383615a6b565b8061569c84614095565b1661ffff1960245416176024556156b283615a0c565b81168092146132e757614b278261219d93600052602660205260018060a01b03906156ec6156e6836040600020541661500a565b85615820565b60005260266020526040600020541661500a565b6157099061596e565b9061ffff9081602454169061571e8285615a6b565b8261572883614095565b1661ffff19602454161760245561573e82615a0c565b82841680921461581a5760009291929183835260269260209484865260018060a01b039160409161577c61577685858520541661500a565b8a615820565b815285875261578f83838320541661500a565b95615799896153b2565b978560245416985b8681168a811161580c578a8110156157f15750806149026157c192614f8c565b9a909a5b8911156157e4576157d6908b615a6b565b6157df8a6153b2565b6157a1565b5050505050505092505050565b849b919b5282825261580786868620541661500a565b6157c5565b505050505050505092505050565b92505050565b9190915b60018061ffff831611156153ac5781617fff911c16908361585a60008481526026602052604060018060a01b039120541661500a565b11156153ac5761586a9082615a6b565b615824565b91615879836153b2565b600061ffff918260245416905b8381168281116158f857828110156158d25750806149026158a692614f8c565b9690965b8611156158c9576158bb9087615a6b565b6158c4866153b2565b615886565b50505050915050565b8352602660205260408320549096906158f3906001600160a01b031661500a565b6158aa565b5050505050915050565b919061ffff808416600052602660205261594360018060a01b0361592c816040600020541661500a565b92841660005260266020526040600020541661500a565b93848211156154b65750509190565b61ffff60245416156151ae57565b61ffff60275416156151ae57565b6001600160a01b031660009081526025602052604090205461ffff1690811561599357565b60405163f2755e3760e01b8152600490fd5b6001600160a01b031660009081526028602052604090205461ffff1690811561599357565b61ffff16600090815260296020908152604080832080546001600160a01b031981169091556001600160a01b0316835260289091529020805461ffff19169055565b61ffff16600090815260266020908152604080832080546001600160a01b031981169091556001600160a01b0316835260259091529020805461ffff19169055565b15615a5557565b634e487b7160e01b600052600160045260246000fd5b615a9061ffff808060245416931693615a8684861115615a4e565b1691821115615a4e565b6000828152602660208181526040808420805486865282862080546001600160a01b0392831680895260258752858920805461ffff19908116909b1790559216808852938720805490981689179097559390925284546001600160a01b031990811690931790945593909152825416179055565b615b1f61ffff808060275416931693615a8684861115615a4e565b6000828152602960208181526040808420805486865282862080546001600160a01b0392831680895260288752858920805461ffff19908116909b1790559216808852938720805490981689179097559390925284546001600160a01b03199081169093179094559390915282541617905556fe143db27bc2036653dc6f962ff9d0b803163d4af50c256ca9e6927b3d6dcd0197da148fac2e1063174be7bc0895576bdaba90fd14e575463fa26a967cb895cadda26469706673582212206fa7c426f6b653d524b8e179a4014abbbe2edc425d47335deb06c41e8b83ff6e64736f6c63430008130033","linkReferences":{"src/lib/AccountHelper.sol":{"AccountHelper":[{"start":15431,"length":20}]},"src/lib/CrossMsgHelper.sol":{"CrossMsgHelper":[{"start":11378,"length":20}]},"src/lib/StorableMsgHelper.sol":{"StorableMsgHelper":[{"start":10951,"length":20}]},"src/lib/SubnetIDHelper.sol":{"SubnetIDHelper":[{"start":3059,"length":20},{"start":5902,"length":20},{"start":10771,"length":20},{"start":14832,"length":20},{"start":15151,"length":20}]}}},"methodIdentifiers":{"addBottomUpMsgBatchSignature(uint256,bytes32[],uint256,bytes)":"0db0f77c","addCheckpointSignature(uint256,bytes32[],uint256,bytes)":"53b4e7bf","applyCrossMessages(((((uint64,address[]),(uint8,bytes)),((uint64,address[]),(uint8,bytes)),uint256,uint64,bytes4,bytes,uint256),bool)[])":"c62eb4d5","applyFinalityChanges()":"0df14461","commitCheckpoint(((uint64,address[]),uint256,bytes32,uint64))":"47dc9b4f","commitParentFinality((uint256,bytes32))":"11196974","createBottomUpCheckpoint(((uint64,address[]),uint256,bytes32,uint64),bytes32,uint256)":"74303771","createBottomUpMsgBatch(((uint64,address[]),uint256,((((uint64,address[]),(uint8,bytes)),((uint64,address[]),(uint8,bytes)),uint256,uint64,bytes4,bytes,uint256),bool)[]),bytes32,uint256)":"32e7661f","execBottomUpMsgBatch(((uint64,address[]),uint256,((((uint64,address[]),(uint8,bytes)),((uint64,address[]),(uint8,bytes)),uint256,uint64,bytes4,bytes,uint256),bool)[]))":"0bed7615","pruneBottomUpCheckpoints(uint256)":"ac818379","pruneBottomUpMsgBatches(uint256)":"bacc656d","storeValidatorChanges(((uint8,bytes,address),uint64)[])":"e49a547d"},"id":47}