{"abi":[{"type":"function","name":"addCheckpointSignature","inputs":[{"name":"height","type":"uint64","internalType":"uint64"},{"name":"membershipProof","type":"bytes32[]","internalType":"bytes32[]"},{"name":"weight","type":"uint256","internalType":"uint256"},{"name":"signature","type":"bytes","internalType":"bytes"}],"outputs":[],"stateMutability":"nonpayable"},{"type":"function","name":"applyCrossMessages","inputs":[{"name":"crossMsgs","type":"tuple[]","internalType":"struct CrossMsg[]","components":[{"name":"message","type":"tuple","internalType":"struct StorableMsg","components":[{"name":"from","type":"tuple","internalType":"struct IPCAddress","components":[{"name":"subnetId","type":"tuple","internalType":"struct SubnetID","components":[{"name":"root","type":"uint64","internalType":"uint64"},{"name":"route","type":"address[]","internalType":"address[]"}]},{"name":"rawAddress","type":"tuple","internalType":"struct FvmAddress","components":[{"name":"addrType","type":"uint8","internalType":"uint8"},{"name":"payload","type":"bytes","internalType":"bytes"}]}]},{"name":"to","type":"tuple","internalType":"struct IPCAddress","components":[{"name":"subnetId","type":"tuple","internalType":"struct SubnetID","components":[{"name":"root","type":"uint64","internalType":"uint64"},{"name":"route","type":"address[]","internalType":"address[]"}]},{"name":"rawAddress","type":"tuple","internalType":"struct FvmAddress","components":[{"name":"addrType","type":"uint8","internalType":"uint8"},{"name":"payload","type":"bytes","internalType":"bytes"}]}]},{"name":"value","type":"uint256","internalType":"uint256"},{"name":"nonce","type":"uint64","internalType":"uint64"},{"name":"method","type":"bytes4","internalType":"bytes4"},{"name":"params","type":"bytes","internalType":"bytes"},{"name":"fee","type":"uint256","internalType":"uint256"}]},{"name":"wrapped","type":"bool","internalType":"bool"}]}],"outputs":[],"stateMutability":"nonpayable"},{"type":"function","name":"applyFinalityChanges","inputs":[],"outputs":[{"name":"","type":"uint64","internalType":"uint64"}],"stateMutability":"nonpayable"},{"type":"function","name":"commitBottomUpCheckpoint","inputs":[{"name":"checkpoint","type":"tuple","internalType":"struct BottomUpCheckpoint","components":[{"name":"subnetID","type":"tuple","internalType":"struct SubnetID","components":[{"name":"root","type":"uint64","internalType":"uint64"},{"name":"route","type":"address[]","internalType":"address[]"}]},{"name":"blockHeight","type":"uint64","internalType":"uint64"},{"name":"blockHash","type":"bytes32","internalType":"bytes32"},{"name":"nextConfigurationNumber","type":"uint64","internalType":"uint64"},{"name":"crossMessagesHash","type":"bytes32","internalType":"bytes32"}]},{"name":"messages","type":"tuple[]","internalType":"struct CrossMsg[]","components":[{"name":"message","type":"tuple","internalType":"struct StorableMsg","components":[{"name":"from","type":"tuple","internalType":"struct IPCAddress","components":[{"name":"subnetId","type":"tuple","internalType":"struct SubnetID","components":[{"name":"root","type":"uint64","internalType":"uint64"},{"name":"route","type":"address[]","internalType":"address[]"}]},{"name":"rawAddress","type":"tuple","internalType":"struct FvmAddress","components":[{"name":"addrType","type":"uint8","internalType":"uint8"},{"name":"payload","type":"bytes","internalType":"bytes"}]}]},{"name":"to","type":"tuple","internalType":"struct IPCAddress","components":[{"name":"subnetId","type":"tuple","internalType":"struct SubnetID","components":[{"name":"root","type":"uint64","internalType":"uint64"},{"name":"route","type":"address[]","internalType":"address[]"}]},{"name":"rawAddress","type":"tuple","internalType":"struct FvmAddress","components":[{"name":"addrType","type":"uint8","internalType":"uint8"},{"name":"payload","type":"bytes","internalType":"bytes"}]}]},{"name":"value","type":"uint256","internalType":"uint256"},{"name":"nonce","type":"uint64","internalType":"uint64"},{"name":"method","type":"bytes4","internalType":"bytes4"},{"name":"params","type":"bytes","internalType":"bytes"},{"name":"fee","type":"uint256","internalType":"uint256"}]},{"name":"wrapped","type":"bool","internalType":"bool"}]}],"outputs":[],"stateMutability":"nonpayable"},{"type":"function","name":"commitParentFinality","inputs":[{"name":"finality","type":"tuple","internalType":"struct ParentFinality","components":[{"name":"height","type":"uint256","internalType":"uint256"},{"name":"blockHash","type":"bytes32","internalType":"bytes32"}]}],"outputs":[{"name":"hasCommittedBefore","type":"bool","internalType":"bool"},{"name":"previousFinality","type":"tuple","internalType":"struct ParentFinality","components":[{"name":"height","type":"uint256","internalType":"uint256"},{"name":"blockHash","type":"bytes32","internalType":"bytes32"}]}],"stateMutability":"nonpayable"},{"type":"function","name":"createBottomUpCheckpoint","inputs":[{"name":"checkpoint","type":"tuple","internalType":"struct BottomUpCheckpoint","components":[{"name":"subnetID","type":"tuple","internalType":"struct SubnetID","components":[{"name":"root","type":"uint64","internalType":"uint64"},{"name":"route","type":"address[]","internalType":"address[]"}]},{"name":"blockHeight","type":"uint64","internalType":"uint64"},{"name":"blockHash","type":"bytes32","internalType":"bytes32"},{"name":"nextConfigurationNumber","type":"uint64","internalType":"uint64"},{"name":"crossMessagesHash","type":"bytes32","internalType":"bytes32"}]},{"name":"membershipRootHash","type":"bytes32","internalType":"bytes32"},{"name":"membershipWeight","type":"uint256","internalType":"uint256"}],"outputs":[],"stateMutability":"nonpayable"},{"type":"function","name":"pruneBottomUpCheckpoints","inputs":[{"name":"newRetentionHeight","type":"uint64","internalType":"uint64"}],"outputs":[],"stateMutability":"nonpayable"},{"type":"function","name":"storeValidatorChanges","inputs":[{"name":"changeRequests","type":"tuple[]","internalType":"struct StakingChangeRequest[]","components":[{"name":"change","type":"tuple","internalType":"struct StakingChange","components":[{"name":"op","type":"uint8","internalType":"enum StakingOperation"},{"name":"payload","type":"bytes","internalType":"bytes"},{"name":"validator","type":"address","internalType":"address"}]},{"name":"configurationNumber","type":"uint64","internalType":"uint64"}]}],"outputs":[],"stateMutability":"nonpayable"},{"type":"event","name":"QuorumReached","inputs":[{"name":"height","type":"uint64","indexed":false,"internalType":"uint64"},{"name":"checkpoint","type":"bytes32","indexed":false,"internalType":"bytes32"},{"name":"quorumWeight","type":"uint256","indexed":false,"internalType":"uint256"}],"anonymous":false},{"type":"event","name":"QuorumWeightUpdated","inputs":[{"name":"height","type":"uint64","indexed":false,"internalType":"uint64"},{"name":"checkpoint","type":"bytes32","indexed":false,"internalType":"bytes32"},{"name":"newWeight","type":"uint256","indexed":false,"internalType":"uint256"}],"anonymous":false},{"type":"error","name":"AddressEmptyCode","inputs":[{"name":"target","type":"address","internalType":"address"}]},{"type":"error","name":"AddressInsufficientBalance","inputs":[{"name":"account","type":"address","internalType":"address"}]},{"type":"error","name":"AddressShouldBeValidator","inputs":[]},{"type":"error","name":"CannotConfirmFutureChanges","inputs":[]},{"type":"error","name":"CheckpointAlreadyExists","inputs":[]},{"type":"error","name":"CheckpointAlreadyProcessed","inputs":[]},{"type":"error","name":"CheckpointNotCreated","inputs":[]},{"type":"error","name":"FailedAddIncompleteCheckpoint","inputs":[]},{"type":"error","name":"FailedAddSignatory","inputs":[]},{"type":"error","name":"FailedInnerCall","inputs":[]},{"type":"error","name":"FailedRemoveIncompleteCheckpoint","inputs":[]},{"type":"error","name":"InvalidActorAddress","inputs":[]},{"type":"error","name":"InvalidCheckpointEpoch","inputs":[]},{"type":"error","name":"InvalidCheckpointSource","inputs":[]},{"type":"error","name":"InvalidConfigurationNumber","inputs":[]},{"type":"error","name":"InvalidCrossMsgDstSubnet","inputs":[]},{"type":"error","name":"InvalidCrossMsgNonce","inputs":[]},{"type":"error","name":"InvalidRetentionHeight","inputs":[]},{"type":"error","name":"InvalidSignature","inputs":[]},{"type":"error","name":"InvalidSubnet","inputs":[]},{"type":"error","name":"NotAuthorized","inputs":[{"name":"","type":"address","internalType":"address"}]},{"type":"error","name":"NotEnoughSubnetCircSupply","inputs":[]},{"type":"error","name":"NotRegisteredSubnet","inputs":[]},{"type":"error","name":"NotSystemActor","inputs":[]},{"type":"error","name":"OldConfigurationNumber","inputs":[]},{"type":"error","name":"PQDoesNotContainAddress","inputs":[]},{"type":"error","name":"PQEmpty","inputs":[]},{"type":"error","name":"ParentFinalityAlreadyCommitted","inputs":[]},{"type":"error","name":"SignatureReplay","inputs":[]},{"type":"error","name":"SubnetNotActive","inputs":[]},{"type":"error","name":"SubnetNotFound","inputs":[]},{"type":"error","name":"ZeroMembershipWeight","inputs":[]}],"bytecode":{"object":"0x6080806040523461001657614ea8908161001c8239f35b600080fdfe6080604052600436101561001257600080fd5b60003560e01c80630df14461146113c857806311196974146113045780632a04f22014610e66578063a656ca5b146109d3578063ae00c2981461072f578063c62eb4d5146105f0578063e49a547d146105af5763f456b39e1461007457600080fd5b346105a2576003196040368201126105a2576001600160401b03600435116105a25760a081600435360301126105a2576024356001600160401b0381116105a2576100c390369060040161151f565b61010060206100df366100da60048035018061154f565b611578565b60405180938192632cff562160e11b8352846004840152602483019061162f565b038173__$a0fe38a9a81205afccc10810b09a4d3f45$__5af49081156104cb57600091610570575b50336001600160a01b039091160361055e57331561054c5760405161014c81611426565b6001600160401b0360115416815260405180602060125491828152019060126000527fbb8a6a4669ba250d26cd7a459eca9d215f8307e33aebe50379bc5a3617ec34449060005b81811061052d5750505091816101b06000936101d7950382611477565b60208201526040518093819263aa5106cb60e01b835260406004840152604483019061162f565b336024830152038173__$a0fe38a9a81205afccc10810b09a4d3f45$__5af480156104cb5761020e9160009161050a575b5061324d565b9390156104f95761024d9061022b366100da60048035018061154f565b9060405192839263c836244d60e01b845260406004850152604484019061162f565b90828203016024830152604081016001600160401b03600488015416825260606005880192604060208201528354809352019160005260206000209060005b8181106104d7575050509080602092038173__$a0fe38a9a81205afccc10810b09a4d3f45$__5af49081156104cb5760009161049c575b501561048a5760ff600384015460801c1692600684101561047457600180940361046257600080946000905b84821061042157505061030460029186611763565b91019283549382851061040f5761032161033d9361034396611770565b9055610335366100da60048035018061154f565b92369161180c565b90611d5e565b61035160246004350161196c565b6040516001600160401b03602082019263f9002bb160e01b845216602482015282604482015260448152608081018181106001600160401b038211176103f957806040528347106103e4576103da6000808686865191335af13d156103dc573d906103bb826114af565b916103c96040519384611477565b82523d6000602084013e5b33611980565b005b6060906103d4565b60249163cd78605960e01b8252608430910152fd5b634e487b7160e01b600052604160045260246000fd5b604051631d36ca1560e21b8152600490fd5b61045a610449839894604061044161043b86978b8d611721565b8061174e565b013590611763565b9360c061044161043b8b8a8c611721565b9601906102ef565b60405163c18316bf60e01b8152600490fd5b634e487b7160e01b600052602160045260246000fd5b6040516303b5db8360e11b8152600490fd5b6104be915060203d6020116104c4575b6104b68183611477565b81019061168a565b386102c3565b503d6104ac565b6040513d6000823e3d90fd5b82546001600160a01b031684528594506020909301926001928301920161028c565b6040516208ed5b60e31b8152600490fd5b61052791503d806000833e61051f8183611477565b810190611ca5565b38610208565b82546001600160a01b0316845260209093019260019283019201610193565b6040516370e4510960e01b8152600490fd5b604051637f39132760e11b8152600490fd5b90506020813d6020116105a7575b8161058b60209383611477565b810103126105a25761059c9061161b565b38610128565b600080fd5b3d915061057e565b346105a25760203660031901126105a2576004356001600160401b0381116105a2576105e26103da91369060040161151f565b906105eb6133bf565b61344a565b346105a2576020806003193601126105a2576001600160401b036004358181116105a25761062290369060040161151f565b9161062b6133bf565b6040519061063882611426565b60115416815260405193848160125491828152019060126000527fbb8a6a4669ba250d26cd7a459eca9d215f8307e33aebe50379bc5a3617ec34449060005b8181106107125750505090856106956106ba97600095940382611477565b8183015260405195869283926308c7427760e11b84526004840152602483019061162f565b038173__$a0fe38a9a81205afccc10810b09a4d3f45$__5af49081156104cb576103da936000926106f3575b5061033d9192369161180c565b61033d925061070c903d806000833e61051f8183611477565b916106e6565b82546001600160a01b031684529284019260019283019201610677565b346105a25760203660031901126105a2576107486113fc565b6107506133bf565b6001600160401b03600b5416806001600160401b03831611156109c1575b6001600160401b0382166001600160401b03821610156109a3576001600160401b038116600052600860205260006004604082208281556107b160018201611ed4565b8260029181838201558160056003928284820155828782015501556001600160401b038616825260096020528160408120938185558160018601558401558201550155600e60205260406000208054906000815581610982575b50506001600160401b038116600052600a60205260406000208054906000815581610902575b50506001600160401b038116600052600e6020526040600020604051808260208294549384815201906000526020600020926000905b8082106108e657505061087c92500382611477565b80519060005b82811061089d575050506001016001600160401b031661076e565b6001600160401b0384166000908152600f60205260409020600191906001600160a01b036108cb83866119f8565b51166000526020526108e06040600020612a60565b01610882565b9160019193506020829186548152019401920184929391610867565b600d82810204820361096c57600052602060002090600d028101905b818110156108315780610932600d92612aa9565b61093e60048201612aa9565b6000600882015560006009820155610958600a8201612a60565b6000600b8201556000600c8201550161091e565b634e487b7160e01b600052601160045260246000fd5b6000526020600020908101905b8181101561080b576000815560010161098f565b600b805467ffffffffffffffff19166001600160401b038416179055005b604051636819a3a960e01b8152600490fd5b346105a2576003196060368201126105a2576001600160401b03600435116105a25760a06004353603918201126105a257604435610a0f6133bf565b610a1d60246004350161196c565b6001600160401b0380600b5416911610610e5457610a3f60246004350161196c565b6001600160401b03601654168015610e3e576001600160401b038092160616610e2c576001600160401b036002610a96610a7d60246004350161196c565b6001600160401b03166000526008602052604060002090565b015416610e1a578015610e085760ff601554168181810204810361096c57610ad36001600160401b03610acd60246004350161196c565b1661289c565b15610df657604051602080820152926042190160048035013512156105a25760043560043560040135019260a060408201526101208101936001600160401b03610b1f60048301611412565b1660e08301526024810135602219823603018112156105a25701602460048201359101946001600160401b0382116105a2578160051b360386136105a25781906040610100850152526101408201949060005b818110610dd057505050610be181606494956001600160401b03610b9a602460043501611412565b1660608301526044600435013560808301526001600160401b03610bc18760043501611412565b1660a08301526004356084013560c083015203601f198101835282611477565b602081519101209260405193610bf685611441565b8452602435602085015202046040820152600060608201526000608082015260405190610c2282611441565b6001600160401b0360043560040135116105a257610c493660048035808201350101611578565b8252610c59602460043501611412565b918260208201526040810192604460043501358452610c7c606460043501611412565b9060608301918252610cb76001600160401b036080850192608460043501358452166001600160401b03166000526008602052604060002090565b91835160206001600160401b03825116916001600160401b0319928387541617865501519687516001600160401b0381116103f95760019860208a880191610cff8484611ef8565b0190600052602060002060005b838110610db457506103da8b600460808d610d7b8e8e60058f8f8f8f6001600160401b03602060028801980151169687838254161790555160038601556001600160401b038a860192511690825416179055519101556001600160401b03166000526009602052604060002090565b938151855560208201519085015560408101516002850155606081015160038501550151151591019060ff801983541691151516179055565b82516001600160a01b0316818301556020909201918b01610d0c565b909195602080600192838060a01b03610de88b611564565b168152019701929101610b72565b60405163ee6c026760e01b8152600490fd5b604051634e8ac6e560e01b8152600490fd5b60405163b8a1eae160e01b8152600490fd5b60405163fae4eadb60e01b8152600490fd5b634e487b7160e01b600052601260045260246000fd5b6040516376afb88d60e01b8152600490fd5b346105a25760803660031901126105a257610e7f6113fc565b602435906001600160401b0382116105a257366023830112156105a257816004013591610eab83611498565b92610eb96040519485611477565b8084526024602085019160051b830101913683116105a257602401905b8282106112f4575050506064356001600160401b0381116105a257610eff903690600401611501565b916001600160401b03600b54166001600160401b03831610610e5457610f38826001600160401b03166000526008602052604060002090565b610f55836001600160401b03166000526009602052604060002090565b906001600160401b03600282015416156112e257610f74858354612799565b50610f818196929661278f565b6112d0576001600160401b0381166000908152600e602090815260408083206001600160a01b03891684526001019091529020546112be57604080516001600160a01b0387166020820190815260443582840152918152610fe3606082611477565b5190206040516020810191825260208152610ffd81611426565b51902095600184015496956000965b86518810156110595761101f88886119f8565b5190818110156110485760005260205260406000205b96600019811461096c576001019661100c565b906000526020526040600020611035565b880361129c576001600160401b038316600052600e60205261108760018060a01b0382166040600020612919565b1561128a576001600160401b038316600052600f60205260406000209060018060a01b03166000526020526040600020908051906001600160401b0382116103f95781906110df826110d98654611a0c565b86611f2c565b602090601f831160011461122457600092611219575b50508160011b916000199060031b1c19161790555b600383019161111c6044358454611763565b808455600285015481101561112d57005b600485018054909160ff82166111c7575060ff191660011790556002015461115d906001600160401b0316612976565b156111b5576111b07f6e19758a6cc7e71b17c341543844325f2a6ad8294af979c7b386fc4d3814e93493549254604051938493846040919493926001600160401b03606083019616825260208201520152565b0390a1005b604051637e5145ed60e01b8152600490fd5b94505050506111b07f24836090f2da17128f839618852e98c2586a5693517e15f15497223bd26c6045935492604051938493846040919493926001600160401b03606083019616825260208201520152565b0151905086806110f5565b6000858152602081209350601f198516905b8181106112725750908460019594939210611259575b505050811b01905561110a565b015160001960f88460031b161c1916905586808061124c565b92936020600181928786015181550195019301611236565b604051633363140f60e01b8152600490fd5b604051634a0bfec160e01b81526001600160a01b039091166004820152602490fd5b604051635a3fd0d960e11b8152600490fd5b604051638baa579f60e01b8152600490fd5b6040516358cdd2e760e01b8152600490fd5b8135815260209182019101610ed6565b346105a25760403660031901126105a25760405161132181611426565b6000815260006020809201526113356133bf565b60008160405161134481611426565b8281520152600254906004358083116113b6576060926000526001825260406000209160016040519361137685611426565b8054855201549181840192835280600052600182526040600020818155600160243591015560025582511515926040519384525190830152516040820152f35b60405163153ad84160e11b8152600490fd5b346105a25760003660031901126105a2576113e16133bf565b60206113eb611aec565b6001600160401b0360405191168152f35b600435906001600160401b03821682036105a257565b35906001600160401b03821682036105a257565b604081019081106001600160401b038211176103f957604052565b60a081019081106001600160401b038211176103f957604052565b606081019081106001600160401b038211176103f957604052565b90601f801991011681019081106001600160401b038211176103f957604052565b6001600160401b0381116103f95760051b60200190565b6001600160401b0381116103f957601f01601f191660200190565b9291926114d6826114af565b916114e46040519384611477565b8294818452818301116105a2578281602093846000960137010152565b9080601f830112156105a25781602061151c933591016114ca565b90565b9181601f840112156105a2578235916001600160401b0383116105a2576020808501948460051b0101116105a257565b903590603e19813603018212156105a2570190565b35906001600160a01b03821682036105a257565b91906040838203126105a2576040519261159184611426565b8361159b82611412565b815260209182810135906001600160401b0382116105a257019280601f850112156105a25783356115cb81611498565b946115d96040519687611477565b818652848087019260051b8201019283116105a25784809101915b83831061160357505050500152565b819061160e84611564565b81520191019084906115f4565b51906001600160a01b03821682036105a257565b60609060408301906001600160401b03815116845260209283809201519460408382015285518094520193019160005b82811061166d575050505090565b83516001600160a01b03168552938101939281019260010161165f565b908160209103126105a2575180151581036105a25790565b60408101906001600160401b036011541681526060602091604083820152601254809452019160126000527fbb8a6a4669ba250d26cd7a459eca9d215f8307e33aebe50379bc5a3617ec3444916000905b828210611701575050505090565b83546001600160a01b0316855293840193600193840193909101906116f3565b908210156117385761151c9160051b81019061154f565b634e487b7160e01b600052603260045260246000fd5b90359060de19813603018212156105a2570190565b9190820180921161096c57565b9190820391821161096c57565b91906040838203126105a2576040519261179684611426565b838135916001600160401b03928381116105a257846117b6918301611578565b82526020810135908382116105a257016040818503126105a257604051936117dd85611426565b813560ff811681036105a257855260208201359384116105a2576020936118049201611501565b828401520152565b9092919261181981611498565b9160409161182983519485611477565b839581855260208095019160051b8301938185116105a25783925b8584106118545750505050505050565b6001600160401b039084358281116105a25786019183838603126105a25783519261187e84611426565b80358281116105a257810160e09081818903126105a25786519182018281108582111761195757875280358481116105a257886118bc91830161177d565b82528b8101358481116105a257886118d591830161177d565b8c830152868101358783015260606118ee818301611412565b90830152608081810135906001600160e01b0319821682036105a25783015260a0808201359485116105a257611927898e968401611501565b9083015260c08091013590820152845201359081151582036105a257828993928480940152815201930192611844565b60246000634e487b7160e01b81526041600452fd5b356001600160401b03811681036105a25790565b90156119be57815115611991575090565b803b1561199c575090565b604051639996b31560e01b81526001600160a01b039091166004820152602490fd5b508051156119ce57805190602001fd5b604051630a12f52160e11b8152600490fd5b9060016001600160401b038093160191821161096c57565b80518210156117385760209160051b010190565b90600182811c92168015611a3c575b6020831014611a2657565b634e487b7160e01b600052602260045260246000fd5b91607f1691611a1b565b9060405191826000825492611a5a84611a0c565b908184526001948581169081600014611ac95750600114611a86575b5050611a8492500383611477565b565b9093915060005260209081600020936000915b818310611ab1575050611a8493508201013880611a76565b85548884018501529485019487945091830191611a99565b915050611a8494506020925060ff191682840152151560051b8201013880611a76565b602080546001600160401b038082166000190193909182851161096c57611b12856119e0565b8380604093841c16911614611c9b57611b2a85613697565b61ffff9384601a541692611b3d84611498565b96611b4a84519889611477565b848852601f1980611b5a87611498565b0136858b013760015b888116878111611ba5576000908152601c86528690205489916001916001600160a01b0316611b9d8d85611b9685613436565b16906119f8565b520116611b63565b505094509491929095508651611bba81611498565b94611bc783519687611477565b818652611bd382611498565b018460005b828110611c725750505060005b818110611c0d57505061151c949596505192611c0084611426565b8352841690820152612d66565b6001906001600160a01b03611c22828c6119f8565b51168060005260198752611c526003866000208581015493885194611c468661145c565b85528a85015201611a46565b85820152611c6082896119f8565b52611c6b81886119f8565b5001611be5565b8451611c7d8161145c565b6000815260008382015260608682015282828a010152018590611bd8565b5092505050600090565b90602080838303126105a25782516001600160401b03938482116105a25701926040848403126105a25760405193611cdc85611426565b805182811681036105a2578552828101519182116105a257019180601f840112156105a2578251611d0c81611498565b93611d1a6040519586611477565b818552838086019260051b8201019283116105a25783809101915b838310611d46575050505082015290565b8190611d518461161b565b8152019101908390611d35565b81519160005b838110611d715750505050565b80611d88611d81600193856119f8565b5185611f71565b01611d64565b60005b838110611da15750506000910152565b8181015183820152602001611d91565b90602091611dca81518092818552858086019101611d8e565b601f01601f1916010190565b6040602061151c9381611df085518584528584019061162f565b940151908281860391015260ff81511684520151918160208201520190611db1565b9060c080611e83611e41611e2f865160e0875260e0870190611dd6565b60208701518682036020880152611dd6565b604086015160408601526001600160401b03606087015116606086015263ffffffff60e01b608087015116608086015260a086015185820360a0870152611db1565b93015191015290565b6002111561047457565b6020815260406020611eb2845183838601526060850190611e12565b930151151591015290565b818110611ec8575050565b60008155600101611ebd565b80546000825580611ee3575050565b611a8491600052602060002090810190611ebd565b90600160401b81116103f957815490808355818110611f1657505050565b611a849260005260206000209182019101611ebd565b9190601f8111611f3b57505050565b611a84926000526020600020906020601f840160051c83019310611f67575b601f0160051c0190611ebd565b9091508190611f5a565b6020825101515190611fb5602073__$a0fe38a9a81205afccc10810b09a4d3f45$__9360405180938192630c133d1360e31b8352846004840152602483019061162f565b0381865af49081156104cb57600091612770575b5061275e57825191611ff36040519363f47ad7eb60e01b8552604060048601526044850190611e12565b906020848061200e60031995868382030160248401526116a2565b038173__$386b5c41ce93e8b832daf8008b3d30ae09$__5af49384156104cb57600094612719575b5061207b9160209161206c8388510151516040519586948593849363c836244d60e01b855260406004860152604485019061162f565b908382030160248401526116a2565b03915af49081156104cb576000916126fa575b506125395750509060405163e5f0a62b60e01b8152602081806120b48660048301611e96565b038173__$33b79814e84bf6cf5e47244090b19ce5f8$__5af49081156104cb57600091612504575b5060005260036020526040600020825192835180516001600160401b038151166001600160401b0319855416178455602060018501910151908151916001600160401b0383116103f9576020906121338484611ef8565b0190600052602060002060005b8381106124e7575050505060209081600285019101519060ff82511660ff1982541617905501518051906001600160401b0382116103f95781906121948261218b6003880154611a0c565b60038801611f2c565b602090601f831160011461247a5760009261246f575b50508160011b916000199060031b1c19161760038301555b600482016020850151908151906001600160401b038251166001600160401b0319825416179055602060058501910151908151916001600160401b0383116103f9576020906122118484611ef8565b0190600052602060002060005b83811061245257505050506020600684019101519060ff82511660ff198254161790556020600784019101518051906001600160401b0382116103f957819061226b826110d98654611a0c565b602090601f83116001146123ec576000926123e1575b50508160011b916000199060031b1c19161790555b60408401516008830155600982016001600160401b036060860151168154906bffffffff0000000000000000608088015160a01c16916001600160601b03191617179055600a82019360a08101519485516001600160401b0381116103f957612309816123038454611a0c565b84611f2c565b6020601f821160011461236d5792600c94928260c093602096611a849a9b600092612362575b50508160011b916000199060031b1c19161790555b0151600b8501550151151591019060ff801983541691151516179055565b01519050388061232f565b601f198216978360005260206000209860005b8181106123c9575083611a84999a60209794600c99979460c097600195106123b0575b505050811b019055612344565b015160001960f88460031b161c191690553880806123a3565b838301518b556001909a019960209384019301612380565b015190503880612281565b6000858152602081209350601f198516905b81811061243a5750908460019594939210612421575b505050811b019055612296565b015160001960f88460031b161c19169055388080612414565b929360206001819287860151815501950193016123fe565b82516001600160a01b03168183015560209092019160010161221e565b0151905038806121aa565b600386016000908152602081209350601f198516905b8181106124cf57509084600195949392106124b6575b505050811b0160038301556121c2565b015160001960f88460031b161c191690553880806124a6565b92936020600181928786015181550195019301612490565b82516001600160a01b031681830155602090920191600101612140565b906020823d602011612531575b8161251e60209383611477565b8101031261252e575051386120dc565b80fd5b3d9150612511565b61254282611e8c565b6001820361268457612554915061324d565b9015612672576003018054916001600160401b0391828460401c1692606083510151168303612660576125c99367ffffffffffffffff60401b6125986000956119e0565b60401b169067ffffffffffffffff60401b19161790555b60405180938192635c46fefb60e11b835260048301611e96565b038173__$33b79814e84bf6cf5e47244090b19ce5f8$__5af480156104cb576125ef5750565b3d806000833e6125ff8183611477565b8101906020818303126105a2578051906001600160401b0382116105a2570181601f820112156105a257805190612635826114af565b926126436040519485611477565b828452602083830101116105a257602080611a8494019101611d8e565b60405163a57cadff60e01b8152600490fd5b604051630e991abd60e41b8152600490fd5b5061268e81611e8c565b1561269f575b60006125c9916125af565b601554906001600160401b0390818360481c1691606082510151168203612660576125c99267ffffffffffffffff60481b6126db6000946119e0565b60481b169067ffffffffffffffff60481b191617601555915050612694565b612713915060203d6020116104c4576104b68183611477565b3861208e565b6020949194813d602011612756575b8161273560209383611477565b81010312612752575190600282101561252e57509261207b612036565b5080fd5b3d9150612728565b60405163c5f563eb60e01b8152600490fd5b612789915060203d6020116104c4576104b68183611477565b38611fc9565b6004111561047457565b81519190604183036127ca576127c392506020820151906060604084015193015160001a906127d5565b9192909190565b505060009160029190565b91907f7fffffffffffffffffffffffffffffff5d576e7357a4501ddfe92f46681b20a0841161285957926020929160ff608095604051948552168484015260408301526060820152600092839182805260015afa1561284d5780516001600160a01b0381161561284457918190565b50809160019190565b604051903d90823e3d90fd5b50505060009160039190565b600c5481101561173857600c6000527fdf6966c971051c3d54ec59162606531493a51404a002842f56009d7e5cf4a8c70190600090565b6000818152600d602052604081205461291457600c54600160401b8110156129005790826128ec6128d584600160409601600c55612865565b819391549060031b91821b91600019901b19161790565b9055600c54928152600d6020522055600190565b634e487b7160e01b82526041600452602482fd5b905090565b600082815260018201602052604090205461296f57805490600160401b8210156103f957600182018082558210156117385782600192826000526020600020015580549260005201602052604060002055600190565b5050600090565b6000818152600d60205260408120549091908015612a5b5760001990808201818111612a4757600c5490838201918211612a33578082036129ff575b505050600c5480156129eb578101906129ca82612865565b909182549160031b1b19169055600c558152600d6020526040812055600190565b634e487b7160e01b84526031600452602484fd5b612a1d612a0e6128d593612865565b90549060031b1c928392612865565b90558452600d60205260408420553880806129b2565b634e487b7160e01b86526011600452602486fd5b634e487b7160e01b85526011600452602485fd5b505090565b612a6a8154611a0c565b9081612a74575050565b81601f60009311600114612a86575055565b908083918252612aa5601f60208420940160051c840160018501611ebd565b5555565b6003611a849160008155612abf60018201611ed4565b6000600282015501612a60565b90815180825260208092019182818360051b85019501936000915b848310612af75750505050505090565b9091929394958480612b3483856001950387528a5180518252858060a01b0384820151168483015260408091015191606080928201520190611db1565b9801930193019194939290612ae7565b90808214612c1857612b568154611a0c565b906001600160401b0382116103f9578190612b75826110d98654611a0c565b600090601f8311600114612bac57600092612ba1575b50508160011b916000199060031b1c1916179055565b015490503880612b8b565b81526020808220858352818320935090601f1985169083905b828210612bff575050908460019594939210612be6575b505050811b019055565b015460001960f88460031b161c19169055388080612bdc565b8495819295850154815560018091019601940190612bc5565b5050565b600454811015611738576003906004600052027f8a35acfbc15ff81a39ae7d344fd709f28e8600b4aa8c65c6b64bfe7fe36bd19b0190600090565b90612d505781518155600190604060028383019260209360018060a01b0385880151166001600160601b0360a01b82541617905501930151908151916001600160401b0383116103f957612cb583612caf8754611a0c565b87611f2c565b81601f8411600114612cee5750928293918392600094612ce3575b50501b916000199060031b1c1916179055565b015192503880612cd0565b919083601f1981168760005284600020946000905b88838310612d365750505010612d1d57505050811b019055565b015160001960f88460031b161c19169055388080612bdc565b858701518855909601959485019487935090810190612d03565b634e487b7160e01b600052600060045260246000fd5b6040805191602091828452612d85825182858701526060860190612acc565b927f7ecdac482334c36fccbe374318cfe74ea0c8181394890ddec894a10f0fcc748181840195806001600160401b039687895116868301520390a183600554169081613071575b505050600490815493600160401b9384861161305c5760065486600655808710612fbd575b5060066000908152957ff652222313e28459528d920b65115c16c04f3efc82aaedc97be59f3f377c0d3f877f8a35acfbc15ff81a39ae7d344fd709f28e8600b4aa8c65c6b64bfe7fe36bd19b5b838210612f6857505050508060055416916001600160401b03199283600754161760075583515193855496885b868110612ef6575050505116906005541617600555808311612e8e575b50505050565b82811015612e885781548015612ee3576000190190612eac82612c1c565b929092612ed157858355612ec96002600194888682015501612a60565b835501612e8e565b634e487b7160e01b8652858452602486fd5b634e487b7160e01b855260318352602485fd5b88811015612f255780612f1f612f0f60019386516119f8565b51612f1983612c1c565b90612c57565b01612e6b565b612f308184516119f8565b51885483811015612f555760019291612f198285612f5094018d55612c1c565b612f1f565b634e487b7160e01b8c5260418a5260248cfd5b806001918403612f83575b6003809101930191019091612e3e565b805484558180850190838060a01b0390830154166001600160601b0360a01b825416179055612fb86002808301908601612b44565b612f73565b600390808202908282040361304757878202828104890361303257600090600682527ff652222313e28459528d920b65115c16c04f3efc82aaedc97be59f3f377c0d3f92830192015b82811061301557505050612df1565b808285925582600182015561302c60028201612a60565b01613006565b601187634e487b7160e01b6000525260246000fd5b601186634e487b7160e01b6000525260246000fd5b604184634e487b7160e01b6000525260246000fd5b8486511685600754169081811461315e571061314d5782519261309384611426565b60045461309f81611498565b916130ac81519384611477565b8183528383019060046000527f8a35acfbc15ff81a39ae7d344fd709f28e8600b4aa8c65c6b64bfe7fe36bd19b906000925b84841061310b5750505091855250508201526130fa9082613168565b61310657388080612dcc565b505050565b600387600192845161311c8161145c565b86548152848060a01b0385880154168382015261313b60028801611a46565b868201528152019301930192916130de565b8251633746be2560e11b8152600490fd5b5050505050505050565b6001600160401b0390602091808383015116908385015116036132095761318e81613211565b61319784613211565b036132095751805183515103613209576132026131f69160405190816131c7868201928784526040830190612acc565b03916131db601f1993848101835282611477565b51902094516040519384918683019687526040830190612acc565b03908101835282611477565b5190201490565b505050600090565b8051519060009182915b8183106132285750505090565b90919261324460019161323c8685516119f8565b515190611763565b9301919061321b565b73__$a0fe38a9a81205afccc10810b09a4d3f45$__9061328d6040918251906390ba52cf60e01b825281806020948593846004840152602483019061162f565b0381875af49081156133b457600091613387575b506000526000815281600020928251906132ba82611426565b6001600160401b0360048601541682526005850184519081858254918281520191600052856000209060005b81811061336a57505050918161330486959361332997950382611477565b8383015285518080968194630c133d1360e31b8352866004840152602483019061162f565b03915af49283156133605750600092613343575b50501591565b6133599250803d106104c4576104b68183611477565b388061333d565b513d6000823e3d90fd5b82546001600160a01b0316845292870192600192830192016132e6565b908282813d83116133ad575b61339d8183611477565b8101031261252e575051386132a1565b503d613393565b83513d6000823e3d90fd5b604051635d3f8a6960e01b815233600482015260208160248173__$e800e3908cdbb6b1b5bd452383a17b18f7$__5af49081156104cb57600091613418575b501561340657565b60405163f0d97f3b60e01b8152600490fd5b613430915060203d81116104c4576104b68183611477565b386133fe565b61ffff908116600019019190821161096c57565b9190801561367d5760005b8181106134625750509050565b61346d818386611721565b90604061347a8380613682565b6001600160a01b03910135818116908190036105a25761349a8480613682565b359360048510156105a2576134af8180613682565b906020918281013590601e19813603018212156105a257019283356001600160401b03948582116105a257840181360381136105a2576134f09136916114ca565b948484541695604051986135038a61145c565b61350c8161278f565b8952848901908152604089019283528660005260218552604060002098516135338161278f565b61353c8161278f565b60ff80198b541691161789555197885198868a116103f9576001998a8084019261356a836110d98654611a0c565b8890601f84116001146136005792806002959381936135d79c9b9a9998966000946135f5575b50501b916000199060031b1c19161790555b019151166001600160601b0360a01b825416179055836135c1866119e0565b166001600160401b03198354161782550161196c565b16036135e35701613455565b604051631aba532960e21b8152600490fd5b015192503880613590565b908460009493945289600020916000601f198516905b81811061365c5750916135d79b9a99989795939185600298969410613643575b505050811b0190556135a2565b015160001960f88460031b161c19169055388080613636565b938395968d92939491839286015181550195019301908f9594939291613616565b509050565b903590605e19813603018212156105a2570190565b602080546001600160401b03938484169392919085821685106136c65760405163040aaa0560e11b8152600490fd5b858260401c1685106138ea5785604092831c165b868116908682116138b057908791600082815260218088528682209360029460018060a01b03868201541660ff8254166137138161278f565b808803613756575061373491600191865260198c520160038a862001612b44565b825287528581209281845560019361374d858201612a60565b015501166136da565b90929394959697506137678161278f565b6003908082036137a8575050600161377f9101611a46565b89818051810103126137a4578c9695949392918a61379f920151906138f2565b613734565b8480fd5b90919d9c9b9a999897969594939260019e8f016137c490611a46565b8b818051810103126138ac57908e9f8c9d9e9f9a9b818e829f950151956137ea8161278f565b0361386c575061384393948289528d61380d87846019938489528d200154611770565b94848b52528d8920898c820186815481159081613863575b501561385757508161383e958185558401555501612a60565b613dcc565b6138506018918254611770565b9055613734565b94935050500155613dcc565b90501538613825565b9391929061379f955083895261388c83826019978886528c200154611763565b948592858b52528d892001556138a56018918254611763565b9055613936565b8680fd5b505094509167ffffffffffffffff60401b9193506138cd906119e0565b83546fffffffffffffffff00000000000000001916921b16179055565b945050505050565b9060018060a01b03821660005260196020526040600020818154915581811460001461391d57505050565b81111561392d57611a8491613c46565b611a849161411e565b919060018060a01b0392838116600094818652602091601b835261ffff91604097838982205416613b55578360175460081c1684601a541610613b215761397b614bf1565b600192838252601c8652828a8320541688613995826142a9565b10613a9b57508152601e8552838982205416613a045750505050506139ff7f19fe3ca603e87854a0747cc10abf06bac64d61bac73d6d15f2fd3ca448f1526493946139df8361423e565b516001600160a01b03909216825260208201929092529081906040820190565b0390a1565b613a0d86614c44565b92613a17876142a9565b935b8186821611613a5d575b505097516001600160a01b039095168552505050506020810191909152909150600080516020614e538339815191529080604081016139ff565b8085613a7c86617fff8f95871c1694858852601f8c52872054166142a9565b1015613a955790613a8e839282614da3565b9050613a19565b50613a23565b969750899493507ffaeb8de771b867cf357f6b459a7002b62ec45d544a8078a3ecd91200cc826d75989992506139ff95601e91613ad66147cb565b835252205416613b13575b613aea8461475c565b613af38361423e565b516001600160a01b03928316815292909116602083015281906040820190565b613b1c8461445f565b613ae1565b50505050506139ff7f2e8038f5812f763c6ef0c5427cb5a05ce6d7064af2ba7d1d270bc02660b019fd93946139df8361475c565b97929150613b668594979695614c0d565b97613b70856142a9565b97613b7a8a614651565b84601a5416905b858116828111613c215782811015613c05575080613ba1613ba79261422b565b90614ba1565b9b909b5b8b1115613bca57613bbc908c614d0a565b613bc58b614651565b613b81565b505093516001600160a01b039095168552505050506020810191909152909250600080516020614e33833981519152915080604081016139ff565b849c919c52601c8352613c1c8588862054166142a9565b613bab565b505050505050506139ff9192939550600080516020614e3383398151915294506139df565b6001600160a01b038082166000818152601b6020526040808220549095949361ffff93918416613d9a578360175460081c1684601a541610613d6857613c8a614bf1565b60018352601c602052868320541685613ca2826142a9565b10613d1457508152601e6020528490205416613ce6576139ff7f19fe3ca603e87854a0747cc10abf06bac64d61bac73d6d15f2fd3ca448f15264936139df8361423e565b6139ff600080516020614e53833981519152936139df613d0584614c44565b613d0e856142a9565b906145fc565b93945091857ffaeb8de771b867cf357f6b459a7002b62ec45d544a8078a3ecd91200cc826d7596926139ff94613d486147cb565b8152601e602052205416613d5f57613aea8461475c565b613b1c846144ea565b505050506139ff7f2e8038f5812f763c6ef0c5427cb5a05ce6d7064af2ba7d1d270bc02660b019fd936139df8361475c565b505050506139ff600080516020614e33833981519152936139df613dbd84614c0d565b613dc6856142a9565b90614b0e565b909160018060a01b0392838316906000938285526020601e815261ffff95604094878683205416613ff457808252601b835287868320541615613fe3578415613f3b5750613e1983614c0d565b97613e23846142a9565b985b6001808a83161115613f2c5781617fff911c1690818452601c85528a613e4f848a872054166142a9565b1115613e6457613e5f9082614d0a565b613e25565b505091939597509193955b601d541615613f2457613e80614bf1565b60018252601c83528581818420541692601f613e9b856142a9565b95613ea4614bff565b600183525220541691613eb6836142a9565b11613eeb57505091516001600160a01b0390921682526020820152600080516020614e338339815191529080604081016139ff565b915091506139ff7ffaeb8de771b867cf357f6b459a7002b62ec45d544a8078a3ecd91200cc826d7593613f1c6147cb565b613ae16142f8565b505050505050565b50509193959750919395613e6f565b829450613f6f7f4a4c5d1a281180eea1e99d8177fa4798b9f7e019d5c57e7d8d73c6a22199aa5b9392989499969799614914565b8651908152a1601d5416613f835750505050565b7f2e8038f5812f763c6ef0c5427cb5a05ce6d7064af2ba7d1d270bc02660b019fd93601f8492613fb1614bff565b6001835252205416613fd7613fc5826142a9565b92613fce6142f8565b6139df8361475c565b0390a138808080612e88565b8551632a55ca5360e01b8152600490fd5b849697929395989194156140e3575061fffe919361401186614c44565b9361401b876142a9565b9480966001958692831b1681601d5416925b61406f575b505099516001600160a01b03909716875250505050602083019390935250919250600080516020614e5383398151915291905080604081016139ff565b8181168381116140dd578d90848110156140c1575050806140926140989261422b565b90614704565b9890985b8810156140bc576140ad9089614da3565b6140b688614651565b8661402d565b614032565b8652601f85528520549098906140d89087166142a9565b61409c565b50614032565b949150506141179194507f3168ba660eed6ef1dc2258b2247cc05fd0f2f350d39e6ad2e2ebc76a8000b40b9596925061445f565b51908152a1565b6001600160a01b038082166000818152601e602090815260408083205490969594919361ffff9182166141c157808452601b8552818885205416156141b057861561417f5750613e6f61417086614c0d565b614179876142a9565b90614abf565b849193979650613f6f7f4a4c5d1a281180eea1e99d8177fa4798b9f7e019d5c57e7d8d73c6a22199aa5b939661499f565b8751632a55ca5360e01b8152600490fd5b96939250505083156141fe5750600080516020614e5383398151915293506139ff906139df6141ef84614c44565b6141f8856142a9565b90614668565b92506141177f3168ba660eed6ef1dc2258b2247cc05fd0f2f350d39e6ad2e2ebc76a8000b40b94926144ea565b90600161ffff8093160191821161096c57565b611a8490613d0e61ffff9161425683601d541661422b565b9260018060a01b0382169081600052601e60205260406000209085169161ffff1991838382541617905582600052601f6020526040600020906001600160601b0360a01b825416179055601d541617601d555b600160ff601754166142ba81611e8c565b036142da576001600160a01b031660009081526019602052604090205490565b6001600160a01b031660009081526019602052604090206001015490565b61ffff80601d541690811561444d579060019061431781831115614ced565b6000828152601f60208181526040808420805486865282862080546001600160a01b03928316808952601e8752858920805461ffff199081168c17909155918416808a52868a20805484168d17905588885283546001600160a01b03199081169092179093558a8952845416909117909255929587959394929392916143b191908a6143a283613436565b1690601d541617601d55614c69565b8482528086526143c58484842054166142a9565b958598600281601d5416995b6143e3575b5050505050505050505050565b8181168a8111614447578a81101561442c5750806140926144039261422b565b9a909a5b89101561442757614418908b614da3565b6144218a614651565b876143d1565b6143d6565b859b919b528383526144428787872054166142a9565b614407565b506143d6565b6040516340d9b01160e01b8152600490fd5b61446890614c44565b61ffff9081601d54169161447c8383614da3565b8061448684613436565b1661ffff19601d541617601d5561449c83614c69565b8116809214612c18576141f882611a8493600052601f60205260018060a01b03906144d66144d083604060002054166142a9565b856145fc565b600052601f602052604060002054166142a9565b6144f390614c44565b61ffff9081601d5416916145078383614da3565b8061451184613436565b1661ffff19601d541617601d5561452783614c69565b808216809314613106579161fffe91600091808352601f9060209382855260018060a01b03926040926145676145618686862054166142a9565b876145fc565b825280865261457a8484842054166142a9565b9585986001988997881b1681601d5416995b61459d575050505050505050505050565b8181168a8111614447578a8110156145e15750806140926145bd9261422b565b9a909a5b891015614427576145d2908b614da3565b6145db8a614651565b8761458c565b859b919b528383526145f78787872054166142a9565b6145c1565b9190915b60018061ffff8316111561464b5781617fff911c1690836146366000848152601f602052604060018060a01b03912054166142a9565b101561464b576146469082614da3565b614600565b50509050565b60011b906201fffe61fffe83169216820361096c57565b90600161fffe83821b168160009161ffff9081601d5416925b61468f575b50505050505050565b8181168381116146fe57838110156146d85750806140926146af9261422b565b9690965b8610156146d3576146c49087614da3565b6146cd86614651565b84614681565b614686565b8452601f60205260408420549096906146f9906001600160a01b03166142a9565b6146b3565b50614686565b91909161ffff92838216600052601f60205261474760018060a01b0361473081604060002054166142a9565b958316600052601f602052604060002054166142a9565b908185106147555750509190565b9350919050565b611a849061417961ffff9161477483601a541661422b565b9260018060a01b0382169081600052601b60205260406000209085169161ffff1991838382541617905582600052601c6020526040600020906001600160601b0360a01b825416179055601a541617601a556142a9565b61ffff80601a541690811561444d57906001906147ea81831115614ced565b6000828152601c60208181526040808420805486865282862080546001600160a01b03928316808952601b8752858920805461ffff199081168c17909155918416808a52868a20805484168d17905588885283546001600160a01b03199081169092179093558a89528454169091179092559295879593949293929161488491908a61487583613436565b1690601a541617601a55614cab565b8482528086526148988484842054166142a9565b958598600281601a5416995b6148b5575050505050505050505050565b8181168a8111614447578a8110156148f9575080613ba16148d59261422b565b9a909a5b891115614427576148ea908b614d0a565b6148f38a614651565b876148a4565b859b919b5283835261490f8787872054166142a9565b6148d9565b61491d90614c0d565b61ffff9081601a5416916149318383614d0a565b8061493b84613436565b1661ffff19601a541617601a5561495183614cab565b8116809214612c1857613dc682611a8493600052601c60205260018060a01b039061498b61498583604060002054166142a9565b85614abf565b600052601c602052604060002054166142a9565b6149a890614c0d565b9061ffff9081601a5416906149bd8285614d0a565b826149c783613436565b1661ffff19601a541617601a556149dd82614cab565b828416809214614ab957600092919291838352601c9260209484865260018060a01b0391604091614a1b614a158585852054166142a9565b8a614abf565b8152858752614a2e8383832054166142a9565b95614a3889614651565b9785601a5416985b8681168a8111614aab578a811015614a90575080613ba1614a609261422b565b9a909a5b891115614a8357614a75908b614d0a565b614a7e8a614651565b614a40565b5050505050505092505050565b849b919b52828252614aa68686862054166142a9565b614a64565b505050505050505092505050565b92505050565b9190915b60018061ffff8316111561464b5781617fff911c169083614af96000848152601c602052604060018060a01b03912054166142a9565b111561464b57614b099082614d0a565b614ac3565b91614b1883614651565b600061ffff9182601a5416905b838116828111614b975782811015614b71575080613ba1614b459261422b565b9690965b861115614b6857614b5a9087614d0a565b614b6386614651565b614b25565b50505050915050565b8352601c6020526040832054909690614b92906001600160a01b03166142a9565b614b49565b5050505050915050565b919061ffff808416600052601c602052614be260018060a01b03614bcb81604060002054166142a9565b928416600052601c602052604060002054166142a9565b93848211156147555750509190565b61ffff601a54161561444d57565b61ffff601d54161561444d57565b6001600160a01b03166000908152601b602052604090205461ffff16908115614c3257565b60405163f2755e3760e01b8152600490fd5b6001600160a01b03166000908152601e602052604090205461ffff16908115614c3257565b61ffff166000908152601f6020908152604080832080546001600160a01b031981169091556001600160a01b03168352601e9091529020805461ffff19169055565b61ffff166000908152601c6020908152604080832080546001600160a01b031981169091556001600160a01b03168352601b9091529020805461ffff19169055565b15614cf457565b634e487b7160e01b600052600160045260246000fd5b614d2f61ffff8080601a5416931693614d2584861115614ced565b1691821115614ced565b6000828152601c60208181526040808420805486865282862080546001600160a01b03928316808952601b8752858920805461ffff19908116909b1790559216808852938720805490981689179097559390925284546001600160a01b031990811690931790945593909152825416179055565b614dbe61ffff8080601d5416931693614d2584861115614ced565b6000828152601f60208181526040808420805486865282862080546001600160a01b03928316808952601e8752858920805461ffff19908116909b1790559216808852938720805490981689179097559390925284546001600160a01b03199081169093179094559390915282541617905556fe143db27bc2036653dc6f962ff9d0b803163d4af50c256ca9e6927b3d6dcd0197da148fac2e1063174be7bc0895576bdaba90fd14e575463fa26a967cb895cadda26469706673582212205cc488e79ed0245083941a68bc92c74b8e2712254e7b55b31565695c0d6526e964736f6c63430008130033","linkReferences":{"src/lib/AccountHelper.sol":{"AccountHelper":[{"start":13302,"length":20}]},"src/lib/CrossMsgHelper.sol":{"CrossMsgHelper":[{"start":8404,"length":20},{"start":9705,"length":20}]},"src/lib/StorableMsgHelper.sol":{"StorableMsgHelper":[{"start":8238,"length":20}]},"src/lib/SubnetIDHelper.sol":{"SubnetIDHelper":[{"start":288,"length":20},{"start":509,"length":20},{"start":699,"length":20},{"start":1754,"length":20},{"start":8092,"length":20},{"start":12907,"length":20}]}}},"methodIdentifiers":{"addCheckpointSignature(uint64,bytes32[],uint256,bytes)":"2a04f220","applyCrossMessages(((((uint64,address[]),(uint8,bytes)),((uint64,address[]),(uint8,bytes)),uint256,uint64,bytes4,bytes,uint256),bool)[])":"c62eb4d5","applyFinalityChanges()":"0df14461","commitBottomUpCheckpoint(((uint64,address[]),uint64,bytes32,uint64,bytes32),((((uint64,address[]),(uint8,bytes)),((uint64,address[]),(uint8,bytes)),uint256,uint64,bytes4,bytes,uint256),bool)[])":"f456b39e","commitParentFinality((uint256,bytes32))":"11196974","createBottomUpCheckpoint(((uint64,address[]),uint64,bytes32,uint64,bytes32),bytes32,uint256)":"a656ca5b","pruneBottomUpCheckpoints(uint64)":"ae00c298","storeValidatorChanges(((uint8,bytes,address),uint64)[])":"e49a547d"},"id":47}