{"abi":[{"type":"function","name":"addBottomUpMsgBatchSignature","inputs":[{"name":"height","type":"uint256","internalType":"uint256"},{"name":"membershipProof","type":"bytes32[]","internalType":"bytes32[]"},{"name":"weight","type":"uint256","internalType":"uint256"},{"name":"signature","type":"bytes","internalType":"bytes"}],"outputs":[],"stateMutability":"nonpayable"},{"type":"function","name":"addCheckpointSignature","inputs":[{"name":"height","type":"uint256","internalType":"uint256"},{"name":"membershipProof","type":"bytes32[]","internalType":"bytes32[]"},{"name":"weight","type":"uint256","internalType":"uint256"},{"name":"signature","type":"bytes","internalType":"bytes"}],"outputs":[],"stateMutability":"nonpayable"},{"type":"function","name":"applyCrossMessages","inputs":[{"name":"crossMsgs","type":"tuple[]","internalType":"struct CrossMsg[]","components":[{"name":"message","type":"tuple","internalType":"struct StorableMsg","components":[{"name":"from","type":"tuple","internalType":"struct IPCAddress","components":[{"name":"subnetId","type":"tuple","internalType":"struct SubnetID","components":[{"name":"root","type":"uint64","internalType":"uint64"},{"name":"route","type":"address[]","internalType":"address[]"}]},{"name":"rawAddress","type":"tuple","internalType":"struct FvmAddress","components":[{"name":"addrType","type":"uint8","internalType":"uint8"},{"name":"payload","type":"bytes","internalType":"bytes"}]}]},{"name":"to","type":"tuple","internalType":"struct IPCAddress","components":[{"name":"subnetId","type":"tuple","internalType":"struct SubnetID","components":[{"name":"root","type":"uint64","internalType":"uint64"},{"name":"route","type":"address[]","internalType":"address[]"}]},{"name":"rawAddress","type":"tuple","internalType":"struct FvmAddress","components":[{"name":"addrType","type":"uint8","internalType":"uint8"},{"name":"payload","type":"bytes","internalType":"bytes"}]}]},{"name":"value","type":"uint256","internalType":"uint256"},{"name":"nonce","type":"uint64","internalType":"uint64"},{"name":"method","type":"bytes4","internalType":"bytes4"},{"name":"params","type":"bytes","internalType":"bytes"},{"name":"fee","type":"uint256","internalType":"uint256"}]},{"name":"wrapped","type":"bool","internalType":"bool"}]}],"outputs":[],"stateMutability":"nonpayable"},{"type":"function","name":"applyFinalityChanges","inputs":[],"outputs":[{"name":"","type":"uint64","internalType":"uint64"}],"stateMutability":"nonpayable"},{"type":"function","name":"commitCheckpoint","inputs":[{"name":"checkpoint","type":"tuple","internalType":"struct BottomUpCheckpoint","components":[{"name":"subnetID","type":"tuple","internalType":"struct SubnetID","components":[{"name":"root","type":"uint64","internalType":"uint64"},{"name":"route","type":"address[]","internalType":"address[]"}]},{"name":"blockHeight","type":"uint256","internalType":"uint256"},{"name":"blockHash","type":"bytes32","internalType":"bytes32"},{"name":"nextConfigurationNumber","type":"uint64","internalType":"uint64"}]}],"outputs":[],"stateMutability":"nonpayable"},{"type":"function","name":"commitParentFinality","inputs":[{"name":"finality","type":"tuple","internalType":"struct ParentFinality","components":[{"name":"height","type":"uint256","internalType":"uint256"},{"name":"blockHash","type":"bytes32","internalType":"bytes32"}]}],"outputs":[{"name":"hasCommittedBefore","type":"bool","internalType":"bool"},{"name":"previousFinality","type":"tuple","internalType":"struct ParentFinality","components":[{"name":"height","type":"uint256","internalType":"uint256"},{"name":"blockHash","type":"bytes32","internalType":"bytes32"}]}],"stateMutability":"nonpayable"},{"type":"function","name":"createBottomUpCheckpoint","inputs":[{"name":"checkpoint","type":"tuple","internalType":"struct BottomUpCheckpoint","components":[{"name":"subnetID","type":"tuple","internalType":"struct SubnetID","components":[{"name":"root","type":"uint64","internalType":"uint64"},{"name":"route","type":"address[]","internalType":"address[]"}]},{"name":"blockHeight","type":"uint256","internalType":"uint256"},{"name":"blockHash","type":"bytes32","internalType":"bytes32"},{"name":"nextConfigurationNumber","type":"uint64","internalType":"uint64"}]},{"name":"membershipRootHash","type":"bytes32","internalType":"bytes32"},{"name":"membershipWeight","type":"uint256","internalType":"uint256"}],"outputs":[],"stateMutability":"nonpayable"},{"type":"function","name":"createBottomUpMsgBatch","inputs":[{"name":"batch","type":"tuple","internalType":"struct BottomUpMsgBatch","components":[{"name":"subnetID","type":"tuple","internalType":"struct SubnetID","components":[{"name":"root","type":"uint64","internalType":"uint64"},{"name":"route","type":"address[]","internalType":"address[]"}]},{"name":"blockHeight","type":"uint256","internalType":"uint256"},{"name":"msgs","type":"tuple[]","internalType":"struct CrossMsg[]","components":[{"name":"message","type":"tuple","internalType":"struct StorableMsg","components":[{"name":"from","type":"tuple","internalType":"struct IPCAddress","components":[{"name":"subnetId","type":"tuple","internalType":"struct SubnetID","components":[{"name":"root","type":"uint64","internalType":"uint64"},{"name":"route","type":"address[]","internalType":"address[]"}]},{"name":"rawAddress","type":"tuple","internalType":"struct FvmAddress","components":[{"name":"addrType","type":"uint8","internalType":"uint8"},{"name":"payload","type":"bytes","internalType":"bytes"}]}]},{"name":"to","type":"tuple","internalType":"struct IPCAddress","components":[{"name":"subnetId","type":"tuple","internalType":"struct SubnetID","components":[{"name":"root","type":"uint64","internalType":"uint64"},{"name":"route","type":"address[]","internalType":"address[]"}]},{"name":"rawAddress","type":"tuple","internalType":"struct FvmAddress","components":[{"name":"addrType","type":"uint8","internalType":"uint8"},{"name":"payload","type":"bytes","internalType":"bytes"}]}]},{"name":"value","type":"uint256","internalType":"uint256"},{"name":"nonce","type":"uint64","internalType":"uint64"},{"name":"method","type":"bytes4","internalType":"bytes4"},{"name":"params","type":"bytes","internalType":"bytes"},{"name":"fee","type":"uint256","internalType":"uint256"}]},{"name":"wrapped","type":"bool","internalType":"bool"}]}]},{"name":"membershipRootHash","type":"bytes32","internalType":"bytes32"},{"name":"membershipWeight","type":"uint256","internalType":"uint256"}],"outputs":[],"stateMutability":"nonpayable"},{"type":"function","name":"execBottomUpMsgBatch","inputs":[{"name":"batch","type":"tuple","internalType":"struct BottomUpMsgBatch","components":[{"name":"subnetID","type":"tuple","internalType":"struct SubnetID","components":[{"name":"root","type":"uint64","internalType":"uint64"},{"name":"route","type":"address[]","internalType":"address[]"}]},{"name":"blockHeight","type":"uint256","internalType":"uint256"},{"name":"msgs","type":"tuple[]","internalType":"struct CrossMsg[]","components":[{"name":"message","type":"tuple","internalType":"struct StorableMsg","components":[{"name":"from","type":"tuple","internalType":"struct IPCAddress","components":[{"name":"subnetId","type":"tuple","internalType":"struct SubnetID","components":[{"name":"root","type":"uint64","internalType":"uint64"},{"name":"route","type":"address[]","internalType":"address[]"}]},{"name":"rawAddress","type":"tuple","internalType":"struct FvmAddress","components":[{"name":"addrType","type":"uint8","internalType":"uint8"},{"name":"payload","type":"bytes","internalType":"bytes"}]}]},{"name":"to","type":"tuple","internalType":"struct IPCAddress","components":[{"name":"subnetId","type":"tuple","internalType":"struct SubnetID","components":[{"name":"root","type":"uint64","internalType":"uint64"},{"name":"route","type":"address[]","internalType":"address[]"}]},{"name":"rawAddress","type":"tuple","internalType":"struct FvmAddress","components":[{"name":"addrType","type":"uint8","internalType":"uint8"},{"name":"payload","type":"bytes","internalType":"bytes"}]}]},{"name":"value","type":"uint256","internalType":"uint256"},{"name":"nonce","type":"uint64","internalType":"uint64"},{"name":"method","type":"bytes4","internalType":"bytes4"},{"name":"params","type":"bytes","internalType":"bytes"},{"name":"fee","type":"uint256","internalType":"uint256"}]},{"name":"wrapped","type":"bool","internalType":"bool"}]}]}],"outputs":[],"stateMutability":"nonpayable"},{"type":"function","name":"pruneBottomUpCheckpoints","inputs":[{"name":"newRetentionHeight","type":"uint256","internalType":"uint256"}],"outputs":[],"stateMutability":"nonpayable"},{"type":"function","name":"pruneBottomUpMsgBatches","inputs":[{"name":"newRetentionHeight","type":"uint256","internalType":"uint256"}],"outputs":[],"stateMutability":"nonpayable"},{"type":"function","name":"storeValidatorChanges","inputs":[{"name":"changeRequests","type":"tuple[]","internalType":"struct StakingChangeRequest[]","components":[{"name":"change","type":"tuple","internalType":"struct StakingChange","components":[{"name":"op","type":"uint8","internalType":"enum StakingOperation"},{"name":"payload","type":"bytes","internalType":"bytes"},{"name":"validator","type":"address","internalType":"address"}]},{"name":"configurationNumber","type":"uint64","internalType":"uint64"}]}],"outputs":[],"stateMutability":"nonpayable"},{"type":"error","name":"AddressEmptyCode","inputs":[{"name":"target","type":"address","internalType":"address"}]},{"type":"error","name":"AddressInsufficientBalance","inputs":[{"name":"account","type":"address","internalType":"address"}]},{"type":"error","name":"AddressShouldBeValidator","inputs":[]},{"type":"error","name":"BatchAlreadyExists","inputs":[]},{"type":"error","name":"BatchNotCreated","inputs":[]},{"type":"error","name":"BatchWithNoMessages","inputs":[]},{"type":"error","name":"CannotConfirmFutureChanges","inputs":[]},{"type":"error","name":"CheckpointAlreadyExists","inputs":[]},{"type":"error","name":"CheckpointNotCreated","inputs":[]},{"type":"error","name":"FailedAddIncompleteQuorum","inputs":[]},{"type":"error","name":"FailedAddSignatory","inputs":[]},{"type":"error","name":"FailedInnerCall","inputs":[]},{"type":"error","name":"FailedRemoveIncompleteQuorum","inputs":[]},{"type":"error","name":"InvalidActorAddress","inputs":[]},{"type":"error","name":"InvalidBatchEpoch","inputs":[]},{"type":"error","name":"InvalidBatchSource","inputs":[]},{"type":"error","name":"InvalidCheckpointEpoch","inputs":[]},{"type":"error","name":"InvalidCheckpointSource","inputs":[]},{"type":"error","name":"InvalidConfigurationNumber","inputs":[]},{"type":"error","name":"InvalidCrossMsgDstSubnet","inputs":[]},{"type":"error","name":"InvalidCrossMsgNonce","inputs":[]},{"type":"error","name":"InvalidRetentionHeight","inputs":[]},{"type":"error","name":"InvalidSignature","inputs":[]},{"type":"error","name":"InvalidSubnet","inputs":[]},{"type":"error","name":"MaxMsgsPerBatchExceeded","inputs":[]},{"type":"error","name":"NotAuthorized","inputs":[{"name":"","type":"address","internalType":"address"}]},{"type":"error","name":"NotEnoughBalance","inputs":[]},{"type":"error","name":"NotEnoughSubnetCircSupply","inputs":[]},{"type":"error","name":"NotRegisteredSubnet","inputs":[]},{"type":"error","name":"NotSystemActor","inputs":[]},{"type":"error","name":"OldConfigurationNumber","inputs":[]},{"type":"error","name":"PQDoesNotContainAddress","inputs":[]},{"type":"error","name":"PQEmpty","inputs":[]},{"type":"error","name":"ParentFinalityAlreadyCommitted","inputs":[]},{"type":"error","name":"QuorumAlreadyProcessed","inputs":[]},{"type":"error","name":"SignatureReplay","inputs":[]},{"type":"error","name":"SubnetNotActive","inputs":[]},{"type":"error","name":"SubnetNotFound","inputs":[]},{"type":"error","name":"ZeroMembershipWeight","inputs":[]}],"bytecode":{"object":"0x6080806040523461001757615e7d90816200001d8239f35b600080fdfe6080604052600436101561001257600080fd5b6000803560e01c80630bed7615146116845780630db0f77c1461138e5780630df144611461135a578063111969741461129d57806332e7661f14610e7a57806347dc9b4f14610b8257806353b4e7bf146107e9578063743037711461050d578063ac81837914610393578063bacc656d14610183578063c62eb4d5146100ec5763e49a547d146100a157600080fd5b346100e95760203660031901126100e9576004356001600160401b0381116100e5576100d46100e2913690600401611abc565b906100dd613bf6565b614090565b80f35b5080fd5b80fd5b50346100e95760203660031901126100e9576001600160401b0360043581811161017f5761011e903690600401611abc565b610126613bf6565b60405192602084019081118482101761016b5791610165916100e294936040528584526040519361015685611909565b86855260208501523691611e0e565b906123bd565b634e487b7160e01b85526041600452602485fd5b8280fd5b50346100e9576020806003193601126100e557600435906101a2613bf6565b6012545b8281106102db5750601254808311156102c9575b8281106101c957505060125580f35b808452601382526040842090848255846004600193828582015582600282015582600382015501556016835260408520805490868155816102a6575b50508085526040852060405180828682945493848152019089528689209289905b878982841061028d575050505061023f92500382611970565b80519083875b8381106102565750505050016101ba565b84895260178752604089206001600160a01b036102738386612111565b51168a52875261028560408a2061304e565b018490610245565b9092945082919386548152019401920184929391610226565b865282848720918201915b8281106102be5750610205565b8781550183906102b1565b604051636819a3a960e01b8152600490fd5b808452600990818352604085209185835560036001936102fc858201612515565b876002820155019081549087835581610319575b505050016101a6565b600d92828402928484040361037f578852858820918201915b82811061033f5750610310565b8061034a8592613097565b61035660048201613097565b896008820155898382015561036d600a820161304e565b89600b82015589600c82015501610332565b634e487b7160e01b89526011600452602489fd5b50346100e9576020806003193601126100e557600435906103b2613bf6565b600b545b8281106104d95750600b54808311156102c9575b8281106103d9575050600b5580f35b808452600c8252604084209084825584600460019382858201558260028201558260038201550155600f835260408520805490868155816104b6575b50508085526040852060405180828682945493848152019089528689209289905b878982841061049d575050505061044f92500382611970565b80519083875b8381106104665750505050016103ca565b84895260108752604089206001600160a01b036104838386612111565b51168a52875261049560408a2061304e565b018490610455565b9092945082919386548152019401920184929391610436565b865282848720918201915b8281106104ce5750610415565b8781550183906104c1565b8084526008825260408420908482558460046001936104f9858201612515565b8260028201558260038201550155016103b6565b50346100e9576003196060368201126100e5576004356001600160401b038082116107e5576080826004019383360301126107e5576044359261054e613bf6565b602483013593610560601e5486612ec3565b6107d3578486526020936008855260026040882001546107c15760405191858301918683526105a36105928680612ee3565b6080604087015260c0860190612f2b565b928860608601526044820135948560808201526105dd8160648501968a6105c989611b01565b1660a083015203601f198101835282611970565b5190209160ff601d541690600b548a106107af57801561079d57606491610603916124eb565b049161060e89613e3f565b1561078b576040516106809161062382611955565b815260048a8a8d6040828601916024358352818701998a52600c60608801948286526080890196838852835252209451855551966001978886015551600285015551600384015551151591019060ff801983541691151516179055565b6040519460808601868110888211176107775760405235908682116107735760046106ae9236920101611b29565b84526106c68685019288845260408601948552611b01565b96606085019788528852600886526040882093519585875116966001600160401b03199788875416178655818387019101519182519288841161075f57819061070f8585612539565b01918b52808b20908b5b848110610745575050505050509060049291516002830155516003820155019251169082541617905580f35b83516001600160a01b031683820155928101928501610719565b634e487b7160e01b8c52604160045260248cfd5b8980fd5b634e487b7160e01b8b52604160045260248bfd5b604051630cbd1cd360e11b8152600490fd5b604051634e8ac6e560e01b8152600490fd5b604051630108e13760e21b8152600490fd5b60405163b8a1eae160e01b8152600490fd5b60405163fae4eadb60e01b8152600490fd5b8380fd5b50346100e9576107f836611a1d565b909291600b5483106107af5782855260209160088352600260408720015415610b7057838652600c83526040862092610832828554613c9c565b5061083c81613c6d565b610b5e57858852600f825260408089206001600160a01b0383166000818152600190920160205291902054610b4c57604080516001600160a01b03909316848401908152602081018a9052908390820103926108a0601f1994858101835282611970565b5190206040518481019182528481526108b881611909565b519020600195868089015492918c915b610ae9575b505003610ad157868952600f83526108e88160408b20613e8c565b15610abf578689526010835260408920908952825260408820928051926001600160401b038411610aab579083929161092b846109258854612125565b8861256d565b8092601f8511600114610a4b5750508992610a40575b5050600019600383901b1c191690831b1790555b6109646003830194855461204e565b908185556002830154821015610978578580f35b600483018054909260ff82166109f9575060ff191617905561099982613fd3565b156109e7576109da7fc08568b61a3224ac0d48121f065552f2f645d3777d353bd87291108bc36514949360ff600a5416925490549060405194859485613c77565b0390a15b38808080808580f35b6040516344a7b48760e11b8152600490fd5b9150507f103355808c87614c31e835c1a86487b17b1e54cf36e0ac4469c8d1e892239cbc9450610a38915060ff600a5416925460405194859485613c77565b0390a16109de565b015190503880610941565b87959392919316868c52838c20938c905b828210610a925750508411610a79575b505050811b019055610955565b015160001960f88460031b161c19169055388080610a6c565b8484015186558997909501949384019390810190610a5c565b634e487b7160e01b8a52604160045260248afd5b604051633363140f60e01b8152600490fd5b60249060405190634a0bfec160e01b82526004820152fd5b90918151831015610b4657610afe8383612111565b519081811015610b38578d52865260408c205b916000198114610b2457880190886108c8565b634e487b7160e01b8d52601160045260248dfd5b908d52865260408c20610b11565b916108cd565b604051635a3fd0d960e11b8152600490fd5b604051638baa579f60e01b8152600490fd5b6040516358cdd2e760e01b8152600490fd5b50346100e9576003196020368201811361017f57600435916001600160401b0390818411610e765783600401916080828636030112610e7257610c0b91610bd236610bcd8680611aec565b611b29565b918573__$a0fe38a9a81205afccc10810b09a4d3f45$__9360405180968192632cff562160e11b83528460048401526024830190611be0565b0381865af4938415610e67578894610e2c575b506001600160a01b03933390851603610e1a57610c3a33613904565b959015610e095791610c7a94610c5888959394610bcd369180611aec565b9360405196879563c836244d60e01b8752604060048801526044870190611be0565b928584030160248601526040830190600489015416835260606005890193604088820152845480935201928b52858b20918b905b828210610deb575050505082809103915af4908115610de0578591610db3575b5015610da1576003015460801c60ff166006811015610d8d57600103610d7b578260ff602c5460181c16610cff5780f35b80610d6b93604051602485820192632643057b60e11b84520135602482015282604482015282606482015260648152610d3781611955565b519082335af13d15610d72573d610d4d816119a8565b90610d5b6040519283611970565b81528481933d92013e5b33611cf2565b5038808280f35b60609150610d65565b60405163c18316bf60e01b8152600490fd5b634e487b7160e01b84526021600452602484fd5b6040516303b5db8360e11b8152600490fd5b610dd39150833d8511610dd9575b610dcb8183611970565b810190611c3b565b38610cce565b503d610dc1565b6040513d87823e3d90fd5b8354811685528a978997509094019360019384019390910190610cae565b6040516208ed5b60e31b8152600490fd5b604051637f39132760e11b8152600490fd5b9093508581813d8311610e60575b610e448183611970565b81010312610e5c57610e5590611bcc565b9238610c1e565b8780fd5b503d610e3a565b6040513d8a823e3d90fd5b8580fd5b8480fd5b50346100e9576003196060368201126100e557600435906001600160401b03821161017f5760609082360301126100e557610eb3613bf6565b610ec8610ec33683600401611f62565b6130ba565b610ed8601f546024830135612ec3565b1580159061128f575b61127d57602481013582526009602052600260408320015461126b57604051602080820152610f27610f166004840180612ee3565b6060604084015260a0830190612f2b565b6024830135606083015281610f426044850185600401612ef7565b603f93919319838303016080840152808252602082019160208260051b820101928589925b848410611160575050505050610f86925003601f198101835282611970565b6020815191012060ff601d54166012546024840135106107af57604435801561079d57606491610fb5916124eb565b0491610fc46024820135613dd6565b1561078b5761103f6110499260405190610fdd82611955565b815260046020820160243581526040830196875260608301888152608084019189835260248701358a52601360205260408a209451855551976001988986015551600285015551600384015551151591019060ff801983541691151516179055565b3690600401611f62565b6020810190815184526009602052604084209181516001600160401b038151166001600160401b03198554161784556020858501910151908151916001600160401b03831161112f5760209061109f8484612539565b019087526020872086885b8481106111435789828960408a8a5160028401550190815151916003859201915b8381106110d6578580f35b6110e1818351612111565b518354600160401b81101561112f5786810180865581101561111b5786929161111591868a52600d60208b209102016125b2565b016110cb565b634e487b7160e01b88526032600452602488fd5b634e487b7160e01b88526041600452602488fd5b83516001600160a01b0316818401556020909301928891016110aa565b919395509193601f198282030184526111798784612ee3565b90813560de19833603018112156112675782602092836112508160019781960194604085526111dd6111c06111ae8880612ee3565b60e06040890152610120880190612fed565b6111cc84890189612ee3565b878203603f19016060890152612fed565b604087013560808701526001600160401b036111fb60608901611b01565b1660a08701526112416001600160e01b031961121960808a01611dec565b169160c0928389015261122f60a08a018a612f9b565b898303603f190160e08b015290612fcc565b96013561010086015201611e01565b151591015298019401940191879593969491610f67565b8b80fd5b60405163d15f973b60e01b8152600490fd5b60405163200c52f760e21b8152600490fd5b506024810135431115610ee1565b50346100e95760403660031901126100e9576040516112bb81611909565b818152816020809201526112cd613bf6565b81816040516112db81611909565b828152015260025491600435918284116113485760609382526001815260408220926040600181519561130d87611909565b805487520154938386019485528281526001845220818155600160243591015560025582511515926040519384525190830152516040820152f35b60405163153ad84160e11b8152600490fd5b50346100e957806003193601126100e957611373613bf6565b602061137d612205565b6001600160401b0360405191168152f35b50346100e95761139d36611a1d565b90929160125483106107af5782855260209160098352600260408720015415611672578386526013835260408620926113d7828554613c9c565b506113e181613c6d565b610b5e578588526016825260408089206001600160a01b0383166000818152600190920160205291902054610b4c57604080516001600160a01b03909316848401908152602081018a905290839082010392611445601f1994858101835282611970565b51902060405184810191825284815261145d81611909565b519020600195868089015492918c915b611623575b505003610ad1578689526016835261148d8160408b20613e8c565b15610abf578689526017835260408920908952825260408820928051926001600160401b038411610aab57908392916114ca846109258854612125565b8092601f85116001146115c357505089926115b8575b5050600019600383901b1c191690831b1790555b6115036003830194855461204e565b908185556002830154821015611517578580f35b600483018054909260ff8216611579575060ff191617905561153882613ee9565b156109e7576109da7fc08568b61a3224ac0d48121f065552f2f645d3777d353bd87291108bc36514949360ff60115416925490549060405194859485613c77565b9150507f103355808c87614c31e835c1a86487b17b1e54cf36e0ac4469c8d1e892239cbc9450610a38915060ff60115416925460405194859485613c77565b0151905038806114e0565b87959392919316868c52838c20938c905b82821061160a57505084116115f1575b505050811b0190556114f4565b015160001960f88460031b161c191690553880806115e4565b84840151865589979095019493840193908101906115d4565b9091815183101561166c576116388383612111565b51908181101561165e578d52865260408c205b916000198114610b24578801908861146d565b908d52865260408c2061164b565b91611472565b60405163a88f96f160e01b8152600490fd5b50346100e9576003196020368201811361017f57600435916001600160401b0383116107e5576060836004019184360301126107e5576116ed826116cc36610bcd8580611aec565b60405180938192632cff562160e11b83528460048401526024830190611be0565b038173__$a0fe38a9a81205afccc10810b09a4d3f45$__5af4908115610de05785916118d4575b50336001600160a01b03909116036118bf57611733610ec33683611f62565b61173c33613904565b919015610e095760ff600383015460801c169160068310156118ab576001809303610d7b57856044879601936117728585611fd7565b899291505b80831061185c5750505061178b908661204e565b90600281019182549080821061184a576117ce95600495610165956117b66117bd946117c696612071565b9055611fd7565b9490920161207e565b923691611e0e565b60ff602c54821c166117de578280f35b60405181810190632643057b60e11b82524360248201528360448201528460648201526064815261180e81611955565b83471061183257610d6b93859283925191335af13d15610d72573d610d4d816119a8565b60405163cd78605960e01b8152306004820152602490fd5b604051631d36ca1560e21b8152600490fd5b906118a261188e849a956040611886611880869861187a8e8e611fd7565b9061200c565b80612039565b01359061204e565b9460c06118866118808d61187a8d8d611fd7565b98019190611777565b634e487b7160e01b86526021600452602486fd5b60405160016201ad9360e61b03198152600490fd5b90508281813d8311611902575b6118eb8183611970565b81010312610e76576118fc90611bcc565b38611714565b503d6118e1565b604081019081106001600160401b0382111761192457604052565b634e487b7160e01b600052604160045260246000fd5b606081019081106001600160401b0382111761192457604052565b60a081019081106001600160401b0382111761192457604052565b90601f801991011681019081106001600160401b0382111761192457604052565b6001600160401b0381116119245760051b60200190565b6001600160401b03811161192457601f01601f191660200190565b9291926119cf826119a8565b916119dd6040519384611970565b8294818452818301116119fa578281602093846000960137010152565b600080fd5b9080601f830112156119fa57816020611a1a933591016119c3565b90565b9060806003198301126119fa57600435916001600160401b03916024358381116119fa57826023820112156119fa578060040135611a5a81611991565b91611a686040519384611970565b81835260209160248385019160051b830101918683116119fa57602401905b828210611aad575050505092604435926064359182116119fa57611a1a916004016119ff565b81358152908301908301611a87565b9181601f840112156119fa578235916001600160401b0383116119fa576020808501948460051b0101116119fa57565b903590603e19813603018212156119fa570190565b35906001600160401b03821682036119fa57565b35906001600160a01b03821682036119fa57565b91906040838203126119fa5760405192611b4284611909565b83611b4c82611b01565b815260209182810135906001600160401b0382116119fa57019280601f850112156119fa578335611b7c81611991565b94611b8a6040519687611970565b818652848087019260051b8201019283116119fa5784809101915b838310611bb457505050500152565b8190611bbf84611b15565b8152019101908490611ba5565b51906001600160a01b03821682036119fa57565b60609060408301906001600160401b03815116845260209283809201519460408382015285518094520193019160005b828110611c1e575050505090565b83516001600160a01b031685529381019392810192600101611c10565b908160209103126119fa575180151581036119fa5790565b60408101906001600160401b036019541681526060602091604083820152601a548094520191601a6000527f057c384a7d1c54f3a1b2e5e67b2617b8224fdfd1ea7234eea573a6ff665ff63e916000905b828210611cb2575050505090565b83546001600160a01b031685529384019360019384019390910190611ca4565b60021115611cdc57565b634e487b7160e01b600052602160045260246000fd5b9015611d3057815115611d03575090565b803b15611d0e575090565b604051639996b31560e01b81526001600160a01b039091166004820152602490fd5b50805115611d4057805190602001fd5b604051630a12f52160e11b8152600490fd5b359060ff821682036119fa57565b91906040838203126119fa5760405192611d7984611909565b838135916001600160401b03928381116119fa5784611d99918301611b29565b82526020810135908382116119fa57016040818503126119fa5760405193611dc085611909565b611dc982611d52565b855260208201359384116119fa57602093611de492016119ff565b828401520152565b35906001600160e01b0319821682036119fa57565b359081151582036119fa57565b929192611e1a82611991565b91604090611e2a82519485611970565b839581855260208095019160051b8401938185116119fa5780925b858410611e555750505050505050565b6001600160401b039084358281116119fa5783019086828603126119fa578651611e7e81611909565b82358481116119fa5783019260e09485858903126119fa57895195860186811082821117611f4d578a5284358181116119fa5788611ebd918701611d60565b86528b8501358181116119fa5788611ed6918701611d60565b8c870152898501358a8701526060611eef818701611b01565b908701526080611f00818701611dec565b9087015260a091828601359182116119fa578c9686611f3e94611f288c8b9a968b97016119ff565b9083015260c08091013590820152845201611e01565b83820152815201930192611e45565b60246000634e487b7160e01b81526041600452fd5b91906060838203126119fa5760405190611f7b8261193a565b81938035906001600160401b03918281116119fa5783611f9c918301611b29565b84526020810135602085015260408101359182116119fa570181601f820112156119fa57604091816020611fd293359101611e0e565b910152565b903590601e19813603018212156119fa57018035906001600160401b0382116119fa57602001918160051b360383136119fa57565b9082101561202357611a1a9160051b810190611aec565b634e487b7160e01b600052603260045260246000fd5b90359060de19813603018212156119fa570190565b9190820180921161205b57565b634e487b7160e01b600052601160045260246000fd5b9190820391821161205b57565b9060405161208b81611909565b80926001600160401b03815416825260018091019160405191828481955492838652602080960191600052856000209060005b878682106120da57505050506120d692500384611970565b0152565b83546001600160a01b03168552899550909301929181019181016120be565b9060016001600160401b038093160191821161205b57565b80518210156120235760209160051b010190565b90600182811c92168015612155575b602083101461213f57565b634e487b7160e01b600052602260045260246000fd5b91607f1691612134565b906040519182600082549261217384612125565b9081845260019485811690816000146121e2575060011461219f575b505061219d92500383611970565b565b9093915060005260209081600020936000915b8183106121ca57505061219d9350820101388061218f565b855488840185015294850194879450918301916121b2565b91505061219d94506020925060ff191682840152151560051b820101388061218f565b602a546001600160401b038082166000190181811161205b57612227816120f9565b8280604095861c169116146123b55761223f816142d9565b61ffff9283602454169161225283611991565b9561225f83519788611970565b838752601f19918261227086611991565b019260209336858b013760015b8881168781116122bf576000908152602686528690205489916001916001600160a01b03166122b78d856122b08561407c565b1690612111565b52011661227d565b5050945094919290955086516122d481611991565b946122e183519687611970565b8186526122ed82611991565b018460005b82811061238c5750505060005b818110612327575050611a1a94959650519261231a84611909565b8352841690820152613425565b6001906001600160a01b0361233c828c612111565b5116806000526023875261236c60038660002085810154938851946123608661193a565b85528a8501520161215f565b8582015261237a8289612111565b526123858188612111565b50016122ff565b84516123978161193a565b6000815260008382015260608682015282828a0101520185906122f2565b505050600090565b81519160005b8381106123d05750505050565b806123e76123e060019385612111565b51856129a8565b016123c3565b60005b8381106124005750506000910152565b81810151838201526020016123f0565b90602091612429815180928185528580860191016123ed565b601f01601f1916010190565b60406020611a1a938161244f855185845285840190611be0565b940151908281860391015260ff81511684520151918160208201520190612410565b9060c0806124e26124a061248e865160e0875260e0870190612435565b60208701518682036020880152612435565b604086015160408601526001600160401b03606087015116606086015263ffffffff60e01b608087015116608086015260a086015185820360a0870152612410565b93015191015290565b8181029291811591840414171561205b57565b818110612509575050565b600081556001016124fe565b80546000825580612524575050565b61219d916000526020600020908101906124fe565b90600160401b81116119245781549080835581811061255757505050565b61219d92600052602060002091820191016124fe565b9190601f811161257c57505050565b61219d926000526020600020906020601f840160051c830193106125a8575b601f0160051c01906124fe565b909150819061259b565b908051908151918251926001600160401b03808551166001600160401b031990818854161787556001808801936020809801518051908582116119245789906125fb8389612539565b01600096875289872084885b84811061298d5750505050508760028a019101519260ff8451169160ff19928382541617905560039389858c01910151805190878211612903578190612657826126518654612125565b8661256d565b8c90601f8311600114612922578a92612917575b505060001982881b1c191690851b1790555b60048a0190898801519182519187835116908254161790558960058c0191015190815191878311612903578b906126b48484612539565b019088528a882085895b8481106128e85750505050508860068b019101519160ff835116908254161790558760078a019101518051908582116128d4578190612701826126518654612125565b8a90601f831160011461287557889261286a575b505060001982861b1c191690831b1790555b6040850151600889015560098801836060870151168154906bffffffff0000000000000000608089015160a01c16916001600160601b03191617179055600a88019360a0860151805194851161285657612785856109258854612125565b8891601f86116001146127e5579385600c999794819460c0989461219d9e9d9b98956127da575b50501b92600019911b1c19161790555b0151600b8501550151151591019060ff801983541691151516179055565b0151935038806127ac565b9294939190601f1985168785528a8520945b8181106128415750928592600c9a98959261219d9d9c9a9760c0999610612827575b50505050811b0190556127bc565b01519060f884600019921b161c1916905538808080612819565b82840151865594870194928b01928b016127f7565b634e487b7160e01b82526041600452602482fd5b015190503880612715565b8489528b89208694509190601f1984168a8e5b8282106128bd57505084116128a5575b505050811b019055612727565b015160001983881b60f8161c19169055388080612898565b83850151865589979095019493840193018e612888565b634e487b7160e01b87526041600452602487fd5b83516001600160a01b031683820155928d01928791016126be565b634e487b7160e01b89526041600452602489fd5b01519050388061266b565b879350908d91601f198416868d52838d20938d905b82821061296c5750508411612954575b505050811b01905561267d565b0151600019838a1b60f8161c19169055388080612947565b91929395968291958786015181550195019301908f918a9695949392612937565b83516001600160a01b031683820155928c0192869101612607565b90602080825101515173__$a0fe38a9a81205afccc10810b09a4d3f45$__90604094855190630c133d1360e31b918281528581806129f160049784898401526024830190611be0565b0381885af4908115612eb857600091612e9b575b50612e8b57855160808101516001600160e01b031995918991871615612e6c575b5050865192612a4a89519463f47ad7eb60e01b86528a878701526044860190612471565b878580612a636003199485838203016024840152611c53565b038173__$386b5c41ce93e8b832daf8008b3d30ae09$__5af4948515612e2457908891600096612e2f575b508951820151518b5163c836244d60e01b81528881018d9052929183918291612ace91612abf906044850190611be0565b90838203016024840152611c53565b0381865af4908115612e2457600091612e07575b50612bae575050505050839160039161219d9551612b9f818481019385855260c0612b7d8a51928a80860152612b25845160e060808801526101608701906130fe565b612b408a86015191607f1992838983030160a08a01526130fe565b918c860151858801526001600160401b0360608701511660e088015260808601511661010087015260a08501519086830301610120870152612410565b910151610140830152858901511515606083015203601f198101835282611970565b519020600052526000206125b2565b86949550612bbb84611cd2565b60018414612d14575b505050612bd081611cd2565b15612cac575b60009185519485928392635c46fefb60e11b845283015284612c0382518960248601526064850190612471565b91015115156044830152038173__$33b79814e84bf6cf5e47244090b19ce5f8$__5af48015612ca157612c3557505050565b3d806000843e612c458184611970565b82019181818403126119fa578051906001600160401b0382116119fa57019082601f830112156119fa57815192612c87612c7e856119a8565b95519586611970565b8385528184840101116119fa578061219d940191016123ed565b83513d6000823e3d90fd5b50601d546001600160401b03808260481c1690606086510151168103612d045791839167ffffffffffffffff60481b612ce66000956120f9565b60481b169067ffffffffffffffff60481b191617601d559150612bd6565b855163a57cadff60e01b81528390fd5b88949192939451928391825282878301528180612d346024820188611be0565b03915af4908115612dfc579085939291600091612ddf575b5015612d5a575b8080612bc4565b612d65919250613af4565b9015612dcf5760030180546001600160401b038082891c1690606088510151168103612dbf579067ffffffffffffffff60401b612da4879594936120f9565b891b169067ffffffffffffffff60401b191617905538612d53565b875163a57cadff60e01b81528590fd5b8551630e991abd60e41b81528390fd5b612df69150843d8611610dd957610dcb8183611970565b38612d4c565b87513d6000823e3d90fd5b612e1e9150883d8a11610dd957610dcb8183611970565b38612ae2565b8a513d6000823e3d90fd5b90959181813d8311612e65575b612e468183611970565b810103126100e557519060028210156100e95750938790612abf612a8e565b503d612e3c565b01514710612e7b578738612a26565b875163569d45cf60e11b81528490fd5b865163c5f563eb60e01b81528390fd5b612eb29150863d8811610dd957610dcb8183611970565b38612a05565b88513d6000823e3d90fd5b8115612ecd570690565b634e487b7160e01b600052601260045260246000fd5b9035603e19823603018112156119fa570190565b9035601e19823603018112156119fa5701602081359101916001600160401b0382116119fa578160051b360383136119fa57565b60408201916001600160401b03612f4183611b01565b1681526060612f5560209384810190612ef7565b839195604086839601525201929160005b828110612f74575050505090565b909192938280600192838060a01b03612f8c89611b15565b16815201950193929101612f66565b9035601e19823603018112156119fa5701602081359101916001600160401b0382116119fa5781360383136119fa57565b908060209392818452848401376000828201840152601f01601f1916010190565b604061303e611a1a9361301d6130126130068680612ee3565b85845285840190612f2b565b946020810190612ee3565b90602081860391015260ff61303182611d52565b1684526020810190612f9b565b9190928160208201520191612fcc565b6130588154612125565b9081613062575050565b81601f60009311600114613074575055565b908083918252613093601f60208420940160051c8401600185016124fe565b5555565b600361219d91600081556130ad60018201612515565b600060028201550161304e565b6040018051516001600160401b0360205416106130ec575151156130da57565b6040516338d2307f60e01b8152600490fd5b60405163351c700760e01b8152600490fd5b91908251906040815260808101936001600160401b038351166040830152602080930151946040606084015285518091528360a0840196019060005b81811061316e5750505093604083819381611a1a97980151908281860391015260ff81511684520151938201520190612410565b82516001600160a01b03168852968501969185019160010161313a565b90815180825260208092019182818360051b85019501936000915b8483106131b65750505050505090565b90919293949584806131f383856001950387528a5180518252858060a01b0384820151168483015260408091015191606080928201520190612410565b98019301930191949392906131a6565b908082146132d7576132158154612125565b906001600160401b038211611924578190613234826126518654612125565b600090601f831160011461326b57600092613260575b50508160011b916000199060031b1c1916179055565b01549050388061324a565b81526020808220858352818320935090601f1985169083905b8282106132be5750509084600195949392106132a5575b505050811b019055565b015460001960f88460031b161c1916905538808061329b565b8495819295850154815560018091019601940190613284565b5050565b600454811015612023576003906004600052027f8a35acfbc15ff81a39ae7d344fd709f28e8600b4aa8c65c6b64bfe7fe36bd19b0190600090565b9061340f5781518155600190604060028383019260209360018060a01b0385880151166001600160601b0360a01b82541617905501930151908151916001600160401b038311611924576133748361336e8754612125565b8761256d565b81601f84116001146133ad57509282939183926000946133a2575b50501b916000199060031b1c1916179055565b01519250388061338f565b919083601f1981168760005284600020946000905b888383106133f557505050106133dc57505050811b019055565b015160001960f88460031b161c1916905538808061329b565b8587015188559096019594850194879350908101906133c2565b634e487b7160e01b600052600060045260246000fd5b604080519160209182845261344482518285870152606086019061318b565b927f7ecdac482334c36fccbe374318cfe74ea0c8181394890ddec894a10f0fcc748181840195806001600160401b039687895116868301520390a183600554169081613730575b505050600490815493600160401b9384861161371b576006548660065580871061367c575b5060066000908152957ff652222313e28459528d920b65115c16c04f3efc82aaedc97be59f3f377c0d3f877f8a35acfbc15ff81a39ae7d344fd709f28e8600b4aa8c65c6b64bfe7fe36bd19b5b83821061362757505050508060055416916001600160401b03199283600754161760075583515193855496885b8681106135b557505050511690600554161760055580831161354d575b50505050565b8281101561354757815480156135a257600019019061356b826132db565b92909261359057858355613588600260019488868201550161304e565b83550161354d565b634e487b7160e01b8652858452602486fd5b634e487b7160e01b855260318352602485fd5b888110156135e457806135de6135ce6001938651612111565b516135d8836132db565b90613316565b0161352a565b6135ef818451612111565b5188548381101561361457600192916135d8828561360f94018d556132db565b6135de565b634e487b7160e01b8c5260418a5260248cfd5b806001918403613642575b60038091019301910190916134fd565b805484558180850190838060a01b0390830154166001600160601b0360a01b8254161790556136776002808301908601613203565b613632565b60039080820290828204036137065787820282810489036136f157600090600682527ff652222313e28459528d920b65115c16c04f3efc82aaedc97be59f3f377c0d3f92830192015b8281106136d4575050506134b0565b80828592558260018201556136eb6002820161304e565b016136c5565b601187634e487b7160e01b6000525260246000fd5b601186634e487b7160e01b6000525260246000fd5b604184634e487b7160e01b6000525260246000fd5b8486511685600754169081811461381d571061380c5782519261375284611909565b60045461375e81611991565b9161376b81519384611970565b8183528383019060046000527f8a35acfbc15ff81a39ae7d344fd709f28e8600b4aa8c65c6b64bfe7fe36bd19b906000925b8484106137ca5750505091855250508201526137b99082613827565b6137c55738808061348b565b505050565b60038760019284516137db8161193a565b86548152848060a01b038588015416838201526137fa6002880161215f565b8682015281520193019301929161379d565b8251633746be2560e11b8152600490fd5b5050505050505050565b6001600160401b0390602091808383015116908385015116036123b55761384d816138c8565b613856846138c8565b036123b557518051835151036123b5576138c16138b591604051908161388686820192878452604083019061318b565b039161389a601f1993848101835282611970565b5190209451604051938491868301968752604083019061318b565b03908101835282611970565b5190201490565b8051519060009182915b8183106138df5750505090565b9091926138fb6001916138f3868551612111565b51519061204e565b930191906138d2565b6001600160a01b0390811691908215613ae25760409283519361392685611909565b6001600160401b0391826019541686528151958690601a54908189526020809901926000978893601a85527f057c384a7d1c54f3a1b2e5e67b2617b8224fdfd1ea7234eea573a6ff665ff63e9185905b8d838310613ac5575050505050613993816139b994950382611970565b818a0152845163aa5106cb60e01b81526004810186905293849283926044840190611be0565b906024830152038173__$a0fe38a9a81205afccc10810b09a4d3f45$__5af4938415613aba5780946139f9575b505050506139f5919250613af4565b9091565b90919293503d8082843e613a0d8184611970565b82019186818403126100e55780519085821161017f57019383858403126100e557835194613a3a86611909565b805182811681036107e55786528781015191821161017f570182601f820112156100e557805191613a6d612c7e84611991565b828552878086019360051b8301019384116100e957508601905b828210613aa3575050506139f5929382015282913880806139e6565b868091613aaf84611bcc565b815201910190613a87565b8251903d90823e3d90fd5b845482168952909701968b96506001938401939190910190613976565b6040516370e4510960e01b8152600490fd5b613b3273__$a0fe38a9a81205afccc10810b09a4d3f45$__91604051906390ba52cf60e01b8252818060209485938460048401526024830190611be0565b0381865af4908115613bbd57600091613bc9575b5060005260008152613b8781604060002093613b646004860161207e565b906040518080958194630c133d1360e31b83528660048401526024830190611be0565b03915af4918215613bbd57600092613ba0575b50501591565b613bb69250803d10610dd957610dcb8183611970565b3880613b9a565b6040513d6000823e3d90fd5b908282813d8311613bef575b613bdf8183611970565b810103126100e957505138613b46565b503d613bd5565b604051635d3f8a6960e01b815233600482015260208160248173__$e800e3908cdbb6b1b5bd452383a17b18f7$__5af4908115613bbd57600091613c4f575b5015613c3d57565b60405163f0d97f3b60e01b8152600490fd5b613c67915060203d8111610dd957610dcb8183611970565b38613c35565b60041115611cdc57565b909493926060926080830196613c8c81611cd2565b8352602083015260408201520152565b8151919060418303613ccd57613cc692506020820151906060604084015193015160001a90613cd8565b9192909190565b505060009160029190565b91907f7fffffffffffffffffffffffffffffff5d576e7357a4501ddfe92f46681b20a08411613d5c57926020929160ff608095604051948552168484015260408301526060820152600092839182805260015afa15613d505780516001600160a01b03811615613d4757918190565b50809160019190565b604051903d90823e3d90fd5b50505060009160039190565b6014548110156120235760146000527fce6d7b5282bd9a3661ae061feed1dbda4e52ab073b1f9285be6e155d9c38d4ec0190600090565b600d5481101561202357600d6000527fd7b6990105719101dabeb77144f2a3385c8033acd3af97e9423a695e81ad1eb50190600090565b600081815260156020526040812054613e3a57601454600160401b811015612856579082613e26613e0f84600160409601601455613d68565b819391549060031b91821b91600019901b19161790565b905560145492815260156020522055600190565b905090565b6000818152600e6020526040812054613e3a57600d54600160401b811015612856579082613e78613e0f84600160409601600d55613d9f565b9055600d54928152600e6020522055600190565b6000828152600182016020526040902054613ee257805490600160401b82101561192457600182018082558210156120235782600192826000526020600020015580549260005201602052604060002055600190565b5050600090565b6000818152601560205260408120549091908015613fce5760001990808201818111613fba5760145490838201918211613fa657808203613f72575b5050506014548015613f5e57810190613f3d82613d68565b909182549160031b1b19169055601455815260156020526040812055600190565b634e487b7160e01b84526031600452602484fd5b613f90613f81613e0f93613d68565b90549060031b1c928392613d68565b9055845260156020526040842055388080613f25565b634e487b7160e01b86526011600452602486fd5b634e487b7160e01b85526011600452602485fd5b505090565b6000818152600e60205260408120549091908015613fce5760001990808201818111613fba57600d5490838201918211613fa657808203614048575b505050600d548015613f5e5781019061402782613d9f565b909182549160031b1b19169055600d558152600e6020526040812055600190565b614066614057613e0f93613d9f565b90549060031b1c928392613d9f565b90558452600e602052604084205538808061400f565b61ffff908116600019019190821161205b57565b919080156142bf5760005b8181106140a85750509050565b6140b381838661200c565b9060406140c083806142c4565b01356001600160a01b03818116918290036119fa576140df84806142c4565b359360048510156119fa576140f481806142c4565b906020918281013590601e19813603018212156119fa57019384356001600160401b03958682116119fa57840181360381136119fa576141359136916119c3565b9385602a541694604051986141498a61193a565b61415281613c6d565b89528489019081526040890192835285600052602b85526040600020985161417981613c6d565b61418281613c6d565b60ff80198b541691161789555197885198878a11611924576001998a8301916141b5826141af8554612125565b8561256d565b8790601f831160011461424a576002949392916000918361423f575b5050600019600383901b1c1916908c1b1790555b019151166001600160601b0360a01b82541617905583614204846120f9565b166001600160401b0319602a541617602a5501359182168092036119fa570361422d570161409b565b604051631aba532960e21b8152600490fd5b0151905038806141d1565b9392918c918360005289600020906000601f198416905b8c82821061429c575050968360029810614283575b505050811b0190556141e5565b015160001960f88460031b161c19169055388080614276565b919295899487849397999a9b015181550195019301908f94929796959391614261565b509050565b903590605e19813603018212156119fa570190565b602a546001600160401b039283831692919084821684106143065760405163040aaa0560e11b8152600490fd5b848260401c1684106145165784604092831c165b858116908582116144e0579086916000828152602b60208181528783209460029560018060a01b03878201541660ff82541661435581613c6d565b8089036143975750614376916001918752602385520160038b872001613203565b8352528581209281845560019361438e85820161304e565b0155011661431a565b9293949596979850906143a983613c6d565b60038381036143e757506143c191925060010161215f565b8381805181010312610e72578392918d98979695946143e29201519061451d565b614376565b6143f4600180930161215f565b86818051810103126144dc57928f9a9998979695949286928e82858c9801519661441d81613c6d565b0361449c5761443d8684838a886144739b9c526023809a52200154612071565b94848c5289528a208a8d820186815481159081614493575b501561448757508161446e95818555840155550161304e565b6149a8565b6144806022918254612071565b9055614376565b949350505001556149a8565b90501538614455565b9492935050826143e295526023908188526144bc8382878d20015461204e565b948592858c5289528a2001556144d5602291825461204e565b9055614561565b8880fd5b5050935091506144fb67ffffffffffffffff60401b916120f9565b602a54921b169067ffffffffffffffff60401b191617602a55565b9350505050565b9060018060a01b03821660005260236020526040600020818154915581811460001461454857505050565b8111156145585761219d9161484e565b61219d91614c87565b6001600160a01b0380821660008181526025602090815260408083205490979695949361ffff939092918416614757578360215460081c1684602454161061473557866145ac615429565b919091106146c257508281526028825283898220541661461f57505050505061461a7f19fe3ca603e87854a0747cc10abf06bac64d61bac73d6d15f2fd3ca448f1526493946145fa8361508e565b516001600160a01b03909216825260208201929092529081906040820190565b0390a1565b61462886615b2a565b9281526023808352600192838b84200154945b8487821611614681575b505098516001600160a01b039096168652505050506020820192909252919250600080516020615e08833981519152919050806040810161461a565b808686617fff8f94821c1693848852602986528b818920541688528686528720015410156146bc57906146b5869282615d38565b905061463b565b50614645565b95965061461a9450602889949392600080516020615de8833981519152999a936146ea6156a8565b835252205416614727575b6146fe84615634565b6147078361508e565b516001600160a01b03928316815292909116602083015281906040820190565b61473084615273565b6146f5565b505050505061461a600080516020615e2883398151915293946145fa83615634565b9061476486959395615af3565b94825260239081815260019384808c86200154966147818961551d565b8160245416925b6147cb575b50509a516001600160a01b03909816885250505050602084019490945250929350600080516020615dc883398151915292509050806040810161461a565b818116838111614848578e908085111561482a575050806147ee6147f49261507b565b90615a9d565b9990995b8911156148255790614810889796959493928b615ca9565b6148198a61551d565b90919293949596614788565b61478d565b885260268652808820548516885286865287208801549099906147f8565b5061478d565b6001600160a01b0381166000818152602560205260408082205490949392919061ffff908116614972578060215460081c168160245416106149535784614893615429565b919091106149125750828252602860205285822054166148dd57505061461a7f19fe3ca603e87854a0747cc10abf06bac64d61bac73d6d15f2fd3ca448f15264936145fa8361508e565b936145fa61461a92600183600080516020615e088339815191529861490188615b2a565b9381526023602052200154906154c3565b93945085600080516020615de8833981519152969261461a946149336156a8565b8152602860205220541661494a576146fe84615634565b6147308461530b565b50505061461a600080516020615e28833981519152936145fa83615634565b50936145fa61461a92600183600080516020615dc88339815191529861499788615af3565b938152602360205220015490615a07565b9060018060a01b039182811660009381855260206028815261ffff92604096848882205416614b4c578181526025835284888220541615614b3b578615614acb576149f286615af3565b918152602390818452600191828a83200154935b8388821611614a8f575b5050505050505060275416156137c557614a28615429565b90614a31615476565b909210614a6857505091516001600160a01b0390921682526020820152600080516020615dc883398151915290806040810161461a565b9150915061461a600080516020615de883398151915293614a876156a8565b6146f5615102565b617fff81851c169081845260268752878c85205416845282875285858d862001541115614ac557614ac09082615ca9565b614a06565b50614a10565b509150919350614afb7f4a4c5d1a281180eea1e99d8177fa4798b9f7e019d5c57e7d8d73c6a22199aa5b936157fb565b8451908152a160275416614b0c5750565b61461a600080516020615e2883398151915291614b27615476565b929091614b32615102565b6145fa83615634565b8751632a55ca5360e01b8152600490fd5b869897989492919415614c4e5790614b6686949394615b2a565b94825260239081815260019384808c862001549661fffe89831b168160275416925b614bcb575b50509a516001600160a01b03909816885250505050602084019490945250929350600080516020615e0883398151915292509050806040810161461a565b818116838111614c48578e9080851115614c2a57505080614bee614bf49261507b565b906155d6565b9990995b891015614c255790614c10889796959493928b615d38565b614c198a61551d565b90919293949596614b88565b614b8d565b88526029865280882054851688528686528720880154909990614bf8565b50614b8d565b50945050509093614c807f3168ba660eed6ef1dc2258b2247cc05fd0f2f350d39e6ad2e2ebc76a8000b40b9495615273565b51908152a1565b919060018060a01b039283811660009080825260206028815261ffff9660409780898620541661500c578385526025835280898620541615614ffb578615614e8857614cd286615af3565b938552602393848452614ced600191828c89200154906159b3565b816027541615614e7c57614cff615429565b969095614d0a615476565b909810614d4d57505098516001600160a01b039096168652505050506020820192909252919250600080516020615dc8833981519152919050806040810161461a565b91939597509193959750614d5f6156a8565b83602754168015614e6b5780614d7d614d9992989394959698615bf0565b87614d878261407c565b1661ffff196027541617602755615b4f565b838352602994858252808b852054168452828252848b852001549585809860028160275416925b614ded575b505050505050505050505061461a600080516020615de883398151915293946146fe84615634565b818116838111614e65578f9084811015614e4857505080614bee614e109261507b565b9a909a5b8a1015614e435790614e2d89989796959493928c615d38565b614e368b61551d565b9091929394959697614dc0565b614dc5565b895284875280892054861689528787528820890154909a90614e14565b50614dc5565b8a516340d9b01160e01b8152600490fd5b50505050505050509050565b955091907f4a4c5d1a281180eea1e99d8177fa4798b9f7e019d5c57e7d8d73c6a22199aa5b91614eb9829596615893565b8851908152a18360275416938415938415614ed9575b5050505050509050565b614ee1615476565b969095614fea5780614ef9614f039296959496615bf0565b85614d878261407c565b600191828252602993848152818a842054168352602391828252848b852001549585809860028160275416925b614f6c575b5050505050505050505050614f5d600080516020615e2883398151915293946145fa83615634565b0390a180388080808080614ecf565b818116838111614fe4578f9084811015614fc757505080614bee614f8f9261507b565b9a909a5b8a1015614fc25790614fac89989796959493928c615d38565b614fb58b61551d565b9091929394959697614f30565b614f35565b895284875280892054861689528787528820890154909a90614f93565b50614f35565b88516340d9b01160e01b8152600490fd5b8851632a55ca5360e01b8152600490fd5b50508496929195961561504d57600080516020615e088339815191529560018461461a959460236145fa956150408a615b2a565b9583525220015490615534565b935050614c807f3168ba660eed6ef1dc2258b2247cc05fd0f2f350d39e6ad2e2ebc76a8000b40b949261530b565b90600161ffff8093160191821161205b57565b61219d906001604061ffff6150a6816027541661507b565b93838060a01b031660009181835260286020528383209086169061ffff199082828254161790558184526029602052848420836001600160601b0360a01b825416179055602754161760275581526023602052200154906154c3565b61ffff80602754169081156152615790600161512082821115615bd3565b6000818152602960208181526040808420805487865282862080546001600160a01b0392831680895260288752858920805461ffff199081168d17909155918416808a52868a20805484168c17905588885283546001600160a01b031990811690921790935589895284541690911790925596939491939192916151b791896151a88361407c565b16906027541617602755615b4f565b84825283815285838320541682526023908181528584842001549686958760028b60275416915b6151f1575b505050505050505050505050565b8b811682811161525b578281101561523d575080614bee6152119261507b565b9b909b5b8b1015615238576152278a998d615d38565b6152308c61551d565b909b986151de565b6151e3565b879c919c528285528388882054168752858552898888200154615215565b506151e3565b6040516340d9b01160e01b8152600490fd5b61527c90615b2a565b61ffff908160275416916152908383615d38565b8061529a8461407c565b1661ffff1960275416176027556152b083615b4f565b81168092146132d7576001604061219d936000908082526029602052838060a01b0390818484205416835260236020526152ef858585200154876154c3565b8252602960205282822054168152602360205220015490615534565b61531490615b2a565b61ffff8060275416906153278284615d38565b806153318361407c565b1661ffff19602754161760275561534782615b4f565b8083168092146137c557919060009181835260299260209084825260018060a01b03604092818484205416835260239182825260019661538c888787200154886154c3565b84528782528085852054168452828252868585200154978761fffe88821b168b60275416915b6153c457505050505050505050505050565b8b811682811161525b578281101561540b575080614bee6153e49261507b565b9b909b5b8b1015615238576153fa8a998d615d38565b6154038c61551d565b909b986153b2565b879c919c5282855283888820541687528585528988882001546153e8565b61ffff6024541615615261577f5db1dfd2ced311e642486f0e890a646498a1bdee1ad9403b0a73141af8a4c411546001600160a01b03166000818152602360205260409020600101549091565b61ffff6027541615615261577f6e777cacfc4ad3a3cac3b8e17ccbbe9f6893bdc61d89783315eee44e3959da21546001600160a01b03166000818152602360205260409020600101549091565b9190915b6001908161ffff821611156155175783617fff82841c1692600084815260209060298252602360409260018060a01b0384842054168352522001541015615517576155129082615d38565b6154c7565b50509050565b60011b906201fffe61fffe83169216820361205b57565b60275461ffff9291600191841681831b61fffe16835b615557575b505050505050565b8581168281116155d057828110156155a3575080614bee6155779261507b565b9590955b85101561559e5761558d849387615d38565b6155968661551d565b90959261554a565b61554f565b60009691965283602060298152602360409160018060a01b0383600020541660005252600020015461557b565b5061554f565b91909161ffff9260016040600086851681526029602052828060a01b0380838320541682526023602052838383200154978516825260296020528282205416815260236020522001549081851061562d5750509190565b9350919050565b61219d906001604061ffff61564c816024541661507b565b93838060a01b031660009181835260256020528383209086169061ffff199082828254161790558184526026602052848420836001600160601b0360a01b825416179055602454161760245581526023602052200154906159b3565b61ffff8060245416908115615261579060016156c682821115615bd3565b6000818152602660208181526040808420805487865282862080546001600160a01b0392831680895260258752858920805461ffff199081168d17909155918416808a52868a20805484168c17905588885283546001600160a01b0319908116909217909355898952845416909117909255969394919391929161575d918961574e8361407c565b16906024541617602455615b91565b84825283815285838320541682526023908181528584842001549686958760028b60245416915b61579657505050505050505050505050565b8b811682811161525b57828110156157dd5750806147ee6157b69261507b565b9b909b5b8b1115615238576157cc8a998d615ca9565b6157d58c61551d565b909b98615784565b879c919c5282855283888820541687528585528988882001546157ba565b61580490615af3565b61ffff908160245416916158188383615ca9565b806158228461407c565b1661ffff19602454161760245561583883615b91565b81168092146132d7576001604061219d936000908082526026602052838060a01b039081848420541683526023602052615877858585200154876159b3565b8252602660205282822054168152602360205220015490615a07565b61589c90615af3565b61ffff8060245416906158af8284615ca9565b806158b98361407c565b1661ffff1960245416176024556158cf82615b91565b8083168092146137c557919060009181835260269260209084825260018060a01b036040928184842054168352602391828252600196615914888787200154886159b3565b8452878252808585205416845282825286858520015497876159358861551d565b8b60245416915b61594e57505050505050505050505050565b8b811682811161525b57828110156159955750806147ee61596e9261507b565b9b909b5b8b1115615238576159848a998d615ca9565b61598d8c61551d565b909b9861593c565b879c919c528285528388882054168752858552898888200154615972565b9190915b6001908161ffff821611156155175783617fff82841c1692600084815260209060268252602360409260018060a01b038484205416835252200154111561551757615a029082615ca9565b6159b7565b91615a118361551d565b61ffff908160245416905b828116828111615a945782811015615a675750806147ee615a3c9261507b565b9590955b851115615a5f57615a519086615ca9565b615a5a8561551d565b615a1c565b505050915050565b60009691965260016020602681526023604091838060a01b03836000205416600052526000200154615a40565b50505050915050565b919061ffff60016040600083871681526026602052828060a01b038083832054168252602360205283838320015494861682526026602052828220541681526023602052200154938482111561562d5750509190565b6001600160a01b031660009081526025602052604090205461ffff16908115615b1857565b60405163f2755e3760e01b8152600490fd5b6001600160a01b031660009081526028602052604090205461ffff16908115615b1857565b61ffff16600090815260296020908152604080832080546001600160a01b031981169091556001600160a01b0316835260289091529020805461ffff19169055565b61ffff16600090815260266020908152604080832080546001600160a01b031981169091556001600160a01b0316835260259091529020805461ffff19169055565b15615bda57565b634e487b7160e01b600052600160045260246000fd5b615c1361ffff806027541692615c098460011115615bd3565b1691821115615bd3565b602960208181527f6e777cacfc4ad3a3cac3b8e17ccbbe9f6893bdc61d89783315eee44e3959da2180546000858152604080822080546001600160a01b0394851680855260288852838520805461ffff19908116909b1790559416808452918320805490981660019081179098559590945284546001600160a01b03199081169092179094559390925281549092169091179055565b615cc461ffff808060245416931693615c0984861115615bd3565b6000828152602660208181526040808420805486865282862080546001600160a01b0392831680895260258752858920805461ffff19908116909b1790559216808852938720805490981689179097559390925284546001600160a01b031990811690931790945593909152825416179055565b615d5361ffff808060275416931693615c0984861115615bd3565b6000828152602960208181526040808420805486865282862080546001600160a01b0392831680895260288752858920805461ffff19908116909b1790559216808852938720805490981689179097559390925284546001600160a01b03199081169093179094559390915282541617905556fe143db27bc2036653dc6f962ff9d0b803163d4af50c256ca9e6927b3d6dcd0197faeb8de771b867cf357f6b459a7002b62ec45d544a8078a3ecd91200cc826d75da148fac2e1063174be7bc0895576bdaba90fd14e575463fa26a967cb895cadd2e8038f5812f763c6ef0c5427cb5a05ce6d7064af2ba7d1d270bc02660b019fda264697066735822122032231fcf2d8a7f2cb3609d251f028e8d7fc172ea22dcf8990c18c1e5e233d97264736f6c63430008130033","linkReferences":{"src/lib/AccountHelper.sol":{"AccountHelper":[{"start":15406,"length":20}]},"src/lib/CrossMsgHelper.sol":{"CrossMsgHelper":[{"start":11310,"length":20}]},"src/lib/StorableMsgHelper.sol":{"StorableMsgHelper":[{"start":10884,"length":20}]},"src/lib/SubnetIDHelper.sol":{"SubnetIDHelper":[{"start":3059,"length":20},{"start":5902,"length":20},{"start":10704,"length":20},{"start":14816,"length":20},{"start":15126,"length":20}]}}},"methodIdentifiers":{"addBottomUpMsgBatchSignature(uint256,bytes32[],uint256,bytes)":"0db0f77c","addCheckpointSignature(uint256,bytes32[],uint256,bytes)":"53b4e7bf","applyCrossMessages(((((uint64,address[]),(uint8,bytes)),((uint64,address[]),(uint8,bytes)),uint256,uint64,bytes4,bytes,uint256),bool)[])":"c62eb4d5","applyFinalityChanges()":"0df14461","commitCheckpoint(((uint64,address[]),uint256,bytes32,uint64))":"47dc9b4f","commitParentFinality((uint256,bytes32))":"11196974","createBottomUpCheckpoint(((uint64,address[]),uint256,bytes32,uint64),bytes32,uint256)":"74303771","createBottomUpMsgBatch(((uint64,address[]),uint256,((((uint64,address[]),(uint8,bytes)),((uint64,address[]),(uint8,bytes)),uint256,uint64,bytes4,bytes,uint256),bool)[]),bytes32,uint256)":"32e7661f","execBottomUpMsgBatch(((uint64,address[]),uint256,((((uint64,address[]),(uint8,bytes)),((uint64,address[]),(uint8,bytes)),uint256,uint64,bytes4,bytes,uint256),bool)[]))":"0bed7615","pruneBottomUpCheckpoints(uint256)":"ac818379","pruneBottomUpMsgBatches(uint256)":"bacc656d","storeValidatorChanges(((uint8,bytes,address),uint64)[])":"e49a547d"},"id":47}