{
  "abi": [
    {
      "inputs": [],
      "name": "EMPTY_BOTTOMUPCHECKPOINT_HASH",
      "outputs": [
        {
          "internalType": "bytes32",
          "name": "",
          "type": "bytes32"
        }
      ],
      "stateMutability": "view",
      "type": "function"
    },
    {
      "inputs": [
        {
          "components": [
            {
              "components": [
                {
                  "internalType": "uint64",
                  "name": "root",
                  "type": "uint64"
                },
                {
                  "internalType": "address[]",
                  "name": "route",
                  "type": "address[]"
                }
              ],
              "internalType": "struct SubnetID",
              "name": "subnetID",
              "type": "tuple"
            },
            {
              "internalType": "uint64",
              "name": "blockHeight",
              "type": "uint64"
            },
            {
              "internalType": "bytes32",
              "name": "blockHash",
              "type": "bytes32"
            },
            {
              "internalType": "uint64",
              "name": "nextConfigurationNumber",
              "type": "uint64"
            },
            {
              "internalType": "bytes32",
              "name": "crossMessagesHash",
              "type": "bytes32"
            }
          ],
          "internalType": "struct BottomUpCheckpoint",
          "name": "bottomUpCheckpoint",
          "type": "tuple"
        }
      ],
      "name": "isEmpty",
      "outputs": [
        {
          "internalType": "bool",
          "name": "",
          "type": "bool"
        }
      ],
      "stateMutability": "pure",
      "type": "function"
    },
    {
      "inputs": [
        {
          "components": [
            {
              "components": [
                {
                  "internalType": "uint64",
                  "name": "root",
                  "type": "uint64"
                },
                {
                  "internalType": "address[]",
                  "name": "route",
                  "type": "address[]"
                }
              ],
              "internalType": "struct SubnetID",
              "name": "subnetID",
              "type": "tuple"
            },
            {
              "internalType": "uint64",
              "name": "blockHeight",
              "type": "uint64"
            },
            {
              "internalType": "bytes32",
              "name": "blockHash",
              "type": "bytes32"
            },
            {
              "internalType": "uint64",
              "name": "nextConfigurationNumber",
              "type": "uint64"
            },
            {
              "internalType": "bytes32",
              "name": "crossMessagesHash",
              "type": "bytes32"
            }
          ],
          "internalType": "struct BottomUpCheckpoint",
          "name": "bottomupCheckpoint",
          "type": "tuple"
        }
      ],
      "name": "toHash",
      "outputs": [
        {
          "internalType": "bytes32",
          "name": "",
          "type": "bytes32"
        }
      ],
      "stateMutability": "pure",
      "type": "function"
    }
  ],
  "bytecode": {
    "object": "0x6080806040523461001a576103a99081610020823930815050f35b600080fdfe6080604052600436101561001257600080fd5b60003560e01c806339aa47fb1461008457806345d51b12146100605763aa9fb5581461003d57600080fd5b600036600319011261005b5760206100536102dc565b604051908152f35b600080fd5b602061007361006e36610117565b61035e565b61007b6102dc565b14604051908152f35b602061005361006e36610117565b60a0810190811067ffffffffffffffff8211176100ae57604052565b634e487b7160e01b600052604160045260246000fd5b6040810190811067ffffffffffffffff8211176100ae57604052565b90601f8019910116810190811067ffffffffffffffff8211176100ae57604052565b359067ffffffffffffffff8216820361005b57565b60031991906020838201811361005b576004359067ffffffffffffffff9485831161005b5760a081848603011261005b576040519361015585610092565b836004013587811161005b57604090850192838303011261005b576040519161017d836100c4565b61018960048201610102565b835260248101359088821161005b57018160238201121561005b5760048101359788116100ae578760051b90604051986101c58684018b6100e0565b89526024858a019282010192831161005b57602401905b8282106102265750505060849394958282015284526101fd60248301610102565b908401526044810135604084015261021760648201610102565b60608401520135608082015290565b81356001600160a01b038116810361005b5781529084019084016101dc565b602091828252805160a0848401526101008301938067ffffffffffffffff928381511660c0870152015194604060e0860152855180915281610120860196019060005b8181106102bf57505050918160809260a0948301511660408601526040820151606086015260608201511682850152015191015290565b82516001600160a01b031688529683019691830191600101610288565b60408051906020820182811067ffffffffffffffff8211176100ae578152600080835281519261030b846100c4565b818452602084015281519261031f84610092565b835280602084015280828401528060608401526080830152516103588161034a602082019485610245565b03601f1981018352826100e0565b51902090565b6040516103588161034a60208201948561024556fea264697066735822122068cf0399337e81820e0520f5606c61478cae5c605e15da1934d3a03ca625e79e64736f6c63430008130033",
    "linkReferences": {}
  },
  "methodIdentifiers": {
    "EMPTY_BOTTOMUPCHECKPOINT_HASH()": "aa9fb558",
    "isEmpty(BottomUpCheckpoint)": "45d51b12",
    "toHash(BottomUpCheckpoint)": "39aa47fb"
  },
  "id": 56
}