{"abi":[{"type":"function","name":"createFundMsg","inputs":[{"name":"subnet","type":"tuple","internalType":"struct SubnetID","components":[{"name":"root","type":"uint64","internalType":"uint64"},{"name":"route","type":"address[]","internalType":"address[]"}]},{"name":"signer","type":"address","internalType":"address"},{"name":"to","type":"tuple","internalType":"struct FvmAddress","components":[{"name":"addrType","type":"uint8","internalType":"uint8"},{"name":"payload","type":"bytes","internalType":"bytes"}]},{"name":"value","type":"uint256","internalType":"uint256"},{"name":"fee","type":"uint256","internalType":"uint256"}],"outputs":[{"name":"","type":"tuple","internalType":"struct CrossMsg","components":[{"name":"message","type":"tuple","internalType":"struct StorableMsg","components":[{"name":"from","type":"tuple","internalType":"struct IPCAddress","components":[{"name":"subnetId","type":"tuple","internalType":"struct SubnetID","components":[{"name":"root","type":"uint64","internalType":"uint64"},{"name":"route","type":"address[]","internalType":"address[]"}]},{"name":"rawAddress","type":"tuple","internalType":"struct FvmAddress","components":[{"name":"addrType","type":"uint8","internalType":"uint8"},{"name":"payload","type":"bytes","internalType":"bytes"}]}]},{"name":"to","type":"tuple","internalType":"struct IPCAddress","components":[{"name":"subnetId","type":"tuple","internalType":"struct SubnetID","components":[{"name":"root","type":"uint64","internalType":"uint64"},{"name":"route","type":"address[]","internalType":"address[]"}]},{"name":"rawAddress","type":"tuple","internalType":"struct FvmAddress","components":[{"name":"addrType","type":"uint8","internalType":"uint8"},{"name":"payload","type":"bytes","internalType":"bytes"}]}]},{"name":"value","type":"uint256","internalType":"uint256"},{"name":"nonce","type":"uint64","internalType":"uint64"},{"name":"method","type":"bytes4","internalType":"bytes4"},{"name":"params","type":"bytes","internalType":"bytes"},{"name":"fee","type":"uint256","internalType":"uint256"}]},{"name":"wrapped","type":"bool","internalType":"bool"}]}],"stateMutability":"pure"},{"type":"function","name":"createReleaseMsg","inputs":[{"name":"subnet","type":"tuple","internalType":"struct SubnetID","components":[{"name":"root","type":"uint64","internalType":"uint64"},{"name":"route","type":"address[]","internalType":"address[]"}]},{"name":"signer","type":"address","internalType":"address"},{"name":"to","type":"tuple","internalType":"struct FvmAddress","components":[{"name":"addrType","type":"uint8","internalType":"uint8"},{"name":"payload","type":"bytes","internalType":"bytes"}]},{"name":"value","type":"uint256","internalType":"uint256"},{"name":"fee","type":"uint256","internalType":"uint256"}],"outputs":[{"name":"","type":"tuple","internalType":"struct CrossMsg","components":[{"name":"message","type":"tuple","internalType":"struct StorableMsg","components":[{"name":"from","type":"tuple","internalType":"struct IPCAddress","components":[{"name":"subnetId","type":"tuple","internalType":"struct SubnetID","components":[{"name":"root","type":"uint64","internalType":"uint64"},{"name":"route","type":"address[]","internalType":"address[]"}]},{"name":"rawAddress","type":"tuple","internalType":"struct FvmAddress","components":[{"name":"addrType","type":"uint8","internalType":"uint8"},{"name":"payload","type":"bytes","internalType":"bytes"}]}]},{"name":"to","type":"tuple","internalType":"struct IPCAddress","components":[{"name":"subnetId","type":"tuple","internalType":"struct SubnetID","components":[{"name":"root","type":"uint64","internalType":"uint64"},{"name":"route","type":"address[]","internalType":"address[]"}]},{"name":"rawAddress","type":"tuple","internalType":"struct FvmAddress","components":[{"name":"addrType","type":"uint8","internalType":"uint8"},{"name":"payload","type":"bytes","internalType":"bytes"}]}]},{"name":"value","type":"uint256","internalType":"uint256"},{"name":"nonce","type":"uint64","internalType":"uint64"},{"name":"method","type":"bytes4","internalType":"bytes4"},{"name":"params","type":"bytes","internalType":"bytes"},{"name":"fee","type":"uint256","internalType":"uint256"}]},{"name":"wrapped","type":"bool","internalType":"bool"}]}],"stateMutability":"pure"},{"type":"function","name":"isEmpty","inputs":[{"name":"crossMsg","type":"tuple","internalType":"struct CrossMsg","components":[{"name":"message","type":"tuple","internalType":"struct StorableMsg","components":[{"name":"from","type":"tuple","internalType":"struct IPCAddress","components":[{"name":"subnetId","type":"tuple","internalType":"struct SubnetID","components":[{"name":"root","type":"uint64","internalType":"uint64"},{"name":"route","type":"address[]","internalType":"address[]"}]},{"name":"rawAddress","type":"tuple","internalType":"struct FvmAddress","components":[{"name":"addrType","type":"uint8","internalType":"uint8"},{"name":"payload","type":"bytes","internalType":"bytes"}]}]},{"name":"to","type":"tuple","internalType":"struct IPCAddress","components":[{"name":"subnetId","type":"tuple","internalType":"struct SubnetID","components":[{"name":"root","type":"uint64","internalType":"uint64"},{"name":"route","type":"address[]","internalType":"address[]"}]},{"name":"rawAddress","type":"tuple","internalType":"struct FvmAddress","components":[{"name":"addrType","type":"uint8","internalType":"uint8"},{"name":"payload","type":"bytes","internalType":"bytes"}]}]},{"name":"value","type":"uint256","internalType":"uint256"},{"name":"nonce","type":"uint64","internalType":"uint64"},{"name":"method","type":"bytes4","internalType":"bytes4"},{"name":"params","type":"bytes","internalType":"bytes"},{"name":"fee","type":"uint256","internalType":"uint256"}]},{"name":"wrapped","type":"bool","internalType":"bool"}]}],"outputs":[{"name":"","type":"bool","internalType":"bool"}],"stateMutability":"pure"},{"type":"function","name":"isSorted","inputs":[{"name":"crossMsgs","type":"tuple[]","internalType":"struct CrossMsg[]","components":[{"name":"message","type":"tuple","internalType":"struct StorableMsg","components":[{"name":"from","type":"tuple","internalType":"struct IPCAddress","components":[{"name":"subnetId","type":"tuple","internalType":"struct SubnetID","components":[{"name":"root","type":"uint64","internalType":"uint64"},{"name":"route","type":"address[]","internalType":"address[]"}]},{"name":"rawAddress","type":"tuple","internalType":"struct FvmAddress","components":[{"name":"addrType","type":"uint8","internalType":"uint8"},{"name":"payload","type":"bytes","internalType":"bytes"}]}]},{"name":"to","type":"tuple","internalType":"struct IPCAddress","components":[{"name":"subnetId","type":"tuple","internalType":"struct SubnetID","components":[{"name":"root","type":"uint64","internalType":"uint64"},{"name":"route","type":"address[]","internalType":"address[]"}]},{"name":"rawAddress","type":"tuple","internalType":"struct FvmAddress","components":[{"name":"addrType","type":"uint8","internalType":"uint8"},{"name":"payload","type":"bytes","internalType":"bytes"}]}]},{"name":"value","type":"uint256","internalType":"uint256"},{"name":"nonce","type":"uint64","internalType":"uint64"},{"name":"method","type":"bytes4","internalType":"bytes4"},{"name":"params","type":"bytes","internalType":"bytes"},{"name":"fee","type":"uint256","internalType":"uint256"}]},{"name":"wrapped","type":"bool","internalType":"bool"}]}],"outputs":[{"name":"","type":"bool","internalType":"bool"}],"stateMutability":"pure"},{"type":"function","name":"toHash","inputs":[{"name":"crossMsgs","type":"tuple[]","internalType":"struct CrossMsg[]","components":[{"name":"message","type":"tuple","internalType":"struct StorableMsg","components":[{"name":"from","type":"tuple","internalType":"struct IPCAddress","components":[{"name":"subnetId","type":"tuple","internalType":"struct SubnetID","components":[{"name":"root","type":"uint64","internalType":"uint64"},{"name":"route","type":"address[]","internalType":"address[]"}]},{"name":"rawAddress","type":"tuple","internalType":"struct FvmAddress","components":[{"name":"addrType","type":"uint8","internalType":"uint8"},{"name":"payload","type":"bytes","internalType":"bytes"}]}]},{"name":"to","type":"tuple","internalType":"struct IPCAddress","components":[{"name":"subnetId","type":"tuple","internalType":"struct SubnetID","components":[{"name":"root","type":"uint64","internalType":"uint64"},{"name":"route","type":"address[]","internalType":"address[]"}]},{"name":"rawAddress","type":"tuple","internalType":"struct FvmAddress","components":[{"name":"addrType","type":"uint8","internalType":"uint8"},{"name":"payload","type":"bytes","internalType":"bytes"}]}]},{"name":"value","type":"uint256","internalType":"uint256"},{"name":"nonce","type":"uint64","internalType":"uint64"},{"name":"method","type":"bytes4","internalType":"bytes4"},{"name":"params","type":"bytes","internalType":"bytes"},{"name":"fee","type":"uint256","internalType":"uint256"}]},{"name":"wrapped","type":"bool","internalType":"bool"}]}],"outputs":[{"name":"","type":"bytes32","internalType":"bytes32"}],"stateMutability":"pure"},{"type":"function","name":"toHash","inputs":[{"name":"crossMsg","type":"tuple","internalType":"struct CrossMsg","components":[{"name":"message","type":"tuple","internalType":"struct StorableMsg","components":[{"name":"from","type":"tuple","internalType":"struct IPCAddress","components":[{"name":"subnetId","type":"tuple","internalType":"struct SubnetID","components":[{"name":"root","type":"uint64","internalType":"uint64"},{"name":"route","type":"address[]","internalType":"address[]"}]},{"name":"rawAddress","type":"tuple","internalType":"struct FvmAddress","components":[{"name":"addrType","type":"uint8","internalType":"uint8"},{"name":"payload","type":"bytes","internalType":"bytes"}]}]},{"name":"to","type":"tuple","internalType":"struct IPCAddress","components":[{"name":"subnetId","type":"tuple","internalType":"struct SubnetID","components":[{"name":"root","type":"uint64","internalType":"uint64"},{"name":"route","type":"address[]","internalType":"address[]"}]},{"name":"rawAddress","type":"tuple","internalType":"struct FvmAddress","components":[{"name":"addrType","type":"uint8","internalType":"uint8"},{"name":"payload","type":"bytes","internalType":"bytes"}]}]},{"name":"value","type":"uint256","internalType":"uint256"},{"name":"nonce","type":"uint64","internalType":"uint64"},{"name":"method","type":"bytes4","internalType":"bytes4"},{"name":"params","type":"bytes","internalType":"bytes"},{"name":"fee","type":"uint256","internalType":"uint256"}]},{"name":"wrapped","type":"bool","internalType":"bool"}]}],"outputs":[{"name":"","type":"bytes32","internalType":"bytes32"}],"stateMutability":"pure"},{"type":"error","name":"AddressEmptyCode","inputs":[{"name":"target","type":"address","internalType":"address"}]},{"type":"error","name":"AddressInsufficientBalance","inputs":[{"name":"account","type":"address","internalType":"address"}]},{"type":"error","name":"FailedInnerCall","inputs":[]},{"type":"error","name":"NotDelegatedEvmAddress","inputs":[]}],"bytecode":{"object":"0x6080806040523461001c5761160b908161002282393081607b0152f35b600080fdfe6080604052600436101561001257600080fd5b60003560e01c8063098b54c4146100af57806371686830146100aa57806389841475146100a5578063b88dfdf614610078578063ba09423414610073578063e5f0a62b1461006e5763f230beb21461006957600080fd5b61098c565b61094d565b610821565b307f000000000000000000000000000000000000000000000000000000000000000003610644575b600080fd5b610591565b6104df565b60206100ba366104b5565b516001600160401b03806060830151161591826100f2575b826100e4575b50506040519015158152f35b5151511615905082806100d8565b83810151515182161592506100d2565b634e487b7160e01b600052604160045260246000fd5b604081019081106001600160401b0382111761013357604052565b610102565b606081019081106001600160401b0382111761013357604052565b90601f801991011681019081106001600160401b0382111761013357604052565b6040519060e082018281106001600160401b0382111761013357604052565b604051906101a082610118565b565b6001600160401b038116036100a057565b35906101a0826101a2565b6001600160401b0381116101335760051b60200190565b6001600160a01b038116036100a057565b91906040838203126100a057604051926101ff84610118565b83813561020b816101a2565b815260209182810135906001600160401b0382116100a057019280601f850112156100a057833561023b816101be565b946102496040519687610153565b818652848087019260051b8201019283116100a05784809101915b83831061027357505050500152565b81908335610280816101d5565b8152019101908490610264565b359060ff821682036100a057565b6001600160401b03811161013357601f01601f191660200190565b9291926102c28261029b565b916102d06040519384610153565b8294818452818301116100a0578281602093846000960137010152565b9080601f830112156100a057816020610308933591016102b6565b90565b91906040838203126100a0576040519061032482610118565b819361032f8161028d565b83526020810135916001600160401b0383116100a05760209261035292016102ed565b910152565b91906040838203126100a0576040519061037082610118565b81938035916001600160401b03928381116100a057816103919184016101e6565b845260208201359283116100a057602092610352920161030b565b6001600160e01b03198116036100a057565b35906101a0826103ac565b801515036100a057565b35906101a0826103c9565b91906040838203126100a057604051906103f782610118565b819380356001600160401b03908181116100a05782019160e0838503126100a057610420610174565b83358381116100a05785610435918601610357565b815260208401358381116100a0578561044f918601610357565b60208201526040840135604082015261046a606085016101b3565b606082015261047b608085016103be565b608082015260a08401359283116100a05760c0846104a1602097889661035298016102ed565b60a0840152013560c08201528552016103d3565b60206003198201126100a057600435906001600160401b0382116100a057610308916004016103de565b6020806003193601126100a0576001600160401b03906004358281116100a057366023820112156100a0578060040135610518816101be565b936105266040519586610153565b818552838501906024809360051b850101933685116100a057838101925b85841061056b5761056761055789610d30565b6040519081529081906020820190565b0390f35b83358381116100a057879161058683928836918701016103de565b815201930192610544565b60203660031901126100a0576001600160401b036004358181116100a057366023820112156100a05780600401359182116100a0573660248360051b830101116100a05760209160246105e4920161137c565b6040519015158152f35b908160409103126100a05790565b60005b83811061060f5750506000910152565b81810151838201526020016105ff565b90602091610638815180928185528580860191016105fc565b601f01601f1916010190565b60203660031901126100a0576004356001600160401b0381116100a05761067a6106756105679236906004016105ee565b6110a1565b60405191829160208352602083019061061f565b60a06003198201126100a0576001600160401b03916004358381116100a057826106ba916004016105ee565b926024356106c7816101d5565b926044359182116100a0576106de916004016105ee565b906064359060843590565b60609060408301906001600160401b03815116845260209283809201519460408382015285518094520193019160005b828110610727575050505090565b83516001600160a01b031685529381019392810192600101610719565b60406020610308938161075e8551858452858401906106e9565b940151908281860391015260ff8151168452015191816020820152019061061f565b610308906020815260406020845194828285015260c061080f6107b0885160e06060890152610140880190610744565b6107cb858a015191605f1992838a83030160808b0152610744565b90868a015160a08901526001600160401b0360608b0151168489015263ffffffff60e01b60808b01511660e089015260a08a0151908883030161010089015261061f565b96015161012085015201511515910152565b61084861086a6108896108333661068e565b93959192610842979197610a96565b506113e2565b94610851610193565b9561085c36836101e6565b8752602087015236906101e6565b94604051956308c7427760e11b87528680600096879360048301610bbc565b038173__$a0fe38a9a81205afccc10810b09a4d3f45$__5af491821561094857610567968593610920575b506108cb906108c1610193565b938452369061030b565b60208301526108d8610be4565b916108e1610174565b9586526020860152604085015282606085015282608085015260a084015260c083015261090c610193565b918252602082015260405191829182610780565b6108cb919350610941903d8088833e6109398183610153565b810190610b01565b92906108b4565b610bcd565b6020610958366104b5565b60405161098181610973858201948686526040830190610c94565b03601f198101835282610153565b519020604051908152f35b6109cf6109983661068e565b91949293906109a5610a96565b506109b036836101e6565b95604051966308c7427760e11b88528780600097889360048301610bbc565b038173__$a0fe38a9a81205afccc10810b09a4d3f45$__5af495861561094857610567978697610a34575b5090610a086108cb926113e2565b610a10610193565b9788526020880152610a2b610a23610193565b9436906101e6565b8452369061030b565b6108cb92919750610a51610a08913d808a833e6109398183610153565b979192506109fa565b60405190610a6782610118565b6060602083600081520152565b60405190610a8182610118565b81610a8a610a5a565b81526020610352610a5a565b60405190610aa382610118565b60405160e08101836001600160401b0382118383101761013357600092602092604052610ace610a74565b8152610ad8610a74565b83820152836040820152836060820152836080820152606060a08201528360c082015281520152565b90602080838303126100a05782516001600160401b03938482116100a05701926040848403126100a05760405193610b3885610118565b8051610b43816101a2565b8552828101519182116100a057019180601f840112156100a0578251610b68816101be565b93610b766040519586610153565b818552838086019260051b8201019283116100a05783809101915b838310610ba2575050505082015290565b81908351610baf816101d5565b8152019101908390610b91565b9060206103089281815201906106e9565b6040513d6000823e3d90fd5b61030890369061030b565b60405190602082018281106001600160401b038211176101335760405260008252565b91908251906040815260808101936001600160401b038351166040830152602080930151946040606084015285518091528360a0840196019060005b818110610c77575050509360408381938161030897980151908281860391015260ff8151168452015193820152019061061f565b82516001600160a01b031688529685019691850191600101610c43565b90610308906020808451946040845260c0610d1e610cbf885160e06040890152610120880190610c07565b610cda858a015191603f1992838a83030160608b0152610c07565b9060408a015160808901526001600160401b0360608b01511660a089015263ffffffff60e01b60808b0151168489015260a08a0151908883030160e089015261061f565b96015161010085015201511515910152565b6040516020818181019360408201838652815180915260608301938060608360051b8601019301946000905b838210610d805750505050610d7a925003601f198101835282610153565b51902090565b9160019193955080610d9d8196605f198b82030186528951610c94565b97019201920186949295939195610d5c565b90359060de19813603018212156100a0570190565b903590603e19813603018212156100a0570190565b35610308816103ac565b903590601e19813603018212156100a057018035906001600160401b0382116100a0576020019181360383136100a057565b35610308816103c9565b9035603e19823603018112156100a0570190565b9035601e19823603018112156100a05701602081359101916001600160401b0382116100a05781360383136100a057565b908060209392818452848401376000828201840152601f01601f1916010190565b906040610ea76103089360ff610e9a8261028d565b1684526020810190610e33565b9190928160208201520191610e64565b919091610ec48180610e1f565b604084526080840193813592610ed9846101a2565b6001600160401b03809416604083015260209283810135601e19823603018112156100a057019583873597019487116100a0578660051b360385136100a0578690604060608501525260a08201936000965b808810610f535750506103089495508083610f47920190610e1f565b91818403910152610e85565b909484806001928835610f65816101d5565b848060a01b0316815201960197019690610f2b565b6020815281359060de19833603018212156100a057604061105a602085610308950195838286015260c061104b610fc6610fb48a80610e1f565b60e060608a0152610140890190610eb7565b610fe9610fd5868c018c610e1f565b91605f1992838b83030160808c0152610eb7565b90878b013560a08a01526001600160401b0360608c0135611009816101a2565b16848a015261102e61101d60808d016103be565b6001600160e01b03191660e08b0152565b61103b60a08c018c610e33565b918a8403016101008b0152610e64565b970135610120860152016103d3565b1515910152565b60246101a09193929360405194859163ffffffff60e01b16602083015261109181518092602086860191016105fc565b8101036004810185520183610153565b60406110ad8280610daf565b01356110e16110dc6110d76110d26110c86110c88780610daf565b6020810190610dc4565b610bd9565b61153d565b6111ae565b916001600160e01b031961110060806110fa8480610daf565b01610dd9565b1615611193578061112b61112461111a8361115195610daf565b60a0810190610de3565b36916102b6565b9061113860208201610e15565b61116b575b60806110fa8261114c93610daf565b611061565b9080611161575061030891611315565b90610308926112ed565b905061114c60806110fa604051611189816109738760208301610f7a565b939250505061113d565b506111a6916001600160a01b0316611298565b610308610be4565b60008073ffffffffffffffffffffffff0000000000000000831660ff60981b146111f3575b156111ef576111e190611206565b906111ea575090565b905090565b5090565b50506001600160401b03811660016111d3565b60009081526016600a6020836002607f60991b015afa9181519161040a8360018060a01b03169360a01c61ffff160361125c575b83158015611251575b61124a5750565b9250829150565b5060163d1415611243565b6000935091508161123a565b3d15611293573d906112798261029b565b916112876040519384610153565b82523d6000602084013e565b606090565b8147106112d5576000918291829182916001600160a01b03165af16112bb611268565b50156112c357565b604051630a12f52160e11b8152600490fd5b60405163cd78605960e01b8152306004820152602490fd5b908247106112d557600081610308946020839451920190855af161130f611268565b9161132e565b6000806103089360208151910182855af161130f611268565b901561136c5781511561133f575090565b803b1561134a575090565b604051639996b31560e01b81526001600160a01b039091166004820152602490fd5b508051156112c357805190602001fd5b600090815b8383106113915750505050600190565b6001600160401b0360606113b36113ad8660051b860186610dc4565b80610daf565b01356113be816101a2565b16809110156113d3575b600190920191611381565b82156113c85750505050600090565b6114776001600160401b03916113f6610a5a565b50604051906bffffffffffffffffffffffff199060601b1660208201526014815261142081610118565b6109736040519161143083610138565b600a83526001600160801b036020840160148152604085019283526040519687956020808801525116604086015251166060840152516060608084015260a083019061061f565b61147f610193565b6004815290602082015290565b90602080838303126100a05782516001600160401b03938482116100a05701926060848403126100a057604051936114c385610138565b80516114ce816101a2565b8552828101516001600160801b03811681036100a0578386015260408101519182116100a0570182601f820112156100a05780519061150c8261029b565b9361151a6040519586610153565b8285528383830101116100a0578261153593850191016105fc565b604082015290565b600460ff61154c835160ff1690565b16036115c35760206115699101516020808251830101910161148c565b600a6001600160401b0361158483516001600160401b031690565b16036115c35760146001600160801b036115a860208401516001600160801b031690565b16036115c3576040016014815151036115c357516014015190565b60405163c5f8961f60e01b8152600490fdfea26469706673582212204dbc37d7cf07c30a45e0a318afc18bfeae308849c457af2e2b0093f1d264b27664736f6c63430008130033","linkReferences":{"src/lib/SubnetIDHelper.sol":{"SubnetIDHelper":[{"start":2223,"length":20},{"start":2549,"length":20}]}}},"methodIdentifiers":{"createFundMsg(SubnetID,address,FvmAddress,uint256,uint256)":"f230beb2","createReleaseMsg(SubnetID,address,FvmAddress,uint256,uint256)":"ba094234","execute(CrossMsg)":"b88dfdf6","isEmpty(CrossMsg)":"098b54c4","isSorted(CrossMsg[])":"89841475","toHash(CrossMsg)":"e5f0a62b","toHash(CrossMsg[])":"71686830"},"id":55}