{
  "abi": [
    {
      "inputs": [
        {
          "internalType": "address",
          "name": "target",
          "type": "address"
        }
      ],
      "name": "AddressEmptyCode",
      "type": "error"
    },
    {
      "inputs": [
        {
          "internalType": "address",
          "name": "account",
          "type": "address"
        }
      ],
      "name": "AddressInsufficientBalance",
      "type": "error"
    },
    {
      "inputs": [],
      "name": "FailedInnerCall",
      "type": "error"
    },
    {
      "inputs": [],
      "name": "NotDelegatedEvmAddress",
      "type": "error"
    },
    {
      "inputs": [
        {
          "components": [
            {
              "internalType": "uint64",
              "name": "root",
              "type": "uint64"
            },
            {
              "internalType": "address[]",
              "name": "route",
              "type": "address[]"
            }
          ],
          "internalType": "struct SubnetID",
          "name": "subnet",
          "type": "tuple"
        },
        {
          "internalType": "address",
          "name": "signer",
          "type": "address"
        },
        {
          "components": [
            {
              "internalType": "uint8",
              "name": "addrType",
              "type": "uint8"
            },
            {
              "internalType": "bytes",
              "name": "payload",
              "type": "bytes"
            }
          ],
          "internalType": "struct FvmAddress",
          "name": "to",
          "type": "tuple"
        },
        {
          "internalType": "uint256",
          "name": "value",
          "type": "uint256"
        },
        {
          "internalType": "uint256",
          "name": "fee",
          "type": "uint256"
        }
      ],
      "name": "createFundMsg",
      "outputs": [
        {
          "components": [
            {
              "components": [
                {
                  "components": [
                    {
                      "components": [
                        {
                          "internalType": "uint64",
                          "name": "root",
                          "type": "uint64"
                        },
                        {
                          "internalType": "address[]",
                          "name": "route",
                          "type": "address[]"
                        }
                      ],
                      "internalType": "struct SubnetID",
                      "name": "subnetId",
                      "type": "tuple"
                    },
                    {
                      "components": [
                        {
                          "internalType": "uint8",
                          "name": "addrType",
                          "type": "uint8"
                        },
                        {
                          "internalType": "bytes",
                          "name": "payload",
                          "type": "bytes"
                        }
                      ],
                      "internalType": "struct FvmAddress",
                      "name": "rawAddress",
                      "type": "tuple"
                    }
                  ],
                  "internalType": "struct IPCAddress",
                  "name": "from",
                  "type": "tuple"
                },
                {
                  "components": [
                    {
                      "components": [
                        {
                          "internalType": "uint64",
                          "name": "root",
                          "type": "uint64"
                        },
                        {
                          "internalType": "address[]",
                          "name": "route",
                          "type": "address[]"
                        }
                      ],
                      "internalType": "struct SubnetID",
                      "name": "subnetId",
                      "type": "tuple"
                    },
                    {
                      "components": [
                        {
                          "internalType": "uint8",
                          "name": "addrType",
                          "type": "uint8"
                        },
                        {
                          "internalType": "bytes",
                          "name": "payload",
                          "type": "bytes"
                        }
                      ],
                      "internalType": "struct FvmAddress",
                      "name": "rawAddress",
                      "type": "tuple"
                    }
                  ],
                  "internalType": "struct IPCAddress",
                  "name": "to",
                  "type": "tuple"
                },
                {
                  "internalType": "uint256",
                  "name": "value",
                  "type": "uint256"
                },
                {
                  "internalType": "uint64",
                  "name": "nonce",
                  "type": "uint64"
                },
                {
                  "internalType": "bytes4",
                  "name": "method",
                  "type": "bytes4"
                },
                {
                  "internalType": "bytes",
                  "name": "params",
                  "type": "bytes"
                },
                {
                  "internalType": "uint256",
                  "name": "fee",
                  "type": "uint256"
                }
              ],
              "internalType": "struct StorableMsg",
              "name": "message",
              "type": "tuple"
            },
            {
              "internalType": "bool",
              "name": "wrapped",
              "type": "bool"
            }
          ],
          "internalType": "struct CrossMsg",
          "name": "",
          "type": "tuple"
        }
      ],
      "stateMutability": "pure",
      "type": "function"
    },
    {
      "inputs": [
        {
          "components": [
            {
              "internalType": "uint64",
              "name": "root",
              "type": "uint64"
            },
            {
              "internalType": "address[]",
              "name": "route",
              "type": "address[]"
            }
          ],
          "internalType": "struct SubnetID",
          "name": "subnet",
          "type": "tuple"
        },
        {
          "internalType": "address",
          "name": "signer",
          "type": "address"
        },
        {
          "components": [
            {
              "internalType": "uint8",
              "name": "addrType",
              "type": "uint8"
            },
            {
              "internalType": "bytes",
              "name": "payload",
              "type": "bytes"
            }
          ],
          "internalType": "struct FvmAddress",
          "name": "to",
          "type": "tuple"
        },
        {
          "internalType": "uint256",
          "name": "value",
          "type": "uint256"
        },
        {
          "internalType": "uint256",
          "name": "fee",
          "type": "uint256"
        }
      ],
      "name": "createReleaseMsg",
      "outputs": [
        {
          "components": [
            {
              "components": [
                {
                  "components": [
                    {
                      "components": [
                        {
                          "internalType": "uint64",
                          "name": "root",
                          "type": "uint64"
                        },
                        {
                          "internalType": "address[]",
                          "name": "route",
                          "type": "address[]"
                        }
                      ],
                      "internalType": "struct SubnetID",
                      "name": "subnetId",
                      "type": "tuple"
                    },
                    {
                      "components": [
                        {
                          "internalType": "uint8",
                          "name": "addrType",
                          "type": "uint8"
                        },
                        {
                          "internalType": "bytes",
                          "name": "payload",
                          "type": "bytes"
                        }
                      ],
                      "internalType": "struct FvmAddress",
                      "name": "rawAddress",
                      "type": "tuple"
                    }
                  ],
                  "internalType": "struct IPCAddress",
                  "name": "from",
                  "type": "tuple"
                },
                {
                  "components": [
                    {
                      "components": [
                        {
                          "internalType": "uint64",
                          "name": "root",
                          "type": "uint64"
                        },
                        {
                          "internalType": "address[]",
                          "name": "route",
                          "type": "address[]"
                        }
                      ],
                      "internalType": "struct SubnetID",
                      "name": "subnetId",
                      "type": "tuple"
                    },
                    {
                      "components": [
                        {
                          "internalType": "uint8",
                          "name": "addrType",
                          "type": "uint8"
                        },
                        {
                          "internalType": "bytes",
                          "name": "payload",
                          "type": "bytes"
                        }
                      ],
                      "internalType": "struct FvmAddress",
                      "name": "rawAddress",
                      "type": "tuple"
                    }
                  ],
                  "internalType": "struct IPCAddress",
                  "name": "to",
                  "type": "tuple"
                },
                {
                  "internalType": "uint256",
                  "name": "value",
                  "type": "uint256"
                },
                {
                  "internalType": "uint64",
                  "name": "nonce",
                  "type": "uint64"
                },
                {
                  "internalType": "bytes4",
                  "name": "method",
                  "type": "bytes4"
                },
                {
                  "internalType": "bytes",
                  "name": "params",
                  "type": "bytes"
                },
                {
                  "internalType": "uint256",
                  "name": "fee",
                  "type": "uint256"
                }
              ],
              "internalType": "struct StorableMsg",
              "name": "message",
              "type": "tuple"
            },
            {
              "internalType": "bool",
              "name": "wrapped",
              "type": "bool"
            }
          ],
          "internalType": "struct CrossMsg",
          "name": "",
          "type": "tuple"
        }
      ],
      "stateMutability": "pure",
      "type": "function"
    },
    {
      "inputs": [
        {
          "components": [
            {
              "components": [
                {
                  "components": [
                    {
                      "components": [
                        {
                          "internalType": "uint64",
                          "name": "root",
                          "type": "uint64"
                        },
                        {
                          "internalType": "address[]",
                          "name": "route",
                          "type": "address[]"
                        }
                      ],
                      "internalType": "struct SubnetID",
                      "name": "subnetId",
                      "type": "tuple"
                    },
                    {
                      "components": [
                        {
                          "internalType": "uint8",
                          "name": "addrType",
                          "type": "uint8"
                        },
                        {
                          "internalType": "bytes",
                          "name": "payload",
                          "type": "bytes"
                        }
                      ],
                      "internalType": "struct FvmAddress",
                      "name": "rawAddress",
                      "type": "tuple"
                    }
                  ],
                  "internalType": "struct IPCAddress",
                  "name": "from",
                  "type": "tuple"
                },
                {
                  "components": [
                    {
                      "components": [
                        {
                          "internalType": "uint64",
                          "name": "root",
                          "type": "uint64"
                        },
                        {
                          "internalType": "address[]",
                          "name": "route",
                          "type": "address[]"
                        }
                      ],
                      "internalType": "struct SubnetID",
                      "name": "subnetId",
                      "type": "tuple"
                    },
                    {
                      "components": [
                        {
                          "internalType": "uint8",
                          "name": "addrType",
                          "type": "uint8"
                        },
                        {
                          "internalType": "bytes",
                          "name": "payload",
                          "type": "bytes"
                        }
                      ],
                      "internalType": "struct FvmAddress",
                      "name": "rawAddress",
                      "type": "tuple"
                    }
                  ],
                  "internalType": "struct IPCAddress",
                  "name": "to",
                  "type": "tuple"
                },
                {
                  "internalType": "uint256",
                  "name": "value",
                  "type": "uint256"
                },
                {
                  "internalType": "uint64",
                  "name": "nonce",
                  "type": "uint64"
                },
                {
                  "internalType": "bytes4",
                  "name": "method",
                  "type": "bytes4"
                },
                {
                  "internalType": "bytes",
                  "name": "params",
                  "type": "bytes"
                },
                {
                  "internalType": "uint256",
                  "name": "fee",
                  "type": "uint256"
                }
              ],
              "internalType": "struct StorableMsg",
              "name": "message",
              "type": "tuple"
            },
            {
              "internalType": "bool",
              "name": "wrapped",
              "type": "bool"
            }
          ],
          "internalType": "struct CrossMsg[]",
          "name": "crossMsgs",
          "type": "tuple[]"
        }
      ],
      "name": "isSorted",
      "outputs": [
        {
          "internalType": "bool",
          "name": "",
          "type": "bool"
        }
      ],
      "stateMutability": "pure",
      "type": "function"
    },
    {
      "inputs": [
        {
          "components": [
            {
              "components": [
                {
                  "components": [
                    {
                      "components": [
                        {
                          "internalType": "uint64",
                          "name": "root",
                          "type": "uint64"
                        },
                        {
                          "internalType": "address[]",
                          "name": "route",
                          "type": "address[]"
                        }
                      ],
                      "internalType": "struct SubnetID",
                      "name": "subnetId",
                      "type": "tuple"
                    },
                    {
                      "components": [
                        {
                          "internalType": "uint8",
                          "name": "addrType",
                          "type": "uint8"
                        },
                        {
                          "internalType": "bytes",
                          "name": "payload",
                          "type": "bytes"
                        }
                      ],
                      "internalType": "struct FvmAddress",
                      "name": "rawAddress",
                      "type": "tuple"
                    }
                  ],
                  "internalType": "struct IPCAddress",
                  "name": "from",
                  "type": "tuple"
                },
                {
                  "components": [
                    {
                      "components": [
                        {
                          "internalType": "uint64",
                          "name": "root",
                          "type": "uint64"
                        },
                        {
                          "internalType": "address[]",
                          "name": "route",
                          "type": "address[]"
                        }
                      ],
                      "internalType": "struct SubnetID",
                      "name": "subnetId",
                      "type": "tuple"
                    },
                    {
                      "components": [
                        {
                          "internalType": "uint8",
                          "name": "addrType",
                          "type": "uint8"
                        },
                        {
                          "internalType": "bytes",
                          "name": "payload",
                          "type": "bytes"
                        }
                      ],
                      "internalType": "struct FvmAddress",
                      "name": "rawAddress",
                      "type": "tuple"
                    }
                  ],
                  "internalType": "struct IPCAddress",
                  "name": "to",
                  "type": "tuple"
                },
                {
                  "internalType": "uint256",
                  "name": "value",
                  "type": "uint256"
                },
                {
                  "internalType": "uint64",
                  "name": "nonce",
                  "type": "uint64"
                },
                {
                  "internalType": "bytes4",
                  "name": "method",
                  "type": "bytes4"
                },
                {
                  "internalType": "bytes",
                  "name": "params",
                  "type": "bytes"
                },
                {
                  "internalType": "uint256",
                  "name": "fee",
                  "type": "uint256"
                }
              ],
              "internalType": "struct StorableMsg",
              "name": "message",
              "type": "tuple"
            },
            {
              "internalType": "bool",
              "name": "wrapped",
              "type": "bool"
            }
          ],
          "internalType": "struct CrossMsg[]",
          "name": "crossMsgs",
          "type": "tuple[]"
        }
      ],
      "name": "toHash",
      "outputs": [
        {
          "internalType": "bytes32",
          "name": "",
          "type": "bytes32"
        }
      ],
      "stateMutability": "pure",
      "type": "function"
    }
  ],
  "bytecode": {
    "object": "0x6080806040523461001c576115be90816100228239308160600152f35b600080fdfe6080604052600436101561001257600080fd5b60003560e01c8063716868301461008f578063898414751461008a578063b88dfdf61461005d578063ba094234146100585763f230beb21461005357600080fd5b610930565b610804565b307f000000000000000000000000000000000000000000000000000000000000000003610627575b600080fd5b610574565b6020366003190112610085576001600160401b03600435116100855736602360043501121561008557600435600401356100c881610338565b906100d660405192836102e9565b80825260208201903660248260051b60043501011161008557602460043501915b60248260051b600435010183106101285761012461011485610c38565b6040519081529081906020820190565b0390f35b82356001600160401b03811161008557602319916040600435830136038401126100855760405190610159826102ae565b602483600435010135936001600160401b0385116100855760e09085856004350101360301126100855761018b61030a565b9160248585600435010101356001600160401b038111610085576101bb90602436918888600435010101016104ed565b83526001600160401b03604486866004350101013511610085576101ee36600435860187016044810135016024016104ed565b6020840152600435840185016064810135604085015261021090608401610360565b606084015261022760a48686600435010101610554565b608084015260c48585600435010101356001600160401b038111610085576044602095869560e4602499610269610287968c3691848860043501010101610483565b60a0840152836004350101013560c082015284526004350101610569565b8382015281520193019290506100f7565b634e487b7160e01b600052604160045260246000fd5b604081019081106001600160401b038211176102c957604052565b610298565b606081019081106001600160401b038211176102c957604052565b90601f801991011681019081106001600160401b038211176102c957604052565b6040519060e082018281106001600160401b038211176102c957604052565b60405190610336826102ae565b565b6001600160401b0381116102c95760051b60200190565b6001600160401b0381160361008557565b35906103368261034f565b6001600160a01b0381160361008557565b91906040838203126100855760405192610395846102ae565b8381356103a18161034f565b815260209182810135906001600160401b03821161008557019280601f850112156100855783356103d181610338565b946103df60405196876102e9565b818652848087019260051b8201019283116100855784809101915b83831061040957505050500152565b819083356104168161036b565b81520191019084906103fa565b359060ff8216820361008557565b6001600160401b0381116102c957601f01601f191660200190565b92919261045882610431565b9161046660405193846102e9565b829481845281830111610085578281602093846000960137010152565b9080601f830112156100855781602061049e9335910161044c565b90565b919060408382031261008557604051906104ba826102ae565b81936104c581610423565b83526020810135916001600160401b038311610085576020926104e89201610483565b910152565b91906040838203126100855760405190610506826102ae565b81938035916001600160401b0392838111610085578161052791840161037c565b84526020820135928311610085576020926104e892016104a1565b6001600160e01b031981160361008557565b359061033682610542565b8015150361008557565b35906103368261055f565b6020366003190112610085576001600160401b036004358181116100855736602382011215610085578060040135918211610085573660248360051b830101116100855760209160246105c7920161132f565b6040519015158152f35b908160409103126100855790565b60005b8381106105f25750506000910152565b81810151838201526020016105e2565b9060209161061b815180928185528580860191016105df565b601f01601f1916010190565b6020366003190112610085576004356001600160401b0381116100855761065d6106586101249236906004016105d1565b611046565b604051918291602083526020830190610602565b60a0600319820112610085576001600160401b0391600435838111610085578261069d916004016105d1565b926024356106aa8161036b565b92604435918211610085576106c1916004016105d1565b906064359060843590565b60609060408301906001600160401b03815116845260209283809201519460408382015285518094520193019160005b82811061070a575050505090565b83516001600160a01b0316855293810193928101926001016106fc565b6040602061049e93816107418551858452858401906106cc565b940151908281860391015260ff81511684520151918160208201520190610602565b61049e906020815260406020845194828285015260c06107f2610793885160e06060890152610140880190610727565b6107ae858a015191605f1992838a83030160808b0152610727565b90868a015160a08901526001600160401b0360608b0151168489015263ffffffff60e01b60808b01511660e089015260a08a01519088830301610100890152610602565b96015161012085015201511515910152565b61082b61084d61086c61081636610671565b93959192610825979197610a3a565b50611395565b94610834610329565b9561083f368361037c565b87526020870152369061037c565b94604051956308c7427760e11b87528680600096879360048301610b60565b038173__$a0fe38a9a81205afccc10810b09a4d3f45$__5af491821561092b57610124968593610903575b506108ae906108a4610329565b93845236906104a1565b60208301526108bb610b88565b916108c461030a565b9586526020860152604085015282606085015282608085015260a084015260c08301526108ef610329565b918252602082015260405191829182610763565b6108ae919350610924903d8088833e61091c81836102e9565b810190610aa5565b9290610897565b610b71565b61097361093c36610671565b9194929390610949610a3a565b50610954368361037c565b95604051966308c7427760e11b88528780600097889360048301610b60565b038173__$a0fe38a9a81205afccc10810b09a4d3f45$__5af495861561092b576101249786976109d8575b50906109ac6108ae92611395565b6109b4610329565b97885260208801526109cf6109c7610329565b94369061037c565b845236906104a1565b6108ae929197506109f56109ac913d808a833e61091c81836102e9565b9791925061099e565b60405190610a0b826102ae565b6060602083600081520152565b60405190610a25826102ae565b81610a2e6109fe565b815260206104e86109fe565b60405190610a47826102ae565b60405160e08101836001600160401b038211838310176102c957600092602092604052610a72610a18565b8152610a7c610a18565b83820152836040820152836060820152836080820152606060a08201528360c082015281520152565b90602080838303126100855782516001600160401b03938482116100855701926040848403126100855760405193610adc856102ae565b8051610ae78161034f565b85528281015191821161008557019180601f84011215610085578251610b0c81610338565b93610b1a60405195866102e9565b818552838086019260051b8201019283116100855783809101915b838310610b46575050505082015290565b81908351610b538161036b565b8152019101908390610b35565b90602061049e9281815201906106cc565b6040513d6000823e3d90fd5b61049e9036906104a1565b60405190602082018281106001600160401b038211176102c95760405260008252565b91908251906040815260808101936001600160401b038351166040830152602080930151946040606084015285518091528360a0840196019060005b818110610c1b575050509360408381938161049e97980151908281860391015260ff81511684520151938201520190610602565b82516001600160a01b031688529685019691850191600101610be7565b60408051908160209384820194838301908087528251809252606080850182828560051b8801019501966000925b858410610c8c57505050505050610c86925003601f1981018352826102e9565b51902090565b919360019193959750808097605f198c8203018752610d408b519183808451948a845289610d2e8c8851610ccc60e09182848b01526101208a0190610bab565b906001600160401b03610cf0888d015193603f19948c898782850301910152610bab565b938c015195608096878c01528c0151169460a095868b015263ffffffff60e01b908c0151169460c095868b01528b0151918984030190890152610602565b96015161010085015201511515910152565b990194019401918896949197959397610c66565b90359060de1981360301821215610085570190565b903590603e1981360301821215610085570190565b3561049e81610542565b903590601e198136030182121561008557018035906001600160401b0382116100855760200191813603831361008557565b3561049e8161055f565b9035603e1982360301811215610085570190565b9035601e19823603018112156100855701602081359101916001600160401b03821161008557813603831361008557565b908060209392818452848401376000828201840152601f01601f1916010190565b906040610e4c61049e9360ff610e3f82610423565b1684526020810190610dd8565b9190928160208201520191610e09565b919091610e698180610dc4565b604084526080840193813592610e7e8461034f565b6001600160401b03809416604083015260209283810135601e19823603018112156100855701958387359701948711610085578660051b36038513610085578690604060608501525260a08201936000965b808810610ef857505061049e9495508083610eec920190610dc4565b91818403910152610e2a565b909484806001928835610f0a8161036b565b848060a01b0316815201960197019690610ed0565b6020815281359060de1983360301821215610085576040610fff60208561049e950195838286015260c0610ff0610f6b610f598a80610dc4565b60e060608a0152610140890190610e5c565b610f8e610f7a868c018c610dc4565b91605f1992838b83030160808c0152610e5c565b90878b013560a08a01526001600160401b0360608c0135610fae8161034f565b16848a0152610fd3610fc260808d01610554565b6001600160e01b03191660e08b0152565b610fe060a08c018c610dd8565b918a8403016101008b0152610e09565b97013561012086015201610569565b1515910152565b60246103369193929360405194859163ffffffff60e01b16602083015261103681518092602086860191016105df565b81010360048101855201836102e9565b60406110528280610d54565b013561108661108161107c61107761106d61106d8780610d54565b6020810190610d69565b610b7d565b6114f0565b611161565b916001600160e01b03196110a5608061109f8480610d54565b01610d7e565b161561114657806110d06110c96110bf836110f695610d54565b60a0810190610d88565b369161044c565b906110dd60208201610dba565b611110575b608061109f826110f193610d54565b611006565b9080611106575061049e916112c8565b9061049e926112a0565b90506110f1608061109f60405161113c8161112e8760208301610f1f565b03601f1981018352826102e9565b93925050506110e2565b50611159916001600160a01b031661124b565b61049e610b88565b60008073ffffffffffffffffffffffff0000000000000000831660ff60981b146111a6575b156111a257611194906111b9565b9061119d575090565b905090565b5090565b50506001600160401b0381166001611186565b60009081526016600a6020836002607f60991b015afa9181519161040a8360018060a01b03169360a01c61ffff160361120f575b83158015611204575b6111fd5750565b9250829150565b5060163d14156111f6565b600093509150816111ed565b3d15611246573d9061122c82610431565b9161123a60405193846102e9565b82523d6000602084013e565b606090565b814710611288576000918291829182916001600160a01b03165af161126e61121b565b501561127657565b604051630a12f52160e11b8152600490fd5b60405163cd78605960e01b8152306004820152602490fd5b908247106112885760008161049e946020839451920190855af16112c261121b565b916112e1565b60008061049e9360208151910182855af16112c261121b565b901561131f578151156112f2575090565b803b156112fd575090565b604051639996b31560e01b81526001600160a01b039091166004820152602490fd5b5080511561127657805190602001fd5b600090815b8383106113445750505050600190565b6001600160401b0360606113666113608660051b860186610d69565b80610d54565b01356113718161034f565b1680911015611386575b600190920191611334565b821561137b5750505050600090565b61142a6001600160401b03916113a96109fe565b50604051906bffffffffffffffffffffffff199060601b166020820152601481526113d3816102ae565b61112e604051916113e3836102ce565b600a83526001600160801b036020840160148152604085019283526040519687956020808801525116604086015251166060840152516060608084015260a0830190610602565b611432610329565b6004815290602082015290565b90602080838303126100855782516001600160401b03938482116100855701926060848403126100855760405193611476856102ce565b80516114818161034f565b8552828101516001600160801b038116810361008557838601526040810151918211610085570182601f82011215610085578051906114bf82610431565b936114cd60405195866102e9565b82855283838301011161008557826114e893850191016105df565b604082015290565b600460ff6114ff835160ff1690565b160361157657602061151c9101516020808251830101910161143f565b600a6001600160401b0361153783516001600160401b031690565b16036115765760146001600160801b0361155b60208401516001600160801b031690565b16036115765760400160148151510361157657516014015190565b60405163c5f8961f60e01b8152600490fdfea26469706673582212203e4b8d6d7bd1918c5e9efb9e913674a49df136cd39cbea51f50b9b7f1b03185864736f6c63430008130033",
    "linkReferences": {
      "src/lib/SubnetIDHelper.sol": {
        "SubnetIDHelper": [
          {
            "start": 2194,
            "length": 20
          },
          {
            "start": 2457,
            "length": 20
          }
        ]
      }
    }
  },
  "methodIdentifiers": {
    "createFundMsg(SubnetID,address,FvmAddress,uint256,uint256)": "f230beb2",
    "createReleaseMsg(SubnetID,address,FvmAddress,uint256,uint256)": "ba094234",
    "execute(CrossMsg)": "b88dfdf6",
    "isSorted(CrossMsg[])": "89841475",
    "toHash(CrossMsg[])": "71686830"
  },
  "id": 56
}