{"abi":[{"type":"function","name":"resolveSelectors","inputs":[{"name":"facetName","type":"string","internalType":"string"}],"outputs":[{"name":"facetSelectors","type":"bytes4[]","internalType":"bytes4[]"}],"stateMutability":"pure"}],"bytecode":{"object":"0x608080604052346019576116fa908161001f823930815050f35b600080fdfe6080604052600436101561001257600080fd5b60003560e01c6366e2898c1461002757600080fd5b60203660031901126100f45760043567ffffffffffffffff81116100f457366023820112156100f457806004013567ffffffffffffffff81116100f9576040519061007c601f8201601f19166020018361010f565b80825236602482850101116100f45760208160009260246100a596018386013783010152610242565b60405180916020820160208352815180915260206040840192019060005b8181106100d1575050500390f35b82516001600160e01b0319168452859450602093840193909201916001016100c3565b600080fd5b634e487b7160e01b600052604160045260246000fd5b90601f8019910116810190811067ffffffffffffffff8211176100f957604052565b9081519160005b838110610149575050016000815290565b8060208092840101518185015201610138565b6040519061016b60608361010f565b6040825260006040836020808201520152565b6020818303126100f45780519067ffffffffffffffff82116100f4570181601f820112156100f45780519167ffffffffffffffff83116100f9578260051b91604051936101ce602085018661010f565b84526020808501938201019182116100f457602001915b8183106101f25750505090565b82516001600160e01b0319811681036100f4578152602092830192016101e5565b6040519061022260808361010f565b6060808352602080840152600160408401526367e0badb60e01b90830152565b6040516020810190610266816102588486610131565b03601f19810183528261010f565b51902060405160208101906d11d85d195dd85e511a585b5bdb9960921b8252600e8152610294602e8261010f565b519020146116b85760405160208101906102b2816102588486610131565b51902060405160208101907114dd589b995d1058dd1bdc911a585b5bdb9960721b8252601281526102e460328261010f565b519020146116b8576040516020810190610302816102588486610131565b51902060405160208101907414dd589b995d149959da5cdd1c9e511a585b5bdb99605a1b82526015815261033760358261010f565b519020146116b8576040516020810190610355816102588486610131565b51902060405160208101906d13dddb995c9cda1a5c119858d95d60921b8252600e8152610383602e8261010f565b5190201461166f5760405160208101906103a1816102588486610131565b51902060405160208101906e111a585b5bdb9910dd5d119858d95d608a1b8252600f81526103d0602f8261010f565b519020146116335760405160208101906103ee816102588486610131565b519020604051602081019070111a585b5bdb99131bdd5c19519858d95d607a1b82526011815261041f60318261010f565b519020146115bf57604051602081019061043d816102588486610131565b51902060405160208101907111d85d195dd85e51d95d1d195c919858d95d60721b82526012815261046f60328261010f565b519020146113d057604051602081019061048d816102588486610131565b51902060405160208101907211d85d195dd85e53585b9859d95c919858d95d606a1b8252601381526104c060338261010f565b519020146113405760405160208101906104de816102588486610131565b51902060405160208101907411d85d195dd85e53595cdcd95b99d95c919858d95d605a1b82526015815261051360358261010f565b519020146112f7576040516020810190610531816102588486610131565b51902060405160208101907110da1958dadc1bda5b9d1a5b99d19858d95d60721b82526012815261056360328261010f565b51902014611290576040516020810190610581816102588486610131565b519020604051602081019073151bdc111bdddb919a5b985b1a5d1e519858d95d60621b8252601481526105b560348261010f565b5190201461123a5760405160208101906105d3816102588486610131565b519020604051602081019071161b995d13595cdcd859da5b99d19858d95d60721b82526012815261060560328261010f565b519020146111fe576040516020810190610623816102588486610131565b51902060405160208101907514dd589b995d1058dd1bdc91d95d1d195c919858d95d60521b82526016815261065960368261010f565b5190201461101e576040516020810190610677816102588486610131565b51902060405160208101907f5375626e65744163746f724d616e6167657246616365740000000000000000008252601781526106b460378261010f565b51902014610f735760405160208101906106d2816102588486610131565b51902060405160208101907414dd589b995d1058dd1bdc94185d5cd9519858d95d605a1b82526015815261070760358261010f565b51902014610f1d576040516020810190610725816102588486610131565b51902060405160208101907514dd589b995d1058dd1bdc94995dd85c99119858d95d60521b82526016815261075b60368261010f565b51902014610ee1576040516020810190610779816102588486610131565b51902060405160208101907f5375626e65744163746f72436865636b706f696e74696e6746616365740000008252601d81526107b6603d8261010f565b51902014610e985760405160208101906107d4816102588486610131565b519020604051602081019072149959da5cdd195c94dd589b995d119858d95d606a1b82526013815261080760338261010f565b51902014610e5c576040516020810190610825816102588486610131565b51902060405160208101907014dd589b995d11d95d1d195c919858d95d607a1b82526011815261085660318261010f565b51902014610d5c576040516020810190610874816102588486610131565b51902060405160208101907545524332305072657365744669786564537570706c7960501b8252601681526108aa60368261010f565b51902014610c945760405160208101906108c8816102588486610131565b51902060405160208101907f4e756d626572436f6e747261637446616365744569676874000000000000000082526018815261090560388261010f565b51902014610c79576040516020810190610923816102588486610131565b51902060405160208101907f4e756d626572436f6e74726163744661636574536576656e000000000000000082526018815261096060388261010f565b51902014610c7957604051602081019061097e816102588486610131565b51902060405160208101906e53656c6563746f724c69627261727960881b8252600f81526109ad602f8261010f565b51902014610c3d5760405160208101906109cb816102588486610131565b519020604051602081019068546573745574696c7360b81b8252600981526109f460298261010f565b51902014610b9f57604051610a1181610258602082018095610131565b51902060405160208101906e5375626e65744163746f724d6f636b60881b8252600f8152610a40602f8261010f565b51902014610a825760405162461bcd60e51b815260206004820152601260248201527114d95b1958dd1bdc881b9bdd08199bdd5b9960721b6044820152606490fd5b610b9c61028060405190610a96818361010f565b6102608083526020808401908152601160408501526310fd426160e01b6060850152634e71d92d60e01b608085015263350a14bf60e01b60a085015263c7ebdaef60e01b60c08501526330b858b160e11b60e08501526341c0e1b560e01b61010085015263d66d9e1960e01b610120850152638456cb5960e01b610140850152635c975abb60e01b610160850152625bfdf360e51b6101808501526366783c9b60e01b6101a0850152636d2e84f760e11b6101c0850152633a4b66f160e01b6101e08501526379979f5760e01b610200850152631fa5d41d60e11b6102208501526305c2fbcf60e31b61024085015263cc2dc2b960e01b9184019190915291019061017e565b90565b50610b9c61016060405190610bb4818361010f565b61014080835260208084019081526008604085015263265f6a3560e21b60608501526315c9f71760e21b60808501526301d283df60e11b60a0850152631e8c229360e21b60c0850152637775600f60e11b60e085015263bc9e2bcf60e01b610100850152633db2bc2b60e21b610120850152632b9840d160e11b9184019190915291019061017e565b50610b9c604051610c4f60808261010f565b606081526080602082019160208352600160408201526319b8a26360e21b6060820152019061017e565b50610b9c610c85610213565b6020808251830101910161017e565b50610b9c6101c060405190610ca9818361010f565b6101a08083526020808401908152600b6040850152636eb1769f60e11b606085015263095ea7b360e01b60808501526370a0823160e01b60a0850152630852cd8d60e31b60c085015263079cc67960e41b60e085015263313ce56760e01b6101008501526306fdde0360e01b6101208501526395d89b4160e01b6101408501526318160ddd60e01b61016085015263a9059cbb60e01b6101808501526323b872dd60e01b9184019190915291019061017e565b50610b9c61024060405190610d71818361010f565b6102208083526020808401908152600f60408501526342bf3cc160e01b60608501526362c9d7fb60e01b608085015263967ba53760e01b60a0850152630be0611160e01b60c0850152631b0766c360e01b60e0850152630a372bf360e41b610100850152630f5849d160e01b61012085015263135c454560e21b6101408501526389bba29960e01b610160850152632a05ad6b60e11b6101808501526354a4eddb60e01b6101a0850152639836b75f60e01b6101c085015263030f605160e01b6101e0850152631163dca560e01b61020085015263a46d044d60e01b9184019190915291019061017e565b50610b9c604051610e6e60808261010f565b6060815260806020820191602083526001604082015263fc3b0ad360e01b6060820152019061017e565b50610b9c604051610eaa60a08261010f565b6080815260a0602082019160208352600260408201526379979f5760e01b606082015263cc2dc2b960e01b6080820152019061017e565b50610b9c604051610ef360808261010f565b60608152608060208201916020835260016040820152634e71d92d60e01b6060820152019061017e565b50610b9c604051610f2f60c08261010f565b60a0815260c060208201916020835260036040820152638456cb5960e01b6060820152635c975abb60e01b6080820152631fa5d41d60e11b60a0820152019061017e565b50610b9c61018060405190610f88818361010f565b6101608083526020808401908152600960408501526310fd426160e01b60608501526330b858b160e11b60808501526341c0e1b560e01b60a085015263d66d9e1960e01b60c0850152625bfdf360e51b60e08501526366783c9b60e01b610100850152636d2e84f760e11b610120850152633a4b66f160e01b6101408501526305c2fbcf60e31b9184019190915291019061017e565b50610b9c61044060405190611033818361010f565b6104208083526020808401908152601f6040850152633354c3e160e01b6060850152630d450b2360e21b60808501526306c4685360e01b60a0850152632593d53960e11b60c08501526325834a7160e11b60e0850152638ef3f76160e01b61010085015263e02d971b60e01b610120850152630903e69360e41b61014085015263948628a960e01b610160850152636c97478960e11b6101808501526363e6d3b160e11b6101a0850152634baa594f60e11b6101c08501526338a210b360e01b6101e08501526380f7602160e01b610200850152631776451f60e21b610220850152630d6eb59160e41b61024085015263332a5ac960e01b610260850152630acbdfbf60e11b6102808501526352d182d160e01b6102a0850152630c825d9760e11b6102c08501526333f28a0960e21b6102e0850152631015428760e21b61030085015263d081be0360e01b610320850152631f3a0e4160e01b610340850152630396850760e51b61036085015263599c7bd160e01b610380850152634f19de8160e11b6103a085015263c5ab224160e01b6103c0850152637867b64b60e11b6103e08501526356c0f26b60e11b6104008501526380875df760e01b9184019190915291019061017e565b50610b9c60405161121060808261010f565b60608152608060208201916020835260016040820152636ec18cf760e11b6060820152019061017e565b50610b9c60405161124c60c08261010f565b60a0815260c060208201916020835260036040820152630df1446160e01b60608201526304465a5d60e21b608082015263e49a547d60e01b60a0820152019061017e565b50610b9c6040516112a260e08261010f565b60c08082526020808301908152600460408401526353b4e7bf60e01b606084015263fba0fa4d60e01b608084015263dc749b0560e01b60a084015263ac81837960e01b9183019190915260e09091019061017e565b50610b9c60405161130960a08261010f565b6080815260a0602082019160208352600260408201526312df86db60e11b6060820152633eeb723f60e01b6080820152019061017e565b50610b9c61014060405190611355818361010f565b6101208083526020808401908152600760408501526316989f6f60e21b606085015263018f44b760e41b608085015263028bf0d560e11b60a08501526341c0e1b560e01b60c0850152637903ab2760e11b60e0850152636b2c1eef60e01b6101008501526345f5448560e01b9184019190915291019061017e565b50610b9c610460604051906113e5818361010f565b61044080835260208084018181526040850191909152638789f83b60e01b60608501526306c4685360e01b60808501526316d2bca560e11b60a085015263dd81b5cf60e01b60c0850152630836d45d60e31b60e0850152631c6b349960e11b610100850152632ceacfdd60e21b61012085015263ac12d76360e01b610140850152634aa8f8a560e01b610160850152636520eae760e11b61018085015263444ead5160e01b6101a085015263d6c5c39760e01b6101c085015263544dddff60e01b6101e08501526306ad21bb60e41b61020085015263a517218f60e01b610220850152634b8213b360e11b610240850152630b1ba49b60e41b61026085015263f322913160e01b610280850152630338150f60e01b6102a08501526394074b0360e01b6102c0850152633f6f564960e11b6102e085015263032b960d60e11b61030085015263c66c66a160e01b610320850152633594c3c160e01b610340850152639d3070b560e01b61036085015263211cc54d60e11b610380850152635d02968560e01b6103a085015263599c7bd160e01b6103c08501526305aff0b360e01b6103e0850152638cfd78e760e01b61040085015263017187cd60e11b610420850152631456ce2b60e31b9184019190915291019061017e565b50610b9c610100604051906115d4818361010f565b60e08083526020808401908152600560408501526366ffd66360e11b60608501526314bbdacb60e21b60808501526356fe50af60e11b60a0850152637a0ed62760e01b60c08501526301ffc9a760e01b9184019190915291019061017e565b50610b9c60405161164560808261010f565b606081526080602082019160208352600160408201526307e4c70760e21b6060820152019061017e565b50610b9c60405161168160a08261010f565b6080815260a060208201916020835260026040820152638da5cb5b60e01b606082015263f2fde38b60e01b6080820152019061017e565b50610b9c610c8561015c56fea2646970667358221220ffb09f4b0538bbc0677842fb74bcc4e7338a1d2723ef53705212c29cd76a321364736f6c634300081a0033","linkReferences":{}},"methodIdentifiers":{"resolveSelectors(string)":"66e2898c"},"id":115}