{"abi":[{"type":"function","name":"activeValidatorsLimit","inputs":[],"outputs":[{"name":"","type":"uint16","internalType":"uint16"}],"stateMutability":"view"},{"type":"function","name":"bootstrapped","inputs":[],"outputs":[{"name":"","type":"bool","internalType":"bool"}],"stateMutability":"view"},{"type":"function","name":"bottomUpCheckPeriod","inputs":[],"outputs":[{"name":"","type":"uint256","internalType":"uint256"}],"stateMutability":"view"},{"type":"function","name":"bottomUpCheckpointAtEpoch","inputs":[{"name":"epoch","type":"uint256","internalType":"uint256"}],"outputs":[{"name":"exists","type":"bool","internalType":"bool"},{"name":"checkpoint","type":"tuple","internalType":"struct BottomUpCheckpoint","components":[{"name":"subnetID","type":"tuple","internalType":"struct SubnetID","components":[{"name":"root","type":"uint64","internalType":"uint64"},{"name":"route","type":"address[]","internalType":"address[]"}]},{"name":"blockHeight","type":"uint256","internalType":"uint256"},{"name":"blockHash","type":"bytes32","internalType":"bytes32"},{"name":"nextConfigurationNumber","type":"uint64","internalType":"uint64"}]}],"stateMutability":"view"},{"type":"function","name":"bottomUpCheckpointHashAtEpoch","inputs":[{"name":"epoch","type":"uint256","internalType":"uint256"}],"outputs":[{"name":"","type":"bool","internalType":"bool"},{"name":"","type":"bytes32","internalType":"bytes32"}],"stateMutability":"view"},{"type":"function","name":"bottomUpMsgBatchPeriod","inputs":[],"outputs":[{"name":"","type":"uint256","internalType":"uint256"}],"stateMutability":"view"},{"type":"function","name":"consensus","inputs":[],"outputs":[{"name":"","type":"uint8","internalType":"enum ConsensusType"}],"stateMutability":"view"},{"type":"function","name":"crossMsgsHash","inputs":[{"name":"messages","type":"tuple[]","internalType":"struct CrossMsg[]","components":[{"name":"message","type":"tuple","internalType":"struct StorableMsg","components":[{"name":"from","type":"tuple","internalType":"struct IPCAddress","components":[{"name":"subnetId","type":"tuple","internalType":"struct SubnetID","components":[{"name":"root","type":"uint64","internalType":"uint64"},{"name":"route","type":"address[]","internalType":"address[]"}]},{"name":"rawAddress","type":"tuple","internalType":"struct FvmAddress","components":[{"name":"addrType","type":"uint8","internalType":"uint8"},{"name":"payload","type":"bytes","internalType":"bytes"}]}]},{"name":"to","type":"tuple","internalType":"struct IPCAddress","components":[{"name":"subnetId","type":"tuple","internalType":"struct SubnetID","components":[{"name":"root","type":"uint64","internalType":"uint64"},{"name":"route","type":"address[]","internalType":"address[]"}]},{"name":"rawAddress","type":"tuple","internalType":"struct FvmAddress","components":[{"name":"addrType","type":"uint8","internalType":"uint8"},{"name":"payload","type":"bytes","internalType":"bytes"}]}]},{"name":"value","type":"uint256","internalType":"uint256"},{"name":"nonce","type":"uint64","internalType":"uint64"},{"name":"method","type":"bytes4","internalType":"bytes4"},{"name":"params","type":"bytes","internalType":"bytes"},{"name":"fee","type":"uint256","internalType":"uint256"}]},{"name":"wrapped","type":"bool","internalType":"bool"}]}],"outputs":[{"name":"","type":"bytes32","internalType":"bytes32"}],"stateMutability":"pure"},{"type":"function","name":"genesisBalances","inputs":[],"outputs":[{"name":"","type":"address[]","internalType":"address[]"},{"name":"","type":"uint256[]","internalType":"uint256[]"}],"stateMutability":"view"},{"type":"function","name":"genesisCircSupply","inputs":[],"outputs":[{"name":"","type":"uint256","internalType":"uint256"}],"stateMutability":"view"},{"type":"function","name":"genesisValidators","inputs":[],"outputs":[{"name":"","type":"tuple[]","internalType":"struct Validator[]","components":[{"name":"weight","type":"uint256","internalType":"uint256"},{"name":"addr","type":"address","internalType":"address"},{"name":"metadata","type":"bytes","internalType":"bytes"}]}],"stateMutability":"view"},{"type":"function","name":"getActiveValidatorsNumber","inputs":[],"outputs":[{"name":"","type":"uint16","internalType":"uint16"}],"stateMutability":"view"},{"type":"function","name":"getBootstrapNodes","inputs":[],"outputs":[{"name":"","type":"string[]","internalType":"string[]"}],"stateMutability":"view"},{"type":"function","name":"getConfigurationNumbers","inputs":[],"outputs":[{"name":"","type":"uint64","internalType":"uint64"},{"name":"","type":"uint64","internalType":"uint64"}],"stateMutability":"view"},{"type":"function","name":"getParent","inputs":[],"outputs":[{"name":"","type":"tuple","internalType":"struct SubnetID","components":[{"name":"root","type":"uint64","internalType":"uint64"},{"name":"route","type":"address[]","internalType":"address[]"}]}],"stateMutability":"view"},{"type":"function","name":"getRelayerReward","inputs":[{"name":"relayer","type":"address","internalType":"address"}],"outputs":[{"name":"","type":"uint256","internalType":"uint256"}],"stateMutability":"view"},{"type":"function","name":"getTotalCollateral","inputs":[],"outputs":[{"name":"","type":"uint256","internalType":"uint256"}],"stateMutability":"view"},{"type":"function","name":"getTotalConfirmedCollateral","inputs":[],"outputs":[{"name":"","type":"uint256","internalType":"uint256"}],"stateMutability":"view"},{"type":"function","name":"getTotalValidatorCollateral","inputs":[{"name":"validator","type":"address","internalType":"address"}],"outputs":[{"name":"","type":"uint256","internalType":"uint256"}],"stateMutability":"view"},{"type":"function","name":"getTotalValidatorsNumber","inputs":[],"outputs":[{"name":"","type":"uint16","internalType":"uint16"}],"stateMutability":"view"},{"type":"function","name":"getValidator","inputs":[{"name":"validatorAddress","type":"address","internalType":"address"}],"outputs":[{"name":"validator","type":"tuple","internalType":"struct ValidatorInfo","components":[{"name":"federatedPower","type":"uint256","internalType":"uint256"},{"name":"confirmedCollateral","type":"uint256","internalType":"uint256"},{"name":"totalCollateral","type":"uint256","internalType":"uint256"},{"name":"metadata","type":"bytes","internalType":"bytes"}]}],"stateMutability":"view"},{"type":"function","name":"hasSubmittedInLastBottomUpCheckpointHeight","inputs":[{"name":"validator","type":"address","internalType":"address"}],"outputs":[{"name":"","type":"bool","internalType":"bool"}],"stateMutability":"view"},{"type":"function","name":"hasSubmittedInLastBottomUpMsgBatchHeight","inputs":[{"name":"validator","type":"address","internalType":"address"}],"outputs":[{"name":"","type":"bool","internalType":"bool"}],"stateMutability":"view"},{"type":"function","name":"ipcGatewayAddr","inputs":[],"outputs":[{"name":"","type":"address","internalType":"address"}],"stateMutability":"view"},{"type":"function","name":"isActiveValidator","inputs":[{"name":"validator","type":"address","internalType":"address"}],"outputs":[{"name":"","type":"bool","internalType":"bool"}],"stateMutability":"view"},{"type":"function","name":"isWaitingValidator","inputs":[{"name":"validator","type":"address","internalType":"address"}],"outputs":[{"name":"","type":"bool","internalType":"bool"}],"stateMutability":"view"},{"type":"function","name":"killed","inputs":[],"outputs":[{"name":"","type":"bool","internalType":"bool"}],"stateMutability":"view"},{"type":"function","name":"lastBottomUpCheckpointHeight","inputs":[],"outputs":[{"name":"","type":"uint256","internalType":"uint256"}],"stateMutability":"view"},{"type":"function","name":"lastBottomUpMsgBatchHeight","inputs":[],"outputs":[{"name":"","type":"uint256","internalType":"uint256"}],"stateMutability":"view"},{"type":"function","name":"majorityPercentage","inputs":[],"outputs":[{"name":"","type":"uint8","internalType":"uint8"}],"stateMutability":"view"},{"type":"function","name":"minActivationCollateral","inputs":[],"outputs":[{"name":"","type":"uint256","internalType":"uint256"}],"stateMutability":"view"},{"type":"function","name":"minCrossMsgFee","inputs":[],"outputs":[{"name":"","type":"uint256","internalType":"uint256"}],"stateMutability":"view"},{"type":"function","name":"minValidators","inputs":[],"outputs":[{"name":"","type":"uint64","internalType":"uint64"}],"stateMutability":"view"},{"type":"function","name":"permissionMode","inputs":[],"outputs":[{"name":"","type":"uint8","internalType":"enum PermissionMode"}],"stateMutability":"view"},{"type":"function","name":"powerScale","inputs":[],"outputs":[{"name":"","type":"int8","internalType":"int8"}],"stateMutability":"view"}],"bytecode":{"object":"0x6080806040523461001657611418908161001c8239f35b600080fdfe608060408181526004918236101561001657600080fd5b600092833560e01c91826306c4685314610cfc575081631597bf7e14610cb65781631904bb2e14610be75781631f3a0e4114610bc057816328d5551d14610ba15781632bc31eb314610b58578163332a5ac9146103aa5781633354c3e114610b3257816335142c8c14610b0b57816338a210b314610ada5781633da332411461092357816340550a1c146108e45781634b0694e21461088b5781634b27aa721461084f57816352d182d114610807578163599c7bd1146107e25781636704287c146107c357816369e737fd146107a457816372d0a0e01461078557816380f76021146106cb5781638ef3f7611461069f578163903e693014610570578163948628a9146105515781639754b29e146104d95781639e33bd02146104ba578163ad81e4d61461049a578163b2bd295e14610462578163c5ab22411461043a578163c7cda76214610417578163cfca2824146103ee578163d081be03146103af578163d6eb5910146103aa578163d92e8f121461023c578163f0cf6c96146101fa575063f75499dc146101a657600080fd5b346101f65760203660031901126101f6576101ed602092826101c6610d18565b9160065481526023865220600191828060a01b031660005201602052604060002054151590565b90519015158152f35b5080fd5b8383346101f657816003193601126101f65760ff60125460101c16905191600282101561022957602083838152f35b634e487b7160e01b815260218452602490fd5b839150346101f657816003193601126101f657919060019081549361026085610ebb565b9061026d85519283610e80565b85825260209081830196878686527fb10e2d527612073b26eecdfd717e6a320cf44b4afac2b0732d9fcbe2b7fa0cf686915b8383106103265750505050508451948186019282875251809352808601818460051b8801019794915b8483106102d55787890388f35b9091929394958480610314839b603f198c8203018752858b518051835260018060a01b0385820151168584015201519060609081888201520190610d33565b9a9801969594919091019201906102c8565b89959697999a989a51606081018181106001600160401b0382111761039757875282548152828c01546001600160a01b03168882015286518c926003928a9261037d816103768160028b01610ed2565b0382610e80565b8a820152815201920192019190999799989695949861029f565b634e487b7160e01b8c526041875260248cfd5b610d73565b5050346101f65760203660031901126101f65760209161ffff9082906001600160a01b036103db610d18565b168152601a855220541615159051908152f35b5050346101f657816003193601126101f657600e5490516001600160a01b039091168152602090f35b5050346101f657816003193601126101f65760209061ffff601654169051908152f35b5050346101f657816003193601126101f6576020906001600160401b03600c54169051908152f35b5050346101f65760203660031901126101f65760209181906001600160a01b0361048a610d18565b1681526021845220549051908152f35b5050346101f657816003193601126101f6576020918254900b9051908152f35b5050346101f657816003193601126101f657602090600a549051908152f35b82843461054e578060031936011261054e576104f3611168565b825191602080840190808552835180925280868601968360051b870101940192955b8287106105225785850386f35b90919293828061053e600193603f198a82030186528851610d33565b9601920196019592919092610515565b80fd5b5050346101f657816003193601126101f6576020906002549051908152f35b839150346101f657816003193601126101f657919082549061059182610ebb565b9361059e84519586610e80565b828552601f1992836105af82610ebb565b019060209136838901376105c281610ebb565b926105cf87519485610e80565b8184526105db82610ebb565b8484019601368737845b82811061063a57505050806106038651978789988952880190610d91565b928684038288015251928381520193925b82811061062357505050500390f35b835185528695509381019392810192600101610614565b60019082879698999a959752818060a01b03817f8a35acfbc15ff81a39ae7d344fd709f28e8600b4aa8c65c6b64bfe7fe36bd19b0154168061067c8388610f8f565b5286526003875289862054610691828a610f8f565b5201979695939492976105e5565b8383346101f657816003193601126101f65760ff60125416905191600182101561022957602083838152f35b82843461054e578060031936011261054e576106e5610ea1565b508151916106f283610e65565b6010546001600160401b03168352805160118054808352908452602093848301917f31ecc21a745e3968a04e9570e4425bc18fa8019c68028196b546d1669c200c68915b868282106107685788906107648888610751818a0382610e80565b8385015251928284938452830190610dce565b0390f35b83546001600160a01b031685529093019260019283019201610736565b5050346101f657816003193601126101f6576020906005549051908152f35b5050346101f657816003193601126101f6576020906008549051908152f35b5050346101f657816003193601126101f657602090600f549051908152f35b5050346101f657816003193601126101f65760209060ff600e5460a01c169051908152f35b8383346101f657816003193601126101f65761ffff9081601954168260165416019282841161083c5750602093505191168152f35b634e487b7160e01b815260118552602490fd5b9050823461054e57602036600319011261054e57506108716107649135610fb9565b839291925193849315158452806020850152830190610df7565b9050823461054e57602036600319011261054e57506108aa9035610fb9565b82516108d3816108c560208201946020865287830190610df7565b03601f198101835282610e80565b519020825191151582526020820152f35b5050346101f65760203660031901126101f65760209161ffff9082906001600160a01b03610910610d18565b1681526017855220541615159051908152f35b82843461054e57602092836003193601126101f6578035906001600160401b0390818311610ad65736602384011215610ad657820135818111610ad65760248301908060051b936024853692010111610ad2579093855193849288840196818986018b8a525260608086019386010193819681925b8484106109c2575050505050506109b8925003601f198101835282610e80565b5190209051908152f35b9193959092949650605f198982030187526109dd888361127e565b803560de1982360301811215610aca5790610a378e610a268f959484610a1d91019680875260e0610a0e898061127e565b918801526101208701906112f8565b9186018661127e565b848203603f190160608601526112f8565b8d6080908501358185015286610a4f60608701611292565b1660a08501528401359063ffffffff60e01b8216809203610ace57908f9291610a989060c09283870152610a8660a08801886112a6565b878303603f190160e0890152906112d7565b940135610100840152013590811515809203610aca576001928e92838093015299019701940191889697959391610998565b8580fd5b8780fd5b8480fd5b8380fd5b82843461054e578060031936011261054e5750601c548151906001600160401b03908181168352831c166020820152f35b5050346101f657816003193601126101f65760209060ff60125460081c1690519015158152f35b5050346101f657816003193601126101f65760209061ffff60135460081c169051908152f35b5050346101f65760203660031901126101f6576101ed60209282610b7a610d18565b9160055481526022865220600191828060a01b031660005201602052604060002054151590565b5050346101f657816003193601126101f6576020906006549051908152f35b5050346101f657816003193601126101f65760209060ff60125460181c1690519015158152f35b82843461054e57602036600319011261054e57610c3d90606080610c09610d18565b92855190610c1682610e34565b80825280602083015286820152015260018060a01b03166000526015602052604060002090565b6107646003835192610c4e84610e34565b8054845260018101549460208501958652610c84600283015492828701938452610c7d83518096819301610ed2565b0384610e80565b6060850192835280519586956020875251602087015251908501525160608401525160808084015260a0830190610d33565b5050346101f65760203660031901126101f6576020906002610cf3610cd9610d18565b6001600160a01b0316600090815260156020526040902090565b01549051908152f35b8490346101f657816003193601126101f657602090600b548152f35b600435906001600160a01b0382168203610d2e57565b600080fd5b919082519283825260005b848110610d5f575050826000602080949584010152601f8019910116010190565b602081830181015184830182015201610d3e565b34610d2e576000366003190112610d2e576020601454604051908152f35b90815180825260208080930193019160005b828110610db1575050505090565b83516001600160a01b031685529381019392810192600101610da3565b9060406020610df4936001600160401b0381511684520151918160208201520190610d91565b90565b9060606001600160401b0381610e168551608086526080860190610dce565b94602081015160208601526040810151604086015201511691015290565b608081019081106001600160401b03821117610e4f57604052565b634e487b7160e01b600052604160045260246000fd5b604081019081106001600160401b03821117610e4f57604052565b90601f801991011681019081106001600160401b03821117610e4f57604052565b60405190610eae82610e65565b6060602083600081520152565b6001600160401b038111610e4f5760051b60200190565b80546000939260018083169383821c938515610f85575b6020958686108114610f6f57858552908115610f505750600114610f0f575b5050505050565b90939495506000929192528360002092846000945b838610610f3c57505050500101903880808080610f08565b805485870183015294019385908201610f24565b60ff19168685015250505090151560051b010191503880808080610f08565b634e487b7160e01b600052602260045260246000fd5b93607f1693610ee9565b8051821015610fa35760209160051b010190565b634e487b7160e01b600052603260045260246000fd5b906040805192610fc884610e34565b610fd0610ea1565b8452600090816060602096828882015282868201520152815280845281812093825194610ffc86610e34565b83519161100883610e65565b6001600160401b0380835416845260018084019487519485858854918281520197895285892090895b81811061114c575050506004849161104d8888999a038a610e80565b868401988952838d528c8760028301549101528c8b600383015491015201541660608b01528751958693630c133d1360e31b8552856004860152606485019251166024850152519188604485015282518092528460848501930191885b81811061112b57505050508190038173__$a0fe38a9a81205afccc10810b09a4d3f45$__5af4938415611122575082936110e7575b505050159190565b9080929350813d831161111b575b6110ff8183610e80565b810103126101f6575190811515820361054e57503880806110df565b503d6110f5565b513d84823e3d90fd5b83516001600160a01b031685528796899650948501949093019282016110aa565b82546001600160a01b03168a5298870198918501918501611031565b60255461117481610ebb565b90604061118381519384610e80565b818352601f1961119283610ebb565b0160005b81811061126d57505081156112685780518083825260208092016025600052817f401968ff42a154441da5f6c4c935ac46b8671f0e062baaa62a7545ba53bb6e4c9160005b858882106112525750506111f192500382610e80565b60005b84811061120357505050505090565b6001906001600160a01b036112188285610f8f565b51166000526024845261037661123686600020875192838092610ed2565b6112408289610f8f565b5261124b8188610f8f565b50016111f4565b84548352600194850194869450920191016111db565b505090565b806060602080938801015201611196565b9035603e1982360301811215610d2e570190565b35906001600160401b0382168203610d2e57565b9035601e1982360301811215610d2e5701602081359101916001600160401b038211610d2e578136038313610d2e57565b908060209392818452848401376000828201840152601f01601f1916010190565b90611303828061127e565b906040815260808101926001600160401b03938461132085611292565b16604084015260209384810135601e1982360301811215610d2e5701908482359201958211610d2e578160051b36038613610d2e578190604060608601525260a08301949060005b8181106113ba57505050808361137f92019061127e565b908281850391015280359060ff8216809203610d2e57836113ad604093928493610df49752858101906112a6565b93909482015201916112d7565b90919586359060018060a01b038216809203610d2e579081528501958501919060010161136856fea2646970667358221220b4e0525e3652bc35af91e651c27139c9821728d96fab2550bc31594f0f0eca9a64736f6c63430008130033","linkReferences":{"src/lib/SubnetIDHelper.sol":{"SubnetIDHelper":[{"start":4311,"length":20}]}}},"methodIdentifiers":{"activeValidatorsLimit()":"3354c3e1","bootstrapped()":"35142c8c","bottomUpCheckPeriod()":"06c46853","bottomUpCheckpointAtEpoch(uint256)":"4b27aa72","bottomUpCheckpointHashAtEpoch(uint256)":"4b0694e2","bottomUpMsgBatchPeriod()":"69e737fd","consensus()":"8ef3f761","crossMsgsHash(((((uint64,address[]),(uint8,bytes)),((uint64,address[]),(uint8,bytes)),uint256,uint64,bytes4,bytes,uint256),bool)[])":"3da33241","genesisBalances()":"903e6930","genesisCircSupply()":"948628a9","genesisValidators()":"d92e8f12","getActiveValidatorsNumber()":"c7cda762","getBootstrapNodes()":"9754b29e","getConfigurationNumbers()":"38a210b3","getParent()":"80f76021","getRelayerReward(address)":"b2bd295e","getTotalCollateral()":"d6eb5910","getTotalConfirmedCollateral()":"332a5ac9","getTotalValidatorCollateral(address)":"1597bf7e","getTotalValidatorsNumber()":"52d182d1","getValidator(address)":"1904bb2e","hasSubmittedInLastBottomUpCheckpointHeight(address)":"2bc31eb3","hasSubmittedInLastBottomUpMsgBatchHeight(address)":"f75499dc","ipcGatewayAddr()":"cfca2824","isActiveValidator(address)":"40550a1c","isWaitingValidator(address)":"d081be03","killed()":"1f3a0e41","lastBottomUpCheckpointHeight()":"72d0a0e0","lastBottomUpMsgBatchHeight()":"28d5551d","majorityPercentage()":"599c7bd1","minActivationCollateral()":"9e33bd02","minCrossMsgFee()":"6704287c","minValidators()":"c5ab2241","permissionMode()":"f0cf6c96","powerScale()":"ad81e4d6"},"id":77}