{"abi":[{"type":"function","name":"activeValidatorsLimit","inputs":[],"outputs":[{"name":"","type":"uint16","internalType":"uint16"}],"stateMutability":"view"},{"type":"function","name":"bootstrapped","inputs":[],"outputs":[{"name":"","type":"bool","internalType":"bool"}],"stateMutability":"view"},{"type":"function","name":"bottomUpCheckPeriod","inputs":[],"outputs":[{"name":"","type":"uint256","internalType":"uint256"}],"stateMutability":"view"},{"type":"function","name":"bottomUpCheckpointAtEpoch","inputs":[{"name":"epoch","type":"uint256","internalType":"uint256"}],"outputs":[{"name":"exists","type":"bool","internalType":"bool"},{"name":"checkpoint","type":"tuple","internalType":"struct BottomUpCheckpoint","components":[{"name":"subnetID","type":"tuple","internalType":"struct SubnetID","components":[{"name":"root","type":"uint64","internalType":"uint64"},{"name":"route","type":"address[]","internalType":"address[]"}]},{"name":"blockHeight","type":"uint256","internalType":"uint256"},{"name":"blockHash","type":"bytes32","internalType":"bytes32"},{"name":"nextConfigurationNumber","type":"uint64","internalType":"uint64"}]}],"stateMutability":"view"},{"type":"function","name":"bottomUpCheckpointHashAtEpoch","inputs":[{"name":"epoch","type":"uint256","internalType":"uint256"}],"outputs":[{"name":"","type":"bool","internalType":"bool"},{"name":"","type":"bytes32","internalType":"bytes32"}],"stateMutability":"view"},{"type":"function","name":"bottomUpMsgBatchPeriod","inputs":[],"outputs":[{"name":"","type":"uint256","internalType":"uint256"}],"stateMutability":"view"},{"type":"function","name":"consensus","inputs":[],"outputs":[{"name":"","type":"uint8","internalType":"enum ConsensusType"}],"stateMutability":"view"},{"type":"function","name":"crossMsgsHash","inputs":[{"name":"messages","type":"tuple[]","internalType":"struct CrossMsg[]","components":[{"name":"message","type":"tuple","internalType":"struct StorableMsg","components":[{"name":"from","type":"tuple","internalType":"struct IPCAddress","components":[{"name":"subnetId","type":"tuple","internalType":"struct SubnetID","components":[{"name":"root","type":"uint64","internalType":"uint64"},{"name":"route","type":"address[]","internalType":"address[]"}]},{"name":"rawAddress","type":"tuple","internalType":"struct FvmAddress","components":[{"name":"addrType","type":"uint8","internalType":"uint8"},{"name":"payload","type":"bytes","internalType":"bytes"}]}]},{"name":"to","type":"tuple","internalType":"struct IPCAddress","components":[{"name":"subnetId","type":"tuple","internalType":"struct SubnetID","components":[{"name":"root","type":"uint64","internalType":"uint64"},{"name":"route","type":"address[]","internalType":"address[]"}]},{"name":"rawAddress","type":"tuple","internalType":"struct FvmAddress","components":[{"name":"addrType","type":"uint8","internalType":"uint8"},{"name":"payload","type":"bytes","internalType":"bytes"}]}]},{"name":"value","type":"uint256","internalType":"uint256"},{"name":"nonce","type":"uint64","internalType":"uint64"},{"name":"method","type":"bytes4","internalType":"bytes4"},{"name":"params","type":"bytes","internalType":"bytes"},{"name":"fee","type":"uint256","internalType":"uint256"}]},{"name":"wrapped","type":"bool","internalType":"bool"}]}],"outputs":[{"name":"","type":"bytes32","internalType":"bytes32"}],"stateMutability":"pure"},{"type":"function","name":"genesisBalances","inputs":[],"outputs":[{"name":"","type":"address[]","internalType":"address[]"},{"name":"","type":"uint256[]","internalType":"uint256[]"}],"stateMutability":"view"},{"type":"function","name":"genesisCircSupply","inputs":[],"outputs":[{"name":"","type":"uint256","internalType":"uint256"}],"stateMutability":"view"},{"type":"function","name":"genesisValidators","inputs":[],"outputs":[{"name":"","type":"tuple[]","internalType":"struct Validator[]","components":[{"name":"weight","type":"uint256","internalType":"uint256"},{"name":"addr","type":"address","internalType":"address"},{"name":"metadata","type":"bytes","internalType":"bytes"}]}],"stateMutability":"view"},{"type":"function","name":"getActiveValidatorsNumber","inputs":[],"outputs":[{"name":"","type":"uint16","internalType":"uint16"}],"stateMutability":"view"},{"type":"function","name":"getBootstrapNodes","inputs":[],"outputs":[{"name":"","type":"string[]","internalType":"string[]"}],"stateMutability":"view"},{"type":"function","name":"getConfigurationNumbers","inputs":[],"outputs":[{"name":"","type":"uint64","internalType":"uint64"},{"name":"","type":"uint64","internalType":"uint64"}],"stateMutability":"view"},{"type":"function","name":"getParent","inputs":[],"outputs":[{"name":"","type":"tuple","internalType":"struct SubnetID","components":[{"name":"root","type":"uint64","internalType":"uint64"},{"name":"route","type":"address[]","internalType":"address[]"}]}],"stateMutability":"view"},{"type":"function","name":"getPower","inputs":[{"name":"validator","type":"address","internalType":"address"}],"outputs":[{"name":"","type":"uint256","internalType":"uint256"}],"stateMutability":"view"},{"type":"function","name":"getRelayerReward","inputs":[{"name":"relayer","type":"address","internalType":"address"}],"outputs":[{"name":"","type":"uint256","internalType":"uint256"}],"stateMutability":"view"},{"type":"function","name":"getTotalCollateral","inputs":[],"outputs":[{"name":"","type":"uint256","internalType":"uint256"}],"stateMutability":"view"},{"type":"function","name":"getTotalConfirmedCollateral","inputs":[],"outputs":[{"name":"","type":"uint256","internalType":"uint256"}],"stateMutability":"view"},{"type":"function","name":"getTotalValidatorCollateral","inputs":[{"name":"validator","type":"address","internalType":"address"}],"outputs":[{"name":"","type":"uint256","internalType":"uint256"}],"stateMutability":"view"},{"type":"function","name":"getTotalValidatorsNumber","inputs":[],"outputs":[{"name":"","type":"uint16","internalType":"uint16"}],"stateMutability":"view"},{"type":"function","name":"getValidator","inputs":[{"name":"validatorAddress","type":"address","internalType":"address"}],"outputs":[{"name":"validator","type":"tuple","internalType":"struct ValidatorInfo","components":[{"name":"federatedPower","type":"uint256","internalType":"uint256"},{"name":"confirmedCollateral","type":"uint256","internalType":"uint256"},{"name":"totalCollateral","type":"uint256","internalType":"uint256"},{"name":"metadata","type":"bytes","internalType":"bytes"}]}],"stateMutability":"view"},{"type":"function","name":"hasSubmittedInLastBottomUpCheckpointHeight","inputs":[{"name":"validator","type":"address","internalType":"address"}],"outputs":[{"name":"","type":"bool","internalType":"bool"}],"stateMutability":"view"},{"type":"function","name":"hasSubmittedInLastBottomUpMsgBatchHeight","inputs":[{"name":"validator","type":"address","internalType":"address"}],"outputs":[{"name":"","type":"bool","internalType":"bool"}],"stateMutability":"view"},{"type":"function","name":"ipcGatewayAddr","inputs":[],"outputs":[{"name":"","type":"address","internalType":"address"}],"stateMutability":"view"},{"type":"function","name":"isActiveValidator","inputs":[{"name":"validator","type":"address","internalType":"address"}],"outputs":[{"name":"","type":"bool","internalType":"bool"}],"stateMutability":"view"},{"type":"function","name":"isWaitingValidator","inputs":[{"name":"validator","type":"address","internalType":"address"}],"outputs":[{"name":"","type":"bool","internalType":"bool"}],"stateMutability":"view"},{"type":"function","name":"killed","inputs":[],"outputs":[{"name":"","type":"bool","internalType":"bool"}],"stateMutability":"view"},{"type":"function","name":"lastBottomUpCheckpointHeight","inputs":[],"outputs":[{"name":"","type":"uint256","internalType":"uint256"}],"stateMutability":"view"},{"type":"function","name":"lastBottomUpMsgBatchHeight","inputs":[],"outputs":[{"name":"","type":"uint256","internalType":"uint256"}],"stateMutability":"view"},{"type":"function","name":"majorityPercentage","inputs":[],"outputs":[{"name":"","type":"uint8","internalType":"uint8"}],"stateMutability":"view"},{"type":"function","name":"minActivationCollateral","inputs":[],"outputs":[{"name":"","type":"uint256","internalType":"uint256"}],"stateMutability":"view"},{"type":"function","name":"minCrossMsgFee","inputs":[],"outputs":[{"name":"","type":"uint256","internalType":"uint256"}],"stateMutability":"view"},{"type":"function","name":"minValidators","inputs":[],"outputs":[{"name":"","type":"uint64","internalType":"uint64"}],"stateMutability":"view"},{"type":"function","name":"permissionMode","inputs":[],"outputs":[{"name":"","type":"uint8","internalType":"enum PermissionMode"}],"stateMutability":"view"},{"type":"function","name":"powerScale","inputs":[],"outputs":[{"name":"","type":"int8","internalType":"int8"}],"stateMutability":"view"},{"type":"function","name":"supplySource","inputs":[],"outputs":[{"name":"supply","type":"tuple","internalType":"struct SupplySource","components":[{"name":"kind","type":"uint8","internalType":"enum SupplyKind"},{"name":"tokenAddress","type":"address","internalType":"address"}]}],"stateMutability":"view"}],"bytecode":{"object":"0x6080806040523461001657611533908161001c8239f35b600080fdfe608060408181526004918236101561001657600080fd5b600092833560e01c91826306c4685314610e17575081631597bf7e14610dd15781631904bb2e14610d025781631f3a0e4114610cdb57816328d5551d14610cbc5781632bc31eb314610c73578163332a5ac9146103bd5781633354c3e114610c4d57816335142c8c14610c2657816338a210b314610bf55781633da3324114610a3e57816340550a1c146109ff5781634b0694e2146109a65781634b27aa721461096a57816352d182d114610922578163599c7bd1146108fd5781635dd9147c146108715781636704287c1461085257816369e737fd1461083357816372d0a0e01461081457816380875df71461079857816380f76021146106de5781638ef3f761146106b2578163903e693014610583578163948628a9146105645781639754b29e146104ec5781639e33bd02146104cd578163ad81e4d6146104ad578163b2bd295e14610475578163c5ab22411461044d578163c7cda7621461042a578163cfca282414610401578163d081be03146103c2578163d6eb5910146103bd578163d92e8f121461024f578163f0cf6c9614610210575063f75499dc146101bc57600080fd5b3461020c57602036600319011261020c57610203602092826101dc610e33565b9160065481526023865220600191828060a01b031660005201602052604060002054151590565b90519015158152f35b5080fd5b83833461020c578160031936011261020c5760ff60135416905191600382101561023c57602083838152f35b634e487b7160e01b815260218452602490fd5b8391503461020c578160031936011261020c57919060019081549361027385610fd6565b9061028085519283610f9b565b85825260209081830196878686527fb10e2d527612073b26eecdfd717e6a320cf44b4afac2b0732d9fcbe2b7fa0cf686915b8383106103395750505050508451948186019282875251809352808601818460051b8801019794915b8483106102e85787890388f35b9091929394958480610327839b603f198c8203018752858b518051835260018060a01b0385820151168584015201519060609081888201520190610e4e565b9a9801969594919091019201906102db565b89959697999a989a51606081018181106001600160401b038211176103aa57875282548152828c01546001600160a01b03168882015286518c926003928a92610390816103898160028b01610fed565b0382610f9b565b8a82015281520192019201919099979998969594986102b2565b634e487b7160e01b8c526041875260248cfd5b610e8e565b50503461020c57602036600319011261020c5760209161ffff9082906001600160a01b036103ee610e33565b168152601a855220541615159051908152f35b50503461020c578160031936011261020c57600e5490516001600160a01b039091168152602090f35b50503461020c578160031936011261020c5760209061ffff601654169051908152f35b50503461020c578160031936011261020c576020906001600160401b03600c54169051908152f35b50503461020c57602036600319011261020c5760209181906001600160a01b0361049d610e33565b1681526021845220549051908152f35b50503461020c578160031936011261020c576020918254900b9051908152f35b50503461020c578160031936011261020c57602090600a549051908152f35b828434610561578060031936011261056157610506611283565b825191602080840190808552835180925280868601968360051b870101940192955b8287106105355785850386f35b909192938280610551600193603f198a82030186528851610e4e565b9601920196019592919092610528565b80fd5b50503461020c578160031936011261020c576020906002549051908152f35b8391503461020c578160031936011261020c5791908254906105a482610fd6565b936105b184519586610f9b565b828552601f1992836105c282610fd6565b019060209136838901376105d581610fd6565b926105e287519485610f9b565b8184526105ee82610fd6565b8484019601368737845b82811061064d57505050806106168651978789988952880190610eac565b928684038288015251928381520193925b82811061063657505050500390f35b835185528695509381019392810192600101610627565b60019082879698999a959752818060a01b03817f8a35acfbc15ff81a39ae7d344fd709f28e8600b4aa8c65c6b64bfe7fe36bd19b0154168061068f83886110aa565b52865260038752898620546106a4828a6110aa565b5201979695939492976105f8565b83833461020c578160031936011261020c5760ff60125416905191600182101561023c57602083838152f35b8284346105615780600319360112610561576106f8610fbc565b5081519161070583610f80565b6010546001600160401b03168352805160118054808352908452602093848301917f31ecc21a745e3968a04e9570e4425bc18fa8019c68028196b546d1669c200c68915b8682821061077b5788906107778888610764818a0382610f9b565b8385015251928284938452830190610ee9565b0390f35b83546001600160a01b031685529093019260019283019201610749565b9050823461056157806003193601126105615780602084516107b981610f80565b828152015282516107c981610f80565b6027549160ff83169360028510156108015750508083602092520160018060a01b03809260081c168152835192835251166020820152f35b634e487b7160e01b825260219052602490fd5b50503461020c578160031936011261020c576020906005549051908152f35b50503461020c578160031936011261020c576020906008549051908152f35b50503461020c578160031936011261020c57602090600f549051908152f35b8284346105615760203660031901126105615761088c610e33565b9060ff601354169060038210156108ea5760208484600185036108c9576001600160a01b0316600090815260156020526040902054905b51908152f35b6001600160a01b0316600090815260156020526040902060010154906108c3565b634e487b7160e01b815260218552602490fd5b50503461020c578160031936011261020c5760209060ff600e5460a01c169051908152f35b83833461020c578160031936011261020c5761ffff908160195416826016541601928284116109575750602093505191168152f35b634e487b7160e01b815260118552602490fd5b90508234610561576020366003190112610561575061098c61077791356110d4565b839291925193849315158452806020850152830190610f12565b9050823461056157602036600319011261056157506109c590356110d4565b82516109ee816109e060208201946020865287830190610f12565b03601f198101835282610f9b565b519020825191151582526020820152f35b50503461020c57602036600319011261020c5760209161ffff9082906001600160a01b03610a2b610e33565b1681526017855220541615159051908152f35b828434610561576020928360031936011261020c578035906001600160401b0390818311610bf15736602384011215610bf157820135818111610bf15760248301908060051b936024853692010111610bed579093855193849288840196818986018b8a525260608086019386010193819681925b848410610add57505050505050610ad3925003601f198101835282610f9b565b5190209051908152f35b9193959092949650605f19898203018752610af88883611399565b803560de1982360301811215610be55790610b528e610b418f959484610b3891019680875260e0610b298980611399565b91880152610120870190611413565b91860186611399565b848203603f19016060860152611413565b8d6080908501358185015286610b6a606087016113ad565b1660a08501528401359063ffffffff60e01b8216809203610be957908f9291610bb39060c09283870152610ba160a08801886113c1565b878303603f190160e0890152906113f2565b940135610100840152013590811515809203610be5576001928e92838093015299019701940191889697959391610ab3565b8580fd5b8780fd5b8480fd5b8380fd5b82843461056157806003193601126105615750601c548151906001600160401b03908181168352831c166020820152f35b50503461020c578160031936011261020c5760209060ff60125460081c1690519015158152f35b50503461020c578160031936011261020c5760209061ffff60135460081c169051908152f35b50503461020c57602036600319011261020c5761020360209282610c95610e33565b9160055481526022865220600191828060a01b031660005201602052604060002054151590565b50503461020c578160031936011261020c576020906006549051908152f35b50503461020c578160031936011261020c5760209060ff60125460101c1690519015158152f35b82843461056157602036600319011261056157610d5890606080610d24610e33565b92855190610d3182610f4f565b80825280602083015286820152015260018060a01b03166000526015602052604060002090565b6107776003835192610d6984610f4f565b8054845260018101549460208501958652610d9f600283015492828701938452610d9883518096819301610fed565b0384610f9b565b6060850192835280519586956020875251602087015251908501525160608401525160808084015260a0830190610e4e565b50503461020c57602036600319011261020c576020906002610e0e610df4610e33565b6001600160a01b0316600090815260156020526040902090565b01549051908152f35b84903461020c578160031936011261020c57602090600b548152f35b600435906001600160a01b0382168203610e4957565b600080fd5b919082519283825260005b848110610e7a575050826000602080949584010152601f8019910116010190565b602081830181015184830182015201610e59565b34610e49576000366003190112610e49576020601454604051908152f35b90815180825260208080930193019160005b828110610ecc575050505090565b83516001600160a01b031685529381019392810192600101610ebe565b9060406020610f0f936001600160401b0381511684520151918160208201520190610eac565b90565b9060606001600160401b0381610f318551608086526080860190610ee9565b94602081015160208601526040810151604086015201511691015290565b608081019081106001600160401b03821117610f6a57604052565b634e487b7160e01b600052604160045260246000fd5b604081019081106001600160401b03821117610f6a57604052565b90601f801991011681019081106001600160401b03821117610f6a57604052565b60405190610fc982610f80565b6060602083600081520152565b6001600160401b038111610f6a5760051b60200190565b80546000939260018083169383821c9385156110a0575b602095868610811461108a5785855290811561106b575060011461102a575b5050505050565b90939495506000929192528360002092846000945b83861061105757505050500101903880808080611023565b80548587018301529401938590820161103f565b60ff19168685015250505090151560051b010191503880808080611023565b634e487b7160e01b600052602260045260246000fd5b93607f1693611004565b80518210156110be5760209160051b010190565b634e487b7160e01b600052603260045260246000fd5b9060408051926110e384610f4f565b6110eb610fbc565b845260009081606060209682888201528286820152015281528084528181209382519461111786610f4f565b83519161112383610f80565b6001600160401b0380835416845260018084019487519485858854918281520197895285892090895b81811061126757505050600484916111688888999a038a610f9b565b868401988952838d528c8760028301549101528c8b600383015491015201541660608b01528751958693630c133d1360e31b8552856004860152606485019251166024850152519188604485015282518092528460848501930191885b81811061124657505050508190038173__$a0fe38a9a81205afccc10810b09a4d3f45$__5af493841561123d57508293611202575b505050159190565b9080929350813d8311611236575b61121a8183610f9b565b8101031261020c575190811515820361056157503880806111fa565b503d611210565b513d84823e3d90fd5b83516001600160a01b031685528796899650948501949093019282016111c5565b82546001600160a01b03168a529887019891850191850161114c565b60255461128f81610fd6565b90604061129e81519384610f9b565b818352601f196112ad83610fd6565b0160005b81811061138857505081156113835780518083825260208092016025600052817f401968ff42a154441da5f6c4c935ac46b8671f0e062baaa62a7545ba53bb6e4c9160005b8588821061136d57505061130c92500382610f9b565b60005b84811061131e57505050505090565b6001906001600160a01b0361133382856110aa565b51166000526024845261038961135186600020875192838092610fed565b61135b82896110aa565b5261136681886110aa565b500161130f565b84548352600194850194869450920191016112f6565b505090565b8060606020809388010152016112b1565b9035603e1982360301811215610e49570190565b35906001600160401b0382168203610e4957565b9035601e1982360301811215610e495701602081359101916001600160401b038211610e49578136038313610e4957565b908060209392818452848401376000828201840152601f01601f1916010190565b9061141e8280611399565b906040815260808101926001600160401b03938461143b856113ad565b16604084015260209384810135601e1982360301811215610e495701908482359201958211610e49578160051b36038613610e49578190604060608601525260a08301949060005b8181106114d557505050808361149a920190611399565b908281850391015280359060ff8216809203610e4957836114c8604093928493610f0f9752858101906113c1565b93909482015201916113f2565b90919586359060018060a01b038216809203610e49579081528501958501919060010161148356fea2646970667358221220becf881608c5366d77de2e000ba4dbaa18cbddd8dbaee4ae737f386987584c9564736f6c63430008130033","linkReferences":{"src/lib/SubnetIDHelper.sol":{"SubnetIDHelper":[{"start":4594,"length":20}]}}},"methodIdentifiers":{"activeValidatorsLimit()":"3354c3e1","bootstrapped()":"35142c8c","bottomUpCheckPeriod()":"06c46853","bottomUpCheckpointAtEpoch(uint256)":"4b27aa72","bottomUpCheckpointHashAtEpoch(uint256)":"4b0694e2","bottomUpMsgBatchPeriod()":"69e737fd","consensus()":"8ef3f761","crossMsgsHash(((((uint64,address[]),(uint8,bytes)),((uint64,address[]),(uint8,bytes)),uint256,uint64,bytes4,bytes,uint256),bool)[])":"3da33241","genesisBalances()":"903e6930","genesisCircSupply()":"948628a9","genesisValidators()":"d92e8f12","getActiveValidatorsNumber()":"c7cda762","getBootstrapNodes()":"9754b29e","getConfigurationNumbers()":"38a210b3","getParent()":"80f76021","getPower(address)":"5dd9147c","getRelayerReward(address)":"b2bd295e","getTotalCollateral()":"d6eb5910","getTotalConfirmedCollateral()":"332a5ac9","getTotalValidatorCollateral(address)":"1597bf7e","getTotalValidatorsNumber()":"52d182d1","getValidator(address)":"1904bb2e","hasSubmittedInLastBottomUpCheckpointHeight(address)":"2bc31eb3","hasSubmittedInLastBottomUpMsgBatchHeight(address)":"f75499dc","ipcGatewayAddr()":"cfca2824","isActiveValidator(address)":"40550a1c","isWaitingValidator(address)":"d081be03","killed()":"1f3a0e41","lastBottomUpCheckpointHeight()":"72d0a0e0","lastBottomUpMsgBatchHeight()":"28d5551d","majorityPercentage()":"599c7bd1","minActivationCollateral()":"9e33bd02","minCrossMsgFee()":"6704287c","minValidators()":"c5ab2241","permissionMode()":"f0cf6c96","powerScale()":"ad81e4d6","supplySource()":"80875df7"},"id":81}