{"abi":[{"type":"function","name":"activeValidatorsLimit","inputs":[],"outputs":[{"name":"","type":"uint16","internalType":"uint16"}],"stateMutability":"view"},{"type":"function","name":"bootstrapped","inputs":[],"outputs":[{"name":"","type":"bool","internalType":"bool"}],"stateMutability":"view"},{"type":"function","name":"bottomUpCheckPeriod","inputs":[],"outputs":[{"name":"","type":"uint64","internalType":"uint64"}],"stateMutability":"view"},{"type":"function","name":"bottomUpCheckpointAtEpoch","inputs":[{"name":"epoch","type":"uint64","internalType":"uint64"}],"outputs":[{"name":"exists","type":"bool","internalType":"bool"},{"name":"checkpoint","type":"tuple","internalType":"struct BottomUpCheckpoint","components":[{"name":"subnetID","type":"tuple","internalType":"struct SubnetID","components":[{"name":"root","type":"uint64","internalType":"uint64"},{"name":"route","type":"address[]","internalType":"address[]"}]},{"name":"blockHeight","type":"uint64","internalType":"uint64"},{"name":"blockHash","type":"bytes32","internalType":"bytes32"},{"name":"nextConfigurationNumber","type":"uint64","internalType":"uint64"},{"name":"crossMessagesHash","type":"bytes32","internalType":"bytes32"}]}],"stateMutability":"view"},{"type":"function","name":"bottomUpCheckpointHashAtEpoch","inputs":[{"name":"epoch","type":"uint64","internalType":"uint64"}],"outputs":[{"name":"","type":"bool","internalType":"bool"},{"name":"","type":"bytes32","internalType":"bytes32"}],"stateMutability":"view"},{"type":"function","name":"consensus","inputs":[],"outputs":[{"name":"","type":"uint8","internalType":"enum ConsensusType"}],"stateMutability":"view"},{"type":"function","name":"crossMsgsHash","inputs":[{"name":"messages","type":"tuple[]","internalType":"struct CrossMsg[]","components":[{"name":"message","type":"tuple","internalType":"struct StorableMsg","components":[{"name":"from","type":"tuple","internalType":"struct IPCAddress","components":[{"name":"subnetId","type":"tuple","internalType":"struct SubnetID","components":[{"name":"root","type":"uint64","internalType":"uint64"},{"name":"route","type":"address[]","internalType":"address[]"}]},{"name":"rawAddress","type":"tuple","internalType":"struct FvmAddress","components":[{"name":"addrType","type":"uint8","internalType":"uint8"},{"name":"payload","type":"bytes","internalType":"bytes"}]}]},{"name":"to","type":"tuple","internalType":"struct IPCAddress","components":[{"name":"subnetId","type":"tuple","internalType":"struct SubnetID","components":[{"name":"root","type":"uint64","internalType":"uint64"},{"name":"route","type":"address[]","internalType":"address[]"}]},{"name":"rawAddress","type":"tuple","internalType":"struct FvmAddress","components":[{"name":"addrType","type":"uint8","internalType":"uint8"},{"name":"payload","type":"bytes","internalType":"bytes"}]}]},{"name":"value","type":"uint256","internalType":"uint256"},{"name":"nonce","type":"uint64","internalType":"uint64"},{"name":"method","type":"bytes4","internalType":"bytes4"},{"name":"params","type":"bytes","internalType":"bytes"},{"name":"fee","type":"uint256","internalType":"uint256"}]},{"name":"wrapped","type":"bool","internalType":"bool"}]}],"outputs":[{"name":"","type":"bytes32","internalType":"bytes32"}],"stateMutability":"pure"},{"type":"function","name":"genesisBalances","inputs":[],"outputs":[{"name":"","type":"address[]","internalType":"address[]"},{"name":"","type":"uint256[]","internalType":"uint256[]"}],"stateMutability":"view"},{"type":"function","name":"genesisCircSupply","inputs":[],"outputs":[{"name":"","type":"uint256","internalType":"uint256"}],"stateMutability":"view"},{"type":"function","name":"genesisValidators","inputs":[],"outputs":[{"name":"","type":"tuple[]","internalType":"struct Validator[]","components":[{"name":"weight","type":"uint256","internalType":"uint256"},{"name":"addr","type":"address","internalType":"address"},{"name":"metadata","type":"bytes","internalType":"bytes"}]}],"stateMutability":"view"},{"type":"function","name":"getActiveValidatorsNumber","inputs":[],"outputs":[{"name":"","type":"uint16","internalType":"uint16"}],"stateMutability":"view"},{"type":"function","name":"getBootstrapNodes","inputs":[],"outputs":[{"name":"","type":"string[]","internalType":"string[]"}],"stateMutability":"view"},{"type":"function","name":"getConfigurationNumbers","inputs":[],"outputs":[{"name":"","type":"uint64","internalType":"uint64"},{"name":"","type":"uint64","internalType":"uint64"}],"stateMutability":"view"},{"type":"function","name":"getParent","inputs":[],"outputs":[{"name":"","type":"tuple","internalType":"struct SubnetID","components":[{"name":"root","type":"uint64","internalType":"uint64"},{"name":"route","type":"address[]","internalType":"address[]"}]}],"stateMutability":"view"},{"type":"function","name":"getRelayerReward","inputs":[{"name":"relayer","type":"address","internalType":"address"}],"outputs":[{"name":"","type":"uint256","internalType":"uint256"}],"stateMutability":"view"},{"type":"function","name":"getTotalConfirmedCollateral","inputs":[],"outputs":[{"name":"","type":"uint256","internalType":"uint256"}],"stateMutability":"view"},{"type":"function","name":"getTotalValidatorCollateral","inputs":[{"name":"validator","type":"address","internalType":"address"}],"outputs":[{"name":"","type":"uint256","internalType":"uint256"}],"stateMutability":"view"},{"type":"function","name":"getTotalValidatorsNumber","inputs":[],"outputs":[{"name":"","type":"uint16","internalType":"uint16"}],"stateMutability":"view"},{"type":"function","name":"getValidator","inputs":[{"name":"validatorAddress","type":"address","internalType":"address"}],"outputs":[{"name":"validator","type":"tuple","internalType":"struct ValidatorInfo","components":[{"name":"federatedPower","type":"uint256","internalType":"uint256"},{"name":"confirmedCollateral","type":"uint256","internalType":"uint256"},{"name":"totalCollateral","type":"uint256","internalType":"uint256"},{"name":"metadata","type":"bytes","internalType":"bytes"}]}],"stateMutability":"view"},{"type":"function","name":"hasSubmittedInLastBottomUpCheckpointHeight","inputs":[{"name":"validator","type":"address","internalType":"address"}],"outputs":[{"name":"","type":"bool","internalType":"bool"}],"stateMutability":"view"},{"type":"function","name":"ipcGatewayAddr","inputs":[],"outputs":[{"name":"","type":"address","internalType":"address"}],"stateMutability":"view"},{"type":"function","name":"isActiveValidator","inputs":[{"name":"validator","type":"address","internalType":"address"}],"outputs":[{"name":"","type":"bool","internalType":"bool"}],"stateMutability":"view"},{"type":"function","name":"isWaitingValidator","inputs":[{"name":"validator","type":"address","internalType":"address"}],"outputs":[{"name":"","type":"bool","internalType":"bool"}],"stateMutability":"view"},{"type":"function","name":"killed","inputs":[],"outputs":[{"name":"","type":"bool","internalType":"bool"}],"stateMutability":"view"},{"type":"function","name":"lastBottomUpCheckpointHeight","inputs":[],"outputs":[{"name":"","type":"uint64","internalType":"uint64"}],"stateMutability":"view"},{"type":"function","name":"majorityPercentage","inputs":[],"outputs":[{"name":"","type":"uint8","internalType":"uint8"}],"stateMutability":"view"},{"type":"function","name":"minActivationCollateral","inputs":[],"outputs":[{"name":"","type":"uint256","internalType":"uint256"}],"stateMutability":"view"},{"type":"function","name":"minCrossMsgFee","inputs":[],"outputs":[{"name":"","type":"uint256","internalType":"uint256"}],"stateMutability":"view"},{"type":"function","name":"minValidators","inputs":[],"outputs":[{"name":"","type":"uint64","internalType":"uint64"}],"stateMutability":"view"},{"type":"function","name":"powerScale","inputs":[],"outputs":[{"name":"","type":"int8","internalType":"int8"}],"stateMutability":"view"}],"bytecode":{"object":"0x6080806040523461001657611387908161001c8239f35b600080fdfe608060409080825260048036101561001657600080fd5b600091823560e01c90816306c4685314610c3157508063133f74ea14610bd85780631597bf7e14610b925780631904bb2e14610ac35780631f3a0e4114610a9c5780632bc31eb314610a4e578063332a5ac914610a2f5780633354c3e114610a0957806335142c8c146109e257806338a210b3146109b15780633da33241146107f957806340550a1c146107ba57806352d182d114610772578063599c7bd11461074d5780636704287c1461072e5780636cb2ecee146106ed57806372d0a0e0146106c557806380f760211461060b5780638ef3f761146105cc578063903e69301461049f578063948628a9146104805780639754b29e146104085780639e33bd02146103e9578063ad81e4d6146103c9578063b2bd295e14610391578063c5ab224114610368578063c7cda76214610345578063cfca28241461031c578063d081be03146102dd5763d92e8f121461016e57600080fd5b346102d957816003193601126102d957919060019081549361018f85610e2c565b9061019c85519283610df1565b85825260209081830196878686527fb10e2d527612073b26eecdfd717e6a320cf44b4afac2b0732d9fcbe2b7fa0cf686915b8383106102555750505050508451948186019282875251809352808601818460051b8801019794915b8483106102045787890388f35b9091929394958480610243839b603f198c8203018752858b518051835260018060a01b0385820151168584015201519060609081888201520190610c9b565b9a9801969594919091019201906101f7565b89959697999a989a51606081018181106001600160401b038211176102c657875282548152828c01546001600160a01b03168882015286518c926003928a926102ac816102a58160028b01610e43565b0382610df1565b8a82015281520192019201919099979998969594986101ce565b634e487b7160e01b8c526041875260248cfd5b5080fd5b8284346102d95760203660031901126102d95760209161ffff9082906001600160a01b03610309610c85565b1681526015855220541615159051908152f35b8284346102d957816003193601126102d95760095490516001600160a01b039091168152602090f35b8284346102d957816003193601126102d95760209061ffff601154169051908152f35b8284346102d957816003193601126102d9576007548151911c6001600160401b03168152602090f35b8284346102d95760203660031901126102d95760209181906001600160a01b036103b9610c85565b168152601c845220549051908152f35b8284346102d957816003193601126102d957601b549051910b8152602090f35b8284346102d957816003193601126102d9576020906006549051908152f35b50503461047d578060031936011261047d576104226110eb565b825191602080840190808552835180925280868601968360051b870101940192955b8287106104515785850386f35b90919293828061046d600193603f198a82030186528851610c9b565b9601920196019592919092610444565b80fd5b8284346102d957816003193601126102d9576020906002549051908152f35b50346102d957816003193601126102d95791908254906104be82610e2c565b936104cb84519586610df1565b828552601f1992836104dc82610e2c565b019060209136838901376104ef81610e2c565b926104fc87519485610df1565b81845261050882610e2c565b8484019601368737845b82811061056757505050806105308651978789988952880190610cdb565b928684038288015251928381520193925b82811061055057505050500390f35b835185528695509381019392810192600101610541565b60019082879698999a959752818060a01b03817f8a35acfbc15ff81a39ae7d344fd709f28e8600b4aa8c65c6b64bfe7fe36bd19b015416806105a98388610f00565b52865260038752898620546105be828a610f00565b520197969593949297610512565b5091346102d957816003193601126102d95760ff600d541690519160018210156105f857602083838152f35b634e487b7160e01b815260218452602490fd5b50503461047d578060031936011261047d57610625610e12565b5081519161063283610dbb565b600b546001600160401b031683528051600c8054808352908452602093848301917fdf6966c971051c3d54ec59162606531493a51404a002842f56009d7e5cf4a8c7915b868282106106a85788906106a48888610691818a0382610df1565b8385015251928284938452830190610d18565b0390f35b83546001600160a01b031685529093019260019283019201610676565b8284346102d957816003193601126102d9576020906001600160401b03600554169051908152f35b50503461047d57602036600319011261047d57506106a461071461070f610c56565b610f2a565b839291925193849315158452806020850152830190610d41565b8284346102d957816003193601126102d957602090600a549051908152f35b8284346102d957816003193601126102d95760209060ff60095460a01c169051908152f35b5091346102d957816003193601126102d95761ffff908160145416826011541601928284116107a75750602093505191168152f35b634e487b7160e01b815260118552602490fd5b8284346102d95760203660031901126102d95760209161ffff9082906001600160a01b036107e6610c85565b1681526012855220541615159051908152f35b5091903461047d57602092836003193601126102d9578035906001600160401b03908183116109ad57366023840112156109ad578201358181116109ad5760248301908060051b9360248536920101116109a9579093855193849288840196818986018b8a525260608086019386010193819681925b8484106108995750505050505061088f925003601f198101835282610df1565b5190209051908152f35b9193959092949650605f198982030187526108b48883611201565b803560de19823603018112156109a1579061090e8e6108fd8f9594846108f491019680875260e06108e58980611201565b91880152610120870190611267565b91860186611201565b848203603f19016060860152611267565b8d608090850135818501528661092660608701610c71565b1660a08501528401359063ffffffff60e01b82168092036109a557908f929161096f9060c0928387015261095d60a0880188611215565b878303603f190160e089015290611246565b9401356101008401520135908115158092036109a1576001928e9283809301529901970194019188969795939161086f565b8580fd5b8780fd5b8480fd5b8380fd5b50503461047d578060031936011261047d57506017548151906001600160401b03908181168352831c166020820152f35b8284346102d957816003193601126102d95760209060ff600d5460081c1690519015158152f35b8284346102d957816003193601126102d95760209061ffff600e5460081c169051908152f35b8284346102d957816003193601126102d957602090600f549051908152f35b8284346102d95760203660031901126102d957806020926001610a6f610c85565b6001600160401b03600554168352601d865283832090828060a01b03168352018452205415159051908152f35b8284346102d957816003193601126102d95760209060ff600d5460101c1690519015158152f35b50503461047d57602036600319011261047d57610b1990606080610ae5610c85565b92855190610af282610d8a565b80825280602083015286820152015260018060a01b03166000526010602052604060002090565b6106a46003835192610b2a84610d8a565b8054845260018101549460208501958652610b60600283015492828701938452610b5983518096819301610e43565b0384610df1565b6060850192835280519586956020875251602087015251908501525160608401525160808084015260a0830190610c9b565b8284346102d95760203660031901126102d9576020906002610bcf610bb5610c85565b6001600160a01b0316600090815260106020526040902090565b01549051908152f35b50503461047d57602036600319011261047d5750610bf761070f610c56565b8251610c2081610c1260208201946020865287830190610d41565b03601f198101835282610df1565b519020825191151582526020820152f35b8390346102d957816003193601126102d9576020906001600160401b03600754168152f35b600435906001600160401b0382168203610c6c57565b600080fd5b35906001600160401b0382168203610c6c57565b600435906001600160a01b0382168203610c6c57565b919082519283825260005b848110610cc7575050826000602080949584010152601f8019910116010190565b602081830181015184830182015201610ca6565b90815180825260208080930193019160005b828110610cfb575050505090565b83516001600160a01b031685529381019392810192600101610ced565b9060406020610d3e936001600160401b0381511684520151918160208201520190610cdb565b90565b90608080610d58845160a0855260a0850190610d18565b936001600160401b03806020830151166020860152604082015160408601526060820151166060850152015191015290565b608081019081106001600160401b03821117610da557604052565b634e487b7160e01b600052604160045260246000fd5b604081019081106001600160401b03821117610da557604052565b60a081019081106001600160401b03821117610da557604052565b90601f801991011681019081106001600160401b03821117610da557604052565b60405190610e1f82610dbb565b6060602083600081520152565b6001600160401b038111610da55760051b60200190565b80546000939260018083169383821c938515610ef6575b6020958686108114610ee057858552908115610ec15750600114610e80575b5050505050565b90939495506000929192528360002092846000945b838610610ead57505050500101903880808080610e79565b805485870183015294019385908201610e95565b60ff19168685015250505090151560051b010191503880808080610e79565b634e487b7160e01b600052602260045260246000fd5b93607f1693610e5a565b8051821015610f145760209160051b010190565b634e487b7160e01b600052603260045260246000fd5b906040805192610f3984610dd6565b610f41610e12565b84526000908160806020968288820152828682015282606082015201526001600160401b038091168252818552828220835195610f7d87610dd6565b845192610f8984610dbb565b80835416845260018084019487519485858854918281520197895285892090895b8181106110cf57505050600590610fc5878798990389610df1565b858301978852828c5284600282015416868d015260038101548a8d01528460048201541660608d0152015460808b01528751958693630c133d1360e31b8552856004860152606485019251166024850152519188604485015282518092528460848501930191885b8181106110ae57505050508190038173__$a0fe38a9a81205afccc10810b09a4d3f45$__5af49384156110a55750829361106a575b505050159190565b9080929350813d831161109e575b6110828183610df1565b810103126102d9575190811515820361047d5750388080611062565b503d611078565b513d84823e3d90fd5b83516001600160a01b0316855287968996509485019490930192820161102d565b82546001600160a01b03168a5298870198918501918501610faa565b601f546110f781610e2c565b90604061110681519384610df1565b818352601f1961111583610e2c565b0160005b8181106111f057505081156111eb578051808382526020809201601f600052817fa03837a25210ee280c2113ff4b77ca23440b19d4866cca721c801278fd08d8079160005b858882106111d557505061117492500382610df1565b60005b84811061118657505050505090565b6001906001600160a01b0361119b8285610f00565b5116600052601e84526102a56111b986600020875192838092610e43565b6111c38289610f00565b526111ce8188610f00565b5001611177565b845483526001948501948694509201910161115e565b505090565b806060602080938801015201611119565b9035603e1982360301811215610c6c570190565b9035601e1982360301811215610c6c5701602081359101916001600160401b038211610c6c578136038313610c6c57565b908060209392818452848401376000828201840152601f01601f1916010190565b906112728280611201565b906040815260808101926001600160401b03938461128f85610c71565b16604084015260209384810135601e1982360301811215610c6c5701908482359201958211610c6c578160051b36038613610c6c578190604060608601525260a08301949060005b8181106113295750505080836112ee920190611201565b908281850391015280359060ff8216809203610c6c578361131c604093928493610d3e975285810190611215565b9390948201520191611246565b90919586359060018060a01b038216809203610c6c57908152850195850191906001016112d756fea264697066735822122068dc9a13ac862bc21c731fa2d9ac3dad292854b0b4d8467759b5a98049e405cd64736f6c63430008130033","linkReferences":{"src/lib/SubnetIDHelper.sol":{"SubnetIDHelper":[{"start":4186,"length":20}]}}},"methodIdentifiers":{"activeValidatorsLimit()":"3354c3e1","bootstrapped()":"35142c8c","bottomUpCheckPeriod()":"06c46853","bottomUpCheckpointAtEpoch(uint64)":"6cb2ecee","bottomUpCheckpointHashAtEpoch(uint64)":"133f74ea","consensus()":"8ef3f761","crossMsgsHash(((((uint64,address[]),(uint8,bytes)),((uint64,address[]),(uint8,bytes)),uint256,uint64,bytes4,bytes,uint256),bool)[])":"3da33241","genesisBalances()":"903e6930","genesisCircSupply()":"948628a9","genesisValidators()":"d92e8f12","getActiveValidatorsNumber()":"c7cda762","getBootstrapNodes()":"9754b29e","getConfigurationNumbers()":"38a210b3","getParent()":"80f76021","getRelayerReward(address)":"b2bd295e","getTotalConfirmedCollateral()":"332a5ac9","getTotalValidatorCollateral(address)":"1597bf7e","getTotalValidatorsNumber()":"52d182d1","getValidator(address)":"1904bb2e","hasSubmittedInLastBottomUpCheckpointHeight(address)":"2bc31eb3","ipcGatewayAddr()":"cfca2824","isActiveValidator(address)":"40550a1c","isWaitingValidator(address)":"d081be03","killed()":"1f3a0e41","lastBottomUpCheckpointHeight()":"72d0a0e0","majorityPercentage()":"599c7bd1","minActivationCollateral()":"9e33bd02","minCrossMsgFee()":"6704287c","minValidators()":"c5ab2241","powerScale()":"ad81e4d6"},"id":74}