{"abi":[{"type":"function","name":"activeValidatorsLimit","inputs":[],"outputs":[{"name":"","type":"uint16","internalType":"uint16"}],"stateMutability":"view"},{"type":"function","name":"bootstrapped","inputs":[],"outputs":[{"name":"","type":"bool","internalType":"bool"}],"stateMutability":"view"},{"type":"function","name":"bottomUpCheckPeriod","inputs":[],"outputs":[{"name":"","type":"uint64","internalType":"uint64"}],"stateMutability":"view"},{"type":"function","name":"bottomUpCheckpointAtEpoch","inputs":[{"name":"epoch","type":"uint64","internalType":"uint64"}],"outputs":[{"name":"exists","type":"bool","internalType":"bool"},{"name":"checkpoint","type":"tuple","internalType":"struct BottomUpCheckpoint","components":[{"name":"subnetID","type":"tuple","internalType":"struct SubnetID","components":[{"name":"root","type":"uint64","internalType":"uint64"},{"name":"route","type":"address[]","internalType":"address[]"}]},{"name":"blockHeight","type":"uint64","internalType":"uint64"},{"name":"blockHash","type":"bytes32","internalType":"bytes32"},{"name":"nextConfigurationNumber","type":"uint64","internalType":"uint64"},{"name":"crossMessagesHash","type":"bytes32","internalType":"bytes32"}]}],"stateMutability":"view"},{"type":"function","name":"bottomUpCheckpointHashAtEpoch","inputs":[{"name":"epoch","type":"uint64","internalType":"uint64"}],"outputs":[{"name":"","type":"bool","internalType":"bool"},{"name":"","type":"bytes32","internalType":"bytes32"}],"stateMutability":"view"},{"type":"function","name":"consensus","inputs":[],"outputs":[{"name":"","type":"uint8","internalType":"enum ConsensusType"}],"stateMutability":"view"},{"type":"function","name":"crossMsgsHash","inputs":[{"name":"messages","type":"tuple[]","internalType":"struct CrossMsg[]","components":[{"name":"message","type":"tuple","internalType":"struct StorableMsg","components":[{"name":"from","type":"tuple","internalType":"struct IPCAddress","components":[{"name":"subnetId","type":"tuple","internalType":"struct SubnetID","components":[{"name":"root","type":"uint64","internalType":"uint64"},{"name":"route","type":"address[]","internalType":"address[]"}]},{"name":"rawAddress","type":"tuple","internalType":"struct FvmAddress","components":[{"name":"addrType","type":"uint8","internalType":"uint8"},{"name":"payload","type":"bytes","internalType":"bytes"}]}]},{"name":"to","type":"tuple","internalType":"struct IPCAddress","components":[{"name":"subnetId","type":"tuple","internalType":"struct SubnetID","components":[{"name":"root","type":"uint64","internalType":"uint64"},{"name":"route","type":"address[]","internalType":"address[]"}]},{"name":"rawAddress","type":"tuple","internalType":"struct FvmAddress","components":[{"name":"addrType","type":"uint8","internalType":"uint8"},{"name":"payload","type":"bytes","internalType":"bytes"}]}]},{"name":"value","type":"uint256","internalType":"uint256"},{"name":"nonce","type":"uint64","internalType":"uint64"},{"name":"method","type":"bytes4","internalType":"bytes4"},{"name":"params","type":"bytes","internalType":"bytes"},{"name":"fee","type":"uint256","internalType":"uint256"}]},{"name":"wrapped","type":"bool","internalType":"bool"}]}],"outputs":[{"name":"","type":"bytes32","internalType":"bytes32"}],"stateMutability":"pure"},{"type":"function","name":"genesisBalances","inputs":[],"outputs":[{"name":"","type":"address[]","internalType":"address[]"},{"name":"","type":"uint256[]","internalType":"uint256[]"}],"stateMutability":"view"},{"type":"function","name":"genesisCircSupply","inputs":[],"outputs":[{"name":"","type":"uint256","internalType":"uint256"}],"stateMutability":"view"},{"type":"function","name":"genesisValidators","inputs":[],"outputs":[{"name":"","type":"tuple[]","internalType":"struct Validator[]","components":[{"name":"weight","type":"uint256","internalType":"uint256"},{"name":"addr","type":"address","internalType":"address"},{"name":"metadata","type":"bytes","internalType":"bytes"}]}],"stateMutability":"view"},{"type":"function","name":"getActiveValidatorsNumber","inputs":[],"outputs":[{"name":"","type":"uint16","internalType":"uint16"}],"stateMutability":"view"},{"type":"function","name":"getBootstrapNodes","inputs":[],"outputs":[{"name":"","type":"string[]","internalType":"string[]"}],"stateMutability":"view"},{"type":"function","name":"getConfigurationNumbers","inputs":[],"outputs":[{"name":"","type":"uint64","internalType":"uint64"},{"name":"","type":"uint64","internalType":"uint64"}],"stateMutability":"view"},{"type":"function","name":"getParent","inputs":[],"outputs":[{"name":"","type":"tuple","internalType":"struct SubnetID","components":[{"name":"root","type":"uint64","internalType":"uint64"},{"name":"route","type":"address[]","internalType":"address[]"}]}],"stateMutability":"view"},{"type":"function","name":"getRelayerReward","inputs":[{"name":"relayer","type":"address","internalType":"address"}],"outputs":[{"name":"","type":"uint256","internalType":"uint256"}],"stateMutability":"view"},{"type":"function","name":"getTotalCollateral","inputs":[],"outputs":[{"name":"","type":"uint256","internalType":"uint256"}],"stateMutability":"view"},{"type":"function","name":"getTotalConfirmedCollateral","inputs":[],"outputs":[{"name":"","type":"uint256","internalType":"uint256"}],"stateMutability":"view"},{"type":"function","name":"getTotalValidatorCollateral","inputs":[{"name":"validator","type":"address","internalType":"address"}],"outputs":[{"name":"","type":"uint256","internalType":"uint256"}],"stateMutability":"view"},{"type":"function","name":"getTotalValidatorsNumber","inputs":[],"outputs":[{"name":"","type":"uint16","internalType":"uint16"}],"stateMutability":"view"},{"type":"function","name":"getValidator","inputs":[{"name":"validatorAddress","type":"address","internalType":"address"}],"outputs":[{"name":"validator","type":"tuple","internalType":"struct ValidatorInfo","components":[{"name":"federatedPower","type":"uint256","internalType":"uint256"},{"name":"confirmedCollateral","type":"uint256","internalType":"uint256"},{"name":"totalCollateral","type":"uint256","internalType":"uint256"},{"name":"metadata","type":"bytes","internalType":"bytes"}]}],"stateMutability":"view"},{"type":"function","name":"hasSubmittedInLastBottomUpCheckpointHeight","inputs":[{"name":"validator","type":"address","internalType":"address"}],"outputs":[{"name":"","type":"bool","internalType":"bool"}],"stateMutability":"view"},{"type":"function","name":"ipcGatewayAddr","inputs":[],"outputs":[{"name":"","type":"address","internalType":"address"}],"stateMutability":"view"},{"type":"function","name":"isActiveValidator","inputs":[{"name":"validator","type":"address","internalType":"address"}],"outputs":[{"name":"","type":"bool","internalType":"bool"}],"stateMutability":"view"},{"type":"function","name":"isWaitingValidator","inputs":[{"name":"validator","type":"address","internalType":"address"}],"outputs":[{"name":"","type":"bool","internalType":"bool"}],"stateMutability":"view"},{"type":"function","name":"killed","inputs":[],"outputs":[{"name":"","type":"bool","internalType":"bool"}],"stateMutability":"view"},{"type":"function","name":"lastBottomUpCheckpointHeight","inputs":[],"outputs":[{"name":"","type":"uint64","internalType":"uint64"}],"stateMutability":"view"},{"type":"function","name":"majorityPercentage","inputs":[],"outputs":[{"name":"","type":"uint8","internalType":"uint8"}],"stateMutability":"view"},{"type":"function","name":"minActivationCollateral","inputs":[],"outputs":[{"name":"","type":"uint256","internalType":"uint256"}],"stateMutability":"view"},{"type":"function","name":"minCrossMsgFee","inputs":[],"outputs":[{"name":"","type":"uint256","internalType":"uint256"}],"stateMutability":"view"},{"type":"function","name":"minValidators","inputs":[],"outputs":[{"name":"","type":"uint64","internalType":"uint64"}],"stateMutability":"view"},{"type":"function","name":"powerScale","inputs":[],"outputs":[{"name":"","type":"int8","internalType":"int8"}],"stateMutability":"view"}],"bytecode":{"object":"0x6080806040523461001657611396908161001c8239f35b600080fdfe608060409080825260048036101561001657600080fd5b600091823560e01c90816306c4685314610c2257508063133f74ea14610bc95780631597bf7e14610b835780631904bb2e14610ab45780631f3a0e4114610a8d5780632bc31eb314610a3f578063332a5ac9146102e85780633354c3e114610a1957806335142c8c146109f257806338a210b3146109c15780633da332411461080957806340550a1c146107ca57806352d182d114610782578063599c7bd11461075d5780636704287c1461073e5780636cb2ecee146106fd57806372d0a0e0146106d557806380f760211461061b5780638ef3f761146105dc578063903e6930146104af578063948628a9146104905780639754b29e146104185780639e33bd02146103f9578063ad81e4d6146103d9578063b2bd295e146103a1578063c5ab224114610378578063c7cda76214610355578063cfca28241461032c578063d081be03146102ed578063d6eb5910146102e85763d92e8f121461017957600080fd5b346102e457816003193601126102e457919060019081549361019a85610e3b565b906101a785519283610e00565b85825260209081830196878686527fb10e2d527612073b26eecdfd717e6a320cf44b4afac2b0732d9fcbe2b7fa0cf686915b8383106102605750505050508451948186019282875251809352808601818460051b8801019794915b84831061020f5787890388f35b909192939495848061024e839b603f198c8203018752858b518051835260018060a01b0385820151168584015201519060609081888201520190610c8c565b9a980196959491909101920190610202565b89959697999a989a51606081018181106001600160401b038211176102d157875282548152828c01546001600160a01b03168882015286518c926003928a926102b7816102b08160028b01610e52565b0382610e00565b8a82015281520192019201919099979998969594986101d9565b634e487b7160e01b8c526041875260248cfd5b5080fd5b610ccc565b8284346102e45760203660031901126102e45760209161ffff9082906001600160a01b03610319610c76565b1681526015855220541615159051908152f35b8284346102e457816003193601126102e45760095490516001600160a01b039091168152602090f35b8284346102e457816003193601126102e45760209061ffff601154169051908152f35b8284346102e457816003193601126102e4576007548151911c6001600160401b03168152602090f35b8284346102e45760203660031901126102e45760209181906001600160a01b036103c9610c76565b168152601c845220549051908152f35b8284346102e457816003193601126102e457601b549051910b8152602090f35b8284346102e457816003193601126102e4576020906006549051908152f35b50503461048d578060031936011261048d576104326110fa565b825191602080840190808552835180925280868601968360051b870101940192955b8287106104615785850386f35b90919293828061047d600193603f198a82030186528851610c8c565b9601920196019592919092610454565b80fd5b8284346102e457816003193601126102e4576020906002549051908152f35b50346102e457816003193601126102e45791908254906104ce82610e3b565b936104db84519586610e00565b828552601f1992836104ec82610e3b565b019060209136838901376104ff81610e3b565b9261050c87519485610e00565b81845261051882610e3b565b8484019601368737845b82811061057757505050806105408651978789988952880190610cea565b928684038288015251928381520193925b82811061056057505050500390f35b835185528695509381019392810192600101610551565b60019082879698999a959752818060a01b03817f8a35acfbc15ff81a39ae7d344fd709f28e8600b4aa8c65c6b64bfe7fe36bd19b015416806105b98388610f0f565b52865260038752898620546105ce828a610f0f565b520197969593949297610522565b5091346102e457816003193601126102e45760ff600d5416905191600182101561060857602083838152f35b634e487b7160e01b815260218452602490fd5b50503461048d578060031936011261048d57610635610e21565b5081519161064283610dca565b600b546001600160401b031683528051600c8054808352908452602093848301917fdf6966c971051c3d54ec59162606531493a51404a002842f56009d7e5cf4a8c7915b868282106106b85788906106b488886106a1818a0382610e00565b8385015251928284938452830190610d27565b0390f35b83546001600160a01b031685529093019260019283019201610686565b8284346102e457816003193601126102e4576020906001600160401b03600554169051908152f35b50503461048d57602036600319011261048d57506106b461072461071f610c47565b610f39565b839291925193849315158452806020850152830190610d50565b8284346102e457816003193601126102e457602090600a549051908152f35b8284346102e457816003193601126102e45760209060ff60095460a01c169051908152f35b5091346102e457816003193601126102e45761ffff908160145416826011541601928284116107b75750602093505191168152f35b634e487b7160e01b815260118552602490fd5b8284346102e45760203660031901126102e45760209161ffff9082906001600160a01b036107f6610c76565b1681526012855220541615159051908152f35b5091903461048d57602092836003193601126102e4578035906001600160401b03908183116109bd57366023840112156109bd578201358181116109bd5760248301908060051b9360248536920101116109b9579093855193849288840196818986018b8a525260608086019386010193819681925b8484106108a95750505050505061089f925003601f198101835282610e00565b5190209051908152f35b9193959092949650605f198982030187526108c48883611210565b803560de19823603018112156109b1579061091e8e61090d8f95948461090491019680875260e06108f58980611210565b91880152610120870190611276565b91860186611210565b848203603f19016060860152611276565b8d608090850135818501528661093660608701610c62565b1660a08501528401359063ffffffff60e01b82168092036109b557908f929161097f9060c0928387015261096d60a0880188611224565b878303603f190160e089015290611255565b9401356101008401520135908115158092036109b1576001928e9283809301529901970194019188969795939161087f565b8580fd5b8780fd5b8480fd5b8380fd5b50503461048d578060031936011261048d57506017548151906001600160401b03908181168352831c166020820152f35b8284346102e457816003193601126102e45760209060ff600d5460081c1690519015158152f35b8284346102e457816003193601126102e45760209061ffff600e5460081c169051908152f35b8284346102e45760203660031901126102e457806020926001610a60610c76565b6001600160401b03600554168352601d865283832090828060a01b03168352018452205415159051908152f35b8284346102e457816003193601126102e45760209060ff600d5460101c1690519015158152f35b50503461048d57602036600319011261048d57610b0a90606080610ad6610c76565b92855190610ae382610d99565b80825280602083015286820152015260018060a01b03166000526010602052604060002090565b6106b46003835192610b1b84610d99565b8054845260018101549460208501958652610b51600283015492828701938452610b4a83518096819301610e52565b0384610e00565b6060850192835280519586956020875251602087015251908501525160608401525160808084015260a0830190610c8c565b8284346102e45760203660031901126102e4576020906002610bc0610ba6610c76565b6001600160a01b0316600090815260106020526040902090565b01549051908152f35b50503461048d57602036600319011261048d5750610be861071f610c47565b8251610c1181610c0360208201946020865287830190610d50565b03601f198101835282610e00565b519020825191151582526020820152f35b8390346102e457816003193601126102e4576020906001600160401b03600754168152f35b600435906001600160401b0382168203610c5d57565b600080fd5b35906001600160401b0382168203610c5d57565b600435906001600160a01b0382168203610c5d57565b919082519283825260005b848110610cb8575050826000602080949584010152601f8019910116010190565b602081830181015184830182015201610c97565b34610c5d576000366003190112610c5d576020600f54604051908152f35b90815180825260208080930193019160005b828110610d0a575050505090565b83516001600160a01b031685529381019392810192600101610cfc565b9060406020610d4d936001600160401b0381511684520151918160208201520190610cea565b90565b90608080610d67845160a0855260a0850190610d27565b936001600160401b03806020830151166020860152604082015160408601526060820151166060850152015191015290565b608081019081106001600160401b03821117610db457604052565b634e487b7160e01b600052604160045260246000fd5b604081019081106001600160401b03821117610db457604052565b60a081019081106001600160401b03821117610db457604052565b90601f801991011681019081106001600160401b03821117610db457604052565b60405190610e2e82610dca565b6060602083600081520152565b6001600160401b038111610db45760051b60200190565b80546000939260018083169383821c938515610f05575b6020958686108114610eef57858552908115610ed05750600114610e8f575b5050505050565b90939495506000929192528360002092846000945b838610610ebc57505050500101903880808080610e88565b805485870183015294019385908201610ea4565b60ff19168685015250505090151560051b010191503880808080610e88565b634e487b7160e01b600052602260045260246000fd5b93607f1693610e69565b8051821015610f235760209160051b010190565b634e487b7160e01b600052603260045260246000fd5b906040805192610f4884610de5565b610f50610e21565b84526000908160806020968288820152828682015282606082015201526001600160401b038091168252818552828220835195610f8c87610de5565b845192610f9884610dca565b80835416845260018084019487519485858854918281520197895285892090895b8181106110de57505050600590610fd4878798990389610e00565b858301978852828c5284600282015416868d015260038101548a8d01528460048201541660608d0152015460808b01528751958693630c133d1360e31b8552856004860152606485019251166024850152519188604485015282518092528460848501930191885b8181106110bd57505050508190038173__$a0fe38a9a81205afccc10810b09a4d3f45$__5af49384156110b457508293611079575b505050159190565b9080929350813d83116110ad575b6110918183610e00565b810103126102e4575190811515820361048d5750388080611071565b503d611087565b513d84823e3d90fd5b83516001600160a01b0316855287968996509485019490930192820161103c565b82546001600160a01b03168a5298870198918501918501610fb9565b601f5461110681610e3b565b90604061111581519384610e00565b818352601f1961112483610e3b565b0160005b8181106111ff57505081156111fa578051808382526020809201601f600052817fa03837a25210ee280c2113ff4b77ca23440b19d4866cca721c801278fd08d8079160005b858882106111e457505061118392500382610e00565b60005b84811061119557505050505090565b6001906001600160a01b036111aa8285610f0f565b5116600052601e84526102b06111c886600020875192838092610e52565b6111d28289610f0f565b526111dd8188610f0f565b5001611186565b845483526001948501948694509201910161116d565b505090565b806060602080938801015201611128565b9035603e1982360301811215610c5d570190565b9035601e1982360301811215610c5d5701602081359101916001600160401b038211610c5d578136038313610c5d57565b908060209392818452848401376000828201840152601f01601f1916010190565b906112818280611210565b906040815260808101926001600160401b03938461129e85610c62565b16604084015260209384810135601e1982360301811215610c5d5701908482359201958211610c5d578160051b36038613610c5d578190604060608601525260a08301949060005b8181106113385750505080836112fd920190611210565b908281850391015280359060ff8216809203610c5d578361132b604093928493610d4d975285810190611224565b9390948201520191611255565b90919586359060018060a01b038216809203610c5d57908152850195850191906001016112e656fea2646970667358221220c383680a344fd404d72c6ee234c295c6f2fc5d3ae2af0d19aecc84fa66d3a4da64736f6c63430008130033","linkReferences":{"src/lib/SubnetIDHelper.sol":{"SubnetIDHelper":[{"start":4201,"length":20}]}}},"methodIdentifiers":{"activeValidatorsLimit()":"3354c3e1","bootstrapped()":"35142c8c","bottomUpCheckPeriod()":"06c46853","bottomUpCheckpointAtEpoch(uint64)":"6cb2ecee","bottomUpCheckpointHashAtEpoch(uint64)":"133f74ea","consensus()":"8ef3f761","crossMsgsHash(((((uint64,address[]),(uint8,bytes)),((uint64,address[]),(uint8,bytes)),uint256,uint64,bytes4,bytes,uint256),bool)[])":"3da33241","genesisBalances()":"903e6930","genesisCircSupply()":"948628a9","genesisValidators()":"d92e8f12","getActiveValidatorsNumber()":"c7cda762","getBootstrapNodes()":"9754b29e","getConfigurationNumbers()":"38a210b3","getParent()":"80f76021","getRelayerReward(address)":"b2bd295e","getTotalCollateral()":"d6eb5910","getTotalConfirmedCollateral()":"332a5ac9","getTotalValidatorCollateral(address)":"1597bf7e","getTotalValidatorsNumber()":"52d182d1","getValidator(address)":"1904bb2e","hasSubmittedInLastBottomUpCheckpointHeight(address)":"2bc31eb3","ipcGatewayAddr()":"cfca2824","isActiveValidator(address)":"40550a1c","isWaitingValidator(address)":"d081be03","killed()":"1f3a0e41","lastBottomUpCheckpointHeight()":"72d0a0e0","majorityPercentage()":"599c7bd1","minActivationCollateral()":"9e33bd02","minCrossMsgFee()":"6704287c","minValidators()":"c5ab2241","powerScale()":"ad81e4d6"},"id":75}