{"abi":[{"type":"function","name":"activeValidatorsLimit","inputs":[],"outputs":[{"name":"","type":"uint16","internalType":"uint16"}],"stateMutability":"view"},{"type":"function","name":"bootstrapped","inputs":[],"outputs":[{"name":"","type":"bool","internalType":"bool"}],"stateMutability":"view"},{"type":"function","name":"bottomUpCheckPeriod","inputs":[],"outputs":[{"name":"","type":"uint64","internalType":"uint64"}],"stateMutability":"view"},{"type":"function","name":"bottomUpCheckpointAtEpoch","inputs":[{"name":"epoch","type":"uint64","internalType":"uint64"}],"outputs":[{"name":"exists","type":"bool","internalType":"bool"},{"name":"checkpoint","type":"tuple","internalType":"struct BottomUpCheckpoint","components":[{"name":"subnetID","type":"tuple","internalType":"struct SubnetID","components":[{"name":"root","type":"uint64","internalType":"uint64"},{"name":"route","type":"address[]","internalType":"address[]"}]},{"name":"blockHeight","type":"uint64","internalType":"uint64"},{"name":"blockHash","type":"bytes32","internalType":"bytes32"},{"name":"nextConfigurationNumber","type":"uint64","internalType":"uint64"},{"name":"crossMessagesHash","type":"bytes32","internalType":"bytes32"}]}],"stateMutability":"view"},{"type":"function","name":"bottomUpCheckpointHashAtEpoch","inputs":[{"name":"epoch","type":"uint64","internalType":"uint64"}],"outputs":[{"name":"","type":"bool","internalType":"bool"},{"name":"","type":"bytes32","internalType":"bytes32"}],"stateMutability":"view"},{"type":"function","name":"consensus","inputs":[],"outputs":[{"name":"","type":"uint8","internalType":"enum ConsensusType"}],"stateMutability":"view"},{"type":"function","name":"crossMsgsHash","inputs":[{"name":"messages","type":"tuple[]","internalType":"struct CrossMsg[]","components":[{"name":"message","type":"tuple","internalType":"struct StorableMsg","components":[{"name":"from","type":"tuple","internalType":"struct IPCAddress","components":[{"name":"subnetId","type":"tuple","internalType":"struct SubnetID","components":[{"name":"root","type":"uint64","internalType":"uint64"},{"name":"route","type":"address[]","internalType":"address[]"}]},{"name":"rawAddress","type":"tuple","internalType":"struct FvmAddress","components":[{"name":"addrType","type":"uint8","internalType":"uint8"},{"name":"payload","type":"bytes","internalType":"bytes"}]}]},{"name":"to","type":"tuple","internalType":"struct IPCAddress","components":[{"name":"subnetId","type":"tuple","internalType":"struct SubnetID","components":[{"name":"root","type":"uint64","internalType":"uint64"},{"name":"route","type":"address[]","internalType":"address[]"}]},{"name":"rawAddress","type":"tuple","internalType":"struct FvmAddress","components":[{"name":"addrType","type":"uint8","internalType":"uint8"},{"name":"payload","type":"bytes","internalType":"bytes"}]}]},{"name":"value","type":"uint256","internalType":"uint256"},{"name":"nonce","type":"uint64","internalType":"uint64"},{"name":"method","type":"bytes4","internalType":"bytes4"},{"name":"params","type":"bytes","internalType":"bytes"},{"name":"fee","type":"uint256","internalType":"uint256"}]},{"name":"wrapped","type":"bool","internalType":"bool"}]}],"outputs":[{"name":"","type":"bytes32","internalType":"bytes32"}],"stateMutability":"pure"},{"type":"function","name":"genesisBalances","inputs":[],"outputs":[{"name":"","type":"address[]","internalType":"address[]"},{"name":"","type":"uint256[]","internalType":"uint256[]"}],"stateMutability":"view"},{"type":"function","name":"genesisCircSupply","inputs":[],"outputs":[{"name":"","type":"uint256","internalType":"uint256"}],"stateMutability":"view"},{"type":"function","name":"genesisValidators","inputs":[],"outputs":[{"name":"","type":"tuple[]","internalType":"struct Validator[]","components":[{"name":"weight","type":"uint256","internalType":"uint256"},{"name":"addr","type":"address","internalType":"address"},{"name":"metadata","type":"bytes","internalType":"bytes"}]}],"stateMutability":"view"},{"type":"function","name":"getActiveValidatorsNumber","inputs":[],"outputs":[{"name":"","type":"uint16","internalType":"uint16"}],"stateMutability":"view"},{"type":"function","name":"getBootstrapNodes","inputs":[],"outputs":[{"name":"","type":"string[]","internalType":"string[]"}],"stateMutability":"view"},{"type":"function","name":"getConfigurationNumbers","inputs":[],"outputs":[{"name":"","type":"uint64","internalType":"uint64"},{"name":"","type":"uint64","internalType":"uint64"}],"stateMutability":"view"},{"type":"function","name":"getParent","inputs":[],"outputs":[{"name":"","type":"tuple","internalType":"struct SubnetID","components":[{"name":"root","type":"uint64","internalType":"uint64"},{"name":"route","type":"address[]","internalType":"address[]"}]}],"stateMutability":"view"},{"type":"function","name":"getRelayerReward","inputs":[{"name":"relayer","type":"address","internalType":"address"}],"outputs":[{"name":"","type":"uint256","internalType":"uint256"}],"stateMutability":"view"},{"type":"function","name":"getTotalConfirmedCollateral","inputs":[],"outputs":[{"name":"","type":"uint256","internalType":"uint256"}],"stateMutability":"view"},{"type":"function","name":"getTotalValidatorCollateral","inputs":[{"name":"validator","type":"address","internalType":"address"}],"outputs":[{"name":"","type":"uint256","internalType":"uint256"}],"stateMutability":"view"},{"type":"function","name":"getTotalValidatorsNumber","inputs":[],"outputs":[{"name":"","type":"uint16","internalType":"uint16"}],"stateMutability":"view"},{"type":"function","name":"getValidator","inputs":[{"name":"validatorAddress","type":"address","internalType":"address"}],"outputs":[{"name":"validator","type":"tuple","internalType":"struct ValidatorInfo","components":[{"name":"confirmedCollateral","type":"uint256","internalType":"uint256"},{"name":"totalCollateral","type":"uint256","internalType":"uint256"},{"name":"metadata","type":"bytes","internalType":"bytes"}]}],"stateMutability":"view"},{"type":"function","name":"hasSubmittedInLastBottomUpCheckpointHeight","inputs":[{"name":"validator","type":"address","internalType":"address"}],"outputs":[{"name":"","type":"bool","internalType":"bool"}],"stateMutability":"view"},{"type":"function","name":"ipcGatewayAddr","inputs":[],"outputs":[{"name":"","type":"address","internalType":"address"}],"stateMutability":"view"},{"type":"function","name":"isActiveValidator","inputs":[{"name":"validator","type":"address","internalType":"address"}],"outputs":[{"name":"","type":"bool","internalType":"bool"}],"stateMutability":"view"},{"type":"function","name":"isWaitingValidator","inputs":[{"name":"validator","type":"address","internalType":"address"}],"outputs":[{"name":"","type":"bool","internalType":"bool"}],"stateMutability":"view"},{"type":"function","name":"killed","inputs":[],"outputs":[{"name":"","type":"bool","internalType":"bool"}],"stateMutability":"view"},{"type":"function","name":"lastBottomUpCheckpointHeight","inputs":[],"outputs":[{"name":"","type":"uint64","internalType":"uint64"}],"stateMutability":"view"},{"type":"function","name":"majorityPercentage","inputs":[],"outputs":[{"name":"","type":"uint8","internalType":"uint8"}],"stateMutability":"view"},{"type":"function","name":"minActivationCollateral","inputs":[],"outputs":[{"name":"","type":"uint256","internalType":"uint256"}],"stateMutability":"view"},{"type":"function","name":"minCrossMsgFee","inputs":[],"outputs":[{"name":"","type":"uint256","internalType":"uint256"}],"stateMutability":"view"},{"type":"function","name":"minValidators","inputs":[],"outputs":[{"name":"","type":"uint64","internalType":"uint64"}],"stateMutability":"view"},{"type":"function","name":"powerScale","inputs":[],"outputs":[{"name":"","type":"int8","internalType":"int8"}],"stateMutability":"view"}],"bytecode":{"object":"0x6080806040523461001657611343908161001c8239f35b600080fdfe60806040908082526004908136101561001757600080fd5b600091823560e01c91826306c4685314610bed57508163133f74ea14610b945781631597bf7e14610b4e5781631904bb2e14610a965781631f3a0e4114610a6f5781632bc31eb314610a21578163332a5ac914610a025781633354c3e1146109df57816335142c8c146109b857816338a210b3146109875781633da33241146107d057816340550a1c1461079157816352d182d114610749578163599c7bd1146107245781636704287c146107055781636cb2ecee146106c457816372d0a0e01461069c57816380f76021146105e25781638ef3f761146105a3578163903e69301461047557508063948628a9146104565780639754b29e146103e25780639e33bd02146103c3578063ad81e4d6146103a3578063b2bd295e1461036b578063c5ab224114610342578063c7cda7621461031f578063cfca2824146102f6578063d081be03146102b35763d92e8f121461017057600080fd5b346102b057806003193601126102b05790600180549261018f84610de8565b61019b84519182610dad565b848152828252602080820195837fb10e2d527612073b26eecdfd717e6a320cf44b4afac2b0732d9fcbe2b7fa0cf6885b83831061025157505050508451948186019282875251809352808601818460051b8801019794915b8483106102005787890388f35b909192939495848061023f839b603f198c8203018752858b518051835260018060a01b0385820151168584015201519060609081888201520190610c57565b9a9801969594919091019201906101f3565b96600385829b998b9798999b5161026781610d46565b85548152848601546001600160a01b03168382015288516102968161028f8160028b01610dff565b0382610dad565b8982015281520192019201919098969897959493976101cb565b80fd5b5090346102f25760203660031901126102f25760209161ffff9082906001600160a01b036102df610c41565b1681526015855220541615159051908152f35b5080fd5b5090346102f257816003193601126102f25760095490516001600160a01b039091168152602090f35b5090346102f257816003193601126102f25760209061ffff601154169051908152f35b5090346102f257816003193601126102f2576007548151911c6001600160401b03168152602090f35b5090346102f25760203660031901126102f25760209181906001600160a01b03610393610c41565b168152601c845220549051908152f35b5090346102f257816003193601126102f257601b549051910b8152602090f35b5090346102f257816003193601126102f2576020906006549051908152f35b50346102b057806003193601126102b0576103fb6110a7565b825191602080840190808552835180925280868601968360051b870101940192955b82871061042a5785850386f35b909192938280610446600193603f198a82030186528851610c57565b960192019601959291909261041d565b5090346102f257816003193601126102f2576020906002549051908152f35b9050346102f257816003193601126102f257919082549061049582610de8565b936104a284519586610dad565b828552601f1992836104b382610de8565b019060209136838901376104c681610de8565b926104d387519485610dad565b8184526104df82610de8565b8484019601368737845b82811061053e57505050806105078651978789988952880190610c97565b928684038288015251928381520193925b82811061052757505050500390f35b835185528695509381019392810192600101610518565b60019082879698999a959752818060a01b03817f8a35acfbc15ff81a39ae7d344fd709f28e8600b4aa8c65c6b64bfe7fe36bd19b015416806105808388610ebc565b5286526003875289862054610595828a610ebc565b5201979695939492976104e9565b8284346102f257816003193601126102f25760ff600d541690519160018210156105cf57602083838152f35b634e487b7160e01b815260218452602490fd5b5050346102b057806003193601126102b0576105fc610dce565b5081519161060983610d77565b600b546001600160401b031683528051600c8054808352908452602093848301917fdf6966c971051c3d54ec59162606531493a51404a002842f56009d7e5cf4a8c7915b8682821061067f57889061067b8888610668818a0382610dad565b8385015251928284938452830190610cd4565b0390f35b83546001600160a01b03168552909301926001928301920161064d565b8284346102f257816003193601126102f2576020906001600160401b03600554169051908152f35b5050346102b05760203660031901126102b0575061067b6106eb6106e6610c12565b610ee6565b839291925193849315158452806020850152830190610cfd565b8284346102f257816003193601126102f257602090600a549051908152f35b8284346102f257816003193601126102f25760209060ff60095460a01c169051908152f35b8284346102f257816003193601126102f25761ffff9081601454168260115416019282841161077e5750602093505191168152f35b634e487b7160e01b815260118552602490fd5b8284346102f25760203660031901126102f25760209161ffff9082906001600160a01b036107bd610c41565b1681526012855220541615159051908152f35b8383346102b057602092836003193601126102f2578035906001600160401b03908183116109835736602384011215610983578201358181116109835760248301908060051b93602485369201011161097f579093855193849288840196818986018b8a525260608086019386010193819681925b84841061086f57505050505050610865925003601f198101835282610dad565b5190209051908152f35b9193959092949650605f1989820301875261088a88836111bd565b803560de198236030181121561097757906108e48e6108d38f9594846108ca91019680875260e06108bb89806111bd565b91880152610120870190611223565b918601866111bd565b848203603f19016060860152611223565b8d60809085013581850152866108fc60608701610c2d565b1660a08501528401359063ffffffff60e01b821680920361097b57908f92916109459060c0928387015261093360a08801886111d1565b878303603f190160e089015290611202565b940135610100840152013590811515809203610977576001928e92838093015299019701940191889697959391610845565b8580fd5b8780fd5b8480fd5b8380fd5b5050346102b057806003193601126102b057506017548151906001600160401b03908181168352831c166020820152f35b8284346102f257816003193601126102f25760209060ff600d5460081c1690519015158152f35b8284346102f257816003193601126102f25760209061ffff600e54169051908152f35b8284346102f257816003193601126102f257602090600f549051908152f35b8284346102f25760203660031901126102f257806020926001610a42610c41565b6001600160401b03600554168352601d865283832090828060a01b03168352018452205415159051908152f35b8284346102f257816003193601126102f25760209060ff600d5460181c1690519015158152f35b5050346102b05760203660031901126102b057610ae790606083610ab8610c41565b92815190610ac582610d46565b8082526020820152015260018060a01b03166000526010602052604060002090565b9061067b6002825192610af984610d46565b84548452610b2360018601549560208601968752610b1c83518095819301610dff565b0383610dad565b8084019182528051948594602086525160208601525190840152516060808401526080830190610c57565b8284346102f25760203660031901126102f2576020906001610b8b610b71610c41565b6001600160a01b0316600090815260106020526040902090565b01549051908152f35b5050346102b05760203660031901126102b05750610bb36106e6610c12565b8251610bdc81610bce60208201946020865287830190610cfd565b03601f198101835282610dad565b519020825191151582526020820152f35b8390346102f257816003193601126102f2576020906001600160401b03600754168152f35b600435906001600160401b0382168203610c2857565b600080fd5b35906001600160401b0382168203610c2857565b600435906001600160a01b0382168203610c2857565b919082519283825260005b848110610c83575050826000602080949584010152601f8019910116010190565b602081830181015184830182015201610c62565b90815180825260208080930193019160005b828110610cb7575050505090565b83516001600160a01b031685529381019392810192600101610ca9565b9060406020610cfa936001600160401b0381511684520151918160208201520190610c97565b90565b90608080610d14845160a0855260a0850190610cd4565b936001600160401b03806020830151166020860152604082015160408601526060820151166060850152015191015290565b606081019081106001600160401b03821117610d6157604052565b634e487b7160e01b600052604160045260246000fd5b604081019081106001600160401b03821117610d6157604052565b60a081019081106001600160401b03821117610d6157604052565b90601f801991011681019081106001600160401b03821117610d6157604052565b60405190610ddb82610d77565b6060602083600081520152565b6001600160401b038111610d615760051b60200190565b80546000939260018083169383821c938515610eb2575b6020958686108114610e9c57858552908115610e7d5750600114610e3c575b5050505050565b90939495506000929192528360002092846000945b838610610e6957505050500101903880808080610e35565b805485870183015294019385908201610e51565b60ff19168685015250505090151560051b010191503880808080610e35565b634e487b7160e01b600052602260045260246000fd5b93607f1693610e16565b8051821015610ed05760209160051b010190565b634e487b7160e01b600052603260045260246000fd5b906040805192610ef584610d92565b610efd610dce565b84526000908160806020968288820152828682015282606082015201526001600160401b038091168252818552828220835195610f3987610d92565b845192610f4584610d77565b80835416845260018084019487519485858854918281520197895285892090895b81811061108b57505050600590610f81878798990389610dad565b858301978852828c5284600282015416868d015260038101548a8d01528460048201541660608d0152015460808b01528751958693630c133d1360e31b8552856004860152606485019251166024850152519188604485015282518092528460848501930191885b81811061106a57505050508190038173__$a0fe38a9a81205afccc10810b09a4d3f45$__5af493841561106157508293611026575b505050159190565b9080929350813d831161105a575b61103e8183610dad565b810103126102f257519081151582036102b0575038808061101e565b503d611034565b513d84823e3d90fd5b83516001600160a01b03168552879689965094850194909301928201610fe9565b82546001600160a01b03168a5298870198918501918501610f66565b601f546110b381610de8565b9060406110c281519384610dad565b818352601f196110d183610de8565b0160005b8181106111ac57505081156111a7578051808382526020809201601f600052817fa03837a25210ee280c2113ff4b77ca23440b19d4866cca721c801278fd08d8079160005b8588821061119157505061113092500382610dad565b60005b84811061114257505050505090565b6001906001600160a01b036111578285610ebc565b5116600052601e845261028f61117586600020875192838092610dff565b61117f8289610ebc565b5261118a8188610ebc565b5001611133565b845483526001948501948694509201910161111a565b505090565b8060606020809388010152016110d5565b9035603e1982360301811215610c28570190565b9035601e1982360301811215610c285701602081359101916001600160401b038211610c28578136038313610c2857565b908060209392818452848401376000828201840152601f01601f1916010190565b9061122e82806111bd565b906040815260808101926001600160401b03938461124b85610c2d565b16604084015260209384810135601e1982360301811215610c285701908482359201958211610c28578160051b36038613610c28578190604060608601525260a08301949060005b8181106112e55750505080836112aa9201906111bd565b908281850391015280359060ff8216809203610c2857836112d8604093928493610cfa9752858101906111d1565b9390948201520191611202565b90919586359060018060a01b038216809203610c28579081528501958501919060010161129356fea2646970667358221220a3318c4a5a5464b0e031acd80297010a94a8f5e2c198a01cd8188a6ef821956564736f6c63430008130033","linkReferences":{"src/lib/SubnetIDHelper.sol":{"SubnetIDHelper":[{"start":4118,"length":20}]}}},"methodIdentifiers":{"activeValidatorsLimit()":"3354c3e1","bootstrapped()":"35142c8c","bottomUpCheckPeriod()":"06c46853","bottomUpCheckpointAtEpoch(uint64)":"6cb2ecee","bottomUpCheckpointHashAtEpoch(uint64)":"133f74ea","consensus()":"8ef3f761","crossMsgsHash(((((uint64,address[]),(uint8,bytes)),((uint64,address[]),(uint8,bytes)),uint256,uint64,bytes4,bytes,uint256),bool)[])":"3da33241","genesisBalances()":"903e6930","genesisCircSupply()":"948628a9","genesisValidators()":"d92e8f12","getActiveValidatorsNumber()":"c7cda762","getBootstrapNodes()":"9754b29e","getConfigurationNumbers()":"38a210b3","getParent()":"80f76021","getRelayerReward(address)":"b2bd295e","getTotalConfirmedCollateral()":"332a5ac9","getTotalValidatorCollateral(address)":"1597bf7e","getTotalValidatorsNumber()":"52d182d1","getValidator(address)":"1904bb2e","hasSubmittedInLastBottomUpCheckpointHeight(address)":"2bc31eb3","ipcGatewayAddr()":"cfca2824","isActiveValidator(address)":"40550a1c","isWaitingValidator(address)":"d081be03","killed()":"1f3a0e41","lastBottomUpCheckpointHeight()":"72d0a0e0","majorityPercentage()":"599c7bd1","minActivationCollateral()":"9e33bd02","minCrossMsgFee()":"6704287c","minValidators()":"c5ab2241","powerScale()":"ad81e4d6"},"id":74}