{"abi":[{"type":"function","name":"getNum","inputs":[],"outputs":[{"name":"","type":"uint8","internalType":"uint8"}],"stateMutability":"pure"}],"bytecode":{"object":"0x608080604052346014576079908161001a8239f35b600080fdfe6080806040526004361015601257600080fd5b600090813560e01c6367e0badb14602857600080fd5b34603f5781600319360112603f5780600760209252f35b5080fdfea26469706673582212202b85d5006bdbb702724757406e7510d74b6d1111ab0abf357bb27f7a3e1b286864736f6c63430008130033","linkReferences":{}},"methodIdentifiers":{"getNum()":"67e0badb"},"id":82}