{"abi":[{"type":"function","name":"diamondCut","inputs":[{"name":"_diamondCut","type":"tuple[]","internalType":"struct IDiamond.FacetCut[]","components":[{"name":"facetAddress","type":"address","internalType":"address"},{"name":"action","type":"uint8","internalType":"enum IDiamond.FacetCutAction"},{"name":"functionSelectors","type":"bytes4[]","internalType":"bytes4[]"}]},{"name":"_init","type":"address","internalType":"address"},{"name":"_calldata","type":"bytes","internalType":"bytes"}],"outputs":[],"stateMutability":"nonpayable"},{"type":"event","name":"DiamondCut","inputs":[{"name":"_diamondCut","type":"tuple[]","indexed":false,"internalType":"struct IDiamond.FacetCut[]","components":[{"name":"facetAddress","type":"address","internalType":"address"},{"name":"action","type":"uint8","internalType":"enum IDiamond.FacetCutAction"},{"name":"functionSelectors","type":"bytes4[]","internalType":"bytes4[]"}]},{"name":"_init","type":"address","indexed":false,"internalType":"address"},{"name":"_calldata","type":"bytes","indexed":false,"internalType":"bytes"}],"anonymous":false},{"type":"error","name":"CannotAddFunctionToDiamondThatAlreadyExists","inputs":[{"name":"_selector","type":"bytes4","internalType":"bytes4"}]},{"type":"error","name":"CannotAddSelectorsToZeroAddress","inputs":[{"name":"_selectors","type":"bytes4[]","internalType":"bytes4[]"}]},{"type":"error","name":"CannotRemoveFunctionThatDoesNotExist","inputs":[{"name":"_selector","type":"bytes4","internalType":"bytes4"}]},{"type":"error","name":"CannotRemoveImmutableFunction","inputs":[{"name":"_selector","type":"bytes4","internalType":"bytes4"}]},{"type":"error","name":"CannotReplaceFunctionThatDoesNotExists","inputs":[{"name":"_selector","type":"bytes4","internalType":"bytes4"}]},{"type":"error","name":"CannotReplaceFunctionWithTheSameFunctionFromTheSameFacet","inputs":[{"name":"_selector","type":"bytes4","internalType":"bytes4"}]},{"type":"error","name":"CannotReplaceFunctionsFromFacetWithZeroAddress","inputs":[{"name":"_selectors","type":"bytes4[]","internalType":"bytes4[]"}]},{"type":"error","name":"CannotReplaceImmutableFunction","inputs":[{"name":"_selector","type":"bytes4","internalType":"bytes4"}]},{"type":"error","name":"IncorrectFacetCutAction","inputs":[{"name":"_action","type":"uint8","internalType":"enum IDiamond.FacetCutAction"}]},{"type":"error","name":"InitializationFunctionReverted","inputs":[{"name":"_initializationContractAddress","type":"address","internalType":"address"},{"name":"_calldata","type":"bytes","internalType":"bytes"}]},{"type":"error","name":"NoBytecodeAtAddress","inputs":[{"name":"_contractAddress","type":"address","internalType":"address"},{"name":"_message","type":"string","internalType":"string"}]},{"type":"error","name":"NoSelectorsProvidedForFacetForCut","inputs":[{"name":"_facetAddress","type":"address","internalType":"address"}]},{"type":"error","name":"NotOwner","inputs":[]},{"type":"error","name":"RemoveFacetAddressMustBeZeroAddress","inputs":[{"name":"_facetAddress","type":"address","internalType":"address"}]}],"bytecode":{"object":"0x6080806040523461001657610d14908161001c8239f35b600080fdfe608080604052600436101561001357600080fd5b60003560e01c631f931c1c1461002857600080fd5b346109d05760603660031901126109d05767ffffffffffffffff600435116109d0573660236004350112156109d057600435600401359067ffffffffffffffff82116109d0573660248360051b6004350101116109d0576024356001600160a01b03811690036109d05767ffffffffffffffff604435116109d0573660236044350112156109d05767ffffffffffffffff60443560040135116109d057366024604435600401356044350101116109d0577f806e0cbb9fce296bbc336a48f42bf1dbc69722d18d90d6fe705b7582c2bb4bd5546001600160a01b031633036109d5575061011c61011782610a4a565b610a24565b602081838152018092602460043501915b60248260051b600435010183106108995750505061015361011760443560040135610a62565b6044356004810135808352919291906024016020840137600060206044356004013584010152805160005b81811061029a575050604051906060820190606083525180915260809081830191808260051b85010195926000915b83831061020b576024356001600160a01b031660208701528588036040870152610209877f8faa70878671ccd212d20771b795c50af8fd3ff6cf27f4bde57e5d4de0aeb67388806101fe8d85610ab5565b0390a1602435610b86565b005b9091929396607f1986820301835287516020836040606085019360018060a01b0381511686526102418482015185880190610aa8565b015193606060408201528451809452019201906000905b80821061027757505050602080600192990193019301919392906101ad565b82516001600160e01b031916845260209384019390920191600190910190610258565b60406102a68285610a7e565b5101516001600160a01b036102bb8386610a7e565b515116908051156108805760206102d28487610a7e565b510151600381101561086a57806104e6575081156104c55761ffff600080516020610c9f8339815191525416610343610309610a04565b602181527f6469616d6f6e644375743a2041646420666163657420686173206e6f20636f646020820152606560f81b604082015284610c5f565b8151916000915b8383106103605750505050506001905b0161017e565b6001600160e01b03196103738484610a7e565b51166000818152600080516020610cbf83398151915260205260409020549091906001600160a01b03166104ac5761040c6103ac6109e4565b87815261ffff9290921660208084018281526000868152600080516020610cbf83398151915290925260409091209351845491516001600160b01b03199092166001600160a01b03919091161760a09190911b61ffff60a01b1617909255565b600080516020610c9f8339815191525491680100000000000000008310156104965761046d90610450600194858101600080516020610c9f83398151915255610b3a565b90919063ffffffff83549160031b9260e01c831b921b1916179055565b61ffff811461048057810192019161034a565b634e487b7160e01b600052601160045260246000fd5b634e487b7160e01b600052604160045260246000fd5b60405163ebbf5d0760e01b815260048101839052602490fd5b6040516302b8da0760e21b81529081906104e29060048301610af5565b0390fd5b600181036106415750811561062457610541610500610a04565b602881527f4c69624469616d6f6e644375743a205265706c61636520666163657420686173602082015267206e6f20636f646560c01b604082015283610c5f565b80519060005b82811061055a575050505060019061035a565b6001600160e01b031961056d8284610a7e565b51166000818152600080516020610cbf83398151915260205260409020546001600160a01b031630811461060b578581146105f257156105da576000908152600080516020610cbf8339815191526020526040902080546001600160a01b03191685179055600101610547565b60249060405190637479f93960e01b82526004820152fd5b604051631ac6ce8d60e11b815260048101839052602490fd5b604051632901806d60e11b815260048101839052602490fd5b60405163cd98a96f60e01b81529081906104e29060048301610af5565b6002810361084a5750600080516020610c9f833981519152549180610832575080519060005b82811061067a575050505060019061035a565b6001600160e01b031961068d8284610a7e565b51169081600052600080516020610cbf8339815191526020526040600020946106b46109e4565b95546001600160a01b03811680885260a09190911c61ffff166020880152156108195785516001600160a01b03163014610800578015610480576000190180958161ffff60208301511603610785575b5050600080516020610c9f8339815191525491821561076f576001926000190161072d81610b3a565b63ffffffff82549160031b1b19169055600080516020610c9f83398151915255600052600080516020610cbf8339815191526020526000604081205501610667565b634e487b7160e01b600052603160045260246000fd5b61ffff60206107966107f994610b3a565b90549060031b1c60e01b926107b384610450858585015116610b3a565b01516001600160e01b03199092166000908152600080516020610cbf83398151915260205260409020805461ffff60a01b19169190921660a01b61ffff60a01b16179055565b3880610704565b604051630df5fd6160e31b815260048101849052602490fd5b604051637a08a22d60e01b815260048101849052602490fd5b6024906040519063d091bc8160e01b82526004820152fd5b604051633ff4d20f60e11b8152602491610868906004830190610aa8565bfd5b634e487b7160e01b600052602160045260246000fd5b60405163e767f91f60e01b815260048101839052602490fd5b823567ffffffffffffffff81116109d05760606004358201360360231901126109d0576040519081606081011067ffffffffffffffff60608401111761049657606082016040526004358101602401356001600160a01b03811681036109d0578252600360448260043501013510156109d0576004358101604481013560208401526064013567ffffffffffffffff81116109d057366043828460043501010112156109d057602481836004350101013561095661011782610a4a565b9260208483815201903660448460051b868460043501010101116109d05760448482600435010101915b60448460051b86846004350101010183106109ad575050505050604082015281526020928301920161012d565b82356001600160e01b0319811690036109d0578235815260209283019201610980565b600080fd5b6330cd747160e01b8152600490fd5b604051906040820182811067ffffffffffffffff82111761049657604052565b604051906060820182811067ffffffffffffffff82111761049657604052565b6040519190601f01601f1916820167ffffffffffffffff81118382101761049657604052565b67ffffffffffffffff81116104965760051b60200190565b67ffffffffffffffff811161049657601f01601f191660200190565b8051821015610a925760209160051b010190565b634e487b7160e01b600052603260045260246000fd5b90600382101561086a5752565b919082519283825260005b848110610ae1575050826000602080949584010152601f8019910116010190565b602081830181015184830182015201610ac0565b6020908160408183019282815285518094520193019160005b828110610b1c575050505090565b83516001600160e01b03191685529381019392810192600101610b0e565b90600080516020610c9f8339815191528054831015610a9257600052601c8260031c7fb65beca8b6fa788bcb1528c2ab5f4dc6bc98e5896550baa013d8330fab0b86f4019260021b1690565b6001600160a01b03811691908215610c5a5760008091610be5610ba7610a04565b602581527f6469616d6f6e644375743a205f696e6974206164647265737320686173206e6f60208201526420636f646560d81b604082015282610c5f565b83519060208501905af4913d15610c52573d92610c0461011785610a62565b9384523d6000602086013e5b15610c1a57505050565b825115610c2957825160208401fd5b6104e260405192839263192105d760e01b84526004840152604060248401526044830190610ab5565b606092610c10565b505050565b803b15610c6a575050565b6040805163919834b960e01b81526001600160a01b03909216600483015260248201529081906104e2906044830190610ab556fe806e0cbb9fce296bbc336a48f42bf1dbc69722d18d90d6fe705b7582c2bb4bd3806e0cbb9fce296bbc336a48f42bf1dbc69722d18d90d6fe705b7582c2bb4bd2a2646970667358221220dfc9545f8f7121e6f756faa3af82eb336aaee62e7f49390d40c809bc467aff8164736f6c63430008130033","linkReferences":{}},"methodIdentifiers":{"diamondCut((address,uint8,bytes4[])[],address,bytes)":"1f931c1c"},"id":38}