{"abi":[{"type":"function","name":"appliedTopDownNonce","inputs":[],"outputs":[{"name":"","type":"uint64","internalType":"uint64"}],"stateMutability":"view"},{"type":"function","name":"bottomUpCheckPeriod","inputs":[],"outputs":[{"name":"","type":"uint256","internalType":"uint256"}],"stateMutability":"view"},{"type":"function","name":"bottomUpCheckpoint","inputs":[{"name":"e","type":"uint256","internalType":"uint256"}],"outputs":[{"name":"","type":"tuple","internalType":"struct BottomUpCheckpoint","components":[{"name":"subnetID","type":"tuple","internalType":"struct SubnetID","components":[{"name":"root","type":"uint64","internalType":"uint64"},{"name":"route","type":"address[]","internalType":"address[]"}]},{"name":"blockHeight","type":"uint256","internalType":"uint256"},{"name":"blockHash","type":"bytes32","internalType":"bytes32"},{"name":"nextConfigurationNumber","type":"uint64","internalType":"uint64"}]}],"stateMutability":"view"},{"type":"function","name":"bottomUpMsgBatch","inputs":[{"name":"e","type":"uint256","internalType":"uint256"}],"outputs":[{"name":"","type":"tuple","internalType":"struct BottomUpMsgBatch","components":[{"name":"subnetID","type":"tuple","internalType":"struct SubnetID","components":[{"name":"root","type":"uint64","internalType":"uint64"},{"name":"route","type":"address[]","internalType":"address[]"}]},{"name":"blockHeight","type":"uint256","internalType":"uint256"},{"name":"msgs","type":"tuple[]","internalType":"struct CrossMsg[]","components":[{"name":"message","type":"tuple","internalType":"struct StorableMsg","components":[{"name":"from","type":"tuple","internalType":"struct IPCAddress","components":[{"name":"subnetId","type":"tuple","internalType":"struct SubnetID","components":[{"name":"root","type":"uint64","internalType":"uint64"},{"name":"route","type":"address[]","internalType":"address[]"}]},{"name":"rawAddress","type":"tuple","internalType":"struct FvmAddress","components":[{"name":"addrType","type":"uint8","internalType":"uint8"},{"name":"payload","type":"bytes","internalType":"bytes"}]}]},{"name":"to","type":"tuple","internalType":"struct IPCAddress","components":[{"name":"subnetId","type":"tuple","internalType":"struct SubnetID","components":[{"name":"root","type":"uint64","internalType":"uint64"},{"name":"route","type":"address[]","internalType":"address[]"}]},{"name":"rawAddress","type":"tuple","internalType":"struct FvmAddress","components":[{"name":"addrType","type":"uint8","internalType":"uint8"},{"name":"payload","type":"bytes","internalType":"bytes"}]}]},{"name":"value","type":"uint256","internalType":"uint256"},{"name":"nonce","type":"uint64","internalType":"uint64"},{"name":"method","type":"bytes4","internalType":"bytes4"},{"name":"params","type":"bytes","internalType":"bytes"},{"name":"fee","type":"uint256","internalType":"uint256"}]},{"name":"wrapped","type":"bool","internalType":"bool"}]}]}],"stateMutability":"view"},{"type":"function","name":"bottomUpMsgBatchPeriod","inputs":[],"outputs":[{"name":"","type":"uint256","internalType":"uint256"}],"stateMutability":"view"},{"type":"function","name":"bottomUpNonce","inputs":[],"outputs":[{"name":"","type":"uint64","internalType":"uint64"}],"stateMutability":"view"},{"type":"function","name":"crossMsgFee","inputs":[],"outputs":[{"name":"","type":"uint256","internalType":"uint256"}],"stateMutability":"view"},{"type":"function","name":"getAppliedTopDownNonce","inputs":[{"name":"subnetId","type":"tuple","internalType":"struct SubnetID","components":[{"name":"root","type":"uint64","internalType":"uint64"},{"name":"route","type":"address[]","internalType":"address[]"}]}],"outputs":[{"name":"","type":"bool","internalType":"bool"},{"name":"","type":"uint64","internalType":"uint64"}],"stateMutability":"view"},{"type":"function","name":"getBottomUpMsgBatchCurrentWeight","inputs":[{"name":"h","type":"uint256","internalType":"uint256"}],"outputs":[{"name":"","type":"uint256","internalType":"uint256"}],"stateMutability":"view"},{"type":"function","name":"getBottomUpMsgBatchInfo","inputs":[{"name":"h","type":"uint256","internalType":"uint256"}],"outputs":[{"name":"","type":"tuple","internalType":"struct QuorumInfo","components":[{"name":"hash","type":"bytes32","internalType":"bytes32"},{"name":"rootHash","type":"bytes32","internalType":"bytes32"},{"name":"threshold","type":"uint256","internalType":"uint256"},{"name":"currentWeight","type":"uint256","internalType":"uint256"},{"name":"reached","type":"bool","internalType":"bool"}]}],"stateMutability":"view"},{"type":"function","name":"getBottomUpMsgBatchSignatureBundle","inputs":[{"name":"h","type":"uint256","internalType":"uint256"}],"outputs":[{"name":"batch","type":"tuple","internalType":"struct BottomUpMsgBatch","components":[{"name":"subnetID","type":"tuple","internalType":"struct SubnetID","components":[{"name":"root","type":"uint64","internalType":"uint64"},{"name":"route","type":"address[]","internalType":"address[]"}]},{"name":"blockHeight","type":"uint256","internalType":"uint256"},{"name":"msgs","type":"tuple[]","internalType":"struct CrossMsg[]","components":[{"name":"message","type":"tuple","internalType":"struct StorableMsg","components":[{"name":"from","type":"tuple","internalType":"struct IPCAddress","components":[{"name":"subnetId","type":"tuple","internalType":"struct SubnetID","components":[{"name":"root","type":"uint64","internalType":"uint64"},{"name":"route","type":"address[]","internalType":"address[]"}]},{"name":"rawAddress","type":"tuple","internalType":"struct FvmAddress","components":[{"name":"addrType","type":"uint8","internalType":"uint8"},{"name":"payload","type":"bytes","internalType":"bytes"}]}]},{"name":"to","type":"tuple","internalType":"struct IPCAddress","components":[{"name":"subnetId","type":"tuple","internalType":"struct SubnetID","components":[{"name":"root","type":"uint64","internalType":"uint64"},{"name":"route","type":"address[]","internalType":"address[]"}]},{"name":"rawAddress","type":"tuple","internalType":"struct FvmAddress","components":[{"name":"addrType","type":"uint8","internalType":"uint8"},{"name":"payload","type":"bytes","internalType":"bytes"}]}]},{"name":"value","type":"uint256","internalType":"uint256"},{"name":"nonce","type":"uint64","internalType":"uint64"},{"name":"method","type":"bytes4","internalType":"bytes4"},{"name":"params","type":"bytes","internalType":"bytes"},{"name":"fee","type":"uint256","internalType":"uint256"}]},{"name":"wrapped","type":"bool","internalType":"bool"}]}]},{"name":"info","type":"tuple","internalType":"struct QuorumInfo","components":[{"name":"hash","type":"bytes32","internalType":"bytes32"},{"name":"rootHash","type":"bytes32","internalType":"bytes32"},{"name":"threshold","type":"uint256","internalType":"uint256"},{"name":"currentWeight","type":"uint256","internalType":"uint256"},{"name":"reached","type":"bool","internalType":"bool"}]},{"name":"signatories","type":"address[]","internalType":"address[]"},{"name":"signatures","type":"bytes[]","internalType":"bytes[]"}],"stateMutability":"view"},{"type":"function","name":"getBottomUpMsgRetentionHeight","inputs":[],"outputs":[{"name":"","type":"uint256","internalType":"uint256"}],"stateMutability":"view"},{"type":"function","name":"getCheckpointCurrentWeight","inputs":[{"name":"h","type":"uint256","internalType":"uint256"}],"outputs":[{"name":"","type":"uint256","internalType":"uint256"}],"stateMutability":"view"},{"type":"function","name":"getCheckpointInfo","inputs":[{"name":"h","type":"uint256","internalType":"uint256"}],"outputs":[{"name":"","type":"tuple","internalType":"struct QuorumInfo","components":[{"name":"hash","type":"bytes32","internalType":"bytes32"},{"name":"rootHash","type":"bytes32","internalType":"bytes32"},{"name":"threshold","type":"uint256","internalType":"uint256"},{"name":"currentWeight","type":"uint256","internalType":"uint256"},{"name":"reached","type":"bool","internalType":"bool"}]}],"stateMutability":"view"},{"type":"function","name":"getCheckpointRetentionHeight","inputs":[],"outputs":[{"name":"","type":"uint256","internalType":"uint256"}],"stateMutability":"view"},{"type":"function","name":"getCheckpointSignatureBundle","inputs":[{"name":"h","type":"uint256","internalType":"uint256"}],"outputs":[{"name":"ch","type":"tuple","internalType":"struct BottomUpCheckpoint","components":[{"name":"subnetID","type":"tuple","internalType":"struct SubnetID","components":[{"name":"root","type":"uint64","internalType":"uint64"},{"name":"route","type":"address[]","internalType":"address[]"}]},{"name":"blockHeight","type":"uint256","internalType":"uint256"},{"name":"blockHash","type":"bytes32","internalType":"bytes32"},{"name":"nextConfigurationNumber","type":"uint64","internalType":"uint64"}]},{"name":"info","type":"tuple","internalType":"struct QuorumInfo","components":[{"name":"hash","type":"bytes32","internalType":"bytes32"},{"name":"rootHash","type":"bytes32","internalType":"bytes32"},{"name":"threshold","type":"uint256","internalType":"uint256"},{"name":"currentWeight","type":"uint256","internalType":"uint256"},{"name":"reached","type":"bool","internalType":"bool"}]},{"name":"signatories","type":"address[]","internalType":"address[]"},{"name":"signatures","type":"bytes[]","internalType":"bytes[]"}],"stateMutability":"view"},{"type":"function","name":"getCurrentBottomUpCheckpoint","inputs":[],"outputs":[{"name":"exists","type":"bool","internalType":"bool"},{"name":"epoch","type":"uint256","internalType":"uint256"},{"name":"checkpoint","type":"tuple","internalType":"struct BottomUpCheckpoint","components":[{"name":"subnetID","type":"tuple","internalType":"struct SubnetID","components":[{"name":"root","type":"uint64","internalType":"uint64"},{"name":"route","type":"address[]","internalType":"address[]"}]},{"name":"blockHeight","type":"uint256","internalType":"uint256"},{"name":"blockHash","type":"bytes32","internalType":"bytes32"},{"name":"nextConfigurationNumber","type":"uint64","internalType":"uint64"}]}],"stateMutability":"view"},{"type":"function","name":"getCurrentConfigurationNumber","inputs":[],"outputs":[{"name":"","type":"uint64","internalType":"uint64"}],"stateMutability":"view"},{"type":"function","name":"getCurrentMembership","inputs":[],"outputs":[{"name":"","type":"tuple","internalType":"struct Membership","components":[{"name":"validators","type":"tuple[]","internalType":"struct Validator[]","components":[{"name":"weight","type":"uint256","internalType":"uint256"},{"name":"addr","type":"address","internalType":"address"},{"name":"metadata","type":"bytes","internalType":"bytes"}]},{"name":"configurationNumber","type":"uint64","internalType":"uint64"}]}],"stateMutability":"view"},{"type":"function","name":"getIncompleteCheckpointHeights","inputs":[],"outputs":[{"name":"","type":"uint256[]","internalType":"uint256[]"}],"stateMutability":"view"},{"type":"function","name":"getIncompleteCheckpoints","inputs":[],"outputs":[{"name":"","type":"tuple[]","internalType":"struct BottomUpCheckpoint[]","components":[{"name":"subnetID","type":"tuple","internalType":"struct SubnetID","components":[{"name":"root","type":"uint64","internalType":"uint64"},{"name":"route","type":"address[]","internalType":"address[]"}]},{"name":"blockHeight","type":"uint256","internalType":"uint256"},{"name":"blockHash","type":"bytes32","internalType":"bytes32"},{"name":"nextConfigurationNumber","type":"uint64","internalType":"uint64"}]}],"stateMutability":"view"},{"type":"function","name":"getIncompleteMsgBatchHeights","inputs":[],"outputs":[{"name":"","type":"uint256[]","internalType":"uint256[]"}],"stateMutability":"view"},{"type":"function","name":"getIncompleteMsgBatches","inputs":[],"outputs":[{"name":"","type":"tuple[]","internalType":"struct BottomUpMsgBatch[]","components":[{"name":"subnetID","type":"tuple","internalType":"struct SubnetID","components":[{"name":"root","type":"uint64","internalType":"uint64"},{"name":"route","type":"address[]","internalType":"address[]"}]},{"name":"blockHeight","type":"uint256","internalType":"uint256"},{"name":"msgs","type":"tuple[]","internalType":"struct CrossMsg[]","components":[{"name":"message","type":"tuple","internalType":"struct StorableMsg","components":[{"name":"from","type":"tuple","internalType":"struct IPCAddress","components":[{"name":"subnetId","type":"tuple","internalType":"struct SubnetID","components":[{"name":"root","type":"uint64","internalType":"uint64"},{"name":"route","type":"address[]","internalType":"address[]"}]},{"name":"rawAddress","type":"tuple","internalType":"struct FvmAddress","components":[{"name":"addrType","type":"uint8","internalType":"uint8"},{"name":"payload","type":"bytes","internalType":"bytes"}]}]},{"name":"to","type":"tuple","internalType":"struct IPCAddress","components":[{"name":"subnetId","type":"tuple","internalType":"struct SubnetID","components":[{"name":"root","type":"uint64","internalType":"uint64"},{"name":"route","type":"address[]","internalType":"address[]"}]},{"name":"rawAddress","type":"tuple","internalType":"struct FvmAddress","components":[{"name":"addrType","type":"uint8","internalType":"uint8"},{"name":"payload","type":"bytes","internalType":"bytes"}]}]},{"name":"value","type":"uint256","internalType":"uint256"},{"name":"nonce","type":"uint64","internalType":"uint64"},{"name":"method","type":"bytes4","internalType":"bytes4"},{"name":"params","type":"bytes","internalType":"bytes"},{"name":"fee","type":"uint256","internalType":"uint256"}]},{"name":"wrapped","type":"bool","internalType":"bool"}]}]}],"stateMutability":"view"},{"type":"function","name":"getLastConfigurationNumber","inputs":[],"outputs":[{"name":"","type":"uint64","internalType":"uint64"}],"stateMutability":"view"},{"type":"function","name":"getLastMembership","inputs":[],"outputs":[{"name":"","type":"tuple","internalType":"struct Membership","components":[{"name":"validators","type":"tuple[]","internalType":"struct Validator[]","components":[{"name":"weight","type":"uint256","internalType":"uint256"},{"name":"addr","type":"address","internalType":"address"},{"name":"metadata","type":"bytes","internalType":"bytes"}]},{"name":"configurationNumber","type":"uint64","internalType":"uint64"}]}],"stateMutability":"view"},{"type":"function","name":"getLatestParentFinality","inputs":[],"outputs":[{"name":"","type":"tuple","internalType":"struct ParentFinality","components":[{"name":"height","type":"uint256","internalType":"uint256"},{"name":"blockHash","type":"bytes32","internalType":"bytes32"}]}],"stateMutability":"view"},{"type":"function","name":"getNetworkName","inputs":[],"outputs":[{"name":"","type":"tuple","internalType":"struct SubnetID","components":[{"name":"root","type":"uint64","internalType":"uint64"},{"name":"route","type":"address[]","internalType":"address[]"}]}],"stateMutability":"view"},{"type":"function","name":"getParentFinality","inputs":[{"name":"blockNumber","type":"uint256","internalType":"uint256"}],"outputs":[{"name":"","type":"tuple","internalType":"struct ParentFinality","components":[{"name":"height","type":"uint256","internalType":"uint256"},{"name":"blockHash","type":"bytes32","internalType":"bytes32"}]}],"stateMutability":"view"},{"type":"function","name":"getQuorumThreshold","inputs":[{"name":"totalWeight","type":"uint256","internalType":"uint256"}],"outputs":[{"name":"","type":"uint256","internalType":"uint256"}],"stateMutability":"view"},{"type":"function","name":"getSubnet","inputs":[{"name":"subnetId","type":"tuple","internalType":"struct SubnetID","components":[{"name":"root","type":"uint64","internalType":"uint64"},{"name":"route","type":"address[]","internalType":"address[]"}]}],"outputs":[{"name":"","type":"bool","internalType":"bool"},{"name":"","type":"tuple","internalType":"struct Subnet","components":[{"name":"stake","type":"uint256","internalType":"uint256"},{"name":"genesisEpoch","type":"uint256","internalType":"uint256"},{"name":"circSupply","type":"uint256","internalType":"uint256"},{"name":"topDownNonce","type":"uint64","internalType":"uint64"},{"name":"appliedBottomUpNonce","type":"uint64","internalType":"uint64"},{"name":"id","type":"tuple","internalType":"struct SubnetID","components":[{"name":"root","type":"uint64","internalType":"uint64"},{"name":"route","type":"address[]","internalType":"address[]"}]}]}],"stateMutability":"view"},{"type":"function","name":"getSubnetTopDownMsgsLength","inputs":[{"name":"subnetId","type":"tuple","internalType":"struct SubnetID","components":[{"name":"root","type":"uint64","internalType":"uint64"},{"name":"route","type":"address[]","internalType":"address[]"}]}],"outputs":[{"name":"","type":"uint256","internalType":"uint256"}],"stateMutability":"view"},{"type":"function","name":"listSubnets","inputs":[],"outputs":[{"name":"","type":"tuple[]","internalType":"struct Subnet[]","components":[{"name":"stake","type":"uint256","internalType":"uint256"},{"name":"genesisEpoch","type":"uint256","internalType":"uint256"},{"name":"circSupply","type":"uint256","internalType":"uint256"},{"name":"topDownNonce","type":"uint64","internalType":"uint64"},{"name":"appliedBottomUpNonce","type":"uint64","internalType":"uint64"},{"name":"id","type":"tuple","internalType":"struct SubnetID","components":[{"name":"root","type":"uint64","internalType":"uint64"},{"name":"route","type":"address[]","internalType":"address[]"}]}]}],"stateMutability":"view"},{"type":"function","name":"majorityPercentage","inputs":[],"outputs":[{"name":"","type":"uint64","internalType":"uint64"}],"stateMutability":"view"},{"type":"function","name":"maxMsgsPerBottomUpBatch","inputs":[],"outputs":[{"name":"","type":"uint64","internalType":"uint64"}],"stateMutability":"view"},{"type":"function","name":"postbox","inputs":[{"name":"id","type":"bytes32","internalType":"bytes32"}],"outputs":[{"name":"storableMsg","type":"tuple","internalType":"struct StorableMsg","components":[{"name":"from","type":"tuple","internalType":"struct IPCAddress","components":[{"name":"subnetId","type":"tuple","internalType":"struct SubnetID","components":[{"name":"root","type":"uint64","internalType":"uint64"},{"name":"route","type":"address[]","internalType":"address[]"}]},{"name":"rawAddress","type":"tuple","internalType":"struct FvmAddress","components":[{"name":"addrType","type":"uint8","internalType":"uint8"},{"name":"payload","type":"bytes","internalType":"bytes"}]}]},{"name":"to","type":"tuple","internalType":"struct IPCAddress","components":[{"name":"subnetId","type":"tuple","internalType":"struct SubnetID","components":[{"name":"root","type":"uint64","internalType":"uint64"},{"name":"route","type":"address[]","internalType":"address[]"}]},{"name":"rawAddress","type":"tuple","internalType":"struct FvmAddress","components":[{"name":"addrType","type":"uint8","internalType":"uint8"},{"name":"payload","type":"bytes","internalType":"bytes"}]}]},{"name":"value","type":"uint256","internalType":"uint256"},{"name":"nonce","type":"uint64","internalType":"uint64"},{"name":"method","type":"bytes4","internalType":"bytes4"},{"name":"params","type":"bytes","internalType":"bytes"},{"name":"fee","type":"uint256","internalType":"uint256"}]},{"name":"wrapped","type":"bool","internalType":"bool"}],"stateMutability":"view"},{"type":"function","name":"subnets","inputs":[{"name":"h","type":"bytes32","internalType":"bytes32"}],"outputs":[{"name":"subnet","type":"tuple","internalType":"struct Subnet","components":[{"name":"stake","type":"uint256","internalType":"uint256"},{"name":"genesisEpoch","type":"uint256","internalType":"uint256"},{"name":"circSupply","type":"uint256","internalType":"uint256"},{"name":"topDownNonce","type":"uint64","internalType":"uint64"},{"name":"appliedBottomUpNonce","type":"uint64","internalType":"uint64"},{"name":"id","type":"tuple","internalType":"struct SubnetID","components":[{"name":"root","type":"uint64","internalType":"uint64"},{"name":"route","type":"address[]","internalType":"address[]"}]}]}],"stateMutability":"view"},{"type":"function","name":"totalSubnets","inputs":[],"outputs":[{"name":"","type":"uint64","internalType":"uint64"}],"stateMutability":"view"}],"bytecode":{"object":"0x6080806040523461001657612245908161001c8239f35b600080fdfe6040608081526004908136101561001557600080fd5b600091823560e01c90816302e30f9a146114a85781630338150f1461146257816305aff0b31461143a57816306572c1a1461140957816306c46853146113ea57816322180594146113cb57816324729425146113ac5781632da5794a14611333578163335eb62a1461113657816341b6a2e81461110b5781634aa8f8a5146110ec578163544dddff146110c4578163599c7bd1146110a25781635d02968514610f8b5781636547cd6414610f6057816369e737fd14610f415781636ad21bb014610e63578163767ee5f414610de95781637edeac9214610d9a5781638789f83b14610d6f5781638cfd78e714610cdf57816394074b0314610c295781639704276614610a885781639d3070b514610a425781639e530b5714610a10578163a2b67158146109e5578163a517218f14610961578163a9294bdd146107c5578163ac12d76314610787578163b1ba49b01461075f578163b3ab3f7414610734578163b9ee584214610697578163c66c66a114610646578163ca41d5ce146104e2578163d6c5c39714610372578163dd81b5cf1461029d575063f3229131146101ba57600080fd5b346102995781600319360112610299576101d2611e36565b508051906101df82611896565b6006546101eb81611923565b6101f783519182611902565b818152602091828201600687527ff652222313e28459528d920b65115c16c04f3efc82aaedc97be59f3f377c0d3f96905b82821061025757505050610253945083526001600160401b036007541690830152519182918261176f565b0390f35b60038560019288516102688161187b565b8b548152848060a01b03858d0154168382015261028760028d01611b9a565b8a820152815201980191019096610228565b5080fd5b9190503461036e576020918260031936011261036a576102bb611b73565b50358352600982528083209260038251946102d58661187b565b6102de81611acc565b8652600281015485870152018054906102f682611923565b9261030385519485611902565b828452908152848120858085015b848410610330578689018690528651828152806102538185018c6116d6565b600191600d91885161034181611896565b61034a86611cb1565b815260ff600c870154161515838201528152019201920191908690610311565b8380fd5b8280fd5b83833461029957816003193601126102995761038c611b47565b50610395611b47565b50601d549081156104cf576001600160401b03918083431604600181018091116104bc57906103c3916121e6565b8084526104216020809660088252848720908551966103e18861184a565b816103eb84611acc565b808a526002850154868b01526003850154898b01529301541660608801528551630c133d1360e31b815293849283928301612038565b038173__$a0fe38a9a81205afccc10810b09a4d3f45$__5af49485156104b157809561046a575b505081606091610253949351968796158752860152840152606083019061159b565b909194508582813d83116104aa575b6104838183611902565b810103126104a75750610253929161049c606092611e7b565b949181939450610448565b80fd5b503d610479565b8351903d90823e3d90fd5b634e487b7160e01b855260118652602485fd5b634e487b7160e01b835260128452602483fd5b9190503461036e57602036600319011261036e57813591610501611b47565b5061050a611e50565b508284526008602052818420926001600160401b038284519561052c8761184a565b61053581611acc565b8752600281015460208801526003810154868801520154166060850152600a8351926308a6ad2560e01b84528301526024820152838160448173__$dd40c2ca5826d197ed7e2b6aae8146ec7b$__5af490811561063c57906102539291856105bc969181809461060c575b50506105f16105fe939451978897610100808a5289019061159b565b926020880190608080918051845260208101516020850152604081015160408501526060810151606085015201511515910152565b85820360c0870152611a19565b9083820360e0850152611a56565b6105fe94506105f1935061063292503d8091833e61062a8183611902565b810190611e88565b91929091936105a0565b82513d86823e3d90fd5b8284346104a75750610680610253610678610673610663366119e8565b61066b611d28565b50369061193a565b6120d6565b929092611d65565b835193849315158452806020850152830190611548565b9190503461036e57602036600319011261036e578060ff6107329260a0956106bd611e50565b5085358152601360205220938251946106d5866118cc565b80548652600181015460208701526002810154848701526003810154606087015201541615156080840152518092608080918051845260208101516020850152604081015160408501526060810151606085015201511515910152565bf35b90503461036e57602036600319011261036e5781602093600392358152600c85522001549051908152f35b5050346102995781600319360112610299576020906001600160401b03600754169051908152f35b9190503461036e57602036600319011261036e578060ff6107329260a0956107ad611e50565b5085358152600c60205220938251946106d5866118cc565b9190503461036e576020918260031936011261036a578035926107e6611b73565b506107ef611e50565b50838552600981528285209360038451956108098761187b565b61081281611acc565b875260028101548488015201805461082981611923565b9161083687519384611902565b81835288528388208890858085015b8484106109275750505050508486015260118451936308a6ad2560e01b85528401526024830152848260448173__$dd40c2ca5826d197ed7e2b6aae8146ec7b$__5af491821561091d5790856102539493926108c197908280956108f4575b50506105f1906105fe949551988998610100808b528a01906116d6565b93880190608080918051845260208101516020850152604081015160408501526060810151606085015201511515910152565b6105fe95506105f1935061091292503d8091833e61062a8183611902565b9490925081906108a4565b83513d87823e3d90fd5b600191600d918b5161093881611896565b61094186611cb1565b815260ff600c870154161515838201528152019201920191908690610845565b8284346104a757806003193601126104a7578151918291600d54808552602080950194600d83527fd7b6990105719101dabeb77144f2a3385c8033acd3af97e9423a695e81ad1eb592905b8282106109ce5761025386866109c4828b0383611902565b519182918261180f565b8354875295860195600193840193909101906109ac565b5050346102995781600319360112610299576020906001600160401b03601c5460881c169051908152f35b8284346104a757506001600160401b03610a31610a2c366119e8565b611db8565b835191151582529091166020820152f35b8284346104a75760203660031901126104a75782356001600160401b03918282116104a75750610a7c61067360209560039336910161193a565b90500154169051908152f35b905082346104a757806003193601126104a75782518092600d54808352846020809401600d86527fd7b6990105719101dabeb77144f2a3385c8033acd3af97e9423a695e81ad1eb592865b86828210610c1357505050610aea92500385611902565b835191610af683611923565b91610b0387519384611902565b838352601f19610b1285611923565b0182865b828110610bfd57505050845b6001600160401b039081811686811015610ba05790610b988284610b486001958d611e0c565b51168a52600887528b8587828d20835193610b628561184a565b610b6b82611acc565b855260028201548c8601526003820154908501520154166060820152610b91828a611e0c565b5287611e0c565b500116610b22565b8985878a83519280840190808552835180925280868601968360051b870101940192955b828710610bd15785850386f35b909192938280610bed600193603f198a8203018652885161159b565b9601920196019592919092610bc4565b610c05611b47565b828288010152018390610b16565b855484526001958601958a955093019201610ad3565b8284346104a757806003193601126104a757610c43611ab2565b50815191610c5083611896565b6019546001600160401b031683528051601a8054808352908452602093848301917f057c384a7d1c54f3a1b2e5e67b2617b8224fdfd1ea7234eea573a6ff665ff63e915b86828210610cc25788906102538888610caf818a0382611902565b83850152519282849384528301906114ed565b83546001600160a01b031685529093019260019283019201610c94565b90503461036e57602036600319011261036e579181928160c08451610d03816118b1565b610d0b611dea565b8152610d15611dea565b60208201528286820152826060820152826080820152606060a0820152015235815260036020522090610d4f60ff600c8401541692611cb1565b91610d63825193838594855284019061165c565b90151560208301520390f35b5050346102995781600319360112610299576020906001600160401b03601c5460481c169051908152f35b90503461036e57602036600319011261036e57610dcd906102539360208451610dc281611896565b828152015235612097565b9051918291829190916020806040830194805184520151910152565b8284346104a757806003193601126104a7578151918291601454808552602080950194601483527fce6d7b5282bd9a3661ae061feed1dbda4e52ab073b1f9285be6e155d9c38d4ec92905b828210610e4c5761025386866109c4828b0383611902565b835487529586019560019384019390910190610e34565b8383346102995781600319360112610299578290610e7f611e36565b50805191610e8c83611896565b8054610e9781611923565b90610ea484519283611902565b8082526020928383019087527f8a35acfbc15ff81a39ae7d344fd709f28e8600b4aa8c65c6b64bfe7fe36bd19b96905b828210610eff57505050610253945083526001600160401b036005541690830152519182918261176f565b6003856001928851610f108161187b565b8b548152848060a01b03858d01541683820152610f2f60028d01611b9a565b8a820152815201980191019096610ed4565b505034610299578160031936011261029957602090601e549051908152f35b90503461036e57602036600319011261036e5781602093600392358152601385522001549051908152f35b8284346104a757806003193601126104a757601854610fa981611923565b90610fb684519283611902565b808252601f19610fc582611923565b01835b81811061108b575050825b818110611037575050825191602080840190808552835180925280868601968360051b870101940192955b82871061100b5785850386f35b909192938280611027600193603f198a82030186528851611548565b9601920196019592919092610ffe565b806001917fb13d2d76d1f4b7be834882e410b3e3a8afaf69f83600ae24db354391d2378d2e015485528460205261106f868620611d65565b6110798286611e0c565b526110848185611e0c565b5001610fd3565b602090611096611d28565b82828701015201610fc8565b50503461029957816003193601126102995760209060ff601c54169051908152f35b5050346102995781600319360112610299576020906001600160401b03600554169051908152f35b505034610299578160031936011261029957602090600b549051908152f35b5050346102995781600319360112610299576020906001600160401b03601c5460081c169051908152f35b50503461029957816003193601126102995780518092601454808352846020809401601484527fce6d7b5282bd9a3661ae061feed1dbda4e52ab073b1f9285be6e155d9c38d4ec92845b8682821061131d5750505061119792500385611902565b8351916111a383611923565b916111b085519384611902565b838352601f196111bf85611923565b0182825b82811061130757505050805b6001600160401b0390818116868110156112ab57826111ee828b611e0c565b511684526009855287842060038951916112078361187b565b61121081611acc565b835260028101548884015201805461122781611923565b916112348c519384611902565b818352875287872087898085018e5b858410611270579250505084611268959350600197969492500152610b91828a611e0c565b5001166111cf565b91600d916001935161128181611896565b61128a87611cb1565b815260ff600c880154161515838201528152019301910190918a908e611243565b87518581528651818701819052859190600581901b82018b01908989019089848e015b8287106112db5785850386f35b9091929382806112f7600193603f198a820301865288516116d6565b96019201960195929190926112ce565b61130f611b73565b8282880101520183906111c3565b855484526001958601958a955093019201611180565b9190503461036e57602036600319011261036e576001600160401b03816102539461135c611b47565b5084358152600860205220928251936113748561184a565b61137d81611acc565b85526002810154602086015260038101548486015201541660608301525191829160208352602083019061159b565b505034610299578160031936011261029957602090601b549051908152f35b5050346102995781600319360112610299576020906012549051908152f35b505034610299578160031936011261029957602090601d549051908152f35b8284346104a75760203660031901126104a75750606461143260209360ff601c541690356121e6565b049051908152f35b5050346102995781600319360112610299576020906001600160401b03601f54169051908152f35b50503461029957816003193601126102995781610253926020835161148681611896565b82815201526020825161149881611896565b8281520152610dcd600254612097565b90503461036e57602036600319011261036e5781610253936114da926114cc611d28565b503581528060205220611d65565b9051918291602083526020830190611548565b60609060408301906001600160401b03815116845260209283809201519460408382015285518094520193019160005b82811061152b575050505090565b83516001600160a01b03168552938101939281019260010161151d565b9060c060a0611598938051845260208101516020850152604081015160408501526001600160401b0380606083015116606086015260808201511660808501520151918160a082015201906114ed565b90565b9060606001600160401b03816115ba85516080865260808601906114ed565b94602081015160208601526040810151604086015201511691015290565b60005b8381106115eb5750506000910152565b81810151838201526020016115db565b90602091611614815180928185528580860191016115d8565b601f01601f1916010190565b60406020611598938161163a8551858452858401906114ed565b940151908281860391015260ff815116845201519181602082015201906115fb565b9060c0806116cd61168b611679865160e0875260e0870190611620565b60208701518682036020880152611620565b604086015160408601526001600160401b03606087015116606086015263ffffffff60e01b608087015116608086015260a086015185820360a08701526115fb565b93015191015290565b6116e981516060845260608401906114ed565b60208083015181850152604080930151938381840391015283519182815281810182808560051b8401019601946000925b85841061172b575050505050505090565b909192939495968580600192601f198582030187528a5190828061175684518a85528a85019061165c565b930151151591015299019401940192959493919061171a565b602091828252606092838301918051946040938484870152865180915260808601918460808360051b8901019801926000915b8383106117c1575050505050906001600160401b039101511691015290565b909192939886806118008a856001958f8f83918591607f19908503018c525180518452898060a01b0388820151168885015201519382015201906115fb565b9b0193019301919392906117a2565b6020908160408183019282815285518094520193019160005b828110611836575050505090565b835185529381019392810192600101611828565b608081019081106001600160401b0382111761186557604052565b634e487b7160e01b600052604160045260246000fd5b606081019081106001600160401b0382111761186557604052565b604081019081106001600160401b0382111761186557604052565b60e081019081106001600160401b0382111761186557604052565b60a081019081106001600160401b0382111761186557604052565b60c081019081106001600160401b0382111761186557604052565b90601f801991011681019081106001600160401b0382111761186557604052565b6001600160401b0381116118655760051b60200190565b91906040838203126119e3576040519261195384611896565b836001600160401b03823581811681036119e3578252602092838101359182116119e357019280601f850112156119e357833561198f81611923565b9461199d6040519687611902565b818652848087019260051b8201019283116119e3578401905b8282106119c4575050500152565b81356001600160a01b03811681036119e35781529084019084016119b6565b600080fd5b600319906020818301126119e357600435916001600160401b0383116119e357826040920301126119e35760040190565b90815180825260208080930193019160005b828110611a39575050505090565b83516001600160a01b031685529381019392810192600101611a2b565b908082519081815260208091019281808460051b8301019501936000915b848310611a845750505050505090565b9091929394958480611aa2600193601f198682030187528a516115fb565b9801930193019194939290611a74565b60405190611abf82611896565b6060602083600081520152565b90604051611ad981611896565b80926001600160401b03815416825260018091019160405191828481955492838652602080960191600052856000209060005b87868210611b285750505050611b2492500384611902565b0152565b83546001600160a01b0316855289955090930192918101918101611b0c565b60405190611b548261184a565b6000606083611b61611ab2565b81528260208201528260408201520152565b60405190611b808261187b565b6060604083611b8d611ab2565b8152600060208201520152565b90604051906000835490600182811c90808416968715611c61575b6020948584108914611c4d5787988489979899529081600014611c2b5750600114611bec575b505050611bea92500383611902565b565b600090815285812095935091905b818310611c13575050611bea9350820101388080611bdb565b85548884018501529485019487945091830191611bfa565b92505050611bea94925060ff191682840152151560051b820101388080611bdb565b634e487b7160e01b85526022600452602485fd5b91607f1691611bb5565b9060405191611c7983611896565b602083611c8583611acc565b8152611ca9600360405194611c9986611896565b60ff600282015416865201611b9a565b828401520152565b90604051611cbe816118b1565b60c0600b8294611ccd81611c6b565b8452611cdb60048201611c6b565b60208501526008810154604085015260098101546001600160401b038116606086015260a01b6001600160e01b0319166080850152611d1c600a8201611b9a565b60a08501520154910152565b60405190611d35826118e7565b81600081526000602082015260006040820152600060608201526000608082015260a0611d60611ab2565b910152565b90604051611d72816118e7565b60a0611d606004839580548552600181015460208601526002810154604086015260038101546001600160401b0390818116606088015260401c16608086015201611acc565b610673611dc691369061193a565b9015611de15760036001600160401b03910154169060019190565b50600090600090565b60405190611df782611896565b81611e00611ab2565b81526020611d60611ab2565b8051821015611e205760209160051b010190565b634e487b7160e01b600052603260045260246000fd5b60405190611e4382611896565b6000602083606081520152565b60405190611e5d826118cc565b60006080838281528260208201528260408201528260608201520152565b519081151582036119e357565b909181830360e081126119e35760a0136119e3576040928351611eaa816118cc565b835181526020908185015182820152858501518682015260608501516060820152611ed760808601611e7b565b60808201529460a0850151926001600160401b03938481116119e357860191601f928284820112156119e357805190611f0f82611923565b91611f1c84519384611902565b808352868084019160051b830101918583116119e3578701905b828210612019575050509660c0810151908682116119e35701928281850112156119e357835191611f6683611923565b96611f7382519889611902565b838852868089019460051b870101958587116119e357878101945b878610611fa15750505050505050505090565b85518381116119e35782019087603f830112156119e3578982015190848211612004578551611fd8838901601f19168d0182611902565b828152898784860101116119e357611ff98c949385948986850191016115d8565b815201950194611f8e565b60246000634e487b7160e01b81526041600452fd5b81516001600160a01b03811681036119e3578152908701908701611f36565b906020908183528160808160608601936001600160401b038151168288015201519460408082015285518094520193019160005b82811061207a575050505090565b83516001600160a01b03168552938101939281019260010161206c565b600060206040516120a781611896565b8281520152600052600160205260406000206001604051916120c883611896565b805483520154602082015290565b61210d73__$a0fe38a9a81205afccc10810b09a4d3f45$__91604051906390ba52cf60e01b82528180602094859360048301612038565b0381865af49081156121ab576000916121b7575b509061215d91600052600081528060406000209361214160048601611acc565b906040518080968194630c133d1360e31b835260048301612038565b03915af49081156121ab57600091612177575b5090501591565b82813d83116121a4575b61218b8183611902565b810103126104a7575061219d90611e7b565b8038612170565b503d612181565b6040513d6000823e3d90fd5b908282813d83116121df575b6121cd8183611902565b810103126104a757505161215d612121565b503d6121c3565b818102929181159184041417156121f957565b634e487b7160e01b600052601160045260246000fdfea26469706673582212200894d1fa73274627bfc97f431b5696c4fbe4f8d666f48d8812d4dadb1542782a64736f6c63430008130033","linkReferences":{"src/lib/LibQuorum.sol":{"LibQuorum":[{"start":1420,"length":20},{"start":2191,"length":20}]},"src/lib/SubnetIDHelper.sol":{"SubnetIDHelper":[{"start":1089,"length":20},{"start":8439,"length":20}]}}},"methodIdentifiers":{"appliedTopDownNonce()":"8789f83b","bottomUpCheckPeriod()":"06c46853","bottomUpCheckpoint(uint256)":"2da5794a","bottomUpMsgBatch(uint256)":"dd81b5cf","bottomUpMsgBatchPeriod()":"69e737fd","bottomUpNonce()":"41b6a2e8","crossMsgFee()":"24729425","getAppliedTopDownNonce((uint64,address[]))":"9e530b57","getBottomUpMsgBatchCurrentWeight(uint256)":"6547cd64","getBottomUpMsgBatchInfo(uint256)":"b9ee5842","getBottomUpMsgBatchSignatureBundle(uint256)":"a9294bdd","getBottomUpMsgRetentionHeight()":"22180594","getCheckpointCurrentWeight(uint256)":"b3ab3f74","getCheckpointInfo(uint256)":"ac12d763","getCheckpointRetentionHeight()":"4aa8f8a5","getCheckpointSignatureBundle(uint256)":"ca41d5ce","getCurrentBottomUpCheckpoint()":"d6c5c397","getCurrentConfigurationNumber()":"544dddff","getCurrentMembership()":"6ad21bb0","getIncompleteCheckpointHeights()":"a517218f","getIncompleteCheckpoints()":"97042766","getIncompleteMsgBatchHeights()":"767ee5f4","getIncompleteMsgBatches()":"335eb62a","getLastConfigurationNumber()":"b1ba49b0","getLastMembership()":"f3229131","getLatestParentFinality()":"0338150f","getNetworkName()":"94074b03","getParentFinality(uint256)":"7edeac92","getQuorumThreshold(uint256)":"06572c1a","getSubnet((uint64,address[]))":"c66c66a1","getSubnetTopDownMsgsLength((uint64,address[]))":"9d3070b5","listSubnets()":"5d029685","majorityPercentage()":"599c7bd1","maxMsgsPerBottomUpBatch()":"05aff0b3","postbox(bytes32)":"8cfd78e7","subnets(bytes32)":"02e30f9a","totalSubnets()":"a2b67158"},"id":46}