{"abi":[{"type":"function","name":"getProof","inputs":[{"name":"data","type":"bytes32[]","internalType":"bytes32[]"},{"name":"node","type":"uint256","internalType":"uint256"}],"outputs":[{"name":"","type":"bytes32[]","internalType":"bytes32[]"}],"stateMutability":"pure"},{"type":"function","name":"getRoot","inputs":[{"name":"data","type":"bytes32[]","internalType":"bytes32[]"}],"outputs":[{"name":"","type":"bytes32","internalType":"bytes32"}],"stateMutability":"pure"},{"type":"function","name":"hashLeafPairs","inputs":[{"name":"left","type":"bytes32","internalType":"bytes32"},{"name":"right","type":"bytes32","internalType":"bytes32"}],"outputs":[{"name":"_hash","type":"bytes32","internalType":"bytes32"}],"stateMutability":"pure"},{"type":"function","name":"log2ceil","inputs":[{"name":"x","type":"uint256","internalType":"uint256"}],"outputs":[{"name":"","type":"uint256","internalType":"uint256"}],"stateMutability":"pure"},{"type":"function","name":"log2ceilBitMagic","inputs":[{"name":"x","type":"uint256","internalType":"uint256"}],"outputs":[{"name":"","type":"uint256","internalType":"uint256"}],"stateMutability":"pure"},{"type":"function","name":"verifyProof","inputs":[{"name":"root","type":"bytes32","internalType":"bytes32"},{"name":"proof","type":"bytes32[]","internalType":"bytes32[]"},{"name":"valueToProve","type":"bytes32","internalType":"bytes32"}],"outputs":[{"name":"","type":"bool","internalType":"bool"}],"stateMutability":"pure"}],"bytecode":{"object":"0x6080806040523460155761077e908161001b8239f35b600080fdfe6080604052600436101561001257600080fd5b60003560e01c80632e08d6021461007757806358161a4214610072578063b86161951461006d578063cf06c7b714610068578063dd1d2599146100635763e27d51531461005e57600080fd5b6103d7565b6103b6565b610390565b6102a7565b6101f3565b3461013d57602036600319011261013d5760043567ffffffffffffffff811161013d576100a890369060040161019b565b6001815111156100ec575b6001815111156100cb576100c69061069c565b6100b3565b6100d76100e891610417565b516040519081529081906020820190565b0390f35b60405162461bcd60e51b815260206004820152602360248201527f776f6e27742067656e657261746520726f6f7420666f722073696e676c65206c60448201526232b0b360e91b6064820152608490fd5b600080fd5b634e487b7160e01b600052604160045260246000fd5b6040519190601f01601f1916820167ffffffffffffffff81118382101761017e57604052565b610142565b67ffffffffffffffff811161017e5760051b60200190565b9080601f8301121561013d5781356101ba6101b582610183565b610158565b9260208085848152019260051b82010192831161013d57602001905b8282106101e35750505090565b81358152602091820191016101d6565b3461013d57606036600319011261013d5760043560243567ffffffffffffffff811161013d5761022790369060040161019b565b906044359180516000915b81831061024a57505060405192909114825250602090f35b90919361026460019161025d878561043a565b5190610679565b94019190610232565b602060408183019282815284518094520192019060005b8181106102915750505090565b8251845260209384019390920191600101610284565b3461013d57604036600319011261013d5760043567ffffffffffffffff811161013d576102d890369060040161019b565b6024356102fa6102f5836102ef600182511161044e565b51610546565b6104a6565b9160005b8151600181111561038257600161034992610343928280881614600014610350575061032e60001987018661043a565b51610339828961043a565b525b019360011c90565b9161069c565b90916102fe565b86830190810361036d57506000610367828961043a565b5261033b565b610377908661043a565b51610367828961043a565b604051806100e8878261026d565b3461013d57602036600319011261013d5760206103ae600435610546565b604051908152f35b3461013d57604036600319011261013d5760206103ae602435600435610679565b3461013d57602036600319011261013d57600435806000815b61040a576020925060405191806001811901161490038152f35b600192831c9201826103f0565b8051156104245760200190565b634e487b7160e01b600052603260045260246000fd5b80518210156104245760209160051b010190565b1561045557565b60405162461bcd60e51b8152602060048201526024808201527f776f6e27742067656e65726174652070726f6f6620666f722073696e676c65206044820152633632b0b360e11b6064820152608490fd5b906104b36101b583610183565b82815280926104c4601f1991610183565b0190602036910137565b90604082018092116104dc57565b634e487b7160e01b600052601160045260246000fd5b90602082018092116104dc57565b90601082018092116104dc57565b90600882018092116104dc57565b90600482018092116104dc57565b90600282018092116104dc57565b90600182018092116104dc57565b60018111156106735760009080600160801b811015610667575b80680100000000000000006002921015610654575b640100000000811015610641575b6201000081101561062e575b61010081101561061b575b6010811015610608575b60048110156105f5575b10156105e5575b806105c08119610538565b1614806105dc575b156105d05790565b6105d990610538565b90565b508015156105c8565b906105ef90610538565b906105b5565b6106029060021c9361052a565b926105ae565b6106159060041c9361051c565b926105a4565b6106289060081c9361050e565b9261059a565b61063b9060101c93610500565b9261058f565b61064e9060201c936104f2565b92610583565b6106619060401c936104ce565b92610575565b60801c60809250610560565b50600090565b81811015610690576000526020525b604060002090565b90600052602052610688565b8051600180821603610735576106b6600182811c016104a6565b916106d86106c860001984018361043a565b5160008052602052604060002090565b6106e76000198551018561043a565b52905b6000190190600090815b838310610702575050505090565b6001600291610721610714868661043a565b5161025d8488018761043a565b61072b828961043a565b52019201916106f4565b6107418160011c6104a6565b91906106ea56fea2646970667358221220b99dbbc1a5e6857e335de42c6be88b27679c029b66a7412a0323d95bd461e70c64736f6c634300081a0033","linkReferences":{}},"methodIdentifiers":{"getProof(bytes32[],uint256)":"b8616195","getRoot(bytes32[])":"2e08d602","hashLeafPairs(bytes32,bytes32)":"dd1d2599","log2ceil(uint256)":"e27d5153","log2ceilBitMagic(uint256)":"cf06c7b7","verifyProof(bytes32,bytes32[],bytes32)":"58161a42"},"id":25}