{
  "abi": [
    {
      "inputs": [
        {
          "internalType": "address",
          "name": "target",
          "type": "address"
        }
      ],
      "name": "AddressEmptyCode",
      "type": "error"
    },
    {
      "inputs": [
        {
          "internalType": "address",
          "name": "account",
          "type": "address"
        }
      ],
      "name": "AddressInsufficientBalance",
      "type": "error"
    },
    {
      "inputs": [],
      "name": "AlreadyInitialized",
      "type": "error"
    },
    {
      "inputs": [],
      "name": "AlreadyRegisteredSubnet",
      "type": "error"
    },
    {
      "inputs": [],
      "name": "CallFailed",
      "type": "error"
    },
    {
      "inputs": [],
      "name": "CannotReleaseZero",
      "type": "error"
    },
    {
      "inputs": [],
      "name": "FailedInnerCall",
      "type": "error"
    },
    {
      "inputs": [],
      "name": "InsufficientFunds",
      "type": "error"
    },
    {
      "inputs": [],
      "name": "InvalidActorAddress",
      "type": "error"
    },
    {
      "inputs": [],
      "name": "NotEmptySubnetCircSupply",
      "type": "error"
    },
    {
      "inputs": [],
      "name": "NotEnoughFee",
      "type": "error"
    },
    {
      "inputs": [],
      "name": "NotEnoughFunds",
      "type": "error"
    },
    {
      "inputs": [],
      "name": "NotEnoughFundsToRelease",
      "type": "error"
    },
    {
      "inputs": [],
      "name": "NotRegisteredSubnet",
      "type": "error"
    },
    {
      "inputs": [],
      "name": "NotSignableAccount",
      "type": "error"
    },
    {
      "inputs": [],
      "name": "NotSystemActor",
      "type": "error"
    },
    {
      "inputs": [],
      "name": "ReentrancyError",
      "type": "error"
    },
    {
      "inputs": [],
      "name": "ValidatorWeightIsZero",
      "type": "error"
    },
    {
      "inputs": [],
      "name": "ValidatorsAndWeightsLengthMismatch",
      "type": "error"
    },
    {
      "inputs": [],
      "name": "addStake",
      "outputs": [],
      "stateMutability": "payable",
      "type": "function"
    },
    {
      "inputs": [
        {
          "components": [
            {
              "internalType": "uint64",
              "name": "root",
              "type": "uint64"
            },
            {
              "internalType": "address[]",
              "name": "route",
              "type": "address[]"
            }
          ],
          "internalType": "struct SubnetID",
          "name": "subnetId",
          "type": "tuple"
        },
        {
          "components": [
            {
              "internalType": "uint8",
              "name": "addrType",
              "type": "uint8"
            },
            {
              "internalType": "bytes",
              "name": "payload",
              "type": "bytes"
            }
          ],
          "internalType": "struct FvmAddress",
          "name": "to",
          "type": "tuple"
        }
      ],
      "name": "fund",
      "outputs": [],
      "stateMutability": "payable",
      "type": "function"
    },
    {
      "inputs": [
        {
          "internalType": "uint64",
          "name": "genesisEpoch",
          "type": "uint64"
        }
      ],
      "name": "initGenesisEpoch",
      "outputs": [],
      "stateMutability": "nonpayable",
      "type": "function"
    },
    {
      "inputs": [],
      "name": "kill",
      "outputs": [],
      "stateMutability": "nonpayable",
      "type": "function"
    },
    {
      "inputs": [],
      "name": "register",
      "outputs": [],
      "stateMutability": "payable",
      "type": "function"
    },
    {
      "inputs": [
        {
          "components": [
            {
              "internalType": "uint8",
              "name": "addrType",
              "type": "uint8"
            },
            {
              "internalType": "bytes",
              "name": "payload",
              "type": "bytes"
            }
          ],
          "internalType": "struct FvmAddress",
          "name": "to",
          "type": "tuple"
        }
      ],
      "name": "release",
      "outputs": [],
      "stateMutability": "payable",
      "type": "function"
    },
    {
      "inputs": [
        {
          "internalType": "uint256",
          "name": "amount",
          "type": "uint256"
        }
      ],
      "name": "releaseRewards",
      "outputs": [],
      "stateMutability": "nonpayable",
      "type": "function"
    },
    {
      "inputs": [
        {
          "internalType": "uint256",
          "name": "amount",
          "type": "uint256"
        }
      ],
      "name": "releaseStake",
      "outputs": [],
      "stateMutability": "nonpayable",
      "type": "function"
    },
    {
      "inputs": [
        {
          "internalType": "address[]",
          "name": "validators",
          "type": "address[]"
        },
        {
          "internalType": "uint256[]",
          "name": "weights",
          "type": "uint256[]"
        }
      ],
      "name": "setMembership",
      "outputs": [],
      "stateMutability": "nonpayable",
      "type": "function"
    }
  ],
  "bytecode": {
    "object": "0x608060405234801561001057600080fd5b506128de806100206000396000f3fe6080604052600436106100865760003560e01c806345f544851161005957806345f54485146100dd5780635a627dbc146100fd5780636b2c1eef14610105578063f75bc55714610118578063f8703bb81461013857600080fd5b806313f353881461008b57806318f44b70146100ad5780631aa3a008146100c057806341c0e1b5146100c8575b600080fd5b34801561009757600080fd5b506100ab6100a6366004611c32565b610158565b005b6100ab6100bb366004611c6e565b6101dc565b6100ab61031b565b3480156100d457600080fd5b506100ab61050d565b3480156100e957600080fd5b506100ab6100f8366004611cd1565b61078f565b6100ab61098f565b6100ab610113366004611cea565b610a32565b34801561012457600080fd5b506100ab610133366004611e5a565b610ae4565b34801561014457600080fd5b506100ab610153366004611cd1565b610bf0565b610160610c88565b60105460ff16156101835760405162dc149f60e41b815260040160405180910390fd5b7f283d1424c49941ba61504663c7a1b6f59e6bbb963a00bcc130bcbf9c29e1e27080546fffffffffffffffff00000000000000001916600160401b6001600160401b03841602179055506010805460ff19166001179055565b6101e4610d1a565b6101ec610daa565b600073__$33b79814e84bf6cf5e47244090b19ce5f8$__6399aa0eb48433856000600a01543461021c9190611f2a565b6040518563ffffffff1660e01b815260040161023b9493929190611fd5565b600060405180830381865af4158015610258573d6000803e3d6000fd5b505050506040513d6000823e601f3d908101601f1916820160405261028091908101906122e0565b905061028b81610dcd565b610316610297846123fd565b604051632cff562160e11b815273__$a0fe38a9a81205afccc10810b09a4d3f45$__916359feac42916102cd91906004016124b3565b602060405180830381865af41580156102ea573d6000803e3d6000fd5b505050506040513d601f19601f8201168201806040525081019061030e91906124c6565b600a546110a0565b505050565b60035434101561033e57604051631036b5ad60e31b815260040160405180910390fd5b604080518082018252600080546001600160401b031682526001805484516020828102820181019096528181529294859381860193909290918301828280156103b057602002820191906000526020600020905b81546001600160a01b03168152600190910190602001808311610392575b50505091909252505060405163aa5106cb60e01b815273__$a0fe38a9a81205afccc10810b09a4d3f45$__9263aa5106cb92506103f19133906004016124e3565b600060405180830381865af415801561040e573d6000803e3d6000fd5b505050506040513d6000823e601f3d908101601f19168201604052610436919081019061250d565b9050600080610444836110fe565b91509150811561046757604051631b538cdf60e11b815260040160405180910390fd5b825160048201805467ffffffffffffffff19166001600160401b0390921691909117815560208085015180518693926104a79260058701929101906119f6565b505034600183810191909155825460ff191681178355436002808501919091558054919250906000906104e49084906001600160401b0316612557565b92506101000a8154816001600160401b0302191690836001600160401b03160217905550505050565b60008061051933611291565b915091508161053b57604051630e991abd60e41b815260040160405180910390fd5b60038101541561055e57604051637c67c70160e11b815260040160405180910390fd5b600180820154600280549192916000906105829084906001600160401b031661257e565b82546101009290920a6001600160401b03818102199093169183160217909155604080518082018252600486810180549094168252600587018054845160208083028201810190965281815292965060009593948086019392919083018282801561061657602002820191906000526020600020905b81546001600160a01b031681526001909101906020018083116105f8575b5050509190925250506040516390ba52cf60e01b815273__$a0fe38a9a81205afccc10810b09a4d3f45$__926390ba52cf9250610655916004016124b3565b602060405180830381865af4158015610672573d6000803e3d6000fd5b505050506040513d601f19601f82011682018060405250810190610696919061259e565b815260208101919091526040016000908120805470ffffffffffffffffffffffffffffffffff1916815560018101829055600281018290556003810182905560048101805467ffffffffffffffff19168155909190816106f96005850182611a5b565b505060068201805467ffffffffffffffff191681556000818161071f6007870182611a5b565b505060028201805467ffffffffffffffff1916905560006003830181905561074b906004840190611a7c565b610759600583016000611a9d565b60068201600090556007820160006107719190611abe565b506107829050600e83016000611a7c565b50610316905033826113c9565b7f691bb03ffc16c56fc96b82fd16cd1b3715f0bc3cdc6407005f49bb62058600958054600019016107d3576040516329f745a760e01b815260040160405180910390fd5b6001815560008290036107f95760405163c79cad7b60e01b815260040160405180910390fd5b60008061080533611291565b915091508161082757604051630e991abd60e41b815260040160405180910390fd5b838160010154101561084c576040516379b33e7960e01b815260040160405180910390fd5b838160010160008282546108609190611f2a565b90915550506003546001820154101561087f57805460ff191660021781555b6040805180820182526004830180546001600160401b031682526005840180548451602082810282018101909652818152610986958a9594938186019390918301828280156108f757602002820191906000526020600020905b81546001600160a01b031681526001909101906020018083116108d9575b505050919092525050604051632cff562160e11b815273__$a0fe38a9a81205afccc10810b09a4d3f45$__926359feac429250610936916004016124b3565b602060405180830381865af4158015610953573d6000803e3d6000fd5b505050506040513d601f19601f8201168201806040525081019061097791906124c6565b6001600160a01b0316906113c9565b50506000905550565b600034116109b057604051631036b5ad60e31b815260040160405180910390fd5b6000806109bc33611291565b91509150816109de57604051630e991abd60e41b815260040160405180910390fd5b348160010160008282546109f291906125b7565b9091555060029050815460ff166005811115610a1057610a10612541565b03610a2e57600354600182015410610a2e57805460ff191660011781555b5050565b610a3a610d1a565b610a42610daa565b600073__$33b79814e84bf6cf5e47244090b19ce5f8$__631860845e6000800133856000600a015434610a759190611f2a565b6040518563ffffffff1660e01b8152600401610a949493929190612637565b600060405180830381865af4158015610ab1573d6000803e3d6000fd5b505050506040513d6000823e601f3d908101601f19168201604052610ad991908101906122e0565b9050610a2e8161145e565b610aec610c88565b8051825114610b0e5760405163465f0a7d60e01b815260040160405180910390fd5b600d8054600090610b1e9061267d565b909155508151600090815b81811015610be7576000858281518110610b4557610b45612696565b6020026020010151905060006001600160a01b0316816001600160a01b031614610bde576000858381518110610b7d57610b7d612696565b6020026020010151905080600003610ba85760405163389b457d60e01b815260040160405180910390fd5b600d546000908152600c602090815260408083206001600160a01b03861684529091529020819055610bda81866125b7565b9450505b50600101610b29565b5050600b555050565b7f691bb03ffc16c56fc96b82fd16cd1b3715f0bc3cdc6407005f49bb6205860095805460001901610c34576040516329f745a760e01b815260040160405180910390fd5b600181556000829003610c5a5760405163c79cad7b60e01b815260040160405180910390fd5b600080610c6633611291565b915091508161087f57604051630e991abd60e41b815260040160405180910390fd5b604051635d3f8a6960e01b815233600482015273__$e800e3908cdbb6b1b5bd452383a17b18f7$__90635d3f8a6990602401602060405180830381865af4158015610cd7573d6000803e3d6000fd5b505050506040513d601f19601f82011682018060405250810190610cfb91906126ac565b610d185760405163f0d97f3b60e01b815260040160405180910390fd5b565b604051630972932760e21b815233600482015273__$e800e3908cdbb6b1b5bd452383a17b18f7$__906325ca4c9c90602401602060405180830381865af4158015610d69573d6000803e3d6000fd5b505050506040513d601f19601f82011682018060405250810190610d8d91906126ac565b610d1857604051630a23da2b60e31b815260040160405180910390fd5b600a54341015610d18576040516334472ad760e11b815260040160405180910390fd5b8051602001515160405163089032d560e01b8152600091829173__$a0fe38a9a81205afccc10810b09a4d3f45$__9163089032d591610e11919085906004016126c7565b600060405180830381865af4158015610e2e573d6000803e3d6000fd5b505050506040513d6000823e601f3d908101601f19168201604052610e56919081019061250d565b9050600080610e64836110fe565b9150915081610e8657604051630e991abd60e41b815260040160405180910390fd5b805485516101009091046001600160401b0316606090910181905260019082908290610eb3908290612557565b92506101000a8154816001600160401b0302191690836001600160401b03160217905550846000015160400151816003016000828254610ef391906125b7565b9091555050600e810180546001808201835560009283526020928390208851805180518051600c909602909301805467ffffffffffffffff19166001600160401b039096169590951785558286015180518c979395879593948694938593610f629385019291909101906119f6565b505050602082810151805160028401805460ff191660ff909216919091178155918101519091906003840190610f98908261276e565b505050506020838101518051805160048601805467ffffffffffffffff19166001600160401b03909216919091178155818401518051939550909391928492610fe89260058901929101906119f6565b505050602082810151805160028401805460ff191660ff90921691909117815591810151909190600384019061101e908261276e565b5050505060408301516008830155506060820151600982018054608085015160e01c600160401b026001600160601b03199091166001600160401b039093169290921791909117905560a0820151600a82019061107b908261276e565b50505060209190910151600b909101805460ff19169115159190911790555050505050565b806000036110ac575050565b6103166110c1836001600160a01b0316611669565b6040805160248082018690528251808303909101815260449091019091526020810180516001600160e01b0316632a7edd8f60e21b1790526116b0565b6040516390ba52cf60e01b815260009081908190600490829073__$a0fe38a9a81205afccc10810b09a4d3f45$__906390ba52cf9061114090899086016124b3565b602060405180830381865af415801561115d573d6000803e3d6000fd5b505050506040513d601f19601f82011682018060405250810190611181919061259e565b81526020808201929092526040908101600020815180830183526004820180546001600160401b03168252600583018054855181880281018801909652808652939750919490938582019390929183018282801561120857602002820191906000526020600020905b81546001600160a01b031681526001909101906020018083116111ea575b505050919092525050604051630c133d1360e31b815273__$a0fe38a9a81205afccc10810b09a4d3f45$__92636099e8989250611247916004016124b3565b602060405180830381865af4158015611264573d6000803e3d6000fd5b505050506040513d601f19601f8201168201806040525081019061128891906126ac565b15925050915091565b600080806001600160a01b0384166112bc576040516370e4510960e01b815260040160405180910390fd5b60408051808201825282546001600160401b031681526001830180548351602082810282018101909552818152600094869381860193909183018282801561132d57602002820191906000526020600020905b81546001600160a01b0316815260019091019060200180831161130f575b50505091909252505060405163aa5106cb60e01b815273__$a0fe38a9a81205afccc10810b09a4d3f45$__9263aa5106cb925061136e9189906004016124e3565b600060405180830381865af415801561138b573d6000803e3d6000fd5b505050506040513d6000823e601f3d908101601f191682016040526113b3919081019061250d565b90506113be816110fe565b935093505050915091565b804710156113ea5760405163356680b760e01b815260040160405180910390fd5b6000826001600160a01b03168260405160006040518083038185875af1925050503d8060008114611437576040519150601f19603f3d011682016040523d82523d6000602084013e61143c565b606091505b505090508061031657604051633204506f60e01b815260040160405180910390fd5b6000806114696116ca565b600985015486516001600160401b03909116606090910152600a85015460038201805492955090935091506000906114a29084906125b7565b90915550506004810180546001808201835560009283526020928390208651805180518051600c909602909301805467ffffffffffffffff19166001600160401b039096169590951785558286015180518a9793958795939486949385936115119385019291909101906119f6565b505050602082810151805160028401805460ff191660ff909216919091178155918101519091906003840190611547908261276e565b505050506020838101518051805160048601805467ffffffffffffffff19166001600160401b039092169190911781558184015180519395509093919284926115979260058901929101906119f6565b505050602082810151805160028401805460ff191660ff9092169190911781559181015190919060038401906115cd908261276e565b5050505060408301516008830155506060820151600982018054608085015160e01c600160401b026001600160601b03199091166001600160401b039093169290921791909117905560a0820151600a82019061162a908261276e565b50505060209190910151600b909101805460ff1916911515919091179055600982018054600191906000906104e49084906001600160401b0316612557565b600080600061167784611800565b915091508161168857509192915050565b6000806116948361183c565b91509150816116a7575093949350505050565b95945050505050565b60606116c1838360006118a66118bf565b90505b92915050565b6005546000908190819081906116ea9043906001600160401b0316611965565b6001600160401b038082166000908152600884016020908152604091829020825180840184528154909416845260018101805484518185028101850190955280855295985090965092938693858301939290919083018282801561177757602002820191906000526020600020905b81546001600160a01b03168152600190910190602001808311611759575b505050919092525050604051630c133d1360e31b815273__$a0fe38a9a81205afccc10810b09a4d3f45$__92636099e89892506117b6916004016124b3565b602060405180830381865af41580156117d3573d6000803e3d6000fd5b505050506040513d601f19601f820116820180604052508101906117f791906126ac565b15935050909192565b60008073ffffffffffffffffffffffff0000000000000000831660ff60981b810361183657600192506001600160401b03841691505b50915091565b600080826000526016600a602060006002607f60991b015afa9150600051806001600160a01b031691508060a01c61ffff16905061040a81146118825760009250600091505b5081158061189157503d601614155b156118a157506000928392509050565b915091565b604051630a12f52160e11b815260040160405180910390fd5b6060824710156118e95760405163cd78605960e01b81523060048201526024015b60405180910390fd5b600080866001600160a01b03168587604051611905919061282d565b60006040518083038185875af1925050503d8060008114611942576040519150601f19603f3d011682016040523d82523d6000602084013e611947565b606091505b509150915061195887838387611987565b925050505b949350505050565b6000816119728185612849565b61197d906001612557565b6116c1919061287d565b606083156119d55782516000036119ce57846001600160a01b03163b6000036119ce57604051639996b31560e01b81526001600160a01b03861660048201526024016118e0565b508161195d565b61195d83838151156119ea5781518083602001fd5b6118a68163ffffffff16565b828054828255906000526020600020908101928215611a4b579160200282015b82811115611a4b57825182546001600160a01b0319166001600160a01b03909116178255602090920191600190910190611a16565b50611a57929150611af4565b5090565b5080546000825590600052602060002090810190611a799190611af4565b50565b50805460008255600c0290600052602060002090810190611a799190611b09565b5080546000825560030290600052602060002090810190611a799190611bdb565b508054611aca906126ec565b6000825580601f10611ada575050565b601f016020900490600052602060002090810190611a7991905b5b80821115611a575760008155600101611af5565b80821115611a5757805467ffffffffffffffff191681556000818181818181611b356001830182611a5b565b505060028201805460ff191681556000611b526003850182611abe565b5050505060048201805467ffffffffffffffff1916815560008181611b7a6005870182611a5b565b505060028201805460ff191681556000611b976003850182611abe565b50506000600885018190556009850180546001600160601b0319169055611bc49250600a85019150611abe565b505050600b8101805460ff19169055600c01611b09565b80821115611a5757805467ffffffffffffffff1916815560008181611c036001830182611a5b565b50611c149050600283016000611a5b565b50600301611bdb565b6001600160401b0381168114611a7957600080fd5b600060208284031215611c4457600080fd5b8135611c4f81611c1d565b9392505050565b600060408284031215611c6857600080fd5b50919050565b60008060408385031215611c8157600080fd5b82356001600160401b0380821115611c9857600080fd5b611ca486838701611c56565b93506020850135915080821115611cba57600080fd5b50611cc785828601611c56565b9150509250929050565b600060208284031215611ce357600080fd5b5035919050565b600060208284031215611cfc57600080fd5b81356001600160401b03811115611d1257600080fd5b61195d84828501611c56565b634e487b7160e01b600052604160045260246000fd5b604080519081016001600160401b0381118282101715611d5657611d56611d1e565b60405290565b60405160c081016001600160401b0381118282101715611d5657611d56611d1e565b604051601f8201601f191681016001600160401b0381118282101715611da657611da6611d1e565b604052919050565b60006001600160401b03821115611dc757611dc7611d1e565b5060051b60200190565b6001600160a01b0381168114611a7957600080fd5b600082601f830112611df757600080fd5b81356020611e0c611e0783611dae565b611d7e565b82815260059290921b84018101918181019086841115611e2b57600080fd5b8286015b84811015611e4f578035611e4281611dd1565b8352918301918301611e2f565b509695505050505050565b60008060408385031215611e6d57600080fd5b82356001600160401b0380821115611e8457600080fd5b611e9086838701611de6565b9350602091508185013581811115611ea757600080fd5b85019050601f81018613611eba57600080fd5b8035611ec8611e0782611dae565b81815260059190911b82018301908381019088831115611ee757600080fd5b928401925b82841015611f0557833582529284019290840190611eec565b80955050505050509250929050565b634e487b7160e01b600052601160045260246000fd5b818103818111156116c4576116c4611f14565b60ff81168114611a7957600080fd5b60008135611f5981611f3d565b60ff168352602082013536839003601e19018112611f7657600080fd5b82016020810190356001600160401b03811115611f9257600080fd5b803603821315611fa157600080fd5b60406020860152806040860152808260608701376000606082870101526060601f19601f8301168601019250505092915050565b60808152600060c082018635611fea81611c1d565b6001600160401b03908116608085015260209088820135368a9003601e1901811261201457600080fd5b890182810190358281111561202857600080fd5b8060051b360382131561203a57600080fd5b604060a0880152938490529260e0860191506000905b8082101561208257843561206381611dd1565b6001600160a01b03168352938301939183019160019190910190612050565b50506001600160a01b0388168583015284810360408601526120a48188611f4c565b935050505082606083015295945050505050565b80516120c381611c1d565b919050565b6000604082840312156120da57600080fd5b6120e2611d34565b905081516120ef81611c1d565b81526020828101516001600160401b0381111561210b57600080fd5b8301601f8101851361211c57600080fd5b805161212a611e0782611dae565b81815260059190911b8201830190838101908783111561214957600080fd5b928401925b8284101561217057835161216181611dd1565b8252928401929084019061214e565b8085870152505050505092915050565b60005b8381101561219b578181015183820152602001612183565b50506000910152565b600082601f8301126121b557600080fd5b81516001600160401b038111156121ce576121ce611d1e565b6121e1601f8201601f1916602001611d7e565b8181528460208386010111156121f657600080fd5b61195d826020830160208701612180565b60006040828403121561221957600080fd5b612221611d34565b905081516001600160401b038082111561223a57600080fd5b612246858386016120c8565b8352602084015191508082111561225c57600080fd5b908301906040828603121561227057600080fd5b612278611d34565b825161228381611f3d565b815260208301518281111561229757600080fd5b6122a3878286016121a4565b60208301525080602085015250505092915050565b80516001600160e01b0319811681146120c357600080fd5b805180151581146120c357600080fd5b6000602082840312156122f257600080fd5b81516001600160401b038082111561230957600080fd5b908301906040828603121561231d57600080fd5b612325611d34565b82518281111561233457600080fd5b830160c0818803121561234657600080fd5b61234e611d5c565b81518481111561235d57600080fd5b61236989828501612207565b82525060208201518481111561237e57600080fd5b61238a89828501612207565b602083015250604082015160408201526123a6606083016120b8565b60608201526123b7608083016122b8565b608082015260a0820151848111156123ce57600080fd5b6123da898285016121a4565b60a0830152508252506123ef602084016122d0565b602082015295945050505050565b60006040823603121561240f57600080fd5b612417611d34565b823561242281611c1d565b815260208301356001600160401b0381111561243d57600080fd5b61244936828601611de6565b60208301525092915050565b6000604083016001600160401b0383511684526020808401516040828701528281518085526060880191508383019450600092505b80831015611e4f5784516001600160a01b0316825293830193600192909201919083019061248a565b6020815260006116c16020830184612455565b6000602082840312156124d857600080fd5b8151611c4f81611dd1565b6040815260006124f66040830185612455565b905060018060a01b03831660208301529392505050565b60006020828403121561251f57600080fd5b81516001600160401b0381111561253557600080fd5b61195d848285016120c8565b634e487b7160e01b600052602160045260246000fd5b6001600160401b0381811683821601908082111561257757612577611f14565b5092915050565b6001600160401b0382811682821603908082111561257757612577611f14565b6000602082840312156125b057600080fd5b5051919050565b808201808211156116c4576116c4611f14565b6000604083016001600160401b0383541684526001808401602060408188015283825480865260608901915083600052826000209550600093505b8084101561262b5785546001600160a01b03168252948401949284019290820190612605565b50979650505050505050565b60808152600061264a60808301876125ca565b6001600160a01b0386166020840152828103604084015261266b8186611f4c565b91505082606083015295945050505050565b60006001820161268f5761268f611f14565b5060010190565b634e487b7160e01b600052603260045260246000fd5b6000602082840312156126be57600080fd5b6116c1826122d0565b6040815260006126da6040830185612455565b82810360208401526116a781856125ca565b600181811c9082168061270057607f821691505b602082108103611c6857634e487b7160e01b600052602260045260246000fd5b601f82111561031657600081815260208120601f850160051c810160208610156127475750805b601f850160051c820191505b8181101561276657828155600101612753565b505050505050565b81516001600160401b0381111561278757612787611d1e565b61279b8161279584546126ec565b84612720565b602080601f8311600181146127d057600084156127b85750858301515b600019600386901b1c1916600185901b178555612766565b600085815260208120601f198616915b828110156127ff578886015182559484019460019091019084016127e0565b508582101561281d5787850151600019600388901b60f8161c191681555b5050505050600190811b01905550565b6000825161283f818460208701612180565b9190910192915050565b60006001600160401b038084168061287157634e487b7160e01b600052601260045260246000fd5b92169190910492915050565b6001600160401b038181168382160280821691908281146128a0576128a0611f14565b50509291505056fea2646970667358221220149701e5bce4b12b7b6d6beb34f2e2e2c898c66ffd445c22db65e79fb213e5a664736f6c63430008130033",
    "linkReferences": {
      "src/lib/AccountHelper.sol": {
        "AccountHelper": [
          {
            "start": 3261,
            "length": 20
          },
          {
            "start": 3407,
            "length": 20
          }
        ]
      },
      "src/lib/CrossMsgHelper.sol": {
        "CrossMsgHelper": [
          {
            "start": 528,
            "length": 20
          },
          {
            "start": 2662,
            "length": 20
          }
        ]
      },
      "src/lib/SubnetIDHelper.sol": {
        "SubnetIDHelper": [
          {
            "start": 710,
            "length": 20
          },
          {
            "start": 1000,
            "length": 20
          },
          {
            "start": 1614,
            "length": 20
          },
          {
            "start": 2351,
            "length": 20
          },
          {
            "start": 3592,
            "length": 20
          },
          {
            "start": 4409,
            "length": 20
          },
          {
            "start": 4672,
            "length": 20
          },
          {
            "start": 4965,
            "length": 20
          },
          {
            "start": 6063,
            "length": 20
          }
        ]
      }
    }
  },
  "methodIdentifiers": {
    "addStake()": "5a627dbc",
    "fund((uint64,address[]),(uint8,bytes))": "18f44b70",
    "initGenesisEpoch(uint64)": "13f35388",
    "kill()": "41c0e1b5",
    "register()": "1aa3a008",
    "release((uint8,bytes))": "6b2c1eef",
    "releaseRewards(uint256)": "f8703bb8",
    "releaseStake(uint256)": "45f54485",
    "setMembership(address[],uint256[])": "f75bc557"
  },
  "id": 39
}