{
  "abi": [
    {
      "inputs": [],
      "name": "appliedTopDownNonce",
      "outputs": [
        {
          "internalType": "uint64",
          "name": "",
          "type": "uint64"
        }
      ],
      "stateMutability": "view",
      "type": "function"
    },
    {
      "inputs": [],
      "name": "bottomUpCheckPeriod",
      "outputs": [
        {
          "internalType": "uint64",
          "name": "",
          "type": "uint64"
        }
      ],
      "stateMutability": "view",
      "type": "function"
    },
    {
      "inputs": [
        {
          "internalType": "uint64",
          "name": "epoch",
          "type": "uint64"
        }
      ],
      "name": "bottomUpCheckpointAtEpoch",
      "outputs": [
        {
          "internalType": "bool",
          "name": "exists",
          "type": "bool"
        },
        {
          "components": [
            {
              "components": [
                {
                  "internalType": "uint64",
                  "name": "root",
                  "type": "uint64"
                },
                {
                  "internalType": "address[]",
                  "name": "route",
                  "type": "address[]"
                }
              ],
              "internalType": "struct SubnetID",
              "name": "source",
              "type": "tuple"
            },
            {
              "internalType": "uint64",
              "name": "epoch",
              "type": "uint64"
            },
            {
              "internalType": "uint256",
              "name": "fee",
              "type": "uint256"
            },
            {
              "components": [
                {
                  "components": [
                    {
                      "components": [
                        {
                          "components": [
                            {
                              "internalType": "uint64",
                              "name": "root",
                              "type": "uint64"
                            },
                            {
                              "internalType": "address[]",
                              "name": "route",
                              "type": "address[]"
                            }
                          ],
                          "internalType": "struct SubnetID",
                          "name": "subnetId",
                          "type": "tuple"
                        },
                        {
                          "components": [
                            {
                              "internalType": "uint8",
                              "name": "addrType",
                              "type": "uint8"
                            },
                            {
                              "internalType": "bytes",
                              "name": "payload",
                              "type": "bytes"
                            }
                          ],
                          "internalType": "struct FvmAddress",
                          "name": "rawAddress",
                          "type": "tuple"
                        }
                      ],
                      "internalType": "struct IPCAddress",
                      "name": "from",
                      "type": "tuple"
                    },
                    {
                      "components": [
                        {
                          "components": [
                            {
                              "internalType": "uint64",
                              "name": "root",
                              "type": "uint64"
                            },
                            {
                              "internalType": "address[]",
                              "name": "route",
                              "type": "address[]"
                            }
                          ],
                          "internalType": "struct SubnetID",
                          "name": "subnetId",
                          "type": "tuple"
                        },
                        {
                          "components": [
                            {
                              "internalType": "uint8",
                              "name": "addrType",
                              "type": "uint8"
                            },
                            {
                              "internalType": "bytes",
                              "name": "payload",
                              "type": "bytes"
                            }
                          ],
                          "internalType": "struct FvmAddress",
                          "name": "rawAddress",
                          "type": "tuple"
                        }
                      ],
                      "internalType": "struct IPCAddress",
                      "name": "to",
                      "type": "tuple"
                    },
                    {
                      "internalType": "uint256",
                      "name": "value",
                      "type": "uint256"
                    },
                    {
                      "internalType": "uint64",
                      "name": "nonce",
                      "type": "uint64"
                    },
                    {
                      "internalType": "bytes4",
                      "name": "method",
                      "type": "bytes4"
                    },
                    {
                      "internalType": "bytes",
                      "name": "params",
                      "type": "bytes"
                    }
                  ],
                  "internalType": "struct StorableMsg",
                  "name": "message",
                  "type": "tuple"
                },
                {
                  "internalType": "bool",
                  "name": "wrapped",
                  "type": "bool"
                }
              ],
              "internalType": "struct CrossMsg[]",
              "name": "crossMsgs",
              "type": "tuple[]"
            },
            {
              "components": [
                {
                  "components": [
                    {
                      "internalType": "uint64",
                      "name": "root",
                      "type": "uint64"
                    },
                    {
                      "internalType": "address[]",
                      "name": "route",
                      "type": "address[]"
                    }
                  ],
                  "internalType": "struct SubnetID",
                  "name": "source",
                  "type": "tuple"
                },
                {
                  "internalType": "bytes32[]",
                  "name": "checks",
                  "type": "bytes32[]"
                }
              ],
              "internalType": "struct ChildCheck[]",
              "name": "children",
              "type": "tuple[]"
            },
            {
              "internalType": "bytes32",
              "name": "prevHash",
              "type": "bytes32"
            },
            {
              "internalType": "bytes",
              "name": "proof",
              "type": "bytes"
            }
          ],
          "internalType": "struct BottomUpCheckpoint",
          "name": "checkpoint",
          "type": "tuple"
        }
      ],
      "stateMutability": "view",
      "type": "function"
    },
    {
      "inputs": [
        {
          "internalType": "uint64",
          "name": "epoch",
          "type": "uint64"
        }
      ],
      "name": "bottomUpCheckpointHashAtEpoch",
      "outputs": [
        {
          "internalType": "bool",
          "name": "",
          "type": "bool"
        },
        {
          "internalType": "bytes32",
          "name": "",
          "type": "bytes32"
        }
      ],
      "stateMutability": "view",
      "type": "function"
    },
    {
      "inputs": [
        {
          "internalType": "uint64",
          "name": "e",
          "type": "uint64"
        }
      ],
      "name": "bottomUpCheckpoints",
      "outputs": [
        {
          "components": [
            {
              "components": [
                {
                  "internalType": "uint64",
                  "name": "root",
                  "type": "uint64"
                },
                {
                  "internalType": "address[]",
                  "name": "route",
                  "type": "address[]"
                }
              ],
              "internalType": "struct SubnetID",
              "name": "source",
              "type": "tuple"
            },
            {
              "internalType": "uint64",
              "name": "epoch",
              "type": "uint64"
            },
            {
              "internalType": "uint256",
              "name": "fee",
              "type": "uint256"
            },
            {
              "components": [
                {
                  "components": [
                    {
                      "components": [
                        {
                          "components": [
                            {
                              "internalType": "uint64",
                              "name": "root",
                              "type": "uint64"
                            },
                            {
                              "internalType": "address[]",
                              "name": "route",
                              "type": "address[]"
                            }
                          ],
                          "internalType": "struct SubnetID",
                          "name": "subnetId",
                          "type": "tuple"
                        },
                        {
                          "components": [
                            {
                              "internalType": "uint8",
                              "name": "addrType",
                              "type": "uint8"
                            },
                            {
                              "internalType": "bytes",
                              "name": "payload",
                              "type": "bytes"
                            }
                          ],
                          "internalType": "struct FvmAddress",
                          "name": "rawAddress",
                          "type": "tuple"
                        }
                      ],
                      "internalType": "struct IPCAddress",
                      "name": "from",
                      "type": "tuple"
                    },
                    {
                      "components": [
                        {
                          "components": [
                            {
                              "internalType": "uint64",
                              "name": "root",
                              "type": "uint64"
                            },
                            {
                              "internalType": "address[]",
                              "name": "route",
                              "type": "address[]"
                            }
                          ],
                          "internalType": "struct SubnetID",
                          "name": "subnetId",
                          "type": "tuple"
                        },
                        {
                          "components": [
                            {
                              "internalType": "uint8",
                              "name": "addrType",
                              "type": "uint8"
                            },
                            {
                              "internalType": "bytes",
                              "name": "payload",
                              "type": "bytes"
                            }
                          ],
                          "internalType": "struct FvmAddress",
                          "name": "rawAddress",
                          "type": "tuple"
                        }
                      ],
                      "internalType": "struct IPCAddress",
                      "name": "to",
                      "type": "tuple"
                    },
                    {
                      "internalType": "uint256",
                      "name": "value",
                      "type": "uint256"
                    },
                    {
                      "internalType": "uint64",
                      "name": "nonce",
                      "type": "uint64"
                    },
                    {
                      "internalType": "bytes4",
                      "name": "method",
                      "type": "bytes4"
                    },
                    {
                      "internalType": "bytes",
                      "name": "params",
                      "type": "bytes"
                    }
                  ],
                  "internalType": "struct StorableMsg",
                  "name": "message",
                  "type": "tuple"
                },
                {
                  "internalType": "bool",
                  "name": "wrapped",
                  "type": "bool"
                }
              ],
              "internalType": "struct CrossMsg[]",
              "name": "crossMsgs",
              "type": "tuple[]"
            },
            {
              "components": [
                {
                  "components": [
                    {
                      "internalType": "uint64",
                      "name": "root",
                      "type": "uint64"
                    },
                    {
                      "internalType": "address[]",
                      "name": "route",
                      "type": "address[]"
                    }
                  ],
                  "internalType": "struct SubnetID",
                  "name": "source",
                  "type": "tuple"
                },
                {
                  "internalType": "bytes32[]",
                  "name": "checks",
                  "type": "bytes32[]"
                }
              ],
              "internalType": "struct ChildCheck[]",
              "name": "children",
              "type": "tuple[]"
            },
            {
              "internalType": "bytes32",
              "name": "prevHash",
              "type": "bytes32"
            },
            {
              "internalType": "bytes",
              "name": "proof",
              "type": "bytes"
            }
          ],
          "internalType": "struct BottomUpCheckpoint",
          "name": "",
          "type": "tuple"
        }
      ],
      "stateMutability": "view",
      "type": "function"
    },
    {
      "inputs": [],
      "name": "bottomUpNonce",
      "outputs": [
        {
          "internalType": "uint64",
          "name": "",
          "type": "uint64"
        }
      ],
      "stateMutability": "view",
      "type": "function"
    },
    {
      "inputs": [],
      "name": "crossMsgFee",
      "outputs": [
        {
          "internalType": "uint256",
          "name": "",
          "type": "uint256"
        }
      ],
      "stateMutability": "view",
      "type": "function"
    },
    {
      "inputs": [],
      "name": "executableQueue",
      "outputs": [
        {
          "internalType": "uint64",
          "name": "",
          "type": "uint64"
        },
        {
          "internalType": "uint64",
          "name": "",
          "type": "uint64"
        },
        {
          "internalType": "uint64",
          "name": "",
          "type": "uint64"
        }
      ],
      "stateMutability": "view",
      "type": "function"
    },
    {
      "inputs": [
        {
          "components": [
            {
              "internalType": "uint64",
              "name": "root",
              "type": "uint64"
            },
            {
              "internalType": "address[]",
              "name": "route",
              "type": "address[]"
            }
          ],
          "internalType": "struct SubnetID",
          "name": "subnetId",
          "type": "tuple"
        }
      ],
      "name": "getAppliedTopDownNonce",
      "outputs": [
        {
          "internalType": "bool",
          "name": "",
          "type": "bool"
        },
        {
          "internalType": "uint64",
          "name": "",
          "type": "uint64"
        }
      ],
      "stateMutability": "view",
      "type": "function"
    },
    {
      "inputs": [],
      "name": "getGenesisEpoch",
      "outputs": [
        {
          "internalType": "uint64",
          "name": "",
          "type": "uint64"
        }
      ],
      "stateMutability": "view",
      "type": "function"
    },
    {
      "inputs": [],
      "name": "getNetworkName",
      "outputs": [
        {
          "components": [
            {
              "internalType": "uint64",
              "name": "root",
              "type": "uint64"
            },
            {
              "internalType": "address[]",
              "name": "route",
              "type": "address[]"
            }
          ],
          "internalType": "struct SubnetID",
          "name": "",
          "type": "tuple"
        }
      ],
      "stateMutability": "view",
      "type": "function"
    },
    {
      "inputs": [
        {
          "components": [
            {
              "internalType": "uint64",
              "name": "root",
              "type": "uint64"
            },
            {
              "internalType": "address[]",
              "name": "route",
              "type": "address[]"
            }
          ],
          "internalType": "struct SubnetID",
          "name": "subnetId",
          "type": "tuple"
        }
      ],
      "name": "getSubnet",
      "outputs": [
        {
          "internalType": "bool",
          "name": "",
          "type": "bool"
        },
        {
          "components": [
            {
              "internalType": "enum Status",
              "name": "status",
              "type": "uint8"
            },
            {
              "internalType": "uint64",
              "name": "topDownNonce",
              "type": "uint64"
            },
            {
              "internalType": "uint64",
              "name": "appliedBottomUpNonce",
              "type": "uint64"
            },
            {
              "internalType": "uint256",
              "name": "stake",
              "type": "uint256"
            },
            {
              "internalType": "uint256",
              "name": "genesisEpoch",
              "type": "uint256"
            },
            {
              "internalType": "uint256",
              "name": "circSupply",
              "type": "uint256"
            },
            {
              "components": [
                {
                  "internalType": "uint64",
                  "name": "root",
                  "type": "uint64"
                },
                {
                  "internalType": "address[]",
                  "name": "route",
                  "type": "address[]"
                }
              ],
              "internalType": "struct SubnetID",
              "name": "id",
              "type": "tuple"
            },
            {
              "components": [
                {
                  "components": [
                    {
                      "internalType": "uint64",
                      "name": "root",
                      "type": "uint64"
                    },
                    {
                      "internalType": "address[]",
                      "name": "route",
                      "type": "address[]"
                    }
                  ],
                  "internalType": "struct SubnetID",
                  "name": "source",
                  "type": "tuple"
                },
                {
                  "internalType": "uint64",
                  "name": "epoch",
                  "type": "uint64"
                },
                {
                  "internalType": "uint256",
                  "name": "fee",
                  "type": "uint256"
                },
                {
                  "components": [
                    {
                      "components": [
                        {
                          "components": [
                            {
                              "components": [
                                {
                                  "internalType": "uint64",
                                  "name": "root",
                                  "type": "uint64"
                                },
                                {
                                  "internalType": "address[]",
                                  "name": "route",
                                  "type": "address[]"
                                }
                              ],
                              "internalType": "struct SubnetID",
                              "name": "subnetId",
                              "type": "tuple"
                            },
                            {
                              "components": [
                                {
                                  "internalType": "uint8",
                                  "name": "addrType",
                                  "type": "uint8"
                                },
                                {
                                  "internalType": "bytes",
                                  "name": "payload",
                                  "type": "bytes"
                                }
                              ],
                              "internalType": "struct FvmAddress",
                              "name": "rawAddress",
                              "type": "tuple"
                            }
                          ],
                          "internalType": "struct IPCAddress",
                          "name": "from",
                          "type": "tuple"
                        },
                        {
                          "components": [
                            {
                              "components": [
                                {
                                  "internalType": "uint64",
                                  "name": "root",
                                  "type": "uint64"
                                },
                                {
                                  "internalType": "address[]",
                                  "name": "route",
                                  "type": "address[]"
                                }
                              ],
                              "internalType": "struct SubnetID",
                              "name": "subnetId",
                              "type": "tuple"
                            },
                            {
                              "components": [
                                {
                                  "internalType": "uint8",
                                  "name": "addrType",
                                  "type": "uint8"
                                },
                                {
                                  "internalType": "bytes",
                                  "name": "payload",
                                  "type": "bytes"
                                }
                              ],
                              "internalType": "struct FvmAddress",
                              "name": "rawAddress",
                              "type": "tuple"
                            }
                          ],
                          "internalType": "struct IPCAddress",
                          "name": "to",
                          "type": "tuple"
                        },
                        {
                          "internalType": "uint256",
                          "name": "value",
                          "type": "uint256"
                        },
                        {
                          "internalType": "uint64",
                          "name": "nonce",
                          "type": "uint64"
                        },
                        {
                          "internalType": "bytes4",
                          "name": "method",
                          "type": "bytes4"
                        },
                        {
                          "internalType": "bytes",
                          "name": "params",
                          "type": "bytes"
                        }
                      ],
                      "internalType": "struct StorableMsg",
                      "name": "message",
                      "type": "tuple"
                    },
                    {
                      "internalType": "bool",
                      "name": "wrapped",
                      "type": "bool"
                    }
                  ],
                  "internalType": "struct CrossMsg[]",
                  "name": "crossMsgs",
                  "type": "tuple[]"
                },
                {
                  "components": [
                    {
                      "components": [
                        {
                          "internalType": "uint64",
                          "name": "root",
                          "type": "uint64"
                        },
                        {
                          "internalType": "address[]",
                          "name": "route",
                          "type": "address[]"
                        }
                      ],
                      "internalType": "struct SubnetID",
                      "name": "source",
                      "type": "tuple"
                    },
                    {
                      "internalType": "bytes32[]",
                      "name": "checks",
                      "type": "bytes32[]"
                    }
                  ],
                  "internalType": "struct ChildCheck[]",
                  "name": "children",
                  "type": "tuple[]"
                },
                {
                  "internalType": "bytes32",
                  "name": "prevHash",
                  "type": "bytes32"
                },
                {
                  "internalType": "bytes",
                  "name": "proof",
                  "type": "bytes"
                }
              ],
              "internalType": "struct BottomUpCheckpoint",
              "name": "prevCheckpoint",
              "type": "tuple"
            },
            {
              "components": [
                {
                  "components": [
                    {
                      "components": [
                        {
                          "components": [
                            {
                              "internalType": "uint64",
                              "name": "root",
                              "type": "uint64"
                            },
                            {
                              "internalType": "address[]",
                              "name": "route",
                              "type": "address[]"
                            }
                          ],
                          "internalType": "struct SubnetID",
                          "name": "subnetId",
                          "type": "tuple"
                        },
                        {
                          "components": [
                            {
                              "internalType": "uint8",
                              "name": "addrType",
                              "type": "uint8"
                            },
                            {
                              "internalType": "bytes",
                              "name": "payload",
                              "type": "bytes"
                            }
                          ],
                          "internalType": "struct FvmAddress",
                          "name": "rawAddress",
                          "type": "tuple"
                        }
                      ],
                      "internalType": "struct IPCAddress",
                      "name": "from",
                      "type": "tuple"
                    },
                    {
                      "components": [
                        {
                          "components": [
                            {
                              "internalType": "uint64",
                              "name": "root",
                              "type": "uint64"
                            },
                            {
                              "internalType": "address[]",
                              "name": "route",
                              "type": "address[]"
                            }
                          ],
                          "internalType": "struct SubnetID",
                          "name": "subnetId",
                          "type": "tuple"
                        },
                        {
                          "components": [
                            {
                              "internalType": "uint8",
                              "name": "addrType",
                              "type": "uint8"
                            },
                            {
                              "internalType": "bytes",
                              "name": "payload",
                              "type": "bytes"
                            }
                          ],
                          "internalType": "struct FvmAddress",
                          "name": "rawAddress",
                          "type": "tuple"
                        }
                      ],
                      "internalType": "struct IPCAddress",
                      "name": "to",
                      "type": "tuple"
                    },
                    {
                      "internalType": "uint256",
                      "name": "value",
                      "type": "uint256"
                    },
                    {
                      "internalType": "uint64",
                      "name": "nonce",
                      "type": "uint64"
                    },
                    {
                      "internalType": "bytes4",
                      "name": "method",
                      "type": "bytes4"
                    },
                    {
                      "internalType": "bytes",
                      "name": "params",
                      "type": "bytes"
                    }
                  ],
                  "internalType": "struct StorableMsg",
                  "name": "message",
                  "type": "tuple"
                },
                {
                  "internalType": "bool",
                  "name": "wrapped",
                  "type": "bool"
                }
              ],
              "internalType": "struct CrossMsg[]",
              "name": "topDownMsgs",
              "type": "tuple[]"
            }
          ],
          "internalType": "struct Subnet",
          "name": "",
          "type": "tuple"
        }
      ],
      "stateMutability": "view",
      "type": "function"
    },
    {
      "inputs": [
        {
          "components": [
            {
              "internalType": "uint64",
              "name": "root",
              "type": "uint64"
            },
            {
              "internalType": "address[]",
              "name": "route",
              "type": "address[]"
            }
          ],
          "internalType": "struct SubnetID",
          "name": "subnetId",
          "type": "tuple"
        },
        {
          "internalType": "uint256",
          "name": "index",
          "type": "uint256"
        }
      ],
      "name": "getSubnetTopDownMsg",
      "outputs": [
        {
          "components": [
            {
              "components": [
                {
                  "components": [
                    {
                      "components": [
                        {
                          "internalType": "uint64",
                          "name": "root",
                          "type": "uint64"
                        },
                        {
                          "internalType": "address[]",
                          "name": "route",
                          "type": "address[]"
                        }
                      ],
                      "internalType": "struct SubnetID",
                      "name": "subnetId",
                      "type": "tuple"
                    },
                    {
                      "components": [
                        {
                          "internalType": "uint8",
                          "name": "addrType",
                          "type": "uint8"
                        },
                        {
                          "internalType": "bytes",
                          "name": "payload",
                          "type": "bytes"
                        }
                      ],
                      "internalType": "struct FvmAddress",
                      "name": "rawAddress",
                      "type": "tuple"
                    }
                  ],
                  "internalType": "struct IPCAddress",
                  "name": "from",
                  "type": "tuple"
                },
                {
                  "components": [
                    {
                      "components": [
                        {
                          "internalType": "uint64",
                          "name": "root",
                          "type": "uint64"
                        },
                        {
                          "internalType": "address[]",
                          "name": "route",
                          "type": "address[]"
                        }
                      ],
                      "internalType": "struct SubnetID",
                      "name": "subnetId",
                      "type": "tuple"
                    },
                    {
                      "components": [
                        {
                          "internalType": "uint8",
                          "name": "addrType",
                          "type": "uint8"
                        },
                        {
                          "internalType": "bytes",
                          "name": "payload",
                          "type": "bytes"
                        }
                      ],
                      "internalType": "struct FvmAddress",
                      "name": "rawAddress",
                      "type": "tuple"
                    }
                  ],
                  "internalType": "struct IPCAddress",
                  "name": "to",
                  "type": "tuple"
                },
                {
                  "internalType": "uint256",
                  "name": "value",
                  "type": "uint256"
                },
                {
                  "internalType": "uint64",
                  "name": "nonce",
                  "type": "uint64"
                },
                {
                  "internalType": "bytes4",
                  "name": "method",
                  "type": "bytes4"
                },
                {
                  "internalType": "bytes",
                  "name": "params",
                  "type": "bytes"
                }
              ],
              "internalType": "struct StorableMsg",
              "name": "message",
              "type": "tuple"
            },
            {
              "internalType": "bool",
              "name": "wrapped",
              "type": "bool"
            }
          ],
          "internalType": "struct CrossMsg",
          "name": "",
          "type": "tuple"
        }
      ],
      "stateMutability": "view",
      "type": "function"
    },
    {
      "inputs": [
        {
          "components": [
            {
              "internalType": "uint64",
              "name": "root",
              "type": "uint64"
            },
            {
              "internalType": "address[]",
              "name": "route",
              "type": "address[]"
            }
          ],
          "internalType": "struct SubnetID",
          "name": "subnetId",
          "type": "tuple"
        }
      ],
      "name": "getSubnetTopDownMsgsLength",
      "outputs": [
        {
          "internalType": "uint256",
          "name": "",
          "type": "uint256"
        }
      ],
      "stateMutability": "view",
      "type": "function"
    },
    {
      "inputs": [
        {
          "components": [
            {
              "internalType": "uint64",
              "name": "root",
              "type": "uint64"
            },
            {
              "internalType": "address[]",
              "name": "route",
              "type": "address[]"
            }
          ],
          "internalType": "struct SubnetID",
          "name": "subnetId",
          "type": "tuple"
        },
        {
          "internalType": "uint64",
          "name": "fromNonce",
          "type": "uint64"
        }
      ],
      "name": "getTopDownMsgs",
      "outputs": [
        {
          "components": [
            {
              "components": [
                {
                  "components": [
                    {
                      "components": [
                        {
                          "internalType": "uint64",
                          "name": "root",
                          "type": "uint64"
                        },
                        {
                          "internalType": "address[]",
                          "name": "route",
                          "type": "address[]"
                        }
                      ],
                      "internalType": "struct SubnetID",
                      "name": "subnetId",
                      "type": "tuple"
                    },
                    {
                      "components": [
                        {
                          "internalType": "uint8",
                          "name": "addrType",
                          "type": "uint8"
                        },
                        {
                          "internalType": "bytes",
                          "name": "payload",
                          "type": "bytes"
                        }
                      ],
                      "internalType": "struct FvmAddress",
                      "name": "rawAddress",
                      "type": "tuple"
                    }
                  ],
                  "internalType": "struct IPCAddress",
                  "name": "from",
                  "type": "tuple"
                },
                {
                  "components": [
                    {
                      "components": [
                        {
                          "internalType": "uint64",
                          "name": "root",
                          "type": "uint64"
                        },
                        {
                          "internalType": "address[]",
                          "name": "route",
                          "type": "address[]"
                        }
                      ],
                      "internalType": "struct SubnetID",
                      "name": "subnetId",
                      "type": "tuple"
                    },
                    {
                      "components": [
                        {
                          "internalType": "uint8",
                          "name": "addrType",
                          "type": "uint8"
                        },
                        {
                          "internalType": "bytes",
                          "name": "payload",
                          "type": "bytes"
                        }
                      ],
                      "internalType": "struct FvmAddress",
                      "name": "rawAddress",
                      "type": "tuple"
                    }
                  ],
                  "internalType": "struct IPCAddress",
                  "name": "to",
                  "type": "tuple"
                },
                {
                  "internalType": "uint256",
                  "name": "value",
                  "type": "uint256"
                },
                {
                  "internalType": "uint64",
                  "name": "nonce",
                  "type": "uint64"
                },
                {
                  "internalType": "bytes4",
                  "name": "method",
                  "type": "bytes4"
                },
                {
                  "internalType": "bytes",
                  "name": "params",
                  "type": "bytes"
                }
              ],
              "internalType": "struct StorableMsg",
              "name": "message",
              "type": "tuple"
            },
            {
              "internalType": "bool",
              "name": "wrapped",
              "type": "bool"
            }
          ],
          "internalType": "struct CrossMsg[]",
          "name": "",
          "type": "tuple[]"
        }
      ],
      "stateMutability": "view",
      "type": "function"
    },
    {
      "inputs": [
        {
          "internalType": "uint64",
          "name": "epoch",
          "type": "uint64"
        },
        {
          "internalType": "address",
          "name": "submitter",
          "type": "address"
        }
      ],
      "name": "hasValidatorVotedForSubmission",
      "outputs": [
        {
          "internalType": "bool",
          "name": "",
          "type": "bool"
        }
      ],
      "stateMutability": "view",
      "type": "function"
    },
    {
      "inputs": [],
      "name": "initialized",
      "outputs": [
        {
          "internalType": "bool",
          "name": "",
          "type": "bool"
        }
      ],
      "stateMutability": "view",
      "type": "function"
    },
    {
      "inputs": [],
      "name": "lastVotingExecutedEpoch",
      "outputs": [
        {
          "internalType": "uint64",
          "name": "",
          "type": "uint64"
        }
      ],
      "stateMutability": "view",
      "type": "function"
    },
    {
      "inputs": [],
      "name": "listSubnets",
      "outputs": [
        {
          "components": [
            {
              "internalType": "enum Status",
              "name": "status",
              "type": "uint8"
            },
            {
              "internalType": "uint64",
              "name": "topDownNonce",
              "type": "uint64"
            },
            {
              "internalType": "uint64",
              "name": "appliedBottomUpNonce",
              "type": "uint64"
            },
            {
              "internalType": "uint256",
              "name": "stake",
              "type": "uint256"
            },
            {
              "internalType": "uint256",
              "name": "genesisEpoch",
              "type": "uint256"
            },
            {
              "internalType": "uint256",
              "name": "circSupply",
              "type": "uint256"
            },
            {
              "components": [
                {
                  "internalType": "uint64",
                  "name": "root",
                  "type": "uint64"
                },
                {
                  "internalType": "address[]",
                  "name": "route",
                  "type": "address[]"
                }
              ],
              "internalType": "struct SubnetID",
              "name": "id",
              "type": "tuple"
            },
            {
              "components": [
                {
                  "components": [
                    {
                      "internalType": "uint64",
                      "name": "root",
                      "type": "uint64"
                    },
                    {
                      "internalType": "address[]",
                      "name": "route",
                      "type": "address[]"
                    }
                  ],
                  "internalType": "struct SubnetID",
                  "name": "source",
                  "type": "tuple"
                },
                {
                  "internalType": "uint64",
                  "name": "epoch",
                  "type": "uint64"
                },
                {
                  "internalType": "uint256",
                  "name": "fee",
                  "type": "uint256"
                },
                {
                  "components": [
                    {
                      "components": [
                        {
                          "components": [
                            {
                              "components": [
                                {
                                  "internalType": "uint64",
                                  "name": "root",
                                  "type": "uint64"
                                },
                                {
                                  "internalType": "address[]",
                                  "name": "route",
                                  "type": "address[]"
                                }
                              ],
                              "internalType": "struct SubnetID",
                              "name": "subnetId",
                              "type": "tuple"
                            },
                            {
                              "components": [
                                {
                                  "internalType": "uint8",
                                  "name": "addrType",
                                  "type": "uint8"
                                },
                                {
                                  "internalType": "bytes",
                                  "name": "payload",
                                  "type": "bytes"
                                }
                              ],
                              "internalType": "struct FvmAddress",
                              "name": "rawAddress",
                              "type": "tuple"
                            }
                          ],
                          "internalType": "struct IPCAddress",
                          "name": "from",
                          "type": "tuple"
                        },
                        {
                          "components": [
                            {
                              "components": [
                                {
                                  "internalType": "uint64",
                                  "name": "root",
                                  "type": "uint64"
                                },
                                {
                                  "internalType": "address[]",
                                  "name": "route",
                                  "type": "address[]"
                                }
                              ],
                              "internalType": "struct SubnetID",
                              "name": "subnetId",
                              "type": "tuple"
                            },
                            {
                              "components": [
                                {
                                  "internalType": "uint8",
                                  "name": "addrType",
                                  "type": "uint8"
                                },
                                {
                                  "internalType": "bytes",
                                  "name": "payload",
                                  "type": "bytes"
                                }
                              ],
                              "internalType": "struct FvmAddress",
                              "name": "rawAddress",
                              "type": "tuple"
                            }
                          ],
                          "internalType": "struct IPCAddress",
                          "name": "to",
                          "type": "tuple"
                        },
                        {
                          "internalType": "uint256",
                          "name": "value",
                          "type": "uint256"
                        },
                        {
                          "internalType": "uint64",
                          "name": "nonce",
                          "type": "uint64"
                        },
                        {
                          "internalType": "bytes4",
                          "name": "method",
                          "type": "bytes4"
                        },
                        {
                          "internalType": "bytes",
                          "name": "params",
                          "type": "bytes"
                        }
                      ],
                      "internalType": "struct StorableMsg",
                      "name": "message",
                      "type": "tuple"
                    },
                    {
                      "internalType": "bool",
                      "name": "wrapped",
                      "type": "bool"
                    }
                  ],
                  "internalType": "struct CrossMsg[]",
                  "name": "crossMsgs",
                  "type": "tuple[]"
                },
                {
                  "components": [
                    {
                      "components": [
                        {
                          "internalType": "uint64",
                          "name": "root",
                          "type": "uint64"
                        },
                        {
                          "internalType": "address[]",
                          "name": "route",
                          "type": "address[]"
                        }
                      ],
                      "internalType": "struct SubnetID",
                      "name": "source",
                      "type": "tuple"
                    },
                    {
                      "internalType": "bytes32[]",
                      "name": "checks",
                      "type": "bytes32[]"
                    }
                  ],
                  "internalType": "struct ChildCheck[]",
                  "name": "children",
                  "type": "tuple[]"
                },
                {
                  "internalType": "bytes32",
                  "name": "prevHash",
                  "type": "bytes32"
                },
                {
                  "internalType": "bytes",
                  "name": "proof",
                  "type": "bytes"
                }
              ],
              "internalType": "struct BottomUpCheckpoint",
              "name": "prevCheckpoint",
              "type": "tuple"
            },
            {
              "components": [
                {
                  "components": [
                    {
                      "components": [
                        {
                          "components": [
                            {
                              "internalType": "uint64",
                              "name": "root",
                              "type": "uint64"
                            },
                            {
                              "internalType": "address[]",
                              "name": "route",
                              "type": "address[]"
                            }
                          ],
                          "internalType": "struct SubnetID",
                          "name": "subnetId",
                          "type": "tuple"
                        },
                        {
                          "components": [
                            {
                              "internalType": "uint8",
                              "name": "addrType",
                              "type": "uint8"
                            },
                            {
                              "internalType": "bytes",
                              "name": "payload",
                              "type": "bytes"
                            }
                          ],
                          "internalType": "struct FvmAddress",
                          "name": "rawAddress",
                          "type": "tuple"
                        }
                      ],
                      "internalType": "struct IPCAddress",
                      "name": "from",
                      "type": "tuple"
                    },
                    {
                      "components": [
                        {
                          "components": [
                            {
                              "internalType": "uint64",
                              "name": "root",
                              "type": "uint64"
                            },
                            {
                              "internalType": "address[]",
                              "name": "route",
                              "type": "address[]"
                            }
                          ],
                          "internalType": "struct SubnetID",
                          "name": "subnetId",
                          "type": "tuple"
                        },
                        {
                          "components": [
                            {
                              "internalType": "uint8",
                              "name": "addrType",
                              "type": "uint8"
                            },
                            {
                              "internalType": "bytes",
                              "name": "payload",
                              "type": "bytes"
                            }
                          ],
                          "internalType": "struct FvmAddress",
                          "name": "rawAddress",
                          "type": "tuple"
                        }
                      ],
                      "internalType": "struct IPCAddress",
                      "name": "to",
                      "type": "tuple"
                    },
                    {
                      "internalType": "uint256",
                      "name": "value",
                      "type": "uint256"
                    },
                    {
                      "internalType": "uint64",
                      "name": "nonce",
                      "type": "uint64"
                    },
                    {
                      "internalType": "bytes4",
                      "name": "method",
                      "type": "bytes4"
                    },
                    {
                      "internalType": "bytes",
                      "name": "params",
                      "type": "bytes"
                    }
                  ],
                  "internalType": "struct StorableMsg",
                  "name": "message",
                  "type": "tuple"
                },
                {
                  "internalType": "bool",
                  "name": "wrapped",
                  "type": "bool"
                }
              ],
              "internalType": "struct CrossMsg[]",
              "name": "topDownMsgs",
              "type": "tuple[]"
            }
          ],
          "internalType": "struct Subnet[]",
          "name": "",
          "type": "tuple[]"
        }
      ],
      "stateMutability": "view",
      "type": "function"
    },
    {
      "inputs": [],
      "name": "majorityPercentage",
      "outputs": [
        {
          "internalType": "uint64",
          "name": "",
          "type": "uint64"
        }
      ],
      "stateMutability": "view",
      "type": "function"
    },
    {
      "inputs": [],
      "name": "minStake",
      "outputs": [
        {
          "internalType": "uint256",
          "name": "",
          "type": "uint256"
        }
      ],
      "stateMutability": "view",
      "type": "function"
    },
    {
      "inputs": [
        {
          "internalType": "bytes32",
          "name": "id",
          "type": "bytes32"
        }
      ],
      "name": "postbox",
      "outputs": [
        {
          "components": [
            {
              "components": [
                {
                  "components": [
                    {
                      "internalType": "uint64",
                      "name": "root",
                      "type": "uint64"
                    },
                    {
                      "internalType": "address[]",
                      "name": "route",
                      "type": "address[]"
                    }
                  ],
                  "internalType": "struct SubnetID",
                  "name": "subnetId",
                  "type": "tuple"
                },
                {
                  "components": [
                    {
                      "internalType": "uint8",
                      "name": "addrType",
                      "type": "uint8"
                    },
                    {
                      "internalType": "bytes",
                      "name": "payload",
                      "type": "bytes"
                    }
                  ],
                  "internalType": "struct FvmAddress",
                  "name": "rawAddress",
                  "type": "tuple"
                }
              ],
              "internalType": "struct IPCAddress",
              "name": "from",
              "type": "tuple"
            },
            {
              "components": [
                {
                  "components": [
                    {
                      "internalType": "uint64",
                      "name": "root",
                      "type": "uint64"
                    },
                    {
                      "internalType": "address[]",
                      "name": "route",
                      "type": "address[]"
                    }
                  ],
                  "internalType": "struct SubnetID",
                  "name": "subnetId",
                  "type": "tuple"
                },
                {
                  "components": [
                    {
                      "internalType": "uint8",
                      "name": "addrType",
                      "type": "uint8"
                    },
                    {
                      "internalType": "bytes",
                      "name": "payload",
                      "type": "bytes"
                    }
                  ],
                  "internalType": "struct FvmAddress",
                  "name": "rawAddress",
                  "type": "tuple"
                }
              ],
              "internalType": "struct IPCAddress",
              "name": "to",
              "type": "tuple"
            },
            {
              "internalType": "uint256",
              "name": "value",
              "type": "uint256"
            },
            {
              "internalType": "uint64",
              "name": "nonce",
              "type": "uint64"
            },
            {
              "internalType": "bytes4",
              "name": "method",
              "type": "bytes4"
            },
            {
              "internalType": "bytes",
              "name": "params",
              "type": "bytes"
            }
          ],
          "internalType": "struct StorableMsg",
          "name": "storableMsg",
          "type": "tuple"
        },
        {
          "internalType": "bool",
          "name": "wrapped",
          "type": "bool"
        }
      ],
      "stateMutability": "view",
      "type": "function"
    },
    {
      "inputs": [
        {
          "internalType": "bytes32",
          "name": "h",
          "type": "bytes32"
        }
      ],
      "name": "subnets",
      "outputs": [
        {
          "components": [
            {
              "internalType": "enum Status",
              "name": "status",
              "type": "uint8"
            },
            {
              "internalType": "uint64",
              "name": "topDownNonce",
              "type": "uint64"
            },
            {
              "internalType": "uint64",
              "name": "appliedBottomUpNonce",
              "type": "uint64"
            },
            {
              "internalType": "uint256",
              "name": "stake",
              "type": "uint256"
            },
            {
              "internalType": "uint256",
              "name": "genesisEpoch",
              "type": "uint256"
            },
            {
              "internalType": "uint256",
              "name": "circSupply",
              "type": "uint256"
            },
            {
              "components": [
                {
                  "internalType": "uint64",
                  "name": "root",
                  "type": "uint64"
                },
                {
                  "internalType": "address[]",
                  "name": "route",
                  "type": "address[]"
                }
              ],
              "internalType": "struct SubnetID",
              "name": "id",
              "type": "tuple"
            },
            {
              "components": [
                {
                  "components": [
                    {
                      "internalType": "uint64",
                      "name": "root",
                      "type": "uint64"
                    },
                    {
                      "internalType": "address[]",
                      "name": "route",
                      "type": "address[]"
                    }
                  ],
                  "internalType": "struct SubnetID",
                  "name": "source",
                  "type": "tuple"
                },
                {
                  "internalType": "uint64",
                  "name": "epoch",
                  "type": "uint64"
                },
                {
                  "internalType": "uint256",
                  "name": "fee",
                  "type": "uint256"
                },
                {
                  "components": [
                    {
                      "components": [
                        {
                          "components": [
                            {
                              "components": [
                                {
                                  "internalType": "uint64",
                                  "name": "root",
                                  "type": "uint64"
                                },
                                {
                                  "internalType": "address[]",
                                  "name": "route",
                                  "type": "address[]"
                                }
                              ],
                              "internalType": "struct SubnetID",
                              "name": "subnetId",
                              "type": "tuple"
                            },
                            {
                              "components": [
                                {
                                  "internalType": "uint8",
                                  "name": "addrType",
                                  "type": "uint8"
                                },
                                {
                                  "internalType": "bytes",
                                  "name": "payload",
                                  "type": "bytes"
                                }
                              ],
                              "internalType": "struct FvmAddress",
                              "name": "rawAddress",
                              "type": "tuple"
                            }
                          ],
                          "internalType": "struct IPCAddress",
                          "name": "from",
                          "type": "tuple"
                        },
                        {
                          "components": [
                            {
                              "components": [
                                {
                                  "internalType": "uint64",
                                  "name": "root",
                                  "type": "uint64"
                                },
                                {
                                  "internalType": "address[]",
                                  "name": "route",
                                  "type": "address[]"
                                }
                              ],
                              "internalType": "struct SubnetID",
                              "name": "subnetId",
                              "type": "tuple"
                            },
                            {
                              "components": [
                                {
                                  "internalType": "uint8",
                                  "name": "addrType",
                                  "type": "uint8"
                                },
                                {
                                  "internalType": "bytes",
                                  "name": "payload",
                                  "type": "bytes"
                                }
                              ],
                              "internalType": "struct FvmAddress",
                              "name": "rawAddress",
                              "type": "tuple"
                            }
                          ],
                          "internalType": "struct IPCAddress",
                          "name": "to",
                          "type": "tuple"
                        },
                        {
                          "internalType": "uint256",
                          "name": "value",
                          "type": "uint256"
                        },
                        {
                          "internalType": "uint64",
                          "name": "nonce",
                          "type": "uint64"
                        },
                        {
                          "internalType": "bytes4",
                          "name": "method",
                          "type": "bytes4"
                        },
                        {
                          "internalType": "bytes",
                          "name": "params",
                          "type": "bytes"
                        }
                      ],
                      "internalType": "struct StorableMsg",
                      "name": "message",
                      "type": "tuple"
                    },
                    {
                      "internalType": "bool",
                      "name": "wrapped",
                      "type": "bool"
                    }
                  ],
                  "internalType": "struct CrossMsg[]",
                  "name": "crossMsgs",
                  "type": "tuple[]"
                },
                {
                  "components": [
                    {
                      "components": [
                        {
                          "internalType": "uint64",
                          "name": "root",
                          "type": "uint64"
                        },
                        {
                          "internalType": "address[]",
                          "name": "route",
                          "type": "address[]"
                        }
                      ],
                      "internalType": "struct SubnetID",
                      "name": "source",
                      "type": "tuple"
                    },
                    {
                      "internalType": "bytes32[]",
                      "name": "checks",
                      "type": "bytes32[]"
                    }
                  ],
                  "internalType": "struct ChildCheck[]",
                  "name": "children",
                  "type": "tuple[]"
                },
                {
                  "internalType": "bytes32",
                  "name": "prevHash",
                  "type": "bytes32"
                },
                {
                  "internalType": "bytes",
                  "name": "proof",
                  "type": "bytes"
                }
              ],
              "internalType": "struct BottomUpCheckpoint",
              "name": "prevCheckpoint",
              "type": "tuple"
            },
            {
              "components": [
                {
                  "components": [
                    {
                      "components": [
                        {
                          "components": [
                            {
                              "internalType": "uint64",
                              "name": "root",
                              "type": "uint64"
                            },
                            {
                              "internalType": "address[]",
                              "name": "route",
                              "type": "address[]"
                            }
                          ],
                          "internalType": "struct SubnetID",
                          "name": "subnetId",
                          "type": "tuple"
                        },
                        {
                          "components": [
                            {
                              "internalType": "uint8",
                              "name": "addrType",
                              "type": "uint8"
                            },
                            {
                              "internalType": "bytes",
                              "name": "payload",
                              "type": "bytes"
                            }
                          ],
                          "internalType": "struct FvmAddress",
                          "name": "rawAddress",
                          "type": "tuple"
                        }
                      ],
                      "internalType": "struct IPCAddress",
                      "name": "from",
                      "type": "tuple"
                    },
                    {
                      "components": [
                        {
                          "components": [
                            {
                              "internalType": "uint64",
                              "name": "root",
                              "type": "uint64"
                            },
                            {
                              "internalType": "address[]",
                              "name": "route",
                              "type": "address[]"
                            }
                          ],
                          "internalType": "struct SubnetID",
                          "name": "subnetId",
                          "type": "tuple"
                        },
                        {
                          "components": [
                            {
                              "internalType": "uint8",
                              "name": "addrType",
                              "type": "uint8"
                            },
                            {
                              "internalType": "bytes",
                              "name": "payload",
                              "type": "bytes"
                            }
                          ],
                          "internalType": "struct FvmAddress",
                          "name": "rawAddress",
                          "type": "tuple"
                        }
                      ],
                      "internalType": "struct IPCAddress",
                      "name": "to",
                      "type": "tuple"
                    },
                    {
                      "internalType": "uint256",
                      "name": "value",
                      "type": "uint256"
                    },
                    {
                      "internalType": "uint64",
                      "name": "nonce",
                      "type": "uint64"
                    },
                    {
                      "internalType": "bytes4",
                      "name": "method",
                      "type": "bytes4"
                    },
                    {
                      "internalType": "bytes",
                      "name": "params",
                      "type": "bytes"
                    }
                  ],
                  "internalType": "struct StorableMsg",
                  "name": "message",
                  "type": "tuple"
                },
                {
                  "internalType": "bool",
                  "name": "wrapped",
                  "type": "bool"
                }
              ],
              "internalType": "struct CrossMsg[]",
              "name": "topDownMsgs",
              "type": "tuple[]"
            }
          ],
          "internalType": "struct Subnet",
          "name": "subnet",
          "type": "tuple"
        }
      ],
      "stateMutability": "view",
      "type": "function"
    },
    {
      "inputs": [],
      "name": "topDownCheckPeriod",
      "outputs": [
        {
          "internalType": "uint64",
          "name": "",
          "type": "uint64"
        }
      ],
      "stateMutability": "view",
      "type": "function"
    },
    {
      "inputs": [],
      "name": "totalSubnets",
      "outputs": [
        {
          "internalType": "uint64",
          "name": "",
          "type": "uint64"
        }
      ],
      "stateMutability": "view",
      "type": "function"
    },
    {
      "inputs": [],
      "name": "totalWeight",
      "outputs": [
        {
          "internalType": "uint256",
          "name": "",
          "type": "uint256"
        }
      ],
      "stateMutability": "view",
      "type": "function"
    }
  ],
  "bytecode": {
    "object": "0x608060405234801561001057600080fd5b50615189806100206000396000f3fe608060405234801561001057600080fd5b506004361061018e5760003560e01c80635d029685116100de57806394074b03116100975780639e530b57116100715780639e530b5714610447578063a2b6715814610479578063ad81e2441461048a578063c66c66a11461049257600080fd5b806394074b031461041757806396c82e571461042c5780639d3070b51461043457600080fd5b80635d0296851461034757806366d7bbbc1461035c5780636cb2ecee146103ac5780637d9740f4146103cd5780638789f83b146103de5780638cfd78e7146103f657600080fd5b8063158ef93e1161014b578063375b3c0a11610125578063375b3c0a146102c657806341b6a2e8146102ce57806351392fc0146102df578063599c7bd11461031657600080fd5b8063158ef93e1461027d57806324729425146102945780632cc14ea2146102a657600080fd5b806302e30f9a1461019357806306c46853146101bc5780630ea746f2146101e157806310d500e114610201578063133f74ea14610233578063135493151461025d575b600080fd5b6101a66101a1366004614640565b6104b3565b6040516101b39190614a5f565b60405180910390f35b6006546001600160401b03165b6040516001600160401b0390911681526020016101b3565b6101f46101ef366004614be3565b611005565b6040516101b39190614c27565b6102096113c2565b604080516001600160401b03948516815292841660208401529216918101919091526060016101b3565b610246610241366004614c3a565b611421565b6040805192151583526020830191909152016101b3565b61027061026b366004614c6d565b6114ba565b6040516101b39190614cba565b60115460ff165b60405190151581526020016101b3565b600b545b6040519081526020016101b3565b6102b96102b4366004614c3a565b6119bb565b6040516101b39190614ccd565b600354610298565b600a546001600160401b03166101c9565b7f283d1424c49941ba61504663c7a1b6f59e6bbb963a00bcc130bcbf9c29e1e27054600160401b90046001600160401b03166101c9565b7f283d1424c49941ba61504663c7a1b6f59e6bbb963a00bcc130bcbf9c29e1e27054600160801b900460ff166101c9565b61034f612044565b6040516101b39190614ce0565b61028461036a366004614d42565b6001600160401b03821660009081526012602090815260408083208054845260030182528083206001600160a01b038516845290915290205460ff1692915050565b6103bf6103ba366004614c3a565b612c43565b6040516101b3929190614d6c565b6008546001600160401b03166101c9565b600a54600160401b90046001600160401b03166101c9565b610409610404366004614640565b613347565b6040516101b3929190614d8f565b61041f6136d2565b6040516101b39190614db3565b600c54610298565b610298610442366004614dc6565b613761565b61045a610455366004614dfa565b613779565b6040805192151583526001600160401b039091166020830152016101b3565b6002546001600160401b03166101c9565b6101c96137bb565b6104a56104a0366004614dfa565b6137ee565b6040516101b3929190614e2e565b6104bb6144d9565b60008281526004602052604090819020815161012081019092528054829060ff1660058111156104ed576104ed614659565b60058111156104fe576104fe614659565b815281546001600160401b0361010082048116602080850191909152600160481b90920481166040808501919091526001850154606085015260028501546080850152600385015460a085015280518082018252600486018054909316815260058601805483518187028101870190945280845260c09096019591948581019392908301828280156105b957602002820191906000526020600020905b81546001600160a01b0316815260019091019060200180831161059b575b50505091909252505050815260408051610120810182526006840180546001600160401b031660e083019081526007860180548551602082810282018101909752818152968601969495939486948693610100870193909183018282801561064a57602002820191906000526020600020905b81546001600160a01b0316815260019091019060200180831161062c575b50505050508152505081526020016002820160009054906101000a90046001600160401b03166001600160401b03166001600160401b031681526020016003820154815260200160048201805480602002602001604051908101604052809291908181526020016000905b82821015610a545760008481526020908190206040805161018081018252600c860290920180546001600160401b031661014084019081526001820180548451818802810188018652818152959693958795860194879486946101008901948794869486936101608d0193909183018282801561075b57602002820191906000526020600020905b81546001600160a01b0316815260019091019060200180831161073d575b5050509190925250505081526040805180820190915260028301805460ff1682526003840180546020948501948401919061079590614e49565b80601f01602080910402602001604051908101604052809291908181526020018280546107c190614e49565b801561080e5780601f106107e35761010080835404028352916020019161080e565b820191906000526020600020905b8154815290600101906020018083116107f157829003601f168201915b505050919092525050509052508152604080516080810182526004840180546001600160401b031682840190815260058601805485516020828102820181019097528181529686019694959394869486936060870193909183018282801561089f57602002820191906000526020600020905b81546001600160a01b03168152600190910190602001808311610881575b5050509190925250505081526040805180820190915260028301805460ff168252600384018054602094850194840191906108d990614e49565b80601f016020809104026020016040519081016040528092919081815260200182805461090590614e49565b80156109525780601f1061092757610100808354040283529160200191610952565b820191906000526020600020905b81548152906001019060200180831161093557829003601f168201915b5050509190925250505090525081526008820154602082015260098201546001600160401b0381166040830152600160401b900460e01b6001600160e01b0319166060820152600a820180546080909201916109ad90614e49565b80601f01602080910402602001604051908101604052809291908181526020018280546109d990614e49565b8015610a265780601f106109fb57610100808354040283529160200191610a26565b820191906000526020600020905b815481529060010190602001808311610a0957829003601f168201915b505050919092525050508152600b919091015460ff16151560209182015290825260019290920191016106b5565b50505050815260200160058201805480602002602001604051908101604052809291908181526020016000905b82821015610b8b576000848152602090819020604080516080810182526003860290920180546001600160401b031683830190815260018201805484518188028101880190955280855294959294869492938693606087019390929091830182828015610b1757602002820191906000526020600020905b81546001600160a01b03168152600190910190602001808311610af9575b505050505081525050815260200160028201805480602002602001604051908101604052809291908181526020018280548015610b7357602002820191906000526020600020905b815481526020019060010190808311610b5f575b50505050508152505081526020019060010190610a81565b50505050815260200160068201548152602001600782018054610bad90614e49565b80601f0160208091040260200160405190810160405280929190818152602001828054610bd990614e49565b8015610c265780601f10610bfb57610100808354040283529160200191610c26565b820191906000526020600020905b815481529060010190602001808311610c0957829003601f168201915b5050505050815250508152602001600e8201805480602002602001604051908101604052809291908181526020016000905b82821015610ff75760008481526020908190206040805161018081018252600c860290920180546001600160401b031661014084019081526001820180548451818802810188018652818152959693958795860194879486946101008901948794869486936101608d01939091830182828015610cfe57602002820191906000526020600020905b81546001600160a01b03168152600190910190602001808311610ce0575b5050509190925250505081526040805180820190915260028301805460ff16825260038401805460209485019484019190610d3890614e49565b80601f0160208091040260200160405190810160405280929190818152602001828054610d6490614e49565b8015610db15780601f10610d8657610100808354040283529160200191610db1565b820191906000526020600020905b815481529060010190602001808311610d9457829003601f168201915b505050919092525050509052508152604080516080810182526004840180546001600160401b0316828401908152600586018054855160208281028201810190975281815296860196949593948694869360608701939091830182828015610e4257602002820191906000526020600020905b81546001600160a01b03168152600190910190602001808311610e24575b5050509190925250505081526040805180820190915260028301805460ff16825260038401805460209485019484019190610e7c90614e49565b80601f0160208091040260200160405190810160405280929190818152602001828054610ea890614e49565b8015610ef55780601f10610eca57610100808354040283529160200191610ef5565b820191906000526020600020905b815481529060010190602001808311610ed857829003601f168201915b5050509190925250505090525081526008820154602082015260098201546001600160401b0381166040830152600160401b900460e01b6001600160e01b0319166060820152600a82018054608090920191610f5090614e49565b80601f0160208091040260200160405190810160405280929190818152602001828054610f7c90614e49565b8015610fc95780601f10610f9e57610100808354040283529160200191610fc9565b820191906000526020600020905b815481529060010190602001808311610fac57829003601f168201915b505050919092525050508152600b919091015460ff1615156020918201529082526001929092019101610c58565b505050915250909392505050565b61100d61453b565b600061101884614346565b91505080600e01838154811061103057611030614e7d565b60009182526020918290206040805161018081018252600c90930290910180546001600160401b031661014084019081526001820180548451818802810188018652818152959693958795860194879486946101008901948794869486936101608d019390918301828280156110cf57602002820191906000526020600020905b81546001600160a01b031681526001909101906020018083116110b1575b5050509190925250505081526040805180820190915260028301805460ff1682526003840180546020948501948401919061110990614e49565b80601f016020809104026020016040519081016040528092919081815260200182805461113590614e49565b80156111825780601f1061115757610100808354040283529160200191611182565b820191906000526020600020905b81548152906001019060200180831161116557829003601f168201915b505050919092525050509052508152604080516080810182526004840180546001600160401b031682840190815260058601805485516020828102820181019097528181529686019694959394869486936060870193909183018282801561121357602002820191906000526020600020905b81546001600160a01b031681526001909101906020018083116111f5575b5050509190925250505081526040805180820190915260028301805460ff1682526003840180546020948501948401919061124d90614e49565b80601f016020809104026020016040519081016040528092919081815260200182805461127990614e49565b80156112c65780601f1061129b576101008083540402835291602001916112c6565b820191906000526020600020905b8154815290600101906020018083116112a957829003601f168201915b5050509190925250505090525081526008820154602082015260098201546001600160401b0381166040830152600160401b900460e01b6001600160e01b0319166060820152600a8201805460809092019161132190614e49565b80601f016020809104026020016040519081016040528092919081815260200182805461134d90614e49565b801561139a5780601f1061136f5761010080835404028352916020019161139a565b820191906000526020600020905b81548152906001019060200180831161137d57829003601f168201915b505050919092525050508152600b919091015460ff1615156020909101529150505b92915050565b60008060006114167f283d1424c49941ba61504663c7a1b6f59e6bbb963a00bcc130bcbf9c29e1e27154600160401b81046001600160401b0390811692600160801b8304821692600160c01b900490911690565b925092509250909192565b60008060008061143085612c43565b6040516339aa47fb60e01b81529193509150829073__$1cd67d4dc9e627f0bec7928aa480e7d951$__906339aa47fb9061146e90859060040161501a565b602060405180830381865af415801561148b573d6000803e3d6000fd5b505050506040513d601f19601f820116820180604052508101906114af91906150b7565b935093505050915091565b60606000806114d06114cb866150d0565b614346565b915091508161151457604080516000808252602082019092529061150a565b6114f761453b565b8152602001906001900390816114ef5790505b50925050506113bc565b600e8101546001600160401b03851681811061156757604080516000808252602082019092529061155b565b61154861453b565b8152602001906001900390816115405790505b509450505050506113bc565b600061157382846150f2565b90506000816001600160401b0381111561158f5761158f614a79565b6040519080825280602002602001820160405280156115c857816020015b6115b561453b565b8152602001906001900390816115ad5790505b50905060005b828110156119ae57600e86016115e48583615105565b815481106115f4576115f4614e7d565b60009182526020918290206040805161018081018252600c90930290910180546001600160401b031661014084019081526001820180548451818802810188018652818152959693958795860194879486946101008901948794869486936101608d0193909183018282801561169357602002820191906000526020600020905b81546001600160a01b03168152600190910190602001808311611675575b5050509190925250505081526040805180820190915260028301805460ff168252600384018054602094850194840191906116cd90614e49565b80601f01602080910402602001604051908101604052809291908181526020018280546116f990614e49565b80156117465780601f1061171b57610100808354040283529160200191611746565b820191906000526020600020905b81548152906001019060200180831161172957829003601f168201915b505050919092525050509052508152604080516080810182526004840180546001600160401b03168284019081526005860180548551602082810282018101909752818152968601969495939486948693606087019390918301828280156117d757602002820191906000526020600020905b81546001600160a01b031681526001909101906020018083116117b9575b5050509190925250505081526040805180820190915260028301805460ff1682526003840180546020948501948401919061181190614e49565b80601f016020809104026020016040519081016040528092919081815260200182805461183d90614e49565b801561188a5780601f1061185f5761010080835404028352916020019161188a565b820191906000526020600020905b81548152906001019060200180831161186d57829003601f168201915b5050509190925250505090525081526008820154602082015260098201546001600160401b0381166040830152600160401b900460e01b6001600160e01b0319166060820152600a820180546080909201916118e590614e49565b80601f016020809104026020016040519081016040528092919081815260200182805461191190614e49565b801561195e5780601f106119335761010080835404028352916020019161195e565b820191906000526020600020905b81548152906001019060200180831161194157829003601f168201915b505050919092525050508152600b919091015460ff161515602090910152825183908390811061199057611990614e7d565b602002602001018190525080806119a690615118565b9150506115ce565b5098975050505050505050565b6119c361455b565b6001600160401b03808316600090815260096020908152604091829020825161012081018452815490941660e0850190815260018201805485518186028101860190965280865292948694929386936101008701939190830182828015611a5357602002820191906000526020600020905b81546001600160a01b03168152600190910190602001808311611a35575b50505050508152505081526020016002820160009054906101000a90046001600160401b03166001600160401b03166001600160401b031681526020016003820154815260200160048201805480602002602001604051908101604052809291908181526020016000905b82821015611e5d5760008481526020908190206040805161018081018252600c860290920180546001600160401b031661014084019081526001820180548451818802810188018652818152959693958795860194879486946101008901948794869486936101608d01939091830182828015611b6457602002820191906000526020600020905b81546001600160a01b03168152600190910190602001808311611b46575b5050509190925250505081526040805180820190915260028301805460ff16825260038401805460209485019484019190611b9e90614e49565b80601f0160208091040260200160405190810160405280929190818152602001828054611bca90614e49565b8015611c175780601f10611bec57610100808354040283529160200191611c17565b820191906000526020600020905b815481529060010190602001808311611bfa57829003601f168201915b505050919092525050509052508152604080516080810182526004840180546001600160401b0316828401908152600586018054855160208281028201810190975281815296860196949593948694869360608701939091830182828015611ca857602002820191906000526020600020905b81546001600160a01b03168152600190910190602001808311611c8a575b5050509190925250505081526040805180820190915260028301805460ff16825260038401805460209485019484019190611ce290614e49565b80601f0160208091040260200160405190810160405280929190818152602001828054611d0e90614e49565b8015611d5b5780601f10611d3057610100808354040283529160200191611d5b565b820191906000526020600020905b815481529060010190602001808311611d3e57829003601f168201915b5050509190925250505090525081526008820154602082015260098201546001600160401b0381166040830152600160401b900460e01b6001600160e01b0319166060820152600a82018054608090920191611db690614e49565b80601f0160208091040260200160405190810160405280929190818152602001828054611de290614e49565b8015611e2f5780601f10611e0457610100808354040283529160200191611e2f565b820191906000526020600020905b815481529060010190602001808311611e1257829003601f168201915b505050919092525050508152600b919091015460ff1615156020918201529082526001929092019101611abe565b50505050815260200160058201805480602002602001604051908101604052809291908181526020016000905b82821015611f94576000848152602090819020604080516080810182526003860290920180546001600160401b031683830190815260018201805484518188028101880190955280855294959294869492938693606087019390929091830182828015611f2057602002820191906000526020600020905b81546001600160a01b03168152600190910190602001808311611f02575b505050505081525050815260200160028201805480602002602001604051908101604052809291908181526020018280548015611f7c57602002820191906000526020600020905b815481526020019060010190808311611f68575b50505050508152505081526020019060010190611e8a565b50505050815260200160068201548152602001600782018054611fb690614e49565b80601f0160208091040260200160405190810160405280929190818152602001828054611fe290614e49565b801561202f5780601f106120045761010080835404028352916020019161202f565b820191906000526020600020905b81548152906001019060200180831161201257829003601f168201915b5050505050815250509050919050565b905090565b6005546060906000816001600160401b0381111561206457612064614a79565b60405190808252806020026020018201604052801561209d57816020015b61208a6144d9565b8152602001906001900390816120825790505b50905060005b82811015612c3c5760008060050182815481106120c2576120c2614e7d565b6000918252602080832090910154808352600490915260409182902082516101208101909352805491935090829060ff16600581111561210457612104614659565b600581111561211557612115614659565b815281546001600160401b0361010082048116602080850191909152600160481b90920481166040808501919091526001850154606085015260028501546080850152600385015460a085015280518082018252600486018054909316815260058601805483518187028101870190945280845260c09096019591948581019392908301828280156121d057602002820191906000526020600020905b81546001600160a01b031681526001909101906020018083116121b2575b50505091909252505050815260408051610120810182526006840180546001600160401b031660e083019081526007860180548551602082810282018101909752818152968601969495939486948693610100870193909183018282801561226157602002820191906000526020600020905b81546001600160a01b03168152600190910190602001808311612243575b50505050508152505081526020016002820160009054906101000a90046001600160401b03166001600160401b03166001600160401b031681526020016003820154815260200160048201805480602002602001604051908101604052809291908181526020016000905b8282101561266b5760008481526020908190206040805161018081018252600c860290920180546001600160401b031661014084019081526001820180548451818802810188018652818152959693958795860194879486946101008901948794869486936101608d0193909183018282801561237257602002820191906000526020600020905b81546001600160a01b03168152600190910190602001808311612354575b5050509190925250505081526040805180820190915260028301805460ff168252600384018054602094850194840191906123ac90614e49565b80601f01602080910402602001604051908101604052809291908181526020018280546123d890614e49565b80156124255780601f106123fa57610100808354040283529160200191612425565b820191906000526020600020905b81548152906001019060200180831161240857829003601f168201915b505050919092525050509052508152604080516080810182526004840180546001600160401b03168284019081526005860180548551602082810282018101909752818152968601969495939486948693606087019390918301828280156124b657602002820191906000526020600020905b81546001600160a01b03168152600190910190602001808311612498575b5050509190925250505081526040805180820190915260028301805460ff168252600384018054602094850194840191906124f090614e49565b80601f016020809104026020016040519081016040528092919081815260200182805461251c90614e49565b80156125695780601f1061253e57610100808354040283529160200191612569565b820191906000526020600020905b81548152906001019060200180831161254c57829003601f168201915b5050509190925250505090525081526008820154602082015260098201546001600160401b0381166040830152600160401b900460e01b6001600160e01b0319166060820152600a820180546080909201916125c490614e49565b80601f01602080910402602001604051908101604052809291908181526020018280546125f090614e49565b801561263d5780601f106126125761010080835404028352916020019161263d565b820191906000526020600020905b81548152906001019060200180831161262057829003601f168201915b505050919092525050508152600b919091015460ff16151560209182015290825260019290920191016122cc565b50505050815260200160058201805480602002602001604051908101604052809291908181526020016000905b828210156127a2576000848152602090819020604080516080810182526003860290920180546001600160401b03168383019081526001820180548451818802810188019095528085529495929486949293869360608701939092909183018282801561272e57602002820191906000526020600020905b81546001600160a01b03168152600190910190602001808311612710575b50505050508152505081526020016002820180548060200260200160405190810160405280929190818152602001828054801561278a57602002820191906000526020600020905b815481526020019060010190808311612776575b50505050508152505081526020019060010190612698565b505050508152602001600682015481526020016007820180546127c490614e49565b80601f01602080910402602001604051908101604052809291908181526020018280546127f090614e49565b801561283d5780601f106128125761010080835404028352916020019161283d565b820191906000526020600020905b81548152906001019060200180831161282057829003601f168201915b5050505050815250508152602001600e8201805480602002602001604051908101604052809291908181526020016000905b82821015612c0e5760008481526020908190206040805161018081018252600c860290920180546001600160401b031661014084019081526001820180548451818802810188018652818152959693958795860194879486946101008901948794869486936101608d0193909183018282801561291557602002820191906000526020600020905b81546001600160a01b031681526001909101906020018083116128f7575b5050509190925250505081526040805180820190915260028301805460ff1682526003840180546020948501948401919061294f90614e49565b80601f016020809104026020016040519081016040528092919081815260200182805461297b90614e49565b80156129c85780601f1061299d576101008083540402835291602001916129c8565b820191906000526020600020905b8154815290600101906020018083116129ab57829003601f168201915b505050919092525050509052508152604080516080810182526004840180546001600160401b0316828401908152600586018054855160208281028201810190975281815296860196949593948694869360608701939091830182828015612a5957602002820191906000526020600020905b81546001600160a01b03168152600190910190602001808311612a3b575b5050509190925250505081526040805180820190915260028301805460ff16825260038401805460209485019484019190612a9390614e49565b80601f0160208091040260200160405190810160405280929190818152602001828054612abf90614e49565b8015612b0c5780601f10612ae157610100808354040283529160200191612b0c565b820191906000526020600020905b815481529060010190602001808311612aef57829003601f168201915b5050509190925250505090525081526008820154602082015260098201546001600160401b0381166040830152600160401b900460e01b6001600160e01b0319166060820152600a82018054608090920191612b6790614e49565b80601f0160208091040260200160405190810160405280929190818152602001828054612b9390614e49565b8015612be05780601f10612bb557610100808354040283529160200191612be0565b820191906000526020600020905b815481529060010190602001808311612bc357829003601f168201915b505050919092525050508152600b919091015460ff161515602091820152908252600192909201910161286f565b5050505081525050838381518110612c2857612c28614e7d565b6020908102919091010152506001016120a3565b5092915050565b6000612c4d61455b565b6001600160401b03808416600090815260096020908152604091829020825161012081018452815490941660e0850190815260018201805485518186028101860190965280865292948694929386936101008701939190830182828015612cdd57602002820191906000526020600020905b81546001600160a01b03168152600190910190602001808311612cbf575b50505050508152505081526020016002820160009054906101000a90046001600160401b03166001600160401b03166001600160401b031681526020016003820154815260200160048201805480602002602001604051908101604052809291908181526020016000905b828210156130e75760008481526020908190206040805161018081018252600c860290920180546001600160401b031661014084019081526001820180548451818802810188018652818152959693958795860194879486946101008901948794869486936101608d01939091830182828015612dee57602002820191906000526020600020905b81546001600160a01b03168152600190910190602001808311612dd0575b5050509190925250505081526040805180820190915260028301805460ff16825260038401805460209485019484019190612e2890614e49565b80601f0160208091040260200160405190810160405280929190818152602001828054612e5490614e49565b8015612ea15780601f10612e7657610100808354040283529160200191612ea1565b820191906000526020600020905b815481529060010190602001808311612e8457829003601f168201915b505050919092525050509052508152604080516080810182526004840180546001600160401b0316828401908152600586018054855160208281028201810190975281815296860196949593948694869360608701939091830182828015612f3257602002820191906000526020600020905b81546001600160a01b03168152600190910190602001808311612f14575b5050509190925250505081526040805180820190915260028301805460ff16825260038401805460209485019484019190612f6c90614e49565b80601f0160208091040260200160405190810160405280929190818152602001828054612f9890614e49565b8015612fe55780601f10612fba57610100808354040283529160200191612fe5565b820191906000526020600020905b815481529060010190602001808311612fc857829003601f168201915b5050509190925250505090525081526008820154602082015260098201546001600160401b0381166040830152600160401b900460e01b6001600160e01b0319166060820152600a8201805460809092019161304090614e49565b80601f016020809104026020016040519081016040528092919081815260200182805461306c90614e49565b80156130b95780601f1061308e576101008083540402835291602001916130b9565b820191906000526020600020905b81548152906001019060200180831161309c57829003601f168201915b505050919092525050508152600b919091015460ff1615156020918201529082526001929092019101612d48565b50505050815260200160058201805480602002602001604051908101604052809291908181526020016000905b8282101561321e576000848152602090819020604080516080810182526003860290920180546001600160401b0316838301908152600182018054845181880281018801909552808552949592948694929386936060870193909290918301828280156131aa57602002820191906000526020600020905b81546001600160a01b0316815260019091019060200180831161318c575b50505050508152505081526020016002820180548060200260200160405190810160405280929190818152602001828054801561320657602002820191906000526020600020905b8154815260200190600101908083116131f2575b50505050508152505081526020019060010190613114565b5050505081526020016006820154815260200160078201805461324090614e49565b80601f016020809104026020016040519081016040528092919081815260200182805461326c90614e49565b80156132b95780601f1061328e576101008083540402835291602001916132b9565b820191906000526020600020905b81548152906001019060200180831161329c57829003601f168201915b5050509190925250508151604051630c133d1360e31b815292935073__$a0fe38a9a81205afccc10810b09a4d3f45$__92636099e89892506132fe9190600401614db3565b602060405180830381865af415801561331b573d6000803e3d6000fd5b505050506040513d601f19601f8201168201806040525081019061333f9190615131565b159150915091565b61334f6145a6565b6000828152600760209081526040808320600b81015482516101408101845282546001600160401b03166101008201908152600184018054865181890281018901909752808752949660ff9094169592948794869460c086019487948694919386936101208a01939092918301828280156133f357602002820191906000526020600020905b81546001600160a01b031681526001909101906020018083116133d5575b5050509190925250505081526040805180820190915260028301805460ff1682526003840180546020948501948401919061342d90614e49565b80601f016020809104026020016040519081016040528092919081815260200182805461345990614e49565b80156134a65780601f1061347b576101008083540402835291602001916134a6565b820191906000526020600020905b81548152906001019060200180831161348957829003601f168201915b505050919092525050509052508152604080516080810182526004840180546001600160401b031682840190815260058601805485516020828102820181019097528181529686019694959394869486936060870193909183018282801561353757602002820191906000526020600020905b81546001600160a01b03168152600190910190602001808311613519575b5050509190925250505081526040805180820190915260028301805460ff1682526003840180546020948501948401919061357190614e49565b80601f016020809104026020016040519081016040528092919081815260200182805461359d90614e49565b80156135ea5780601f106135bf576101008083540402835291602001916135ea565b820191906000526020600020905b8154815290600101906020018083116135cd57829003601f168201915b5050509190925250505090525081526008820154602082015260098201546001600160401b0381166040830152600160401b900460e01b6001600160e01b0319166060820152600a8201805460809092019161364590614e49565b80601f016020809104026020016040519081016040528092919081815260200182805461367190614e49565b80156136be5780601f10613693576101008083540402835291602001916136be565b820191906000526020600020905b8154815290600101906020018083116136a157829003601f168201915b505050505081525050915091509150915091565b604080518082018252600080825260606020808401919091528351808501855282546001600160401b0316815260018054865181850281018501909752808752949591948584019383018282801561375357602002820191906000526020600020905b81546001600160a01b03168152600190910190602001808311613735575b505050505081525050905090565b60008061376d83614346565b600e0154949350505050565b600080808061378a6114cb866150d0565b91509150816137a0575060009485945092505050565b546001956101009091046001600160401b0316945092505050565b600061203f7f283d1424c49941ba61504663c7a1b6f59e6bbb963a00bcc130bcbf9c29e1e270546001600160401b031690565b60006137f86144d9565b6138046114cb846150d0565b60408051610120810190915281548290829060ff16600581111561382a5761382a614659565b600581111561383b5761383b614659565b815281546001600160401b0361010082048116602080850191909152600160481b90920481166040808501919091526001850154606085015260028501546080850152600385015460a085015280518082018252600486018054909316815260058601805483518187028101870190945280845260c09096019591948581019392908301828280156138f657602002820191906000526020600020905b81546001600160a01b031681526001909101906020018083116138d8575b50505091909252505050815260408051610120810182526006840180546001600160401b031660e083019081526007860180548551602082810282018101909752818152968601969495939486948693610100870193909183018282801561398757602002820191906000526020600020905b81546001600160a01b03168152600190910190602001808311613969575b50505050508152505081526020016002820160009054906101000a90046001600160401b03166001600160401b03166001600160401b031681526020016003820154815260200160048201805480602002602001604051908101604052809291908181526020016000905b82821015613d915760008481526020908190206040805161018081018252600c860290920180546001600160401b031661014084019081526001820180548451818802810188018652818152959693958795860194879486946101008901948794869486936101608d01939091830182828015613a9857602002820191906000526020600020905b81546001600160a01b03168152600190910190602001808311613a7a575b5050509190925250505081526040805180820190915260028301805460ff16825260038401805460209485019484019190613ad290614e49565b80601f0160208091040260200160405190810160405280929190818152602001828054613afe90614e49565b8015613b4b5780601f10613b2057610100808354040283529160200191613b4b565b820191906000526020600020905b815481529060010190602001808311613b2e57829003601f168201915b505050919092525050509052508152604080516080810182526004840180546001600160401b0316828401908152600586018054855160208281028201810190975281815296860196949593948694869360608701939091830182828015613bdc57602002820191906000526020600020905b81546001600160a01b03168152600190910190602001808311613bbe575b5050509190925250505081526040805180820190915260028301805460ff16825260038401805460209485019484019190613c1690614e49565b80601f0160208091040260200160405190810160405280929190818152602001828054613c4290614e49565b8015613c8f5780601f10613c6457610100808354040283529160200191613c8f565b820191906000526020600020905b815481529060010190602001808311613c7257829003601f168201915b5050509190925250505090525081526008820154602082015260098201546001600160401b0381166040830152600160401b900460e01b6001600160e01b0319166060820152600a82018054608090920191613cea90614e49565b80601f0160208091040260200160405190810160405280929190818152602001828054613d1690614e49565b8015613d635780601f10613d3857610100808354040283529160200191613d63565b820191906000526020600020905b815481529060010190602001808311613d4657829003601f168201915b505050919092525050508152600b919091015460ff16151560209182015290825260019290920191016139f2565b50505050815260200160058201805480602002602001604051908101604052809291908181526020016000905b82821015613ec8576000848152602090819020604080516080810182526003860290920180546001600160401b031683830190815260018201805484518188028101880190955280855294959294869492938693606087019390929091830182828015613e5457602002820191906000526020600020905b81546001600160a01b03168152600190910190602001808311613e36575b505050505081525050815260200160028201805480602002602001604051908101604052809291908181526020018280548015613eb057602002820191906000526020600020905b815481526020019060010190808311613e9c575b50505050508152505081526020019060010190613dbe565b50505050815260200160068201548152602001600782018054613eea90614e49565b80601f0160208091040260200160405190810160405280929190818152602001828054613f1690614e49565b8015613f635780601f10613f3857610100808354040283529160200191613f63565b820191906000526020600020905b815481529060010190602001808311613f4657829003601f168201915b5050505050815250508152602001600e8201805480602002602001604051908101604052809291908181526020016000905b828210156143345760008481526020908190206040805161018081018252600c860290920180546001600160401b031661014084019081526001820180548451818802810188018652818152959693958795860194879486946101008901948794869486936101608d0193909183018282801561403b57602002820191906000526020600020905b81546001600160a01b0316815260019091019060200180831161401d575b5050509190925250505081526040805180820190915260028301805460ff1682526003840180546020948501948401919061407590614e49565b80601f01602080910402602001604051908101604052809291908181526020018280546140a190614e49565b80156140ee5780601f106140c3576101008083540402835291602001916140ee565b820191906000526020600020905b8154815290600101906020018083116140d157829003601f168201915b505050919092525050509052508152604080516080810182526004840180546001600160401b031682840190815260058601805485516020828102820181019097528181529686019694959394869486936060870193909183018282801561417f57602002820191906000526020600020905b81546001600160a01b03168152600190910190602001808311614161575b5050509190925250505081526040805180820190915260028301805460ff168252600384018054602094850194840191906141b990614e49565b80601f01602080910402602001604051908101604052809291908181526020018280546141e590614e49565b80156142325780601f1061420757610100808354040283529160200191614232565b820191906000526020600020905b81548152906001019060200180831161421557829003601f168201915b5050509190925250505090525081526008820154602082015260098201546001600160401b0381166040830152600160401b900460e01b6001600160e01b0319166060820152600a8201805460809092019161428d90614e49565b80601f01602080910402602001604051908101604052809291908181526020018280546142b990614e49565b80156143065780601f106142db57610100808354040283529160200191614306565b820191906000526020600020905b8154815290600101906020018083116142e957829003601f168201915b505050919092525050508152600b919091015460ff1615156020918201529082526001929092019101613f95565b50505091525092969095509350505050565b6040516390ba52cf60e01b815260009081908190600490829073__$a0fe38a9a81205afccc10810b09a4d3f45$__906390ba52cf906143889089908601614db3565b602060405180830381865af41580156143a5573d6000803e3d6000fd5b505050506040513d601f19601f820116820180604052508101906143c991906150b7565b81526020808201929092526040908101600020815180830183526004820180546001600160401b03168252600583018054855181880281018801909652808652939750919490938582019390929183018282801561445057602002820191906000526020600020905b81546001600160a01b03168152600190910190602001808311614432575b505050919092525050604051630c133d1360e31b815273__$a0fe38a9a81205afccc10810b09a4d3f45$__92636099e898925061448f91600401614db3565b602060405180830381865af41580156144ac573d6000803e3d6000fd5b505050506040513d601f19601f820116820180604052508101906144d09190615131565b15925050915091565b60408051610120810182526000808252602080830182905282840182905260608084018390526080840183905260a0840183905284518086019095529184528301529060c0820190815260200161452e61455b565b8152602001606081525090565b604051806040016040528061454e6145a6565b8152600060209091015290565b6040805161012081018252600060e0820181815260606101008401819052908352602083018290529282018190528282018390526080820183905260a082015260c081019190915290565b6040518060c001604052806145b96145fb565b81526020016145c66145fb565b81526020016000815260200160006001600160401b0316815260200160006001600160e01b0319168152602001606081525090565b604080516080810182526000918101918252606080820152908190815260200161463b6040518060400160405280600060ff168152602001606081525090565b905290565b60006020828403121561465257600080fd5b5035919050565b634e487b7160e01b600052602160045260246000fd5b6006811061468d57634e487b7160e01b600052602160045260246000fd5b9052565b6000604083016001600160401b0383511684526020808401516040828701528281518085526060880191508383019450600092505b808310156146ef5784516001600160a01b031682529383019360019290920191908301906146c6565b509695505050505050565b6000815180845260005b8181101561472057602081850181015186830182015201614704565b506000602082860101526020601f19601f83011685010191505092915050565b60008151604084526147556040850182614691565b90506020830151848203602086015260ff8151168252602081015190506040602083015261478660408301826146fa565b95945050505050565b6000815160c084526147a460c0850182614740565b9050602083015184820360208601526147bd8282614740565b915050604083015160408501526001600160401b03606084015116606085015263ffffffff60e01b608084015116608085015260a083015184820360a086015261478682826146fa565b600081516040845261481c604085018261478f565b6020938401511515949093019390935250919050565b600081518084526020808501808196508360051b8101915082860160005b8581101561487a578284038952614868848351614807565b98850198935090840190600101614850565b5091979650505050505050565b6000815160e0845261489c60e0850182614691565b905060206001600160401b0381850151168186015260408085015181870152606085015186840360608801526148d28482614832565b935050608085015186840360808801528381518086528486019150848160051b87010185840193506000805b8381101561497257888303601f190185528551805188855261492289860182614691565b918a0151858303868c01528051808452908b01928592508b01905b8083101561495d5783518252928b019260019290920191908b019061493d565b50978a0197968a0196945050506001016148fe565b505060a089015160a08b015260c0890151965089810360c08b015261499781886146fa565b9a9950505050505050505050565b60006101206149b584845161466f565b60208301516149cf60208601826001600160401b03169052565b5060408301516149ea60408601826001600160401b03169052565b50606083015160608501526080830151608085015260a083015160a085015260c08301518160c0860152614a2082860182614691565b91505060e083015184820360e0860152614a3a8282614887565b9150506101008084015185830382870152614a558382614832565b9695505050505050565b602081526000614a7260208301846149a5565b9392505050565b634e487b7160e01b600052604160045260246000fd5b604080519081016001600160401b0381118282101715614ab157614ab1614a79565b60405290565b604051601f8201601f191681016001600160401b0381118282101715614adf57614adf614a79565b604052919050565b80356001600160401b0381168114614afe57600080fd5b919050565b80356001600160a01b0381168114614afe57600080fd5b600060408284031215614b2c57600080fd5b614b34614a8f565b9050614b3f82614ae7565b81526020808301356001600160401b0380821115614b5c57600080fd5b818501915085601f830112614b7057600080fd5b813581811115614b8257614b82614a79565b8060051b9150614b93848301614ab7565b8181529183018401918481019088841115614bad57600080fd5b938501935b83851015614bd257614bc385614b03565b82529385019390850190614bb2565b808688015250505050505092915050565b60008060408385031215614bf657600080fd5b82356001600160401b03811115614c0c57600080fd5b614c1885828601614b1a565b95602094909401359450505050565b602081526000614a726020830184614807565b600060208284031215614c4c57600080fd5b614a7282614ae7565b600060408284031215614c6757600080fd5b50919050565b60008060408385031215614c8057600080fd5b82356001600160401b03811115614c9657600080fd5b614ca285828601614c55565b925050614cb160208401614ae7565b90509250929050565b602081526000614a726020830184614832565b602081526000614a726020830184614887565b6000602080830181845280855180835260408601915060408160051b870101925083870160005b82811015614d3557603f19888603018452614d238583516149a5565b94509285019290850190600101614d07565b5092979650505050505050565b60008060408385031215614d5557600080fd5b614d5e83614ae7565b9150614cb160208401614b03565b8215158152604060208201526000614d876040830184614887565b949350505050565b604081526000614da2604083018561478f565b905082151560208301529392505050565b602081526000614a726020830184614691565b600060208284031215614dd857600080fd5b81356001600160401b03811115614dee57600080fd5b614d8784828501614b1a565b600060208284031215614e0c57600080fd5b81356001600160401b03811115614e2257600080fd5b614d8784828501614c55565b8215158152604060208201526000614d8760408301846149a5565b600181811c90821680614e5d57607f821691505b602082108103614c6757634e487b7160e01b600052602260045260246000fd5b634e487b7160e01b600052603260045260246000fd5b600081518084526020808501808196508360051b8101915082860160005b8581101561487a578284038952815160408151818752805160c080848a0152614ede6101008a0183614740565b915089830151603f196060818c860301818d0152614efc8584614740565b9686015160808d810191909152908601516001600160401b031660a0808e0191909152908601516001600160e01b031916938c0193909352918401518a860390920160e08b015250929050614f5181846146fa565b93890151801515898b0152939250614f67915050565b9986019994505090840190600101614eb1565b600081518084526020808501808196508360051b810191508286016000805b8681101561500c578385038a52825160408151818852614fbb82890182614691565b92890151888403898b01528051808552908a01938693508a0191505b80831015614ff75783518252928901926001929092019190890190614fd7565b509b88019b9650505091850191600101614f99565b509298975050505050505050565b602081526000825160e06020840152615037610100840182614691565b90506001600160401b036020850151166040840152604084015160608401526060840151601f19808584030160808601526150728383614e93565b925060808601519150808584030160a086015261508f8383614f7a565b925060a086015160c086015260c08601519150808584030160e08601525061478682826146fa565b6000602082840312156150c957600080fd5b5051919050565b60006113bc3683614b1a565b634e487b7160e01b600052601160045260246000fd5b818103818111156113bc576113bc6150dc565b808201808211156113bc576113bc6150dc565b60006001820161512a5761512a6150dc565b5060010190565b60006020828403121561514357600080fd5b81518015158114614a7257600080fdfea2646970667358221220093e9f897f124f4f421a87c9575f21d8f027b11fcfe20d45e804e0fcb886b40564736f6c63430008130033",
    "linkReferences": {
      "src/lib/CheckpointHelper.sol": {
        "CheckpointHelper": [
          {
            "start": 5222,
            "length": 20
          }
        ]
      },
      "src/lib/SubnetIDHelper.sol": {
        "SubnetIDHelper": [
          {
            "start": 13046,
            "length": 20
          },
          {
            "start": 17281,
            "length": 20
          },
          {
            "start": 17544,
            "length": 20
          }
        ]
      }
    }
  },
  "methodIdentifiers": {
    "appliedTopDownNonce()": "8789f83b",
    "bottomUpCheckPeriod()": "06c46853",
    "bottomUpCheckpointAtEpoch(uint64)": "6cb2ecee",
    "bottomUpCheckpointHashAtEpoch(uint64)": "133f74ea",
    "bottomUpCheckpoints(uint64)": "2cc14ea2",
    "bottomUpNonce()": "41b6a2e8",
    "crossMsgFee()": "24729425",
    "executableQueue()": "10d500e1",
    "getAppliedTopDownNonce((uint64,address[]))": "9e530b57",
    "getGenesisEpoch()": "51392fc0",
    "getNetworkName()": "94074b03",
    "getSubnet((uint64,address[]))": "c66c66a1",
    "getSubnetTopDownMsg((uint64,address[]),uint256)": "0ea746f2",
    "getSubnetTopDownMsgsLength((uint64,address[]))": "9d3070b5",
    "getTopDownMsgs((uint64,address[]),uint64)": "13549315",
    "hasValidatorVotedForSubmission(uint64,address)": "66d7bbbc",
    "initialized()": "158ef93e",
    "lastVotingExecutedEpoch()": "ad81e244",
    "listSubnets()": "5d029685",
    "majorityPercentage()": "599c7bd1",
    "minStake()": "375b3c0a",
    "postbox(bytes32)": "8cfd78e7",
    "subnets(bytes32)": "02e30f9a",
    "topDownCheckPeriod()": "7d9740f4",
    "totalSubnets()": "a2b67158",
    "totalWeight()": "96c82e57"
  },
  "id": 33
}