{
  "abi": [
    {
      "inputs": [],
      "name": "appliedTopDownNonce",
      "outputs": [
        {
          "internalType": "uint64",
          "name": "",
          "type": "uint64"
        }
      ],
      "stateMutability": "view",
      "type": "function"
    },
    {
      "inputs": [],
      "name": "bottomUpCheckPeriod",
      "outputs": [
        {
          "internalType": "uint64",
          "name": "",
          "type": "uint64"
        }
      ],
      "stateMutability": "view",
      "type": "function"
    },
    {
      "inputs": [
        {
          "internalType": "uint64",
          "name": "epoch",
          "type": "uint64"
        }
      ],
      "name": "bottomUpCheckpointAtEpoch",
      "outputs": [
        {
          "internalType": "bool",
          "name": "exists",
          "type": "bool"
        },
        {
          "components": [
            {
              "components": [
                {
                  "internalType": "uint64",
                  "name": "root",
                  "type": "uint64"
                },
                {
                  "internalType": "address[]",
                  "name": "route",
                  "type": "address[]"
                }
              ],
              "internalType": "struct SubnetID",
              "name": "source",
              "type": "tuple"
            },
            {
              "internalType": "uint64",
              "name": "epoch",
              "type": "uint64"
            },
            {
              "internalType": "uint256",
              "name": "fee",
              "type": "uint256"
            },
            {
              "components": [
                {
                  "components": [
                    {
                      "components": [
                        {
                          "components": [
                            {
                              "internalType": "uint64",
                              "name": "root",
                              "type": "uint64"
                            },
                            {
                              "internalType": "address[]",
                              "name": "route",
                              "type": "address[]"
                            }
                          ],
                          "internalType": "struct SubnetID",
                          "name": "subnetId",
                          "type": "tuple"
                        },
                        {
                          "components": [
                            {
                              "internalType": "uint8",
                              "name": "addrType",
                              "type": "uint8"
                            },
                            {
                              "internalType": "bytes",
                              "name": "payload",
                              "type": "bytes"
                            }
                          ],
                          "internalType": "struct FvmAddress",
                          "name": "rawAddress",
                          "type": "tuple"
                        }
                      ],
                      "internalType": "struct IPCAddress",
                      "name": "from",
                      "type": "tuple"
                    },
                    {
                      "components": [
                        {
                          "components": [
                            {
                              "internalType": "uint64",
                              "name": "root",
                              "type": "uint64"
                            },
                            {
                              "internalType": "address[]",
                              "name": "route",
                              "type": "address[]"
                            }
                          ],
                          "internalType": "struct SubnetID",
                          "name": "subnetId",
                          "type": "tuple"
                        },
                        {
                          "components": [
                            {
                              "internalType": "uint8",
                              "name": "addrType",
                              "type": "uint8"
                            },
                            {
                              "internalType": "bytes",
                              "name": "payload",
                              "type": "bytes"
                            }
                          ],
                          "internalType": "struct FvmAddress",
                          "name": "rawAddress",
                          "type": "tuple"
                        }
                      ],
                      "internalType": "struct IPCAddress",
                      "name": "to",
                      "type": "tuple"
                    },
                    {
                      "internalType": "uint256",
                      "name": "value",
                      "type": "uint256"
                    },
                    {
                      "internalType": "uint64",
                      "name": "nonce",
                      "type": "uint64"
                    },
                    {
                      "internalType": "bytes4",
                      "name": "method",
                      "type": "bytes4"
                    },
                    {
                      "internalType": "bytes",
                      "name": "params",
                      "type": "bytes"
                    }
                  ],
                  "internalType": "struct StorableMsg",
                  "name": "message",
                  "type": "tuple"
                },
                {
                  "internalType": "bool",
                  "name": "wrapped",
                  "type": "bool"
                }
              ],
              "internalType": "struct CrossMsg[]",
              "name": "crossMsgs",
              "type": "tuple[]"
            },
            {
              "components": [
                {
                  "components": [
                    {
                      "internalType": "uint64",
                      "name": "root",
                      "type": "uint64"
                    },
                    {
                      "internalType": "address[]",
                      "name": "route",
                      "type": "address[]"
                    }
                  ],
                  "internalType": "struct SubnetID",
                  "name": "source",
                  "type": "tuple"
                },
                {
                  "internalType": "bytes32[]",
                  "name": "checks",
                  "type": "bytes32[]"
                }
              ],
              "internalType": "struct ChildCheck[]",
              "name": "children",
              "type": "tuple[]"
            },
            {
              "internalType": "bytes32",
              "name": "prevHash",
              "type": "bytes32"
            },
            {
              "internalType": "bytes",
              "name": "proof",
              "type": "bytes"
            }
          ],
          "internalType": "struct BottomUpCheckpoint",
          "name": "checkpoint",
          "type": "tuple"
        }
      ],
      "stateMutability": "view",
      "type": "function"
    },
    {
      "inputs": [
        {
          "internalType": "uint64",
          "name": "epoch",
          "type": "uint64"
        }
      ],
      "name": "bottomUpCheckpointHashAtEpoch",
      "outputs": [
        {
          "internalType": "bool",
          "name": "",
          "type": "bool"
        },
        {
          "internalType": "bytes32",
          "name": "",
          "type": "bytes32"
        }
      ],
      "stateMutability": "view",
      "type": "function"
    },
    {
      "inputs": [
        {
          "internalType": "uint64",
          "name": "e",
          "type": "uint64"
        }
      ],
      "name": "bottomUpCheckpoints",
      "outputs": [
        {
          "components": [
            {
              "components": [
                {
                  "internalType": "uint64",
                  "name": "root",
                  "type": "uint64"
                },
                {
                  "internalType": "address[]",
                  "name": "route",
                  "type": "address[]"
                }
              ],
              "internalType": "struct SubnetID",
              "name": "source",
              "type": "tuple"
            },
            {
              "internalType": "uint64",
              "name": "epoch",
              "type": "uint64"
            },
            {
              "internalType": "uint256",
              "name": "fee",
              "type": "uint256"
            },
            {
              "components": [
                {
                  "components": [
                    {
                      "components": [
                        {
                          "components": [
                            {
                              "internalType": "uint64",
                              "name": "root",
                              "type": "uint64"
                            },
                            {
                              "internalType": "address[]",
                              "name": "route",
                              "type": "address[]"
                            }
                          ],
                          "internalType": "struct SubnetID",
                          "name": "subnetId",
                          "type": "tuple"
                        },
                        {
                          "components": [
                            {
                              "internalType": "uint8",
                              "name": "addrType",
                              "type": "uint8"
                            },
                            {
                              "internalType": "bytes",
                              "name": "payload",
                              "type": "bytes"
                            }
                          ],
                          "internalType": "struct FvmAddress",
                          "name": "rawAddress",
                          "type": "tuple"
                        }
                      ],
                      "internalType": "struct IPCAddress",
                      "name": "from",
                      "type": "tuple"
                    },
                    {
                      "components": [
                        {
                          "components": [
                            {
                              "internalType": "uint64",
                              "name": "root",
                              "type": "uint64"
                            },
                            {
                              "internalType": "address[]",
                              "name": "route",
                              "type": "address[]"
                            }
                          ],
                          "internalType": "struct SubnetID",
                          "name": "subnetId",
                          "type": "tuple"
                        },
                        {
                          "components": [
                            {
                              "internalType": "uint8",
                              "name": "addrType",
                              "type": "uint8"
                            },
                            {
                              "internalType": "bytes",
                              "name": "payload",
                              "type": "bytes"
                            }
                          ],
                          "internalType": "struct FvmAddress",
                          "name": "rawAddress",
                          "type": "tuple"
                        }
                      ],
                      "internalType": "struct IPCAddress",
                      "name": "to",
                      "type": "tuple"
                    },
                    {
                      "internalType": "uint256",
                      "name": "value",
                      "type": "uint256"
                    },
                    {
                      "internalType": "uint64",
                      "name": "nonce",
                      "type": "uint64"
                    },
                    {
                      "internalType": "bytes4",
                      "name": "method",
                      "type": "bytes4"
                    },
                    {
                      "internalType": "bytes",
                      "name": "params",
                      "type": "bytes"
                    }
                  ],
                  "internalType": "struct StorableMsg",
                  "name": "message",
                  "type": "tuple"
                },
                {
                  "internalType": "bool",
                  "name": "wrapped",
                  "type": "bool"
                }
              ],
              "internalType": "struct CrossMsg[]",
              "name": "crossMsgs",
              "type": "tuple[]"
            },
            {
              "components": [
                {
                  "components": [
                    {
                      "internalType": "uint64",
                      "name": "root",
                      "type": "uint64"
                    },
                    {
                      "internalType": "address[]",
                      "name": "route",
                      "type": "address[]"
                    }
                  ],
                  "internalType": "struct SubnetID",
                  "name": "source",
                  "type": "tuple"
                },
                {
                  "internalType": "bytes32[]",
                  "name": "checks",
                  "type": "bytes32[]"
                }
              ],
              "internalType": "struct ChildCheck[]",
              "name": "children",
              "type": "tuple[]"
            },
            {
              "internalType": "bytes32",
              "name": "prevHash",
              "type": "bytes32"
            },
            {
              "internalType": "bytes",
              "name": "proof",
              "type": "bytes"
            }
          ],
          "internalType": "struct BottomUpCheckpoint",
          "name": "",
          "type": "tuple"
        }
      ],
      "stateMutability": "view",
      "type": "function"
    },
    {
      "inputs": [],
      "name": "bottomUpNonce",
      "outputs": [
        {
          "internalType": "uint64",
          "name": "",
          "type": "uint64"
        }
      ],
      "stateMutability": "view",
      "type": "function"
    },
    {
      "inputs": [],
      "name": "crossMsgFee",
      "outputs": [
        {
          "internalType": "uint256",
          "name": "",
          "type": "uint256"
        }
      ],
      "stateMutability": "view",
      "type": "function"
    },
    {
      "inputs": [],
      "name": "executableQueue",
      "outputs": [
        {
          "internalType": "uint64",
          "name": "",
          "type": "uint64"
        },
        {
          "internalType": "uint64",
          "name": "",
          "type": "uint64"
        },
        {
          "internalType": "uint64",
          "name": "",
          "type": "uint64"
        }
      ],
      "stateMutability": "view",
      "type": "function"
    },
    {
      "inputs": [
        {
          "components": [
            {
              "internalType": "uint64",
              "name": "root",
              "type": "uint64"
            },
            {
              "internalType": "address[]",
              "name": "route",
              "type": "address[]"
            }
          ],
          "internalType": "struct SubnetID",
          "name": "subnetId",
          "type": "tuple"
        }
      ],
      "name": "getAppliedTopDownNonce",
      "outputs": [
        {
          "internalType": "bool",
          "name": "",
          "type": "bool"
        },
        {
          "internalType": "uint64",
          "name": "",
          "type": "uint64"
        }
      ],
      "stateMutability": "view",
      "type": "function"
    },
    {
      "inputs": [],
      "name": "getGenesisEpoch",
      "outputs": [
        {
          "internalType": "uint64",
          "name": "",
          "type": "uint64"
        }
      ],
      "stateMutability": "view",
      "type": "function"
    },
    {
      "inputs": [],
      "name": "getNetworkName",
      "outputs": [
        {
          "components": [
            {
              "internalType": "uint64",
              "name": "root",
              "type": "uint64"
            },
            {
              "internalType": "address[]",
              "name": "route",
              "type": "address[]"
            }
          ],
          "internalType": "struct SubnetID",
          "name": "",
          "type": "tuple"
        }
      ],
      "stateMutability": "view",
      "type": "function"
    },
    {
      "inputs": [
        {
          "components": [
            {
              "internalType": "uint64",
              "name": "root",
              "type": "uint64"
            },
            {
              "internalType": "address[]",
              "name": "route",
              "type": "address[]"
            }
          ],
          "internalType": "struct SubnetID",
          "name": "subnetId",
          "type": "tuple"
        }
      ],
      "name": "getSubnet",
      "outputs": [
        {
          "internalType": "bool",
          "name": "",
          "type": "bool"
        },
        {
          "components": [
            {
              "internalType": "uint256",
              "name": "stake",
              "type": "uint256"
            },
            {
              "internalType": "uint256",
              "name": "genesisEpoch",
              "type": "uint256"
            },
            {
              "internalType": "uint256",
              "name": "circSupply",
              "type": "uint256"
            },
            {
              "internalType": "uint64",
              "name": "topDownNonce",
              "type": "uint64"
            },
            {
              "internalType": "uint64",
              "name": "appliedBottomUpNonce",
              "type": "uint64"
            },
            {
              "internalType": "enum Status",
              "name": "status",
              "type": "uint8"
            },
            {
              "components": [
                {
                  "internalType": "uint64",
                  "name": "root",
                  "type": "uint64"
                },
                {
                  "internalType": "address[]",
                  "name": "route",
                  "type": "address[]"
                }
              ],
              "internalType": "struct SubnetID",
              "name": "id",
              "type": "tuple"
            },
            {
              "components": [
                {
                  "components": [
                    {
                      "internalType": "uint64",
                      "name": "root",
                      "type": "uint64"
                    },
                    {
                      "internalType": "address[]",
                      "name": "route",
                      "type": "address[]"
                    }
                  ],
                  "internalType": "struct SubnetID",
                  "name": "source",
                  "type": "tuple"
                },
                {
                  "internalType": "uint64",
                  "name": "epoch",
                  "type": "uint64"
                },
                {
                  "internalType": "uint256",
                  "name": "fee",
                  "type": "uint256"
                },
                {
                  "components": [
                    {
                      "components": [
                        {
                          "components": [
                            {
                              "components": [
                                {
                                  "internalType": "uint64",
                                  "name": "root",
                                  "type": "uint64"
                                },
                                {
                                  "internalType": "address[]",
                                  "name": "route",
                                  "type": "address[]"
                                }
                              ],
                              "internalType": "struct SubnetID",
                              "name": "subnetId",
                              "type": "tuple"
                            },
                            {
                              "components": [
                                {
                                  "internalType": "uint8",
                                  "name": "addrType",
                                  "type": "uint8"
                                },
                                {
                                  "internalType": "bytes",
                                  "name": "payload",
                                  "type": "bytes"
                                }
                              ],
                              "internalType": "struct FvmAddress",
                              "name": "rawAddress",
                              "type": "tuple"
                            }
                          ],
                          "internalType": "struct IPCAddress",
                          "name": "from",
                          "type": "tuple"
                        },
                        {
                          "components": [
                            {
                              "components": [
                                {
                                  "internalType": "uint64",
                                  "name": "root",
                                  "type": "uint64"
                                },
                                {
                                  "internalType": "address[]",
                                  "name": "route",
                                  "type": "address[]"
                                }
                              ],
                              "internalType": "struct SubnetID",
                              "name": "subnetId",
                              "type": "tuple"
                            },
                            {
                              "components": [
                                {
                                  "internalType": "uint8",
                                  "name": "addrType",
                                  "type": "uint8"
                                },
                                {
                                  "internalType": "bytes",
                                  "name": "payload",
                                  "type": "bytes"
                                }
                              ],
                              "internalType": "struct FvmAddress",
                              "name": "rawAddress",
                              "type": "tuple"
                            }
                          ],
                          "internalType": "struct IPCAddress",
                          "name": "to",
                          "type": "tuple"
                        },
                        {
                          "internalType": "uint256",
                          "name": "value",
                          "type": "uint256"
                        },
                        {
                          "internalType": "uint64",
                          "name": "nonce",
                          "type": "uint64"
                        },
                        {
                          "internalType": "bytes4",
                          "name": "method",
                          "type": "bytes4"
                        },
                        {
                          "internalType": "bytes",
                          "name": "params",
                          "type": "bytes"
                        }
                      ],
                      "internalType": "struct StorableMsg",
                      "name": "message",
                      "type": "tuple"
                    },
                    {
                      "internalType": "bool",
                      "name": "wrapped",
                      "type": "bool"
                    }
                  ],
                  "internalType": "struct CrossMsg[]",
                  "name": "crossMsgs",
                  "type": "tuple[]"
                },
                {
                  "components": [
                    {
                      "components": [
                        {
                          "internalType": "uint64",
                          "name": "root",
                          "type": "uint64"
                        },
                        {
                          "internalType": "address[]",
                          "name": "route",
                          "type": "address[]"
                        }
                      ],
                      "internalType": "struct SubnetID",
                      "name": "source",
                      "type": "tuple"
                    },
                    {
                      "internalType": "bytes32[]",
                      "name": "checks",
                      "type": "bytes32[]"
                    }
                  ],
                  "internalType": "struct ChildCheck[]",
                  "name": "children",
                  "type": "tuple[]"
                },
                {
                  "internalType": "bytes32",
                  "name": "prevHash",
                  "type": "bytes32"
                },
                {
                  "internalType": "bytes",
                  "name": "proof",
                  "type": "bytes"
                }
              ],
              "internalType": "struct BottomUpCheckpoint",
              "name": "prevCheckpoint",
              "type": "tuple"
            },
            {
              "components": [
                {
                  "components": [
                    {
                      "components": [
                        {
                          "components": [
                            {
                              "internalType": "uint64",
                              "name": "root",
                              "type": "uint64"
                            },
                            {
                              "internalType": "address[]",
                              "name": "route",
                              "type": "address[]"
                            }
                          ],
                          "internalType": "struct SubnetID",
                          "name": "subnetId",
                          "type": "tuple"
                        },
                        {
                          "components": [
                            {
                              "internalType": "uint8",
                              "name": "addrType",
                              "type": "uint8"
                            },
                            {
                              "internalType": "bytes",
                              "name": "payload",
                              "type": "bytes"
                            }
                          ],
                          "internalType": "struct FvmAddress",
                          "name": "rawAddress",
                          "type": "tuple"
                        }
                      ],
                      "internalType": "struct IPCAddress",
                      "name": "from",
                      "type": "tuple"
                    },
                    {
                      "components": [
                        {
                          "components": [
                            {
                              "internalType": "uint64",
                              "name": "root",
                              "type": "uint64"
                            },
                            {
                              "internalType": "address[]",
                              "name": "route",
                              "type": "address[]"
                            }
                          ],
                          "internalType": "struct SubnetID",
                          "name": "subnetId",
                          "type": "tuple"
                        },
                        {
                          "components": [
                            {
                              "internalType": "uint8",
                              "name": "addrType",
                              "type": "uint8"
                            },
                            {
                              "internalType": "bytes",
                              "name": "payload",
                              "type": "bytes"
                            }
                          ],
                          "internalType": "struct FvmAddress",
                          "name": "rawAddress",
                          "type": "tuple"
                        }
                      ],
                      "internalType": "struct IPCAddress",
                      "name": "to",
                      "type": "tuple"
                    },
                    {
                      "internalType": "uint256",
                      "name": "value",
                      "type": "uint256"
                    },
                    {
                      "internalType": "uint64",
                      "name": "nonce",
                      "type": "uint64"
                    },
                    {
                      "internalType": "bytes4",
                      "name": "method",
                      "type": "bytes4"
                    },
                    {
                      "internalType": "bytes",
                      "name": "params",
                      "type": "bytes"
                    }
                  ],
                  "internalType": "struct StorableMsg",
                  "name": "message",
                  "type": "tuple"
                },
                {
                  "internalType": "bool",
                  "name": "wrapped",
                  "type": "bool"
                }
              ],
              "internalType": "struct CrossMsg[]",
              "name": "topDownMsgs",
              "type": "tuple[]"
            }
          ],
          "internalType": "struct Subnet",
          "name": "",
          "type": "tuple"
        }
      ],
      "stateMutability": "view",
      "type": "function"
    },
    {
      "inputs": [
        {
          "components": [
            {
              "internalType": "uint64",
              "name": "root",
              "type": "uint64"
            },
            {
              "internalType": "address[]",
              "name": "route",
              "type": "address[]"
            }
          ],
          "internalType": "struct SubnetID",
          "name": "subnetId",
          "type": "tuple"
        },
        {
          "internalType": "uint256",
          "name": "index",
          "type": "uint256"
        }
      ],
      "name": "getSubnetTopDownMsg",
      "outputs": [
        {
          "components": [
            {
              "components": [
                {
                  "components": [
                    {
                      "components": [
                        {
                          "internalType": "uint64",
                          "name": "root",
                          "type": "uint64"
                        },
                        {
                          "internalType": "address[]",
                          "name": "route",
                          "type": "address[]"
                        }
                      ],
                      "internalType": "struct SubnetID",
                      "name": "subnetId",
                      "type": "tuple"
                    },
                    {
                      "components": [
                        {
                          "internalType": "uint8",
                          "name": "addrType",
                          "type": "uint8"
                        },
                        {
                          "internalType": "bytes",
                          "name": "payload",
                          "type": "bytes"
                        }
                      ],
                      "internalType": "struct FvmAddress",
                      "name": "rawAddress",
                      "type": "tuple"
                    }
                  ],
                  "internalType": "struct IPCAddress",
                  "name": "from",
                  "type": "tuple"
                },
                {
                  "components": [
                    {
                      "components": [
                        {
                          "internalType": "uint64",
                          "name": "root",
                          "type": "uint64"
                        },
                        {
                          "internalType": "address[]",
                          "name": "route",
                          "type": "address[]"
                        }
                      ],
                      "internalType": "struct SubnetID",
                      "name": "subnetId",
                      "type": "tuple"
                    },
                    {
                      "components": [
                        {
                          "internalType": "uint8",
                          "name": "addrType",
                          "type": "uint8"
                        },
                        {
                          "internalType": "bytes",
                          "name": "payload",
                          "type": "bytes"
                        }
                      ],
                      "internalType": "struct FvmAddress",
                      "name": "rawAddress",
                      "type": "tuple"
                    }
                  ],
                  "internalType": "struct IPCAddress",
                  "name": "to",
                  "type": "tuple"
                },
                {
                  "internalType": "uint256",
                  "name": "value",
                  "type": "uint256"
                },
                {
                  "internalType": "uint64",
                  "name": "nonce",
                  "type": "uint64"
                },
                {
                  "internalType": "bytes4",
                  "name": "method",
                  "type": "bytes4"
                },
                {
                  "internalType": "bytes",
                  "name": "params",
                  "type": "bytes"
                }
              ],
              "internalType": "struct StorableMsg",
              "name": "message",
              "type": "tuple"
            },
            {
              "internalType": "bool",
              "name": "wrapped",
              "type": "bool"
            }
          ],
          "internalType": "struct CrossMsg",
          "name": "",
          "type": "tuple"
        }
      ],
      "stateMutability": "view",
      "type": "function"
    },
    {
      "inputs": [
        {
          "components": [
            {
              "internalType": "uint64",
              "name": "root",
              "type": "uint64"
            },
            {
              "internalType": "address[]",
              "name": "route",
              "type": "address[]"
            }
          ],
          "internalType": "struct SubnetID",
          "name": "subnetId",
          "type": "tuple"
        }
      ],
      "name": "getSubnetTopDownMsgsLength",
      "outputs": [
        {
          "internalType": "uint256",
          "name": "",
          "type": "uint256"
        }
      ],
      "stateMutability": "view",
      "type": "function"
    },
    {
      "inputs": [
        {
          "components": [
            {
              "internalType": "uint64",
              "name": "root",
              "type": "uint64"
            },
            {
              "internalType": "address[]",
              "name": "route",
              "type": "address[]"
            }
          ],
          "internalType": "struct SubnetID",
          "name": "subnetId",
          "type": "tuple"
        },
        {
          "internalType": "uint64",
          "name": "fromNonce",
          "type": "uint64"
        }
      ],
      "name": "getTopDownMsgs",
      "outputs": [
        {
          "components": [
            {
              "components": [
                {
                  "components": [
                    {
                      "components": [
                        {
                          "internalType": "uint64",
                          "name": "root",
                          "type": "uint64"
                        },
                        {
                          "internalType": "address[]",
                          "name": "route",
                          "type": "address[]"
                        }
                      ],
                      "internalType": "struct SubnetID",
                      "name": "subnetId",
                      "type": "tuple"
                    },
                    {
                      "components": [
                        {
                          "internalType": "uint8",
                          "name": "addrType",
                          "type": "uint8"
                        },
                        {
                          "internalType": "bytes",
                          "name": "payload",
                          "type": "bytes"
                        }
                      ],
                      "internalType": "struct FvmAddress",
                      "name": "rawAddress",
                      "type": "tuple"
                    }
                  ],
                  "internalType": "struct IPCAddress",
                  "name": "from",
                  "type": "tuple"
                },
                {
                  "components": [
                    {
                      "components": [
                        {
                          "internalType": "uint64",
                          "name": "root",
                          "type": "uint64"
                        },
                        {
                          "internalType": "address[]",
                          "name": "route",
                          "type": "address[]"
                        }
                      ],
                      "internalType": "struct SubnetID",
                      "name": "subnetId",
                      "type": "tuple"
                    },
                    {
                      "components": [
                        {
                          "internalType": "uint8",
                          "name": "addrType",
                          "type": "uint8"
                        },
                        {
                          "internalType": "bytes",
                          "name": "payload",
                          "type": "bytes"
                        }
                      ],
                      "internalType": "struct FvmAddress",
                      "name": "rawAddress",
                      "type": "tuple"
                    }
                  ],
                  "internalType": "struct IPCAddress",
                  "name": "to",
                  "type": "tuple"
                },
                {
                  "internalType": "uint256",
                  "name": "value",
                  "type": "uint256"
                },
                {
                  "internalType": "uint64",
                  "name": "nonce",
                  "type": "uint64"
                },
                {
                  "internalType": "bytes4",
                  "name": "method",
                  "type": "bytes4"
                },
                {
                  "internalType": "bytes",
                  "name": "params",
                  "type": "bytes"
                }
              ],
              "internalType": "struct StorableMsg",
              "name": "message",
              "type": "tuple"
            },
            {
              "internalType": "bool",
              "name": "wrapped",
              "type": "bool"
            }
          ],
          "internalType": "struct CrossMsg[]",
          "name": "",
          "type": "tuple[]"
        }
      ],
      "stateMutability": "view",
      "type": "function"
    },
    {
      "inputs": [
        {
          "internalType": "uint64",
          "name": "epoch",
          "type": "uint64"
        },
        {
          "internalType": "address",
          "name": "submitter",
          "type": "address"
        }
      ],
      "name": "hasValidatorVotedForSubmission",
      "outputs": [
        {
          "internalType": "bool",
          "name": "",
          "type": "bool"
        }
      ],
      "stateMutability": "view",
      "type": "function"
    },
    {
      "inputs": [],
      "name": "initialized",
      "outputs": [
        {
          "internalType": "bool",
          "name": "",
          "type": "bool"
        }
      ],
      "stateMutability": "view",
      "type": "function"
    },
    {
      "inputs": [],
      "name": "lastVotingExecutedEpoch",
      "outputs": [
        {
          "internalType": "uint64",
          "name": "",
          "type": "uint64"
        }
      ],
      "stateMutability": "view",
      "type": "function"
    },
    {
      "inputs": [],
      "name": "listSubnets",
      "outputs": [
        {
          "components": [
            {
              "internalType": "uint256",
              "name": "stake",
              "type": "uint256"
            },
            {
              "internalType": "uint256",
              "name": "genesisEpoch",
              "type": "uint256"
            },
            {
              "internalType": "uint256",
              "name": "circSupply",
              "type": "uint256"
            },
            {
              "internalType": "uint64",
              "name": "topDownNonce",
              "type": "uint64"
            },
            {
              "internalType": "uint64",
              "name": "appliedBottomUpNonce",
              "type": "uint64"
            },
            {
              "internalType": "enum Status",
              "name": "status",
              "type": "uint8"
            },
            {
              "components": [
                {
                  "internalType": "uint64",
                  "name": "root",
                  "type": "uint64"
                },
                {
                  "internalType": "address[]",
                  "name": "route",
                  "type": "address[]"
                }
              ],
              "internalType": "struct SubnetID",
              "name": "id",
              "type": "tuple"
            },
            {
              "components": [
                {
                  "components": [
                    {
                      "internalType": "uint64",
                      "name": "root",
                      "type": "uint64"
                    },
                    {
                      "internalType": "address[]",
                      "name": "route",
                      "type": "address[]"
                    }
                  ],
                  "internalType": "struct SubnetID",
                  "name": "source",
                  "type": "tuple"
                },
                {
                  "internalType": "uint64",
                  "name": "epoch",
                  "type": "uint64"
                },
                {
                  "internalType": "uint256",
                  "name": "fee",
                  "type": "uint256"
                },
                {
                  "components": [
                    {
                      "components": [
                        {
                          "components": [
                            {
                              "components": [
                                {
                                  "internalType": "uint64",
                                  "name": "root",
                                  "type": "uint64"
                                },
                                {
                                  "internalType": "address[]",
                                  "name": "route",
                                  "type": "address[]"
                                }
                              ],
                              "internalType": "struct SubnetID",
                              "name": "subnetId",
                              "type": "tuple"
                            },
                            {
                              "components": [
                                {
                                  "internalType": "uint8",
                                  "name": "addrType",
                                  "type": "uint8"
                                },
                                {
                                  "internalType": "bytes",
                                  "name": "payload",
                                  "type": "bytes"
                                }
                              ],
                              "internalType": "struct FvmAddress",
                              "name": "rawAddress",
                              "type": "tuple"
                            }
                          ],
                          "internalType": "struct IPCAddress",
                          "name": "from",
                          "type": "tuple"
                        },
                        {
                          "components": [
                            {
                              "components": [
                                {
                                  "internalType": "uint64",
                                  "name": "root",
                                  "type": "uint64"
                                },
                                {
                                  "internalType": "address[]",
                                  "name": "route",
                                  "type": "address[]"
                                }
                              ],
                              "internalType": "struct SubnetID",
                              "name": "subnetId",
                              "type": "tuple"
                            },
                            {
                              "components": [
                                {
                                  "internalType": "uint8",
                                  "name": "addrType",
                                  "type": "uint8"
                                },
                                {
                                  "internalType": "bytes",
                                  "name": "payload",
                                  "type": "bytes"
                                }
                              ],
                              "internalType": "struct FvmAddress",
                              "name": "rawAddress",
                              "type": "tuple"
                            }
                          ],
                          "internalType": "struct IPCAddress",
                          "name": "to",
                          "type": "tuple"
                        },
                        {
                          "internalType": "uint256",
                          "name": "value",
                          "type": "uint256"
                        },
                        {
                          "internalType": "uint64",
                          "name": "nonce",
                          "type": "uint64"
                        },
                        {
                          "internalType": "bytes4",
                          "name": "method",
                          "type": "bytes4"
                        },
                        {
                          "internalType": "bytes",
                          "name": "params",
                          "type": "bytes"
                        }
                      ],
                      "internalType": "struct StorableMsg",
                      "name": "message",
                      "type": "tuple"
                    },
                    {
                      "internalType": "bool",
                      "name": "wrapped",
                      "type": "bool"
                    }
                  ],
                  "internalType": "struct CrossMsg[]",
                  "name": "crossMsgs",
                  "type": "tuple[]"
                },
                {
                  "components": [
                    {
                      "components": [
                        {
                          "internalType": "uint64",
                          "name": "root",
                          "type": "uint64"
                        },
                        {
                          "internalType": "address[]",
                          "name": "route",
                          "type": "address[]"
                        }
                      ],
                      "internalType": "struct SubnetID",
                      "name": "source",
                      "type": "tuple"
                    },
                    {
                      "internalType": "bytes32[]",
                      "name": "checks",
                      "type": "bytes32[]"
                    }
                  ],
                  "internalType": "struct ChildCheck[]",
                  "name": "children",
                  "type": "tuple[]"
                },
                {
                  "internalType": "bytes32",
                  "name": "prevHash",
                  "type": "bytes32"
                },
                {
                  "internalType": "bytes",
                  "name": "proof",
                  "type": "bytes"
                }
              ],
              "internalType": "struct BottomUpCheckpoint",
              "name": "prevCheckpoint",
              "type": "tuple"
            },
            {
              "components": [
                {
                  "components": [
                    {
                      "components": [
                        {
                          "components": [
                            {
                              "internalType": "uint64",
                              "name": "root",
                              "type": "uint64"
                            },
                            {
                              "internalType": "address[]",
                              "name": "route",
                              "type": "address[]"
                            }
                          ],
                          "internalType": "struct SubnetID",
                          "name": "subnetId",
                          "type": "tuple"
                        },
                        {
                          "components": [
                            {
                              "internalType": "uint8",
                              "name": "addrType",
                              "type": "uint8"
                            },
                            {
                              "internalType": "bytes",
                              "name": "payload",
                              "type": "bytes"
                            }
                          ],
                          "internalType": "struct FvmAddress",
                          "name": "rawAddress",
                          "type": "tuple"
                        }
                      ],
                      "internalType": "struct IPCAddress",
                      "name": "from",
                      "type": "tuple"
                    },
                    {
                      "components": [
                        {
                          "components": [
                            {
                              "internalType": "uint64",
                              "name": "root",
                              "type": "uint64"
                            },
                            {
                              "internalType": "address[]",
                              "name": "route",
                              "type": "address[]"
                            }
                          ],
                          "internalType": "struct SubnetID",
                          "name": "subnetId",
                          "type": "tuple"
                        },
                        {
                          "components": [
                            {
                              "internalType": "uint8",
                              "name": "addrType",
                              "type": "uint8"
                            },
                            {
                              "internalType": "bytes",
                              "name": "payload",
                              "type": "bytes"
                            }
                          ],
                          "internalType": "struct FvmAddress",
                          "name": "rawAddress",
                          "type": "tuple"
                        }
                      ],
                      "internalType": "struct IPCAddress",
                      "name": "to",
                      "type": "tuple"
                    },
                    {
                      "internalType": "uint256",
                      "name": "value",
                      "type": "uint256"
                    },
                    {
                      "internalType": "uint64",
                      "name": "nonce",
                      "type": "uint64"
                    },
                    {
                      "internalType": "bytes4",
                      "name": "method",
                      "type": "bytes4"
                    },
                    {
                      "internalType": "bytes",
                      "name": "params",
                      "type": "bytes"
                    }
                  ],
                  "internalType": "struct StorableMsg",
                  "name": "message",
                  "type": "tuple"
                },
                {
                  "internalType": "bool",
                  "name": "wrapped",
                  "type": "bool"
                }
              ],
              "internalType": "struct CrossMsg[]",
              "name": "topDownMsgs",
              "type": "tuple[]"
            }
          ],
          "internalType": "struct Subnet[]",
          "name": "",
          "type": "tuple[]"
        }
      ],
      "stateMutability": "view",
      "type": "function"
    },
    {
      "inputs": [],
      "name": "majorityPercentage",
      "outputs": [
        {
          "internalType": "uint64",
          "name": "",
          "type": "uint64"
        }
      ],
      "stateMutability": "view",
      "type": "function"
    },
    {
      "inputs": [],
      "name": "minStake",
      "outputs": [
        {
          "internalType": "uint256",
          "name": "",
          "type": "uint256"
        }
      ],
      "stateMutability": "view",
      "type": "function"
    },
    {
      "inputs": [
        {
          "internalType": "bytes32",
          "name": "id",
          "type": "bytes32"
        }
      ],
      "name": "postbox",
      "outputs": [
        {
          "components": [
            {
              "components": [
                {
                  "components": [
                    {
                      "internalType": "uint64",
                      "name": "root",
                      "type": "uint64"
                    },
                    {
                      "internalType": "address[]",
                      "name": "route",
                      "type": "address[]"
                    }
                  ],
                  "internalType": "struct SubnetID",
                  "name": "subnetId",
                  "type": "tuple"
                },
                {
                  "components": [
                    {
                      "internalType": "uint8",
                      "name": "addrType",
                      "type": "uint8"
                    },
                    {
                      "internalType": "bytes",
                      "name": "payload",
                      "type": "bytes"
                    }
                  ],
                  "internalType": "struct FvmAddress",
                  "name": "rawAddress",
                  "type": "tuple"
                }
              ],
              "internalType": "struct IPCAddress",
              "name": "from",
              "type": "tuple"
            },
            {
              "components": [
                {
                  "components": [
                    {
                      "internalType": "uint64",
                      "name": "root",
                      "type": "uint64"
                    },
                    {
                      "internalType": "address[]",
                      "name": "route",
                      "type": "address[]"
                    }
                  ],
                  "internalType": "struct SubnetID",
                  "name": "subnetId",
                  "type": "tuple"
                },
                {
                  "components": [
                    {
                      "internalType": "uint8",
                      "name": "addrType",
                      "type": "uint8"
                    },
                    {
                      "internalType": "bytes",
                      "name": "payload",
                      "type": "bytes"
                    }
                  ],
                  "internalType": "struct FvmAddress",
                  "name": "rawAddress",
                  "type": "tuple"
                }
              ],
              "internalType": "struct IPCAddress",
              "name": "to",
              "type": "tuple"
            },
            {
              "internalType": "uint256",
              "name": "value",
              "type": "uint256"
            },
            {
              "internalType": "uint64",
              "name": "nonce",
              "type": "uint64"
            },
            {
              "internalType": "bytes4",
              "name": "method",
              "type": "bytes4"
            },
            {
              "internalType": "bytes",
              "name": "params",
              "type": "bytes"
            }
          ],
          "internalType": "struct StorableMsg",
          "name": "storableMsg",
          "type": "tuple"
        },
        {
          "internalType": "bool",
          "name": "wrapped",
          "type": "bool"
        }
      ],
      "stateMutability": "view",
      "type": "function"
    },
    {
      "inputs": [
        {
          "internalType": "bytes32",
          "name": "h",
          "type": "bytes32"
        }
      ],
      "name": "subnets",
      "outputs": [
        {
          "components": [
            {
              "internalType": "uint256",
              "name": "stake",
              "type": "uint256"
            },
            {
              "internalType": "uint256",
              "name": "genesisEpoch",
              "type": "uint256"
            },
            {
              "internalType": "uint256",
              "name": "circSupply",
              "type": "uint256"
            },
            {
              "internalType": "uint64",
              "name": "topDownNonce",
              "type": "uint64"
            },
            {
              "internalType": "uint64",
              "name": "appliedBottomUpNonce",
              "type": "uint64"
            },
            {
              "internalType": "enum Status",
              "name": "status",
              "type": "uint8"
            },
            {
              "components": [
                {
                  "internalType": "uint64",
                  "name": "root",
                  "type": "uint64"
                },
                {
                  "internalType": "address[]",
                  "name": "route",
                  "type": "address[]"
                }
              ],
              "internalType": "struct SubnetID",
              "name": "id",
              "type": "tuple"
            },
            {
              "components": [
                {
                  "components": [
                    {
                      "internalType": "uint64",
                      "name": "root",
                      "type": "uint64"
                    },
                    {
                      "internalType": "address[]",
                      "name": "route",
                      "type": "address[]"
                    }
                  ],
                  "internalType": "struct SubnetID",
                  "name": "source",
                  "type": "tuple"
                },
                {
                  "internalType": "uint64",
                  "name": "epoch",
                  "type": "uint64"
                },
                {
                  "internalType": "uint256",
                  "name": "fee",
                  "type": "uint256"
                },
                {
                  "components": [
                    {
                      "components": [
                        {
                          "components": [
                            {
                              "components": [
                                {
                                  "internalType": "uint64",
                                  "name": "root",
                                  "type": "uint64"
                                },
                                {
                                  "internalType": "address[]",
                                  "name": "route",
                                  "type": "address[]"
                                }
                              ],
                              "internalType": "struct SubnetID",
                              "name": "subnetId",
                              "type": "tuple"
                            },
                            {
                              "components": [
                                {
                                  "internalType": "uint8",
                                  "name": "addrType",
                                  "type": "uint8"
                                },
                                {
                                  "internalType": "bytes",
                                  "name": "payload",
                                  "type": "bytes"
                                }
                              ],
                              "internalType": "struct FvmAddress",
                              "name": "rawAddress",
                              "type": "tuple"
                            }
                          ],
                          "internalType": "struct IPCAddress",
                          "name": "from",
                          "type": "tuple"
                        },
                        {
                          "components": [
                            {
                              "components": [
                                {
                                  "internalType": "uint64",
                                  "name": "root",
                                  "type": "uint64"
                                },
                                {
                                  "internalType": "address[]",
                                  "name": "route",
                                  "type": "address[]"
                                }
                              ],
                              "internalType": "struct SubnetID",
                              "name": "subnetId",
                              "type": "tuple"
                            },
                            {
                              "components": [
                                {
                                  "internalType": "uint8",
                                  "name": "addrType",
                                  "type": "uint8"
                                },
                                {
                                  "internalType": "bytes",
                                  "name": "payload",
                                  "type": "bytes"
                                }
                              ],
                              "internalType": "struct FvmAddress",
                              "name": "rawAddress",
                              "type": "tuple"
                            }
                          ],
                          "internalType": "struct IPCAddress",
                          "name": "to",
                          "type": "tuple"
                        },
                        {
                          "internalType": "uint256",
                          "name": "value",
                          "type": "uint256"
                        },
                        {
                          "internalType": "uint64",
                          "name": "nonce",
                          "type": "uint64"
                        },
                        {
                          "internalType": "bytes4",
                          "name": "method",
                          "type": "bytes4"
                        },
                        {
                          "internalType": "bytes",
                          "name": "params",
                          "type": "bytes"
                        }
                      ],
                      "internalType": "struct StorableMsg",
                      "name": "message",
                      "type": "tuple"
                    },
                    {
                      "internalType": "bool",
                      "name": "wrapped",
                      "type": "bool"
                    }
                  ],
                  "internalType": "struct CrossMsg[]",
                  "name": "crossMsgs",
                  "type": "tuple[]"
                },
                {
                  "components": [
                    {
                      "components": [
                        {
                          "internalType": "uint64",
                          "name": "root",
                          "type": "uint64"
                        },
                        {
                          "internalType": "address[]",
                          "name": "route",
                          "type": "address[]"
                        }
                      ],
                      "internalType": "struct SubnetID",
                      "name": "source",
                      "type": "tuple"
                    },
                    {
                      "internalType": "bytes32[]",
                      "name": "checks",
                      "type": "bytes32[]"
                    }
                  ],
                  "internalType": "struct ChildCheck[]",
                  "name": "children",
                  "type": "tuple[]"
                },
                {
                  "internalType": "bytes32",
                  "name": "prevHash",
                  "type": "bytes32"
                },
                {
                  "internalType": "bytes",
                  "name": "proof",
                  "type": "bytes"
                }
              ],
              "internalType": "struct BottomUpCheckpoint",
              "name": "prevCheckpoint",
              "type": "tuple"
            },
            {
              "components": [
                {
                  "components": [
                    {
                      "components": [
                        {
                          "components": [
                            {
                              "internalType": "uint64",
                              "name": "root",
                              "type": "uint64"
                            },
                            {
                              "internalType": "address[]",
                              "name": "route",
                              "type": "address[]"
                            }
                          ],
                          "internalType": "struct SubnetID",
                          "name": "subnetId",
                          "type": "tuple"
                        },
                        {
                          "components": [
                            {
                              "internalType": "uint8",
                              "name": "addrType",
                              "type": "uint8"
                            },
                            {
                              "internalType": "bytes",
                              "name": "payload",
                              "type": "bytes"
                            }
                          ],
                          "internalType": "struct FvmAddress",
                          "name": "rawAddress",
                          "type": "tuple"
                        }
                      ],
                      "internalType": "struct IPCAddress",
                      "name": "from",
                      "type": "tuple"
                    },
                    {
                      "components": [
                        {
                          "components": [
                            {
                              "internalType": "uint64",
                              "name": "root",
                              "type": "uint64"
                            },
                            {
                              "internalType": "address[]",
                              "name": "route",
                              "type": "address[]"
                            }
                          ],
                          "internalType": "struct SubnetID",
                          "name": "subnetId",
                          "type": "tuple"
                        },
                        {
                          "components": [
                            {
                              "internalType": "uint8",
                              "name": "addrType",
                              "type": "uint8"
                            },
                            {
                              "internalType": "bytes",
                              "name": "payload",
                              "type": "bytes"
                            }
                          ],
                          "internalType": "struct FvmAddress",
                          "name": "rawAddress",
                          "type": "tuple"
                        }
                      ],
                      "internalType": "struct IPCAddress",
                      "name": "to",
                      "type": "tuple"
                    },
                    {
                      "internalType": "uint256",
                      "name": "value",
                      "type": "uint256"
                    },
                    {
                      "internalType": "uint64",
                      "name": "nonce",
                      "type": "uint64"
                    },
                    {
                      "internalType": "bytes4",
                      "name": "method",
                      "type": "bytes4"
                    },
                    {
                      "internalType": "bytes",
                      "name": "params",
                      "type": "bytes"
                    }
                  ],
                  "internalType": "struct StorableMsg",
                  "name": "message",
                  "type": "tuple"
                },
                {
                  "internalType": "bool",
                  "name": "wrapped",
                  "type": "bool"
                }
              ],
              "internalType": "struct CrossMsg[]",
              "name": "topDownMsgs",
              "type": "tuple[]"
            }
          ],
          "internalType": "struct Subnet",
          "name": "subnet",
          "type": "tuple"
        }
      ],
      "stateMutability": "view",
      "type": "function"
    },
    {
      "inputs": [],
      "name": "topDownCheckPeriod",
      "outputs": [
        {
          "internalType": "uint64",
          "name": "",
          "type": "uint64"
        }
      ],
      "stateMutability": "view",
      "type": "function"
    },
    {
      "inputs": [],
      "name": "totalSubnets",
      "outputs": [
        {
          "internalType": "uint64",
          "name": "",
          "type": "uint64"
        }
      ],
      "stateMutability": "view",
      "type": "function"
    },
    {
      "inputs": [],
      "name": "totalWeight",
      "outputs": [
        {
          "internalType": "uint256",
          "name": "",
          "type": "uint256"
        }
      ],
      "stateMutability": "view",
      "type": "function"
    }
  ],
  "bytecode": {
    "object": "0x608060405234801561001057600080fd5b506151bd806100206000396000f3fe608060405234801561001057600080fd5b506004361061018e5760003560e01c80635d029685116100de57806394074b03116100975780639e530b57116100715780639e530b571461042c578063a2b671581461045e578063ad81e24414610476578063c66c66a11461047e57600080fd5b806394074b03146103fc57806396c82e57146104115780639d3070b51461041957600080fd5b80635d0296851461032557806366d7bbbc1461033a5780636cb2ecee1461038a5780637d9740f4146103ab5780638789f83b146103c35780638cfd78e7146103db57600080fd5b8063158ef93e1161014b578063375b3c0a11610125578063375b3c0a146102cd57806341b6a2e8146102d557806351392fc0146102e6578063599c7bd11461031d57600080fd5b8063158ef93e1461027d578063247294251461029b5780632cc14ea2146102ad57600080fd5b806302e30f9a1461019357806306c46853146101bc5780630ea746f2146101e157806310d500e114610201578063133f74ea14610233578063135493151461025d575b600080fd5b6101a66101a1366004614672565b61049f565b6040516101b39190614a93565b60405180910390f35b600f546001600160401b03165b6040516001600160401b0390911681526020016101b3565b6101f46101ef366004614c17565b610ffa565b6040516101b39190614c5b565b6102096113b7565b604080516001600160401b03948516815292841660208401529216918101919091526060016101b3565b610246610241366004614c6e565b611416565b6040805192151583526020830191909152016101b3565b61027061026b366004614ca1565b6114af565b6040516101b39190614cee565b600f54600160401b900460ff165b60405190151581526020016101b3565b600c545b6040519081526020016101b3565b6102c06102bb366004614c6e565b6119b0565b6040516101b39190614d01565b600a5461029f565b600e546001600160401b03166101c9565b7f283d1424c49941ba61504663c7a1b6f59e6bbb963a00bcc130bcbf9c29e1e27054600160401b90046001600160401b03166101c9565b6101c9612039565b61032d612066565b6040516101b39190614d14565b61028b610348366004614d76565b6001600160401b03821660009081526006602090815260408083208054845260030182528083206001600160a01b038516845290915290205460ff1692915050565b61039d610398366004614c6e565b612c6c565b6040516101b3929190614da0565b600e54600160801b90046001600160401b03166101c9565b600e54600160401b90046001600160401b03166101c9565b6103ee6103e9366004614672565b613370565b6040516101b3929190614dc3565b6104046136fb565b6040516101b39190614de7565b600d5461029f565b61029f610427366004614dfa565b613790565b61043f61043a366004614e2e565b6137a8565b6040805192151583526001600160401b039091166020830152016101b3565b600e54600160c01b90046001600160401b03166101c9565b6101c96137e9565b61049161048c366004614e2e565b61381c565b6040516101b3929190614e62565b6104a761450b565b600082815260208181526040918290208251610120810184528154815260018201549281019290925260028101549282019290925260038201546001600160401b038082166060840152600160401b820416608083015290919060a0830190600160801b900460ff1660058111156105215761052161468b565b60058111156105325761053261468b565b81526040805180820182526004840180546001600160401b031682526005850180548451602082810282018101909652818152958501959394929385840193909291908301828280156105ae57602002820191906000526020600020905b81546001600160a01b03168152600190910190602001808311610590575b50505091909252505050815260408051610120810182526006840180546001600160401b031660e083019081526007860180548551602082810282018101909752818152968601969495939486948693610100870193909183018282801561063f57602002820191906000526020600020905b81546001600160a01b03168152600190910190602001808311610621575b50505050508152505081526020016002820160009054906101000a90046001600160401b03166001600160401b03166001600160401b031681526020016003820154815260200160048201805480602002602001604051908101604052809291908181526020016000905b82821015610a495760008481526020908190206040805161018081018252600c860290920180546001600160401b031661014084019081526001820180548451818802810188018652818152959693958795860194879486946101008901948794869486936101608d0193909183018282801561075057602002820191906000526020600020905b81546001600160a01b03168152600190910190602001808311610732575b5050509190925250505081526040805180820190915260028301805460ff1682526003840180546020948501948401919061078a90614e7d565b80601f01602080910402602001604051908101604052809291908181526020018280546107b690614e7d565b80156108035780601f106107d857610100808354040283529160200191610803565b820191906000526020600020905b8154815290600101906020018083116107e657829003601f168201915b505050919092525050509052508152604080516080810182526004840180546001600160401b031682840190815260058601805485516020828102820181019097528181529686019694959394869486936060870193909183018282801561089457602002820191906000526020600020905b81546001600160a01b03168152600190910190602001808311610876575b5050509190925250505081526040805180820190915260028301805460ff168252600384018054602094850194840191906108ce90614e7d565b80601f01602080910402602001604051908101604052809291908181526020018280546108fa90614e7d565b80156109475780601f1061091c57610100808354040283529160200191610947565b820191906000526020600020905b81548152906001019060200180831161092a57829003601f168201915b5050509190925250505090525081526008820154602082015260098201546001600160401b0381166040830152600160401b900460e01b6001600160e01b0319166060820152600a820180546080909201916109a290614e7d565b80601f01602080910402602001604051908101604052809291908181526020018280546109ce90614e7d565b8015610a1b5780601f106109f057610100808354040283529160200191610a1b565b820191906000526020600020905b8154815290600101906020018083116109fe57829003601f168201915b505050919092525050508152600b919091015460ff16151560209182015290825260019290920191016106aa565b50505050815260200160058201805480602002602001604051908101604052809291908181526020016000905b82821015610b80576000848152602090819020604080516080810182526003860290920180546001600160401b031683830190815260018201805484518188028101880190955280855294959294869492938693606087019390929091830182828015610b0c57602002820191906000526020600020905b81546001600160a01b03168152600190910190602001808311610aee575b505050505081525050815260200160028201805480602002602001604051908101604052809291908181526020018280548015610b6857602002820191906000526020600020905b815481526020019060010190808311610b54575b50505050508152505081526020019060010190610a76565b50505050815260200160068201548152602001600782018054610ba290614e7d565b80601f0160208091040260200160405190810160405280929190818152602001828054610bce90614e7d565b8015610c1b5780601f10610bf057610100808354040283529160200191610c1b565b820191906000526020600020905b815481529060010190602001808311610bfe57829003601f168201915b5050505050815250508152602001600e8201805480602002602001604051908101604052809291908181526020016000905b82821015610fec5760008481526020908190206040805161018081018252600c860290920180546001600160401b031661014084019081526001820180548451818802810188018652818152959693958795860194879486946101008901948794869486936101608d01939091830182828015610cf357602002820191906000526020600020905b81546001600160a01b03168152600190910190602001808311610cd5575b5050509190925250505081526040805180820190915260028301805460ff16825260038401805460209485019484019190610d2d90614e7d565b80601f0160208091040260200160405190810160405280929190818152602001828054610d5990614e7d565b8015610da65780601f10610d7b57610100808354040283529160200191610da6565b820191906000526020600020905b815481529060010190602001808311610d8957829003601f168201915b505050919092525050509052508152604080516080810182526004840180546001600160401b0316828401908152600586018054855160208281028201810190975281815296860196949593948694869360608701939091830182828015610e3757602002820191906000526020600020905b81546001600160a01b03168152600190910190602001808311610e19575b5050509190925250505081526040805180820190915260028301805460ff16825260038401805460209485019484019190610e7190614e7d565b80601f0160208091040260200160405190810160405280929190818152602001828054610e9d90614e7d565b8015610eea5780601f10610ebf57610100808354040283529160200191610eea565b820191906000526020600020905b815481529060010190602001808311610ecd57829003601f168201915b5050509190925250505090525081526008820154602082015260098201546001600160401b0381166040830152600160401b900460e01b6001600160e01b0319166060820152600a82018054608090920191610f4590614e7d565b80601f0160208091040260200160405190810160405280929190818152602001828054610f7190614e7d565b8015610fbe5780601f10610f9357610100808354040283529160200191610fbe565b820191906000526020600020905b815481529060010190602001808311610fa157829003601f168201915b505050919092525050508152600b919091015460ff1615156020918201529082526001929092019101610c4d565b505050915250909392505050565b61100261456d565b600061100d84614378565b91505080600e01838154811061102557611025614eb1565b60009182526020918290206040805161018081018252600c90930290910180546001600160401b031661014084019081526001820180548451818802810188018652818152959693958795860194879486946101008901948794869486936101608d019390918301828280156110c457602002820191906000526020600020905b81546001600160a01b031681526001909101906020018083116110a6575b5050509190925250505081526040805180820190915260028301805460ff168252600384018054602094850194840191906110fe90614e7d565b80601f016020809104026020016040519081016040528092919081815260200182805461112a90614e7d565b80156111775780601f1061114c57610100808354040283529160200191611177565b820191906000526020600020905b81548152906001019060200180831161115a57829003601f168201915b505050919092525050509052508152604080516080810182526004840180546001600160401b031682840190815260058601805485516020828102820181019097528181529686019694959394869486936060870193909183018282801561120857602002820191906000526020600020905b81546001600160a01b031681526001909101906020018083116111ea575b5050509190925250505081526040805180820190915260028301805460ff1682526003840180546020948501948401919061124290614e7d565b80601f016020809104026020016040519081016040528092919081815260200182805461126e90614e7d565b80156112bb5780601f10611290576101008083540402835291602001916112bb565b820191906000526020600020905b81548152906001019060200180831161129e57829003601f168201915b5050509190925250505090525081526008820154602082015260098201546001600160401b0381166040830152600160401b900460e01b6001600160e01b0319166060820152600a8201805460809092019161131690614e7d565b80601f016020809104026020016040519081016040528092919081815260200182805461134290614e7d565b801561138f5780601f106113645761010080835404028352916020019161138f565b820191906000526020600020905b81548152906001019060200180831161137257829003601f168201915b505050919092525050508152600b919091015460ff1615156020909101529150505b92915050565b600080600061140b7f283d1424c49941ba61504663c7a1b6f59e6bbb963a00bcc130bcbf9c29e1e27154600160401b81046001600160401b0390811692600160801b8304821692600160c01b900490911690565b925092509250909192565b60008060008061142585612c6c565b6040516339aa47fb60e01b81529193509150829073__$1cd67d4dc9e627f0bec7928aa480e7d951$__906339aa47fb9061146390859060040161504e565b602060405180830381865af4158015611480573d6000803e3d6000fd5b505050506040513d601f19601f820116820180604052508101906114a491906150eb565b935093505050915091565b60606000806114c56114c086615104565b614378565b91509150816115095760408051600080825260208201909252906114ff565b6114ec61456d565b8152602001906001900390816114e45790505b50925050506113b1565b600e8101546001600160401b03851681811061155c576040805160008082526020820190925290611550565b61153d61456d565b8152602001906001900390816115355790505b509450505050506113b1565b60006115688284615126565b90506000816001600160401b0381111561158457611584614aad565b6040519080825280602002602001820160405280156115bd57816020015b6115aa61456d565b8152602001906001900390816115a25790505b50905060005b828110156119a357600e86016115d98583615139565b815481106115e9576115e9614eb1565b60009182526020918290206040805161018081018252600c90930290910180546001600160401b031661014084019081526001820180548451818802810188018652818152959693958795860194879486946101008901948794869486936101608d0193909183018282801561168857602002820191906000526020600020905b81546001600160a01b0316815260019091019060200180831161166a575b5050509190925250505081526040805180820190915260028301805460ff168252600384018054602094850194840191906116c290614e7d565b80601f01602080910402602001604051908101604052809291908181526020018280546116ee90614e7d565b801561173b5780601f106117105761010080835404028352916020019161173b565b820191906000526020600020905b81548152906001019060200180831161171e57829003601f168201915b505050919092525050509052508152604080516080810182526004840180546001600160401b03168284019081526005860180548551602082810282018101909752818152968601969495939486948693606087019390918301828280156117cc57602002820191906000526020600020905b81546001600160a01b031681526001909101906020018083116117ae575b5050509190925250505081526040805180820190915260028301805460ff1682526003840180546020948501948401919061180690614e7d565b80601f016020809104026020016040519081016040528092919081815260200182805461183290614e7d565b801561187f5780601f106118545761010080835404028352916020019161187f565b820191906000526020600020905b81548152906001019060200180831161186257829003601f168201915b5050509190925250505090525081526008820154602082015260098201546001600160401b0381166040830152600160401b900460e01b6001600160e01b0319166060820152600a820180546080909201916118da90614e7d565b80601f016020809104026020016040519081016040528092919081815260200182805461190690614e7d565b80156119535780601f1061192857610100808354040283529160200191611953565b820191906000526020600020905b81548152906001019060200180831161193657829003601f168201915b505050919092525050508152600b919091015460ff161515602090910152825183908390811061198557611985614eb1565b6020026020010181905250808061199b9061514c565b9150506115c3565b5098975050505050505050565b6119b861458d565b6001600160401b03808316600090815260026020908152604091829020825161012081018452815490941660e0850190815260018201805485518186028101860190965280865292948694929386936101008701939190830182828015611a4857602002820191906000526020600020905b81546001600160a01b03168152600190910190602001808311611a2a575b50505050508152505081526020016002820160009054906101000a90046001600160401b03166001600160401b03166001600160401b031681526020016003820154815260200160048201805480602002602001604051908101604052809291908181526020016000905b82821015611e525760008481526020908190206040805161018081018252600c860290920180546001600160401b031661014084019081526001820180548451818802810188018652818152959693958795860194879486946101008901948794869486936101608d01939091830182828015611b5957602002820191906000526020600020905b81546001600160a01b03168152600190910190602001808311611b3b575b5050509190925250505081526040805180820190915260028301805460ff16825260038401805460209485019484019190611b9390614e7d565b80601f0160208091040260200160405190810160405280929190818152602001828054611bbf90614e7d565b8015611c0c5780601f10611be157610100808354040283529160200191611c0c565b820191906000526020600020905b815481529060010190602001808311611bef57829003601f168201915b505050919092525050509052508152604080516080810182526004840180546001600160401b0316828401908152600586018054855160208281028201810190975281815296860196949593948694869360608701939091830182828015611c9d57602002820191906000526020600020905b81546001600160a01b03168152600190910190602001808311611c7f575b5050509190925250505081526040805180820190915260028301805460ff16825260038401805460209485019484019190611cd790614e7d565b80601f0160208091040260200160405190810160405280929190818152602001828054611d0390614e7d565b8015611d505780601f10611d2557610100808354040283529160200191611d50565b820191906000526020600020905b815481529060010190602001808311611d3357829003601f168201915b5050509190925250505090525081526008820154602082015260098201546001600160401b0381166040830152600160401b900460e01b6001600160e01b0319166060820152600a82018054608090920191611dab90614e7d565b80601f0160208091040260200160405190810160405280929190818152602001828054611dd790614e7d565b8015611e245780601f10611df957610100808354040283529160200191611e24565b820191906000526020600020905b815481529060010190602001808311611e0757829003601f168201915b505050919092525050508152600b919091015460ff1615156020918201529082526001929092019101611ab3565b50505050815260200160058201805480602002602001604051908101604052809291908181526020016000905b82821015611f89576000848152602090819020604080516080810182526003860290920180546001600160401b031683830190815260018201805484518188028101880190955280855294959294869492938693606087019390929091830182828015611f1557602002820191906000526020600020905b81546001600160a01b03168152600190910190602001808311611ef7575b505050505081525050815260200160028201805480602002602001604051908101604052809291908181526020018280548015611f7157602002820191906000526020600020905b815481526020019060010190808311611f5d575b50505050508152505081526020019060010190611e7f565b50505050815260200160068201548152602001600782018054611fab90614e7d565b80601f0160208091040260200160405190810160405280929190818152602001828054611fd790614e7d565b80156120245780601f10611ff957610100808354040283529160200191612024565b820191906000526020600020905b81548152906001019060200180831161200757829003601f168201915b5050505050815250509050919050565b905090565b60006120347f283d1424c49941ba61504663c7a1b6f59e6bbb963a00bcc130bcbf9c29e1e2735460ff1690565b6007546060906000816001600160401b0381111561208657612086614aad565b6040519080825280602002602001820160405280156120bf57816020015b6120ac61450b565b8152602001906001900390816120a45790505b50905060005b82811015612c655760008060070182815481106120e4576120e4614eb1565b60009182526020808320909101548083528282526040928390208351610120810185528154815260018201549381019390935260028101549383019390935260038301546001600160401b038082166060850152600160401b820416608084015290935090919060a083019060ff600160801b90910416600581111561216c5761216c61468b565b600581111561217d5761217d61468b565b81526040805180820182526004840180546001600160401b031682526005850180548451602082810282018101909652818152958501959394929385840193909291908301828280156121f957602002820191906000526020600020905b81546001600160a01b031681526001909101906020018083116121db575b50505091909252505050815260408051610120810182526006840180546001600160401b031660e083019081526007860180548551602082810282018101909752818152968601969495939486948693610100870193909183018282801561228a57602002820191906000526020600020905b81546001600160a01b0316815260019091019060200180831161226c575b50505050508152505081526020016002820160009054906101000a90046001600160401b03166001600160401b03166001600160401b031681526020016003820154815260200160048201805480602002602001604051908101604052809291908181526020016000905b828210156126945760008481526020908190206040805161018081018252600c860290920180546001600160401b031661014084019081526001820180548451818802810188018652818152959693958795860194879486946101008901948794869486936101608d0193909183018282801561239b57602002820191906000526020600020905b81546001600160a01b0316815260019091019060200180831161237d575b5050509190925250505081526040805180820190915260028301805460ff168252600384018054602094850194840191906123d590614e7d565b80601f016020809104026020016040519081016040528092919081815260200182805461240190614e7d565b801561244e5780601f106124235761010080835404028352916020019161244e565b820191906000526020600020905b81548152906001019060200180831161243157829003601f168201915b505050919092525050509052508152604080516080810182526004840180546001600160401b03168284019081526005860180548551602082810282018101909752818152968601969495939486948693606087019390918301828280156124df57602002820191906000526020600020905b81546001600160a01b031681526001909101906020018083116124c1575b5050509190925250505081526040805180820190915260028301805460ff1682526003840180546020948501948401919061251990614e7d565b80601f016020809104026020016040519081016040528092919081815260200182805461254590614e7d565b80156125925780601f1061256757610100808354040283529160200191612592565b820191906000526020600020905b81548152906001019060200180831161257557829003601f168201915b5050509190925250505090525081526008820154602082015260098201546001600160401b0381166040830152600160401b900460e01b6001600160e01b0319166060820152600a820180546080909201916125ed90614e7d565b80601f016020809104026020016040519081016040528092919081815260200182805461261990614e7d565b80156126665780601f1061263b57610100808354040283529160200191612666565b820191906000526020600020905b81548152906001019060200180831161264957829003601f168201915b505050919092525050508152600b919091015460ff16151560209182015290825260019290920191016122f5565b50505050815260200160058201805480602002602001604051908101604052809291908181526020016000905b828210156127cb576000848152602090819020604080516080810182526003860290920180546001600160401b03168383019081526001820180548451818802810188019095528085529495929486949293869360608701939092909183018282801561275757602002820191906000526020600020905b81546001600160a01b03168152600190910190602001808311612739575b5050505050815250508152602001600282018054806020026020016040519081016040528092919081815260200182805480156127b357602002820191906000526020600020905b81548152602001906001019080831161279f575b505050505081525050815260200190600101906126c1565b505050508152602001600682015481526020016007820180546127ed90614e7d565b80601f016020809104026020016040519081016040528092919081815260200182805461281990614e7d565b80156128665780601f1061283b57610100808354040283529160200191612866565b820191906000526020600020905b81548152906001019060200180831161284957829003601f168201915b5050505050815250508152602001600e8201805480602002602001604051908101604052809291908181526020016000905b82821015612c375760008481526020908190206040805161018081018252600c860290920180546001600160401b031661014084019081526001820180548451818802810188018652818152959693958795860194879486946101008901948794869486936101608d0193909183018282801561293e57602002820191906000526020600020905b81546001600160a01b03168152600190910190602001808311612920575b5050509190925250505081526040805180820190915260028301805460ff1682526003840180546020948501948401919061297890614e7d565b80601f01602080910402602001604051908101604052809291908181526020018280546129a490614e7d565b80156129f15780601f106129c6576101008083540402835291602001916129f1565b820191906000526020600020905b8154815290600101906020018083116129d457829003601f168201915b505050919092525050509052508152604080516080810182526004840180546001600160401b0316828401908152600586018054855160208281028201810190975281815296860196949593948694869360608701939091830182828015612a8257602002820191906000526020600020905b81546001600160a01b03168152600190910190602001808311612a64575b5050509190925250505081526040805180820190915260028301805460ff16825260038401805460209485019484019190612abc90614e7d565b80601f0160208091040260200160405190810160405280929190818152602001828054612ae890614e7d565b8015612b355780601f10612b0a57610100808354040283529160200191612b35565b820191906000526020600020905b815481529060010190602001808311612b1857829003601f168201915b5050509190925250505090525081526008820154602082015260098201546001600160401b0381166040830152600160401b900460e01b6001600160e01b0319166060820152600a82018054608090920191612b9090614e7d565b80601f0160208091040260200160405190810160405280929190818152602001828054612bbc90614e7d565b8015612c095780601f10612bde57610100808354040283529160200191612c09565b820191906000526020600020905b815481529060010190602001808311612bec57829003601f168201915b505050919092525050508152600b919091015460ff1615156020918201529082526001929092019101612898565b5050505081525050838381518110612c5157612c51614eb1565b6020908102919091010152506001016120c5565b5092915050565b6000612c7661458d565b6001600160401b03808416600090815260026020908152604091829020825161012081018452815490941660e0850190815260018201805485518186028101860190965280865292948694929386936101008701939190830182828015612d0657602002820191906000526020600020905b81546001600160a01b03168152600190910190602001808311612ce8575b50505050508152505081526020016002820160009054906101000a90046001600160401b03166001600160401b03166001600160401b031681526020016003820154815260200160048201805480602002602001604051908101604052809291908181526020016000905b828210156131105760008481526020908190206040805161018081018252600c860290920180546001600160401b031661014084019081526001820180548451818802810188018652818152959693958795860194879486946101008901948794869486936101608d01939091830182828015612e1757602002820191906000526020600020905b81546001600160a01b03168152600190910190602001808311612df9575b5050509190925250505081526040805180820190915260028301805460ff16825260038401805460209485019484019190612e5190614e7d565b80601f0160208091040260200160405190810160405280929190818152602001828054612e7d90614e7d565b8015612eca5780601f10612e9f57610100808354040283529160200191612eca565b820191906000526020600020905b815481529060010190602001808311612ead57829003601f168201915b505050919092525050509052508152604080516080810182526004840180546001600160401b0316828401908152600586018054855160208281028201810190975281815296860196949593948694869360608701939091830182828015612f5b57602002820191906000526020600020905b81546001600160a01b03168152600190910190602001808311612f3d575b5050509190925250505081526040805180820190915260028301805460ff16825260038401805460209485019484019190612f9590614e7d565b80601f0160208091040260200160405190810160405280929190818152602001828054612fc190614e7d565b801561300e5780601f10612fe35761010080835404028352916020019161300e565b820191906000526020600020905b815481529060010190602001808311612ff157829003601f168201915b5050509190925250505090525081526008820154602082015260098201546001600160401b0381166040830152600160401b900460e01b6001600160e01b0319166060820152600a8201805460809092019161306990614e7d565b80601f016020809104026020016040519081016040528092919081815260200182805461309590614e7d565b80156130e25780601f106130b7576101008083540402835291602001916130e2565b820191906000526020600020905b8154815290600101906020018083116130c557829003601f168201915b505050919092525050508152600b919091015460ff1615156020918201529082526001929092019101612d71565b50505050815260200160058201805480602002602001604051908101604052809291908181526020016000905b82821015613247576000848152602090819020604080516080810182526003860290920180546001600160401b0316838301908152600182018054845181880281018801909552808552949592948694929386936060870193909290918301828280156131d357602002820191906000526020600020905b81546001600160a01b031681526001909101906020018083116131b5575b50505050508152505081526020016002820180548060200260200160405190810160405280929190818152602001828054801561322f57602002820191906000526020600020905b81548152602001906001019080831161321b575b5050505050815250508152602001906001019061313d565b5050505081526020016006820154815260200160078201805461326990614e7d565b80601f016020809104026020016040519081016040528092919081815260200182805461329590614e7d565b80156132e25780601f106132b7576101008083540402835291602001916132e2565b820191906000526020600020905b8154815290600101906020018083116132c557829003601f168201915b5050509190925250508151604051630c133d1360e31b815292935073__$a0fe38a9a81205afccc10810b09a4d3f45$__92636099e89892506133279190600401614de7565b602060405180830381865af4158015613344573d6000803e3d6000fd5b505050506040513d601f19601f820116820180604052508101906133689190615165565b159150915091565b6133786145d8565b6000828152600160208181526040808420600b81015482516101408101845282546001600160401b031661010082019081529583018054855181880281018801909652808652939660ff9093169591948794869460c086019487948694929386936101208a01939092919083018282801561341c57602002820191906000526020600020905b81546001600160a01b031681526001909101906020018083116133fe575b5050509190925250505081526040805180820190915260028301805460ff1682526003840180546020948501948401919061345690614e7d565b80601f016020809104026020016040519081016040528092919081815260200182805461348290614e7d565b80156134cf5780601f106134a4576101008083540402835291602001916134cf565b820191906000526020600020905b8154815290600101906020018083116134b257829003601f168201915b505050919092525050509052508152604080516080810182526004840180546001600160401b031682840190815260058601805485516020828102820181019097528181529686019694959394869486936060870193909183018282801561356057602002820191906000526020600020905b81546001600160a01b03168152600190910190602001808311613542575b5050509190925250505081526040805180820190915260028301805460ff1682526003840180546020948501948401919061359a90614e7d565b80601f01602080910402602001604051908101604052809291908181526020018280546135c690614e7d565b80156136135780601f106135e857610100808354040283529160200191613613565b820191906000526020600020905b8154815290600101906020018083116135f657829003601f168201915b5050509190925250505090525081526008820154602082015260098201546001600160401b0381166040830152600160401b900460e01b6001600160e01b0319166060820152600a8201805460809092019161366e90614e7d565b80601f016020809104026020016040519081016040528092919081815260200182805461369a90614e7d565b80156136e75780601f106136bc576101008083540402835291602001916136e7565b820191906000526020600020905b8154815290600101906020018083116136ca57829003601f168201915b505050505081525050915091509150915091565b604080518082019091526000815260606020820152604080518082018252600880546001600160401b0316825260098054845160208281028201810190965281815293949293838601939092919083018282801561378257602002820191906000526020600020905b81546001600160a01b03168152600190910190602001808311613764575b505050505081525050905090565b60008061379c83614378565b600e0154949350505050565b60008080806137b96114c086615104565b91509150816137cf575060009485945092505050565b600301546001956001600160401b03909116945092505050565b60006120347f283d1424c49941ba61504663c7a1b6f59e6bbb963a00bcc130bcbf9c29e1e270546001600160401b031690565b600061382661450b565b6138326114c084615104565b6040805161012081018252825481526001830154602082015260028301549181019190915260038201546001600160401b038082166060840152600160401b8204166080830152829060a0830190600160801b900460ff16600581111561389b5761389b61468b565b60058111156138ac576138ac61468b565b81526040805180820182526004840180546001600160401b0316825260058501805484516020828102820181019096528181529585019593949293858401939092919083018282801561392857602002820191906000526020600020905b81546001600160a01b0316815260019091019060200180831161390a575b50505091909252505050815260408051610120810182526006840180546001600160401b031660e08301908152600786018054855160208281028201810190975281815296860196949593948694869361010087019390918301828280156139b957602002820191906000526020600020905b81546001600160a01b0316815260019091019060200180831161399b575b50505050508152505081526020016002820160009054906101000a90046001600160401b03166001600160401b03166001600160401b031681526020016003820154815260200160048201805480602002602001604051908101604052809291908181526020016000905b82821015613dc35760008481526020908190206040805161018081018252600c860290920180546001600160401b031661014084019081526001820180548451818802810188018652818152959693958795860194879486946101008901948794869486936101608d01939091830182828015613aca57602002820191906000526020600020905b81546001600160a01b03168152600190910190602001808311613aac575b5050509190925250505081526040805180820190915260028301805460ff16825260038401805460209485019484019190613b0490614e7d565b80601f0160208091040260200160405190810160405280929190818152602001828054613b3090614e7d565b8015613b7d5780601f10613b5257610100808354040283529160200191613b7d565b820191906000526020600020905b815481529060010190602001808311613b6057829003601f168201915b505050919092525050509052508152604080516080810182526004840180546001600160401b0316828401908152600586018054855160208281028201810190975281815296860196949593948694869360608701939091830182828015613c0e57602002820191906000526020600020905b81546001600160a01b03168152600190910190602001808311613bf0575b5050509190925250505081526040805180820190915260028301805460ff16825260038401805460209485019484019190613c4890614e7d565b80601f0160208091040260200160405190810160405280929190818152602001828054613c7490614e7d565b8015613cc15780601f10613c9657610100808354040283529160200191613cc1565b820191906000526020600020905b815481529060010190602001808311613ca457829003601f168201915b5050509190925250505090525081526008820154602082015260098201546001600160401b0381166040830152600160401b900460e01b6001600160e01b0319166060820152600a82018054608090920191613d1c90614e7d565b80601f0160208091040260200160405190810160405280929190818152602001828054613d4890614e7d565b8015613d955780601f10613d6a57610100808354040283529160200191613d95565b820191906000526020600020905b815481529060010190602001808311613d7857829003601f168201915b505050919092525050508152600b919091015460ff1615156020918201529082526001929092019101613a24565b50505050815260200160058201805480602002602001604051908101604052809291908181526020016000905b82821015613efa576000848152602090819020604080516080810182526003860290920180546001600160401b031683830190815260018201805484518188028101880190955280855294959294869492938693606087019390929091830182828015613e8657602002820191906000526020600020905b81546001600160a01b03168152600190910190602001808311613e68575b505050505081525050815260200160028201805480602002602001604051908101604052809291908181526020018280548015613ee257602002820191906000526020600020905b815481526020019060010190808311613ece575b50505050508152505081526020019060010190613df0565b50505050815260200160068201548152602001600782018054613f1c90614e7d565b80601f0160208091040260200160405190810160405280929190818152602001828054613f4890614e7d565b8015613f955780601f10613f6a57610100808354040283529160200191613f95565b820191906000526020600020905b815481529060010190602001808311613f7857829003601f168201915b5050505050815250508152602001600e8201805480602002602001604051908101604052809291908181526020016000905b828210156143665760008481526020908190206040805161018081018252600c860290920180546001600160401b031661014084019081526001820180548451818802810188018652818152959693958795860194879486946101008901948794869486936101608d0193909183018282801561406d57602002820191906000526020600020905b81546001600160a01b0316815260019091019060200180831161404f575b5050509190925250505081526040805180820190915260028301805460ff168252600384018054602094850194840191906140a790614e7d565b80601f01602080910402602001604051908101604052809291908181526020018280546140d390614e7d565b80156141205780601f106140f557610100808354040283529160200191614120565b820191906000526020600020905b81548152906001019060200180831161410357829003601f168201915b505050919092525050509052508152604080516080810182526004840180546001600160401b03168284019081526005860180548551602082810282018101909752818152968601969495939486948693606087019390918301828280156141b157602002820191906000526020600020905b81546001600160a01b03168152600190910190602001808311614193575b5050509190925250505081526040805180820190915260028301805460ff168252600384018054602094850194840191906141eb90614e7d565b80601f016020809104026020016040519081016040528092919081815260200182805461421790614e7d565b80156142645780601f1061423957610100808354040283529160200191614264565b820191906000526020600020905b81548152906001019060200180831161424757829003601f168201915b5050509190925250505090525081526008820154602082015260098201546001600160401b0381166040830152600160401b900460e01b6001600160e01b0319166060820152600a820180546080909201916142bf90614e7d565b80601f01602080910402602001604051908101604052809291908181526020018280546142eb90614e7d565b80156143385780601f1061430d57610100808354040283529160200191614338565b820191906000526020600020905b81548152906001019060200180831161431b57829003601f168201915b505050919092525050508152600b919091015460ff1615156020918201529082526001929092019101613fc7565b50505091525092969095509350505050565b6040516390ba52cf60e01b8152600090819081908190819073__$a0fe38a9a81205afccc10810b09a4d3f45$__906390ba52cf906143ba908990600401614de7565b602060405180830381865af41580156143d7573d6000803e3d6000fd5b505050506040513d601f19601f820116820180604052508101906143fb91906150eb565b81526020808201929092526040908101600020815180830183526004820180546001600160401b03168252600583018054855181880281018801909652808652939750919490938582019390929183018282801561448257602002820191906000526020600020905b81546001600160a01b03168152600190910190602001808311614464575b505050919092525050604051630c133d1360e31b815273__$a0fe38a9a81205afccc10810b09a4d3f45$__92636099e89892506144c191600401614de7565b602060405180830381865af41580156144de573d6000803e3d6000fd5b505050506040513d601f19601f820116820180604052508101906145029190615165565b15925050915091565b60408051610120810182526000808252602080830182905282840182905260608084018390526080840183905260a0840183905284518086019095529184528301529060c0820190815260200161456061458d565b8152602001606081525090565b60405180604001604052806145806145d8565b8152600060209091015290565b6040805161012081018252600060e0820181815260606101008401819052908352602083018290529282018190528282018390526080820183905260a082015260c081019190915290565b6040518060c001604052806145eb61462d565b81526020016145f861462d565b81526020016000815260200160006001600160401b0316815260200160006001600160e01b0319168152602001606081525090565b604080516080810182526000918101918252606080820152908190815260200161466d6040518060400160405280600060ff168152602001606081525090565b905290565b60006020828403121561468457600080fd5b5035919050565b634e487b7160e01b600052602160045260246000fd5b600681106146bf57634e487b7160e01b600052602160045260246000fd5b9052565b6000604083016001600160401b0383511684526020808401516040828701528281518085526060880191508383019450600092505b808310156147215784516001600160a01b031682529383019360019290920191908301906146f8565b509695505050505050565b6000815180845260005b8181101561475257602081850181015186830182015201614736565b506000602082860101526020601f19601f83011685010191505092915050565b600081516040845261478760408501826146c3565b90506020830151848203602086015260ff815116825260208101519050604060208301526147b8604083018261472c565b95945050505050565b6000815160c084526147d660c0850182614772565b9050602083015184820360208601526147ef8282614772565b915050604083015160408501526001600160401b03606084015116606085015263ffffffff60e01b608084015116608085015260a083015184820360a08601526147b8828261472c565b600081516040845261484e60408501826147c1565b6020938401511515949093019390935250919050565b600081518084526020808501808196508360051b8101915082860160005b858110156148ac57828403895261489a848351614839565b98850198935090840190600101614882565b5091979650505050505050565b6000815160e084526148ce60e08501826146c3565b905060206001600160401b0381850151168186015260408085015181870152606085015186840360608801526149048482614864565b935050608085015186840360808801528381518086528486019150848160051b87010185840193506000805b838110156149a457888303601f1901855285518051888552614954898601826146c3565b918a0151858303868c01528051808452908b01928592508b01905b8083101561498f5783518252928b019260019290920191908b019061496f565b50978a0197968a019694505050600101614930565b505060a089015160a08b015260c0890151965089810360c08b01526149c9818861472c565b9a9950505050505050505050565b60006101208251845260208301516020850152604083015160408501526060830151614a0e60608601826001600160401b03169052565b506080830151614a2960808601826001600160401b03169052565b5060a0830151614a3c60a08601826146a1565b5060c08301518160c0860152614a54828601826146c3565b91505060e083015184820360e0860152614a6e82826148b9565b9150506101008084015185830382870152614a898382614864565b9695505050505050565b602081526000614aa660208301846149d7565b9392505050565b634e487b7160e01b600052604160045260246000fd5b604080519081016001600160401b0381118282101715614ae557614ae5614aad565b60405290565b604051601f8201601f191681016001600160401b0381118282101715614b1357614b13614aad565b604052919050565b80356001600160401b0381168114614b3257600080fd5b919050565b80356001600160a01b0381168114614b3257600080fd5b600060408284031215614b6057600080fd5b614b68614ac3565b9050614b7382614b1b565b81526020808301356001600160401b0380821115614b9057600080fd5b818501915085601f830112614ba457600080fd5b813581811115614bb657614bb6614aad565b8060051b9150614bc7848301614aeb565b8181529183018401918481019088841115614be157600080fd5b938501935b83851015614c0657614bf785614b37565b82529385019390850190614be6565b808688015250505050505092915050565b60008060408385031215614c2a57600080fd5b82356001600160401b03811115614c4057600080fd5b614c4c85828601614b4e565b95602094909401359450505050565b602081526000614aa66020830184614839565b600060208284031215614c8057600080fd5b614aa682614b1b565b600060408284031215614c9b57600080fd5b50919050565b60008060408385031215614cb457600080fd5b82356001600160401b03811115614cca57600080fd5b614cd685828601614c89565b925050614ce560208401614b1b565b90509250929050565b602081526000614aa66020830184614864565b602081526000614aa660208301846148b9565b6000602080830181845280855180835260408601915060408160051b870101925083870160005b82811015614d6957603f19888603018452614d578583516149d7565b94509285019290850190600101614d3b565b5092979650505050505050565b60008060408385031215614d8957600080fd5b614d9283614b1b565b9150614ce560208401614b37565b8215158152604060208201526000614dbb60408301846148b9565b949350505050565b604081526000614dd660408301856147c1565b905082151560208301529392505050565b602081526000614aa660208301846146c3565b600060208284031215614e0c57600080fd5b81356001600160401b03811115614e2257600080fd5b614dbb84828501614b4e565b600060208284031215614e4057600080fd5b81356001600160401b03811115614e5657600080fd5b614dbb84828501614c89565b8215158152604060208201526000614dbb60408301846149d7565b600181811c90821680614e9157607f821691505b602082108103614c9b57634e487b7160e01b600052602260045260246000fd5b634e487b7160e01b600052603260045260246000fd5b600081518084526020808501808196508360051b8101915082860160005b858110156148ac578284038952815160408151818752805160c080848a0152614f126101008a0183614772565b915089830151603f196060818c860301818d0152614f308584614772565b9686015160808d810191909152908601516001600160401b031660a0808e0191909152908601516001600160e01b031916938c0193909352918401518a860390920160e08b015250929050614f85818461472c565b93890151801515898b0152939250614f9b915050565b9986019994505090840190600101614ee5565b600081518084526020808501808196508360051b810191508286016000805b86811015615040578385038a52825160408151818852614fef828901826146c3565b92890151888403898b01528051808552908a01938693508a0191505b8083101561502b578351825292890192600192909201919089019061500b565b509b88019b9650505091850191600101614fcd565b509298975050505050505050565b602081526000825160e0602084015261506b6101008401826146c3565b90506001600160401b036020850151166040840152604084015160608401526060840151601f19808584030160808601526150a68383614ec7565b925060808601519150808584030160a08601526150c38383614fae565b925060a086015160c086015260c08601519150808584030160e0860152506147b8828261472c565b6000602082840312156150fd57600080fd5b5051919050565b60006113b13683614b4e565b634e487b7160e01b600052601160045260246000fd5b818103818111156113b1576113b1615110565b808201808211156113b1576113b1615110565b60006001820161515e5761515e615110565b5060010190565b60006020828403121561517757600080fd5b81518015158114614aa657600080fdfea26469706673582212207a625a0e3cc65a789d7becd58d6bf122a0f739a4d9a2b5642bb6ba600fb61d5664736f6c63430008130033",
    "linkReferences": {
      "src/lib/CheckpointHelper.sol": {
        "CheckpointHelper": [
          {
            "start": 5211,
            "length": 20
          }
        ]
      },
      "src/lib/SubnetIDHelper.sol": {
        "SubnetIDHelper": [
          {
            "start": 13087,
            "length": 20
          },
          {
            "start": 17330,
            "length": 20
          },
          {
            "start": 17594,
            "length": 20
          }
        ]
      }
    }
  },
  "methodIdentifiers": {
    "appliedTopDownNonce()": "8789f83b",
    "bottomUpCheckPeriod()": "06c46853",
    "bottomUpCheckpointAtEpoch(uint64)": "6cb2ecee",
    "bottomUpCheckpointHashAtEpoch(uint64)": "133f74ea",
    "bottomUpCheckpoints(uint64)": "2cc14ea2",
    "bottomUpNonce()": "41b6a2e8",
    "crossMsgFee()": "24729425",
    "executableQueue()": "10d500e1",
    "getAppliedTopDownNonce((uint64,address[]))": "9e530b57",
    "getGenesisEpoch()": "51392fc0",
    "getNetworkName()": "94074b03",
    "getSubnet((uint64,address[]))": "c66c66a1",
    "getSubnetTopDownMsg((uint64,address[]),uint256)": "0ea746f2",
    "getSubnetTopDownMsgsLength((uint64,address[]))": "9d3070b5",
    "getTopDownMsgs((uint64,address[]),uint64)": "13549315",
    "hasValidatorVotedForSubmission(uint64,address)": "66d7bbbc",
    "initialized()": "158ef93e",
    "lastVotingExecutedEpoch()": "ad81e244",
    "listSubnets()": "5d029685",
    "majorityPercentage()": "599c7bd1",
    "minStake()": "375b3c0a",
    "postbox(bytes32)": "8cfd78e7",
    "subnets(bytes32)": "02e30f9a",
    "topDownCheckPeriod()": "7d9740f4",
    "totalSubnets()": "a2b67158",
    "totalWeight()": "96c82e57"
  },
  "id": 34
}