{
  "abi": [
    {
      "inputs": [
        {
          "internalType": "address",
          "name": "target",
          "type": "address"
        }
      ],
      "name": "AddressEmptyCode",
      "type": "error"
    },
    {
      "inputs": [
        {
          "internalType": "address",
          "name": "account",
          "type": "address"
        }
      ],
      "name": "AddressInsufficientBalance",
      "type": "error"
    },
    {
      "inputs": [],
      "name": "AlreadyInitialized",
      "type": "error"
    },
    {
      "inputs": [],
      "name": "AlreadyRegisteredSubnet",
      "type": "error"
    },
    {
      "inputs": [],
      "name": "CallFailed",
      "type": "error"
    },
    {
      "inputs": [],
      "name": "CannotReleaseZero",
      "type": "error"
    },
    {
      "inputs": [],
      "name": "FailedInnerCall",
      "type": "error"
    },
    {
      "inputs": [],
      "name": "InsufficientFunds",
      "type": "error"
    },
    {
      "inputs": [],
      "name": "InvalidActorAddress",
      "type": "error"
    },
    {
      "inputs": [],
      "name": "NotEmptySubnetCircSupply",
      "type": "error"
    },
    {
      "inputs": [],
      "name": "NotEnoughFee",
      "type": "error"
    },
    {
      "inputs": [],
      "name": "NotEnoughFunds",
      "type": "error"
    },
    {
      "inputs": [],
      "name": "NotEnoughFundsToRelease",
      "type": "error"
    },
    {
      "inputs": [],
      "name": "NotRegisteredSubnet",
      "type": "error"
    },
    {
      "inputs": [],
      "name": "NotSignableAccount",
      "type": "error"
    },
    {
      "inputs": [],
      "name": "NotSystemActor",
      "type": "error"
    },
    {
      "inputs": [],
      "name": "ReentrancyError",
      "type": "error"
    },
    {
      "inputs": [],
      "name": "ValidatorWeightIsZero",
      "type": "error"
    },
    {
      "inputs": [],
      "name": "ValidatorsAndWeightsLengthMismatch",
      "type": "error"
    },
    {
      "inputs": [],
      "name": "addStake",
      "outputs": [],
      "stateMutability": "payable",
      "type": "function"
    },
    {
      "inputs": [
        {
          "components": [
            {
              "internalType": "uint64",
              "name": "root",
              "type": "uint64"
            },
            {
              "internalType": "address[]",
              "name": "route",
              "type": "address[]"
            }
          ],
          "internalType": "struct SubnetID",
          "name": "subnetId",
          "type": "tuple"
        },
        {
          "components": [
            {
              "internalType": "uint8",
              "name": "addrType",
              "type": "uint8"
            },
            {
              "internalType": "bytes",
              "name": "payload",
              "type": "bytes"
            }
          ],
          "internalType": "struct FvmAddress",
          "name": "to",
          "type": "tuple"
        }
      ],
      "name": "fund",
      "outputs": [],
      "stateMutability": "payable",
      "type": "function"
    },
    {
      "inputs": [
        {
          "internalType": "uint64",
          "name": "genesisEpoch",
          "type": "uint64"
        }
      ],
      "name": "initGenesisEpoch",
      "outputs": [],
      "stateMutability": "nonpayable",
      "type": "function"
    },
    {
      "inputs": [],
      "name": "kill",
      "outputs": [],
      "stateMutability": "nonpayable",
      "type": "function"
    },
    {
      "inputs": [],
      "name": "register",
      "outputs": [],
      "stateMutability": "payable",
      "type": "function"
    },
    {
      "inputs": [
        {
          "components": [
            {
              "internalType": "uint8",
              "name": "addrType",
              "type": "uint8"
            },
            {
              "internalType": "bytes",
              "name": "payload",
              "type": "bytes"
            }
          ],
          "internalType": "struct FvmAddress",
          "name": "to",
          "type": "tuple"
        }
      ],
      "name": "release",
      "outputs": [],
      "stateMutability": "payable",
      "type": "function"
    },
    {
      "inputs": [
        {
          "internalType": "uint256",
          "name": "amount",
          "type": "uint256"
        }
      ],
      "name": "releaseRewards",
      "outputs": [],
      "stateMutability": "nonpayable",
      "type": "function"
    },
    {
      "inputs": [
        {
          "internalType": "uint256",
          "name": "amount",
          "type": "uint256"
        }
      ],
      "name": "releaseStake",
      "outputs": [],
      "stateMutability": "nonpayable",
      "type": "function"
    },
    {
      "inputs": [
        {
          "internalType": "address[]",
          "name": "validators",
          "type": "address[]"
        },
        {
          "internalType": "uint256[]",
          "name": "weights",
          "type": "uint256[]"
        }
      ],
      "name": "setMembership",
      "outputs": [],
      "stateMutability": "nonpayable",
      "type": "function"
    }
  ],
  "bytecode": {
    "object": "0x608060405234801561001057600080fd5b506129da806100206000396000f3fe6080604052600436106100865760003560e01c806345f544851161005957806345f54485146100dd5780635a627dbc146100fd5780636b2c1eef14610105578063f75bc55714610118578063f8703bb81461013857600080fd5b806313f353881461008b57806318f44b70146100ad5780631aa3a008146100c057806341c0e1b5146100c8575b600080fd5b34801561009757600080fd5b506100ab6100a6366004611d2e565b610158565b005b6100ab6100bb366004611d6a565b610227565b6100ab610366565b3480156100d457600080fd5b506100ab6105ec565b3480156100e957600080fd5b506100ab6100f8366004611dcd565b610871565b6100ab610a75565b6100ab610113366004611de6565b610b29565b34801561012457600080fd5b506100ab610133366004611f56565b610bdc565b34801561014457600080fd5b506100ab610153366004611dcd565b610ce8565b610160610d80565b600f54600160401b900460ff161561018a5760405162dc149f60e41b815260040160405180910390fd5b7f283d1424c49941ba61504663c7a1b6f59e6bbb963a00bcc130bcbf9c29e1e27080546fffffffffffffffff00000000000000001916600160401b6001600160401b038416908102919091179091557f283d1424c49941ba61504663c7a1b6f59e6bbb963a00bcc130bcbf9c29e1e271805467ffffffffffffffff1916909117905550600f805468ff00000000000000001916600160401b179055565b61022f610e12565b610237610ea2565b600073__$33b79814e84bf6cf5e47244090b19ce5f8$__6399aa0eb48433856000600c0154346102679190612026565b6040518563ffffffff1660e01b815260040161028694939291906120d1565b600060405180830381865af41580156102a3573d6000803e3d6000fd5b505050506040513d6000823e601f3d908101601f191682016040526102cb91908101906123dc565b90506102d681610ec5565b6103616102e2846124f9565b604051632cff562160e11b815273__$a0fe38a9a81205afccc10810b09a4d3f45$__916359feac429161031891906004016125af565b602060405180830381865af4158015610335573d6000803e3d6000fd5b505050506040513d601f19601f8201168201806040525081019061035991906125c2565b600c54611199565b505050565b600a5434101561038957604051631036b5ad60e31b815260040160405180910390fd5b604080518082018252600880546001600160401b03168252600980548451602082810282018101909652818152600095808601939192908301828280156103f957602002820191906000526020600020905b81546001600160a01b031681526001909101906020018083116103db575b50505091909252505060405163aa5106cb60e01b815273__$a0fe38a9a81205afccc10810b09a4d3f45$__9263aa5106cb925061043a9133906004016125df565b600060405180830381865af4158015610457573d6000803e3d6000fd5b505050506040513d6000823e601f3d908101601f1916820160405261047f9190810190612609565b905060008061048d836111f7565b9150915081156104b057604051631b538cdf60e11b815260040160405180910390fd5b825160048201805467ffffffffffffffff19166001600160401b0390921691909117815560208085015180518693926104f0926005870192910190611af2565b50503482555060038101805460ff60801b1916600160801b1790554360018201556040516390ba52cf60e01b815260079073__$a0fe38a9a81205afccc10810b09a4d3f45$__906390ba52cf9061054b9087906004016125af565b602060405180830381865af4158015610568573d6000803e3d6000fd5b505050506040513d601f19601f8201168201806040525081019061058c9190612653565b815460018082018455600093845260209093200155600e80546018906105c3908490600160c01b90046001600160401b031661266c565b92506101000a8154816001600160401b0302191690836001600160401b03160217905550505050565b6000806105f83361138a565b915091508161061a57604051630e991abd60e41b815260040160405180910390fd5b60028101541561063d57604051637c67c70160e11b815260040160405180910390fd5b8054600e805460019190601890610665908490600160c01b90046001600160401b0316612693565b82546101009290920a6001600160401b03818102199093169183160217909155604080518082018252600486018054909316815260058601805483516020808302820181019095528181526000965086959394808601939192908301828280156106f857602002820191906000526020600020905b81546001600160a01b031681526001909101906020018083116106da575b5050509190925250506040516390ba52cf60e01b815273__$a0fe38a9a81205afccc10810b09a4d3f45$__926390ba52cf9250610737916004016125af565b602060405180830381865af4158015610754573d6000803e3d6000fd5b505050506040513d601f19601f820116820180604052508101906107789190612653565b815260208101919091526040016000908120818155600181018290556002810182905560038101805470ffffffffffffffffffffffffffffffffff1916905560048101805467ffffffffffffffff19168155909190816107db6005850182611b57565b505060068201805467ffffffffffffffff19168155600081816108016007870182611b57565b505060028201805467ffffffffffffffff1916905560006003830181905561082d906004840190611b78565b61083b600583016000611b99565b60068201600090556007820160006108539190611bba565b506108649050600e83016000611b78565b50610361905033826114c5565b7f691bb03ffc16c56fc96b82fd16cd1b3715f0bc3cdc6407005f49bb62058600958054600019016108b5576040516329f745a760e01b815260040160405180910390fd5b6001815560008290036108db5760405163c79cad7b60e01b815260040160405180910390fd5b6000806108e73361138a565b915091508161090957604051630e991abd60e41b815260040160405180910390fd5b805484111561092b576040516379b33e7960e01b815260040160405180910390fd5b8381600001600082825461093f9190612026565b9091555050600a54815410156109655760038101805460ff60801b1916600160811b1790555b6040805180820182526004830180546001600160401b031682526005840180548451602082810282018101909652818152610a6c958a9594938186019390918301828280156109dd57602002820191906000526020600020905b81546001600160a01b031681526001909101906020018083116109bf575b505050919092525050604051632cff562160e11b815273__$a0fe38a9a81205afccc10810b09a4d3f45$__926359feac429250610a1c916004016125af565b602060405180830381865af4158015610a39573d6000803e3d6000fd5b505050506040513d601f19601f82011682018060405250810190610a5d91906125c2565b6001600160a01b0316906114c5565b50506000905550565b60003411610a9657604051631036b5ad60e31b815260040160405180910390fd5b600080610aa23361138a565b9150915081610ac457604051630e991abd60e41b815260040160405180910390fd5b34816000016000828254610ad891906126b3565b90915550600290506003820154600160801b900460ff166005811115610b0057610b0061263d565b03610b2557600a54815410610b255760038101805460ff60801b1916600160801b1790555b5050565b610b31610e12565b610b39610ea2565b600073__$33b79814e84bf6cf5e47244090b19ce5f8$__631860845e600060080133856000600c015434610b6d9190612026565b6040518563ffffffff1660e01b8152600401610b8c9493929190612733565b600060405180830381865af4158015610ba9573d6000803e3d6000fd5b505050506040513d6000823e601f3d908101601f19168201604052610bd191908101906123dc565b9050610b258161155a565b610be4610d80565b8051825114610c065760405163465f0a7d60e01b815260040160405180910390fd5b600b8054600090610c1690612779565b909155508151600090815b81811015610cdf576000858281518110610c3d57610c3d612792565b6020026020010151905060006001600160a01b0316816001600160a01b031614610cd6576000858381518110610c7557610c75612792565b6020026020010151905080600003610ca05760405163389b457d60e01b815260040160405180910390fd5b600b5460009081526003602090815260408083206001600160a01b03861684529091529020819055610cd281866126b3565b9450505b50600101610c21565b5050600d555050565b7f691bb03ffc16c56fc96b82fd16cd1b3715f0bc3cdc6407005f49bb6205860095805460001901610d2c576040516329f745a760e01b815260040160405180910390fd5b600181556000829003610d525760405163c79cad7b60e01b815260040160405180910390fd5b600080610d5e3361138a565b915091508161096557604051630e991abd60e41b815260040160405180910390fd5b604051635d3f8a6960e01b815233600482015273__$e800e3908cdbb6b1b5bd452383a17b18f7$__90635d3f8a6990602401602060405180830381865af4158015610dcf573d6000803e3d6000fd5b505050506040513d601f19601f82011682018060405250810190610df391906127a8565b610e105760405163f0d97f3b60e01b815260040160405180910390fd5b565b604051630972932760e21b815233600482015273__$e800e3908cdbb6b1b5bd452383a17b18f7$__906325ca4c9c90602401602060405180830381865af4158015610e61573d6000803e3d6000fd5b505050506040513d601f19601f82011682018060405250810190610e8591906127a8565b610e1057604051630a23da2b60e31b815260040160405180910390fd5b600c54341015610e10576040516334472ad760e11b815260040160405180910390fd5b8051602001515160405163089032d560e01b8152600091829173__$a0fe38a9a81205afccc10810b09a4d3f45$__9163089032d591610f0a91906008906004016127c3565b600060405180830381865af4158015610f27573d6000803e3d6000fd5b505050506040513d6000823e601f3d908101601f19168201604052610f4f9190810190612609565b9050600080610f5d836111f7565b9150915081610f7f57604051630e991abd60e41b815260040160405180910390fd5b60038101805486516001600160401b03909116606090910181905260019190600090610fac90849061266c565b92506101000a8154816001600160401b0302191690836001600160401b03160217905550846000015160400151816002016000828254610fec91906126b3565b9091555050600e810180546001808201835560009283526020928390208851805180518051600c909602909301805467ffffffffffffffff19166001600160401b039096169590951785558286015180518c97939587959394869493859361105b938501929190910190611af2565b505050602082810151805160028401805460ff191660ff909216919091178155918101519091906003840190611091908261286a565b505050506020838101518051805160048601805467ffffffffffffffff19166001600160401b039092169190911781558184015180519395509093919284926110e1926005890192910190611af2565b505050602082810151805160028401805460ff191660ff909216919091178155918101519091906003840190611117908261286a565b5050505060408301516008830155506060820151600982018054608085015160e01c600160401b026001600160601b03199091166001600160401b039093169290921791909117905560a0820151600a820190611174908261286a565b50505060209190910151600b909101805460ff19169115159190911790555050505050565b806000036111a5575050565b6103616111ba836001600160a01b0316611765565b6040805160248082018690528251808303909101815260449091019091526020810180516001600160e01b0316632a7edd8f60e21b1790526117ac565b6040516390ba52cf60e01b8152600090819081908190819073__$a0fe38a9a81205afccc10810b09a4d3f45$__906390ba52cf906112399089906004016125af565b602060405180830381865af4158015611256573d6000803e3d6000fd5b505050506040513d601f19601f8201168201806040525081019061127a9190612653565b81526020808201929092526040908101600020815180830183526004820180546001600160401b03168252600583018054855181880281018801909652808652939750919490938582019390929183018282801561130157602002820191906000526020600020905b81546001600160a01b031681526001909101906020018083116112e3575b505050919092525050604051630c133d1360e31b815273__$a0fe38a9a81205afccc10810b09a4d3f45$__92636099e8989250611340916004016125af565b602060405180830381865af415801561135d573d6000803e3d6000fd5b505050506040513d601f19601f8201168201806040525081019061138191906127a8565b15925050915091565b600080806001600160a01b0384166113b5576040516370e4510960e01b815260040160405180910390fd5b6040805180820182526008830180546001600160401b0316825260098401805484516020828102820181019096528181526000958086019391929083018282801561142957602002820191906000526020600020905b81546001600160a01b0316815260019091019060200180831161140b575b50505091909252505060405163aa5106cb60e01b815273__$a0fe38a9a81205afccc10810b09a4d3f45$__9263aa5106cb925061146a9189906004016125df565b600060405180830381865af4158015611487573d6000803e3d6000fd5b505050506040513d6000823e601f3d908101601f191682016040526114af9190810190612609565b90506114ba816111f7565b935093505050915091565b804710156114e65760405163356680b760e01b815260040160405180910390fd5b6000826001600160a01b03168260405160006040518083038185875af1925050503d8060008114611533576040519150601f19603f3d011682016040523d82523d6000602084013e611538565b606091505b505090508061036157604051633204506f60e01b815260040160405180910390fd5b6000806115656117c6565b600e85015486516001600160401b03909116606090910152600c850154600382018054929550909350915060009061159e9084906126b3565b90915550506004810180546001808201835560009283526020928390208651805180518051600c909602909301805467ffffffffffffffff19166001600160401b039096169590951785558286015180518a97939587959394869493859361160d938501929190910190611af2565b505050602082810151805160028401805460ff191660ff909216919091178155918101519091906003840190611643908261286a565b505050506020838101518051805160048601805467ffffffffffffffff19166001600160401b03909216919091178155818401518051939550909391928492611693926005890192910190611af2565b505050602082810151805160028401805460ff191660ff9092169190911781559181015190919060038401906116c9908261286a565b5050505060408301516008830155506060820151600982018054608085015160e01c600160401b026001600160601b03199091166001600160401b039093169290921791909117905560a0820151600a820190611726908261286a565b50505060209190910151600b909101805460ff1916911515919091179055600e82018054600191906000906105c39084906001600160401b031661266c565b6000806000611773846118fc565b915091508161178457509192915050565b60008061179083611938565b91509150816117a3575093949350505050565b95945050505050565b60606117bd838360006119a26119bb565b90505b92915050565b600f546000908190819081906117e69043906001600160401b0316611a61565b6001600160401b038082166000908152600284016020908152604091829020825180840184528154909416845260018101805484518185028101850190955280855295985090965092938693858301939290919083018282801561187357602002820191906000526020600020905b81546001600160a01b03168152600190910190602001808311611855575b505050919092525050604051630c133d1360e31b815273__$a0fe38a9a81205afccc10810b09a4d3f45$__92636099e89892506118b2916004016125af565b602060405180830381865af41580156118cf573d6000803e3d6000fd5b505050506040513d601f19601f820116820180604052508101906118f391906127a8565b15935050909192565b60008073ffffffffffffffffffffffff0000000000000000831660ff60981b810361193257600192506001600160401b03841691505b50915091565b600080826000526016600a602060006002607f60991b015afa9150600051806001600160a01b031691508060a01c61ffff16905061040a811461197e5760009250600091505b5081158061198d57503d601614155b1561199d57506000928392509050565b915091565b604051630a12f52160e11b815260040160405180910390fd5b6060824710156119e55760405163cd78605960e01b81523060048201526024015b60405180910390fd5b600080866001600160a01b03168587604051611a019190612929565b60006040518083038185875af1925050503d8060008114611a3e576040519150601f19603f3d011682016040523d82523d6000602084013e611a43565b606091505b5091509150611a5487838387611a83565b925050505b949350505050565b600081611a6e8185612945565b611a7990600161266c565b6117bd9190612979565b60608315611ad1578251600003611aca57846001600160a01b03163b600003611aca57604051639996b31560e01b81526001600160a01b03861660048201526024016119dc565b5081611a59565b611a598383815115611ae65781518083602001fd5b6119a28163ffffffff16565b828054828255906000526020600020908101928215611b47579160200282015b82811115611b4757825182546001600160a01b0319166001600160a01b03909116178255602090920191600190910190611b12565b50611b53929150611bf0565b5090565b5080546000825590600052602060002090810190611b759190611bf0565b50565b50805460008255600c0290600052602060002090810190611b759190611c05565b5080546000825560030290600052602060002090810190611b759190611cd7565b508054611bc6906127e8565b6000825580601f10611bd6575050565b601f016020900490600052602060002090810190611b7591905b5b80821115611b535760008155600101611bf1565b80821115611b5357805467ffffffffffffffff191681556000818181818181611c316001830182611b57565b505060028201805460ff191681556000611c4e6003850182611bba565b5050505060048201805467ffffffffffffffff1916815560008181611c766005870182611b57565b505060028201805460ff191681556000611c936003850182611bba565b50506000600885018190556009850180546001600160601b0319169055611cc09250600a85019150611bba565b505050600b8101805460ff19169055600c01611c05565b80821115611b5357805467ffffffffffffffff1916815560008181611cff6001830182611b57565b50611d109050600283016000611b57565b50600301611cd7565b6001600160401b0381168114611b7557600080fd5b600060208284031215611d4057600080fd5b8135611d4b81611d19565b9392505050565b600060408284031215611d6457600080fd5b50919050565b60008060408385031215611d7d57600080fd5b82356001600160401b0380821115611d9457600080fd5b611da086838701611d52565b93506020850135915080821115611db657600080fd5b50611dc385828601611d52565b9150509250929050565b600060208284031215611ddf57600080fd5b5035919050565b600060208284031215611df857600080fd5b81356001600160401b03811115611e0e57600080fd5b611a5984828501611d52565b634e487b7160e01b600052604160045260246000fd5b604080519081016001600160401b0381118282101715611e5257611e52611e1a565b60405290565b60405160c081016001600160401b0381118282101715611e5257611e52611e1a565b604051601f8201601f191681016001600160401b0381118282101715611ea257611ea2611e1a565b604052919050565b60006001600160401b03821115611ec357611ec3611e1a565b5060051b60200190565b6001600160a01b0381168114611b7557600080fd5b600082601f830112611ef357600080fd5b81356020611f08611f0383611eaa565b611e7a565b82815260059290921b84018101918181019086841115611f2757600080fd5b8286015b84811015611f4b578035611f3e81611ecd565b8352918301918301611f2b565b509695505050505050565b60008060408385031215611f6957600080fd5b82356001600160401b0380821115611f8057600080fd5b611f8c86838701611ee2565b9350602091508185013581811115611fa357600080fd5b85019050601f81018613611fb657600080fd5b8035611fc4611f0382611eaa565b81815260059190911b82018301908381019088831115611fe357600080fd5b928401925b8284101561200157833582529284019290840190611fe8565b80955050505050509250929050565b634e487b7160e01b600052601160045260246000fd5b818103818111156117c0576117c0612010565b60ff81168114611b7557600080fd5b6000813561205581612039565b60ff168352602082013536839003601e1901811261207257600080fd5b82016020810190356001600160401b0381111561208e57600080fd5b80360382131561209d57600080fd5b60406020860152806040860152808260608701376000606082870101526060601f19601f8301168601019250505092915050565b60808152600060c0820186356120e681611d19565b6001600160401b03908116608085015260209088820135368a9003601e1901811261211057600080fd5b890182810190358281111561212457600080fd5b8060051b360382131561213657600080fd5b604060a0880152938490529260e0860191506000905b8082101561217e57843561215f81611ecd565b6001600160a01b0316835293830193918301916001919091019061214c565b50506001600160a01b0388168583015284810360408601526121a08188612048565b935050505082606083015295945050505050565b80516121bf81611d19565b919050565b6000604082840312156121d657600080fd5b6121de611e30565b905081516121eb81611d19565b81526020828101516001600160401b0381111561220757600080fd5b8301601f8101851361221857600080fd5b8051612226611f0382611eaa565b81815260059190911b8201830190838101908783111561224557600080fd5b928401925b8284101561226c57835161225d81611ecd565b8252928401929084019061224a565b8085870152505050505092915050565b60005b8381101561229757818101518382015260200161227f565b50506000910152565b600082601f8301126122b157600080fd5b81516001600160401b038111156122ca576122ca611e1a565b6122dd601f8201601f1916602001611e7a565b8181528460208386010111156122f257600080fd5b611a5982602083016020870161227c565b60006040828403121561231557600080fd5b61231d611e30565b905081516001600160401b038082111561233657600080fd5b612342858386016121c4565b8352602084015191508082111561235857600080fd5b908301906040828603121561236c57600080fd5b612374611e30565b825161237f81612039565b815260208301518281111561239357600080fd5b61239f878286016122a0565b60208301525080602085015250505092915050565b80516001600160e01b0319811681146121bf57600080fd5b805180151581146121bf57600080fd5b6000602082840312156123ee57600080fd5b81516001600160401b038082111561240557600080fd5b908301906040828603121561241957600080fd5b612421611e30565b82518281111561243057600080fd5b830160c0818803121561244257600080fd5b61244a611e58565b81518481111561245957600080fd5b61246589828501612303565b82525060208201518481111561247a57600080fd5b61248689828501612303565b602083015250604082015160408201526124a2606083016121b4565b60608201526124b3608083016123b4565b608082015260a0820151848111156124ca57600080fd5b6124d6898285016122a0565b60a0830152508252506124eb602084016123cc565b602082015295945050505050565b60006040823603121561250b57600080fd5b612513611e30565b823561251e81611d19565b815260208301356001600160401b0381111561253957600080fd5b61254536828601611ee2565b60208301525092915050565b6000604083016001600160401b0383511684526020808401516040828701528281518085526060880191508383019450600092505b80831015611f4b5784516001600160a01b03168252938301936001929092019190830190612586565b6020815260006117bd6020830184612551565b6000602082840312156125d457600080fd5b8151611d4b81611ecd565b6040815260006125f26040830185612551565b905060018060a01b03831660208301529392505050565b60006020828403121561261b57600080fd5b81516001600160401b0381111561263157600080fd5b611a59848285016121c4565b634e487b7160e01b600052602160045260246000fd5b60006020828403121561266557600080fd5b5051919050565b6001600160401b0381811683821601908082111561268c5761268c612010565b5092915050565b6001600160401b0382811682821603908082111561268c5761268c612010565b808201808211156117c0576117c0612010565b6000604083016001600160401b0383541684526001808401602060408188015283825480865260608901915083600052826000209550600093505b808410156127275785546001600160a01b03168252948401949284019290820190612701565b50979650505050505050565b60808152600061274660808301876126c6565b6001600160a01b038616602084015282810360408401526127678186612048565b91505082606083015295945050505050565b60006001820161278b5761278b612010565b5060010190565b634e487b7160e01b600052603260045260246000fd5b6000602082840312156127ba57600080fd5b6117bd826123cc565b6040815260006127d66040830185612551565b82810360208401526117a381856126c6565b600181811c908216806127fc57607f821691505b602082108103611d6457634e487b7160e01b600052602260045260246000fd5b601f82111561036157600081815260208120601f850160051c810160208610156128435750805b601f850160051c820191505b818110156128625782815560010161284f565b505050505050565b81516001600160401b0381111561288357612883611e1a565b6128978161289184546127e8565b8461281c565b602080601f8311600181146128cc57600084156128b45750858301515b600019600386901b1c1916600185901b178555612862565b600085815260208120601f198616915b828110156128fb578886015182559484019460019091019084016128dc565b50858210156129195787850151600019600388901b60f8161c191681555b5050505050600190811b01905550565b6000825161293b81846020870161227c565b9190910192915050565b60006001600160401b038084168061296d57634e487b7160e01b600052601260045260246000fd5b92169190910492915050565b6001600160401b0381811683821602808216919082811461299c5761299c612010565b50509291505056fea2646970667358221220948e77a7c9702780e4f789de0d48504db131d78af53dbab7de4cbbba7ec0542e64736f6c63430008130033",
    "linkReferences": {
      "src/lib/AccountHelper.sol": {
        "AccountHelper": [
          {
            "start": 3509,
            "length": 20
          },
          {
            "start": 3655,
            "length": 20
          }
        ]
      },
      "src/lib/CrossMsgHelper.sol": {
        "CrossMsgHelper": [
          {
            "start": 603,
            "length": 20
          },
          {
            "start": 2909,
            "length": 20
          }
        ]
      },
      "src/lib/SubnetIDHelper.sol": {
        "SubnetIDHelper": [
          {
            "start": 785,
            "length": 20
          },
          {
            "start": 1073,
            "length": 20
          },
          {
            "start": 1347,
            "length": 20
          },
          {
            "start": 1840,
            "length": 20
          },
          {
            "start": 2581,
            "length": 20
          },
          {
            "start": 3840,
            "length": 20
          },
          {
            "start": 4657,
            "length": 20
          },
          {
            "start": 4921,
            "length": 20
          },
          {
            "start": 5217,
            "length": 20
          },
          {
            "start": 6315,
            "length": 20
          }
        ]
      }
    }
  },
  "methodIdentifiers": {
    "addStake()": "5a627dbc",
    "fund((uint64,address[]),(uint8,bytes))": "18f44b70",
    "initGenesisEpoch(uint64)": "13f35388",
    "kill()": "41c0e1b5",
    "register()": "1aa3a008",
    "release((uint8,bytes))": "6b2c1eef",
    "releaseRewards(uint256)": "f8703bb8",
    "releaseStake(uint256)": "45f54485",
    "setMembership(address[],uint256[])": "f75bc557"
  },
  "id": 35
}