{
  "abi": [
    {
      "inputs": [
        {
          "internalType": "address",
          "name": "target",
          "type": "address"
        }
      ],
      "name": "AddressEmptyCode",
      "type": "error"
    },
    {
      "inputs": [
        {
          "internalType": "address",
          "name": "account",
          "type": "address"
        }
      ],
      "name": "AddressInsufficientBalance",
      "type": "error"
    },
    {
      "inputs": [],
      "name": "CallFailed",
      "type": "error"
    },
    {
      "inputs": [],
      "name": "CannotSendCrossMsgToItself",
      "type": "error"
    },
    {
      "inputs": [],
      "name": "EpochAlreadyExecuted",
      "type": "error"
    },
    {
      "inputs": [],
      "name": "EpochNotVotable",
      "type": "error"
    },
    {
      "inputs": [],
      "name": "FailedInnerCall",
      "type": "error"
    },
    {
      "inputs": [],
      "name": "InconsistentPrevCheckpoint",
      "type": "error"
    },
    {
      "inputs": [],
      "name": "InsufficientFunds",
      "type": "error"
    },
    {
      "inputs": [],
      "name": "InvalidActorAddress",
      "type": "error"
    },
    {
      "inputs": [],
      "name": "InvalidCheckpointEpoch",
      "type": "error"
    },
    {
      "inputs": [],
      "name": "InvalidCheckpointSource",
      "type": "error"
    },
    {
      "inputs": [],
      "name": "InvalidCrossMsgDestinationSubnet",
      "type": "error"
    },
    {
      "inputs": [],
      "name": "InvalidCrossMsgFromSubnetId",
      "type": "error"
    },
    {
      "inputs": [],
      "name": "InvalidCrossMsgNonce",
      "type": "error"
    },
    {
      "inputs": [],
      "name": "MessagesNotSorted",
      "type": "error"
    },
    {
      "inputs": [],
      "name": "NotEnoughBalance",
      "type": "error"
    },
    {
      "inputs": [],
      "name": "NotEnoughFee",
      "type": "error"
    },
    {
      "inputs": [],
      "name": "NotEnoughFunds",
      "type": "error"
    },
    {
      "inputs": [],
      "name": "NotEnoughSubnetCircSupply",
      "type": "error"
    },
    {
      "inputs": [],
      "name": "NotInitialized",
      "type": "error"
    },
    {
      "inputs": [],
      "name": "NotRegisteredSubnet",
      "type": "error"
    },
    {
      "inputs": [],
      "name": "NotSignableAccount",
      "type": "error"
    },
    {
      "inputs": [],
      "name": "NotValidator",
      "type": "error"
    },
    {
      "inputs": [],
      "name": "SubnetNotActive",
      "type": "error"
    },
    {
      "inputs": [],
      "name": "ValidatorAlreadyVoted",
      "type": "error"
    },
    {
      "inputs": [
        {
          "components": [
            {
              "components": [
                {
                  "internalType": "uint64",
                  "name": "root",
                  "type": "uint64"
                },
                {
                  "internalType": "address[]",
                  "name": "route",
                  "type": "address[]"
                }
              ],
              "internalType": "struct SubnetID",
              "name": "source",
              "type": "tuple"
            },
            {
              "internalType": "uint64",
              "name": "epoch",
              "type": "uint64"
            },
            {
              "internalType": "uint256",
              "name": "fee",
              "type": "uint256"
            },
            {
              "components": [
                {
                  "components": [
                    {
                      "components": [
                        {
                          "components": [
                            {
                              "internalType": "uint64",
                              "name": "root",
                              "type": "uint64"
                            },
                            {
                              "internalType": "address[]",
                              "name": "route",
                              "type": "address[]"
                            }
                          ],
                          "internalType": "struct SubnetID",
                          "name": "subnetId",
                          "type": "tuple"
                        },
                        {
                          "components": [
                            {
                              "internalType": "uint8",
                              "name": "addrType",
                              "type": "uint8"
                            },
                            {
                              "internalType": "bytes",
                              "name": "payload",
                              "type": "bytes"
                            }
                          ],
                          "internalType": "struct FvmAddress",
                          "name": "rawAddress",
                          "type": "tuple"
                        }
                      ],
                      "internalType": "struct IPCAddress",
                      "name": "from",
                      "type": "tuple"
                    },
                    {
                      "components": [
                        {
                          "components": [
                            {
                              "internalType": "uint64",
                              "name": "root",
                              "type": "uint64"
                            },
                            {
                              "internalType": "address[]",
                              "name": "route",
                              "type": "address[]"
                            }
                          ],
                          "internalType": "struct SubnetID",
                          "name": "subnetId",
                          "type": "tuple"
                        },
                        {
                          "components": [
                            {
                              "internalType": "uint8",
                              "name": "addrType",
                              "type": "uint8"
                            },
                            {
                              "internalType": "bytes",
                              "name": "payload",
                              "type": "bytes"
                            }
                          ],
                          "internalType": "struct FvmAddress",
                          "name": "rawAddress",
                          "type": "tuple"
                        }
                      ],
                      "internalType": "struct IPCAddress",
                      "name": "to",
                      "type": "tuple"
                    },
                    {
                      "internalType": "uint256",
                      "name": "value",
                      "type": "uint256"
                    },
                    {
                      "internalType": "uint64",
                      "name": "nonce",
                      "type": "uint64"
                    },
                    {
                      "internalType": "bytes4",
                      "name": "method",
                      "type": "bytes4"
                    },
                    {
                      "internalType": "bytes",
                      "name": "params",
                      "type": "bytes"
                    }
                  ],
                  "internalType": "struct StorableMsg",
                  "name": "message",
                  "type": "tuple"
                },
                {
                  "internalType": "bool",
                  "name": "wrapped",
                  "type": "bool"
                }
              ],
              "internalType": "struct CrossMsg[]",
              "name": "crossMsgs",
              "type": "tuple[]"
            },
            {
              "components": [
                {
                  "components": [
                    {
                      "internalType": "uint64",
                      "name": "root",
                      "type": "uint64"
                    },
                    {
                      "internalType": "address[]",
                      "name": "route",
                      "type": "address[]"
                    }
                  ],
                  "internalType": "struct SubnetID",
                  "name": "source",
                  "type": "tuple"
                },
                {
                  "internalType": "bytes32[]",
                  "name": "checks",
                  "type": "bytes32[]"
                }
              ],
              "internalType": "struct ChildCheck[]",
              "name": "children",
              "type": "tuple[]"
            },
            {
              "internalType": "bytes32",
              "name": "prevHash",
              "type": "bytes32"
            },
            {
              "internalType": "bytes",
              "name": "proof",
              "type": "bytes"
            }
          ],
          "internalType": "struct BottomUpCheckpoint",
          "name": "commit",
          "type": "tuple"
        }
      ],
      "name": "commitChildCheck",
      "outputs": [],
      "stateMutability": "nonpayable",
      "type": "function"
    },
    {
      "inputs": [
        {
          "internalType": "bytes32",
          "name": "msgCid",
          "type": "bytes32"
        }
      ],
      "name": "propagate",
      "outputs": [],
      "stateMutability": "payable",
      "type": "function"
    },
    {
      "inputs": [
        {
          "components": [
            {
              "components": [
                {
                  "components": [
                    {
                      "components": [
                        {
                          "internalType": "uint64",
                          "name": "root",
                          "type": "uint64"
                        },
                        {
                          "internalType": "address[]",
                          "name": "route",
                          "type": "address[]"
                        }
                      ],
                      "internalType": "struct SubnetID",
                      "name": "subnetId",
                      "type": "tuple"
                    },
                    {
                      "components": [
                        {
                          "internalType": "uint8",
                          "name": "addrType",
                          "type": "uint8"
                        },
                        {
                          "internalType": "bytes",
                          "name": "payload",
                          "type": "bytes"
                        }
                      ],
                      "internalType": "struct FvmAddress",
                      "name": "rawAddress",
                      "type": "tuple"
                    }
                  ],
                  "internalType": "struct IPCAddress",
                  "name": "from",
                  "type": "tuple"
                },
                {
                  "components": [
                    {
                      "components": [
                        {
                          "internalType": "uint64",
                          "name": "root",
                          "type": "uint64"
                        },
                        {
                          "internalType": "address[]",
                          "name": "route",
                          "type": "address[]"
                        }
                      ],
                      "internalType": "struct SubnetID",
                      "name": "subnetId",
                      "type": "tuple"
                    },
                    {
                      "components": [
                        {
                          "internalType": "uint8",
                          "name": "addrType",
                          "type": "uint8"
                        },
                        {
                          "internalType": "bytes",
                          "name": "payload",
                          "type": "bytes"
                        }
                      ],
                      "internalType": "struct FvmAddress",
                      "name": "rawAddress",
                      "type": "tuple"
                    }
                  ],
                  "internalType": "struct IPCAddress",
                  "name": "to",
                  "type": "tuple"
                },
                {
                  "internalType": "uint256",
                  "name": "value",
                  "type": "uint256"
                },
                {
                  "internalType": "uint64",
                  "name": "nonce",
                  "type": "uint64"
                },
                {
                  "internalType": "bytes4",
                  "name": "method",
                  "type": "bytes4"
                },
                {
                  "internalType": "bytes",
                  "name": "params",
                  "type": "bytes"
                }
              ],
              "internalType": "struct StorableMsg",
              "name": "message",
              "type": "tuple"
            },
            {
              "internalType": "bool",
              "name": "wrapped",
              "type": "bool"
            }
          ],
          "internalType": "struct CrossMsg",
          "name": "crossMsg",
          "type": "tuple"
        }
      ],
      "name": "sendCrossMessage",
      "outputs": [],
      "stateMutability": "payable",
      "type": "function"
    },
    {
      "inputs": [
        {
          "components": [
            {
              "internalType": "uint64",
              "name": "epoch",
              "type": "uint64"
            },
            {
              "components": [
                {
                  "components": [
                    {
                      "components": [
                        {
                          "components": [
                            {
                              "internalType": "uint64",
                              "name": "root",
                              "type": "uint64"
                            },
                            {
                              "internalType": "address[]",
                              "name": "route",
                              "type": "address[]"
                            }
                          ],
                          "internalType": "struct SubnetID",
                          "name": "subnetId",
                          "type": "tuple"
                        },
                        {
                          "components": [
                            {
                              "internalType": "uint8",
                              "name": "addrType",
                              "type": "uint8"
                            },
                            {
                              "internalType": "bytes",
                              "name": "payload",
                              "type": "bytes"
                            }
                          ],
                          "internalType": "struct FvmAddress",
                          "name": "rawAddress",
                          "type": "tuple"
                        }
                      ],
                      "internalType": "struct IPCAddress",
                      "name": "from",
                      "type": "tuple"
                    },
                    {
                      "components": [
                        {
                          "components": [
                            {
                              "internalType": "uint64",
                              "name": "root",
                              "type": "uint64"
                            },
                            {
                              "internalType": "address[]",
                              "name": "route",
                              "type": "address[]"
                            }
                          ],
                          "internalType": "struct SubnetID",
                          "name": "subnetId",
                          "type": "tuple"
                        },
                        {
                          "components": [
                            {
                              "internalType": "uint8",
                              "name": "addrType",
                              "type": "uint8"
                            },
                            {
                              "internalType": "bytes",
                              "name": "payload",
                              "type": "bytes"
                            }
                          ],
                          "internalType": "struct FvmAddress",
                          "name": "rawAddress",
                          "type": "tuple"
                        }
                      ],
                      "internalType": "struct IPCAddress",
                      "name": "to",
                      "type": "tuple"
                    },
                    {
                      "internalType": "uint256",
                      "name": "value",
                      "type": "uint256"
                    },
                    {
                      "internalType": "uint64",
                      "name": "nonce",
                      "type": "uint64"
                    },
                    {
                      "internalType": "bytes4",
                      "name": "method",
                      "type": "bytes4"
                    },
                    {
                      "internalType": "bytes",
                      "name": "params",
                      "type": "bytes"
                    }
                  ],
                  "internalType": "struct StorableMsg",
                  "name": "message",
                  "type": "tuple"
                },
                {
                  "internalType": "bool",
                  "name": "wrapped",
                  "type": "bool"
                }
              ],
              "internalType": "struct CrossMsg[]",
              "name": "topDownMsgs",
              "type": "tuple[]"
            }
          ],
          "internalType": "struct TopDownCheckpoint",
          "name": "checkpoint",
          "type": "tuple"
        }
      ],
      "name": "submitTopDownCheckpoint",
      "outputs": [],
      "stateMutability": "nonpayable",
      "type": "function"
    }
  ],
  "bytecode": {
    "object": "0x608060405234801561001057600080fd5b506161b180620000216000396000f3fe60806040526004361061003f5760003560e01c806325bf0db6146100445780632f757dd114610059578063986acf381461006c578063d4e149a81461008c575b600080fd5b610057610052366004614076565b6100ac565b005b6100576100673660046140a7565b610660565b34801561007857600080fd5b506100576100873660046140a7565b61083a565b34801561009857600080fd5b506100576100a73660046140db565b6111b7565b6100b4611c3c565b600081815260016020818152604080842081516101808101835281546001600160401b031661014082019081529482018054845181870281018701865281815293979687966104479694958a95879590860194879486946101008901948794869486936101608d019392919083018282801561015957602002820191906000526020600020905b81546001600160a01b0316815260019091019060200180831161013b575b5050509190925250505081526040805180820190915260028301805460ff168252600384018054602094850194840191906101939061411c565b80601f01602080910402602001604051908101604052809291908181526020018280546101bf9061411c565b801561020c5780601f106101e15761010080835404028352916020019161020c565b820191906000526020600020905b8154815290600101906020018083116101ef57829003601f168201915b505050919092525050509052508152604080516080810182526004840180546001600160401b031682840190815260058601805485516020828102820181019097528181529686019694959394869486936060870193909183018282801561029d57602002820191906000526020600020905b81546001600160a01b0316815260019091019060200180831161027f575b5050509190925250505081526040805180820190915260028301805460ff168252600384018054602094850194840191906102d79061411c565b80601f01602080910402602001604051908101604052809291908181526020018280546103039061411c565b80156103505780601f1061032557610100808354040283529160200191610350565b820191906000526020600020905b81548152906001019060200180831161033357829003601f168201915b5050509190925250505090525081526008820154602082015260098201546001600160401b0381166040830152600160401b900460e01b6001600160e01b0319166060820152600a820180546080909201916103ab9061411c565b80601f01602080910402602001604051908101604052809291908181526020018280546103d79061411c565b80156104245780601f106103f957610100808354040283529160200191610424565b820191906000526020600020905b81548152906001019060200180831161040757829003601f168201915b505050919092525050508152600b919091015460ff161515602090910152611c61565b60088501546040805180820182526004880180546001600160401b03168252600589018054845160208281028201810190965281815297995095975093956000959294919380860193919291908301828280156104cd57602002820191906000526020600020905b81546001600160a01b031681526001909101906020018083116104af575b50505091909252505060405163089032d560e01b815273__$a0fe38a9a81205afccc10810b09a4d3f45$__9263089032d5925061050f91600890600401614226565b600060405180830381865af415801561052c573d6000803e3d6000fd5b505050506040513d6000823e601f3d908101601f191682016040526105549190810190614328565b6000878152600160208190526040822080546001600160401b031916815592935082908290829082908290829061058d90830182613f64565b505060028201805460ff1916815560006105aa6003850182613f82565b505050506004820180546001600160401b0319168155600081816105d16005870182613f64565b505060028201805460ff1916815560006105ee6003850182613f82565b50506000600885018190556009850180546001600160601b031916905561061b9250600a85019150613f82565b505050600b01805460ff1916905561063582828686611fd4565b600c546000906106459034614423565b90508015610657576106573382612075565b50505050505050565b61066861210a565b610670611c3c565b3461067b8280614436565b604001351461069d57604051631036b5ad60e31b815260040160405180910390fd5b6106a78180614436565b6106b19080614456565b6106bb9080614456565b6106c490614534565b60405163c836244d60e01b815273__$a0fe38a9a81205afccc10810b09a4d3f45$__9163c836244d916106fd9190600890600401614226565b602060405180830381865af415801561071a573d6000803e3d6000fd5b505050506040513d601f19601f8201168201806040525081019061073e919061454e565b61075b57604051638481de4960e01b815260040160405180910390fd5b60008061076f61076a846147cc565b611c61565b90925090506108356107818480614436565b6040013561078f8580614436565b61079d906020810190614456565b6107a79080614456565b6107b090614534565b60405163089032d560e01b815273__$a0fe38a9a81205afccc10810b09a4d3f45$__9163089032d5916107e99190600890600401614226565b600060405180830381865af4158015610806573d6000803e3d6000fd5b505050506040513d6000823e601f3d908101601f1916820160405261082e9190810190614328565b8484611fd4565b505050565b61084261210a565b61085761085260208301836147d8565b61219a565b600b546000908152600360209081526040808320338452909152902054600f54600160401b900460ff1661089e576040516321c4e35760e21b815260040160405180910390fd5b806000036108bf57604051632ec5b44960e01b815260040160405180910390fd5b73__$33b79814e84bf6cf5e47244090b19ce5f8$__63898414756108e660208501856147f5565b6040518363ffffffff1660e01b8152600401610903929190614b41565b602060405180830381865af4158015610920573d6000803e3d6000fd5b505050506040513d601f19601f82011682018060405250810190610944919061454e565b61096157604051630bd9169f60e01b815260040160405180910390fd5b600060068161097360208601866147d8565b6001600160401b03166001600160401b03168152602001908152602001600020905060006109a3828533866121a6565b905060608115610d7c576109b6836126de565b805480602002602001604051908101604052809291908181526020016000905b82821015610d755760008481526020908190206040805161018081018252600c860290920180546001600160401b031661014084019081526001820180548451818802810188018652818152959693958795860194879486946101008901948794869486936101608d01939091830182828015610a7c57602002820191906000526020600020905b81546001600160a01b03168152600190910190602001808311610a5e575b5050509190925250505081526040805180820190915260028301805460ff16825260038401805460209485019484019190610ab69061411c565b80601f0160208091040260200160405190810160405280929190818152602001828054610ae29061411c565b8015610b2f5780601f10610b0457610100808354040283529160200191610b2f565b820191906000526020600020905b815481529060010190602001808311610b1257829003601f168201915b505050919092525050509052508152604080516080810182526004840180546001600160401b0316828401908152600586018054855160208281028201810190975281815296860196949593948694869360608701939091830182828015610bc057602002820191906000526020600020905b81546001600160a01b03168152600190910190602001808311610ba2575b5050509190925250505081526040805180820190915260028301805460ff16825260038401805460209485019484019190610bfa9061411c565b80601f0160208091040260200160405190810160405280929190818152602001828054610c269061411c565b8015610c735780601f10610c4857610100808354040283529160200191610c73565b820191906000526020600020905b815481529060010190602001808311610c5657829003601f168201915b5050509190925250505090525081526008820154602082015260098201546001600160401b0381166040830152600160401b900460e01b6001600160e01b0319166060820152600a82018054608090920191610cce9061411c565b80601f0160208091040260200160405190810160405280929190818152602001828054610cfa9061411c565b8015610d475780601f10610d1c57610100808354040283529160200191610d47565b820191906000526020600020905b815481529060010190602001808311610d2a57829003601f168201915b505050919092525050508152600b919091015460ff16151560209182015290825260019290920191016109d6565b5050505090505b805160000361118557600080610d90612710565b915091508015611182576001600160401b0382166000908152600660205260409020610dbb816126de565b805480602002602001604051908101604052809291908181526020016000905b8282101561117a5760008481526020908190206040805161018081018252600c860290920180546001600160401b031661014084019081526001820180548451818802810188018652818152959693958795860194879486946101008901948794869486936101608d01939091830182828015610e8157602002820191906000526020600020905b81546001600160a01b03168152600190910190602001808311610e63575b5050509190925250505081526040805180820190915260028301805460ff16825260038401805460209485019484019190610ebb9061411c565b80601f0160208091040260200160405190810160405280929190818152602001828054610ee79061411c565b8015610f345780601f10610f0957610100808354040283529160200191610f34565b820191906000526020600020905b815481529060010190602001808311610f1757829003601f168201915b505050919092525050509052508152604080516080810182526004840180546001600160401b0316828401908152600586018054855160208281028201810190975281815296860196949593948694869360608701939091830182828015610fc557602002820191906000526020600020905b81546001600160a01b03168152600190910190602001808311610fa7575b5050509190925250505081526040805180820190915260028301805460ff16825260038401805460209485019484019190610fff9061411c565b80601f016020809104026020016040519081016040528092919081815260200182805461102b9061411c565b80156110785780601f1061104d57610100808354040283529160200191611078565b820191906000526020600020905b81548152906001019060200180831161105b57829003601f168201915b5050509190925250505090525081526008820154602082015260098201546001600160401b0381166040830152600160401b900460e01b6001600160e01b0319166060820152600a820180546080909201916110d39061411c565b80601f01602080910402602001604051908101604052809291908181526020018280546110ff9061411c565b801561114c5780601f106111215761010080835404028352916020019161114c565b820191906000526020600020905b81548152906001019060200180831161112f57829003601f168201915b505050919092525050508152600b919091015460ff1615156020918201529082526001929092019101610ddb565b505050509350505b50505b6040805180820182526000808252825181815260208181019094526111b09383019150905282612763565b5050505050565b600f54600160401b900460ff166111e1576040516321c4e35760e21b815260040160405180910390fd5b3361127d6111ef8380614456565b6111f890614534565b604051632cff562160e11b815273__$a0fe38a9a81205afccc10810b09a4d3f45$__916359feac429161122e9190600401614b55565b602060405180830381865af415801561124b573d6000803e3d6000fd5b505050506040513d601f19601f8201168201806040525081019061126f9190614b68565b6001600160a01b031661279b565b6001600160a01b0316146112a457604051637f39132760e11b815260040160405180910390fd5b60006112af336127e2565b9150600190506003820154600160801b900460ff1660058111156112d5576112d5614b85565b146112f35760405163c18316bf60e01b815260040160405180910390fd5b61130360408301602084016147d8565b60088201546001600160401b039182169116106113335760405163fae4eadb60e01b815260040160405180910390fd5b60a082013515611a3d5760408051610120810182526006830180546001600160401b031660e083019081526007850180548551602082810282018101909752818152949593948694869361010087019390918301828280156113be57602002820191906000526020600020905b81546001600160a01b031681526001909101906020018083116113a0575b50505050508152505081526020016002820160009054906101000a90046001600160401b03166001600160401b03166001600160401b031681526020016003820154815260200160048201805480602002602001604051908101604052809291908181526020016000905b828210156117c85760008481526020908190206040805161018081018252600c860290920180546001600160401b031661014084019081526001820180548451818802810188018652818152959693958795860194879486946101008901948794869486936101608d019390918301828280156114cf57602002820191906000526020600020905b81546001600160a01b031681526001909101906020018083116114b1575b5050509190925250505081526040805180820190915260028301805460ff168252600384018054602094850194840191906115099061411c565b80601f01602080910402602001604051908101604052809291908181526020018280546115359061411c565b80156115825780601f1061155757610100808354040283529160200191611582565b820191906000526020600020905b81548152906001019060200180831161156557829003601f168201915b505050919092525050509052508152604080516080810182526004840180546001600160401b031682840190815260058601805485516020828102820181019097528181529686019694959394869486936060870193909183018282801561161357602002820191906000526020600020905b81546001600160a01b031681526001909101906020018083116115f5575b5050509190925250505081526040805180820190915260028301805460ff1682526003840180546020948501948401919061164d9061411c565b80601f01602080910402602001604051908101604052809291908181526020018280546116799061411c565b80156116c65780601f1061169b576101008083540402835291602001916116c6565b820191906000526020600020905b8154815290600101906020018083116116a957829003601f168201915b5050509190925250505090525081526008820154602082015260098201546001600160401b0381166040830152600160401b900460e01b6001600160e01b0319166060820152600a820180546080909201916117219061411c565b80601f016020809104026020016040519081016040528092919081815260200182805461174d9061411c565b801561179a5780601f1061176f5761010080835404028352916020019161179a565b820191906000526020600020905b81548152906001019060200180831161177d57829003601f168201915b505050919092525050508152600b919091015460ff1615156020918201529082526001929092019101611429565b50505050815260200160058201805480602002602001604051908101604052809291908181526020016000905b828210156118ff576000848152602090819020604080516080810182526003860290920180546001600160401b03168383019081526001820180548451818802810188019095528085529495929486949293869360608701939092909183018282801561188b57602002820191906000526020600020905b81546001600160a01b0316815260019091019060200180831161186d575b5050505050815250508152602001600282018054806020026020016040519081016040528092919081815260200182805480156118e757602002820191906000526020600020905b8154815260200190600101908083116118d3575b505050505081525050815260200190600101906117f5565b505050508152602001600682015481526020016007820180546119219061411c565b80601f016020809104026020016040519081016040528092919081815260200182805461194d9061411c565b801561199a5780601f1061196f5761010080835404028352916020019161199a565b820191906000526020600020905b81548152906001019060200180831161197d57829003601f168201915b5050509190925250506040516339aa47fb60e01b815273__$1cd67d4dc9e627f0bec7928aa480e7d951$__926339aa47fb92506119d991600401614dbb565b602060405180830381865af41580156119f6573d6000803e3d6000fd5b505050506040513d601f19601f82011682018060405250810190611a1a9190614e58565b8260a0013514611a3d576040516312232e5d60e11b815260040160405180910390fd5b6000806000611a4a61291d565b92509250925082611aa9576008805482546001600160401b0319166001600160401b03909116178255600980548391611a8891600184019190613fbc565b5050506002810180546001600160401b0319166001600160401b0384161790555b60405163445cc97560e01b815273__$1cd67d4dc9e627f0bec7928aa480e7d951$__9063445cc97590611ae9908490899060049060059089908301614f1c565b60006040518083038186803b158015611b0157600080fd5b505af4158015611b15573d6000803e3d6000fd5b50505050600080868060600190611b2c91906147f5565b9050905060005b81811015611b8c57611b4860608901896147f5565b82818110611b5857611b58615019565b9050602002810190611b6a9190614456565b611b749080614436565b611b8290604001358461502f565b9250600101611b33565b506003830154611ba090604089013561502f565b611baa908361502f565b91508186600201541015611bd157604051631d36ca1560e21b815260040160405180910390fd5b81866002016000828254611be59190614423565b9091555087905060068701611bfa82826159cc565b50611c2e9050611c0a8880614456565b611c1390614534565b611c2060608a018a6147f5565b611c2991615b6e565b612763565b610657338860400135612a53565b600c54341015611c5f576040516334472ad760e11b815260040160405180910390fd5b565b80516020015151604051630c133d1360e31b8152600091829173__$a0fe38a9a81205afccc10810b09a4d3f45$__90636099e89890611ca4908490600401614b55565b602060405180830381865af4158015611cc1573d6000803e3d6000fd5b505050506040513d601f19601f82011682018060405250810190611ce5919061454e565b15611d035760405163461e815d60e01b815260040160405180910390fd5b60405163c836244d60e01b815273__$a0fe38a9a81205afccc10810b09a4d3f45$__9063c836244d90611d3d908490600890600401614226565b602060405180830381865af4158015611d5a573d6000803e3d6000fd5b505050506040513d601f19601f82011682018060405250810190611d7e919061454e565b15611d9c57604051632f3335ff60e21b815260040160405180910390fd5b835180515160405163f47ad7eb60e01b8152909160009173__$386b5c41ce93e8b832daf8008b3d30ae09$__9163f47ad7eb91611ddf9190600890600401615b7b565b602060405180830381865af4158015611dfc573d6000803e3d6000fd5b505050506040513d601f19601f82011682018060405250810190611e209190615b8e565b905060006001826001811115611e3857611e38614b85565b03611f3957604051631ccc893360e11b815273__$a0fe38a9a81205afccc10810b09a4d3f45$__90633999126690611e769087908790600401615baf565b600060405180830381865af4158015611e93573d6000803e3d6000fd5b505050506040513d6000823e601f3d908101601f19168201604052611ebb9190810190614328565b60405163c836244d60e01b815273__$a0fe38a9a81205afccc10810b09a4d3f45$__9163c836244d91611ef49190600890600401614226565b602060405180830381865af4158015611f11573d6000803e3d6000fd5b505050506040513d601f19601f82011682018060405250810190611f35919061454e565b1590505b8015611f5d57611f4887612ab1565b50509351604001511515946000945092505050565b6000826001811115611f7157611f71614b85565b03611fbb57600e8054600890611f9690600160401b90046001600160401b0316615bd4565b91906101000a8154816001600160401b0302191690836001600160401b031602179055505b611fc487612ce3565b5060009660019650945050505050565b8115611fe557611fe5606385612075565b801561206f57604051632cff562160e11b815261206f9073__$a0fe38a9a81205afccc10810b09a4d3f45$__906359feac4290612026908790600401614b55565b602060405180830381865af4158015612043573d6000803e3d6000fd5b505050506040513d601f19601f820116820180604052508101906120679190614b68565b600c54612a53565b50505050565b804710156120965760405163356680b760e01b815260040160405180910390fd5b6000826001600160a01b03168260405160006040518083038185875af1925050503d80600081146120e3576040519150601f19603f3d011682016040523d82523d6000602084013e6120e8565b606091505b505090508061083557604051633204506f60e01b815260040160405180910390fd5b604051630972932760e21b815233600482015273__$e800e3908cdbb6b1b5bd452383a17b18f7$__906325ca4c9c90602401602060405180830381865af4158015612159573d6000803e3d6000fd5b505050506040513d601f19601f8201168201806040525081019061217d919061454e565b611c5f57604051630a23da2b60e31b815260040160405180910390fd5b6121a381612fb5565b50565b6000806121b285615bfa565b604051630edf122560e41b815273__$1cd67d4dc9e627f0bec7928aa480e7d951$__9163edf12250916121e89190600401615c66565b602060405180830381865af4158015612205573d6000803e3d6000fd5b505050506040513d601f19601f820116820180604052508101906122299190614e58565b90506122478682868661223f60208b018b6147d8565b600d54613084565b600082815260058801602090815260408083208151808301835281546001600160401b03168152600182018054845181870281018701909552808552969850909591948685019491929184015b828210156126335760008481526020908190206040805161018081018252600c860290920180546001600160401b031661014084019081526001820180548451818802810188018652818152959693958795860194879486946101008901948794869486936101608d0193909183018282801561233a57602002820191906000526020600020905b81546001600160a01b0316815260019091019060200180831161231c575b5050509190925250505081526040805180820190915260028301805460ff168252600384018054602094850194840191906123749061411c565b80601f01602080910402602001604051908101604052809291908181526020018280546123a09061411c565b80156123ed5780601f106123c2576101008083540402835291602001916123ed565b820191906000526020600020905b8154815290600101906020018083116123d057829003601f168201915b505050919092525050509052508152604080516080810182526004840180546001600160401b031682840190815260058601805485516020828102820181019097528181529686019694959394869486936060870193909183018282801561247e57602002820191906000526020600020905b81546001600160a01b03168152600190910190602001808311612460575b5050509190925250505081526040805180820190915260028301805460ff168252600384018054602094850194840191906124b89061411c565b80601f01602080910402602001604051908101604052809291908181526020018280546124e49061411c565b80156125315780601f1061250657610100808354040283529160200191612531565b820191906000526020600020905b81548152906001019060200180831161251457829003601f168201915b5050509190925250505090525081526008820154602082015260098201546001600160401b0381166040830152600160401b900460e01b6001600160e01b0319166060820152600a8201805460809092019161258c9061411c565b80601f01602080910402602001604051908101604052809291908181526020018280546125b89061411c565b80156126055780601f106125da57610100808354040283529160200191612605565b820191906000526020600020905b8154815290600101906020018083116125e857829003601f168201915b505050919092525050508152600b919091015460ff1615156020918201529082526001929092019101612294565b50505091525050604051632d34315760e01b815273__$1cd67d4dc9e627f0bec7928aa480e7d951$__91632d343157916126709190600401615c66565b602060405180830381865af415801561268d573d6000803e3d6000fd5b505050506040513d601f19601f820116820180604052508101906126b1919061454e565b156126d5576000818152600587016020526040902085906126d28282615c94565b50505b50949350505050565b6002810154600090815260058201602052604081208054612707906001600160401b03166132d1565b60010192915050565b7f283d1424c49941ba61504663c7a1b6f59e6bbb963a00bcc130bcbf9c29e1e27154600160801b90046001600160401b0316600060008051602061615c83398151915261275c83613432565b9150509091565b805160005b8181101561206f576127938484838151811061278657612786615019565b602002602001015161347f565b600101612768565b60008060006127a984613a63565b91509150816127ba57509192915050565b6000806127c683613a9f565b91509150816127d9575093949350505050565b95945050505050565b600080806001600160a01b03841661280d576040516370e4510960e01b815260040160405180910390fd5b6040805180820182526008830180546001600160401b0316825260098401805484516020828102820181019096528181526000958086019391929083018282801561288157602002820191906000526020600020905b81546001600160a01b03168152600190910190602001808311612863575b50505091909252505060405163aa5106cb60e01b815273__$a0fe38a9a81205afccc10810b09a4d3f45$__9263aa5106cb92506128c2918990600401615db9565b600060405180830381865af41580156128df573d6000803e3d6000fd5b505050506040513d6000823e601f3d908101601f191682016040526129079190810190614328565b905061291281613b09565b935093505050915091565b600f5460009081908190819061293d9043906001600160401b0316613c9c565b6001600160401b03808216600090815260028401602090815260409182902082518084018452815490941684526001810180548451818502810185019095528085529598509096509293869385830193929091908301828280156129ca57602002820191906000526020600020905b81546001600160a01b031681526001909101906020018083116129ac575b505050919092525050604051630c133d1360e31b815273__$a0fe38a9a81205afccc10810b09a4d3f45$__92636099e8989250612a0991600401614b55565b602060405180830381865af4158015612a26573d6000803e3d6000fd5b505050506040513d601f19601f82011682018060405250810190612a4a919061454e565b15935050909192565b80600003612a5f575050565b610835612a74836001600160a01b031661279b565b6040805160248082018690528251808303909101815260449091019091526020810180516001600160e01b0316632a7edd8f60e21b179052613cc7565b600080612abc61291d565b600e85015486516001600160401b03909116606090910152600c8501546003820180549295509093509150600090612af590849061502f565b90915550506004810180546001808201835560009283526020928390208651805180518051600c90960290930180546001600160401b0319166001600160401b039096169590951785558286015180518a979395879593948694938593612b6393850192919091019061400c565b505050602082810151805160028401805460ff191660ff909216919091178155918101519091906003840190612b999082615de3565b50505050602083810151805180516004860180546001600160401b0319166001600160401b03909216919091178155818401518051939550909391928492612be892600589019291019061400c565b505050602082810151805160028401805460ff191660ff909216919091178155918101519091906003840190612c1e9082615de3565b5050505060408301516008830155506060820151600982018054608085015160e01c600160401b026001600160601b03199091166001600160401b039093169290921791909117905560a0820151600a820190612c7b9082615de3565b50505060209190910151600b909101805460ff1916911515919091179055600e8201805460019190600090612cba9084906001600160401b0316615e9c565b92506101000a8154816001600160401b0302191690836001600160401b03160217905550505050565b8051602001515160405163089032d560e01b8152600091829173__$a0fe38a9a81205afccc10810b09a4d3f45$__9163089032d591612d289190600890600401614226565b600060405180830381865af4158015612d45573d6000803e3d6000fd5b505050506040513d6000823e601f3d908101601f19168201604052612d6d9190810190614328565b9050600080612d7b83613b09565b9150915081612d9d57604051630e991abd60e41b815260040160405180910390fd5b60038101805486516001600160401b03909116606090910181905260019190600090612dca908490615e9c565b92506101000a8154816001600160401b0302191690836001600160401b03160217905550846000015160400151816002016000828254612e0a919061502f565b9091555050600e810180546001808201835560009283526020928390208851805180518051600c90960290930180546001600160401b0319166001600160401b039096169590951785558286015180518c979395879593948694938593612e7893850192919091019061400c565b505050602082810151805160028401805460ff191660ff909216919091178155918101519091906003840190612eae9082615de3565b50505050602083810151805180516004860180546001600160401b0319166001600160401b03909216919091178155818401518051939550909391928492612efd92600589019291019061400c565b505050602082810151805160028401805460ff191660ff909216919091178155918101519091906003840190612f339082615de3565b5050505060408301516008830155506060820151600982018054608085015160e01c600160401b026001600160601b03199091166001600160401b039093169290921791909117905560a0820151600a820190612f909082615de3565b50505060209190910151600b909101805460ff19169115159190911790555050505050565b60008051602061615c83398151915280546001600160401b0390811690831611612ff257604051631f30cc6360e21b815260040160405180910390fd5b80546001600160401b03600160401b909104811690831610156130285760405163b4f68f9760e01b815260040160405180910390fd5b80546001600160401b03600160801b820481169161304f91600160401b9091041684615ec3565b6130599190615ef9565b6001600160401b0316156130805760405163b4f68f9760e01b815260040160405180910390fd5b5050565b8554600081815260038801602090815260408083206001600160a01b0389168452909152812054909160008051602061615c8339815191529160ff16156130de576040516337138f5f60e11b815260040160405180910390fd5b600081815260038a01602090815260408083206001600160a01b038b1684529091528120805460ff191660019081179091558a01805488929061312290849061502f565b9091555050600081815260048a01602090815260408083208b84529091528120805488929061315290849061502f565b9091555050600081815260048a016020908152604080832060028d01548452909152808220548a83529120548082101561318e5760028b018a90555b600061319a8c88613cd8565b905060038160038111156131b0576131b0614b85565b03613245576131be88613432565b156131cc57600195506132c2565b60405163199b9ca560e01b81526001860160048201526001600160401b038916602482015273__$b7b8687e33476c74e3b4e0a64c4768a343$__9063199b9ca59060440160006040518083038186803b15801561322857600080fd5b505af415801561323c573d6000803e3d6000fd5b505050506132c2565b600281600381111561325957613259614b85565b036132c257604051635a27a53960e11b8152600481018d905273__$e0f829f5071d7e628aa77eca0c12e35bc2$__9063b44f4a729060240160006040518083038186803b1580156132a957600080fd5b505af41580156132bd573d6000803e3d6000fd5b505050505b50505050509695505050505050565b60008051602061615c8339815191526132e982613432565b6132f1575050565b604051634953836d60e11b81526001820160048201526001600160401b038316602482015273__$b7b8687e33476c74e3b4e0a64c4768a343$__906392a706da90604401602060405180830381865af4158015613352573d6000803e3d6000fd5b505050506040513d601f19601f82011682018060405250810190613376919061454e565b1561339d5760018101546001600160401b03838116600160801b909204161461339d575050565b6040516394ecccfd60e01b81526001820160048201526001600160401b038316602482015273__$b7b8687e33476c74e3b4e0a64c4768a343$__906394ecccfd9060440160006040518083038186803b1580156133f957600080fd5b505af415801561340d573d6000803e3d6000fd5b505082546001600160401b0319166001600160401b0394909416939093179091555050565b60008051602061615c833981519152805460009190613463906001600160401b03600160801b820481169116615e9c565b6001600160401b0316836001600160401b031614915050919050565b80516020015151604051630c133d1360e31b815273__$a0fe38a9a81205afccc10810b09a4d3f45$__91636099e898916134bc9190600401614b55565b602060405180830381865af41580156134d9573d6000803e3d6000fd5b505050506040513d601f19601f820116820180604052508101906134fd919061454e565b1561351b5760405163461e815d60e01b815260040160405180910390fd5b8051608001516001600160e01b031916613555578051604001514710156135555760405163569d45cf60e11b815260040160405180910390fd5b805160405163f47ad7eb60e01b815260009173__$386b5c41ce93e8b832daf8008b3d30ae09$__9163f47ad7eb9161359291600890600401615b7b565b602060405180830381865af41580156135af573d6000803e3d6000fd5b505050506040513d601f19601f820116820180604052508101906135d39190615b8e565b8251602001515160405163c836244d60e01b815291925073__$a0fe38a9a81205afccc10810b09a4d3f45$__9163c836244d9161361591600890600401614226565b602060405180830381865af4158015613632573d6000803e3d6000fd5b505050506040513d601f19601f82011682018060405250810190613656919061454e565b156138c457600181600181111561366f5761366f614b85565b036137a957604051630c133d1360e31b815273__$a0fe38a9a81205afccc10810b09a4d3f45$__90636099e898906136ab908690600401614b55565b602060405180830381865af41580156136c8573d6000803e3d6000fd5b505050506040513d601f19601f820116820180604052508101906136ec919061454e565b6137a9576000806136fc85613b09565b915091508161371e57604051630e991abd60e41b815260040160405180910390fd5b8351606001516003820154600160401b90046001600160401b0390811691161461375b5760405163a57cadff60e01b815260040160405180910390fd5b60018160030160088282829054906101000a90046001600160401b03166137829190615e9c565b92506101000a8154816001600160401b0302191690836001600160401b0316021790555050505b60008160018111156137bd576137bd614b85565b0361384857815160600151600e54600160401b90046001600160401b039081169116146137fd5760405163a57cadff60e01b815260040160405180910390fd5b600e805460019190600890613823908490600160401b90046001600160401b0316615e9c565b92506101000a8154816001600160401b0302191690836001600160401b031602179055505b604051635c46fefb60e11b815273__$33b79814e84bf6cf5e47244090b19ce5f8$__9063b88dfdf69061387f908590600401615f1f565b600060405180830381865af415801561389c573d6000803e3d6000fd5b505050506040513d6000823e601f3d908101601f1916820160405261206f9190810190615f32565b60006138cf83613e06565b6000818152600160208181526040909220865180518051805184546001600160401b0319166001600160401b039091161784558086015180519798508a9794969395879593948694859361392793850192019061400c565b505050602082810151805160028401805460ff191660ff90921691909117815591810151909190600384019061395d9082615de3565b50505050602083810151805180516004860180546001600160401b0319166001600160401b039092169190911781558184015180519395509093919284926139ac92600589019291019061400c565b505050602082810151805160028401805460ff191660ff9092169190911781559181015190919060038401906139e29082615de3565b5050505060408301516008830155506060820151600982018054608085015160e01c600160401b026001600160601b03199091166001600160401b039093169290921791909117905560a0820151600a820190613a3f9082615de3565b50505060209190910151600b909101805460ff191691151591909117905550505050565b60008073ffffffffffffffffffffffff0000000000000000831660ff60981b8103613a9957600192506001600160401b03841691505b50915091565b600080826000526016600a602060006002607f60991b015afa9150600051806001600160a01b031691508060a01c61ffff16905061040a8114613ae55760009250600091505b50811580613af457503d601614155b15613b0457506000928392509050565b915091565b6040516390ba52cf60e01b8152600090819081908190819073__$a0fe38a9a81205afccc10810b09a4d3f45$__906390ba52cf90613b4b908990600401614b55565b602060405180830381865af4158015613b68573d6000803e3d6000fd5b505050506040513d601f19601f82011682018060405250810190613b8c9190614e58565b81526020808201929092526040908101600020815180830183526004820180546001600160401b031682526005830180548551818802810188019096528086529397509194909385820193909291830182828015613c1357602002820191906000526020600020905b81546001600160a01b03168152600190910190602001808311613bf5575b505050919092525050604051630c133d1360e31b815273__$a0fe38a9a81205afccc10810b09a4d3f45$__92636099e8989250613c5291600401614b55565b602060405180830381865af4158015613c6f573d6000803e3d6000fd5b505050506040513d601f19601f82011682018060405250810190613c93919061454e565b15925050915091565b600081613ca98185615f9f565b613cb4906001615e9c565b613cbe9190615fc5565b90505b92915050565b6060613cbe83836000613e36613e4f565b7f283d1424c49941ba61504663c7a1b6f59e6bbb963a00bcc130bcbf9c29e1e2735460009060008051602061615c833981519152908290606490613d1f9060ff168661504f565b613d299190615ff0565b604051637d2ef4e560e11b81526004810187905290915060009073__$e0f829f5071d7e628aa77eca0c12e35bc2$__9063fa5de9ca90602401602060405180830381865af4158015613d7f573d6000803e3d6000fd5b505050506040513d601f19601f82011682018060405250810190613da39190614e58565b905081866001015411613dbc5760009350505050613cc1565b81811115613dd05760039350505050613cc1565b6001860154613ddf9086614423565b613de98284614423565b10613dfa5760029350505050613cc1565b50600195945050505050565b600081604051602001613e199190616097565b604051602081830303815290604052805190602001209050919050565b604051630a12f52160e11b815260040160405180910390fd5b606082471015613e795760405163cd78605960e01b81523060048201526024015b60405180910390fd5b600080866001600160a01b03168587604051613e959190616149565b60006040518083038185875af1925050503d8060008114613ed2576040519150601f19603f3d011682016040523d82523d6000602084013e613ed7565b606091505b5091509150613ee887838387613ef5565b925050505b949350505050565b60608315613f43578251600003613f3c57846001600160a01b03163b600003613f3c57604051639996b31560e01b81526001600160a01b0386166004820152602401613e70565b5081613eed565b613eed8383815115613f585781518083602001fd5b613e368163ffffffff16565b50805460008255906000526020600020908101906121a39190614061565b508054613f8e9061411c565b6000825580601f10613f9e575050565b601f0160209004906000526020600020908101906121a39190614061565b828054828255906000526020600020908101928215613ffc5760005260206000209182015b82811115613ffc578254825591600101919060010190613fe1565b50614008929150614061565b5090565b828054828255906000526020600020908101928215613ffc579160200282015b82811115613ffc57825182546001600160a01b0319166001600160a01b0390911617825560209092019160019091019061402c565b5b808211156140085760008155600101614062565b60006020828403121561408857600080fd5b5035919050565b6000604082840312156140a157600080fd5b50919050565b6000602082840312156140b957600080fd5b81356001600160401b038111156140cf57600080fd5b613eed8482850161408f565b6000602082840312156140ed57600080fd5b81356001600160401b0381111561410357600080fd5b820160e0818503121561411557600080fd5b9392505050565b600181811c9082168061413057607f821691505b6020821081036140a157634e487b7160e01b600052602260045260246000fd5b6000604083016001600160401b0383511684526020808401516040828701528281518085526060880191508383019450600092505b808310156141ae5784516001600160a01b03168252938301936001929092019190830190614185565b509695505050505050565b6000604083016001600160401b0383541684526001808401602060408188015283825480865260608901915083600052826000209550600093505b8084101561421a5785546001600160a01b031682529484019492840192908201906141f4565b50979650505050505050565b6040815260006142396040830185614150565b82810360208401526127d981856141b9565b634e487b7160e01b600052604160045260246000fd5b604080519081016001600160401b03811182821017156142835761428361424b565b60405290565b60405160c081016001600160401b03811182821017156142835761428361424b565b604051601f8201601f191681016001600160401b03811182821017156142d3576142d361424b565b604052919050565b6001600160401b03811681146121a357600080fd5b60006001600160401b038211156143095761430961424b565b5060051b60200190565b6001600160a01b03811681146121a357600080fd5b6000602080838503121561433b57600080fd5b82516001600160401b038082111561435257600080fd5b908401906040828703121561436657600080fd5b61436e614261565b8251614379816142db565b8152828401518281111561438c57600080fd5b80840193505086601f8401126143a157600080fd5b825191506143b66143b1836142f0565b6142ab565b82815260059290921b830184019184810190888411156143d557600080fd5b938501935b838510156143fc5784516143ed81614313565b825293850193908501906143da565b948201949094529695505050505050565b634e487b7160e01b600052601160045260246000fd5b81810381811115613cc157613cc161440d565b6000823560be1983360301811261444c57600080fd5b9190910192915050565b60008235603e1983360301811261444c57600080fd5b8035614477816142db565b919050565b60006040828403121561448e57600080fd5b614496614261565b905081356144a3816142db565b81526020828101356001600160401b038111156144bf57600080fd5b8301601f810185136144d057600080fd5b80356144de6143b1826142f0565b81815260059190911b820183019083810190878311156144fd57600080fd5b928401925b8284101561452457833561451581614313565b82529284019290840190614502565b8085870152505050505092915050565b6000613cc1368361447c565b80151581146121a357600080fd5b60006020828403121561456057600080fd5b815161411581614540565b60ff811681146121a357600080fd5b60006001600160401b038211156145935761459361424b565b50601f01601f191660200190565b600082601f8301126145b257600080fd5b81356145c06143b18261457a565b8181528460208386010111156145d557600080fd5b816020850160208301376000918101602001919091529392505050565b60006040828403121561460457600080fd5b61460c614261565b905081356001600160401b038082111561462557600080fd5b6146318583860161447c565b8352602084013591508082111561464757600080fd5b908301906040828603121561465b57600080fd5b614663614261565b823561466e8161456b565b815260208301358281111561468257600080fd5b61468e878286016145a1565b60208301525080602085015250505092915050565b6001600160e01b0319811681146121a357600080fd5b8035614477816146a3565b803561447781614540565b6000604082840312156146e157600080fd5b6146e9614261565b905081356001600160401b038082111561470257600080fd5b9083019060c0828603121561471657600080fd5b61471e614289565b82358281111561472d57600080fd5b614739878286016145f2565b82525060208301358281111561474e57600080fd5b61475a878286016145f2565b602083015250604083013560408201526147766060840161446c565b6060820152614787608084016146b9565b608082015260a08301358281111561479e57600080fd5b6147aa878286016145a1565b60a0830152508352506147c19050602083016146c4565b602082015292915050565b6000613cc136836146cf565b6000602082840312156147ea57600080fd5b8135614115816142db565b6000808335601e1984360301811261480c57600080fd5b8301803591506001600160401b0382111561482657600080fd5b6020019150600581901b360382131561483e57600080fd5b9250929050565b60008235603e1983360301811261485b57600080fd5b90910192915050565b6000808335601e1984360301811261487b57600080fd5b83016020810192503590506001600160401b0381111561489a57600080fd5b8060051b360382131561483e57600080fd5b60006040830182356148bd816142db565b6001600160401b0316845260206148d684820185614864565b6040878401529283905291600090606087015b818310156149195784356148fc81614313565b6001600160a01b03168152938301936001929092019183016148e9565b979650505050505050565b6000808335601e1984360301811261493b57600080fd5b83016020810192503590506001600160401b0381111561495a57600080fd5b80360382131561483e57600080fd5b81835281816020850137506000828201602090810191909152601f909101601f19169091010190565b600061499e8283614845565b604084526149af60408501826148ac565b90506149be6020840184614845565b848203602086015280356149d18161456b565b60ff1682526149e36020820182614924565b9150604060208401526149fa604084018383614969565b9695505050505050565b81835260006020808501808196508560051b81019150846000805b88811015614b33578385038a52614a368389614845565b6040813560be19833603018112614a4b578485fd5b8188528201614a5a8180614845565b60c080848b0152614a6f6101008b0183614992565b9150614a7d8b840184614845565b603f196060818d860301818e0152614a958584614992565b94506080925086860135838e015280860135965050614ab3866142db565b60a06001600160401b038716818e0152828601359650614ad2876146a3565b6001600160e01b031987168d850152614aed86820187614924565b9750955050808c85030160e08d0152505050614b0a818484614969565b92505050614b198883016146c4565b151596880196909652509885019891850191600101614a1f565b509298975050505050505050565b602081526000613eed602083018486614a04565b602081526000613cbe6020830184614150565b600060208284031215614b7a57600080fd5b815161411581614313565b634e487b7160e01b600052602160045260246000fd5b60005b83811015614bb6578181015183820152602001614b9e565b50506000910152565b60008151808452614bd7816020860160208601614b9b565b601f01601f19169290920160200192915050565b6000815160408452614c006040850182614150565b90506020830151848203602086015260ff815116825260208101519050604060208301526127d96040830182614bbf565b6000815160c08452614c4660c0850182614beb565b905060208301518482036020860152614c5f8282614beb565b915050604083015160408501526001600160401b03606084015116606085015263ffffffff60e01b608084015116608085015260a083015184820360a08601526127d98282614bbf565b6000815160408452614cbe6040850182614c31565b6020938401511515949093019390935250919050565b600081518084526020808501808196508360051b8101915082860160005b85811015614d1c578284038952614d0a848351614ca9565b98850198935090840190600101614cf2565b5091979650505050505050565b600081518084526020808501808196508360051b810191508286016000805b86811015614b33578385038a52825160408151818852614d6a82890182614150565b92890151888403898b01528051808552908a01938693508a0191505b80831015614da65783518252928901926001929092019190890190614d86565b509b88019b9650505091850191600101614d48565b602081526000825160e06020840152614dd8610100840182614150565b90506001600160401b036020850151166040840152604084015160608401526060840151601f1980858403016080860152614e138383614cd4565b925060808601519150808584030160a0860152614e308383614d29565b925060a086015160c086015260c08601519150808584030160e0860152506127d98282614bbf565b600060208284031215614e6a57600080fd5b5051919050565b81835260006020808501808196506005915085821b8101856000805b89811015614f0d578484038b52614ea4838a614845565b6040614eb08283614845565b818752614ebf828801826148ac565b915050614ece89830183614864565b8783038b89015280835292506001600160fb1b03831115614eed578485fd5b91881b918281838c0137509b88019b018701935091860191600101614e8d565b50919998505050505050505050565b85815260a060208201526000614f328687614845565b60e060a0840152614f476101808401826148ac565b90506020870135614f57816142db565b6001600160401b031660c0840152604087013560e0840152614f7c6060880188614864565b609f198086850301610100870152614f95848385614a04565b9350614fa460808b018b614864565b935091508086850301610120870152614fbe848484614e71565b935060a08a0135610140870152614fd860c08b018b614924565b93509150808685030161016087015250614ff3838383614969565b93505050508460408301528360608301526149fa60808301846001600160401b03169052565b634e487b7160e01b600052603260045260246000fd5b80820180821115613cc157613cc161440d565b60008135613cc1816142db565b8082028115828204841417613cc157613cc161440d565b5b818110156130805760008155600101615067565b80546000825580156130805781600052602060002061083582820182615066565b600160401b8211156150b0576150b061424b565b8054828255808310156108355781600052602060002061206f828201858301615066565b600081556121a36001820161507b565b600019600383901b1c191660019190911b1790565b615103815461411c565b801561308057601f81116001811461511d57505060009055565b82600052602060002061513b601f840160051c820160018301615066565b60008085559055505050565b600081556151576001820161507b565b600060028201556121a3600382016150f9565b6000808335601e1984360301811261518157600080fd5b8301803591506001600160401b0382111561519b57600080fd5b60200191503681900382131561483e57600080fd5b601f82111561083557806000526020600020601f840160051c810160208510156151d75750805b6111b0601f850160051c830182615066565b6001600160401b038311156152005761520061424b565b6152148361520e835461411c565b836151b0565b6000601f84116001811461524257600085156152305750838201355b61523a86826150e4565b8455506111b0565b600083815260209020601f19861690835b828110156152735786850135825560209485019460019092019101615253565b50868210156152905760001960f88860031b161c19848701351681555b505060018560011b0183555050505050565b6152ac8283614456565b80356152b7816142db565b82546001600160401b0319166001600160401b03821617835550600180830160206152e4818501856147f5565b94506001600160401b03808611156152fe576152fe61424b565b615308868561509c565b600093845282842093805b8781101561533557833561532681614313565b86820155928401928601615313565b50600288019650615348848a018a614456565b9450843592506153578361456b565b865460ff191660ff84161790965560038701956153768585018661516a565b955092508185111561538a5761538a61424b565b61539e85615398895461411c565b896151b0565b809150601f8511600181146153cc578186156153ba5750838301355b6153c487826150e4565b895550615421565b600088815260209020601f19871690835b828110156153fa57868601358255948701949089019087016153dd565b50878210156154175760001960f88960031b161c19858701351681555b50508686881b0188555b50505050505050505050565b60008135613cc1816146a3565b60008135613cc181614540565b813560be1983360301811261545b57600080fd5b82016154678180614456565b6154718182614456565b803561547c816142db565b84546001600160401b0319166001600160401b03821617855550600180850160206154a9818501856147f5565b94506001600160401b03808611156154c3576154c361424b565b6154cd868561509c565b600093845282842093805b878110156154fa5783356154eb81614313565b868201559284019286016154d8565b5060028a01965061550d84890189614456565b97508735945061551c8561456b565b865460ff191660ff861617909655600389019561553b8885018961516a565b985094508188111561554f5761554f61424b565b61555d88615398895461411c565b809250601f88116001811461558d57819250881561557c578386013592505b61558689846150e4565b88556155e2565b600088815260209020601f198a169350825b848110156155bc578786013582559486019490880190860161559f565b50898410156155d95760001960f88b60031b161c19858801351681555b508689881b0188555b505050506155fe6155f582880188614456565b600489016152a2565b6040860135600888015560098701945061563a61561d60608801615042565b86546001600160401b0319166001600160401b0391909116178655565b6156736156496080880161542d565b86546bffffffff0000000000000000191660a09190911c6bffffffff000000000000000016178655565b61568060a087018761516a565b965094506156928686600a8a016151e9565b6156b96156a0828a0161543a565b600b890160ff1981541660ff8315151681178255505050565b5050505050505050565b600160401b8311156156d7576156d761424b565b80548382558084101561576b57600c81810281810483146156fa576156fa61440d565b858202828104871461570e5761570e61440d565b6000858152602081209283019291909101905b828210156157665761573282615147565b61573e60048301615147565b806008830155806009830155615756600a83016150f9565b80600b8301558382019150615721565b505050505b5060008181526020812083915b858110156157a95761579361578d8487614456565b83615447565b60209290920191600c9190910190600101615778565b505050505050565b80546000808355811561083557828152602081208281015b808210156111b0578282556001820191506157c9565b600160401b8211156157f3576157f361424b565b805482825580831015610835576000828152602081208481019083015b808210156157a957828255600182019150615810565b6158308283614456565b803561583b816142db565b82546001600160401b0319166001600160401b0382161783555060018083016020615868818501856147f5565b94506001600160401b03808611156158825761588261424b565b61588c868561509c565b600093845282842093805b878110156158b95783356158aa81614313565b86820155928401928601615897565b506002880196506158cc848a018a6147f5565b95509250818511156158e0576158e061424b565b6158ea85886157df565b95865250818520945b838110156156b9578135868201559082019084016158f3565b600160401b8311156159205761592061424b565b80548382558084101561598e57600381810281810483146159435761594361440d565b85820282810487146159575761595761440d565b60008581526020902091820191015b8181101561598a57615977816150d4565b615983600282016157b1565b8201615966565b5050505b5060008181526020812083915b858110156157a9576159b66159b08487614456565b83615826565b602092909201916003919091019060010161599b565b6159d68283614456565b80356159e1816142db565b82546001600160401b0319166001600160401b0382161783555060018083016020615a0e818501856147f5565b94506001600160401b03851115615a2757615a2761424b565b615a31858461509c565b6000928352818320925b85811015615a5d578135615a4e81614313565b84820155908201908401615a3b565b5050615a8e615a6d828801615042565b600287016001600160401b0382166001600160401b03198254161781555050565b5050505060408201356003820155615aa960608301836147f5565b615ab78183600486016156c3565b5050615ac660808301836147f5565b615ad481836005860161590c565b505060a08201356006820155615aed60c083018361516a565b61206f8183600786016151e9565b6000615b096143b1846142f0565b8381529050602080820190600585901b840186811115615b2857600080fd5b845b81811015615b635780356001600160401b03811115615b495760008081fd5b615b55898289016146cf565b855250928201928201615b2a565b505050509392505050565b6000613cbe368484615afb565b6040815260006142396040830185614c31565b600060208284031215615ba057600080fd5b81516002811061411557600080fd5b604081526000615bc26040830185614150565b82810360208401526127d98185614150565b60006001600160401b03808316818103615bf057615bf061440d565b6001019392505050565b600060408236031215615c0c57600080fd5b615c14614261565b8235615c1f816142db565b815260208301356001600160401b03811115615c3a57600080fd5b830136601f820112615c4b57600080fd5b615c5a36823560208401615afb565b60208301525092915050565b602081526001600160401b03825116602082015260006020830151604080840152613eed6060840182614cd4565b8135615c9f816142db565b81546001600160401b0319166001600160401b0382161782555060018082016020615ccc818601866147f5565b600160401b811115615ce057615ce061424b565b835481855580821015615d7357600c8181028181048314615d0357615d0361440d565b8382028281048514615d1757615d1761440d565b60008881528781209283019291909101905b82821015615d6e57615d3a82615147565b615d4660048301615147565b806008830155806009830155615d5e600a83016150f9565b80600b8301558382019150615d29565b505050505b506000938452602084209382905b82811015615dae57615d9c615d968386614456565b87615447565b600c9590950194908401908601615d81565b505050505050505050565b604081526000615dcc6040830185614150565b905060018060a01b03831660208301529392505050565b81516001600160401b03811115615dfc57615dfc61424b565b615e1081615e0a845461411c565b846151b0565b602080601f831160018114615e3f5760008415615e2d5750858301515b615e3785826150e4565b8655506157a9565b600085815260208120601f198616915b82811015615e6e57888601518255948401946001909101908401615e4f565b5085821015615e8c5787850151600019600388901b60f8161c191681555b5050505050600190811b01905550565b6001600160401b03818116838216019080821115615ebc57615ebc61440d565b5092915050565b6001600160401b03828116828216039080821115615ebc57615ebc61440d565b634e487b7160e01b600052601260045260246000fd5b60006001600160401b0380841680615f1357615f13615ee3565b92169190910692915050565b602081526000613cbe6020830184614ca9565b600060208284031215615f4457600080fd5b81516001600160401b03811115615f5a57600080fd5b8201601f81018413615f6b57600080fd5b8051615f796143b18261457a565b818152856020838501011115615f8e57600080fd5b6127d9826020830160208601614b9b565b60006001600160401b0380841680615fb957615fb9615ee3565b92169190910492915050565b6001600160401b03818116838216028082169190828114615fe857615fe861440d565b505092915050565b600082615fff57615fff615ee3565b500490565b8051604080845281516001600160401b031684820152602091820151606085019190915280516080850181905260009291820191839160a08701905b808410156160695784516001600160a01b03168252938201936001939093019290820190616040565b508186015193508681038288015260ff84511681528184015193506040828201526149196040820185614bbf565b602081526000825160406020840152805160c060608501526160bd610120850182616004565b90506020820151605f19808684030160808701526160db8383616004565b9250604084015160a08701526001600160401b0360608501511660c087015263ffffffff60e01b60808501511660e087015260a084015193508086840301610100870152505061612b8183614bbf565b9150506020840151616141604085018215159052565b509392505050565b6000825161444c818460208701614b9b56fe283d1424c49941ba61504663c7a1b6f59e6bbb963a00bcc130bcbf9c29e1e270a2646970667358221220e4d93e06942e0372e3e225f5a5bed5ea268125a45a170e8906395b9afeb23a4b64736f6c63430008130033",
    "linkReferences": {
      "src/lib/AccountHelper.sol": {
        "AccountHelper": [
          {
            "start": 8512,
            "length": 20
          }
        ]
      },
      "src/lib/CheckpointHelper.sol": {
        "CheckpointHelper": [
          {
            "start": 6611,
            "length": 20
          },
          {
            "start": 6873,
            "length": 20
          },
          {
            "start": 8674,
            "length": 20
          },
          {
            "start": 9834,
            "length": 20
          }
        ]
      },
      "src/lib/CrossMsgHelper.sol": {
        "CrossMsgHelper": [
          {
            "start": 2274,
            "length": 20
          },
          {
            "start": 14456,
            "length": 20
          }
        ]
      },
      "src/lib/EpochVoteSubmissionHelper.sol": {
        "EpochVoteSubmissionHelper": [
          {
            "start": 12949,
            "length": 20
          },
          {
            "start": 15718,
            "length": 20
          }
        ]
      },
      "src/lib/ExecutableQueueHelper.sol": {
        "ExecutableQueueHelper": [
          {
            "start": 12820,
            "length": 20
          },
          {
            "start": 13113,
            "length": 20
          },
          {
            "start": 13285,
            "length": 20
          }
        ]
      },
      "src/lib/StorableMsgHelper.sol": {
        "StorableMsgHelper": [
          {
            "start": 7638,
            "length": 20
          },
          {
            "start": 13706,
            "length": 20
          }
        ]
      },
      "src/lib/SubnetIDHelper.sol": {
        "SubnetIDHelper": [
          {
            "start": 1286,
            "length": 20
          },
          {
            "start": 1780,
            "length": 20
          },
          {
            "start": 2016,
            "length": 20
          },
          {
            "start": 4648,
            "length": 20
          },
          {
            "start": 7325,
            "length": 20
          },
          {
            "start": 7475,
            "length": 20
          },
          {
            "start": 7789,
            "length": 20
          },
          {
            "start": 7915,
            "length": 20
          },
          {
            "start": 8223,
            "length": 20
          },
          {
            "start": 10426,
            "length": 20
          },
          {
            "start": 10755,
            "length": 20
          },
          {
            "start": 11551,
            "length": 20
          },
          {
            "start": 13494,
            "length": 20
          },
          {
            "start": 13837,
            "length": 20
          },
          {
            "start": 13988,
            "length": 20
          },
          {
            "start": 15172,
            "length": 20
          },
          {
            "start": 15436,
            "length": 20
          }
        ]
      }
    }
  },
  "methodIdentifiers": {
    "commitChildCheck(((uint64,address[]),uint64,uint256,((((uint64,address[]),(uint8,bytes)),((uint64,address[]),(uint8,bytes)),uint256,uint64,bytes4,bytes),bool)[],((uint64,address[]),bytes32[])[],bytes32,bytes))": "d4e149a8",
    "propagate(bytes32)": "25bf0db6",
    "sendCrossMessage(((((uint64,address[]),(uint8,bytes)),((uint64,address[]),(uint8,bytes)),uint256,uint64,bytes4,bytes),bool))": "2f757dd1",
    "submitTopDownCheckpoint((uint64,((((uint64,address[]),(uint8,bytes)),((uint64,address[]),(uint8,bytes)),uint256,uint64,bytes4,bytes),bool)[]))": "986acf38"
  },
  "id": 36
}