{
  "abi": [
    {
      "inputs": [
        {
          "components": [
            {
              "components": [
                {
                  "internalType": "uint64",
                  "name": "root",
                  "type": "uint64"
                },
                {
                  "internalType": "address[]",
                  "name": "route",
                  "type": "address[]"
                }
              ],
              "internalType": "struct SubnetID",
              "name": "networkName",
              "type": "tuple"
            },
            {
              "internalType": "uint64",
              "name": "bottomUpCheckPeriod",
              "type": "uint64"
            },
            {
              "internalType": "uint64",
              "name": "topDownCheckPeriod",
              "type": "uint64"
            },
            {
              "internalType": "uint256",
              "name": "msgFee",
              "type": "uint256"
            },
            {
              "internalType": "uint8",
              "name": "majorityPercentage",
              "type": "uint8"
            }
          ],
          "internalType": "struct Gateway.ConstructorParams",
          "name": "params",
          "type": "tuple"
        }
      ],
      "stateMutability": "nonpayable",
      "type": "constructor"
    },
    {
      "inputs": [],
      "name": "AlreadyInitialized",
      "type": "error"
    },
    {
      "inputs": [],
      "name": "AlreadyRegisteredSubnet",
      "type": "error"
    },
    {
      "inputs": [],
      "name": "CallFailed",
      "type": "error"
    },
    {
      "inputs": [],
      "name": "CannotReleaseZero",
      "type": "error"
    },
    {
      "inputs": [],
      "name": "CannotSendCrossMsgToItself",
      "type": "error"
    },
    {
      "inputs": [],
      "name": "EmptySubnet",
      "type": "error"
    },
    {
      "inputs": [],
      "name": "EpochAlreadyExecuted",
      "type": "error"
    },
    {
      "inputs": [],
      "name": "EpochNotVotable",
      "type": "error"
    },
    {
      "inputs": [],
      "name": "InconsistentPrevCheckpoint",
      "type": "error"
    },
    {
      "inputs": [],
      "name": "InsufficientFunds",
      "type": "error"
    },
    {
      "inputs": [],
      "name": "InvalidActorAddress",
      "type": "error"
    },
    {
      "inputs": [],
      "name": "InvalidCheckpointEpoch",
      "type": "error"
    },
    {
      "inputs": [],
      "name": "InvalidCheckpointSource",
      "type": "error"
    },
    {
      "inputs": [],
      "name": "InvalidCrossMsgDestinationSubnet",
      "type": "error"
    },
    {
      "inputs": [],
      "name": "InvalidCrossMsgFromSubnetId",
      "type": "error"
    },
    {
      "inputs": [],
      "name": "InvalidCrossMsgNonce",
      "type": "error"
    },
    {
      "inputs": [],
      "name": "InvalidCrossMsgsSortOrder",
      "type": "error"
    },
    {
      "inputs": [],
      "name": "InvalidMajorityPercentage",
      "type": "error"
    },
    {
      "inputs": [],
      "name": "MessagesNotSorted",
      "type": "error"
    },
    {
      "inputs": [],
      "name": "MethodNotSupportedYet",
      "type": "error"
    },
    {
      "inputs": [],
      "name": "NotEmptySubnetCircSupply",
      "type": "error"
    },
    {
      "inputs": [],
      "name": "NotEnoughBalance",
      "type": "error"
    },
    {
      "inputs": [],
      "name": "NotEnoughFee",
      "type": "error"
    },
    {
      "inputs": [],
      "name": "NotEnoughFunds",
      "type": "error"
    },
    {
      "inputs": [],
      "name": "NotEnoughFundsForMembership",
      "type": "error"
    },
    {
      "inputs": [],
      "name": "NotEnoughFundsToRelease",
      "type": "error"
    },
    {
      "inputs": [],
      "name": "NotEnoughSubnetCircSupply",
      "type": "error"
    },
    {
      "inputs": [],
      "name": "NotInitialized",
      "type": "error"
    },
    {
      "inputs": [],
      "name": "NotRegisteredSubnet",
      "type": "error"
    },
    {
      "inputs": [],
      "name": "NotSignableAccount",
      "type": "error"
    },
    {
      "inputs": [],
      "name": "NotSystemActor",
      "type": "error"
    },
    {
      "inputs": [],
      "name": "NotValidator",
      "type": "error"
    },
    {
      "inputs": [],
      "name": "PostboxNotExist",
      "type": "error"
    },
    {
      "inputs": [],
      "name": "SubnetNotActive",
      "type": "error"
    },
    {
      "inputs": [],
      "name": "ValidatorAlreadyVoted",
      "type": "error"
    },
    {
      "inputs": [],
      "name": "ValidatorWeightIsZero",
      "type": "error"
    },
    {
      "inputs": [],
      "name": "ValidatorsAndWeightsLengthMismatch",
      "type": "error"
    },
    {
      "inputs": [],
      "name": "MIN_CHECKPOINT_PERIOD",
      "outputs": [
        {
          "internalType": "uint8",
          "name": "",
          "type": "uint8"
        }
      ],
      "stateMutability": "view",
      "type": "function"
    },
    {
      "inputs": [],
      "name": "MIN_COLLATERAL_AMOUNT",
      "outputs": [
        {
          "internalType": "uint256",
          "name": "",
          "type": "uint256"
        }
      ],
      "stateMutability": "view",
      "type": "function"
    },
    {
      "inputs": [],
      "name": "addStake",
      "outputs": [],
      "stateMutability": "payable",
      "type": "function"
    },
    {
      "inputs": [],
      "name": "appliedTopDownNonce",
      "outputs": [
        {
          "internalType": "uint64",
          "name": "",
          "type": "uint64"
        }
      ],
      "stateMutability": "view",
      "type": "function"
    },
    {
      "inputs": [],
      "name": "bottomUpCheckPeriod",
      "outputs": [
        {
          "internalType": "uint64",
          "name": "",
          "type": "uint64"
        }
      ],
      "stateMutability": "view",
      "type": "function"
    },
    {
      "inputs": [
        {
          "internalType": "uint64",
          "name": "epoch",
          "type": "uint64"
        }
      ],
      "name": "bottomUpCheckpointAtEpoch",
      "outputs": [
        {
          "internalType": "bool",
          "name": "exists",
          "type": "bool"
        },
        {
          "components": [
            {
              "components": [
                {
                  "internalType": "uint64",
                  "name": "root",
                  "type": "uint64"
                },
                {
                  "internalType": "address[]",
                  "name": "route",
                  "type": "address[]"
                }
              ],
              "internalType": "struct SubnetID",
              "name": "source",
              "type": "tuple"
            },
            {
              "internalType": "uint64",
              "name": "epoch",
              "type": "uint64"
            },
            {
              "internalType": "uint256",
              "name": "fee",
              "type": "uint256"
            },
            {
              "components": [
                {
                  "components": [
                    {
                      "components": [
                        {
                          "components": [
                            {
                              "internalType": "uint64",
                              "name": "root",
                              "type": "uint64"
                            },
                            {
                              "internalType": "address[]",
                              "name": "route",
                              "type": "address[]"
                            }
                          ],
                          "internalType": "struct SubnetID",
                          "name": "subnetId",
                          "type": "tuple"
                        },
                        {
                          "components": [
                            {
                              "internalType": "uint8",
                              "name": "addrType",
                              "type": "uint8"
                            },
                            {
                              "internalType": "bytes",
                              "name": "payload",
                              "type": "bytes"
                            }
                          ],
                          "internalType": "struct FvmAddress",
                          "name": "rawAddress",
                          "type": "tuple"
                        }
                      ],
                      "internalType": "struct IPCAddress",
                      "name": "from",
                      "type": "tuple"
                    },
                    {
                      "components": [
                        {
                          "components": [
                            {
                              "internalType": "uint64",
                              "name": "root",
                              "type": "uint64"
                            },
                            {
                              "internalType": "address[]",
                              "name": "route",
                              "type": "address[]"
                            }
                          ],
                          "internalType": "struct SubnetID",
                          "name": "subnetId",
                          "type": "tuple"
                        },
                        {
                          "components": [
                            {
                              "internalType": "uint8",
                              "name": "addrType",
                              "type": "uint8"
                            },
                            {
                              "internalType": "bytes",
                              "name": "payload",
                              "type": "bytes"
                            }
                          ],
                          "internalType": "struct FvmAddress",
                          "name": "rawAddress",
                          "type": "tuple"
                        }
                      ],
                      "internalType": "struct IPCAddress",
                      "name": "to",
                      "type": "tuple"
                    },
                    {
                      "internalType": "uint256",
                      "name": "value",
                      "type": "uint256"
                    },
                    {
                      "internalType": "uint64",
                      "name": "nonce",
                      "type": "uint64"
                    },
                    {
                      "internalType": "bytes4",
                      "name": "method",
                      "type": "bytes4"
                    },
                    {
                      "internalType": "bytes",
                      "name": "params",
                      "type": "bytes"
                    }
                  ],
                  "internalType": "struct StorableMsg",
                  "name": "message",
                  "type": "tuple"
                },
                {
                  "internalType": "bool",
                  "name": "wrapped",
                  "type": "bool"
                }
              ],
              "internalType": "struct CrossMsg[]",
              "name": "crossMsgs",
              "type": "tuple[]"
            },
            {
              "components": [
                {
                  "components": [
                    {
                      "internalType": "uint64",
                      "name": "root",
                      "type": "uint64"
                    },
                    {
                      "internalType": "address[]",
                      "name": "route",
                      "type": "address[]"
                    }
                  ],
                  "internalType": "struct SubnetID",
                  "name": "source",
                  "type": "tuple"
                },
                {
                  "internalType": "bytes32[]",
                  "name": "checks",
                  "type": "bytes32[]"
                }
              ],
              "internalType": "struct ChildCheck[]",
              "name": "children",
              "type": "tuple[]"
            },
            {
              "internalType": "bytes32",
              "name": "prevHash",
              "type": "bytes32"
            },
            {
              "internalType": "bytes",
              "name": "proof",
              "type": "bytes"
            }
          ],
          "internalType": "struct BottomUpCheckpoint",
          "name": "checkpoint",
          "type": "tuple"
        }
      ],
      "stateMutability": "view",
      "type": "function"
    },
    {
      "inputs": [
        {
          "internalType": "uint64",
          "name": "epoch",
          "type": "uint64"
        }
      ],
      "name": "bottomUpCheckpointHashAtEpoch",
      "outputs": [
        {
          "internalType": "bool",
          "name": "",
          "type": "bool"
        },
        {
          "internalType": "bytes32",
          "name": "",
          "type": "bytes32"
        }
      ],
      "stateMutability": "view",
      "type": "function"
    },
    {
      "inputs": [
        {
          "internalType": "uint64",
          "name": "",
          "type": "uint64"
        }
      ],
      "name": "bottomUpCheckpoints",
      "outputs": [
        {
          "components": [
            {
              "internalType": "uint64",
              "name": "root",
              "type": "uint64"
            },
            {
              "internalType": "address[]",
              "name": "route",
              "type": "address[]"
            }
          ],
          "internalType": "struct SubnetID",
          "name": "source",
          "type": "tuple"
        },
        {
          "internalType": "uint64",
          "name": "epoch",
          "type": "uint64"
        },
        {
          "internalType": "uint256",
          "name": "fee",
          "type": "uint256"
        },
        {
          "internalType": "bytes32",
          "name": "prevHash",
          "type": "bytes32"
        },
        {
          "internalType": "bytes",
          "name": "proof",
          "type": "bytes"
        }
      ],
      "stateMutability": "view",
      "type": "function"
    },
    {
      "inputs": [],
      "name": "bottomUpNonce",
      "outputs": [
        {
          "internalType": "uint64",
          "name": "",
          "type": "uint64"
        }
      ],
      "stateMutability": "view",
      "type": "function"
    },
    {
      "inputs": [
        {
          "components": [
            {
              "components": [
                {
                  "internalType": "uint64",
                  "name": "root",
                  "type": "uint64"
                },
                {
                  "internalType": "address[]",
                  "name": "route",
                  "type": "address[]"
                }
              ],
              "internalType": "struct SubnetID",
              "name": "source",
              "type": "tuple"
            },
            {
              "internalType": "uint64",
              "name": "epoch",
              "type": "uint64"
            },
            {
              "internalType": "uint256",
              "name": "fee",
              "type": "uint256"
            },
            {
              "components": [
                {
                  "components": [
                    {
                      "components": [
                        {
                          "components": [
                            {
                              "internalType": "uint64",
                              "name": "root",
                              "type": "uint64"
                            },
                            {
                              "internalType": "address[]",
                              "name": "route",
                              "type": "address[]"
                            }
                          ],
                          "internalType": "struct SubnetID",
                          "name": "subnetId",
                          "type": "tuple"
                        },
                        {
                          "components": [
                            {
                              "internalType": "uint8",
                              "name": "addrType",
                              "type": "uint8"
                            },
                            {
                              "internalType": "bytes",
                              "name": "payload",
                              "type": "bytes"
                            }
                          ],
                          "internalType": "struct FvmAddress",
                          "name": "rawAddress",
                          "type": "tuple"
                        }
                      ],
                      "internalType": "struct IPCAddress",
                      "name": "from",
                      "type": "tuple"
                    },
                    {
                      "components": [
                        {
                          "components": [
                            {
                              "internalType": "uint64",
                              "name": "root",
                              "type": "uint64"
                            },
                            {
                              "internalType": "address[]",
                              "name": "route",
                              "type": "address[]"
                            }
                          ],
                          "internalType": "struct SubnetID",
                          "name": "subnetId",
                          "type": "tuple"
                        },
                        {
                          "components": [
                            {
                              "internalType": "uint8",
                              "name": "addrType",
                              "type": "uint8"
                            },
                            {
                              "internalType": "bytes",
                              "name": "payload",
                              "type": "bytes"
                            }
                          ],
                          "internalType": "struct FvmAddress",
                          "name": "rawAddress",
                          "type": "tuple"
                        }
                      ],
                      "internalType": "struct IPCAddress",
                      "name": "to",
                      "type": "tuple"
                    },
                    {
                      "internalType": "uint256",
                      "name": "value",
                      "type": "uint256"
                    },
                    {
                      "internalType": "uint64",
                      "name": "nonce",
                      "type": "uint64"
                    },
                    {
                      "internalType": "bytes4",
                      "name": "method",
                      "type": "bytes4"
                    },
                    {
                      "internalType": "bytes",
                      "name": "params",
                      "type": "bytes"
                    }
                  ],
                  "internalType": "struct StorableMsg",
                  "name": "message",
                  "type": "tuple"
                },
                {
                  "internalType": "bool",
                  "name": "wrapped",
                  "type": "bool"
                }
              ],
              "internalType": "struct CrossMsg[]",
              "name": "crossMsgs",
              "type": "tuple[]"
            },
            {
              "components": [
                {
                  "components": [
                    {
                      "internalType": "uint64",
                      "name": "root",
                      "type": "uint64"
                    },
                    {
                      "internalType": "address[]",
                      "name": "route",
                      "type": "address[]"
                    }
                  ],
                  "internalType": "struct SubnetID",
                  "name": "source",
                  "type": "tuple"
                },
                {
                  "internalType": "bytes32[]",
                  "name": "checks",
                  "type": "bytes32[]"
                }
              ],
              "internalType": "struct ChildCheck[]",
              "name": "children",
              "type": "tuple[]"
            },
            {
              "internalType": "bytes32",
              "name": "prevHash",
              "type": "bytes32"
            },
            {
              "internalType": "bytes",
              "name": "proof",
              "type": "bytes"
            }
          ],
          "internalType": "struct BottomUpCheckpoint",
          "name": "commit",
          "type": "tuple"
        }
      ],
      "name": "commitChildCheck",
      "outputs": [],
      "stateMutability": "nonpayable",
      "type": "function"
    },
    {
      "inputs": [],
      "name": "crossMsgFee",
      "outputs": [
        {
          "internalType": "uint256",
          "name": "",
          "type": "uint256"
        }
      ],
      "stateMutability": "view",
      "type": "function"
    },
    {
      "inputs": [],
      "name": "executableQueue",
      "outputs": [
        {
          "internalType": "uint64",
          "name": "period",
          "type": "uint64"
        },
        {
          "internalType": "uint64",
          "name": "first",
          "type": "uint64"
        },
        {
          "internalType": "uint64",
          "name": "last",
          "type": "uint64"
        }
      ],
      "stateMutability": "view",
      "type": "function"
    },
    {
      "inputs": [
        {
          "components": [
            {
              "internalType": "uint64",
              "name": "root",
              "type": "uint64"
            },
            {
              "internalType": "address[]",
              "name": "route",
              "type": "address[]"
            }
          ],
          "internalType": "struct SubnetID",
          "name": "subnetId",
          "type": "tuple"
        },
        {
          "components": [
            {
              "internalType": "uint8",
              "name": "addrType",
              "type": "uint8"
            },
            {
              "internalType": "bytes",
              "name": "payload",
              "type": "bytes"
            }
          ],
          "internalType": "struct FvmAddress",
          "name": "to",
          "type": "tuple"
        }
      ],
      "name": "fund",
      "outputs": [],
      "stateMutability": "payable",
      "type": "function"
    },
    {
      "inputs": [],
      "name": "getGenesisEpoch",
      "outputs": [
        {
          "internalType": "uint64",
          "name": "",
          "type": "uint64"
        }
      ],
      "stateMutability": "view",
      "type": "function"
    },
    {
      "inputs": [],
      "name": "getNetworkName",
      "outputs": [
        {
          "components": [
            {
              "internalType": "uint64",
              "name": "root",
              "type": "uint64"
            },
            {
              "internalType": "address[]",
              "name": "route",
              "type": "address[]"
            }
          ],
          "internalType": "struct SubnetID",
          "name": "",
          "type": "tuple"
        }
      ],
      "stateMutability": "view",
      "type": "function"
    },
    {
      "inputs": [
        {
          "components": [
            {
              "internalType": "uint64",
              "name": "root",
              "type": "uint64"
            },
            {
              "internalType": "address[]",
              "name": "route",
              "type": "address[]"
            }
          ],
          "internalType": "struct SubnetID",
          "name": "subnetId",
          "type": "tuple"
        }
      ],
      "name": "getSubnet",
      "outputs": [
        {
          "internalType": "bool",
          "name": "",
          "type": "bool"
        },
        {
          "components": [
            {
              "internalType": "enum Status",
              "name": "status",
              "type": "uint8"
            },
            {
              "internalType": "uint64",
              "name": "topDownNonce",
              "type": "uint64"
            },
            {
              "internalType": "uint64",
              "name": "appliedBottomUpNonce",
              "type": "uint64"
            },
            {
              "internalType": "uint256",
              "name": "stake",
              "type": "uint256"
            },
            {
              "internalType": "uint256",
              "name": "genesisEpoch",
              "type": "uint256"
            },
            {
              "internalType": "uint256",
              "name": "circSupply",
              "type": "uint256"
            },
            {
              "components": [
                {
                  "internalType": "uint64",
                  "name": "root",
                  "type": "uint64"
                },
                {
                  "internalType": "address[]",
                  "name": "route",
                  "type": "address[]"
                }
              ],
              "internalType": "struct SubnetID",
              "name": "id",
              "type": "tuple"
            },
            {
              "components": [
                {
                  "components": [
                    {
                      "internalType": "uint64",
                      "name": "root",
                      "type": "uint64"
                    },
                    {
                      "internalType": "address[]",
                      "name": "route",
                      "type": "address[]"
                    }
                  ],
                  "internalType": "struct SubnetID",
                  "name": "source",
                  "type": "tuple"
                },
                {
                  "internalType": "uint64",
                  "name": "epoch",
                  "type": "uint64"
                },
                {
                  "internalType": "uint256",
                  "name": "fee",
                  "type": "uint256"
                },
                {
                  "components": [
                    {
                      "components": [
                        {
                          "components": [
                            {
                              "components": [
                                {
                                  "internalType": "uint64",
                                  "name": "root",
                                  "type": "uint64"
                                },
                                {
                                  "internalType": "address[]",
                                  "name": "route",
                                  "type": "address[]"
                                }
                              ],
                              "internalType": "struct SubnetID",
                              "name": "subnetId",
                              "type": "tuple"
                            },
                            {
                              "components": [
                                {
                                  "internalType": "uint8",
                                  "name": "addrType",
                                  "type": "uint8"
                                },
                                {
                                  "internalType": "bytes",
                                  "name": "payload",
                                  "type": "bytes"
                                }
                              ],
                              "internalType": "struct FvmAddress",
                              "name": "rawAddress",
                              "type": "tuple"
                            }
                          ],
                          "internalType": "struct IPCAddress",
                          "name": "from",
                          "type": "tuple"
                        },
                        {
                          "components": [
                            {
                              "components": [
                                {
                                  "internalType": "uint64",
                                  "name": "root",
                                  "type": "uint64"
                                },
                                {
                                  "internalType": "address[]",
                                  "name": "route",
                                  "type": "address[]"
                                }
                              ],
                              "internalType": "struct SubnetID",
                              "name": "subnetId",
                              "type": "tuple"
                            },
                            {
                              "components": [
                                {
                                  "internalType": "uint8",
                                  "name": "addrType",
                                  "type": "uint8"
                                },
                                {
                                  "internalType": "bytes",
                                  "name": "payload",
                                  "type": "bytes"
                                }
                              ],
                              "internalType": "struct FvmAddress",
                              "name": "rawAddress",
                              "type": "tuple"
                            }
                          ],
                          "internalType": "struct IPCAddress",
                          "name": "to",
                          "type": "tuple"
                        },
                        {
                          "internalType": "uint256",
                          "name": "value",
                          "type": "uint256"
                        },
                        {
                          "internalType": "uint64",
                          "name": "nonce",
                          "type": "uint64"
                        },
                        {
                          "internalType": "bytes4",
                          "name": "method",
                          "type": "bytes4"
                        },
                        {
                          "internalType": "bytes",
                          "name": "params",
                          "type": "bytes"
                        }
                      ],
                      "internalType": "struct StorableMsg",
                      "name": "message",
                      "type": "tuple"
                    },
                    {
                      "internalType": "bool",
                      "name": "wrapped",
                      "type": "bool"
                    }
                  ],
                  "internalType": "struct CrossMsg[]",
                  "name": "crossMsgs",
                  "type": "tuple[]"
                },
                {
                  "components": [
                    {
                      "components": [
                        {
                          "internalType": "uint64",
                          "name": "root",
                          "type": "uint64"
                        },
                        {
                          "internalType": "address[]",
                          "name": "route",
                          "type": "address[]"
                        }
                      ],
                      "internalType": "struct SubnetID",
                      "name": "source",
                      "type": "tuple"
                    },
                    {
                      "internalType": "bytes32[]",
                      "name": "checks",
                      "type": "bytes32[]"
                    }
                  ],
                  "internalType": "struct ChildCheck[]",
                  "name": "children",
                  "type": "tuple[]"
                },
                {
                  "internalType": "bytes32",
                  "name": "prevHash",
                  "type": "bytes32"
                },
                {
                  "internalType": "bytes",
                  "name": "proof",
                  "type": "bytes"
                }
              ],
              "internalType": "struct BottomUpCheckpoint",
              "name": "prevCheckpoint",
              "type": "tuple"
            },
            {
              "components": [
                {
                  "components": [
                    {
                      "components": [
                        {
                          "components": [
                            {
                              "internalType": "uint64",
                              "name": "root",
                              "type": "uint64"
                            },
                            {
                              "internalType": "address[]",
                              "name": "route",
                              "type": "address[]"
                            }
                          ],
                          "internalType": "struct SubnetID",
                          "name": "subnetId",
                          "type": "tuple"
                        },
                        {
                          "components": [
                            {
                              "internalType": "uint8",
                              "name": "addrType",
                              "type": "uint8"
                            },
                            {
                              "internalType": "bytes",
                              "name": "payload",
                              "type": "bytes"
                            }
                          ],
                          "internalType": "struct FvmAddress",
                          "name": "rawAddress",
                          "type": "tuple"
                        }
                      ],
                      "internalType": "struct IPCAddress",
                      "name": "from",
                      "type": "tuple"
                    },
                    {
                      "components": [
                        {
                          "components": [
                            {
                              "internalType": "uint64",
                              "name": "root",
                              "type": "uint64"
                            },
                            {
                              "internalType": "address[]",
                              "name": "route",
                              "type": "address[]"
                            }
                          ],
                          "internalType": "struct SubnetID",
                          "name": "subnetId",
                          "type": "tuple"
                        },
                        {
                          "components": [
                            {
                              "internalType": "uint8",
                              "name": "addrType",
                              "type": "uint8"
                            },
                            {
                              "internalType": "bytes",
                              "name": "payload",
                              "type": "bytes"
                            }
                          ],
                          "internalType": "struct FvmAddress",
                          "name": "rawAddress",
                          "type": "tuple"
                        }
                      ],
                      "internalType": "struct IPCAddress",
                      "name": "to",
                      "type": "tuple"
                    },
                    {
                      "internalType": "uint256",
                      "name": "value",
                      "type": "uint256"
                    },
                    {
                      "internalType": "uint64",
                      "name": "nonce",
                      "type": "uint64"
                    },
                    {
                      "internalType": "bytes4",
                      "name": "method",
                      "type": "bytes4"
                    },
                    {
                      "internalType": "bytes",
                      "name": "params",
                      "type": "bytes"
                    }
                  ],
                  "internalType": "struct StorableMsg",
                  "name": "message",
                  "type": "tuple"
                },
                {
                  "internalType": "bool",
                  "name": "wrapped",
                  "type": "bool"
                }
              ],
              "internalType": "struct CrossMsg[]",
              "name": "topDownMsgs",
              "type": "tuple[]"
            }
          ],
          "internalType": "struct Subnet",
          "name": "",
          "type": "tuple"
        }
      ],
      "stateMutability": "view",
      "type": "function"
    },
    {
      "inputs": [
        {
          "components": [
            {
              "internalType": "uint64",
              "name": "root",
              "type": "uint64"
            },
            {
              "internalType": "address[]",
              "name": "route",
              "type": "address[]"
            }
          ],
          "internalType": "struct SubnetID",
          "name": "subnetId",
          "type": "tuple"
        },
        {
          "internalType": "uint256",
          "name": "index",
          "type": "uint256"
        }
      ],
      "name": "getSubnetTopDownMsg",
      "outputs": [
        {
          "components": [
            {
              "components": [
                {
                  "components": [
                    {
                      "components": [
                        {
                          "internalType": "uint64",
                          "name": "root",
                          "type": "uint64"
                        },
                        {
                          "internalType": "address[]",
                          "name": "route",
                          "type": "address[]"
                        }
                      ],
                      "internalType": "struct SubnetID",
                      "name": "subnetId",
                      "type": "tuple"
                    },
                    {
                      "components": [
                        {
                          "internalType": "uint8",
                          "name": "addrType",
                          "type": "uint8"
                        },
                        {
                          "internalType": "bytes",
                          "name": "payload",
                          "type": "bytes"
                        }
                      ],
                      "internalType": "struct FvmAddress",
                      "name": "rawAddress",
                      "type": "tuple"
                    }
                  ],
                  "internalType": "struct IPCAddress",
                  "name": "from",
                  "type": "tuple"
                },
                {
                  "components": [
                    {
                      "components": [
                        {
                          "internalType": "uint64",
                          "name": "root",
                          "type": "uint64"
                        },
                        {
                          "internalType": "address[]",
                          "name": "route",
                          "type": "address[]"
                        }
                      ],
                      "internalType": "struct SubnetID",
                      "name": "subnetId",
                      "type": "tuple"
                    },
                    {
                      "components": [
                        {
                          "internalType": "uint8",
                          "name": "addrType",
                          "type": "uint8"
                        },
                        {
                          "internalType": "bytes",
                          "name": "payload",
                          "type": "bytes"
                        }
                      ],
                      "internalType": "struct FvmAddress",
                      "name": "rawAddress",
                      "type": "tuple"
                    }
                  ],
                  "internalType": "struct IPCAddress",
                  "name": "to",
                  "type": "tuple"
                },
                {
                  "internalType": "uint256",
                  "name": "value",
                  "type": "uint256"
                },
                {
                  "internalType": "uint64",
                  "name": "nonce",
                  "type": "uint64"
                },
                {
                  "internalType": "bytes4",
                  "name": "method",
                  "type": "bytes4"
                },
                {
                  "internalType": "bytes",
                  "name": "params",
                  "type": "bytes"
                }
              ],
              "internalType": "struct StorableMsg",
              "name": "message",
              "type": "tuple"
            },
            {
              "internalType": "bool",
              "name": "wrapped",
              "type": "bool"
            }
          ],
          "internalType": "struct CrossMsg",
          "name": "",
          "type": "tuple"
        }
      ],
      "stateMutability": "view",
      "type": "function"
    },
    {
      "inputs": [
        {
          "components": [
            {
              "internalType": "uint64",
              "name": "root",
              "type": "uint64"
            },
            {
              "internalType": "address[]",
              "name": "route",
              "type": "address[]"
            }
          ],
          "internalType": "struct SubnetID",
          "name": "subnetId",
          "type": "tuple"
        }
      ],
      "name": "getSubnetTopDownMsgsLength",
      "outputs": [
        {
          "internalType": "uint256",
          "name": "",
          "type": "uint256"
        }
      ],
      "stateMutability": "view",
      "type": "function"
    },
    {
      "inputs": [
        {
          "components": [
            {
              "internalType": "uint64",
              "name": "root",
              "type": "uint64"
            },
            {
              "internalType": "address[]",
              "name": "route",
              "type": "address[]"
            }
          ],
          "internalType": "struct SubnetID",
          "name": "subnetId",
          "type": "tuple"
        },
        {
          "internalType": "uint64",
          "name": "fromNonce",
          "type": "uint64"
        }
      ],
      "name": "getTopDownMsgs",
      "outputs": [
        {
          "components": [
            {
              "components": [
                {
                  "components": [
                    {
                      "components": [
                        {
                          "internalType": "uint64",
                          "name": "root",
                          "type": "uint64"
                        },
                        {
                          "internalType": "address[]",
                          "name": "route",
                          "type": "address[]"
                        }
                      ],
                      "internalType": "struct SubnetID",
                      "name": "subnetId",
                      "type": "tuple"
                    },
                    {
                      "components": [
                        {
                          "internalType": "uint8",
                          "name": "addrType",
                          "type": "uint8"
                        },
                        {
                          "internalType": "bytes",
                          "name": "payload",
                          "type": "bytes"
                        }
                      ],
                      "internalType": "struct FvmAddress",
                      "name": "rawAddress",
                      "type": "tuple"
                    }
                  ],
                  "internalType": "struct IPCAddress",
                  "name": "from",
                  "type": "tuple"
                },
                {
                  "components": [
                    {
                      "components": [
                        {
                          "internalType": "uint64",
                          "name": "root",
                          "type": "uint64"
                        },
                        {
                          "internalType": "address[]",
                          "name": "route",
                          "type": "address[]"
                        }
                      ],
                      "internalType": "struct SubnetID",
                      "name": "subnetId",
                      "type": "tuple"
                    },
                    {
                      "components": [
                        {
                          "internalType": "uint8",
                          "name": "addrType",
                          "type": "uint8"
                        },
                        {
                          "internalType": "bytes",
                          "name": "payload",
                          "type": "bytes"
                        }
                      ],
                      "internalType": "struct FvmAddress",
                      "name": "rawAddress",
                      "type": "tuple"
                    }
                  ],
                  "internalType": "struct IPCAddress",
                  "name": "to",
                  "type": "tuple"
                },
                {
                  "internalType": "uint256",
                  "name": "value",
                  "type": "uint256"
                },
                {
                  "internalType": "uint64",
                  "name": "nonce",
                  "type": "uint64"
                },
                {
                  "internalType": "bytes4",
                  "name": "method",
                  "type": "bytes4"
                },
                {
                  "internalType": "bytes",
                  "name": "params",
                  "type": "bytes"
                }
              ],
              "internalType": "struct StorableMsg",
              "name": "message",
              "type": "tuple"
            },
            {
              "internalType": "bool",
              "name": "wrapped",
              "type": "bool"
            }
          ],
          "internalType": "struct CrossMsg[]",
          "name": "",
          "type": "tuple[]"
        }
      ],
      "stateMutability": "view",
      "type": "function"
    },
    {
      "inputs": [
        {
          "internalType": "uint64",
          "name": "epoch",
          "type": "uint64"
        },
        {
          "internalType": "address",
          "name": "submitter",
          "type": "address"
        }
      ],
      "name": "hasValidatorVotedForSubmission",
      "outputs": [
        {
          "internalType": "bool",
          "name": "",
          "type": "bool"
        }
      ],
      "stateMutability": "view",
      "type": "function"
    },
    {
      "inputs": [
        {
          "internalType": "uint64",
          "name": "genesisEpoch",
          "type": "uint64"
        }
      ],
      "name": "initGenesisEpoch",
      "outputs": [],
      "stateMutability": "nonpayable",
      "type": "function"
    },
    {
      "inputs": [],
      "name": "initialized",
      "outputs": [
        {
          "internalType": "bool",
          "name": "",
          "type": "bool"
        }
      ],
      "stateMutability": "view",
      "type": "function"
    },
    {
      "inputs": [],
      "name": "kill",
      "outputs": [],
      "stateMutability": "nonpayable",
      "type": "function"
    },
    {
      "inputs": [],
      "name": "lastVotingExecutedEpoch",
      "outputs": [
        {
          "internalType": "uint64",
          "name": "",
          "type": "uint64"
        }
      ],
      "stateMutability": "view",
      "type": "function"
    },
    {
      "inputs": [],
      "name": "listSubnets",
      "outputs": [
        {
          "components": [
            {
              "internalType": "enum Status",
              "name": "status",
              "type": "uint8"
            },
            {
              "internalType": "uint64",
              "name": "topDownNonce",
              "type": "uint64"
            },
            {
              "internalType": "uint64",
              "name": "appliedBottomUpNonce",
              "type": "uint64"
            },
            {
              "internalType": "uint256",
              "name": "stake",
              "type": "uint256"
            },
            {
              "internalType": "uint256",
              "name": "genesisEpoch",
              "type": "uint256"
            },
            {
              "internalType": "uint256",
              "name": "circSupply",
              "type": "uint256"
            },
            {
              "components": [
                {
                  "internalType": "uint64",
                  "name": "root",
                  "type": "uint64"
                },
                {
                  "internalType": "address[]",
                  "name": "route",
                  "type": "address[]"
                }
              ],
              "internalType": "struct SubnetID",
              "name": "id",
              "type": "tuple"
            },
            {
              "components": [
                {
                  "components": [
                    {
                      "internalType": "uint64",
                      "name": "root",
                      "type": "uint64"
                    },
                    {
                      "internalType": "address[]",
                      "name": "route",
                      "type": "address[]"
                    }
                  ],
                  "internalType": "struct SubnetID",
                  "name": "source",
                  "type": "tuple"
                },
                {
                  "internalType": "uint64",
                  "name": "epoch",
                  "type": "uint64"
                },
                {
                  "internalType": "uint256",
                  "name": "fee",
                  "type": "uint256"
                },
                {
                  "components": [
                    {
                      "components": [
                        {
                          "components": [
                            {
                              "components": [
                                {
                                  "internalType": "uint64",
                                  "name": "root",
                                  "type": "uint64"
                                },
                                {
                                  "internalType": "address[]",
                                  "name": "route",
                                  "type": "address[]"
                                }
                              ],
                              "internalType": "struct SubnetID",
                              "name": "subnetId",
                              "type": "tuple"
                            },
                            {
                              "components": [
                                {
                                  "internalType": "uint8",
                                  "name": "addrType",
                                  "type": "uint8"
                                },
                                {
                                  "internalType": "bytes",
                                  "name": "payload",
                                  "type": "bytes"
                                }
                              ],
                              "internalType": "struct FvmAddress",
                              "name": "rawAddress",
                              "type": "tuple"
                            }
                          ],
                          "internalType": "struct IPCAddress",
                          "name": "from",
                          "type": "tuple"
                        },
                        {
                          "components": [
                            {
                              "components": [
                                {
                                  "internalType": "uint64",
                                  "name": "root",
                                  "type": "uint64"
                                },
                                {
                                  "internalType": "address[]",
                                  "name": "route",
                                  "type": "address[]"
                                }
                              ],
                              "internalType": "struct SubnetID",
                              "name": "subnetId",
                              "type": "tuple"
                            },
                            {
                              "components": [
                                {
                                  "internalType": "uint8",
                                  "name": "addrType",
                                  "type": "uint8"
                                },
                                {
                                  "internalType": "bytes",
                                  "name": "payload",
                                  "type": "bytes"
                                }
                              ],
                              "internalType": "struct FvmAddress",
                              "name": "rawAddress",
                              "type": "tuple"
                            }
                          ],
                          "internalType": "struct IPCAddress",
                          "name": "to",
                          "type": "tuple"
                        },
                        {
                          "internalType": "uint256",
                          "name": "value",
                          "type": "uint256"
                        },
                        {
                          "internalType": "uint64",
                          "name": "nonce",
                          "type": "uint64"
                        },
                        {
                          "internalType": "bytes4",
                          "name": "method",
                          "type": "bytes4"
                        },
                        {
                          "internalType": "bytes",
                          "name": "params",
                          "type": "bytes"
                        }
                      ],
                      "internalType": "struct StorableMsg",
                      "name": "message",
                      "type": "tuple"
                    },
                    {
                      "internalType": "bool",
                      "name": "wrapped",
                      "type": "bool"
                    }
                  ],
                  "internalType": "struct CrossMsg[]",
                  "name": "crossMsgs",
                  "type": "tuple[]"
                },
                {
                  "components": [
                    {
                      "components": [
                        {
                          "internalType": "uint64",
                          "name": "root",
                          "type": "uint64"
                        },
                        {
                          "internalType": "address[]",
                          "name": "route",
                          "type": "address[]"
                        }
                      ],
                      "internalType": "struct SubnetID",
                      "name": "source",
                      "type": "tuple"
                    },
                    {
                      "internalType": "bytes32[]",
                      "name": "checks",
                      "type": "bytes32[]"
                    }
                  ],
                  "internalType": "struct ChildCheck[]",
                  "name": "children",
                  "type": "tuple[]"
                },
                {
                  "internalType": "bytes32",
                  "name": "prevHash",
                  "type": "bytes32"
                },
                {
                  "internalType": "bytes",
                  "name": "proof",
                  "type": "bytes"
                }
              ],
              "internalType": "struct BottomUpCheckpoint",
              "name": "prevCheckpoint",
              "type": "tuple"
            },
            {
              "components": [
                {
                  "components": [
                    {
                      "components": [
                        {
                          "components": [
                            {
                              "internalType": "uint64",
                              "name": "root",
                              "type": "uint64"
                            },
                            {
                              "internalType": "address[]",
                              "name": "route",
                              "type": "address[]"
                            }
                          ],
                          "internalType": "struct SubnetID",
                          "name": "subnetId",
                          "type": "tuple"
                        },
                        {
                          "components": [
                            {
                              "internalType": "uint8",
                              "name": "addrType",
                              "type": "uint8"
                            },
                            {
                              "internalType": "bytes",
                              "name": "payload",
                              "type": "bytes"
                            }
                          ],
                          "internalType": "struct FvmAddress",
                          "name": "rawAddress",
                          "type": "tuple"
                        }
                      ],
                      "internalType": "struct IPCAddress",
                      "name": "from",
                      "type": "tuple"
                    },
                    {
                      "components": [
                        {
                          "components": [
                            {
                              "internalType": "uint64",
                              "name": "root",
                              "type": "uint64"
                            },
                            {
                              "internalType": "address[]",
                              "name": "route",
                              "type": "address[]"
                            }
                          ],
                          "internalType": "struct SubnetID",
                          "name": "subnetId",
                          "type": "tuple"
                        },
                        {
                          "components": [
                            {
                              "internalType": "uint8",
                              "name": "addrType",
                              "type": "uint8"
                            },
                            {
                              "internalType": "bytes",
                              "name": "payload",
                              "type": "bytes"
                            }
                          ],
                          "internalType": "struct FvmAddress",
                          "name": "rawAddress",
                          "type": "tuple"
                        }
                      ],
                      "internalType": "struct IPCAddress",
                      "name": "to",
                      "type": "tuple"
                    },
                    {
                      "internalType": "uint256",
                      "name": "value",
                      "type": "uint256"
                    },
                    {
                      "internalType": "uint64",
                      "name": "nonce",
                      "type": "uint64"
                    },
                    {
                      "internalType": "bytes4",
                      "name": "method",
                      "type": "bytes4"
                    },
                    {
                      "internalType": "bytes",
                      "name": "params",
                      "type": "bytes"
                    }
                  ],
                  "internalType": "struct StorableMsg",
                  "name": "message",
                  "type": "tuple"
                },
                {
                  "internalType": "bool",
                  "name": "wrapped",
                  "type": "bool"
                }
              ],
              "internalType": "struct CrossMsg[]",
              "name": "topDownMsgs",
              "type": "tuple[]"
            }
          ],
          "internalType": "struct Subnet[]",
          "name": "",
          "type": "tuple[]"
        }
      ],
      "stateMutability": "view",
      "type": "function"
    },
    {
      "inputs": [],
      "name": "majorityPercentage",
      "outputs": [
        {
          "internalType": "uint8",
          "name": "",
          "type": "uint8"
        }
      ],
      "stateMutability": "view",
      "type": "function"
    },
    {
      "inputs": [],
      "name": "minStake",
      "outputs": [
        {
          "internalType": "uint256",
          "name": "",
          "type": "uint256"
        }
      ],
      "stateMutability": "view",
      "type": "function"
    },
    {
      "inputs": [
        {
          "internalType": "bytes32",
          "name": "",
          "type": "bytes32"
        }
      ],
      "name": "postbox",
      "outputs": [
        {
          "components": [
            {
              "components": [
                {
                  "components": [
                    {
                      "internalType": "uint64",
                      "name": "root",
                      "type": "uint64"
                    },
                    {
                      "internalType": "address[]",
                      "name": "route",
                      "type": "address[]"
                    }
                  ],
                  "internalType": "struct SubnetID",
                  "name": "subnetId",
                  "type": "tuple"
                },
                {
                  "components": [
                    {
                      "internalType": "uint8",
                      "name": "addrType",
                      "type": "uint8"
                    },
                    {
                      "internalType": "bytes",
                      "name": "payload",
                      "type": "bytes"
                    }
                  ],
                  "internalType": "struct FvmAddress",
                  "name": "rawAddress",
                  "type": "tuple"
                }
              ],
              "internalType": "struct IPCAddress",
              "name": "from",
              "type": "tuple"
            },
            {
              "components": [
                {
                  "components": [
                    {
                      "internalType": "uint64",
                      "name": "root",
                      "type": "uint64"
                    },
                    {
                      "internalType": "address[]",
                      "name": "route",
                      "type": "address[]"
                    }
                  ],
                  "internalType": "struct SubnetID",
                  "name": "subnetId",
                  "type": "tuple"
                },
                {
                  "components": [
                    {
                      "internalType": "uint8",
                      "name": "addrType",
                      "type": "uint8"
                    },
                    {
                      "internalType": "bytes",
                      "name": "payload",
                      "type": "bytes"
                    }
                  ],
                  "internalType": "struct FvmAddress",
                  "name": "rawAddress",
                  "type": "tuple"
                }
              ],
              "internalType": "struct IPCAddress",
              "name": "to",
              "type": "tuple"
            },
            {
              "internalType": "uint256",
              "name": "value",
              "type": "uint256"
            },
            {
              "internalType": "uint64",
              "name": "nonce",
              "type": "uint64"
            },
            {
              "internalType": "bytes4",
              "name": "method",
              "type": "bytes4"
            },
            {
              "internalType": "bytes",
              "name": "params",
              "type": "bytes"
            }
          ],
          "internalType": "struct StorableMsg",
          "name": "message",
          "type": "tuple"
        },
        {
          "internalType": "bool",
          "name": "wrapped",
          "type": "bool"
        }
      ],
      "stateMutability": "view",
      "type": "function"
    },
    {
      "inputs": [
        {
          "internalType": "bytes32",
          "name": "msgCid",
          "type": "bytes32"
        }
      ],
      "name": "propagate",
      "outputs": [],
      "stateMutability": "payable",
      "type": "function"
    },
    {
      "inputs": [],
      "name": "register",
      "outputs": [],
      "stateMutability": "payable",
      "type": "function"
    },
    {
      "inputs": [
        {
          "components": [
            {
              "internalType": "uint8",
              "name": "addrType",
              "type": "uint8"
            },
            {
              "internalType": "bytes",
              "name": "payload",
              "type": "bytes"
            }
          ],
          "internalType": "struct FvmAddress",
          "name": "to",
          "type": "tuple"
        }
      ],
      "name": "release",
      "outputs": [],
      "stateMutability": "payable",
      "type": "function"
    },
    {
      "inputs": [
        {
          "internalType": "uint256",
          "name": "amount",
          "type": "uint256"
        }
      ],
      "name": "releaseRewards",
      "outputs": [],
      "stateMutability": "nonpayable",
      "type": "function"
    },
    {
      "inputs": [
        {
          "internalType": "uint256",
          "name": "amount",
          "type": "uint256"
        }
      ],
      "name": "releaseStake",
      "outputs": [],
      "stateMutability": "nonpayable",
      "type": "function"
    },
    {
      "inputs": [
        {
          "components": [
            {
              "components": [
                {
                  "components": [
                    {
                      "components": [
                        {
                          "internalType": "uint64",
                          "name": "root",
                          "type": "uint64"
                        },
                        {
                          "internalType": "address[]",
                          "name": "route",
                          "type": "address[]"
                        }
                      ],
                      "internalType": "struct SubnetID",
                      "name": "subnetId",
                      "type": "tuple"
                    },
                    {
                      "components": [
                        {
                          "internalType": "uint8",
                          "name": "addrType",
                          "type": "uint8"
                        },
                        {
                          "internalType": "bytes",
                          "name": "payload",
                          "type": "bytes"
                        }
                      ],
                      "internalType": "struct FvmAddress",
                      "name": "rawAddress",
                      "type": "tuple"
                    }
                  ],
                  "internalType": "struct IPCAddress",
                  "name": "from",
                  "type": "tuple"
                },
                {
                  "components": [
                    {
                      "components": [
                        {
                          "internalType": "uint64",
                          "name": "root",
                          "type": "uint64"
                        },
                        {
                          "internalType": "address[]",
                          "name": "route",
                          "type": "address[]"
                        }
                      ],
                      "internalType": "struct SubnetID",
                      "name": "subnetId",
                      "type": "tuple"
                    },
                    {
                      "components": [
                        {
                          "internalType": "uint8",
                          "name": "addrType",
                          "type": "uint8"
                        },
                        {
                          "internalType": "bytes",
                          "name": "payload",
                          "type": "bytes"
                        }
                      ],
                      "internalType": "struct FvmAddress",
                      "name": "rawAddress",
                      "type": "tuple"
                    }
                  ],
                  "internalType": "struct IPCAddress",
                  "name": "to",
                  "type": "tuple"
                },
                {
                  "internalType": "uint256",
                  "name": "value",
                  "type": "uint256"
                },
                {
                  "internalType": "uint64",
                  "name": "nonce",
                  "type": "uint64"
                },
                {
                  "internalType": "bytes4",
                  "name": "method",
                  "type": "bytes4"
                },
                {
                  "internalType": "bytes",
                  "name": "params",
                  "type": "bytes"
                }
              ],
              "internalType": "struct StorableMsg",
              "name": "message",
              "type": "tuple"
            },
            {
              "internalType": "bool",
              "name": "wrapped",
              "type": "bool"
            }
          ],
          "internalType": "struct CrossMsg",
          "name": "crossMsg",
          "type": "tuple"
        }
      ],
      "name": "sendCrossMessage",
      "outputs": [],
      "stateMutability": "payable",
      "type": "function"
    },
    {
      "inputs": [
        {
          "internalType": "address[]",
          "name": "validators",
          "type": "address[]"
        },
        {
          "internalType": "uint256[]",
          "name": "weights",
          "type": "uint256[]"
        }
      ],
      "name": "setMembership",
      "outputs": [],
      "stateMutability": "nonpayable",
      "type": "function"
    },
    {
      "inputs": [],
      "name": "submissionPeriod",
      "outputs": [
        {
          "internalType": "uint64",
          "name": "",
          "type": "uint64"
        }
      ],
      "stateMutability": "view",
      "type": "function"
    },
    {
      "inputs": [
        {
          "components": [
            {
              "internalType": "uint64",
              "name": "epoch",
              "type": "uint64"
            },
            {
              "components": [
                {
                  "components": [
                    {
                      "components": [
                        {
                          "components": [
                            {
                              "internalType": "uint64",
                              "name": "root",
                              "type": "uint64"
                            },
                            {
                              "internalType": "address[]",
                              "name": "route",
                              "type": "address[]"
                            }
                          ],
                          "internalType": "struct SubnetID",
                          "name": "subnetId",
                          "type": "tuple"
                        },
                        {
                          "components": [
                            {
                              "internalType": "uint8",
                              "name": "addrType",
                              "type": "uint8"
                            },
                            {
                              "internalType": "bytes",
                              "name": "payload",
                              "type": "bytes"
                            }
                          ],
                          "internalType": "struct FvmAddress",
                          "name": "rawAddress",
                          "type": "tuple"
                        }
                      ],
                      "internalType": "struct IPCAddress",
                      "name": "from",
                      "type": "tuple"
                    },
                    {
                      "components": [
                        {
                          "components": [
                            {
                              "internalType": "uint64",
                              "name": "root",
                              "type": "uint64"
                            },
                            {
                              "internalType": "address[]",
                              "name": "route",
                              "type": "address[]"
                            }
                          ],
                          "internalType": "struct SubnetID",
                          "name": "subnetId",
                          "type": "tuple"
                        },
                        {
                          "components": [
                            {
                              "internalType": "uint8",
                              "name": "addrType",
                              "type": "uint8"
                            },
                            {
                              "internalType": "bytes",
                              "name": "payload",
                              "type": "bytes"
                            }
                          ],
                          "internalType": "struct FvmAddress",
                          "name": "rawAddress",
                          "type": "tuple"
                        }
                      ],
                      "internalType": "struct IPCAddress",
                      "name": "to",
                      "type": "tuple"
                    },
                    {
                      "internalType": "uint256",
                      "name": "value",
                      "type": "uint256"
                    },
                    {
                      "internalType": "uint64",
                      "name": "nonce",
                      "type": "uint64"
                    },
                    {
                      "internalType": "bytes4",
                      "name": "method",
                      "type": "bytes4"
                    },
                    {
                      "internalType": "bytes",
                      "name": "params",
                      "type": "bytes"
                    }
                  ],
                  "internalType": "struct StorableMsg",
                  "name": "message",
                  "type": "tuple"
                },
                {
                  "internalType": "bool",
                  "name": "wrapped",
                  "type": "bool"
                }
              ],
              "internalType": "struct CrossMsg[]",
              "name": "topDownMsgs",
              "type": "tuple[]"
            }
          ],
          "internalType": "struct TopDownCheckpoint",
          "name": "checkpoint",
          "type": "tuple"
        }
      ],
      "name": "submitTopDownCheckpoint",
      "outputs": [],
      "stateMutability": "nonpayable",
      "type": "function"
    },
    {
      "inputs": [
        {
          "internalType": "uint256",
          "name": "",
          "type": "uint256"
        }
      ],
      "name": "subnetKeys",
      "outputs": [
        {
          "internalType": "bytes32",
          "name": "",
          "type": "bytes32"
        }
      ],
      "stateMutability": "view",
      "type": "function"
    },
    {
      "inputs": [
        {
          "internalType": "bytes32",
          "name": "",
          "type": "bytes32"
        }
      ],
      "name": "subnets",
      "outputs": [
        {
          "internalType": "enum Status",
          "name": "status",
          "type": "uint8"
        },
        {
          "internalType": "uint64",
          "name": "topDownNonce",
          "type": "uint64"
        },
        {
          "internalType": "uint64",
          "name": "appliedBottomUpNonce",
          "type": "uint64"
        },
        {
          "internalType": "uint256",
          "name": "stake",
          "type": "uint256"
        },
        {
          "internalType": "uint256",
          "name": "genesisEpoch",
          "type": "uint256"
        },
        {
          "internalType": "uint256",
          "name": "circSupply",
          "type": "uint256"
        },
        {
          "components": [
            {
              "internalType": "uint64",
              "name": "root",
              "type": "uint64"
            },
            {
              "internalType": "address[]",
              "name": "route",
              "type": "address[]"
            }
          ],
          "internalType": "struct SubnetID",
          "name": "id",
          "type": "tuple"
        },
        {
          "components": [
            {
              "components": [
                {
                  "internalType": "uint64",
                  "name": "root",
                  "type": "uint64"
                },
                {
                  "internalType": "address[]",
                  "name": "route",
                  "type": "address[]"
                }
              ],
              "internalType": "struct SubnetID",
              "name": "source",
              "type": "tuple"
            },
            {
              "internalType": "uint64",
              "name": "epoch",
              "type": "uint64"
            },
            {
              "internalType": "uint256",
              "name": "fee",
              "type": "uint256"
            },
            {
              "components": [
                {
                  "components": [
                    {
                      "components": [
                        {
                          "components": [
                            {
                              "internalType": "uint64",
                              "name": "root",
                              "type": "uint64"
                            },
                            {
                              "internalType": "address[]",
                              "name": "route",
                              "type": "address[]"
                            }
                          ],
                          "internalType": "struct SubnetID",
                          "name": "subnetId",
                          "type": "tuple"
                        },
                        {
                          "components": [
                            {
                              "internalType": "uint8",
                              "name": "addrType",
                              "type": "uint8"
                            },
                            {
                              "internalType": "bytes",
                              "name": "payload",
                              "type": "bytes"
                            }
                          ],
                          "internalType": "struct FvmAddress",
                          "name": "rawAddress",
                          "type": "tuple"
                        }
                      ],
                      "internalType": "struct IPCAddress",
                      "name": "from",
                      "type": "tuple"
                    },
                    {
                      "components": [
                        {
                          "components": [
                            {
                              "internalType": "uint64",
                              "name": "root",
                              "type": "uint64"
                            },
                            {
                              "internalType": "address[]",
                              "name": "route",
                              "type": "address[]"
                            }
                          ],
                          "internalType": "struct SubnetID",
                          "name": "subnetId",
                          "type": "tuple"
                        },
                        {
                          "components": [
                            {
                              "internalType": "uint8",
                              "name": "addrType",
                              "type": "uint8"
                            },
                            {
                              "internalType": "bytes",
                              "name": "payload",
                              "type": "bytes"
                            }
                          ],
                          "internalType": "struct FvmAddress",
                          "name": "rawAddress",
                          "type": "tuple"
                        }
                      ],
                      "internalType": "struct IPCAddress",
                      "name": "to",
                      "type": "tuple"
                    },
                    {
                      "internalType": "uint256",
                      "name": "value",
                      "type": "uint256"
                    },
                    {
                      "internalType": "uint64",
                      "name": "nonce",
                      "type": "uint64"
                    },
                    {
                      "internalType": "bytes4",
                      "name": "method",
                      "type": "bytes4"
                    },
                    {
                      "internalType": "bytes",
                      "name": "params",
                      "type": "bytes"
                    }
                  ],
                  "internalType": "struct StorableMsg",
                  "name": "message",
                  "type": "tuple"
                },
                {
                  "internalType": "bool",
                  "name": "wrapped",
                  "type": "bool"
                }
              ],
              "internalType": "struct CrossMsg[]",
              "name": "crossMsgs",
              "type": "tuple[]"
            },
            {
              "components": [
                {
                  "components": [
                    {
                      "internalType": "uint64",
                      "name": "root",
                      "type": "uint64"
                    },
                    {
                      "internalType": "address[]",
                      "name": "route",
                      "type": "address[]"
                    }
                  ],
                  "internalType": "struct SubnetID",
                  "name": "source",
                  "type": "tuple"
                },
                {
                  "internalType": "bytes32[]",
                  "name": "checks",
                  "type": "bytes32[]"
                }
              ],
              "internalType": "struct ChildCheck[]",
              "name": "children",
              "type": "tuple[]"
            },
            {
              "internalType": "bytes32",
              "name": "prevHash",
              "type": "bytes32"
            },
            {
              "internalType": "bytes",
              "name": "proof",
              "type": "bytes"
            }
          ],
          "internalType": "struct BottomUpCheckpoint",
          "name": "prevCheckpoint",
          "type": "tuple"
        }
      ],
      "stateMutability": "view",
      "type": "function"
    },
    {
      "inputs": [],
      "name": "topDownCheckPeriod",
      "outputs": [
        {
          "internalType": "uint64",
          "name": "",
          "type": "uint64"
        }
      ],
      "stateMutability": "view",
      "type": "function"
    },
    {
      "inputs": [],
      "name": "totalSubnets",
      "outputs": [
        {
          "internalType": "uint64",
          "name": "",
          "type": "uint64"
        }
      ],
      "stateMutability": "view",
      "type": "function"
    },
    {
      "inputs": [],
      "name": "totalWeight",
      "outputs": [
        {
          "internalType": "uint256",
          "name": "",
          "type": "uint256"
        }
      ],
      "stateMutability": "view",
      "type": "function"
    },
    {
      "inputs": [],
      "name": "validatorNonce",
      "outputs": [
        {
          "internalType": "uint256",
          "name": "",
          "type": "uint256"
        }
      ],
      "stateMutability": "view",
      "type": "function"
    },
    {
      "inputs": [
        {
          "internalType": "uint256",
          "name": "",
          "type": "uint256"
        },
        {
          "internalType": "address",
          "name": "",
          "type": "address"
        }
      ],
      "name": "validatorSet",
      "outputs": [
        {
          "internalType": "uint256",
          "name": "",
          "type": "uint256"
        }
      ],
      "stateMutability": "view",
      "type": "function"
    }
  ],
  "bytecode": {
    "object": "0x6101406040523480156200001257600080fd5b506040516200b94b3803806200b94b8339810160408190526200003591620003b2565b608081015160408201516001600055606460ff831611156200006a576040516375c3b42760e01b815260040160405180910390fd5b60ff8216608052600a6001600160401b038216106200008a57806200008d565b600a5b6001600160401b0390811660a0819052600280546001600160401b0319908116909217905584518051600480549190941692169190911782556020808201518051929550929350620000e59260059291019062000269565b5050670de0b6b3a764000060c052506020810151600a6001600160401b0390911610620001175780602001516200011a565b600a5b6001600160401b0390811660e0526040820151600a9116106200014257806040015162000145565b600a5b6001600160401b039081166101005260608201516101205260408051808201825260048054909316815260058054835160208281028201810190955281815292949380860193929190830182828015620001c957602002820191906000526020600020905b81546001600160a01b03168152600190910190602001808311620001aa575b5050509190925250506040516310c5511f60e31b815273__$a0fe38a9a81205afccc10810b09a4d3f45$__9263862a88f892506200020a9160040162000530565b602060405180830381865af415801562000228573d6000803e3d6000fd5b505050506040513d601f19601f820116820180604052508101906200024e91906200059c565b1562000262576011805460ff191660011790555b50620005c7565b828054828255906000526020600020908101928215620002c1579160200282015b82811115620002c157825182546001600160a01b0319166001600160a01b039091161782556020909201916001909101906200028a565b50620002cf929150620002d3565b5090565b5b80821115620002cf5760008155600101620002d4565b634e487b7160e01b600052604160045260246000fd5b60405160a081016001600160401b0381118282101715620003255762000325620002ea565b60405290565b604080519081016001600160401b0381118282101715620003255762000325620002ea565b604051601f8201601f191681016001600160401b03811182821017156200037b576200037b620002ea565b604052919050565b80516001600160401b03811681146200039b57600080fd5b919050565b805160ff811681146200039b57600080fd5b60006020808385031215620003c657600080fd5b82516001600160401b0380821115620003de57600080fd5b9084019060a08287031215620003f357600080fd5b620003fd62000300565b8251828111156200040d57600080fd5b8301604081890312156200042057600080fd5b6200042a6200032b565b620004358262000383565b815285820151848111156200044957600080fd5b80830192505088601f8301126200045f57600080fd5b815184811115620004745762000474620002ea565b8060051b94506200048787860162000350565b818152948301870194878101908b871115620004a257600080fd5b938801935b86851015620004dc57845192506001600160a01b0383168314620004cb5760008081fd5b8282529388019390880190620004a7565b838901525050825250620004f283850162000383565b84820152620005046040840162000383565b6040820152606083015160608201526200052160808401620003a0565b60808201529695505050505050565b602080825282516001600160401b0316828201528281015160408084015280516060840181905260009291820190839060808601905b80831015620005915783516001600160a01b0316825292840192600192909201919084019062000566565b509695505050505050565b600060208284031215620005af57600080fd5b81518015158114620005c057600080fd5b9392505050565b60805160a05160c05160e051610100516101205161b2d96200067260003960008181610469015281816119f101528181611b0a0152818161235801528181613814015281816166e40152617069015260006106d001526000818161024b01526179710152600081816104f401528181611b35015281816129b90152612ba90152600081816103d4015281816172ee0152617e6e0152600081816105c201526184ff015261b2d96000f3fe6080604052600436106101f75760003560e01c806302e30f9a146101fc57806306c46853146102395780630ea746f21461028557806310d500e1146102b2578063133f74ea14610312578063135493151461034957806313f3538814610376578063158ef93e14610398578063185fde7e146103c257806318f44b70146103f65780631aa3a00814610409578063223d905614610411578063247294251461045757806325bf0db61461048b5780632cc14ea21461049e5780632f757dd1146104cf578063375b3c0a146104e257806341b6a2e81461051657806341c0e1b51461053657806345f544851461054b57806351392fc01461056b578063548b3b3814610590578063599c7bd1146105b05780635a627dbc146105f65780635d029685146105fe57806366d7bbbc146106205780636b2c1eef1461067d5780636cb2ecee146106905780637d9740f4146106be5780638789f83b146106f25780638cfd78e71461071957806391be4d411461074757806394074b031461076357806396c82e5714610785578063986acf381461079b5780639d3070b5146107bb578063a1ada303146107db578063a2b67158146107f0578063ad81e24414610810578063c66c66a114610830578063d4e149a81461085e578063e17a684f1461087e578063f75bc55714610894578063f8703bb8146108b4575b600080fd5b34801561020857600080fd5b5061021c610217366004618abf565b6108d4565b604051610230989796959493929190618e21565b60405180910390f35b34801561024557600080fd5b5061026d7f000000000000000000000000000000000000000000000000000000000000000081565b6040516001600160401b039091168152602001610230565b34801561029157600080fd5b506102a56102a0366004619042565b611002565b6040516102309190619086565b3480156102be57600080fd5b506002546102e8906001600160401b0380821691600160401b8104821691600160801b9091041683565b604080516001600160401b0394851681529284166020840152921691810191909152606001610230565b34801561031e57600080fd5b5061033261032d366004619099565b6113bf565b604080519215158352602083019190915201610230565b34801561035557600080fd5b506103696103643660046190ce565b611458565b604051610230919061911f565b34801561038257600080fd5b50610396610391366004619099565b611959565b005b3480156103a457600080fd5b506011546103b29060ff1681565b6040519015158152602001610230565b3480156103ce57600080fd5b5061026d7f000000000000000000000000000000000000000000000000000000000000000081565b610396610404366004619132565b6119bd565b610396611b33565b34801561041d57600080fd5b5061044961042c366004619195565b600d60209081526000928352604080842090915290825290205481565b604051908152602001610230565b34801561046357600080fd5b506104497f000000000000000000000000000000000000000000000000000000000000000081565b610396610499366004618abf565b611dcf565b3480156104aa57600080fd5b506104be6104b9366004619099565b612398565b6040516102309594939291906191ba565b6103966104dd366004619208565b6124d5565b3480156104ee57600080fd5b506104497f000000000000000000000000000000000000000000000000000000000000000081565b34801561052257600080fd5b50600b5461026d906001600160401b031681565b34801561054257600080fd5b506103966126a8565b34801561055757600080fd5b50610396610566366004618abf565b61291d565b34801561057757600080fd5b50600154600160401b90046001600160401b031661026d565b34801561059c57600080fd5b506104496105ab366004618abf565b612b00565b3480156105bc57600080fd5b506105e47f000000000000000000000000000000000000000000000000000000000000000081565b60405160ff9091168152602001610230565b610396612b21565b34801561060a57600080fd5b50610613612be2565b60405161023091906192f6565b34801561062c57600080fd5b506103b261063b366004619358565b6001600160401b03821660009081526012602090815260408083208054845260030182528083206001600160a01b038516845290915290205460ff1692915050565b61039661068b366004619208565b6137df565b34801561069c57600080fd5b506106b06106ab366004619099565b6138a8565b604051610230929190619386565b3480156106ca57600080fd5b5061026d7f000000000000000000000000000000000000000000000000000000000000000081565b3480156106fe57600080fd5b50600b5461026d90600160401b90046001600160401b031681565b34801561072557600080fd5b50610739610734366004618abf565b613fac565b6040516102309291906193a1565b34801561075357600080fd5b50610449670de0b6b3a764000081565b34801561076f57600080fd5b50610778614328565b60405161023091906193c5565b34801561079157600080fd5b50610449600c5481565b3480156107a757600080fd5b506103966107b6366004619208565b6143b0565b3480156107c757600080fd5b506104496107d63660046193d8565b614d28565b3480156107e757600080fd5b506105e4600a81565b3480156107fc57600080fd5b5060065461026d906001600160401b031681565b34801561081c57600080fd5b5060015461026d906001600160401b031681565b34801561083c57600080fd5b5061085061084b366004619208565b614d40565b60405161023092919061940c565b34801561086a57600080fd5b50610396610879366004619427565b615898565b34801561088a57600080fd5b50610449600e5481565b3480156108a057600080fd5b506103966108af366004619461565b61630d565b3480156108c057600080fd5b506103966108cf366004618abf565b616418565b6007602090815260009182526040918290208054600182015460028301546003840154865180880188526004860180546001600160401b0390811683526005880180548b51818c0281018c01909c52808c5260ff89169b6101008a0484169b600160481b909a04909316999798969795968581019392919083018282801561098557602002820191906000526020600020905b81546001600160a01b03168152600190910190602001808311610967575b50505091909252505060408051610120810182526006850180546001600160401b031660e08301908152600787018054855160208281028201810190975281815297989794965092948694929386936101008701939092909190830182828015610a1857602002820191906000526020600020905b81546001600160a01b031681526001909101906020018083116109fa575b50505050508152505081526020016002820160009054906101000a90046001600160401b03166001600160401b03166001600160401b031681526020016003820154815260200160048201805480602002602001604051908101604052809291908181526020016000905b82821015610e225760008481526020908190206040805161018081018252600c860290920180546001600160401b031661014084019081526001820180548451818802810188018652818152959693958795860194879486946101008901948794869486936101608d01939091830182828015610b2957602002820191906000526020600020905b81546001600160a01b03168152600190910190602001808311610b0b575b5050509190925250505081526040805180820190915260028301805460ff16825260038401805460209485019484019190610b639061951b565b80601f0160208091040260200160405190810160405280929190818152602001828054610b8f9061951b565b8015610bdc5780601f10610bb157610100808354040283529160200191610bdc565b820191906000526020600020905b815481529060010190602001808311610bbf57829003601f168201915b505050919092525050509052508152604080516080810182526004840180546001600160401b0316828401908152600586018054855160208281028201810190975281815296860196949593948694869360608701939091830182828015610c6d57602002820191906000526020600020905b81546001600160a01b03168152600190910190602001808311610c4f575b5050509190925250505081526040805180820190915260028301805460ff16825260038401805460209485019484019190610ca79061951b565b80601f0160208091040260200160405190810160405280929190818152602001828054610cd39061951b565b8015610d205780601f10610cf557610100808354040283529160200191610d20565b820191906000526020600020905b815481529060010190602001808311610d0357829003601f168201915b5050509190925250505090525081526008820154602082015260098201546001600160401b0381166040830152600160401b900460e01b6001600160e01b0319166060820152600a82018054608090920191610d7b9061951b565b80601f0160208091040260200160405190810160405280929190818152602001828054610da79061951b565b8015610df45780601f10610dc957610100808354040283529160200191610df4565b820191906000526020600020905b815481529060010190602001808311610dd757829003601f168201915b505050919092525050508152600b919091015460ff1615156020918201529082526001929092019101610a83565b50505050815260200160058201805480602002602001604051908101604052809291908181526020016000905b82821015610f59576000848152602090819020604080516080810182526003860290920180546001600160401b031683830190815260018201805484518188028101880190955280855294959294869492938693606087019390929091830182828015610ee557602002820191906000526020600020905b81546001600160a01b03168152600190910190602001808311610ec7575b505050505081525050815260200160028201805480602002602001604051908101604052809291908181526020018280548015610f4157602002820191906000526020600020905b815481526020019060010190808311610f2d575b50505050508152505081526020019060010190610e4f565b50505050815260200160068201548152602001600782018054610f7b9061951b565b80601f0160208091040260200160405190810160405280929190818152602001828054610fa79061951b565b8015610ff45780601f10610fc957610100808354040283529160200191610ff4565b820191906000526020600020905b815481529060010190602001808311610fd757829003601f168201915b505050505081525050905088565b61100a6186d6565b60006110158461646f565b91505080600e01838154811061102d5761102d61954f565b60009182526020918290206040805161018081018252600c90930290910180546001600160401b031661014084019081526001820180548451818802810188018652818152959693958795860194879486946101008901948794869486936101608d019390918301828280156110cc57602002820191906000526020600020905b81546001600160a01b031681526001909101906020018083116110ae575b5050509190925250505081526040805180820190915260028301805460ff168252600384018054602094850194840191906111069061951b565b80601f01602080910402602001604051908101604052809291908181526020018280546111329061951b565b801561117f5780601f106111545761010080835404028352916020019161117f565b820191906000526020600020905b81548152906001019060200180831161116257829003601f168201915b505050919092525050509052508152604080516080810182526004840180546001600160401b031682840190815260058601805485516020828102820181019097528181529686019694959394869486936060870193909183018282801561121057602002820191906000526020600020905b81546001600160a01b031681526001909101906020018083116111f2575b5050509190925250505081526040805180820190915260028301805460ff1682526003840180546020948501948401919061124a9061951b565b80601f01602080910402602001604051908101604052809291908181526020018280546112769061951b565b80156112c35780601f10611298576101008083540402835291602001916112c3565b820191906000526020600020905b8154815290600101906020018083116112a657829003601f168201915b5050509190925250505090525081526008820154602082015260098201546001600160401b0381166040830152600160401b900460e01b6001600160e01b0319166060820152600a8201805460809092019161131e9061951b565b80601f016020809104026020016040519081016040528092919081815260200182805461134a9061951b565b80156113975780601f1061136c57610100808354040283529160200191611397565b820191906000526020600020905b81548152906001019060200180831161137a57829003601f168201915b505050919092525050508152600b919091015460ff1615156020909101529150505b92915050565b6000806000806113ce856138a8565b6040516339aa47fb60e01b81529193509150829073__$1cd67d4dc9e627f0bec7928aa480e7d951$__906339aa47fb9061140c90859060040161964d565b602060405180830381865af4158015611429573d6000803e3d6000fd5b505050506040513d601f19601f8201168201806040525081019061144d91906196e9565b935093505050915091565b606060008061146e61146986619702565b61646f565b91509150816114b25760408051600080825260208201909252906114a8565b6114956186d6565b81526020019060019003908161148d5790505b50925050506113b9565b600e8101546001600160401b0385168181106115055760408051600080825260208201909252906114f9565b6114e66186d6565b8152602001906001900390816114de5790505b509450505050506113b9565b60006115118284619724565b90506000816001600160401b0381111561152d5761152d618e92565b60405190808252806020026020018201604052801561156657816020015b6115536186d6565b81526020019060019003908161154b5790505b50905060005b8281101561194c57600e86016115828583619737565b815481106115925761159261954f565b60009182526020918290206040805161018081018252600c90930290910180546001600160401b031661014084019081526001820180548451818802810188018652818152959693958795860194879486946101008901948794869486936101608d0193909183018282801561163157602002820191906000526020600020905b81546001600160a01b03168152600190910190602001808311611613575b5050509190925250505081526040805180820190915260028301805460ff1682526003840180546020948501948401919061166b9061951b565b80601f01602080910402602001604051908101604052809291908181526020018280546116979061951b565b80156116e45780601f106116b9576101008083540402835291602001916116e4565b820191906000526020600020905b8154815290600101906020018083116116c757829003601f168201915b505050919092525050509052508152604080516080810182526004840180546001600160401b031682840190815260058601805485516020828102820181019097528181529686019694959394869486936060870193909183018282801561177557602002820191906000526020600020905b81546001600160a01b03168152600190910190602001808311611757575b5050509190925250505081526040805180820190915260028301805460ff168252600384018054602094850194840191906117af9061951b565b80601f01602080910402602001604051908101604052809291908181526020018280546117db9061951b565b80156118285780601f106117fd57610100808354040283529160200191611828565b820191906000526020600020905b81548152906001019060200180831161180b57829003601f168201915b5050509190925250505090525081526008820154602082015260098201546001600160401b0381166040830152600160401b900460e01b6001600160e01b0319166060820152600a820180546080909201916118839061951b565b80601f01602080910402602001604051908101604052809291908181526020018280546118af9061951b565b80156118fc5780601f106118d1576101008083540402835291602001916118fc565b820191906000526020600020905b8154815290600101906020018083116118df57829003601f168201915b505050919092525050508152600b919091015460ff161515602090910152825183908390811061192e5761192e61954f565b602002602001018190525080806119449061974a565b91505061156c565b5098975050505050505050565b6119616165b6565b60115460ff16156119845760405162dc149f60e41b815260040160405180910390fd5b600180546001600160401b03909216600160401b02600160401b600160801b03199092169190911781556011805460ff19169091179055565b6119c561664d565b6119cd6166e2565b600073__$33b79814e84bf6cf5e47244090b19ce5f8$__6399aa0eb4843385611a167f000000000000000000000000000000000000000000000000000000000000000034619724565b6040518563ffffffff1660e01b8152600401611a3594939291906198db565b600060405180830381865af4158015611a52573d6000803e3d6000fd5b505050506040513d6000823e601f3d908101601f19168201604052611a7a9190810190619b3c565b9050611a8581616723565b611b2e611a9184619702565b604051632cff562160e11b815273__$a0fe38a9a81205afccc10810b09a4d3f45$__916359feac4291611ac791906004016193c5565b602060405180830381865af4158015611ae4573d6000803e3d6000fd5b505050506040513d601f19601f82011682018060405250810190611b089190619c59565b7f00000000000000000000000000000000000000000000000000000000000000006169f0565b505050565b7f0000000000000000000000000000000000000000000000000000000000000000341015611b7457604051631036b5ad60e31b815260040160405180910390fd5b604080518082018252600480546001600160401b0316825260058054845160208281028201810190965281815260009580860193919290830182828015611be457602002820191906000526020600020905b81546001600160a01b03168152600190910190602001808311611bc6575b50505091909252505060405163aa5106cb60e01b815273__$a0fe38a9a81205afccc10810b09a4d3f45$__9263aa5106cb9250611c25913390600401619c76565b600060405180830381865af4158015611c42573d6000803e3d6000fd5b505050506040513d6000823e601f3d908101601f19168201604052611c6a9190810190619ca0565b9050600080611c788361646f565b915091508115611c9b57604051631b538cdf60e11b815260040160405180910390fd5b82516004820180546001600160401b0319166001600160401b039092169190911781556020808501518051869392611cda9260058701929101906186f6565b505034600183810191909155825460ff1916178255504360028201556040516390ba52cf60e01b815260089073__$a0fe38a9a81205afccc10810b09a4d3f45$__906390ba52cf90611d309087906004016193c5565b602060405180830381865af4158015611d4d573d6000803e3d6000fd5b505050506040513d601f19601f82011682018060405250810190611d7191906196e9565b815460018181018455600093845260208420909101919091556006805491929091611da69084906001600160401b0316619cd4565b92506101000a8154816001600160401b0302191690836001600160401b03160217905550505050565b611dd76166e2565b600081815260096020908152604080832081516101808101835281546001600160401b031661014082019081526001830180548551818802810188018752818152949796879661216b968a958795928601948794869461010089019487948694909386936101608d0193929091830182828015611e7d57602002820191906000526020600020905b81546001600160a01b03168152600190910190602001808311611e5f575b5050509190925250505081526040805180820190915260028301805460ff16825260038401805460209485019484019190611eb79061951b565b80601f0160208091040260200160405190810160405280929190818152602001828054611ee39061951b565b8015611f305780601f10611f0557610100808354040283529160200191611f30565b820191906000526020600020905b815481529060010190602001808311611f1357829003601f168201915b505050919092525050509052508152604080516080810182526004840180546001600160401b0316828401908152600586018054855160208281028201810190975281815296860196949593948694869360608701939091830182828015611fc157602002820191906000526020600020905b81546001600160a01b03168152600190910190602001808311611fa3575b5050509190925250505081526040805180820190915260028301805460ff16825260038401805460209485019484019190611ffb9061951b565b80601f01602080910402602001604051908101604052809291908181526020018280546120279061951b565b80156120745780601f1061204957610100808354040283529160200191612074565b820191906000526020600020905b81548152906001019060200180831161205757829003601f168201915b5050509190925250505090525081526008820154602082015260098201546001600160401b0381166040830152600160401b900460e01b6001600160e01b0319166060820152600a820180546080909201916120cf9061951b565b80601f01602080910402602001604051908101604052809291908181526020018280546120fb9061951b565b80156121485780601f1061211d57610100808354040283529160200191612148565b820191906000526020600020905b81548152906001019060200180831161212b57829003601f168201915b505050919092525050508152600b919091015460ff161515602090910152616a4e565b60088501546040805180820182526004880180546001600160401b03168252600589018054845160208281028201810190965281815297995095975093956000959294919380860193919291908301828280156121f157602002820191906000526020600020905b81546001600160a01b031681526001909101906020018083116121d3575b50505091909252505060405163089032d560e01b815273__$a0fe38a9a81205afccc10810b09a4d3f45$__9263089032d59250612232916004908101619d6a565b600060405180830381865af415801561224f573d6000803e3d6000fd5b505050506040513d6000823e601f3d908101601f191682016040526122779190810190619ca0565b600087815260096020526040812080546001600160401b03191681559192508181818181816122a9600183018261875b565b505060028201805460ff1916815560006122c66003850182618779565b505050506004820180546001600160401b0319168155600081816122ed600587018261875b565b505060028201805460ff19168155600061230a6003850182618779565b50506000600885018190556009850180546001600160601b03191690556123379250600a85019150618779565b505050600b01805460ff1916905561235182828686616dbe565b600061237d7f000000000000000000000000000000000000000000000000000000000000000034619724565b9050801561238f5761238f3382616e16565b50505050505050565b600a602090815260009182526040918290208251808401845281546001600160401b0316815260018201805485518186028101860190965280865292949193859385820193929183018282801561241857602002820191906000526020600020905b81546001600160a01b031681526001909101906020018083116123fa575b5050509190925250505060028201546003830154600684015460078501805494956001600160401b0390941694929391926124529061951b565b80601f016020809104026020016040519081016040528092919081815260200182805461247e9061951b565b80156124cb5780601f106124a0576101008083540402835291602001916124cb565b820191906000526020600020905b8154815290600101906020018083116124ae57829003601f168201915b5050505050905085565b6124dd61664d565b6124e56166e2565b346124f08280619d8f565b604001351461251257604051631036b5ad60e31b815260040160405180910390fd5b61251c8180619d8f565b6125269080619daf565b6125309080619daf565b61253990619702565b60405163c836244d60e01b815273__$a0fe38a9a81205afccc10810b09a4d3f45$__9163c836244d9161257191906004908101619d6a565b602060405180830381865af415801561258e573d6000803e3d6000fd5b505050506040513d601f19601f820116820180604052508101906125b29190619dc5565b6125cf57604051638481de4960e01b815260040160405180910390fd5b6000806125e36125de84619fe2565b616a4e565b9092509050611b2e6125f58480619d8f565b604001356126038580619d8f565b612611906020810190619daf565b61261b9080619daf565b61262490619702565b60405163089032d560e01b815273__$a0fe38a9a81205afccc10810b09a4d3f45$__9163089032d59161265c91906004908101619d6a565b600060405180830381865af4158015612679573d6000803e3d6000fd5b505050506040513d6000823e601f3d908101601f191682016040526126a19190810190619ca0565b8484616dbe565b6000806126b433616eab565b91509150816126d657604051630e991abd60e41b815260040160405180910390fd5b6003810154156126f957604051637c67c70160e11b815260040160405180910390fd5b6001808201546006805491929160009061271d9084906001600160401b0316619fee565b82546101009290920a6001600160401b0381810219909316918316021790915560408051808201825260048601805490931681526005860180548351602080830282018101909552818152600796506000959394808601939192908301828280156127b157602002820191906000526020600020905b81546001600160a01b03168152600190910190602001808311612793575b5050509190925250506040516390ba52cf60e01b815273__$a0fe38a9a81205afccc10810b09a4d3f45$__926390ba52cf92506127f0916004016193c5565b602060405180830381865af415801561280d573d6000803e3d6000fd5b505050506040513d601f19601f8201168201806040525081019061283191906196e9565b81526020810191909152604001600090812080546001600160881b03191681556001810182905560028101829055600381018290556004810180546001600160401b031916815590919081612889600585018261875b565b50506006820180546001600160401b0319168155600081816128ae600787018261875b565b50506002820180546001600160401b03191690556000600383018190556128d99060048401906187b3565b6128e76005830160006187d4565b60068201600090556007820160006128ff9190618779565b506129109050600e830160006187b3565b50611b2e90503382616e16565b612925616fe0565b806000036129465760405163c79cad7b60e01b815260040160405180910390fd5b60008061295233616eab565b915091508161297457604051630e991abd60e41b815260040160405180910390fd5b8281600101541015612999576040516379b33e7960e01b815260040160405180910390fd5b828160010160008282546129ad9190619724565b909155505060018101547f000000000000000000000000000000000000000000000000000000000000000011156129ea57805460ff191660021781555b6040805180820182526004830180546001600160401b031682526005840180548451602082810282018101909652818152612af19589959493818601939091830182828015612a6257602002820191906000526020600020905b81546001600160a01b03168152600190910190602001808311612a44575b505050919092525050604051632cff562160e11b815273__$a0fe38a9a81205afccc10810b09a4d3f45$__926359feac429250612aa1916004016193c5565b602060405180830381865af4158015612abe573d6000803e3d6000fd5b505050506040513d601f19601f82011682018060405250810190612ae29190619c59565b6001600160a01b031690616e16565b5050612afd6001600055565b50565b60088181548110612b1057600080fd5b600091825260209091200154905081565b60003411612b4257604051631036b5ad60e31b815260040160405180910390fd5b600080612b4e33616eab565b9150915081612b7057604051630e991abd60e41b815260040160405180910390fd5b34816001016000828254612b849190619737565b9091555060029050815460ff166005811115612ba257612ba2618ad8565b03612bde577f0000000000000000000000000000000000000000000000000000000000000000816001015410612bde57805460ff191660011781555b5050565b6008546060906000816001600160401b03811115612c0257612c02618e92565b604051908082528060200260200182016040528015612c3b57816020015b612c286187f5565b815260200190600190039081612c205790505b50905060005b828110156137d857600060088281548110612c5e57612c5e61954f565b6000918252602080832090910154808352600790915260409182902082516101208101909352805491935090829060ff166005811115612ca057612ca0618ad8565b6005811115612cb157612cb1618ad8565b815281546001600160401b0361010082048116602080850191909152600160481b90920481166040808501919091526001850154606085015260028501546080850152600385015460a085015280518082018252600486018054909316815260058601805483518187028101870190945280845260c0909601959194858101939290830182828015612d6c57602002820191906000526020600020905b81546001600160a01b03168152600190910190602001808311612d4e575b50505091909252505050815260408051610120810182526006840180546001600160401b031660e0830190815260078601805485516020828102820181019097528181529686019694959394869486936101008701939091830182828015612dfd57602002820191906000526020600020905b81546001600160a01b03168152600190910190602001808311612ddf575b50505050508152505081526020016002820160009054906101000a90046001600160401b03166001600160401b03166001600160401b031681526020016003820154815260200160048201805480602002602001604051908101604052809291908181526020016000905b828210156132075760008481526020908190206040805161018081018252600c860290920180546001600160401b031661014084019081526001820180548451818802810188018652818152959693958795860194879486946101008901948794869486936101608d01939091830182828015612f0e57602002820191906000526020600020905b81546001600160a01b03168152600190910190602001808311612ef0575b5050509190925250505081526040805180820190915260028301805460ff16825260038401805460209485019484019190612f489061951b565b80601f0160208091040260200160405190810160405280929190818152602001828054612f749061951b565b8015612fc15780601f10612f9657610100808354040283529160200191612fc1565b820191906000526020600020905b815481529060010190602001808311612fa457829003601f168201915b505050919092525050509052508152604080516080810182526004840180546001600160401b031682840190815260058601805485516020828102820181019097528181529686019694959394869486936060870193909183018282801561305257602002820191906000526020600020905b81546001600160a01b03168152600190910190602001808311613034575b5050509190925250505081526040805180820190915260028301805460ff1682526003840180546020948501948401919061308c9061951b565b80601f01602080910402602001604051908101604052809291908181526020018280546130b89061951b565b80156131055780601f106130da57610100808354040283529160200191613105565b820191906000526020600020905b8154815290600101906020018083116130e857829003601f168201915b5050509190925250505090525081526008820154602082015260098201546001600160401b0381166040830152600160401b900460e01b6001600160e01b0319166060820152600a820180546080909201916131609061951b565b80601f016020809104026020016040519081016040528092919081815260200182805461318c9061951b565b80156131d95780601f106131ae576101008083540402835291602001916131d9565b820191906000526020600020905b8154815290600101906020018083116131bc57829003601f168201915b505050919092525050508152600b919091015460ff1615156020918201529082526001929092019101612e68565b50505050815260200160058201805480602002602001604051908101604052809291908181526020016000905b8282101561333e576000848152602090819020604080516080810182526003860290920180546001600160401b0316838301908152600182018054845181880281018801909552808552949592948694929386936060870193909290918301828280156132ca57602002820191906000526020600020905b81546001600160a01b031681526001909101906020018083116132ac575b50505050508152505081526020016002820180548060200260200160405190810160405280929190818152602001828054801561332657602002820191906000526020600020905b815481526020019060010190808311613312575b50505050508152505081526020019060010190613234565b505050508152602001600682015481526020016007820180546133609061951b565b80601f016020809104026020016040519081016040528092919081815260200182805461338c9061951b565b80156133d95780601f106133ae576101008083540402835291602001916133d9565b820191906000526020600020905b8154815290600101906020018083116133bc57829003601f168201915b5050505050815250508152602001600e8201805480602002602001604051908101604052809291908181526020016000905b828210156137aa5760008481526020908190206040805161018081018252600c860290920180546001600160401b031661014084019081526001820180548451818802810188018652818152959693958795860194879486946101008901948794869486936101608d019390918301828280156134b157602002820191906000526020600020905b81546001600160a01b03168152600190910190602001808311613493575b5050509190925250505081526040805180820190915260028301805460ff168252600384018054602094850194840191906134eb9061951b565b80601f01602080910402602001604051908101604052809291908181526020018280546135179061951b565b80156135645780601f1061353957610100808354040283529160200191613564565b820191906000526020600020905b81548152906001019060200180831161354757829003601f168201915b505050919092525050509052508152604080516080810182526004840180546001600160401b03168284019081526005860180548551602082810282018101909752818152968601969495939486948693606087019390918301828280156135f557602002820191906000526020600020905b81546001600160a01b031681526001909101906020018083116135d7575b5050509190925250505081526040805180820190915260028301805460ff1682526003840180546020948501948401919061362f9061951b565b80601f016020809104026020016040519081016040528092919081815260200182805461365b9061951b565b80156136a85780601f1061367d576101008083540402835291602001916136a8565b820191906000526020600020905b81548152906001019060200180831161368b57829003601f168201915b5050509190925250505090525081526008820154602082015260098201546001600160401b0381166040830152600160401b900460e01b6001600160e01b0319166060820152600a820180546080909201916137039061951b565b80601f016020809104026020016040519081016040528092919081815260200182805461372f9061951b565b801561377c5780601f106137515761010080835404028352916020019161377c565b820191906000526020600020905b81548152906001019060200180831161375f57829003601f168201915b505050919092525050508152600b919091015460ff161515602091820152908252600192909201910161340b565b50505050815250508383815181106137c4576137c461954f565b602090810291909101015250600101612c41565b5092915050565b6137e761664d565b6137ef6166e2565b600073__$33b79814e84bf6cf5e47244090b19ce5f8$__631860845e600433856138397f000000000000000000000000000000000000000000000000000000000000000034619724565b6040518563ffffffff1660e01b8152600401613858949392919061a00e565b600060405180830381865af4158015613875573d6000803e3d6000fd5b505050506040513d6000823e601f3d908101601f1916820160405261389d9190810190619b3c565b9050612bde8161703e565b60006138b2618860565b6001600160401b038084166000908152600a6020908152604091829020825161012081018452815490941660e085019081526001820180548551818602810186019096528086529294869492938693610100870193919083018282801561394257602002820191906000526020600020905b81546001600160a01b03168152600190910190602001808311613924575b50505050508152505081526020016002820160009054906101000a90046001600160401b03166001600160401b03166001600160401b031681526020016003820154815260200160048201805480602002602001604051908101604052809291908181526020016000905b82821015613d4c5760008481526020908190206040805161018081018252600c860290920180546001600160401b031661014084019081526001820180548451818802810188018652818152959693958795860194879486946101008901948794869486936101608d01939091830182828015613a5357602002820191906000526020600020905b81546001600160a01b03168152600190910190602001808311613a35575b5050509190925250505081526040805180820190915260028301805460ff16825260038401805460209485019484019190613a8d9061951b565b80601f0160208091040260200160405190810160405280929190818152602001828054613ab99061951b565b8015613b065780601f10613adb57610100808354040283529160200191613b06565b820191906000526020600020905b815481529060010190602001808311613ae957829003601f168201915b505050919092525050509052508152604080516080810182526004840180546001600160401b0316828401908152600586018054855160208281028201810190975281815296860196949593948694869360608701939091830182828015613b9757602002820191906000526020600020905b81546001600160a01b03168152600190910190602001808311613b79575b5050509190925250505081526040805180820190915260028301805460ff16825260038401805460209485019484019190613bd19061951b565b80601f0160208091040260200160405190810160405280929190818152602001828054613bfd9061951b565b8015613c4a5780601f10613c1f57610100808354040283529160200191613c4a565b820191906000526020600020905b815481529060010190602001808311613c2d57829003601f168201915b5050509190925250505090525081526008820154602082015260098201546001600160401b0381166040830152600160401b900460e01b6001600160e01b0319166060820152600a82018054608090920191613ca59061951b565b80601f0160208091040260200160405190810160405280929190818152602001828054613cd19061951b565b8015613d1e5780601f10613cf357610100808354040283529160200191613d1e565b820191906000526020600020905b815481529060010190602001808311613d0157829003601f168201915b505050919092525050508152600b919091015460ff16151560209182015290825260019290920191016139ad565b50505050815260200160058201805480602002602001604051908101604052809291908181526020016000905b82821015613e83576000848152602090819020604080516080810182526003860290920180546001600160401b031683830190815260018201805484518188028101880190955280855294959294869492938693606087019390929091830182828015613e0f57602002820191906000526020600020905b81546001600160a01b03168152600190910190602001808311613df1575b505050505081525050815260200160028201805480602002602001604051908101604052809291908181526020018280548015613e6b57602002820191906000526020600020905b815481526020019060010190808311613e57575b50505050508152505081526020019060010190613d79565b50505050815260200160068201548152602001600782018054613ea59061951b565b80601f0160208091040260200160405190810160405280929190818152602001828054613ed19061951b565b8015613f1e5780601f10613ef357610100808354040283529160200191613f1e565b820191906000526020600020905b815481529060010190602001808311613f0157829003601f168201915b5050509190925250508151604051630c133d1360e31b815292935073__$a0fe38a9a81205afccc10810b09a4d3f45$__92636099e8989250613f6391906004016193c5565b602060405180830381865af4158015613f80573d6000803e3d6000fd5b505050506040513d601f19601f82011682018060405250810190613fa49190619dc5565b159150915091565b60096020908152600091825260409182902082516101408101845281546001600160401b03166101008201908152600183018054865181870281018701909752808752939592948694869460c086019487948694919386936101208a01939092919083018282801561404757602002820191906000526020600020905b81546001600160a01b03168152600190910190602001808311614029575b5050509190925250505081526040805180820190915260028301805460ff168252600384018054602094850194840191906140819061951b565b80601f01602080910402602001604051908101604052809291908181526020018280546140ad9061951b565b80156140fa5780601f106140cf576101008083540402835291602001916140fa565b820191906000526020600020905b8154815290600101906020018083116140dd57829003601f168201915b505050919092525050509052508152604080516080810182526004840180546001600160401b031682840190815260058601805485516020828102820181019097528181529686019694959394869486936060870193909183018282801561418b57602002820191906000526020600020905b81546001600160a01b0316815260019091019060200180831161416d575b5050509190925250505081526040805180820190915260028301805460ff168252600384018054602094850194840191906141c59061951b565b80601f01602080910402602001604051908101604052809291908181526020018280546141f19061951b565b801561423e5780601f106142135761010080835404028352916020019161423e565b820191906000526020600020905b81548152906001019060200180831161422157829003601f168201915b5050509190925250505090525081526008820154602082015260098201546001600160401b0381166040830152600160401b900460e01b6001600160e01b0319166060820152600a820180546080909201916142999061951b565b80601f01602080910402602001604051908101604052809291908181526020018280546142c59061951b565b80156143125780601f106142e757610100808354040283529160200191614312565b820191906000526020600020905b8154815290600101906020018083116142f557829003601f168201915b50505091909252505050600b9091015460ff1682565b6143306188af565b604080518082018252600480546001600160401b031682526005805484516020828102820181019096528181529394929383860193909291908301828280156143a257602002820191906000526020600020905b81546001600160a01b03168152600190910190602001808311614384575b505050505081525050905090565b6143b861664d565b6143c56020820182619099565b6143ce81617283565b600e546000908152600d6020908152604080832033845290915290205460115460ff1661440e576040516321c4e35760e21b815260040160405180910390fd5b8060000361442f57604051632ec5b44960e01b815260040160405180910390fd5b73__$33b79814e84bf6cf5e47244090b19ce5f8$__6389841475614456602086018661a021565b6040518363ffffffff1660e01b815260040161447392919061a1f5565b602060405180830381865af4158015614490573d6000803e3d6000fd5b505050506040513d601f19601f820116820180604052508101906144b49190619dc5565b6144d157604051630bd9169f60e01b815260040160405180910390fd5b60006012816144e36020870187619099565b6001600160401b03166001600160401b031681526020019081526020016000209050600061451382863386617359565b9050606081156148ec5761452683617891565b805480602002602001604051908101604052809291908181526020016000905b828210156148e55760008481526020908190206040805161018081018252600c860290920180546001600160401b031661014084019081526001820180548451818802810188018652818152959693958795860194879486946101008901948794869486936101608d019390918301828280156145ec57602002820191906000526020600020905b81546001600160a01b031681526001909101906020018083116145ce575b5050509190925250505081526040805180820190915260028301805460ff168252600384018054602094850194840191906146269061951b565b80601f01602080910402602001604051908101604052809291908181526020018280546146529061951b565b801561469f5780601f106146745761010080835404028352916020019161469f565b820191906000526020600020905b81548152906001019060200180831161468257829003601f168201915b505050919092525050509052508152604080516080810182526004840180546001600160401b031682840190815260058601805485516020828102820181019097528181529686019694959394869486936060870193909183018282801561473057602002820191906000526020600020905b81546001600160a01b03168152600190910190602001808311614712575b5050509190925250505081526040805180820190915260028301805460ff1682526003840180546020948501948401919061476a9061951b565b80601f01602080910402602001604051908101604052809291908181526020018280546147969061951b565b80156147e35780601f106147b8576101008083540402835291602001916147e3565b820191906000526020600020905b8154815290600101906020018083116147c657829003601f168201915b5050509190925250505090525081526008820154602082015260098201546001600160401b0381166040830152600160401b900460e01b6001600160e01b0319166060820152600a8201805460809092019161483e9061951b565b80601f016020809104026020016040519081016040528092919081815260200182805461486a9061951b565b80156148b75780601f1061488c576101008083540402835291602001916148b7565b820191906000526020600020905b81548152906001019060200180831161489a57829003601f168201915b505050919092525050508152600b919091015460ff1615156020918201529082526001929092019101614546565b5050505090505b8051600003614cf5576000806149006178c3565b915091508015614cf2576001600160401b038216600090815260126020526040902061492b81617891565b805480602002602001604051908101604052809291908181526020016000905b82821015614cea5760008481526020908190206040805161018081018252600c860290920180546001600160401b031661014084019081526001820180548451818802810188018652818152959693958795860194879486946101008901948794869486936101608d019390918301828280156149f157602002820191906000526020600020905b81546001600160a01b031681526001909101906020018083116149d3575b5050509190925250505081526040805180820190915260028301805460ff16825260038401805460209485019484019190614a2b9061951b565b80601f0160208091040260200160405190810160405280929190818152602001828054614a579061951b565b8015614aa45780601f10614a7957610100808354040283529160200191614aa4565b820191906000526020600020905b815481529060010190602001808311614a8757829003601f168201915b505050919092525050509052508152604080516080810182526004840180546001600160401b0316828401908152600586018054855160208281028201810190975281815296860196949593948694869360608701939091830182828015614b3557602002820191906000526020600020905b81546001600160a01b03168152600190910190602001808311614b17575b5050509190925250505081526040805180820190915260028301805460ff16825260038401805460209485019484019190614b6f9061951b565b80601f0160208091040260200160405190810160405280929190818152602001828054614b9b9061951b565b8015614be85780601f10614bbd57610100808354040283529160200191614be8565b820191906000526020600020905b815481529060010190602001808311614bcb57829003601f168201915b5050509190925250505090525081526008820154602082015260098201546001600160401b0381166040830152600160401b900460e01b6001600160e01b0319166060820152600a82018054608090920191614c439061951b565b80601f0160208091040260200160405190810160405280929190818152602001828054614c6f9061951b565b8015614cbc5780601f10614c9157610100808354040283529160200191614cbc565b820191906000526020600020905b815481529060010190602001808311614c9f57829003601f168201915b505050919092525050508152600b919091015460ff161515602091820152908252600192909201910161494b565b505050509350505b50505b604080518082018252600080825282518181526020818101909452614d2093830191509052826178e7565b505050505050565b600080614d348361646f565b600e0154949350505050565b6000614d4a6187f5565b614d5661146984619702565b60408051610120810190915281548290829060ff166005811115614d7c57614d7c618ad8565b6005811115614d8d57614d8d618ad8565b815281546001600160401b0361010082048116602080850191909152600160481b90920481166040808501919091526001850154606085015260028501546080850152600385015460a085015280518082018252600486018054909316815260058601805483518187028101870190945280845260c0909601959194858101939290830182828015614e4857602002820191906000526020600020905b81546001600160a01b03168152600190910190602001808311614e2a575b50505091909252505050815260408051610120810182526006840180546001600160401b031660e0830190815260078601805485516020828102820181019097528181529686019694959394869486936101008701939091830182828015614ed957602002820191906000526020600020905b81546001600160a01b03168152600190910190602001808311614ebb575b50505050508152505081526020016002820160009054906101000a90046001600160401b03166001600160401b03166001600160401b031681526020016003820154815260200160048201805480602002602001604051908101604052809291908181526020016000905b828210156152e35760008481526020908190206040805161018081018252600c860290920180546001600160401b031661014084019081526001820180548451818802810188018652818152959693958795860194879486946101008901948794869486936101608d01939091830182828015614fea57602002820191906000526020600020905b81546001600160a01b03168152600190910190602001808311614fcc575b5050509190925250505081526040805180820190915260028301805460ff168252600384018054602094850194840191906150249061951b565b80601f01602080910402602001604051908101604052809291908181526020018280546150509061951b565b801561509d5780601f106150725761010080835404028352916020019161509d565b820191906000526020600020905b81548152906001019060200180831161508057829003601f168201915b505050919092525050509052508152604080516080810182526004840180546001600160401b031682840190815260058601805485516020828102820181019097528181529686019694959394869486936060870193909183018282801561512e57602002820191906000526020600020905b81546001600160a01b03168152600190910190602001808311615110575b5050509190925250505081526040805180820190915260028301805460ff168252600384018054602094850194840191906151689061951b565b80601f01602080910402602001604051908101604052809291908181526020018280546151949061951b565b80156151e15780601f106151b6576101008083540402835291602001916151e1565b820191906000526020600020905b8154815290600101906020018083116151c457829003601f168201915b5050509190925250505090525081526008820154602082015260098201546001600160401b0381166040830152600160401b900460e01b6001600160e01b0319166060820152600a8201805460809092019161523c9061951b565b80601f01602080910402602001604051908101604052809291908181526020018280546152689061951b565b80156152b55780601f1061528a576101008083540402835291602001916152b5565b820191906000526020600020905b81548152906001019060200180831161529857829003601f168201915b505050919092525050508152600b919091015460ff1615156020918201529082526001929092019101614f44565b50505050815260200160058201805480602002602001604051908101604052809291908181526020016000905b8282101561541a576000848152602090819020604080516080810182526003860290920180546001600160401b0316838301908152600182018054845181880281018801909552808552949592948694929386936060870193909290918301828280156153a657602002820191906000526020600020905b81546001600160a01b03168152600190910190602001808311615388575b50505050508152505081526020016002820180548060200260200160405190810160405280929190818152602001828054801561540257602002820191906000526020600020905b8154815260200190600101908083116153ee575b50505050508152505081526020019060010190615310565b5050505081526020016006820154815260200160078201805461543c9061951b565b80601f01602080910402602001604051908101604052809291908181526020018280546154689061951b565b80156154b55780601f1061548a576101008083540402835291602001916154b5565b820191906000526020600020905b81548152906001019060200180831161549857829003601f168201915b5050505050815250508152602001600e8201805480602002602001604051908101604052809291908181526020016000905b828210156158865760008481526020908190206040805161018081018252600c860290920180546001600160401b031661014084019081526001820180548451818802810188018652818152959693958795860194879486946101008901948794869486936101608d0193909183018282801561558d57602002820191906000526020600020905b81546001600160a01b0316815260019091019060200180831161556f575b5050509190925250505081526040805180820190915260028301805460ff168252600384018054602094850194840191906155c79061951b565b80601f01602080910402602001604051908101604052809291908181526020018280546155f39061951b565b80156156405780601f1061561557610100808354040283529160200191615640565b820191906000526020600020905b81548152906001019060200180831161562357829003601f168201915b505050919092525050509052508152604080516080810182526004840180546001600160401b03168284019081526005860180548551602082810282018101909752818152968601969495939486948693606087019390918301828280156156d157602002820191906000526020600020905b81546001600160a01b031681526001909101906020018083116156b3575b5050509190925250505081526040805180820190915260028301805460ff1682526003840180546020948501948401919061570b9061951b565b80601f01602080910402602001604051908101604052809291908181526020018280546157379061951b565b80156157845780601f1061575957610100808354040283529160200191615784565b820191906000526020600020905b81548152906001019060200180831161576757829003601f168201915b5050509190925250505090525081526008820154602082015260098201546001600160401b0381166040830152600160401b900460e01b6001600160e01b0319166060820152600a820180546080909201916157df9061951b565b80601f016020809104026020016040519081016040528092919081815260200182805461580b9061951b565b80156158585780601f1061582d57610100808354040283529160200191615858565b820191906000526020600020905b81548152906001019060200180831161583b57829003601f168201915b505050919092525050508152600b919091015460ff16151560209182015290825260019290920191016154e7565b50505091525092969095509350505050565b60115460ff166158bb576040516321c4e35760e21b815260040160405180910390fd5b336159576158c98380619daf565b6158d290619702565b604051632cff562160e11b815273__$a0fe38a9a81205afccc10810b09a4d3f45$__916359feac429161590891906004016193c5565b602060405180830381865af4158015615925573d6000803e3d6000fd5b505050506040513d601f19601f820116820180604052508101906159499190619c59565b6001600160a01b031661791f565b6001600160a01b03161461597e57604051637f39132760e11b815260040160405180910390fd5b600061598933616eab565b915060019050815460ff1660058111156159a5576159a5618ad8565b146159c35760405163c18316bf60e01b815260040160405180910390fd5b6159d36040830160208401619099565b60088201546001600160401b03918216911610615a035760405163fae4eadb60e01b815260040160405180910390fd5b60a08201351561610d5760408051610120810182526006830180546001600160401b031660e08301908152600785018054855160208281028201810190975281815294959394869486936101008701939091830182828015615a8e57602002820191906000526020600020905b81546001600160a01b03168152600190910190602001808311615a70575b50505050508152505081526020016002820160009054906101000a90046001600160401b03166001600160401b03166001600160401b031681526020016003820154815260200160048201805480602002602001604051908101604052809291908181526020016000905b82821015615e985760008481526020908190206040805161018081018252600c860290920180546001600160401b031661014084019081526001820180548451818802810188018652818152959693958795860194879486946101008901948794869486936101608d01939091830182828015615b9f57602002820191906000526020600020905b81546001600160a01b03168152600190910190602001808311615b81575b5050509190925250505081526040805180820190915260028301805460ff16825260038401805460209485019484019190615bd99061951b565b80601f0160208091040260200160405190810160405280929190818152602001828054615c059061951b565b8015615c525780601f10615c2757610100808354040283529160200191615c52565b820191906000526020600020905b815481529060010190602001808311615c3557829003601f168201915b505050919092525050509052508152604080516080810182526004840180546001600160401b0316828401908152600586018054855160208281028201810190975281815296860196949593948694869360608701939091830182828015615ce357602002820191906000526020600020905b81546001600160a01b03168152600190910190602001808311615cc5575b5050509190925250505081526040805180820190915260028301805460ff16825260038401805460209485019484019190615d1d9061951b565b80601f0160208091040260200160405190810160405280929190818152602001828054615d499061951b565b8015615d965780601f10615d6b57610100808354040283529160200191615d96565b820191906000526020600020905b815481529060010190602001808311615d7957829003601f168201915b5050509190925250505090525081526008820154602082015260098201546001600160401b0381166040830152600160401b900460e01b6001600160e01b0319166060820152600a82018054608090920191615df19061951b565b80601f0160208091040260200160405190810160405280929190818152602001828054615e1d9061951b565b8015615e6a5780601f10615e3f57610100808354040283529160200191615e6a565b820191906000526020600020905b815481529060010190602001808311615e4d57829003601f168201915b505050919092525050508152600b919091015460ff1615156020918201529082526001929092019101615af9565b50505050815260200160058201805480602002602001604051908101604052809291908181526020016000905b82821015615fcf576000848152602090819020604080516080810182526003860290920180546001600160401b031683830190815260018201805484518188028101880190955280855294959294869492938693606087019390929091830182828015615f5b57602002820191906000526020600020905b81546001600160a01b03168152600190910190602001808311615f3d575b505050505081525050815260200160028201805480602002602001604051908101604052809291908181526020018280548015615fb757602002820191906000526020600020905b815481526020019060010190808311615fa3575b50505050508152505081526020019060010190615ec5565b50505050815260200160068201548152602001600782018054615ff19061951b565b80601f016020809104026020016040519081016040528092919081815260200182805461601d9061951b565b801561606a5780601f1061603f5761010080835404028352916020019161606a565b820191906000526020600020905b81548152906001019060200180831161604d57829003601f168201915b5050509190925250506040516339aa47fb60e01b815273__$1cd67d4dc9e627f0bec7928aa480e7d951$__926339aa47fb92506160a99160040161964d565b602060405180830381865af41580156160c6573d6000803e3d6000fd5b505050506040513d601f19601f820116820180604052508101906160ea91906196e9565b8260a001351461610d576040516312232e5d60e11b815260040160405180910390fd5b600080600061611a617966565b92509250925082616179576004805482546001600160401b0319166001600160401b03909116178255600580548391616158916001840191906188c7565b5050506002810180546001600160401b0319166001600160401b0384161790555b60405163445cc97560e01b815273__$1cd67d4dc9e627f0bec7928aa480e7d951$__9063445cc975906161ba9084908990600f90601090899060040161a2b4565b60006040518083038186803b1580156161d257600080fd5b505af41580156161e6573d6000803e3d6000fd5b505050506000808680606001906161fd919061a021565b9050905060005b8181101561625d57616219606089018961a021565b828181106162295761622961954f565b905060200281019061623b9190619daf565b6162459080619d8f565b616253906040013584619737565b9250600101616204565b506003830154616271906040890135619737565b61627b9083619737565b915081866003015410156162a257604051631d36ca1560e21b815260040160405180910390fd5b818660030160008282546162b69190619724565b90915550879050600687016162cb828261ad10565b506162ff90506162db8880619daf565b6162e490619702565b6162f160608a018a61a021565b6162fa9161ae8b565b6178e7565b61238f3388604001356169f0565b6163156165b6565b80518251146163375760405163465f0a7d60e01b815260040160405180910390fd5b600e600081546163469061974a565b909155508151600090815b8181101561640f57600085828151811061636d5761636d61954f565b6020026020010151905060006001600160a01b0316816001600160a01b0316146164065760008583815181106163a5576163a561954f565b60200260200101519050806000036163d05760405163389b457d60e01b815260040160405180910390fd5b600e546000908152600d602090815260408083206001600160a01b038616845290915290208190556164028186619737565b9450505b50600101616351565b5050600c555050565b616420616fe0565b806000036164415760405163c79cad7b60e01b815260040160405180910390fd5b60008061644d33616eab565b91509150816129ea57604051630e991abd60e41b815260040160405180910390fd5b600080600760008473__$a0fe38a9a81205afccc10810b09a4d3f45$__6390ba52cf90916040518263ffffffff1660e01b81526004016164af91906193c5565b602060405180830381865af41580156164cc573d6000803e3d6000fd5b505050506040513d601f19601f820116820180604052508101906164f091906196e9565b81526020808201929092526040908101600020815180830183526004820180546001600160401b03168252600583018054855181880281018801909652808652939650919490938582019390929183018282801561657757602002820191906000526020600020905b81546001600160a01b03168152600190910190602001808311616559575b505050919092525050604051630c133d1360e31b815273__$a0fe38a9a81205afccc10810b09a4d3f45$__92636099e8989250613f63916004016193c5565b604051635d3f8a6960e01b815273__$e800e3908cdbb6b1b5bd452383a17b18f7$__90635d3f8a69906165ed90339060040161ae98565b602060405180830381865af415801561660a573d6000803e3d6000fd5b505050506040513d601f19601f8201168201806040525081019061662e9190619dc5565b61664b5760405163f0d97f3b60e01b815260040160405180910390fd5b565b604051630972932760e21b815273__$e800e3908cdbb6b1b5bd452383a17b18f7$__906325ca4c9c9061668490339060040161ae98565b602060405180830381865af41580156166a1573d6000803e3d6000fd5b505050506040513d601f19601f820116820180604052508101906166c59190619dc5565b61664b57604051630a23da2b60e31b815260040160405180910390fd5b7f000000000000000000000000000000000000000000000000000000000000000034101561664b576040516334472ad760e11b815260040160405180910390fd5b8051602001515160405163089032d560e01b815260009173__$a0fe38a9a81205afccc10810b09a4d3f45$__9163089032d591616764916004908101619d6a565b600060405180830381865af4158015616781573d6000803e3d6000fd5b505050506040513d6000823e601f3d908101601f191682016040526167a99190810190619ca0565b90506000806167b78361646f565b91509150816167d957604051630e991abd60e41b815260040160405180910390fd5b805484516101009091046001600160401b0316606090910181905260019082908290616806908290619cd4565b92506101000a8154816001600160401b0302191690836001600160401b031602179055508360000151604001518160030160008282546168469190619737565b9091555050600e810180546001808201835560009283526020928390208751805180518051600c90960290930180546001600160401b0319166001600160401b039096169590951785558286015180518b9793958795939486949385936168b49385019291909101906186f6565b505050602082810151805160028401805460ff191660ff9092169190911781559181015190919060038401906168ea908261aeac565b50505050602083810151805180516004860180546001600160401b0319166001600160401b039092169190911781558184015180519395509093919284926169399260058901929101906186f6565b505050602082810151805160028401805460ff191660ff90921691909117815591810151909190600384019061696f908261aeac565b5050505060408301516008830155506060820151600982018054608085015160e01c600160401b026001600160601b03199091166001600160401b039093169290921791909117905560a0820151600a8201906169cc908261aeac565b50505060209190910151600b909101805460ff191691151591909117905550505050565b806000036169fc575050565b611b2e616a11836001600160a01b031661791f565b6040805160248082018690528251808303909101815260449091019091526020810180516001600160e01b0316632a7edd8f60e21b179052617aa8565b80516020015151604051630c133d1360e31b8152600091829173__$a0fe38a9a81205afccc10810b09a4d3f45$__90636099e89890616a919084906004016193c5565b602060405180830381865af4158015616aae573d6000803e3d6000fd5b505050506040513d601f19601f82011682018060405250810190616ad29190619dc5565b15616af05760405163461e815d60e01b815260040160405180910390fd5b60405163c836244d60e01b815273__$a0fe38a9a81205afccc10810b09a4d3f45$__9063c836244d90616b299084906004908101619d6a565b602060405180830381865af4158015616b46573d6000803e3d6000fd5b505050506040513d601f19601f82011682018060405250810190616b6a9190619dc5565b15616b8857604051632f3335ff60e21b815260040160405180910390fd5b835180515160405163f47ad7eb60e01b8152909160009173__$386b5c41ce93e8b832daf8008b3d30ae09$__9163f47ad7eb91616bca9190600490810161af66565b602060405180830381865af4158015616be7573d6000803e3d6000fd5b505050506040513d601f19601f82011682018060405250810190616c0b919061af79565b905060006001826001811115616c2357616c23618ad8565b03616d2357604051631ccc893360e11b815273__$a0fe38a9a81205afccc10810b09a4d3f45$__90633999126690616c61908790879060040161af9a565b600060405180830381865af4158015616c7e573d6000803e3d6000fd5b505050506040513d6000823e601f3d908101601f19168201604052616ca69190810190619ca0565b60405163c836244d60e01b815273__$a0fe38a9a81205afccc10810b09a4d3f45$__9163c836244d91616cde91906004908101619d6a565b602060405180830381865af4158015616cfb573d6000803e3d6000fd5b505050506040513d601f19601f82011682018060405250810190616d1f9190619dc5565b1590505b8015616d4757616d328761703e565b50509351604001511515946000945092505050565b6000826001811115616d5b57616d5b618ad8565b03616da557600b8054600890616d8090600160401b90046001600160401b031661afbf565b91906101000a8154816001600160401b0302191690836001600160401b031602179055505b616dae87616723565b5060009660019650945050505050565b8115616dcf57616dcf606385616e16565b8015616e1057604051632cff562160e11b8152616e109073__$a0fe38a9a81205afccc10810b09a4d3f45$__906359feac4290611ac79087906004016193c5565b50505050565b80471015616e375760405163356680b760e01b815260040160405180910390fd5b6000826001600160a01b03168260405160006040518083038185875af1925050503d8060008114616e84576040519150601f19603f3d011682016040523d82523d6000602084013e616e89565b606091505b5050905080611b2e57604051633204506f60e01b815260040160405180910390fd5b6000806001600160a01b038316616ed5576040516370e4510960e01b815260040160405180910390fd5b604080518082018252600480546001600160401b0316825260058054845160208281028201810190965281815260009580860193919290830182828015616f4557602002820191906000526020600020905b81546001600160a01b03168152600190910190602001808311616f27575b50505091909252505060405163aa5106cb60e01b815273__$a0fe38a9a81205afccc10810b09a4d3f45$__9263aa5106cb9250616f86918890600401619c76565b600060405180830381865af4158015616fa3573d6000803e3d6000fd5b505050506040513d6000823e601f3d908101601f19168201604052616fcb9190810190619ca0565b9050616fd68161646f565b9250925050915091565b6002600054036170375760405162461bcd60e51b815260206004820152601f60248201527f5265656e7472616e637947756172643a207265656e7472616e742063616c6c0060448201526064015b60405180910390fd5b6002600055565b6000617048617966565b600b5485516001600160401b039091166060909101526003810180549194507f00000000000000000000000000000000000000000000000000000000000000009350915060009061709a908490619737565b90915550506004810180546001808201835560009283526020928390208551805180518051600c90960290930180546001600160401b0319166001600160401b03909616959095178555828601518051899793958795939486949385936171089385019291909101906186f6565b505050602082810151805160028401805460ff191660ff90921691909117815591810151909190600384019061713e908261aeac565b50505050602083810151805180516004860180546001600160401b0319166001600160401b0390921691909117815581840151805193955090939192849261718d9260058901929101906186f6565b505050602082810151805160028401805460ff191660ff9092169190911781559181015190919060038401906171c3908261aeac565b5050505060408301516008830155506060820151600982018054608085015160e01c600160401b026001600160601b03199091166001600160401b039093169290921791909117905560a0820151600a820190617220908261aeac565b50505060209190910151600b918201805460ff191691151591909117905580546001919060009061725b9084906001600160401b0316619cd4565b92506101000a8154816001600160401b0302191690836001600160401b031602179055505050565b6001546001600160401b03908116908216116172b257604051631f30cc6360e21b815260040160405180910390fd5b6001546001600160401b03600160401b909104811690821610156172e95760405163b4f68f9760e01b815260040160405180910390fd5b6001547f00000000000000000000000000000000000000000000000000000000000000009061732890600160401b90046001600160401b031683619fee565b617332919061b003565b6001600160401b031615612afd5760405163b4f68f9760e01b815260040160405180910390fd5b6000806173658561b029565b604051630edf122560e41b815273__$1cd67d4dc9e627f0bec7928aa480e7d951$__9163edf122509161739b919060040161b089565b602060405180830381865af41580156173b8573d6000803e3d6000fd5b505050506040513d601f19601f820116820180604052508101906173dc91906196e9565b90506173fa868286866173f260208b018b619099565b600c54617af3565b600082815260058801602090815260408083208151808301835281546001600160401b03168152600182018054845181870281018701909552808552969850909591948685019491929184015b828210156177e65760008481526020908190206040805161018081018252600c860290920180546001600160401b031661014084019081526001820180548451818802810188018652818152959693958795860194879486946101008901948794869486936101608d019390918301828280156174ed57602002820191906000526020600020905b81546001600160a01b031681526001909101906020018083116174cf575b5050509190925250505081526040805180820190915260028301805460ff168252600384018054602094850194840191906175279061951b565b80601f01602080910402602001604051908101604052809291908181526020018280546175539061951b565b80156175a05780601f10617575576101008083540402835291602001916175a0565b820191906000526020600020905b81548152906001019060200180831161758357829003601f168201915b505050919092525050509052508152604080516080810182526004840180546001600160401b031682840190815260058601805485516020828102820181019097528181529686019694959394869486936060870193909183018282801561763157602002820191906000526020600020905b81546001600160a01b03168152600190910190602001808311617613575b5050509190925250505081526040805180820190915260028301805460ff1682526003840180546020948501948401919061766b9061951b565b80601f01602080910402602001604051908101604052809291908181526020018280546176979061951b565b80156176e45780601f106176b9576101008083540402835291602001916176e4565b820191906000526020600020905b8154815290600101906020018083116176c757829003601f168201915b5050509190925250505090525081526008820154602082015260098201546001600160401b0381166040830152600160401b900460e01b6001600160e01b0319166060820152600a8201805460809092019161773f9061951b565b80601f016020809104026020016040519081016040528092919081815260200182805461776b9061951b565b80156177b85780601f1061778d576101008083540402835291602001916177b8565b820191906000526020600020905b81548152906001019060200180831161779b57829003601f168201915b505050919092525050508152600b919091015460ff1615156020918201529082526001929092019101617447565b50505091525050604051632d34315760e01b815273__$1cd67d4dc9e627f0bec7928aa480e7d951$__91632d34315791617823919060040161b089565b602060405180830381865af4158015617840573d6000803e3d6000fd5b505050506040513d601f19601f820116820180604052508101906178649190619dc5565b1561788857600081815260058701602052604090208590617885828261b0b6565b50505b50949350505050565b60028101546000908152600582016020526040812080546178ba906001600160401b0316617d26565b60010192915050565b600254600160401b90046001600160401b031660006178e182617e62565b90509091565b805160005b81811015616e10576179178484838151811061790a5761790a61954f565b6020026020010151617eb7565b6001016178ec565b600080600061792d84618358565b915091508161793e57509192915050565b60008061794a8361838a565b915091508161795d575093949350505050565b95945050505050565b6000806000617995437f00000000000000000000000000000000000000000000000000000000000000006183f4565b6001600160401b038082166000908152600a60209081526040918290208251808401845281549094168452600181018054845181850281018501909552808552959750909550929385938583019392909190830182828015617a2057602002820191906000526020600020905b81546001600160a01b03168152600190910190602001808311617a02575b505050919092525050604051630c133d1360e31b815273__$a0fe38a9a81205afccc10810b09a4d3f45$__92636099e8989250617a5f916004016193c5565b602060405180830381865af4158015617a7c573d6000803e3d6000fd5b505050506040513d601f19601f82011682018060405250810190617aa09190619dc5565b159250909192565b6060617aec838360006040518060400160405280601e81526020017f416464726573733a206c6f772d6c6576656c2063616c6c206661696c65640000815250618416565b9392505050565b8554600081815260038801602090815260408083206001600160a01b038916845290915281205490919060ff1615617b3e576040516337138f5f60e11b815260040160405180910390fd5b600081815260038901602090815260408083206001600160a01b038a1684529091528120805460ff1916600190811790915589018054879290617b82908490619737565b9091555050600081815260048901602090815260408083208a845290915281208054879290617bb2908490619737565b90915550506000818152600489016020908152604080832060028c015484529091528082205489835291205480821015617bee5760028a018990555b6000617bfa8b876184f3565b90506003816003811115617c1057617c10618ad8565b03617c9b57617c1e87617e62565b15617c2c5760019450617d18565b60405163199b9ca560e01b815273__$b7b8687e33476c74e3b4e0a64c4768a343$__9063199b9ca590617c66906002908b9060040161b1ce565b60006040518083038186803b158015617c7e57600080fd5b505af4158015617c92573d6000803e3d6000fd5b50505050617d18565b6002816003811115617caf57617caf618ad8565b03617d1857604051635a27a53960e11b8152600481018c905273__$e0f829f5071d7e628aa77eca0c12e35bc2$__9063b44f4a729060240160006040518083038186803b158015617cff57600080fd5b505af4158015617d13573d6000803e3d6000fd5b505050505b505050509695505050505050565b617d2f81617e62565b617d365750565b604051634953836d60e11b815273__$b7b8687e33476c74e3b4e0a64c4768a343$__906392a706da90617d7090600290859060040161b1ce565b602060405180830381865af4158015617d8d573d6000803e3d6000fd5b505050506040513d601f19601f82011682018060405250810190617db19190619dc5565b15617dd5576002546001600160401b03828116600160401b9092041614617dd55750565b6040516394ecccfd60e01b815273__$b7b8687e33476c74e3b4e0a64c4768a343$__906394ecccfd90617e0f90600290859060040161b1ce565b60006040518083038186803b158015617e2757600080fd5b505af4158015617e3b573d6000803e3d6000fd5b5050600180546001600160401b0319166001600160401b0394909416939093179092555050565b600154600090617e9c907f0000000000000000000000000000000000000000000000000000000000000000906001600160401b0316619cd4565b6001600160401b0316826001600160401b0316149050919050565b80516020015151604051630c133d1360e31b815273__$a0fe38a9a81205afccc10810b09a4d3f45$__91636099e89891617ef491906004016193c5565b602060405180830381865af4158015617f11573d6000803e3d6000fd5b505050506040513d601f19601f82011682018060405250810190617f359190619dc5565b15617f535760405163461e815d60e01b815260040160405180910390fd5b8051608001516001600160e01b031916617f8d57805160400151471015617f8d5760405163569d45cf60e11b815260040160405180910390fd5b805160405163f47ad7eb60e01b815260009173__$386b5c41ce93e8b832daf8008b3d30ae09$__9163f47ad7eb91617fc991600490810161af66565b602060405180830381865af4158015617fe6573d6000803e3d6000fd5b505050506040513d601f19601f8201168201806040525081019061800a919061af79565b8251602001515160405163c836244d60e01b815291925073__$a0fe38a9a81205afccc10810b09a4d3f45$__9163c836244d9161804b916004908101619d6a565b602060405180830381865af4158015618068573d6000803e3d6000fd5b505050506040513d601f19601f8201168201806040525081019061808c9190619dc5565b156182f45760018160018111156180a5576180a5618ad8565b036181da57604051630c133d1360e31b815273__$a0fe38a9a81205afccc10810b09a4d3f45$__90636099e898906180e19086906004016193c5565b602060405180830381865af41580156180fe573d6000803e3d6000fd5b505050506040513d601f19601f820116820180604052508101906181229190619dc5565b6181da576000806181328561646f565b915091508161815457604051630e991abd60e41b815260040160405180910390fd5b8351606001518154600160481b90046001600160401b0390811691161461818e5760405163a57cadff60e01b815260040160405180910390fd5b805460019082906009906181b3908490600160481b90046001600160401b0316619cd4565b92506101000a8154816001600160401b0302191690836001600160401b0316021790555050505b60008160018111156181ee576181ee618ad8565b0361827857815160600151600b54600160401b90046001600160401b0390811691161461822e5760405163a57cadff60e01b815260040160405180910390fd5b6001600b60088282829054906101000a90046001600160401b03166182539190619cd4565b92506101000a8154816001600160401b0302191690836001600160401b031602179055505b604051635c46fefb60e11b815273__$33b79814e84bf6cf5e47244090b19ce5f8$__9063b88dfdf6906182af908590600401619086565b600060405180830381865af41580156182cc573d6000803e3d6000fd5b505050506040513d6000823e601f3d908101601f19168201604052616e10919081019061b1e5565b60006182ff83618608565b6000818152600960209081526040909120855180518051805184546001600160401b0319166001600160401b03909116178455808501518051969750899694959394869485939284926168b492600185019201906186f6565b600080600160401b600160a01b03831660ff60981b810361838457600192506001600160401b03841691505b50915091565b600080826000526016600a602060006002607f60991b015afa9150600051806001600160a01b031691508060a01c61ffff16905061040a81146183d05760009250600091505b508115806183df57503d601614155b156183ef57506000928392509050565b915091565b600081618401818561b219565b61840c906001619cd4565b617aec919061b23f565b6060824710156184775760405162461bcd60e51b815260206004820152602660248201527f416464726573733a20696e73756666696369656e742062616c616e636520666f6044820152651c8818d85b1b60d21b606482015260840161702e565b600080866001600160a01b03168587604051618493919061b26a565b60006040518083038185875af1925050503d80600081146184d0576040519150601f19603f3d011682016040523d82523d6000602084013e6184d5565b606091505b50915091506184e687838387618638565b925050505b949350505050565b600080606461852560ff7f0000000000000000000000000000000000000000000000000000000000000000168561a3de565b61852f919061b27c565b604051637d2ef4e560e11b81526004810186905290915060009073__$e0f829f5071d7e628aa77eca0c12e35bc2$__9063fa5de9ca90602401602060405180830381865af4158015618585573d6000803e3d6000fd5b505050506040513d601f19601f820116820180604052508101906185a991906196e9565b9050818560010154116185c1576000925050506113b9565b818111156185d4576003925050506113b9565b60018501546185e39085619724565b6185ed8284619724565b106185fd576002925050506113b9565b506001949350505050565b60008160405160200161861b9190619086565b604051602081830303815290604052805190602001209050919050565b606083156186a75782516000036186a0576001600160a01b0385163b6186a05760405162461bcd60e51b815260206004820152601d60248201527f416464726573733a2063616c6c20746f206e6f6e2d636f6e7472616374000000604482015260640161702e565b50816184eb565b6184eb83838151156186bc5781518083602001fd5b8060405162461bcd60e51b815260040161702e919061b290565b60405180604001604052806186e9618907565b8152600060209091015290565b82805482825590600052602060002090810192821561874b579160200282015b8281111561874b57825182546001600160a01b0319166001600160a01b03909116178255602090920191600190910190618716565b5061875792915061895c565b5090565b5080546000825590600052602060002090810190612afd919061895c565b5080546187859061951b565b6000825580601f10618795575050565b601f016020900490600052602060002090810190612afd919061895c565b50805460008255600c0290600052602060002090810190612afd9190618971565b5080546000825560030290600052602060002090810190612afd9190618a41565b604080516101208101909152806000815260200160006001600160401b0316815260200160006001600160401b031681526020016000815260200160008152602001600081526020016188466188af565b8152602001618853618860565b8152602001606081525090565b6040518060e001604052806188736188af565b815260200160006001600160401b0316815260200160008152602001606081526020016060815260200160008019168152602001606081525090565b60408051808201909152600081526060602082015290565b82805482825590600052602060002090810192821561874b5760005260206000209182015b8281111561874b5782548255916001019190600101906188ec565b6040518060c0016040528061891a618a82565b8152602001618927618a82565b81526020016000815260200160006001600160401b0316815260200160006001600160e01b0319168152602001606081525090565b5b80821115618757576000815560010161895d565b808211156187575780546001600160401b0319168155600081818181818161899c600183018261875b565b505060028201805460ff1916815560006189b96003850182618779565b505050506004820180546001600160401b0319168155600081816189e0600587018261875b565b505060028201805460ff1916815560006189fd6003850182618779565b50506000600885018190556009850180546001600160601b0319169055618a2a9250600a85019150618779565b505050600b8101805460ff19169055600c01618971565b808211156187575780546001600160401b031916815560008181618a68600183018261875b565b50618a79905060028301600061875b565b50600301618a41565b6040518060400160405280618a956188af565b8152602001618aba6040518060400160405280600060ff168152602001606081525090565b905290565b600060208284031215618ad157600080fd5b5035919050565b634e487b7160e01b600052602160045260246000fd5b60068110618b0c57634e487b7160e01b600052602160045260246000fd5b9052565b80516001600160401b03168252602080820151604082850181905281519085018190526000929182019190839060608701905b80831015618b6c5784516001600160a01b03168252938301936001929092019190830190618b43565b509695505050505050565b60005b83811015618b92578181015183820152602001618b7a565b50506000910152565b60008151808452618bb3816020860160208601618b77565b601f01601f19169290920160200192915050565b6000815160408452618bdc6040850182618b10565b90506020830151848203602086015260ff8151168252602081015190506040602083015261795d6040830182618b9b565b6000815160c08452618c2260c0850182618bc7565b905060208301518482036020860152618c3b8282618bc7565b9150506040830151604085015260018060401b03606084015116606085015263ffffffff60e01b608084015116608085015260a083015184820360a086015261795d8282618b9b565b6000815160408452618c996040850182618c0d565b6020938401511515949093019390935250919050565b600081518084526020808501808196508360051b8101915082860160005b85811015618cf7578284038952618ce5848351618c84565b98850198935090840190600101618ccd565b5091979650505050505050565b6000815160e08452618d1960e0850182618b10565b9050602060018060401b038185015116818601526040808501518187015260608501518684036060880152618d4e8482618caf565b935050608085015186840360808801528381518086528486019150848160051b87010185840193506000805b83811015618dee57888303601f1901855285518051888552618d9e89860182618b10565b918a0151858303868c01528051808452908b01928592508b01905b80831015618dd95783518252928b019260019290920191908b0190618db9565b50978a0197968a019694505050600101618d7a565b505060a089015160a08b015260c0890151965089810360c08b0152618e138188618b9b565b9a9950505050505050505050565b6000610100618e30838c618aee565b6001600160401b038a8116602085015289166040840152606083018890526080830187905260a0830186905260c08301819052618e6f81840186618b10565b905082810360e0840152618e838185618d04565b9b9a5050505050505050505050565b634e487b7160e01b600052604160045260246000fd5b604080519081016001600160401b0381118282101715618eca57618eca618e92565b60405290565b60405160c081016001600160401b0381118282101715618eca57618eca618e92565b604051601f8201601f191681016001600160401b0381118282101715618f1a57618f1a618e92565b604052919050565b6001600160401b0381168114612afd57600080fd5b8035618f4281618f22565b919050565b60006001600160401b03821115618f6057618f60618e92565b5060051b60200190565b6001600160a01b0381168114612afd57600080fd5b600082601f830112618f9057600080fd5b81356020618fa5618fa083618f47565b618ef2565b82815260059290921b84018101918181019086841115618fc457600080fd5b8286015b84811015618b6c578035618fdb81618f6a565b8352918301918301618fc8565b600060408284031215618ffa57600080fd5b619002618ea8565b9050813561900f81618f22565b815260208201356001600160401b0381111561902a57600080fd5b61903684828501618f7f565b60208301525092915050565b6000806040838503121561905557600080fd5b82356001600160401b0381111561906b57600080fd5b61907785828601618fe8565b95602094909401359450505050565b602081526000617aec6020830184618c84565b6000602082840312156190ab57600080fd5b8135617aec81618f22565b6000604082840312156190c857600080fd5b50919050565b600080604083850312156190e157600080fd5b82356001600160401b038111156190f757600080fd5b619103858286016190b6565b925050602083013561911481618f22565b809150509250929050565b602081526000617aec6020830184618caf565b6000806040838503121561914557600080fd5b82356001600160401b038082111561915c57600080fd5b619168868387016190b6565b9350602085013591508082111561917e57600080fd5b5061918b858286016190b6565b9150509250929050565b600080604083850312156191a857600080fd5b82359150602083013561911481618f6a565b60a0815260006191cd60a0830188618b10565b6001600160401b0387166020840152604083018690526060830185905282810360808401526191fc8185618b9b565b98975050505050505050565b60006020828403121561921a57600080fd5b81356001600160401b0381111561923057600080fd5b6184eb848285016190b6565b600061012061924c848451618aee565b602083015161926660208601826001600160401b03169052565b50604083015161928160408601826001600160401b03169052565b50606083015160608501526080830151608085015260a083015160a085015260c08301518160c08601526192b782860182618b10565b91505060e083015184820360e08601526192d18282618d04565b91505061010080840151858303828701526192ec8382618caf565b9695505050505050565b6000602080830181845280855180835260408601915060408160051b870101925083870160005b8281101561934b57603f1988860301845261933985835161923c565b9450928501929085019060010161931d565b5092979650505050505050565b6000806040838503121561936b57600080fd5b823561937681618f22565b9150602083013561911481618f6a565b82151581526040602082015260006184eb6040830184618d04565b6040815260006193b46040830185618c0d565b905082151560208301529392505050565b602081526000617aec6020830184618b10565b6000602082840312156193ea57600080fd5b81356001600160401b0381111561940057600080fd5b6184eb84828501618fe8565b82151581526040602082015260006184eb604083018461923c565b60006020828403121561943957600080fd5b81356001600160401b0381111561944f57600080fd5b820160e08185031215617aec57600080fd5b6000806040838503121561947457600080fd5b82356001600160401b038082111561948b57600080fd5b61949786838701618f7f565b93506020915081850135818111156194ae57600080fd5b85019050601f810186136194c157600080fd5b80356194cf618fa082618f47565b81815260059190911b820183019083810190888311156194ee57600080fd5b928401925b8284101561950c578335825292840192908401906194f3565b80955050505050509250929050565b600181811c9082168061952f57607f821691505b6020821081036190c857634e487b7160e01b600052602260045260246000fd5b634e487b7160e01b600052603260045260246000fd5b600081518084526020808501808196508360051b8101915082860160005b85811015618cf757828403895261959b848351618c84565b98850198935090840190600101619583565b600081518084526020808501808196508360051b810191508286016000805b8681101561963f578385038a528251604081518188526195ee82890182618b10565b92890151888403898b01528051808552908a01938693508a0191505b8083101561962a578351825292890192600192909201919089019061960a565b509b88019b96505050918501916001016195cc565b509298975050505050505050565b602081526000825160e0602084015261966a610100840182618b10565b905060018060401b036020850151166040840152604084015160608401526060840151601f19808584030160808601526196a48383619565565b925060808601519150808584030160a08601526196c183836195ad565b925060a086015160c086015260c08601519150808584030160e08601525061795d8282618b9b565b6000602082840312156196fb57600080fd5b5051919050565b60006113b93683618fe8565b634e487b7160e01b600052601160045260246000fd5b818103818111156113b9576113b961970e565b808201808211156113b9576113b961970e565b60006001820161975c5761975c61970e565b5060010190565b6000808335601e1984360301811261977a57600080fd5b83016020810192503590506001600160401b0381111561979957600080fd5b8060051b36038213156197ab57600080fd5b9250929050565b60006040830182356197c381618f22565b6001600160401b0316845260206197dc84820185619763565b6040878401529283905291600090606087015b8183101561981f57843561980281618f6a565b6001600160a01b03168152938301936001929092019183016197ef565b979650505050505050565b60ff81168114612afd57600080fd5b6000808335601e1984360301811261985057600080fd5b83016020810192503590506001600160401b0381111561986f57600080fd5b8036038213156197ab57600080fd5b81835281816020850137506000828201602090810191909152601f909101601f19169091010190565b600081356198b48161982a565b60ff1683526198c66020830183619839565b6040602086015261795d60408601828461987e565b6080815260006198ee60808301876197b2565b6001600160a01b0386166020840152828103604084015261990f81866198a7565b91505082606083015295945050505050565b8051618f4281618f22565b60006040828403121561993e57600080fd5b619946618ea8565b9050815161995381618f22565b81526020828101516001600160401b0381111561996f57600080fd5b8301601f8101851361998057600080fd5b805161998e618fa082618f47565b81815260059190911b820183019083810190878311156199ad57600080fd5b928401925b828410156199d45783516199c581618f6a565b825292840192908401906199b2565b8085870152505050505092915050565b60006001600160401b038211156199fd576199fd618e92565b50601f01601f191660200190565b600082601f830112619a1c57600080fd5b8151619a2a618fa0826199e4565b818152846020838601011115619a3f57600080fd5b6184eb826020830160208701618b77565b600060408284031215619a6257600080fd5b619a6a618ea8565b82519091506001600160401b0380821115619a8457600080fd5b619a908583860161992c565b83526020840151915080821115619aa657600080fd5b9083019060408286031215619aba57600080fd5b619ac2618ea8565b8251619acd8161982a565b8152602083015182811115619ae157600080fd5b619aed87828601619a0b565b60208301525080602085015250505092915050565b6001600160e01b031981168114612afd57600080fd5b8051618f4281619b02565b8015158114612afd57600080fd5b8051618f4281619b23565b600060208284031215619b4e57600080fd5b81516001600160401b0380821115619b6557600080fd5b9083019060408286031215619b7957600080fd5b619b81618ea8565b825182811115619b9057600080fd5b830160c08188031215619ba257600080fd5b619baa618ed0565b815184811115619bb957600080fd5b619bc589828501619a50565b825250602082015184811115619bda57600080fd5b619be689828501619a50565b60208301525060408201516040820152619c0260608301619921565b6060820152619c1360808301619b18565b608082015260a082015184811115619c2a57600080fd5b619c3689828501619a0b565b60a083015250825250619c4b60208401619b31565b602082015295945050505050565b600060208284031215619c6b57600080fd5b8151617aec81618f6a565b604081526000619c896040830185618b10565b905060018060a01b03831660208301529392505050565b600060208284031215619cb257600080fd5b81516001600160401b03811115619cc857600080fd5b6184eb8482850161992c565b6001600160401b038181168382160190808211156137d8576137d861970e565b60009081526020902090565b80546001600160401b031682526040602080840182905260018381018054938601849052600090815282812090939092849160608801905b80841015619d5e5785546001600160a01b03168252948401949284019290820190619d38565b50979650505050505050565b604081526000619d7d6040830185618b10565b828103602084015261795d8185619d00565b6000823560be19833603018112619da557600080fd5b9190910192915050565b60008235603e19833603018112619da557600080fd5b600060208284031215619dd757600080fd5b8151617aec81619b23565b600082601f830112619df357600080fd5b8135619e01618fa0826199e4565b818152846020838601011115619e1657600080fd5b816020850160208301376000918101602001919091529392505050565b600060408284031215619e4557600080fd5b619e4d618ea8565b905081356001600160401b0380821115619e6657600080fd5b619e7285838601618fe8565b83526020840135915080821115619e8857600080fd5b9083019060408286031215619e9c57600080fd5b619ea4618ea8565b8235619eaf8161982a565b8152602083013582811115619ec357600080fd5b619aed87828601619de2565b8035618f4281619b02565b8035618f4281619b23565b600060408284031215619ef757600080fd5b619eff618ea8565b905081356001600160401b0380821115619f1857600080fd5b9083019060c08286031215619f2c57600080fd5b619f34618ed0565b823582811115619f4357600080fd5b619f4f87828601619e33565b825250602083013582811115619f6457600080fd5b619f7087828601619e33565b60208301525060408301356040820152619f8c60608401618f37565b6060820152619f9d60808401619ecf565b608082015260a083013582811115619fb457600080fd5b619fc087828601619de2565b60a083015250835250619fd7905060208301619eda565b602082015292915050565b60006113b93683619ee5565b6001600160401b038281168282160390808211156137d8576137d861970e565b6080815260006198ee6080830187619d00565b6000808335601e1984360301811261a03857600080fd5b8301803591506001600160401b0382111561a05257600080fd5b6020019150600581901b36038213156197ab57600080fd5b60008235603e1983360301811261a08057600080fd5b90910192915050565b600061a095828361a06a565b6040845261a0a660408501826197b2565b905061a0b5602084018461a06a565b848203602086015261795d82826198a7565b81835260006020808501808196508560051b81019150846000805b8881101561963f578385038a5261a0f9838961a06a565b6040813560be1983360301811261a10e578485fd5b818852820161a11d818061a06a565b60c080848b015261a1326101008b018361a089565b915061a1408b84018461a06a565b603f196060818d860301818e015261a158858461a089565b94506080925086860135838e01528086013596505061a17686618f22565b60a060018060401b038716818e015282860135965061a19487619b02565b6001600160e01b031987168d85015261a1af86820187619839565b9750955050808c85030160e08d015250505061a1cc81848461987e565b9250505061a1db888301619eda565b15159688019690965250988501989185019160010161a0e2565b6020815260006184eb60208301848661a0c7565b81835260006020808501808196506005915085821b8101856000805b8981101561a2a5578484038b5261a23c838a61a06a565b604061a248828361a06a565b81875261a257828801826197b2565b91505061a26689830183619763565b8783038b89015280835292506001600160fb1b0383111561a285578485fd5b91881b918281838c0137509b88019b01870193509186019160010161a225565b50919998505050505050505050565b85815260a06020820152600061a2ca868761a06a565b60e060a084015261a2df6101808401826197b2565b9050602087013561a2ef81618f22565b6001600160401b031660c0840152604087013560e084015261a3146060880188619763565b609f19808685030161010087015261a32d84838561a0c7565b935061a33c60808b018b619763565b93509150808685030161012087015261a35684848461a209565b935060a08a013561014087015261a37060c08b018b619839565b9350915080868503016101608701525061a38b83838361987e565b93505050508460408301528360608301526192ec60808301846001600160401b03169052565b600081356113b981618f22565b80546001600160401b0319166001600160401b0392909216919091179055565b80820281158282048414176113b9576113b961970e565b5b81811015612bde576000815560010161a3f6565b8054600082558015612bde57816000526020600020611b2e8282018261a3f5565b600160401b82111561a43f5761a43f618e92565b805482825580831015611b2e57816000526020600020616e1082820185830161a3f5565b60008155612afd6001820161a40a565b600019600383901b1c191660019190911b1790565b61a492815461951b565b8015612bde57601f81116001811461a4ac57505060009055565b82600052602060002061a4ca601f840160051c82016001830161a3f5565b60008085559055505050565b6000815561a4e66001820161a40a565b60006002820155612afd6003820161a488565b6000808335601e1984360301811261a51057600080fd5b8301803591506001600160401b0382111561a52a57600080fd5b6020019150368190038213156197ab57600080fd5b601f821115611b2e57806000526020600020601f840160051c8101602085101561a5665750805b61a578601f850160051c83018261a3f5565b5050505050565b6001600160401b0383111561a5965761a596618e92565b61a5aa8361a5a4835461951b565b8361a53f565b6000601f84116001811461a5d8576000851561a5c65750838201355b61a5d0868261a473565b84555061a578565b601f19851661a5e684619cf4565b835b8281101561a608578685013582556020948501946001909201910161a5e8565b508682101561a6255760001960f88860031b161c19848701351681555b505060018560011b0183555050505050565b61a6418283619daf565b803561a64c81618f22565b61a656818461a3be565b506001808301602061a66a8185018561a021565b94506001600160401b038086111561a6845761a684618e92565b61a68e868561a42b565b600093845282842093805b8781101561a6bb57833561a6ac81618f6a565b8682015592840192860161a699565b5060028801965061a6ce848a018a619daf565b94508435925061a6dd8361982a565b865460ff191660ff841617909655600387019561a6fc8585018661a4f9565b955092508185111561a7105761a710618e92565b61a7248561a71e895461951b565b8961a53f565b809150601f85116001811461a7525781861561a7405750838301355b61a74a878261a473565b89555061a7a6565b601f19861661a76089619cf4565b835b8281101561a77f578686013582559487019490890190870161a762565b508782101561a79c5760001960f88960031b161c19858701351681555b50508686881b0188555b50505050505050505050565b600081356113b981619b02565b600081356113b981619b23565b813560be1983360301811261a7e057600080fd5b820161a7ec8180619daf565b61a7f68182619daf565b803561a80181618f22565b61a80b818661a3be565b506001808501602061a81f8185018561a021565b94506001600160401b038086111561a8395761a839618e92565b61a843868561a42b565b600093845282842093805b8781101561a87057833561a86181618f6a565b8682015592840192860161a84e565b5060028a01965061a88384890189619daf565b97508735945061a8928561982a565b865460ff191660ff861617909655600389019561a8b18885018961a4f9565b985094508188111561a8c55761a8c5618e92565b61a8d38861a71e895461951b565b809250601f88116001811461a90357819250881561a8f2578386013592505b61a8fc898461a473565b885561a958565b601f198916925061a91388619cf4565b825b8481101561a932578786013582559486019490880190860161a915565b508984101561a94f5760001960f88b60031b161c19858801351681555b508689881b0188555b5050505061a97461a96b82880188619daf565b6004890161a637565b6040860135600888015560098701945061a99961a9936060880161a3b1565b8661a3be565b61a9cc61a9a86080880161a7b2565b86805463ffffffff60401b191660a09290921c63ffffffff60401b16919091179055565b61a9d960a087018761a4f9565b9650945061a9eb8686600a8a0161a57f565b61aa1261a9f9828a0161a7bf565b600b890160ff1981541660ff8315151681178255505050565b5050505050505050565b600160401b83111561aa305761aa30618e92565b80548382558084101561aac457600c818102818104831461aa535761aa5361970e565b858202828104871461aa675761aa6761970e565b6000858152602081209283019291909101905b8282101561aabf5761aa8b8261a4d6565b61aa976004830161a4d6565b80600883015580600983015561aaaf600a830161a488565b80600b830155838201915061aa7a565b505050505b508161aacf82619cf4565b60005b85811015614d205761aaed61aae78487619daf565b8361a7cc565b60209290920191600c919091019060010161aad2565b805460008083558115611b2e57828152602081208281015b8082101561a5785782825560018201915061ab1b565b600160401b82111561ab455761ab45618e92565b805482825580831015611b2e576000828152602081208481019083015b80821015614d205782825560018201915061ab62565b61ab828283619daf565b803561ab8d81618f22565b61ab97818461a3be565b506001808301602061abab8185018561a021565b94506001600160401b038086111561abc55761abc5618e92565b61abcf868561a42b565b600093845282842093805b8781101561abfc57833561abed81618f6a565b8682015592840192860161abda565b5060028801965061ac0f848a018a61a021565b955092508185111561ac235761ac23618e92565b61ac2d858861ab31565b95865250818520945b8381101561aa125781358682015590820190840161ac36565b600160401b83111561ac635761ac63618e92565b80548382558084101561acd1576003818102818104831461ac865761ac8661970e565b858202828104871461ac9a5761ac9a61970e565b60008581526020902091820191015b8181101561accd5761acba8161a463565b61acc66002820161ab03565b820161aca9565b5050505b508161acdc82619cf4565b60005b85811015614d205761acfa61acf48487619daf565b8361ab78565b602092909201916003919091019060010161acdf565b61ad1a8283619daf565b803561ad2581618f22565b61ad2f818461a3be565b506001808301602061ad438185018561a021565b94506001600160401b0385111561ad5c5761ad5c618e92565b61ad66858461a42b565b6000928352818320925b8581101561ad9257813561ad8381618f6a565b8482015590820190840161ad70565b505061adab61ada282880161a3b1565b6002870161a3be565b505050506040820135600382015561adc6606083018361a021565b61add481836004860161aa1c565b505061ade3608083018361a021565b61adf181836005860161ac4f565b505060a0820135600682015561ae0a60c083018361a4f9565b616e1081836007860161a57f565b600061ae26618fa084618f47565b8381529050602080820190600585901b84018681111561ae4557600080fd5b845b8181101561ae805780356001600160401b0381111561ae665760008081fd5b61ae7289828901619ee5565b85525092820192820161ae47565b505050509392505050565b6000617aec36848461ae18565b6001600160a01b0391909116815260200190565b81516001600160401b0381111561aec55761aec5618e92565b61aed98161aed3845461951b565b8461a53f565b602080601f83116001811461af08576000841561aef65750858301515b61af00858261a473565b865550614d20565b601f19841661af1686619cf4565b60005b8281101561af385788860151825594840194600190910190840161af19565b508582101561af565787850151600019600388901b60f8161c191681555b5050505050600190811b01905550565b604081526000619d7d6040830185618c0d565b60006020828403121561af8b57600080fd5b815160028110617aec57600080fd5b60408152600061afad6040830185618b10565b828103602084015261795d8185618b10565b60006001600160401b038281166002600160401b0319810161afe35761afe361970e565b6001019392505050565b634e487b7160e01b600052601260045260246000fd5b60006001600160401b038381168061b01d5761b01d61afed565b92169190910692915050565b60006040823603121561b03b57600080fd5b61b043618ea8565b823561b04e81618f22565b815260208301356001600160401b0381111561b06957600080fd5b830136601f82011261b07a57600080fd5b6190363682356020840161ae18565b602080825282516001600160401b0316828201528201516040808301526000906184eb6060840182619565565b813561b0c181618f22565b61b0cb818361a3be565b506001808201602061b0df8186018661a021565b600160401b81111561b0f35761b0f3618e92565b83548185558082101561b18657600c818102818104831461b1165761b11661970e565b838202828104851461b12a5761b12a61970e565b60008881528781209283019291909101905b8282101561b1815761b14d8261a4d6565b61b1596004830161a4d6565b80600883015580600983015561b171600a830161a488565b80600b830155838201915061b13c565b505050505b508161b19185619cf4565b945060005b8281101561b1c35761b1b161b1ab8386619daf565b8761a7cc565b600c959095019490840190860161b196565b505050505050505050565b9182526001600160401b0316602082015260400190565b60006020828403121561b1f757600080fd5b81516001600160401b0381111561b20d57600080fd5b6184eb84828501619a0b565b60006001600160401b038381168061b2335761b23361afed565b92169190910492915050565b6001600160401b0381811683821602808216919082811461b2625761b26261970e565b505092915050565b60008251619da5818460208701618b77565b60008261b28b5761b28b61afed565b500490565b602081526000617aec6020830184618b9b56fea2646970667358221220292e3f683bd6adf7535859d9c0dd22b8486c8b168e6710fcb949cbdcfb57d6f564736f6c63430008130033",
    "linkReferences": {
      "src/lib/AccountHelper.sol": {
        "AccountHelper": [
          {
            "start": 27703,
            "length": 20
          },
          {
            "start": 27854,
            "length": 20
          }
        ]
      },
      "src/lib/CheckpointHelper.sol": {
        "CheckpointHelper": [
          {
            "start": 6742,
            "length": 20
          },
          {
            "start": 26356,
            "length": 20
          },
          {
            "start": 26618,
            "length": 20
          },
          {
            "start": 31206,
            "length": 20
          },
          {
            "start": 32366,
            "length": 20
          }
        ]
      },
      "src/lib/CrossMsgHelper.sol": {
        "CrossMsgHelper": [
          {
            "start": 8259,
            "length": 20
          },
          {
            "start": 15973,
            "length": 20
          },
          {
            "start": 19107,
            "length": 20
          },
          {
            "start": 35065,
            "length": 20
          }
        ]
      },
      "src/lib/EpochVoteSubmissionHelper.sol": {
        "EpochVoteSubmissionHelper": [
          {
            "start": 33596,
            "length": 20
          },
          {
            "start": 35773,
            "length": 20
          }
        ]
      },
      "src/lib/ExecutableQueueHelper.sol": {
        "ExecutableQueueHelper": [
          {
            "start": 33453,
            "length": 20
          },
          {
            "start": 33719,
            "length": 20
          },
          {
            "start": 33878,
            "length": 20
          }
        ]
      },
      "src/lib/StorableMsgHelper.sol": {
        "StorableMsgHelper": [
          {
            "start": 29203,
            "length": 20
          },
          {
            "start": 34323,
            "length": 20
          }
        ]
      },
      "src/lib/SubnetIDHelper.sol": {
        "SubnetIDHelper": [
          {
            "start": 481,
            "length": 20
          },
          {
            "start": 8466,
            "length": 20
          },
          {
            "start": 8814,
            "length": 20
          },
          {
            "start": 9082,
            "length": 20
          },
          {
            "start": 10363,
            "length": 20
          },
          {
            "start": 11194,
            "length": 20
          },
          {
            "start": 11429,
            "length": 20
          },
          {
            "start": 11835,
            "length": 20
          },
          {
            "start": 12524,
            "length": 20
          },
          {
            "start": 17837,
            "length": 20
          },
          {
            "start": 24403,
            "length": 20
          },
          {
            "start": 27371,
            "length": 20
          },
          {
            "start": 27649,
            "length": 20
          },
          {
            "start": 28078,
            "length": 20
          },
          {
            "start": 28891,
            "length": 20
          },
          {
            "start": 29041,
            "length": 20
          },
          {
            "start": 29353,
            "length": 20
          },
          {
            "start": 29479,
            "length": 20
          },
          {
            "start": 29786,
            "length": 20
          },
          {
            "start": 30159,
            "length": 20
          },
          {
            "start": 32938,
            "length": 20
          },
          {
            "start": 34111,
            "length": 20
          },
          {
            "start": 34453,
            "length": 20
          },
          {
            "start": 34603,
            "length": 20
          }
        ]
      }
    }
  },
  "methodIdentifiers": {
    "MIN_CHECKPOINT_PERIOD()": "a1ada303",
    "MIN_COLLATERAL_AMOUNT()": "91be4d41",
    "addStake()": "5a627dbc",
    "appliedTopDownNonce()": "8789f83b",
    "bottomUpCheckPeriod()": "06c46853",
    "bottomUpCheckpointAtEpoch(uint64)": "6cb2ecee",
    "bottomUpCheckpointHashAtEpoch(uint64)": "133f74ea",
    "bottomUpCheckpoints(uint64)": "2cc14ea2",
    "bottomUpNonce()": "41b6a2e8",
    "commitChildCheck(((uint64,address[]),uint64,uint256,((((uint64,address[]),(uint8,bytes)),((uint64,address[]),(uint8,bytes)),uint256,uint64,bytes4,bytes),bool)[],((uint64,address[]),bytes32[])[],bytes32,bytes))": "d4e149a8",
    "crossMsgFee()": "24729425",
    "executableQueue()": "10d500e1",
    "fund((uint64,address[]),(uint8,bytes))": "18f44b70",
    "getGenesisEpoch()": "51392fc0",
    "getNetworkName()": "94074b03",
    "getSubnet((uint64,address[]))": "c66c66a1",
    "getSubnetTopDownMsg((uint64,address[]),uint256)": "0ea746f2",
    "getSubnetTopDownMsgsLength((uint64,address[]))": "9d3070b5",
    "getTopDownMsgs((uint64,address[]),uint64)": "13549315",
    "hasValidatorVotedForSubmission(uint64,address)": "66d7bbbc",
    "initGenesisEpoch(uint64)": "13f35388",
    "initialized()": "158ef93e",
    "kill()": "41c0e1b5",
    "lastVotingExecutedEpoch()": "ad81e244",
    "listSubnets()": "5d029685",
    "majorityPercentage()": "599c7bd1",
    "minStake()": "375b3c0a",
    "postbox(bytes32)": "8cfd78e7",
    "propagate(bytes32)": "25bf0db6",
    "register()": "1aa3a008",
    "release((uint8,bytes))": "6b2c1eef",
    "releaseRewards(uint256)": "f8703bb8",
    "releaseStake(uint256)": "45f54485",
    "sendCrossMessage(((((uint64,address[]),(uint8,bytes)),((uint64,address[]),(uint8,bytes)),uint256,uint64,bytes4,bytes),bool))": "2f757dd1",
    "setMembership(address[],uint256[])": "f75bc557",
    "submissionPeriod()": "185fde7e",
    "submitTopDownCheckpoint((uint64,((((uint64,address[]),(uint8,bytes)),((uint64,address[]),(uint8,bytes)),uint256,uint64,bytes4,bytes),bool)[]))": "986acf38",
    "subnetKeys(uint256)": "548b3b38",
    "subnets(bytes32)": "02e30f9a",
    "topDownCheckPeriod()": "7d9740f4",
    "totalSubnets()": "a2b67158",
    "totalWeight()": "96c82e57",
    "validatorNonce()": "e17a684f",
    "validatorSet(uint256,address)": "223d9056"
  },
  "id": 25
}