{
  "abi": [
    {
      "inputs": [
        {
          "internalType": "address",
          "name": "target",
          "type": "address"
        }
      ],
      "name": "AddressEmptyCode",
      "type": "error"
    },
    {
      "inputs": [
        {
          "internalType": "address",
          "name": "account",
          "type": "address"
        }
      ],
      "name": "AddressInsufficientBalance",
      "type": "error"
    },
    {
      "inputs": [],
      "name": "CallFailed",
      "type": "error"
    },
    {
      "inputs": [],
      "name": "CannotSendCrossMsgToItself",
      "type": "error"
    },
    {
      "inputs": [],
      "name": "EpochAlreadyExecuted",
      "type": "error"
    },
    {
      "inputs": [],
      "name": "EpochNotVotable",
      "type": "error"
    },
    {
      "inputs": [],
      "name": "FailedInnerCall",
      "type": "error"
    },
    {
      "inputs": [],
      "name": "InconsistentPrevCheckpoint",
      "type": "error"
    },
    {
      "inputs": [],
      "name": "InsufficientFunds",
      "type": "error"
    },
    {
      "inputs": [],
      "name": "InvalidActorAddress",
      "type": "error"
    },
    {
      "inputs": [],
      "name": "InvalidCheckpointEpoch",
      "type": "error"
    },
    {
      "inputs": [],
      "name": "InvalidCheckpointSource",
      "type": "error"
    },
    {
      "inputs": [],
      "name": "InvalidCrossMsgDestinationSubnet",
      "type": "error"
    },
    {
      "inputs": [],
      "name": "InvalidCrossMsgFromSubnetId",
      "type": "error"
    },
    {
      "inputs": [],
      "name": "InvalidCrossMsgNonce",
      "type": "error"
    },
    {
      "inputs": [],
      "name": "MessagesNotSorted",
      "type": "error"
    },
    {
      "inputs": [],
      "name": "NotEnoughBalance",
      "type": "error"
    },
    {
      "inputs": [],
      "name": "NotEnoughFee",
      "type": "error"
    },
    {
      "inputs": [],
      "name": "NotEnoughFunds",
      "type": "error"
    },
    {
      "inputs": [],
      "name": "NotEnoughSubnetCircSupply",
      "type": "error"
    },
    {
      "inputs": [],
      "name": "NotInitialized",
      "type": "error"
    },
    {
      "inputs": [],
      "name": "NotRegisteredSubnet",
      "type": "error"
    },
    {
      "inputs": [],
      "name": "NotSignableAccount",
      "type": "error"
    },
    {
      "inputs": [],
      "name": "NotValidator",
      "type": "error"
    },
    {
      "inputs": [],
      "name": "SubnetNotActive",
      "type": "error"
    },
    {
      "inputs": [],
      "name": "ValidatorAlreadyVoted",
      "type": "error"
    },
    {
      "inputs": [
        {
          "components": [
            {
              "components": [
                {
                  "internalType": "uint64",
                  "name": "root",
                  "type": "uint64"
                },
                {
                  "internalType": "address[]",
                  "name": "route",
                  "type": "address[]"
                }
              ],
              "internalType": "struct SubnetID",
              "name": "source",
              "type": "tuple"
            },
            {
              "internalType": "uint64",
              "name": "epoch",
              "type": "uint64"
            },
            {
              "internalType": "uint256",
              "name": "fee",
              "type": "uint256"
            },
            {
              "components": [
                {
                  "components": [
                    {
                      "components": [
                        {
                          "components": [
                            {
                              "internalType": "uint64",
                              "name": "root",
                              "type": "uint64"
                            },
                            {
                              "internalType": "address[]",
                              "name": "route",
                              "type": "address[]"
                            }
                          ],
                          "internalType": "struct SubnetID",
                          "name": "subnetId",
                          "type": "tuple"
                        },
                        {
                          "components": [
                            {
                              "internalType": "uint8",
                              "name": "addrType",
                              "type": "uint8"
                            },
                            {
                              "internalType": "bytes",
                              "name": "payload",
                              "type": "bytes"
                            }
                          ],
                          "internalType": "struct FvmAddress",
                          "name": "rawAddress",
                          "type": "tuple"
                        }
                      ],
                      "internalType": "struct IPCAddress",
                      "name": "from",
                      "type": "tuple"
                    },
                    {
                      "components": [
                        {
                          "components": [
                            {
                              "internalType": "uint64",
                              "name": "root",
                              "type": "uint64"
                            },
                            {
                              "internalType": "address[]",
                              "name": "route",
                              "type": "address[]"
                            }
                          ],
                          "internalType": "struct SubnetID",
                          "name": "subnetId",
                          "type": "tuple"
                        },
                        {
                          "components": [
                            {
                              "internalType": "uint8",
                              "name": "addrType",
                              "type": "uint8"
                            },
                            {
                              "internalType": "bytes",
                              "name": "payload",
                              "type": "bytes"
                            }
                          ],
                          "internalType": "struct FvmAddress",
                          "name": "rawAddress",
                          "type": "tuple"
                        }
                      ],
                      "internalType": "struct IPCAddress",
                      "name": "to",
                      "type": "tuple"
                    },
                    {
                      "internalType": "uint256",
                      "name": "value",
                      "type": "uint256"
                    },
                    {
                      "internalType": "uint64",
                      "name": "nonce",
                      "type": "uint64"
                    },
                    {
                      "internalType": "bytes4",
                      "name": "method",
                      "type": "bytes4"
                    },
                    {
                      "internalType": "bytes",
                      "name": "params",
                      "type": "bytes"
                    }
                  ],
                  "internalType": "struct StorableMsg",
                  "name": "message",
                  "type": "tuple"
                },
                {
                  "internalType": "bool",
                  "name": "wrapped",
                  "type": "bool"
                }
              ],
              "internalType": "struct CrossMsg[]",
              "name": "crossMsgs",
              "type": "tuple[]"
            },
            {
              "components": [
                {
                  "components": [
                    {
                      "internalType": "uint64",
                      "name": "root",
                      "type": "uint64"
                    },
                    {
                      "internalType": "address[]",
                      "name": "route",
                      "type": "address[]"
                    }
                  ],
                  "internalType": "struct SubnetID",
                  "name": "source",
                  "type": "tuple"
                },
                {
                  "internalType": "bytes32[]",
                  "name": "checks",
                  "type": "bytes32[]"
                }
              ],
              "internalType": "struct ChildCheck[]",
              "name": "children",
              "type": "tuple[]"
            },
            {
              "internalType": "bytes32",
              "name": "prevHash",
              "type": "bytes32"
            },
            {
              "internalType": "bytes",
              "name": "proof",
              "type": "bytes"
            }
          ],
          "internalType": "struct BottomUpCheckpoint",
          "name": "commit",
          "type": "tuple"
        }
      ],
      "name": "commitChildCheck",
      "outputs": [],
      "stateMutability": "nonpayable",
      "type": "function"
    },
    {
      "inputs": [
        {
          "internalType": "bytes32",
          "name": "msgCid",
          "type": "bytes32"
        }
      ],
      "name": "propagate",
      "outputs": [],
      "stateMutability": "payable",
      "type": "function"
    },
    {
      "inputs": [
        {
          "components": [
            {
              "components": [
                {
                  "components": [
                    {
                      "components": [
                        {
                          "internalType": "uint64",
                          "name": "root",
                          "type": "uint64"
                        },
                        {
                          "internalType": "address[]",
                          "name": "route",
                          "type": "address[]"
                        }
                      ],
                      "internalType": "struct SubnetID",
                      "name": "subnetId",
                      "type": "tuple"
                    },
                    {
                      "components": [
                        {
                          "internalType": "uint8",
                          "name": "addrType",
                          "type": "uint8"
                        },
                        {
                          "internalType": "bytes",
                          "name": "payload",
                          "type": "bytes"
                        }
                      ],
                      "internalType": "struct FvmAddress",
                      "name": "rawAddress",
                      "type": "tuple"
                    }
                  ],
                  "internalType": "struct IPCAddress",
                  "name": "from",
                  "type": "tuple"
                },
                {
                  "components": [
                    {
                      "components": [
                        {
                          "internalType": "uint64",
                          "name": "root",
                          "type": "uint64"
                        },
                        {
                          "internalType": "address[]",
                          "name": "route",
                          "type": "address[]"
                        }
                      ],
                      "internalType": "struct SubnetID",
                      "name": "subnetId",
                      "type": "tuple"
                    },
                    {
                      "components": [
                        {
                          "internalType": "uint8",
                          "name": "addrType",
                          "type": "uint8"
                        },
                        {
                          "internalType": "bytes",
                          "name": "payload",
                          "type": "bytes"
                        }
                      ],
                      "internalType": "struct FvmAddress",
                      "name": "rawAddress",
                      "type": "tuple"
                    }
                  ],
                  "internalType": "struct IPCAddress",
                  "name": "to",
                  "type": "tuple"
                },
                {
                  "internalType": "uint256",
                  "name": "value",
                  "type": "uint256"
                },
                {
                  "internalType": "uint64",
                  "name": "nonce",
                  "type": "uint64"
                },
                {
                  "internalType": "bytes4",
                  "name": "method",
                  "type": "bytes4"
                },
                {
                  "internalType": "bytes",
                  "name": "params",
                  "type": "bytes"
                }
              ],
              "internalType": "struct StorableMsg",
              "name": "message",
              "type": "tuple"
            },
            {
              "internalType": "bool",
              "name": "wrapped",
              "type": "bool"
            }
          ],
          "internalType": "struct CrossMsg",
          "name": "crossMsg",
          "type": "tuple"
        }
      ],
      "name": "sendCrossMessage",
      "outputs": [],
      "stateMutability": "payable",
      "type": "function"
    },
    {
      "inputs": [
        {
          "components": [
            {
              "internalType": "uint64",
              "name": "epoch",
              "type": "uint64"
            },
            {
              "components": [
                {
                  "components": [
                    {
                      "components": [
                        {
                          "components": [
                            {
                              "internalType": "uint64",
                              "name": "root",
                              "type": "uint64"
                            },
                            {
                              "internalType": "address[]",
                              "name": "route",
                              "type": "address[]"
                            }
                          ],
                          "internalType": "struct SubnetID",
                          "name": "subnetId",
                          "type": "tuple"
                        },
                        {
                          "components": [
                            {
                              "internalType": "uint8",
                              "name": "addrType",
                              "type": "uint8"
                            },
                            {
                              "internalType": "bytes",
                              "name": "payload",
                              "type": "bytes"
                            }
                          ],
                          "internalType": "struct FvmAddress",
                          "name": "rawAddress",
                          "type": "tuple"
                        }
                      ],
                      "internalType": "struct IPCAddress",
                      "name": "from",
                      "type": "tuple"
                    },
                    {
                      "components": [
                        {
                          "components": [
                            {
                              "internalType": "uint64",
                              "name": "root",
                              "type": "uint64"
                            },
                            {
                              "internalType": "address[]",
                              "name": "route",
                              "type": "address[]"
                            }
                          ],
                          "internalType": "struct SubnetID",
                          "name": "subnetId",
                          "type": "tuple"
                        },
                        {
                          "components": [
                            {
                              "internalType": "uint8",
                              "name": "addrType",
                              "type": "uint8"
                            },
                            {
                              "internalType": "bytes",
                              "name": "payload",
                              "type": "bytes"
                            }
                          ],
                          "internalType": "struct FvmAddress",
                          "name": "rawAddress",
                          "type": "tuple"
                        }
                      ],
                      "internalType": "struct IPCAddress",
                      "name": "to",
                      "type": "tuple"
                    },
                    {
                      "internalType": "uint256",
                      "name": "value",
                      "type": "uint256"
                    },
                    {
                      "internalType": "uint64",
                      "name": "nonce",
                      "type": "uint64"
                    },
                    {
                      "internalType": "bytes4",
                      "name": "method",
                      "type": "bytes4"
                    },
                    {
                      "internalType": "bytes",
                      "name": "params",
                      "type": "bytes"
                    }
                  ],
                  "internalType": "struct StorableMsg",
                  "name": "message",
                  "type": "tuple"
                },
                {
                  "internalType": "bool",
                  "name": "wrapped",
                  "type": "bool"
                }
              ],
              "internalType": "struct CrossMsg[]",
              "name": "topDownMsgs",
              "type": "tuple[]"
            }
          ],
          "internalType": "struct TopDownCheckpoint",
          "name": "checkpoint",
          "type": "tuple"
        }
      ],
      "name": "submitTopDownCheckpoint",
      "outputs": [],
      "stateMutability": "nonpayable",
      "type": "function"
    }
  ],
  "bytecode": {
    "object": "0x608060405234801561001057600080fd5b5061615780620000216000396000f3fe60806040526004361061003f5760003560e01c806325bf0db6146100445780632f757dd114610059578063986acf381461006c578063d4e149a81461008c575b600080fd5b61005761005236600461401c565b6100ac565b005b61005761006736600461404d565b61065a565b34801561007857600080fd5b5061005761008736600461404d565b610834565b34801561009857600080fd5b506100576100a7366004614081565b6111aa565b6100b4611c1e565b600081815260066020908152604080832081516101808101835281546001600160401b0316610140820190815260018301805485518188028101880187528181529497968796610448968a958795928601948794869461010089019487948694909386936101608d019392909183018282801561015a57602002820191906000526020600020905b81546001600160a01b0316815260019091019060200180831161013c575b5050509190925250505081526040805180820190915260028301805460ff16825260038401805460209485019484019190610194906140c2565b80601f01602080910402602001604051908101604052809291908181526020018280546101c0906140c2565b801561020d5780601f106101e25761010080835404028352916020019161020d565b820191906000526020600020905b8154815290600101906020018083116101f057829003601f168201915b505050919092525050509052508152604080516080810182526004840180546001600160401b031682840190815260058601805485516020828102820181019097528181529686019694959394869486936060870193909183018282801561029e57602002820191906000526020600020905b81546001600160a01b03168152600190910190602001808311610280575b5050509190925250505081526040805180820190915260028301805460ff168252600384018054602094850194840191906102d8906140c2565b80601f0160208091040260200160405190810160405280929190818152602001828054610304906140c2565b80156103515780601f1061032657610100808354040283529160200191610351565b820191906000526020600020905b81548152906001019060200180831161033457829003601f168201915b5050509190925250505090525081526008820154602082015260098201546001600160401b0381166040830152600160401b900460e01b6001600160e01b0319166060820152600a820180546080909201916103ac906140c2565b80601f01602080910402602001604051908101604052809291908181526020018280546103d8906140c2565b80156104255780601f106103fa57610100808354040283529160200191610425565b820191906000526020600020905b81548152906001019060200180831161040857829003601f168201915b505050919092525050508152600b919091015460ff161515602090910152611c43565b60088501546040805180820182526004880180546001600160401b03168252600589018054845160208281028201810190965281815297995095975093956000959294919380860193919291908301828280156104ce57602002820191906000526020600020905b81546001600160a01b031681526001909101906020018083116104b0575b50505091909252505060405163089032d560e01b815273__$a0fe38a9a81205afccc10810b09a4d3f45$__9263089032d59250610510916000906004016141cc565b600060405180830381865af415801561052d573d6000803e3d6000fd5b505050506040513d6000823e601f3d908101601f1916820160405261055591908101906142ce565b600087815260066020526040812080546001600160401b03191681559192508181818181816105876001830182613f0a565b505060028201805460ff1916815560006105a46003850182613f28565b505050506004820180546001600160401b0319168155600081816105cb6005870182613f0a565b505060028201805460ff1916815560006105e86003850182613f28565b50506000600885018190556009850180546001600160601b03191690556106159250600a85019150613f28565b505050600b01805460ff1916905561062f82828686611fb5565b600a5460009061063f90346143c9565b90508015610651576106513382612056565b50505050505050565b6106626120eb565b61066a611c1e565b3461067582806143dc565b604001351461069757604051631036b5ad60e31b815260040160405180910390fd5b6106a181806143dc565b6106ab90806143fc565b6106b590806143fc565b6106be906144da565b60405163c836244d60e01b815273__$a0fe38a9a81205afccc10810b09a4d3f45$__9163c836244d916106f791906000906004016141cc565b602060405180830381865af4158015610714573d6000803e3d6000fd5b505050506040513d601f19601f8201168201806040525081019061073891906144f4565b61075557604051638481de4960e01b815260040160405180910390fd5b60008061076961076484614772565b611c43565b909250905061082f61077b84806143dc565b6040013561078985806143dc565b6107979060208101906143fc565b6107a190806143fc565b6107aa906144da565b60405163089032d560e01b815273__$a0fe38a9a81205afccc10810b09a4d3f45$__9163089032d5916107e391906000906004016141cc565b600060405180830381865af4158015610800573d6000803e3d6000fd5b505050506040513d6000823e601f3d908101601f1916820160405261082891908101906142ce565b8484611fb5565b505050565b61083c6120eb565b61085161084c602083018361477e565b61217b565b600d546000908152600c6020908152604080832033845290915290205460105460ff16610891576040516321c4e35760e21b815260040160405180910390fd5b806000036108b257604051632ec5b44960e01b815260040160405180910390fd5b73__$33b79814e84bf6cf5e47244090b19ce5f8$__63898414756108d9602085018561479b565b6040518363ffffffff1660e01b81526004016108f6929190614ae7565b602060405180830381865af4158015610913573d6000803e3d6000fd5b505050506040513d601f19601f8201168201806040525081019061093791906144f4565b61095457604051630bd9169f60e01b815260040160405180910390fd5b6000601181610966602086018661477e565b6001600160401b03166001600160401b031681526020019081526020016000209050600061099682853386612187565b905060608115610d6f576109a9836126bf565b805480602002602001604051908101604052809291908181526020016000905b82821015610d685760008481526020908190206040805161018081018252600c860290920180546001600160401b031661014084019081526001820180548451818802810188018652818152959693958795860194879486946101008901948794869486936101608d01939091830182828015610a6f57602002820191906000526020600020905b81546001600160a01b03168152600190910190602001808311610a51575b5050509190925250505081526040805180820190915260028301805460ff16825260038401805460209485019484019190610aa9906140c2565b80601f0160208091040260200160405190810160405280929190818152602001828054610ad5906140c2565b8015610b225780601f10610af757610100808354040283529160200191610b22565b820191906000526020600020905b815481529060010190602001808311610b0557829003601f168201915b505050919092525050509052508152604080516080810182526004840180546001600160401b0316828401908152600586018054855160208281028201810190975281815296860196949593948694869360608701939091830182828015610bb357602002820191906000526020600020905b81546001600160a01b03168152600190910190602001808311610b95575b5050509190925250505081526040805180820190915260028301805460ff16825260038401805460209485019484019190610bed906140c2565b80601f0160208091040260200160405190810160405280929190818152602001828054610c19906140c2565b8015610c665780601f10610c3b57610100808354040283529160200191610c66565b820191906000526020600020905b815481529060010190602001808311610c4957829003601f168201915b5050509190925250505090525081526008820154602082015260098201546001600160401b0381166040830152600160401b900460e01b6001600160e01b0319166060820152600a82018054608090920191610cc1906140c2565b80601f0160208091040260200160405190810160405280929190818152602001828054610ced906140c2565b8015610d3a5780601f10610d0f57610100808354040283529160200191610d3a565b820191906000526020600020905b815481529060010190602001808311610d1d57829003601f168201915b505050919092525050508152600b919091015460ff16151560209182015290825260019290920191016109c9565b5050505090505b805160000361117857600080610d836126f1565b915091508015611175576001600160401b0382166000908152601160205260409020610dae816126bf565b805480602002602001604051908101604052809291908181526020016000905b8282101561116d5760008481526020908190206040805161018081018252600c860290920180546001600160401b031661014084019081526001820180548451818802810188018652818152959693958795860194879486946101008901948794869486936101608d01939091830182828015610e7457602002820191906000526020600020905b81546001600160a01b03168152600190910190602001808311610e56575b5050509190925250505081526040805180820190915260028301805460ff16825260038401805460209485019484019190610eae906140c2565b80601f0160208091040260200160405190810160405280929190818152602001828054610eda906140c2565b8015610f275780601f10610efc57610100808354040283529160200191610f27565b820191906000526020600020905b815481529060010190602001808311610f0a57829003601f168201915b505050919092525050509052508152604080516080810182526004840180546001600160401b0316828401908152600586018054855160208281028201810190975281815296860196949593948694869360608701939091830182828015610fb857602002820191906000526020600020905b81546001600160a01b03168152600190910190602001808311610f9a575b5050509190925250505081526040805180820190915260028301805460ff16825260038401805460209485019484019190610ff2906140c2565b80601f016020809104026020016040519081016040528092919081815260200182805461101e906140c2565b801561106b5780601f106110405761010080835404028352916020019161106b565b820191906000526020600020905b81548152906001019060200180831161104e57829003601f168201915b5050509190925250505090525081526008820154602082015260098201546001600160401b0381166040830152600160401b900460e01b6001600160e01b0319166060820152600a820180546080909201916110c6906140c2565b80601f01602080910402602001604051908101604052809291908181526020018280546110f2906140c2565b801561113f5780601f106111145761010080835404028352916020019161113f565b820191906000526020600020905b81548152906001019060200180831161112257829003601f168201915b505050919092525050508152600b919091015460ff1615156020918201529082526001929092019101610dce565b505050509350505b50505b6040805180820182526000808252825181815260208181019094526111a39383019150905282612744565b5050505050565b60105460ff166111cd576040516321c4e35760e21b815260040160405180910390fd5b336112696111db83806143fc565b6111e4906144da565b604051632cff562160e11b815273__$a0fe38a9a81205afccc10810b09a4d3f45$__916359feac429161121a9190600401614afb565b602060405180830381865af4158015611237573d6000803e3d6000fd5b505050506040513d601f19601f8201168201806040525081019061125b9190614b0e565b6001600160a01b031661277c565b6001600160a01b03161461129057604051637f39132760e11b815260040160405180910390fd5b600061129b336127c3565b915060019050815460ff1660058111156112b7576112b7614b2b565b146112d55760405163c18316bf60e01b815260040160405180910390fd5b6112e5604083016020840161477e565b60088201546001600160401b039182169116106113155760405163fae4eadb60e01b815260040160405180910390fd5b60a082013515611a1f5760408051610120810182526006830180546001600160401b031660e083019081526007850180548551602082810282018101909752818152949593948694869361010087019390918301828280156113a057602002820191906000526020600020905b81546001600160a01b03168152600190910190602001808311611382575b50505050508152505081526020016002820160009054906101000a90046001600160401b03166001600160401b03166001600160401b031681526020016003820154815260200160048201805480602002602001604051908101604052809291908181526020016000905b828210156117aa5760008481526020908190206040805161018081018252600c860290920180546001600160401b031661014084019081526001820180548451818802810188018652818152959693958795860194879486946101008901948794869486936101608d019390918301828280156114b157602002820191906000526020600020905b81546001600160a01b03168152600190910190602001808311611493575b5050509190925250505081526040805180820190915260028301805460ff168252600384018054602094850194840191906114eb906140c2565b80601f0160208091040260200160405190810160405280929190818152602001828054611517906140c2565b80156115645780601f1061153957610100808354040283529160200191611564565b820191906000526020600020905b81548152906001019060200180831161154757829003601f168201915b505050919092525050509052508152604080516080810182526004840180546001600160401b03168284019081526005860180548551602082810282018101909752818152968601969495939486948693606087019390918301828280156115f557602002820191906000526020600020905b81546001600160a01b031681526001909101906020018083116115d7575b5050509190925250505081526040805180820190915260028301805460ff1682526003840180546020948501948401919061162f906140c2565b80601f016020809104026020016040519081016040528092919081815260200182805461165b906140c2565b80156116a85780601f1061167d576101008083540402835291602001916116a8565b820191906000526020600020905b81548152906001019060200180831161168b57829003601f168201915b5050509190925250505090525081526008820154602082015260098201546001600160401b0381166040830152600160401b900460e01b6001600160e01b0319166060820152600a82018054608090920191611703906140c2565b80601f016020809104026020016040519081016040528092919081815260200182805461172f906140c2565b801561177c5780601f106117515761010080835404028352916020019161177c565b820191906000526020600020905b81548152906001019060200180831161175f57829003601f168201915b505050919092525050508152600b919091015460ff161515602091820152908252600192909201910161140b565b50505050815260200160058201805480602002602001604051908101604052809291908181526020016000905b828210156118e1576000848152602090819020604080516080810182526003860290920180546001600160401b03168383019081526001820180548451818802810188019095528085529495929486949293869360608701939092909183018282801561186d57602002820191906000526020600020905b81546001600160a01b0316815260019091019060200180831161184f575b5050505050815250508152602001600282018054806020026020016040519081016040528092919081815260200182805480156118c957602002820191906000526020600020905b8154815260200190600101908083116118b5575b505050505081525050815260200190600101906117d7565b50505050815260200160068201548152602001600782018054611903906140c2565b80601f016020809104026020016040519081016040528092919081815260200182805461192f906140c2565b801561197c5780601f106119515761010080835404028352916020019161197c565b820191906000526020600020905b81548152906001019060200180831161195f57829003601f168201915b5050509190925250506040516339aa47fb60e01b815273__$1cd67d4dc9e627f0bec7928aa480e7d951$__926339aa47fb92506119bb91600401614d61565b602060405180830381865af41580156119d8573d6000803e3d6000fd5b505050506040513d601f19601f820116820180604052508101906119fc9190614dfe565b8260a0013514611a1f576040516312232e5d60e11b815260040160405180910390fd5b6000806000611a2c6128fb565b92509250925082611a8a576000805482546001600160401b0319166001600160401b03909116178255600180548391611a69918184019190613f62565b5050506002810180546001600160401b0319166001600160401b0384161790555b60405163445cc97560e01b815273__$1cd67d4dc9e627f0bec7928aa480e7d951$__9063445cc97590611acb9084908990600e90600f908990600401614ec2565b60006040518083038186803b158015611ae357600080fd5b505af4158015611af7573d6000803e3d6000fd5b50505050600080868060600190611b0e919061479b565b9050905060005b81811015611b6e57611b2a606089018961479b565b82818110611b3a57611b3a614fbf565b9050602002810190611b4c91906143fc565b611b5690806143dc565b611b64906040013584614fd5565b9250600101611b15565b506003830154611b82906040890135614fd5565b611b8c9083614fd5565b91508186600301541015611bb357604051631d36ca1560e21b815260040160405180910390fd5b81866003016000828254611bc791906143c9565b9091555087905060068701611bdc8282615972565b50611c109050611bec88806143fc565b611bf5906144da565b611c0260608a018a61479b565b611c0b91615b14565b612744565b610651338860400135612a31565b600a54341015611c41576040516334472ad760e11b815260040160405180910390fd5b565b80516020015151604051630c133d1360e31b8152600091829173__$a0fe38a9a81205afccc10810b09a4d3f45$__90636099e89890611c86908490600401614afb565b602060405180830381865af4158015611ca3573d6000803e3d6000fd5b505050506040513d601f19601f82011682018060405250810190611cc791906144f4565b15611ce55760405163461e815d60e01b815260040160405180910390fd5b60405163c836244d60e01b815273__$a0fe38a9a81205afccc10810b09a4d3f45$__9063c836244d90611d1f9084906000906004016141cc565b602060405180830381865af4158015611d3c573d6000803e3d6000fd5b505050506040513d601f19601f82011682018060405250810190611d6091906144f4565b15611d7e57604051632f3335ff60e21b815260040160405180910390fd5b835180515160405163f47ad7eb60e01b8152909160009173__$386b5c41ce93e8b832daf8008b3d30ae09$__9163f47ad7eb91611dc091908590600401615b21565b602060405180830381865af4158015611ddd573d6000803e3d6000fd5b505050506040513d601f19601f82011682018060405250810190611e019190615b34565b905060006001826001811115611e1957611e19614b2b565b03611f1a57604051631ccc893360e11b815273__$a0fe38a9a81205afccc10810b09a4d3f45$__90633999126690611e579087908790600401615b55565b600060405180830381865af4158015611e74573d6000803e3d6000fd5b505050506040513d6000823e601f3d908101601f19168201604052611e9c91908101906142ce565b60405163c836244d60e01b815273__$a0fe38a9a81205afccc10810b09a4d3f45$__9163c836244d91611ed591906000906004016141cc565b602060405180830381865af4158015611ef2573d6000803e3d6000fd5b505050506040513d601f19601f82011682018060405250810190611f1691906144f4565b1590505b8015611f3e57611f2987612a8f565b50509351604001511515946000945092505050565b6000826001811115611f5257611f52614b2b565b03611f9c5760098054600890611f7790600160401b90046001600160401b0316615b7a565b91906101000a8154816001600160401b0302191690836001600160401b031602179055505b611fa587612cc1565b5060009660019650945050505050565b8115611fc657611fc6606385612056565b801561205057604051632cff562160e11b81526120509073__$a0fe38a9a81205afccc10810b09a4d3f45$__906359feac4290612007908790600401614afb565b602060405180830381865af4158015612024573d6000803e3d6000fd5b505050506040513d601f19601f820116820180604052508101906120489190614b0e565b600a54612a31565b50505050565b804710156120775760405163356680b760e01b815260040160405180910390fd5b6000826001600160a01b03168260405160006040518083038185875af1925050503d80600081146120c4576040519150601f19603f3d011682016040523d82523d6000602084013e6120c9565b606091505b505090508061082f57604051633204506f60e01b815260040160405180910390fd5b604051630972932760e21b815233600482015273__$e800e3908cdbb6b1b5bd452383a17b18f7$__906325ca4c9c90602401602060405180830381865af415801561213a573d6000803e3d6000fd5b505050506040513d601f19601f8201168201806040525081019061215e91906144f4565b611c4157604051630a23da2b60e31b815260040160405180910390fd5b61218481612f92565b50565b60008061219385615ba0565b604051630edf122560e41b815273__$1cd67d4dc9e627f0bec7928aa480e7d951$__9163edf12250916121c99190600401615c0c565b602060405180830381865af41580156121e6573d6000803e3d6000fd5b505050506040513d601f19601f8201168201806040525081019061220a9190614dfe565b90506122288682868661222060208b018b61477e565b600b54613048565b600082815260058801602090815260408083208151808301835281546001600160401b03168152600182018054845181870281018701909552808552969850909591948685019491929184015b828210156126145760008481526020908190206040805161018081018252600c860290920180546001600160401b031661014084019081526001820180548451818802810188018652818152959693958795860194879486946101008901948794869486936101608d0193909183018282801561231b57602002820191906000526020600020905b81546001600160a01b031681526001909101906020018083116122fd575b5050509190925250505081526040805180820190915260028301805460ff16825260038401805460209485019484019190612355906140c2565b80601f0160208091040260200160405190810160405280929190818152602001828054612381906140c2565b80156123ce5780601f106123a3576101008083540402835291602001916123ce565b820191906000526020600020905b8154815290600101906020018083116123b157829003601f168201915b505050919092525050509052508152604080516080810182526004840180546001600160401b031682840190815260058601805485516020828102820181019097528181529686019694959394869486936060870193909183018282801561245f57602002820191906000526020600020905b81546001600160a01b03168152600190910190602001808311612441575b5050509190925250505081526040805180820190915260028301805460ff16825260038401805460209485019484019190612499906140c2565b80601f01602080910402602001604051908101604052809291908181526020018280546124c5906140c2565b80156125125780601f106124e757610100808354040283529160200191612512565b820191906000526020600020905b8154815290600101906020018083116124f557829003601f168201915b5050509190925250505090525081526008820154602082015260098201546001600160401b0381166040830152600160401b900460e01b6001600160e01b0319166060820152600a8201805460809092019161256d906140c2565b80601f0160208091040260200160405190810160405280929190818152602001828054612599906140c2565b80156125e65780601f106125bb576101008083540402835291602001916125e6565b820191906000526020600020905b8154815290600101906020018083116125c957829003601f168201915b505050919092525050508152600b919091015460ff1615156020918201529082526001929092019101612275565b50505091525050604051632d34315760e01b815273__$1cd67d4dc9e627f0bec7928aa480e7d951$__91632d343157916126519190600401615c0c565b602060405180830381865af415801561266e573d6000803e3d6000fd5b505050506040513d601f19601f8201168201806040525081019061269291906144f4565b156126b6576000818152600587016020526040902085906126b38282615c3a565b50505b50949350505050565b60028101546000908152600582016020526040812080546126e8906001600160401b0316613295565b60010192915050565b7f283d1424c49941ba61504663c7a1b6f59e6bbb963a00bcc130bcbf9c29e1e27154600160401b90046001600160401b0316600060008051602061610283398151915261273d836133f6565b9150509091565b805160005b81811015612050576127748484838151811061276757612767614fbf565b6020026020010151613443565b600101612749565b600080600061278a84613a22565b915091508161279b57509192915050565b6000806127a783613a5e565b91509150816127ba575093949350505050565b95945050505050565b600080806001600160a01b0384166127ee576040516370e4510960e01b815260040160405180910390fd5b60408051808201825282546001600160401b031681526001830180548351602082810282018101909552818152600094869381860193909183018282801561285f57602002820191906000526020600020905b81546001600160a01b03168152600190910190602001808311612841575b50505091909252505060405163aa5106cb60e01b815273__$a0fe38a9a81205afccc10810b09a4d3f45$__9263aa5106cb92506128a0918990600401615d5f565b600060405180830381865af41580156128bd573d6000803e3d6000fd5b505050506040513d6000823e601f3d908101601f191682016040526128e591908101906142ce565b90506128f081613ac8565b935093505050915091565b60055460009081908190819061291b9043906001600160401b0316613c5b565b6001600160401b03808216600090815260088401602090815260409182902082518084018452815490941684526001810180548451818502810185019095528085529598509096509293869385830193929091908301828280156129a857602002820191906000526020600020905b81546001600160a01b0316815260019091019060200180831161298a575b505050919092525050604051630c133d1360e31b815273__$a0fe38a9a81205afccc10810b09a4d3f45$__92636099e89892506129e791600401614afb565b602060405180830381865af4158015612a04573d6000803e3d6000fd5b505050506040513d601f19601f82011682018060405250810190612a2891906144f4565b15935050909192565b80600003612a3d575050565b61082f612a52836001600160a01b031661277c565b6040805160248082018690528251808303909101815260449091019091526020810180516001600160e01b0316632a7edd8f60e21b179052613c86565b600080612a9a6128fb565b600985015486516001600160401b03909116606090910152600a8501546003820180549295509093509150600090612ad3908490614fd5565b90915550506004810180546001808201835560009283526020928390208651805180518051600c90960290930180546001600160401b0319166001600160401b039096169590951785558286015180518a979395879593948694938593612b41938501929190910190613fb2565b505050602082810151805160028401805460ff191660ff909216919091178155918101519091906003840190612b779082615d89565b50505050602083810151805180516004860180546001600160401b0319166001600160401b03909216919091178155818401518051939550909391928492612bc6926005890192910190613fb2565b505050602082810151805160028401805460ff191660ff909216919091178155918101519091906003840190612bfc9082615d89565b5050505060408301516008830155506060820151600982018054608085015160e01c600160401b026001600160601b03199091166001600160401b039093169290921791909117905560a0820151600a820190612c599082615d89565b50505060209190910151600b909101805460ff191691151591909117905560098201805460019190600090612c989084906001600160401b0316615e42565b92506101000a8154816001600160401b0302191690836001600160401b03160217905550505050565b8051602001515160405163089032d560e01b8152600091829173__$a0fe38a9a81205afccc10810b09a4d3f45$__9163089032d591612d05919085906004016141cc565b600060405180830381865af4158015612d22573d6000803e3d6000fd5b505050506040513d6000823e601f3d908101601f19168201604052612d4a91908101906142ce565b9050600080612d5883613ac8565b9150915081612d7a57604051630e991abd60e41b815260040160405180910390fd5b805485516101009091046001600160401b0316606090910181905260019082908290612da7908290615e42565b92506101000a8154816001600160401b0302191690836001600160401b03160217905550846000015160400151816003016000828254612de79190614fd5565b9091555050600e810180546001808201835560009283526020928390208851805180518051600c90960290930180546001600160401b0319166001600160401b039096169590951785558286015180518c979395879593948694938593612e55938501929190910190613fb2565b505050602082810151805160028401805460ff191660ff909216919091178155918101519091906003840190612e8b9082615d89565b50505050602083810151805180516004860180546001600160401b0319166001600160401b03909216919091178155818401518051939550909391928492612eda926005890192910190613fb2565b505050602082810151805160028401805460ff191660ff909216919091178155918101519091906003840190612f109082615d89565b5050505060408301516008830155506060820151600982018054608085015160e01c600160401b026001600160601b03199091166001600160401b039093169290921791909117905560a0820151600a820190612f6d9082615d89565b50505060209190910151600b909101805460ff19169115159190911790555050505050565b60008051602061610283398151915280546001600160401b0390811690831611612fcf57604051631f30cc6360e21b815260040160405180910390fd5b80546001600160401b03600160401b909104811690831611156130445780546001600160401b03600160881b820481169161301391600160401b9091041684615e69565b61301d9190615e9f565b6001600160401b0316156130445760405163b4f68f9760e01b815260040160405180910390fd5b5050565b8554600081815260038801602090815260408083206001600160a01b038916845290915281205490916000805160206161028339815191529160ff16156130a2576040516337138f5f60e11b815260040160405180910390fd5b600081815260038a01602090815260408083206001600160a01b038b1684529091528120805460ff191660019081179091558a0180548892906130e6908490614fd5565b9091555050600081815260048a01602090815260408083208b845290915281208054889290613116908490614fd5565b9091555050600081815260048a016020908152604080832060028d01548452909152808220548a8352912054808210156131525760028b018a90555b600061315e8c88613c97565b9050600381600381111561317457613174614b2b565b0361320957613182886133f6565b156131905760019550613286565b60405163199b9ca560e01b81526001860160048201526001600160401b038916602482015273__$b7b8687e33476c74e3b4e0a64c4768a343$__9063199b9ca59060440160006040518083038186803b1580156131ec57600080fd5b505af4158015613200573d6000803e3d6000fd5b50505050613286565b600281600381111561321d5761321d614b2b565b0361328657604051635a27a53960e11b8152600481018d905273__$e0f829f5071d7e628aa77eca0c12e35bc2$__9063b44f4a729060240160006040518083038186803b15801561326d57600080fd5b505af4158015613281573d6000803e3d6000fd5b505050505b50505050509695505050505050565b6000805160206161028339815191526132ad826133f6565b6132b5575050565b604051634953836d60e11b81526001820160048201526001600160401b038316602482015273__$b7b8687e33476c74e3b4e0a64c4768a343$__906392a706da90604401602060405180830381865af4158015613316573d6000803e3d6000fd5b505050506040513d601f19601f8201168201806040525081019061333a91906144f4565b156133615760018101546001600160401b03838116600160401b9092041614613361575050565b6040516394ecccfd60e01b81526001820160048201526001600160401b038316602482015273__$b7b8687e33476c74e3b4e0a64c4768a343$__906394ecccfd9060440160006040518083038186803b1580156133bd57600080fd5b505af41580156133d1573d6000803e3d6000fd5b505082546001600160401b0319166001600160401b0394909416939093179091555050565b600080516020616102833981519152805460009190613427906001600160401b03600160881b820481169116615e42565b6001600160401b0316836001600160401b031614915050919050565b80516020015151604051630c133d1360e31b815273__$a0fe38a9a81205afccc10810b09a4d3f45$__91636099e898916134809190600401614afb565b602060405180830381865af415801561349d573d6000803e3d6000fd5b505050506040513d601f19601f820116820180604052508101906134c191906144f4565b156134df5760405163461e815d60e01b815260040160405180910390fd5b8051608001516001600160e01b031916613519578051604001514710156135195760405163569d45cf60e11b815260040160405180910390fd5b805160405163f47ad7eb60e01b815260009173__$386b5c41ce93e8b832daf8008b3d30ae09$__9163f47ad7eb91613555918590600401615b21565b602060405180830381865af4158015613572573d6000803e3d6000fd5b505050506040513d601f19601f820116820180604052508101906135969190615b34565b8251602001515160405163c836244d60e01b815291925073__$a0fe38a9a81205afccc10810b09a4d3f45$__9163c836244d916135d8916000906004016141cc565b602060405180830381865af41580156135f5573d6000803e3d6000fd5b505050506040513d601f19601f8201168201806040525081019061361991906144f4565b1561388257600181600181111561363257613632614b2b565b0361376757604051630c133d1360e31b815273__$a0fe38a9a81205afccc10810b09a4d3f45$__90636099e8989061366e908690600401614afb565b602060405180830381865af415801561368b573d6000803e3d6000fd5b505050506040513d601f19601f820116820180604052508101906136af91906144f4565b613767576000806136bf85613ac8565b91509150816136e157604051630e991abd60e41b815260040160405180910390fd5b8351606001518154600160481b90046001600160401b0390811691161461371b5760405163a57cadff60e01b815260040160405180910390fd5b80546001908290600990613740908490600160481b90046001600160401b0316615e42565b92506101000a8154816001600160401b0302191690836001600160401b0316021790555050505b600081600181111561377b5761377b614b2b565b0361380657815160600151600954600160401b90046001600160401b039081169116146137bb5760405163a57cadff60e01b815260040160405180910390fd5b60098054600191906008906137e1908490600160401b90046001600160401b0316615e42565b92506101000a8154816001600160401b0302191690836001600160401b031602179055505b604051635c46fefb60e11b815273__$33b79814e84bf6cf5e47244090b19ce5f8$__9063b88dfdf69061383d908590600401615ec5565b600060405180830381865af415801561385a573d6000803e3d6000fd5b505050506040513d6000823e601f3d908101601f191682016040526120509190810190615ed8565b600061388d83613dac565b6000818152600660209081526040909120855180518051805184546001600160401b0319166001600160401b03909116178455808501518051969750899694959394869485939284926138e69260018501920190613fb2565b505050602082810151805160028401805460ff191660ff90921691909117815591810151909190600384019061391c9082615d89565b50505050602083810151805180516004860180546001600160401b0319166001600160401b0390921691909117815581840151805193955090939192849261396b926005890192910190613fb2565b505050602082810151805160028401805460ff191660ff9092169190911781559181015190919060038401906139a19082615d89565b5050505060408301516008830155506060820151600982018054608085015160e01c600160401b026001600160601b03199091166001600160401b039093169290921791909117905560a0820151600a8201906139fe9082615d89565b50505060209190910151600b909101805460ff191691151591909117905550505050565b60008073ffffffffffffffffffffffff0000000000000000831660ff60981b8103613a5857600192506001600160401b03841691505b50915091565b600080826000526016600a602060006002607f60991b015afa9150600051806001600160a01b031691508060a01c61ffff16905061040a8114613aa45760009250600091505b50811580613ab357503d601614155b15613ac357506000928392509050565b915091565b6040516390ba52cf60e01b815260009081908190600490829073__$a0fe38a9a81205afccc10810b09a4d3f45$__906390ba52cf90613b0a9089908601614afb565b602060405180830381865af4158015613b27573d6000803e3d6000fd5b505050506040513d601f19601f82011682018060405250810190613b4b9190614dfe565b81526020808201929092526040908101600020815180830183526004820180546001600160401b031682526005830180548551818802810188019096528086529397509194909385820193909291830182828015613bd257602002820191906000526020600020905b81546001600160a01b03168152600190910190602001808311613bb4575b505050919092525050604051630c133d1360e31b815273__$a0fe38a9a81205afccc10810b09a4d3f45$__92636099e8989250613c1191600401614afb565b602060405180830381865af4158015613c2e573d6000803e3d6000fd5b505050506040513d601f19601f82011682018060405250810190613c5291906144f4565b15925050915091565b600081613c688185615f45565b613c73906001615e42565b613c7d9190615f6b565b90505b92915050565b6060613c7d83836000613ddc613df5565b6000805160206161028339815191528054600091908290606490613cc590600160801b900460ff1686614ff5565b613ccf9190615f96565b604051637d2ef4e560e11b81526004810187905290915060009073__$e0f829f5071d7e628aa77eca0c12e35bc2$__9063fa5de9ca90602401602060405180830381865af4158015613d25573d6000803e3d6000fd5b505050506040513d601f19601f82011682018060405250810190613d499190614dfe565b905081866001015411613d625760009350505050613c80565b81811115613d765760039350505050613c80565b6001860154613d8590866143c9565b613d8f82846143c9565b10613da05760029350505050613c80565b50600195945050505050565b600081604051602001613dbf919061603d565b604051602081830303815290604052805190602001209050919050565b604051630a12f52160e11b815260040160405180910390fd5b606082471015613e1f5760405163cd78605960e01b81523060048201526024015b60405180910390fd5b600080866001600160a01b03168587604051613e3b91906160ef565b60006040518083038185875af1925050503d8060008114613e78576040519150601f19603f3d011682016040523d82523d6000602084013e613e7d565b606091505b5091509150613e8e87838387613e9b565b925050505b949350505050565b60608315613ee9578251600003613ee257846001600160a01b03163b600003613ee257604051639996b31560e01b81526001600160a01b0386166004820152602401613e16565b5081613e93565b613e938383815115613efe5781518083602001fd5b613ddc8163ffffffff16565b50805460008255906000526020600020908101906121849190614007565b508054613f34906140c2565b6000825580601f10613f44575050565b601f0160209004906000526020600020908101906121849190614007565b828054828255906000526020600020908101928215613fa25760005260206000209182015b82811115613fa2578254825591600101919060010190613f87565b50613fae929150614007565b5090565b828054828255906000526020600020908101928215613fa2579160200282015b82811115613fa257825182546001600160a01b0319166001600160a01b03909116178255602090920191600190910190613fd2565b5b80821115613fae5760008155600101614008565b60006020828403121561402e57600080fd5b5035919050565b60006040828403121561404757600080fd5b50919050565b60006020828403121561405f57600080fd5b81356001600160401b0381111561407557600080fd5b613e9384828501614035565b60006020828403121561409357600080fd5b81356001600160401b038111156140a957600080fd5b820160e081850312156140bb57600080fd5b9392505050565b600181811c908216806140d657607f821691505b60208210810361404757634e487b7160e01b600052602260045260246000fd5b6000604083016001600160401b0383511684526020808401516040828701528281518085526060880191508383019450600092505b808310156141545784516001600160a01b0316825293830193600192909201919083019061412b565b509695505050505050565b6000604083016001600160401b0383541684526001808401602060408188015283825480865260608901915083600052826000209550600093505b808410156141c05785546001600160a01b0316825294840194928401929082019061419a565b50979650505050505050565b6040815260006141df60408301856140f6565b82810360208401526127ba818561415f565b634e487b7160e01b600052604160045260246000fd5b604080519081016001600160401b0381118282101715614229576142296141f1565b60405290565b60405160c081016001600160401b0381118282101715614229576142296141f1565b604051601f8201601f191681016001600160401b0381118282101715614279576142796141f1565b604052919050565b6001600160401b038116811461218457600080fd5b60006001600160401b038211156142af576142af6141f1565b5060051b60200190565b6001600160a01b038116811461218457600080fd5b600060208083850312156142e157600080fd5b82516001600160401b03808211156142f857600080fd5b908401906040828703121561430c57600080fd5b614314614207565b825161431f81614281565b8152828401518281111561433257600080fd5b80840193505086601f84011261434757600080fd5b8251915061435c61435783614296565b614251565b82815260059290921b8301840191848101908884111561437b57600080fd5b938501935b838510156143a2578451614393816142b9565b82529385019390850190614380565b948201949094529695505050505050565b634e487b7160e01b600052601160045260246000fd5b81810381811115613c8057613c806143b3565b6000823560be198336030181126143f257600080fd5b9190910192915050565b60008235603e198336030181126143f257600080fd5b803561441d81614281565b919050565b60006040828403121561443457600080fd5b61443c614207565b9050813561444981614281565b81526020828101356001600160401b0381111561446557600080fd5b8301601f8101851361447657600080fd5b803561448461435782614296565b81815260059190911b820183019083810190878311156144a357600080fd5b928401925b828410156144ca5783356144bb816142b9565b825292840192908401906144a8565b8085870152505050505092915050565b6000613c803683614422565b801515811461218457600080fd5b60006020828403121561450657600080fd5b81516140bb816144e6565b60ff8116811461218457600080fd5b60006001600160401b03821115614539576145396141f1565b50601f01601f191660200190565b600082601f83011261455857600080fd5b813561456661435782614520565b81815284602083860101111561457b57600080fd5b816020850160208301376000918101602001919091529392505050565b6000604082840312156145aa57600080fd5b6145b2614207565b905081356001600160401b03808211156145cb57600080fd5b6145d785838601614422565b835260208401359150808211156145ed57600080fd5b908301906040828603121561460157600080fd5b614609614207565b823561461481614511565b815260208301358281111561462857600080fd5b61463487828601614547565b60208301525080602085015250505092915050565b6001600160e01b03198116811461218457600080fd5b803561441d81614649565b803561441d816144e6565b60006040828403121561468757600080fd5b61468f614207565b905081356001600160401b03808211156146a857600080fd5b9083019060c082860312156146bc57600080fd5b6146c461422f565b8235828111156146d357600080fd5b6146df87828601614598565b8252506020830135828111156146f457600080fd5b61470087828601614598565b6020830152506040830135604082015261471c60608401614412565b606082015261472d6080840161465f565b608082015260a08301358281111561474457600080fd5b61475087828601614547565b60a08301525083525061476790506020830161466a565b602082015292915050565b6000613c803683614675565b60006020828403121561479057600080fd5b81356140bb81614281565b6000808335601e198436030181126147b257600080fd5b8301803591506001600160401b038211156147cc57600080fd5b6020019150600581901b36038213156147e457600080fd5b9250929050565b60008235603e1983360301811261480157600080fd5b90910192915050565b6000808335601e1984360301811261482157600080fd5b83016020810192503590506001600160401b0381111561484057600080fd5b8060051b36038213156147e457600080fd5b600060408301823561486381614281565b6001600160401b03168452602061487c8482018561480a565b6040878401529283905291600090606087015b818310156148bf5784356148a2816142b9565b6001600160a01b031681529383019360019290920191830161488f565b979650505050505050565b6000808335601e198436030181126148e157600080fd5b83016020810192503590506001600160401b0381111561490057600080fd5b8036038213156147e457600080fd5b81835281816020850137506000828201602090810191909152601f909101601f19169091010190565b600061494482836147eb565b604084526149556040850182614852565b905061496460208401846147eb565b8482036020860152803561497781614511565b60ff16825261498960208201826148ca565b9150604060208401526149a060408401838361490f565b9695505050505050565b81835260006020808501808196508560051b81019150846000805b88811015614ad9578385038a526149dc83896147eb565b6040813560be198336030181126149f1578485fd5b8188528201614a0081806147eb565b60c080848b0152614a156101008b0183614938565b9150614a238b8401846147eb565b603f196060818d860301818e0152614a3b8584614938565b94506080925086860135838e015280860135965050614a5986614281565b60a06001600160401b038716818e0152828601359650614a7887614649565b6001600160e01b031987168d850152614a93868201876148ca565b9750955050808c85030160e08d0152505050614ab081848461490f565b92505050614abf88830161466a565b1515968801969096525098850198918501916001016149c5565b509298975050505050505050565b602081526000613e936020830184866149aa565b602081526000613c7d60208301846140f6565b600060208284031215614b2057600080fd5b81516140bb816142b9565b634e487b7160e01b600052602160045260246000fd5b60005b83811015614b5c578181015183820152602001614b44565b50506000910152565b60008151808452614b7d816020860160208601614b41565b601f01601f19169290920160200192915050565b6000815160408452614ba660408501826140f6565b90506020830151848203602086015260ff815116825260208101519050604060208301526127ba6040830182614b65565b6000815160c08452614bec60c0850182614b91565b905060208301518482036020860152614c058282614b91565b915050604083015160408501526001600160401b03606084015116606085015263ffffffff60e01b608084015116608085015260a083015184820360a08601526127ba8282614b65565b6000815160408452614c646040850182614bd7565b6020938401511515949093019390935250919050565b600081518084526020808501808196508360051b8101915082860160005b85811015614cc2578284038952614cb0848351614c4f565b98850198935090840190600101614c98565b5091979650505050505050565b600081518084526020808501808196508360051b810191508286016000805b86811015614ad9578385038a52825160408151818852614d10828901826140f6565b92890151888403898b01528051808552908a01938693508a0191505b80831015614d4c5783518252928901926001929092019190890190614d2c565b509b88019b9650505091850191600101614cee565b602081526000825160e06020840152614d7e6101008401826140f6565b90506001600160401b036020850151166040840152604084015160608401526060840151601f1980858403016080860152614db98383614c7a565b925060808601519150808584030160a0860152614dd68383614ccf565b925060a086015160c086015260c08601519150808584030160e0860152506127ba8282614b65565b600060208284031215614e1057600080fd5b5051919050565b81835260006020808501808196506005915085821b8101856000805b89811015614eb3578484038b52614e4a838a6147eb565b6040614e5682836147eb565b818752614e6582880182614852565b915050614e748983018361480a565b8783038b89015280835292506001600160fb1b03831115614e93578485fd5b91881b918281838c0137509b88019b018701935091860191600101614e33565b50919998505050505050505050565b85815260a060208201526000614ed886876147eb565b60e060a0840152614eed610180840182614852565b90506020870135614efd81614281565b6001600160401b031660c0840152604087013560e0840152614f22606088018861480a565b609f198086850301610100870152614f3b8483856149aa565b9350614f4a60808b018b61480a565b935091508086850301610120870152614f64848484614e17565b935060a08a0135610140870152614f7e60c08b018b6148ca565b93509150808685030161016087015250614f9983838361490f565b93505050508460408301528360608301526149a060808301846001600160401b03169052565b634e487b7160e01b600052603260045260246000fd5b80820180821115613c8057613c806143b3565b60008135613c8081614281565b8082028115828204841417613c8057613c806143b3565b5b81811015613044576000815560010161500d565b80546000825580156130445781600052602060002061082f8282018261500c565b600160401b821115615056576150566141f1565b80548282558083101561082f5781600052602060002061205082820185830161500c565b6000815561218460018201615021565b600019600383901b1c191660019190911b1790565b6150a981546140c2565b801561304457601f8111600181146150c357505060009055565b8260005260206000206150e1601f840160051c82016001830161500c565b60008085559055505050565b600081556150fd60018201615021565b600060028201556121846003820161509f565b6000808335601e1984360301811261512757600080fd5b8301803591506001600160401b0382111561514157600080fd5b6020019150368190038213156147e457600080fd5b601f82111561082f57806000526020600020601f840160051c8101602085101561517d5750805b6111a3601f850160051c83018261500c565b6001600160401b038311156151a6576151a66141f1565b6151ba836151b483546140c2565b83615156565b6000601f8411600181146151e857600085156151d65750838201355b6151e0868261508a565b8455506111a3565b600083815260209020601f19861690835b8281101561521957868501358255602094850194600190920191016151f9565b50868210156152365760001960f88860031b161c19848701351681555b505060018560011b0183555050505050565b61525282836143fc565b803561525d81614281565b82546001600160401b0319166001600160401b038216178355506001808301602061528a8185018561479b565b94506001600160401b03808611156152a4576152a46141f1565b6152ae8685615042565b600093845282842093805b878110156152db5783356152cc816142b9565b868201559284019286016152b9565b506002880196506152ee848a018a6143fc565b9450843592506152fd83614511565b865460ff191660ff841617909655600387019561531c85850186615110565b9550925081851115615330576153306141f1565b6153448561533e89546140c2565b89615156565b809150601f851160018114615372578186156153605750838301355b61536a878261508a565b8955506153c7565b600088815260209020601f19871690835b828110156153a05786860135825594870194908901908701615383565b50878210156153bd5760001960f88960031b161c19858701351681555b50508686881b0188555b50505050505050505050565b60008135613c8081614649565b60008135613c80816144e6565b813560be1983360301811261540157600080fd5b820161540d81806143fc565b61541781826143fc565b803561542281614281565b84546001600160401b0319166001600160401b038216178555506001808501602061544f8185018561479b565b94506001600160401b0380861115615469576154696141f1565b6154738685615042565b600093845282842093805b878110156154a0578335615491816142b9565b8682015592840192860161547e565b5060028a0196506154b3848901896143fc565b9750873594506154c285614511565b865460ff191660ff86161790965560038901956154e188850189615110565b98509450818811156154f5576154f56141f1565b6155038861533e89546140c2565b809250601f881160018114615533578192508815615522578386013592505b61552c898461508a565b8855615588565b600088815260209020601f198a169350825b848110156155625787860135825594860194908801908601615545565b508984101561557f5760001960f88b60031b161c19858801351681555b508689881b0188555b505050506155a461559b828801886143fc565b60048901615248565b604086013560088801556009870194506155e06155c360608801614fe8565b86546001600160401b0319166001600160401b0391909116178655565b6156196155ef608088016153d3565b86546bffffffff0000000000000000191660a09190911c6bffffffff000000000000000016178655565b61562660a0870187615110565b965094506156388686600a8a0161518f565b61565f615646828a016153e0565b600b890160ff1981541660ff8315151681178255505050565b5050505050505050565b600160401b83111561567d5761567d6141f1565b80548382558084101561571157600c81810281810483146156a0576156a06143b3565b85820282810487146156b4576156b46143b3565b6000858152602081209283019291909101905b8282101561570c576156d8826150ed565b6156e4600483016150ed565b8060088301558060098301556156fc600a830161509f565b80600b83015583820191506156c7565b505050505b5060008181526020812083915b8581101561574f5761573961573384876143fc565b836153ed565b60209290920191600c919091019060010161571e565b505050505050565b80546000808355811561082f57828152602081208281015b808210156111a35782825560018201915061576f565b600160401b821115615799576157996141f1565b80548282558083101561082f576000828152602081208481019083015b8082101561574f578282556001820191506157b6565b6157d682836143fc565b80356157e181614281565b82546001600160401b0319166001600160401b038216178355506001808301602061580e8185018561479b565b94506001600160401b0380861115615828576158286141f1565b6158328685615042565b600093845282842093805b8781101561585f578335615850816142b9565b8682015592840192860161583d565b50600288019650615872848a018a61479b565b9550925081851115615886576158866141f1565b6158908588615785565b95865250818520945b8381101561565f57813586820155908201908401615899565b600160401b8311156158c6576158c66141f1565b80548382558084101561593457600381810281810483146158e9576158e96143b3565b85820282810487146158fd576158fd6143b3565b60008581526020902091820191015b818110156159305761591d8161507a565b61592960028201615757565b820161590c565b5050505b5060008181526020812083915b8581101561574f5761595c61595684876143fc565b836157cc565b6020929092019160039190910190600101615941565b61597c82836143fc565b803561598781614281565b82546001600160401b0319166001600160401b03821617835550600180830160206159b48185018561479b565b94506001600160401b038511156159cd576159cd6141f1565b6159d78584615042565b6000928352818320925b85811015615a035781356159f4816142b9565b848201559082019084016159e1565b5050615a34615a13828801614fe8565b600287016001600160401b0382166001600160401b03198254161781555050565b5050505060408201356003820155615a4f606083018361479b565b615a5d818360048601615669565b5050615a6c608083018361479b565b615a7a8183600586016158b2565b505060a08201356006820155615a9360c0830183615110565b61205081836007860161518f565b6000615aaf61435784614296565b8381529050602080820190600585901b840186811115615ace57600080fd5b845b81811015615b095780356001600160401b03811115615aef5760008081fd5b615afb89828901614675565b855250928201928201615ad0565b505050509392505050565b6000613c7d368484615aa1565b6040815260006141df6040830185614bd7565b600060208284031215615b4657600080fd5b8151600281106140bb57600080fd5b604081526000615b6860408301856140f6565b82810360208401526127ba81856140f6565b60006001600160401b03808316818103615b9657615b966143b3565b6001019392505050565b600060408236031215615bb257600080fd5b615bba614207565b8235615bc581614281565b815260208301356001600160401b03811115615be057600080fd5b830136601f820112615bf157600080fd5b615c0036823560208401615aa1565b60208301525092915050565b602081526001600160401b03825116602082015260006020830151604080840152613e936060840182614c7a565b8135615c4581614281565b81546001600160401b0319166001600160401b0382161782555060018082016020615c728186018661479b565b600160401b811115615c8657615c866141f1565b835481855580821015615d1957600c8181028181048314615ca957615ca96143b3565b8382028281048514615cbd57615cbd6143b3565b60008881528781209283019291909101905b82821015615d1457615ce0826150ed565b615cec600483016150ed565b806008830155806009830155615d04600a830161509f565b80600b8301558382019150615ccf565b505050505b506000938452602084209382905b82811015615d5457615d42615d3c83866143fc565b876153ed565b600c9590950194908401908601615d27565b505050505050505050565b604081526000615d7260408301856140f6565b905060018060a01b03831660208301529392505050565b81516001600160401b03811115615da257615da26141f1565b615db681615db084546140c2565b84615156565b602080601f831160018114615de55760008415615dd35750858301515b615ddd858261508a565b86555061574f565b600085815260208120601f198616915b82811015615e1457888601518255948401946001909101908401615df5565b5085821015615e325787850151600019600388901b60f8161c191681555b5050505050600190811b01905550565b6001600160401b03818116838216019080821115615e6257615e626143b3565b5092915050565b6001600160401b03828116828216039080821115615e6257615e626143b3565b634e487b7160e01b600052601260045260246000fd5b60006001600160401b0380841680615eb957615eb9615e89565b92169190910692915050565b602081526000613c7d6020830184614c4f565b600060208284031215615eea57600080fd5b81516001600160401b03811115615f0057600080fd5b8201601f81018413615f1157600080fd5b8051615f1f61435782614520565b818152856020838501011115615f3457600080fd5b6127ba826020830160208601614b41565b60006001600160401b0380841680615f5f57615f5f615e89565b92169190910492915050565b6001600160401b03818116838216028082169190828114615f8e57615f8e6143b3565b505092915050565b600082615fa557615fa5615e89565b500490565b8051604080845281516001600160401b031684820152602091820151606085019190915280516080850181905260009291820191839160a08701905b8084101561600f5784516001600160a01b03168252938201936001939093019290820190615fe6565b508186015193508681038288015260ff84511681528184015193506040828201526148bf6040820185614b65565b602081526000825160406020840152805160c06060850152616063610120850182615faa565b90506020820151605f19808684030160808701526160818383615faa565b9250604084015160a08701526001600160401b0360608501511660c087015263ffffffff60e01b60808501511660e087015260a08401519350808684030161010087015250506160d18183614b65565b91505060208401516160e7604085018215159052565b509392505050565b600082516143f2818460208701614b4156fe283d1424c49941ba61504663c7a1b6f59e6bbb963a00bcc130bcbf9c29e1e270a26469706673582212207ed4ef5ae251d58e3538675b2f94b163330eac21fc1fc4991ea468722d0abb7564736f6c63430008130033",
    "linkReferences": {
      "src/lib/AccountHelper.sol": {
        "AccountHelper": [
          {
            "start": 8481,
            "length": 20
          }
        ]
      },
      "src/lib/CheckpointHelper.sol": {
        "CheckpointHelper": [
          {
            "start": 6581,
            "length": 20
          },
          {
            "start": 6842,
            "length": 20
          },
          {
            "start": 8643,
            "length": 20
          },
          {
            "start": 9803,
            "length": 20
          }
        ]
      },
      "src/lib/CrossMsgHelper.sol": {
        "CrossMsgHelper": [
          {
            "start": 2261,
            "length": 20
          },
          {
            "start": 14390,
            "length": 20
          }
        ]
      },
      "src/lib/EpochVoteSubmissionHelper.sol": {
        "EpochVoteSubmissionHelper": [
          {
            "start": 12889,
            "length": 20
          },
          {
            "start": 15628,
            "length": 20
          }
        ]
      },
      "src/lib/ExecutableQueueHelper.sol": {
        "ExecutableQueueHelper": [
          {
            "start": 12760,
            "length": 20
          },
          {
            "start": 13053,
            "length": 20
          },
          {
            "start": 13225,
            "length": 20
          }
        ]
      },
      "src/lib/StorableMsgHelper.sol": {
        "StorableMsgHelper": [
          {
            "start": 7608,
            "length": 20
          },
          {
            "start": 13646,
            "length": 20
          }
        ]
      },
      "src/lib/SubnetIDHelper.sol": {
        "SubnetIDHelper": [
          {
            "start": 1287,
            "length": 20
          },
          {
            "start": 1774,
            "length": 20
          },
          {
            "start": 2010,
            "length": 20
          },
          {
            "start": 4628,
            "length": 20
          },
          {
            "start": 7295,
            "length": 20
          },
          {
            "start": 7445,
            "length": 20
          },
          {
            "start": 7758,
            "length": 20
          },
          {
            "start": 7884,
            "length": 20
          },
          {
            "start": 8192,
            "length": 20
          },
          {
            "start": 10392,
            "length": 20
          },
          {
            "start": 10721,
            "length": 20
          },
          {
            "start": 11517,
            "length": 20
          },
          {
            "start": 13434,
            "length": 20
          },
          {
            "start": 13776,
            "length": 20
          },
          {
            "start": 13927,
            "length": 20
          },
          {
            "start": 15108,
            "length": 20
          },
          {
            "start": 15371,
            "length": 20
          }
        ]
      }
    }
  },
  "methodIdentifiers": {
    "commitChildCheck(((uint64,address[]),uint64,uint256,((((uint64,address[]),(uint8,bytes)),((uint64,address[]),(uint8,bytes)),uint256,uint64,bytes4,bytes),bool)[],((uint64,address[]),bytes32[])[],bytes32,bytes))": "d4e149a8",
    "propagate(bytes32)": "25bf0db6",
    "sendCrossMessage(((((uint64,address[]),(uint8,bytes)),((uint64,address[]),(uint8,bytes)),uint256,uint64,bytes4,bytes),bool))": "2f757dd1",
    "submitTopDownCheckpoint((uint64,((((uint64,address[]),(uint8,bytes)),((uint64,address[]),(uint8,bytes)),uint256,uint64,bytes4,bytes),bool)[]))": "986acf38"
  },
  "id": 40
}