{
  "abi": [
    {
      "inputs": [],
      "name": "appliedTopDownNonce",
      "outputs": [
        {
          "internalType": "uint64",
          "name": "",
          "type": "uint64"
        }
      ],
      "stateMutability": "view",
      "type": "function"
    },
    {
      "inputs": [],
      "name": "bottomUpCheckPeriod",
      "outputs": [
        {
          "internalType": "uint64",
          "name": "",
          "type": "uint64"
        }
      ],
      "stateMutability": "view",
      "type": "function"
    },
    {
      "inputs": [
        {
          "internalType": "uint64",
          "name": "e",
          "type": "uint64"
        }
      ],
      "name": "bottomUpCheckpoints",
      "outputs": [
        {
          "components": [
            {
              "components": [
                {
                  "internalType": "uint64",
                  "name": "root",
                  "type": "uint64"
                },
                {
                  "internalType": "address[]",
                  "name": "route",
                  "type": "address[]"
                }
              ],
              "internalType": "struct SubnetID",
              "name": "source",
              "type": "tuple"
            },
            {
              "internalType": "uint64",
              "name": "epoch",
              "type": "uint64"
            },
            {
              "internalType": "uint256",
              "name": "fee",
              "type": "uint256"
            },
            {
              "components": [
                {
                  "components": [
                    {
                      "components": [
                        {
                          "components": [
                            {
                              "internalType": "uint64",
                              "name": "root",
                              "type": "uint64"
                            },
                            {
                              "internalType": "address[]",
                              "name": "route",
                              "type": "address[]"
                            }
                          ],
                          "internalType": "struct SubnetID",
                          "name": "subnetId",
                          "type": "tuple"
                        },
                        {
                          "components": [
                            {
                              "internalType": "uint8",
                              "name": "addrType",
                              "type": "uint8"
                            },
                            {
                              "internalType": "bytes",
                              "name": "payload",
                              "type": "bytes"
                            }
                          ],
                          "internalType": "struct FvmAddress",
                          "name": "rawAddress",
                          "type": "tuple"
                        }
                      ],
                      "internalType": "struct IPCAddress",
                      "name": "from",
                      "type": "tuple"
                    },
                    {
                      "components": [
                        {
                          "components": [
                            {
                              "internalType": "uint64",
                              "name": "root",
                              "type": "uint64"
                            },
                            {
                              "internalType": "address[]",
                              "name": "route",
                              "type": "address[]"
                            }
                          ],
                          "internalType": "struct SubnetID",
                          "name": "subnetId",
                          "type": "tuple"
                        },
                        {
                          "components": [
                            {
                              "internalType": "uint8",
                              "name": "addrType",
                              "type": "uint8"
                            },
                            {
                              "internalType": "bytes",
                              "name": "payload",
                              "type": "bytes"
                            }
                          ],
                          "internalType": "struct FvmAddress",
                          "name": "rawAddress",
                          "type": "tuple"
                        }
                      ],
                      "internalType": "struct IPCAddress",
                      "name": "to",
                      "type": "tuple"
                    },
                    {
                      "internalType": "uint256",
                      "name": "value",
                      "type": "uint256"
                    },
                    {
                      "internalType": "uint64",
                      "name": "nonce",
                      "type": "uint64"
                    },
                    {
                      "internalType": "bytes4",
                      "name": "method",
                      "type": "bytes4"
                    },
                    {
                      "internalType": "bytes",
                      "name": "params",
                      "type": "bytes"
                    }
                  ],
                  "internalType": "struct StorableMsg",
                  "name": "message",
                  "type": "tuple"
                },
                {
                  "internalType": "bool",
                  "name": "wrapped",
                  "type": "bool"
                }
              ],
              "internalType": "struct CrossMsg[]",
              "name": "crossMsgs",
              "type": "tuple[]"
            },
            {
              "components": [
                {
                  "components": [
                    {
                      "internalType": "uint64",
                      "name": "root",
                      "type": "uint64"
                    },
                    {
                      "internalType": "address[]",
                      "name": "route",
                      "type": "address[]"
                    }
                  ],
                  "internalType": "struct SubnetID",
                  "name": "source",
                  "type": "tuple"
                },
                {
                  "internalType": "bytes32[]",
                  "name": "checks",
                  "type": "bytes32[]"
                }
              ],
              "internalType": "struct ChildCheck[]",
              "name": "children",
              "type": "tuple[]"
            },
            {
              "internalType": "bytes32",
              "name": "prevHash",
              "type": "bytes32"
            },
            {
              "internalType": "bytes",
              "name": "proof",
              "type": "bytes"
            }
          ],
          "internalType": "struct BottomUpCheckpoint",
          "name": "",
          "type": "tuple"
        }
      ],
      "stateMutability": "view",
      "type": "function"
    },
    {
      "inputs": [],
      "name": "bottomUpNonce",
      "outputs": [
        {
          "internalType": "uint64",
          "name": "",
          "type": "uint64"
        }
      ],
      "stateMutability": "view",
      "type": "function"
    },
    {
      "inputs": [],
      "name": "crossMsgFee",
      "outputs": [
        {
          "internalType": "uint256",
          "name": "",
          "type": "uint256"
        }
      ],
      "stateMutability": "view",
      "type": "function"
    },
    {
      "inputs": [],
      "name": "executableQueue",
      "outputs": [
        {
          "internalType": "uint64",
          "name": "",
          "type": "uint64"
        },
        {
          "internalType": "uint64",
          "name": "",
          "type": "uint64"
        },
        {
          "internalType": "uint64",
          "name": "",
          "type": "uint64"
        }
      ],
      "stateMutability": "view",
      "type": "function"
    },
    {
      "inputs": [
        {
          "components": [
            {
              "internalType": "uint64",
              "name": "root",
              "type": "uint64"
            },
            {
              "internalType": "address[]",
              "name": "route",
              "type": "address[]"
            }
          ],
          "internalType": "struct SubnetID",
          "name": "subnetId",
          "type": "tuple"
        }
      ],
      "name": "getAppliedTopDownNonce",
      "outputs": [
        {
          "internalType": "bool",
          "name": "",
          "type": "bool"
        },
        {
          "internalType": "uint64",
          "name": "",
          "type": "uint64"
        }
      ],
      "stateMutability": "view",
      "type": "function"
    },
    {
      "inputs": [],
      "name": "getGenesisEpoch",
      "outputs": [
        {
          "internalType": "uint64",
          "name": "",
          "type": "uint64"
        }
      ],
      "stateMutability": "view",
      "type": "function"
    },
    {
      "inputs": [],
      "name": "getNetworkName",
      "outputs": [
        {
          "components": [
            {
              "internalType": "uint64",
              "name": "root",
              "type": "uint64"
            },
            {
              "internalType": "address[]",
              "name": "route",
              "type": "address[]"
            }
          ],
          "internalType": "struct SubnetID",
          "name": "",
          "type": "tuple"
        }
      ],
      "stateMutability": "view",
      "type": "function"
    },
    {
      "inputs": [
        {
          "components": [
            {
              "internalType": "uint64",
              "name": "root",
              "type": "uint64"
            },
            {
              "internalType": "address[]",
              "name": "route",
              "type": "address[]"
            }
          ],
          "internalType": "struct SubnetID",
          "name": "subnetId",
          "type": "tuple"
        }
      ],
      "name": "getSubnet",
      "outputs": [
        {
          "internalType": "bool",
          "name": "",
          "type": "bool"
        },
        {
          "components": [
            {
              "internalType": "uint256",
              "name": "stake",
              "type": "uint256"
            },
            {
              "internalType": "uint256",
              "name": "genesisEpoch",
              "type": "uint256"
            },
            {
              "internalType": "uint256",
              "name": "circSupply",
              "type": "uint256"
            },
            {
              "internalType": "uint64",
              "name": "topDownNonce",
              "type": "uint64"
            },
            {
              "internalType": "uint64",
              "name": "appliedBottomUpNonce",
              "type": "uint64"
            },
            {
              "internalType": "enum Status",
              "name": "status",
              "type": "uint8"
            },
            {
              "components": [
                {
                  "internalType": "uint64",
                  "name": "root",
                  "type": "uint64"
                },
                {
                  "internalType": "address[]",
                  "name": "route",
                  "type": "address[]"
                }
              ],
              "internalType": "struct SubnetID",
              "name": "id",
              "type": "tuple"
            },
            {
              "components": [
                {
                  "components": [
                    {
                      "internalType": "uint64",
                      "name": "root",
                      "type": "uint64"
                    },
                    {
                      "internalType": "address[]",
                      "name": "route",
                      "type": "address[]"
                    }
                  ],
                  "internalType": "struct SubnetID",
                  "name": "source",
                  "type": "tuple"
                },
                {
                  "internalType": "uint64",
                  "name": "epoch",
                  "type": "uint64"
                },
                {
                  "internalType": "uint256",
                  "name": "fee",
                  "type": "uint256"
                },
                {
                  "components": [
                    {
                      "components": [
                        {
                          "components": [
                            {
                              "components": [
                                {
                                  "internalType": "uint64",
                                  "name": "root",
                                  "type": "uint64"
                                },
                                {
                                  "internalType": "address[]",
                                  "name": "route",
                                  "type": "address[]"
                                }
                              ],
                              "internalType": "struct SubnetID",
                              "name": "subnetId",
                              "type": "tuple"
                            },
                            {
                              "components": [
                                {
                                  "internalType": "uint8",
                                  "name": "addrType",
                                  "type": "uint8"
                                },
                                {
                                  "internalType": "bytes",
                                  "name": "payload",
                                  "type": "bytes"
                                }
                              ],
                              "internalType": "struct FvmAddress",
                              "name": "rawAddress",
                              "type": "tuple"
                            }
                          ],
                          "internalType": "struct IPCAddress",
                          "name": "from",
                          "type": "tuple"
                        },
                        {
                          "components": [
                            {
                              "components": [
                                {
                                  "internalType": "uint64",
                                  "name": "root",
                                  "type": "uint64"
                                },
                                {
                                  "internalType": "address[]",
                                  "name": "route",
                                  "type": "address[]"
                                }
                              ],
                              "internalType": "struct SubnetID",
                              "name": "subnetId",
                              "type": "tuple"
                            },
                            {
                              "components": [
                                {
                                  "internalType": "uint8",
                                  "name": "addrType",
                                  "type": "uint8"
                                },
                                {
                                  "internalType": "bytes",
                                  "name": "payload",
                                  "type": "bytes"
                                }
                              ],
                              "internalType": "struct FvmAddress",
                              "name": "rawAddress",
                              "type": "tuple"
                            }
                          ],
                          "internalType": "struct IPCAddress",
                          "name": "to",
                          "type": "tuple"
                        },
                        {
                          "internalType": "uint256",
                          "name": "value",
                          "type": "uint256"
                        },
                        {
                          "internalType": "uint64",
                          "name": "nonce",
                          "type": "uint64"
                        },
                        {
                          "internalType": "bytes4",
                          "name": "method",
                          "type": "bytes4"
                        },
                        {
                          "internalType": "bytes",
                          "name": "params",
                          "type": "bytes"
                        }
                      ],
                      "internalType": "struct StorableMsg",
                      "name": "message",
                      "type": "tuple"
                    },
                    {
                      "internalType": "bool",
                      "name": "wrapped",
                      "type": "bool"
                    }
                  ],
                  "internalType": "struct CrossMsg[]",
                  "name": "crossMsgs",
                  "type": "tuple[]"
                },
                {
                  "components": [
                    {
                      "components": [
                        {
                          "internalType": "uint64",
                          "name": "root",
                          "type": "uint64"
                        },
                        {
                          "internalType": "address[]",
                          "name": "route",
                          "type": "address[]"
                        }
                      ],
                      "internalType": "struct SubnetID",
                      "name": "source",
                      "type": "tuple"
                    },
                    {
                      "internalType": "bytes32[]",
                      "name": "checks",
                      "type": "bytes32[]"
                    }
                  ],
                  "internalType": "struct ChildCheck[]",
                  "name": "children",
                  "type": "tuple[]"
                },
                {
                  "internalType": "bytes32",
                  "name": "prevHash",
                  "type": "bytes32"
                },
                {
                  "internalType": "bytes",
                  "name": "proof",
                  "type": "bytes"
                }
              ],
              "internalType": "struct BottomUpCheckpoint",
              "name": "prevCheckpoint",
              "type": "tuple"
            }
          ],
          "internalType": "struct Subnet",
          "name": "",
          "type": "tuple"
        }
      ],
      "stateMutability": "view",
      "type": "function"
    },
    {
      "inputs": [
        {
          "components": [
            {
              "internalType": "uint64",
              "name": "root",
              "type": "uint64"
            },
            {
              "internalType": "address[]",
              "name": "route",
              "type": "address[]"
            }
          ],
          "internalType": "struct SubnetID",
          "name": "subnetId",
          "type": "tuple"
        }
      ],
      "name": "getSubnetTopDownMsgsLength",
      "outputs": [
        {
          "internalType": "uint256",
          "name": "",
          "type": "uint256"
        }
      ],
      "stateMutability": "view",
      "type": "function"
    },
    {
      "inputs": [
        {
          "components": [
            {
              "internalType": "uint64",
              "name": "root",
              "type": "uint64"
            },
            {
              "internalType": "address[]",
              "name": "route",
              "type": "address[]"
            }
          ],
          "internalType": "struct SubnetID",
          "name": "subnetId",
          "type": "tuple"
        },
        {
          "internalType": "uint256",
          "name": "fromBlock",
          "type": "uint256"
        },
        {
          "internalType": "uint256",
          "name": "toBlock",
          "type": "uint256"
        }
      ],
      "name": "getTopDownMsgs",
      "outputs": [
        {
          "components": [
            {
              "components": [
                {
                  "components": [
                    {
                      "components": [
                        {
                          "internalType": "uint64",
                          "name": "root",
                          "type": "uint64"
                        },
                        {
                          "internalType": "address[]",
                          "name": "route",
                          "type": "address[]"
                        }
                      ],
                      "internalType": "struct SubnetID",
                      "name": "subnetId",
                      "type": "tuple"
                    },
                    {
                      "components": [
                        {
                          "internalType": "uint8",
                          "name": "addrType",
                          "type": "uint8"
                        },
                        {
                          "internalType": "bytes",
                          "name": "payload",
                          "type": "bytes"
                        }
                      ],
                      "internalType": "struct FvmAddress",
                      "name": "rawAddress",
                      "type": "tuple"
                    }
                  ],
                  "internalType": "struct IPCAddress",
                  "name": "from",
                  "type": "tuple"
                },
                {
                  "components": [
                    {
                      "components": [
                        {
                          "internalType": "uint64",
                          "name": "root",
                          "type": "uint64"
                        },
                        {
                          "internalType": "address[]",
                          "name": "route",
                          "type": "address[]"
                        }
                      ],
                      "internalType": "struct SubnetID",
                      "name": "subnetId",
                      "type": "tuple"
                    },
                    {
                      "components": [
                        {
                          "internalType": "uint8",
                          "name": "addrType",
                          "type": "uint8"
                        },
                        {
                          "internalType": "bytes",
                          "name": "payload",
                          "type": "bytes"
                        }
                      ],
                      "internalType": "struct FvmAddress",
                      "name": "rawAddress",
                      "type": "tuple"
                    }
                  ],
                  "internalType": "struct IPCAddress",
                  "name": "to",
                  "type": "tuple"
                },
                {
                  "internalType": "uint256",
                  "name": "value",
                  "type": "uint256"
                },
                {
                  "internalType": "uint64",
                  "name": "nonce",
                  "type": "uint64"
                },
                {
                  "internalType": "bytes4",
                  "name": "method",
                  "type": "bytes4"
                },
                {
                  "internalType": "bytes",
                  "name": "params",
                  "type": "bytes"
                }
              ],
              "internalType": "struct StorableMsg",
              "name": "message",
              "type": "tuple"
            },
            {
              "internalType": "bool",
              "name": "wrapped",
              "type": "bool"
            }
          ],
          "internalType": "struct CrossMsg[]",
          "name": "msgs",
          "type": "tuple[]"
        }
      ],
      "stateMutability": "view",
      "type": "function"
    },
    {
      "inputs": [
        {
          "internalType": "uint64",
          "name": "epoch",
          "type": "uint64"
        },
        {
          "internalType": "address",
          "name": "submitter",
          "type": "address"
        }
      ],
      "name": "hasValidatorVotedForSubmission",
      "outputs": [
        {
          "internalType": "bool",
          "name": "",
          "type": "bool"
        }
      ],
      "stateMutability": "view",
      "type": "function"
    },
    {
      "inputs": [],
      "name": "initialized",
      "outputs": [
        {
          "internalType": "bool",
          "name": "",
          "type": "bool"
        }
      ],
      "stateMutability": "view",
      "type": "function"
    },
    {
      "inputs": [],
      "name": "lastVotingExecutedEpoch",
      "outputs": [
        {
          "internalType": "uint64",
          "name": "",
          "type": "uint64"
        }
      ],
      "stateMutability": "view",
      "type": "function"
    },
    {
      "inputs": [],
      "name": "listSubnets",
      "outputs": [
        {
          "components": [
            {
              "internalType": "uint256",
              "name": "stake",
              "type": "uint256"
            },
            {
              "internalType": "uint256",
              "name": "genesisEpoch",
              "type": "uint256"
            },
            {
              "internalType": "uint256",
              "name": "circSupply",
              "type": "uint256"
            },
            {
              "internalType": "uint64",
              "name": "topDownNonce",
              "type": "uint64"
            },
            {
              "internalType": "uint64",
              "name": "appliedBottomUpNonce",
              "type": "uint64"
            },
            {
              "internalType": "enum Status",
              "name": "status",
              "type": "uint8"
            },
            {
              "components": [
                {
                  "internalType": "uint64",
                  "name": "root",
                  "type": "uint64"
                },
                {
                  "internalType": "address[]",
                  "name": "route",
                  "type": "address[]"
                }
              ],
              "internalType": "struct SubnetID",
              "name": "id",
              "type": "tuple"
            },
            {
              "components": [
                {
                  "components": [
                    {
                      "internalType": "uint64",
                      "name": "root",
                      "type": "uint64"
                    },
                    {
                      "internalType": "address[]",
                      "name": "route",
                      "type": "address[]"
                    }
                  ],
                  "internalType": "struct SubnetID",
                  "name": "source",
                  "type": "tuple"
                },
                {
                  "internalType": "uint64",
                  "name": "epoch",
                  "type": "uint64"
                },
                {
                  "internalType": "uint256",
                  "name": "fee",
                  "type": "uint256"
                },
                {
                  "components": [
                    {
                      "components": [
                        {
                          "components": [
                            {
                              "components": [
                                {
                                  "internalType": "uint64",
                                  "name": "root",
                                  "type": "uint64"
                                },
                                {
                                  "internalType": "address[]",
                                  "name": "route",
                                  "type": "address[]"
                                }
                              ],
                              "internalType": "struct SubnetID",
                              "name": "subnetId",
                              "type": "tuple"
                            },
                            {
                              "components": [
                                {
                                  "internalType": "uint8",
                                  "name": "addrType",
                                  "type": "uint8"
                                },
                                {
                                  "internalType": "bytes",
                                  "name": "payload",
                                  "type": "bytes"
                                }
                              ],
                              "internalType": "struct FvmAddress",
                              "name": "rawAddress",
                              "type": "tuple"
                            }
                          ],
                          "internalType": "struct IPCAddress",
                          "name": "from",
                          "type": "tuple"
                        },
                        {
                          "components": [
                            {
                              "components": [
                                {
                                  "internalType": "uint64",
                                  "name": "root",
                                  "type": "uint64"
                                },
                                {
                                  "internalType": "address[]",
                                  "name": "route",
                                  "type": "address[]"
                                }
                              ],
                              "internalType": "struct SubnetID",
                              "name": "subnetId",
                              "type": "tuple"
                            },
                            {
                              "components": [
                                {
                                  "internalType": "uint8",
                                  "name": "addrType",
                                  "type": "uint8"
                                },
                                {
                                  "internalType": "bytes",
                                  "name": "payload",
                                  "type": "bytes"
                                }
                              ],
                              "internalType": "struct FvmAddress",
                              "name": "rawAddress",
                              "type": "tuple"
                            }
                          ],
                          "internalType": "struct IPCAddress",
                          "name": "to",
                          "type": "tuple"
                        },
                        {
                          "internalType": "uint256",
                          "name": "value",
                          "type": "uint256"
                        },
                        {
                          "internalType": "uint64",
                          "name": "nonce",
                          "type": "uint64"
                        },
                        {
                          "internalType": "bytes4",
                          "name": "method",
                          "type": "bytes4"
                        },
                        {
                          "internalType": "bytes",
                          "name": "params",
                          "type": "bytes"
                        }
                      ],
                      "internalType": "struct StorableMsg",
                      "name": "message",
                      "type": "tuple"
                    },
                    {
                      "internalType": "bool",
                      "name": "wrapped",
                      "type": "bool"
                    }
                  ],
                  "internalType": "struct CrossMsg[]",
                  "name": "crossMsgs",
                  "type": "tuple[]"
                },
                {
                  "components": [
                    {
                      "components": [
                        {
                          "internalType": "uint64",
                          "name": "root",
                          "type": "uint64"
                        },
                        {
                          "internalType": "address[]",
                          "name": "route",
                          "type": "address[]"
                        }
                      ],
                      "internalType": "struct SubnetID",
                      "name": "source",
                      "type": "tuple"
                    },
                    {
                      "internalType": "bytes32[]",
                      "name": "checks",
                      "type": "bytes32[]"
                    }
                  ],
                  "internalType": "struct ChildCheck[]",
                  "name": "children",
                  "type": "tuple[]"
                },
                {
                  "internalType": "bytes32",
                  "name": "prevHash",
                  "type": "bytes32"
                },
                {
                  "internalType": "bytes",
                  "name": "proof",
                  "type": "bytes"
                }
              ],
              "internalType": "struct BottomUpCheckpoint",
              "name": "prevCheckpoint",
              "type": "tuple"
            }
          ],
          "internalType": "struct Subnet[]",
          "name": "",
          "type": "tuple[]"
        }
      ],
      "stateMutability": "view",
      "type": "function"
    },
    {
      "inputs": [],
      "name": "majorityPercentage",
      "outputs": [
        {
          "internalType": "uint64",
          "name": "",
          "type": "uint64"
        }
      ],
      "stateMutability": "view",
      "type": "function"
    },
    {
      "inputs": [],
      "name": "minStake",
      "outputs": [
        {
          "internalType": "uint256",
          "name": "",
          "type": "uint256"
        }
      ],
      "stateMutability": "view",
      "type": "function"
    },
    {
      "inputs": [
        {
          "internalType": "bytes32",
          "name": "id",
          "type": "bytes32"
        }
      ],
      "name": "postbox",
      "outputs": [
        {
          "components": [
            {
              "components": [
                {
                  "components": [
                    {
                      "internalType": "uint64",
                      "name": "root",
                      "type": "uint64"
                    },
                    {
                      "internalType": "address[]",
                      "name": "route",
                      "type": "address[]"
                    }
                  ],
                  "internalType": "struct SubnetID",
                  "name": "subnetId",
                  "type": "tuple"
                },
                {
                  "components": [
                    {
                      "internalType": "uint8",
                      "name": "addrType",
                      "type": "uint8"
                    },
                    {
                      "internalType": "bytes",
                      "name": "payload",
                      "type": "bytes"
                    }
                  ],
                  "internalType": "struct FvmAddress",
                  "name": "rawAddress",
                  "type": "tuple"
                }
              ],
              "internalType": "struct IPCAddress",
              "name": "from",
              "type": "tuple"
            },
            {
              "components": [
                {
                  "components": [
                    {
                      "internalType": "uint64",
                      "name": "root",
                      "type": "uint64"
                    },
                    {
                      "internalType": "address[]",
                      "name": "route",
                      "type": "address[]"
                    }
                  ],
                  "internalType": "struct SubnetID",
                  "name": "subnetId",
                  "type": "tuple"
                },
                {
                  "components": [
                    {
                      "internalType": "uint8",
                      "name": "addrType",
                      "type": "uint8"
                    },
                    {
                      "internalType": "bytes",
                      "name": "payload",
                      "type": "bytes"
                    }
                  ],
                  "internalType": "struct FvmAddress",
                  "name": "rawAddress",
                  "type": "tuple"
                }
              ],
              "internalType": "struct IPCAddress",
              "name": "to",
              "type": "tuple"
            },
            {
              "internalType": "uint256",
              "name": "value",
              "type": "uint256"
            },
            {
              "internalType": "uint64",
              "name": "nonce",
              "type": "uint64"
            },
            {
              "internalType": "bytes4",
              "name": "method",
              "type": "bytes4"
            },
            {
              "internalType": "bytes",
              "name": "params",
              "type": "bytes"
            }
          ],
          "internalType": "struct StorableMsg",
          "name": "storableMsg",
          "type": "tuple"
        },
        {
          "internalType": "bool",
          "name": "wrapped",
          "type": "bool"
        }
      ],
      "stateMutability": "view",
      "type": "function"
    },
    {
      "inputs": [
        {
          "internalType": "bytes32",
          "name": "h",
          "type": "bytes32"
        }
      ],
      "name": "subnets",
      "outputs": [
        {
          "components": [
            {
              "internalType": "uint256",
              "name": "stake",
              "type": "uint256"
            },
            {
              "internalType": "uint256",
              "name": "genesisEpoch",
              "type": "uint256"
            },
            {
              "internalType": "uint256",
              "name": "circSupply",
              "type": "uint256"
            },
            {
              "internalType": "uint64",
              "name": "topDownNonce",
              "type": "uint64"
            },
            {
              "internalType": "uint64",
              "name": "appliedBottomUpNonce",
              "type": "uint64"
            },
            {
              "internalType": "enum Status",
              "name": "status",
              "type": "uint8"
            },
            {
              "components": [
                {
                  "internalType": "uint64",
                  "name": "root",
                  "type": "uint64"
                },
                {
                  "internalType": "address[]",
                  "name": "route",
                  "type": "address[]"
                }
              ],
              "internalType": "struct SubnetID",
              "name": "id",
              "type": "tuple"
            },
            {
              "components": [
                {
                  "components": [
                    {
                      "internalType": "uint64",
                      "name": "root",
                      "type": "uint64"
                    },
                    {
                      "internalType": "address[]",
                      "name": "route",
                      "type": "address[]"
                    }
                  ],
                  "internalType": "struct SubnetID",
                  "name": "source",
                  "type": "tuple"
                },
                {
                  "internalType": "uint64",
                  "name": "epoch",
                  "type": "uint64"
                },
                {
                  "internalType": "uint256",
                  "name": "fee",
                  "type": "uint256"
                },
                {
                  "components": [
                    {
                      "components": [
                        {
                          "components": [
                            {
                              "components": [
                                {
                                  "internalType": "uint64",
                                  "name": "root",
                                  "type": "uint64"
                                },
                                {
                                  "internalType": "address[]",
                                  "name": "route",
                                  "type": "address[]"
                                }
                              ],
                              "internalType": "struct SubnetID",
                              "name": "subnetId",
                              "type": "tuple"
                            },
                            {
                              "components": [
                                {
                                  "internalType": "uint8",
                                  "name": "addrType",
                                  "type": "uint8"
                                },
                                {
                                  "internalType": "bytes",
                                  "name": "payload",
                                  "type": "bytes"
                                }
                              ],
                              "internalType": "struct FvmAddress",
                              "name": "rawAddress",
                              "type": "tuple"
                            }
                          ],
                          "internalType": "struct IPCAddress",
                          "name": "from",
                          "type": "tuple"
                        },
                        {
                          "components": [
                            {
                              "components": [
                                {
                                  "internalType": "uint64",
                                  "name": "root",
                                  "type": "uint64"
                                },
                                {
                                  "internalType": "address[]",
                                  "name": "route",
                                  "type": "address[]"
                                }
                              ],
                              "internalType": "struct SubnetID",
                              "name": "subnetId",
                              "type": "tuple"
                            },
                            {
                              "components": [
                                {
                                  "internalType": "uint8",
                                  "name": "addrType",
                                  "type": "uint8"
                                },
                                {
                                  "internalType": "bytes",
                                  "name": "payload",
                                  "type": "bytes"
                                }
                              ],
                              "internalType": "struct FvmAddress",
                              "name": "rawAddress",
                              "type": "tuple"
                            }
                          ],
                          "internalType": "struct IPCAddress",
                          "name": "to",
                          "type": "tuple"
                        },
                        {
                          "internalType": "uint256",
                          "name": "value",
                          "type": "uint256"
                        },
                        {
                          "internalType": "uint64",
                          "name": "nonce",
                          "type": "uint64"
                        },
                        {
                          "internalType": "bytes4",
                          "name": "method",
                          "type": "bytes4"
                        },
                        {
                          "internalType": "bytes",
                          "name": "params",
                          "type": "bytes"
                        }
                      ],
                      "internalType": "struct StorableMsg",
                      "name": "message",
                      "type": "tuple"
                    },
                    {
                      "internalType": "bool",
                      "name": "wrapped",
                      "type": "bool"
                    }
                  ],
                  "internalType": "struct CrossMsg[]",
                  "name": "crossMsgs",
                  "type": "tuple[]"
                },
                {
                  "components": [
                    {
                      "components": [
                        {
                          "internalType": "uint64",
                          "name": "root",
                          "type": "uint64"
                        },
                        {
                          "internalType": "address[]",
                          "name": "route",
                          "type": "address[]"
                        }
                      ],
                      "internalType": "struct SubnetID",
                      "name": "source",
                      "type": "tuple"
                    },
                    {
                      "internalType": "bytes32[]",
                      "name": "checks",
                      "type": "bytes32[]"
                    }
                  ],
                  "internalType": "struct ChildCheck[]",
                  "name": "children",
                  "type": "tuple[]"
                },
                {
                  "internalType": "bytes32",
                  "name": "prevHash",
                  "type": "bytes32"
                },
                {
                  "internalType": "bytes",
                  "name": "proof",
                  "type": "bytes"
                }
              ],
              "internalType": "struct BottomUpCheckpoint",
              "name": "prevCheckpoint",
              "type": "tuple"
            }
          ],
          "internalType": "struct Subnet",
          "name": "subnet",
          "type": "tuple"
        }
      ],
      "stateMutability": "view",
      "type": "function"
    },
    {
      "inputs": [],
      "name": "topDownCheckPeriod",
      "outputs": [
        {
          "internalType": "uint64",
          "name": "",
          "type": "uint64"
        }
      ],
      "stateMutability": "view",
      "type": "function"
    },
    {
      "inputs": [],
      "name": "totalSubnets",
      "outputs": [
        {
          "internalType": "uint64",
          "name": "",
          "type": "uint64"
        }
      ],
      "stateMutability": "view",
      "type": "function"
    },
    {
      "inputs": [],
      "name": "totalWeight",
      "outputs": [
        {
          "internalType": "uint256",
          "name": "",
          "type": "uint256"
        }
      ],
      "stateMutability": "view",
      "type": "function"
    }
  ],
  "bytecode": {
    "object": "0x608060405234801561001057600080fd5b5061382e806100206000396000f3fe608060405234801561001057600080fd5b506004361061014d5760003560e01c806366d7bbbc116100c357806396c82e571161007c57806396c82e57146103285780639d3070b5146103305780639e530b5714610343578063a2b6715814610375578063ad81e2441461038d578063c66c66a11461039557600080fd5b806366d7bbbc1461028f57806377296bb1146102a25780637d9740f4146102c25780638789f83b146102da5780638cfd78e7146102f257806394074b031461031357600080fd5b80632cc14ea2116101155780632cc14ea214610202578063375b3c0a1461022257806341b6a2e81461022a57806351392fc01461023b578063599c7bd1146102725780635d0296851461027a57600080fd5b806302e30f9a1461015257806306c468531461017b57806310d500e1146101a0578063158ef93e146101d257806324729425146101f0575b600080fd5b610165610160366004612faa565b6103b6565b6040516101729190613375565b60405180910390f35b6010546001600160401b03165b6040516001600160401b039091168152602001610172565b6101a8610b45565b604080516001600160401b0394851681529284166020840152921691810191909152606001610172565b601054600160401b900460ff165b6040519015158152602001610172565b600d545b604051908152602001610172565b6102156102103660046133a4565b610ba4565b60405161017291906133bf565b600b546101f4565b600f546001600160401b0316610188565b7f283d1424c49941ba61504663c7a1b6f59e6bbb963a00bcc130bcbf9c29e1e27054600160401b90046001600160401b0316610188565b61018861122d565b61028261125a565b60405161017291906133d2565b6101e061029d36600461344b565b611a94565b6102b56102b0366004613496565b611ad7565b60405161017291906134e3565b600f54600160801b90046001600160401b0316610188565b600f54600160401b90046001600160401b0316610188565b610305610300366004612faa565b611aec565b6040516101729291906134f6565b61031b611e77565b604051610172919061351a565b600e546101f4565b6101f461033e366004613664565b611f0c565b610356610351366004613698565b611f2d565b6040805192151583526001600160401b03909116602083015201610172565b600f54600160c01b90046001600160401b0316610188565b610188611f73565b6103a86103a3366004613698565b611fa6565b6040516101729291906136cc565b6103be612e50565b600082815260208181526040918290208251610100810184528154815260018201549281019290925260028101549282019290925260038201546001600160401b038082166060840152600160401b820416608083015290919060a0830190600160801b900460ff16600581111561043857610438612fc3565b600581111561044957610449612fc3565b81526040805180820182526004840180546001600160401b031682526005850180548451602082810282018101909652818152958501959394929385840193909291908301828280156104c557602002820191906000526020600020905b81546001600160a01b031681526001909101906020018083116104a7575b50505091909252505050815260408051610120810182526006840180546001600160401b031660e083019081526007860180548551602082810282018101909752818152968601969495939486948693610100870193909183018282801561055657602002820191906000526020600020905b81546001600160a01b03168152600190910190602001808311610538575b50505050508152505081526020016002820160009054906101000a90046001600160401b03166001600160401b03166001600160401b031681526020016003820154815260200160048201805480602002602001604051908101604052809291908181526020016000905b828210156109605760008481526020908190206040805161018081018252600c860290920180546001600160401b031661014084019081526001820180548451818802810188018652818152959693958795860194879486946101008901948794869486936101608d0193909183018282801561066757602002820191906000526020600020905b81546001600160a01b03168152600190910190602001808311610649575b5050509190925250505081526040805180820190915260028301805460ff168252600384018054602094850194840191906106a1906136e7565b80601f01602080910402602001604051908101604052809291908181526020018280546106cd906136e7565b801561071a5780601f106106ef5761010080835404028352916020019161071a565b820191906000526020600020905b8154815290600101906020018083116106fd57829003601f168201915b505050919092525050509052508152604080516080810182526004840180546001600160401b03168284019081526005860180548551602082810282018101909752818152968601969495939486948693606087019390918301828280156107ab57602002820191906000526020600020905b81546001600160a01b0316815260019091019060200180831161078d575b5050509190925250505081526040805180820190915260028301805460ff168252600384018054602094850194840191906107e5906136e7565b80601f0160208091040260200160405190810160405280929190818152602001828054610811906136e7565b801561085e5780601f106108335761010080835404028352916020019161085e565b820191906000526020600020905b81548152906001019060200180831161084157829003601f168201915b5050509190925250505090525081526008820154602082015260098201546001600160401b0381166040830152600160401b900460e01b6001600160e01b0319166060820152600a820180546080909201916108b9906136e7565b80601f01602080910402602001604051908101604052809291908181526020018280546108e5906136e7565b80156109325780601f1061090757610100808354040283529160200191610932565b820191906000526020600020905b81548152906001019060200180831161091557829003601f168201915b505050919092525050508152600b919091015460ff16151560209182015290825260019290920191016105c1565b50505050815260200160058201805480602002602001604051908101604052809291908181526020016000905b82821015610a97576000848152602090819020604080516080810182526003860290920180546001600160401b031683830190815260018201805484518188028101880190955280855294959294869492938693606087019390929091830182828015610a2357602002820191906000526020600020905b81546001600160a01b03168152600190910190602001808311610a05575b505050505081525050815260200160028201805480602002602001604051908101604052809291908181526020018280548015610a7f57602002820191906000526020600020905b815481526020019060010190808311610a6b575b5050505050815250508152602001906001019061098d565b50505050815260200160068201548152602001600782018054610ab9906136e7565b80601f0160208091040260200160405190810160405280929190818152602001828054610ae5906136e7565b8015610b325780601f10610b0757610100808354040283529160200191610b32565b820191906000526020600020905b815481529060010190602001808311610b1557829003601f168201915b5050509190925250505090525092915050565b6000806000610b997f283d1424c49941ba61504663c7a1b6f59e6bbb963a00bcc130bcbf9c29e1e27154600160401b81046001600160401b0390811692600160801b8304821692600160c01b900490911690565b925092509250909192565b610bac612eaa565b6001600160401b03808316600090815260036020908152604091829020825161012081018452815490941660e0850190815260018201805485518186028101860190965280865292948694929386936101008701939190830182828015610c3c57602002820191906000526020600020905b81546001600160a01b03168152600190910190602001808311610c1e575b50505050508152505081526020016002820160009054906101000a90046001600160401b03166001600160401b03166001600160401b031681526020016003820154815260200160048201805480602002602001604051908101604052809291908181526020016000905b828210156110465760008481526020908190206040805161018081018252600c860290920180546001600160401b031661014084019081526001820180548451818802810188018652818152959693958795860194879486946101008901948794869486936101608d01939091830182828015610d4d57602002820191906000526020600020905b81546001600160a01b03168152600190910190602001808311610d2f575b5050509190925250505081526040805180820190915260028301805460ff16825260038401805460209485019484019190610d87906136e7565b80601f0160208091040260200160405190810160405280929190818152602001828054610db3906136e7565b8015610e005780601f10610dd557610100808354040283529160200191610e00565b820191906000526020600020905b815481529060010190602001808311610de357829003601f168201915b505050919092525050509052508152604080516080810182526004840180546001600160401b0316828401908152600586018054855160208281028201810190975281815296860196949593948694869360608701939091830182828015610e9157602002820191906000526020600020905b81546001600160a01b03168152600190910190602001808311610e73575b5050509190925250505081526040805180820190915260028301805460ff16825260038401805460209485019484019190610ecb906136e7565b80601f0160208091040260200160405190810160405280929190818152602001828054610ef7906136e7565b8015610f445780601f10610f1957610100808354040283529160200191610f44565b820191906000526020600020905b815481529060010190602001808311610f2757829003601f168201915b5050509190925250505090525081526008820154602082015260098201546001600160401b0381166040830152600160401b900460e01b6001600160e01b0319166060820152600a82018054608090920191610f9f906136e7565b80601f0160208091040260200160405190810160405280929190818152602001828054610fcb906136e7565b80156110185780601f10610fed57610100808354040283529160200191611018565b820191906000526020600020905b815481529060010190602001808311610ffb57829003601f168201915b505050919092525050508152600b919091015460ff1615156020918201529082526001929092019101610ca7565b50505050815260200160058201805480602002602001604051908101604052809291908181526020016000905b8282101561117d576000848152602090819020604080516080810182526003860290920180546001600160401b03168383019081526001820180548451818802810188019095528085529495929486949293869360608701939092909183018282801561110957602002820191906000526020600020905b81546001600160a01b031681526001909101906020018083116110eb575b50505050508152505081526020016002820180548060200260200160405190810160405280929190818152602001828054801561116557602002820191906000526020600020905b815481526020019060010190808311611151575b50505050508152505081526020019060010190611073565b5050505081526020016006820154815260200160078201805461119f906136e7565b80601f01602080910402602001604051908101604052809291908181526020018280546111cb906136e7565b80156112185780601f106111ed57610100808354040283529160200191611218565b820191906000526020600020905b8154815290600101906020018083116111fb57829003601f168201915b5050505050815250509050919050565b905090565b60006112287f283d1424c49941ba61504663c7a1b6f59e6bbb963a00bcc130bcbf9c29e1e2735460ff1690565b6008546060906000816001600160401b0381111561127a5761127a61352d565b6040519080825280602002602001820160405280156112b357816020015b6112a0612e50565b8152602001906001900390816112985790505b50905060005b82811015611a8d5760008060080182815481106112d8576112d861371b565b60009182526020808320909101548083528282526040928390208351610100810185528154815260018201549381019390935260028101549383019390935260038301546001600160401b038082166060850152600160401b820416608084015290935090919060a083019060ff600160801b90910416600581111561136057611360612fc3565b600581111561137157611371612fc3565b81526040805180820182526004840180546001600160401b031682526005850180548451602082810282018101909652818152958501959394929385840193909291908301828280156113ed57602002820191906000526020600020905b81546001600160a01b031681526001909101906020018083116113cf575b50505091909252505050815260408051610120810182526006840180546001600160401b031660e083019081526007860180548551602082810282018101909752818152968601969495939486948693610100870193909183018282801561147e57602002820191906000526020600020905b81546001600160a01b03168152600190910190602001808311611460575b50505050508152505081526020016002820160009054906101000a90046001600160401b03166001600160401b03166001600160401b031681526020016003820154815260200160048201805480602002602001604051908101604052809291908181526020016000905b828210156118885760008481526020908190206040805161018081018252600c860290920180546001600160401b031661014084019081526001820180548451818802810188018652818152959693958795860194879486946101008901948794869486936101608d0193909183018282801561158f57602002820191906000526020600020905b81546001600160a01b03168152600190910190602001808311611571575b5050509190925250505081526040805180820190915260028301805460ff168252600384018054602094850194840191906115c9906136e7565b80601f01602080910402602001604051908101604052809291908181526020018280546115f5906136e7565b80156116425780601f1061161757610100808354040283529160200191611642565b820191906000526020600020905b81548152906001019060200180831161162557829003601f168201915b505050919092525050509052508152604080516080810182526004840180546001600160401b03168284019081526005860180548551602082810282018101909752818152968601969495939486948693606087019390918301828280156116d357602002820191906000526020600020905b81546001600160a01b031681526001909101906020018083116116b5575b5050509190925250505081526040805180820190915260028301805460ff1682526003840180546020948501948401919061170d906136e7565b80601f0160208091040260200160405190810160405280929190818152602001828054611739906136e7565b80156117865780601f1061175b57610100808354040283529160200191611786565b820191906000526020600020905b81548152906001019060200180831161176957829003601f168201915b5050509190925250505090525081526008820154602082015260098201546001600160401b0381166040830152600160401b900460e01b6001600160e01b0319166060820152600a820180546080909201916117e1906136e7565b80601f016020809104026020016040519081016040528092919081815260200182805461180d906136e7565b801561185a5780601f1061182f5761010080835404028352916020019161185a565b820191906000526020600020905b81548152906001019060200180831161183d57829003601f168201915b505050919092525050508152600b919091015460ff16151560209182015290825260019290920191016114e9565b50505050815260200160058201805480602002602001604051908101604052809291908181526020016000905b828210156119bf576000848152602090819020604080516080810182526003860290920180546001600160401b03168383019081526001820180548451818802810188019095528085529495929486949293869360608701939092909183018282801561194b57602002820191906000526020600020905b81546001600160a01b0316815260019091019060200180831161192d575b5050505050815250508152602001600282018054806020026020016040519081016040528092919081815260200182805480156119a757602002820191906000526020600020905b815481526020019060010190808311611993575b505050505081525050815260200190600101906118b5565b505050508152602001600682015481526020016007820180546119e1906136e7565b80601f0160208091040260200160405190810160405280929190818152602001828054611a0d906136e7565b8015611a5a5780601f10611a2f57610100808354040283529160200191611a5a565b820191906000526020600020905b815481529060010190602001808311611a3d57829003601f168201915b50505050508152505081525050838381518110611a7957611a7961371b565b6020908102919091010152506001016112b9565b5092915050565b6001600160401b03821660009081526007602090815260408083208054845260030182528083206001600160a01b038516845290915290205460ff165b92915050565b6060611ae4848484612737565b949350505050565b611af4612ef5565b6000828152600260209081526040808320600b81015482516101408101845282546001600160401b03166101008201908152600184018054865181890281018901909752808752949660ff9094169592948794869460c086019487948694919386936101208a0193909291830182828015611b9857602002820191906000526020600020905b81546001600160a01b03168152600190910190602001808311611b7a575b5050509190925250505081526040805180820190915260028301805460ff16825260038401805460209485019484019190611bd2906136e7565b80601f0160208091040260200160405190810160405280929190818152602001828054611bfe906136e7565b8015611c4b5780601f10611c2057610100808354040283529160200191611c4b565b820191906000526020600020905b815481529060010190602001808311611c2e57829003601f168201915b505050919092525050509052508152604080516080810182526004840180546001600160401b0316828401908152600586018054855160208281028201810190975281815296860196949593948694869360608701939091830182828015611cdc57602002820191906000526020600020905b81546001600160a01b03168152600190910190602001808311611cbe575b5050509190925250505081526040805180820190915260028301805460ff16825260038401805460209485019484019190611d16906136e7565b80601f0160208091040260200160405190810160405280929190818152602001828054611d42906136e7565b8015611d8f5780601f10611d6457610100808354040283529160200191611d8f565b820191906000526020600020905b815481529060010190602001808311611d7257829003601f168201915b5050509190925250505090525081526008820154602082015260098201546001600160401b0381166040830152600160401b900460e01b6001600160e01b0319166060820152600a82018054608090920191611dea906136e7565b80601f0160208091040260200160405190810160405280929190818152602001828054611e16906136e7565b8015611e635780601f10611e3857610100808354040283529160200191611e63565b820191906000526020600020905b815481529060010190602001808311611e4657829003601f168201915b505050505081525050915091509150915091565b604080518082019091526000815260606020820152604080518082018252600980546001600160401b03168252600a80548451602082810282018101909652818152939492938386019390929190830182828015611efe57602002820191906000526020600020905b81546001600160a01b03168152600190910190602001808311611ee0575b505050505081525050905090565b600080611f1883612cbd565b600301546001600160401b0316949350505050565b6000808080611f43611f3e86613731565b612cbd565b9150915081611f59575060009485945092505050565b600301546001956001600160401b03909116945092505050565b60006112287f283d1424c49941ba61504663c7a1b6f59e6bbb963a00bcc130bcbf9c29e1e270546001600160401b031690565b6000611fb0612e50565b611fbc611f3e84613731565b6040805161010081018252825481526001830154602082015260028301549181019190915260038201546001600160401b038082166060840152600160401b8204166080830152829060a0830190600160801b900460ff16600581111561202557612025612fc3565b600581111561203657612036612fc3565b81526040805180820182526004840180546001600160401b031682526005850180548451602082810282018101909652818152958501959394929385840193909291908301828280156120b257602002820191906000526020600020905b81546001600160a01b03168152600190910190602001808311612094575b50505091909252505050815260408051610120810182526006840180546001600160401b031660e083019081526007860180548551602082810282018101909752818152968601969495939486948693610100870193909183018282801561214357602002820191906000526020600020905b81546001600160a01b03168152600190910190602001808311612125575b50505050508152505081526020016002820160009054906101000a90046001600160401b03166001600160401b03166001600160401b031681526020016003820154815260200160048201805480602002602001604051908101604052809291908181526020016000905b8282101561254d5760008481526020908190206040805161018081018252600c860290920180546001600160401b031661014084019081526001820180548451818802810188018652818152959693958795860194879486946101008901948794869486936101608d0193909183018282801561225457602002820191906000526020600020905b81546001600160a01b03168152600190910190602001808311612236575b5050509190925250505081526040805180820190915260028301805460ff1682526003840180546020948501948401919061228e906136e7565b80601f01602080910402602001604051908101604052809291908181526020018280546122ba906136e7565b80156123075780601f106122dc57610100808354040283529160200191612307565b820191906000526020600020905b8154815290600101906020018083116122ea57829003601f168201915b505050919092525050509052508152604080516080810182526004840180546001600160401b031682840190815260058601805485516020828102820181019097528181529686019694959394869486936060870193909183018282801561239857602002820191906000526020600020905b81546001600160a01b0316815260019091019060200180831161237a575b5050509190925250505081526040805180820190915260028301805460ff168252600384018054602094850194840191906123d2906136e7565b80601f01602080910402602001604051908101604052809291908181526020018280546123fe906136e7565b801561244b5780601f106124205761010080835404028352916020019161244b565b820191906000526020600020905b81548152906001019060200180831161242e57829003601f168201915b5050509190925250505090525081526008820154602082015260098201546001600160401b0381166040830152600160401b900460e01b6001600160e01b0319166060820152600a820180546080909201916124a6906136e7565b80601f01602080910402602001604051908101604052809291908181526020018280546124d2906136e7565b801561251f5780601f106124f45761010080835404028352916020019161251f565b820191906000526020600020905b81548152906001019060200180831161250257829003601f168201915b505050919092525050508152600b919091015460ff16151560209182015290825260019290920191016121ae565b50505050815260200160058201805480602002602001604051908101604052809291908181526020016000905b82821015612684576000848152602090819020604080516080810182526003860290920180546001600160401b03168383019081526001820180548451818802810188019095528085529495929486949293869360608701939092909183018282801561261057602002820191906000526020600020905b81546001600160a01b031681526001909101906020018083116125f2575b50505050508152505081526020016002820180548060200260200160405190810160405280929190818152602001828054801561266c57602002820191906000526020600020905b815481526020019060010190808311612658575b5050505050815250508152602001906001019061257a565b505050508152602001600682015481526020016007820180546126a6906136e7565b80601f01602080910402602001604051908101604052809291908181526020018280546126d2906136e7565b801561271f5780601f106126f45761010080835404028352916020019161271f565b820191906000526020600020905b81548152906001019060200180831161270257829003601f168201915b50505050508152505081525050905091509150915091565b606060008284111561277d576040805160008082526020820190925290612774565b612761612f4a565b8152602001906001900390816127595790505b50915050612cb6565b600061278886613731565b6040516390ba52cf60e01b815273__$a0fe38a9a81205afccc10810b09a4d3f45$__916390ba52cf916127be919060040161373d565b602060405180830381865af41580156127db573d6000803e3d6000fd5b505050506040513d601f19601f820116820180604052508101906127ff919061379c565b90506000855b85811161283c576000838152600185016020908152604080832084845290915290205461283290836137b5565b9150600101612805565b506000816001600160401b038111156128575761285761352d565b60405190808252806020026020018201604052801561289057816020015b61287d612f4a565b8152602001906001900390816128755790505b5090506000875b878111612cad5760005b60008681526001880160209081526040808320858452909152902054811015612ca4576000868152600188016020908152604080832085845290915290208054829081106128f1576128f161371b565b60009182526020918290206040805161018081018252600c90930290910180546001600160401b031661014084019081526001820180548451818802810188018652818152959693958795860194879486946101008901948794869486936101608d0193909183018282801561299057602002820191906000526020600020905b81546001600160a01b03168152600190910190602001808311612972575b5050509190925250505081526040805180820190915260028301805460ff168252600384018054602094850194840191906129ca906136e7565b80601f01602080910402602001604051908101604052809291908181526020018280546129f6906136e7565b8015612a435780601f10612a1857610100808354040283529160200191612a43565b820191906000526020600020905b815481529060010190602001808311612a2657829003601f168201915b505050919092525050509052508152604080516080810182526004840180546001600160401b0316828401908152600586018054855160208281028201810190975281815296860196949593948694869360608701939091830182828015612ad457602002820191906000526020600020905b81546001600160a01b03168152600190910190602001808311612ab6575b5050509190925250505081526040805180820190915260028301805460ff16825260038401805460209485019484019190612b0e906136e7565b80601f0160208091040260200160405190810160405280929190818152602001828054612b3a906136e7565b8015612b875780601f10612b5c57610100808354040283529160200191612b87565b820191906000526020600020905b815481529060010190602001808311612b6a57829003601f168201915b5050509190925250505090525081526008820154602082015260098201546001600160401b0381166040830152600160401b900460e01b6001600160e01b0319166060820152600a82018054608090920191612be2906136e7565b80601f0160208091040260200160405190810160405280929190818152602001828054612c0e906136e7565b8015612c5b5780601f10612c3057610100808354040283529160200191612c5b565b820191906000526020600020905b815481529060010190602001808311612c3e57829003601f168201915b505050919092525050508152600b919091015460ff1615156020909101528451859085908110612c8d57612c8d61371b565b6020908102919091010152600192830192016128a1565b50600101612897565b50909450505050505b9392505050565b6040516390ba52cf60e01b8152600090819081908190819073__$a0fe38a9a81205afccc10810b09a4d3f45$__906390ba52cf90612cff90899060040161373d565b602060405180830381865af4158015612d1c573d6000803e3d6000fd5b505050506040513d601f19601f82011682018060405250810190612d40919061379c565b81526020808201929092526040908101600020815180830183526004820180546001600160401b031682526005830180548551818802810188019096528086529397509194909385820193909291830182828015612dc757602002820191906000526020600020905b81546001600160a01b03168152600190910190602001808311612da9575b505050919092525050604051630c133d1360e31b815273__$a0fe38a9a81205afccc10810b09a4d3f45$__92636099e8989250612e069160040161373d565b602060405180830381865af4158015612e23573d6000803e3d6000fd5b505050506040513d601f19601f82011682018060405250810190612e4791906137d6565b15925050915091565b60408051610100810182526000808252602080830182905282840182905260608084018390526080840183905260a0840183905284518086019095529184528301529060c08201908152602001612ea5612eaa565b905290565b6040805161012081018252600060e0820181815260606101008401819052908352602083018290529282018190528282018390526080820183905260a082015260c081019190915290565b6040518060c00160405280612f08612f6a565b8152602001612f15612f6a565b81526020016000815260200160006001600160401b0316815260200160006001600160e01b0319168152602001606081525090565b6040518060400160405280612f5d612ef5565b8152600060209091015290565b6040805160808101825260009181019182526060808201529081908152602001612ea56040518060400160405280600060ff168152602001606081525090565b600060208284031215612fbc57600080fd5b5035919050565b634e487b7160e01b600052602160045260246000fd5b6000604083016001600160401b0383511684526020808401516040828701528281518085526060880191508383019450600092505b808310156130375784516001600160a01b0316825293830193600192909201919083019061300e565b509695505050505050565b6000815180845260005b818110156130685760208185018101518683018201520161304c565b506000602082860101526020601f19601f83011685010191505092915050565b600081516040845261309d6040850182612fd9565b90506020830151848203602086015260ff815116825260208101519050604060208301526130ce6040830182613042565b95945050505050565b6000815160c084526130ec60c0850182613088565b9050602083015184820360208601526131058282613088565b915050604083015160408501526001600160401b03606084015116606085015263ffffffff60e01b608084015116608085015260a083015184820360a08601526130ce8282613042565b600081518084526020808501808196508360051b8101915082860160005b858110156131af57828403895281516040815181875261318f828801826130d7565b92880151151596880196909652509885019893509084019060010161316d565b5091979650505050505050565b6000815160e084526131d160e0850182612fd9565b905060206001600160401b038185015116818601526040808501518187015260608501518684036060880152613207848261314f565b935050608085015186840360808801528381518086528486019150848160051b87010185840193506000805b838110156132a757888303601f190185528551805188855261325789860182612fd9565b918a0151858303868c01528051808452908b01928592508b01905b808310156132925783518252928b019260019290920191908b0190613272565b50978a0197968a019694505050600101613233565b505060a089015160a08b015260c0890151965089810360c08b01526132cc8188613042565b9a9950505050505050505050565b600061010082518452602083015160208501526040830151604085015260608301516001600160401b038082166060870152806080860151166080870152505060a08301516006811061333d57634e487b7160e01b600052602160045260246000fd5b8060a08601525060c08301518160c086015261335b82860182612fd9565b91505060e083015184820360e08601526130ce82826131bc565b602081526000612cb660208301846132da565b80356001600160401b038116811461339f57600080fd5b919050565b6000602082840312156133b657600080fd5b612cb682613388565b602081526000612cb660208301846131bc565b6000602080830181845280855180835260408601915060408160051b870101925083870160005b8281101561342757603f198886030184526134158583516132da565b945092850192908501906001016133f9565b5092979650505050505050565b80356001600160a01b038116811461339f57600080fd5b6000806040838503121561345e57600080fd5b61346783613388565b915061347560208401613434565b90509250929050565b60006040828403121561349057600080fd5b50919050565b6000806000606084860312156134ab57600080fd5b83356001600160401b038111156134c157600080fd5b6134cd8682870161347e565b9660208601359650604090950135949350505050565b602081526000612cb6602083018461314f565b60408152600061350960408301856130d7565b905082151560208301529392505050565b602081526000612cb66020830184612fd9565b634e487b7160e01b600052604160045260246000fd5b604080519081016001600160401b03811182821017156135655761356561352d565b60405290565b604051601f8201601f191681016001600160401b03811182821017156135935761359361352d565b604052919050565b6000604082840312156135ad57600080fd5b6135b5613543565b90506135c082613388565b81526020808301356001600160401b03808211156135dd57600080fd5b818501915085601f8301126135f157600080fd5b8135818111156136035761360361352d565b8060051b915061361484830161356b565b818152918301840191848101908884111561362e57600080fd5b938501935b838510156136535761364485613434565b82529385019390850190613633565b808688015250505050505092915050565b60006020828403121561367657600080fd5b81356001600160401b0381111561368c57600080fd5b611ae48482850161359b565b6000602082840312156136aa57600080fd5b81356001600160401b038111156136c057600080fd5b611ae48482850161347e565b8215158152604060208201526000611ae460408301846132da565b600181811c908216806136fb57607f821691505b60208210810361349057634e487b7160e01b600052602260045260246000fd5b634e487b7160e01b600052603260045260246000fd5b6000611ad1368361359b565b602080825282516001600160401b0316828201528281015160408084015280516060840181905260009291820190839060808601905b808310156130375783516001600160a01b03168252928401926001929092019190840190613773565b6000602082840312156137ae57600080fd5b5051919050565b80820180821115611ad157634e487b7160e01b600052601160045260246000fd5b6000602082840312156137e857600080fd5b81518015158114612cb657600080fdfea26469706673582212204e12580ff5712a76314ad6c361c6949a0331e631e4f64a35e71ce60ad0fcfa3d64736f6c63430008130033",
    "linkReferences": {
      "src/lib/SubnetIDHelper.sol": {
        "SubnetIDHelper": [
          {
            "start": 10167,
            "length": 20
          },
          {
            "start": 11511,
            "length": 20
          },
          {
            "start": 11775,
            "length": 20
          }
        ]
      }
    }
  },
  "methodIdentifiers": {
    "appliedTopDownNonce()": "8789f83b",
    "bottomUpCheckPeriod()": "06c46853",
    "bottomUpCheckpoints(uint64)": "2cc14ea2",
    "bottomUpNonce()": "41b6a2e8",
    "crossMsgFee()": "24729425",
    "executableQueue()": "10d500e1",
    "getAppliedTopDownNonce((uint64,address[]))": "9e530b57",
    "getGenesisEpoch()": "51392fc0",
    "getNetworkName()": "94074b03",
    "getSubnet((uint64,address[]))": "c66c66a1",
    "getSubnetTopDownMsgsLength((uint64,address[]))": "9d3070b5",
    "getTopDownMsgs((uint64,address[]),uint256,uint256)": "77296bb1",
    "hasValidatorVotedForSubmission(uint64,address)": "66d7bbbc",
    "initialized()": "158ef93e",
    "lastVotingExecutedEpoch()": "ad81e244",
    "listSubnets()": "5d029685",
    "majorityPercentage()": "599c7bd1",
    "minStake()": "375b3c0a",
    "postbox(bytes32)": "8cfd78e7",
    "subnets(bytes32)": "02e30f9a",
    "topDownCheckPeriod()": "7d9740f4",
    "totalSubnets()": "a2b67158",
    "totalWeight()": "96c82e57"
  },
  "id": 32
}