{
  "abi": [
    {
      "inputs": [
        {
          "components": [
            {
              "components": [
                {
                  "internalType": "uint64",
                  "name": "root",
                  "type": "uint64"
                },
                {
                  "internalType": "address[]",
                  "name": "route",
                  "type": "address[]"
                }
              ],
              "internalType": "struct SubnetID",
              "name": "networkName",
              "type": "tuple"
            },
            {
              "internalType": "uint64",
              "name": "bottomUpCheckPeriod",
              "type": "uint64"
            },
            {
              "internalType": "uint64",
              "name": "topDownCheckPeriod",
              "type": "uint64"
            },
            {
              "internalType": "uint256",
              "name": "msgFee",
              "type": "uint256"
            },
            {
              "internalType": "uint8",
              "name": "majorityPercentage",
              "type": "uint8"
            }
          ],
          "internalType": "struct Gateway.ConstructorParams",
          "name": "params",
          "type": "tuple"
        }
      ],
      "stateMutability": "nonpayable",
      "type": "constructor"
    },
    {
      "inputs": [],
      "name": "AlreadyInitialized",
      "type": "error"
    },
    {
      "inputs": [],
      "name": "AlreadyRegisteredSubnet",
      "type": "error"
    },
    {
      "inputs": [],
      "name": "CallFailed",
      "type": "error"
    },
    {
      "inputs": [],
      "name": "CannotReleaseZero",
      "type": "error"
    },
    {
      "inputs": [],
      "name": "CannotSendCrossMsgToItself",
      "type": "error"
    },
    {
      "inputs": [],
      "name": "EmptySubnet",
      "type": "error"
    },
    {
      "inputs": [],
      "name": "EpochAlreadyExecuted",
      "type": "error"
    },
    {
      "inputs": [],
      "name": "EpochNotVotable",
      "type": "error"
    },
    {
      "inputs": [],
      "name": "InconsistentPrevCheckpoint",
      "type": "error"
    },
    {
      "inputs": [],
      "name": "InsufficientFunds",
      "type": "error"
    },
    {
      "inputs": [],
      "name": "InvalidActorAddress",
      "type": "error"
    },
    {
      "inputs": [],
      "name": "InvalidCheckpointEpoch",
      "type": "error"
    },
    {
      "inputs": [],
      "name": "InvalidCheckpointSource",
      "type": "error"
    },
    {
      "inputs": [],
      "name": "InvalidCrossMsgDestinationSubnet",
      "type": "error"
    },
    {
      "inputs": [],
      "name": "InvalidCrossMsgFromSubnetId",
      "type": "error"
    },
    {
      "inputs": [],
      "name": "InvalidCrossMsgNonce",
      "type": "error"
    },
    {
      "inputs": [],
      "name": "InvalidCrossMsgsSortOrder",
      "type": "error"
    },
    {
      "inputs": [],
      "name": "InvalidMajorityPercentage",
      "type": "error"
    },
    {
      "inputs": [],
      "name": "MessagesNotSorted",
      "type": "error"
    },
    {
      "inputs": [],
      "name": "MethodNotSupportedYet",
      "type": "error"
    },
    {
      "inputs": [],
      "name": "NotEmptySubnetCircSupply",
      "type": "error"
    },
    {
      "inputs": [],
      "name": "NotEnoughBalance",
      "type": "error"
    },
    {
      "inputs": [],
      "name": "NotEnoughFee",
      "type": "error"
    },
    {
      "inputs": [],
      "name": "NotEnoughFunds",
      "type": "error"
    },
    {
      "inputs": [],
      "name": "NotEnoughFundsForMembership",
      "type": "error"
    },
    {
      "inputs": [],
      "name": "NotEnoughFundsToRelease",
      "type": "error"
    },
    {
      "inputs": [],
      "name": "NotEnoughSubnetCircSupply",
      "type": "error"
    },
    {
      "inputs": [],
      "name": "NotInitialized",
      "type": "error"
    },
    {
      "inputs": [],
      "name": "NotRegisteredSubnet",
      "type": "error"
    },
    {
      "inputs": [],
      "name": "NotSignableAccount",
      "type": "error"
    },
    {
      "inputs": [],
      "name": "NotSystemActor",
      "type": "error"
    },
    {
      "inputs": [],
      "name": "NotValidator",
      "type": "error"
    },
    {
      "inputs": [],
      "name": "PostboxNotExist",
      "type": "error"
    },
    {
      "inputs": [],
      "name": "SubnetNotActive",
      "type": "error"
    },
    {
      "inputs": [],
      "name": "ValidatorAlreadyVoted",
      "type": "error"
    },
    {
      "inputs": [],
      "name": "ValidatorWeightIsZero",
      "type": "error"
    },
    {
      "inputs": [],
      "name": "ValidatorsAndWeightsLengthMismatch",
      "type": "error"
    },
    {
      "inputs": [],
      "name": "MIN_CHECKPOINT_PERIOD",
      "outputs": [
        {
          "internalType": "uint8",
          "name": "",
          "type": "uint8"
        }
      ],
      "stateMutability": "view",
      "type": "function"
    },
    {
      "inputs": [],
      "name": "MIN_COLLATERAL_AMOUNT",
      "outputs": [
        {
          "internalType": "uint256",
          "name": "",
          "type": "uint256"
        }
      ],
      "stateMutability": "view",
      "type": "function"
    },
    {
      "inputs": [],
      "name": "addStake",
      "outputs": [],
      "stateMutability": "payable",
      "type": "function"
    },
    {
      "inputs": [],
      "name": "appliedTopDownNonce",
      "outputs": [
        {
          "internalType": "uint64",
          "name": "",
          "type": "uint64"
        }
      ],
      "stateMutability": "view",
      "type": "function"
    },
    {
      "inputs": [],
      "name": "bottomUpCheckPeriod",
      "outputs": [
        {
          "internalType": "uint64",
          "name": "",
          "type": "uint64"
        }
      ],
      "stateMutability": "view",
      "type": "function"
    },
    {
      "inputs": [
        {
          "internalType": "uint64",
          "name": "epoch",
          "type": "uint64"
        }
      ],
      "name": "bottomUpCheckpointAtEpoch",
      "outputs": [
        {
          "internalType": "bool",
          "name": "exists",
          "type": "bool"
        },
        {
          "components": [
            {
              "components": [
                {
                  "internalType": "uint64",
                  "name": "root",
                  "type": "uint64"
                },
                {
                  "internalType": "address[]",
                  "name": "route",
                  "type": "address[]"
                }
              ],
              "internalType": "struct SubnetID",
              "name": "source",
              "type": "tuple"
            },
            {
              "internalType": "uint64",
              "name": "epoch",
              "type": "uint64"
            },
            {
              "internalType": "uint256",
              "name": "fee",
              "type": "uint256"
            },
            {
              "components": [
                {
                  "components": [
                    {
                      "components": [
                        {
                          "components": [
                            {
                              "internalType": "uint64",
                              "name": "root",
                              "type": "uint64"
                            },
                            {
                              "internalType": "address[]",
                              "name": "route",
                              "type": "address[]"
                            }
                          ],
                          "internalType": "struct SubnetID",
                          "name": "subnetId",
                          "type": "tuple"
                        },
                        {
                          "components": [
                            {
                              "internalType": "uint8",
                              "name": "addrType",
                              "type": "uint8"
                            },
                            {
                              "internalType": "bytes",
                              "name": "payload",
                              "type": "bytes"
                            }
                          ],
                          "internalType": "struct FvmAddress",
                          "name": "rawAddress",
                          "type": "tuple"
                        }
                      ],
                      "internalType": "struct IPCAddress",
                      "name": "from",
                      "type": "tuple"
                    },
                    {
                      "components": [
                        {
                          "components": [
                            {
                              "internalType": "uint64",
                              "name": "root",
                              "type": "uint64"
                            },
                            {
                              "internalType": "address[]",
                              "name": "route",
                              "type": "address[]"
                            }
                          ],
                          "internalType": "struct SubnetID",
                          "name": "subnetId",
                          "type": "tuple"
                        },
                        {
                          "components": [
                            {
                              "internalType": "uint8",
                              "name": "addrType",
                              "type": "uint8"
                            },
                            {
                              "internalType": "bytes",
                              "name": "payload",
                              "type": "bytes"
                            }
                          ],
                          "internalType": "struct FvmAddress",
                          "name": "rawAddress",
                          "type": "tuple"
                        }
                      ],
                      "internalType": "struct IPCAddress",
                      "name": "to",
                      "type": "tuple"
                    },
                    {
                      "internalType": "uint256",
                      "name": "value",
                      "type": "uint256"
                    },
                    {
                      "internalType": "uint64",
                      "name": "nonce",
                      "type": "uint64"
                    },
                    {
                      "internalType": "bytes4",
                      "name": "method",
                      "type": "bytes4"
                    },
                    {
                      "internalType": "bytes",
                      "name": "params",
                      "type": "bytes"
                    }
                  ],
                  "internalType": "struct StorableMsg",
                  "name": "message",
                  "type": "tuple"
                },
                {
                  "internalType": "bool",
                  "name": "wrapped",
                  "type": "bool"
                }
              ],
              "internalType": "struct CrossMsg[]",
              "name": "crossMsgs",
              "type": "tuple[]"
            },
            {
              "components": [
                {
                  "components": [
                    {
                      "internalType": "uint64",
                      "name": "root",
                      "type": "uint64"
                    },
                    {
                      "internalType": "address[]",
                      "name": "route",
                      "type": "address[]"
                    }
                  ],
                  "internalType": "struct SubnetID",
                  "name": "source",
                  "type": "tuple"
                },
                {
                  "internalType": "bytes32[]",
                  "name": "checks",
                  "type": "bytes32[]"
                }
              ],
              "internalType": "struct ChildCheck[]",
              "name": "children",
              "type": "tuple[]"
            },
            {
              "internalType": "bytes32",
              "name": "prevHash",
              "type": "bytes32"
            },
            {
              "internalType": "bytes",
              "name": "proof",
              "type": "bytes"
            }
          ],
          "internalType": "struct BottomUpCheckpoint",
          "name": "checkpoint",
          "type": "tuple"
        }
      ],
      "stateMutability": "view",
      "type": "function"
    },
    {
      "inputs": [
        {
          "internalType": "uint64",
          "name": "epoch",
          "type": "uint64"
        }
      ],
      "name": "bottomUpCheckpointHashAtEpoch",
      "outputs": [
        {
          "internalType": "bool",
          "name": "",
          "type": "bool"
        },
        {
          "internalType": "bytes32",
          "name": "",
          "type": "bytes32"
        }
      ],
      "stateMutability": "view",
      "type": "function"
    },
    {
      "inputs": [
        {
          "internalType": "uint64",
          "name": "",
          "type": "uint64"
        }
      ],
      "name": "bottomUpCheckpoints",
      "outputs": [
        {
          "components": [
            {
              "internalType": "uint64",
              "name": "root",
              "type": "uint64"
            },
            {
              "internalType": "address[]",
              "name": "route",
              "type": "address[]"
            }
          ],
          "internalType": "struct SubnetID",
          "name": "source",
          "type": "tuple"
        },
        {
          "internalType": "uint64",
          "name": "epoch",
          "type": "uint64"
        },
        {
          "internalType": "uint256",
          "name": "fee",
          "type": "uint256"
        },
        {
          "internalType": "bytes32",
          "name": "prevHash",
          "type": "bytes32"
        },
        {
          "internalType": "bytes",
          "name": "proof",
          "type": "bytes"
        }
      ],
      "stateMutability": "view",
      "type": "function"
    },
    {
      "inputs": [],
      "name": "bottomUpNonce",
      "outputs": [
        {
          "internalType": "uint64",
          "name": "",
          "type": "uint64"
        }
      ],
      "stateMutability": "view",
      "type": "function"
    },
    {
      "inputs": [
        {
          "components": [
            {
              "components": [
                {
                  "internalType": "uint64",
                  "name": "root",
                  "type": "uint64"
                },
                {
                  "internalType": "address[]",
                  "name": "route",
                  "type": "address[]"
                }
              ],
              "internalType": "struct SubnetID",
              "name": "source",
              "type": "tuple"
            },
            {
              "internalType": "uint64",
              "name": "epoch",
              "type": "uint64"
            },
            {
              "internalType": "uint256",
              "name": "fee",
              "type": "uint256"
            },
            {
              "components": [
                {
                  "components": [
                    {
                      "components": [
                        {
                          "components": [
                            {
                              "internalType": "uint64",
                              "name": "root",
                              "type": "uint64"
                            },
                            {
                              "internalType": "address[]",
                              "name": "route",
                              "type": "address[]"
                            }
                          ],
                          "internalType": "struct SubnetID",
                          "name": "subnetId",
                          "type": "tuple"
                        },
                        {
                          "components": [
                            {
                              "internalType": "uint8",
                              "name": "addrType",
                              "type": "uint8"
                            },
                            {
                              "internalType": "bytes",
                              "name": "payload",
                              "type": "bytes"
                            }
                          ],
                          "internalType": "struct FvmAddress",
                          "name": "rawAddress",
                          "type": "tuple"
                        }
                      ],
                      "internalType": "struct IPCAddress",
                      "name": "from",
                      "type": "tuple"
                    },
                    {
                      "components": [
                        {
                          "components": [
                            {
                              "internalType": "uint64",
                              "name": "root",
                              "type": "uint64"
                            },
                            {
                              "internalType": "address[]",
                              "name": "route",
                              "type": "address[]"
                            }
                          ],
                          "internalType": "struct SubnetID",
                          "name": "subnetId",
                          "type": "tuple"
                        },
                        {
                          "components": [
                            {
                              "internalType": "uint8",
                              "name": "addrType",
                              "type": "uint8"
                            },
                            {
                              "internalType": "bytes",
                              "name": "payload",
                              "type": "bytes"
                            }
                          ],
                          "internalType": "struct FvmAddress",
                          "name": "rawAddress",
                          "type": "tuple"
                        }
                      ],
                      "internalType": "struct IPCAddress",
                      "name": "to",
                      "type": "tuple"
                    },
                    {
                      "internalType": "uint256",
                      "name": "value",
                      "type": "uint256"
                    },
                    {
                      "internalType": "uint64",
                      "name": "nonce",
                      "type": "uint64"
                    },
                    {
                      "internalType": "bytes4",
                      "name": "method",
                      "type": "bytes4"
                    },
                    {
                      "internalType": "bytes",
                      "name": "params",
                      "type": "bytes"
                    }
                  ],
                  "internalType": "struct StorableMsg",
                  "name": "message",
                  "type": "tuple"
                },
                {
                  "internalType": "bool",
                  "name": "wrapped",
                  "type": "bool"
                }
              ],
              "internalType": "struct CrossMsg[]",
              "name": "crossMsgs",
              "type": "tuple[]"
            },
            {
              "components": [
                {
                  "components": [
                    {
                      "internalType": "uint64",
                      "name": "root",
                      "type": "uint64"
                    },
                    {
                      "internalType": "address[]",
                      "name": "route",
                      "type": "address[]"
                    }
                  ],
                  "internalType": "struct SubnetID",
                  "name": "source",
                  "type": "tuple"
                },
                {
                  "internalType": "bytes32[]",
                  "name": "checks",
                  "type": "bytes32[]"
                }
              ],
              "internalType": "struct ChildCheck[]",
              "name": "children",
              "type": "tuple[]"
            },
            {
              "internalType": "bytes32",
              "name": "prevHash",
              "type": "bytes32"
            },
            {
              "internalType": "bytes",
              "name": "proof",
              "type": "bytes"
            }
          ],
          "internalType": "struct BottomUpCheckpoint",
          "name": "commit",
          "type": "tuple"
        }
      ],
      "name": "commitChildCheck",
      "outputs": [],
      "stateMutability": "nonpayable",
      "type": "function"
    },
    {
      "inputs": [],
      "name": "crossMsgFee",
      "outputs": [
        {
          "internalType": "uint256",
          "name": "",
          "type": "uint256"
        }
      ],
      "stateMutability": "view",
      "type": "function"
    },
    {
      "inputs": [],
      "name": "executableQueue",
      "outputs": [
        {
          "internalType": "uint64",
          "name": "period",
          "type": "uint64"
        },
        {
          "internalType": "uint64",
          "name": "first",
          "type": "uint64"
        },
        {
          "internalType": "uint64",
          "name": "last",
          "type": "uint64"
        }
      ],
      "stateMutability": "view",
      "type": "function"
    },
    {
      "inputs": [
        {
          "components": [
            {
              "internalType": "uint64",
              "name": "root",
              "type": "uint64"
            },
            {
              "internalType": "address[]",
              "name": "route",
              "type": "address[]"
            }
          ],
          "internalType": "struct SubnetID",
          "name": "subnetId",
          "type": "tuple"
        },
        {
          "components": [
            {
              "internalType": "uint8",
              "name": "addrType",
              "type": "uint8"
            },
            {
              "internalType": "bytes",
              "name": "payload",
              "type": "bytes"
            }
          ],
          "internalType": "struct FvmAddress",
          "name": "to",
          "type": "tuple"
        }
      ],
      "name": "fund",
      "outputs": [],
      "stateMutability": "payable",
      "type": "function"
    },
    {
      "inputs": [
        {
          "components": [
            {
              "internalType": "uint64",
              "name": "root",
              "type": "uint64"
            },
            {
              "internalType": "address[]",
              "name": "route",
              "type": "address[]"
            }
          ],
          "internalType": "struct SubnetID",
          "name": "subnetId",
          "type": "tuple"
        }
      ],
      "name": "getAppliedTopDownNonce",
      "outputs": [
        {
          "internalType": "bool",
          "name": "",
          "type": "bool"
        },
        {
          "internalType": "uint64",
          "name": "",
          "type": "uint64"
        }
      ],
      "stateMutability": "view",
      "type": "function"
    },
    {
      "inputs": [],
      "name": "getGenesisEpoch",
      "outputs": [
        {
          "internalType": "uint64",
          "name": "",
          "type": "uint64"
        }
      ],
      "stateMutability": "view",
      "type": "function"
    },
    {
      "inputs": [],
      "name": "getNetworkName",
      "outputs": [
        {
          "components": [
            {
              "internalType": "uint64",
              "name": "root",
              "type": "uint64"
            },
            {
              "internalType": "address[]",
              "name": "route",
              "type": "address[]"
            }
          ],
          "internalType": "struct SubnetID",
          "name": "",
          "type": "tuple"
        }
      ],
      "stateMutability": "view",
      "type": "function"
    },
    {
      "inputs": [
        {
          "components": [
            {
              "internalType": "uint64",
              "name": "root",
              "type": "uint64"
            },
            {
              "internalType": "address[]",
              "name": "route",
              "type": "address[]"
            }
          ],
          "internalType": "struct SubnetID",
          "name": "subnetId",
          "type": "tuple"
        }
      ],
      "name": "getSubnet",
      "outputs": [
        {
          "internalType": "bool",
          "name": "",
          "type": "bool"
        },
        {
          "components": [
            {
              "internalType": "enum Status",
              "name": "status",
              "type": "uint8"
            },
            {
              "internalType": "uint64",
              "name": "topDownNonce",
              "type": "uint64"
            },
            {
              "internalType": "uint64",
              "name": "appliedBottomUpNonce",
              "type": "uint64"
            },
            {
              "internalType": "uint256",
              "name": "stake",
              "type": "uint256"
            },
            {
              "internalType": "uint256",
              "name": "genesisEpoch",
              "type": "uint256"
            },
            {
              "internalType": "uint256",
              "name": "circSupply",
              "type": "uint256"
            },
            {
              "components": [
                {
                  "internalType": "uint64",
                  "name": "root",
                  "type": "uint64"
                },
                {
                  "internalType": "address[]",
                  "name": "route",
                  "type": "address[]"
                }
              ],
              "internalType": "struct SubnetID",
              "name": "id",
              "type": "tuple"
            },
            {
              "components": [
                {
                  "components": [
                    {
                      "internalType": "uint64",
                      "name": "root",
                      "type": "uint64"
                    },
                    {
                      "internalType": "address[]",
                      "name": "route",
                      "type": "address[]"
                    }
                  ],
                  "internalType": "struct SubnetID",
                  "name": "source",
                  "type": "tuple"
                },
                {
                  "internalType": "uint64",
                  "name": "epoch",
                  "type": "uint64"
                },
                {
                  "internalType": "uint256",
                  "name": "fee",
                  "type": "uint256"
                },
                {
                  "components": [
                    {
                      "components": [
                        {
                          "components": [
                            {
                              "components": [
                                {
                                  "internalType": "uint64",
                                  "name": "root",
                                  "type": "uint64"
                                },
                                {
                                  "internalType": "address[]",
                                  "name": "route",
                                  "type": "address[]"
                                }
                              ],
                              "internalType": "struct SubnetID",
                              "name": "subnetId",
                              "type": "tuple"
                            },
                            {
                              "components": [
                                {
                                  "internalType": "uint8",
                                  "name": "addrType",
                                  "type": "uint8"
                                },
                                {
                                  "internalType": "bytes",
                                  "name": "payload",
                                  "type": "bytes"
                                }
                              ],
                              "internalType": "struct FvmAddress",
                              "name": "rawAddress",
                              "type": "tuple"
                            }
                          ],
                          "internalType": "struct IPCAddress",
                          "name": "from",
                          "type": "tuple"
                        },
                        {
                          "components": [
                            {
                              "components": [
                                {
                                  "internalType": "uint64",
                                  "name": "root",
                                  "type": "uint64"
                                },
                                {
                                  "internalType": "address[]",
                                  "name": "route",
                                  "type": "address[]"
                                }
                              ],
                              "internalType": "struct SubnetID",
                              "name": "subnetId",
                              "type": "tuple"
                            },
                            {
                              "components": [
                                {
                                  "internalType": "uint8",
                                  "name": "addrType",
                                  "type": "uint8"
                                },
                                {
                                  "internalType": "bytes",
                                  "name": "payload",
                                  "type": "bytes"
                                }
                              ],
                              "internalType": "struct FvmAddress",
                              "name": "rawAddress",
                              "type": "tuple"
                            }
                          ],
                          "internalType": "struct IPCAddress",
                          "name": "to",
                          "type": "tuple"
                        },
                        {
                          "internalType": "uint256",
                          "name": "value",
                          "type": "uint256"
                        },
                        {
                          "internalType": "uint64",
                          "name": "nonce",
                          "type": "uint64"
                        },
                        {
                          "internalType": "bytes4",
                          "name": "method",
                          "type": "bytes4"
                        },
                        {
                          "internalType": "bytes",
                          "name": "params",
                          "type": "bytes"
                        }
                      ],
                      "internalType": "struct StorableMsg",
                      "name": "message",
                      "type": "tuple"
                    },
                    {
                      "internalType": "bool",
                      "name": "wrapped",
                      "type": "bool"
                    }
                  ],
                  "internalType": "struct CrossMsg[]",
                  "name": "crossMsgs",
                  "type": "tuple[]"
                },
                {
                  "components": [
                    {
                      "components": [
                        {
                          "internalType": "uint64",
                          "name": "root",
                          "type": "uint64"
                        },
                        {
                          "internalType": "address[]",
                          "name": "route",
                          "type": "address[]"
                        }
                      ],
                      "internalType": "struct SubnetID",
                      "name": "source",
                      "type": "tuple"
                    },
                    {
                      "internalType": "bytes32[]",
                      "name": "checks",
                      "type": "bytes32[]"
                    }
                  ],
                  "internalType": "struct ChildCheck[]",
                  "name": "children",
                  "type": "tuple[]"
                },
                {
                  "internalType": "bytes32",
                  "name": "prevHash",
                  "type": "bytes32"
                },
                {
                  "internalType": "bytes",
                  "name": "proof",
                  "type": "bytes"
                }
              ],
              "internalType": "struct BottomUpCheckpoint",
              "name": "prevCheckpoint",
              "type": "tuple"
            },
            {
              "components": [
                {
                  "components": [
                    {
                      "components": [
                        {
                          "components": [
                            {
                              "internalType": "uint64",
                              "name": "root",
                              "type": "uint64"
                            },
                            {
                              "internalType": "address[]",
                              "name": "route",
                              "type": "address[]"
                            }
                          ],
                          "internalType": "struct SubnetID",
                          "name": "subnetId",
                          "type": "tuple"
                        },
                        {
                          "components": [
                            {
                              "internalType": "uint8",
                              "name": "addrType",
                              "type": "uint8"
                            },
                            {
                              "internalType": "bytes",
                              "name": "payload",
                              "type": "bytes"
                            }
                          ],
                          "internalType": "struct FvmAddress",
                          "name": "rawAddress",
                          "type": "tuple"
                        }
                      ],
                      "internalType": "struct IPCAddress",
                      "name": "from",
                      "type": "tuple"
                    },
                    {
                      "components": [
                        {
                          "components": [
                            {
                              "internalType": "uint64",
                              "name": "root",
                              "type": "uint64"
                            },
                            {
                              "internalType": "address[]",
                              "name": "route",
                              "type": "address[]"
                            }
                          ],
                          "internalType": "struct SubnetID",
                          "name": "subnetId",
                          "type": "tuple"
                        },
                        {
                          "components": [
                            {
                              "internalType": "uint8",
                              "name": "addrType",
                              "type": "uint8"
                            },
                            {
                              "internalType": "bytes",
                              "name": "payload",
                              "type": "bytes"
                            }
                          ],
                          "internalType": "struct FvmAddress",
                          "name": "rawAddress",
                          "type": "tuple"
                        }
                      ],
                      "internalType": "struct IPCAddress",
                      "name": "to",
                      "type": "tuple"
                    },
                    {
                      "internalType": "uint256",
                      "name": "value",
                      "type": "uint256"
                    },
                    {
                      "internalType": "uint64",
                      "name": "nonce",
                      "type": "uint64"
                    },
                    {
                      "internalType": "bytes4",
                      "name": "method",
                      "type": "bytes4"
                    },
                    {
                      "internalType": "bytes",
                      "name": "params",
                      "type": "bytes"
                    }
                  ],
                  "internalType": "struct StorableMsg",
                  "name": "message",
                  "type": "tuple"
                },
                {
                  "internalType": "bool",
                  "name": "wrapped",
                  "type": "bool"
                }
              ],
              "internalType": "struct CrossMsg[]",
              "name": "topDownMsgs",
              "type": "tuple[]"
            }
          ],
          "internalType": "struct Subnet",
          "name": "",
          "type": "tuple"
        }
      ],
      "stateMutability": "view",
      "type": "function"
    },
    {
      "inputs": [
        {
          "components": [
            {
              "internalType": "uint64",
              "name": "root",
              "type": "uint64"
            },
            {
              "internalType": "address[]",
              "name": "route",
              "type": "address[]"
            }
          ],
          "internalType": "struct SubnetID",
          "name": "subnetId",
          "type": "tuple"
        },
        {
          "internalType": "uint256",
          "name": "index",
          "type": "uint256"
        }
      ],
      "name": "getSubnetTopDownMsg",
      "outputs": [
        {
          "components": [
            {
              "components": [
                {
                  "components": [
                    {
                      "components": [
                        {
                          "internalType": "uint64",
                          "name": "root",
                          "type": "uint64"
                        },
                        {
                          "internalType": "address[]",
                          "name": "route",
                          "type": "address[]"
                        }
                      ],
                      "internalType": "struct SubnetID",
                      "name": "subnetId",
                      "type": "tuple"
                    },
                    {
                      "components": [
                        {
                          "internalType": "uint8",
                          "name": "addrType",
                          "type": "uint8"
                        },
                        {
                          "internalType": "bytes",
                          "name": "payload",
                          "type": "bytes"
                        }
                      ],
                      "internalType": "struct FvmAddress",
                      "name": "rawAddress",
                      "type": "tuple"
                    }
                  ],
                  "internalType": "struct IPCAddress",
                  "name": "from",
                  "type": "tuple"
                },
                {
                  "components": [
                    {
                      "components": [
                        {
                          "internalType": "uint64",
                          "name": "root",
                          "type": "uint64"
                        },
                        {
                          "internalType": "address[]",
                          "name": "route",
                          "type": "address[]"
                        }
                      ],
                      "internalType": "struct SubnetID",
                      "name": "subnetId",
                      "type": "tuple"
                    },
                    {
                      "components": [
                        {
                          "internalType": "uint8",
                          "name": "addrType",
                          "type": "uint8"
                        },
                        {
                          "internalType": "bytes",
                          "name": "payload",
                          "type": "bytes"
                        }
                      ],
                      "internalType": "struct FvmAddress",
                      "name": "rawAddress",
                      "type": "tuple"
                    }
                  ],
                  "internalType": "struct IPCAddress",
                  "name": "to",
                  "type": "tuple"
                },
                {
                  "internalType": "uint256",
                  "name": "value",
                  "type": "uint256"
                },
                {
                  "internalType": "uint64",
                  "name": "nonce",
                  "type": "uint64"
                },
                {
                  "internalType": "bytes4",
                  "name": "method",
                  "type": "bytes4"
                },
                {
                  "internalType": "bytes",
                  "name": "params",
                  "type": "bytes"
                }
              ],
              "internalType": "struct StorableMsg",
              "name": "message",
              "type": "tuple"
            },
            {
              "internalType": "bool",
              "name": "wrapped",
              "type": "bool"
            }
          ],
          "internalType": "struct CrossMsg",
          "name": "",
          "type": "tuple"
        }
      ],
      "stateMutability": "view",
      "type": "function"
    },
    {
      "inputs": [
        {
          "components": [
            {
              "internalType": "uint64",
              "name": "root",
              "type": "uint64"
            },
            {
              "internalType": "address[]",
              "name": "route",
              "type": "address[]"
            }
          ],
          "internalType": "struct SubnetID",
          "name": "subnetId",
          "type": "tuple"
        }
      ],
      "name": "getSubnetTopDownMsgsLength",
      "outputs": [
        {
          "internalType": "uint256",
          "name": "",
          "type": "uint256"
        }
      ],
      "stateMutability": "view",
      "type": "function"
    },
    {
      "inputs": [
        {
          "components": [
            {
              "internalType": "uint64",
              "name": "root",
              "type": "uint64"
            },
            {
              "internalType": "address[]",
              "name": "route",
              "type": "address[]"
            }
          ],
          "internalType": "struct SubnetID",
          "name": "subnetId",
          "type": "tuple"
        },
        {
          "internalType": "uint64",
          "name": "fromNonce",
          "type": "uint64"
        }
      ],
      "name": "getTopDownMsgs",
      "outputs": [
        {
          "components": [
            {
              "components": [
                {
                  "components": [
                    {
                      "components": [
                        {
                          "internalType": "uint64",
                          "name": "root",
                          "type": "uint64"
                        },
                        {
                          "internalType": "address[]",
                          "name": "route",
                          "type": "address[]"
                        }
                      ],
                      "internalType": "struct SubnetID",
                      "name": "subnetId",
                      "type": "tuple"
                    },
                    {
                      "components": [
                        {
                          "internalType": "uint8",
                          "name": "addrType",
                          "type": "uint8"
                        },
                        {
                          "internalType": "bytes",
                          "name": "payload",
                          "type": "bytes"
                        }
                      ],
                      "internalType": "struct FvmAddress",
                      "name": "rawAddress",
                      "type": "tuple"
                    }
                  ],
                  "internalType": "struct IPCAddress",
                  "name": "from",
                  "type": "tuple"
                },
                {
                  "components": [
                    {
                      "components": [
                        {
                          "internalType": "uint64",
                          "name": "root",
                          "type": "uint64"
                        },
                        {
                          "internalType": "address[]",
                          "name": "route",
                          "type": "address[]"
                        }
                      ],
                      "internalType": "struct SubnetID",
                      "name": "subnetId",
                      "type": "tuple"
                    },
                    {
                      "components": [
                        {
                          "internalType": "uint8",
                          "name": "addrType",
                          "type": "uint8"
                        },
                        {
                          "internalType": "bytes",
                          "name": "payload",
                          "type": "bytes"
                        }
                      ],
                      "internalType": "struct FvmAddress",
                      "name": "rawAddress",
                      "type": "tuple"
                    }
                  ],
                  "internalType": "struct IPCAddress",
                  "name": "to",
                  "type": "tuple"
                },
                {
                  "internalType": "uint256",
                  "name": "value",
                  "type": "uint256"
                },
                {
                  "internalType": "uint64",
                  "name": "nonce",
                  "type": "uint64"
                },
                {
                  "internalType": "bytes4",
                  "name": "method",
                  "type": "bytes4"
                },
                {
                  "internalType": "bytes",
                  "name": "params",
                  "type": "bytes"
                }
              ],
              "internalType": "struct StorableMsg",
              "name": "message",
              "type": "tuple"
            },
            {
              "internalType": "bool",
              "name": "wrapped",
              "type": "bool"
            }
          ],
          "internalType": "struct CrossMsg[]",
          "name": "",
          "type": "tuple[]"
        }
      ],
      "stateMutability": "view",
      "type": "function"
    },
    {
      "inputs": [
        {
          "internalType": "uint64",
          "name": "epoch",
          "type": "uint64"
        },
        {
          "internalType": "address",
          "name": "submitter",
          "type": "address"
        }
      ],
      "name": "hasValidatorVotedForSubmission",
      "outputs": [
        {
          "internalType": "bool",
          "name": "",
          "type": "bool"
        }
      ],
      "stateMutability": "view",
      "type": "function"
    },
    {
      "inputs": [
        {
          "internalType": "uint64",
          "name": "genesisEpoch",
          "type": "uint64"
        }
      ],
      "name": "initGenesisEpoch",
      "outputs": [],
      "stateMutability": "nonpayable",
      "type": "function"
    },
    {
      "inputs": [],
      "name": "initialized",
      "outputs": [
        {
          "internalType": "bool",
          "name": "",
          "type": "bool"
        }
      ],
      "stateMutability": "view",
      "type": "function"
    },
    {
      "inputs": [],
      "name": "kill",
      "outputs": [],
      "stateMutability": "nonpayable",
      "type": "function"
    },
    {
      "inputs": [],
      "name": "lastVotingExecutedEpoch",
      "outputs": [
        {
          "internalType": "uint64",
          "name": "",
          "type": "uint64"
        }
      ],
      "stateMutability": "view",
      "type": "function"
    },
    {
      "inputs": [],
      "name": "listSubnets",
      "outputs": [
        {
          "components": [
            {
              "internalType": "enum Status",
              "name": "status",
              "type": "uint8"
            },
            {
              "internalType": "uint64",
              "name": "topDownNonce",
              "type": "uint64"
            },
            {
              "internalType": "uint64",
              "name": "appliedBottomUpNonce",
              "type": "uint64"
            },
            {
              "internalType": "uint256",
              "name": "stake",
              "type": "uint256"
            },
            {
              "internalType": "uint256",
              "name": "genesisEpoch",
              "type": "uint256"
            },
            {
              "internalType": "uint256",
              "name": "circSupply",
              "type": "uint256"
            },
            {
              "components": [
                {
                  "internalType": "uint64",
                  "name": "root",
                  "type": "uint64"
                },
                {
                  "internalType": "address[]",
                  "name": "route",
                  "type": "address[]"
                }
              ],
              "internalType": "struct SubnetID",
              "name": "id",
              "type": "tuple"
            },
            {
              "components": [
                {
                  "components": [
                    {
                      "internalType": "uint64",
                      "name": "root",
                      "type": "uint64"
                    },
                    {
                      "internalType": "address[]",
                      "name": "route",
                      "type": "address[]"
                    }
                  ],
                  "internalType": "struct SubnetID",
                  "name": "source",
                  "type": "tuple"
                },
                {
                  "internalType": "uint64",
                  "name": "epoch",
                  "type": "uint64"
                },
                {
                  "internalType": "uint256",
                  "name": "fee",
                  "type": "uint256"
                },
                {
                  "components": [
                    {
                      "components": [
                        {
                          "components": [
                            {
                              "components": [
                                {
                                  "internalType": "uint64",
                                  "name": "root",
                                  "type": "uint64"
                                },
                                {
                                  "internalType": "address[]",
                                  "name": "route",
                                  "type": "address[]"
                                }
                              ],
                              "internalType": "struct SubnetID",
                              "name": "subnetId",
                              "type": "tuple"
                            },
                            {
                              "components": [
                                {
                                  "internalType": "uint8",
                                  "name": "addrType",
                                  "type": "uint8"
                                },
                                {
                                  "internalType": "bytes",
                                  "name": "payload",
                                  "type": "bytes"
                                }
                              ],
                              "internalType": "struct FvmAddress",
                              "name": "rawAddress",
                              "type": "tuple"
                            }
                          ],
                          "internalType": "struct IPCAddress",
                          "name": "from",
                          "type": "tuple"
                        },
                        {
                          "components": [
                            {
                              "components": [
                                {
                                  "internalType": "uint64",
                                  "name": "root",
                                  "type": "uint64"
                                },
                                {
                                  "internalType": "address[]",
                                  "name": "route",
                                  "type": "address[]"
                                }
                              ],
                              "internalType": "struct SubnetID",
                              "name": "subnetId",
                              "type": "tuple"
                            },
                            {
                              "components": [
                                {
                                  "internalType": "uint8",
                                  "name": "addrType",
                                  "type": "uint8"
                                },
                                {
                                  "internalType": "bytes",
                                  "name": "payload",
                                  "type": "bytes"
                                }
                              ],
                              "internalType": "struct FvmAddress",
                              "name": "rawAddress",
                              "type": "tuple"
                            }
                          ],
                          "internalType": "struct IPCAddress",
                          "name": "to",
                          "type": "tuple"
                        },
                        {
                          "internalType": "uint256",
                          "name": "value",
                          "type": "uint256"
                        },
                        {
                          "internalType": "uint64",
                          "name": "nonce",
                          "type": "uint64"
                        },
                        {
                          "internalType": "bytes4",
                          "name": "method",
                          "type": "bytes4"
                        },
                        {
                          "internalType": "bytes",
                          "name": "params",
                          "type": "bytes"
                        }
                      ],
                      "internalType": "struct StorableMsg",
                      "name": "message",
                      "type": "tuple"
                    },
                    {
                      "internalType": "bool",
                      "name": "wrapped",
                      "type": "bool"
                    }
                  ],
                  "internalType": "struct CrossMsg[]",
                  "name": "crossMsgs",
                  "type": "tuple[]"
                },
                {
                  "components": [
                    {
                      "components": [
                        {
                          "internalType": "uint64",
                          "name": "root",
                          "type": "uint64"
                        },
                        {
                          "internalType": "address[]",
                          "name": "route",
                          "type": "address[]"
                        }
                      ],
                      "internalType": "struct SubnetID",
                      "name": "source",
                      "type": "tuple"
                    },
                    {
                      "internalType": "bytes32[]",
                      "name": "checks",
                      "type": "bytes32[]"
                    }
                  ],
                  "internalType": "struct ChildCheck[]",
                  "name": "children",
                  "type": "tuple[]"
                },
                {
                  "internalType": "bytes32",
                  "name": "prevHash",
                  "type": "bytes32"
                },
                {
                  "internalType": "bytes",
                  "name": "proof",
                  "type": "bytes"
                }
              ],
              "internalType": "struct BottomUpCheckpoint",
              "name": "prevCheckpoint",
              "type": "tuple"
            },
            {
              "components": [
                {
                  "components": [
                    {
                      "components": [
                        {
                          "components": [
                            {
                              "internalType": "uint64",
                              "name": "root",
                              "type": "uint64"
                            },
                            {
                              "internalType": "address[]",
                              "name": "route",
                              "type": "address[]"
                            }
                          ],
                          "internalType": "struct SubnetID",
                          "name": "subnetId",
                          "type": "tuple"
                        },
                        {
                          "components": [
                            {
                              "internalType": "uint8",
                              "name": "addrType",
                              "type": "uint8"
                            },
                            {
                              "internalType": "bytes",
                              "name": "payload",
                              "type": "bytes"
                            }
                          ],
                          "internalType": "struct FvmAddress",
                          "name": "rawAddress",
                          "type": "tuple"
                        }
                      ],
                      "internalType": "struct IPCAddress",
                      "name": "from",
                      "type": "tuple"
                    },
                    {
                      "components": [
                        {
                          "components": [
                            {
                              "internalType": "uint64",
                              "name": "root",
                              "type": "uint64"
                            },
                            {
                              "internalType": "address[]",
                              "name": "route",
                              "type": "address[]"
                            }
                          ],
                          "internalType": "struct SubnetID",
                          "name": "subnetId",
                          "type": "tuple"
                        },
                        {
                          "components": [
                            {
                              "internalType": "uint8",
                              "name": "addrType",
                              "type": "uint8"
                            },
                            {
                              "internalType": "bytes",
                              "name": "payload",
                              "type": "bytes"
                            }
                          ],
                          "internalType": "struct FvmAddress",
                          "name": "rawAddress",
                          "type": "tuple"
                        }
                      ],
                      "internalType": "struct IPCAddress",
                      "name": "to",
                      "type": "tuple"
                    },
                    {
                      "internalType": "uint256",
                      "name": "value",
                      "type": "uint256"
                    },
                    {
                      "internalType": "uint64",
                      "name": "nonce",
                      "type": "uint64"
                    },
                    {
                      "internalType": "bytes4",
                      "name": "method",
                      "type": "bytes4"
                    },
                    {
                      "internalType": "bytes",
                      "name": "params",
                      "type": "bytes"
                    }
                  ],
                  "internalType": "struct StorableMsg",
                  "name": "message",
                  "type": "tuple"
                },
                {
                  "internalType": "bool",
                  "name": "wrapped",
                  "type": "bool"
                }
              ],
              "internalType": "struct CrossMsg[]",
              "name": "topDownMsgs",
              "type": "tuple[]"
            }
          ],
          "internalType": "struct Subnet[]",
          "name": "",
          "type": "tuple[]"
        }
      ],
      "stateMutability": "view",
      "type": "function"
    },
    {
      "inputs": [],
      "name": "majorityPercentage",
      "outputs": [
        {
          "internalType": "uint8",
          "name": "",
          "type": "uint8"
        }
      ],
      "stateMutability": "view",
      "type": "function"
    },
    {
      "inputs": [],
      "name": "minStake",
      "outputs": [
        {
          "internalType": "uint256",
          "name": "",
          "type": "uint256"
        }
      ],
      "stateMutability": "view",
      "type": "function"
    },
    {
      "inputs": [
        {
          "internalType": "bytes32",
          "name": "",
          "type": "bytes32"
        }
      ],
      "name": "postbox",
      "outputs": [
        {
          "components": [
            {
              "components": [
                {
                  "components": [
                    {
                      "internalType": "uint64",
                      "name": "root",
                      "type": "uint64"
                    },
                    {
                      "internalType": "address[]",
                      "name": "route",
                      "type": "address[]"
                    }
                  ],
                  "internalType": "struct SubnetID",
                  "name": "subnetId",
                  "type": "tuple"
                },
                {
                  "components": [
                    {
                      "internalType": "uint8",
                      "name": "addrType",
                      "type": "uint8"
                    },
                    {
                      "internalType": "bytes",
                      "name": "payload",
                      "type": "bytes"
                    }
                  ],
                  "internalType": "struct FvmAddress",
                  "name": "rawAddress",
                  "type": "tuple"
                }
              ],
              "internalType": "struct IPCAddress",
              "name": "from",
              "type": "tuple"
            },
            {
              "components": [
                {
                  "components": [
                    {
                      "internalType": "uint64",
                      "name": "root",
                      "type": "uint64"
                    },
                    {
                      "internalType": "address[]",
                      "name": "route",
                      "type": "address[]"
                    }
                  ],
                  "internalType": "struct SubnetID",
                  "name": "subnetId",
                  "type": "tuple"
                },
                {
                  "components": [
                    {
                      "internalType": "uint8",
                      "name": "addrType",
                      "type": "uint8"
                    },
                    {
                      "internalType": "bytes",
                      "name": "payload",
                      "type": "bytes"
                    }
                  ],
                  "internalType": "struct FvmAddress",
                  "name": "rawAddress",
                  "type": "tuple"
                }
              ],
              "internalType": "struct IPCAddress",
              "name": "to",
              "type": "tuple"
            },
            {
              "internalType": "uint256",
              "name": "value",
              "type": "uint256"
            },
            {
              "internalType": "uint64",
              "name": "nonce",
              "type": "uint64"
            },
            {
              "internalType": "bytes4",
              "name": "method",
              "type": "bytes4"
            },
            {
              "internalType": "bytes",
              "name": "params",
              "type": "bytes"
            }
          ],
          "internalType": "struct StorableMsg",
          "name": "message",
          "type": "tuple"
        },
        {
          "internalType": "bool",
          "name": "wrapped",
          "type": "bool"
        }
      ],
      "stateMutability": "view",
      "type": "function"
    },
    {
      "inputs": [
        {
          "internalType": "bytes32",
          "name": "msgCid",
          "type": "bytes32"
        }
      ],
      "name": "propagate",
      "outputs": [],
      "stateMutability": "payable",
      "type": "function"
    },
    {
      "inputs": [],
      "name": "register",
      "outputs": [],
      "stateMutability": "payable",
      "type": "function"
    },
    {
      "inputs": [
        {
          "components": [
            {
              "internalType": "uint8",
              "name": "addrType",
              "type": "uint8"
            },
            {
              "internalType": "bytes",
              "name": "payload",
              "type": "bytes"
            }
          ],
          "internalType": "struct FvmAddress",
          "name": "to",
          "type": "tuple"
        }
      ],
      "name": "release",
      "outputs": [],
      "stateMutability": "payable",
      "type": "function"
    },
    {
      "inputs": [
        {
          "internalType": "uint256",
          "name": "amount",
          "type": "uint256"
        }
      ],
      "name": "releaseRewards",
      "outputs": [],
      "stateMutability": "nonpayable",
      "type": "function"
    },
    {
      "inputs": [
        {
          "internalType": "uint256",
          "name": "amount",
          "type": "uint256"
        }
      ],
      "name": "releaseStake",
      "outputs": [],
      "stateMutability": "nonpayable",
      "type": "function"
    },
    {
      "inputs": [
        {
          "components": [
            {
              "components": [
                {
                  "components": [
                    {
                      "components": [
                        {
                          "internalType": "uint64",
                          "name": "root",
                          "type": "uint64"
                        },
                        {
                          "internalType": "address[]",
                          "name": "route",
                          "type": "address[]"
                        }
                      ],
                      "internalType": "struct SubnetID",
                      "name": "subnetId",
                      "type": "tuple"
                    },
                    {
                      "components": [
                        {
                          "internalType": "uint8",
                          "name": "addrType",
                          "type": "uint8"
                        },
                        {
                          "internalType": "bytes",
                          "name": "payload",
                          "type": "bytes"
                        }
                      ],
                      "internalType": "struct FvmAddress",
                      "name": "rawAddress",
                      "type": "tuple"
                    }
                  ],
                  "internalType": "struct IPCAddress",
                  "name": "from",
                  "type": "tuple"
                },
                {
                  "components": [
                    {
                      "components": [
                        {
                          "internalType": "uint64",
                          "name": "root",
                          "type": "uint64"
                        },
                        {
                          "internalType": "address[]",
                          "name": "route",
                          "type": "address[]"
                        }
                      ],
                      "internalType": "struct SubnetID",
                      "name": "subnetId",
                      "type": "tuple"
                    },
                    {
                      "components": [
                        {
                          "internalType": "uint8",
                          "name": "addrType",
                          "type": "uint8"
                        },
                        {
                          "internalType": "bytes",
                          "name": "payload",
                          "type": "bytes"
                        }
                      ],
                      "internalType": "struct FvmAddress",
                      "name": "rawAddress",
                      "type": "tuple"
                    }
                  ],
                  "internalType": "struct IPCAddress",
                  "name": "to",
                  "type": "tuple"
                },
                {
                  "internalType": "uint256",
                  "name": "value",
                  "type": "uint256"
                },
                {
                  "internalType": "uint64",
                  "name": "nonce",
                  "type": "uint64"
                },
                {
                  "internalType": "bytes4",
                  "name": "method",
                  "type": "bytes4"
                },
                {
                  "internalType": "bytes",
                  "name": "params",
                  "type": "bytes"
                }
              ],
              "internalType": "struct StorableMsg",
              "name": "message",
              "type": "tuple"
            },
            {
              "internalType": "bool",
              "name": "wrapped",
              "type": "bool"
            }
          ],
          "internalType": "struct CrossMsg",
          "name": "crossMsg",
          "type": "tuple"
        }
      ],
      "name": "sendCrossMessage",
      "outputs": [],
      "stateMutability": "payable",
      "type": "function"
    },
    {
      "inputs": [
        {
          "internalType": "address[]",
          "name": "validators",
          "type": "address[]"
        },
        {
          "internalType": "uint256[]",
          "name": "weights",
          "type": "uint256[]"
        }
      ],
      "name": "setMembership",
      "outputs": [],
      "stateMutability": "nonpayable",
      "type": "function"
    },
    {
      "inputs": [],
      "name": "submissionPeriod",
      "outputs": [
        {
          "internalType": "uint64",
          "name": "",
          "type": "uint64"
        }
      ],
      "stateMutability": "view",
      "type": "function"
    },
    {
      "inputs": [
        {
          "components": [
            {
              "internalType": "uint64",
              "name": "epoch",
              "type": "uint64"
            },
            {
              "components": [
                {
                  "components": [
                    {
                      "components": [
                        {
                          "components": [
                            {
                              "internalType": "uint64",
                              "name": "root",
                              "type": "uint64"
                            },
                            {
                              "internalType": "address[]",
                              "name": "route",
                              "type": "address[]"
                            }
                          ],
                          "internalType": "struct SubnetID",
                          "name": "subnetId",
                          "type": "tuple"
                        },
                        {
                          "components": [
                            {
                              "internalType": "uint8",
                              "name": "addrType",
                              "type": "uint8"
                            },
                            {
                              "internalType": "bytes",
                              "name": "payload",
                              "type": "bytes"
                            }
                          ],
                          "internalType": "struct FvmAddress",
                          "name": "rawAddress",
                          "type": "tuple"
                        }
                      ],
                      "internalType": "struct IPCAddress",
                      "name": "from",
                      "type": "tuple"
                    },
                    {
                      "components": [
                        {
                          "components": [
                            {
                              "internalType": "uint64",
                              "name": "root",
                              "type": "uint64"
                            },
                            {
                              "internalType": "address[]",
                              "name": "route",
                              "type": "address[]"
                            }
                          ],
                          "internalType": "struct SubnetID",
                          "name": "subnetId",
                          "type": "tuple"
                        },
                        {
                          "components": [
                            {
                              "internalType": "uint8",
                              "name": "addrType",
                              "type": "uint8"
                            },
                            {
                              "internalType": "bytes",
                              "name": "payload",
                              "type": "bytes"
                            }
                          ],
                          "internalType": "struct FvmAddress",
                          "name": "rawAddress",
                          "type": "tuple"
                        }
                      ],
                      "internalType": "struct IPCAddress",
                      "name": "to",
                      "type": "tuple"
                    },
                    {
                      "internalType": "uint256",
                      "name": "value",
                      "type": "uint256"
                    },
                    {
                      "internalType": "uint64",
                      "name": "nonce",
                      "type": "uint64"
                    },
                    {
                      "internalType": "bytes4",
                      "name": "method",
                      "type": "bytes4"
                    },
                    {
                      "internalType": "bytes",
                      "name": "params",
                      "type": "bytes"
                    }
                  ],
                  "internalType": "struct StorableMsg",
                  "name": "message",
                  "type": "tuple"
                },
                {
                  "internalType": "bool",
                  "name": "wrapped",
                  "type": "bool"
                }
              ],
              "internalType": "struct CrossMsg[]",
              "name": "topDownMsgs",
              "type": "tuple[]"
            }
          ],
          "internalType": "struct TopDownCheckpoint",
          "name": "checkpoint",
          "type": "tuple"
        }
      ],
      "name": "submitTopDownCheckpoint",
      "outputs": [],
      "stateMutability": "nonpayable",
      "type": "function"
    },
    {
      "inputs": [
        {
          "internalType": "uint256",
          "name": "",
          "type": "uint256"
        }
      ],
      "name": "subnetKeys",
      "outputs": [
        {
          "internalType": "bytes32",
          "name": "",
          "type": "bytes32"
        }
      ],
      "stateMutability": "view",
      "type": "function"
    },
    {
      "inputs": [
        {
          "internalType": "bytes32",
          "name": "",
          "type": "bytes32"
        }
      ],
      "name": "subnets",
      "outputs": [
        {
          "internalType": "enum Status",
          "name": "status",
          "type": "uint8"
        },
        {
          "internalType": "uint64",
          "name": "topDownNonce",
          "type": "uint64"
        },
        {
          "internalType": "uint64",
          "name": "appliedBottomUpNonce",
          "type": "uint64"
        },
        {
          "internalType": "uint256",
          "name": "stake",
          "type": "uint256"
        },
        {
          "internalType": "uint256",
          "name": "genesisEpoch",
          "type": "uint256"
        },
        {
          "internalType": "uint256",
          "name": "circSupply",
          "type": "uint256"
        },
        {
          "components": [
            {
              "internalType": "uint64",
              "name": "root",
              "type": "uint64"
            },
            {
              "internalType": "address[]",
              "name": "route",
              "type": "address[]"
            }
          ],
          "internalType": "struct SubnetID",
          "name": "id",
          "type": "tuple"
        },
        {
          "components": [
            {
              "components": [
                {
                  "internalType": "uint64",
                  "name": "root",
                  "type": "uint64"
                },
                {
                  "internalType": "address[]",
                  "name": "route",
                  "type": "address[]"
                }
              ],
              "internalType": "struct SubnetID",
              "name": "source",
              "type": "tuple"
            },
            {
              "internalType": "uint64",
              "name": "epoch",
              "type": "uint64"
            },
            {
              "internalType": "uint256",
              "name": "fee",
              "type": "uint256"
            },
            {
              "components": [
                {
                  "components": [
                    {
                      "components": [
                        {
                          "components": [
                            {
                              "internalType": "uint64",
                              "name": "root",
                              "type": "uint64"
                            },
                            {
                              "internalType": "address[]",
                              "name": "route",
                              "type": "address[]"
                            }
                          ],
                          "internalType": "struct SubnetID",
                          "name": "subnetId",
                          "type": "tuple"
                        },
                        {
                          "components": [
                            {
                              "internalType": "uint8",
                              "name": "addrType",
                              "type": "uint8"
                            },
                            {
                              "internalType": "bytes",
                              "name": "payload",
                              "type": "bytes"
                            }
                          ],
                          "internalType": "struct FvmAddress",
                          "name": "rawAddress",
                          "type": "tuple"
                        }
                      ],
                      "internalType": "struct IPCAddress",
                      "name": "from",
                      "type": "tuple"
                    },
                    {
                      "components": [
                        {
                          "components": [
                            {
                              "internalType": "uint64",
                              "name": "root",
                              "type": "uint64"
                            },
                            {
                              "internalType": "address[]",
                              "name": "route",
                              "type": "address[]"
                            }
                          ],
                          "internalType": "struct SubnetID",
                          "name": "subnetId",
                          "type": "tuple"
                        },
                        {
                          "components": [
                            {
                              "internalType": "uint8",
                              "name": "addrType",
                              "type": "uint8"
                            },
                            {
                              "internalType": "bytes",
                              "name": "payload",
                              "type": "bytes"
                            }
                          ],
                          "internalType": "struct FvmAddress",
                          "name": "rawAddress",
                          "type": "tuple"
                        }
                      ],
                      "internalType": "struct IPCAddress",
                      "name": "to",
                      "type": "tuple"
                    },
                    {
                      "internalType": "uint256",
                      "name": "value",
                      "type": "uint256"
                    },
                    {
                      "internalType": "uint64",
                      "name": "nonce",
                      "type": "uint64"
                    },
                    {
                      "internalType": "bytes4",
                      "name": "method",
                      "type": "bytes4"
                    },
                    {
                      "internalType": "bytes",
                      "name": "params",
                      "type": "bytes"
                    }
                  ],
                  "internalType": "struct StorableMsg",
                  "name": "message",
                  "type": "tuple"
                },
                {
                  "internalType": "bool",
                  "name": "wrapped",
                  "type": "bool"
                }
              ],
              "internalType": "struct CrossMsg[]",
              "name": "crossMsgs",
              "type": "tuple[]"
            },
            {
              "components": [
                {
                  "components": [
                    {
                      "internalType": "uint64",
                      "name": "root",
                      "type": "uint64"
                    },
                    {
                      "internalType": "address[]",
                      "name": "route",
                      "type": "address[]"
                    }
                  ],
                  "internalType": "struct SubnetID",
                  "name": "source",
                  "type": "tuple"
                },
                {
                  "internalType": "bytes32[]",
                  "name": "checks",
                  "type": "bytes32[]"
                }
              ],
              "internalType": "struct ChildCheck[]",
              "name": "children",
              "type": "tuple[]"
            },
            {
              "internalType": "bytes32",
              "name": "prevHash",
              "type": "bytes32"
            },
            {
              "internalType": "bytes",
              "name": "proof",
              "type": "bytes"
            }
          ],
          "internalType": "struct BottomUpCheckpoint",
          "name": "prevCheckpoint",
          "type": "tuple"
        }
      ],
      "stateMutability": "view",
      "type": "function"
    },
    {
      "inputs": [],
      "name": "topDownCheckPeriod",
      "outputs": [
        {
          "internalType": "uint64",
          "name": "",
          "type": "uint64"
        }
      ],
      "stateMutability": "view",
      "type": "function"
    },
    {
      "inputs": [],
      "name": "totalSubnets",
      "outputs": [
        {
          "internalType": "uint64",
          "name": "",
          "type": "uint64"
        }
      ],
      "stateMutability": "view",
      "type": "function"
    },
    {
      "inputs": [],
      "name": "totalWeight",
      "outputs": [
        {
          "internalType": "uint256",
          "name": "",
          "type": "uint256"
        }
      ],
      "stateMutability": "view",
      "type": "function"
    },
    {
      "inputs": [],
      "name": "validatorNonce",
      "outputs": [
        {
          "internalType": "uint256",
          "name": "",
          "type": "uint256"
        }
      ],
      "stateMutability": "view",
      "type": "function"
    },
    {
      "inputs": [
        {
          "internalType": "uint256",
          "name": "",
          "type": "uint256"
        },
        {
          "internalType": "address",
          "name": "",
          "type": "address"
        }
      ],
      "name": "validatorSet",
      "outputs": [
        {
          "internalType": "uint256",
          "name": "",
          "type": "uint256"
        }
      ],
      "stateMutability": "view",
      "type": "function"
    }
  ],
  "bytecode": {
    "object": "0x6101406040523480156200001257600080fd5b506040516200b98f3803806200b98f8339810160408190526200003591620003b2565b608081015160408201516001600055606460ff831611156200006a576040516375c3b42760e01b815260040160405180910390fd5b60ff8216608052600a6001600160401b038216106200008a57806200008d565b600a5b6001600160401b0390811660a0819052600280546001600160401b0319908116909217905584518051600480549190941692169190911782556020808201518051929550929350620000e59260059291019062000269565b5050670de0b6b3a764000060c052506020810151600a6001600160401b0390911610620001175780602001516200011a565b600a5b6001600160401b0390811660e0526040820151600a9116106200014257806040015162000145565b600a5b6001600160401b039081166101005260608201516101205260408051808201825260048054909316815260058054835160208281028201810190955281815292949380860193929190830182828015620001c957602002820191906000526020600020905b81546001600160a01b03168152600190910190602001808311620001aa575b5050509190925250506040516310c5511f60e31b815273__$a0fe38a9a81205afccc10810b09a4d3f45$__9263862a88f892506200020a9160040162000530565b602060405180830381865af415801562000228573d6000803e3d6000fd5b505050506040513d601f19601f820116820180604052508101906200024e91906200059c565b1562000262576011805460ff191660011790555b50620005c7565b828054828255906000526020600020908101928215620002c1579160200282015b82811115620002c157825182546001600160a01b0319166001600160a01b039091161782556020909201916001909101906200028a565b50620002cf929150620002d3565b5090565b5b80821115620002cf5760008155600101620002d4565b634e487b7160e01b600052604160045260246000fd5b60405160a081016001600160401b0381118282101715620003255762000325620002ea565b60405290565b604080519081016001600160401b0381118282101715620003255762000325620002ea565b604051601f8201601f191681016001600160401b03811182821017156200037b576200037b620002ea565b604052919050565b80516001600160401b03811681146200039b57600080fd5b919050565b805160ff811681146200039b57600080fd5b60006020808385031215620003c657600080fd5b82516001600160401b0380821115620003de57600080fd5b9084019060a08287031215620003f357600080fd5b620003fd62000300565b8251828111156200040d57600080fd5b8301604081890312156200042057600080fd5b6200042a6200032b565b620004358262000383565b815285820151848111156200044957600080fd5b80830192505088601f8301126200045f57600080fd5b815184811115620004745762000474620002ea565b8060051b94506200048787860162000350565b818152948301870194878101908b871115620004a257600080fd5b938801935b86851015620004dc57845192506001600160a01b0383168314620004cb5760008081fd5b8282529388019390880190620004a7565b838901525050825250620004f283850162000383565b84820152620005046040840162000383565b6040820152606083015160608201526200052160808401620003a0565b60808201529695505050505050565b602080825282516001600160401b0316828201528281015160408084015280516060840181905260009291820190839060808601905b80831015620005915783516001600160a01b0316825292840192600192909201919084019062000566565b509695505050505050565b600060208284031215620005af57600080fd5b81518015158114620005c057600080fd5b9392505050565b60805160a05160c05160e051610100516101205161b31d620006726000396000818161047401528181611a3b01528181611b54015281816123a20152818161385e0152818161677001526170f5015260006106db01526000818161025601526179fd0152600081816104ff01528181611b7f01528181612a030152612bf30152600081816103df0152818161737a0152617efa0152600081816105cd015261858b015261b31d6000f3fe6080604052600436106102025760003560e01c806302e30f9a1461020757806306c46853146102445780630ea746f21461029057806310d500e1146102bd578063133f74ea1461031d578063135493151461035457806313f3538814610381578063158ef93e146103a3578063185fde7e146103cd57806318f44b70146104015780631aa3a00814610414578063223d90561461041c578063247294251461046257806325bf0db6146104965780632cc14ea2146104a95780632f757dd1146104da578063375b3c0a146104ed57806341b6a2e81461052157806341c0e1b51461054157806345f544851461055657806351392fc014610576578063548b3b381461059b578063599c7bd1146105bb5780635a627dbc146106015780635d0296851461060957806366d7bbbc1461062b5780636b2c1eef146106885780636cb2ecee1461069b5780637d9740f4146106c95780638789f83b146106fd5780638cfd78e71461072457806391be4d411461075257806394074b031461076e57806396c82e5714610790578063986acf38146107a65780639d3070b5146107c65780639e530b57146107e6578063a1ada30314610825578063a2b671581461083a578063ad81e2441461085a578063c66c66a11461087a578063d4e149a8146108a8578063e17a684f146108c8578063f75bc557146108de578063f8703bb8146108fe575b600080fd5b34801561021357600080fd5b50610227610222366004618b4b565b61091e565b60405161023b989796959493929190618ead565b60405180910390f35b34801561025057600080fd5b506102787f000000000000000000000000000000000000000000000000000000000000000081565b6040516001600160401b03909116815260200161023b565b34801561029c57600080fd5b506102b06102ab3660046190ce565b61104c565b60405161023b9190619112565b3480156102c957600080fd5b506002546102f3906001600160401b0380821691600160401b8104821691600160801b9091041683565b604080516001600160401b039485168152928416602084015292169181019190915260600161023b565b34801561032957600080fd5b5061033d610338366004619125565b611409565b60408051921515835260208301919091520161023b565b34801561036057600080fd5b5061037461036f36600461915a565b6114a2565b60405161023b91906191ab565b34801561038d57600080fd5b506103a161039c366004619125565b6119a3565b005b3480156103af57600080fd5b506011546103bd9060ff1681565b604051901515815260200161023b565b3480156103d957600080fd5b506102787f000000000000000000000000000000000000000000000000000000000000000081565b6103a161040f3660046191be565b611a07565b6103a1611b7d565b34801561042857600080fd5b50610454610437366004619221565b600d60209081526000928352604080842090915290825290205481565b60405190815260200161023b565b34801561046e57600080fd5b506104547f000000000000000000000000000000000000000000000000000000000000000081565b6103a16104a4366004618b4b565b611e19565b3480156104b557600080fd5b506104c96104c4366004619125565b6123e2565b60405161023b959493929190619246565b6103a16104e8366004619294565b61251f565b3480156104f957600080fd5b506104547f000000000000000000000000000000000000000000000000000000000000000081565b34801561052d57600080fd5b50600b54610278906001600160401b031681565b34801561054d57600080fd5b506103a16126f2565b34801561056257600080fd5b506103a1610571366004618b4b565b612967565b34801561058257600080fd5b50600154600160401b90046001600160401b0316610278565b3480156105a757600080fd5b506104546105b6366004618b4b565b612b4a565b3480156105c757600080fd5b506105ef7f000000000000000000000000000000000000000000000000000000000000000081565b60405160ff909116815260200161023b565b6103a1612b6b565b34801561061557600080fd5b5061061e612c2c565b60405161023b9190619382565b34801561063757600080fd5b506103bd6106463660046193e4565b6001600160401b03821660009081526012602090815260408083208054845260030182528083206001600160a01b038516845290915290205460ff1692915050565b6103a1610696366004619294565b613829565b3480156106a757600080fd5b506106bb6106b6366004619125565b6138f2565b60405161023b929190619412565b3480156106d557600080fd5b506102787f000000000000000000000000000000000000000000000000000000000000000081565b34801561070957600080fd5b50600b5461027890600160401b90046001600160401b031681565b34801561073057600080fd5b5061074461073f366004618b4b565b613ff6565b60405161023b92919061942d565b34801561075e57600080fd5b50610454670de0b6b3a764000081565b34801561077a57600080fd5b50610783614372565b60405161023b9190619451565b34801561079c57600080fd5b50610454600c5481565b3480156107b257600080fd5b506103a16107c1366004619294565b6143fa565b3480156107d257600080fd5b506104546107e1366004619464565b614d72565b3480156107f257600080fd5b50610806610801366004619294565b614d8a565b6040805192151583526001600160401b0390911660208301520161023b565b34801561083157600080fd5b506105ef600a81565b34801561084657600080fd5b50600654610278906001600160401b031681565b34801561086657600080fd5b50600154610278906001600160401b031681565b34801561088657600080fd5b5061089a610895366004619294565b614dcc565b60405161023b929190619498565b3480156108b457600080fd5b506103a16108c33660046194b3565b615924565b3480156108d457600080fd5b50610454600e5481565b3480156108ea57600080fd5b506103a16108f93660046194ed565b616399565b34801561090a57600080fd5b506103a1610919366004618b4b565b6164a4565b6007602090815260009182526040918290208054600182015460028301546003840154865180880188526004860180546001600160401b0390811683526005880180548b51818c0281018c01909c52808c5260ff89169b6101008a0484169b600160481b909a0490931699979896979596858101939291908301828280156109cf57602002820191906000526020600020905b81546001600160a01b031681526001909101906020018083116109b1575b50505091909252505060408051610120810182526006850180546001600160401b031660e08301908152600787018054855160208281028201810190975281815297989794965092948694929386936101008701939092909190830182828015610a6257602002820191906000526020600020905b81546001600160a01b03168152600190910190602001808311610a44575b50505050508152505081526020016002820160009054906101000a90046001600160401b03166001600160401b03166001600160401b031681526020016003820154815260200160048201805480602002602001604051908101604052809291908181526020016000905b82821015610e6c5760008481526020908190206040805161018081018252600c860290920180546001600160401b031661014084019081526001820180548451818802810188018652818152959693958795860194879486946101008901948794869486936101608d01939091830182828015610b7357602002820191906000526020600020905b81546001600160a01b03168152600190910190602001808311610b55575b5050509190925250505081526040805180820190915260028301805460ff16825260038401805460209485019484019190610bad906195a7565b80601f0160208091040260200160405190810160405280929190818152602001828054610bd9906195a7565b8015610c265780601f10610bfb57610100808354040283529160200191610c26565b820191906000526020600020905b815481529060010190602001808311610c0957829003601f168201915b505050919092525050509052508152604080516080810182526004840180546001600160401b0316828401908152600586018054855160208281028201810190975281815296860196949593948694869360608701939091830182828015610cb757602002820191906000526020600020905b81546001600160a01b03168152600190910190602001808311610c99575b5050509190925250505081526040805180820190915260028301805460ff16825260038401805460209485019484019190610cf1906195a7565b80601f0160208091040260200160405190810160405280929190818152602001828054610d1d906195a7565b8015610d6a5780601f10610d3f57610100808354040283529160200191610d6a565b820191906000526020600020905b815481529060010190602001808311610d4d57829003601f168201915b5050509190925250505090525081526008820154602082015260098201546001600160401b0381166040830152600160401b900460e01b6001600160e01b0319166060820152600a82018054608090920191610dc5906195a7565b80601f0160208091040260200160405190810160405280929190818152602001828054610df1906195a7565b8015610e3e5780601f10610e1357610100808354040283529160200191610e3e565b820191906000526020600020905b815481529060010190602001808311610e2157829003601f168201915b505050919092525050508152600b919091015460ff1615156020918201529082526001929092019101610acd565b50505050815260200160058201805480602002602001604051908101604052809291908181526020016000905b82821015610fa3576000848152602090819020604080516080810182526003860290920180546001600160401b031683830190815260018201805484518188028101880190955280855294959294869492938693606087019390929091830182828015610f2f57602002820191906000526020600020905b81546001600160a01b03168152600190910190602001808311610f11575b505050505081525050815260200160028201805480602002602001604051908101604052809291908181526020018280548015610f8b57602002820191906000526020600020905b815481526020019060010190808311610f77575b50505050508152505081526020019060010190610e99565b50505050815260200160068201548152602001600782018054610fc5906195a7565b80601f0160208091040260200160405190810160405280929190818152602001828054610ff1906195a7565b801561103e5780601f106110135761010080835404028352916020019161103e565b820191906000526020600020905b81548152906001019060200180831161102157829003601f168201915b505050505081525050905088565b611054618762565b600061105f846164fb565b91505080600e018381548110611077576110776195db565b60009182526020918290206040805161018081018252600c90930290910180546001600160401b031661014084019081526001820180548451818802810188018652818152959693958795860194879486946101008901948794869486936101608d0193909183018282801561111657602002820191906000526020600020905b81546001600160a01b031681526001909101906020018083116110f8575b5050509190925250505081526040805180820190915260028301805460ff16825260038401805460209485019484019190611150906195a7565b80601f016020809104026020016040519081016040528092919081815260200182805461117c906195a7565b80156111c95780601f1061119e576101008083540402835291602001916111c9565b820191906000526020600020905b8154815290600101906020018083116111ac57829003601f168201915b505050919092525050509052508152604080516080810182526004840180546001600160401b031682840190815260058601805485516020828102820181019097528181529686019694959394869486936060870193909183018282801561125a57602002820191906000526020600020905b81546001600160a01b0316815260019091019060200180831161123c575b5050509190925250505081526040805180820190915260028301805460ff16825260038401805460209485019484019190611294906195a7565b80601f01602080910402602001604051908101604052809291908181526020018280546112c0906195a7565b801561130d5780601f106112e25761010080835404028352916020019161130d565b820191906000526020600020905b8154815290600101906020018083116112f057829003601f168201915b5050509190925250505090525081526008820154602082015260098201546001600160401b0381166040830152600160401b900460e01b6001600160e01b0319166060820152600a82018054608090920191611368906195a7565b80601f0160208091040260200160405190810160405280929190818152602001828054611394906195a7565b80156113e15780601f106113b6576101008083540402835291602001916113e1565b820191906000526020600020905b8154815290600101906020018083116113c457829003601f168201915b505050919092525050508152600b919091015460ff1615156020909101529150505b92915050565b600080600080611418856138f2565b6040516339aa47fb60e01b81529193509150829073__$1cd67d4dc9e627f0bec7928aa480e7d951$__906339aa47fb90611456908590600401619691565b602060405180830381865af4158015611473573d6000803e3d6000fd5b505050506040513d601f19601f82011682018060405250810190611497919061972d565b935093505050915091565b60606000806114b86114b386619746565b6164fb565b91509150816114fc5760408051600080825260208201909252906114f2565b6114df618762565b8152602001906001900390816114d75790505b5092505050611403565b600e8101546001600160401b03851681811061154f576040805160008082526020820190925290611543565b611530618762565b8152602001906001900390816115285790505b50945050505050611403565b600061155b8284619768565b90506000816001600160401b0381111561157757611577618f1e565b6040519080825280602002602001820160405280156115b057816020015b61159d618762565b8152602001906001900390816115955790505b50905060005b8281101561199657600e86016115cc858361977b565b815481106115dc576115dc6195db565b60009182526020918290206040805161018081018252600c90930290910180546001600160401b031661014084019081526001820180548451818802810188018652818152959693958795860194879486946101008901948794869486936101608d0193909183018282801561167b57602002820191906000526020600020905b81546001600160a01b0316815260019091019060200180831161165d575b5050509190925250505081526040805180820190915260028301805460ff168252600384018054602094850194840191906116b5906195a7565b80601f01602080910402602001604051908101604052809291908181526020018280546116e1906195a7565b801561172e5780601f106117035761010080835404028352916020019161172e565b820191906000526020600020905b81548152906001019060200180831161171157829003601f168201915b505050919092525050509052508152604080516080810182526004840180546001600160401b03168284019081526005860180548551602082810282018101909752818152968601969495939486948693606087019390918301828280156117bf57602002820191906000526020600020905b81546001600160a01b031681526001909101906020018083116117a1575b5050509190925250505081526040805180820190915260028301805460ff168252600384018054602094850194840191906117f9906195a7565b80601f0160208091040260200160405190810160405280929190818152602001828054611825906195a7565b80156118725780601f1061184757610100808354040283529160200191611872565b820191906000526020600020905b81548152906001019060200180831161185557829003601f168201915b5050509190925250505090525081526008820154602082015260098201546001600160401b0381166040830152600160401b900460e01b6001600160e01b0319166060820152600a820180546080909201916118cd906195a7565b80601f01602080910402602001604051908101604052809291908181526020018280546118f9906195a7565b80156119465780601f1061191b57610100808354040283529160200191611946565b820191906000526020600020905b81548152906001019060200180831161192957829003601f168201915b505050919092525050508152600b919091015460ff1615156020909101528251839083908110611978576119786195db565b6020026020010181905250808061198e9061978e565b9150506115b6565b5098975050505050505050565b6119ab616642565b60115460ff16156119ce5760405162dc149f60e41b815260040160405180910390fd5b600180546001600160401b03909216600160401b02600160401b600160801b03199092169190911781556011805460ff19169091179055565b611a0f6166d9565b611a1761676e565b600073__$33b79814e84bf6cf5e47244090b19ce5f8$__6399aa0eb4843385611a607f000000000000000000000000000000000000000000000000000000000000000034619768565b6040518563ffffffff1660e01b8152600401611a7f949392919061991f565b600060405180830381865af4158015611a9c573d6000803e3d6000fd5b505050506040513d6000823e601f3d908101601f19168201604052611ac49190810190619b80565b9050611acf816167af565b611b78611adb84619746565b604051632cff562160e11b815273__$a0fe38a9a81205afccc10810b09a4d3f45$__916359feac4291611b119190600401619451565b602060405180830381865af4158015611b2e573d6000803e3d6000fd5b505050506040513d601f19601f82011682018060405250810190611b529190619c9d565b7f0000000000000000000000000000000000000000000000000000000000000000616a7c565b505050565b7f0000000000000000000000000000000000000000000000000000000000000000341015611bbe57604051631036b5ad60e31b815260040160405180910390fd5b604080518082018252600480546001600160401b0316825260058054845160208281028201810190965281815260009580860193919290830182828015611c2e57602002820191906000526020600020905b81546001600160a01b03168152600190910190602001808311611c10575b50505091909252505060405163aa5106cb60e01b815273__$a0fe38a9a81205afccc10810b09a4d3f45$__9263aa5106cb9250611c6f913390600401619cba565b600060405180830381865af4158015611c8c573d6000803e3d6000fd5b505050506040513d6000823e601f3d908101601f19168201604052611cb49190810190619ce4565b9050600080611cc2836164fb565b915091508115611ce557604051631b538cdf60e11b815260040160405180910390fd5b82516004820180546001600160401b0319166001600160401b039092169190911781556020808501518051869392611d24926005870192910190618782565b505034600183810191909155825460ff1916178255504360028201556040516390ba52cf60e01b815260089073__$a0fe38a9a81205afccc10810b09a4d3f45$__906390ba52cf90611d7a908790600401619451565b602060405180830381865af4158015611d97573d6000803e3d6000fd5b505050506040513d601f19601f82011682018060405250810190611dbb919061972d565b815460018181018455600093845260208420909101919091556006805491929091611df09084906001600160401b0316619d18565b92506101000a8154816001600160401b0302191690836001600160401b03160217905550505050565b611e2161676e565b600081815260096020908152604080832081516101808101835281546001600160401b03166101408201908152600183018054855181880281018801875281815294979687966121b5968a958795928601948794869461010089019487948694909386936101608d0193929091830182828015611ec757602002820191906000526020600020905b81546001600160a01b03168152600190910190602001808311611ea9575b5050509190925250505081526040805180820190915260028301805460ff16825260038401805460209485019484019190611f01906195a7565b80601f0160208091040260200160405190810160405280929190818152602001828054611f2d906195a7565b8015611f7a5780601f10611f4f57610100808354040283529160200191611f7a565b820191906000526020600020905b815481529060010190602001808311611f5d57829003601f168201915b505050919092525050509052508152604080516080810182526004840180546001600160401b031682840190815260058601805485516020828102820181019097528181529686019694959394869486936060870193909183018282801561200b57602002820191906000526020600020905b81546001600160a01b03168152600190910190602001808311611fed575b5050509190925250505081526040805180820190915260028301805460ff16825260038401805460209485019484019190612045906195a7565b80601f0160208091040260200160405190810160405280929190818152602001828054612071906195a7565b80156120be5780601f10612093576101008083540402835291602001916120be565b820191906000526020600020905b8154815290600101906020018083116120a157829003601f168201915b5050509190925250505090525081526008820154602082015260098201546001600160401b0381166040830152600160401b900460e01b6001600160e01b0319166060820152600a82018054608090920191612119906195a7565b80601f0160208091040260200160405190810160405280929190818152602001828054612145906195a7565b80156121925780601f1061216757610100808354040283529160200191612192565b820191906000526020600020905b81548152906001019060200180831161217557829003601f168201915b505050919092525050508152600b919091015460ff161515602090910152616ada565b60088501546040805180820182526004880180546001600160401b031682526005890180548451602082810282018101909652818152979950959750939560009592949193808601939192919083018282801561223b57602002820191906000526020600020905b81546001600160a01b0316815260019091019060200180831161221d575b50505091909252505060405163089032d560e01b815273__$a0fe38a9a81205afccc10810b09a4d3f45$__9263089032d5925061227c916004908101619dae565b600060405180830381865af4158015612299573d6000803e3d6000fd5b505050506040513d6000823e601f3d908101601f191682016040526122c19190810190619ce4565b600087815260096020526040812080546001600160401b03191681559192508181818181816122f360018301826187e7565b505060028201805460ff1916815560006123106003850182618805565b505050506004820180546001600160401b03191681556000818161233760058701826187e7565b505060028201805460ff1916815560006123546003850182618805565b50506000600885018190556009850180546001600160601b03191690556123819250600a85019150618805565b505050600b01805460ff1916905561239b82828686616e4a565b60006123c77f000000000000000000000000000000000000000000000000000000000000000034619768565b905080156123d9576123d93382616ea2565b50505050505050565b600a602090815260009182526040918290208251808401845281546001600160401b0316815260018201805485518186028101860190965280865292949193859385820193929183018282801561246257602002820191906000526020600020905b81546001600160a01b03168152600190910190602001808311612444575b5050509190925250505060028201546003830154600684015460078501805494956001600160401b03909416949293919261249c906195a7565b80601f01602080910402602001604051908101604052809291908181526020018280546124c8906195a7565b80156125155780601f106124ea57610100808354040283529160200191612515565b820191906000526020600020905b8154815290600101906020018083116124f857829003601f168201915b5050505050905085565b6125276166d9565b61252f61676e565b3461253a8280619dd3565b604001351461255c57604051631036b5ad60e31b815260040160405180910390fd5b6125668180619dd3565b6125709080619df3565b61257a9080619df3565b61258390619746565b60405163c836244d60e01b815273__$a0fe38a9a81205afccc10810b09a4d3f45$__9163c836244d916125bb91906004908101619dae565b602060405180830381865af41580156125d8573d6000803e3d6000fd5b505050506040513d601f19601f820116820180604052508101906125fc9190619e09565b61261957604051638481de4960e01b815260040160405180910390fd5b60008061262d6126288461a026565b616ada565b9092509050611b7861263f8480619dd3565b6040013561264d8580619dd3565b61265b906020810190619df3565b6126659080619df3565b61266e90619746565b60405163089032d560e01b815273__$a0fe38a9a81205afccc10810b09a4d3f45$__9163089032d5916126a691906004908101619dae565b600060405180830381865af41580156126c3573d6000803e3d6000fd5b505050506040513d6000823e601f3d908101601f191682016040526126eb9190810190619ce4565b8484616e4a565b6000806126fe33616f37565b915091508161272057604051630e991abd60e41b815260040160405180910390fd5b60038101541561274357604051637c67c70160e11b815260040160405180910390fd5b600180820154600680549192916000906127679084906001600160401b031661a032565b82546101009290920a6001600160401b0381810219909316918316021790915560408051808201825260048601805490931681526005860180548351602080830282018101909552818152600796506000959394808601939192908301828280156127fb57602002820191906000526020600020905b81546001600160a01b031681526001909101906020018083116127dd575b5050509190925250506040516390ba52cf60e01b815273__$a0fe38a9a81205afccc10810b09a4d3f45$__926390ba52cf925061283a91600401619451565b602060405180830381865af4158015612857573d6000803e3d6000fd5b505050506040513d601f19601f8201168201806040525081019061287b919061972d565b81526020810191909152604001600090812080546001600160881b03191681556001810182905560028101829055600381018290556004810180546001600160401b0319168155909190816128d360058501826187e7565b50506006820180546001600160401b0319168155600081816128f860078701826187e7565b50506002820180546001600160401b031916905560006003830181905561292390600484019061883f565b612931600583016000618860565b60068201600090556007820160006129499190618805565b5061295a9050600e8301600061883f565b50611b7890503382616ea2565b61296f61706c565b806000036129905760405163c79cad7b60e01b815260040160405180910390fd5b60008061299c33616f37565b91509150816129be57604051630e991abd60e41b815260040160405180910390fd5b82816001015410156129e3576040516379b33e7960e01b815260040160405180910390fd5b828160010160008282546129f79190619768565b909155505060018101547f00000000000000000000000000000000000000000000000000000000000000001115612a3457805460ff191660021781555b6040805180820182526004830180546001600160401b031682526005840180548451602082810282018101909652818152612b3b9589959493818601939091830182828015612aac57602002820191906000526020600020905b81546001600160a01b03168152600190910190602001808311612a8e575b505050919092525050604051632cff562160e11b815273__$a0fe38a9a81205afccc10810b09a4d3f45$__926359feac429250612aeb91600401619451565b602060405180830381865af4158015612b08573d6000803e3d6000fd5b505050506040513d601f19601f82011682018060405250810190612b2c9190619c9d565b6001600160a01b031690616ea2565b5050612b476001600055565b50565b60088181548110612b5a57600080fd5b600091825260209091200154905081565b60003411612b8c57604051631036b5ad60e31b815260040160405180910390fd5b600080612b9833616f37565b9150915081612bba57604051630e991abd60e41b815260040160405180910390fd5b34816001016000828254612bce919061977b565b9091555060029050815460ff166005811115612bec57612bec618b64565b03612c28577f0000000000000000000000000000000000000000000000000000000000000000816001015410612c2857805460ff191660011781555b5050565b6008546060906000816001600160401b03811115612c4c57612c4c618f1e565b604051908082528060200260200182016040528015612c8557816020015b612c72618881565b815260200190600190039081612c6a5790505b50905060005b8281101561382257600060088281548110612ca857612ca86195db565b6000918252602080832090910154808352600790915260409182902082516101208101909352805491935090829060ff166005811115612cea57612cea618b64565b6005811115612cfb57612cfb618b64565b815281546001600160401b0361010082048116602080850191909152600160481b90920481166040808501919091526001850154606085015260028501546080850152600385015460a085015280518082018252600486018054909316815260058601805483518187028101870190945280845260c0909601959194858101939290830182828015612db657602002820191906000526020600020905b81546001600160a01b03168152600190910190602001808311612d98575b50505091909252505050815260408051610120810182526006840180546001600160401b031660e0830190815260078601805485516020828102820181019097528181529686019694959394869486936101008701939091830182828015612e4757602002820191906000526020600020905b81546001600160a01b03168152600190910190602001808311612e29575b50505050508152505081526020016002820160009054906101000a90046001600160401b03166001600160401b03166001600160401b031681526020016003820154815260200160048201805480602002602001604051908101604052809291908181526020016000905b828210156132515760008481526020908190206040805161018081018252600c860290920180546001600160401b031661014084019081526001820180548451818802810188018652818152959693958795860194879486946101008901948794869486936101608d01939091830182828015612f5857602002820191906000526020600020905b81546001600160a01b03168152600190910190602001808311612f3a575b5050509190925250505081526040805180820190915260028301805460ff16825260038401805460209485019484019190612f92906195a7565b80601f0160208091040260200160405190810160405280929190818152602001828054612fbe906195a7565b801561300b5780601f10612fe05761010080835404028352916020019161300b565b820191906000526020600020905b815481529060010190602001808311612fee57829003601f168201915b505050919092525050509052508152604080516080810182526004840180546001600160401b031682840190815260058601805485516020828102820181019097528181529686019694959394869486936060870193909183018282801561309c57602002820191906000526020600020905b81546001600160a01b0316815260019091019060200180831161307e575b5050509190925250505081526040805180820190915260028301805460ff168252600384018054602094850194840191906130d6906195a7565b80601f0160208091040260200160405190810160405280929190818152602001828054613102906195a7565b801561314f5780601f106131245761010080835404028352916020019161314f565b820191906000526020600020905b81548152906001019060200180831161313257829003601f168201915b5050509190925250505090525081526008820154602082015260098201546001600160401b0381166040830152600160401b900460e01b6001600160e01b0319166060820152600a820180546080909201916131aa906195a7565b80601f01602080910402602001604051908101604052809291908181526020018280546131d6906195a7565b80156132235780601f106131f857610100808354040283529160200191613223565b820191906000526020600020905b81548152906001019060200180831161320657829003601f168201915b505050919092525050508152600b919091015460ff1615156020918201529082526001929092019101612eb2565b50505050815260200160058201805480602002602001604051908101604052809291908181526020016000905b82821015613388576000848152602090819020604080516080810182526003860290920180546001600160401b03168383019081526001820180548451818802810188019095528085529495929486949293869360608701939092909183018282801561331457602002820191906000526020600020905b81546001600160a01b031681526001909101906020018083116132f6575b50505050508152505081526020016002820180548060200260200160405190810160405280929190818152602001828054801561337057602002820191906000526020600020905b81548152602001906001019080831161335c575b5050505050815250508152602001906001019061327e565b505050508152602001600682015481526020016007820180546133aa906195a7565b80601f01602080910402602001604051908101604052809291908181526020018280546133d6906195a7565b80156134235780601f106133f857610100808354040283529160200191613423565b820191906000526020600020905b81548152906001019060200180831161340657829003601f168201915b5050505050815250508152602001600e8201805480602002602001604051908101604052809291908181526020016000905b828210156137f45760008481526020908190206040805161018081018252600c860290920180546001600160401b031661014084019081526001820180548451818802810188018652818152959693958795860194879486946101008901948794869486936101608d019390918301828280156134fb57602002820191906000526020600020905b81546001600160a01b031681526001909101906020018083116134dd575b5050509190925250505081526040805180820190915260028301805460ff16825260038401805460209485019484019190613535906195a7565b80601f0160208091040260200160405190810160405280929190818152602001828054613561906195a7565b80156135ae5780601f10613583576101008083540402835291602001916135ae565b820191906000526020600020905b81548152906001019060200180831161359157829003601f168201915b505050919092525050509052508152604080516080810182526004840180546001600160401b031682840190815260058601805485516020828102820181019097528181529686019694959394869486936060870193909183018282801561363f57602002820191906000526020600020905b81546001600160a01b03168152600190910190602001808311613621575b5050509190925250505081526040805180820190915260028301805460ff16825260038401805460209485019484019190613679906195a7565b80601f01602080910402602001604051908101604052809291908181526020018280546136a5906195a7565b80156136f25780601f106136c7576101008083540402835291602001916136f2565b820191906000526020600020905b8154815290600101906020018083116136d557829003601f168201915b5050509190925250505090525081526008820154602082015260098201546001600160401b0381166040830152600160401b900460e01b6001600160e01b0319166060820152600a8201805460809092019161374d906195a7565b80601f0160208091040260200160405190810160405280929190818152602001828054613779906195a7565b80156137c65780601f1061379b576101008083540402835291602001916137c6565b820191906000526020600020905b8154815290600101906020018083116137a957829003601f168201915b505050919092525050508152600b919091015460ff1615156020918201529082526001929092019101613455565b505050508152505083838151811061380e5761380e6195db565b602090810291909101015250600101612c8b565b5092915050565b6138316166d9565b61383961676e565b600073__$33b79814e84bf6cf5e47244090b19ce5f8$__631860845e600433856138837f000000000000000000000000000000000000000000000000000000000000000034619768565b6040518563ffffffff1660e01b81526004016138a2949392919061a052565b600060405180830381865af41580156138bf573d6000803e3d6000fd5b505050506040513d6000823e601f3d908101601f191682016040526138e79190810190619b80565b9050612c28816170ca565b60006138fc6188ec565b6001600160401b038084166000908152600a6020908152604091829020825161012081018452815490941660e085019081526001820180548551818602810186019096528086529294869492938693610100870193919083018282801561398c57602002820191906000526020600020905b81546001600160a01b0316815260019091019060200180831161396e575b50505050508152505081526020016002820160009054906101000a90046001600160401b03166001600160401b03166001600160401b031681526020016003820154815260200160048201805480602002602001604051908101604052809291908181526020016000905b82821015613d965760008481526020908190206040805161018081018252600c860290920180546001600160401b031661014084019081526001820180548451818802810188018652818152959693958795860194879486946101008901948794869486936101608d01939091830182828015613a9d57602002820191906000526020600020905b81546001600160a01b03168152600190910190602001808311613a7f575b5050509190925250505081526040805180820190915260028301805460ff16825260038401805460209485019484019190613ad7906195a7565b80601f0160208091040260200160405190810160405280929190818152602001828054613b03906195a7565b8015613b505780601f10613b2557610100808354040283529160200191613b50565b820191906000526020600020905b815481529060010190602001808311613b3357829003601f168201915b505050919092525050509052508152604080516080810182526004840180546001600160401b0316828401908152600586018054855160208281028201810190975281815296860196949593948694869360608701939091830182828015613be157602002820191906000526020600020905b81546001600160a01b03168152600190910190602001808311613bc3575b5050509190925250505081526040805180820190915260028301805460ff16825260038401805460209485019484019190613c1b906195a7565b80601f0160208091040260200160405190810160405280929190818152602001828054613c47906195a7565b8015613c945780601f10613c6957610100808354040283529160200191613c94565b820191906000526020600020905b815481529060010190602001808311613c7757829003601f168201915b5050509190925250505090525081526008820154602082015260098201546001600160401b0381166040830152600160401b900460e01b6001600160e01b0319166060820152600a82018054608090920191613cef906195a7565b80601f0160208091040260200160405190810160405280929190818152602001828054613d1b906195a7565b8015613d685780601f10613d3d57610100808354040283529160200191613d68565b820191906000526020600020905b815481529060010190602001808311613d4b57829003601f168201915b505050919092525050508152600b919091015460ff16151560209182015290825260019290920191016139f7565b50505050815260200160058201805480602002602001604051908101604052809291908181526020016000905b82821015613ecd576000848152602090819020604080516080810182526003860290920180546001600160401b031683830190815260018201805484518188028101880190955280855294959294869492938693606087019390929091830182828015613e5957602002820191906000526020600020905b81546001600160a01b03168152600190910190602001808311613e3b575b505050505081525050815260200160028201805480602002602001604051908101604052809291908181526020018280548015613eb557602002820191906000526020600020905b815481526020019060010190808311613ea1575b50505050508152505081526020019060010190613dc3565b50505050815260200160068201548152602001600782018054613eef906195a7565b80601f0160208091040260200160405190810160405280929190818152602001828054613f1b906195a7565b8015613f685780601f10613f3d57610100808354040283529160200191613f68565b820191906000526020600020905b815481529060010190602001808311613f4b57829003601f168201915b5050509190925250508151604051630c133d1360e31b815292935073__$a0fe38a9a81205afccc10810b09a4d3f45$__92636099e8989250613fad9190600401619451565b602060405180830381865af4158015613fca573d6000803e3d6000fd5b505050506040513d601f19601f82011682018060405250810190613fee9190619e09565b159150915091565b60096020908152600091825260409182902082516101408101845281546001600160401b03166101008201908152600183018054865181870281018701909752808752939592948694869460c086019487948694919386936101208a01939092919083018282801561409157602002820191906000526020600020905b81546001600160a01b03168152600190910190602001808311614073575b5050509190925250505081526040805180820190915260028301805460ff168252600384018054602094850194840191906140cb906195a7565b80601f01602080910402602001604051908101604052809291908181526020018280546140f7906195a7565b80156141445780601f1061411957610100808354040283529160200191614144565b820191906000526020600020905b81548152906001019060200180831161412757829003601f168201915b505050919092525050509052508152604080516080810182526004840180546001600160401b03168284019081526005860180548551602082810282018101909752818152968601969495939486948693606087019390918301828280156141d557602002820191906000526020600020905b81546001600160a01b031681526001909101906020018083116141b7575b5050509190925250505081526040805180820190915260028301805460ff1682526003840180546020948501948401919061420f906195a7565b80601f016020809104026020016040519081016040528092919081815260200182805461423b906195a7565b80156142885780601f1061425d57610100808354040283529160200191614288565b820191906000526020600020905b81548152906001019060200180831161426b57829003601f168201915b5050509190925250505090525081526008820154602082015260098201546001600160401b0381166040830152600160401b900460e01b6001600160e01b0319166060820152600a820180546080909201916142e3906195a7565b80601f016020809104026020016040519081016040528092919081815260200182805461430f906195a7565b801561435c5780601f106143315761010080835404028352916020019161435c565b820191906000526020600020905b81548152906001019060200180831161433f57829003601f168201915b50505091909252505050600b9091015460ff1682565b61437a61893b565b604080518082018252600480546001600160401b031682526005805484516020828102820181019096528181529394929383860193909291908301828280156143ec57602002820191906000526020600020905b81546001600160a01b031681526001909101906020018083116143ce575b505050505081525050905090565b6144026166d9565b61440f6020820182619125565b6144188161730f565b600e546000908152600d6020908152604080832033845290915290205460115460ff16614458576040516321c4e35760e21b815260040160405180910390fd5b8060000361447957604051632ec5b44960e01b815260040160405180910390fd5b73__$33b79814e84bf6cf5e47244090b19ce5f8$__63898414756144a0602086018661a065565b6040518363ffffffff1660e01b81526004016144bd92919061a239565b602060405180830381865af41580156144da573d6000803e3d6000fd5b505050506040513d601f19601f820116820180604052508101906144fe9190619e09565b61451b57604051630bd9169f60e01b815260040160405180910390fd5b600060128161452d6020870187619125565b6001600160401b03166001600160401b031681526020019081526020016000209050600061455d828633866173e5565b905060608115614936576145708361791d565b805480602002602001604051908101604052809291908181526020016000905b8282101561492f5760008481526020908190206040805161018081018252600c860290920180546001600160401b031661014084019081526001820180548451818802810188018652818152959693958795860194879486946101008901948794869486936101608d0193909183018282801561463657602002820191906000526020600020905b81546001600160a01b03168152600190910190602001808311614618575b5050509190925250505081526040805180820190915260028301805460ff16825260038401805460209485019484019190614670906195a7565b80601f016020809104026020016040519081016040528092919081815260200182805461469c906195a7565b80156146e95780601f106146be576101008083540402835291602001916146e9565b820191906000526020600020905b8154815290600101906020018083116146cc57829003601f168201915b505050919092525050509052508152604080516080810182526004840180546001600160401b031682840190815260058601805485516020828102820181019097528181529686019694959394869486936060870193909183018282801561477a57602002820191906000526020600020905b81546001600160a01b0316815260019091019060200180831161475c575b5050509190925250505081526040805180820190915260028301805460ff168252600384018054602094850194840191906147b4906195a7565b80601f01602080910402602001604051908101604052809291908181526020018280546147e0906195a7565b801561482d5780601f106148025761010080835404028352916020019161482d565b820191906000526020600020905b81548152906001019060200180831161481057829003601f168201915b5050509190925250505090525081526008820154602082015260098201546001600160401b0381166040830152600160401b900460e01b6001600160e01b0319166060820152600a82018054608090920191614888906195a7565b80601f01602080910402602001604051908101604052809291908181526020018280546148b4906195a7565b80156149015780601f106148d657610100808354040283529160200191614901565b820191906000526020600020905b8154815290600101906020018083116148e457829003601f168201915b505050919092525050508152600b919091015460ff1615156020918201529082526001929092019101614590565b5050505090505b8051600003614d3f5760008061494a61794f565b915091508015614d3c576001600160401b03821660009081526012602052604090206149758161791d565b805480602002602001604051908101604052809291908181526020016000905b82821015614d345760008481526020908190206040805161018081018252600c860290920180546001600160401b031661014084019081526001820180548451818802810188018652818152959693958795860194879486946101008901948794869486936101608d01939091830182828015614a3b57602002820191906000526020600020905b81546001600160a01b03168152600190910190602001808311614a1d575b5050509190925250505081526040805180820190915260028301805460ff16825260038401805460209485019484019190614a75906195a7565b80601f0160208091040260200160405190810160405280929190818152602001828054614aa1906195a7565b8015614aee5780601f10614ac357610100808354040283529160200191614aee565b820191906000526020600020905b815481529060010190602001808311614ad157829003601f168201915b505050919092525050509052508152604080516080810182526004840180546001600160401b0316828401908152600586018054855160208281028201810190975281815296860196949593948694869360608701939091830182828015614b7f57602002820191906000526020600020905b81546001600160a01b03168152600190910190602001808311614b61575b5050509190925250505081526040805180820190915260028301805460ff16825260038401805460209485019484019190614bb9906195a7565b80601f0160208091040260200160405190810160405280929190818152602001828054614be5906195a7565b8015614c325780601f10614c0757610100808354040283529160200191614c32565b820191906000526020600020905b815481529060010190602001808311614c1557829003601f168201915b5050509190925250505090525081526008820154602082015260098201546001600160401b0381166040830152600160401b900460e01b6001600160e01b0319166060820152600a82018054608090920191614c8d906195a7565b80601f0160208091040260200160405190810160405280929190818152602001828054614cb9906195a7565b8015614d065780601f10614cdb57610100808354040283529160200191614d06565b820191906000526020600020905b815481529060010190602001808311614ce957829003601f168201915b505050919092525050508152600b919091015460ff1615156020918201529082526001929092019101614995565b505050509350505b50505b604080518082018252600080825282518181526020818101909452614d6a9383019150905282617973565b505050505050565b600080614d7e836164fb565b600e0154949350505050565b6000808080614d9b6114b386619746565b9150915081614db1575060009485945092505050565b546001956101009091046001600160401b0316945092505050565b6000614dd6618881565b614de26114b384619746565b60408051610120810190915281548290829060ff166005811115614e0857614e08618b64565b6005811115614e1957614e19618b64565b815281546001600160401b0361010082048116602080850191909152600160481b90920481166040808501919091526001850154606085015260028501546080850152600385015460a085015280518082018252600486018054909316815260058601805483518187028101870190945280845260c0909601959194858101939290830182828015614ed457602002820191906000526020600020905b81546001600160a01b03168152600190910190602001808311614eb6575b50505091909252505050815260408051610120810182526006840180546001600160401b031660e0830190815260078601805485516020828102820181019097528181529686019694959394869486936101008701939091830182828015614f6557602002820191906000526020600020905b81546001600160a01b03168152600190910190602001808311614f47575b50505050508152505081526020016002820160009054906101000a90046001600160401b03166001600160401b03166001600160401b031681526020016003820154815260200160048201805480602002602001604051908101604052809291908181526020016000905b8282101561536f5760008481526020908190206040805161018081018252600c860290920180546001600160401b031661014084019081526001820180548451818802810188018652818152959693958795860194879486946101008901948794869486936101608d0193909183018282801561507657602002820191906000526020600020905b81546001600160a01b03168152600190910190602001808311615058575b5050509190925250505081526040805180820190915260028301805460ff168252600384018054602094850194840191906150b0906195a7565b80601f01602080910402602001604051908101604052809291908181526020018280546150dc906195a7565b80156151295780601f106150fe57610100808354040283529160200191615129565b820191906000526020600020905b81548152906001019060200180831161510c57829003601f168201915b505050919092525050509052508152604080516080810182526004840180546001600160401b03168284019081526005860180548551602082810282018101909752818152968601969495939486948693606087019390918301828280156151ba57602002820191906000526020600020905b81546001600160a01b0316815260019091019060200180831161519c575b5050509190925250505081526040805180820190915260028301805460ff168252600384018054602094850194840191906151f4906195a7565b80601f0160208091040260200160405190810160405280929190818152602001828054615220906195a7565b801561526d5780601f106152425761010080835404028352916020019161526d565b820191906000526020600020905b81548152906001019060200180831161525057829003601f168201915b5050509190925250505090525081526008820154602082015260098201546001600160401b0381166040830152600160401b900460e01b6001600160e01b0319166060820152600a820180546080909201916152c8906195a7565b80601f01602080910402602001604051908101604052809291908181526020018280546152f4906195a7565b80156153415780601f1061531657610100808354040283529160200191615341565b820191906000526020600020905b81548152906001019060200180831161532457829003601f168201915b505050919092525050508152600b919091015460ff1615156020918201529082526001929092019101614fd0565b50505050815260200160058201805480602002602001604051908101604052809291908181526020016000905b828210156154a6576000848152602090819020604080516080810182526003860290920180546001600160401b03168383019081526001820180548451818802810188019095528085529495929486949293869360608701939092909183018282801561543257602002820191906000526020600020905b81546001600160a01b03168152600190910190602001808311615414575b50505050508152505081526020016002820180548060200260200160405190810160405280929190818152602001828054801561548e57602002820191906000526020600020905b81548152602001906001019080831161547a575b5050505050815250508152602001906001019061539c565b505050508152602001600682015481526020016007820180546154c8906195a7565b80601f01602080910402602001604051908101604052809291908181526020018280546154f4906195a7565b80156155415780601f1061551657610100808354040283529160200191615541565b820191906000526020600020905b81548152906001019060200180831161552457829003601f168201915b5050505050815250508152602001600e8201805480602002602001604051908101604052809291908181526020016000905b828210156159125760008481526020908190206040805161018081018252600c860290920180546001600160401b031661014084019081526001820180548451818802810188018652818152959693958795860194879486946101008901948794869486936101608d0193909183018282801561561957602002820191906000526020600020905b81546001600160a01b031681526001909101906020018083116155fb575b5050509190925250505081526040805180820190915260028301805460ff16825260038401805460209485019484019190615653906195a7565b80601f016020809104026020016040519081016040528092919081815260200182805461567f906195a7565b80156156cc5780601f106156a1576101008083540402835291602001916156cc565b820191906000526020600020905b8154815290600101906020018083116156af57829003601f168201915b505050919092525050509052508152604080516080810182526004840180546001600160401b031682840190815260058601805485516020828102820181019097528181529686019694959394869486936060870193909183018282801561575d57602002820191906000526020600020905b81546001600160a01b0316815260019091019060200180831161573f575b5050509190925250505081526040805180820190915260028301805460ff16825260038401805460209485019484019190615797906195a7565b80601f01602080910402602001604051908101604052809291908181526020018280546157c3906195a7565b80156158105780601f106157e557610100808354040283529160200191615810565b820191906000526020600020905b8154815290600101906020018083116157f357829003601f168201915b5050509190925250505090525081526008820154602082015260098201546001600160401b0381166040830152600160401b900460e01b6001600160e01b0319166060820152600a8201805460809092019161586b906195a7565b80601f0160208091040260200160405190810160405280929190818152602001828054615897906195a7565b80156158e45780601f106158b9576101008083540402835291602001916158e4565b820191906000526020600020905b8154815290600101906020018083116158c757829003601f168201915b505050919092525050508152600b919091015460ff1615156020918201529082526001929092019101615573565b50505091525092969095509350505050565b60115460ff16615947576040516321c4e35760e21b815260040160405180910390fd5b336159e36159558380619df3565b61595e90619746565b604051632cff562160e11b815273__$a0fe38a9a81205afccc10810b09a4d3f45$__916359feac42916159949190600401619451565b602060405180830381865af41580156159b1573d6000803e3d6000fd5b505050506040513d601f19601f820116820180604052508101906159d59190619c9d565b6001600160a01b03166179ab565b6001600160a01b031614615a0a57604051637f39132760e11b815260040160405180910390fd5b6000615a1533616f37565b915060019050815460ff166005811115615a3157615a31618b64565b14615a4f5760405163c18316bf60e01b815260040160405180910390fd5b615a5f6040830160208401619125565b60088201546001600160401b03918216911610615a8f5760405163fae4eadb60e01b815260040160405180910390fd5b60a0820135156161995760408051610120810182526006830180546001600160401b031660e08301908152600785018054855160208281028201810190975281815294959394869486936101008701939091830182828015615b1a57602002820191906000526020600020905b81546001600160a01b03168152600190910190602001808311615afc575b50505050508152505081526020016002820160009054906101000a90046001600160401b03166001600160401b03166001600160401b031681526020016003820154815260200160048201805480602002602001604051908101604052809291908181526020016000905b82821015615f245760008481526020908190206040805161018081018252600c860290920180546001600160401b031661014084019081526001820180548451818802810188018652818152959693958795860194879486946101008901948794869486936101608d01939091830182828015615c2b57602002820191906000526020600020905b81546001600160a01b03168152600190910190602001808311615c0d575b5050509190925250505081526040805180820190915260028301805460ff16825260038401805460209485019484019190615c65906195a7565b80601f0160208091040260200160405190810160405280929190818152602001828054615c91906195a7565b8015615cde5780601f10615cb357610100808354040283529160200191615cde565b820191906000526020600020905b815481529060010190602001808311615cc157829003601f168201915b505050919092525050509052508152604080516080810182526004840180546001600160401b0316828401908152600586018054855160208281028201810190975281815296860196949593948694869360608701939091830182828015615d6f57602002820191906000526020600020905b81546001600160a01b03168152600190910190602001808311615d51575b5050509190925250505081526040805180820190915260028301805460ff16825260038401805460209485019484019190615da9906195a7565b80601f0160208091040260200160405190810160405280929190818152602001828054615dd5906195a7565b8015615e225780601f10615df757610100808354040283529160200191615e22565b820191906000526020600020905b815481529060010190602001808311615e0557829003601f168201915b5050509190925250505090525081526008820154602082015260098201546001600160401b0381166040830152600160401b900460e01b6001600160e01b0319166060820152600a82018054608090920191615e7d906195a7565b80601f0160208091040260200160405190810160405280929190818152602001828054615ea9906195a7565b8015615ef65780601f10615ecb57610100808354040283529160200191615ef6565b820191906000526020600020905b815481529060010190602001808311615ed957829003601f168201915b505050919092525050508152600b919091015460ff1615156020918201529082526001929092019101615b85565b50505050815260200160058201805480602002602001604051908101604052809291908181526020016000905b8282101561605b576000848152602090819020604080516080810182526003860290920180546001600160401b031683830190815260018201805484518188028101880190955280855294959294869492938693606087019390929091830182828015615fe757602002820191906000526020600020905b81546001600160a01b03168152600190910190602001808311615fc9575b50505050508152505081526020016002820180548060200260200160405190810160405280929190818152602001828054801561604357602002820191906000526020600020905b81548152602001906001019080831161602f575b50505050508152505081526020019060010190615f51565b5050505081526020016006820154815260200160078201805461607d906195a7565b80601f01602080910402602001604051908101604052809291908181526020018280546160a9906195a7565b80156160f65780601f106160cb576101008083540402835291602001916160f6565b820191906000526020600020905b8154815290600101906020018083116160d957829003601f168201915b5050509190925250506040516339aa47fb60e01b815273__$1cd67d4dc9e627f0bec7928aa480e7d951$__926339aa47fb925061613591600401619691565b602060405180830381865af4158015616152573d6000803e3d6000fd5b505050506040513d601f19601f82011682018060405250810190616176919061972d565b8260a0013514616199576040516312232e5d60e11b815260040160405180910390fd5b60008060006161a66179f2565b92509250925082616205576004805482546001600160401b0319166001600160401b039091161782556005805483916161e491600184019190618953565b5050506002810180546001600160401b0319166001600160401b0384161790555b60405163445cc97560e01b815273__$1cd67d4dc9e627f0bec7928aa480e7d951$__9063445cc975906162469084908990600f90601090899060040161a2f8565b60006040518083038186803b15801561625e57600080fd5b505af4158015616272573d6000803e3d6000fd5b50505050600080868060600190616289919061a065565b9050905060005b818110156162e9576162a5606089018961a065565b828181106162b5576162b56195db565b90506020028101906162c79190619df3565b6162d19080619dd3565b6162df90604001358461977b565b9250600101616290565b5060038301546162fd90604089013561977b565b616307908361977b565b9150818660030154101561632e57604051631d36ca1560e21b815260040160405180910390fd5b818660030160008282546163429190619768565b9091555087905060068701616357828261ad54565b5061638b90506163678880619df3565b61637090619746565b61637d60608a018a61a065565b6163869161aecf565b617973565b6123d9338860400135616a7c565b6163a1616642565b80518251146163c35760405163465f0a7d60e01b815260040160405180910390fd5b600e600081546163d29061978e565b909155508151600090815b8181101561649b5760008582815181106163f9576163f96195db565b6020026020010151905060006001600160a01b0316816001600160a01b031614616492576000858381518110616431576164316195db565b602002602001015190508060000361645c5760405163389b457d60e01b815260040160405180910390fd5b600e546000908152600d602090815260408083206001600160a01b0386168452909152902081905561648e818661977b565b9450505b506001016163dd565b5050600c555050565b6164ac61706c565b806000036164cd5760405163c79cad7b60e01b815260040160405180910390fd5b6000806164d933616f37565b9150915081612a3457604051630e991abd60e41b815260040160405180910390fd5b600080600760008473__$a0fe38a9a81205afccc10810b09a4d3f45$__6390ba52cf90916040518263ffffffff1660e01b815260040161653b9190619451565b602060405180830381865af4158015616558573d6000803e3d6000fd5b505050506040513d601f19601f8201168201806040525081019061657c919061972d565b81526020808201929092526040908101600020815180830183526004820180546001600160401b03168252600583018054855181880281018801909652808652939650919490938582019390929183018282801561660357602002820191906000526020600020905b81546001600160a01b031681526001909101906020018083116165e5575b505050919092525050604051630c133d1360e31b815273__$a0fe38a9a81205afccc10810b09a4d3f45$__92636099e8989250613fad91600401619451565b604051635d3f8a6960e01b815273__$e800e3908cdbb6b1b5bd452383a17b18f7$__90635d3f8a699061667990339060040161aedc565b602060405180830381865af4158015616696573d6000803e3d6000fd5b505050506040513d601f19601f820116820180604052508101906166ba9190619e09565b6166d75760405163f0d97f3b60e01b815260040160405180910390fd5b565b604051630972932760e21b815273__$e800e3908cdbb6b1b5bd452383a17b18f7$__906325ca4c9c9061671090339060040161aedc565b602060405180830381865af415801561672d573d6000803e3d6000fd5b505050506040513d601f19601f820116820180604052508101906167519190619e09565b6166d757604051630a23da2b60e31b815260040160405180910390fd5b7f00000000000000000000000000000000000000000000000000000000000000003410156166d7576040516334472ad760e11b815260040160405180910390fd5b8051602001515160405163089032d560e01b815260009173__$a0fe38a9a81205afccc10810b09a4d3f45$__9163089032d5916167f0916004908101619dae565b600060405180830381865af415801561680d573d6000803e3d6000fd5b505050506040513d6000823e601f3d908101601f191682016040526168359190810190619ce4565b9050600080616843836164fb565b915091508161686557604051630e991abd60e41b815260040160405180910390fd5b805484516101009091046001600160401b0316606090910181905260019082908290616892908290619d18565b92506101000a8154816001600160401b0302191690836001600160401b031602179055508360000151604001518160030160008282546168d2919061977b565b9091555050600e810180546001808201835560009283526020928390208751805180518051600c90960290930180546001600160401b0319166001600160401b039096169590951785558286015180518b979395879593948694938593616940938501929190910190618782565b505050602082810151805160028401805460ff191660ff909216919091178155918101519091906003840190616976908261aef0565b50505050602083810151805180516004860180546001600160401b0319166001600160401b039092169190911781558184015180519395509093919284926169c5926005890192910190618782565b505050602082810151805160028401805460ff191660ff9092169190911781559181015190919060038401906169fb908261aef0565b5050505060408301516008830155506060820151600982018054608085015160e01c600160401b026001600160601b03199091166001600160401b039093169290921791909117905560a0820151600a820190616a58908261aef0565b50505060209190910151600b909101805460ff191691151591909117905550505050565b80600003616a88575050565b611b78616a9d836001600160a01b03166179ab565b6040805160248082018690528251808303909101815260449091019091526020810180516001600160e01b0316632a7edd8f60e21b179052617b34565b80516020015151604051630c133d1360e31b8152600091829173__$a0fe38a9a81205afccc10810b09a4d3f45$__90636099e89890616b1d908490600401619451565b602060405180830381865af4158015616b3a573d6000803e3d6000fd5b505050506040513d601f19601f82011682018060405250810190616b5e9190619e09565b15616b7c5760405163461e815d60e01b815260040160405180910390fd5b60405163c836244d60e01b815273__$a0fe38a9a81205afccc10810b09a4d3f45$__9063c836244d90616bb59084906004908101619dae565b602060405180830381865af4158015616bd2573d6000803e3d6000fd5b505050506040513d601f19601f82011682018060405250810190616bf69190619e09565b15616c1457604051632f3335ff60e21b815260040160405180910390fd5b835180515160405163f47ad7eb60e01b8152909160009173__$386b5c41ce93e8b832daf8008b3d30ae09$__9163f47ad7eb91616c569190600490810161afaa565b602060405180830381865af4158015616c73573d6000803e3d6000fd5b505050506040513d601f19601f82011682018060405250810190616c97919061afbd565b905060006001826001811115616caf57616caf618b64565b03616daf57604051631ccc893360e11b815273__$a0fe38a9a81205afccc10810b09a4d3f45$__90633999126690616ced908790879060040161afde565b600060405180830381865af4158015616d0a573d6000803e3d6000fd5b505050506040513d6000823e601f3d908101601f19168201604052616d329190810190619ce4565b60405163c836244d60e01b815273__$a0fe38a9a81205afccc10810b09a4d3f45$__9163c836244d91616d6a91906004908101619dae565b602060405180830381865af4158015616d87573d6000803e3d6000fd5b505050506040513d601f19601f82011682018060405250810190616dab9190619e09565b1590505b8015616dd357616dbe876170ca565b50509351604001511515946000945092505050565b6000826001811115616de757616de7618b64565b03616e3157600b8054600890616e0c90600160401b90046001600160401b031661b003565b91906101000a8154816001600160401b0302191690836001600160401b031602179055505b616e3a876167af565b5060009660019650945050505050565b8115616e5b57616e5b606385616ea2565b8015616e9c57604051632cff562160e11b8152616e9c9073__$a0fe38a9a81205afccc10810b09a4d3f45$__906359feac4290611b11908790600401619451565b50505050565b80471015616ec35760405163356680b760e01b815260040160405180910390fd5b6000826001600160a01b03168260405160006040518083038185875af1925050503d8060008114616f10576040519150601f19603f3d011682016040523d82523d6000602084013e616f15565b606091505b5050905080611b7857604051633204506f60e01b815260040160405180910390fd5b6000806001600160a01b038316616f61576040516370e4510960e01b815260040160405180910390fd5b604080518082018252600480546001600160401b0316825260058054845160208281028201810190965281815260009580860193919290830182828015616fd157602002820191906000526020600020905b81546001600160a01b03168152600190910190602001808311616fb3575b50505091909252505060405163aa5106cb60e01b815273__$a0fe38a9a81205afccc10810b09a4d3f45$__9263aa5106cb9250617012918890600401619cba565b600060405180830381865af415801561702f573d6000803e3d6000fd5b505050506040513d6000823e601f3d908101601f191682016040526170579190810190619ce4565b9050617062816164fb565b9250925050915091565b6002600054036170c35760405162461bcd60e51b815260206004820152601f60248201527f5265656e7472616e637947756172643a207265656e7472616e742063616c6c0060448201526064015b60405180910390fd5b6002600055565b60006170d46179f2565b600b5485516001600160401b039091166060909101526003810180549194507f00000000000000000000000000000000000000000000000000000000000000009350915060009061712690849061977b565b90915550506004810180546001808201835560009283526020928390208551805180518051600c90960290930180546001600160401b0319166001600160401b0390961695909517855582860151805189979395879593948694938593617194938501929190910190618782565b505050602082810151805160028401805460ff191660ff9092169190911781559181015190919060038401906171ca908261aef0565b50505050602083810151805180516004860180546001600160401b0319166001600160401b03909216919091178155818401518051939550909391928492617219926005890192910190618782565b505050602082810151805160028401805460ff191660ff90921691909117815591810151909190600384019061724f908261aef0565b5050505060408301516008830155506060820151600982018054608085015160e01c600160401b026001600160601b03199091166001600160401b039093169290921791909117905560a0820151600a8201906172ac908261aef0565b50505060209190910151600b918201805460ff19169115159190911790558054600191906000906172e79084906001600160401b0316619d18565b92506101000a8154816001600160401b0302191690836001600160401b031602179055505050565b6001546001600160401b039081169082161161733e57604051631f30cc6360e21b815260040160405180910390fd5b6001546001600160401b03600160401b909104811690821610156173755760405163b4f68f9760e01b815260040160405180910390fd5b6001547f0000000000000000000000000000000000000000000000000000000000000000906173b490600160401b90046001600160401b03168361a032565b6173be919061b047565b6001600160401b031615612b475760405163b4f68f9760e01b815260040160405180910390fd5b6000806173f18561b06d565b604051630edf122560e41b815273__$1cd67d4dc9e627f0bec7928aa480e7d951$__9163edf1225091617427919060040161b0cd565b602060405180830381865af4158015617444573d6000803e3d6000fd5b505050506040513d601f19601f82011682018060405250810190617468919061972d565b90506174868682868661747e60208b018b619125565b600c54617b7f565b600082815260058801602090815260408083208151808301835281546001600160401b03168152600182018054845181870281018701909552808552969850909591948685019491929184015b828210156178725760008481526020908190206040805161018081018252600c860290920180546001600160401b031661014084019081526001820180548451818802810188018652818152959693958795860194879486946101008901948794869486936101608d0193909183018282801561757957602002820191906000526020600020905b81546001600160a01b0316815260019091019060200180831161755b575b5050509190925250505081526040805180820190915260028301805460ff168252600384018054602094850194840191906175b3906195a7565b80601f01602080910402602001604051908101604052809291908181526020018280546175df906195a7565b801561762c5780601f106176015761010080835404028352916020019161762c565b820191906000526020600020905b81548152906001019060200180831161760f57829003601f168201915b505050919092525050509052508152604080516080810182526004840180546001600160401b03168284019081526005860180548551602082810282018101909752818152968601969495939486948693606087019390918301828280156176bd57602002820191906000526020600020905b81546001600160a01b0316815260019091019060200180831161769f575b5050509190925250505081526040805180820190915260028301805460ff168252600384018054602094850194840191906176f7906195a7565b80601f0160208091040260200160405190810160405280929190818152602001828054617723906195a7565b80156177705780601f1061774557610100808354040283529160200191617770565b820191906000526020600020905b81548152906001019060200180831161775357829003601f168201915b5050509190925250505090525081526008820154602082015260098201546001600160401b0381166040830152600160401b900460e01b6001600160e01b0319166060820152600a820180546080909201916177cb906195a7565b80601f01602080910402602001604051908101604052809291908181526020018280546177f7906195a7565b80156178445780601f1061781957610100808354040283529160200191617844565b820191906000526020600020905b81548152906001019060200180831161782757829003601f168201915b505050919092525050508152600b919091015460ff16151560209182015290825260019290920191016174d3565b50505091525050604051632d34315760e01b815273__$1cd67d4dc9e627f0bec7928aa480e7d951$__91632d343157916178af919060040161b0cd565b602060405180830381865af41580156178cc573d6000803e3d6000fd5b505050506040513d601f19601f820116820180604052508101906178f09190619e09565b1561791457600081815260058701602052604090208590617911828261b0fa565b50505b50949350505050565b6002810154600090815260058201602052604081208054617946906001600160401b0316617db2565b60010192915050565b600254600160401b90046001600160401b0316600061796d82617eee565b90509091565b805160005b81811015616e9c576179a384848381518110617996576179966195db565b6020026020010151617f43565b600101617978565b60008060006179b9846183e4565b91509150816179ca57509192915050565b6000806179d683618416565b91509150816179e9575093949350505050565b95945050505050565b6000806000617a21437f0000000000000000000000000000000000000000000000000000000000000000618480565b6001600160401b038082166000908152600a60209081526040918290208251808401845281549094168452600181018054845181850281018501909552808552959750909550929385938583019392909190830182828015617aac57602002820191906000526020600020905b81546001600160a01b03168152600190910190602001808311617a8e575b505050919092525050604051630c133d1360e31b815273__$a0fe38a9a81205afccc10810b09a4d3f45$__92636099e8989250617aeb91600401619451565b602060405180830381865af4158015617b08573d6000803e3d6000fd5b505050506040513d601f19601f82011682018060405250810190617b2c9190619e09565b159250909192565b6060617b78838360006040518060400160405280601e81526020017f416464726573733a206c6f772d6c6576656c2063616c6c206661696c656400008152506184a2565b9392505050565b8554600081815260038801602090815260408083206001600160a01b038916845290915281205490919060ff1615617bca576040516337138f5f60e11b815260040160405180910390fd5b600081815260038901602090815260408083206001600160a01b038a1684529091528120805460ff1916600190811790915589018054879290617c0e90849061977b565b9091555050600081815260048901602090815260408083208a845290915281208054879290617c3e90849061977b565b90915550506000818152600489016020908152604080832060028c015484529091528082205489835291205480821015617c7a5760028a018990555b6000617c868b8761857f565b90506003816003811115617c9c57617c9c618b64565b03617d2757617caa87617eee565b15617cb85760019450617da4565b60405163199b9ca560e01b815273__$b7b8687e33476c74e3b4e0a64c4768a343$__9063199b9ca590617cf2906002908b9060040161b212565b60006040518083038186803b158015617d0a57600080fd5b505af4158015617d1e573d6000803e3d6000fd5b50505050617da4565b6002816003811115617d3b57617d3b618b64565b03617da457604051635a27a53960e11b8152600481018c905273__$e0f829f5071d7e628aa77eca0c12e35bc2$__9063b44f4a729060240160006040518083038186803b158015617d8b57600080fd5b505af4158015617d9f573d6000803e3d6000fd5b505050505b505050509695505050505050565b617dbb81617eee565b617dc25750565b604051634953836d60e11b815273__$b7b8687e33476c74e3b4e0a64c4768a343$__906392a706da90617dfc90600290859060040161b212565b602060405180830381865af4158015617e19573d6000803e3d6000fd5b505050506040513d601f19601f82011682018060405250810190617e3d9190619e09565b15617e61576002546001600160401b03828116600160401b9092041614617e615750565b6040516394ecccfd60e01b815273__$b7b8687e33476c74e3b4e0a64c4768a343$__906394ecccfd90617e9b90600290859060040161b212565b60006040518083038186803b158015617eb357600080fd5b505af4158015617ec7573d6000803e3d6000fd5b5050600180546001600160401b0319166001600160401b0394909416939093179092555050565b600154600090617f28907f0000000000000000000000000000000000000000000000000000000000000000906001600160401b0316619d18565b6001600160401b0316826001600160401b0316149050919050565b80516020015151604051630c133d1360e31b815273__$a0fe38a9a81205afccc10810b09a4d3f45$__91636099e89891617f809190600401619451565b602060405180830381865af4158015617f9d573d6000803e3d6000fd5b505050506040513d601f19601f82011682018060405250810190617fc19190619e09565b15617fdf5760405163461e815d60e01b815260040160405180910390fd5b8051608001516001600160e01b031916618019578051604001514710156180195760405163569d45cf60e11b815260040160405180910390fd5b805160405163f47ad7eb60e01b815260009173__$386b5c41ce93e8b832daf8008b3d30ae09$__9163f47ad7eb9161805591600490810161afaa565b602060405180830381865af4158015618072573d6000803e3d6000fd5b505050506040513d601f19601f82011682018060405250810190618096919061afbd565b8251602001515160405163c836244d60e01b815291925073__$a0fe38a9a81205afccc10810b09a4d3f45$__9163c836244d916180d7916004908101619dae565b602060405180830381865af41580156180f4573d6000803e3d6000fd5b505050506040513d601f19601f820116820180604052508101906181189190619e09565b1561838057600181600181111561813157618131618b64565b0361826657604051630c133d1360e31b815273__$a0fe38a9a81205afccc10810b09a4d3f45$__90636099e8989061816d908690600401619451565b602060405180830381865af415801561818a573d6000803e3d6000fd5b505050506040513d601f19601f820116820180604052508101906181ae9190619e09565b618266576000806181be856164fb565b91509150816181e057604051630e991abd60e41b815260040160405180910390fd5b8351606001518154600160481b90046001600160401b0390811691161461821a5760405163a57cadff60e01b815260040160405180910390fd5b8054600190829060099061823f908490600160481b90046001600160401b0316619d18565b92506101000a8154816001600160401b0302191690836001600160401b0316021790555050505b600081600181111561827a5761827a618b64565b0361830457815160600151600b54600160401b90046001600160401b039081169116146182ba5760405163a57cadff60e01b815260040160405180910390fd5b6001600b60088282829054906101000a90046001600160401b03166182df9190619d18565b92506101000a8154816001600160401b0302191690836001600160401b031602179055505b604051635c46fefb60e11b815273__$33b79814e84bf6cf5e47244090b19ce5f8$__9063b88dfdf69061833b908590600401619112565b600060405180830381865af4158015618358573d6000803e3d6000fd5b505050506040513d6000823e601f3d908101601f19168201604052616e9c919081019061b229565b600061838b83618694565b6000818152600960209081526040909120855180518051805184546001600160401b0319166001600160401b03909116178455808501518051969750899694959394869485939284926169409260018501920190618782565b600080600160401b600160a01b03831660ff60981b810361841057600192506001600160401b03841691505b50915091565b600080826000526016600a602060006002607f60991b015afa9150600051806001600160a01b031691508060a01c61ffff16905061040a811461845c5760009250600091505b5081158061846b57503d601614155b1561847b57506000928392509050565b915091565b60008161848d818561b25d565b618498906001619d18565b617b78919061b283565b6060824710156185035760405162461bcd60e51b815260206004820152602660248201527f416464726573733a20696e73756666696369656e742062616c616e636520666f6044820152651c8818d85b1b60d21b60648201526084016170ba565b600080866001600160a01b0316858760405161851f919061b2ae565b60006040518083038185875af1925050503d806000811461855c576040519150601f19603f3d011682016040523d82523d6000602084013e618561565b606091505b5091509150618572878383876186c4565b925050505b949350505050565b60008060646185b160ff7f0000000000000000000000000000000000000000000000000000000000000000168561a422565b6185bb919061b2c0565b604051637d2ef4e560e11b81526004810186905290915060009073__$e0f829f5071d7e628aa77eca0c12e35bc2$__9063fa5de9ca90602401602060405180830381865af4158015618611573d6000803e3d6000fd5b505050506040513d601f19601f82011682018060405250810190618635919061972d565b90508185600101541161864d57600092505050611403565b8181111561866057600392505050611403565b600185015461866f9085619768565b6186798284619768565b1061868957600292505050611403565b506001949350505050565b6000816040516020016186a79190619112565b604051602081830303815290604052805190602001209050919050565b6060831561873357825160000361872c576001600160a01b0385163b61872c5760405162461bcd60e51b815260206004820152601d60248201527f416464726573733a2063616c6c20746f206e6f6e2d636f6e747261637400000060448201526064016170ba565b5081618577565b61857783838151156187485781518083602001fd5b8060405162461bcd60e51b81526004016170ba919061b2d4565b6040518060400160405280618775618993565b8152600060209091015290565b8280548282559060005260206000209081019282156187d7579160200282015b828111156187d757825182546001600160a01b0319166001600160a01b039091161782556020909201916001909101906187a2565b506187e39291506189e8565b5090565b5080546000825590600052602060002090810190612b4791906189e8565b508054618811906195a7565b6000825580601f10618821575050565b601f016020900490600052602060002090810190612b4791906189e8565b50805460008255600c0290600052602060002090810190612b4791906189fd565b5080546000825560030290600052602060002090810190612b479190618acd565b604080516101208101909152806000815260200160006001600160401b0316815260200160006001600160401b031681526020016000815260200160008152602001600081526020016188d261893b565b81526020016188df6188ec565b8152602001606081525090565b6040518060e001604052806188ff61893b565b815260200160006001600160401b0316815260200160008152602001606081526020016060815260200160008019168152602001606081525090565b60408051808201909152600081526060602082015290565b8280548282559060005260206000209081019282156187d75760005260206000209182015b828111156187d7578254825591600101919060010190618978565b6040518060c001604052806189a6618b0e565b81526020016189b3618b0e565b81526020016000815260200160006001600160401b0316815260200160006001600160e01b0319168152602001606081525090565b5b808211156187e357600081556001016189e9565b808211156187e35780546001600160401b03191681556000818181818181618a2860018301826187e7565b505060028201805460ff191681556000618a456003850182618805565b505050506004820180546001600160401b031916815560008181618a6c60058701826187e7565b505060028201805460ff191681556000618a896003850182618805565b50506000600885018190556009850180546001600160601b0319169055618ab69250600a85019150618805565b505050600b8101805460ff19169055600c016189fd565b808211156187e35780546001600160401b031916815560008181618af460018301826187e7565b50618b0590506002830160006187e7565b50600301618acd565b6040518060400160405280618b2161893b565b8152602001618b466040518060400160405280600060ff168152602001606081525090565b905290565b600060208284031215618b5d57600080fd5b5035919050565b634e487b7160e01b600052602160045260246000fd5b60068110618b9857634e487b7160e01b600052602160045260246000fd5b9052565b80516001600160401b03168252602080820151604082850181905281519085018190526000929182019190839060608701905b80831015618bf85784516001600160a01b03168252938301936001929092019190830190618bcf565b509695505050505050565b60005b83811015618c1e578181015183820152602001618c06565b50506000910152565b60008151808452618c3f816020860160208601618c03565b601f01601f19169290920160200192915050565b6000815160408452618c686040850182618b9c565b90506020830151848203602086015260ff815116825260208101519050604060208301526179e96040830182618c27565b6000815160c08452618cae60c0850182618c53565b905060208301518482036020860152618cc78282618c53565b9150506040830151604085015260018060401b03606084015116606085015263ffffffff60e01b608084015116608085015260a083015184820360a08601526179e98282618c27565b6000815160408452618d256040850182618c99565b6020938401511515949093019390935250919050565b600081518084526020808501808196508360051b8101915082860160005b85811015618d83578284038952618d71848351618d10565b98850198935090840190600101618d59565b5091979650505050505050565b6000815160e08452618da560e0850182618b9c565b9050602060018060401b038185015116818601526040808501518187015260608501518684036060880152618dda8482618d3b565b935050608085015186840360808801528381518086528486019150848160051b87010185840193506000805b83811015618e7a57888303601f1901855285518051888552618e2a89860182618b9c565b918a0151858303868c01528051808452908b01928592508b01905b80831015618e655783518252928b019260019290920191908b0190618e45565b50978a0197968a019694505050600101618e06565b505060a089015160a08b015260c0890151965089810360c08b0152618e9f8188618c27565b9a9950505050505050505050565b6000610100618ebc838c618b7a565b6001600160401b038a8116602085015289166040840152606083018890526080830187905260a0830186905260c08301819052618efb81840186618b9c565b905082810360e0840152618f0f8185618d90565b9b9a5050505050505050505050565b634e487b7160e01b600052604160045260246000fd5b604080519081016001600160401b0381118282101715618f5657618f56618f1e565b60405290565b60405160c081016001600160401b0381118282101715618f5657618f56618f1e565b604051601f8201601f191681016001600160401b0381118282101715618fa657618fa6618f1e565b604052919050565b6001600160401b0381168114612b4757600080fd5b8035618fce81618fae565b919050565b60006001600160401b03821115618fec57618fec618f1e565b5060051b60200190565b6001600160a01b0381168114612b4757600080fd5b600082601f83011261901c57600080fd5b8135602061903161902c83618fd3565b618f7e565b82815260059290921b8401810191818101908684111561905057600080fd5b8286015b84811015618bf857803561906781618ff6565b8352918301918301619054565b60006040828403121561908657600080fd5b61908e618f34565b9050813561909b81618fae565b815260208201356001600160401b038111156190b657600080fd5b6190c28482850161900b565b60208301525092915050565b600080604083850312156190e157600080fd5b82356001600160401b038111156190f757600080fd5b61910385828601619074565b95602094909401359450505050565b602081526000617b786020830184618d10565b60006020828403121561913757600080fd5b8135617b7881618fae565b60006040828403121561915457600080fd5b50919050565b6000806040838503121561916d57600080fd5b82356001600160401b0381111561918357600080fd5b61918f85828601619142565b92505060208301356191a081618fae565b809150509250929050565b602081526000617b786020830184618d3b565b600080604083850312156191d157600080fd5b82356001600160401b03808211156191e857600080fd5b6191f486838701619142565b9350602085013591508082111561920a57600080fd5b5061921785828601619142565b9150509250929050565b6000806040838503121561923457600080fd5b8235915060208301356191a081618ff6565b60a08152600061925960a0830188618b9c565b6001600160401b0387166020840152604083018690526060830185905282810360808401526192888185618c27565b98975050505050505050565b6000602082840312156192a657600080fd5b81356001600160401b038111156192bc57600080fd5b61857784828501619142565b60006101206192d8848451618b7a565b60208301516192f260208601826001600160401b03169052565b50604083015161930d60408601826001600160401b03169052565b50606083015160608501526080830151608085015260a083015160a085015260c08301518160c086015261934382860182618b9c565b91505060e083015184820360e086015261935d8282618d90565b91505061010080840151858303828701526193788382618d3b565b9695505050505050565b6000602080830181845280855180835260408601915060408160051b870101925083870160005b828110156193d757603f198886030184526193c58583516192c8565b945092850192908501906001016193a9565b5092979650505050505050565b600080604083850312156193f757600080fd5b823561940281618fae565b915060208301356191a081618ff6565b82151581526040602082015260006185776040830184618d90565b6040815260006194406040830185618c99565b905082151560208301529392505050565b602081526000617b786020830184618b9c565b60006020828403121561947657600080fd5b81356001600160401b0381111561948c57600080fd5b61857784828501619074565b821515815260406020820152600061857760408301846192c8565b6000602082840312156194c557600080fd5b81356001600160401b038111156194db57600080fd5b820160e08185031215617b7857600080fd5b6000806040838503121561950057600080fd5b82356001600160401b038082111561951757600080fd5b6195238683870161900b565b935060209150818501358181111561953a57600080fd5b85019050601f8101861361954d57600080fd5b803561955b61902c82618fd3565b81815260059190911b8201830190838101908883111561957a57600080fd5b928401925b828410156195985783358252928401929084019061957f565b80955050505050509250929050565b600181811c908216806195bb57607f821691505b60208210810361915457634e487b7160e01b600052602260045260246000fd5b634e487b7160e01b600052603260045260246000fd5b600081518084526020808501808196508360051b810191508286016000805b86811015619683578385038a5282516040815181885261963282890182618b9c565b92890151888403898b01528051808552908a01938693508a0191505b8083101561966e578351825292890192600192909201919089019061964e565b509b88019b9650505091850191600101619610565b509298975050505050505050565b602081526000825160e060208401526196ae610100840182618b9c565b905060018060401b036020850151166040840152604084015160608401526060840151601f19808584030160808601526196e88383618d3b565b925060808601519150808584030160a086015261970583836195f1565b925060a086015160c086015260c08601519150808584030160e0860152506179e98282618c27565b60006020828403121561973f57600080fd5b5051919050565b60006114033683619074565b634e487b7160e01b600052601160045260246000fd5b8181038181111561140357611403619752565b8082018082111561140357611403619752565b6000600182016197a0576197a0619752565b5060010190565b6000808335601e198436030181126197be57600080fd5b83016020810192503590506001600160401b038111156197dd57600080fd5b8060051b36038213156197ef57600080fd5b9250929050565b600060408301823561980781618fae565b6001600160401b031684526020619820848201856197a7565b6040878401529283905291600090606087015b8183101561986357843561984681618ff6565b6001600160a01b0316815293830193600192909201918301619833565b979650505050505050565b60ff81168114612b4757600080fd5b6000808335601e1984360301811261989457600080fd5b83016020810192503590506001600160401b038111156198b357600080fd5b8036038213156197ef57600080fd5b81835281816020850137506000828201602090810191909152601f909101601f19169091010190565b600081356198f88161986e565b60ff16835261990a602083018361987d565b604060208601526179e96040860182846198c2565b60808152600061993260808301876197f6565b6001600160a01b0386166020840152828103604084015261995381866198eb565b91505082606083015295945050505050565b8051618fce81618fae565b60006040828403121561998257600080fd5b61998a618f34565b9050815161999781618fae565b81526020828101516001600160401b038111156199b357600080fd5b8301601f810185136199c457600080fd5b80516199d261902c82618fd3565b81815260059190911b820183019083810190878311156199f157600080fd5b928401925b82841015619a18578351619a0981618ff6565b825292840192908401906199f6565b8085870152505050505092915050565b60006001600160401b03821115619a4157619a41618f1e565b50601f01601f191660200190565b600082601f830112619a6057600080fd5b8151619a6e61902c82619a28565b818152846020838601011115619a8357600080fd5b618577826020830160208701618c03565b600060408284031215619aa657600080fd5b619aae618f34565b82519091506001600160401b0380821115619ac857600080fd5b619ad485838601619970565b83526020840151915080821115619aea57600080fd5b9083019060408286031215619afe57600080fd5b619b06618f34565b8251619b118161986e565b8152602083015182811115619b2557600080fd5b619b3187828601619a4f565b60208301525080602085015250505092915050565b6001600160e01b031981168114612b4757600080fd5b8051618fce81619b46565b8015158114612b4757600080fd5b8051618fce81619b67565b600060208284031215619b9257600080fd5b81516001600160401b0380821115619ba957600080fd5b9083019060408286031215619bbd57600080fd5b619bc5618f34565b825182811115619bd457600080fd5b830160c08188031215619be657600080fd5b619bee618f5c565b815184811115619bfd57600080fd5b619c0989828501619a94565b825250602082015184811115619c1e57600080fd5b619c2a89828501619a94565b60208301525060408201516040820152619c4660608301619965565b6060820152619c5760808301619b5c565b608082015260a082015184811115619c6e57600080fd5b619c7a89828501619a4f565b60a083015250825250619c8f60208401619b75565b602082015295945050505050565b600060208284031215619caf57600080fd5b8151617b7881618ff6565b604081526000619ccd6040830185618b9c565b905060018060a01b03831660208301529392505050565b600060208284031215619cf657600080fd5b81516001600160401b03811115619d0c57600080fd5b61857784828501619970565b6001600160401b0381811683821601908082111561382257613822619752565b60009081526020902090565b80546001600160401b031682526040602080840182905260018381018054938601849052600090815282812090939092849160608801905b80841015619da25785546001600160a01b03168252948401949284019290820190619d7c565b50979650505050505050565b604081526000619dc16040830185618b9c565b82810360208401526179e98185619d44565b6000823560be19833603018112619de957600080fd5b9190910192915050565b60008235603e19833603018112619de957600080fd5b600060208284031215619e1b57600080fd5b8151617b7881619b67565b600082601f830112619e3757600080fd5b8135619e4561902c82619a28565b818152846020838601011115619e5a57600080fd5b816020850160208301376000918101602001919091529392505050565b600060408284031215619e8957600080fd5b619e91618f34565b905081356001600160401b0380821115619eaa57600080fd5b619eb685838601619074565b83526020840135915080821115619ecc57600080fd5b9083019060408286031215619ee057600080fd5b619ee8618f34565b8235619ef38161986e565b8152602083013582811115619f0757600080fd5b619b3187828601619e26565b8035618fce81619b46565b8035618fce81619b67565b600060408284031215619f3b57600080fd5b619f43618f34565b905081356001600160401b0380821115619f5c57600080fd5b9083019060c08286031215619f7057600080fd5b619f78618f5c565b823582811115619f8757600080fd5b619f9387828601619e77565b825250602083013582811115619fa857600080fd5b619fb487828601619e77565b60208301525060408301356040820152619fd060608401618fc3565b6060820152619fe160808401619f13565b608082015260a083013582811115619ff857600080fd5b61a00487828601619e26565b60a08301525083525061a01b905060208301619f1e565b602082015292915050565b60006114033683619f29565b6001600160401b0382811682821603908082111561382257613822619752565b6080815260006199326080830187619d44565b6000808335601e1984360301811261a07c57600080fd5b8301803591506001600160401b0382111561a09657600080fd5b6020019150600581901b36038213156197ef57600080fd5b60008235603e1983360301811261a0c457600080fd5b90910192915050565b600061a0d9828361a0ae565b6040845261a0ea60408501826197f6565b905061a0f9602084018461a0ae565b84820360208601526179e982826198eb565b81835260006020808501808196508560051b81019150846000805b88811015619683578385038a5261a13d838961a0ae565b6040813560be1983360301811261a152578485fd5b818852820161a161818061a0ae565b60c080848b015261a1766101008b018361a0cd565b915061a1848b84018461a0ae565b603f196060818d860301818e015261a19c858461a0cd565b94506080925086860135838e01528086013596505061a1ba86618fae565b60a060018060401b038716818e015282860135965061a1d887619b46565b6001600160e01b031987168d85015261a1f38682018761987d565b9750955050808c85030160e08d015250505061a2108184846198c2565b9250505061a21f888301619f1e565b15159688019690965250988501989185019160010161a126565b60208152600061857760208301848661a10b565b81835260006020808501808196506005915085821b8101856000805b8981101561a2e9578484038b5261a280838a61a0ae565b604061a28c828361a0ae565b81875261a29b828801826197f6565b91505061a2aa898301836197a7565b8783038b89015280835292506001600160fb1b0383111561a2c9578485fd5b91881b918281838c0137509b88019b01870193509186019160010161a269565b50919998505050505050505050565b85815260a06020820152600061a30e868761a0ae565b60e060a084015261a3236101808401826197f6565b9050602087013561a33381618fae565b6001600160401b031660c0840152604087013560e084015261a35860608801886197a7565b609f19808685030161010087015261a37184838561a10b565b935061a38060808b018b6197a7565b93509150808685030161012087015261a39a84848461a24d565b935060a08a013561014087015261a3b460c08b018b61987d565b9350915080868503016101608701525061a3cf8383836198c2565b935050505084604083015283606083015261937860808301846001600160401b03169052565b6000813561140381618fae565b80546001600160401b0319166001600160401b0392909216919091179055565b808202811582820484141761140357611403619752565b5b81811015612c28576000815560010161a43a565b8054600082558015612c2857816000526020600020611b788282018261a439565b600160401b82111561a4835761a483618f1e565b805482825580831015611b7857816000526020600020616e9c82820185830161a439565b60008155612b476001820161a44e565b600019600383901b1c191660019190911b1790565b61a4d681546195a7565b8015612c2857601f81116001811461a4f057505060009055565b82600052602060002061a50e601f840160051c82016001830161a439565b60008085559055505050565b6000815561a52a6001820161a44e565b60006002820155612b476003820161a4cc565b6000808335601e1984360301811261a55457600080fd5b8301803591506001600160401b0382111561a56e57600080fd5b6020019150368190038213156197ef57600080fd5b601f821115611b7857806000526020600020601f840160051c8101602085101561a5aa5750805b61a5bc601f850160051c83018261a439565b5050505050565b6001600160401b0383111561a5da5761a5da618f1e565b61a5ee8361a5e883546195a7565b8361a583565b6000601f84116001811461a61c576000851561a60a5750838201355b61a614868261a4b7565b84555061a5bc565b601f19851661a62a84619d38565b835b8281101561a64c578685013582556020948501946001909201910161a62c565b508682101561a6695760001960f88860031b161c19848701351681555b505060018560011b0183555050505050565b61a6858283619df3565b803561a69081618fae565b61a69a818461a402565b506001808301602061a6ae8185018561a065565b94506001600160401b038086111561a6c85761a6c8618f1e565b61a6d2868561a46f565b600093845282842093805b8781101561a6ff57833561a6f081618ff6565b8682015592840192860161a6dd565b5060028801965061a712848a018a619df3565b94508435925061a7218361986e565b865460ff191660ff841617909655600387019561a7408585018661a53d565b955092508185111561a7545761a754618f1e565b61a7688561a76289546195a7565b8961a583565b809150601f85116001811461a7965781861561a7845750838301355b61a78e878261a4b7565b89555061a7ea565b601f19861661a7a489619d38565b835b8281101561a7c3578686013582559487019490890190870161a7a6565b508782101561a7e05760001960f88960031b161c19858701351681555b50508686881b0188555b50505050505050505050565b6000813561140381619b46565b6000813561140381619b67565b813560be1983360301811261a82457600080fd5b820161a8308180619df3565b61a83a8182619df3565b803561a84581618fae565b61a84f818661a402565b506001808501602061a8638185018561a065565b94506001600160401b038086111561a87d5761a87d618f1e565b61a887868561a46f565b600093845282842093805b8781101561a8b457833561a8a581618ff6565b8682015592840192860161a892565b5060028a01965061a8c784890189619df3565b97508735945061a8d68561986e565b865460ff191660ff861617909655600389019561a8f58885018961a53d565b985094508188111561a9095761a909618f1e565b61a9178861a76289546195a7565b809250601f88116001811461a94757819250881561a936578386013592505b61a940898461a4b7565b885561a99c565b601f198916925061a95788619d38565b825b8481101561a976578786013582559486019490880190860161a959565b508984101561a9935760001960f88b60031b161c19858801351681555b508689881b0188555b5050505061a9b861a9af82880188619df3565b6004890161a67b565b6040860135600888015560098701945061a9dd61a9d76060880161a3f5565b8661a402565b61aa1061a9ec6080880161a7f6565b86805463ffffffff60401b191660a09290921c63ffffffff60401b16919091179055565b61aa1d60a087018761a53d565b9650945061aa2f8686600a8a0161a5c3565b61aa5661aa3d828a0161a803565b600b890160ff1981541660ff8315151681178255505050565b5050505050505050565b600160401b83111561aa745761aa74618f1e565b80548382558084101561ab0857600c818102818104831461aa975761aa97619752565b858202828104871461aaab5761aaab619752565b6000858152602081209283019291909101905b8282101561ab035761aacf8261a51a565b61aadb6004830161a51a565b80600883015580600983015561aaf3600a830161a4cc565b80600b830155838201915061aabe565b505050505b508161ab1382619d38565b60005b85811015614d6a5761ab3161ab2b8487619df3565b8361a810565b60209290920191600c919091019060010161ab16565b805460008083558115611b7857828152602081208281015b8082101561a5bc5782825560018201915061ab5f565b600160401b82111561ab895761ab89618f1e565b805482825580831015611b78576000828152602081208481019083015b80821015614d6a5782825560018201915061aba6565b61abc68283619df3565b803561abd181618fae565b61abdb818461a402565b506001808301602061abef8185018561a065565b94506001600160401b038086111561ac095761ac09618f1e565b61ac13868561a46f565b600093845282842093805b8781101561ac4057833561ac3181618ff6565b8682015592840192860161ac1e565b5060028801965061ac53848a018a61a065565b955092508185111561ac675761ac67618f1e565b61ac71858861ab75565b95865250818520945b8381101561aa565781358682015590820190840161ac7a565b600160401b83111561aca75761aca7618f1e565b80548382558084101561ad15576003818102818104831461acca5761acca619752565b858202828104871461acde5761acde619752565b60008581526020902091820191015b8181101561ad115761acfe8161a4a7565b61ad0a6002820161ab47565b820161aced565b5050505b508161ad2082619d38565b60005b85811015614d6a5761ad3e61ad388487619df3565b8361abbc565b602092909201916003919091019060010161ad23565b61ad5e8283619df3565b803561ad6981618fae565b61ad73818461a402565b506001808301602061ad878185018561a065565b94506001600160401b0385111561ada05761ada0618f1e565b61adaa858461a46f565b6000928352818320925b8581101561add657813561adc781618ff6565b8482015590820190840161adb4565b505061adef61ade682880161a3f5565b6002870161a402565b505050506040820135600382015561ae0a606083018361a065565b61ae1881836004860161aa60565b505061ae27608083018361a065565b61ae3581836005860161ac93565b505060a0820135600682015561ae4e60c083018361a53d565b616e9c81836007860161a5c3565b600061ae6a61902c84618fd3565b8381529050602080820190600585901b84018681111561ae8957600080fd5b845b8181101561aec45780356001600160401b0381111561aeaa5760008081fd5b61aeb689828901619f29565b85525092820192820161ae8b565b505050509392505050565b6000617b7836848461ae5c565b6001600160a01b0391909116815260200190565b81516001600160401b0381111561af095761af09618f1e565b61af1d8161af1784546195a7565b8461a583565b602080601f83116001811461af4c576000841561af3a5750858301515b61af44858261a4b7565b865550614d6a565b601f19841661af5a86619d38565b60005b8281101561af7c5788860151825594840194600190910190840161af5d565b508582101561af9a5787850151600019600388901b60f8161c191681555b5050505050600190811b01905550565b604081526000619dc16040830185618c99565b60006020828403121561afcf57600080fd5b815160028110617b7857600080fd5b60408152600061aff16040830185618b9c565b82810360208401526179e98185618b9c565b60006001600160401b038281166002600160401b0319810161b0275761b027619752565b6001019392505050565b634e487b7160e01b600052601260045260246000fd5b60006001600160401b038381168061b0615761b06161b031565b92169190910692915050565b60006040823603121561b07f57600080fd5b61b087618f34565b823561b09281618fae565b815260208301356001600160401b0381111561b0ad57600080fd5b830136601f82011261b0be57600080fd5b6190c23682356020840161ae5c565b602080825282516001600160401b0316828201528201516040808301526000906185776060840182618d3b565b813561b10581618fae565b61b10f818361a402565b506001808201602061b1238186018661a065565b600160401b81111561b1375761b137618f1e565b83548185558082101561b1ca57600c818102818104831461b15a5761b15a619752565b838202828104851461b16e5761b16e619752565b60008881528781209283019291909101905b8282101561b1c55761b1918261a51a565b61b19d6004830161a51a565b80600883015580600983015561b1b5600a830161a4cc565b80600b830155838201915061b180565b505050505b508161b1d585619d38565b945060005b8281101561b2075761b1f561b1ef8386619df3565b8761a810565b600c959095019490840190860161b1da565b505050505050505050565b9182526001600160401b0316602082015260400190565b60006020828403121561b23b57600080fd5b81516001600160401b0381111561b25157600080fd5b61857784828501619a4f565b60006001600160401b038381168061b2775761b27761b031565b92169190910492915050565b6001600160401b0381811683821602808216919082811461b2a65761b2a6619752565b505092915050565b60008251619de9818460208701618c03565b60008261b2cf5761b2cf61b031565b500490565b602081526000617b786020830184618c2756fea264697066735822122065456745baa1dcff41df13b13d38965feddc99868fbf80d1bd8327da15dbd3b464736f6c63430008130033",
    "linkReferences": {
      "src/lib/AccountHelper.sol": {
        "AccountHelper": [
          {
            "start": 27843,
            "length": 20
          },
          {
            "start": 27994,
            "length": 20
          }
        ]
      },
      "src/lib/CheckpointHelper.sol": {
        "CheckpointHelper": [
          {
            "start": 6816,
            "length": 20
          },
          {
            "start": 26496,
            "length": 20
          },
          {
            "start": 26758,
            "length": 20
          },
          {
            "start": 31346,
            "length": 20
          },
          {
            "start": 32506,
            "length": 20
          }
        ]
      },
      "src/lib/CrossMsgHelper.sol": {
        "CrossMsgHelper": [
          {
            "start": 8333,
            "length": 20
          },
          {
            "start": 16047,
            "length": 20
          },
          {
            "start": 19181,
            "length": 20
          },
          {
            "start": 35205,
            "length": 20
          }
        ]
      },
      "src/lib/EpochVoteSubmissionHelper.sol": {
        "EpochVoteSubmissionHelper": [
          {
            "start": 33736,
            "length": 20
          },
          {
            "start": 35913,
            "length": 20
          }
        ]
      },
      "src/lib/ExecutableQueueHelper.sol": {
        "ExecutableQueueHelper": [
          {
            "start": 33593,
            "length": 20
          },
          {
            "start": 33859,
            "length": 20
          },
          {
            "start": 34018,
            "length": 20
          }
        ]
      },
      "src/lib/StorableMsgHelper.sol": {
        "StorableMsgHelper": [
          {
            "start": 29343,
            "length": 20
          },
          {
            "start": 34463,
            "length": 20
          }
        ]
      },
      "src/lib/SubnetIDHelper.sol": {
        "SubnetIDHelper": [
          {
            "start": 481,
            "length": 20
          },
          {
            "start": 8540,
            "length": 20
          },
          {
            "start": 8888,
            "length": 20
          },
          {
            "start": 9156,
            "length": 20
          },
          {
            "start": 10437,
            "length": 20
          },
          {
            "start": 11268,
            "length": 20
          },
          {
            "start": 11503,
            "length": 20
          },
          {
            "start": 11909,
            "length": 20
          },
          {
            "start": 12598,
            "length": 20
          },
          {
            "start": 17911,
            "length": 20
          },
          {
            "start": 24543,
            "length": 20
          },
          {
            "start": 27511,
            "length": 20
          },
          {
            "start": 27789,
            "length": 20
          },
          {
            "start": 28218,
            "length": 20
          },
          {
            "start": 29031,
            "length": 20
          },
          {
            "start": 29181,
            "length": 20
          },
          {
            "start": 29493,
            "length": 20
          },
          {
            "start": 29619,
            "length": 20
          },
          {
            "start": 29926,
            "length": 20
          },
          {
            "start": 30299,
            "length": 20
          },
          {
            "start": 33078,
            "length": 20
          },
          {
            "start": 34251,
            "length": 20
          },
          {
            "start": 34593,
            "length": 20
          },
          {
            "start": 34743,
            "length": 20
          }
        ]
      }
    }
  },
  "methodIdentifiers": {
    "MIN_CHECKPOINT_PERIOD()": "a1ada303",
    "MIN_COLLATERAL_AMOUNT()": "91be4d41",
    "addStake()": "5a627dbc",
    "appliedTopDownNonce()": "8789f83b",
    "bottomUpCheckPeriod()": "06c46853",
    "bottomUpCheckpointAtEpoch(uint64)": "6cb2ecee",
    "bottomUpCheckpointHashAtEpoch(uint64)": "133f74ea",
    "bottomUpCheckpoints(uint64)": "2cc14ea2",
    "bottomUpNonce()": "41b6a2e8",
    "commitChildCheck(((uint64,address[]),uint64,uint256,((((uint64,address[]),(uint8,bytes)),((uint64,address[]),(uint8,bytes)),uint256,uint64,bytes4,bytes),bool)[],((uint64,address[]),bytes32[])[],bytes32,bytes))": "d4e149a8",
    "crossMsgFee()": "24729425",
    "executableQueue()": "10d500e1",
    "fund((uint64,address[]),(uint8,bytes))": "18f44b70",
    "getAppliedTopDownNonce((uint64,address[]))": "9e530b57",
    "getGenesisEpoch()": "51392fc0",
    "getNetworkName()": "94074b03",
    "getSubnet((uint64,address[]))": "c66c66a1",
    "getSubnetTopDownMsg((uint64,address[]),uint256)": "0ea746f2",
    "getSubnetTopDownMsgsLength((uint64,address[]))": "9d3070b5",
    "getTopDownMsgs((uint64,address[]),uint64)": "13549315",
    "hasValidatorVotedForSubmission(uint64,address)": "66d7bbbc",
    "initGenesisEpoch(uint64)": "13f35388",
    "initialized()": "158ef93e",
    "kill()": "41c0e1b5",
    "lastVotingExecutedEpoch()": "ad81e244",
    "listSubnets()": "5d029685",
    "majorityPercentage()": "599c7bd1",
    "minStake()": "375b3c0a",
    "postbox(bytes32)": "8cfd78e7",
    "propagate(bytes32)": "25bf0db6",
    "register()": "1aa3a008",
    "release((uint8,bytes))": "6b2c1eef",
    "releaseRewards(uint256)": "f8703bb8",
    "releaseStake(uint256)": "45f54485",
    "sendCrossMessage(((((uint64,address[]),(uint8,bytes)),((uint64,address[]),(uint8,bytes)),uint256,uint64,bytes4,bytes),bool))": "2f757dd1",
    "setMembership(address[],uint256[])": "f75bc557",
    "submissionPeriod()": "185fde7e",
    "submitTopDownCheckpoint((uint64,((((uint64,address[]),(uint8,bytes)),((uint64,address[]),(uint8,bytes)),uint256,uint64,bytes4,bytes),bool)[]))": "986acf38",
    "subnetKeys(uint256)": "548b3b38",
    "subnets(bytes32)": "02e30f9a",
    "topDownCheckPeriod()": "7d9740f4",
    "totalSubnets()": "a2b67158",
    "totalWeight()": "96c82e57",
    "validatorNonce()": "e17a684f",
    "validatorSet(uint256,address)": "223d9056"
  },
  "id": 25
}