{
  "abi": [
    {
      "inputs": [
        {
          "internalType": "address",
          "name": "target",
          "type": "address"
        }
      ],
      "name": "AddressEmptyCode",
      "type": "error"
    },
    {
      "inputs": [
        {
          "internalType": "address",
          "name": "account",
          "type": "address"
        }
      ],
      "name": "AddressInsufficientBalance",
      "type": "error"
    },
    {
      "inputs": [],
      "name": "CallFailed",
      "type": "error"
    },
    {
      "inputs": [],
      "name": "CannotSendCrossMsgToItself",
      "type": "error"
    },
    {
      "inputs": [],
      "name": "FailedInnerCall",
      "type": "error"
    },
    {
      "inputs": [],
      "name": "InsufficientFunds",
      "type": "error"
    },
    {
      "inputs": [],
      "name": "InvalidCrossMsgDstSubnet",
      "type": "error"
    },
    {
      "inputs": [],
      "name": "InvalidCrossMsgFromSubnet",
      "type": "error"
    },
    {
      "inputs": [],
      "name": "NotEnoughFee",
      "type": "error"
    },
    {
      "inputs": [],
      "name": "NotEnoughFunds",
      "type": "error"
    },
    {
      "inputs": [],
      "name": "NotRegisteredSubnet",
      "type": "error"
    },
    {
      "inputs": [
        {
          "internalType": "bytes32",
          "name": "msgCid",
          "type": "bytes32"
        }
      ],
      "name": "propagate",
      "outputs": [],
      "stateMutability": "payable",
      "type": "function"
    },
    {
      "inputs": [
        {
          "components": [
            {
              "components": [
                {
                  "components": [
                    {
                      "components": [
                        {
                          "internalType": "uint64",
                          "name": "root",
                          "type": "uint64"
                        },
                        {
                          "internalType": "address[]",
                          "name": "route",
                          "type": "address[]"
                        }
                      ],
                      "internalType": "struct SubnetID",
                      "name": "subnetId",
                      "type": "tuple"
                    },
                    {
                      "components": [
                        {
                          "internalType": "uint8",
                          "name": "addrType",
                          "type": "uint8"
                        },
                        {
                          "internalType": "bytes",
                          "name": "payload",
                          "type": "bytes"
                        }
                      ],
                      "internalType": "struct FvmAddress",
                      "name": "rawAddress",
                      "type": "tuple"
                    }
                  ],
                  "internalType": "struct IPCAddress",
                  "name": "from",
                  "type": "tuple"
                },
                {
                  "components": [
                    {
                      "components": [
                        {
                          "internalType": "uint64",
                          "name": "root",
                          "type": "uint64"
                        },
                        {
                          "internalType": "address[]",
                          "name": "route",
                          "type": "address[]"
                        }
                      ],
                      "internalType": "struct SubnetID",
                      "name": "subnetId",
                      "type": "tuple"
                    },
                    {
                      "components": [
                        {
                          "internalType": "uint8",
                          "name": "addrType",
                          "type": "uint8"
                        },
                        {
                          "internalType": "bytes",
                          "name": "payload",
                          "type": "bytes"
                        }
                      ],
                      "internalType": "struct FvmAddress",
                      "name": "rawAddress",
                      "type": "tuple"
                    }
                  ],
                  "internalType": "struct IPCAddress",
                  "name": "to",
                  "type": "tuple"
                },
                {
                  "internalType": "uint256",
                  "name": "value",
                  "type": "uint256"
                },
                {
                  "internalType": "uint64",
                  "name": "nonce",
                  "type": "uint64"
                },
                {
                  "internalType": "bytes4",
                  "name": "method",
                  "type": "bytes4"
                },
                {
                  "internalType": "bytes",
                  "name": "params",
                  "type": "bytes"
                }
              ],
              "internalType": "struct StorableMsg",
              "name": "message",
              "type": "tuple"
            },
            {
              "internalType": "bool",
              "name": "wrapped",
              "type": "bool"
            }
          ],
          "internalType": "struct CrossMsg",
          "name": "crossMsg",
          "type": "tuple"
        }
      ],
      "name": "sendCrossMessage",
      "outputs": [],
      "stateMutability": "payable",
      "type": "function"
    }
  ],
  "bytecode": {
    "object": "0x608060405234801561001057600080fd5b506122e7806100206000396000f3fe6080604052600436106100295760003560e01c806325bf0db61461002e5780632f757dd114610043575b600080fd5b61004161003c366004611806565b610056565b005b61004161005136600461181f565b61060c565b61005e6107de565b600081815260016020818152604080842081516101808101835281546001600160401b031661014082019081529482018054845181870281018701865281815293979687966103f19694958a95879590860194879486946101008901948794869486936101608d019392919083018282801561010357602002820191906000526020600020905b81546001600160a01b031681526001909101906020018083116100e5575b5050509190925250505081526040805180820190915260028301805460ff1682526003840180546020948501948401919061013d90611860565b80601f016020809104026020016040519081016040528092919081815260200182805461016990611860565b80156101b65780601f1061018b576101008083540402835291602001916101b6565b820191906000526020600020905b81548152906001019060200180831161019957829003601f168201915b505050919092525050509052508152604080516080810182526004840180546001600160401b031682840190815260058601805485516020828102820181019097528181529686019694959394869486936060870193909183018282801561024757602002820191906000526020600020905b81546001600160a01b03168152600190910190602001808311610229575b5050509190925250505081526040805180820190915260028301805460ff1682526003840180546020948501948401919061028190611860565b80601f01602080910402602001604051908101604052809291908181526020018280546102ad90611860565b80156102fa5780601f106102cf576101008083540402835291602001916102fa565b820191906000526020600020905b8154815290600101906020018083116102dd57829003601f168201915b5050509190925250505090525081526008820154602082015260098201546001600160401b0381166040830152600160401b900460e01b6001600160e01b0319166060820152600a8201805460809092019161035590611860565b80601f016020809104026020016040519081016040528092919081815260200182805461038190611860565b80156103ce5780601f106103a3576101008083540402835291602001916103ce565b820191906000526020600020905b8154815290600101906020018083116103b157829003601f168201915b505050919092525050508152600b919091015460ff161515602090910152610803565b60088501546040805180820182526004880180546001600160401b031682526005890180548451602082810282018101909652818152979950959750939560009592949193808601939192919083018282801561047757602002820191906000526020600020905b81546001600160a01b03168152600190910190602001808311610459575b50505091909252505060405163089032d560e01b815273__$a0fe38a9a81205afccc10810b09a4d3f45$__9263089032d592506104b991600890600401611970565b600060405180830381865af41580156104d6573d6000803e3d6000fd5b505050506040513d6000823e601f3d908101601f191682016040526104fe9190810190611a72565b60008781526001602081905260408220805467ffffffffffffffff1916815592935082908290829082908290829061053890830182611731565b505060028201805460ff1916815560006105556003850182611752565b5050505060048201805467ffffffffffffffff191681556000818161057d6005870182611731565b505060028201805460ff19168155600061059a6003850182611752565b50506000600885018190556009850180546001600160601b03191690556105c79250600a85019150611752565b505050600b01805460ff191690556105e182828686610b76565b600c546000906105f19034611b6d565b90508015610603576106033382610c17565b50505050505050565b6106146107de565b3461061f8280611b80565b604001351461064157604051631036b5ad60e31b815260040160405180910390fd5b61064b8180611b80565b6106559080611ba0565b61065f9080611ba0565b61066890611c7e565b60405163c836244d60e01b815273__$a0fe38a9a81205afccc10810b09a4d3f45$__9163c836244d916106a19190600890600401611970565b602060405180830381865af41580156106be573d6000803e3d6000fd5b505050506040513d601f19601f820116820180604052508101906106e29190611c98565b6106ff5760405163508847ab60e11b815260040160405180910390fd5b60008061071361070e84611dfe565b610803565b90925090506107d96107258480611b80565b604001356107338580611b80565b610741906020810190611ba0565b61074b9080611ba0565b61075490611c7e565b60405163089032d560e01b815273__$a0fe38a9a81205afccc10810b09a4d3f45$__9163089032d59161078d9190600890600401611970565b600060405180830381865af41580156107aa573d6000803e3d6000fd5b505050506040513d6000823e601f3d908101601f191682016040526107d29190810190611a72565b8484610b76565b505050565b600c54341015610801576040516334472ad760e11b815260040160405180910390fd5b565b80516020015151604051630c133d1360e31b8152600091829173__$a0fe38a9a81205afccc10810b09a4d3f45$__90636099e89890610846908490600401611efa565b602060405180830381865af4158015610863573d6000803e3d6000fd5b505050506040513d601f19601f820116820180604052508101906108879190611c98565b156108a55760405163c5f563eb60e01b815260040160405180910390fd5b60405163c836244d60e01b815273__$a0fe38a9a81205afccc10810b09a4d3f45$__9063c836244d906108df908490600890600401611970565b602060405180830381865af41580156108fc573d6000803e3d6000fd5b505050506040513d601f19601f820116820180604052508101906109209190611c98565b1561093e57604051632f3335ff60e21b815260040160405180910390fd5b835180515160405163f47ad7eb60e01b8152909160009173__$386b5c41ce93e8b832daf8008b3d30ae09$__9163f47ad7eb916109819190600890600401611fa3565b602060405180830381865af415801561099e573d6000803e3d6000fd5b505050506040513d601f19601f820116820180604052508101906109c29190612041565b9050600060018260018111156109da576109da612062565b03610adb57604051631ccc893360e11b815273__$a0fe38a9a81205afccc10810b09a4d3f45$__90633999126690610a189087908790600401612078565b600060405180830381865af4158015610a35573d6000803e3d6000fd5b505050506040513d6000823e601f3d908101601f19168201604052610a5d9190810190611a72565b60405163c836244d60e01b815273__$a0fe38a9a81205afccc10810b09a4d3f45$__9163c836244d91610a969190600890600401611970565b602060405180830381865af4158015610ab3573d6000803e3d6000fd5b505050506040513d601f19601f82011682018060405250810190610ad79190611c98565b1590505b8015610aff57610aea87610cac565b50509351604001511515946000945092505050565b6000826001811115610b1357610b13612062565b03610b5d57600e8054600890610b3890600160401b90046001600160401b031661209d565b91906101000a8154816001600160401b0302191690836001600160401b031602179055505b610b6687610ee0565b5060009660019650945050505050565b8115610b8757610b87606385610c17565b8015610c1157604051632cff562160e11b8152610c119073__$a0fe38a9a81205afccc10810b09a4d3f45$__906359feac4290610bc8908790600401611efa565b602060405180830381865af4158015610be5573d6000803e3d6000fd5b505050506040513d601f19601f82011682018060405250810190610c0991906120c3565b600c546111b4565b50505050565b80471015610c385760405163356680b760e01b815260040160405180910390fd5b6000826001600160a01b03168260405160006040518083038185875af1925050503d8060008114610c85576040519150601f19603f3d011682016040523d82523d6000602084013e610c8a565b606091505b50509050806107d957604051633204506f60e01b815260040160405180910390fd5b600080610cb7611211565b600e85015486516001600160401b03909116606090910152600c8501546003820180549295509093509150600090610cf09084906120e0565b90915550506004810180546001808201835560009283526020928390208651805180518051600c909602909301805467ffffffffffffffff19166001600160401b039096169590951785558286015180518a979395879593948694938593610d5f93850192919091019061178c565b505050602082810151805160028401805460ff191660ff909216919091178155918101519091906003840190610d959082612141565b505050506020838101518051805160048601805467ffffffffffffffff19166001600160401b03909216919091178155818401518051939550909391928492610de592600589019291019061178c565b505050602082810151805160028401805460ff191660ff909216919091178155918101519091906003840190610e1b9082612141565b5050505060408301516008830155506060820151600982018054608085015160e01c600160401b026001600160601b03199091166001600160401b039093169290921791909117905560a0820151600a820190610e789082612141565b50505060209190910151600b909101805460ff1916911515919091179055600e8201805460019190600090610eb79084906001600160401b0316612200565b92506101000a8154816001600160401b0302191690836001600160401b03160217905550505050565b8051602001515160405163089032d560e01b8152600091829173__$a0fe38a9a81205afccc10810b09a4d3f45$__9163089032d591610f259190600890600401611970565b600060405180830381865af4158015610f42573d6000803e3d6000fd5b505050506040513d6000823e601f3d908101601f19168201604052610f6a9190810190611a72565b9050600080610f7883611347565b9150915081610f9a57604051630e991abd60e41b815260040160405180910390fd5b60038101805486516001600160401b03909116606090910181905260019190600090610fc7908490612200565b92506101000a8154816001600160401b0302191690836001600160401b0316021790555084600001516040015181600201600082825461100791906120e0565b9091555050600e810180546001808201835560009283526020928390208851805180518051600c909602909301805467ffffffffffffffff19166001600160401b039096169590951785558286015180518c97939587959394869493859361107693850192919091019061178c565b505050602082810151805160028401805460ff191660ff9092169190911781559181015190919060038401906110ac9082612141565b505050506020838101518051805160048601805467ffffffffffffffff19166001600160401b039092169190911781558184015180519395509093919284926110fc92600589019291019061178c565b505050602082810151805160028401805460ff191660ff9092169190911781559181015190919060038401906111329082612141565b5050505060408301516008830155506060820151600982018054608085015160e01c600160401b026001600160601b03199091166001600160401b039093169290921791909117905560a0820151600a82019061118f9082612141565b50505060209190910151600b909101805460ff19169115159190911790555050505050565b806000036111c0575050565b6107d96111d5836001600160a01b03166114da565b6040516024810184905260440160408051601f198184030181529190526020810180516001600160e01b0316632a7edd8f60e21b179052611521565b600f546000908190819081906112319043906001600160401b031661153b565b6001600160401b03808216600090815260028401602090815260409182902082518084018452815490941684526001810180548451818502810185019095528085529598509096509293869385830193929091908301828280156112be57602002820191906000526020600020905b81546001600160a01b031681526001909101906020018083116112a0575b505050919092525050604051630c133d1360e31b815273__$a0fe38a9a81205afccc10810b09a4d3f45$__92636099e89892506112fd91600401611efa565b602060405180830381865af415801561131a573d6000803e3d6000fd5b505050506040513d601f19601f8201168201806040525081019061133e9190611c98565b15935050909192565b6040516390ba52cf60e01b8152600090819081908190819073__$a0fe38a9a81205afccc10810b09a4d3f45$__906390ba52cf90611389908990600401611efa565b602060405180830381865af41580156113a6573d6000803e3d6000fd5b505050506040513d601f19601f820116820180604052508101906113ca9190612227565b81526020808201929092526040908101600020815180830183526004820180546001600160401b03168252600583018054855181880281018801909652808652939750919490938582019390929183018282801561145157602002820191906000526020600020905b81546001600160a01b03168152600190910190602001808311611433575b505050919092525050604051630c133d1360e31b815273__$a0fe38a9a81205afccc10810b09a4d3f45$__92636099e898925061149091600401611efa565b602060405180830381865af41580156114ad573d6000803e3d6000fd5b505050506040513d601f19601f820116820180604052508101906114d19190611c98565b15925050915091565b60008060006114e88461155d565b91509150816114f957509192915050565b60008061150583611599565b9150915081611518575093949350505050565b95945050505050565b60606115328383600061160361161c565b90505b92915050565b6000816115488185612240565b611553906001612200565b6115329190612274565b60008073ffffffffffffffffffffffff0000000000000000831660ff60981b810361159357600192506001600160401b03841691505b50915091565b600080826000526016600a602060006002607f60991b015afa9150600051806001600160a01b031691508060a01c61ffff16905061040a81146115df5760009250600091505b508115806115ee57503d601614155b156115fe57506000928392509050565b915091565b604051630a12f52160e11b815260040160405180910390fd5b6060824710156116465760405163cd78605960e01b81523060048201526024015b60405180910390fd5b600080866001600160a01b03168587604051611662919061229f565b60006040518083038185875af1925050503d806000811461169f576040519150601f19603f3d011682016040523d82523d6000602084013e6116a4565b606091505b50915091506116b5878383876116c2565b925050505b949350505050565b6060831561171057825160000361170957846001600160a01b03163b60000361170957604051639996b31560e01b81526001600160a01b038616600482015260240161163d565b50816116ba565b6116ba83838151156117255781518083602001fd5b6116038163ffffffff16565b508054600082559060005260206000209081019061174f91906117f1565b50565b50805461175e90611860565b6000825580601f1061176e575050565b601f01602090049060005260206000209081019061174f91906117f1565b8280548282559060005260206000209081019282156117e1579160200282015b828111156117e157825182546001600160a01b0319166001600160a01b039091161782556020909201916001909101906117ac565b506117ed9291506117f1565b5090565b5b808211156117ed57600081556001016117f2565b60006020828403121561181857600080fd5b5035919050565b60006020828403121561183157600080fd5b81356001600160401b0381111561184757600080fd5b82016040818503121561185957600080fd5b9392505050565b600181811c9082168061187457607f821691505b60208210810361189457634e487b7160e01b600052602260045260246000fd5b50919050565b6000604083016001600160401b0383511684526020808401516040828701528281518085526060880191508383019450600092505b808310156118f85784516001600160a01b031682529383019360019290920191908301906118cf565b509695505050505050565b6000604083016001600160401b0383541684526001808401602060408188015283825480865260608901915083600052826000209550600093505b808410156119645785546001600160a01b0316825294840194928401929082019061193e565b50979650505050505050565b604081526000611983604083018561189a565b82810360208401526115188185611903565b634e487b7160e01b600052604160045260246000fd5b604080519081016001600160401b03811182821017156119cd576119cd611995565b60405290565b60405160c081016001600160401b03811182821017156119cd576119cd611995565b604051601f8201601f191681016001600160401b0381118282101715611a1d57611a1d611995565b604052919050565b6001600160401b038116811461174f57600080fd5b60006001600160401b03821115611a5357611a53611995565b5060051b60200190565b6001600160a01b038116811461174f57600080fd5b60006020808385031215611a8557600080fd5b82516001600160401b0380821115611a9c57600080fd5b9084019060408287031215611ab057600080fd5b611ab86119ab565b8251611ac381611a25565b81528284015182811115611ad657600080fd5b80840193505086601f840112611aeb57600080fd5b82519150611b00611afb83611a3a565b6119f5565b82815260059290921b83018401918481019088841115611b1f57600080fd5b938501935b83851015611b46578451611b3781611a5d565b82529385019390850190611b24565b948201949094529695505050505050565b634e487b7160e01b600052601160045260246000fd5b8181038181111561153557611535611b57565b6000823560be19833603018112611b9657600080fd5b9190910192915050565b60008235603e19833603018112611b9657600080fd5b8035611bc181611a25565b919050565b600060408284031215611bd857600080fd5b611be06119ab565b90508135611bed81611a25565b81526020828101356001600160401b03811115611c0957600080fd5b8301601f81018513611c1a57600080fd5b8035611c28611afb82611a3a565b81815260059190911b82018301908381019087831115611c4757600080fd5b928401925b82841015611c6e578335611c5f81611a5d565b82529284019290840190611c4c565b8085870152505050505092915050565b60006115353683611bc6565b801515811461174f57600080fd5b600060208284031215611caa57600080fd5b815161185981611c8a565b600082601f830112611cc657600080fd5b81356001600160401b03811115611cdf57611cdf611995565b611cf2601f8201601f19166020016119f5565b818152846020838601011115611d0757600080fd5b816020850160208301376000918101602001919091529392505050565b600060408284031215611d3657600080fd5b611d3e6119ab565b905081356001600160401b0380821115611d5757600080fd5b611d6385838601611bc6565b83526020840135915080821115611d7957600080fd5b9083019060408286031215611d8d57600080fd5b611d956119ab565b823560ff81168114611da657600080fd5b8152602083013582811115611dba57600080fd5b611dc687828601611cb5565b60208301525080602085015250505092915050565b80356001600160e01b031981168114611bc157600080fd5b8035611bc181611c8a565b600060408236031215611e1057600080fd5b611e186119ab565b82356001600160401b0380821115611e2f57600080fd5b818501915060c08236031215611e4457600080fd5b611e4c6119d3565b823582811115611e5b57600080fd5b611e6736828601611d24565b825250602083013582811115611e7c57600080fd5b611e8836828601611d24565b60208301525060408301356040820152611ea460608401611bb6565b6060820152611eb560808401611ddb565b608082015260a083013582811115611ecc57600080fd5b611ed836828601611cb5565b60a083015250835250611eef905060208401611df3565b602082015292915050565b602081526000611532602083018461189a565b60005b83811015611f28578181015183820152602001611f10565b50506000910152565b60008151808452611f49816020860160208601611f0d565b601f01601f19169290920160200192915050565b6000815160408452611f72604085018261189a565b90506020830151848203602086015260ff815116825260208101519050604060208301526115186040830182611f31565b604081526000835160c06040840152611fc0610100840182611f5d565b90506020850151603f1980858403016060860152611fde8383611f5d565b9250604087015160808601526001600160401b0360608801511660a086015263ffffffff60e01b60808801511660c086015260a08701519150808584030160e08601525061202c8282611f31565b91505082810360208401526115188185611903565b60006020828403121561205357600080fd5b81516002811061185957600080fd5b634e487b7160e01b600052602160045260246000fd5b60408152600061208b604083018561189a565b8281036020840152611518818561189a565b60006001600160401b038083168181036120b9576120b9611b57565b6001019392505050565b6000602082840312156120d557600080fd5b815161185981611a5d565b8082018082111561153557611535611b57565b601f8211156107d957600081815260208120601f850160051c8101602086101561211a5750805b601f850160051c820191505b8181101561213957828155600101612126565b505050505050565b81516001600160401b0381111561215a5761215a611995565b61216e816121688454611860565b846120f3565b602080601f8311600181146121a3576000841561218b5750858301515b600019600386901b1c1916600185901b178555612139565b600085815260208120601f198616915b828110156121d2578886015182559484019460019091019084016121b3565b50858210156121f05787850151600019600388901b60f8161c191681555b5050505050600190811b01905550565b6001600160401b0381811683821601908082111561222057612220611b57565b5092915050565b60006020828403121561223957600080fd5b5051919050565b60006001600160401b038084168061226857634e487b7160e01b600052601260045260246000fd5b92169190910492915050565b6001600160401b0381811683821602808216919082811461229757612297611b57565b505092915050565b60008251611b96818460208701611f0d56fea264697066735822122038e6b35b9a44121dfd7b5e6a2a56bf771548889a47dd742520763afbd80b2f1d64736f6c63430008130033",
    "linkReferences": {
      "src/lib/StorableMsgHelper.sol": {
        "StorableMsgHelper": [
          {
            "start": 2423,
            "length": 20
          }
        ]
      },
      "src/lib/SubnetIDHelper.sol": {
        "SubnetIDHelper": [
          {
            "start": 1199,
            "length": 20
          },
          {
            "start": 1687,
            "length": 20
          },
          {
            "start": 1923,
            "length": 20
          },
          {
            "start": 2110,
            "length": 20
          },
          {
            "start": 2260,
            "length": 20
          },
          {
            "start": 2574,
            "length": 20
          },
          {
            "start": 2700,
            "length": 20
          },
          {
            "start": 3008,
            "length": 20
          },
          {
            "start": 3867,
            "length": 20
          },
          {
            "start": 4854,
            "length": 20
          },
          {
            "start": 4993,
            "length": 20
          },
          {
            "start": 5257,
            "length": 20
          }
        ]
      }
    }
  },
  "methodIdentifiers": {
    "propagate(bytes32)": "25bf0db6",
    "sendCrossMessage(((((uint64,address[]),(uint8,bytes)),((uint64,address[]),(uint8,bytes)),uint256,uint64,bytes4,bytes),bool))": "2f757dd1"
  },
  "id": 36
}