{
  "abi": [
    {
      "inputs": [
        {
          "internalType": "address",
          "name": "a",
          "type": "address"
        }
      ],
      "name": "accumulatedRewards",
      "outputs": [
        {
          "internalType": "uint256",
          "name": "",
          "type": "uint256"
        }
      ],
      "stateMutability": "view",
      "type": "function"
    },
    {
      "inputs": [],
      "name": "bottomUpCheckPeriod",
      "outputs": [
        {
          "internalType": "uint64",
          "name": "",
          "type": "uint64"
        }
      ],
      "stateMutability": "view",
      "type": "function"
    },
    {
      "inputs": [],
      "name": "consensus",
      "outputs": [
        {
          "internalType": "enum ConsensusType",
          "name": "",
          "type": "uint8"
        }
      ],
      "stateMutability": "view",
      "type": "function"
    },
    {
      "inputs": [],
      "name": "executableQueue",
      "outputs": [
        {
          "internalType": "uint64",
          "name": "",
          "type": "uint64"
        },
        {
          "internalType": "uint64",
          "name": "",
          "type": "uint64"
        },
        {
          "internalType": "uint64",
          "name": "",
          "type": "uint64"
        }
      ],
      "stateMutability": "view",
      "type": "function"
    },
    {
      "inputs": [],
      "name": "genesis",
      "outputs": [
        {
          "internalType": "bytes",
          "name": "",
          "type": "bytes"
        }
      ],
      "stateMutability": "view",
      "type": "function"
    },
    {
      "inputs": [],
      "name": "getParent",
      "outputs": [
        {
          "components": [
            {
              "internalType": "uint64",
              "name": "root",
              "type": "uint64"
            },
            {
              "internalType": "address[]",
              "name": "route",
              "type": "address[]"
            }
          ],
          "internalType": "struct SubnetID",
          "name": "",
          "type": "tuple"
        }
      ],
      "stateMutability": "view",
      "type": "function"
    },
    {
      "inputs": [],
      "name": "getValidatorSet",
      "outputs": [
        {
          "components": [
            {
              "components": [
                {
                  "internalType": "address",
                  "name": "addr",
                  "type": "address"
                },
                {
                  "internalType": "uint256",
                  "name": "weight",
                  "type": "uint256"
                },
                {
                  "components": [
                    {
                      "internalType": "uint8",
                      "name": "addrType",
                      "type": "uint8"
                    },
                    {
                      "internalType": "bytes",
                      "name": "payload",
                      "type": "bytes"
                    }
                  ],
                  "internalType": "struct FvmAddress",
                  "name": "workerAddr",
                  "type": "tuple"
                },
                {
                  "internalType": "string",
                  "name": "netAddresses",
                  "type": "string"
                }
              ],
              "internalType": "struct ValidatorInfo[]",
              "name": "validators",
              "type": "tuple[]"
            },
            {
              "internalType": "uint64",
              "name": "configurationNumber",
              "type": "uint64"
            }
          ],
          "internalType": "struct ValidatorSet",
          "name": "",
          "type": "tuple"
        }
      ],
      "stateMutability": "view",
      "type": "function"
    },
    {
      "inputs": [],
      "name": "getValidators",
      "outputs": [
        {
          "internalType": "address[]",
          "name": "",
          "type": "address[]"
        }
      ],
      "stateMutability": "view",
      "type": "function"
    },
    {
      "inputs": [],
      "name": "ipcGatewayAddr",
      "outputs": [
        {
          "internalType": "address",
          "name": "",
          "type": "address"
        }
      ],
      "stateMutability": "view",
      "type": "function"
    },
    {
      "inputs": [],
      "name": "lastVotingExecutedEpoch",
      "outputs": [
        {
          "internalType": "uint64",
          "name": "",
          "type": "uint64"
        }
      ],
      "stateMutability": "view",
      "type": "function"
    },
    {
      "inputs": [],
      "name": "majorityPercentage",
      "outputs": [
        {
          "internalType": "uint64",
          "name": "",
          "type": "uint64"
        }
      ],
      "stateMutability": "view",
      "type": "function"
    },
    {
      "inputs": [],
      "name": "minActivationCollateral",
      "outputs": [
        {
          "internalType": "uint256",
          "name": "",
          "type": "uint256"
        }
      ],
      "stateMutability": "view",
      "type": "function"
    },
    {
      "inputs": [],
      "name": "minValidators",
      "outputs": [
        {
          "internalType": "uint64",
          "name": "",
          "type": "uint64"
        }
      ],
      "stateMutability": "view",
      "type": "function"
    },
    {
      "inputs": [],
      "name": "name",
      "outputs": [
        {
          "internalType": "bytes32",
          "name": "",
          "type": "bytes32"
        }
      ],
      "stateMutability": "view",
      "type": "function"
    },
    {
      "inputs": [],
      "name": "prevExecutedCheckpointHash",
      "outputs": [
        {
          "internalType": "bytes32",
          "name": "",
          "type": "bytes32"
        }
      ],
      "stateMutability": "view",
      "type": "function"
    },
    {
      "inputs": [
        {
          "internalType": "address",
          "name": "a",
          "type": "address"
        }
      ],
      "name": "stake",
      "outputs": [
        {
          "internalType": "uint256",
          "name": "",
          "type": "uint256"
        }
      ],
      "stateMutability": "view",
      "type": "function"
    },
    {
      "inputs": [],
      "name": "status",
      "outputs": [
        {
          "internalType": "enum Status",
          "name": "",
          "type": "uint8"
        }
      ],
      "stateMutability": "view",
      "type": "function"
    },
    {
      "inputs": [],
      "name": "topDownCheckPeriod",
      "outputs": [
        {
          "internalType": "uint64",
          "name": "",
          "type": "uint64"
        }
      ],
      "stateMutability": "view",
      "type": "function"
    },
    {
      "inputs": [],
      "name": "totalStake",
      "outputs": [
        {
          "internalType": "uint256",
          "name": "",
          "type": "uint256"
        }
      ],
      "stateMutability": "view",
      "type": "function"
    },
    {
      "inputs": [
        {
          "internalType": "uint256",
          "name": "index",
          "type": "uint256"
        }
      ],
      "name": "validatorAt",
      "outputs": [
        {
          "internalType": "address",
          "name": "",
          "type": "address"
        }
      ],
      "stateMutability": "view",
      "type": "function"
    },
    {
      "inputs": [],
      "name": "validatorCount",
      "outputs": [
        {
          "internalType": "uint256",
          "name": "",
          "type": "uint256"
        }
      ],
      "stateMutability": "view",
      "type": "function"
    }
  ],
  "bytecode": {
    "object": "0x608060405234801561001057600080fd5b50610c29806100206000396000f3fe608060405234801561001057600080fd5b50600436106101375760003560e01c80637d9740f4116100b8578063a7f0b3de1161007c578063a7f0b3de146102d9578063ad81e244146102ee578063b7ab4db5146102f6578063c5ab22411461030b578063cf3312501461031c578063cfca28241461033157600080fd5b80637d9740f41461028957806380f760211461029a5780638b0e9f3f146102af5780638ef3f761146102b75780639e33bd02146102d157600080fd5b806326476204116100ff57806326476204146101d357806332e0aa1f146101fc578063599c7bd1146102275780635f832dbf1461025857806373f273fc1461026057600080fd5b806306c468531461013c57806306fdde031461016d5780630f43a6771461017f57806310d500e114610187578063200d2ed2146101b9575b600080fd5b600e54600160401b90046001600160401b03165b6040516001600160401b0390911681526020015b60405180910390f35b6010545b604051908152602001610164565b610171610342565b61018f610353565b604080516001600160401b0394851681529284166020840152921691810191909152606001610164565b600154600160401b900460ff166040516101649190610912565b6101716101e136600461092c565b6001600160a01b031660009081526007602052604090205490565b61020f61020a366004610955565b6103b2565b6040516001600160a01b039091168152602001610164565b7f283d1424c49941ba61504663c7a1b6f59e6bbb963a00bcc130bcbf9c29e1e27054600160801b900460ff16610150565b600254610171565b61017161026e36600461092c565b6001600160a01b031660009081526008602052604090205490565b600e546001600160401b0316610150565b6102a26103c5565b604051610164919061096e565b600054610171565b600e54600160801b900460ff1660405161016491906109d8565b601354610171565b6102e161045a565b6040516101649190610a32565b6101506104ef565b6102fe610522565b6040516101649190610a45565b6012546001600160401b0316610150565b6103246105c7565b6040516101649190610a92565b600f546001600160a01b031661020f565b600061034e60046108b5565b905090565b60008060006103a77f283d1424c49941ba61504663c7a1b6f59e6bbb963a00bcc130bcbf9c29e1e27154600160401b81046001600160401b0390811692600160801b8304821692600160c01b900490911690565b925092509250909192565b60006103bf6004836108bf565b92915050565b604080518082019091526000815260606020820152604080518082018252600b80546001600160401b03168252600c8054845160208281028201810190965281815293949293838601939092919083018282801561044c57602002820191906000526020600020905b81546001600160a01b0316815260019091019060200180831161042e575b505050505081525050905090565b60606000600d01805461046c90610b66565b80601f016020809104026020016040519081016040528092919081815260200182805461049890610b66565b80156104e55780601f106104ba576101008083540402835291602001916104e5565b820191906000526020600020905b8154815290600101906020018083116104c857829003601f168201915b5050505050905090565b600061034e7f283d1424c49941ba61504663c7a1b6f59e6bbb963a00bcc130bcbf9c29e1e270546001600160401b031690565b6060600061053060046108b5565b90506000816001600160401b0381111561054c5761054c610ba0565b604051908082528060200260200182016040528015610575578160200160208202803683370190505b50905060005b828110156105c05761058e6004826108bf565b8282815181106105a0576105a0610bb6565b6001600160a01b039092166020928302919091019091015260010161057b565b5092915050565b60408051808201909152606081526000602082015260006105e860046108b5565b90506000816001600160401b0381111561060457610604610ba0565b60405190808252806020026020018201604052801561066957816020015b604080516080810182526000808252602080830182905283518085018552918252606090820181905292820152818101919091528152602001906001900390816106225790505b50905060005b828110156108905760408051608081019091528061068e6004846108bf565b6001600160a01b03168152602001600760006106ab6004866108bf565b6001600160a01b031681526020808201929092526040016000908120548352910190600a906106db6004866108bf565b6001600160a01b0316815260208082019290925260409081016000208151808301909252805460ff168252600181018054929391929184019161071d90610b66565b80601f016020809104026020016040519081016040528092919081815260200182805461074990610b66565b80156107965780601f1061076b57610100808354040283529160200191610796565b820191906000526020600020905b81548152906001019060200180831161077957829003601f168201915b505050919092525050508152602001600960006107b46004866108bf565b6001600160a01b03166001600160a01b0316815260200190815260200160002080546107df90610b66565b80601f016020809104026020016040519081016040528092919081815260200182805461080b90610b66565b80156108585780601f1061082d57610100808354040283529160200191610858565b820191906000526020600020905b81548152906001019060200180831161083b57829003601f168201915b505050505081525082828151811061087257610872610bb6565b6020026020010181905250808061088890610bcc565b91505061066f565b50604080518082019091529081526001546001600160401b0316602082015292915050565b60006103bf825490565b60006108cb83836108d2565b9392505050565b60008260000182815481106108e9576108e9610bb6565b9060005260206000200154905092915050565b634e487b7160e01b600052602160045260246000fd5b6020810160068310610926576109266108fc565b91905290565b60006020828403121561093e57600080fd5b81356001600160a01b03811681146108cb57600080fd5b60006020828403121561096757600080fd5b5035919050565b602080825282516001600160401b0316828201528281015160408084015280516060840181905260009291820190839060808601905b808310156109cd5783516001600160a01b031682529284019260019290920191908401906109a4565b509695505050505050565b6020810160018310610926576109266108fc565b6000815180845260005b81811015610a12576020818501810151868301820152016109f6565b506000602082860101526020601f19601f83011685010191505092915050565b6020815260006108cb60208301846109ec565b6020808252825182820181905260009190848201906040850190845b81811015610a865783516001600160a01b031683529284019291840191600101610a61565b50909695505050505050565b600060208083526060808401855160408085880152828251808552608094508489019150848160051b8a0101878501945060005b82811015610b44578a8203607f19018452855180516001600160a01b03168352898101518a84015285810151868401899052805160ff16898501528a015160a08401879052610b1860c08501826109ec565b918a0151848303858c0152919050610b3081836109ec565b978b0197958b019593505050600101610ac6565b50968a01516001600160401b038116848b0152969a9950505050505050505050565b600181811c90821680610b7a57607f821691505b602082108103610b9a57634e487b7160e01b600052602260045260246000fd5b50919050565b634e487b7160e01b600052604160045260246000fd5b634e487b7160e01b600052603260045260246000fd5b600060018201610bec57634e487b7160e01b600052601160045260246000fd5b506001019056fea2646970667358221220ba94d63e1e7f33b2548b5c1df13bc869e9d65a517df8b6f576b78a4a4ff435ac64736f6c63430008130033",
    "linkReferences": {}
  },
  "methodIdentifiers": {
    "accumulatedRewards(address)": "73f273fc",
    "bottomUpCheckPeriod()": "06c46853",
    "consensus()": "8ef3f761",
    "executableQueue()": "10d500e1",
    "genesis()": "a7f0b3de",
    "getParent()": "80f76021",
    "getValidatorSet()": "cf331250",
    "getValidators()": "b7ab4db5",
    "ipcGatewayAddr()": "cfca2824",
    "lastVotingExecutedEpoch()": "ad81e244",
    "majorityPercentage()": "599c7bd1",
    "minActivationCollateral()": "9e33bd02",
    "minValidators()": "c5ab2241",
    "name()": "06fdde03",
    "prevExecutedCheckpointHash()": "5f832dbf",
    "stake(address)": "26476204",
    "status()": "200d2ed2",
    "topDownCheckPeriod()": "7d9740f4",
    "totalStake()": "8b0e9f3f",
    "validatorAt(uint256)": "32e0aa1f",
    "validatorCount()": "0f43a677"
  },
  "id": 62
}