{
  "abi": [
    {
      "inputs": [
        {
          "internalType": "address",
          "name": "a",
          "type": "address"
        }
      ],
      "name": "accumulatedRewards",
      "outputs": [
        {
          "internalType": "uint256",
          "name": "",
          "type": "uint256"
        }
      ],
      "stateMutability": "view",
      "type": "function"
    },
    {
      "inputs": [],
      "name": "bottomUpCheckPeriod",
      "outputs": [
        {
          "internalType": "uint64",
          "name": "",
          "type": "uint64"
        }
      ],
      "stateMutability": "view",
      "type": "function"
    },
    {
      "inputs": [
        {
          "internalType": "uint64",
          "name": "epoch",
          "type": "uint64"
        }
      ],
      "name": "bottomUpCheckpointAtEpoch",
      "outputs": [
        {
          "internalType": "bool",
          "name": "exists",
          "type": "bool"
        },
        {
          "components": [
            {
              "components": [
                {
                  "internalType": "uint64",
                  "name": "root",
                  "type": "uint64"
                },
                {
                  "internalType": "address[]",
                  "name": "route",
                  "type": "address[]"
                }
              ],
              "internalType": "struct SubnetID",
              "name": "source",
              "type": "tuple"
            },
            {
              "internalType": "uint64",
              "name": "epoch",
              "type": "uint64"
            },
            {
              "internalType": "uint256",
              "name": "fee",
              "type": "uint256"
            },
            {
              "components": [
                {
                  "components": [
                    {
                      "components": [
                        {
                          "components": [
                            {
                              "internalType": "uint64",
                              "name": "root",
                              "type": "uint64"
                            },
                            {
                              "internalType": "address[]",
                              "name": "route",
                              "type": "address[]"
                            }
                          ],
                          "internalType": "struct SubnetID",
                          "name": "subnetId",
                          "type": "tuple"
                        },
                        {
                          "components": [
                            {
                              "internalType": "uint8",
                              "name": "addrType",
                              "type": "uint8"
                            },
                            {
                              "internalType": "bytes",
                              "name": "payload",
                              "type": "bytes"
                            }
                          ],
                          "internalType": "struct FvmAddress",
                          "name": "rawAddress",
                          "type": "tuple"
                        }
                      ],
                      "internalType": "struct IPCAddress",
                      "name": "from",
                      "type": "tuple"
                    },
                    {
                      "components": [
                        {
                          "components": [
                            {
                              "internalType": "uint64",
                              "name": "root",
                              "type": "uint64"
                            },
                            {
                              "internalType": "address[]",
                              "name": "route",
                              "type": "address[]"
                            }
                          ],
                          "internalType": "struct SubnetID",
                          "name": "subnetId",
                          "type": "tuple"
                        },
                        {
                          "components": [
                            {
                              "internalType": "uint8",
                              "name": "addrType",
                              "type": "uint8"
                            },
                            {
                              "internalType": "bytes",
                              "name": "payload",
                              "type": "bytes"
                            }
                          ],
                          "internalType": "struct FvmAddress",
                          "name": "rawAddress",
                          "type": "tuple"
                        }
                      ],
                      "internalType": "struct IPCAddress",
                      "name": "to",
                      "type": "tuple"
                    },
                    {
                      "internalType": "uint256",
                      "name": "value",
                      "type": "uint256"
                    },
                    {
                      "internalType": "uint64",
                      "name": "nonce",
                      "type": "uint64"
                    },
                    {
                      "internalType": "bytes4",
                      "name": "method",
                      "type": "bytes4"
                    },
                    {
                      "internalType": "bytes",
                      "name": "params",
                      "type": "bytes"
                    }
                  ],
                  "internalType": "struct StorableMsg",
                  "name": "message",
                  "type": "tuple"
                },
                {
                  "internalType": "bool",
                  "name": "wrapped",
                  "type": "bool"
                }
              ],
              "internalType": "struct CrossMsg[]",
              "name": "crossMsgs",
              "type": "tuple[]"
            },
            {
              "components": [
                {
                  "components": [
                    {
                      "internalType": "uint64",
                      "name": "root",
                      "type": "uint64"
                    },
                    {
                      "internalType": "address[]",
                      "name": "route",
                      "type": "address[]"
                    }
                  ],
                  "internalType": "struct SubnetID",
                  "name": "source",
                  "type": "tuple"
                },
                {
                  "internalType": "bytes32[]",
                  "name": "checks",
                  "type": "bytes32[]"
                }
              ],
              "internalType": "struct ChildCheck[]",
              "name": "children",
              "type": "tuple[]"
            },
            {
              "internalType": "bytes32",
              "name": "prevHash",
              "type": "bytes32"
            },
            {
              "internalType": "bytes",
              "name": "proof",
              "type": "bytes"
            }
          ],
          "internalType": "struct BottomUpCheckpoint",
          "name": "checkpoint",
          "type": "tuple"
        }
      ],
      "stateMutability": "view",
      "type": "function"
    },
    {
      "inputs": [
        {
          "internalType": "uint64",
          "name": "epoch",
          "type": "uint64"
        }
      ],
      "name": "bottomUpCheckpointHashAtEpoch",
      "outputs": [
        {
          "internalType": "bool",
          "name": "",
          "type": "bool"
        },
        {
          "internalType": "bytes32",
          "name": "",
          "type": "bytes32"
        }
      ],
      "stateMutability": "view",
      "type": "function"
    },
    {
      "inputs": [],
      "name": "consensus",
      "outputs": [
        {
          "internalType": "enum ConsensusType",
          "name": "",
          "type": "uint8"
        }
      ],
      "stateMutability": "view",
      "type": "function"
    },
    {
      "inputs": [],
      "name": "executableQueue",
      "outputs": [
        {
          "internalType": "uint64",
          "name": "",
          "type": "uint64"
        },
        {
          "internalType": "uint64",
          "name": "",
          "type": "uint64"
        },
        {
          "internalType": "uint64",
          "name": "",
          "type": "uint64"
        }
      ],
      "stateMutability": "view",
      "type": "function"
    },
    {
      "inputs": [],
      "name": "genesis",
      "outputs": [
        {
          "internalType": "bytes",
          "name": "",
          "type": "bytes"
        }
      ],
      "stateMutability": "view",
      "type": "function"
    },
    {
      "inputs": [],
      "name": "getParent",
      "outputs": [
        {
          "components": [
            {
              "internalType": "uint64",
              "name": "root",
              "type": "uint64"
            },
            {
              "internalType": "address[]",
              "name": "route",
              "type": "address[]"
            }
          ],
          "internalType": "struct SubnetID",
          "name": "",
          "type": "tuple"
        }
      ],
      "stateMutability": "view",
      "type": "function"
    },
    {
      "inputs": [],
      "name": "getValidatorSet",
      "outputs": [
        {
          "components": [
            {
              "components": [
                {
                  "internalType": "address",
                  "name": "addr",
                  "type": "address"
                },
                {
                  "internalType": "uint256",
                  "name": "weight",
                  "type": "uint256"
                },
                {
                  "components": [
                    {
                      "internalType": "uint8",
                      "name": "addrType",
                      "type": "uint8"
                    },
                    {
                      "internalType": "bytes",
                      "name": "payload",
                      "type": "bytes"
                    }
                  ],
                  "internalType": "struct FvmAddress",
                  "name": "workerAddr",
                  "type": "tuple"
                },
                {
                  "internalType": "string",
                  "name": "netAddresses",
                  "type": "string"
                }
              ],
              "internalType": "struct ValidatorInfo[]",
              "name": "validators",
              "type": "tuple[]"
            },
            {
              "internalType": "uint64",
              "name": "configurationNumber",
              "type": "uint64"
            }
          ],
          "internalType": "struct ValidatorSet",
          "name": "",
          "type": "tuple"
        }
      ],
      "stateMutability": "view",
      "type": "function"
    },
    {
      "inputs": [],
      "name": "getValidators",
      "outputs": [
        {
          "internalType": "address[]",
          "name": "",
          "type": "address[]"
        }
      ],
      "stateMutability": "view",
      "type": "function"
    },
    {
      "inputs": [],
      "name": "ipcGatewayAddr",
      "outputs": [
        {
          "internalType": "address",
          "name": "",
          "type": "address"
        }
      ],
      "stateMutability": "view",
      "type": "function"
    },
    {
      "inputs": [],
      "name": "lastVotingExecutedEpoch",
      "outputs": [
        {
          "internalType": "uint64",
          "name": "",
          "type": "uint64"
        }
      ],
      "stateMutability": "view",
      "type": "function"
    },
    {
      "inputs": [
        {
          "internalType": "uint64",
          "name": "fromEpoch",
          "type": "uint64"
        },
        {
          "internalType": "uint64",
          "name": "toEpoch",
          "type": "uint64"
        }
      ],
      "name": "listBottomUpCheckpoints",
      "outputs": [
        {
          "components": [
            {
              "components": [
                {
                  "internalType": "uint64",
                  "name": "root",
                  "type": "uint64"
                },
                {
                  "internalType": "address[]",
                  "name": "route",
                  "type": "address[]"
                }
              ],
              "internalType": "struct SubnetID",
              "name": "source",
              "type": "tuple"
            },
            {
              "internalType": "uint64",
              "name": "epoch",
              "type": "uint64"
            },
            {
              "internalType": "uint256",
              "name": "fee",
              "type": "uint256"
            },
            {
              "components": [
                {
                  "components": [
                    {
                      "components": [
                        {
                          "components": [
                            {
                              "internalType": "uint64",
                              "name": "root",
                              "type": "uint64"
                            },
                            {
                              "internalType": "address[]",
                              "name": "route",
                              "type": "address[]"
                            }
                          ],
                          "internalType": "struct SubnetID",
                          "name": "subnetId",
                          "type": "tuple"
                        },
                        {
                          "components": [
                            {
                              "internalType": "uint8",
                              "name": "addrType",
                              "type": "uint8"
                            },
                            {
                              "internalType": "bytes",
                              "name": "payload",
                              "type": "bytes"
                            }
                          ],
                          "internalType": "struct FvmAddress",
                          "name": "rawAddress",
                          "type": "tuple"
                        }
                      ],
                      "internalType": "struct IPCAddress",
                      "name": "from",
                      "type": "tuple"
                    },
                    {
                      "components": [
                        {
                          "components": [
                            {
                              "internalType": "uint64",
                              "name": "root",
                              "type": "uint64"
                            },
                            {
                              "internalType": "address[]",
                              "name": "route",
                              "type": "address[]"
                            }
                          ],
                          "internalType": "struct SubnetID",
                          "name": "subnetId",
                          "type": "tuple"
                        },
                        {
                          "components": [
                            {
                              "internalType": "uint8",
                              "name": "addrType",
                              "type": "uint8"
                            },
                            {
                              "internalType": "bytes",
                              "name": "payload",
                              "type": "bytes"
                            }
                          ],
                          "internalType": "struct FvmAddress",
                          "name": "rawAddress",
                          "type": "tuple"
                        }
                      ],
                      "internalType": "struct IPCAddress",
                      "name": "to",
                      "type": "tuple"
                    },
                    {
                      "internalType": "uint256",
                      "name": "value",
                      "type": "uint256"
                    },
                    {
                      "internalType": "uint64",
                      "name": "nonce",
                      "type": "uint64"
                    },
                    {
                      "internalType": "bytes4",
                      "name": "method",
                      "type": "bytes4"
                    },
                    {
                      "internalType": "bytes",
                      "name": "params",
                      "type": "bytes"
                    }
                  ],
                  "internalType": "struct StorableMsg",
                  "name": "message",
                  "type": "tuple"
                },
                {
                  "internalType": "bool",
                  "name": "wrapped",
                  "type": "bool"
                }
              ],
              "internalType": "struct CrossMsg[]",
              "name": "crossMsgs",
              "type": "tuple[]"
            },
            {
              "components": [
                {
                  "components": [
                    {
                      "internalType": "uint64",
                      "name": "root",
                      "type": "uint64"
                    },
                    {
                      "internalType": "address[]",
                      "name": "route",
                      "type": "address[]"
                    }
                  ],
                  "internalType": "struct SubnetID",
                  "name": "source",
                  "type": "tuple"
                },
                {
                  "internalType": "bytes32[]",
                  "name": "checks",
                  "type": "bytes32[]"
                }
              ],
              "internalType": "struct ChildCheck[]",
              "name": "children",
              "type": "tuple[]"
            },
            {
              "internalType": "bytes32",
              "name": "prevHash",
              "type": "bytes32"
            },
            {
              "internalType": "bytes",
              "name": "proof",
              "type": "bytes"
            }
          ],
          "internalType": "struct BottomUpCheckpoint[]",
          "name": "",
          "type": "tuple[]"
        }
      ],
      "stateMutability": "view",
      "type": "function"
    },
    {
      "inputs": [],
      "name": "majorityPercentage",
      "outputs": [
        {
          "internalType": "uint64",
          "name": "",
          "type": "uint64"
        }
      ],
      "stateMutability": "view",
      "type": "function"
    },
    {
      "inputs": [],
      "name": "minActivationCollateral",
      "outputs": [
        {
          "internalType": "uint256",
          "name": "",
          "type": "uint256"
        }
      ],
      "stateMutability": "view",
      "type": "function"
    },
    {
      "inputs": [],
      "name": "minValidators",
      "outputs": [
        {
          "internalType": "uint64",
          "name": "",
          "type": "uint64"
        }
      ],
      "stateMutability": "view",
      "type": "function"
    },
    {
      "inputs": [],
      "name": "name",
      "outputs": [
        {
          "internalType": "bytes32",
          "name": "",
          "type": "bytes32"
        }
      ],
      "stateMutability": "view",
      "type": "function"
    },
    {
      "inputs": [],
      "name": "prevExecutedCheckpointHash",
      "outputs": [
        {
          "internalType": "bytes32",
          "name": "",
          "type": "bytes32"
        }
      ],
      "stateMutability": "view",
      "type": "function"
    },
    {
      "inputs": [
        {
          "internalType": "address",
          "name": "a",
          "type": "address"
        }
      ],
      "name": "stake",
      "outputs": [
        {
          "internalType": "uint256",
          "name": "",
          "type": "uint256"
        }
      ],
      "stateMutability": "view",
      "type": "function"
    },
    {
      "inputs": [],
      "name": "status",
      "outputs": [
        {
          "internalType": "enum Status",
          "name": "",
          "type": "uint8"
        }
      ],
      "stateMutability": "view",
      "type": "function"
    },
    {
      "inputs": [],
      "name": "topDownCheckPeriod",
      "outputs": [
        {
          "internalType": "uint64",
          "name": "",
          "type": "uint64"
        }
      ],
      "stateMutability": "view",
      "type": "function"
    },
    {
      "inputs": [],
      "name": "totalStake",
      "outputs": [
        {
          "internalType": "uint256",
          "name": "",
          "type": "uint256"
        }
      ],
      "stateMutability": "view",
      "type": "function"
    },
    {
      "inputs": [
        {
          "internalType": "uint256",
          "name": "index",
          "type": "uint256"
        }
      ],
      "name": "validatorAt",
      "outputs": [
        {
          "internalType": "address",
          "name": "",
          "type": "address"
        }
      ],
      "stateMutability": "view",
      "type": "function"
    },
    {
      "inputs": [],
      "name": "validatorCount",
      "outputs": [
        {
          "internalType": "uint256",
          "name": "",
          "type": "uint256"
        }
      ],
      "stateMutability": "view",
      "type": "function"
    },
    {
      "inputs": [
        {
          "internalType": "address",
          "name": "addr",
          "type": "address"
        }
      ],
      "name": "validatorNetAddr",
      "outputs": [
        {
          "internalType": "string",
          "name": "",
          "type": "string"
        }
      ],
      "stateMutability": "view",
      "type": "function"
    },
    {
      "inputs": [
        {
          "internalType": "address",
          "name": "addr",
          "type": "address"
        }
      ],
      "name": "validatorWorkerAddr",
      "outputs": [
        {
          "components": [
            {
              "internalType": "uint8",
              "name": "addrType",
              "type": "uint8"
            },
            {
              "internalType": "bytes",
              "name": "payload",
              "type": "bytes"
            }
          ],
          "internalType": "struct FvmAddress",
          "name": "",
          "type": "tuple"
        }
      ],
      "stateMutability": "view",
      "type": "function"
    }
  ],
  "bytecode": {
    "object": "0x60808060405234610016576119c9908161001c8239f35b600080fdfe608080604052600436101561001357600080fd5b60e0600035811c91826306c46853146110255750816306fdde03146110075781630f43a67714610fe957816310d500e114610f8c578163133f74ea14610cde57508063200d2ed214610cb15780632647620414610c7357806332e0aa1f14610c44578063599c7bd114610c045780635f832dbf14610be65780636cb2ecee14610ba657806373f273fc14610b6857806374f189b414610b0d5780637d9740f414610ae357806380f7602114610a275780638b0e9f3f14610a095780638ef3f761146109c9578063950c8d46146109815780639e33bd0214610963578063a7f0b3de1461087d578063ac9c2a6f146104a6578063ad81e24414610460578063b7ab4db51461039f578063c5ab22411461037e578063cf3312501461016d5763cfca28241461013f57600080fd5b3461016857600036600319011261016857600d546040516001600160a01b039091168152602090f35b600080fd5b346101685760003660031901126101685760405161018a81611369565b6060908181526000602080920152600e54906101a5826115bf565b916101b360405193846113ba565b808352601f196101c2826115bf565b0160005b81811061034157505060005b8181106102aa5750506001600160401b03806009541693604051936101f685611369565b845282840194855260405193838552818501905193604081870152845180925260809283870182858560051b8a01019701946000925b858410610242578a51881660408b01528989038af35b9091929394959785806102996001938d607f199082030188528c5190858060a01b03825116815283820151848201528661028960408401518a60408501528a8401906110fd565b92015190878184039101526110bd565b9a019401940192959493919061022c565b929391926001600160a01b036102bf82611540565b16908160005260019182865261031661031d60406000205460048952610305604060002060038b52604060002092604051966102fa8861139f565b87528b87015261158b565b6040850152604051928380926114aa565b03826113ba565b8582015261032b82886115d6565b5261033681876115d6565b5001939291936101d2565b92809495936040516103528161139f565b600081526000838201526103646113db565b6040820152858082015282828901015201949392946101c6565b3461016857600036600319011261016857602060095460c01c604051908152f35b3461016857600036600319011261016857600e546103bc816115bf565b6103c960405191826113ba565b8181526103d5826115bf565b6020928383019291601f190136843760005b81811061043a57505090604051928392818401908285525180915260408401929160005b82811061041a57505050500390f35b83516001600160a01b03168552869550938101939281019260010161040b565b6001906001600160a01b0361044e82611540565b1661045982866115d6565b52016103e7565b346101685760003660031901126101685760206001600160401b037f283d1424c49941ba61504663c7a1b6f59e6bbb963a00bcc130bcbf9c29e1e2705416604051908152f35b34610168576040366003190112610168576104bf61104c565b6024356001600160401b0381168103610168576001600160401b036105136104ff600954946104fa848760801c1691858860801c16906115ea565b611618565b92608085901c8316906104fa9082906115ea565b166001600160401b03821690036001600160401b038111610867576105466001600160401b0391828560801c16906115ea565b1690610551826115bf565b9061055f60405192836113ba565b828252601f1961056e846115bf565b0160005b81811061084a5750509060005b836001600160401b03821610156107e8576001600160401b03831660005260056020526040600020604051906105b482611338565b6105bd816113f5565b82526001600160401b036002820154166020830152600381015460408301526004810180546105eb816115bf565b916105f960405193846113ba565b81835260208301906000526020600020906000905b83821061073e5750505050606083015260058101805461062d816115bf565b9161063b60405193846113ba565b81835260208301906000526020600020906000905b8382106106be57505050509282600761068e6001946001600160401b0397608089980152600681015460a085015261031660405180948193016114aa565b60c082015261069f848316876115d6565b526106ac838216866115d6565b50011692818660801c1601169161057f565b6040516106ca81611369565b6106d3846113f5565b8152600284016040519081602082549182815201916000526020600020906000905b80821061072657505050926003928261071460209460019703826113ba565b83820152815201930191019091610650565b909192600160208192865481520194019201906106f5565b600c602060019260405161075181611369565b60405161075d81611384565b61076688611676565b815261077460048901611676565b8482015260088801546040820152600a60098901546001600160401b038116606084015260a09063ffffffff60e01b90821b1660808401526107c78a6107c060405180958193016114aa565b03836113ba565b820152815260ff600b8801541615158382015281520193019101909161060e565b5060405160209182820192808352815180945260408301938160408260051b8601019301916000955b82871061081e5785850386f35b90919293828061083a600193603f198a8203018652885161114a565b9601920196019592919092610811565b602090610858959495611636565b82828801015201939293610572565b634e487b7160e01b600052601160045260246000fd5b3461016857600036600319011261016857604051600060065461089f81611470565b8084529060019081811690811561093c57506001146108e1575b6108dd846108c9818603826113ba565b6040519182916020835260208301906110bd565b0390f35b6006600090815292507ff652222313e28459528d920b65115c16c04f3efc82aaedc97be59f3f377c0d3f5b8284106109245750505081016020016108c9826108b9565b8054602085870181019190915290930192810161090c565b60ff191660208087019190915292151560051b850190920192506108c991508390506108b9565b34610168576000366003190112610168576020600854604051908152f35b34610168576020366003190112610168576004356001600160a01b038116908190036101685760005260036020526108dd6103166108c96040600020604051928380926114aa565b346101685760003660031901126101685760ff6012541660405160018210156109f3576020918152f35b634e487b7160e01b600052602160045260246000fd5b34610168576000366003190112610168576020600754604051908152f35b3461016857600036600319011261016857610a406113db565b50604051610a4d81611369565b6001600160401b036010541681526040518060115480835281602080940160116000527f31ecc21a745e3968a04e9570e4425bc18fa8019c68028196b546d1669c200c689260005b86828210610ac457505050610aac925003826113ba565b818301526108dd604051928284938452830190611062565b85546001600160a01b0316845260019586019587955093019201610a95565b346101685760003660031901126101685760206001600160401b0360095460401c16604051908152f35b34610168576020366003190112610168576004356001600160a01b0381169081900361016857610b3b6113db565b5060005260046020526108dd610b54604060002061158b565b6040519182916020835260208301906110fd565b34610168576020366003190112610168576004356001600160a01b038116908190036101685760005260026020526020604060002054604051908152f35b3461016857602036600319011261016857610bc7610bc261104c565b6116a2565b906108dd6040519283921515835260406020840152604083019061114a565b34610168576000366003190112610168576020600c54604051908152f35b3461016857600036600319011261016857602060ff7f283d1424c49941ba61504663c7a1b6f59e6bbb963a00bcc130bcbf9c29e1e2735416604051908152f35b346101685760203660031901126101685760206001600160a01b03610c6a600435611540565b16604051908152f35b34610168576020366003190112610168576004356001600160a01b038116908190036101685760005260016020526020604060002054604051908152f35b346101685760003660031901126101685760ff600d5460a01c1660405160068210156109f3576020918152f35b3461016857602080600319360112610168579081610cfd610bc261104c565b9390926040519485916339aa47fb60e01b8352836004840152610d2c8251826024860152610104850190611062565b916001600160401b039182868301511660448601526040820151606486015260609081830151946023199485888303016084890152865192838352898301918a808660051b8601019901956000945b868610610ed5575050505050505050608081015192828582030160a486015283518082528682019187808360051b8301019601926000915b838310610e5757505050505091610de39160c08460a08796015160c48701520151908483030160e48501526110bd565b038173__$1cd67d4dc9e627f0bec7928aa480e7d951$__5af4908115610e4b57600091610e1b575b6040809450519215158352820152f35b80915083813d8311610e44575b610e3281836113ba565b81010312610168576040925190610e0b565b503d610e28565b6040513d6000823e3d90fd5b929597509297909395601f19838203018452885182610e7f8251604085526040850190611062565b91015191838183039101528280835192838152019201906000905b808210610ebc575050509080600192990193019301889795938b979592610db3565b919380600192948651815201940192018b939291610e9a565b9295989a5092959a8060019295989a601f198582030189528d51908280610f6e8a8551604086528d8c825192610f1860c0948560408c01526101008b0190611957565b87820151603f198b83038101858d01529591610f3391611957565b95604083015193608094858d0152830151169260a093848c015263ffffffff60e01b9083015116908a015201519187840301908701526110bd565b93015115159101529c0196019601928b9a9896928e9a989592610d7b565b346101685760003660031901126101685760607f283d1424c49941ba61504663c7a1b6f59e6bbb963a00bcc130bcbf9c29e1e27154604051906001600160401b03808260401c1683528160801c16602083015260c01c6040820152f35b34610168576000366003190112610168576020600e54604051908152f35b34610168576000366003190112610168576020600a54604051908152f35b34610168576000366003190112610168576020906001600160401b0360095460801c168152f35b600435906001600160401b038216820361016857565b60609060408301906001600160401b03815116845260209283809201519460408382015285518094520193019160005b8281106110a0575050505090565b83516001600160a01b031685529381019392810192600101611092565b919082519283825260005b8481106110e9575050826000602080949584010152601f8019910116010190565b6020818301810151848301820152016110c8565b906040602061111d9360ff815116845201519181602082015201906110bd565b90565b61111d9160206111398351604084526040840190611062565b9201519060208184039101526110fd565b919082519061116160e09283835283830190611062565b936001600160401b03946020938685840151168585015260409182840151838601526060908185015198868203838801528951928383528883019189808660051b8601019c01956000945b86861061128a57505050505050505060808201519383870360808501528451908188528088019281808460051b8b01019701936000915b8483106112135750505050505061111d9394508060a060c092015160a084015201519060c08184039101526110bd565b90919280949598601f198c8203018452895182611237825186855286850190611062565b91015191838183039101528280835192838152019201906000905b8082106112715750505090806001929a019301930191949392906111e3565b9193806001929486518152019401920187939291611252565b909192939495969c8b808f600193828061131e8f948d601f198b870301905251948b8d875183885280516112ca60c09182878c01526101008b0190611120565b87830151603f198b83038101868d015295916112e591611120565b9583015193608094858c0152830151169260a093848b015263ffffffff60e01b908301511690890152015190868303018c8701526110bd565b93015115159101529f0196019601949695939291906111ac565b60e081019081106001600160401b0382111761135357604052565b634e487b7160e01b600052604160045260246000fd5b604081019081106001600160401b0382111761135357604052565b60c081019081106001600160401b0382111761135357604052565b608081019081106001600160401b0382111761135357604052565b90601f801991011681019081106001600160401b0382111761135357604052565b604051906113e882611369565b6060602083600081520152565b9060405161140281611369565b80926001600160401b03815416825260018091019160405191828481955492838652602080960191600052856000209060005b87868210611451575050505061144d925003846113ba565b0152565b83546001600160a01b0316855289955090930192918101918101611435565b90600182811c921680156114a0575b602083101461148a57565b634e487b7160e01b600052602260045260246000fd5b91607f169161147f565b90600092918054916114bb83611470565b91828252600193848116908160001461151d57506001146114dd575b50505050565b90919394506000526020928360002092846000945b8386106115095750505050010190388080806114d7565b8054858701830152940193859082016114f2565b9294505050602093945060ff191683830152151560051b010190388080806114d7565b600e5481101561157557600e6000527fbb7b4a454dc3493923482f07822329ed19e8244eff582cc204f8554c3620c3fd015490565b634e487b7160e01b600052603260045260246000fd5b906001602060405161159c81611369565b61144d819560ff81541683526115b860405180968193016114aa565b03846113ba565b6001600160401b0381116113535760051b60200190565b80518210156115755760209160051b010190565b906001600160401b0380911691821561160257160490565b634e487b7160e01b600052601260045260246000fd5b9190916001600160401b038080941691160291821691820361086757565b6040519061164382611338565b606060c0836116506113db565b815260006020820152600060408201528280820152826080820152600060a08201520152565b9060405161168381611369565b602061169d60028395611695816113f5565b85520161158b565b910152565b6116aa611636565b506001600160401b038060009216825260209160058352604091828220938351946116d486611338565b6116dd816113f5565b865260028381830154168388015260038083015487890152600494858401805490611707826115bf565b926117148b5194856113ba565b8284529089528689208991888086015b8d8c8787106118b65750505050505050506060890152600583019081549161174b836115bf565b936117588a5195866113ba565b83855290885285882088918786015b85841061183e57505050505050600791611799916080890152600681015460a0890152610316875180948193016114aa565b60c086015280808651936117c487519586938493630c133d1360e31b85528401526024830190611062565b038173__$a0fe38a9a81205afccc10810b09a4d3f45$__5af4938415611835575082936117f3575b5050501591565b9080929350813d831161182e575b61180b81836113ba565b8101031261182a575190811515820361182757503880806117ec565b80fd5b5080fd5b503d611801565b513d84823e3d90fd5b84898d928d84519061184f82611369565b611858886113f5565b8252945187870180548083529087528487208583019790915b80821061189b575050506118898160019703826113ba565b83820152815201930193019291611767565b8254895297909501968b96508f956001928301920190611871565b9181600c93600a600196949d9c9d51926118cf84611369565b6118f08151936118de85611384565b6118e78c611676565b85528b01611676565b8684015260088a0154818401526119318a6107c06009820154938c8516606088015260a09463ffffffff60e01b90861b1660808801525180958193016114aa565b820152815260ff600b880154161515838201528152019301930192918990979697611724565b6040602061111d9381611971855185845285840190611062565b940151908281860391015260ff815116845201519181602082015201906110bd56fea26469706673582212200f3c26a13c3e7fc5ccc06901b6f40ce6c10639bd159fe24384c1b952ca86a02264736f6c63430008130033",
    "linkReferences": {
      "src/lib/CheckpointHelper.sol": {
        "CheckpointHelper": [
          {
            "start": 3587,
            "length": 20
          }
        ]
      },
      "src/lib/SubnetIDHelper.sol": {
        "SubnetIDHelper": [
          {
            "start": 6116,
            "length": 20
          }
        ]
      }
    }
  },
  "methodIdentifiers": {
    "accumulatedRewards(address)": "73f273fc",
    "bottomUpCheckPeriod()": "06c46853",
    "bottomUpCheckpointAtEpoch(uint64)": "6cb2ecee",
    "bottomUpCheckpointHashAtEpoch(uint64)": "133f74ea",
    "consensus()": "8ef3f761",
    "executableQueue()": "10d500e1",
    "genesis()": "a7f0b3de",
    "getParent()": "80f76021",
    "getValidatorSet()": "cf331250",
    "getValidators()": "b7ab4db5",
    "ipcGatewayAddr()": "cfca2824",
    "lastVotingExecutedEpoch()": "ad81e244",
    "listBottomUpCheckpoints(uint64,uint64)": "ac9c2a6f",
    "majorityPercentage()": "599c7bd1",
    "minActivationCollateral()": "9e33bd02",
    "minValidators()": "c5ab2241",
    "name()": "06fdde03",
    "prevExecutedCheckpointHash()": "5f832dbf",
    "stake(address)": "26476204",
    "status()": "200d2ed2",
    "topDownCheckPeriod()": "7d9740f4",
    "totalStake()": "8b0e9f3f",
    "validatorAt(uint256)": "32e0aa1f",
    "validatorCount()": "0f43a677",
    "validatorNetAddr(address)": "950c8d46",
    "validatorWorkerAddr(address)": "74f189b4"
  },
  "id": 44
}