{
  "abi": [
    {
      "inputs": [
        {
          "components": [
            {
              "components": [
                {
                  "internalType": "uint64",
                  "name": "root",
                  "type": "uint64"
                },
                {
                  "internalType": "address[]",
                  "name": "route",
                  "type": "address[]"
                }
              ],
              "internalType": "struct SubnetID",
              "name": "parentId",
              "type": "tuple"
            },
            {
              "internalType": "bytes32",
              "name": "name",
              "type": "bytes32"
            },
            {
              "internalType": "address",
              "name": "ipcGatewayAddr",
              "type": "address"
            },
            {
              "internalType": "enum ConsensusType",
              "name": "consensus",
              "type": "uint8"
            },
            {
              "internalType": "uint256",
              "name": "minActivationCollateral",
              "type": "uint256"
            },
            {
              "internalType": "uint64",
              "name": "minValidators",
              "type": "uint64"
            },
            {
              "internalType": "uint64",
              "name": "bottomUpCheckPeriod",
              "type": "uint64"
            },
            {
              "internalType": "uint64",
              "name": "topDownCheckPeriod",
              "type": "uint64"
            },
            {
              "internalType": "uint8",
              "name": "majorityPercentage",
              "type": "uint8"
            },
            {
              "internalType": "bytes",
              "name": "genesis",
              "type": "bytes"
            }
          ],
          "internalType": "struct SubnetActor.ConstructParams",
          "name": "params",
          "type": "tuple"
        }
      ],
      "stateMutability": "nonpayable",
      "type": "constructor"
    },
    {
      "inputs": [],
      "name": "CallerHasNoStake",
      "type": "error"
    },
    {
      "inputs": [],
      "name": "CheckpointNotChained",
      "type": "error"
    },
    {
      "inputs": [],
      "name": "CollateralIsZero",
      "type": "error"
    },
    {
      "inputs": [],
      "name": "CollateralStillLockedInSubnet",
      "type": "error"
    },
    {
      "inputs": [],
      "name": "EpochAlreadyExecuted",
      "type": "error"
    },
    {
      "inputs": [],
      "name": "EpochNotVotable",
      "type": "error"
    },
    {
      "inputs": [],
      "name": "GatewayCannotBeZero",
      "type": "error"
    },
    {
      "inputs": [],
      "name": "InvalidMajorityPercentage",
      "type": "error"
    },
    {
      "inputs": [],
      "name": "MessagesNotSorted",
      "type": "error"
    },
    {
      "inputs": [],
      "name": "NoRewardToWithdraw",
      "type": "error"
    },
    {
      "inputs": [],
      "name": "NoValidatorsInSubnet",
      "type": "error"
    },
    {
      "inputs": [],
      "name": "NotAccount",
      "type": "error"
    },
    {
      "inputs": [],
      "name": "NotAllValidatorsHaveLeft",
      "type": "error"
    },
    {
      "inputs": [],
      "name": "NotEnoughBalanceForRewards",
      "type": "error"
    },
    {
      "inputs": [],
      "name": "NotGateway",
      "type": "error"
    },
    {
      "inputs": [],
      "name": "NotValidator",
      "type": "error"
    },
    {
      "inputs": [],
      "name": "SubnetAlreadyKilled",
      "type": "error"
    },
    {
      "inputs": [],
      "name": "SubnetNotActive",
      "type": "error"
    },
    {
      "inputs": [],
      "name": "ValidatorAlreadyVoted",
      "type": "error"
    },
    {
      "inputs": [],
      "name": "WorkerAddressInvalid",
      "type": "error"
    },
    {
      "inputs": [],
      "name": "WrongCheckpointSource",
      "type": "error"
    },
    {
      "inputs": [],
      "name": "MIN_CHECKPOINT_PERIOD",
      "outputs": [
        {
          "internalType": "uint8",
          "name": "",
          "type": "uint8"
        }
      ],
      "stateMutability": "view",
      "type": "function"
    },
    {
      "inputs": [],
      "name": "MIN_COLLATERAL_AMOUNT",
      "outputs": [
        {
          "internalType": "uint256",
          "name": "",
          "type": "uint256"
        }
      ],
      "stateMutability": "view",
      "type": "function"
    },
    {
      "inputs": [
        {
          "internalType": "address",
          "name": "",
          "type": "address"
        }
      ],
      "name": "accumulatedRewards",
      "outputs": [
        {
          "internalType": "uint256",
          "name": "",
          "type": "uint256"
        }
      ],
      "stateMutability": "view",
      "type": "function"
    },
    {
      "inputs": [],
      "name": "bottomUpCheckPeriod",
      "outputs": [
        {
          "internalType": "uint64",
          "name": "",
          "type": "uint64"
        }
      ],
      "stateMutability": "view",
      "type": "function"
    },
    {
      "inputs": [
        {
          "internalType": "uint64",
          "name": "epoch",
          "type": "uint64"
        }
      ],
      "name": "bottomUpCheckpointAtEpoch",
      "outputs": [
        {
          "internalType": "bool",
          "name": "exists",
          "type": "bool"
        },
        {
          "components": [
            {
              "components": [
                {
                  "internalType": "uint64",
                  "name": "root",
                  "type": "uint64"
                },
                {
                  "internalType": "address[]",
                  "name": "route",
                  "type": "address[]"
                }
              ],
              "internalType": "struct SubnetID",
              "name": "source",
              "type": "tuple"
            },
            {
              "internalType": "uint64",
              "name": "epoch",
              "type": "uint64"
            },
            {
              "internalType": "uint256",
              "name": "fee",
              "type": "uint256"
            },
            {
              "components": [
                {
                  "components": [
                    {
                      "components": [
                        {
                          "components": [
                            {
                              "internalType": "uint64",
                              "name": "root",
                              "type": "uint64"
                            },
                            {
                              "internalType": "address[]",
                              "name": "route",
                              "type": "address[]"
                            }
                          ],
                          "internalType": "struct SubnetID",
                          "name": "subnetId",
                          "type": "tuple"
                        },
                        {
                          "components": [
                            {
                              "internalType": "uint8",
                              "name": "addrType",
                              "type": "uint8"
                            },
                            {
                              "internalType": "bytes",
                              "name": "payload",
                              "type": "bytes"
                            }
                          ],
                          "internalType": "struct FvmAddress",
                          "name": "rawAddress",
                          "type": "tuple"
                        }
                      ],
                      "internalType": "struct IPCAddress",
                      "name": "from",
                      "type": "tuple"
                    },
                    {
                      "components": [
                        {
                          "components": [
                            {
                              "internalType": "uint64",
                              "name": "root",
                              "type": "uint64"
                            },
                            {
                              "internalType": "address[]",
                              "name": "route",
                              "type": "address[]"
                            }
                          ],
                          "internalType": "struct SubnetID",
                          "name": "subnetId",
                          "type": "tuple"
                        },
                        {
                          "components": [
                            {
                              "internalType": "uint8",
                              "name": "addrType",
                              "type": "uint8"
                            },
                            {
                              "internalType": "bytes",
                              "name": "payload",
                              "type": "bytes"
                            }
                          ],
                          "internalType": "struct FvmAddress",
                          "name": "rawAddress",
                          "type": "tuple"
                        }
                      ],
                      "internalType": "struct IPCAddress",
                      "name": "to",
                      "type": "tuple"
                    },
                    {
                      "internalType": "uint256",
                      "name": "value",
                      "type": "uint256"
                    },
                    {
                      "internalType": "uint64",
                      "name": "nonce",
                      "type": "uint64"
                    },
                    {
                      "internalType": "bytes4",
                      "name": "method",
                      "type": "bytes4"
                    },
                    {
                      "internalType": "bytes",
                      "name": "params",
                      "type": "bytes"
                    }
                  ],
                  "internalType": "struct StorableMsg",
                  "name": "message",
                  "type": "tuple"
                },
                {
                  "internalType": "bool",
                  "name": "wrapped",
                  "type": "bool"
                }
              ],
              "internalType": "struct CrossMsg[]",
              "name": "crossMsgs",
              "type": "tuple[]"
            },
            {
              "components": [
                {
                  "components": [
                    {
                      "internalType": "uint64",
                      "name": "root",
                      "type": "uint64"
                    },
                    {
                      "internalType": "address[]",
                      "name": "route",
                      "type": "address[]"
                    }
                  ],
                  "internalType": "struct SubnetID",
                  "name": "source",
                  "type": "tuple"
                },
                {
                  "internalType": "bytes32[]",
                  "name": "checks",
                  "type": "bytes32[]"
                }
              ],
              "internalType": "struct ChildCheck[]",
              "name": "children",
              "type": "tuple[]"
            },
            {
              "internalType": "bytes32",
              "name": "prevHash",
              "type": "bytes32"
            },
            {
              "internalType": "bytes",
              "name": "proof",
              "type": "bytes"
            }
          ],
          "internalType": "struct BottomUpCheckpoint",
          "name": "checkpoint",
          "type": "tuple"
        }
      ],
      "stateMutability": "view",
      "type": "function"
    },
    {
      "inputs": [
        {
          "internalType": "uint64",
          "name": "epoch",
          "type": "uint64"
        }
      ],
      "name": "bottomUpCheckpointHashAtEpoch",
      "outputs": [
        {
          "internalType": "bool",
          "name": "",
          "type": "bool"
        },
        {
          "internalType": "bytes32",
          "name": "",
          "type": "bytes32"
        }
      ],
      "stateMutability": "view",
      "type": "function"
    },
    {
      "inputs": [
        {
          "internalType": "uint64",
          "name": "",
          "type": "uint64"
        }
      ],
      "name": "committedCheckpoints",
      "outputs": [
        {
          "components": [
            {
              "internalType": "uint64",
              "name": "root",
              "type": "uint64"
            },
            {
              "internalType": "address[]",
              "name": "route",
              "type": "address[]"
            }
          ],
          "internalType": "struct SubnetID",
          "name": "source",
          "type": "tuple"
        },
        {
          "internalType": "uint64",
          "name": "epoch",
          "type": "uint64"
        },
        {
          "internalType": "uint256",
          "name": "fee",
          "type": "uint256"
        },
        {
          "internalType": "bytes32",
          "name": "prevHash",
          "type": "bytes32"
        },
        {
          "internalType": "bytes",
          "name": "proof",
          "type": "bytes"
        }
      ],
      "stateMutability": "view",
      "type": "function"
    },
    {
      "inputs": [],
      "name": "configurationNumber",
      "outputs": [
        {
          "internalType": "uint64",
          "name": "",
          "type": "uint64"
        }
      ],
      "stateMutability": "view",
      "type": "function"
    },
    {
      "inputs": [],
      "name": "consensus",
      "outputs": [
        {
          "internalType": "enum ConsensusType",
          "name": "",
          "type": "uint8"
        }
      ],
      "stateMutability": "view",
      "type": "function"
    },
    {
      "inputs": [],
      "name": "currentSubnetHash",
      "outputs": [
        {
          "internalType": "bytes32",
          "name": "",
          "type": "bytes32"
        }
      ],
      "stateMutability": "view",
      "type": "function"
    },
    {
      "inputs": [],
      "name": "executableQueue",
      "outputs": [
        {
          "internalType": "uint64",
          "name": "period",
          "type": "uint64"
        },
        {
          "internalType": "uint64",
          "name": "first",
          "type": "uint64"
        },
        {
          "internalType": "uint64",
          "name": "last",
          "type": "uint64"
        }
      ],
      "stateMutability": "view",
      "type": "function"
    },
    {
      "inputs": [],
      "name": "genesis",
      "outputs": [
        {
          "internalType": "bytes",
          "name": "",
          "type": "bytes"
        }
      ],
      "stateMutability": "view",
      "type": "function"
    },
    {
      "inputs": [],
      "name": "getGenesisEpoch",
      "outputs": [
        {
          "internalType": "uint64",
          "name": "",
          "type": "uint64"
        }
      ],
      "stateMutability": "view",
      "type": "function"
    },
    {
      "inputs": [],
      "name": "getParent",
      "outputs": [
        {
          "components": [
            {
              "internalType": "uint64",
              "name": "root",
              "type": "uint64"
            },
            {
              "internalType": "address[]",
              "name": "route",
              "type": "address[]"
            }
          ],
          "internalType": "struct SubnetID",
          "name": "",
          "type": "tuple"
        }
      ],
      "stateMutability": "view",
      "type": "function"
    },
    {
      "inputs": [],
      "name": "getValidatorSet",
      "outputs": [
        {
          "components": [
            {
              "components": [
                {
                  "internalType": "address",
                  "name": "addr",
                  "type": "address"
                },
                {
                  "internalType": "uint256",
                  "name": "weight",
                  "type": "uint256"
                },
                {
                  "components": [
                    {
                      "internalType": "uint8",
                      "name": "addrType",
                      "type": "uint8"
                    },
                    {
                      "internalType": "bytes",
                      "name": "payload",
                      "type": "bytes"
                    }
                  ],
                  "internalType": "struct FvmAddress",
                  "name": "workerAddr",
                  "type": "tuple"
                },
                {
                  "internalType": "string",
                  "name": "netAddresses",
                  "type": "string"
                }
              ],
              "internalType": "struct SubnetActor.ValidatorInfo[]",
              "name": "validators",
              "type": "tuple[]"
            },
            {
              "internalType": "uint64",
              "name": "configurationNumber",
              "type": "uint64"
            }
          ],
          "internalType": "struct SubnetActor.ValidatorSet",
          "name": "",
          "type": "tuple"
        }
      ],
      "stateMutability": "view",
      "type": "function"
    },
    {
      "inputs": [],
      "name": "getValidators",
      "outputs": [
        {
          "internalType": "address[]",
          "name": "",
          "type": "address[]"
        }
      ],
      "stateMutability": "view",
      "type": "function"
    },
    {
      "inputs": [
        {
          "internalType": "uint64",
          "name": "epoch",
          "type": "uint64"
        },
        {
          "internalType": "address",
          "name": "submitter",
          "type": "address"
        }
      ],
      "name": "hasValidatorVotedForSubmission",
      "outputs": [
        {
          "internalType": "bool",
          "name": "",
          "type": "bool"
        }
      ],
      "stateMutability": "view",
      "type": "function"
    },
    {
      "inputs": [],
      "name": "ipcGatewayAddr",
      "outputs": [
        {
          "internalType": "address",
          "name": "",
          "type": "address"
        }
      ],
      "stateMutability": "view",
      "type": "function"
    },
    {
      "inputs": [
        {
          "internalType": "string",
          "name": "netAddr",
          "type": "string"
        },
        {
          "components": [
            {
              "internalType": "uint8",
              "name": "addrType",
              "type": "uint8"
            },
            {
              "internalType": "bytes",
              "name": "payload",
              "type": "bytes"
            }
          ],
          "internalType": "struct FvmAddress",
          "name": "workerAddr",
          "type": "tuple"
        }
      ],
      "name": "join",
      "outputs": [],
      "stateMutability": "payable",
      "type": "function"
    },
    {
      "inputs": [],
      "name": "kill",
      "outputs": [],
      "stateMutability": "nonpayable",
      "type": "function"
    },
    {
      "inputs": [],
      "name": "lastVotingExecutedEpoch",
      "outputs": [
        {
          "internalType": "uint64",
          "name": "",
          "type": "uint64"
        }
      ],
      "stateMutability": "view",
      "type": "function"
    },
    {
      "inputs": [],
      "name": "leave",
      "outputs": [],
      "stateMutability": "nonpayable",
      "type": "function"
    },
    {
      "inputs": [],
      "name": "majorityPercentage",
      "outputs": [
        {
          "internalType": "uint8",
          "name": "",
          "type": "uint8"
        }
      ],
      "stateMutability": "view",
      "type": "function"
    },
    {
      "inputs": [],
      "name": "minActivationCollateral",
      "outputs": [
        {
          "internalType": "uint256",
          "name": "",
          "type": "uint256"
        }
      ],
      "stateMutability": "view",
      "type": "function"
    },
    {
      "inputs": [],
      "name": "minValidators",
      "outputs": [
        {
          "internalType": "uint64",
          "name": "",
          "type": "uint64"
        }
      ],
      "stateMutability": "view",
      "type": "function"
    },
    {
      "inputs": [],
      "name": "name",
      "outputs": [
        {
          "internalType": "bytes32",
          "name": "",
          "type": "bytes32"
        }
      ],
      "stateMutability": "view",
      "type": "function"
    },
    {
      "inputs": [],
      "name": "prevExecutedCheckpointHash",
      "outputs": [
        {
          "internalType": "bytes32",
          "name": "",
          "type": "bytes32"
        }
      ],
      "stateMutability": "view",
      "type": "function"
    },
    {
      "inputs": [
        {
          "internalType": "uint256",
          "name": "amount",
          "type": "uint256"
        }
      ],
      "name": "reward",
      "outputs": [],
      "stateMutability": "nonpayable",
      "type": "function"
    },
    {
      "inputs": [
        {
          "internalType": "address",
          "name": "",
          "type": "address"
        }
      ],
      "name": "stake",
      "outputs": [
        {
          "internalType": "uint256",
          "name": "",
          "type": "uint256"
        }
      ],
      "stateMutability": "view",
      "type": "function"
    },
    {
      "inputs": [],
      "name": "status",
      "outputs": [
        {
          "internalType": "enum Status",
          "name": "",
          "type": "uint8"
        }
      ],
      "stateMutability": "view",
      "type": "function"
    },
    {
      "inputs": [],
      "name": "submissionPeriod",
      "outputs": [
        {
          "internalType": "uint64",
          "name": "",
          "type": "uint64"
        }
      ],
      "stateMutability": "view",
      "type": "function"
    },
    {
      "inputs": [
        {
          "components": [
            {
              "components": [
                {
                  "internalType": "uint64",
                  "name": "root",
                  "type": "uint64"
                },
                {
                  "internalType": "address[]",
                  "name": "route",
                  "type": "address[]"
                }
              ],
              "internalType": "struct SubnetID",
              "name": "source",
              "type": "tuple"
            },
            {
              "internalType": "uint64",
              "name": "epoch",
              "type": "uint64"
            },
            {
              "internalType": "uint256",
              "name": "fee",
              "type": "uint256"
            },
            {
              "components": [
                {
                  "components": [
                    {
                      "components": [
                        {
                          "components": [
                            {
                              "internalType": "uint64",
                              "name": "root",
                              "type": "uint64"
                            },
                            {
                              "internalType": "address[]",
                              "name": "route",
                              "type": "address[]"
                            }
                          ],
                          "internalType": "struct SubnetID",
                          "name": "subnetId",
                          "type": "tuple"
                        },
                        {
                          "components": [
                            {
                              "internalType": "uint8",
                              "name": "addrType",
                              "type": "uint8"
                            },
                            {
                              "internalType": "bytes",
                              "name": "payload",
                              "type": "bytes"
                            }
                          ],
                          "internalType": "struct FvmAddress",
                          "name": "rawAddress",
                          "type": "tuple"
                        }
                      ],
                      "internalType": "struct IPCAddress",
                      "name": "from",
                      "type": "tuple"
                    },
                    {
                      "components": [
                        {
                          "components": [
                            {
                              "internalType": "uint64",
                              "name": "root",
                              "type": "uint64"
                            },
                            {
                              "internalType": "address[]",
                              "name": "route",
                              "type": "address[]"
                            }
                          ],
                          "internalType": "struct SubnetID",
                          "name": "subnetId",
                          "type": "tuple"
                        },
                        {
                          "components": [
                            {
                              "internalType": "uint8",
                              "name": "addrType",
                              "type": "uint8"
                            },
                            {
                              "internalType": "bytes",
                              "name": "payload",
                              "type": "bytes"
                            }
                          ],
                          "internalType": "struct FvmAddress",
                          "name": "rawAddress",
                          "type": "tuple"
                        }
                      ],
                      "internalType": "struct IPCAddress",
                      "name": "to",
                      "type": "tuple"
                    },
                    {
                      "internalType": "uint256",
                      "name": "value",
                      "type": "uint256"
                    },
                    {
                      "internalType": "uint64",
                      "name": "nonce",
                      "type": "uint64"
                    },
                    {
                      "internalType": "bytes4",
                      "name": "method",
                      "type": "bytes4"
                    },
                    {
                      "internalType": "bytes",
                      "name": "params",
                      "type": "bytes"
                    }
                  ],
                  "internalType": "struct StorableMsg",
                  "name": "message",
                  "type": "tuple"
                },
                {
                  "internalType": "bool",
                  "name": "wrapped",
                  "type": "bool"
                }
              ],
              "internalType": "struct CrossMsg[]",
              "name": "crossMsgs",
              "type": "tuple[]"
            },
            {
              "components": [
                {
                  "components": [
                    {
                      "internalType": "uint64",
                      "name": "root",
                      "type": "uint64"
                    },
                    {
                      "internalType": "address[]",
                      "name": "route",
                      "type": "address[]"
                    }
                  ],
                  "internalType": "struct SubnetID",
                  "name": "source",
                  "type": "tuple"
                },
                {
                  "internalType": "bytes32[]",
                  "name": "checks",
                  "type": "bytes32[]"
                }
              ],
              "internalType": "struct ChildCheck[]",
              "name": "children",
              "type": "tuple[]"
            },
            {
              "internalType": "bytes32",
              "name": "prevHash",
              "type": "bytes32"
            },
            {
              "internalType": "bytes",
              "name": "proof",
              "type": "bytes"
            }
          ],
          "internalType": "struct BottomUpCheckpoint",
          "name": "checkpoint",
          "type": "tuple"
        }
      ],
      "name": "submitCheckpoint",
      "outputs": [],
      "stateMutability": "nonpayable",
      "type": "function"
    },
    {
      "inputs": [],
      "name": "topDownCheckPeriod",
      "outputs": [
        {
          "internalType": "uint64",
          "name": "",
          "type": "uint64"
        }
      ],
      "stateMutability": "view",
      "type": "function"
    },
    {
      "inputs": [],
      "name": "totalStake",
      "outputs": [
        {
          "internalType": "uint256",
          "name": "",
          "type": "uint256"
        }
      ],
      "stateMutability": "view",
      "type": "function"
    },
    {
      "inputs": [
        {
          "internalType": "uint256",
          "name": "index",
          "type": "uint256"
        }
      ],
      "name": "validatorAt",
      "outputs": [
        {
          "internalType": "address",
          "name": "",
          "type": "address"
        }
      ],
      "stateMutability": "view",
      "type": "function"
    },
    {
      "inputs": [],
      "name": "validatorCount",
      "outputs": [
        {
          "internalType": "uint256",
          "name": "",
          "type": "uint256"
        }
      ],
      "stateMutability": "view",
      "type": "function"
    },
    {
      "inputs": [
        {
          "internalType": "address",
          "name": "",
          "type": "address"
        }
      ],
      "name": "validatorNetAddresses",
      "outputs": [
        {
          "internalType": "string",
          "name": "",
          "type": "string"
        }
      ],
      "stateMutability": "view",
      "type": "function"
    },
    {
      "inputs": [
        {
          "internalType": "address",
          "name": "",
          "type": "address"
        }
      ],
      "name": "validatorWorkerAddresses",
      "outputs": [
        {
          "internalType": "uint8",
          "name": "addrType",
          "type": "uint8"
        },
        {
          "internalType": "bytes",
          "name": "payload",
          "type": "bytes"
        }
      ],
      "stateMutability": "view",
      "type": "function"
    },
    {
      "inputs": [],
      "name": "withdraw",
      "outputs": [],
      "stateMutability": "nonpayable",
      "type": "function"
    },
    {
      "stateMutability": "payable",
      "type": "receive"
    }
  ],
  "bytecode": {
    "object": "0x6101c06040523480156200001257600080fd5b5060405162006fca38038062006fca833981016040819052620000359162000682565b61010081015160c08201516001600055606460ff831611156200006b576040516375c3b42760e01b815260040160405180910390fd5b60ff8216608052600a6001600160401b038216106200008b57806200008e565b600a5b6001600160401b0390811660a0819052600280546001600160401b0319908116909217905584518051600f80549190941692169190911782556020808201518051929550929350620000e692601092910190620003a9565b50505060208101516101805260408101516001600160a01b03166200011e57604051638b3ddc3360e01b815260040160405180910390fd5b60408101516001600160a01b03166101405260608101518015620001465762000146620007a9565b6101608180156200015b576200015b620007a9565b81525050670de0b6b3a76400008160800151106200017e57806080015162000188565b670de0b6b3a76400005b60c05260a08101516001600160401b039081166101205260e0820151600a911610620001b9578060e00151620001bc565b600a5b6001600160401b0390811660e05260a05116610100526005805460ff60401b191668050000000000000000179055610120810151601190620001ff90826200084e565b50604080518082018252600f80546001600160401b031682526010805484516020828102820181019096528181529394929383860193909291908301828280156200027457602002820191906000526020600020905b81546001600160a01b0316815260019091019060200180831162000255575b50505091909252505060405163aa5106cb60e01b815273__$a0fe38a9a81205afccc10810b09a4d3f45$__9263aa5106cb9250620002b791309060040162000983565b600060405180830381865af4158015620002d5573d6000803e3d6000fd5b505050506040513d6000823e601f3d908101601f19168201604052620002ff9190810190620009af565b6040516390ba52cf60e01b815273__$a0fe38a9a81205afccc10810b09a4d3f45$__916390ba52cf91620003379190600401620009ef565b602060405180830381865af415801562000355573d6000803e3d6000fd5b505050506040513d601f19601f820116820180604052508101906200037b919062000a0b565b6101a0525060018054600160401b600160801b0319169055600580546001600160401b031916905562000a25565b82805482825590600052602060002090810192821562000401579160200282015b828111156200040157825182546001600160a01b0319166001600160a01b03909116178255602090920191600190910190620003ca565b506200040f92915062000413565b5090565b5b808211156200040f576000815560010162000414565b634e487b7160e01b600052604160045260246000fd5b604080519081016001600160401b03811182821017156200046557620004656200042a565b60405290565b60405161014081016001600160401b03811182821017156200046557620004656200042a565b604051601f8201601f191681016001600160401b0381118282101715620004bc57620004bc6200042a565b604052919050565b80516001600160401b0381168114620004dc57600080fd5b919050565b80516001600160a01b0381168114620004dc57600080fd5b6000604082840312156200050c57600080fd5b6200051662000440565b90506200052382620004c4565b81526020828101516001600160401b03808211156200054157600080fd5b818501915085601f8301126200055657600080fd5b8151818111156200056b576200056b6200042a565b8060051b91506200057e84830162000491565b81815291830184019184810190888411156200059957600080fd5b938501935b83851015620005c257620005b285620004e1565b825293850193908501906200059e565b808688015250505050505092915050565b805160018110620004dc57600080fd5b805160ff81168114620004dc57600080fd5b600082601f8301126200060757600080fd5b81516001600160401b038111156200062357620006236200042a565b602062000639601f8301601f1916820162000491565b82815285828487010111156200064e57600080fd5b60005b838110156200066e57858101830151828201840152820162000651565b506000928101909101919091529392505050565b6000602082840312156200069557600080fd5b81516001600160401b0380821115620006ad57600080fd5b908301906101408286031215620006c357600080fd5b620006cd6200046b565b825182811115620006dd57600080fd5b620006eb87828601620004f9565b825250602083015160208201526200070660408401620004e1565b60408201526200071960608401620005d3565b6060820152608083015160808201526200073660a08401620004c4565b60a08201526200074960c08401620004c4565b60c08201526200075c60e08401620004c4565b60e082015261010062000771818501620005e3565b9082015261012083810151838111156200078a57600080fd5b6200079888828701620005f5565b918301919091525095945050505050565b634e487b7160e01b600052602160045260246000fd5b600181811c90821680620007d457607f821691505b602082108103620007f557634e487b7160e01b600052602260045260246000fd5b50919050565b601f8211156200084957600081815260208120601f850160051c81016020861015620008245750805b601f850160051c820191505b81811015620008455782815560010162000830565b5050505b505050565b81516001600160401b038111156200086a576200086a6200042a565b62000882816200087b8454620007bf565b84620007fb565b602080601f831160018114620008ba5760008415620008a15750858301515b600019600386901b1c1916600185901b17855562000845565b600085815260208120601f198616915b82811015620008eb57888601518255948401946001909101908401620008ca565b50858210156200090a5787850151600019600388901b60f8161c191681555b5050505050600190811b01905550565b80516001600160401b03168252602080820151604082850181905281519085018190526000929182019190839060608701905b80831015620009785784516001600160a01b031682529383019360019290920191908301906200094d565b509695505050505050565b6040815260006200099860408301856200091a565b905060018060a01b03831660208301529392505050565b600060208284031215620009c257600080fd5b81516001600160401b03811115620009d957600080fd5b620009e784828501620004f9565b949350505050565b60208152600062000a0460208301846200091a565b9392505050565b60006020828403121562000a1e57600080fd5b5051919050565b60805160a05160c05160e05161010051610120516101405161016051610180516101a0516164c062000b0a600039600081816107720152611e870152600061025b015260006106240152600081816107fc0152818161088c01528181610a8c01528181610b5a015281816114590152818161153701528181611d8201526134c0015260006107a601526000610227015260006105b80152600081816106b20152818161136601528181611416015281816114fa0152611d30015260008181610349015281816123c30152613a410152600081816104810152613a9601526164c06000f3fe6080604052600436106101c45760003560e01c806304fda3d4146101d857806306c468531461021557806306fdde03146102495780630f43a6771461028b57806310d500e1146102a0578063133f74ea14610300578063185fde7e14610337578063200d2ed21461036b57806323a357051461039957806326476204146103c657806332e0aa1f146103f35780633ccfd60b1461042057806341c0e1b51461043557806351392fc01461044a578063599c7bd11461046f5780635f832dbf146104b557806366d7bbbc146104cb5780636cb2ecee146105385780636cf6970a1461056657806373f273fc146105795780637d9740f4146105a657806380f76021146105da5780638b0e9f3f146105fc5780638ef3f7611461061257806391be4d4114610653578063989037481461066f5780639e33bd02146106a0578063a1ada303146106d4578063a7f0b3de146106e9578063a9fb763c146106fe578063ad81e2441461071e578063b7ab4db51461073e578063c18f64aa14610760578063c5ab224114610794578063cf331250146107c8578063cfca2824146107ea578063d4e25bab1461081e578063d66d9e191461084c578063f6fd83811461086157600080fd5b366101d3576101d1610881565b005b600080fd5b3480156101e457600080fd5b506005546101f8906001600160401b031681565b6040516001600160401b0390911681526020015b60405180910390f35b34801561022157600080fd5b506101f87f000000000000000000000000000000000000000000000000000000000000000081565b34801561025557600080fd5b5061027d7f000000000000000000000000000000000000000000000000000000000000000081565b60405190815260200161020c565b34801561029757600080fd5b5061027d6108cc565b3480156102ac57600080fd5b506002546102d6906001600160401b0380821691600160401b8104821691600160801b9091041683565b604080516001600160401b039485168152928416602084015292169181019190915260600161020c565b34801561030c57600080fd5b5061032061031b36600461405a565b6108dd565b60408051921515835260208301919091520161020c565b34801561034357600080fd5b506101f87f000000000000000000000000000000000000000000000000000000000000000081565b34801561037757600080fd5b5060055461038c90600160401b900460ff1681565b60405161020c919061408d565b3480156103a557600080fd5b506103b96103b43660046140bc565b610976565b60405161020c919061411f565b3480156103d257600080fd5b5061027d6103e13660046140bc565b600b6020526000908152604090205481565b3480156103ff57600080fd5b5061041361040e366004614132565b610a10565b60405161020c919061414b565b34801561042c57600080fd5b506101d1610a23565b34801561044157600080fd5b506101d1610af8565b34801561045657600080fd5b50600154600160401b90046001600160401b03166101f8565b34801561047b57600080fd5b506104a37f000000000000000000000000000000000000000000000000000000000000000081565b60405160ff909116815260200161020c565b3480156104c157600080fd5b5061027d60065481565b3480156104d757600080fd5b506105286104e636600461415f565b6001600160401b0382166000908152600a602090815260408083208054845260030182528083206001600160a01b038516845290915290205460ff1692915050565b604051901515815260200161020c565b34801561054457600080fd5b5061055861055336600461405a565b610bcd565b60405161020c9291906143f8565b6101d16105743660046144a7565b6112d1565b34801561058557600080fd5b5061027d6105943660046140bc565b600c6020526000908152604090205481565b3480156105b257600080fd5b506101f87f000000000000000000000000000000000000000000000000000000000000000081565b3480156105e657600080fd5b506105ef6115b1565b60405161020c9190614541565b34801561060857600080fd5b5061027d60045481565b34801561061e57600080fd5b506106467f000000000000000000000000000000000000000000000000000000000000000081565b60405161020c9190614554565b34801561065f57600080fd5b5061027d670de0b6b3a764000081565b34801561067b57600080fd5b5061068f61068a36600461405a565b611639565b60405161020c959493929190614568565b3480156106ac57600080fd5b5061027d7f000000000000000000000000000000000000000000000000000000000000000081565b3480156106e057600080fd5b506104a3600a81565b3480156106f557600080fd5b506103b9611776565b34801561070a57600080fd5b506101d1610719366004614132565b611783565b34801561072a57600080fd5b506001546101f8906001600160401b031681565b34801561074a57600080fd5b50610753611840565b60405161020c91906145b6565b34801561076c57600080fd5b5061027d7f000000000000000000000000000000000000000000000000000000000000000081565b3480156107a057600080fd5b506101f87f000000000000000000000000000000000000000000000000000000000000000081565b3480156107d457600080fd5b506107dd6118e5565b60405161020c91906145c9565b3480156107f657600080fd5b506104137f000000000000000000000000000000000000000000000000000000000000000081565b34801561082a57600080fd5b5061083e6108393660046140bc565b611be1565b60405161020c929190614689565b34801561085857600080fd5b506101d1611c8a565b34801561086d57600080fd5b506101d161087c3660046146a5565b611dfe565b336001600160a01b037f000000000000000000000000000000000000000000000000000000000000000016146108ca5760405163e7e601db60e01b815260040160405180910390fd5b565b60006108d860086120b0565b905090565b6000806000806108ec85610bcd565b6040516339aa47fb60e01b81529193509150829073__$1cd67d4dc9e627f0bec7928aa480e7d951$__906339aa47fb9061092a908590600401614905565b602060405180830381865af4158015610947573d6000803e3d6000fd5b505050506040513d601f19601f8201168201806040525081019061096b91906149a1565b935093505050915091565b600d602052600090815260409020805461098f906149ba565b80601f01602080910402602001604051908101604052809291908181526020018280546109bb906149ba565b8015610a085780601f106109dd57610100808354040283529160200191610a08565b820191906000526020600020905b8154815290600101906020018083116109eb57829003601f168201915b505050505081565b6000610a1d6008836120ba565b92915050565b610a2b6120cd565b336000908152600c602052604081205490819003610a5c576040516367300f9160e11b815260040160405180910390fd5b336000908152600c60205260408082209190915551631f0e077760e31b8152600481018290526001600160a01b037f0000000000000000000000000000000000000000000000000000000000000000169063f8703bb890602401600060405180830381600087803b158015610ad057600080fd5b505af1158015610ae4573d6000803e3d6000fd5b50610af59250339150839050612162565b50565b610b006120cd565b610b08612282565b610b1260086120b0565b151580610b20575060045415155b15610b3e57604051636b62255160e11b815260040160405180910390fd5b600580546003919060ff60401b1916600160401b8302179055507f00000000000000000000000000000000000000000000000000000000000000006001600160a01b03166341c0e1b56040518163ffffffff1660e01b8152600401600060405180830381600087803b158015610bb357600080fd5b505af1158015610bc7573d6000803e3d6000fd5b50505050565b6000610bd7613b9f565b6001600160401b03808416600090815260076020908152604091829020825161012081018452815490941660e0850190815260018201805485518186028101860190965280865292948694929386936101008701939190830182828015610c6757602002820191906000526020600020905b81546001600160a01b03168152600190910190602001808311610c49575b50505050508152505081526020016002820160009054906101000a90046001600160401b03166001600160401b03166001600160401b031681526020016003820154815260200160048201805480602002602001604051908101604052809291908181526020016000905b828210156110715760008481526020908190206040805161018081018252600c860290920180546001600160401b031661014084019081526001820180548451818802810188018652818152959693958795860194879486946101008901948794869486936101608d01939091830182828015610d7857602002820191906000526020600020905b81546001600160a01b03168152600190910190602001808311610d5a575b5050509190925250505081526040805180820190915260028301805460ff16825260038401805460209485019484019190610db2906149ba565b80601f0160208091040260200160405190810160405280929190818152602001828054610dde906149ba565b8015610e2b5780601f10610e0057610100808354040283529160200191610e2b565b820191906000526020600020905b815481529060010190602001808311610e0e57829003601f168201915b505050919092525050509052508152604080516080810182526004840180546001600160401b0316828401908152600586018054855160208281028201810190975281815296860196949593948694869360608701939091830182828015610ebc57602002820191906000526020600020905b81546001600160a01b03168152600190910190602001808311610e9e575b5050509190925250505081526040805180820190915260028301805460ff16825260038401805460209485019484019190610ef6906149ba565b80601f0160208091040260200160405190810160405280929190818152602001828054610f22906149ba565b8015610f6f5780601f10610f4457610100808354040283529160200191610f6f565b820191906000526020600020905b815481529060010190602001808311610f5257829003601f168201915b5050509190925250505090525081526008820154602082015260098201546001600160401b0381166040830152600160401b900460e01b6001600160e01b0319166060820152600a82018054608090920191610fca906149ba565b80601f0160208091040260200160405190810160405280929190818152602001828054610ff6906149ba565b80156110435780601f1061101857610100808354040283529160200191611043565b820191906000526020600020905b81548152906001019060200180831161102657829003601f168201915b505050919092525050508152600b919091015460ff1615156020918201529082526001929092019101610cd2565b50505050815260200160058201805480602002602001604051908101604052809291908181526020016000905b828210156111a8576000848152602090819020604080516080810182526003860290920180546001600160401b03168383019081526001820180548451818802810188019095528085529495929486949293869360608701939092909183018282801561113457602002820191906000526020600020905b81546001600160a01b03168152600190910190602001808311611116575b50505050508152505081526020016002820180548060200260200160405190810160405280929190818152602001828054801561119057602002820191906000526020600020905b81548152602001906001019080831161117c575b5050505050815250508152602001906001019061109e565b505050508152602001600682015481526020016007820180546111ca906149ba565b80601f01602080910402602001604051908101604052809291908181526020018280546111f6906149ba565b80156112435780601f1061121857610100808354040283529160200191611243565b820191906000526020600020905b81548152906001019060200180831161122657829003601f168201915b5050509190925250508151604051630c133d1360e31b815292935073__$a0fe38a9a81205afccc10810b09a4d3f45$__92636099e898925061128891906004016149f4565b602060405180830381865af41580156112a5573d6000803e3d6000fd5b505050506040513d601f19601f820116820180604052508101906112c99190614a15565b159150915091565b6112d96120cd565b6112e1612282565b3433600082900361130557604051635a78c58160e11b815260040160405180910390fd5b6001600160a01b0381166000908152600b60205260408120805484929061132d908490614a48565b9250508190555081600460008282546113469190614a48565b90915550506001600160a01b0381166000908152600b60205260409020547f0000000000000000000000000000000000000000000000000000000000000000116113f0576113956008826122c0565b6113f0576113a46008826122d5565b506001600160a01b0381166000908152600d602052604090206113c8858783614ae4565b506001600160a01b0381166000908152600e6020526040902083906113ed8282614bf8565b50505b6005808054600160401b900460ff169081111561140f5761140f614077565b036114d3577f0000000000000000000000000000000000000000000000000000000000000000600454106114ce57600580546001919060ff60401b1916600160401b8302179055507f00000000000000000000000000000000000000000000000000000000000000006001600160a01b0316631aa3a0086004546040518263ffffffff1660e01b81526004016000604051808303818588803b1580156114b457600080fd5b505af11580156114c8573d6000803e3d6000fd5b50505050505b6115aa565b600260058054600160401b900460ff16908111156114f3576114f3614077565b03611535577f000000000000000000000000000000000000000000000000000000000000000060045410611535576005805460ff60401b1916600160401b1790555b7f00000000000000000000000000000000000000000000000000000000000000006001600160a01b0316635a627dbc836040518263ffffffff1660e01b81526004016000604051808303818588803b15801561159057600080fd5b505af11580156115a4573d6000803e3d6000fd5b50505050505b5050505050565b6115b9613bee565b604080518082018252600f80546001600160401b0316825260108054845160208281028201810190965281815293949293838601939092919083018282801561162b57602002820191906000526020600020905b81546001600160a01b0316815260019091019060200180831161160d575b505050505081525050905090565b6007602090815260009182526040918290208251808401845281546001600160401b031681526001820180548551818602810186019096528086529294919385938582019392918301828280156116b957602002820191906000526020600020905b81546001600160a01b0316815260019091019060200180831161169b575b5050509190925250505060028201546003830154600684015460078501805494956001600160401b0390941694929391926116f3906149ba565b80601f016020809104026020016040519081016040528092919081815260200182805461171f906149ba565b801561176c5780601f106117415761010080835404028352916020019161176c565b820191906000526020600020905b81548152906001019060200180831161174f57829003601f168201915b5050505050905085565b6011805461098f906149ba565b61178b610881565b600061179760086120b0565b9050806000036117ba5760405163efa9c8f160e01b815260040160405180910390fd5b808210156117db57604051633074cabf60e11b815260040160405180910390fd5b60006117e78284614cf2565b905060005b82811015610bc75781600c60006118046008856120ba565b6001600160a01b03166001600160a01b0316815260200190815260200160002060008282546118339190614a48565b90915550506001016117ec565b6060600061184e60086120b0565b90506000816001600160401b0381111561186a5761186a614a5b565b604051908082528060200260200182016040528015611893578160200160208202803683370190505b50905060005b828110156118de576118ac6008826120ba565b8282815181106118be576118be614d06565b6001600160a01b0390921660209283029190910190910152600101611899565b5092915050565b604080518082019091526060815260006020820152600061190660086120b0565b90506000816001600160401b0381111561192257611922614a5b565b60405190808252806020026020018201604052801561198757816020015b604080516080810182526000808252602080830182905283518085018552918252606090820181905292820152818101919091528152602001906001900390816119405790505b50905060005b82811015611bbc576040805160808101909152806119ac6008846120ba565b6001600160a01b03168152602001600b60006119c96008866120ba565b6001600160a01b03166001600160a01b03168152602001908152602001600020548152602001600e6000611a078560086120ba90919063ffffffff16565b6001600160a01b0316815260208082019290925260409081016000208151808301909252805460ff1682526001810180549293919291840191611a49906149ba565b80601f0160208091040260200160405190810160405280929190818152602001828054611a75906149ba565b8015611ac25780601f10611a9757610100808354040283529160200191611ac2565b820191906000526020600020905b815481529060010190602001808311611aa557829003601f168201915b505050919092525050508152602001600d6000611ae06008866120ba565b6001600160a01b03166001600160a01b031681526020019081526020016000208054611b0b906149ba565b80601f0160208091040260200160405190810160405280929190818152602001828054611b37906149ba565b8015611b845780601f10611b5957610100808354040283529160200191611b84565b820191906000526020600020905b815481529060010190602001808311611b6757829003601f168201915b5050505050815250828281518110611b9e57611b9e614d06565b60200260200101819052508080611bb490614d1c565b91505061198d565b50604080518082019091529081526005546001600160401b0316602082015292915050565b600e602052600090815260409020805460018201805460ff9092169291611c07906149ba565b80601f0160208091040260200160405190810160405280929190818152602001828054611c33906149ba565b8015611c805780601f10611c5557610100808354040283529160200191611c80565b820191906000526020600020905b815481529060010190602001808311611c6357829003601f168201915b5050505050905082565b611c926122ea565b611c9a6120cd565b611ca2612282565b336000908152600b602052604081205490819003611cd357604051632ec5b44960e01b815260040160405180910390fd5b336000908152600b6020526040812081905560048054839290611cf7908490614d35565b90915550611d089050600833612343565b50600160058054600160401b900460ff1690811115611d2957611d29614077565b03611d6c577f00000000000000000000000000000000000000000000000000000000000000006004541015611d6c576005805460ff60401b1916600160411b1790555b6040516345f5448560e01b8152600481018290527f00000000000000000000000000000000000000000000000000000000000000006001600160a01b0316906345f5448590602401600060405180830381600087803b158015611dce57600080fd5b505af1158015611de2573d6000803e3d6000fd5b50611df39250339150839050612162565b506108ca6001600055565b611e066120cd565b611e16604082016020830161405a565b611e1f81612358565b600160058054600160401b900460ff1690811115611e3f57611e3f614077565b14611e5d5760405163c18316bf60e01b815260040160405180910390fd5b611e686008336122c0565b611e8557604051632ec5b44960e01b815260040160405180910390fd5b7f0000000000000000000000000000000000000000000000000000000000000000611eb08380614d48565b611eb990614ee4565b6040516390ba52cf60e01b815273__$a0fe38a9a81205afccc10810b09a4d3f45$__916390ba52cf91611eef91906004016149f4565b602060405180830381865af4158015611f0c573d6000803e3d6000fd5b505050506040513d601f19601f82011682018060405250810190611f3091906149a1565b14611f4e576040516375ecc72d60e01b815260040160405180910390fd5b73__$33b79814e84bf6cf5e47244090b19ce5f8$__6389841475611f756060850185614ef0565b6040518363ffffffff1660e01b8152600401611f92929190615109565b602060405180830381865af4158015611faf573d6000803e3d6000fd5b505050506040513d601f19601f82011682018060405250810190611fd39190614a15565b611ff057604051630bd9169f60e01b815260040160405180910390fd5b6000600a81612005604086016020870161405a565b6001600160401b03166001600160401b031681526020019081526020016000209050600061205a828533600b6000336001600160a01b03166001600160a01b031681526020019081526020016000205461242e565b905080156120705761206b82612bee565b610bc7565b60008061207b613523565b9150915080156120a8576001600160401b0382166000908152600a602052604090206120a681612bee565b505b505050505050565b6000610a1d825490565b60006120c68383613547565b9392505050565b604051630972932760e21b815273__$e800e3908cdbb6b1b5bd452383a17b18f7$__906325ca4c9c9061210490339060040161414b565b602060405180830381865af4158015612121573d6000803e3d6000fd5b505050506040513d601f19601f820116820180604052508101906121459190614a15565b6108ca5760405163b7150de560e01b815260040160405180910390fd5b804710156121b75760405162461bcd60e51b815260206004820152601d60248201527f416464726573733a20696e73756666696369656e742062616c616e636500000060448201526064015b60405180910390fd5b6000826001600160a01b03168260405160006040518083038185875af1925050503d8060008114612204576040519150601f19603f3d011682016040523d82523d6000602084013e612209565b606091505b505090508061227d5760405162461bcd60e51b815260206004820152603a60248201527f416464726573733a20756e61626c6520746f2073656e642076616c75652c20726044820152791958da5c1a595b9d081b585e481a185d99481c995d995c9d195960321b60648201526084016121ae565b505050565b600360058054600160401b900460ff16908111156122a2576122a2614077565b036108ca5760405163248c8efb60e11b815260040160405180910390fd5b60006120c6836001600160a01b038416613571565b60006120c6836001600160a01b038416613589565b60026000540361233c5760405162461bcd60e51b815260206004820152601f60248201527f5265656e7472616e637947756172643a207265656e7472616e742063616c6c0060448201526064016121ae565b6002600055565b60006120c6836001600160a01b0384166135d3565b6001546001600160401b039081169082161161238757604051631f30cc6360e21b815260040160405180910390fd5b6001546001600160401b03600160401b909104811690821610156123be5760405163b4f68f9760e01b815260040160405180910390fd5b6001547f0000000000000000000000000000000000000000000000000000000000000000906123fd90600160401b90046001600160401b03168361524e565b612407919061526e565b6001600160401b031615610af55760405163b4f68f9760e01b815260040160405180910390fd5b60008061243a85615666565b6040516339aa47fb60e01b815273__$1cd67d4dc9e627f0bec7928aa480e7d951$__916339aa47fb916124709190600401614905565b602060405180830381865af415801561248d573d6000803e3d6000fd5b505050506040513d601f19601f820116820180604052508101906124b191906149a1565b90506124d2868286866124ca60408b0160208c0161405a565b6004546136c6565b600082815260058801602090815260409182902082516101208101845281546001600160401b031660e082019081526001830180548651818702810187019097528087529698509195929486949193869361010087019390919083018282801561256557602002820191906000526020600020905b81546001600160a01b03168152600190910190602001808311612547575b50505050508152505081526020016002820160009054906101000a90046001600160401b03166001600160401b03166001600160401b031681526020016003820154815260200160048201805480602002602001604051908101604052809291908181526020016000905b8282101561296f5760008481526020908190206040805161018081018252600c860290920180546001600160401b031661014084019081526001820180548451818802810188018652818152959693958795860194879486946101008901948794869486936101608d0193909183018282801561267657602002820191906000526020600020905b81546001600160a01b03168152600190910190602001808311612658575b5050509190925250505081526040805180820190915260028301805460ff168252600384018054602094850194840191906126b0906149ba565b80601f01602080910402602001604051908101604052809291908181526020018280546126dc906149ba565b80156127295780601f106126fe57610100808354040283529160200191612729565b820191906000526020600020905b81548152906001019060200180831161270c57829003601f168201915b505050919092525050509052508152604080516080810182526004840180546001600160401b03168284019081526005860180548551602082810282018101909752818152968601969495939486948693606087019390918301828280156127ba57602002820191906000526020600020905b81546001600160a01b0316815260019091019060200180831161279c575b5050509190925250505081526040805180820190915260028301805460ff168252600384018054602094850194840191906127f4906149ba565b80601f0160208091040260200160405190810160405280929190818152602001828054612820906149ba565b801561286d5780601f106128425761010080835404028352916020019161286d565b820191906000526020600020905b81548152906001019060200180831161285057829003601f168201915b5050509190925250505090525081526008820154602082015260098201546001600160401b0381166040830152600160401b900460e01b6001600160e01b0319166060820152600a820180546080909201916128c8906149ba565b80601f01602080910402602001604051908101604052809291908181526020018280546128f4906149ba565b80156129415780601f1061291657610100808354040283529160200191612941565b820191906000526020600020905b81548152906001019060200180831161292457829003601f168201915b505050919092525050508152600b919091015460ff16151560209182015290825260019290920191016125d0565b50505050815260200160058201805480602002602001604051908101604052809291908181526020016000905b82821015612aa6576000848152602090819020604080516080810182526003860290920180546001600160401b031683830190815260018201805484518188028101880190955280855294959294869492938693606087019390929091830182828015612a3257602002820191906000526020600020905b81546001600160a01b03168152600190910190602001808311612a14575b505050505081525050815260200160028201805480602002602001604051908101604052809291908181526020018280548015612a8e57602002820191906000526020600020905b815481526020019060010190808311612a7a575b5050505050815250508152602001906001019061299c565b50505050815260200160068201548152602001600782018054612ac8906149ba565b80601f0160208091040260200160405190810160405280929190818152602001828054612af4906149ba565b8015612b415780601f10612b1657610100808354040283529160200191612b41565b820191906000526020600020905b815481529060010190602001808311612b2457829003601f168201915b5050509190925250506040516322ea8d8960e11b815273__$1cd67d4dc9e627f0bec7928aa480e7d951$__926345d51b129250612b8091600401614905565b602060405180830381865af4158015612b9d573d6000803e3d6000fd5b505050506040513d601f19601f82011682018060405250810190612bc19190614a15565b15612be557600081815260058701602052604090208590612be28282615f36565b50505b50949350505050565b600281015460009081526005820160205260409020600680820154905414612ce657604051635a27a53960e11b81526004810183905273__$e0f829f5071d7e628aa77eca0c12e35bc2$__9063b44f4a729060240160006040518083038186803b158015612c5b57600080fd5b505af4158015612c6f573d6000803e3d6000fd5b505050506002818101546040516394ecccfd60e01b815273__$b7b8687e33476c74e3b4e0a64c4768a343$__926394ecccfd92612cba926001600160401b039091169060040161603e565b60006040518083038186803b158015612cd257600080fd5b505af41580156120a8573d6000803e3d6000fd5b6002810154612cfd906001600160401b03166138f9565b60028101546001600160401b039081166000908152600760205260409020825481546001600160401b03191692169190911781556001808301805484939284928492612d4c9284019190613c06565b50505060028281015490820180546001600160401b0319166001600160401b039092169190911790556003808301549082015560048083018054612d939284019190613c56565b5060058281018054612da89284019190613e17565b506006820154816006015560078201816007019081612dc79190616055565b5050604080516101208101825283546001600160401b031660e0820190815260018501805484516020828102820181019096528181529395508694869486936101008701939192909190830182828015612e4a57602002820191906000526020600020905b81546001600160a01b03168152600190910190602001808311612e2c575b50505050508152505081526020016002820160009054906101000a90046001600160401b03166001600160401b03166001600160401b031681526020016003820154815260200160048201805480602002602001604051908101604052809291908181526020016000905b828210156132545760008481526020908190206040805161018081018252600c860290920180546001600160401b031661014084019081526001820180548451818802810188018652818152959693958795860194879486946101008901948794869486936101608d01939091830182828015612f5b57602002820191906000526020600020905b81546001600160a01b03168152600190910190602001808311612f3d575b5050509190925250505081526040805180820190915260028301805460ff16825260038401805460209485019484019190612f95906149ba565b80601f0160208091040260200160405190810160405280929190818152602001828054612fc1906149ba565b801561300e5780601f10612fe35761010080835404028352916020019161300e565b820191906000526020600020905b815481529060010190602001808311612ff157829003601f168201915b505050919092525050509052508152604080516080810182526004840180546001600160401b031682840190815260058601805485516020828102820181019097528181529686019694959394869486936060870193909183018282801561309f57602002820191906000526020600020905b81546001600160a01b03168152600190910190602001808311613081575b5050509190925250505081526040805180820190915260028301805460ff168252600384018054602094850194840191906130d9906149ba565b80601f0160208091040260200160405190810160405280929190818152602001828054613105906149ba565b80156131525780601f1061312757610100808354040283529160200191613152565b820191906000526020600020905b81548152906001019060200180831161313557829003601f168201915b5050509190925250505090525081526008820154602082015260098201546001600160401b0381166040830152600160401b900460e01b6001600160e01b0319166060820152600a820180546080909201916131ad906149ba565b80601f01602080910402602001604051908101604052809291908181526020018280546131d9906149ba565b80156132265780601f106131fb57610100808354040283529160200191613226565b820191906000526020600020905b81548152906001019060200180831161320957829003601f168201915b505050919092525050508152600b919091015460ff1615156020918201529082526001929092019101612eb5565b50505050815260200160058201805480602002602001604051908101604052809291908181526020016000905b8282101561338b576000848152602090819020604080516080810182526003860290920180546001600160401b03168383019081526001820180548451818802810188019095528085529495929486949293869360608701939092909183018282801561331757602002820191906000526020600020905b81546001600160a01b031681526001909101906020018083116132f9575b50505050508152505081526020016002820180548060200260200160405190810160405280929190818152602001828054801561337357602002820191906000526020600020905b81548152602001906001019080831161335f575b50505050508152505081526020019060010190613281565b505050508152602001600682015481526020016007820180546133ad906149ba565b80601f01602080910402602001604051908101604052809291908181526020018280546133d9906149ba565b80156134265780601f106133fb57610100808354040283529160200191613426565b820191906000526020600020905b81548152906001019060200180831161340957829003601f168201915b5050509190925250506040516339aa47fb60e01b815273__$1cd67d4dc9e627f0bec7928aa480e7d951$__926339aa47fb925061346591600401614905565b602060405180830381865af4158015613482573d6000803e3d6000fd5b505050506040513d601f19601f820116820180604052508101906134a691906149a1565b600655604051631a9c293560e31b81526001600160a01b037f0000000000000000000000000000000000000000000000000000000000000000169063d4e149a8906134f59084906004016163c4565b600060405180830381600087803b15801561350f57600080fd5b505af11580156120a8573d6000803e3d6000fd5b600254600160401b90046001600160401b0316600061354182613a35565b90509091565b600082600001828154811061355e5761355e614d06565b9060005260206000200154905092915050565b60009081526001919091016020526040902054151590565b60006135958383613571565b6135cb57508154600181810184556000848152602080822090930184905584548482528286019093526040902091909155610a1d565b506000610a1d565b600081815260018301602052604081205480156136bc5760006135f7600183614d35565b855490915060009061360b90600190614d35565b905081811461367057600086600001828154811061362b5761362b614d06565b906000526020600020015490508087600001848154811061364e5761364e614d06565b6000918252602080832090910192909255918252600188019052604090208390555b855486908061368157613681616454565b600190038181906000526020600020016000905590558560010160008681526020019081526020016000206000905560019350505050610a1d565b6000915050610a1d565b8554600081815260038801602090815260408083206001600160a01b038916845290915281205490919060ff1615613711576040516337138f5f60e11b815260040160405180910390fd5b600081815260038901602090815260408083206001600160a01b038a1684529091528120805460ff1916600190811790915589018054879290613755908490614a48565b9091555050600081815260048901602090815260408083208a845290915281208054879290613785908490614a48565b90915550506000818152600489016020908152604080832060028c0154845290915280822054898352912054808210156137c15760028a018990555b60006137cd8b87613a8a565b905060038160038111156137e3576137e3614077565b0361386e576137f187613a35565b156137ff57600194506138eb565b60405163199b9ca560e01b815273__$b7b8687e33476c74e3b4e0a64c4768a343$__9063199b9ca590613839906002908b9060040161603e565b60006040518083038186803b15801561385157600080fd5b505af4158015613865573d6000803e3d6000fd5b505050506138eb565b600281600381111561388257613882614077565b036138eb57604051635a27a53960e11b8152600481018c905273__$e0f829f5071d7e628aa77eca0c12e35bc2$__9063b44f4a729060240160006040518083038186803b1580156138d257600080fd5b505af41580156138e6573d6000803e3d6000fd5b505050505b505050509695505050505050565b61390281613a35565b6139095750565b604051634953836d60e11b815273__$b7b8687e33476c74e3b4e0a64c4768a343$__906392a706da9061394390600290859060040161603e565b602060405180830381865af4158015613960573d6000803e3d6000fd5b505050506040513d601f19601f820116820180604052508101906139849190614a15565b156139a8576002546001600160401b03828116600160401b90920416146139a85750565b6040516394ecccfd60e01b815273__$b7b8687e33476c74e3b4e0a64c4768a343$__906394ecccfd906139e290600290859060040161603e565b60006040518083038186803b1580156139fa57600080fd5b505af4158015613a0e573d6000803e3d6000fd5b5050600180546001600160401b0319166001600160401b0394909416939093179092555050565b600154600090613a6f907f0000000000000000000000000000000000000000000000000000000000000000906001600160401b031661646a565b6001600160401b0316826001600160401b0316149050919050565b6000806064613abc60ff7f0000000000000000000000000000000000000000000000000000000000000000168561576e565b613ac69190614cf2565b604051637d2ef4e560e11b81526004810186905290915060009073__$e0f829f5071d7e628aa77eca0c12e35bc2$__9063fa5de9ca90602401602060405180830381865af4158015613b1c573d6000803e3d6000fd5b505050506040513d601f19601f82011682018060405250810190613b4091906149a1565b905081856001015411613b5857600092505050610a1d565b81811115613b6b57600392505050610a1d565b6001850154613b7a9085614d35565b613b848284614d35565b10613b9457600292505050610a1d565b506001949350505050565b6040518060e00160405280613bb2613bee565b815260200160006001600160401b0316815260200160008152602001606081526020016060815260200160008019168152602001606081525090565b60408051808201909152600081526060602082015290565b828054828255906000526020600020908101928215613c465760005260206000209182015b82811115613c46578254825591600101919060010190613c2b565b50613c52929150613eb7565b5090565b82805482825590600052602060002090600c028101928215613e0b57600052602060002091600c0282015b82811115613e0b57825482546001600160401b0319166001600160401b039091161782556001808401805485928592849284928492849284928492613cc99291840191613c06565b50505060028281018054918301805460ff191660ff90931692909217825590600380840190613cfa90860182616055565b505050506004838101805491840180546001600160401b0319166001600160401b039093169290921782556005808601805492945084928492613d409290880191613c06565b50505060028281018054918301805460ff191660ff90931692909217825590600380840190613d7190860182616055565b5050505060088381015490830155506009808301805491830180546001600160401b031981166001600160401b039094169384178255915463ffffffff600160401b9182900416026001600160601b0319909216909217179055600a80820190613ddd90840182616055565b505050600b918201549101805460ff191660ff9092161515919091179055600c928301929190910190613c81565b50613c52929150613ecc565b828054828255906000526020600020906003028101928215613eab5760005260206000209160030282015b82811115613eab57825482546001600160401b0319166001600160401b03909116178255600180840180548592859284928492613e829290840191613c06565b50505060028281018054613e999284019190613c06565b50505091600301919060030190613e42565b50613c52929150613f9c565b5b80821115613c525760008155600101613eb8565b80821115613c525780546001600160401b03191681556000818181818181613ef76001830182613fdd565b505060028201805460ff191681556000613f146003850182613ffb565b505050506004820180546001600160401b031916815560008181613f3b6005870182613fdd565b505060028201805460ff191681556000613f586003850182613ffb565b50506000600885018190556009850180546001600160601b0319169055613f859250600a85019150613ffb565b505050600b8101805460ff19169055600c01613ecc565b80821115613c525780546001600160401b031916815560008181613fc36001830182613fdd565b50613fd49050600283016000613fdd565b50600301613f9c565b5080546000825590600052602060002090810190610af59190613eb7565b508054614007906149ba565b6000825580601f10614017575050565b601f016020900490600052602060002090810190610af59190613eb7565b6001600160401b0381168114610af557600080fd5b803561405581614035565b919050565b60006020828403121561406c57600080fd5b81356120c681614035565b634e487b7160e01b600052602160045260246000fd5b60208101600683106140a1576140a1614077565b91905290565b6001600160a01b0381168114610af557600080fd5b6000602082840312156140ce57600080fd5b81356120c6816140a7565b6000815180845260005b818110156140ff576020818501810151868301820152016140e3565b506000602082860101526020601f19601f83011685010191505092915050565b6020815260006120c660208301846140d9565b60006020828403121561414457600080fd5b5035919050565b6001600160a01b0391909116815260200190565b6000806040838503121561417257600080fd5b823561417d81614035565b9150602083013561418d816140a7565b809150509250929050565b600081518084526020808501945080840160005b838110156141d15781516001600160a01b0316875295820195908201906001016141ac565b509495945050505050565b60018060401b03815116825260006020820151604060208501526142036040850182614198565b949350505050565b60ff8151168252600060208201516040602085015261420360408501826140d9565b600081516040845261424260408501826141dc565b90506020830151848203602086015261425b828261420b565b95945050505050565b600081518084526020808501808196508360051b8101915082860160005b8581101561434b578284038952815160408151818752805160c080848a01526142af6101008a018361422d565b915089830151603f196060818c860301818d01526142cd858461422d565b9686015160808d810191909152908601516001600160401b031660a0808e0191909152908601516001600160e01b031916938c0193909352918401518a860390920160e08b01525092905061432281846140d9565b93890151801515898b0152939250614338915050565b9986019994505090840190600101614282565b5091979650505050505050565b600081518084526020808501808196508360051b810191508286016000805b868110156143ea578385038a52825160408151818852614399828901826141dc565b92890151888403898b01528051808552908a01938693508a0191505b808310156143d557835182529289019260019290920191908901906143b5565b509b88019b9650505091850191600101614377565b509298975050505050505050565b8215158152604060208201526000825160e0604084015261441d6101208401826141dc565b905060018060401b036020850151166060840152604084015160808401526060840151603f19808584030160a08601526144578383614264565b925060808601519150808584030160c08601526144748383614358565b925060a086015160e086015260c0860151915080858403016101008601525061449d82826140d9565b9695505050505050565b6000806000604084860312156144bc57600080fd5b83356001600160401b03808211156144d357600080fd5b818601915086601f8301126144e757600080fd5b8135818111156144f657600080fd5b87602082850101111561450857600080fd5b60209283019550935090850135908082111561452357600080fd5b5084016040818703121561453657600080fd5b809150509250925092565b6020815260006120c660208301846141dc565b60208101600183106140a1576140a1614077565b60a08152600061457b60a08301886141dc565b6001600160401b0387166020840152604083018690526060830185905282810360808401526145aa81856140d9565b98975050505050505050565b6020815260006120c66020830184614198565b600060208083526060808401855160408085880152828251808552608094508489019150848160051b8a0101878501945060005b82811015614667578a8203607f19018452855180516001600160a01b03168352898101518a8401528581015186840189905261463b8985018261420b565b918a0151848303858c015291905061465381836140d9565b978b0197958b0195935050506001016145fd565b50968a01516001600160401b038116848b0152969a9950505050505050505050565b60ff8316815260406020820152600061420360408301846140d9565b6000602082840312156146b757600080fd5b81356001600160401b038111156146cd57600080fd5b820160e081850312156120c657600080fd5b80516001600160401b03168252602080820151604082850181905281519085018190526000929182019190839060608701905b8083101561473b5784516001600160a01b03168252938301936001929092019190830190614712565b509695505050505050565b600081516040845261475b60408501826146df565b90506020830151848203602086015260ff8151168252602081015190506040602083015261425b60408301826140d9565b600081518084526020808501808196508360051b8101915082860160005b8581101561434b578284038952815160408151818752805160c080848a01526147d76101008a0183614746565b915089830151603f196060818c860301818d01526147f58584614746565b9686015160808d810191909152908601516001600160401b031660a0808e0191909152908601516001600160e01b031916938c0193909352918401518a860390920160e08b01525092905061484a81846140d9565b93890151801515898b0152939250614860915050565b99860199945050908401906001016147aa565b600081518084526020808501808196508360051b810191508286016000805b868110156143ea578385038a528251604081518188526148b4828901826146df565b92890151888403898b01528051808552908a01938693508a0191505b808310156148f057835182529289019260019290920191908901906148d0565b509b88019b9650505091850191600101614892565b602081526000825160e060208401526149226101008401826146df565b905060018060401b036020850151166040840152604084015160608401526060840151601f198085840301608086015261495c838361478c565b925060808601519150808584030160a08601526149798383614873565b925060a086015160c086015260c08601519150808584030160e08601525061425b82826140d9565b6000602082840312156149b357600080fd5b5051919050565b600181811c908216806149ce57607f821691505b6020821081036149ee57634e487b7160e01b600052602260045260246000fd5b50919050565b6020815260006120c660208301846146df565b8015158114610af557600080fd5b600060208284031215614a2757600080fd5b81516120c681614a07565b634e487b7160e01b600052601160045260246000fd5b80820180821115610a1d57610a1d614a32565b634e487b7160e01b600052604160045260246000fd5b60009081526020902090565b5b81811015614a925760008155600101614a7e565b5050565b601f82111561227d57806000526020600020601f840160051c81016020851015614abd5750805b6115aa601f850160051c830182614a7d565b600019600383901b1c191660019190911b1790565b6001600160401b03831115614afb57614afb614a5b565b614b0f83614b0983546149ba565b83614a96565b6000601f841160018114614b3d5760008515614b2b5750838201355b614b358682614acf565b8455506115aa565b601f198516614b4b84614a71565b835b82811015614b6d5786850135825560209485019460019092019101614b4d565b5086821015614b8a5760001960f88860031b161c19848701351681555b505060018560011b0183555050505050565b60ff81168114610af557600080fd5b6000808335601e19843603018112614bc257600080fd5b8301803591506001600160401b03821115614bdc57600080fd5b602001915036819003821315614bf157600080fd5b9250929050565b8135614c0381614b9c565b60ff811660ff198354161782555060018082016020614c2481860186614bab565b6001600160401b03811115614c3b57614c3b614a5b565b614c4f81614c4986546149ba565b86614a96565b6000601f821160018114614c7d5760008315614c6b5750838201355b614c758482614acf565b875550614cd1565b601f198316614c8b87614a71565b835b82811015614caa5786850135825593870193908901908701614c8d565b5084821015614cc75760001960f88660031b161c19848701351681555b50508683881b0186555b505050505050505050565b634e487b7160e01b600052601260045260246000fd5b600082614d0157614d01614cdc565b500490565b634e487b7160e01b600052603260045260246000fd5b600060018201614d2e57614d2e614a32565b5060010190565b81810381811115610a1d57610a1d614a32565b60008235603e19833603018112614d5e57600080fd5b9190910192915050565b604080519081016001600160401b0381118282101715614d8a57614d8a614a5b565b60405290565b60405160c081016001600160401b0381118282101715614d8a57614d8a614a5b565b60405160e081016001600160401b0381118282101715614d8a57614d8a614a5b565b604051601f8201601f191681016001600160401b0381118282101715614dfc57614dfc614a5b565b604052919050565b60006001600160401b03821115614e1d57614e1d614a5b565b5060051b60200190565b600060408284031215614e3957600080fd5b614e41614d68565b90508135614e4e81614035565b81526020828101356001600160401b03811115614e6a57600080fd5b8301601f81018513614e7b57600080fd5b8035614e8e614e8982614e04565b614dd4565b81815260059190911b82018301908381019087831115614ead57600080fd5b928401925b82841015614ed4578335614ec5816140a7565b82529284019290840190614eb2565b8085870152505050505092915050565b6000610a1d3683614e27565b6000808335601e19843603018112614f0757600080fd5b8301803591506001600160401b03821115614f2157600080fd5b6020019150600581901b3603821315614bf157600080fd5b60008235603e19833603018112614f4f57600080fd5b90910192915050565b6000808335601e19843603018112614f6f57600080fd5b83016020810192503590506001600160401b03811115614f8e57600080fd5b803603821315614bf157600080fd5b81835281816020850137506000828201602090810191909152601f909101601f19169091010190565b60008135614fd381614b9c565b60ff168352614fe56020830183614f58565b6040602086015261425b604086018284614f9d565b60006150068283614f39565b6040845260808401813561501981614035565b6001600160401b0390811660408701526020908382013536859003601e1901811261504357600080fd5b9093018181019390358181111561505957600080fd5b8060051b360385131561506b57600080fd5b60406060890152928390525060009160a08701905b808410156150b2578435615093816140a7565b6001600160a01b03168252938201936001939093019290820190615080565b506150bf82870187614f39565b9350868103828801526150d28185614fc6565b979650505050505050565b6001600160e01b031981168114610af557600080fd5b8035614055816150dd565b803561405581614a07565b60208082528181018390526000906040808401600586901b850182018785805b8981101561523f57603f19808a8603018652615145848d614f39565b803560be19823603018112615158578485fd5b88875281016151678180614f39565b60c0808b8a015261517c6101008a0183614ffa565b915061518a8c840184614f39565b6060868b850301818c015261519f8483614ffa565b9350608091508c850135828c01528085013590506151bc81614035565b6001600160401b03811660a08c81019190915291850135916151dd836150dd565b6001600160e01b031983168c8501526151f886820187614f58565b96509350505050848983030160e08a0152615214828483614f9d565b94505050506152248982016150fe565b15159589019590955294870194935091860191600101615129565b50919998505050505050505050565b6001600160401b038281168282160390808211156118de576118de614a32565b60006001600160401b038381168061528857615288614cdc565b92169190910692915050565b600082601f8301126152a557600080fd5b81356001600160401b038111156152be576152be614a5b565b6152d1601f8201601f1916602001614dd4565b8181528460208386010111156152e657600080fd5b816020850160208301376000918101602001919091529392505050565b60006040828403121561531557600080fd5b61531d614d68565b905081356001600160401b038082111561533657600080fd5b61534285838601614e27565b8352602084013591508082111561535857600080fd5b908301906040828603121561536c57600080fd5b615374614d68565b823561537f81614b9c565b815260208301358281111561539357600080fd5b61539f87828601615294565b60208301525080602085015250505092915050565b600082601f8301126153c557600080fd5b813560206153d5614e8983614e04565b82815260059290921b840181019181810190868411156153f457600080fd5b8286015b8481101561473b5780356001600160401b038082111561541757600080fd5b90880190601f196040838c038201121561543057600080fd5b615438614d68565b878401358381111561544957600080fd5b840160c0818e038401121561545d57600080fd5b615465614d90565b9250888101358481111561547857600080fd5b6154868e8b83850101615303565b84525060408101358481111561549b57600080fd5b6154a98e8b83850101615303565b8a85015250606081013560408401526154c46080820161404a565b60608401526154d560a082016150f3565b608084015260c0810135848111156154ec57600080fd5b6154fa8e8b83850101615294565b60a08501525050818152615510604085016150fe565b8189015286525050509183019183016153f8565b600082601f83011261553557600080fd5b81356020615545614e8983614e04565b828152600592831b850182019282820191908785111561556457600080fd5b8387015b858110156156595780356001600160401b03808211156155885760008081fd5b908901906040828c03601f19018113156155a25760008081fd5b6155aa614d68565b88840135838111156155bc5760008081fd5b6155ca8e8b83880101614e27565b82525081840135838111156155df5760008081fd5b8085019450508c603f8501126155f757600092508283fd5b888401359250615609614e8984614e04565b83815292861b8401820192898101908e8511156156265760008081fd5b948301945b848610156156445785358252948a0194908a019061562b565b828b0152508752505050928401928401615568565b5090979650505050505050565b600060e0823603121561567857600080fd5b615680614db2565b82356001600160401b038082111561569757600080fd5b6156a336838701614e27565b83526156b16020860161404a565b60208401526040850135604084015260608501359150808211156156d457600080fd5b6156e0368387016153b4565b606084015260808501359150808211156156f957600080fd5b61570536838701615524565b608084015260a085013560a084015260c085013591508082111561572857600080fd5b5061573536828601615294565b60c08301525092915050565b60008135610a1d81614035565b80546001600160401b0319166001600160401b0392909216919091179055565b8082028115828204841417610a1d57610a1d614a32565b8054600082558015614a925781600052602060002061227d82820182614a7d565b600160401b8211156157ba576157ba614a5b565b80548282558083101561227d57816000526020600020610bc7828201858301614a7d565b60008155610af560018201615785565b6157f881546149ba565b8015614a9257601f81116001811461581257505060009055565b826000526020600020615830601f840160051c820160018301614a7d565b60008085559055505050565b6000815561584c60018201615785565b60006002820155610af5600382016157ee565b6158698283614d48565b803561587481614035565b61587e818461574e565b506001808301602061589281850185614ef0565b94506001600160401b03808611156158ac576158ac614a5b565b6158b686856157a6565b600093845282842093805b878110156158e35783356158d4816140a7565b868201559284019286016158c1565b506002880196506158f6848a018a614d48565b94508435925061590583614b9c565b865460ff191660ff841617909655600387019561592485850186614bab565b955092508185111561593857615938614a5b565b61594c8561594689546149ba565b89614a96565b809150601f85116001811461597a578186156159685750838301355b6159728782614acf565b8955506115a4565b601f19861661598889614a71565b835b828110156159a7578686013582559487019490890190870161598a565b50878210156159c45760001960f88960031b161c19858701351681555b505050505091831b90920190925550505050565b60008135610a1d816150dd565b60008135610a1d81614a07565b813560be19833603018112615a0657600080fd5b8201615a128180614d48565b615a1c8182614d48565b8035615a2781614035565b615a31818661574e565b5060018085016020615a4581850185614ef0565b94506001600160401b0380861115615a5f57615a5f614a5b565b615a6986856157a6565b600093845282842093805b87811015615a96578335615a87816140a7565b86820155928401928601615a74565b5060028a019650615aa984890189614d48565b975087359450615ab885614b9c565b865460ff191660ff8616179096556003890195615ad788850189614bab565b9850945081881115615aeb57615aeb614a5b565b615af98861594689546149ba565b809250601f881160018114615b29578192508815615b18578386013592505b615b228984614acf565b8855615b7e565b601f1989169250615b3988614a71565b825b84811015615b585787860135825594860194908801908601615b3b565b5089841015615b755760001960f88b60031b161c19858801351681555b508689881b0188555b50505050615b9a615b9182880188614d48565b6004890161585f565b60408601356008880155600987019450615bbf615bb960608801615741565b8661574e565b615bf2615bce608088016159d8565b86805463ffffffff60401b191660a09290921c63ffffffff60401b16919091179055565b615bff60a0870187614bab565b96509450615c118686600a8a01614ae4565b615c38615c1f828a016159e5565b600b890160ff1981541660ff8315151681178255505050565b5050505050505050565b600160401b831115615c5657615c56614a5b565b805483825580841015615cea57600c8181028181048314615c7957615c79614a32565b8582028281048714615c8d57615c8d614a32565b6000858152602081209283019291909101905b82821015615ce557615cb18261583c565b615cbd6004830161583c565b806008830155806009830155615cd5600a83016157ee565b80600b8301558382019150615ca0565b505050505b5081615cf582614a71565b60005b858110156120a857615d13615d0d8487614d48565b836159f2565b60209290920191600c9190910190600101615cf8565b80546000808355811561227d57828152602081208281015b808210156115aa57828255600182019150615d41565b600160401b821115615d6b57615d6b614a5b565b80548282558083101561227d576000828152602081208481019083015b808210156120a857828255600182019150615d88565b615da88283614d48565b8035615db381614035565b615dbd818461574e565b5060018083016020615dd181850185614ef0565b94506001600160401b0380861115615deb57615deb614a5b565b615df586856157a6565b600093845282842093805b87811015615e22578335615e13816140a7565b86820155928401928601615e00565b50600288019650615e35848a018a614ef0565b9550925081851115615e4957615e49614a5b565b615e538588615d57565b95865250818520945b83811015615c3857813586820155908201908401615e5c565b600160401b831115615e8957615e89614a5b565b805483825580841015615ef75760038181028181048314615eac57615eac614a32565b8582028281048714615ec057615ec0614a32565b60008581526020902091820191015b81811015615ef357615ee0816157de565b615eec60028201615d29565b8201615ecf565b5050505b5081615f0282614a71565b60005b858110156120a857615f20615f1a8487614d48565b83615d9e565b6020929092019160039190910190600101615f05565b615f408283614d48565b8035615f4b81614035565b615f55818461574e565b5060018083016020615f6981850185614ef0565b94506001600160401b03851115615f8257615f82614a5b565b615f8c85846157a6565b6000928352818320925b85811015615fb8578135615fa9816140a7565b84820155908201908401615f96565b5050615fd1615fc8828801615741565b6002870161574e565b5050505060408201356003820155615fec6060830183614ef0565b615ffa818360048601615c42565b50506160096080830183614ef0565b616017818360058601615e75565b505060a0820135600682015561603060c0830183614bab565b610bc7818360078601614ae4565b9182526001600160401b0316602082015260400190565b818103616060575050565b61606a82546149ba565b6001600160401b0381111561608157616081614a5b565b6160958161608f84546149ba565b84614a96565b6000601f8211600181146160c357600083156160b15750848201545b6160bb8482614acf565b8555506115aa565b601f1983166160d186614a71565b6160da86614a71565b845b838110156160fc57828601548255600195860195909101906020016160dc565b508583101561611a5781850154600019600388901b60f8161c191681555b5050505050600190811b01905550565b80546001600160401b031682526040602080840182905260018381018054938601849052600090815282812090939092849160608801905b808410156161885785546001600160a01b03168252948401949284019290820190616162565b50979650505050505050565b600081546161a1816149ba565b8085526020600183811680156161be57600181146161d857616206565b60ff1985168884015283151560051b880183019550616206565b866000528260002060005b858110156161fe5781548a82018601529083019084016161e3565b890184019650505b505050505092915050565b604082526000616224604084018361612a565b838103602085015260ff6002840154168152604060208201526142036040820160038501616194565b600082825480855260208086019550808260051b840101856000528160002060005b8481101561565957601f19868403018952604080845260c0808286015261629a610100860185616211565b9150603f19808684030160608701526162b68360048701616211565b6008860154608088015260098601546001600160401b03811660a0808a01919091521b6001600160e01b031916928701929092528582030160e0860152905061630281600a8501616194565b9050616312600b84015460ff1690565b15159385019390935297830197600c919091019060010161626f565b600081548084526020808501808196508360051b810191506000868152838120815b868110156143ea578385038a52604080865261636e8187018461612a565b86810388880152600284018054808352908652888620925085918901905b808310156163ac578354825260019384019392909201919089019061638c565b509b88019b9650505060039190910190600101616350565b6020815260e0602082015260006163df61010083018461612a565b60028401546001600160401b0316604084015260038401546060840152828103601f199081016080850152616417826004870161624d565b9150808483030160a0850152616430826005870161632e565b9150600685015460c0850152808483030160e0850152506142038160078601616194565b634e487b7160e01b600052603160045260246000fd5b6001600160401b038181168382160190808211156118de576118de614a3256fea264697066735822122013ed668dd1aa47118596cca50f18178d3d8413fde2f18c0db9399b6670b8bce164736f6c63430008130033",
    "linkReferences": {
      "src/lib/AccountHelper.sol": {
        "AccountHelper": [
          {
            "start": 11238,
            "length": 20
          }
        ]
      },
      "src/lib/CheckpointHelper.sol": {
        "CheckpointHelper": [
          {
            "start": 5132,
            "length": 20
          },
          {
            "start": 12115,
            "length": 20
          },
          {
            "start": 13923,
            "length": 20
          },
          {
            "start": 16200,
            "length": 20
          }
        ]
      },
      "src/lib/CrossMsgHelper.sol": {
        "CrossMsgHelper": [
          {
            "start": 10842,
            "length": 20
          }
        ]
      },
      "src/lib/EpochVoteSubmissionHelper.sol": {
        "EpochVoteSubmissionHelper": [
          {
            "start": 14128,
            "length": 20
          },
          {
            "start": 17319,
            "length": 20
          },
          {
            "start": 17900,
            "length": 20
          }
        ]
      },
      "src/lib/ExecutableQueueHelper.sol": {
        "ExecutableQueueHelper": [
          {
            "start": 14226,
            "length": 20
          },
          {
            "start": 17176,
            "length": 20
          },
          {
            "start": 17442,
            "length": 20
          },
          {
            "start": 17601,
            "length": 20
          }
        ]
      },
      "src/lib/SubnetIDHelper.sol": {
        "SubnetIDHelper": [
          {
            "start": 652,
            "length": 20
          },
          {
            "start": 782,
            "length": 20
          },
          {
            "start": 7530,
            "length": 20
          },
          {
            "start": 10706,
            "length": 20
          }
        ]
      }
    }
  },
  "methodIdentifiers": {
    "MIN_CHECKPOINT_PERIOD()": "a1ada303",
    "MIN_COLLATERAL_AMOUNT()": "91be4d41",
    "accumulatedRewards(address)": "73f273fc",
    "bottomUpCheckPeriod()": "06c46853",
    "bottomUpCheckpointAtEpoch(uint64)": "6cb2ecee",
    "bottomUpCheckpointHashAtEpoch(uint64)": "133f74ea",
    "committedCheckpoints(uint64)": "98903748",
    "configurationNumber()": "04fda3d4",
    "consensus()": "8ef3f761",
    "currentSubnetHash()": "c18f64aa",
    "executableQueue()": "10d500e1",
    "genesis()": "a7f0b3de",
    "getGenesisEpoch()": "51392fc0",
    "getParent()": "80f76021",
    "getValidatorSet()": "cf331250",
    "getValidators()": "b7ab4db5",
    "hasValidatorVotedForSubmission(uint64,address)": "66d7bbbc",
    "ipcGatewayAddr()": "cfca2824",
    "join(string,(uint8,bytes))": "6cf6970a",
    "kill()": "41c0e1b5",
    "lastVotingExecutedEpoch()": "ad81e244",
    "leave()": "d66d9e19",
    "majorityPercentage()": "599c7bd1",
    "minActivationCollateral()": "9e33bd02",
    "minValidators()": "c5ab2241",
    "name()": "06fdde03",
    "prevExecutedCheckpointHash()": "5f832dbf",
    "reward(uint256)": "a9fb763c",
    "stake(address)": "26476204",
    "status()": "200d2ed2",
    "submissionPeriod()": "185fde7e",
    "submitCheckpoint(((uint64,address[]),uint64,uint256,((((uint64,address[]),(uint8,bytes)),((uint64,address[]),(uint8,bytes)),uint256,uint64,bytes4,bytes),bool)[],((uint64,address[]),bytes32[])[],bytes32,bytes))": "f6fd8381",
    "topDownCheckPeriod()": "7d9740f4",
    "totalStake()": "8b0e9f3f",
    "validatorAt(uint256)": "32e0aa1f",
    "validatorCount()": "0f43a677",
    "validatorNetAddresses(address)": "23a35705",
    "validatorWorkerAddresses(address)": "d4e25bab",
    "withdraw()": "3ccfd60b"
  },
  "id": 26
}