{
  "abi": [
    {
      "inputs": [
        {
          "internalType": "address",
          "name": "account",
          "type": "address"
        }
      ],
      "name": "AddressInsufficientBalance",
      "type": "error"
    },
    {
      "inputs": [],
      "name": "CollateralIsZero",
      "type": "error"
    },
    {
      "inputs": [],
      "name": "EpochAlreadyExecuted",
      "type": "error"
    },
    {
      "inputs": [],
      "name": "EpochNotVotable",
      "type": "error"
    },
    {
      "inputs": [],
      "name": "FailedInnerCall",
      "type": "error"
    },
    {
      "inputs": [],
      "name": "MessagesNotSorted",
      "type": "error"
    },
    {
      "inputs": [],
      "name": "NoRewardToWithdraw",
      "type": "error"
    },
    {
      "inputs": [],
      "name": "NoValidatorsInSubnet",
      "type": "error"
    },
    {
      "inputs": [],
      "name": "NotAccount",
      "type": "error"
    },
    {
      "inputs": [],
      "name": "NotAllValidatorsHaveLeft",
      "type": "error"
    },
    {
      "inputs": [],
      "name": "NotEnoughBalanceForRewards",
      "type": "error"
    },
    {
      "inputs": [],
      "name": "NotGateway",
      "type": "error"
    },
    {
      "inputs": [],
      "name": "NotValidator",
      "type": "error"
    },
    {
      "inputs": [],
      "name": "ReentrancyError",
      "type": "error"
    },
    {
      "inputs": [],
      "name": "SubnetAlreadyKilled",
      "type": "error"
    },
    {
      "inputs": [],
      "name": "SubnetNotActive",
      "type": "error"
    },
    {
      "inputs": [],
      "name": "ValidatorAlreadyVoted",
      "type": "error"
    },
    {
      "inputs": [],
      "name": "WrongCheckpointSource",
      "type": "error"
    },
    {
      "inputs": [
        {
          "internalType": "uint64",
          "name": "epoch",
          "type": "uint64"
        }
      ],
      "name": "bottomUpCheckpointAtEpoch",
      "outputs": [
        {
          "internalType": "bool",
          "name": "exists",
          "type": "bool"
        },
        {
          "components": [
            {
              "components": [
                {
                  "internalType": "uint64",
                  "name": "root",
                  "type": "uint64"
                },
                {
                  "internalType": "address[]",
                  "name": "route",
                  "type": "address[]"
                }
              ],
              "internalType": "struct SubnetID",
              "name": "source",
              "type": "tuple"
            },
            {
              "internalType": "uint64",
              "name": "epoch",
              "type": "uint64"
            },
            {
              "internalType": "uint256",
              "name": "fee",
              "type": "uint256"
            },
            {
              "components": [
                {
                  "components": [
                    {
                      "components": [
                        {
                          "components": [
                            {
                              "internalType": "uint64",
                              "name": "root",
                              "type": "uint64"
                            },
                            {
                              "internalType": "address[]",
                              "name": "route",
                              "type": "address[]"
                            }
                          ],
                          "internalType": "struct SubnetID",
                          "name": "subnetId",
                          "type": "tuple"
                        },
                        {
                          "components": [
                            {
                              "internalType": "uint8",
                              "name": "addrType",
                              "type": "uint8"
                            },
                            {
                              "internalType": "bytes",
                              "name": "payload",
                              "type": "bytes"
                            }
                          ],
                          "internalType": "struct FvmAddress",
                          "name": "rawAddress",
                          "type": "tuple"
                        }
                      ],
                      "internalType": "struct IPCAddress",
                      "name": "from",
                      "type": "tuple"
                    },
                    {
                      "components": [
                        {
                          "components": [
                            {
                              "internalType": "uint64",
                              "name": "root",
                              "type": "uint64"
                            },
                            {
                              "internalType": "address[]",
                              "name": "route",
                              "type": "address[]"
                            }
                          ],
                          "internalType": "struct SubnetID",
                          "name": "subnetId",
                          "type": "tuple"
                        },
                        {
                          "components": [
                            {
                              "internalType": "uint8",
                              "name": "addrType",
                              "type": "uint8"
                            },
                            {
                              "internalType": "bytes",
                              "name": "payload",
                              "type": "bytes"
                            }
                          ],
                          "internalType": "struct FvmAddress",
                          "name": "rawAddress",
                          "type": "tuple"
                        }
                      ],
                      "internalType": "struct IPCAddress",
                      "name": "to",
                      "type": "tuple"
                    },
                    {
                      "internalType": "uint256",
                      "name": "value",
                      "type": "uint256"
                    },
                    {
                      "internalType": "uint64",
                      "name": "nonce",
                      "type": "uint64"
                    },
                    {
                      "internalType": "bytes4",
                      "name": "method",
                      "type": "bytes4"
                    },
                    {
                      "internalType": "bytes",
                      "name": "params",
                      "type": "bytes"
                    }
                  ],
                  "internalType": "struct StorableMsg",
                  "name": "message",
                  "type": "tuple"
                },
                {
                  "internalType": "bool",
                  "name": "wrapped",
                  "type": "bool"
                }
              ],
              "internalType": "struct CrossMsg[]",
              "name": "crossMsgs",
              "type": "tuple[]"
            },
            {
              "components": [
                {
                  "components": [
                    {
                      "internalType": "uint64",
                      "name": "root",
                      "type": "uint64"
                    },
                    {
                      "internalType": "address[]",
                      "name": "route",
                      "type": "address[]"
                    }
                  ],
                  "internalType": "struct SubnetID",
                  "name": "source",
                  "type": "tuple"
                },
                {
                  "internalType": "bytes32[]",
                  "name": "checks",
                  "type": "bytes32[]"
                }
              ],
              "internalType": "struct ChildCheck[]",
              "name": "children",
              "type": "tuple[]"
            },
            {
              "internalType": "bytes32",
              "name": "prevHash",
              "type": "bytes32"
            },
            {
              "internalType": "bytes",
              "name": "proof",
              "type": "bytes"
            }
          ],
          "internalType": "struct BottomUpCheckpoint",
          "name": "checkpoint",
          "type": "tuple"
        }
      ],
      "stateMutability": "view",
      "type": "function"
    },
    {
      "inputs": [
        {
          "internalType": "uint64",
          "name": "epoch",
          "type": "uint64"
        }
      ],
      "name": "bottomUpCheckpointHashAtEpoch",
      "outputs": [
        {
          "internalType": "bool",
          "name": "",
          "type": "bool"
        },
        {
          "internalType": "bytes32",
          "name": "",
          "type": "bytes32"
        }
      ],
      "stateMutability": "view",
      "type": "function"
    },
    {
      "inputs": [
        {
          "internalType": "uint64",
          "name": "e",
          "type": "uint64"
        }
      ],
      "name": "committedCheckpoints",
      "outputs": [
        {
          "components": [
            {
              "internalType": "uint64",
              "name": "root",
              "type": "uint64"
            },
            {
              "internalType": "address[]",
              "name": "route",
              "type": "address[]"
            }
          ],
          "internalType": "struct SubnetID",
          "name": "source",
          "type": "tuple"
        },
        {
          "internalType": "uint64",
          "name": "epoch",
          "type": "uint64"
        },
        {
          "internalType": "uint256",
          "name": "fee",
          "type": "uint256"
        },
        {
          "internalType": "bytes32",
          "name": "prevHash",
          "type": "bytes32"
        },
        {
          "internalType": "bytes",
          "name": "proof",
          "type": "bytes"
        }
      ],
      "stateMutability": "view",
      "type": "function"
    },
    {
      "inputs": [
        {
          "internalType": "uint64",
          "name": "epoch",
          "type": "uint64"
        },
        {
          "internalType": "address",
          "name": "submitter",
          "type": "address"
        }
      ],
      "name": "hasValidatorVotedForSubmission",
      "outputs": [
        {
          "internalType": "bool",
          "name": "",
          "type": "bool"
        }
      ],
      "stateMutability": "view",
      "type": "function"
    },
    {
      "inputs": [
        {
          "internalType": "string",
          "name": "netAddr",
          "type": "string"
        },
        {
          "components": [
            {
              "internalType": "uint8",
              "name": "addrType",
              "type": "uint8"
            },
            {
              "internalType": "bytes",
              "name": "payload",
              "type": "bytes"
            }
          ],
          "internalType": "struct FvmAddress",
          "name": "workerAddr",
          "type": "tuple"
        }
      ],
      "name": "join",
      "outputs": [],
      "stateMutability": "payable",
      "type": "function"
    },
    {
      "inputs": [],
      "name": "kill",
      "outputs": [],
      "stateMutability": "nonpayable",
      "type": "function"
    },
    {
      "inputs": [],
      "name": "leave",
      "outputs": [],
      "stateMutability": "nonpayable",
      "type": "function"
    },
    {
      "inputs": [
        {
          "internalType": "uint256",
          "name": "amount",
          "type": "uint256"
        }
      ],
      "name": "reward",
      "outputs": [],
      "stateMutability": "nonpayable",
      "type": "function"
    },
    {
      "inputs": [
        {
          "components": [
            {
              "components": [
                {
                  "internalType": "uint64",
                  "name": "root",
                  "type": "uint64"
                },
                {
                  "internalType": "address[]",
                  "name": "route",
                  "type": "address[]"
                }
              ],
              "internalType": "struct SubnetID",
              "name": "source",
              "type": "tuple"
            },
            {
              "internalType": "uint64",
              "name": "epoch",
              "type": "uint64"
            },
            {
              "internalType": "uint256",
              "name": "fee",
              "type": "uint256"
            },
            {
              "components": [
                {
                  "components": [
                    {
                      "components": [
                        {
                          "components": [
                            {
                              "internalType": "uint64",
                              "name": "root",
                              "type": "uint64"
                            },
                            {
                              "internalType": "address[]",
                              "name": "route",
                              "type": "address[]"
                            }
                          ],
                          "internalType": "struct SubnetID",
                          "name": "subnetId",
                          "type": "tuple"
                        },
                        {
                          "components": [
                            {
                              "internalType": "uint8",
                              "name": "addrType",
                              "type": "uint8"
                            },
                            {
                              "internalType": "bytes",
                              "name": "payload",
                              "type": "bytes"
                            }
                          ],
                          "internalType": "struct FvmAddress",
                          "name": "rawAddress",
                          "type": "tuple"
                        }
                      ],
                      "internalType": "struct IPCAddress",
                      "name": "from",
                      "type": "tuple"
                    },
                    {
                      "components": [
                        {
                          "components": [
                            {
                              "internalType": "uint64",
                              "name": "root",
                              "type": "uint64"
                            },
                            {
                              "internalType": "address[]",
                              "name": "route",
                              "type": "address[]"
                            }
                          ],
                          "internalType": "struct SubnetID",
                          "name": "subnetId",
                          "type": "tuple"
                        },
                        {
                          "components": [
                            {
                              "internalType": "uint8",
                              "name": "addrType",
                              "type": "uint8"
                            },
                            {
                              "internalType": "bytes",
                              "name": "payload",
                              "type": "bytes"
                            }
                          ],
                          "internalType": "struct FvmAddress",
                          "name": "rawAddress",
                          "type": "tuple"
                        }
                      ],
                      "internalType": "struct IPCAddress",
                      "name": "to",
                      "type": "tuple"
                    },
                    {
                      "internalType": "uint256",
                      "name": "value",
                      "type": "uint256"
                    },
                    {
                      "internalType": "uint64",
                      "name": "nonce",
                      "type": "uint64"
                    },
                    {
                      "internalType": "bytes4",
                      "name": "method",
                      "type": "bytes4"
                    },
                    {
                      "internalType": "bytes",
                      "name": "params",
                      "type": "bytes"
                    }
                  ],
                  "internalType": "struct StorableMsg",
                  "name": "message",
                  "type": "tuple"
                },
                {
                  "internalType": "bool",
                  "name": "wrapped",
                  "type": "bool"
                }
              ],
              "internalType": "struct CrossMsg[]",
              "name": "crossMsgs",
              "type": "tuple[]"
            },
            {
              "components": [
                {
                  "components": [
                    {
                      "internalType": "uint64",
                      "name": "root",
                      "type": "uint64"
                    },
                    {
                      "internalType": "address[]",
                      "name": "route",
                      "type": "address[]"
                    }
                  ],
                  "internalType": "struct SubnetID",
                  "name": "source",
                  "type": "tuple"
                },
                {
                  "internalType": "bytes32[]",
                  "name": "checks",
                  "type": "bytes32[]"
                }
              ],
              "internalType": "struct ChildCheck[]",
              "name": "children",
              "type": "tuple[]"
            },
            {
              "internalType": "bytes32",
              "name": "prevHash",
              "type": "bytes32"
            },
            {
              "internalType": "bytes",
              "name": "proof",
              "type": "bytes"
            }
          ],
          "internalType": "struct BottomUpCheckpoint",
          "name": "checkpoint",
          "type": "tuple"
        }
      ],
      "name": "submitCheckpoint",
      "outputs": [],
      "stateMutability": "nonpayable",
      "type": "function"
    },
    {
      "inputs": [],
      "name": "withdraw",
      "outputs": [],
      "stateMutability": "nonpayable",
      "type": "function"
    }
  ],
  "bytecode": {
    "object": "0x608060405234801561001057600080fd5b50615567806100206000396000f3fe6080604052600436106100915760003560e01c80636cf6970a116100595780636cf6970a1461015c578063989037481461016f578063a9fb763c146101a0578063d66d9e19146101c0578063f6fd8381146101d557600080fd5b8063133f74ea146100965780633ccfd60b146100d257806341c0e1b5146100e957806366d7bbbc146100fe5780636cb2ecee1461012e575b600080fd5b3480156100a257600080fd5b506100b66100b13660046132fd565b6101f5565b6040805192151583526020830191909152015b60405180910390f35b3480156100de57600080fd5b506100e761028e565b005b3480156100f557600080fd5b506100e7610348565b34801561010a57600080fd5b5061011e61011936600461332f565b610406565b60405190151581526020016100c9565b34801561013a57600080fd5b5061014e6101493660046132fd565b610449565b6040516100c99291906135fa565b6100e761016a3660046136aa565b610b93565b34801561017b57600080fd5b5061018f61018a3660046132fd565b610de9565b6040516100c9959493929190613744565b3480156101ac57600080fd5b506100e76101bb366004613790565b610f5e565b3480156101cc57600080fd5b506100e761101b565b3480156101e157600080fd5b506100e76101f03660046137a9565b611195565b60008060008061020485610449565b6040516339aa47fb60e01b81529193509150829073__$1cd67d4dc9e627f0bec7928aa480e7d951$__906339aa47fb9061024290859060040161395c565b602060405180830381865af415801561025f573d6000803e3d6000fd5b505050506040513d601f19601f8201168201806040525081019061028391906139f9565b935093505050915091565b61029661140c565b33600090815260086020526040812054908190036102c7576040516367300f9160e11b815260040160405180910390fd5b3360009081526008602052604080822091909155600f549051631f0e077760e31b8152600481018390526001600160a01b039091169063f8703bb890602401600060405180830381600087803b15801561032057600080fd5b505af1158015610334573d6000803e3d6000fd5b50610345925033915083905061149e565b50565b61035061140c565b610358611539565b6103626004611577565b151580610370575060005415155b1561038e57604051636b62255160e11b815260040160405180910390fd5b6001805460ff60401b191668030000000000000000179055600f54604080516341c0e1b560e01b815290516001600160a01b03909216916341c0e1b59160048082019260009290919082900301818387803b1580156103ec57600080fd5b505af1158015610400573d6000803e3d6000fd5b50505050565b6001600160401b03821660009081526006602090815260408083208054845260030182528083206001600160a01b038516845290915290205460ff165b92915050565b60006104996040805161012081018252600060e0820181815260606101008401819052908352602083018290529282018190528282018390526080820183905260a082015260c081019190915290565b6001600160401b03808416600090815260036020908152604091829020825161012081018452815490941660e085019081526001820180548551818602810186019096528086529294869492938693610100870193919083018282801561052957602002820191906000526020600020905b81546001600160a01b0316815260019091019060200180831161050b575b50505050508152505081526020016002820160009054906101000a90046001600160401b03166001600160401b03166001600160401b031681526020016003820154815260200160048201805480602002602001604051908101604052809291908181526020016000905b828210156109335760008481526020908190206040805161018081018252600c860290920180546001600160401b031661014084019081526001820180548451818802810188018652818152959693958795860194879486946101008901948794869486936101608d0193909183018282801561063a57602002820191906000526020600020905b81546001600160a01b0316815260019091019060200180831161061c575b5050509190925250505081526040805180820190915260028301805460ff1682526003840180546020948501948401919061067490613a28565b80601f01602080910402602001604051908101604052809291908181526020018280546106a090613a28565b80156106ed5780601f106106c2576101008083540402835291602001916106ed565b820191906000526020600020905b8154815290600101906020018083116106d057829003601f168201915b505050919092525050509052508152604080516080810182526004840180546001600160401b031682840190815260058601805485516020828102820181019097528181529686019694959394869486936060870193909183018282801561077e57602002820191906000526020600020905b81546001600160a01b03168152600190910190602001808311610760575b5050509190925250505081526040805180820190915260028301805460ff168252600384018054602094850194840191906107b890613a28565b80601f01602080910402602001604051908101604052809291908181526020018280546107e490613a28565b80156108315780601f1061080657610100808354040283529160200191610831565b820191906000526020600020905b81548152906001019060200180831161081457829003601f168201915b5050509190925250505090525081526008820154602082015260098201546001600160401b0381166040830152600160401b900460e01b6001600160e01b0319166060820152600a8201805460809092019161088c90613a28565b80601f01602080910402602001604051908101604052809291908181526020018280546108b890613a28565b80156109055780601f106108da57610100808354040283529160200191610905565b820191906000526020600020905b8154815290600101906020018083116108e857829003601f168201915b505050919092525050508152600b919091015460ff1615156020918201529082526001929092019101610594565b50505050815260200160058201805480602002602001604051908101604052809291908181526020016000905b82821015610a6a576000848152602090819020604080516080810182526003860290920180546001600160401b0316838301908152600182018054845181880281018801909552808552949592948694929386936060870193909290918301828280156109f657602002820191906000526020600020905b81546001600160a01b031681526001909101906020018083116109d8575b505050505081525050815260200160028201805480602002602001604051908101604052809291908181526020018280548015610a5257602002820191906000526020600020905b815481526020019060010190808311610a3e575b50505050508152505081526020019060010190610960565b50505050815260200160068201548152602001600782018054610a8c90613a28565b80601f0160208091040260200160405190810160405280929190818152602001828054610ab890613a28565b8015610b055780601f10610ada57610100808354040283529160200191610b05565b820191906000526020600020905b815481529060010190602001808311610ae857829003601f168201915b5050509190925250508151604051630c133d1360e31b815292935073__$a0fe38a9a81205afccc10810b09a4d3f45$__92636099e8989250610b4a9190600401613a62565b602060405180830381865af4158015610b67573d6000803e3d6000fd5b505050506040513d601f19601f82011682018060405250810190610b8b9190613a83565b159150915091565b610b9b61140c565b610ba3611539565b34336000829003610bc757604051635a78c58160e11b815260040160405180910390fd5b6001600160a01b03811660009081526007602052604081208054849290610bef908490613ab6565b9091555050600080548391908190610c08908490613ab6565b90915550506013546001600160a01b03821660009081526007602052604090205410610c9457610c39600482611581565b610c9457610c486004826115a6565b506001600160a01b0381166000908152600960205260409020610c6c858783613b42565b506001600160a01b0381166000908152600a602052604090208390610c918282613c57565b50505b6005600154600160401b900460ff166005811115610cb457610cb4613a12565b03610d3d5760135460005410610d38576001805460ff60401b1916600160401b179055600f546000805460408051630354740160e31b815290516001600160a01b0390941693631aa3a0089360048084019391929182900301818588803b158015610d1e57600080fd5b505af1158015610d32573d6000803e3d6000fd5b50505050505b610de2565b6002600154600160401b900460ff166005811115610d5d57610d5d613a12565b03610d815760135460005410610d81576001805460ff60401b1916600160401b1790555b600f54604080516316989f6f60e21b815290516001600160a01b0390921691635a627dbc918591600480830192600092919082900301818588803b158015610dc857600080fd5b505af1158015610ddc573d6000803e3d6000fd5b50505050505b5050505050565b6040805180820182526000808252606060208084018290526001600160401b03868116845260038252858420865180880188528154909216825260018101805488518186028101860190995280895296979596879687969585810193919290830182828015610e8157602002820191906000526020600020905b81546001600160a01b03168152600190910190602001808311610e63575b505050919092525050506001600160401b038088166000908152600360208190526040909120600281015491810154600682015460079092018054959a5092909316975091955090935090610ed590613a28565b80601f0160208091040260200160405190810160405280929190818152602001828054610f0190613a28565b8015610f4e5780601f10610f2357610100808354040283529160200191610f4e565b820191906000526020600020905b815481529060010190602001808311610f3157829003601f168201915b5050505050905091939590929450565b610f666115bb565b6000610f726004611577565b905080600003610f955760405163efa9c8f160e01b815260040160405180910390fd5b80821015610fb657604051633074cabf60e11b815260040160405180910390fd5b6000610fc28284613d52565b905060005b82811015610400578160086000610fdf6004856115e6565b6001600160a01b03166001600160a01b03168152602001908152602001600020600082825461100e9190613ab6565b9091555050600101610fc7565b7f691bb03ffc16c56fc96b82fd16cd1b3715f0bc3cdc6407005f49bb620586009580546000190161105f576040516329f745a760e01b815260040160405180910390fd5b6001815561106b61140c565b611073611539565b33600090815260076020526040812054908190036110a457604051632ec5b44960e01b815260040160405180910390fd5b336000908152600760205260408120819055805482919081906110c8908490613d66565b909155506110d990506004336115f2565b5060018054600160401b900460ff1660058111156110f9576110f9613a12565b03611123576013546000541015611123576001805460ff60401b1916680200000000000000001790555b600f546040516345f5448560e01b8152600481018390526001600160a01b03909116906345f5448590602401600060405180830381600087803b15801561116957600080fd5b505af115801561117d573d6000803e3d6000fd5b5061118e925033915083905061149e565b5060009055565b61119d61140c565b6111b56111b060408301602084016132fd565b611607565b60018054600160401b900460ff1660058111156111d4576111d4613a12565b146111f25760405163c18316bf60e01b815260040160405180910390fd5b6111fd600433611581565b61121a57604051632ec5b44960e01b815260040160405180910390fd5b6011546112278280613d79565b61123090613f15565b6040516390ba52cf60e01b815273__$a0fe38a9a81205afccc10810b09a4d3f45$__916390ba52cf916112669190600401613a62565b602060405180830381865af4158015611283573d6000803e3d6000fd5b505050506040513d601f19601f820116820180604052508101906112a791906139f9565b146112c5576040516375ecc72d60e01b815260040160405180910390fd5b73__$33b79814e84bf6cf5e47244090b19ce5f8$__63898414756112ec6060840184613f21565b6040518363ffffffff1660e01b815260040161130992919061413a565b602060405180830381865af4158015611326573d6000803e3d6000fd5b505050506040513d601f19601f8201168201806040525081019061134a9190613a83565b61136757604051630bd9169f60e01b815260040160405180910390fd5b600060068161137c60408501602086016132fd565b6001600160401b031681526020808201929092526040908101600090812033808352600790945291812054919350916113b89184918691611610565b905080156113ce576113c982611dd0565b505050565b6000806113d9612693565b915091508015610de2576001600160401b038216600090815260066020526040902061140481611dd0565b505050505050565b604051630972932760e21b815233600482015273__$e800e3908cdbb6b1b5bd452383a17b18f7$__906325ca4c9c90602401602060405180830381865af415801561145b573d6000803e3d6000fd5b505050506040513d601f19601f8201168201806040525081019061147f9190613a83565b61149c5760405163b7150de560e01b815260040160405180910390fd5b565b804710156114c55760405163cd78605960e01b815230600482015260240160405180910390fd5b6000826001600160a01b03168260405160006040518083038185875af1925050503d8060008114611512576040519150601f19603f3d011682016040523d82523d6000602084013e611517565b606091505b50509050806113c957604051630a12f52160e11b815260040160405180910390fd5b6003600154600160401b900460ff16600581111561155957611559613a12565b0361149c5760405163248c8efb60e11b815260040160405180910390fd5b6000610443825490565b6001600160a01b038116600090815260018301602052604081205415155b9392505050565b600061159f836001600160a01b0384166126e6565b600f546001600160a01b0316331461149c5760405163e7e601db60e01b815260040160405180910390fd5b600061159f8383612735565b600061159f836001600160a01b03841661275f565b61034581612859565b60008061161c8561464f565b6040516339aa47fb60e01b815273__$1cd67d4dc9e627f0bec7928aa480e7d951$__916339aa47fb91611652919060040161395c565b602060405180830381865af415801561166f573d6000803e3d6000fd5b505050506040513d601f19601f8201168201806040525081019061169391906139f9565b90506116b4868286866116ac60408b0160208c016132fd565b60005461290b565b600082815260058801602090815260409182902082516101208101845281546001600160401b031660e082019081526001830180548651818702810187019097528087529698509195929486949193869361010087019390919083018282801561174757602002820191906000526020600020905b81546001600160a01b03168152600190910190602001808311611729575b50505050508152505081526020016002820160009054906101000a90046001600160401b03166001600160401b03166001600160401b031681526020016003820154815260200160048201805480602002602001604051908101604052809291908181526020016000905b82821015611b515760008481526020908190206040805161018081018252600c860290920180546001600160401b031661014084019081526001820180548451818802810188018652818152959693958795860194879486946101008901948794869486936101608d0193909183018282801561185857602002820191906000526020600020905b81546001600160a01b0316815260019091019060200180831161183a575b5050509190925250505081526040805180820190915260028301805460ff1682526003840180546020948501948401919061189290613a28565b80601f01602080910402602001604051908101604052809291908181526020018280546118be90613a28565b801561190b5780601f106118e05761010080835404028352916020019161190b565b820191906000526020600020905b8154815290600101906020018083116118ee57829003601f168201915b505050919092525050509052508152604080516080810182526004840180546001600160401b031682840190815260058601805485516020828102820181019097528181529686019694959394869486936060870193909183018282801561199c57602002820191906000526020600020905b81546001600160a01b0316815260019091019060200180831161197e575b5050509190925250505081526040805180820190915260028301805460ff168252600384018054602094850194840191906119d690613a28565b80601f0160208091040260200160405190810160405280929190818152602001828054611a0290613a28565b8015611a4f5780601f10611a2457610100808354040283529160200191611a4f565b820191906000526020600020905b815481529060010190602001808311611a3257829003601f168201915b5050509190925250505090525081526008820154602082015260098201546001600160401b0381166040830152600160401b900460e01b6001600160e01b0319166060820152600a82018054608090920191611aaa90613a28565b80601f0160208091040260200160405190810160405280929190818152602001828054611ad690613a28565b8015611b235780601f10611af857610100808354040283529160200191611b23565b820191906000526020600020905b815481529060010190602001808311611b0657829003601f168201915b505050919092525050508152600b919091015460ff16151560209182015290825260019290920191016117b2565b50505050815260200160058201805480602002602001604051908101604052809291908181526020016000905b82821015611c88576000848152602090819020604080516080810182526003860290920180546001600160401b031683830190815260018201805484518188028101880190955280855294959294869492938693606087019390929091830182828015611c1457602002820191906000526020600020905b81546001600160a01b03168152600190910190602001808311611bf6575b505050505081525050815260200160028201805480602002602001604051908101604052809291908181526020018280548015611c7057602002820191906000526020600020905b815481526020019060010190808311611c5c575b50505050508152505081526020019060010190611b7e565b50505050815260200160068201548152602001600782018054611caa90613a28565b80601f0160208091040260200160405190810160405280929190818152602001828054611cd690613a28565b8015611d235780601f10611cf857610100808354040283529160200191611d23565b820191906000526020600020905b815481529060010190602001808311611d0657829003601f168201915b5050509190925250506040516322ea8d8960e11b815273__$1cd67d4dc9e627f0bec7928aa480e7d951$__926345d51b129250611d629160040161395c565b602060405180830381865af4158015611d7f573d6000803e3d6000fd5b505050506040513d601f19601f82011682018060405250810190611da39190613a83565b15611dc757600081815260058701602052604090208590611dc48282614f48565b50505b50949350505050565b6002808201546000908152600583016020526040902060068101549154909114611e7257604051635a27a53960e11b81526004810183905273__$e0f829f5071d7e628aa77eca0c12e35bc2$__9063b44f4a729060240160006040518083038186803b158015611e3f57600080fd5b505af4158015611e53573d6000803e3d6000fd5b5050506002820154611e6e91506001600160401b0316612b58565b5050565b6002810154611e89906001600160401b0316612bdc565b60028101546001600160401b039081166000908152600360205260409020825481546001600160401b03191692169190911781556001808301805484939284928492611ed89284019190612e9f565b50505060028281015490820180546001600160401b0319166001600160401b039092169190911790556003808301549082015560048083018054611f1f9284019190612eef565b5060058281018054611f3492840191906130b5565b506006820154816006015560078201816007019081611f539190615077565b5050604080516101208101825283546001600160401b031660e0820190815260018501805484516020828102820181019096528181529395508694869486936101008701939192909190830182828015611fd657602002820191906000526020600020905b81546001600160a01b03168152600190910190602001808311611fb8575b50505050508152505081526020016002820160009054906101000a90046001600160401b03166001600160401b03166001600160401b031681526020016003820154815260200160048201805480602002602001604051908101604052809291908181526020016000905b828210156123e05760008481526020908190206040805161018081018252600c860290920180546001600160401b031661014084019081526001820180548451818802810188018652818152959693958795860194879486946101008901948794869486936101608d019390918301828280156120e757602002820191906000526020600020905b81546001600160a01b031681526001909101906020018083116120c9575b5050509190925250505081526040805180820190915260028301805460ff1682526003840180546020948501948401919061212190613a28565b80601f016020809104026020016040519081016040528092919081815260200182805461214d90613a28565b801561219a5780601f1061216f5761010080835404028352916020019161219a565b820191906000526020600020905b81548152906001019060200180831161217d57829003601f168201915b505050919092525050509052508152604080516080810182526004840180546001600160401b031682840190815260058601805485516020828102820181019097528181529686019694959394869486936060870193909183018282801561222b57602002820191906000526020600020905b81546001600160a01b0316815260019091019060200180831161220d575b5050509190925250505081526040805180820190915260028301805460ff1682526003840180546020948501948401919061226590613a28565b80601f016020809104026020016040519081016040528092919081815260200182805461229190613a28565b80156122de5780601f106122b3576101008083540402835291602001916122de565b820191906000526020600020905b8154815290600101906020018083116122c157829003601f168201915b5050509190925250505090525081526008820154602082015260098201546001600160401b0381166040830152600160401b900460e01b6001600160e01b0319166060820152600a8201805460809092019161233990613a28565b80601f016020809104026020016040519081016040528092919081815260200182805461236590613a28565b80156123b25780601f10612387576101008083540402835291602001916123b2565b820191906000526020600020905b81548152906001019060200180831161239557829003601f168201915b505050919092525050508152600b919091015460ff1615156020918201529082526001929092019101612041565b50505050815260200160058201805480602002602001604051908101604052809291908181526020016000905b82821015612517576000848152602090819020604080516080810182526003860290920180546001600160401b0316838301908152600182018054845181880281018801909552808552949592948694929386936060870193909290918301828280156124a357602002820191906000526020600020905b81546001600160a01b03168152600190910190602001808311612485575b5050505050815250508152602001600282018054806020026020016040519081016040528092919081815260200182805480156124ff57602002820191906000526020600020905b8154815260200190600101908083116124eb575b5050505050815250508152602001906001019061240d565b5050505081526020016006820154815260200160078201805461253990613a28565b80601f016020809104026020016040519081016040528092919081815260200182805461256590613a28565b80156125b25780601f10612587576101008083540402835291602001916125b2565b820191906000526020600020905b81548152906001019060200180831161259557829003601f168201915b5050509190925250506040516339aa47fb60e01b815273__$1cd67d4dc9e627f0bec7928aa480e7d951$__926339aa47fb92506125f19160040161395c565b602060405180830381865af415801561260e573d6000803e3d6000fd5b505050506040513d601f19601f8201168201806040525081019061263291906139f9565b600255600f54604051631a9c293560e31b81526001600160a01b039091169063d4e149a8906126659084906004016153ef565b600060405180830381600087803b15801561267f57600080fd5b505af1158015611404573d6000803e3d6000fd5b7f283d1424c49941ba61504663c7a1b6f59e6bbb963a00bcc130bcbf9c29e1e27154600160401b90046001600160401b031660006000805160206155128339815191526126df83612d3d565b9150509091565b600081815260018301602052604081205461272d57508154600181810184556000848152602080822090930184905584548482528286019093526040902091909155610443565b506000610443565b600082600001828154811061274c5761274c61547f565b9060005260206000200154905092915050565b60008181526001830160205260408120548015612848576000612783600183613d66565b855490915060009061279790600190613d66565b90508181146127fc5760008660000182815481106127b7576127b761547f565b90600052602060002001549050808760000184815481106127da576127da61547f565b6000918252602080832090910192909255918252600188019052604090208390555b855486908061280d5761280d615495565b600190038181906000526020600020016000905590558560010160008681526020019081526020016000206000905560019350505050610443565b6000915050610443565b5092915050565b60008051602061551283398151915280546001600160401b039081169083161161289657604051631f30cc6360e21b815260040160405180910390fd5b80546001600160401b03600160401b90910481169083161115611e6e5780546001600160401b03600160881b82048116916128da91600160401b90910416846154ab565b6128e491906154cb565b6001600160401b031615611e6e5760405163b4f68f9760e01b815260040160405180910390fd5b8554600081815260038801602090815260408083206001600160a01b038916845290915281205490916000805160206155128339815191529160ff1615612965576040516337138f5f60e11b815260040160405180910390fd5b600081815260038a01602090815260408083206001600160a01b038b1684529091528120805460ff191660019081179091558a0180548892906129a9908490613ab6565b9091555050600081815260048a01602090815260408083208b8452909152812080548892906129d9908490613ab6565b9091555050600081815260048a016020908152604080832060028d01548452909152808220548a835291205480821015612a155760028b018a90555b6000612a218c88612d8a565b90506003816003811115612a3757612a37613a12565b03612acc57612a4588612d3d565b15612a535760019550612b49565b60405163199b9ca560e01b81526001860160048201526001600160401b038916602482015273__$b7b8687e33476c74e3b4e0a64c4768a343$__9063199b9ca59060440160006040518083038186803b158015612aaf57600080fd5b505af4158015612ac3573d6000803e3d6000fd5b50505050612b49565b6002816003811115612ae057612ae0613a12565b03612b4957604051635a27a53960e11b8152600481018d905273__$e0f829f5071d7e628aa77eca0c12e35bc2$__9063b44f4a729060240160006040518083038186803b158015612b3057600080fd5b505af4158015612b44573d6000803e3d6000fd5b505050505b50505050509695505050505050565b60006000805160206155128339815191526040516394ecccfd60e01b81526001820160048201526001600160401b038416602482015290915073__$b7b8687e33476c74e3b4e0a64c4768a343$__906394ecccfd9060440160006040518083038186803b158015612bc857600080fd5b505af4158015611404573d6000803e3d6000fd5b600080516020615512833981519152612bf482612d3d565b612bfc575050565b604051634953836d60e11b81526001820160048201526001600160401b038316602482015273__$b7b8687e33476c74e3b4e0a64c4768a343$__906392a706da90604401602060405180830381865af4158015612c5d573d6000803e3d6000fd5b505050506040513d601f19601f82011682018060405250810190612c819190613a83565b15612ca85760018101546001600160401b03838116600160401b9092041614612ca8575050565b6040516394ecccfd60e01b81526001820160048201526001600160401b038316602482015273__$b7b8687e33476c74e3b4e0a64c4768a343$__906394ecccfd9060440160006040518083038186803b158015612d0457600080fd5b505af4158015612d18573d6000803e3d6000fd5b505082546001600160401b0319166001600160401b0394909416939093179091555050565b600080516020615512833981519152805460009190612d6e906001600160401b03600160881b8204811691166154f1565b6001600160401b0316836001600160401b031614915050919050565b6000805160206155128339815191528054600091908290606490612db890600160801b900460ff1686614737565b612dc29190613d52565b604051637d2ef4e560e11b81526004810187905290915060009073__$e0f829f5071d7e628aa77eca0c12e35bc2$__9063fa5de9ca90602401602060405180830381865af4158015612e18573d6000803e3d6000fd5b505050506040513d601f19601f82011682018060405250810190612e3c91906139f9565b905081866001015411612e555760009350505050610443565b81811115612e695760039350505050610443565b6001860154612e789086613d66565b612e828284613d66565b10612e935760029350505050610443565b50600195945050505050565b828054828255906000526020600020908101928215612edf5760005260206000209182015b82811115612edf578254825591600101919060010190612ec4565b50612eeb929150613155565b5090565b82805482825590600052602060002090600c0281019282156130a957600052602060002091600c0282015b828111156130a957825482546001600160401b0319166001600160401b039091161782556001808401805485928592849284928492849284928492612f629291840191612e9f565b50505060028281018054918301805460ff191660ff90931692909217825590600380840190612f9390860182615077565b505050506004838101805491840180546001600160401b0319166001600160401b039093169290921782556005808601805492945084928492612fd99290880191612e9f565b50505060028281018054918301805460ff191660ff9093169290921782559060038084019061300a90860182615077565b5050505060088381015490830155506009808301805491830180546001600160401b031981166001600160401b039094169384178255915463ffffffff600160401b9182900416026bffffffffffffffffffffffff19909216909217179055600a8082019061307b90840182615077565b505050600b918201549101805460ff191660ff9092161515919091179055600c928301929190910190612f1a565b50612eeb92915061316a565b8280548282559060005260206000209060030281019282156131495760005260206000209160030282015b8281111561314957825482546001600160401b0319166001600160401b039091161782556001808401805485928592849284926131209290840191612e9f565b505050600282810180546131379284019190612e9f565b505050916003019190600301906130e0565b50612eeb92915061323f565b5b80821115612eeb5760008155600101613156565b80821115612eeb5780546001600160401b031916815560008181818181816131956001830182613280565b505060028201805460ff1916815560006131b2600385018261329e565b505050506004820180546001600160401b0319168155600081816131d96005870182613280565b505060028201805460ff1916815560006131f6600385018261329e565b50506000600885018190556009850180546bffffffffffffffffffffffff191690556132289250600a8501915061329e565b505050600b8101805460ff19169055600c0161316a565b80821115612eeb5780546001600160401b0319168155600081816132666001830182613280565b506132779050600283016000613280565b5060030161323f565b50805460008255906000526020600020908101906103459190613155565b5080546132aa90613a28565b6000825580601f106132ba575050565b601f0160209004906000526020600020908101906103459190613155565b6001600160401b038116811461034557600080fd5b80356132f8816132d8565b919050565b60006020828403121561330f57600080fd5b813561159f816132d8565b6001600160a01b038116811461034557600080fd5b6000806040838503121561334257600080fd5b823561334d816132d8565b9150602083013561335d8161331a565b809150509250929050565b6000604083016001600160401b0383511684526020808401516040828701528281518085526060880191508383019450600092505b808310156133c65784516001600160a01b0316825293830193600192909201919083019061339d565b509695505050505050565b6000815180845260005b818110156133f7576020818501810151868301820152016133db565b506000602082860101526020601f19601f83011685010191505092915050565b600081516040845261342c6040850182613368565b90506020830151848203602086015260ff8151168252602081015190506040602083015261345d60408301826133d1565b95945050505050565b600081518084526020808501808196508360051b8101915082860160005b8581101561354d578284038952815160408151818752805160c080848a01526134b16101008a0183613417565b915089830151603f196060818c860301818d01526134cf8584613417565b9686015160808d810191909152908601516001600160401b031660a0808e0191909152908601516001600160e01b031916938c0193909352918401518a860390920160e08b01525092905061352481846133d1565b93890151801515898b015293925061353a915050565b9986019994505090840190600101613484565b5091979650505050505050565b600081518084526020808501808196508360051b810191508286016000805b868110156135ec578385038a5282516040815181885261359b82890182613368565b92890151888403898b01528051808552908a01938693508a0191505b808310156135d757835182529289019260019290920191908901906135b7565b509b88019b9650505091850191600101613579565b509298975050505050505050565b8215158152604060208201526000825160e0604084015261361f610120840182613368565b90506001600160401b036020850151166060840152604084015160808401526060840151603f19808584030160a086015261365a8383613466565b925060808601519150808584030160c0860152613677838361355a565b925060a086015160e086015260c086015191508085840301610100860152506136a082826133d1565b9695505050505050565b6000806000604084860312156136bf57600080fd5b83356001600160401b03808211156136d657600080fd5b818601915086601f8301126136ea57600080fd5b8135818111156136f957600080fd5b87602082850101111561370b57600080fd5b60209283019550935090850135908082111561372657600080fd5b5084016040818703121561373957600080fd5b809150509250925092565b60a08152600061375760a0830188613368565b6001600160401b0387166020840152856040840152846060840152828103608084015261378481856133d1565b98975050505050505050565b6000602082840312156137a257600080fd5b5035919050565b6000602082840312156137bb57600080fd5b81356001600160401b038111156137d157600080fd5b820160e0818503121561159f57600080fd5b600081518084526020808501808196508360051b8101915082860160005b8581101561354d578284038952815160408151818752805160c080848a015261382e6101008a0183613417565b915089830151603f196060818c860301818d015261384c8584613417565b9686015160808d810191909152908601516001600160401b031660a0808e0191909152908601516001600160e01b031916938c0193909352918401518a860390920160e08b0152509290506138a181846133d1565b93890151801515898b01529392506138b7915050565b9986019994505090840190600101613801565b600081518084526020808501808196508360051b810191508286016000805b868110156135ec578385038a5282516040815181885261390b82890182613368565b92890151888403898b01528051808552908a01938693508a0191505b808310156139475783518252928901926001929092019190890190613927565b509b88019b96505050918501916001016138e9565b602081526000825160e06020840152613979610100840182613368565b90506001600160401b036020850151166040840152604084015160608401526060840151601f19808584030160808601526139b483836137e3565b925060808601519150808584030160a08601526139d183836138ca565b925060a086015160c086015260c08601519150808584030160e08601525061345d82826133d1565b600060208284031215613a0b57600080fd5b5051919050565b634e487b7160e01b600052602160045260246000fd5b600181811c90821680613a3c57607f821691505b602082108103613a5c57634e487b7160e01b600052602260045260246000fd5b50919050565b60208152600061159f6020830184613368565b801515811461034557600080fd5b600060208284031215613a9557600080fd5b815161159f81613a75565b634e487b7160e01b600052601160045260246000fd5b8082018082111561044357610443613aa0565b634e487b7160e01b600052604160045260246000fd5b5b81811015611e6e5760008155600101613ae0565b601f8211156113c957806000526020600020601f840160051c81016020851015613b1b5750805b610de2601f850160051c830182613adf565b600019600383901b1c191660019190911b1790565b6001600160401b03831115613b5957613b59613ac9565b613b6d83613b678354613a28565b83613af4565b6000601f841160018114613b9b5760008515613b895750838201355b613b938682613b2d565b845550610de2565b600083815260209020601f19861690835b82811015613bcc5786850135825560209485019460019092019101613bac565b5086821015613be95760001960f88860031b161c19848701351681555b505060018560011b0183555050505050565b60ff8116811461034557600080fd5b6000808335601e19843603018112613c2157600080fd5b8301803591506001600160401b03821115613c3b57600080fd5b602001915036819003821315613c5057600080fd5b9250929050565b8135613c6281613bfb565b60ff811660ff198354161782555060018082016020613c8381860186613c0a565b6001600160401b03811115613c9a57613c9a613ac9565b613cae81613ca88654613a28565b86613af4565b6000601f821160018114613cdc5760008315613cca5750838201355b613cd48482613b2d565b875550613d31565b600086815260209020601f19841690835b82811015613d0a5786850135825593870193908901908701613ced565b5084821015613d275760001960f88660031b161c19848701351681555b50508683881b0186555b505050505050505050565b634e487b7160e01b600052601260045260246000fd5b600082613d6157613d61613d3c565b500490565b8181038181111561044357610443613aa0565b60008235603e19833603018112613d8f57600080fd5b9190910192915050565b604080519081016001600160401b0381118282101715613dbb57613dbb613ac9565b60405290565b60405160c081016001600160401b0381118282101715613dbb57613dbb613ac9565b60405160e081016001600160401b0381118282101715613dbb57613dbb613ac9565b604051601f8201601f191681016001600160401b0381118282101715613e2d57613e2d613ac9565b604052919050565b60006001600160401b03821115613e4e57613e4e613ac9565b5060051b60200190565b600060408284031215613e6a57600080fd5b613e72613d99565b90508135613e7f816132d8565b81526020828101356001600160401b03811115613e9b57600080fd5b8301601f81018513613eac57600080fd5b8035613ebf613eba82613e35565b613e05565b81815260059190911b82018301908381019087831115613ede57600080fd5b928401925b82841015613f05578335613ef68161331a565b82529284019290840190613ee3565b8085870152505050505092915050565b60006104433683613e58565b6000808335601e19843603018112613f3857600080fd5b8301803591506001600160401b03821115613f5257600080fd5b6020019150600581901b3603821315613c5057600080fd5b60008235603e19833603018112613f8057600080fd5b90910192915050565b6000808335601e19843603018112613fa057600080fd5b83016020810192503590506001600160401b03811115613fbf57600080fd5b803603821315613c5057600080fd5b81835281816020850137506000828201602090810191909152601f909101601f19169091010190565b6000813561400481613bfb565b60ff1683526140166020830183613f89565b6040602086015261345d604086018284613fce565b60006140378283613f6a565b6040845260808401813561404a816132d8565b6001600160401b0390811660408701526020908382013536859003601e1901811261407457600080fd5b9093018181019390358181111561408a57600080fd5b8060051b360385131561409c57600080fd5b60406060890152928390525060009160a08701905b808410156140e35784356140c48161331a565b6001600160a01b031682529382019360019390930192908201906140b1565b506140f082870187613f6a565b9350868103828801526141038185613ff7565b979650505050505050565b6001600160e01b03198116811461034557600080fd5b80356132f88161410e565b80356132f881613a75565b60208082528181018390526000906040808401600586901b850182018785805b8981101561426e57603f19808a8603018652614176848d613f6a565b803560be19823603018112614189578485fd5b88875281016141988180613f6a565b60c0808b8a01526141ad6101008a018361402b565b91506141bb8c840184613f6a565b6060868b850301818c01526141d0848361402b565b9350608091508c850135828c01528085013590506141ed816132d8565b60a06001600160401b038216818d015282860135925061420c8361410e565b6001600160e01b031983168c85015261422786820187613f89565b96509350505050848983030160e08a0152614243828483613fce565b945050505061425389820161412f565b1515958901959095529487019493509186019160010161415a565b50919998505050505050505050565b600082601f83011261428e57600080fd5b81356001600160401b038111156142a7576142a7613ac9565b6142ba601f8201601f1916602001613e05565b8181528460208386010111156142cf57600080fd5b816020850160208301376000918101602001919091529392505050565b6000604082840312156142fe57600080fd5b614306613d99565b905081356001600160401b038082111561431f57600080fd5b61432b85838601613e58565b8352602084013591508082111561434157600080fd5b908301906040828603121561435557600080fd5b61435d613d99565b823561436881613bfb565b815260208301358281111561437c57600080fd5b6143888782860161427d565b60208301525080602085015250505092915050565b600082601f8301126143ae57600080fd5b813560206143be613eba83613e35565b82815260059290921b840181019181810190868411156143dd57600080fd5b8286015b848110156133c65780356001600160401b038082111561440057600080fd5b90880190601f196040838c038201121561441957600080fd5b614421613d99565b878401358381111561443257600080fd5b840160c0818e038401121561444657600080fd5b61444e613dc1565b9250888101358481111561446157600080fd5b61446f8e8b838501016142ec565b84525060408101358481111561448457600080fd5b6144928e8b838501016142ec565b8a85015250606081013560408401526144ad608082016132ed565b60608401526144be60a08201614124565b608084015260c0810135848111156144d557600080fd5b6144e38e8b8385010161427d565b60a085015250508181526144f96040850161412f565b8189015286525050509183019183016143e1565b600082601f83011261451e57600080fd5b8135602061452e613eba83613e35565b828152600592831b850182019282820191908785111561454d57600080fd5b8387015b858110156146425780356001600160401b03808211156145715760008081fd5b908901906040828c03601f190181131561458b5760008081fd5b614593613d99565b88840135838111156145a55760008081fd5b6145b38e8b83880101613e58565b82525081840135838111156145c85760008081fd5b8085019450508c603f8501126145e057600092508283fd5b8884013592506145f2613eba84613e35565b83815292861b8401820192898101908e85111561460f5760008081fd5b948301945b8486101561462d5785358252948a0194908a0190614614565b828b0152508752505050928401928401614551565b5090979650505050505050565b600060e0823603121561466157600080fd5b614669613de3565b82356001600160401b038082111561468057600080fd5b61468c36838701613e58565b835261469a602086016132ed565b60208401526040850135604084015260608501359150808211156146bd57600080fd5b6146c93683870161439d565b606084015260808501359150808211156146e257600080fd5b6146ee3683870161450d565b608084015260a085013560a084015260c085013591508082111561471157600080fd5b5061471e3682860161427d565b60c08301525092915050565b60008135610443816132d8565b808202811582820484141761044357610443613aa0565b8054600082558015611e6e578160005260206000206113c982820182613adf565b600160401b82111561478357614783613ac9565b8054828255808310156113c957816000526020600020610400828201858301613adf565b600081556103456001820161474e565b6147c18154613a28565b8015611e6e57601f8111600181146147db57505060009055565b8260005260206000206147f9601f840160051c820160018301613adf565b60008085559055505050565b600081556148156001820161474e565b60006002820155610345600382016147b7565b6148328283613d79565b803561483d816132d8565b82546001600160401b0319166001600160401b038216178355506001808301602061486a81850185613f21565b94506001600160401b038086111561488457614884613ac9565b61488e868561476f565b600093845282842093805b878110156148bb5783356148ac8161331a565b86820155928401928601614899565b506002880196506148ce848a018a613d79565b9450843592506148dd83613bfb565b865460ff191660ff84161790965560038701956148fc85850186613c0a565b955092508185111561491057614910613ac9565b6149248561491e8954613a28565b89613af4565b809150601f851160018114614952578186156149405750838301355b61494a8782613b2d565b895550610ddc565b600088815260209020601f19871690835b828110156149805786860135825594870194908901908701614963565b508782101561499d5760001960f88960031b161c19858701351681555b505050505091831b90920190925550505050565b600081356104438161410e565b6000813561044381613a75565b813560be198336030181126149df57600080fd5b82016149eb8180613d79565b6149f58182613d79565b8035614a00816132d8565b84546001600160401b0319166001600160401b0382161785555060018085016020614a2d81850185613f21565b94506001600160401b0380861115614a4757614a47613ac9565b614a51868561476f565b600093845282842093805b87811015614a7e578335614a6f8161331a565b86820155928401928601614a5c565b5060028a019650614a9184890189613d79565b975087359450614aa085613bfb565b865460ff191660ff8616179096556003890195614abf88850189613c0a565b9850945081881115614ad357614ad3613ac9565b614ae18861491e8954613a28565b809250601f881160018114614b11578192508815614b00578386013592505b614b0a8984613b2d565b8855614b66565b600088815260209020601f198a169350825b84811015614b405787860135825594860194908801908601614b23565b5089841015614b5d5760001960f88b60031b161c19858801351681555b508689881b0188555b50505050614b82614b7982880188613d79565b60048901614828565b60408601356008880155600987019450614bbe614ba16060880161472a565b86546001600160401b0319166001600160401b0391909116178655565b614bf7614bcd608088016149b1565b86546bffffffff0000000000000000191660a09190911c6bffffffff000000000000000016178655565b614c0460a0870187613c0a565b96509450614c168686600a8a01613b42565b614c3d614c24828a016149be565b600b890160ff1981541660ff8315151681178255505050565b5050505050505050565b600160401b831115614c5b57614c5b613ac9565b805483825580841015614cef57600c8181028181048314614c7e57614c7e613aa0565b8582028281048714614c9257614c92613aa0565b6000858152602081209283019291909101905b82821015614cea57614cb682614805565b614cc260048301614805565b806008830155806009830155614cda600a83016147b7565b80600b8301558382019150614ca5565b505050505b5060008181526020812083915b8581101561140457614d17614d118487613d79565b836149cb565b60209290920191600c9190910190600101614cfc565b8054600080835581156113c957828152602081208281015b80821015610de257828255600182019150614d45565b600160401b821115614d6f57614d6f613ac9565b8054828255808310156113c9576000828152602081208481019083015b8082101561140457828255600182019150614d8c565b614dac8283613d79565b8035614db7816132d8565b82546001600160401b0319166001600160401b0382161783555060018083016020614de481850185613f21565b94506001600160401b0380861115614dfe57614dfe613ac9565b614e08868561476f565b600093845282842093805b87811015614e35578335614e268161331a565b86820155928401928601614e13565b50600288019650614e48848a018a613f21565b9550925081851115614e5c57614e5c613ac9565b614e668588614d5b565b95865250818520945b83811015614c3d57813586820155908201908401614e6f565b600160401b831115614e9c57614e9c613ac9565b805483825580841015614f0a5760038181028181048314614ebf57614ebf613aa0565b8582028281048714614ed357614ed3613aa0565b60008581526020902091820191015b81811015614f0657614ef3816147a7565b614eff60028201614d2d565b8201614ee2565b5050505b5060008181526020812083915b8581101561140457614f32614f2c8487613d79565b83614da2565b6020929092019160039190910190600101614f17565b614f528283613d79565b8035614f5d816132d8565b82546001600160401b0319166001600160401b0382161783555060018083016020614f8a81850185613f21565b94506001600160401b03851115614fa357614fa3613ac9565b614fad858461476f565b6000928352818320925b85811015614fd9578135614fca8161331a565b84820155908201908401614fb7565b505061500a614fe982880161472a565b600287016001600160401b0382166001600160401b03198254161781555050565b50505050604082013560038201556150256060830183613f21565b615033818360048601614c47565b50506150426080830183613f21565b615050818360058601614e88565b505060a0820135600682015561506960c0830183613c0a565b610400818360078601613b42565b818103615082575050565b61508c8254613a28565b6001600160401b038111156150a3576150a3613ac9565b6150b7816150b18454613a28565b84613af4565b6000601f8211600181146150e557600083156150d35750848201545b6150dd8482613b2d565b855550610de2565b600085815260209020601f19841690600086815260209020845b8381101561511f57828601548255600195860195909101906020016150ff565b508583101561513d5781850154600019600388901b60f8161c191681555b5050505050600190811b01905550565b6000604083016001600160401b0383541684526001808401602060408188015283825480865260608901915083600052826000209550600093505b808410156151ae5785546001600160a01b03168252948401949284019290820190615188565b50979650505050505050565b600081546151c781613a28565b8085526020600183811680156151e457600181146151fe5761522c565b60ff1985168884015283151560051b88018301955061522c565b866000528260002060005b858110156152245781548a8201860152908301908401615209565b890184019650505b505050505092915050565b60408252600061524a604084018361514d565b838103602085015260ff60028401541681526040602082015261527360408201600385016151ba565b949350505050565b600081548084526020808501808196508360051b81019150856000528260002060005b8581101561354d578284038952604080855260c080828701526152c5610100870185615237565b9150603f19808784030160608801526152e18360048701615237565b6008860154608089015260098601546001600160401b03811660a0808b01919091521b6001600160e01b031916928801929092528682030160e0870152905061532d81600a85016151ba565b905061533d600b84015460ff1690565b15159486019490945297840197600c919091019060010161529e565b600081548084526020808501808196508360051b810191506000868152838120815b868110156135ec578385038a5260408086526153998187018461514d565b86810388880152600284018054808352908652888620925085918901905b808310156153d757835482526001938401939290920191908901906153b7565b509b88019b965050506003919091019060010161537b565b6020815260e06020820152600061540a61010083018461514d565b60028401546001600160401b0316604084015260038401546060840152828103601f199081016080850152615442826004870161527b565b9150808483030160a085015261545b8260058701615359565b9150600685015460c0850152808483030160e08501525061527381600786016151ba565b634e487b7160e01b600052603260045260246000fd5b634e487b7160e01b600052603160045260246000fd5b6001600160401b0382811682821603908082111561285257612852613aa0565b60006001600160401b03808416806154e5576154e5613d3c565b92169190910692915050565b6001600160401b0381811683821601908082111561285257612852613aa056fe283d1424c49941ba61504663c7a1b6f59e6bbb963a00bcc130bcbf9c29e1e270a264697066735822122001b46e81270e5c112262180ce78840f576b5d7c72a99b8876c16a96ffd6396ea64736f6c63430008130033",
    "linkReferences": {
      "src/lib/AccountHelper.sol": {
        "AccountHelper": [
          {
            "start": 5185,
            "length": 20
          }
        ]
      },
      "src/lib/CheckpointHelper.sol": {
        "CheckpointHelper": [
          {
            "start": 570,
            "length": 20
          },
          {
            "start": 5707,
            "length": 20
          },
          {
            "start": 7515,
            "length": 20
          },
          {
            "start": 9706,
            "length": 20
          }
        ]
      },
      "src/lib/CrossMsgHelper.sol": {
        "CrossMsgHelper": [
          {
            "start": 4839,
            "length": 20
          }
        ]
      },
      "src/lib/EpochVoteSubmissionHelper.sol": {
        "EpochVoteSubmissionHelper": [
          {
            "start": 7722,
            "length": 20
          },
          {
            "start": 11035,
            "length": 20
          },
          {
            "start": 11774,
            "length": 20
          }
        ]
      },
      "src/lib/ExecutableQueueHelper.sol": {
        "ExecutableQueueHelper": [
          {
            "start": 10906,
            "length": 20
          },
          {
            "start": 11187,
            "length": 20
          },
          {
            "start": 11331,
            "length": 20
          },
          {
            "start": 11503,
            "length": 20
          }
        ]
      },
      "src/lib/SubnetIDHelper.sol": {
        "SubnetIDHelper": [
          {
            "start": 2882,
            "length": 20
          },
          {
            "start": 4703,
            "length": 20
          }
        ]
      }
    }
  },
  "methodIdentifiers": {
    "bottomUpCheckpointAtEpoch(uint64)": "6cb2ecee",
    "bottomUpCheckpointHashAtEpoch(uint64)": "133f74ea",
    "committedCheckpoints(uint64)": "98903748",
    "hasValidatorVotedForSubmission(uint64,address)": "66d7bbbc",
    "join(string,(uint8,bytes))": "6cf6970a",
    "kill()": "41c0e1b5",
    "leave()": "d66d9e19",
    "reward(uint256)": "a9fb763c",
    "submitCheckpoint(((uint64,address[]),uint64,uint256,((((uint64,address[]),(uint8,bytes)),((uint64,address[]),(uint8,bytes)),uint256,uint64,bytes4,bytes),bool)[],((uint64,address[]),bytes32[])[],bytes32,bytes))": "f6fd8381",
    "withdraw()": "3ccfd60b"
  },
  "id": 68
}