{
  "abi": [
    {
      "inputs": [
        {
          "internalType": "address",
          "name": "_gateway",
          "type": "address"
        }
      ],
      "stateMutability": "nonpayable",
      "type": "constructor"
    },
    {
      "inputs": [],
      "name": "UnknownSubnet",
      "type": "error"
    },
    {
      "inputs": [],
      "name": "WrongGateway",
      "type": "error"
    },
    {
      "inputs": [],
      "name": "ZeroGatewayAddress",
      "type": "error"
    },
    {
      "anonymous": false,
      "inputs": [
        {
          "indexed": false,
          "internalType": "address",
          "name": "subnetAddr",
          "type": "address"
        }
      ],
      "name": "SubnetDeployed",
      "type": "event"
    },
    {
      "inputs": [],
      "name": "gateway",
      "outputs": [
        {
          "internalType": "address",
          "name": "",
          "type": "address"
        }
      ],
      "stateMutability": "view",
      "type": "function"
    },
    {
      "inputs": [
        {
          "internalType": "address",
          "name": "owner",
          "type": "address"
        },
        {
          "internalType": "uint64",
          "name": "nonce",
          "type": "uint64"
        }
      ],
      "name": "getSubnetDeployedByNonce",
      "outputs": [
        {
          "internalType": "address",
          "name": "subnet",
          "type": "address"
        }
      ],
      "stateMutability": "view",
      "type": "function"
    },
    {
      "inputs": [
        {
          "internalType": "address",
          "name": "owner",
          "type": "address"
        }
      ],
      "name": "latestSubnetDeployed",
      "outputs": [
        {
          "internalType": "address",
          "name": "subnet",
          "type": "address"
        }
      ],
      "stateMutability": "view",
      "type": "function"
    },
    {
      "inputs": [
        {
          "components": [
            {
              "components": [
                {
                  "internalType": "uint64",
                  "name": "root",
                  "type": "uint64"
                },
                {
                  "internalType": "address[]",
                  "name": "route",
                  "type": "address[]"
                }
              ],
              "internalType": "struct SubnetID",
              "name": "parentId",
              "type": "tuple"
            },
            {
              "internalType": "bytes32",
              "name": "name",
              "type": "bytes32"
            },
            {
              "internalType": "address",
              "name": "ipcGatewayAddr",
              "type": "address"
            },
            {
              "internalType": "enum ConsensusType",
              "name": "consensus",
              "type": "uint8"
            },
            {
              "internalType": "uint256",
              "name": "minActivationCollateral",
              "type": "uint256"
            },
            {
              "internalType": "uint64",
              "name": "minValidators",
              "type": "uint64"
            },
            {
              "internalType": "uint64",
              "name": "bottomUpCheckPeriod",
              "type": "uint64"
            },
            {
              "internalType": "uint64",
              "name": "topDownCheckPeriod",
              "type": "uint64"
            },
            {
              "internalType": "uint8",
              "name": "majorityPercentage",
              "type": "uint8"
            },
            {
              "internalType": "bytes",
              "name": "genesis",
              "type": "bytes"
            }
          ],
          "internalType": "struct SubnetActor.ConstructParams",
          "name": "params",
          "type": "tuple"
        }
      ],
      "name": "newSubnetActor",
      "outputs": [
        {
          "internalType": "address",
          "name": "subnetAddr",
          "type": "address"
        }
      ],
      "stateMutability": "nonpayable",
      "type": "function"
    },
    {
      "inputs": [
        {
          "internalType": "address",
          "name": "",
          "type": "address"
        },
        {
          "internalType": "uint64",
          "name": "",
          "type": "uint64"
        }
      ],
      "name": "subnets",
      "outputs": [
        {
          "internalType": "address",
          "name": "",
          "type": "address"
        }
      ],
      "stateMutability": "view",
      "type": "function"
    },
    {
      "inputs": [
        {
          "internalType": "address",
          "name": "",
          "type": "address"
        }
      ],
      "name": "userNonces",
      "outputs": [
        {
          "internalType": "uint64",
          "name": "",
          "type": "uint64"
        }
      ],
      "stateMutability": "view",
      "type": "function"
    }
  ],
  "bytecode": {
    "object": "0x60a03461008857601f61589938819003918201601f19168301916001600160401b0383118484101761008d5780849260209460405283398101031261008857516001600160a01b0381168082036100885715610076576080526040516157f590816100a4823960805181818160b901526105e70152f35b60405163609a8af960e01b8152600490fd5b600080fd5b634e487b7160e01b600052604160045260246000fdfe60808060405260043610156200001457600080fd5b60003560e01c908163116191b614620005d2575080631163dca5146200055e5780632f7801f414620005185780639836b75f14620004a0578063b67c7b4a14620004435763f9daddd2146200006857600080fd5b34620003e957600319602036820112620003e9576001600160401b0360043511620003e9576101409060043536030112620003e957604460043501356001600160a01b03811690819003620003e9577f00000000000000000000000000000000000000000000000000000000000000006001600160a01b03160362000431576040516151516001600160401b03818301908111908311176200041b57806200066f833960208183015260043560040135604219600435360301811215620003e95760043501610140602083850101526101a0828401019060018060401b03620001546004830162000659565b168484016101600152602219906024810135368290038301811215620003e9570160248101926001600160401b03600483013511620003e957600482013560051b36038413620003e95760406101808688010152600482013590526101c084860101929060005b60048201358110620003ee575050506004356024810135858501604001526001600160a01b0390620001f0906044016200062d565b1660608486010152606460043501356001811015620003e957608084860101526084600435013560a0848601015260018060401b036200023560a46004350162000659565b1684840160c001526001600160401b036200025560043560c40162000659565b1684840160e001526001600160401b036200027560043560e40162000659565b166101008486010152610104600435013560ff8116809103620003e9576101208486010152610124600435013590600435360301811215620003e95760043501906024600483013592019260018060401b038311620003e9578236038413620003e957601f83869460209683199461014086828a0189030191890101528186528786013760008682860101520116010301906000f08015620003dd5733600081815260208181526040808320600180845282852080546001600160401b03908116875292855292852080546001600160a01b0319166001600160a01b039890981697881790559490935292905281548082169392918414620003c7576001600160401b03191660019093016001600160401b031692909217909155604051818152602091907f0431ea4d93af299b92f2c606ddcaf4b31cb0013c5ed1fdea837b8a912347c965908390a1604051908152f35b634e487b7160e01b600052601160045260246000fd5b6040513d6000823e3d90fd5b600080fd5b9091936001602080600493838060a01b036200040a8a6200062d565b1681520196019392019050620001bb565b634e487b7160e01b600052604160045260246000fd5b604051633bed049960e01b8152600490fd5b34620003e9576040366003190112620003e95760206200046262000616565b6200046c62000642565b6001600160a01b03918216600090815280845260408082206001600160401b03909316825291845281902054905191168152f35b34620003e9576040366003190112620003e957620004bd62000616565b620004c762000642565b6001600160a01b039182166000908152602081815260408083206001600160401b03909416835292905220541680156200050657602090604051908152f35b60405163609a8af960e01b8152600490fd5b34620003e9576020366003190112620003e9576001600160a01b036200053d62000616565b166000526001602052602060018060401b0360406000205416604051908152f35b34620003e9576020366003190112620003e9576001600160a01b03806200058462000616565b1660005260006020526040600020600160205260018060401b03600019816040600020541601818111620003c757166000526020526040600020541680156200050657602090604051908152f35b34620003e9576000366003190112620003e9577f00000000000000000000000000000000000000000000000000000000000000006001600160a01b03168152602090f35b600435906001600160a01b0382168203620003e957565b35906001600160a01b0382168203620003e957565b602435906001600160401b0382168203620003e957565b35906001600160401b0382168203620003e95756fe6101c08060405234620008025762005151803803809162000021828562000823565b83396020828281010312620008025781516001600160401b0381116200080257610140818401838501031262000802576040519261014084016001600160401b038111858210176200074257604052808201516001600160401b03811162000802576200009690848301908484010162000871565b8452602082820101516020850152620000b46040838301016200085c565b604085015260608282010151600181101562000802576060850152608082820101516080850152620000eb60a08383010162000847565b60a08501526200010060c08383010162000847565b60c08501526200011560e08383010162000847565b60e0850152610100828201015160ff81168103620008025761010085015280820161012001516001600160401b0381116200080257838201601f82858501010112156200080257818301810151926001600160401b0384116200074257604051946200018c601f8601601f19166020018762000823565b84865283016020858484870101010111620008025760005b848110620007e857868660006020888301015261012082015260ff6101008201511660018060401b0360c08301511690600160005560648111620007d657608052600a811015620007cd57506020600a5b60a0819052600280546001600160401b03199081166001600160401b039384161790915583518051600f805490931690841617909155919091015180519182116200074257680100000000000000008211620007425760209060105483601055808410620007ac575b50016010600052602060002060005b8381106200078e57602085015161018052604085015185906001600160a01b0316156200077c5760408101516001600160a01b0316610140526060810151906001821015620007665761012091610160526080810151670de0b6b3a7640000908181106000146200075e57505b60c05260a08101516001600160401b03908116835260e082015116600a811015620007585750600a5b60e05260a0516001600160401b03908116610100526005805460ff60401b1916680100000000000000001790559101518051909181116200074257601154600181811c9116801562000737575b60208210146200072157601f8111620006c2575b50602091601f821160011462000658579181926000926200064c575b50508160011b916000199060031b1c1916176011555b604051620003a48162000807565b600f546001600160401b031681526040516010805480835260009182527f1b6847dc741a1b0cd08d278845f9d819d87b734759afb55fe2de5cb82a9ae67291839160208301915b81811062000629575050620004039250038262000823565b602082015262000447600073__$a0fe38a9a81205afccc10810b09a4d3f45$__926040518093819263aa5106cb60e01b835260406004840152604483019062000940565b3060248301520381855af4908115620005c857600091620005d4575b506020906200048f9260405180809581946390ba52cf60e01b8352866004840152602483019062000940565b03915af4908115620005c8576000916200058d575b506101a090815260018054600160401b600160801b03191690556040516147b391826200099e8339608051828181612554015261468b015260a05182818161194b0152818161281e0152614656015260c0518281816102f301528181611bb80152611f05015260e05182611dec015261010051826129a3015261012051826106d3015261014051828181610261015281816103f001528181611f7c01528181611ff3015281816125ea0152818161269901528181612dc30152818161415c015261427201526101605182611cb50152610180518261296a01525181818161071a01526108cf0152f35b906020823d602011620005bf575b81620005aa6020938362000823565b81010312620005bc57505181620004a4565b80fd5b3d91506200059b565b6040513d6000823e3d90fd5b903d8082843e620005e6818462000823565b82019160208184031262000625578051916001600160401b038311620005bc57506020926200048f94926200061c920162000871565b91509162000463565b5080fd5b84546001600160a01b0316835260019485019486945060209093019201620003eb565b01519050828062000380565b601f19821692601160005260206000209160005b858110620006a9575083600195106200068f575b505050811b0160115562000396565b015160001960f88460031b161c1916905582808062000680565b919260206001819286850151815501940192016200066c565b60116000526200070f907f31ecc21a745e3968a04e9570e4425bc18fa8019c68028196b546d1669c200c68601f840160051c8101916020851062000716575b601f0160051c019062000927565b8262000364565b909150819062000701565b634e487b7160e01b600052602260045260246000fd5b90607f169062000350565b634e487b7160e01b600052604160045260246000fd5b62000303565b9050620002da565b634e487b7160e01b600052602160045260246000fd5b604051638b3ddc3360e01b8152600490fd5b82516001600160a01b0316818301556020909201916001016200026d565b620007c69060106000528484600020918201910162000927565b846200025e565b602090620001f5565b6040516375c3b42760e01b8152600490fd5b8060208092858588010101015182828901015201620001a4565b600080fd5b604081019081106001600160401b038211176200074257604052565b601f909101601f19168101906001600160401b038211908210176200074257604052565b51906001600160401b03821682036200080257565b51906001600160a01b03821682036200080257565b9190916040818403126200080257604051926200088e8462000807565b836200089a8362000847565b81526020838101516001600160401b039491939185821162000802570181601f820112156200080257805194851162000742578460051b9060405195620008e48684018862000823565b86528480870192820101928311620008025784809101915b8383106200090c57505050500152565b819062000919846200085c565b8152019101908490620008fc565b81811062000933575050565b6000815560010162000927565b80516001600160401b03168252602090810151604082840181905281519084018190526060909301929082019160005b8281106200097f575050505090565b83516001600160a01b0316855293810193928101926001016200097056fe60a0806040526004361015610025575b50361561001b57600080fd5b610023612dc1565b005b600090813560e01c90816304fda3d4146129d25750806306c468531461298d57806306fdde03146129525780630f43a6771461293457806310d500e1146128f7578063133f74ea1461284d578063185fde7e14612808578063200d2ed2146127d957806323a357051461279e578063264762041461276557806332e0aa1f1461272d5780633ccfd60b1461265b57806341c0e1b5146125a357806351392fc014612578578063599c7bd11461253a5780635f832dbf1461251c57806366d7bbbc146124b15780636cb2ecee146122825780636cf6970a14611e5457806373f273fc14611e1b5780637d9740f414611dd657806380f7602114611d175780638b0e9f3f14611cf95780638ef3f76114611c9f57806391be4d4114611c7c5780639890374814611bdb5780639e33bd0214611ba0578063a1ada30314611b84578063a7f0b3de14611aa2578063a9fb763c14611a06578063ad81e244146119dd578063b10836ee146107c7578063b7ab4db51461073d578063c18f64aa14610702578063c5ab2241146106bd578063cf3312501461041f578063cfca2824146103da578063d4e25bab146103695763d66d9e190361000f573461036657806003193601126103665760028154146103545760028155610200612f7c565b610208612fff565b338152600b6020526040812054801561034257338252600b60205281604081205561023581600454613042565b600455610241336130e4565b5060055460ff8160401c16600681101561032e576002146102ee575b50817f00000000000000000000000000000000000000000000000000000000000000006001600160a01b0316803b156102df578180916024604051809481936345f5448560e01b83528860048401525af180156102e3576102cb575b506102c4823361306a565b6001815580f35b6102d490612a85565b6102df5781386102b9565b5080fd5b6040513d84823e3d90fd5b6004547f0000000000000000000000000000000000000000000000000000000000000000111561025d5760ff60401b1916600360401b176005553861025d565b634e487b7160e01b84526021600452602484fd5b604051632ec5b44960e01b8152600490fd5b604051633ee5aeb560e01b8152600490fd5b80fd5b5034610366576020366003190112610366576001906040906001600160a01b03610391612a21565b168152600e602052206103ba60ff825416916103b36040518095819301612d2b565b0383612b1a565b6103d66040519283928352604060208401526040830190612be3565b0390f35b50346103665780600319360112610366576040517f00000000000000000000000000000000000000000000000000000000000000006001600160a01b03168152602090f35b503461036657806003193601126103665760405161043c81612ac9565b60608082528260208093015260085492610455846131f7565b936104636040519586612b1a565b808552601f19610472826131f7565b01825b81811061067d575050815b81811061056d5750506005546040516001600160401b03918216959192916104a782612ac9565b815284810195865260405194808652848601915194604082880152855180935260808088019083818660051b8b0101980195925b8584106104f1578a51881660408b01528989038af35b90919293949597858061055c6001938d607f199082030188528c5190858060a01b03825116815283820151848201528661054c8560408501518b604086015260ff8151168c8601520151604060a085015260c0840190612be3565b9201519087818403910152612be3565b9a01940194019295949391906104db565b61063961057e829794959697612eb6565b9190549161058b84612eb6565b9054600391821b1c6001600160a01b039081168952600b8b52604089205491949190806105b788612eb6565b905490881b1c168a52600e8c5260408a2092816105d389612eb6565b905490891b1c168b52600d8d5260408b2094604051976105f289612aff565b1b1c1685528a850152600161062b6040519261060d84612ac9565b60ff81541684526106246040518094819301612d2b565b0382612b1a565b8a8201526040840152612b3d565b86820152610647828561344a565b52610652818461344a565b506000198114610669576001019493929194610480565b634e487b7160e01b84526011600452602484fd5b9480809794959660405161069081612aff565b87815287838201526106a0613430565b604082015288808201528282880101520190509594939295610475565b50346103665780600319360112610366576040517f00000000000000000000000000000000000000000000000000000000000000006001600160401b03168152602090f35b503461036657806003193601126103665760206040517f00000000000000000000000000000000000000000000000000000000000000008152f35b503461036657806003193601126103665760085461075a816131f7565b916107686040519384612b1a565b818352601f19610777836131f7565b013660208501375b81811061079c57604051602080825281906103d690820186612c23565b806107a8600192612eb6565b838060a01b0391549060031b1c166107c0828661344a565b520161077f565b5034610366576003196020368201126102df576001600160401b03600435116102df5760e0906004353603011261036657610800612f7c565b61080e6024600435016131ce565b6001546001600160401b039182169181168211156119cb5760401c6001600160401b03169081811161193a575b505060ff60055460401c16600681101561192657600203611914573381526009602052604081205415610342576108a560206108843661087f6004803501806131e2565b61320e565b604051809381926390ba52cf60e01b835284600484015260248301906132b1565b038173__$a0fe38a9a81205afccc10810b09a4d3f45$__5af49081156102e35782916118e2575b507f0000000000000000000000000000000000000000000000000000000000000000036118d05761090760646004350160043560040161330c565b906040518092638984147560e01b825280602483016020600485015252604482019060448160051b84010193809287915b888484106117975786602081808b038173__$33b79814e84bf6cf5e47244090b19ce5f8$__5af49081156102e3578291611778575b5015611766576001600160401b036109896004356024016131ce565b168152600a60205260408120338252600b60205260408220546040516109ae81612aae565b6004803501356001600160401b038111611539576109d390600436918135010161320e565b81526109e3602460043501612a0d565b602082015260043560448101356040830152606401356001600160401b03811161153957366023826004350101121561153957600481813501013590610a28826131f7565b91610a366040519384612b1a565b80835260208301913660248360051b8360043501010111611637576024816004350101925b60248360051b83600435010101841061163b57505050506060820152600435608401356001600160401b03811161153957366023826004350101121561153957600481813501013590610aad826131f7565b91610abb6040519384612b1a565b80835260208301913660248360051b8360043501010111611637576024816004350101925b60248360051b83600435010101841061153d5750505050608082015260043560a481013560a083015260c401356001600160401b03811161153957610b5191610b3260209260043691813501016139c4565b60c0820152604051809381926339aa47fb60e01b835260048301613774565b038173__$1cd67d4dc9e627f0bec7928aa480e7d951$__5af490811561152e5784916114f7575b50610b876024600435016131ce565b600454928593855480885260038701602052604088203360005260205260ff604060002054166114e557610c54928186928a526003890160205260408a20336000526020526040600020600160ff1982541617905560018901610beb838254612e05565b90556004890191818b528260205260408b20848c52602052610c1260408c20918254612e05565b9055808a528160205260408a209160028a019283548c5260205260408b2054918b5260205260408a20838b5260205260408a2054116114dd575b505085614687565b60048110156114c957859190600381036114735750610c7281614646565b156113f8575060019250505b80845260058301602052610cb36020610c99604087206134c9565b604051809381926322ea8d8960e11b835260048301613774565b038173__$1cd67d4dc9e627f0bec7928aa480e7d951$__5af49081156113ed5785916113be575b50610d26575b5015610cf257610cef906140a2565b80f35b5060025460401c6001600160401b0316610d0b81614646565b610d13575080f35b8152600a602052610cef604082206140a2565b83526005820160205260408320610d70610d446004803501806131e2565b6001600160401b03610d55826131ce565b84546001600160401b0319169116178355602081019061330c565b906001600160401b038211610f35576001830190610d8e8383613a2f565b90865260208620865b8381106113a3575050506002820190506001600160401b03610dbd6004356024016131ce565b82546001600160401b0319169116179055600480356044810135600384015582820191610def9160648101910161330c565b90610dfa8284613a77565b918652602086208692805b83851061106857505050505060058101610e2960846004350160043560040161330c565b9190610e358383613bdb565b908652602086208691805b848410610f4957505050505060079060a46004350135600682015501610e7060c460043501600435600401612e84565b906001600160401b038211610f35578190610e9582610e8f8654612a4b565b86612e3f565b8690601f8311600114610ecf578792610ec4575b50508160011b916000199060031b1c19161790555b83610ce0565b013590508680610ea9565b84885260208820925090601f198416885b818110610f1d5750908460019594939210610f03575b505050811b019055610ebe565b0135600019600384901b60f8161c19169055868080610ef6565b91936020600181928787013581550195019201610ee0565b634e487b7160e01b86526041600452602486fd5b610f5381836131e2565b610f8c610f6082806131e2565b6001600160401b03610f71826131ce565b87546001600160401b0319169116178655602081019061330c565b906001600160401b038211611054576001860190610faa8383613a2f565b908c5260208c208c5b8381106110395750505050806020610fcc92019061330c565b906001600160401b038211611025576002850190610fea8383613b98565b908b5260208b208b5b83811061101157505050506003602060019201930193019291610e40565b600190602084359401938184015501610ff3565b634e487b7160e01b8b52604160045260248bfd5b600190602061104785613a63565b9401938184015501610fb3565b634e487b7160e01b8c52604160045260248cfd5b61107281836131e2565b803560be198236030181121561139f5761108e828201806131e2565b6110c761109b82806131e2565b6001600160401b036110ac826131ce565b89546001600160401b0319169116178855602081019061330c565b906001600160401b038211611370578d9060018901906110e78483613a2f565b915260208e208e5b8381106113845750505060028701916001600160a01b03915061111490602001613a63565b82546001600160a01b03191691161790556003850161117461113c84840160208101906131e2565b9161114783806131e2565b906001600160401b03611159836131ce565b82546001600160401b0319169116179055602081019061330c565b906001600160401b038211611370578d9060048901906111948483613a2f565b915260208e208e5b8381106113555750505060058701916001600160a01b0391506111c190602001613a63565b82546001600160a01b0319169116179055818101604081013560068701556007860191906001600160401b03906111fa906060016131ce565b83546001600160401b031916911617825582810160800135916001600160e01b0319831683036113515761123d9261123191613b75565b820160a0810190612e84565b906001600160401b038211611054576112668261125d6008890154612a4b565b60088901612e3f565b8b908c601f84116001146112e05791839291602095946112d5575b50508160011b916000199060031b1c19161760088601555b01359081151582036112d1576020600a916112c5600194600988019060ff801983541691151516179055565b01930194019391610e05565b8980fd5b013590508d80611281565b50600887018d5260208d20918d5b601f1985168110611339575091839160019360209695601f1981161061131f575b505050811b016008860155611299565b0135600019600384901b60f8161c191690558d808061130f565b909260206001819286860135815501940191016112ee565b8c80fd5b600190602061136385613a63565b940193818401550161119c565b634e487b7160e01b8e52604160045260248efd5b600190602061139285613a63565b94019381840155016110ef565b8a80fd5b60019060206113b185613a63565b9401938184015501610d97565b6113e0915060203d6020116113e6575b6113d88183612b1a565b810190612f64565b85610cda565b503d6113ce565b6040513d87823e3d90fd5b73__$b7b8687e33476c74e3b4e0a64c4768a343$__90813b1561146f5760405163199b9ca560e01b8152600260048201526001600160401b039091166024820152908290829060449082905af480156102e357611457575b5050610c7e565b61146090612a85565b61146b578385611450565b8380fd5b8280fd5b90506002915003610c7e578373__$e0f829f5071d7e628aa77eca0c12e35bc2$__803b156102df578160249160405192838092635a27a53960e11b82528960048301525af480156102e357611457575050610c7e565b634e487b7160e01b86526021600452602486fd5b558388610c4c565b6040516337138f5f60e11b8152600490fd5b90506020813d602011611526575b8161151260209383612b1a565b81010312611521575184610b78565b600080fd5b3d9150611505565b6040513d86823e3d90fd5b8480fd5b83356001600160401b0381116112d157826004350101604060231982360301126112d1576040519061156e82612ac9565b60248101356001600160401b03811161163357611591906024369184010161320e565b825260448101356001600160401b038111611633573660438284010112156116335760248183010135906115c4826131f7565b926115d26040519485612b1a565b82845260208401913660448560051b83850101011161162f57604481830101925b60448560051b8385010101841061161f5750505050602080840192909252509082529384019301610ae0565b83358152602093840193016115f3565b8e80fd5b8b80fd5b8780fd5b83356001600160401b0381116112d15782600435010160231991604083833603011261139f576040519061166e82612ac9565b60248301356001600160401b0381116113515760c0908401948536030112611633576040519161169d83612ae4565b60248501356001600160401b038111611762576116c09060243691880101613973565b835260448501356001600160401b038111611762576116e59060243691880101613973565b60208401526064850135604084015261170060848601612a0d565b606084015261171160a4860161340e565b608084015260c48501356001600160401b03811161176257604460209586956117446024998a61175196369201016139c4565b60a0820152845201613423565b838201528152019401939050610a5b565b8d80fd5b604051630bd9169f60e01b8152600490fd5b611791915060203d6020116113e6576113d88183612b1a565b8261096d565b919395509193956043198882030184526117b18784613341565b90813560be198336030181121561146b57604082528201916117d38380613341565b6117ea60c091826040860152610100850190613355565b936117f86020820182613341565b611810603f1996606092888883030184890152613355565b9260809160408401358388015261182f60018060401b03918501612a0d565b169160a0928388015261184b63ffffffff60e01b91850161340e565b1690860152810135601e19823603018112156118cc57018035906001600160401b0382116118cc576020019381360385136118cc5760206118ad8180989660019a86839a849a888b030160e0890152818a52848a013782878901015201613423565b1515910152601f80199101160101970193019301909286949293610938565b8680fd5b6040516375ecc72d60e01b8152600490fd5b90506020813d60201161190c575b816118fd60209383612b1a565b810103126115215751386108cc565b3d91506118f0565b60405163c18316bf60e01b8152600490fd5b634e487b7160e01b82526021600452602482fd5b036001600160401b0381116119b7577f00000000000000000000000000000000000000000000000000000000000000006001600160401b031680156119a3576001600160401b03918216061661199157388061083b565b60405163b4f68f9760e01b8152600490fd5b634e487b7160e01b83526012600452602483fd5b634e487b7160e01b82526011600452602482fd5b604051631f30cc6360e21b8152600490fd5b50346103665780600319360112610366576001546040516001600160401b039091168152602090f35b5034610366576020806003193601126102df5760043590611a25612dc1565b600854918215611a9057828110611a7e5782900490835b838110611a47578480f35b80611a53600192612eb6565b838060a01b0391549060031b1c168652600c835260408620611a76858254612e05565b905501611a3c565b604051633074cabf60e11b8152600490fd5b60405163efa9c8f160e01b8152600490fd5b5034610366578060031936011261036657604051600090601154611ac581612a4b565b808352600191808316908115611b5c5750600114611b02575b6103d683611aee81870382612b1a565b604051918291602083526020830190612be3565b6011600090815260209450917f31ecc21a745e3968a04e9570e4425bc18fa8019c68028196b546d1669c200c685b828410611b4957505050810190910190611aee81611ade565b8054858501870152928501928101611b30565b6103d69550611aee93506020915091849260ff191682840152151560051b8201019350611ade565b50346103665780600319360112610366576020604051600a8152f35b503461036657806003193601126103665760206040517f00000000000000000000000000000000000000000000000000000000000000008152f35b503461036657602036600319011261036657611c5f906001600160401b03906103d69060409083611c0a6129f7565b1681526007602052206007611c1e82612cf6565b93600283015416916003810154611c4b600683015492611c446040518096819301612d2b565b0384612b1a565b60405196879660a0885260a0880190612c60565b936020870152604086015260608501528382036080850152612be3565b50346103665780600319360112610366576020604051670de0b6b3a76400008152f35b50346103665780600319360112610366576040517f00000000000000000000000000000000000000000000000000000000000000006001811015611ce557602092508152f35b634e487b7160e01b83526021600452602483fd5b50346103665780600319360112610366576020600454604051908152f35b5034610366578060031936011261036657611d30613430565b50604051611d3d81612ac9565b600f546001600160401b03168152604051601080548083526000918252602092917f1b6847dc741a1b0cd08d278845f9d819d87b734759afb55fe2de5cb82a9ae67291839185830191905b86828210611db757505050611d9f92500382612b1a565b818301526103d6604051928284938452830190612c60565b85546001600160a01b0316845260019586019587955093019201611d88565b50346103665780600319360112610366576040517f00000000000000000000000000000000000000000000000000000000000000006001600160401b03168152602090f35b5034610366576020366003190112610366576020906040906001600160a01b03611e43612a21565b168152600c83522054604051908152f35b5060031990604036830112610366576001600160401b039160043583811161146f573660238201121561146f5780600401359184831161146b57602494368685850101116115395785359281841161227e5760408460040193853603011261227e57611ebe612f7c565b611ec6612fff565b341561226c57338652602090600b825260408720611ee5348254612e05565b9055611ef334600454612e05565b600455338752600b82526040872054957f000000000000000000000000000000000000000000000000000000000000000080971015612087575b50505050505060055460ff8160401c1660068110156120735783945060018114600014611fe257505060045490811015611f67575b505080f35b6005805460ff60401b1916600160411b1790557f00000000000000000000000000000000000000000000000000000000000000006001600160a01b0316803b15611fde578290600460405180948193630354740160e31b83525af180156102e35715611f62575b611fd790612a85565b6103665780f35b5050fd5b60039193501461204d575b508190507f00000000000000000000000000000000000000000000000000000000000000006001600160a01b0316803b1561204a5781600491604051928380926316989f6f60e21b825234905af180156102e357611fce57505080f35b50fd5b600454101561205d575b80611fed565b60ff60401b1916600160411b1760055538612057565b5050634e487b7160e01b8252506021600452fd5b3360005260098352604060002054611f2d576120a233612ee7565b50338852600d8352808960408a20936120c5836120bf8754612a4b565b87612e3f565b8a90601f84116001146121ff578b936121f2575b5050508160011b916000199060031b1c19161790555b338652600e81526040862092803560ff811680910361163757845460ff19161784556001938401946121249190890190612e84565b9283116121df57612139836120bf8754612a4b565b8691601f841160011461217c57509282939183928894612171575b50501b916000199060031b1c19161790555b388080808080611f2d565b013592503880612154565b9183601f198116878a52848a20948a905b888383106121c557505050106121ab575b505050811b019055612166565b0135600019600384901b60f8161c1916905538808061219e565b86860135885590960195938401938793509081019061218d565b634e487b7160e01b875260416004528787fd5b01013590508938806120d9565b858c52868c20601f19851695509250908c908c5b888782106122515750508460019610612235575b50505050811b0190556120ef565b60001960f88660031b161c199201013516905538808b81612227565b8483019093013585556001909401938e929182019101612213565b604051635a78c58160e11b8152600490fd5b8580fd5b5034610366576020366003190112610366576122a461229f6129f7565b613688565b9160405192839215158352604060208401526122cd815160e06040860152610120850190612c60565b9160018060401b03602083015116606085015260408201516080850152606082015192603f198582030160a0860152835180825260208201916020808360051b83010196019284915b8383106123fa575050505050608082015192603f198582030160c0860152835190818152602081016020808460051b84010196019380925b84841061237c5788806103d68a60c08b60a081015160e08601520151603f1984830301610100850152612be3565b919395969092949750601f19828203018452875160206123a58251604085526040850190612c60565b910151828203602093840152805180835291830192019084905b8082106123e257505050602080600192990194019401918897969593949161234e565b909192602080600192865181520194019201906123bf565b919395966001919395985060208091601f19858203018652885190828061249484516040855260a081519161245461243f60c0948560408b01526101008a0190612c87565b82870151898203603f190160608b0152612c87565b92604082015160808901528b8060401b036060830151168389015263ffffffff60e01b608083015116908801520151603f198683030160e0870152612be3565b930151151591015297019301930190928897949293969596612316565b5034610366576040366003190112610366576124cb6129f7565b6024356001600160a01b038116929083900361152157604091600180841b03168152600a602052600382822080548352016020522090600052602052602060ff604060002054166040519015158152f35b50346103665780600319360112610366576020600654604051908152f35b5034610366578060031936011261036657602060405160ff7f0000000000000000000000000000000000000000000000000000000000000000168152f35b50346103665780600319360112610366576001546040805191901c6001600160401b03168152602090f35b50346103665780600319360112610366576125bc612f7c565b6125c4612fff565b60085415801590612650575b61263e576005805460ff60401b1916600560401b179055807f00000000000000000000000000000000000000000000000000000000000000006001600160a01b0316803b1561204a578180916004604051809481936341c0e1b560e01b83525af180156102e357611fce5750f35b604051636b62255160e11b8152600490fd5b5060045415156125d0565b5034610366578060031936011261036657612674612f7c565b338152600c6020526040812054801561271b57338252600c60205260408220829055817f00000000000000000000000000000000000000000000000000000000000000006001600160a01b0316803b156102df578190602460405180948193631f0e077760e31b83528760048401525af18015612710576126fb575b50610cef903361306a565b91612709610cef9293612a85565b91906126f0565b6040513d85823e3d90fd5b6040516367300f9160e11b8152600490fd5b503461036657602036600319011261036657602061274c600435612eb6565b905460405160039290921b1c6001600160a01b03168152f35b5034610366576020366003190112610366576020906040906001600160a01b0361278d612a21565b168152600b83522054604051908152f35b5034610366576020366003190112610366576103d690611aee906040906001600160a01b036127cb612a21565b168152600d60205220612b3d565b503461036657806003193601126103665760ff60055460401c16604051906006811015611ce557602092508152f35b50346103665780600319360112610366576040517f00000000000000000000000000000000000000000000000000000000000000006001600160401b03168152602090f35b5034610366576020806003193601126102df5761288c8161286f61229f6129f7565b604094919451809481926339aa47fb60e01b835260048301613774565b038173__$1cd67d4dc9e627f0bec7928aa480e7d951$__5af491821561152e5784926128c4575b506040809450519215158352820152f35b9080925081813d83116128f0575b6128dc8183612b1a565b8101031261146b57604093505190386128b3565b503d6128d2565b503461036657806003193601126103665760606002546040519060018060401b03908181168352818160401c16602084015260801c166040820152f35b50346103665780600319360112610366576020600854604051908152f35b503461036657806003193601126103665760206040517f00000000000000000000000000000000000000000000000000000000000000008152f35b50346103665780600319360112610366576040517f00000000000000000000000000000000000000000000000000000000000000006001600160401b03168152602090f35b9050346102df57816003193601126102df576005546001600160401b03168152602090f35b600435906001600160401b038216820361152157565b35906001600160401b038216820361152157565b600435906001600160a01b038216820361152157565b35906001600160a01b038216820361152157565b90600182811c92168015612a7b575b6020831014612a6557565b634e487b7160e01b600052602260045260246000fd5b91607f1691612a5a565b6001600160401b038111612a9857604052565b634e487b7160e01b600052604160045260246000fd5b60e081019081106001600160401b03821117612a9857604052565b604081019081106001600160401b03821117612a9857604052565b60c081019081106001600160401b03821117612a9857604052565b608081019081106001600160401b03821117612a9857604052565b601f909101601f19168101906001600160401b03821190821017612a9857604052565b9060405191826000825492612b5184612a4b565b908184526001948581169081600014612bc05750600114612b7d575b5050612b7b92500383612b1a565b565b9093915060005260209081600020936000915b818310612ba8575050612b7b93508201013880612b6d565b85548884018501529485019487945091830191612b90565b915050612b7b94506020925060ff191682840152151560051b8201013880612b6d565b919082519283825260005b848110612c0f575050826000602080949584010152601f8019910116010190565b602081830181015184830182015201612bee565b90815180825260208080930193019160005b828110612c43575050505090565b83516001600160a01b031685529381019392810192600101612c35565b9060406020612c8493600180841b0381511684520151918160208201520190612c23565b90565b906020612c9d8351604084526040840190612c60565b928101516001600160a01b031691015290565b90815480825260208092019260005281600020916000905b828210612cd6575050505090565b83546001600160a01b031685529384019360019384019390910190612cc8565b9060016020604051612d0781612ac9565b612d278195848060401b038154168352611c446040518096819301612cb0565b0152565b9060009291805491612d3c83612a4b565b918282526001938481169081600014612d9e5750600114612d5e575b50505050565b90919394506000526020928360002092846000945b838610612d8a575050505001019038808080612d58565b805485870183015294019385908201612d73565b9294505050602093945060ff191683830152151560051b01019038808080612d58565b7f00000000000000000000000000000000000000000000000000000000000000006001600160a01b03163303612df357565b60405163e7e601db60e01b8152600490fd5b91908201809211612e1257565b634e487b7160e01b600052601160045260246000fd5b818110612e33575050565b60008155600101612e28565b9190601f8111612e4e57505050565b612b7b926000526020600020906020601f840160051c83019310612e7a575b601f0160051c0190612e28565b9091508190612e6d565b903590601e198136030182121561152157018035906001600160401b0382116115215760200191813603831361152157565b600854811015612ed157600860005260206000200190600090565b634e487b7160e01b600052603260045260246000fd5b600081815260096020526040812054612f5f57600854600160401b811015612f4b579082612f37612f2084600160409601600855612eb6565b819391549060031b91821b91600019901b19161790565b905560085492815260096020522055600190565b634e487b7160e01b82526041600452602482fd5b905090565b90816020910312611521575180151581036115215790565b604051630972932760e21b815233600482015260208160248173__$e800e3908cdbb6b1b5bd452383a17b18f7$__5af4908115612ff357600091612fd5575b5015612fc357565b60405163b7150de560e01b8152600490fd5b612fed915060203d81116113e6576113d88183612b1a565b38612fbb565b6040513d6000823e3d90fd5b60ff60055460401c16600681101561302c5760051461301a57565b60405163248c8efb60e11b8152600490fd5b634e487b7160e01b600052602160045260246000fd5b91908203918211612e1257565b6001600160401b038111612a9857601f01601f191660200190565b8147106130cc576000918291829182916001600160a01b03165af13d156130c7573d6130958161304f565b906130a36040519283612b1a565b8152600060203d92013e5b156130b557565b604051630a12f52160e11b8152600490fd5b6130ae565b60405163cd78605960e01b8152306004820152602490fd5b60008181526009602052604081205490919080156131c957600019908082018181116131b557600854908382019182116131a15780820361316d575b50505060085480156131595781019061313882612eb6565b909182549160031b1b19169055600855815260096020526040812055600190565b634e487b7160e01b84526031600452602484fd5b61318b61317c612f2093612eb6565b90549060031b1c928392612eb6565b9055845260096020526040842055388080613120565b634e487b7160e01b86526011600452602486fd5b634e487b7160e01b85526011600452602485fd5b505090565b356001600160401b03811681036115215790565b903590603e1981360301821215611521570190565b6001600160401b038111612a985760051b60200190565b9190604083820312611521576040519261322784612ac9565b8361323182612a0d565b815260209180830135906001600160401b03821161152157019280601f85011215611521578335613261816131f7565b9461326f6040519687612b1a565b818652848087019260051b8201019283116115215784809101915b83831061329957505050500152565b81906132a484612a37565b815201910190849061328a565b80516001600160401b03168252602090810151604082840181905281519084018190526060909301929082019160005b8281106132ef575050505090565b83516001600160a01b0316855293810193928101926001016132e1565b903590601e198136030182121561152157018035906001600160401b03821161152157602001918160051b3603831361152157565b9035603e1982360301811215611521570190565b906133608280613341565b604082526001600160401b0392608083018461337b84612a0d565b16604085015260209283810135601e19823603018112156115215701908382359201958211611521578160051b36038613611521578190604060608701525260a08401949060005b8181106133e957506001600160a01b03926133e2925084019050612a37565b1691015290565b9091958480600192838060a01b036134008b612a37565b1681520197019291016133c3565b35906001600160e01b03198216820361152157565b3590811515820361152157565b6040519061343d82612ac9565b6060602083600081520152565b8051821015612ed15760209160051b010190565b9060405161346b81612ac9565b6020819361347881612cf6565b8352600201546001600160a01b0316910152565b90815480825260208092019260005281600020916000905b8282106134b2575050505090565b8354855293840193600193840193909101906134a4565b906040918251906134d982612aae565b81936134e482612cf6565b835260018060401b0360029080828501541660209081870152600390818601548588015260048601928354613518816131f7565b9161352588519384612b1a565b818352600095865283862086918585015b8484106135e957505050505060608801526005860190815493613558856131f7565b9561356588519788612b1a565b85875282870193825282822091935b8685106135aa575050505050505060c092611c448593612d279360806007980152600683015460a0860152518096819301612d2b565b85846001928b516135ba81612ac9565b6135c387612cf6565b81528c516135d781610624818a8c0161348c565b83820152815201930194019391613574565b600a876001928d8b6008829e9c9e519261360284612ac9565b61362381519361361185612ae4565b61361a8c61345e565b85528b0161345e565b8684015260068a0154818401526136648a6103b36007820154938c8516606088015260a09463ffffffff60e01b90861b166080880152518095819301612d2b565b820152815260ff600988015416151583820152815201930193019291979597613536565b6040519061369582612aae565b61369d613430565b8252600090606060c0602094848682015284604082015282808201528260808201528460a0820152015260018060401b03168152600782526137096136e4604083206134c9565b9280845160405180948192630c133d1360e31b835284600484015260248301906132b1565b038173__$a0fe38a9a81205afccc10810b09a4d3f45$__5af49283156137525792613735575b50501591565b61374b9250803d106113e6576113d88183612b1a565b388061372f565b604051903d90823e3d90fd5b906020612c9d83516040845260408401906132b1565b919060209081845280519360e08382015261379561010095868301906132b1565b9160018060401b0380858301511690604091828501528183015197606098898601528884015198601f19966080938888830301858901528b51928383528a8301948b808660051b8601019e016080526000935b8585106138c3575050505050505082015194848489030160a08501528551908189528089019281808460051b8c01019801936000915b84831061384e57505050505050612c8494955060c08160a060e09301518285015201519282850301910152612be3565b90919289898d8397989c030184528a51826138708251868552868501906132b1565b91015191838183039101528280835192838152019201906000905b8082106138aa5750505090806001929b0193019301919493929061381e565b919380600192948651815201940192018793929161388b565b9091929394959d8c8f82828f6139558e8a8f8d9786958c60019c030190528b8360805151996139048b5193838c528451908c60c095869101528c019061375e565b88840151603f198c83038101888e0152969161391f9161375e565b96840151858c0152830151169260a093848b015263ffffffff60e01b9083015116908901520151908683030160e0870152612be3565b930151151591015260808051830190529f01969501939291906137e8565b919091604081840312611521576040519061398d82612ac9565b90928391908135906001600160401b03821161152157826139b7602094926139bf9486940161320e565b855201612a37565b910152565b81601f82011215611521578035906139db8261304f565b926139e96040519485612b1a565b8284526020838301011161152157816000926020809301838601378301015290565b80546000825580613a1a575050565b612b7b91600052602060002090810190612e28565b90600160401b8111612a9857815490808355818110613a4d57505050565b612b7b9260005260206000209182019101612e28565b356001600160a01b03811681036115215790565b600160401b8211612a9857805490828155818310613a9457505050565b600a928284029284840403612e12578084029084820403612e1257600091825260209081832093840193015b838110613ace575050505050565b8083869255836001613ae1818401613a0b565b816002840155816003840155613af960048401613a0b565b60059082828501558260068501558260078501556008840190613b1c8254612a4b565b9081613b32575b50505050600982015501613ac0565b8490601f94858411600114613b5357505050509050555b8338808080613b23565b8493958395613b6e94528a86209601901c8501908501612e28565b5555613b49565b805463ffffffff60401b191660a09290921c63ffffffff60401b16919091179055565b600160401b8211612a9857805491808255828110613bb557505050565b60009182526020822092830192015b828110613bd057505050565b818155600101613bc4565b600160401b8211612a9857805490828155818310613bf857505050565b6003928284029284840403612e12578084029084820403612e1257600091825260209081832093840193015b838110613c32575050505050565b80838692556001613c44818301613a0b565b6002820180549086815581613c5d575b50505001613c24565b8652848620908101905b81811015613c54578681558894508201613c67565b818114613ce5578154916001600160401b038311612a9857613c9e8383613a2f565b60005260206000209060005260206000208154916000925b848410613cc4575050505050565b600191820180546001600160a01b0390921684860155939091019290613cb6565b5050565b90808214613ce557613cfb8154612a4b565b906001600160401b038211612a98578190613d1a82610e8f8654612a4b565b600090601f8311600114613d5157600092613d46575b50508160011b916000199060031b1c1916179055565b015490503880613d30565b81526020808220858352818320935090601f1985169083905b828210613da4575050908460019594939210613d8b575b505050811b019055565b015460001960f88460031b161c19169055388080613d81565b8495819295850154815560018091019601940190613d6a565b818114613ce557815491613dd18383613a77565b6000526020600020906000526020600020906000905b838210613df45750505050565b8060019184141580613e12575b50600a809101930191019091613de7565b80613e3f575b50613e39600960ff81840154169086019060ff801983541691151516179055565b38613e01565b80613f0a575b5060038085019082018082141580613eb0575b50505060068082015490850155613e9a6007808601908301848060401b03815416858060401b031983541617825563ffffffff60e01b905460a01b1690613b75565b613eaa6008808301908601613ce9565b38613e18565b613edd575b5050600580850190838060a01b039083015416838060a01b0319825416179055388080613e58565b838060401b03905416838060401b0319825416179055613f036004808301908601613c7c565b3880613eb5565b613f33575b600280850190838060a01b039083015416838060a01b031982541617905538613e45565b818060401b03815416828060401b0319855416178455613f5882808301908601613c7c565b613f0f565b818114613ce5578154916001600160401b038311612a9857613f7f8383613b98565b60005260206000209060005260206000208154916000925b848410613fa5575050505050565b6001809192019384549281850155019290613f97565b818114613ce557815491613fcf8383613bdb565b6000526020600020906000526020600020906000905b838210613ff25750505050565b8060019184141580614010575b506003809101930191019091613fe5565b61402b575b6140256002808301908601613f5d565b38613fff565b818060401b03815416828060401b031985541617845561405082808301908601613c7c565b614015565b80546001600160401b03168252604060208301819052612c84920190600101612cb0565b9060408152602061408d6040830184614055565b6002909301546001600160a01b031691015290565b6002810154906000918252600581016020526040822060065491600682019283540361449357506002810180549091906140e4906001600160401b0316614548565b81546001600160401b031684526007602052604084208181141590816143f0575b505061412f6020614115836134c9565b604051809381926339aa47fb60e01b835260048301613774565b038173__$1cd67d4dc9e627f0bec7928aa480e7d951$__5af49081156113ed5785916143be575b506006557f00000000000000000000000000000000000000000000000000000000000000006001600160a01b03163b1561146b57604051635926519560e01b81526020600482015260e06024820152928492849290916141ba610104850183614055565b92546001600160401b03166044850152600382015460648501528383036023190160848501526004820180548085529086526020808720600583901b86018201959092918891908101905b83831061430c57505050505060058201926023198582030160a48601528354808252602082019160208260051b820101958852602088209288915b8383106142bb575050925460c48701525050508282036023190160e4840152829161426d91600701612d2b565b0381837f00000000000000000000000000000000000000000000000000000000000000006001600160a01b03165af180156102e3576142aa575050565b6142b48291612a85565b6103665750565b929597509297509294602060036142f9600193601f19868203018752604081526142e8604082018d614055565b908481830391015260028c0161348c565b9901930193018997959389979592614240565b9295975092975092946020600a89600193601f19868203018752604081528360ff60096143a260c0806040870152614348610100870188614079565b614362603f1991828982030160608a015260038a01614079565b9160068901546080890152600789015460a0908d8060401b038116828b015263ffffffff60e01b911b16908801528682030160e087015260088701612d2b565b9401541615159101529901930193018997959389979592614205565b90506020813d6020116143e8575b816143d960209383612b1a565b81010312611521575138614156565b3d91506143cc565b61445a91614461575b83546002820180546001600160401b0319166001600160401b0392909216919091179055600383810154908201556144376004808501908301613dbd565b6144476005840160058301613fbb565b8454600682015560078084019101613ce9565b3880614105565b825481546001600160401b0319166001600160401b039190911617815561448e6001848101908301613c7c565b6143f9565b9092915073__$e0f829f5071d7e628aa77eca0c12e35bc2$__90813b1561146f578290602460405180948193635a27a53960e11b835260048301525af480156102e357614539575b5060029091015473__$b7b8687e33476c74e3b4e0a64c4768a343$__906001600160401b0316813b1561146f5782906044604051809481936394ecccfd60e01b83526002600484015260248301525af480156102e3576142aa575050565b61454290612a85565b386144db565b61455181614646565b1561464357604051634953836d60e11b8152600260048201526001600160401b03918216602482018190529173__$b7b8687e33476c74e3b4e0a64c4768a343$__9190602082604481865af48015612ff3578492600091614625575b50614612575b5050803b15611521576000604491604051928380926394ecccfd60e01b8252600260048301528660248301525af48015612ff357614603575b50600180546001600160401b031916919091179055565b61460c90612a85565b386145ec565b60025460401c1603613ce55781386145b3565b61463d915060203d81116113e6576113d88183612b1a565b386145ad565b50565b6001546001600160401b039081167f0000000000000000000000000000000000000000000000000000000000000000821601818111612e1257811691161490565b60ff7f000000000000000000000000000000000000000000000000000000000000000016808302908382041483151715612e12576064900460405191637d2ef4e560e11b835280600484015260208360248173__$e0f829f5071d7e628aa77eca0c12e35bc2$__5af4928315612ff357600093614749575b5060010154908082111561474057808311614737576147279261472191613042565b92613042565b111561473257600190565b600290565b50505050600390565b50505050600090565b90926020823d8211614775575b8161476360209383612b1a565b810103126103665750519160016146ff565b3d915061475656fea2646970667358221220acd1b89ac3b99a4890d0e7b2ea9774cdf998f538a4518f928eb323427aecced564736f6c63430008130033a2646970667358221220a036dc995c174e67e27b395cc185adf0b6c39448f6bef51799b03bf05bd0972064736f6c63430008130033",
    "linkReferences": {
      "src/lib/AccountHelper.sol": {
        "AccountHelper": [
          {
            "start": 16456,
            "length": 20
          }
        ]
      },
      "src/lib/CheckpointHelper.sol": {
        "CheckpointHelper": [
          {
            "start": 7174,
            "length": 20
          },
          {
            "start": 7528,
            "length": 20
          },
          {
            "start": 14657,
            "length": 20
          },
          {
            "start": 20964,
            "length": 20
          }
        ]
      },
      "src/lib/CrossMsgHelper.sol": {
        "CrossMsgHelper": [
          {
            "start": 6651,
            "length": 20
          }
        ]
      },
      "src/lib/EpochVoteSubmissionHelper.sol": {
        "EpochVoteSubmissionHelper": [
          {
            "start": 9522,
            "length": 20
          },
          {
            "start": 21834,
            "length": 20
          },
          {
            "start": 22412,
            "length": 20
          }
        ]
      },
      "src/lib/ExecutableQueueHelper.sol": {
        "ExecutableQueueHelper": [
          {
            "start": 9387,
            "length": 20
          },
          {
            "start": 21909,
            "length": 20
          },
          {
            "start": 22064,
            "length": 20
          }
        ]
      },
      "src/lib/SubnetIDHelper.sol": {
        "SubnetIDHelper": [
          {
            "start": 2851,
            "length": 20
          },
          {
            "start": 6490,
            "length": 20
          },
          {
            "start": 18366,
            "length": 20
          }
        ]
      }
    }
  },
  "methodIdentifiers": {
    "gateway()": "116191b6",
    "getSubnetDeployedByNonce(address,uint64)": "9836b75f",
    "latestSubnetDeployed(address)": "1163dca5",
    "newSubnetActor(((uint64,address[]),bytes32,address,uint8,uint256,uint64,uint64,uint64,uint8,bytes))": "f9daddd2",
    "subnets(address,uint64)": "b67c7b4a",
    "userNonces(address)": "2f7801f4"
  },
  "id": 27
}