{
  "abi": [
    {
      "inputs": [
        {
          "internalType": "address",
          "name": "a",
          "type": "address"
        }
      ],
      "name": "accumulatedRewards",
      "outputs": [
        {
          "internalType": "uint256",
          "name": "",
          "type": "uint256"
        }
      ],
      "stateMutability": "view",
      "type": "function"
    },
    {
      "inputs": [],
      "name": "bottomUpCheckPeriod",
      "outputs": [
        {
          "internalType": "uint64",
          "name": "",
          "type": "uint64"
        }
      ],
      "stateMutability": "view",
      "type": "function"
    },
    {
      "inputs": [],
      "name": "consensus",
      "outputs": [
        {
          "internalType": "enum ConsensusType",
          "name": "",
          "type": "uint8"
        }
      ],
      "stateMutability": "view",
      "type": "function"
    },
    {
      "inputs": [],
      "name": "executableQueue",
      "outputs": [
        {
          "internalType": "uint64",
          "name": "",
          "type": "uint64"
        },
        {
          "internalType": "uint64",
          "name": "",
          "type": "uint64"
        },
        {
          "internalType": "uint64",
          "name": "",
          "type": "uint64"
        }
      ],
      "stateMutability": "view",
      "type": "function"
    },
    {
      "inputs": [],
      "name": "genesis",
      "outputs": [
        {
          "internalType": "bytes",
          "name": "",
          "type": "bytes"
        }
      ],
      "stateMutability": "view",
      "type": "function"
    },
    {
      "inputs": [],
      "name": "getParent",
      "outputs": [
        {
          "components": [
            {
              "internalType": "uint64",
              "name": "root",
              "type": "uint64"
            },
            {
              "internalType": "address[]",
              "name": "route",
              "type": "address[]"
            }
          ],
          "internalType": "struct SubnetID",
          "name": "",
          "type": "tuple"
        }
      ],
      "stateMutability": "view",
      "type": "function"
    },
    {
      "inputs": [],
      "name": "getValidatorSet",
      "outputs": [
        {
          "components": [
            {
              "components": [
                {
                  "internalType": "address",
                  "name": "addr",
                  "type": "address"
                },
                {
                  "internalType": "uint256",
                  "name": "weight",
                  "type": "uint256"
                },
                {
                  "components": [
                    {
                      "internalType": "uint8",
                      "name": "addrType",
                      "type": "uint8"
                    },
                    {
                      "internalType": "bytes",
                      "name": "payload",
                      "type": "bytes"
                    }
                  ],
                  "internalType": "struct FvmAddress",
                  "name": "workerAddr",
                  "type": "tuple"
                },
                {
                  "internalType": "string",
                  "name": "netAddresses",
                  "type": "string"
                }
              ],
              "internalType": "struct ValidatorInfo[]",
              "name": "validators",
              "type": "tuple[]"
            },
            {
              "internalType": "uint64",
              "name": "configurationNumber",
              "type": "uint64"
            }
          ],
          "internalType": "struct ValidatorSet",
          "name": "",
          "type": "tuple"
        }
      ],
      "stateMutability": "view",
      "type": "function"
    },
    {
      "inputs": [],
      "name": "getValidators",
      "outputs": [
        {
          "internalType": "address[]",
          "name": "",
          "type": "address[]"
        }
      ],
      "stateMutability": "view",
      "type": "function"
    },
    {
      "inputs": [],
      "name": "ipcGatewayAddr",
      "outputs": [
        {
          "internalType": "address",
          "name": "",
          "type": "address"
        }
      ],
      "stateMutability": "view",
      "type": "function"
    },
    {
      "inputs": [],
      "name": "lastVotingExecutedEpoch",
      "outputs": [
        {
          "internalType": "uint64",
          "name": "",
          "type": "uint64"
        }
      ],
      "stateMutability": "view",
      "type": "function"
    },
    {
      "inputs": [
        {
          "internalType": "uint64",
          "name": "fromEpoch",
          "type": "uint64"
        },
        {
          "internalType": "uint64",
          "name": "toEpoch",
          "type": "uint64"
        }
      ],
      "name": "listBottomUpCheckpoints",
      "outputs": [
        {
          "components": [
            {
              "components": [
                {
                  "internalType": "uint64",
                  "name": "root",
                  "type": "uint64"
                },
                {
                  "internalType": "address[]",
                  "name": "route",
                  "type": "address[]"
                }
              ],
              "internalType": "struct SubnetID",
              "name": "source",
              "type": "tuple"
            },
            {
              "internalType": "uint64",
              "name": "epoch",
              "type": "uint64"
            },
            {
              "internalType": "uint256",
              "name": "fee",
              "type": "uint256"
            },
            {
              "components": [
                {
                  "components": [
                    {
                      "components": [
                        {
                          "components": [
                            {
                              "internalType": "uint64",
                              "name": "root",
                              "type": "uint64"
                            },
                            {
                              "internalType": "address[]",
                              "name": "route",
                              "type": "address[]"
                            }
                          ],
                          "internalType": "struct SubnetID",
                          "name": "subnetId",
                          "type": "tuple"
                        },
                        {
                          "components": [
                            {
                              "internalType": "uint8",
                              "name": "addrType",
                              "type": "uint8"
                            },
                            {
                              "internalType": "bytes",
                              "name": "payload",
                              "type": "bytes"
                            }
                          ],
                          "internalType": "struct FvmAddress",
                          "name": "rawAddress",
                          "type": "tuple"
                        }
                      ],
                      "internalType": "struct IPCAddress",
                      "name": "from",
                      "type": "tuple"
                    },
                    {
                      "components": [
                        {
                          "components": [
                            {
                              "internalType": "uint64",
                              "name": "root",
                              "type": "uint64"
                            },
                            {
                              "internalType": "address[]",
                              "name": "route",
                              "type": "address[]"
                            }
                          ],
                          "internalType": "struct SubnetID",
                          "name": "subnetId",
                          "type": "tuple"
                        },
                        {
                          "components": [
                            {
                              "internalType": "uint8",
                              "name": "addrType",
                              "type": "uint8"
                            },
                            {
                              "internalType": "bytes",
                              "name": "payload",
                              "type": "bytes"
                            }
                          ],
                          "internalType": "struct FvmAddress",
                          "name": "rawAddress",
                          "type": "tuple"
                        }
                      ],
                      "internalType": "struct IPCAddress",
                      "name": "to",
                      "type": "tuple"
                    },
                    {
                      "internalType": "uint256",
                      "name": "value",
                      "type": "uint256"
                    },
                    {
                      "internalType": "uint64",
                      "name": "nonce",
                      "type": "uint64"
                    },
                    {
                      "internalType": "bytes4",
                      "name": "method",
                      "type": "bytes4"
                    },
                    {
                      "internalType": "bytes",
                      "name": "params",
                      "type": "bytes"
                    }
                  ],
                  "internalType": "struct StorableMsg",
                  "name": "message",
                  "type": "tuple"
                },
                {
                  "internalType": "bool",
                  "name": "wrapped",
                  "type": "bool"
                }
              ],
              "internalType": "struct CrossMsg[]",
              "name": "crossMsgs",
              "type": "tuple[]"
            },
            {
              "components": [
                {
                  "components": [
                    {
                      "internalType": "uint64",
                      "name": "root",
                      "type": "uint64"
                    },
                    {
                      "internalType": "address[]",
                      "name": "route",
                      "type": "address[]"
                    }
                  ],
                  "internalType": "struct SubnetID",
                  "name": "source",
                  "type": "tuple"
                },
                {
                  "internalType": "bytes32[]",
                  "name": "checks",
                  "type": "bytes32[]"
                }
              ],
              "internalType": "struct ChildCheck[]",
              "name": "children",
              "type": "tuple[]"
            },
            {
              "internalType": "bytes32",
              "name": "prevHash",
              "type": "bytes32"
            },
            {
              "internalType": "bytes",
              "name": "proof",
              "type": "bytes"
            }
          ],
          "internalType": "struct BottomUpCheckpoint[]",
          "name": "",
          "type": "tuple[]"
        }
      ],
      "stateMutability": "view",
      "type": "function"
    },
    {
      "inputs": [],
      "name": "majorityPercentage",
      "outputs": [
        {
          "internalType": "uint64",
          "name": "",
          "type": "uint64"
        }
      ],
      "stateMutability": "view",
      "type": "function"
    },
    {
      "inputs": [],
      "name": "minActivationCollateral",
      "outputs": [
        {
          "internalType": "uint256",
          "name": "",
          "type": "uint256"
        }
      ],
      "stateMutability": "view",
      "type": "function"
    },
    {
      "inputs": [],
      "name": "minValidators",
      "outputs": [
        {
          "internalType": "uint64",
          "name": "",
          "type": "uint64"
        }
      ],
      "stateMutability": "view",
      "type": "function"
    },
    {
      "inputs": [],
      "name": "name",
      "outputs": [
        {
          "internalType": "bytes32",
          "name": "",
          "type": "bytes32"
        }
      ],
      "stateMutability": "view",
      "type": "function"
    },
    {
      "inputs": [],
      "name": "prevExecutedCheckpointHash",
      "outputs": [
        {
          "internalType": "bytes32",
          "name": "",
          "type": "bytes32"
        }
      ],
      "stateMutability": "view",
      "type": "function"
    },
    {
      "inputs": [
        {
          "internalType": "address",
          "name": "a",
          "type": "address"
        }
      ],
      "name": "stake",
      "outputs": [
        {
          "internalType": "uint256",
          "name": "",
          "type": "uint256"
        }
      ],
      "stateMutability": "view",
      "type": "function"
    },
    {
      "inputs": [],
      "name": "status",
      "outputs": [
        {
          "internalType": "enum Status",
          "name": "",
          "type": "uint8"
        }
      ],
      "stateMutability": "view",
      "type": "function"
    },
    {
      "inputs": [],
      "name": "topDownCheckPeriod",
      "outputs": [
        {
          "internalType": "uint64",
          "name": "",
          "type": "uint64"
        }
      ],
      "stateMutability": "view",
      "type": "function"
    },
    {
      "inputs": [],
      "name": "totalStake",
      "outputs": [
        {
          "internalType": "uint256",
          "name": "",
          "type": "uint256"
        }
      ],
      "stateMutability": "view",
      "type": "function"
    },
    {
      "inputs": [
        {
          "internalType": "uint256",
          "name": "index",
          "type": "uint256"
        }
      ],
      "name": "validatorAt",
      "outputs": [
        {
          "internalType": "address",
          "name": "",
          "type": "address"
        }
      ],
      "stateMutability": "view",
      "type": "function"
    },
    {
      "inputs": [],
      "name": "validatorCount",
      "outputs": [
        {
          "internalType": "uint256",
          "name": "",
          "type": "uint256"
        }
      ],
      "stateMutability": "view",
      "type": "function"
    }
  ],
  "bytecode": {
    "object": "0x608060405234801561001057600080fd5b50611757806100206000396000f3fe608060405234801561001057600080fd5b50600436106101425760003560e01c806380f76021116100b8578063ac9c2a6f1161007c578063ac9c2a6f146102d0578063ad81e244146102f0578063b7ab4db5146102f8578063c5ab22411461030d578063cf33125014610325578063cfca28241461033a57600080fd5b806380f76021146102835780638b0e9f3f146102985780638ef3f761146102a05780639e33bd02146102b3578063a7f0b3de146102bb57600080fd5b8063264762041161010a57806326476204146101de57806332e0aa1f14610207578063599c7bd1146102325780635f832dbf1461023a57806373f273fc146102425780637d9740f41461026b57600080fd5b806306c468531461014757806306fdde03146101785780630f43a6771461018a57806310d500e114610192578063200d2ed2146101c4575b600080fd5b600954600160801b90046001600160401b03165b6040516001600160401b0390911681526020015b60405180910390f35b600a545b60405190815260200161016f565b61017c61034b565b61019a61035c565b604080516001600160401b039485168152928416602084015292169181019190915260600161016f565b600d54600160a01b900460ff1660405161016f91906110d0565b61017c6101ec3660046110ea565b6001600160a01b031660009081526001602052604090205490565b61021a610215366004611113565b6103bb565b6040516001600160a01b03909116815260200161016f565b61015b6103ce565b600c5461017c565b61017c6102503660046110ea565b6001600160a01b031660009081526002602052604090205490565b600954600160401b90046001600160401b031661015b565b61028b6103fb565b60405161016f9190611195565b60075461017c565b60125460ff1660405161016f91906111a8565b60085461017c565b6102c3610490565b60405161016f9190611202565b6102e36102de366004611231565b610525565b60405161016f9190611459565b61015b610cad565b610300610ce0565b60405161016f919061153f565b600954600160c01b90046001600160401b031661015b565b61032d610d85565b60405161016f919061158c565b600d546001600160a01b031661021a565b6000610357600e611073565b905090565b60008060006103b07f283d1424c49941ba61504663c7a1b6f59e6bbb963a00bcc130bcbf9c29e1e27154600160401b81046001600160401b0390811692600160801b8304821692600160c01b900490911690565b925092509250909192565b60006103c8600e8361107d565b92915050565b60006103577f283d1424c49941ba61504663c7a1b6f59e6bbb963a00bcc130bcbf9c29e1e2735460ff1690565b604080518082019091526000815260606020820152604080518082018252601080546001600160401b0316825260118054845160208281028201810190965281815293949293838601939092919083018282801561048257602002820191906000526020600020905b81546001600160a01b03168152600190910190602001808311610464575b505050505081525050905090565b6060600060060180546104a29061164c565b80601f01602080910402602001604051908101604052809291908181526020018280546104ce9061164c565b801561051b5780601f106104f05761010080835404028352916020019161051b565b820191906000526020600020905b8154815290600101906020018083116104fe57829003601f168201915b5050505050905090565b60606000610533848461169c565b90506000816001600160401b03166001600160401b03811115610558576105586116bc565b6040519080825280602002602001820160405280156105d157816020015b6040805161012081018252600060e0820181815260606101008401819052908352602083018290529282018190528282018390526080820183905260a082015260c08101919091528152602001906001900390816105765790505b50905060005b826001600160401b0316816001600160401b03161015610ca457600560006105ff83896116d2565b6001600160401b0390811682526020808301939093526040918201600020825161012081018452815490921660e08301908152600182018054855181880281018801909652808652939592948694929386936101008701939183018282801561069157602002820191906000526020600020905b81546001600160a01b03168152600190910190602001808311610673575b50505050508152505081526020016002820160009054906101000a90046001600160401b03166001600160401b03166001600160401b031681526020016003820154815260200160048201805480602002602001604051908101604052809291908181526020016000905b82821015610a9b5760008481526020908190206040805161018081018252600c860290920180546001600160401b031661014084019081526001820180548451818802810188018652818152959693958795860194879486946101008901948794869486936101608d019390918301828280156107a257602002820191906000526020600020905b81546001600160a01b03168152600190910190602001808311610784575b5050509190925250505081526040805180820190915260028301805460ff168252600384018054602094850194840191906107dc9061164c565b80601f01602080910402602001604051908101604052809291908181526020018280546108089061164c565b80156108555780601f1061082a57610100808354040283529160200191610855565b820191906000526020600020905b81548152906001019060200180831161083857829003601f168201915b505050919092525050509052508152604080516080810182526004840180546001600160401b03168284019081526005860180548551602082810282018101909752818152968601969495939486948693606087019390918301828280156108e657602002820191906000526020600020905b81546001600160a01b031681526001909101906020018083116108c8575b5050509190925250505081526040805180820190915260028301805460ff168252600384018054602094850194840191906109209061164c565b80601f016020809104026020016040519081016040528092919081815260200182805461094c9061164c565b80156109995780601f1061096e57610100808354040283529160200191610999565b820191906000526020600020905b81548152906001019060200180831161097c57829003601f168201915b5050509190925250505090525081526008820154602082015260098201546001600160401b0381166040830152600160401b900460e01b6001600160e01b0319166060820152600a820180546080909201916109f49061164c565b80601f0160208091040260200160405190810160405280929190818152602001828054610a209061164c565b8015610a6d5780601f10610a4257610100808354040283529160200191610a6d565b820191906000526020600020905b815481529060010190602001808311610a5057829003601f168201915b505050919092525050508152600b919091015460ff16151560209182015290825260019290920191016106fc565b50505050815260200160058201805480602002602001604051908101604052809291908181526020016000905b82821015610bd2576000848152602090819020604080516080810182526003860290920180546001600160401b031683830190815260018201805484518188028101880190955280855294959294869492938693606087019390929091830182828015610b5e57602002820191906000526020600020905b81546001600160a01b03168152600190910190602001808311610b40575b505050505081525050815260200160028201805480602002602001604051908101604052809291908181526020018280548015610bba57602002820191906000526020600020905b815481526020019060010190808311610ba6575b50505050508152505081526020019060010190610ac8565b50505050815260200160068201548152602001600782018054610bf49061164c565b80601f0160208091040260200160405190810160405280929190818152602001828054610c209061164c565b8015610c6d5780601f10610c4257610100808354040283529160200191610c6d565b820191906000526020600020905b815481529060010190602001808311610c5057829003601f168201915b50505050508152505082826001600160401b031681518110610c9157610c916116f2565b60209081029190910101526001016105d7565b50949350505050565b60006103577f283d1424c49941ba61504663c7a1b6f59e6bbb963a00bcc130bcbf9c29e1e270546001600160401b031690565b60606000610cee600e611073565b90506000816001600160401b03811115610d0a57610d0a6116bc565b604051908082528060200260200182016040528015610d33578160200160208202803683370190505b50905060005b82811015610d7e57610d4c600e8261107d565b828281518110610d5e57610d5e6116f2565b6001600160a01b0390921660209283029190910190910152600101610d39565b5092915050565b6040805180820190915260608152600060208201526000610da6600e611073565b90506000816001600160401b03811115610dc257610dc26116bc565b604051908082528060200260200182016040528015610e2757816020015b60408051608081018252600080825260208083018290528351808501855291825260609082018190529282015281810191909152815260200190600190039081610de05790505b50905060005b8281101561104e57604080516080810190915280610e4c600e8461107d565b6001600160a01b0316815260200160016000610e69600e8661107d565b6001600160a01b031681526020808201929092526040016000908120548352910190600490610e99600e8661107d565b6001600160a01b0316815260208082019290925260409081016000208151808301909252805460ff1682526001810180549293919291840191610edb9061164c565b80601f0160208091040260200160405190810160405280929190818152602001828054610f079061164c565b8015610f545780601f10610f2957610100808354040283529160200191610f54565b820191906000526020600020905b815481529060010190602001808311610f3757829003601f168201915b50505091909252505050815260200160036000610f72600e8661107d565b6001600160a01b03166001600160a01b031681526020019081526020016000208054610f9d9061164c565b80601f0160208091040260200160405190810160405280929190818152602001828054610fc99061164c565b80156110165780601f10610feb57610100808354040283529160200191611016565b820191906000526020600020905b815481529060010190602001808311610ff957829003601f168201915b5050505050815250828281518110611030576110306116f2565b6020026020010181905250808061104690611708565b915050610e2d565b50604080518082019091529081526009546001600160401b0316602082015292915050565b60006103c8825490565b60006110898383611090565b9392505050565b60008260000182815481106110a7576110a76116f2565b9060005260206000200154905092915050565b634e487b7160e01b600052602160045260246000fd5b60208101600683106110e4576110e46110ba565b91905290565b6000602082840312156110fc57600080fd5b81356001600160a01b038116811461108957600080fd5b60006020828403121561112557600080fd5b5035919050565b6000604083016001600160401b0383511684526020808401516040828701528281518085526060880191508383019450600092505b8083101561118a5784516001600160a01b03168252938301936001929092019190830190611161565b509695505050505050565b602081526000611089602083018461112c565b60208101600183106110e4576110e46110ba565b6000815180845260005b818110156111e2576020818501810151868301820152016111c6565b506000602082860101526020601f19601f83011685010191505092915050565b60208152600061108960208301846111bc565b80356001600160401b038116811461122c57600080fd5b919050565b6000806040838503121561124457600080fd5b61124d83611215565b915061125b60208401611215565b90509250929050565b60ff8151168252600060208201516040602085015261128660408501826111bc565b949350505050565b60008151604084526112a3604085018261112c565b9050602083015184820360208601526112bc8282611264565b95945050505050565b600081518084526020808501808196508360051b8101915082860160005b858110156113ac578284038952815160408151818752805160c080848a01526113106101008a018361128e565b915089830151603f196060818c860301818d015261132e858461128e565b9686015160808d810191909152908601516001600160401b031660a0808e0191909152908601516001600160e01b031916938c0193909352918401518a860390920160e08b01525092905061138381846111bc565b93890151801515898b0152939250611399915050565b99860199945050908401906001016112e3565b5091979650505050505050565b600081518084526020808501808196508360051b810191508286016000805b8681101561144b578385038a528251604081518188526113fa8289018261112c565b92890151888403898b01528051808552908a01938693508a0191505b808310156114365783518252928901926001929092019190890190611416565b509b88019b96505050918501916001016113d8565b509298975050505050505050565b60006020808301818452808551808352604092508286019150828160051b87010184880160005b8381101561153157603f19898403018552815160e081518186526114a68287018261112c565b9150506001600160401b038983015116898601528782015188860152606080830151868303828801526114d983826112c5565b92505050608080830151868303828801526114f483826113b9565b9250505060a080830151818701525060c0808301519250858203818701525061151d81836111bc565b968901969450505090860190600101611480565b509098975050505050505050565b6020808252825182820181905260009190848201906040850190845b818110156115805783516001600160a01b03168352928401929184019160010161155b565b50909695505050505050565b600060208083526060808401855160408085880152828251808552608094508489019150848160051b8a0101878501945060005b8281101561162a578a8203607f19018452855180516001600160a01b03168352898101518a840152858101518684018990526115fe89850182611264565b918a0151848303858c015291905061161681836111bc565b978b0197958b0195935050506001016115c0565b50968a01516001600160401b038116848b0152969a9950505050505050505050565b600181811c9082168061166057607f821691505b60208210810361168057634e487b7160e01b600052602260045260246000fd5b50919050565b634e487b7160e01b600052601160045260246000fd5b6001600160401b03828116828216039080821115610d7e57610d7e611686565b634e487b7160e01b600052604160045260246000fd5b6001600160401b03818116838216019080821115610d7e57610d7e611686565b634e487b7160e01b600052603260045260246000fd5b60006001820161171a5761171a611686565b506001019056fea2646970667358221220c2b2f9a32af319879dee4b360c43b39be9d447bced8a03f418758260337519ae64736f6c63430008130033",
    "linkReferences": {}
  },
  "methodIdentifiers": {
    "accumulatedRewards(address)": "73f273fc",
    "bottomUpCheckPeriod()": "06c46853",
    "consensus()": "8ef3f761",
    "executableQueue()": "10d500e1",
    "genesis()": "a7f0b3de",
    "getParent()": "80f76021",
    "getValidatorSet()": "cf331250",
    "getValidators()": "b7ab4db5",
    "ipcGatewayAddr()": "cfca2824",
    "lastVotingExecutedEpoch()": "ad81e244",
    "listBottomUpCheckpoints(uint64,uint64)": "ac9c2a6f",
    "majorityPercentage()": "599c7bd1",
    "minActivationCollateral()": "9e33bd02",
    "minValidators()": "c5ab2241",
    "name()": "06fdde03",
    "prevExecutedCheckpointHash()": "5f832dbf",
    "stake(address)": "26476204",
    "status()": "200d2ed2",
    "topDownCheckPeriod()": "7d9740f4",
    "totalStake()": "8b0e9f3f",
    "validatorAt(uint256)": "32e0aa1f",
    "validatorCount()": "0f43a677"
  },
  "id": 63
}