{
  "abi": [
    {
      "inputs": [
        {
          "components": [
            {
              "components": [
                {
                  "internalType": "uint64",
                  "name": "root",
                  "type": "uint64"
                },
                {
                  "internalType": "address[]",
                  "name": "route",
                  "type": "address[]"
                }
              ],
              "internalType": "struct SubnetID",
              "name": "parentId",
              "type": "tuple"
            },
            {
              "internalType": "bytes32",
              "name": "name",
              "type": "bytes32"
            },
            {
              "internalType": "address",
              "name": "ipcGatewayAddr",
              "type": "address"
            },
            {
              "internalType": "enum ConsensusType",
              "name": "consensus",
              "type": "uint8"
            },
            {
              "internalType": "uint256",
              "name": "minActivationCollateral",
              "type": "uint256"
            },
            {
              "internalType": "uint64",
              "name": "minValidators",
              "type": "uint64"
            },
            {
              "internalType": "uint64",
              "name": "bottomUpCheckPeriod",
              "type": "uint64"
            },
            {
              "internalType": "uint64",
              "name": "topDownCheckPeriod",
              "type": "uint64"
            },
            {
              "internalType": "uint8",
              "name": "majorityPercentage",
              "type": "uint8"
            },
            {
              "internalType": "bytes",
              "name": "genesis",
              "type": "bytes"
            }
          ],
          "internalType": "struct SubnetActor.ConstructParams",
          "name": "params",
          "type": "tuple"
        }
      ],
      "stateMutability": "nonpayable",
      "type": "constructor"
    },
    {
      "inputs": [],
      "name": "CallerHasNoStake",
      "type": "error"
    },
    {
      "inputs": [],
      "name": "CheckpointNotChained",
      "type": "error"
    },
    {
      "inputs": [],
      "name": "CollateralIsZero",
      "type": "error"
    },
    {
      "inputs": [],
      "name": "CollateralStillLockedInSubnet",
      "type": "error"
    },
    {
      "inputs": [],
      "name": "EpochAlreadyExecuted",
      "type": "error"
    },
    {
      "inputs": [],
      "name": "EpochNotVotable",
      "type": "error"
    },
    {
      "inputs": [],
      "name": "GatewayCannotBeZero",
      "type": "error"
    },
    {
      "inputs": [],
      "name": "InvalidMajorityPercentage",
      "type": "error"
    },
    {
      "inputs": [],
      "name": "MessagesNotSorted",
      "type": "error"
    },
    {
      "inputs": [],
      "name": "NoRewardToWithdraw",
      "type": "error"
    },
    {
      "inputs": [],
      "name": "NoValidatorsInSubnet",
      "type": "error"
    },
    {
      "inputs": [],
      "name": "NotAccount",
      "type": "error"
    },
    {
      "inputs": [],
      "name": "NotAllValidatorsHaveLeft",
      "type": "error"
    },
    {
      "inputs": [],
      "name": "NotEnoughBalanceForRewards",
      "type": "error"
    },
    {
      "inputs": [],
      "name": "NotGateway",
      "type": "error"
    },
    {
      "inputs": [],
      "name": "NotValidator",
      "type": "error"
    },
    {
      "inputs": [],
      "name": "SubnetAlreadyKilled",
      "type": "error"
    },
    {
      "inputs": [],
      "name": "SubnetNotActive",
      "type": "error"
    },
    {
      "inputs": [],
      "name": "ValidatorAlreadyVoted",
      "type": "error"
    },
    {
      "inputs": [],
      "name": "WorkerAddressInvalid",
      "type": "error"
    },
    {
      "inputs": [],
      "name": "WrongCheckpointSource",
      "type": "error"
    },
    {
      "inputs": [],
      "name": "MIN_CHECKPOINT_PERIOD",
      "outputs": [
        {
          "internalType": "uint8",
          "name": "",
          "type": "uint8"
        }
      ],
      "stateMutability": "view",
      "type": "function"
    },
    {
      "inputs": [],
      "name": "MIN_COLLATERAL_AMOUNT",
      "outputs": [
        {
          "internalType": "uint256",
          "name": "",
          "type": "uint256"
        }
      ],
      "stateMutability": "view",
      "type": "function"
    },
    {
      "inputs": [
        {
          "internalType": "address",
          "name": "",
          "type": "address"
        }
      ],
      "name": "accumulatedRewards",
      "outputs": [
        {
          "internalType": "uint256",
          "name": "",
          "type": "uint256"
        }
      ],
      "stateMutability": "view",
      "type": "function"
    },
    {
      "inputs": [],
      "name": "bottomUpCheckPeriod",
      "outputs": [
        {
          "internalType": "uint64",
          "name": "",
          "type": "uint64"
        }
      ],
      "stateMutability": "view",
      "type": "function"
    },
    {
      "inputs": [
        {
          "internalType": "uint64",
          "name": "epoch",
          "type": "uint64"
        }
      ],
      "name": "bottomUpCheckpointAtEpoch",
      "outputs": [
        {
          "internalType": "bool",
          "name": "exists",
          "type": "bool"
        },
        {
          "components": [
            {
              "components": [
                {
                  "internalType": "uint64",
                  "name": "root",
                  "type": "uint64"
                },
                {
                  "internalType": "address[]",
                  "name": "route",
                  "type": "address[]"
                }
              ],
              "internalType": "struct SubnetID",
              "name": "source",
              "type": "tuple"
            },
            {
              "internalType": "uint64",
              "name": "epoch",
              "type": "uint64"
            },
            {
              "internalType": "uint256",
              "name": "fee",
              "type": "uint256"
            },
            {
              "components": [
                {
                  "components": [
                    {
                      "components": [
                        {
                          "components": [
                            {
                              "internalType": "uint64",
                              "name": "root",
                              "type": "uint64"
                            },
                            {
                              "internalType": "address[]",
                              "name": "route",
                              "type": "address[]"
                            }
                          ],
                          "internalType": "struct SubnetID",
                          "name": "subnetId",
                          "type": "tuple"
                        },
                        {
                          "components": [
                            {
                              "internalType": "uint8",
                              "name": "addrType",
                              "type": "uint8"
                            },
                            {
                              "internalType": "bytes",
                              "name": "payload",
                              "type": "bytes"
                            }
                          ],
                          "internalType": "struct FvmAddress",
                          "name": "rawAddress",
                          "type": "tuple"
                        }
                      ],
                      "internalType": "struct IPCAddress",
                      "name": "from",
                      "type": "tuple"
                    },
                    {
                      "components": [
                        {
                          "components": [
                            {
                              "internalType": "uint64",
                              "name": "root",
                              "type": "uint64"
                            },
                            {
                              "internalType": "address[]",
                              "name": "route",
                              "type": "address[]"
                            }
                          ],
                          "internalType": "struct SubnetID",
                          "name": "subnetId",
                          "type": "tuple"
                        },
                        {
                          "components": [
                            {
                              "internalType": "uint8",
                              "name": "addrType",
                              "type": "uint8"
                            },
                            {
                              "internalType": "bytes",
                              "name": "payload",
                              "type": "bytes"
                            }
                          ],
                          "internalType": "struct FvmAddress",
                          "name": "rawAddress",
                          "type": "tuple"
                        }
                      ],
                      "internalType": "struct IPCAddress",
                      "name": "to",
                      "type": "tuple"
                    },
                    {
                      "internalType": "uint256",
                      "name": "value",
                      "type": "uint256"
                    },
                    {
                      "internalType": "uint64",
                      "name": "nonce",
                      "type": "uint64"
                    },
                    {
                      "internalType": "bytes4",
                      "name": "method",
                      "type": "bytes4"
                    },
                    {
                      "internalType": "bytes",
                      "name": "params",
                      "type": "bytes"
                    }
                  ],
                  "internalType": "struct StorableMsg",
                  "name": "message",
                  "type": "tuple"
                },
                {
                  "internalType": "bool",
                  "name": "wrapped",
                  "type": "bool"
                }
              ],
              "internalType": "struct CrossMsg[]",
              "name": "crossMsgs",
              "type": "tuple[]"
            },
            {
              "components": [
                {
                  "components": [
                    {
                      "internalType": "uint64",
                      "name": "root",
                      "type": "uint64"
                    },
                    {
                      "internalType": "address[]",
                      "name": "route",
                      "type": "address[]"
                    }
                  ],
                  "internalType": "struct SubnetID",
                  "name": "source",
                  "type": "tuple"
                },
                {
                  "internalType": "bytes32[]",
                  "name": "checks",
                  "type": "bytes32[]"
                }
              ],
              "internalType": "struct ChildCheck[]",
              "name": "children",
              "type": "tuple[]"
            },
            {
              "internalType": "bytes32",
              "name": "prevHash",
              "type": "bytes32"
            },
            {
              "internalType": "bytes",
              "name": "proof",
              "type": "bytes"
            }
          ],
          "internalType": "struct BottomUpCheckpoint",
          "name": "checkpoint",
          "type": "tuple"
        }
      ],
      "stateMutability": "view",
      "type": "function"
    },
    {
      "inputs": [
        {
          "internalType": "uint64",
          "name": "epoch",
          "type": "uint64"
        }
      ],
      "name": "bottomUpCheckpointHashAtEpoch",
      "outputs": [
        {
          "internalType": "bool",
          "name": "",
          "type": "bool"
        },
        {
          "internalType": "bytes32",
          "name": "",
          "type": "bytes32"
        }
      ],
      "stateMutability": "view",
      "type": "function"
    },
    {
      "inputs": [
        {
          "internalType": "uint64",
          "name": "",
          "type": "uint64"
        }
      ],
      "name": "committedCheckpoints",
      "outputs": [
        {
          "components": [
            {
              "internalType": "uint64",
              "name": "root",
              "type": "uint64"
            },
            {
              "internalType": "address[]",
              "name": "route",
              "type": "address[]"
            }
          ],
          "internalType": "struct SubnetID",
          "name": "source",
          "type": "tuple"
        },
        {
          "internalType": "uint64",
          "name": "epoch",
          "type": "uint64"
        },
        {
          "internalType": "uint256",
          "name": "fee",
          "type": "uint256"
        },
        {
          "internalType": "bytes32",
          "name": "prevHash",
          "type": "bytes32"
        },
        {
          "internalType": "bytes",
          "name": "proof",
          "type": "bytes"
        }
      ],
      "stateMutability": "view",
      "type": "function"
    },
    {
      "inputs": [],
      "name": "configurationNumber",
      "outputs": [
        {
          "internalType": "uint64",
          "name": "",
          "type": "uint64"
        }
      ],
      "stateMutability": "view",
      "type": "function"
    },
    {
      "inputs": [],
      "name": "consensus",
      "outputs": [
        {
          "internalType": "enum ConsensusType",
          "name": "",
          "type": "uint8"
        }
      ],
      "stateMutability": "view",
      "type": "function"
    },
    {
      "inputs": [],
      "name": "currentSubnetHash",
      "outputs": [
        {
          "internalType": "bytes32",
          "name": "",
          "type": "bytes32"
        }
      ],
      "stateMutability": "view",
      "type": "function"
    },
    {
      "inputs": [],
      "name": "executableQueue",
      "outputs": [
        {
          "internalType": "uint64",
          "name": "period",
          "type": "uint64"
        },
        {
          "internalType": "uint64",
          "name": "first",
          "type": "uint64"
        },
        {
          "internalType": "uint64",
          "name": "last",
          "type": "uint64"
        }
      ],
      "stateMutability": "view",
      "type": "function"
    },
    {
      "inputs": [],
      "name": "genesis",
      "outputs": [
        {
          "internalType": "bytes",
          "name": "",
          "type": "bytes"
        }
      ],
      "stateMutability": "view",
      "type": "function"
    },
    {
      "inputs": [],
      "name": "getGenesisEpoch",
      "outputs": [
        {
          "internalType": "uint64",
          "name": "",
          "type": "uint64"
        }
      ],
      "stateMutability": "view",
      "type": "function"
    },
    {
      "inputs": [],
      "name": "getParent",
      "outputs": [
        {
          "components": [
            {
              "internalType": "uint64",
              "name": "root",
              "type": "uint64"
            },
            {
              "internalType": "address[]",
              "name": "route",
              "type": "address[]"
            }
          ],
          "internalType": "struct SubnetID",
          "name": "",
          "type": "tuple"
        }
      ],
      "stateMutability": "view",
      "type": "function"
    },
    {
      "inputs": [],
      "name": "getValidatorSet",
      "outputs": [
        {
          "components": [
            {
              "components": [
                {
                  "internalType": "address",
                  "name": "addr",
                  "type": "address"
                },
                {
                  "internalType": "uint256",
                  "name": "weight",
                  "type": "uint256"
                },
                {
                  "components": [
                    {
                      "internalType": "uint8",
                      "name": "addrType",
                      "type": "uint8"
                    },
                    {
                      "internalType": "bytes",
                      "name": "payload",
                      "type": "bytes"
                    }
                  ],
                  "internalType": "struct FvmAddress",
                  "name": "workerAddr",
                  "type": "tuple"
                },
                {
                  "internalType": "string",
                  "name": "netAddresses",
                  "type": "string"
                }
              ],
              "internalType": "struct SubnetActor.ValidatorInfo[]",
              "name": "validators",
              "type": "tuple[]"
            },
            {
              "internalType": "uint64",
              "name": "configurationNumber",
              "type": "uint64"
            }
          ],
          "internalType": "struct SubnetActor.ValidatorSet",
          "name": "",
          "type": "tuple"
        }
      ],
      "stateMutability": "view",
      "type": "function"
    },
    {
      "inputs": [],
      "name": "getValidators",
      "outputs": [
        {
          "internalType": "address[]",
          "name": "",
          "type": "address[]"
        }
      ],
      "stateMutability": "view",
      "type": "function"
    },
    {
      "inputs": [
        {
          "internalType": "uint64",
          "name": "epoch",
          "type": "uint64"
        },
        {
          "internalType": "address",
          "name": "submitter",
          "type": "address"
        }
      ],
      "name": "hasValidatorVotedForSubmission",
      "outputs": [
        {
          "internalType": "bool",
          "name": "",
          "type": "bool"
        }
      ],
      "stateMutability": "view",
      "type": "function"
    },
    {
      "inputs": [],
      "name": "ipcGatewayAddr",
      "outputs": [
        {
          "internalType": "address",
          "name": "",
          "type": "address"
        }
      ],
      "stateMutability": "view",
      "type": "function"
    },
    {
      "inputs": [
        {
          "internalType": "string",
          "name": "netAddr",
          "type": "string"
        },
        {
          "components": [
            {
              "internalType": "uint8",
              "name": "addrType",
              "type": "uint8"
            },
            {
              "internalType": "bytes",
              "name": "payload",
              "type": "bytes"
            }
          ],
          "internalType": "struct FvmAddress",
          "name": "workerAddr",
          "type": "tuple"
        }
      ],
      "name": "join",
      "outputs": [],
      "stateMutability": "payable",
      "type": "function"
    },
    {
      "inputs": [],
      "name": "kill",
      "outputs": [],
      "stateMutability": "nonpayable",
      "type": "function"
    },
    {
      "inputs": [],
      "name": "lastVotingExecutedEpoch",
      "outputs": [
        {
          "internalType": "uint64",
          "name": "",
          "type": "uint64"
        }
      ],
      "stateMutability": "view",
      "type": "function"
    },
    {
      "inputs": [],
      "name": "leave",
      "outputs": [],
      "stateMutability": "nonpayable",
      "type": "function"
    },
    {
      "inputs": [],
      "name": "majorityPercentage",
      "outputs": [
        {
          "internalType": "uint8",
          "name": "",
          "type": "uint8"
        }
      ],
      "stateMutability": "view",
      "type": "function"
    },
    {
      "inputs": [],
      "name": "minActivationCollateral",
      "outputs": [
        {
          "internalType": "uint256",
          "name": "",
          "type": "uint256"
        }
      ],
      "stateMutability": "view",
      "type": "function"
    },
    {
      "inputs": [],
      "name": "minValidators",
      "outputs": [
        {
          "internalType": "uint64",
          "name": "",
          "type": "uint64"
        }
      ],
      "stateMutability": "view",
      "type": "function"
    },
    {
      "inputs": [],
      "name": "name",
      "outputs": [
        {
          "internalType": "bytes32",
          "name": "",
          "type": "bytes32"
        }
      ],
      "stateMutability": "view",
      "type": "function"
    },
    {
      "inputs": [],
      "name": "prevExecutedCheckpointHash",
      "outputs": [
        {
          "internalType": "bytes32",
          "name": "",
          "type": "bytes32"
        }
      ],
      "stateMutability": "view",
      "type": "function"
    },
    {
      "inputs": [
        {
          "internalType": "uint256",
          "name": "amount",
          "type": "uint256"
        }
      ],
      "name": "reward",
      "outputs": [],
      "stateMutability": "nonpayable",
      "type": "function"
    },
    {
      "inputs": [
        {
          "internalType": "address",
          "name": "",
          "type": "address"
        }
      ],
      "name": "stake",
      "outputs": [
        {
          "internalType": "uint256",
          "name": "",
          "type": "uint256"
        }
      ],
      "stateMutability": "view",
      "type": "function"
    },
    {
      "inputs": [],
      "name": "status",
      "outputs": [
        {
          "internalType": "enum Status",
          "name": "",
          "type": "uint8"
        }
      ],
      "stateMutability": "view",
      "type": "function"
    },
    {
      "inputs": [],
      "name": "submissionPeriod",
      "outputs": [
        {
          "internalType": "uint64",
          "name": "",
          "type": "uint64"
        }
      ],
      "stateMutability": "view",
      "type": "function"
    },
    {
      "inputs": [
        {
          "components": [
            {
              "components": [
                {
                  "internalType": "uint64",
                  "name": "root",
                  "type": "uint64"
                },
                {
                  "internalType": "address[]",
                  "name": "route",
                  "type": "address[]"
                }
              ],
              "internalType": "struct SubnetID",
              "name": "source",
              "type": "tuple"
            },
            {
              "internalType": "uint64",
              "name": "epoch",
              "type": "uint64"
            },
            {
              "internalType": "uint256",
              "name": "fee",
              "type": "uint256"
            },
            {
              "components": [
                {
                  "components": [
                    {
                      "components": [
                        {
                          "components": [
                            {
                              "internalType": "uint64",
                              "name": "root",
                              "type": "uint64"
                            },
                            {
                              "internalType": "address[]",
                              "name": "route",
                              "type": "address[]"
                            }
                          ],
                          "internalType": "struct SubnetID",
                          "name": "subnetId",
                          "type": "tuple"
                        },
                        {
                          "components": [
                            {
                              "internalType": "uint8",
                              "name": "addrType",
                              "type": "uint8"
                            },
                            {
                              "internalType": "bytes",
                              "name": "payload",
                              "type": "bytes"
                            }
                          ],
                          "internalType": "struct FvmAddress",
                          "name": "rawAddress",
                          "type": "tuple"
                        }
                      ],
                      "internalType": "struct IPCAddress",
                      "name": "from",
                      "type": "tuple"
                    },
                    {
                      "components": [
                        {
                          "components": [
                            {
                              "internalType": "uint64",
                              "name": "root",
                              "type": "uint64"
                            },
                            {
                              "internalType": "address[]",
                              "name": "route",
                              "type": "address[]"
                            }
                          ],
                          "internalType": "struct SubnetID",
                          "name": "subnetId",
                          "type": "tuple"
                        },
                        {
                          "components": [
                            {
                              "internalType": "uint8",
                              "name": "addrType",
                              "type": "uint8"
                            },
                            {
                              "internalType": "bytes",
                              "name": "payload",
                              "type": "bytes"
                            }
                          ],
                          "internalType": "struct FvmAddress",
                          "name": "rawAddress",
                          "type": "tuple"
                        }
                      ],
                      "internalType": "struct IPCAddress",
                      "name": "to",
                      "type": "tuple"
                    },
                    {
                      "internalType": "uint256",
                      "name": "value",
                      "type": "uint256"
                    },
                    {
                      "internalType": "uint64",
                      "name": "nonce",
                      "type": "uint64"
                    },
                    {
                      "internalType": "bytes4",
                      "name": "method",
                      "type": "bytes4"
                    },
                    {
                      "internalType": "bytes",
                      "name": "params",
                      "type": "bytes"
                    }
                  ],
                  "internalType": "struct StorableMsg",
                  "name": "message",
                  "type": "tuple"
                },
                {
                  "internalType": "bool",
                  "name": "wrapped",
                  "type": "bool"
                }
              ],
              "internalType": "struct CrossMsg[]",
              "name": "crossMsgs",
              "type": "tuple[]"
            },
            {
              "components": [
                {
                  "components": [
                    {
                      "internalType": "uint64",
                      "name": "root",
                      "type": "uint64"
                    },
                    {
                      "internalType": "address[]",
                      "name": "route",
                      "type": "address[]"
                    }
                  ],
                  "internalType": "struct SubnetID",
                  "name": "source",
                  "type": "tuple"
                },
                {
                  "internalType": "bytes32[]",
                  "name": "checks",
                  "type": "bytes32[]"
                }
              ],
              "internalType": "struct ChildCheck[]",
              "name": "children",
              "type": "tuple[]"
            },
            {
              "internalType": "bytes32",
              "name": "prevHash",
              "type": "bytes32"
            },
            {
              "internalType": "bytes",
              "name": "proof",
              "type": "bytes"
            }
          ],
          "internalType": "struct BottomUpCheckpoint",
          "name": "checkpoint",
          "type": "tuple"
        }
      ],
      "name": "submitCheckpoint",
      "outputs": [],
      "stateMutability": "nonpayable",
      "type": "function"
    },
    {
      "inputs": [],
      "name": "topDownCheckPeriod",
      "outputs": [
        {
          "internalType": "uint64",
          "name": "",
          "type": "uint64"
        }
      ],
      "stateMutability": "view",
      "type": "function"
    },
    {
      "inputs": [],
      "name": "totalStake",
      "outputs": [
        {
          "internalType": "uint256",
          "name": "",
          "type": "uint256"
        }
      ],
      "stateMutability": "view",
      "type": "function"
    },
    {
      "inputs": [
        {
          "internalType": "uint256",
          "name": "index",
          "type": "uint256"
        }
      ],
      "name": "validatorAt",
      "outputs": [
        {
          "internalType": "address",
          "name": "",
          "type": "address"
        }
      ],
      "stateMutability": "view",
      "type": "function"
    },
    {
      "inputs": [],
      "name": "validatorCount",
      "outputs": [
        {
          "internalType": "uint256",
          "name": "",
          "type": "uint256"
        }
      ],
      "stateMutability": "view",
      "type": "function"
    },
    {
      "inputs": [
        {
          "internalType": "address",
          "name": "",
          "type": "address"
        }
      ],
      "name": "validatorNetAddresses",
      "outputs": [
        {
          "internalType": "string",
          "name": "",
          "type": "string"
        }
      ],
      "stateMutability": "view",
      "type": "function"
    },
    {
      "inputs": [
        {
          "internalType": "address",
          "name": "",
          "type": "address"
        }
      ],
      "name": "validatorWorkerAddresses",
      "outputs": [
        {
          "internalType": "uint8",
          "name": "addrType",
          "type": "uint8"
        },
        {
          "internalType": "bytes",
          "name": "payload",
          "type": "bytes"
        }
      ],
      "stateMutability": "view",
      "type": "function"
    },
    {
      "inputs": [],
      "name": "withdraw",
      "outputs": [],
      "stateMutability": "nonpayable",
      "type": "function"
    },
    {
      "stateMutability": "payable",
      "type": "receive"
    }
  ],
  "bytecode": {
    "object": "0x6101c06040523480156200001257600080fd5b5060405162006fda38038062006fda833981016040819052620000359162000682565b61010081015160c08201516001600055606460ff831611156200006b576040516375c3b42760e01b815260040160405180910390fd5b60ff8216608052600a6001600160401b038216106200008b57806200008e565b600a5b6001600160401b0390811660a0819052600280546001600160401b0319908116909217905584518051600f80549190941692169190911782556020808201518051929550929350620000e692601092910190620003a9565b50505060208101516101805260408101516001600160a01b03166200011e57604051638b3ddc3360e01b815260040160405180910390fd5b60408101516001600160a01b03166101405260608101518015620001465762000146620007a9565b6101608180156200015b576200015b620007a9565b81525050670de0b6b3a76400008160800151106200017e57806080015162000188565b670de0b6b3a76400005b60c05260a08101516001600160401b039081166101205260e0820151600a911610620001b9578060e00151620001bc565b600a5b6001600160401b0390811660e05260a05116610100526005805460ff60401b191668010000000000000000179055610120810151601190620001ff90826200084e565b50604080518082018252600f80546001600160401b031682526010805484516020828102820181019096528181529394929383860193909291908301828280156200027457602002820191906000526020600020905b81546001600160a01b0316815260019091019060200180831162000255575b50505091909252505060405163aa5106cb60e01b815273__$a0fe38a9a81205afccc10810b09a4d3f45$__9263aa5106cb9250620002b791309060040162000983565b600060405180830381865af4158015620002d5573d6000803e3d6000fd5b505050506040513d6000823e601f3d908101601f19168201604052620002ff9190810190620009af565b6040516390ba52cf60e01b815273__$a0fe38a9a81205afccc10810b09a4d3f45$__916390ba52cf91620003379190600401620009ef565b602060405180830381865af415801562000355573d6000803e3d6000fd5b505050506040513d601f19601f820116820180604052508101906200037b919062000a0b565b6101a0525060018054600160401b600160801b0319169055600580546001600160401b031916905562000a25565b82805482825590600052602060002090810192821562000401579160200282015b828111156200040157825182546001600160a01b0319166001600160a01b03909116178255602090920191600190910190620003ca565b506200040f92915062000413565b5090565b5b808211156200040f576000815560010162000414565b634e487b7160e01b600052604160045260246000fd5b604080519081016001600160401b03811182821017156200046557620004656200042a565b60405290565b60405161014081016001600160401b03811182821017156200046557620004656200042a565b604051601f8201601f191681016001600160401b0381118282101715620004bc57620004bc6200042a565b604052919050565b80516001600160401b0381168114620004dc57600080fd5b919050565b80516001600160a01b0381168114620004dc57600080fd5b6000604082840312156200050c57600080fd5b6200051662000440565b90506200052382620004c4565b81526020828101516001600160401b03808211156200054157600080fd5b818501915085601f8301126200055657600080fd5b8151818111156200056b576200056b6200042a565b8060051b91506200057e84830162000491565b81815291830184019184810190888411156200059957600080fd5b938501935b83851015620005c257620005b285620004e1565b825293850193908501906200059e565b808688015250505050505092915050565b805160018110620004dc57600080fd5b805160ff81168114620004dc57600080fd5b600082601f8301126200060757600080fd5b81516001600160401b038111156200062357620006236200042a565b602062000639601f8301601f1916820162000491565b82815285828487010111156200064e57600080fd5b60005b838110156200066e57858101830151828201840152820162000651565b506000928101909101919091529392505050565b6000602082840312156200069557600080fd5b81516001600160401b0380821115620006ad57600080fd5b908301906101408286031215620006c357600080fd5b620006cd6200046b565b825182811115620006dd57600080fd5b620006eb87828601620004f9565b825250602083015160208201526200070660408401620004e1565b60408201526200071960608401620005d3565b6060820152608083015160808201526200073660a08401620004c4565b60a08201526200074960c08401620004c4565b60c08201526200075c60e08401620004c4565b60e082015261010062000771818501620005e3565b9082015261012083810151838111156200078a57600080fd5b6200079888828701620005f5565b918301919091525095945050505050565b634e487b7160e01b600052602160045260246000fd5b600181811c90821680620007d457607f821691505b602082108103620007f557634e487b7160e01b600052602260045260246000fd5b50919050565b601f8211156200084957600081815260208120601f850160051c81016020861015620008245750805b601f850160051c820191505b81811015620008455782815560010162000830565b5050505b505050565b81516001600160401b038111156200086a576200086a6200042a565b62000882816200087b8454620007bf565b84620007fb565b602080601f831160018114620008ba5760008415620008a15750858301515b600019600386901b1c1916600185901b17855562000845565b600085815260208120601f198616915b82811015620008eb57888601518255948401946001909101908401620008ca565b50858210156200090a5787850151600019600388901b60f8161c191681555b5050505050600190811b01905550565b80516001600160401b03168252602080820151604082850181905281519085018190526000929182019190839060608701905b80831015620009785784516001600160a01b031682529383019360019290920191908301906200094d565b509695505050505050565b6040815260006200099860408301856200091a565b905060018060a01b03831660208301529392505050565b600060208284031215620009c257600080fd5b81516001600160401b03811115620009d957600080fd5b620009e784828501620004f9565b949350505050565b60208152600062000a0460208301846200091a565b9392505050565b60006020828403121562000a1e57600080fd5b5051919050565b60805160a05160c05160e05161010051610120516101405161016051610180516101a0516164d062000b0a600039600081816107720152611e860152600061025b015260006106240152600081816107fc0152818161088c01528181610a8c01528181610b58015281816114580152818161153601528181611d8101526134a5015260006107a601526000610227015260006105b80152600081816106b20152818161136401528181611415015281816114f90152611d2f015260008181610349015281816123a80152613a3d0152600081816104810152613a9201526164d06000f3fe6080604052600436106101c45760003560e01c806304fda3d4146101d857806306c468531461021557806306fdde03146102495780630f43a6771461028b57806310d500e1146102a0578063133f74ea14610300578063185fde7e14610337578063200d2ed21461036b57806323a357051461039957806326476204146103c657806332e0aa1f146103f35780633ccfd60b1461042057806341c0e1b51461043557806351392fc01461044a578063599c7bd11461046f5780635f832dbf146104b557806366d7bbbc146104cb5780636cb2ecee146105385780636cf6970a1461056657806373f273fc146105795780637d9740f4146105a657806380f76021146105da5780638b0e9f3f146105fc5780638ef3f7611461061257806391be4d4114610653578063989037481461066f5780639e33bd02146106a0578063a1ada303146106d4578063a7f0b3de146106e9578063a9fb763c146106fe578063ad81e2441461071e578063b7ab4db51461073e578063c18f64aa14610760578063c5ab224114610794578063cf331250146107c8578063cfca2824146107ea578063d4e25bab1461081e578063d66d9e191461084c578063f6fd83811461086157600080fd5b366101d3576101d1610881565b005b600080fd5b3480156101e457600080fd5b506005546101f8906001600160401b031681565b6040516001600160401b0390911681526020015b60405180910390f35b34801561022157600080fd5b506101f87f000000000000000000000000000000000000000000000000000000000000000081565b34801561025557600080fd5b5061027d7f000000000000000000000000000000000000000000000000000000000000000081565b60405190815260200161020c565b34801561029757600080fd5b5061027d6108cc565b3480156102ac57600080fd5b506002546102d6906001600160401b0380821691600160401b8104821691600160801b9091041683565b604080516001600160401b039485168152928416602084015292169181019190915260600161020c565b34801561030c57600080fd5b5061032061031b366004614056565b6108dd565b60408051921515835260208301919091520161020c565b34801561034357600080fd5b506101f87f000000000000000000000000000000000000000000000000000000000000000081565b34801561037757600080fd5b5060055461038c90600160401b900460ff1681565b60405161020c9190614089565b3480156103a557600080fd5b506103b96103b43660046140b8565b610976565b60405161020c919061411b565b3480156103d257600080fd5b5061027d6103e13660046140b8565b600b6020526000908152604090205481565b3480156103ff57600080fd5b5061041361040e36600461412e565b610a10565b60405161020c9190614147565b34801561042c57600080fd5b506101d1610a23565b34801561044157600080fd5b506101d1610af8565b34801561045657600080fd5b50600154600160401b90046001600160401b03166101f8565b34801561047b57600080fd5b506104a37f000000000000000000000000000000000000000000000000000000000000000081565b60405160ff909116815260200161020c565b3480156104c157600080fd5b5061027d60065481565b3480156104d757600080fd5b506105286104e636600461415b565b6001600160401b0382166000908152600a602090815260408083208054845260030182528083206001600160a01b038516845290915290205460ff1692915050565b604051901515815260200161020c565b34801561054457600080fd5b50610558610553366004614056565b610bcb565b60405161020c9291906143f7565b6101d16105743660046144a6565b6112cf565b34801561058557600080fd5b5061027d6105943660046140b8565b600c6020526000908152604090205481565b3480156105b257600080fd5b506101f87f000000000000000000000000000000000000000000000000000000000000000081565b3480156105e657600080fd5b506105ef6115b0565b60405161020c9190614540565b34801561060857600080fd5b5061027d60045481565b34801561061e57600080fd5b506106467f000000000000000000000000000000000000000000000000000000000000000081565b60405161020c9190614553565b34801561065f57600080fd5b5061027d670de0b6b3a764000081565b34801561067b57600080fd5b5061068f61068a366004614056565b611638565b60405161020c959493929190614567565b3480156106ac57600080fd5b5061027d7f000000000000000000000000000000000000000000000000000000000000000081565b3480156106e057600080fd5b506104a3600a81565b3480156106f557600080fd5b506103b9611775565b34801561070a57600080fd5b506101d161071936600461412e565b611782565b34801561072a57600080fd5b506001546101f8906001600160401b031681565b34801561074a57600080fd5b5061075361183f565b60405161020c91906145b5565b34801561076c57600080fd5b5061027d7f000000000000000000000000000000000000000000000000000000000000000081565b3480156107a057600080fd5b506101f87f000000000000000000000000000000000000000000000000000000000000000081565b3480156107d457600080fd5b506107dd6118e4565b60405161020c91906145c8565b3480156107f657600080fd5b506104137f000000000000000000000000000000000000000000000000000000000000000081565b34801561082a57600080fd5b5061083e6108393660046140b8565b611be0565b60405161020c929190614688565b34801561085857600080fd5b506101d1611c89565b34801561086d57600080fd5b506101d161087c3660046146a4565b611dfd565b336001600160a01b037f000000000000000000000000000000000000000000000000000000000000000016146108ca5760405163e7e601db60e01b815260040160405180910390fd5b565b60006108d860086120af565b905090565b6000806000806108ec85610bcb565b6040516339aa47fb60e01b81529193509150829073__$1cd67d4dc9e627f0bec7928aa480e7d951$__906339aa47fb9061092a908590600401614907565b602060405180830381865af4158015610947573d6000803e3d6000fd5b505050506040513d601f19601f8201168201806040525081019061096b91906149a3565b935093505050915091565b600d602052600090815260409020805461098f906149bc565b80601f01602080910402602001604051908101604052809291908181526020018280546109bb906149bc565b8015610a085780601f106109dd57610100808354040283529160200191610a08565b820191906000526020600020905b8154815290600101906020018083116109eb57829003601f168201915b505050505081565b6000610a1d6008836120b9565b92915050565b610a2b6120cc565b336000908152600c602052604081205490819003610a5c576040516367300f9160e11b815260040160405180910390fd5b336000908152600c60205260408082209190915551631f0e077760e31b8152600481018290526001600160a01b037f0000000000000000000000000000000000000000000000000000000000000000169063f8703bb890602401600060405180830381600087803b158015610ad057600080fd5b505af1158015610ae4573d6000803e3d6000fd5b50610af59250339150839050612161565b50565b610b006120cc565b610b08612281565b610b1260086120af565b151580610b20575060045415155b15610b3e57604051636b62255160e11b815260040160405180910390fd5b60058054819060ff60401b1916600160401b8202179055507f00000000000000000000000000000000000000000000000000000000000000006001600160a01b03166341c0e1b56040518163ffffffff1660e01b8152600401600060405180830381600087803b158015610bb157600080fd5b505af1158015610bc5573d6000803e3d6000fd5b50505050565b6000610bd5613b9b565b6001600160401b03808416600090815260076020908152604091829020825161012081018452815490941660e0850190815260018201805485518186028101860190965280865292948694929386936101008701939190830182828015610c6557602002820191906000526020600020905b81546001600160a01b03168152600190910190602001808311610c47575b50505050508152505081526020016002820160009054906101000a90046001600160401b03166001600160401b03166001600160401b031681526020016003820154815260200160048201805480602002602001604051908101604052809291908181526020016000905b8282101561106f5760008481526020908190206040805161018081018252600c860290920180546001600160401b031661014084019081526001820180548451818802810188018652818152959693958795860194879486946101008901948794869486936101608d01939091830182828015610d7657602002820191906000526020600020905b81546001600160a01b03168152600190910190602001808311610d58575b5050509190925250505081526040805180820190915260028301805460ff16825260038401805460209485019484019190610db0906149bc565b80601f0160208091040260200160405190810160405280929190818152602001828054610ddc906149bc565b8015610e295780601f10610dfe57610100808354040283529160200191610e29565b820191906000526020600020905b815481529060010190602001808311610e0c57829003601f168201915b505050919092525050509052508152604080516080810182526004840180546001600160401b0316828401908152600586018054855160208281028201810190975281815296860196949593948694869360608701939091830182828015610eba57602002820191906000526020600020905b81546001600160a01b03168152600190910190602001808311610e9c575b5050509190925250505081526040805180820190915260028301805460ff16825260038401805460209485019484019190610ef4906149bc565b80601f0160208091040260200160405190810160405280929190818152602001828054610f20906149bc565b8015610f6d5780601f10610f4257610100808354040283529160200191610f6d565b820191906000526020600020905b815481529060010190602001808311610f5057829003601f168201915b5050509190925250505090525081526008820154602082015260098201546001600160401b0381166040830152600160401b900460e01b6001600160e01b0319166060820152600a82018054608090920191610fc8906149bc565b80601f0160208091040260200160405190810160405280929190818152602001828054610ff4906149bc565b80156110415780601f1061101657610100808354040283529160200191611041565b820191906000526020600020905b81548152906001019060200180831161102457829003601f168201915b505050919092525050508152600b919091015460ff1615156020918201529082526001929092019101610cd0565b50505050815260200160058201805480602002602001604051908101604052809291908181526020016000905b828210156111a6576000848152602090819020604080516080810182526003860290920180546001600160401b03168383019081526001820180548451818802810188019095528085529495929486949293869360608701939092909183018282801561113257602002820191906000526020600020905b81546001600160a01b03168152600190910190602001808311611114575b50505050508152505081526020016002820180548060200260200160405190810160405280929190818152602001828054801561118e57602002820191906000526020600020905b81548152602001906001019080831161117a575b5050505050815250508152602001906001019061109c565b505050508152602001600682015481526020016007820180546111c8906149bc565b80601f01602080910402602001604051908101604052809291908181526020018280546111f4906149bc565b80156112415780601f1061121657610100808354040283529160200191611241565b820191906000526020600020905b81548152906001019060200180831161122457829003601f168201915b5050509190925250508151604051630c133d1360e31b815292935073__$a0fe38a9a81205afccc10810b09a4d3f45$__92636099e898925061128691906004016149f6565b602060405180830381865af41580156112a3573d6000803e3d6000fd5b505050506040513d601f19601f820116820180604052508101906112c79190614a17565b159150915091565b6112d76120cc565b6112df612281565b3433600082900361130357604051635a78c58160e11b815260040160405180910390fd5b6001600160a01b0381166000908152600b60205260408120805484929061132b908490614a4a565b9250508190555081600460008282546113449190614a4a565b90915550506001600160a01b0381166000908152600b60205260409020547f0000000000000000000000000000000000000000000000000000000000000000116113ee576113936008826122be565b6113ee576113a26008826122d3565b506001600160a01b0381166000908152600d602052604090206113c6858783614ae6565b506001600160a01b0381166000908152600e6020526040902083906113eb8282614bfa565b50505b600160058054600160401b900460ff169081111561140e5761140e614073565b036114d2577f0000000000000000000000000000000000000000000000000000000000000000600454106114cd57600580546002919060ff60401b1916600160401b8302179055507f00000000000000000000000000000000000000000000000000000000000000006001600160a01b0316631aa3a0086004546040518263ffffffff1660e01b81526004016000604051808303818588803b1580156114b357600080fd5b505af11580156114c7573d6000803e3d6000fd5b50505050505b6115a9565b600360058054600160401b900460ff16908111156114f2576114f2614073565b03611534577f000000000000000000000000000000000000000000000000000000000000000060045410611534576005805460ff60401b1916600160411b1790555b7f00000000000000000000000000000000000000000000000000000000000000006001600160a01b0316635a627dbc836040518263ffffffff1660e01b81526004016000604051808303818588803b15801561158f57600080fd5b505af11580156115a3573d6000803e3d6000fd5b50505050505b5050505050565b6115b8613bea565b604080518082018252600f80546001600160401b0316825260108054845160208281028201810190965281815293949293838601939092919083018282801561162a57602002820191906000526020600020905b81546001600160a01b0316815260019091019060200180831161160c575b505050505081525050905090565b6007602090815260009182526040918290208251808401845281546001600160401b031681526001820180548551818602810186019096528086529294919385938582019392918301828280156116b857602002820191906000526020600020905b81546001600160a01b0316815260019091019060200180831161169a575b5050509190925250505060028201546003830154600684015460078501805494956001600160401b0390941694929391926116f2906149bc565b80601f016020809104026020016040519081016040528092919081815260200182805461171e906149bc565b801561176b5780601f106117405761010080835404028352916020019161176b565b820191906000526020600020905b81548152906001019060200180831161174e57829003601f168201915b5050505050905085565b6011805461098f906149bc565b61178a610881565b600061179660086120af565b9050806000036117b95760405163efa9c8f160e01b815260040160405180910390fd5b808210156117da57604051633074cabf60e11b815260040160405180910390fd5b60006117e68284614cf4565b905060005b82811015610bc55781600c60006118036008856120b9565b6001600160a01b03166001600160a01b0316815260200190815260200160002060008282546118329190614a4a565b90915550506001016117eb565b6060600061184d60086120af565b90506000816001600160401b0381111561186957611869614a5d565b604051908082528060200260200182016040528015611892578160200160208202803683370190505b50905060005b828110156118dd576118ab6008826120b9565b8282815181106118bd576118bd614d08565b6001600160a01b0390921660209283029190910190910152600101611898565b5092915050565b604080518082019091526060815260006020820152600061190560086120af565b90506000816001600160401b0381111561192157611921614a5d565b60405190808252806020026020018201604052801561198657816020015b6040805160808101825260008082526020808301829052835180850185529182526060908201819052928201528181019190915281526020019060019003908161193f5790505b50905060005b82811015611bbb576040805160808101909152806119ab6008846120b9565b6001600160a01b03168152602001600b60006119c86008866120b9565b6001600160a01b03166001600160a01b03168152602001908152602001600020548152602001600e6000611a068560086120b990919063ffffffff16565b6001600160a01b0316815260208082019290925260409081016000208151808301909252805460ff1682526001810180549293919291840191611a48906149bc565b80601f0160208091040260200160405190810160405280929190818152602001828054611a74906149bc565b8015611ac15780601f10611a9657610100808354040283529160200191611ac1565b820191906000526020600020905b815481529060010190602001808311611aa457829003601f168201915b505050919092525050508152602001600d6000611adf6008866120b9565b6001600160a01b03166001600160a01b031681526020019081526020016000208054611b0a906149bc565b80601f0160208091040260200160405190810160405280929190818152602001828054611b36906149bc565b8015611b835780601f10611b5857610100808354040283529160200191611b83565b820191906000526020600020905b815481529060010190602001808311611b6657829003601f168201915b5050505050815250828281518110611b9d57611b9d614d08565b60200260200101819052508080611bb390614d1e565b91505061198c565b50604080518082019091529081526005546001600160401b0316602082015292915050565b600e602052600090815260409020805460018201805460ff9092169291611c06906149bc565b80601f0160208091040260200160405190810160405280929190818152602001828054611c32906149bc565b8015611c7f5780601f10611c5457610100808354040283529160200191611c7f565b820191906000526020600020905b815481529060010190602001808311611c6257829003601f168201915b5050505050905082565b611c916122e8565b611c996120cc565b611ca1612281565b336000908152600b602052604081205490819003611cd257604051632ec5b44960e01b815260040160405180910390fd5b336000908152600b6020526040812081905560048054839290611cf6908490614d37565b90915550611d079050600833612341565b50600260058054600160401b900460ff1690811115611d2857611d28614073565b03611d6b577f00000000000000000000000000000000000000000000000000000000000000006004541015611d6b576005805460ff60401b1916600360401b1790555b6040516345f5448560e01b8152600481018290527f00000000000000000000000000000000000000000000000000000000000000006001600160a01b0316906345f5448590602401600060405180830381600087803b158015611dcd57600080fd5b505af1158015611de1573d6000803e3d6000fd5b50611df29250339150839050612161565b506108ca6001600055565b611e056120cc565b611e156040820160208301614056565b611e1e81612356565b600260058054600160401b900460ff1690811115611e3e57611e3e614073565b14611e5c5760405163c18316bf60e01b815260040160405180910390fd5b611e676008336122be565b611e8457604051632ec5b44960e01b815260040160405180910390fd5b7f0000000000000000000000000000000000000000000000000000000000000000611eaf8380614d4a565b611eb890614ee6565b6040516390ba52cf60e01b815273__$a0fe38a9a81205afccc10810b09a4d3f45$__916390ba52cf91611eee91906004016149f6565b602060405180830381865af4158015611f0b573d6000803e3d6000fd5b505050506040513d601f19601f82011682018060405250810190611f2f91906149a3565b14611f4d576040516375ecc72d60e01b815260040160405180910390fd5b73__$33b79814e84bf6cf5e47244090b19ce5f8$__6389841475611f746060850185614ef2565b6040518363ffffffff1660e01b8152600401611f9192919061510b565b602060405180830381865af4158015611fae573d6000803e3d6000fd5b505050506040513d601f19601f82011682018060405250810190611fd29190614a17565b611fef57604051630bd9169f60e01b815260040160405180910390fd5b6000600a816120046040860160208701614056565b6001600160401b03166001600160401b0316815260200190815260200160002090506000612059828533600b6000336001600160a01b03166001600160a01b0316815260200190815260200160002054612413565b9050801561206f5761206a82612bd3565b610bc5565b60008061207a613508565b9150915080156120a7576001600160401b0382166000908152600a602052604090206120a581612bd3565b505b505050505050565b6000610a1d825490565b60006120c5838361352c565b9392505050565b604051630972932760e21b815273__$e800e3908cdbb6b1b5bd452383a17b18f7$__906325ca4c9c90612103903390600401614147565b602060405180830381865af4158015612120573d6000803e3d6000fd5b505050506040513d601f19601f820116820180604052508101906121449190614a17565b6108ca5760405163b7150de560e01b815260040160405180910390fd5b804710156121b65760405162461bcd60e51b815260206004820152601d60248201527f416464726573733a20696e73756666696369656e742062616c616e636500000060448201526064015b60405180910390fd5b6000826001600160a01b03168260405160006040518083038185875af1925050503d8060008114612203576040519150601f19603f3d011682016040523d82523d6000602084013e612208565b606091505b505090508061227c5760405162461bcd60e51b815260206004820152603a60248201527f416464726573733a20756e61626c6520746f2073656e642076616c75652c20726044820152791958da5c1a595b9d081b585e481a185d99481c995d995c9d195960321b60648201526084016121ad565b505050565b6005808054600160401b900460ff16908111156122a0576122a0614073565b036108ca5760405163248c8efb60e11b815260040160405180910390fd5b60006120c5836001600160a01b038416613556565b60006120c5836001600160a01b03841661356e565b60026000540361233a5760405162461bcd60e51b815260206004820152601f60248201527f5265656e7472616e637947756172643a207265656e7472616e742063616c6c0060448201526064016121ad565b6002600055565b60006120c5836001600160a01b0384166135b8565b6001546001600160401b039081169082161161238557604051631f30cc6360e21b815260040160405180910390fd5b6001546001600160401b03600160401b90910481169082161115610af5576001547f0000000000000000000000000000000000000000000000000000000000000000906123e290600160401b90046001600160401b031683615250565b6123ec9190615270565b6001600160401b031615610af55760405163b4f68f9760e01b815260040160405180910390fd5b60008061241f8561565b565b6040516339aa47fb60e01b815273__$1cd67d4dc9e627f0bec7928aa480e7d951$__916339aa47fb916124559190600401614907565b602060405180830381865af4158015612472573d6000803e3d6000fd5b505050506040513d601f19601f8201168201806040525081019061249691906149a3565b90506124b7868286866124af60408b0160208c01614056565b6004546136ab565b600082815260058801602090815260409182902082516101208101845281546001600160401b031660e082019081526001830180548651818702810187019097528087529698509195929486949193869361010087019390919083018282801561254a57602002820191906000526020600020905b81546001600160a01b0316815260019091019060200180831161252c575b50505050508152505081526020016002820160009054906101000a90046001600160401b03166001600160401b03166001600160401b031681526020016003820154815260200160048201805480602002602001604051908101604052809291908181526020016000905b828210156129545760008481526020908190206040805161018081018252600c860290920180546001600160401b031661014084019081526001820180548451818802810188018652818152959693958795860194879486946101008901948794869486936101608d0193909183018282801561265b57602002820191906000526020600020905b81546001600160a01b0316815260019091019060200180831161263d575b5050509190925250505081526040805180820190915260028301805460ff16825260038401805460209485019484019190612695906149bc565b80601f01602080910402602001604051908101604052809291908181526020018280546126c1906149bc565b801561270e5780601f106126e35761010080835404028352916020019161270e565b820191906000526020600020905b8154815290600101906020018083116126f157829003601f168201915b505050919092525050509052508152604080516080810182526004840180546001600160401b031682840190815260058601805485516020828102820181019097528181529686019694959394869486936060870193909183018282801561279f57602002820191906000526020600020905b81546001600160a01b03168152600190910190602001808311612781575b5050509190925250505081526040805180820190915260028301805460ff168252600384018054602094850194840191906127d9906149bc565b80601f0160208091040260200160405190810160405280929190818152602001828054612805906149bc565b80156128525780601f1061282757610100808354040283529160200191612852565b820191906000526020600020905b81548152906001019060200180831161283557829003601f168201915b5050509190925250505090525081526008820154602082015260098201546001600160401b0381166040830152600160401b900460e01b6001600160e01b0319166060820152600a820180546080909201916128ad906149bc565b80601f01602080910402602001604051908101604052809291908181526020018280546128d9906149bc565b80156129265780601f106128fb57610100808354040283529160200191612926565b820191906000526020600020905b81548152906001019060200180831161290957829003601f168201915b505050919092525050508152600b919091015460ff16151560209182015290825260019290920191016125b5565b50505050815260200160058201805480602002602001604051908101604052809291908181526020016000905b82821015612a8b576000848152602090819020604080516080810182526003860290920180546001600160401b031683830190815260018201805484518188028101880190955280855294959294869492938693606087019390929091830182828015612a1757602002820191906000526020600020905b81546001600160a01b031681526001909101906020018083116129f9575b505050505081525050815260200160028201805480602002602001604051908101604052809291908181526020018280548015612a7357602002820191906000526020600020905b815481526020019060010190808311612a5f575b50505050508152505081526020019060010190612981565b50505050815260200160068201548152602001600782018054612aad906149bc565b80601f0160208091040260200160405190810160405280929190818152602001828054612ad9906149bc565b8015612b265780601f10612afb57610100808354040283529160200191612b26565b820191906000526020600020905b815481529060010190602001808311612b0957829003601f168201915b5050509190925250506040516322ea8d8960e11b815273__$1cd67d4dc9e627f0bec7928aa480e7d951$__926345d51b129250612b6591600401614907565b602060405180830381865af4158015612b82573d6000803e3d6000fd5b505050506040513d601f19601f82011682018060405250810190612ba69190614a17565b15612bca57600081815260058701602052604090208590612bc78282615f2b565b50505b50949350505050565b600281015460009081526005820160205260409020600680820154905414612ccb57604051635a27a53960e11b81526004810183905273__$e0f829f5071d7e628aa77eca0c12e35bc2$__9063b44f4a729060240160006040518083038186803b158015612c4057600080fd5b505af4158015612c54573d6000803e3d6000fd5b505050506002818101546040516394ecccfd60e01b815273__$b7b8687e33476c74e3b4e0a64c4768a343$__926394ecccfd92612c9f926001600160401b0390911690600401616033565b60006040518083038186803b158015612cb757600080fd5b505af41580156120a7573d6000803e3d6000fd5b6002810154612ce2906001600160401b03166138f5565b60028101546001600160401b039081166000908152600760205260409020825481546001600160401b03191692169190911781556001808301805484939284928492612d319284019190613c02565b50505060028281015490820180546001600160401b0319166001600160401b039092169190911790556003808301549082015560048083018054612d789284019190613c52565b5060058281018054612d8d9284019190613e13565b506006820154816006015560078201816007019081612dac919061604a565b5050604080516101208101825283546001600160401b031660e0820190815260018501805484516020828102820181019096528181529395508694869486936101008701939192909190830182828015612e2f57602002820191906000526020600020905b81546001600160a01b03168152600190910190602001808311612e11575b50505050508152505081526020016002820160009054906101000a90046001600160401b03166001600160401b03166001600160401b031681526020016003820154815260200160048201805480602002602001604051908101604052809291908181526020016000905b828210156132395760008481526020908190206040805161018081018252600c860290920180546001600160401b031661014084019081526001820180548451818802810188018652818152959693958795860194879486946101008901948794869486936101608d01939091830182828015612f4057602002820191906000526020600020905b81546001600160a01b03168152600190910190602001808311612f22575b5050509190925250505081526040805180820190915260028301805460ff16825260038401805460209485019484019190612f7a906149bc565b80601f0160208091040260200160405190810160405280929190818152602001828054612fa6906149bc565b8015612ff35780601f10612fc857610100808354040283529160200191612ff3565b820191906000526020600020905b815481529060010190602001808311612fd657829003601f168201915b505050919092525050509052508152604080516080810182526004840180546001600160401b031682840190815260058601805485516020828102820181019097528181529686019694959394869486936060870193909183018282801561308457602002820191906000526020600020905b81546001600160a01b03168152600190910190602001808311613066575b5050509190925250505081526040805180820190915260028301805460ff168252600384018054602094850194840191906130be906149bc565b80601f01602080910402602001604051908101604052809291908181526020018280546130ea906149bc565b80156131375780601f1061310c57610100808354040283529160200191613137565b820191906000526020600020905b81548152906001019060200180831161311a57829003601f168201915b5050509190925250505090525081526008820154602082015260098201546001600160401b0381166040830152600160401b900460e01b6001600160e01b0319166060820152600a82018054608090920191613192906149bc565b80601f01602080910402602001604051908101604052809291908181526020018280546131be906149bc565b801561320b5780601f106131e05761010080835404028352916020019161320b565b820191906000526020600020905b8154815290600101906020018083116131ee57829003601f168201915b505050919092525050508152600b919091015460ff1615156020918201529082526001929092019101612e9a565b50505050815260200160058201805480602002602001604051908101604052809291908181526020016000905b82821015613370576000848152602090819020604080516080810182526003860290920180546001600160401b0316838301908152600182018054845181880281018801909552808552949592948694929386936060870193909290918301828280156132fc57602002820191906000526020600020905b81546001600160a01b031681526001909101906020018083116132de575b50505050508152505081526020016002820180548060200260200160405190810160405280929190818152602001828054801561335857602002820191906000526020600020905b815481526020019060010190808311613344575b50505050508152505081526020019060010190613266565b50505050815260200160068201548152602001600782018054613392906149bc565b80601f01602080910402602001604051908101604052809291908181526020018280546133be906149bc565b801561340b5780601f106133e05761010080835404028352916020019161340b565b820191906000526020600020905b8154815290600101906020018083116133ee57829003601f168201915b5050509190925250506040516339aa47fb60e01b815273__$1cd67d4dc9e627f0bec7928aa480e7d951$__926339aa47fb925061344a91600401614907565b602060405180830381865af4158015613467573d6000803e3d6000fd5b505050506040513d601f19601f8201168201806040525081019061348b91906149a3565b600655604051631a9c293560e31b81526001600160a01b037f0000000000000000000000000000000000000000000000000000000000000000169063d4e149a8906134da9084906004016163d4565b600060405180830381600087803b1580156134f457600080fd5b505af11580156120a7573d6000803e3d6000fd5b600254600160401b90046001600160401b0316600061352682613a31565b90509091565b600082600001828154811061354357613543614d08565b9060005260206000200154905092915050565b60009081526001919091016020526040902054151590565b600061357a8383613556565b6135b057508154600181810184556000848152602080822090930184905584548482528286019093526040902091909155610a1d565b506000610a1d565b600081815260018301602052604081205480156136a15760006135dc600183614d37565b85549091506000906135f090600190614d37565b905081811461365557600086600001828154811061361057613610614d08565b906000526020600020015490508087600001848154811061363357613633614d08565b6000918252602080832090910192909255918252600188019052604090208390555b855486908061366657613666616464565b600190038181906000526020600020016000905590558560010160008681526020019081526020016000206000905560019350505050610a1d565b6000915050610a1d565b8554600081815260038801602090815260408083206001600160a01b038916845290915281205490919060ff161561370d5760405162461bcd60e51b81526020600482015260056024820152644950432d3560d81b60448201526064016121ad565b600081815260038901602090815260408083206001600160a01b038a1684529091528120805460ff1916600190811790915589018054879290613751908490614a4a565b9091555050600081815260048901602090815260408083208a845290915281208054879290613781908490614a4a565b90915550506000818152600489016020908152604080832060028c0154845290915280822054898352912054808210156137bd5760028a018990555b60006137c98b87613a86565b905060038160038111156137df576137df614073565b0361386a576137ed87613a31565b156137fb57600194506138e7565b60405163199b9ca560e01b815273__$b7b8687e33476c74e3b4e0a64c4768a343$__9063199b9ca590613835906002908b90600401616033565b60006040518083038186803b15801561384d57600080fd5b505af4158015613861573d6000803e3d6000fd5b505050506138e7565b600281600381111561387e5761387e614073565b036138e757604051635a27a53960e11b8152600481018c905273__$e0f829f5071d7e628aa77eca0c12e35bc2$__9063b44f4a729060240160006040518083038186803b1580156138ce57600080fd5b505af41580156138e2573d6000803e3d6000fd5b505050505b505050509695505050505050565b6138fe81613a31565b6139055750565b604051634953836d60e11b815273__$b7b8687e33476c74e3b4e0a64c4768a343$__906392a706da9061393f906002908590600401616033565b602060405180830381865af415801561395c573d6000803e3d6000fd5b505050506040513d601f19601f820116820180604052508101906139809190614a17565b156139a4576002546001600160401b03828116600160401b90920416146139a45750565b6040516394ecccfd60e01b815273__$b7b8687e33476c74e3b4e0a64c4768a343$__906394ecccfd906139de906002908590600401616033565b60006040518083038186803b1580156139f657600080fd5b505af4158015613a0a573d6000803e3d6000fd5b5050600180546001600160401b0319166001600160401b0394909416939093179092555050565b600154600090613a6b907f0000000000000000000000000000000000000000000000000000000000000000906001600160401b031661647a565b6001600160401b0316826001600160401b0316149050919050565b6000806064613ab860ff7f00000000000000000000000000000000000000000000000000000000000000001685615763565b613ac29190614cf4565b604051637d2ef4e560e11b81526004810186905290915060009073__$e0f829f5071d7e628aa77eca0c12e35bc2$__9063fa5de9ca90602401602060405180830381865af4158015613b18573d6000803e3d6000fd5b505050506040513d601f19601f82011682018060405250810190613b3c91906149a3565b905081856001015411613b5457600092505050610a1d565b81811115613b6757600392505050610a1d565b6001850154613b769085614d37565b613b808284614d37565b10613b9057600292505050610a1d565b506001949350505050565b6040518060e00160405280613bae613bea565b815260200160006001600160401b0316815260200160008152602001606081526020016060815260200160008019168152602001606081525090565b60408051808201909152600081526060602082015290565b828054828255906000526020600020908101928215613c425760005260206000209182015b82811115613c42578254825591600101919060010190613c27565b50613c4e929150613eb3565b5090565b82805482825590600052602060002090600c028101928215613e0757600052602060002091600c0282015b82811115613e0757825482546001600160401b0319166001600160401b039091161782556001808401805485928592849284928492849284928492613cc59291840191613c02565b50505060028281018054918301805460ff191660ff90931692909217825590600380840190613cf69086018261604a565b505050506004838101805491840180546001600160401b0319166001600160401b039093169290921782556005808601805492945084928492613d3c9290880191613c02565b50505060028281018054918301805460ff191660ff90931692909217825590600380840190613d6d9086018261604a565b5050505060088381015490830155506009808301805491830180546001600160401b031981166001600160401b039094169384178255915463ffffffff600160401b9182900416026001600160601b0319909216909217179055600a80820190613dd99084018261604a565b505050600b918201549101805460ff191660ff9092161515919091179055600c928301929190910190613c7d565b50613c4e929150613ec8565b828054828255906000526020600020906003028101928215613ea75760005260206000209160030282015b82811115613ea757825482546001600160401b0319166001600160401b03909116178255600180840180548592859284928492613e7e9290840191613c02565b50505060028281018054613e959284019190613c02565b50505091600301919060030190613e3e565b50613c4e929150613f98565b5b80821115613c4e5760008155600101613eb4565b80821115613c4e5780546001600160401b03191681556000818181818181613ef36001830182613fd9565b505060028201805460ff191681556000613f106003850182613ff7565b505050506004820180546001600160401b031916815560008181613f376005870182613fd9565b505060028201805460ff191681556000613f546003850182613ff7565b50506000600885018190556009850180546001600160601b0319169055613f819250600a85019150613ff7565b505050600b8101805460ff19169055600c01613ec8565b80821115613c4e5780546001600160401b031916815560008181613fbf6001830182613fd9565b50613fd09050600283016000613fd9565b50600301613f98565b5080546000825590600052602060002090810190610af59190613eb3565b508054614003906149bc565b6000825580601f10614013575050565b601f016020900490600052602060002090810190610af59190613eb3565b6001600160401b0381168114610af557600080fd5b803561405181614031565b919050565b60006020828403121561406857600080fd5b81356120c581614031565b634e487b7160e01b600052602160045260246000fd5b602081016006831061409d5761409d614073565b91905290565b6001600160a01b0381168114610af557600080fd5b6000602082840312156140ca57600080fd5b81356120c5816140a3565b6000815180845260005b818110156140fb576020818501810151868301820152016140df565b506000602082860101526020601f19601f83011685010191505092915050565b6020815260006120c560208301846140d5565b60006020828403121561414057600080fd5b5035919050565b6001600160a01b0391909116815260200190565b6000806040838503121561416e57600080fd5b823561417981614031565b91506020830135614189816140a3565b809150509250929050565b600081518084526020808501945080840160005b838110156141cd5781516001600160a01b0316875295820195908201906001016141a8565b509495945050505050565b60018060401b03815116825260006020820151604060208501526141ff6040850182614194565b949350505050565b60ff815116825260006020820151604060208501526141ff60408501826140d5565b600081516040845261423e60408501826141d8565b9050602083015184820360208601526142578282614207565b95945050505050565b600082825180855260208086019550808260051b84010181860160005b8481101561434a57601f19868403018952815160408151818652805160c080848901526142ae610100890183614229565b915088830151603f196060818b860301818c01526142cc8584614229565b9686015160808c810191909152908601516001600160401b031660a0808d0191909152908601516001600160e01b031916938b01939093529184015189860390920160e08a01525092905061432181846140d5565b93880151801515888a0152939250614337915050565b998501999350509083019060010161427d565b5090979650505050505050565b600081518084526020808501808196508360051b810191508286016000805b868110156143e9578385038a52825160408151818852614398828901826141d8565b92890151888403898b01528051808552908a01938693508a0191505b808310156143d457835182529289019260019290920191908901906143b4565b509b88019b9650505091850191600101614376565b509298975050505050505050565b8215158152604060208201526000825160e0604084015261441c6101208401826141d8565b905060018060401b036020850151166060840152604084015160808401526060840151603f19808584030160a08601526144568383614260565b925060808601519150808584030160c08601526144738383614357565b925060a086015160e086015260c0860151915080858403016101008601525061449c82826140d5565b9695505050505050565b6000806000604084860312156144bb57600080fd5b83356001600160401b03808211156144d257600080fd5b818601915086601f8301126144e657600080fd5b8135818111156144f557600080fd5b87602082850101111561450757600080fd5b60209283019550935090850135908082111561452257600080fd5b5084016040818703121561453557600080fd5b809150509250925092565b6020815260006120c560208301846141d8565b602081016001831061409d5761409d614073565b60a08152600061457a60a08301886141d8565b6001600160401b0387166020840152604083018690526060830185905282810360808401526145a981856140d5565b98975050505050505050565b6020815260006120c56020830184614194565b600060208083526060808401855160408085880152828251808552608094508489019150848160051b8a0101878501945060005b82811015614666578a8203607f19018452855180516001600160a01b03168352898101518a8401528581015186840189905261463a89850182614207565b918a0151848303858c015291905061465281836140d5565b978b0197958b0195935050506001016145fc565b50968a01516001600160401b038116848b0152969a9950505050505050505050565b60ff831681526040602082015260006141ff60408301846140d5565b6000602082840312156146b657600080fd5b81356001600160401b038111156146cc57600080fd5b820160e081850312156120c557600080fd5b80516001600160401b03168252602080820151604082850181905281519085018190526000929182019190839060608701905b8083101561473a5784516001600160a01b03168252938301936001929092019190830190614711565b509695505050505050565b600081516040845261475a60408501826146de565b90506020830151848203602086015260ff8151168252602081015190506040602083015261425760408301826140d5565b600082825180855260208086019550808260051b84010181860160005b8481101561434a57601f19868403018952815160408151818652805160c080848901526147d9610100890183614745565b915088830151603f196060818b860301818c01526147f78584614745565b9686015160808c810191909152908601516001600160401b031660a0808d0191909152908601516001600160e01b031916938b01939093529184015189860390920160e08a01525092905061484c81846140d5565b93880151801515888a0152939250614862915050565b99850199935050908301906001016147a8565b600081518084526020808501808196508360051b810191508286016000805b868110156143e9578385038a528251604081518188526148b6828901826146de565b92890151888403898b01528051808552908a01938693508a0191505b808310156148f257835182529289019260019290920191908901906148d2565b509b88019b9650505091850191600101614894565b602081526000825160e060208401526149246101008401826146de565b905060018060401b036020850151166040840152604084015160608401526060840151601f198085840301608086015261495e838361478b565b925060808601519150808584030160a086015261497b8383614875565b925060a086015160c086015260c08601519150808584030160e08601525061425782826140d5565b6000602082840312156149b557600080fd5b5051919050565b600181811c908216806149d057607f821691505b6020821081036149f057634e487b7160e01b600052602260045260246000fd5b50919050565b6020815260006120c560208301846146de565b8015158114610af557600080fd5b600060208284031215614a2957600080fd5b81516120c581614a09565b634e487b7160e01b600052601160045260246000fd5b80820180821115610a1d57610a1d614a34565b634e487b7160e01b600052604160045260246000fd5b60009081526020902090565b5b81811015614a945760008155600101614a80565b5050565b601f82111561227c57806000526020600020601f840160051c81016020851015614abf5750805b6115a9601f850160051c830182614a7f565b600019600383901b1c191660019190911b1790565b6001600160401b03831115614afd57614afd614a5d565b614b1183614b0b83546149bc565b83614a98565b6000601f841160018114614b3f5760008515614b2d5750838201355b614b378682614ad1565b8455506115a9565b601f198516614b4d84614a73565b835b82811015614b6f5786850135825560209485019460019092019101614b4f565b5086821015614b8c5760001960f88860031b161c19848701351681555b505060018560011b0183555050505050565b60ff81168114610af557600080fd5b6000808335601e19843603018112614bc457600080fd5b8301803591506001600160401b03821115614bde57600080fd5b602001915036819003821315614bf357600080fd5b9250929050565b8135614c0581614b9e565b60ff811660ff198354161782555060018082016020614c2681860186614bad565b6001600160401b03811115614c3d57614c3d614a5d565b614c5181614c4b86546149bc565b86614a98565b6000601f821160018114614c7f5760008315614c6d5750838201355b614c778482614ad1565b875550614cd3565b601f198316614c8d87614a73565b835b82811015614cac5786850135825593870193908901908701614c8f565b5084821015614cc95760001960f88660031b161c19848701351681555b50508683881b0186555b505050505050505050565b634e487b7160e01b600052601260045260246000fd5b600082614d0357614d03614cde565b500490565b634e487b7160e01b600052603260045260246000fd5b600060018201614d3057614d30614a34565b5060010190565b81810381811115610a1d57610a1d614a34565b60008235603e19833603018112614d6057600080fd5b9190910192915050565b604080519081016001600160401b0381118282101715614d8c57614d8c614a5d565b60405290565b60405160c081016001600160401b0381118282101715614d8c57614d8c614a5d565b60405160e081016001600160401b0381118282101715614d8c57614d8c614a5d565b604051601f8201601f191681016001600160401b0381118282101715614dfe57614dfe614a5d565b604052919050565b60006001600160401b03821115614e1f57614e1f614a5d565b5060051b60200190565b600060408284031215614e3b57600080fd5b614e43614d6a565b90508135614e5081614031565b81526020828101356001600160401b03811115614e6c57600080fd5b8301601f81018513614e7d57600080fd5b8035614e90614e8b82614e06565b614dd6565b81815260059190911b82018301908381019087831115614eaf57600080fd5b928401925b82841015614ed6578335614ec7816140a3565b82529284019290840190614eb4565b8085870152505050505092915050565b6000610a1d3683614e29565b6000808335601e19843603018112614f0957600080fd5b8301803591506001600160401b03821115614f2357600080fd5b6020019150600581901b3603821315614bf357600080fd5b60008235603e19833603018112614f5157600080fd5b90910192915050565b6000808335601e19843603018112614f7157600080fd5b83016020810192503590506001600160401b03811115614f9057600080fd5b803603821315614bf357600080fd5b81835281816020850137506000828201602090810191909152601f909101601f19169091010190565b60008135614fd581614b9e565b60ff168352614fe76020830183614f5a565b60406020860152614257604086018284614f9f565b60006150088283614f3b565b6040845260808401813561501b81614031565b6001600160401b0390811660408701526020908382013536859003601e1901811261504557600080fd5b9093018181019390358181111561505b57600080fd5b8060051b360385131561506d57600080fd5b60406060890152928390525060009160a08701905b808410156150b4578435615095816140a3565b6001600160a01b03168252938201936001939093019290820190615082565b506150c182870187614f3b565b9350868103828801526150d48185614fc8565b979650505050505050565b6001600160e01b031981168114610af557600080fd5b8035614051816150df565b803561405181614a09565b60208082528181018390526000906040808401600586901b850182018785805b8981101561524157603f19808a8603018652615147848d614f3b565b803560be1982360301811261515a578485fd5b88875281016151698180614f3b565b60c0808b8a015261517e6101008a0183614ffc565b915061518c8c840184614f3b565b6060868b850301818c01526151a18483614ffc565b9350608091508c850135828c01528085013590506151be81614031565b6001600160401b03811660a08c81019190915291850135916151df836150df565b6001600160e01b031983168c8501526151fa86820187614f5a565b96509350505050848983030160e08a0152615216828483614f9f565b9450505050615226898201615100565b1515958901959095529487019493509186019160010161512b565b50919998505050505050505050565b6001600160401b038281168282160390808211156118dd576118dd614a34565b60006001600160401b038381168061528a5761528a614cde565b92169190910692915050565b600082601f8301126152a757600080fd5b81356001600160401b038111156152c0576152c0614a5d565b6152d3601f8201601f1916602001614dd6565b8181528460208386010111156152e857600080fd5b816020850160208301376000918101602001919091529392505050565b60006040828403121561531757600080fd5b61531f614d6a565b905081356001600160401b038082111561533857600080fd5b61534485838601614e29565b8352602084013591508082111561535a57600080fd5b908301906040828603121561536e57600080fd5b615376614d6a565b823561538181614b9e565b815260208301358281111561539557600080fd5b6153a187828601615296565b60208301525080602085015250505092915050565b600082601f8301126153c757600080fd5b813560206153d7614e8b83614e06565b82815260059290921b840181019181810190868411156153f657600080fd5b8286015b8481101561473a5780356001600160401b038082111561541957600080fd5b90880190601f196040838c038201121561543257600080fd5b61543a614d6a565b878401358381111561544b57600080fd5b840160c0818e038401121561545f57600080fd5b615467614d92565b9250888101358481111561547a57600080fd5b6154888e8b83850101615305565b84525060408101358481111561549d57600080fd5b6154ab8e8b83850101615305565b8a85015250606081013560408401526154c660808201614046565b60608401526154d760a082016150f5565b608084015260c0810135848111156154ee57600080fd5b6154fc8e8b83850101615296565b60a0850152505081815261551260408501615100565b8189015286525050509183019183016153fa565b600082601f83011261553757600080fd5b81356020615547614e8b83614e06565b828152600592831b850182019282820191908785111561556657600080fd5b8387015b8581101561434a5780356001600160401b038082111561558a5760008081fd5b908901906040828c03601f19018113156155a45760008081fd5b6155ac614d6a565b88840135838111156155be5760008081fd5b6155cc8e8b83880101614e29565b82525081840135838111156155e15760008081fd5b8085019450508c603f8501126155f957600092508283fd5b88840135925061560b614e8b84614e06565b83815292861b8401820192898101908e8511156156285760008081fd5b948301945b848610156156465785358252948a0194908a019061562d565b828b015250875250505092840192840161556a565b600060e0823603121561566d57600080fd5b615675614db4565b82356001600160401b038082111561568c57600080fd5b61569836838701614e29565b83526156a660208601614046565b60208401526040850135604084015260608501359150808211156156c957600080fd5b6156d5368387016153b6565b606084015260808501359150808211156156ee57600080fd5b6156fa36838701615526565b608084015260a085013560a084015260c085013591508082111561571d57600080fd5b5061572a36828601615296565b60c08301525092915050565b60008135610a1d81614031565b80546001600160401b0319166001600160401b0392909216919091179055565b8082028115828204841417610a1d57610a1d614a34565b8054600082558015614a945781600052602060002061227c82820182614a7f565b600160401b8211156157af576157af614a5d565b80548282558083101561227c57816000526020600020610bc5828201858301614a7f565b60008155610af56001820161577a565b6157ed81546149bc565b8015614a9457601f81116001811461580757505060009055565b826000526020600020615825601f840160051c820160018301614a7f565b60008085559055505050565b600081556158416001820161577a565b60006002820155610af5600382016157e3565b61585e8283614d4a565b803561586981614031565b6158738184615743565b506001808301602061588781850185614ef2565b94506001600160401b03808611156158a1576158a1614a5d565b6158ab868561579b565b600093845282842093805b878110156158d85783356158c9816140a3565b868201559284019286016158b6565b506002880196506158eb848a018a614d4a565b9450843592506158fa83614b9e565b865460ff191660ff841617909655600387019561591985850186614bad565b955092508185111561592d5761592d614a5d565b6159418561593b89546149bc565b89614a98565b809150601f85116001811461596f5781861561595d5750838301355b6159678782614ad1565b8955506115a3565b601f19861661597d89614a73565b835b8281101561599c578686013582559487019490890190870161597f565b50878210156159b95760001960f88960031b161c19858701351681555b505050505091831b90920190925550505050565b60008135610a1d816150df565b60008135610a1d81614a09565b813560be198336030181126159fb57600080fd5b8201615a078180614d4a565b615a118182614d4a565b8035615a1c81614031565b615a268186615743565b5060018085016020615a3a81850185614ef2565b94506001600160401b0380861115615a5457615a54614a5d565b615a5e868561579b565b600093845282842093805b87811015615a8b578335615a7c816140a3565b86820155928401928601615a69565b5060028a019650615a9e84890189614d4a565b975087359450615aad85614b9e565b865460ff191660ff8616179096556003890195615acc88850189614bad565b9850945081881115615ae057615ae0614a5d565b615aee8861593b89546149bc565b809250601f881160018114615b1e578192508815615b0d578386013592505b615b178984614ad1565b8855615b73565b601f1989169250615b2e88614a73565b825b84811015615b4d5787860135825594860194908801908601615b30565b5089841015615b6a5760001960f88b60031b161c19858801351681555b508689881b0188555b50505050615b8f615b8682880188614d4a565b60048901615854565b60408601356008880155600987019450615bb4615bae60608801615736565b86615743565b615be7615bc3608088016159cd565b86805463ffffffff60401b191660a09290921c63ffffffff60401b16919091179055565b615bf460a0870187614bad565b96509450615c068686600a8a01614ae6565b615c2d615c14828a016159da565b600b890160ff1981541660ff8315151681178255505050565b5050505050505050565b600160401b831115615c4b57615c4b614a5d565b805483825580841015615cdf57600c8181028181048314615c6e57615c6e614a34565b8582028281048714615c8257615c82614a34565b6000858152602081209283019291909101905b82821015615cda57615ca682615831565b615cb260048301615831565b806008830155806009830155615cca600a83016157e3565b80600b8301558382019150615c95565b505050505b5081615cea82614a73565b60005b858110156120a757615d08615d028487614d4a565b836159e7565b60209290920191600c9190910190600101615ced565b80546000808355811561227c57828152602081208281015b808210156115a957828255600182019150615d36565b600160401b821115615d6057615d60614a5d565b80548282558083101561227c576000828152602081208481019083015b808210156120a757828255600182019150615d7d565b615d9d8283614d4a565b8035615da881614031565b615db28184615743565b5060018083016020615dc681850185614ef2565b94506001600160401b0380861115615de057615de0614a5d565b615dea868561579b565b600093845282842093805b87811015615e17578335615e08816140a3565b86820155928401928601615df5565b50600288019650615e2a848a018a614ef2565b9550925081851115615e3e57615e3e614a5d565b615e488588615d4c565b95865250818520945b83811015615c2d57813586820155908201908401615e51565b600160401b831115615e7e57615e7e614a5d565b805483825580841015615eec5760038181028181048314615ea157615ea1614a34565b8582028281048714615eb557615eb5614a34565b60008581526020902091820191015b81811015615ee857615ed5816157d3565b615ee160028201615d1e565b8201615ec4565b5050505b5081615ef782614a73565b60005b858110156120a757615f15615f0f8487614d4a565b83615d93565b6020929092019160039190910190600101615efa565b615f358283614d4a565b8035615f4081614031565b615f4a8184615743565b5060018083016020615f5e81850185614ef2565b94506001600160401b03851115615f7757615f77614a5d565b615f81858461579b565b6000928352818320925b85811015615fad578135615f9e816140a3565b84820155908201908401615f8b565b5050615fc6615fbd828801615736565b60028701615743565b5050505060408201356003820155615fe16060830183614ef2565b615fef818360048601615c37565b5050615ffe6080830183614ef2565b61600c818360058601615e6a565b505060a0820135600682015561602560c0830183614bad565b610bc5818360078601614ae6565b9182526001600160401b0316602082015260400190565b818103616055575050565b61605f82546149bc565b6001600160401b0381111561607657616076614a5d565b61608a8161608484546149bc565b84614a98565b6000601f8211600181146160b857600083156160a65750848201545b6160b08482614ad1565b8555506115a9565b601f1983166160c686614a73565b6160cf86614a73565b845b838110156160f157828601548255600195860195909101906020016160d1565b508583101561610f5781850154600019600388901b60f8161c191681555b5050505050600190811b01905550565b80546001600160401b031682526040602080840182905260018381018054938601849052600090815282812090939092849160608801905b8084101561617d5785546001600160a01b03168252948401949284019290820190616157565b50979650505050505050565b60008154616196816149bc565b8085526020600183811680156161b357600181146161cd576161fb565b60ff1985168884015283151560051b8801830195506161fb565b866000528260002060005b858110156161f35781548a82018601529083019084016161d8565b890184019650505b505050505092915050565b604082526000616219604084018361611f565b838103602085015260ff6002840154168152604060208201526141ff6040820160038501616189565b600081548084526020808501808196508360051b81019150856000528260002060005b85811015616320578284038952604080855260c0808287015261628c610100870185616206565b9150603f19808784030160608801526162a88360048701616206565b6008860154608089015260098601546001600160401b03811660a0808b01919091521b6001600160e01b031916928801929092528682030160e087015290506162f481600a8501616189565b9050616304600b84015460ff1690565b15159486019490945297840197600c9190910190600101616265565b5091979650505050505050565b600082825480855260208086019550808260051b8401016000868152828120815b858110156163c657868403601f19018a5260408085526163708186018461611f565b85810387870152600284018054808352908652878620925085918801905b808310156163ae578354825260019384019392909201919088019061638e565b509b87019b955050506003919091019060010161634e565b509198975050505050505050565b6020815260e0602082015260006163ef61010083018461611f565b60028401546001600160401b0316604084015260038401546060840152828103601f1990810160808501526164278260048701616242565b9150808483030160a0850152616440826005870161632d565b9150600685015460c0850152808483030160e0850152506141ff8160078601616189565b634e487b7160e01b600052603160045260246000fd5b6001600160401b038181168382160190808211156118dd576118dd614a3456fea26469706673582212209f64b0738591e08bf97ec58df60287dcab2748c85005dd1c203c8ace0d1c870764736f6c63430008130033",
    "linkReferences": {
      "src/lib/AccountHelper.sol": {
        "AccountHelper": [
          {
            "start": 11237,
            "length": 20
          }
        ]
      },
      "src/lib/CheckpointHelper.sol": {
        "CheckpointHelper": [
          {
            "start": 5132,
            "length": 20
          },
          {
            "start": 12088,
            "length": 20
          },
          {
            "start": 13896,
            "length": 20
          },
          {
            "start": 16173,
            "length": 20
          }
        ]
      },
      "src/lib/CrossMsgHelper.sol": {
        "CrossMsgHelper": [
          {
            "start": 10841,
            "length": 20
          }
        ]
      },
      "src/lib/EpochVoteSubmissionHelper.sol": {
        "EpochVoteSubmissionHelper": [
          {
            "start": 14101,
            "length": 20
          },
          {
            "start": 17315,
            "length": 20
          },
          {
            "start": 17896,
            "length": 20
          }
        ]
      },
      "src/lib/ExecutableQueueHelper.sol": {
        "ExecutableQueueHelper": [
          {
            "start": 14199,
            "length": 20
          },
          {
            "start": 17172,
            "length": 20
          },
          {
            "start": 17438,
            "length": 20
          },
          {
            "start": 17597,
            "length": 20
          }
        ]
      },
      "src/lib/SubnetIDHelper.sol": {
        "SubnetIDHelper": [
          {
            "start": 652,
            "length": 20
          },
          {
            "start": 782,
            "length": 20
          },
          {
            "start": 7528,
            "length": 20
          },
          {
            "start": 10705,
            "length": 20
          }
        ]
      }
    }
  },
  "methodIdentifiers": {
    "MIN_CHECKPOINT_PERIOD()": "a1ada303",
    "MIN_COLLATERAL_AMOUNT()": "91be4d41",
    "accumulatedRewards(address)": "73f273fc",
    "bottomUpCheckPeriod()": "06c46853",
    "bottomUpCheckpointAtEpoch(uint64)": "6cb2ecee",
    "bottomUpCheckpointHashAtEpoch(uint64)": "133f74ea",
    "committedCheckpoints(uint64)": "98903748",
    "configurationNumber()": "04fda3d4",
    "consensus()": "8ef3f761",
    "currentSubnetHash()": "c18f64aa",
    "executableQueue()": "10d500e1",
    "genesis()": "a7f0b3de",
    "getGenesisEpoch()": "51392fc0",
    "getParent()": "80f76021",
    "getValidatorSet()": "cf331250",
    "getValidators()": "b7ab4db5",
    "hasValidatorVotedForSubmission(uint64,address)": "66d7bbbc",
    "ipcGatewayAddr()": "cfca2824",
    "join(string,(uint8,bytes))": "6cf6970a",
    "kill()": "41c0e1b5",
    "lastVotingExecutedEpoch()": "ad81e244",
    "leave()": "d66d9e19",
    "majorityPercentage()": "599c7bd1",
    "minActivationCollateral()": "9e33bd02",
    "minValidators()": "c5ab2241",
    "name()": "06fdde03",
    "prevExecutedCheckpointHash()": "5f832dbf",
    "reward(uint256)": "a9fb763c",
    "stake(address)": "26476204",
    "status()": "200d2ed2",
    "submissionPeriod()": "185fde7e",
    "submitCheckpoint(((uint64,address[]),uint64,uint256,((((uint64,address[]),(uint8,bytes)),((uint64,address[]),(uint8,bytes)),uint256,uint64,bytes4,bytes),bool)[],((uint64,address[]),bytes32[])[],bytes32,bytes))": "f6fd8381",
    "topDownCheckPeriod()": "7d9740f4",
    "totalStake()": "8b0e9f3f",
    "validatorAt(uint256)": "32e0aa1f",
    "validatorCount()": "0f43a677",
    "validatorNetAddresses(address)": "23a35705",
    "validatorWorkerAddresses(address)": "d4e25bab",
    "withdraw()": "3ccfd60b"
  },
  "id": 26
}