{
  "abi": [
    {
      "inputs": [
        {
          "internalType": "address",
          "name": "account",
          "type": "address"
        }
      ],
      "name": "AddressInsufficientBalance",
      "type": "error"
    },
    {
      "inputs": [],
      "name": "CollateralIsZero",
      "type": "error"
    },
    {
      "inputs": [],
      "name": "EpochAlreadyExecuted",
      "type": "error"
    },
    {
      "inputs": [],
      "name": "EpochNotVotable",
      "type": "error"
    },
    {
      "inputs": [],
      "name": "FailedInnerCall",
      "type": "error"
    },
    {
      "inputs": [],
      "name": "MessagesNotSorted",
      "type": "error"
    },
    {
      "inputs": [],
      "name": "NoRewardToWithdraw",
      "type": "error"
    },
    {
      "inputs": [],
      "name": "NoValidatorsInSubnet",
      "type": "error"
    },
    {
      "inputs": [],
      "name": "NotAccount",
      "type": "error"
    },
    {
      "inputs": [],
      "name": "NotAllValidatorsHaveLeft",
      "type": "error"
    },
    {
      "inputs": [],
      "name": "NotEnoughBalanceForRewards",
      "type": "error"
    },
    {
      "inputs": [],
      "name": "NotGateway",
      "type": "error"
    },
    {
      "inputs": [],
      "name": "NotValidator",
      "type": "error"
    },
    {
      "inputs": [],
      "name": "ReentrancyError",
      "type": "error"
    },
    {
      "inputs": [],
      "name": "SubnetAlreadyKilled",
      "type": "error"
    },
    {
      "inputs": [],
      "name": "SubnetNotActive",
      "type": "error"
    },
    {
      "inputs": [],
      "name": "ValidatorAlreadyVoted",
      "type": "error"
    },
    {
      "inputs": [],
      "name": "WrongCheckpointSource",
      "type": "error"
    },
    {
      "inputs": [
        {
          "internalType": "uint64",
          "name": "epoch",
          "type": "uint64"
        }
      ],
      "name": "bottomUpCheckpointAtEpoch",
      "outputs": [
        {
          "internalType": "bool",
          "name": "exists",
          "type": "bool"
        },
        {
          "components": [
            {
              "components": [
                {
                  "internalType": "uint64",
                  "name": "root",
                  "type": "uint64"
                },
                {
                  "internalType": "address[]",
                  "name": "route",
                  "type": "address[]"
                }
              ],
              "internalType": "struct SubnetID",
              "name": "source",
              "type": "tuple"
            },
            {
              "internalType": "uint64",
              "name": "epoch",
              "type": "uint64"
            },
            {
              "internalType": "uint256",
              "name": "fee",
              "type": "uint256"
            },
            {
              "components": [
                {
                  "components": [
                    {
                      "components": [
                        {
                          "components": [
                            {
                              "internalType": "uint64",
                              "name": "root",
                              "type": "uint64"
                            },
                            {
                              "internalType": "address[]",
                              "name": "route",
                              "type": "address[]"
                            }
                          ],
                          "internalType": "struct SubnetID",
                          "name": "subnetId",
                          "type": "tuple"
                        },
                        {
                          "components": [
                            {
                              "internalType": "uint8",
                              "name": "addrType",
                              "type": "uint8"
                            },
                            {
                              "internalType": "bytes",
                              "name": "payload",
                              "type": "bytes"
                            }
                          ],
                          "internalType": "struct FvmAddress",
                          "name": "rawAddress",
                          "type": "tuple"
                        }
                      ],
                      "internalType": "struct IPCAddress",
                      "name": "from",
                      "type": "tuple"
                    },
                    {
                      "components": [
                        {
                          "components": [
                            {
                              "internalType": "uint64",
                              "name": "root",
                              "type": "uint64"
                            },
                            {
                              "internalType": "address[]",
                              "name": "route",
                              "type": "address[]"
                            }
                          ],
                          "internalType": "struct SubnetID",
                          "name": "subnetId",
                          "type": "tuple"
                        },
                        {
                          "components": [
                            {
                              "internalType": "uint8",
                              "name": "addrType",
                              "type": "uint8"
                            },
                            {
                              "internalType": "bytes",
                              "name": "payload",
                              "type": "bytes"
                            }
                          ],
                          "internalType": "struct FvmAddress",
                          "name": "rawAddress",
                          "type": "tuple"
                        }
                      ],
                      "internalType": "struct IPCAddress",
                      "name": "to",
                      "type": "tuple"
                    },
                    {
                      "internalType": "uint256",
                      "name": "value",
                      "type": "uint256"
                    },
                    {
                      "internalType": "uint64",
                      "name": "nonce",
                      "type": "uint64"
                    },
                    {
                      "internalType": "bytes4",
                      "name": "method",
                      "type": "bytes4"
                    },
                    {
                      "internalType": "bytes",
                      "name": "params",
                      "type": "bytes"
                    }
                  ],
                  "internalType": "struct StorableMsg",
                  "name": "message",
                  "type": "tuple"
                },
                {
                  "internalType": "bool",
                  "name": "wrapped",
                  "type": "bool"
                }
              ],
              "internalType": "struct CrossMsg[]",
              "name": "crossMsgs",
              "type": "tuple[]"
            },
            {
              "components": [
                {
                  "components": [
                    {
                      "internalType": "uint64",
                      "name": "root",
                      "type": "uint64"
                    },
                    {
                      "internalType": "address[]",
                      "name": "route",
                      "type": "address[]"
                    }
                  ],
                  "internalType": "struct SubnetID",
                  "name": "source",
                  "type": "tuple"
                },
                {
                  "internalType": "bytes32[]",
                  "name": "checks",
                  "type": "bytes32[]"
                }
              ],
              "internalType": "struct ChildCheck[]",
              "name": "children",
              "type": "tuple[]"
            },
            {
              "internalType": "bytes32",
              "name": "prevHash",
              "type": "bytes32"
            },
            {
              "internalType": "bytes",
              "name": "proof",
              "type": "bytes"
            }
          ],
          "internalType": "struct BottomUpCheckpoint",
          "name": "checkpoint",
          "type": "tuple"
        }
      ],
      "stateMutability": "view",
      "type": "function"
    },
    {
      "inputs": [
        {
          "internalType": "uint64",
          "name": "epoch",
          "type": "uint64"
        }
      ],
      "name": "bottomUpCheckpointHashAtEpoch",
      "outputs": [
        {
          "internalType": "bool",
          "name": "",
          "type": "bool"
        },
        {
          "internalType": "bytes32",
          "name": "",
          "type": "bytes32"
        }
      ],
      "stateMutability": "view",
      "type": "function"
    },
    {
      "inputs": [
        {
          "internalType": "uint64",
          "name": "e",
          "type": "uint64"
        }
      ],
      "name": "committedCheckpoints",
      "outputs": [
        {
          "components": [
            {
              "internalType": "uint64",
              "name": "root",
              "type": "uint64"
            },
            {
              "internalType": "address[]",
              "name": "route",
              "type": "address[]"
            }
          ],
          "internalType": "struct SubnetID",
          "name": "source",
          "type": "tuple"
        },
        {
          "internalType": "uint64",
          "name": "epoch",
          "type": "uint64"
        },
        {
          "internalType": "uint256",
          "name": "fee",
          "type": "uint256"
        },
        {
          "internalType": "bytes32",
          "name": "prevHash",
          "type": "bytes32"
        },
        {
          "internalType": "bytes",
          "name": "proof",
          "type": "bytes"
        }
      ],
      "stateMutability": "view",
      "type": "function"
    },
    {
      "inputs": [
        {
          "internalType": "uint64",
          "name": "epoch",
          "type": "uint64"
        },
        {
          "internalType": "address",
          "name": "submitter",
          "type": "address"
        }
      ],
      "name": "hasValidatorVotedForSubmission",
      "outputs": [
        {
          "internalType": "bool",
          "name": "",
          "type": "bool"
        }
      ],
      "stateMutability": "view",
      "type": "function"
    },
    {
      "inputs": [
        {
          "internalType": "string",
          "name": "netAddr",
          "type": "string"
        },
        {
          "components": [
            {
              "internalType": "uint8",
              "name": "addrType",
              "type": "uint8"
            },
            {
              "internalType": "bytes",
              "name": "payload",
              "type": "bytes"
            }
          ],
          "internalType": "struct FvmAddress",
          "name": "workerAddr",
          "type": "tuple"
        }
      ],
      "name": "join",
      "outputs": [],
      "stateMutability": "payable",
      "type": "function"
    },
    {
      "inputs": [],
      "name": "kill",
      "outputs": [],
      "stateMutability": "nonpayable",
      "type": "function"
    },
    {
      "inputs": [],
      "name": "leave",
      "outputs": [],
      "stateMutability": "nonpayable",
      "type": "function"
    },
    {
      "inputs": [
        {
          "internalType": "uint256",
          "name": "amount",
          "type": "uint256"
        }
      ],
      "name": "reward",
      "outputs": [],
      "stateMutability": "nonpayable",
      "type": "function"
    },
    {
      "inputs": [
        {
          "components": [
            {
              "components": [
                {
                  "internalType": "uint64",
                  "name": "root",
                  "type": "uint64"
                },
                {
                  "internalType": "address[]",
                  "name": "route",
                  "type": "address[]"
                }
              ],
              "internalType": "struct SubnetID",
              "name": "source",
              "type": "tuple"
            },
            {
              "internalType": "uint64",
              "name": "epoch",
              "type": "uint64"
            },
            {
              "internalType": "uint256",
              "name": "fee",
              "type": "uint256"
            },
            {
              "components": [
                {
                  "components": [
                    {
                      "components": [
                        {
                          "components": [
                            {
                              "internalType": "uint64",
                              "name": "root",
                              "type": "uint64"
                            },
                            {
                              "internalType": "address[]",
                              "name": "route",
                              "type": "address[]"
                            }
                          ],
                          "internalType": "struct SubnetID",
                          "name": "subnetId",
                          "type": "tuple"
                        },
                        {
                          "components": [
                            {
                              "internalType": "uint8",
                              "name": "addrType",
                              "type": "uint8"
                            },
                            {
                              "internalType": "bytes",
                              "name": "payload",
                              "type": "bytes"
                            }
                          ],
                          "internalType": "struct FvmAddress",
                          "name": "rawAddress",
                          "type": "tuple"
                        }
                      ],
                      "internalType": "struct IPCAddress",
                      "name": "from",
                      "type": "tuple"
                    },
                    {
                      "components": [
                        {
                          "components": [
                            {
                              "internalType": "uint64",
                              "name": "root",
                              "type": "uint64"
                            },
                            {
                              "internalType": "address[]",
                              "name": "route",
                              "type": "address[]"
                            }
                          ],
                          "internalType": "struct SubnetID",
                          "name": "subnetId",
                          "type": "tuple"
                        },
                        {
                          "components": [
                            {
                              "internalType": "uint8",
                              "name": "addrType",
                              "type": "uint8"
                            },
                            {
                              "internalType": "bytes",
                              "name": "payload",
                              "type": "bytes"
                            }
                          ],
                          "internalType": "struct FvmAddress",
                          "name": "rawAddress",
                          "type": "tuple"
                        }
                      ],
                      "internalType": "struct IPCAddress",
                      "name": "to",
                      "type": "tuple"
                    },
                    {
                      "internalType": "uint256",
                      "name": "value",
                      "type": "uint256"
                    },
                    {
                      "internalType": "uint64",
                      "name": "nonce",
                      "type": "uint64"
                    },
                    {
                      "internalType": "bytes4",
                      "name": "method",
                      "type": "bytes4"
                    },
                    {
                      "internalType": "bytes",
                      "name": "params",
                      "type": "bytes"
                    }
                  ],
                  "internalType": "struct StorableMsg",
                  "name": "message",
                  "type": "tuple"
                },
                {
                  "internalType": "bool",
                  "name": "wrapped",
                  "type": "bool"
                }
              ],
              "internalType": "struct CrossMsg[]",
              "name": "crossMsgs",
              "type": "tuple[]"
            },
            {
              "components": [
                {
                  "components": [
                    {
                      "internalType": "uint64",
                      "name": "root",
                      "type": "uint64"
                    },
                    {
                      "internalType": "address[]",
                      "name": "route",
                      "type": "address[]"
                    }
                  ],
                  "internalType": "struct SubnetID",
                  "name": "source",
                  "type": "tuple"
                },
                {
                  "internalType": "bytes32[]",
                  "name": "checks",
                  "type": "bytes32[]"
                }
              ],
              "internalType": "struct ChildCheck[]",
              "name": "children",
              "type": "tuple[]"
            },
            {
              "internalType": "bytes32",
              "name": "prevHash",
              "type": "bytes32"
            },
            {
              "internalType": "bytes",
              "name": "proof",
              "type": "bytes"
            }
          ],
          "internalType": "struct BottomUpCheckpoint",
          "name": "checkpoint",
          "type": "tuple"
        }
      ],
      "name": "submitCheckpoint",
      "outputs": [],
      "stateMutability": "nonpayable",
      "type": "function"
    },
    {
      "inputs": [],
      "name": "withdraw",
      "outputs": [],
      "stateMutability": "nonpayable",
      "type": "function"
    }
  ],
  "bytecode": {
    "object": "0x608060405234801561001057600080fd5b5061558b806100206000396000f3fe6080604052600436106100915760003560e01c80636cf6970a116100595780636cf6970a1461015c578063989037481461016f578063a9fb763c146101a0578063d66d9e19146101c0578063f6fd8381146101d557600080fd5b8063133f74ea146100965780633ccfd60b146100d257806341c0e1b5146100e957806366d7bbbc146100fe5780636cb2ecee1461012e575b600080fd5b3480156100a257600080fd5b506100b66100b1366004613321565b6101f5565b6040805192151583526020830191909152015b60405180910390f35b3480156100de57600080fd5b506100e761028e565b005b3480156100f557600080fd5b506100e7610348565b34801561010a57600080fd5b5061011e610119366004613353565b610400565b60405190151581526020016100c9565b34801561013a57600080fd5b5061014e610149366004613321565b610441565b6040516100c992919061361e565b6100e761016a3660046136ce565b610b8b565b34801561017b57600080fd5b5061018f61018a366004613321565b610de4565b6040516100c9959493929190613768565b3480156101ac57600080fd5b506100e76101bb3660046137b4565b610f56565b3480156101cc57600080fd5b506100e7611013565b3480156101e157600080fd5b506100e76101f03660046137cd565b611189565b60008060008061020485610441565b6040516339aa47fb60e01b81529193509150829073__$1cd67d4dc9e627f0bec7928aa480e7d951$__906339aa47fb90610242908590600401613980565b602060405180830381865af415801561025f573d6000803e3d6000fd5b505050506040513d601f19601f820116820180604052508101906102839190613a1d565b935093505050915091565b610296611400565b33600090815260026020526040812054908190036102c7576040516367300f9160e11b815260040160405180910390fd5b3360009081526002602052604080822091909155600d549051631f0e077760e31b8152600481018390526001600160a01b039091169063f8703bb890602401600060405180830381600087803b15801561032057600080fd5b505af1158015610334573d6000803e3d6000fd5b506103459250339150839050611492565b50565b610350611400565b61035861152d565b610362600e61156b565b151580610370575060075415155b1561038e57604051636b62255160e11b815260040160405180910390fd5b600d8054600360a01b60ff60a01b19821617909155604080516341c0e1b560e01b815290516001600160a01b03909216916341c0e1b59160048082019260009290919082900301818387803b1580156103e657600080fd5b505af11580156103fa573d6000803e3d6000fd5b50505050565b6001600160401b0382166000908152602081815260408083208054845260030182528083206001600160a01b038516845290915290205460ff165b92915050565b60006104916040805161012081018252600060e0820181815260606101008401819052908352602083018290529282018190528282018390526080820183905260a082015260c081019190915290565b6001600160401b03808416600090815260056020908152604091829020825161012081018452815490941660e085019081526001820180548551818602810186019096528086529294869492938693610100870193919083018282801561052157602002820191906000526020600020905b81546001600160a01b03168152600190910190602001808311610503575b50505050508152505081526020016002820160009054906101000a90046001600160401b03166001600160401b03166001600160401b031681526020016003820154815260200160048201805480602002602001604051908101604052809291908181526020016000905b8282101561092b5760008481526020908190206040805161018081018252600c860290920180546001600160401b031661014084019081526001820180548451818802810188018652818152959693958795860194879486946101008901948794869486936101608d0193909183018282801561063257602002820191906000526020600020905b81546001600160a01b03168152600190910190602001808311610614575b5050509190925250505081526040805180820190915260028301805460ff1682526003840180546020948501948401919061066c90613a4c565b80601f016020809104026020016040519081016040528092919081815260200182805461069890613a4c565b80156106e55780601f106106ba576101008083540402835291602001916106e5565b820191906000526020600020905b8154815290600101906020018083116106c857829003601f168201915b505050919092525050509052508152604080516080810182526004840180546001600160401b031682840190815260058601805485516020828102820181019097528181529686019694959394869486936060870193909183018282801561077657602002820191906000526020600020905b81546001600160a01b03168152600190910190602001808311610758575b5050509190925250505081526040805180820190915260028301805460ff168252600384018054602094850194840191906107b090613a4c565b80601f01602080910402602001604051908101604052809291908181526020018280546107dc90613a4c565b80156108295780601f106107fe57610100808354040283529160200191610829565b820191906000526020600020905b81548152906001019060200180831161080c57829003601f168201915b5050509190925250505090525081526008820154602082015260098201546001600160401b0381166040830152600160401b900460e01b6001600160e01b0319166060820152600a8201805460809092019161088490613a4c565b80601f01602080910402602001604051908101604052809291908181526020018280546108b090613a4c565b80156108fd5780601f106108d2576101008083540402835291602001916108fd565b820191906000526020600020905b8154815290600101906020018083116108e057829003601f168201915b505050919092525050508152600b919091015460ff161515602091820152908252600192909201910161058c565b50505050815260200160058201805480602002602001604051908101604052809291908181526020016000905b82821015610a62576000848152602090819020604080516080810182526003860290920180546001600160401b0316838301908152600182018054845181880281018801909552808552949592948694929386936060870193909290918301828280156109ee57602002820191906000526020600020905b81546001600160a01b031681526001909101906020018083116109d0575b505050505081525050815260200160028201805480602002602001604051908101604052809291908181526020018280548015610a4a57602002820191906000526020600020905b815481526020019060010190808311610a36575b50505050508152505081526020019060010190610958565b50505050815260200160068201548152602001600782018054610a8490613a4c565b80601f0160208091040260200160405190810160405280929190818152602001828054610ab090613a4c565b8015610afd5780601f10610ad257610100808354040283529160200191610afd565b820191906000526020600020905b815481529060010190602001808311610ae057829003601f168201915b5050509190925250508151604051630c133d1360e31b815292935073__$a0fe38a9a81205afccc10810b09a4d3f45$__92636099e8989250610b429190600401613a86565b602060405180830381865af4158015610b5f573d6000803e3d6000fd5b505050506040513d601f19601f82011682018060405250810190610b839190613aa7565b159150915091565b610b93611400565b610b9b61152d565b34336000829003610bbf57604051635a78c58160e11b815260040160405180910390fd5b6001600160a01b03811660009081526001602052604081208054849290610be7908490613ada565b909155505060078054839190600090610c01908490613ada565b90915550506008546001600160a01b03821660009081526001602052604090205410610c8d57610c32600e82611575565b610c8d57610c41600e8261159a565b506001600160a01b0381166000908152600360205260409020610c65858783613b66565b506001600160a01b03811660009081526004602052604090208390610c8a8282613c7b565b50505b6005600d54600160a01b900460ff166005811115610cad57610cad613a36565b03610d385760085460075410610d3357600d8054600160a01b60ff60a01b1982161790915560075460408051630354740160e31b815290516001600160a01b0390931692631aa3a008929160048082019260009290919082900301818588803b158015610d1957600080fd5b505af1158015610d2d573d6000803e3d6000fd5b50505050505b610ddd565b6002600d54600160a01b900460ff166005811115610d5857610d58613a36565b03610d7c5760085460075410610d7c57600d805460ff60a01b1916600160a01b1790555b600d54604080516316989f6f60e21b815290516001600160a01b0390921691635a627dbc918591600480830192600092919082900301818588803b158015610dc357600080fd5b505af1158015610dd7573d6000803e3d6000fd5b50505050505b5050505050565b6040805180820182526000808252606060208084018290526001600160401b03868116845260058252858420865180880188528154909216825260018101805488518186028101860190995280895296979596879687969585810193919290830182828015610e7c57602002820191906000526020600020905b81546001600160a01b03168152600190910190602001808311610e5e575b505050919092525050506001600160401b03808816600090815260056020526040902060028101546003820154600683015460079093018054959a50919093169750919550935090610ecd90613a4c565b80601f0160208091040260200160405190810160405280929190818152602001828054610ef990613a4c565b8015610f465780601f10610f1b57610100808354040283529160200191610f46565b820191906000526020600020905b815481529060010190602001808311610f2957829003601f168201915b5050505050905091939590929450565b610f5e6115af565b6000610f6a600e61156b565b905080600003610f8d5760405163efa9c8f160e01b815260040160405180910390fd5b80821015610fae57604051633074cabf60e11b815260040160405180910390fd5b6000610fba8284613d76565b905060005b828110156103fa578160026000610fd7600e856115da565b6001600160a01b03166001600160a01b0316815260200190815260200160002060008282546110069190613ada565b9091555050600101610fbf565b7f691bb03ffc16c56fc96b82fd16cd1b3715f0bc3cdc6407005f49bb6205860095805460001901611057576040516329f745a760e01b815260040160405180910390fd5b60018155611063611400565b61106b61152d565b336000908152600160205260408120549081900361109c57604051632ec5b44960e01b815260040160405180910390fd5b336000908152600160205260408120819055600780548392906110c0908490613d8a565b909155506110d19050600e336115e6565b506001600d54600160a01b900460ff1660058111156110f2576110f2613a36565b0361111757600854600754101561111757600d805460ff60a01b1916600160a11b1790555b600d546040516345f5448560e01b8152600481018390526001600160a01b03909116906345f5448590602401600060405180830381600087803b15801561115d57600080fd5b505af1158015611171573d6000803e3d6000fd5b506111829250339150839050611492565b5060009055565b611191611400565b6111a96111a46040830160208401613321565b6115fb565b6001600d54600160a01b900460ff1660058111156111c9576111c9613a36565b146111e75760405163c18316bf60e01b815260040160405180910390fd5b6111f2600e33611575565b61120f57604051632ec5b44960e01b815260040160405180910390fd5b600b5461121c8280613d9d565b61122590613f39565b6040516390ba52cf60e01b815273__$a0fe38a9a81205afccc10810b09a4d3f45$__916390ba52cf9161125b9190600401613a86565b602060405180830381865af4158015611278573d6000803e3d6000fd5b505050506040513d601f19601f8201168201806040525081019061129c9190613a1d565b146112ba576040516375ecc72d60e01b815260040160405180910390fd5b73__$33b79814e84bf6cf5e47244090b19ce5f8$__63898414756112e16060840184613f45565b6040518363ffffffff1660e01b81526004016112fe92919061415e565b602060405180830381865af415801561131b573d6000803e3d6000fd5b505050506040513d601f19601f8201168201806040525081019061133f9190613aa7565b61135c57604051630bd9169f60e01b815260040160405180910390fd5b600080806113706040850160208601613321565b6001600160401b031681526020808201929092526040908101600090812033808352600190945291812054919350916113ac9184918691611604565b905080156113c2576113bd82611dc4565b505050565b6000806113cd612685565b915091508015610ddd576001600160401b03821660009081526020819052604090206113f881611dc4565b505050505050565b604051630972932760e21b815233600482015273__$e800e3908cdbb6b1b5bd452383a17b18f7$__906325ca4c9c90602401602060405180830381865af415801561144f573d6000803e3d6000fd5b505050506040513d601f19601f820116820180604052508101906114739190613aa7565b6114905760405163b7150de560e01b815260040160405180910390fd5b565b804710156114b95760405163cd78605960e01b815230600482015260240160405180910390fd5b6000826001600160a01b03168260405160006040518083038185875af1925050503d8060008114611506576040519150601f19603f3d011682016040523d82523d6000602084013e61150b565b606091505b50509050806113bd57604051630a12f52160e11b815260040160405180910390fd5b6003600d54600160a01b900460ff16600581111561154d5761154d613a36565b036114905760405163248c8efb60e11b815260040160405180910390fd5b600061043b825490565b6001600160a01b038116600090815260018301602052604081205415155b9392505050565b6000611593836001600160a01b0384166126d8565b600d546001600160a01b031633146114905760405163e7e601db60e01b815260040160405180910390fd5b60006115938383612727565b6000611593836001600160a01b038416612751565b6103458161284b565b60008061161085614673565b6040516339aa47fb60e01b815273__$1cd67d4dc9e627f0bec7928aa480e7d951$__916339aa47fb916116469190600401613980565b602060405180830381865af4158015611663573d6000803e3d6000fd5b505050506040513d601f19601f820116820180604052508101906116879190613a1d565b90506116a8868286866116a060408b0160208c01613321565b600754612916565b600082815260058801602090815260409182902082516101208101845281546001600160401b031660e082019081526001830180548651818702810187019097528087529698509195929486949193869361010087019390919083018282801561173b57602002820191906000526020600020905b81546001600160a01b0316815260019091019060200180831161171d575b50505050508152505081526020016002820160009054906101000a90046001600160401b03166001600160401b03166001600160401b031681526020016003820154815260200160048201805480602002602001604051908101604052809291908181526020016000905b82821015611b455760008481526020908190206040805161018081018252600c860290920180546001600160401b031661014084019081526001820180548451818802810188018652818152959693958795860194879486946101008901948794869486936101608d0193909183018282801561184c57602002820191906000526020600020905b81546001600160a01b0316815260019091019060200180831161182e575b5050509190925250505081526040805180820190915260028301805460ff1682526003840180546020948501948401919061188690613a4c565b80601f01602080910402602001604051908101604052809291908181526020018280546118b290613a4c565b80156118ff5780601f106118d4576101008083540402835291602001916118ff565b820191906000526020600020905b8154815290600101906020018083116118e257829003601f168201915b505050919092525050509052508152604080516080810182526004840180546001600160401b031682840190815260058601805485516020828102820181019097528181529686019694959394869486936060870193909183018282801561199057602002820191906000526020600020905b81546001600160a01b03168152600190910190602001808311611972575b5050509190925250505081526040805180820190915260028301805460ff168252600384018054602094850194840191906119ca90613a4c565b80601f01602080910402602001604051908101604052809291908181526020018280546119f690613a4c565b8015611a435780601f10611a1857610100808354040283529160200191611a43565b820191906000526020600020905b815481529060010190602001808311611a2657829003601f168201915b5050509190925250505090525081526008820154602082015260098201546001600160401b0381166040830152600160401b900460e01b6001600160e01b0319166060820152600a82018054608090920191611a9e90613a4c565b80601f0160208091040260200160405190810160405280929190818152602001828054611aca90613a4c565b8015611b175780601f10611aec57610100808354040283529160200191611b17565b820191906000526020600020905b815481529060010190602001808311611afa57829003601f168201915b505050919092525050508152600b919091015460ff16151560209182015290825260019290920191016117a6565b50505050815260200160058201805480602002602001604051908101604052809291908181526020016000905b82821015611c7c576000848152602090819020604080516080810182526003860290920180546001600160401b031683830190815260018201805484518188028101880190955280855294959294869492938693606087019390929091830182828015611c0857602002820191906000526020600020905b81546001600160a01b03168152600190910190602001808311611bea575b505050505081525050815260200160028201805480602002602001604051908101604052809291908181526020018280548015611c6457602002820191906000526020600020905b815481526020019060010190808311611c50575b50505050508152505081526020019060010190611b72565b50505050815260200160068201548152602001600782018054611c9e90613a4c565b80601f0160208091040260200160405190810160405280929190818152602001828054611cca90613a4c565b8015611d175780601f10611cec57610100808354040283529160200191611d17565b820191906000526020600020905b815481529060010190602001808311611cfa57829003601f168201915b5050509190925250506040516322ea8d8960e11b815273__$1cd67d4dc9e627f0bec7928aa480e7d951$__926345d51b129250611d5691600401613980565b602060405180830381865af4158015611d73573d6000803e3d6000fd5b505050506040513d601f19601f82011682018060405250810190611d979190613aa7565b15611dbb57600081815260058701602052604090208590611db88282614f6c565b50505b50949350505050565b6002810154600090815260058201602052604090206006810154600c5414611e6457604051635a27a53960e11b81526004810183905273__$e0f829f5071d7e628aa77eca0c12e35bc2$__9063b44f4a729060240160006040518083038186803b158015611e3157600080fd5b505af4158015611e45573d6000803e3d6000fd5b5050506002820154611e6091506001600160401b0316612b63565b5050565b6002810154611e7b906001600160401b0316612be7565b60028101546001600160401b039081166000908152600560205260409020825481546001600160401b03191692169190911781556001808301805484939284928492611eca9284019190612ec3565b50505060028281015490820180546001600160401b0319166001600160401b039092169190911790556003808301549082015560048083018054611f119284019190612f13565b5060058281018054611f2692840191906130d9565b506006820154816006015560078201816007019081611f45919061509b565b5050604080516101208101825283546001600160401b031660e0820190815260018501805484516020828102820181019096528181529395508694869486936101008701939192909190830182828015611fc857602002820191906000526020600020905b81546001600160a01b03168152600190910190602001808311611faa575b50505050508152505081526020016002820160009054906101000a90046001600160401b03166001600160401b03166001600160401b031681526020016003820154815260200160048201805480602002602001604051908101604052809291908181526020016000905b828210156123d25760008481526020908190206040805161018081018252600c860290920180546001600160401b031661014084019081526001820180548451818802810188018652818152959693958795860194879486946101008901948794869486936101608d019390918301828280156120d957602002820191906000526020600020905b81546001600160a01b031681526001909101906020018083116120bb575b5050509190925250505081526040805180820190915260028301805460ff1682526003840180546020948501948401919061211390613a4c565b80601f016020809104026020016040519081016040528092919081815260200182805461213f90613a4c565b801561218c5780601f106121615761010080835404028352916020019161218c565b820191906000526020600020905b81548152906001019060200180831161216f57829003601f168201915b505050919092525050509052508152604080516080810182526004840180546001600160401b031682840190815260058601805485516020828102820181019097528181529686019694959394869486936060870193909183018282801561221d57602002820191906000526020600020905b81546001600160a01b031681526001909101906020018083116121ff575b5050509190925250505081526040805180820190915260028301805460ff1682526003840180546020948501948401919061225790613a4c565b80601f016020809104026020016040519081016040528092919081815260200182805461228390613a4c565b80156122d05780601f106122a5576101008083540402835291602001916122d0565b820191906000526020600020905b8154815290600101906020018083116122b357829003601f168201915b5050509190925250505090525081526008820154602082015260098201546001600160401b0381166040830152600160401b900460e01b6001600160e01b0319166060820152600a8201805460809092019161232b90613a4c565b80601f016020809104026020016040519081016040528092919081815260200182805461235790613a4c565b80156123a45780601f10612379576101008083540402835291602001916123a4565b820191906000526020600020905b81548152906001019060200180831161238757829003601f168201915b505050919092525050508152600b919091015460ff1615156020918201529082526001929092019101612033565b50505050815260200160058201805480602002602001604051908101604052809291908181526020016000905b82821015612509576000848152602090819020604080516080810182526003860290920180546001600160401b03168383019081526001820180548451818802810188019095528085529495929486949293869360608701939092909183018282801561249557602002820191906000526020600020905b81546001600160a01b03168152600190910190602001808311612477575b5050505050815250508152602001600282018054806020026020016040519081016040528092919081815260200182805480156124f157602002820191906000526020600020905b8154815260200190600101908083116124dd575b505050505081525050815260200190600101906123ff565b5050505081526020016006820154815260200160078201805461252b90613a4c565b80601f016020809104026020016040519081016040528092919081815260200182805461255790613a4c565b80156125a45780601f10612579576101008083540402835291602001916125a4565b820191906000526020600020905b81548152906001019060200180831161258757829003601f168201915b5050509190925250506040516339aa47fb60e01b815273__$1cd67d4dc9e627f0bec7928aa480e7d951$__926339aa47fb92506125e391600401613980565b602060405180830381865af4158015612600573d6000803e3d6000fd5b505050506040513d601f19601f820116820180604052508101906126249190613a1d565b600c55600d54604051631a9c293560e31b81526001600160a01b039091169063d4e149a890612657908490600401615413565b600060405180830381600087803b15801561267157600080fd5b505af11580156113f8573d6000803e3d6000fd5b7f283d1424c49941ba61504663c7a1b6f59e6bbb963a00bcc130bcbf9c29e1e27154600160801b90046001600160401b031660006000805160206155368339815191526126d183612d48565b9150509091565b600081815260018301602052604081205461271f5750815460018181018455600084815260208082209093018490558454848252828601909352604090209190915561043b565b50600061043b565b600082600001828154811061273e5761273e6154a3565b9060005260206000200154905092915050565b6000818152600183016020526040812054801561283a576000612775600183613d8a565b855490915060009061278990600190613d8a565b90508181146127ee5760008660000182815481106127a9576127a96154a3565b90600052602060002001549050808760000184815481106127cc576127cc6154a3565b6000918252602080832090910192909255918252600188019052604090208390555b85548690806127ff576127ff6154b9565b60019003818190600052602060002001600090559055856001016000868152602001908152602001600020600090556001935050505061043b565b600091505061043b565b5092915050565b60008051602061553683398151915280546001600160401b039081169083161161288857604051631f30cc6360e21b815260040160405180910390fd5b80546001600160401b03600160401b909104811690831610156128be5760405163b4f68f9760e01b815260040160405180910390fd5b80546001600160401b03600160801b82048116916128e591600160401b90910416846154cf565b6128ef91906154ef565b6001600160401b031615611e605760405163b4f68f9760e01b815260040160405180910390fd5b8554600081815260038801602090815260408083206001600160a01b038916845290915281205490916000805160206155368339815191529160ff1615612970576040516337138f5f60e11b815260040160405180910390fd5b600081815260038a01602090815260408083206001600160a01b038b1684529091528120805460ff191660019081179091558a0180548892906129b4908490613ada565b9091555050600081815260048a01602090815260408083208b8452909152812080548892906129e4908490613ada565b9091555050600081815260048a016020908152604080832060028d01548452909152808220548a835291205480821015612a205760028b018a90555b6000612a2c8c88612d95565b90506003816003811115612a4257612a42613a36565b03612ad757612a5088612d48565b15612a5e5760019550612b54565b60405163199b9ca560e01b81526001860160048201526001600160401b038916602482015273__$b7b8687e33476c74e3b4e0a64c4768a343$__9063199b9ca59060440160006040518083038186803b158015612aba57600080fd5b505af4158015612ace573d6000803e3d6000fd5b50505050612b54565b6002816003811115612aeb57612aeb613a36565b03612b5457604051635a27a53960e11b8152600481018d905273__$e0f829f5071d7e628aa77eca0c12e35bc2$__9063b44f4a729060240160006040518083038186803b158015612b3b57600080fd5b505af4158015612b4f573d6000803e3d6000fd5b505050505b50505050509695505050505050565b60006000805160206155368339815191526040516394ecccfd60e01b81526001820160048201526001600160401b038416602482015290915073__$b7b8687e33476c74e3b4e0a64c4768a343$__906394ecccfd9060440160006040518083038186803b158015612bd357600080fd5b505af41580156113f8573d6000803e3d6000fd5b600080516020615536833981519152612bff82612d48565b612c07575050565b604051634953836d60e11b81526001820160048201526001600160401b038316602482015273__$b7b8687e33476c74e3b4e0a64c4768a343$__906392a706da90604401602060405180830381865af4158015612c68573d6000803e3d6000fd5b505050506040513d601f19601f82011682018060405250810190612c8c9190613aa7565b15612cb35760018101546001600160401b03838116600160801b9092041614612cb3575050565b6040516394ecccfd60e01b81526001820160048201526001600160401b038316602482015273__$b7b8687e33476c74e3b4e0a64c4768a343$__906394ecccfd9060440160006040518083038186803b158015612d0f57600080fd5b505af4158015612d23573d6000803e3d6000fd5b505082546001600160401b0319166001600160401b0394909416939093179091555050565b600080516020615536833981519152805460009190612d79906001600160401b03600160801b820481169116615515565b6001600160401b0316836001600160401b031614915050919050565b7f283d1424c49941ba61504663c7a1b6f59e6bbb963a00bcc130bcbf9c29e1e27354600090600080516020615536833981519152908290606490612ddc9060ff168661475b565b612de69190613d76565b604051637d2ef4e560e11b81526004810187905290915060009073__$e0f829f5071d7e628aa77eca0c12e35bc2$__9063fa5de9ca90602401602060405180830381865af4158015612e3c573d6000803e3d6000fd5b505050506040513d601f19601f82011682018060405250810190612e609190613a1d565b905081866001015411612e79576000935050505061043b565b81811115612e8d576003935050505061043b565b6001860154612e9c9086613d8a565b612ea68284613d8a565b10612eb7576002935050505061043b565b50600195945050505050565b828054828255906000526020600020908101928215612f035760005260206000209182015b82811115612f03578254825591600101919060010190612ee8565b50612f0f929150613179565b5090565b82805482825590600052602060002090600c0281019282156130cd57600052602060002091600c0282015b828111156130cd57825482546001600160401b0319166001600160401b039091161782556001808401805485928592849284928492849284928492612f869291840191612ec3565b50505060028281018054918301805460ff191660ff90931692909217825590600380840190612fb79086018261509b565b505050506004838101805491840180546001600160401b0319166001600160401b039093169290921782556005808601805492945084928492612ffd9290880191612ec3565b50505060028281018054918301805460ff191660ff9093169290921782559060038084019061302e9086018261509b565b5050505060088381015490830155506009808301805491830180546001600160401b031981166001600160401b039094169384178255915463ffffffff600160401b9182900416026bffffffffffffffffffffffff19909216909217179055600a8082019061309f9084018261509b565b505050600b918201549101805460ff191660ff9092161515919091179055600c928301929190910190612f3e565b50612f0f92915061318e565b82805482825590600052602060002090600302810192821561316d5760005260206000209160030282015b8281111561316d57825482546001600160401b0319166001600160401b039091161782556001808401805485928592849284926131449290840191612ec3565b5050506002828101805461315b9284019190612ec3565b50505091600301919060030190613104565b50612f0f929150613263565b5b80821115612f0f576000815560010161317a565b80821115612f0f5780546001600160401b031916815560008181818181816131b960018301826132a4565b505060028201805460ff1916815560006131d660038501826132c2565b505050506004820180546001600160401b0319168155600081816131fd60058701826132a4565b505060028201805460ff19168155600061321a60038501826132c2565b50506000600885018190556009850180546bffffffffffffffffffffffff1916905561324c9250600a850191506132c2565b505050600b8101805460ff19169055600c0161318e565b80821115612f0f5780546001600160401b03191681556000818161328a60018301826132a4565b5061329b90506002830160006132a4565b50600301613263565b50805460008255906000526020600020908101906103459190613179565b5080546132ce90613a4c565b6000825580601f106132de575050565b601f0160209004906000526020600020908101906103459190613179565b6001600160401b038116811461034557600080fd5b803561331c816132fc565b919050565b60006020828403121561333357600080fd5b8135611593816132fc565b6001600160a01b038116811461034557600080fd5b6000806040838503121561336657600080fd5b8235613371816132fc565b915060208301356133818161333e565b809150509250929050565b6000604083016001600160401b0383511684526020808401516040828701528281518085526060880191508383019450600092505b808310156133ea5784516001600160a01b031682529383019360019290920191908301906133c1565b509695505050505050565b6000815180845260005b8181101561341b576020818501810151868301820152016133ff565b506000602082860101526020601f19601f83011685010191505092915050565b6000815160408452613450604085018261338c565b90506020830151848203602086015260ff8151168252602081015190506040602083015261348160408301826133f5565b95945050505050565b600081518084526020808501808196508360051b8101915082860160005b85811015613571578284038952815160408151818752805160c080848a01526134d56101008a018361343b565b915089830151603f196060818c860301818d01526134f3858461343b565b9686015160808d810191909152908601516001600160401b031660a0808e0191909152908601516001600160e01b031916938c0193909352918401518a860390920160e08b01525092905061354881846133f5565b93890151801515898b015293925061355e915050565b99860199945050908401906001016134a8565b5091979650505050505050565b600081518084526020808501808196508360051b810191508286016000805b86811015613610578385038a528251604081518188526135bf8289018261338c565b92890151888403898b01528051808552908a01938693508a0191505b808310156135fb57835182529289019260019290920191908901906135db565b509b88019b965050509185019160010161359d565b509298975050505050505050565b8215158152604060208201526000825160e0604084015261364361012084018261338c565b90506001600160401b036020850151166060840152604084015160808401526060840151603f19808584030160a086015261367e838361348a565b925060808601519150808584030160c086015261369b838361357e565b925060a086015160e086015260c086015191508085840301610100860152506136c482826133f5565b9695505050505050565b6000806000604084860312156136e357600080fd5b83356001600160401b03808211156136fa57600080fd5b818601915086601f83011261370e57600080fd5b81358181111561371d57600080fd5b87602082850101111561372f57600080fd5b60209283019550935090850135908082111561374a57600080fd5b5084016040818703121561375d57600080fd5b809150509250925092565b60a08152600061377b60a083018861338c565b6001600160401b038716602084015285604084015284606084015282810360808401526137a881856133f5565b98975050505050505050565b6000602082840312156137c657600080fd5b5035919050565b6000602082840312156137df57600080fd5b81356001600160401b038111156137f557600080fd5b820160e0818503121561159357600080fd5b600081518084526020808501808196508360051b8101915082860160005b85811015613571578284038952815160408151818752805160c080848a01526138526101008a018361343b565b915089830151603f196060818c860301818d0152613870858461343b565b9686015160808d810191909152908601516001600160401b031660a0808e0191909152908601516001600160e01b031916938c0193909352918401518a860390920160e08b0152509290506138c581846133f5565b93890151801515898b01529392506138db915050565b9986019994505090840190600101613825565b600081518084526020808501808196508360051b810191508286016000805b86811015613610578385038a5282516040815181885261392f8289018261338c565b92890151888403898b01528051808552908a01938693508a0191505b8083101561396b578351825292890192600192909201919089019061394b565b509b88019b965050509185019160010161390d565b602081526000825160e0602084015261399d61010084018261338c565b90506001600160401b036020850151166040840152604084015160608401526060840151601f19808584030160808601526139d88383613807565b925060808601519150808584030160a08601526139f583836138ee565b925060a086015160c086015260c08601519150808584030160e08601525061348182826133f5565b600060208284031215613a2f57600080fd5b5051919050565b634e487b7160e01b600052602160045260246000fd5b600181811c90821680613a6057607f821691505b602082108103613a8057634e487b7160e01b600052602260045260246000fd5b50919050565b602081526000611593602083018461338c565b801515811461034557600080fd5b600060208284031215613ab957600080fd5b815161159381613a99565b634e487b7160e01b600052601160045260246000fd5b8082018082111561043b5761043b613ac4565b634e487b7160e01b600052604160045260246000fd5b5b81811015611e605760008155600101613b04565b601f8211156113bd57806000526020600020601f840160051c81016020851015613b3f5750805b610ddd601f850160051c830182613b03565b600019600383901b1c191660019190911b1790565b6001600160401b03831115613b7d57613b7d613aed565b613b9183613b8b8354613a4c565b83613b18565b6000601f841160018114613bbf5760008515613bad5750838201355b613bb78682613b51565b845550610ddd565b600083815260209020601f19861690835b82811015613bf05786850135825560209485019460019092019101613bd0565b5086821015613c0d5760001960f88860031b161c19848701351681555b505060018560011b0183555050505050565b60ff8116811461034557600080fd5b6000808335601e19843603018112613c4557600080fd5b8301803591506001600160401b03821115613c5f57600080fd5b602001915036819003821315613c7457600080fd5b9250929050565b8135613c8681613c1f565b60ff811660ff198354161782555060018082016020613ca781860186613c2e565b6001600160401b03811115613cbe57613cbe613aed565b613cd281613ccc8654613a4c565b86613b18565b6000601f821160018114613d005760008315613cee5750838201355b613cf88482613b51565b875550613d55565b600086815260209020601f19841690835b82811015613d2e5786850135825593870193908901908701613d11565b5084821015613d4b5760001960f88660031b161c19848701351681555b50508683881b0186555b505050505050505050565b634e487b7160e01b600052601260045260246000fd5b600082613d8557613d85613d60565b500490565b8181038181111561043b5761043b613ac4565b60008235603e19833603018112613db357600080fd5b9190910192915050565b604080519081016001600160401b0381118282101715613ddf57613ddf613aed565b60405290565b60405160c081016001600160401b0381118282101715613ddf57613ddf613aed565b60405160e081016001600160401b0381118282101715613ddf57613ddf613aed565b604051601f8201601f191681016001600160401b0381118282101715613e5157613e51613aed565b604052919050565b60006001600160401b03821115613e7257613e72613aed565b5060051b60200190565b600060408284031215613e8e57600080fd5b613e96613dbd565b90508135613ea3816132fc565b81526020828101356001600160401b03811115613ebf57600080fd5b8301601f81018513613ed057600080fd5b8035613ee3613ede82613e59565b613e29565b81815260059190911b82018301908381019087831115613f0257600080fd5b928401925b82841015613f29578335613f1a8161333e565b82529284019290840190613f07565b8085870152505050505092915050565b600061043b3683613e7c565b6000808335601e19843603018112613f5c57600080fd5b8301803591506001600160401b03821115613f7657600080fd5b6020019150600581901b3603821315613c7457600080fd5b60008235603e19833603018112613fa457600080fd5b90910192915050565b6000808335601e19843603018112613fc457600080fd5b83016020810192503590506001600160401b03811115613fe357600080fd5b803603821315613c7457600080fd5b81835281816020850137506000828201602090810191909152601f909101601f19169091010190565b6000813561402881613c1f565b60ff16835261403a6020830183613fad565b60406020860152613481604086018284613ff2565b600061405b8283613f8e565b6040845260808401813561406e816132fc565b6001600160401b0390811660408701526020908382013536859003601e1901811261409857600080fd5b909301818101939035818111156140ae57600080fd5b8060051b36038513156140c057600080fd5b60406060890152928390525060009160a08701905b808410156141075784356140e88161333e565b6001600160a01b031682529382019360019390930192908201906140d5565b5061411482870187613f8e565b935086810382880152614127818561401b565b979650505050505050565b6001600160e01b03198116811461034557600080fd5b803561331c81614132565b803561331c81613a99565b60208082528181018390526000906040808401600586901b850182018785805b8981101561429257603f19808a860301865261419a848d613f8e565b803560be198236030181126141ad578485fd5b88875281016141bc8180613f8e565b60c0808b8a01526141d16101008a018361404f565b91506141df8c840184613f8e565b6060868b850301818c01526141f4848361404f565b9350608091508c850135828c0152808501359050614211816132fc565b60a06001600160401b038216818d015282860135925061423083614132565b6001600160e01b031983168c85015261424b86820187613fad565b96509350505050848983030160e08a0152614267828483613ff2565b9450505050614277898201614153565b1515958901959095529487019493509186019160010161417e565b50919998505050505050505050565b600082601f8301126142b257600080fd5b81356001600160401b038111156142cb576142cb613aed565b6142de601f8201601f1916602001613e29565b8181528460208386010111156142f357600080fd5b816020850160208301376000918101602001919091529392505050565b60006040828403121561432257600080fd5b61432a613dbd565b905081356001600160401b038082111561434357600080fd5b61434f85838601613e7c565b8352602084013591508082111561436557600080fd5b908301906040828603121561437957600080fd5b614381613dbd565b823561438c81613c1f565b81526020830135828111156143a057600080fd5b6143ac878286016142a1565b60208301525080602085015250505092915050565b600082601f8301126143d257600080fd5b813560206143e2613ede83613e59565b82815260059290921b8401810191818101908684111561440157600080fd5b8286015b848110156133ea5780356001600160401b038082111561442457600080fd5b90880190601f196040838c038201121561443d57600080fd5b614445613dbd565b878401358381111561445657600080fd5b840160c0818e038401121561446a57600080fd5b614472613de5565b9250888101358481111561448557600080fd5b6144938e8b83850101614310565b8452506040810135848111156144a857600080fd5b6144b68e8b83850101614310565b8a85015250606081013560408401526144d160808201613311565b60608401526144e260a08201614148565b608084015260c0810135848111156144f957600080fd5b6145078e8b838501016142a1565b60a0850152505081815261451d60408501614153565b818901528652505050918301918301614405565b600082601f83011261454257600080fd5b81356020614552613ede83613e59565b828152600592831b850182019282820191908785111561457157600080fd5b8387015b858110156146665780356001600160401b03808211156145955760008081fd5b908901906040828c03601f19018113156145af5760008081fd5b6145b7613dbd565b88840135838111156145c95760008081fd5b6145d78e8b83880101613e7c565b82525081840135838111156145ec5760008081fd5b8085019450508c603f85011261460457600092508283fd5b888401359250614616613ede84613e59565b83815292861b8401820192898101908e8511156146335760008081fd5b948301945b848610156146515785358252948a0194908a0190614638565b828b0152508752505050928401928401614575565b5090979650505050505050565b600060e0823603121561468557600080fd5b61468d613e07565b82356001600160401b03808211156146a457600080fd5b6146b036838701613e7c565b83526146be60208601613311565b60208401526040850135604084015260608501359150808211156146e157600080fd5b6146ed368387016143c1565b6060840152608085013591508082111561470657600080fd5b61471236838701614531565b608084015260a085013560a084015260c085013591508082111561473557600080fd5b50614742368286016142a1565b60c08301525092915050565b6000813561043b816132fc565b808202811582820484141761043b5761043b613ac4565b8054600082558015611e60578160005260206000206113bd82820182613b03565b600160401b8211156147a7576147a7613aed565b8054828255808310156113bd578160005260206000206103fa828201858301613b03565b6000815561034560018201614772565b6147e58154613a4c565b8015611e6057601f8111600181146147ff57505060009055565b82600052602060002061481d601f840160051c820160018301613b03565b60008085559055505050565b6000815561483960018201614772565b60006002820155610345600382016147db565b6148568283613d9d565b8035614861816132fc565b82546001600160401b0319166001600160401b038216178355506001808301602061488e81850185613f45565b94506001600160401b03808611156148a8576148a8613aed565b6148b28685614793565b600093845282842093805b878110156148df5783356148d08161333e565b868201559284019286016148bd565b506002880196506148f2848a018a613d9d565b94508435925061490183613c1f565b865460ff191660ff841617909655600387019561492085850186613c2e565b955092508185111561493457614934613aed565b614948856149428954613a4c565b89613b18565b809150601f851160018114614976578186156149645750838301355b61496e8782613b51565b895550610dd7565b600088815260209020601f19871690835b828110156149a45786860135825594870194908901908701614987565b50878210156149c15760001960f88960031b161c19858701351681555b505050505091831b90920190925550505050565b6000813561043b81614132565b6000813561043b81613a99565b813560be19833603018112614a0357600080fd5b8201614a0f8180613d9d565b614a198182613d9d565b8035614a24816132fc565b84546001600160401b0319166001600160401b0382161785555060018085016020614a5181850185613f45565b94506001600160401b0380861115614a6b57614a6b613aed565b614a758685614793565b600093845282842093805b87811015614aa2578335614a938161333e565b86820155928401928601614a80565b5060028a019650614ab584890189613d9d565b975087359450614ac485613c1f565b865460ff191660ff8616179096556003890195614ae388850189613c2e565b9850945081881115614af757614af7613aed565b614b05886149428954613a4c565b809250601f881160018114614b35578192508815614b24578386013592505b614b2e8984613b51565b8855614b8a565b600088815260209020601f198a169350825b84811015614b645787860135825594860194908801908601614b47565b5089841015614b815760001960f88b60031b161c19858801351681555b508689881b0188555b50505050614ba6614b9d82880188613d9d565b6004890161484c565b60408601356008880155600987019450614be2614bc56060880161474e565b86546001600160401b0319166001600160401b0391909116178655565b614c1b614bf1608088016149d5565b86546bffffffff0000000000000000191660a09190911c6bffffffff000000000000000016178655565b614c2860a0870187613c2e565b96509450614c3a8686600a8a01613b66565b614c61614c48828a016149e2565b600b890160ff1981541660ff8315151681178255505050565b5050505050505050565b600160401b831115614c7f57614c7f613aed565b805483825580841015614d1357600c8181028181048314614ca257614ca2613ac4565b8582028281048714614cb657614cb6613ac4565b6000858152602081209283019291909101905b82821015614d0e57614cda82614829565b614ce660048301614829565b806008830155806009830155614cfe600a83016147db565b80600b8301558382019150614cc9565b505050505b5060008181526020812083915b858110156113f857614d3b614d358487613d9d565b836149ef565b60209290920191600c9190910190600101614d20565b8054600080835581156113bd57828152602081208281015b80821015610ddd57828255600182019150614d69565b600160401b821115614d9357614d93613aed565b8054828255808310156113bd576000828152602081208481019083015b808210156113f857828255600182019150614db0565b614dd08283613d9d565b8035614ddb816132fc565b82546001600160401b0319166001600160401b0382161783555060018083016020614e0881850185613f45565b94506001600160401b0380861115614e2257614e22613aed565b614e2c8685614793565b600093845282842093805b87811015614e59578335614e4a8161333e565b86820155928401928601614e37565b50600288019650614e6c848a018a613f45565b9550925081851115614e8057614e80613aed565b614e8a8588614d7f565b95865250818520945b83811015614c6157813586820155908201908401614e93565b600160401b831115614ec057614ec0613aed565b805483825580841015614f2e5760038181028181048314614ee357614ee3613ac4565b8582028281048714614ef757614ef7613ac4565b60008581526020902091820191015b81811015614f2a57614f17816147cb565b614f2360028201614d51565b8201614f06565b5050505b5060008181526020812083915b858110156113f857614f56614f508487613d9d565b83614dc6565b6020929092019160039190910190600101614f3b565b614f768283613d9d565b8035614f81816132fc565b82546001600160401b0319166001600160401b0382161783555060018083016020614fae81850185613f45565b94506001600160401b03851115614fc757614fc7613aed565b614fd18584614793565b6000928352818320925b85811015614ffd578135614fee8161333e565b84820155908201908401614fdb565b505061502e61500d82880161474e565b600287016001600160401b0382166001600160401b03198254161781555050565b50505050604082013560038201556150496060830183613f45565b615057818360048601614c6b565b50506150666080830183613f45565b615074818360058601614eac565b505060a0820135600682015561508d60c0830183613c2e565b6103fa818360078601613b66565b8181036150a6575050565b6150b08254613a4c565b6001600160401b038111156150c7576150c7613aed565b6150db816150d58454613a4c565b84613b18565b6000601f82116001811461510957600083156150f75750848201545b6151018482613b51565b855550610ddd565b600085815260209020601f19841690600086815260209020845b838110156151435782860154825560019586019590910190602001615123565b50858310156151615781850154600019600388901b60f8161c191681555b5050505050600190811b01905550565b6000604083016001600160401b0383541684526001808401602060408188015283825480865260608901915083600052826000209550600093505b808410156151d25785546001600160a01b031682529484019492840192908201906151ac565b50979650505050505050565b600081546151eb81613a4c565b808552602060018381168015615208576001811461522257615250565b60ff1985168884015283151560051b880183019550615250565b866000528260002060005b858110156152485781548a820186015290830190840161522d565b890184019650505b505050505092915050565b60408252600061526e6040840183615171565b838103602085015260ff60028401541681526040602082015261529760408201600385016151de565b949350505050565b600081548084526020808501808196508360051b81019150856000528260002060005b85811015613571578284038952604080855260c080828701526152e961010087018561525b565b9150603f1980878403016060880152615305836004870161525b565b6008860154608089015260098601546001600160401b03811660a0808b01919091521b6001600160e01b031916928801929092528682030160e0870152905061535181600a85016151de565b9050615361600b84015460ff1690565b15159486019490945297840197600c91909101906001016152c2565b600081548084526020808501808196508360051b810191506000868152838120815b86811015613610578385038a5260408086526153bd81870184615171565b86810388880152600284018054808352908652888620925085918901905b808310156153fb57835482526001938401939290920191908901906153db565b509b88019b965050506003919091019060010161539f565b6020815260e06020820152600061542e610100830184615171565b60028401546001600160401b0316604084015260038401546060840152828103601f199081016080850152615466826004870161529f565b9150808483030160a085015261547f826005870161537d565b9150600685015460c0850152808483030160e08501525061529781600786016151de565b634e487b7160e01b600052603260045260246000fd5b634e487b7160e01b600052603160045260246000fd5b6001600160401b0382811682821603908082111561284457612844613ac4565b60006001600160401b038084168061550957615509613d60565b92169190910692915050565b6001600160401b0381811683821601908082111561284457612844613ac456fe283d1424c49941ba61504663c7a1b6f59e6bbb963a00bcc130bcbf9c29e1e270a2646970667358221220a2ee3a596184af53752eeabe46f09a8470b15941e37106fc8e96d458e5e641ac64736f6c63430008130033",
    "linkReferences": {
      "src/lib/AccountHelper.sol": {
        "AccountHelper": [
          {
            "start": 5173,
            "length": 20
          }
        ]
      },
      "src/lib/CheckpointHelper.sol": {
        "CheckpointHelper": [
          {
            "start": 570,
            "length": 20
          },
          {
            "start": 5695,
            "length": 20
          },
          {
            "start": 7503,
            "length": 20
          },
          {
            "start": 9692,
            "length": 20
          }
        ]
      },
      "src/lib/CrossMsgHelper.sol": {
        "CrossMsgHelper": [
          {
            "start": 4828,
            "length": 20
          }
        ]
      },
      "src/lib/EpochVoteSubmissionHelper.sol": {
        "EpochVoteSubmissionHelper": [
          {
            "start": 7708,
            "length": 20
          },
          {
            "start": 11046,
            "length": 20
          },
          {
            "start": 11810,
            "length": 20
          }
        ]
      },
      "src/lib/ExecutableQueueHelper.sol": {
        "ExecutableQueueHelper": [
          {
            "start": 10917,
            "length": 20
          },
          {
            "start": 11198,
            "length": 20
          },
          {
            "start": 11342,
            "length": 20
          },
          {
            "start": 11514,
            "length": 20
          }
        ]
      },
      "src/lib/SubnetIDHelper.sol": {
        "SubnetIDHelper": [
          {
            "start": 2874,
            "length": 20
          },
          {
            "start": 4692,
            "length": 20
          }
        ]
      }
    }
  },
  "methodIdentifiers": {
    "bottomUpCheckpointAtEpoch(uint64)": "6cb2ecee",
    "bottomUpCheckpointHashAtEpoch(uint64)": "133f74ea",
    "committedCheckpoints(uint64)": "98903748",
    "hasValidatorVotedForSubmission(uint64,address)": "66d7bbbc",
    "join(string,(uint8,bytes))": "6cf6970a",
    "kill()": "41c0e1b5",
    "leave()": "d66d9e19",
    "reward(uint256)": "a9fb763c",
    "submitCheckpoint(((uint64,address[]),uint64,uint256,((((uint64,address[]),(uint8,bytes)),((uint64,address[]),(uint8,bytes)),uint256,uint64,bytes4,bytes),bool)[],((uint64,address[]),bytes32[])[],bytes32,bytes))": "f6fd8381",
    "withdraw()": "3ccfd60b"
  },
  "id": 64
}