{
  "abi": [
    {
      "inputs": [
        {
          "internalType": "address",
          "name": "_gateway",
          "type": "address"
        }
      ],
      "stateMutability": "nonpayable",
      "type": "constructor"
    },
    {
      "inputs": [],
      "name": "UnknownSubnet",
      "type": "error"
    },
    {
      "inputs": [],
      "name": "WrongGateway",
      "type": "error"
    },
    {
      "inputs": [],
      "name": "ZeroGatewayAddress",
      "type": "error"
    },
    {
      "anonymous": false,
      "inputs": [
        {
          "indexed": false,
          "internalType": "address",
          "name": "subnetAddr",
          "type": "address"
        }
      ],
      "name": "SubnetDeployed",
      "type": "event"
    },
    {
      "inputs": [],
      "name": "gateway",
      "outputs": [
        {
          "internalType": "address",
          "name": "",
          "type": "address"
        }
      ],
      "stateMutability": "view",
      "type": "function"
    },
    {
      "inputs": [
        {
          "internalType": "address",
          "name": "owner",
          "type": "address"
        },
        {
          "internalType": "uint64",
          "name": "nonce",
          "type": "uint64"
        }
      ],
      "name": "getSubnetDeployedByNonce",
      "outputs": [
        {
          "internalType": "address",
          "name": "subnet",
          "type": "address"
        }
      ],
      "stateMutability": "view",
      "type": "function"
    },
    {
      "inputs": [
        {
          "internalType": "address",
          "name": "owner",
          "type": "address"
        }
      ],
      "name": "latestSubnetDeployed",
      "outputs": [
        {
          "internalType": "address",
          "name": "subnet",
          "type": "address"
        }
      ],
      "stateMutability": "view",
      "type": "function"
    },
    {
      "inputs": [
        {
          "components": [
            {
              "components": [
                {
                  "internalType": "uint64",
                  "name": "root",
                  "type": "uint64"
                },
                {
                  "internalType": "address[]",
                  "name": "route",
                  "type": "address[]"
                }
              ],
              "internalType": "struct SubnetID",
              "name": "parentId",
              "type": "tuple"
            },
            {
              "internalType": "bytes32",
              "name": "name",
              "type": "bytes32"
            },
            {
              "internalType": "address",
              "name": "ipcGatewayAddr",
              "type": "address"
            },
            {
              "internalType": "enum ConsensusType",
              "name": "consensus",
              "type": "uint8"
            },
            {
              "internalType": "uint256",
              "name": "minActivationCollateral",
              "type": "uint256"
            },
            {
              "internalType": "uint64",
              "name": "minValidators",
              "type": "uint64"
            },
            {
              "internalType": "uint64",
              "name": "bottomUpCheckPeriod",
              "type": "uint64"
            },
            {
              "internalType": "uint64",
              "name": "topDownCheckPeriod",
              "type": "uint64"
            },
            {
              "internalType": "uint8",
              "name": "majorityPercentage",
              "type": "uint8"
            },
            {
              "internalType": "bytes",
              "name": "genesis",
              "type": "bytes"
            }
          ],
          "internalType": "struct SubnetActor.ConstructParams",
          "name": "params",
          "type": "tuple"
        }
      ],
      "name": "newSubnetActor",
      "outputs": [
        {
          "internalType": "address",
          "name": "subnetAddr",
          "type": "address"
        }
      ],
      "stateMutability": "nonpayable",
      "type": "function"
    },
    {
      "inputs": [
        {
          "internalType": "address",
          "name": "",
          "type": "address"
        },
        {
          "internalType": "uint64",
          "name": "",
          "type": "uint64"
        }
      ],
      "name": "subnets",
      "outputs": [
        {
          "internalType": "address",
          "name": "",
          "type": "address"
        }
      ],
      "stateMutability": "view",
      "type": "function"
    },
    {
      "inputs": [
        {
          "internalType": "address",
          "name": "",
          "type": "address"
        }
      ],
      "name": "userNonces",
      "outputs": [
        {
          "internalType": "uint64",
          "name": "",
          "type": "uint64"
        }
      ],
      "stateMutability": "view",
      "type": "function"
    }
  ],
  "bytecode": {
    "object": "0x60a060405234801561001057600080fd5b5060405161786b38038061786b83398101604081905261002f91610067565b6001600160a01b0381166100565760405163609a8af960e01b815260040160405180910390fd5b6001600160a01b0316608052610097565b60006020828403121561007957600080fd5b81516001600160a01b038116811461009057600080fd5b9392505050565b6080516177b36100b8600039600081816075015261025501526177b36000f3fe60806040523480156200001157600080fd5b50600436106200006a5760003560e01c8063116191b6146200006f5780631163dca514620000b45780632f7801f414620000cb5780639836b75f1462000110578063b67c7b4a1462000127578063f9daddd2146200015b575b600080fd5b620000977f000000000000000000000000000000000000000000000000000000000000000081565b6040516001600160a01b0390911681526020015b60405180910390f35b62000097620000c5366004620003df565b62000172565b620000f7620000dc366004620003df565b6001602052600090815260409020546001600160401b031681565b6040516001600160401b039091168152602001620000ab565b62000097620001213660046200041c565b620001f7565b62000097620001383660046200041c565b60006020818152928152604080822090935290815220546001600160a01b031681565b620000976200016c36600462000454565b62000249565b6001600160a01b0381166000908152602081815260408083206001928390529083205490918391620001ae91906001600160401b0316620004a8565b6001600160401b031681526020810191909152604001600020546001600160a01b0316905080620001f25760405163609a8af960e01b815260040160405180910390fd5b919050565b6001600160a01b038083166000908152602081815260408083206001600160401b03861684529091529020541680620002435760405163609a8af960e01b815260040160405180910390fd5b92915050565b60006001600160a01b037f000000000000000000000000000000000000000000000000000000000000000016620002876060840160408501620003df565b6001600160a01b031614620002af57604051633bed049960e01b815260040160405180910390fd5b81604051620002be90620003b9565b620002ca919062000662565b604051809103906000f080158015620002e7573d6000803e3d6000fd5b5033600081815260208181526040808320600180845282852080546001600160401b03908116875292855292852080546001600160a01b0319166001600160a01b03891617905594845293909152805493945092909162000349911662000798565b91906101000a8154816001600160401b0302191690836001600160401b031602179055507f0431ea4d93af299b92f2c606ddcaf4b31cb0013c5ed1fdea837b8a912347c96581604051620003ac91906001600160a01b0391909116815260200190565b60405180910390a1919050565b616fbc80620007c283390190565b80356001600160a01b0381168114620001f257600080fd5b600060208284031215620003f257600080fd5b620003fd82620003c7565b9392505050565b80356001600160401b0381168114620001f257600080fd5b600080604083850312156200043057600080fd5b6200043b83620003c7565b91506200044b6020840162000404565b90509250929050565b6000602082840312156200046757600080fd5b81356001600160401b038111156200047e57600080fd5b82016101408185031215620003fd57600080fd5b634e487b7160e01b600052601160045260246000fd5b6001600160401b03828116828216039080821115620004cb57620004cb62000492565b5092915050565b60008235603e19833603018112620004e957600080fd5b90910192915050565b6000604083016001600160401b03806200050c8562000404565b168552602080850135601e198636030181126200052857600080fd5b85018181019035838111156200053d57600080fd5b8060051b36038213156200055057600080fd5b60408884015293849052926060870192506000905b8082101562000599576001600160a01b036200058186620003c7565b16845293820193928201926001919091019062000565565b50919695505050505050565b803560018110620001f257600080fd5b60018110620005d457634e487b7160e01b600052602160045260246000fd5b9052565b803560ff81168114620001f257600080fd5b6000808335601e198436030181126200060257600080fd5b83016020810192503590506001600160401b038111156200062257600080fd5b8036038213156200063257600080fd5b9250929050565b81835281816020850137506000828201602090810191909152601f909101601f19169091010190565b602081526000620006748384620004d2565b6101408060208501526200068d610160850183620004f2565b915060208501356040850152620006a760408601620003c7565b6001600160a01b038116606086015250620006c560608601620005a5565b620006d46080860182620005b5565b50608085013560a0850152620006ed60a0860162000404565b6001600160401b03811660c0860152506200070b60c0860162000404565b6001600160401b03811660e0860152506200072960e0860162000404565b61010062000741818701836001600160401b03169052565b6200074e818801620005d8565b915050610120620007638187018360ff169052565b6200077181880188620005ea565b878603601f190185890152925090506200078d84838362000639565b979650505050505050565b60006001600160401b03808316818103620007b757620007b762000492565b600101939250505056fe6101c06040523480156200001257600080fd5b5060405162006fbc38038062006fbc833981016040819052620000359162000682565b61010081015160c08201516001600055606460ff831611156200006b576040516375c3b42760e01b815260040160405180910390fd5b60ff8216608052600a6001600160401b038216106200008b57806200008e565b600a5b6001600160401b0390811660a0819052600280546001600160401b0319908116909217905584518051600f80549190941692169190911782556020808201518051929550929350620000e692601092910190620003a9565b50505060208101516101805260408101516001600160a01b03166200011e57604051638b3ddc3360e01b815260040160405180910390fd5b60408101516001600160a01b03166101405260608101518015620001465762000146620007a9565b6101608180156200015b576200015b620007a9565b81525050670de0b6b3a76400008160800151106200017e57806080015162000188565b670de0b6b3a76400005b60c05260a08101516001600160401b039081166101205260e0820151600a911610620001b9578060e00151620001bc565b600a5b6001600160401b0390811660e05260a05116610100526005805460ff60401b191668050000000000000000179055610120810151601190620001ff90826200084e565b50604080518082018252600f80546001600160401b031682526010805484516020828102820181019096528181529394929383860193909291908301828280156200027457602002820191906000526020600020905b81546001600160a01b0316815260019091019060200180831162000255575b50505091909252505060405163aa5106cb60e01b815273__$a0fe38a9a81205afccc10810b09a4d3f45$__9263aa5106cb9250620002b791309060040162000983565b600060405180830381865af4158015620002d5573d6000803e3d6000fd5b505050506040513d6000823e601f3d908101601f19168201604052620002ff9190810190620009af565b6040516390ba52cf60e01b815273__$a0fe38a9a81205afccc10810b09a4d3f45$__916390ba52cf91620003379190600401620009ef565b602060405180830381865af415801562000355573d6000803e3d6000fd5b505050506040513d601f19601f820116820180604052508101906200037b919062000a0b565b6101a0525060018054600160401b600160801b0319169055600580546001600160401b031916905562000a25565b82805482825590600052602060002090810192821562000401579160200282015b828111156200040157825182546001600160a01b0319166001600160a01b03909116178255602090920191600190910190620003ca565b506200040f92915062000413565b5090565b5b808211156200040f576000815560010162000414565b634e487b7160e01b600052604160045260246000fd5b604080519081016001600160401b03811182821017156200046557620004656200042a565b60405290565b60405161014081016001600160401b03811182821017156200046557620004656200042a565b604051601f8201601f191681016001600160401b0381118282101715620004bc57620004bc6200042a565b604052919050565b80516001600160401b0381168114620004dc57600080fd5b919050565b80516001600160a01b0381168114620004dc57600080fd5b6000604082840312156200050c57600080fd5b6200051662000440565b90506200052382620004c4565b81526020828101516001600160401b03808211156200054157600080fd5b818501915085601f8301126200055657600080fd5b8151818111156200056b576200056b6200042a565b8060051b91506200057e84830162000491565b81815291830184019184810190888411156200059957600080fd5b938501935b83851015620005c257620005b285620004e1565b825293850193908501906200059e565b808688015250505050505092915050565b805160018110620004dc57600080fd5b805160ff81168114620004dc57600080fd5b600082601f8301126200060757600080fd5b81516001600160401b038111156200062357620006236200042a565b602062000639601f8301601f1916820162000491565b82815285828487010111156200064e57600080fd5b60005b838110156200066e57858101830151828201840152820162000651565b506000928101909101919091529392505050565b6000602082840312156200069557600080fd5b81516001600160401b0380821115620006ad57600080fd5b908301906101408286031215620006c357600080fd5b620006cd6200046b565b825182811115620006dd57600080fd5b620006eb87828601620004f9565b825250602083015160208201526200070660408401620004e1565b60408201526200071960608401620005d3565b6060820152608083015160808201526200073660a08401620004c4565b60a08201526200074960c08401620004c4565b60c08201526200075c60e08401620004c4565b60e082015261010062000771818501620005e3565b9082015261012083810151838111156200078a57600080fd5b6200079888828701620005f5565b918301919091525095945050505050565b634e487b7160e01b600052602160045260246000fd5b600181811c90821680620007d457607f821691505b602082108103620007f557634e487b7160e01b600052602260045260246000fd5b50919050565b601f8211156200084957600081815260208120601f850160051c81016020861015620008245750805b601f850160051c820191505b81811015620008455782815560010162000830565b5050505b505050565b81516001600160401b038111156200086a576200086a6200042a565b62000882816200087b8454620007bf565b84620007fb565b602080601f831160018114620008ba5760008415620008a15750858301515b600019600386901b1c1916600185901b17855562000845565b600085815260208120601f198616915b82811015620008eb57888601518255948401946001909101908401620008ca565b50858210156200090a5787850151600019600388901b60f8161c191681555b5050505050600190811b01905550565b80516001600160401b03168252602080820151604082850181905281519085018190526000929182019190839060608701905b80831015620009785784516001600160a01b031682529383019360019290920191908301906200094d565b509695505050505050565b6040815260006200099860408301856200091a565b905060018060a01b03831660208301529392505050565b600060208284031215620009c257600080fd5b81516001600160401b03811115620009d957600080fd5b620009e784828501620004f9565b949350505050565b60208152600062000a0460208301846200091a565b9392505050565b60006020828403121562000a1e57600080fd5b5051919050565b60805160a05160c05160e05161010051610120516101405161016051610180516101a0516164b262000b0a600039600081816107ed0152611f5a015260006102cb0152600061069f0152600081816108770152818161090701528181610b0701528181610bd50152818161151a015281816115f801528181611e5501526134ed01526000610821015260006102970152600061063301526000818161072d01528181611427015281816114d7015281816115bb0152611dfe0152600081816103b9015281816123ef0152613a730152600081816104fc0152613ac801526164b26000f3fe6080604052600436106102345760003560e01c806373f273fc1161012e578063a9fb763c116100ab578063cf3312501161006f578063cf33125014610843578063cfca282414610865578063d4e25bab14610899578063d66d9e19146108c7578063f6fd8381146108dc57600080fd5b8063a9fb763c14610779578063ad81e24414610799578063b7ab4db5146107b9578063c18f64aa146107db578063c5ab22411461080f57600080fd5b806391be4d41116100f257806391be4d41146106ce57806398903748146106ea5780639e33bd021461071b578063a1ada3031461074f578063a7f0b3de1461076457600080fd5b806373f273fc146105f45780637d9740f41461062157806380f76021146106555780638b0e9f3f146106775780638ef3f7611461068d57600080fd5b806326476204116101bc578063599c7bd111610180578063599c7bd1146104ea5780635f832dbf1461053057806366d7bbbc146105465780636cb2ecee146105b35780636cf6970a146105e157600080fd5b8063264762041461043657806332e0aa1f146104635780633ccfd60b1461049b57806341c0e1b5146104b057806351392fc0146104c557600080fd5b806310d500e11161020357806310d500e114610310578063133f74ea14610370578063185fde7e146103a7578063200d2ed2146103db57806323a357051461040957600080fd5b806304fda3d41461024857806306c468531461028557806306fdde03146102b95780630f43a677146102fb57600080fd5b36610243576102416108fc565b005b600080fd5b34801561025457600080fd5b50600554610268906001600160401b031681565b6040516001600160401b0390911681526020015b60405180910390f35b34801561029157600080fd5b506102687f000000000000000000000000000000000000000000000000000000000000000081565b3480156102c557600080fd5b506102ed7f000000000000000000000000000000000000000000000000000000000000000081565b60405190815260200161027c565b34801561030757600080fd5b506102ed610947565b34801561031c57600080fd5b50600254610346906001600160401b0380821691600160401b8104821691600160801b9091041683565b604080516001600160401b039485168152928416602084015292169181019190915260600161027c565b34801561037c57600080fd5b5061039061038b36600461402f565b610958565b60408051921515835260208301919091520161027c565b3480156103b357600080fd5b506102687f000000000000000000000000000000000000000000000000000000000000000081565b3480156103e757600080fd5b506005546103fc90600160401b900460ff1681565b60405161027c9190614062565b34801561041557600080fd5b50610429610424366004614091565b6109f1565b60405161027c91906140f4565b34801561044257600080fd5b506102ed610451366004614091565b600b6020526000908152604090205481565b34801561046f57600080fd5b5061048361047e366004614107565b610a8b565b6040516001600160a01b03909116815260200161027c565b3480156104a757600080fd5b50610241610a9e565b3480156104bc57600080fd5b50610241610b73565b3480156104d157600080fd5b50600154600160401b90046001600160401b0316610268565b3480156104f657600080fd5b5061051e7f000000000000000000000000000000000000000000000000000000000000000081565b60405160ff909116815260200161027c565b34801561053c57600080fd5b506102ed60065481565b34801561055257600080fd5b506105a3610561366004614120565b6001600160401b0382166000908152600a602090815260408083208054845260030182528083206001600160a01b038516845290915290205460ff1692915050565b604051901515815260200161027c565b3480156105bf57600080fd5b506105d36105ce36600461402f565b610c48565b60405161027c9291906143ba565b6102416105ef36600461446a565b611392565b34801561060057600080fd5b506102ed61060f366004614091565b600c6020526000908152604090205481565b34801561062d57600080fd5b506102687f000000000000000000000000000000000000000000000000000000000000000081565b34801561066157600080fd5b5061066a611672565b60405161027c9190614504565b34801561068357600080fd5b506102ed60045481565b34801561069957600080fd5b506106c17f000000000000000000000000000000000000000000000000000000000000000081565b60405161027c9190614517565b3480156106da57600080fd5b506102ed670de0b6b3a764000081565b3480156106f657600080fd5b5061070a61070536600461402f565b611707565b60405161027c95949392919061452b565b34801561072757600080fd5b506102ed7f000000000000000000000000000000000000000000000000000000000000000081565b34801561075b57600080fd5b5061051e600a81565b34801561077057600080fd5b50610429611844565b34801561078557600080fd5b50610241610794366004614107565b611851565b3480156107a557600080fd5b50600154610268906001600160401b031681565b3480156107c557600080fd5b506107ce61190e565b60405161027c9190614577565b3480156107e757600080fd5b506102ed7f000000000000000000000000000000000000000000000000000000000000000081565b34801561081b57600080fd5b506102687f000000000000000000000000000000000000000000000000000000000000000081565b34801561084f57600080fd5b506108586119b3565b60405161027c919061458a565b34801561087157600080fd5b506104837f000000000000000000000000000000000000000000000000000000000000000081565b3480156108a557600080fd5b506108b96108b4366004614091565b611caf565b60405161027c92919061464a565b3480156108d357600080fd5b50610241611d58565b3480156108e857600080fd5b506102416108f7366004614666565b611ed1565b336001600160a01b037f000000000000000000000000000000000000000000000000000000000000000016146109455760405163e7e601db60e01b815260040160405180910390fd5b565b60006109536008612183565b905090565b60008060008061096785610c48565b6040516339aa47fb60e01b81529193509150829073__$1cd67d4dc9e627f0bec7928aa480e7d951$__906339aa47fb906109a59085906004016148c8565b602060405180830381865af41580156109c2573d6000803e3d6000fd5b505050506040513d601f19601f820116820180604052508101906109e69190614965565b935093505050915091565b600d6020526000908152604090208054610a0a9061497e565b80601f0160208091040260200160405190810160405280929190818152602001828054610a369061497e565b8015610a835780601f10610a5857610100808354040283529160200191610a83565b820191906000526020600020905b815481529060010190602001808311610a6657829003601f168201915b505050505081565b6000610a9860088361218d565b92915050565b610aa66121a0565b336000908152600c602052604081205490819003610ad7576040516367300f9160e11b815260040160405180910390fd5b336000908152600c60205260408082209190915551631f0e077760e31b8152600481018290526001600160a01b037f0000000000000000000000000000000000000000000000000000000000000000169063f8703bb890602401600060405180830381600087803b158015610b4b57600080fd5b505af1158015610b5f573d6000803e3d6000fd5b50610b709250339150839050612230565b50565b610b7b6121a0565b610b836122d0565b610b8d6008612183565b151580610b9b575060045415155b15610bb957604051636b62255160e11b815260040160405180910390fd5b600580546003919060ff60401b1916600160401b8302179055507f00000000000000000000000000000000000000000000000000000000000000006001600160a01b03166341c0e1b56040518163ffffffff1660e01b8152600401600060405180830381600087803b158015610c2e57600080fd5b505af1158015610c42573d6000803e3d6000fd5b50505050565b6000610c986040805161012081018252600060e0820181815260606101008401819052908352602083018290529282018190528282018390526080820183905260a082015260c081019190915290565b6001600160401b03808416600090815260076020908152604091829020825161012081018452815490941660e0850190815260018201805485518186028101860190965280865292948694929386936101008701939190830182828015610d2857602002820191906000526020600020905b81546001600160a01b03168152600190910190602001808311610d0a575b50505050508152505081526020016002820160009054906101000a90046001600160401b03166001600160401b03166001600160401b031681526020016003820154815260200160048201805480602002602001604051908101604052809291908181526020016000905b828210156111325760008481526020908190206040805161018081018252600c860290920180546001600160401b031661014084019081526001820180548451818802810188018652818152959693958795860194879486946101008901948794869486936101608d01939091830182828015610e3957602002820191906000526020600020905b81546001600160a01b03168152600190910190602001808311610e1b575b5050509190925250505081526040805180820190915260028301805460ff16825260038401805460209485019484019190610e739061497e565b80601f0160208091040260200160405190810160405280929190818152602001828054610e9f9061497e565b8015610eec5780601f10610ec157610100808354040283529160200191610eec565b820191906000526020600020905b815481529060010190602001808311610ecf57829003601f168201915b505050919092525050509052508152604080516080810182526004840180546001600160401b0316828401908152600586018054855160208281028201810190975281815296860196949593948694869360608701939091830182828015610f7d57602002820191906000526020600020905b81546001600160a01b03168152600190910190602001808311610f5f575b5050509190925250505081526040805180820190915260028301805460ff16825260038401805460209485019484019190610fb79061497e565b80601f0160208091040260200160405190810160405280929190818152602001828054610fe39061497e565b80156110305780601f1061100557610100808354040283529160200191611030565b820191906000526020600020905b81548152906001019060200180831161101357829003601f168201915b5050509190925250505090525081526008820154602082015260098201546001600160401b0381166040830152600160401b900460e01b6001600160e01b0319166060820152600a8201805460809092019161108b9061497e565b80601f01602080910402602001604051908101604052809291908181526020018280546110b79061497e565b80156111045780601f106110d957610100808354040283529160200191611104565b820191906000526020600020905b8154815290600101906020018083116110e757829003601f168201915b505050919092525050508152600b919091015460ff1615156020918201529082526001929092019101610d93565b50505050815260200160058201805480602002602001604051908101604052809291908181526020016000905b82821015611269576000848152602090819020604080516080810182526003860290920180546001600160401b0316838301908152600182018054845181880281018801909552808552949592948694929386936060870193909290918301828280156111f557602002820191906000526020600020905b81546001600160a01b031681526001909101906020018083116111d7575b50505050508152505081526020016002820180548060200260200160405190810160405280929190818152602001828054801561125157602002820191906000526020600020905b81548152602001906001019080831161123d575b5050505050815250508152602001906001019061115f565b5050505081526020016006820154815260200160078201805461128b9061497e565b80601f01602080910402602001604051908101604052809291908181526020018280546112b79061497e565b80156113045780601f106112d957610100808354040283529160200191611304565b820191906000526020600020905b8154815290600101906020018083116112e757829003601f168201915b5050509190925250508151604051630c133d1360e31b815292935073__$a0fe38a9a81205afccc10810b09a4d3f45$__92636099e898925061134991906004016149b8565b602060405180830381865af4158015611366573d6000803e3d6000fd5b505050506040513d601f19601f8201168201806040525081019061138a91906149d9565b159150915091565b61139a6121a0565b6113a26122d0565b343360008290036113c657604051635a78c58160e11b815260040160405180910390fd5b6001600160a01b0381166000908152600b6020526040812080548492906113ee908490614a0c565b9250508190555081600460008282546114079190614a0c565b90915550506001600160a01b0381166000908152600b60205260409020547f0000000000000000000000000000000000000000000000000000000000000000116114b15761145660088261230e565b6114b157611465600882612330565b506001600160a01b0381166000908152600d60205260409020611489858783614a9c565b506001600160a01b0381166000908152600e6020526040902083906114ae8282614bb1565b50505b6005808054600160401b900460ff16908111156114d0576114d061404c565b03611594577f00000000000000000000000000000000000000000000000000000000000000006004541061158f57600580546001919060ff60401b1916600160401b8302179055507f00000000000000000000000000000000000000000000000000000000000000006001600160a01b0316631aa3a0086004546040518263ffffffff1660e01b81526004016000604051808303818588803b15801561157557600080fd5b505af1158015611589573d6000803e3d6000fd5b50505050505b61166b565b600260058054600160401b900460ff16908111156115b4576115b461404c565b036115f6577f0000000000000000000000000000000000000000000000000000000000000000600454106115f6576005805460ff60401b1916600160401b1790555b7f00000000000000000000000000000000000000000000000000000000000000006001600160a01b0316635a627dbc836040518263ffffffff1660e01b81526004016000604051808303818588803b15801561165157600080fd5b505af1158015611665573d6000803e3d6000fd5b50505050505b5050505050565b604080518082019091526000815260606020820152604080518082018252600f80546001600160401b031682526010805484516020828102820181019096528181529394929383860193909291908301828280156116f957602002820191906000526020600020905b81546001600160a01b031681526001909101906020018083116116db575b505050505081525050905090565b6007602090815260009182526040918290208251808401845281546001600160401b0316815260018201805485518186028101860190965280865292949193859385820193929183018282801561178757602002820191906000526020600020905b81546001600160a01b03168152600190910190602001808311611769575b5050509190925250505060028201546003830154600684015460078501805494956001600160401b0390941694929391926117c19061497e565b80601f01602080910402602001604051908101604052809291908181526020018280546117ed9061497e565b801561183a5780601f1061180f5761010080835404028352916020019161183a565b820191906000526020600020905b81548152906001019060200180831161181d57829003601f168201915b5050505050905085565b60118054610a0a9061497e565b6118596108fc565b60006118656008612183565b9050806000036118885760405163efa9c8f160e01b815260040160405180910390fd5b808210156118a957604051633074cabf60e11b815260040160405180910390fd5b60006118b58284614cac565b905060005b82811015610c425781600c60006118d260088561218d565b6001600160a01b03166001600160a01b0316815260200190815260200160002060008282546119019190614a0c565b90915550506001016118ba565b6060600061191c6008612183565b90506000816001600160401b0381111561193857611938614a1f565b604051908082528060200260200182016040528015611961578160200160208202803683370190505b50905060005b828110156119ac5761197a60088261218d565b82828151811061198c5761198c614cc0565b6001600160a01b0390921660209283029190910190910152600101611967565b5092915050565b60408051808201909152606081526000602082015260006119d46008612183565b90506000816001600160401b038111156119f0576119f0614a1f565b604051908082528060200260200182016040528015611a5557816020015b60408051608081018252600080825260208083018290528351808501855291825260609082018190529282015281810191909152815260200190600190039081611a0e5790505b50905060005b82811015611c8a57604080516080810190915280611a7a60088461218d565b6001600160a01b03168152602001600b6000611a9760088661218d565b6001600160a01b03166001600160a01b03168152602001908152602001600020548152602001600e6000611ad585600861218d90919063ffffffff16565b6001600160a01b0316815260208082019290925260409081016000208151808301909252805460ff1682526001810180549293919291840191611b179061497e565b80601f0160208091040260200160405190810160405280929190818152602001828054611b439061497e565b8015611b905780601f10611b6557610100808354040283529160200191611b90565b820191906000526020600020905b815481529060010190602001808311611b7357829003601f168201915b505050919092525050508152602001600d6000611bae60088661218d565b6001600160a01b03166001600160a01b031681526020019081526020016000208054611bd99061497e565b80601f0160208091040260200160405190810160405280929190818152602001828054611c059061497e565b8015611c525780601f10611c2757610100808354040283529160200191611c52565b820191906000526020600020905b815481529060010190602001808311611c3557829003601f168201915b5050505050815250828281518110611c6c57611c6c614cc0565b60200260200101819052508080611c8290614cd6565b915050611a5b565b50604080518082019091529081526005546001600160401b0316602082015292915050565b600e602052600090815260409020805460018201805460ff9092169291611cd59061497e565b80601f0160208091040260200160405190810160405280929190818152602001828054611d019061497e565b8015611d4e5780601f10611d2357610100808354040283529160200191611d4e565b820191906000526020600020905b815481529060010190602001808311611d3157829003601f168201915b5050505050905082565b611d60612345565b611d686121a0565b611d706122d0565b336000908152600b602052604081205490819003611da157604051632ec5b44960e01b815260040160405180910390fd5b336000908152600b6020526040812081905560048054839290611dc5908490614cef565b90915550611dd6905060083361236f565b50600160058054600160401b900460ff1690811115611df757611df761404c565b03611e3f577f00000000000000000000000000000000000000000000000000000000000000006004541015611e3f576005805460ff60401b1916680200000000000000001790555b6040516345f5448560e01b8152600481018290527f00000000000000000000000000000000000000000000000000000000000000006001600160a01b0316906345f5448590602401600060405180830381600087803b158015611ea157600080fd5b505af1158015611eb5573d6000803e3d6000fd5b50611ec69250339150839050612230565b506109456001600055565b611ed96121a0565b611ee9604082016020830161402f565b611ef281612384565b600160058054600160401b900460ff1690811115611f1257611f1261404c565b14611f305760405163c18316bf60e01b815260040160405180910390fd5b611f3b60083361230e565b611f5857604051632ec5b44960e01b815260040160405180910390fd5b7f0000000000000000000000000000000000000000000000000000000000000000611f838380614d02565b611f8c90614e9e565b6040516390ba52cf60e01b815273__$a0fe38a9a81205afccc10810b09a4d3f45$__916390ba52cf91611fc291906004016149b8565b602060405180830381865af4158015611fdf573d6000803e3d6000fd5b505050506040513d601f19601f820116820180604052508101906120039190614965565b14612021576040516375ecc72d60e01b815260040160405180910390fd5b73__$33b79814e84bf6cf5e47244090b19ce5f8$__63898414756120486060850185614eaa565b6040518363ffffffff1660e01b81526004016120659291906150c3565b602060405180830381865af4158015612082573d6000803e3d6000fd5b505050506040513d601f19601f820116820180604052508101906120a691906149d9565b6120c357604051630bd9169f60e01b815260040160405180910390fd5b6000600a816120d8604086016020870161402f565b6001600160401b03166001600160401b031681526020019081526020016000209050600061212d828533600b6000336001600160a01b03166001600160a01b031681526020019081526020016000205461245a565b905080156121435761213e82612c1a565b610c42565b60008061214e613550565b91509150801561217b576001600160401b0382166000908152600a6020526040902061217981612c1a565b505b505050505050565b6000610a98825490565b60006121998383613574565b9392505050565b604051630972932760e21b815233600482015273__$e800e3908cdbb6b1b5bd452383a17b18f7$__906325ca4c9c90602401602060405180830381865af41580156121ef573d6000803e3d6000fd5b505050506040513d601f19601f8201168201806040525081019061221391906149d9565b6109455760405163b7150de560e01b815260040160405180910390fd5b804710156122575760405163cd78605960e01b815230600482015260240160405180910390fd5b6000826001600160a01b03168260405160006040518083038185875af1925050503d80600081146122a4576040519150601f19603f3d011682016040523d82523d6000602084013e6122a9565b606091505b50509050806122cb57604051630a12f52160e11b815260040160405180910390fd5b505050565b600360058054600160401b900460ff16908111156122f0576122f061404c565b036109455760405163248c8efb60e11b815260040160405180910390fd5b6001600160a01b03811660009081526001830160205260408120541515612199565b6000612199836001600160a01b03841661359e565b60026000540361236857604051633ee5aeb560e01b815260040160405180910390fd5b6002600055565b6000612199836001600160a01b0384166135ed565b6001546001600160401b03908116908216116123b357604051631f30cc6360e21b815260040160405180910390fd5b6001546001600160401b03600160401b909104811690821610156123ea5760405163b4f68f9760e01b815260040160405180910390fd5b6001547f00000000000000000000000000000000000000000000000000000000000000009061242990600160401b90046001600160401b031683615206565b6124339190615226565b6001600160401b031615610b705760405163b4f68f9760e01b815260040160405180910390fd5b6000806124668561561e565b6040516339aa47fb60e01b815273__$1cd67d4dc9e627f0bec7928aa480e7d951$__916339aa47fb9161249c91906004016148c8565b602060405180830381865af41580156124b9573d6000803e3d6000fd5b505050506040513d601f19601f820116820180604052508101906124dd9190614965565b90506124fe868286866124f660408b0160208c0161402f565b6004546136e0565b600082815260058801602090815260409182902082516101208101845281546001600160401b031660e082019081526001830180548651818702810187019097528087529698509195929486949193869361010087019390919083018282801561259157602002820191906000526020600020905b81546001600160a01b03168152600190910190602001808311612573575b50505050508152505081526020016002820160009054906101000a90046001600160401b03166001600160401b03166001600160401b031681526020016003820154815260200160048201805480602002602001604051908101604052809291908181526020016000905b8282101561299b5760008481526020908190206040805161018081018252600c860290920180546001600160401b031661014084019081526001820180548451818802810188018652818152959693958795860194879486946101008901948794869486936101608d019390918301828280156126a257602002820191906000526020600020905b81546001600160a01b03168152600190910190602001808311612684575b5050509190925250505081526040805180820190915260028301805460ff168252600384018054602094850194840191906126dc9061497e565b80601f01602080910402602001604051908101604052809291908181526020018280546127089061497e565b80156127555780601f1061272a57610100808354040283529160200191612755565b820191906000526020600020905b81548152906001019060200180831161273857829003601f168201915b505050919092525050509052508152604080516080810182526004840180546001600160401b03168284019081526005860180548551602082810282018101909752818152968601969495939486948693606087019390918301828280156127e657602002820191906000526020600020905b81546001600160a01b031681526001909101906020018083116127c8575b5050509190925250505081526040805180820190915260028301805460ff168252600384018054602094850194840191906128209061497e565b80601f016020809104026020016040519081016040528092919081815260200182805461284c9061497e565b80156128995780601f1061286e57610100808354040283529160200191612899565b820191906000526020600020905b81548152906001019060200180831161287c57829003601f168201915b5050509190925250505090525081526008820154602082015260098201546001600160401b0381166040830152600160401b900460e01b6001600160e01b0319166060820152600a820180546080909201916128f49061497e565b80601f01602080910402602001604051908101604052809291908181526020018280546129209061497e565b801561296d5780601f106129425761010080835404028352916020019161296d565b820191906000526020600020905b81548152906001019060200180831161295057829003601f168201915b505050919092525050508152600b919091015460ff16151560209182015290825260019290920191016125fc565b50505050815260200160058201805480602002602001604051908101604052809291908181526020016000905b82821015612ad2576000848152602090819020604080516080810182526003860290920180546001600160401b031683830190815260018201805484518188028101880190955280855294959294869492938693606087019390929091830182828015612a5e57602002820191906000526020600020905b81546001600160a01b03168152600190910190602001808311612a40575b505050505081525050815260200160028201805480602002602001604051908101604052809291908181526020018280548015612aba57602002820191906000526020600020905b815481526020019060010190808311612aa6575b505050505081525050815260200190600101906129c8565b50505050815260200160068201548152602001600782018054612af49061497e565b80601f0160208091040260200160405190810160405280929190818152602001828054612b209061497e565b8015612b6d5780601f10612b4257610100808354040283529160200191612b6d565b820191906000526020600020905b815481529060010190602001808311612b5057829003601f168201915b5050509190925250506040516322ea8d8960e11b815273__$1cd67d4dc9e627f0bec7928aa480e7d951$__926345d51b129250612bac916004016148c8565b602060405180830381865af4158015612bc9573d6000803e3d6000fd5b505050506040513d601f19601f82011682018060405250810190612bed91906149d9565b15612c1157600081815260058701602052604090208590612c0e8282615f17565b50505b50949350505050565b600281015460009081526005820160205260409020600680820154905414612d1357604051635a27a53960e11b81526004810183905273__$e0f829f5071d7e628aa77eca0c12e35bc2$__9063b44f4a729060240160006040518083038186803b158015612c8757600080fd5b505af4158015612c9b573d6000803e3d6000fd5b505050506002818101546040516394ecccfd60e01b815260048101929092526001600160401b0316602482015273__$b7b8687e33476c74e3b4e0a64c4768a343$__906394ecccfd9060440160006040518083038186803b158015612cff57600080fd5b505af415801561217b573d6000803e3d6000fd5b6002810154612d2a906001600160401b031661391b565b60028101546001600160401b039081166000908152600760205260409020825481546001600160401b03191692169190911781556001808301805484939284928492612d799284019190613bd1565b50505060028281015490820180546001600160401b0319166001600160401b039092169190911790556003808301549082015560048083018054612dc09284019190613c21565b5060058281018054612dd59284019190613de7565b506006820154816006015560078201816007019081612df49190616046565b5050604080516101208101825283546001600160401b031660e0820190815260018501805484516020828102820181019096528181529395508694869486936101008701939192909190830182828015612e7757602002820191906000526020600020905b81546001600160a01b03168152600190910190602001808311612e59575b50505050508152505081526020016002820160009054906101000a90046001600160401b03166001600160401b03166001600160401b031681526020016003820154815260200160048201805480602002602001604051908101604052809291908181526020016000905b828210156132815760008481526020908190206040805161018081018252600c860290920180546001600160401b031661014084019081526001820180548451818802810188018652818152959693958795860194879486946101008901948794869486936101608d01939091830182828015612f8857602002820191906000526020600020905b81546001600160a01b03168152600190910190602001808311612f6a575b5050509190925250505081526040805180820190915260028301805460ff16825260038401805460209485019484019190612fc29061497e565b80601f0160208091040260200160405190810160405280929190818152602001828054612fee9061497e565b801561303b5780601f106130105761010080835404028352916020019161303b565b820191906000526020600020905b81548152906001019060200180831161301e57829003601f168201915b505050919092525050509052508152604080516080810182526004840180546001600160401b03168284019081526005860180548551602082810282018101909752818152968601969495939486948693606087019390918301828280156130cc57602002820191906000526020600020905b81546001600160a01b031681526001909101906020018083116130ae575b5050509190925250505081526040805180820190915260028301805460ff168252600384018054602094850194840191906131069061497e565b80601f01602080910402602001604051908101604052809291908181526020018280546131329061497e565b801561317f5780601f106131545761010080835404028352916020019161317f565b820191906000526020600020905b81548152906001019060200180831161316257829003601f168201915b5050509190925250505090525081526008820154602082015260098201546001600160401b0381166040830152600160401b900460e01b6001600160e01b0319166060820152600a820180546080909201916131da9061497e565b80601f01602080910402602001604051908101604052809291908181526020018280546132069061497e565b80156132535780601f1061322857610100808354040283529160200191613253565b820191906000526020600020905b81548152906001019060200180831161323657829003601f168201915b505050919092525050508152600b919091015460ff1615156020918201529082526001929092019101612ee2565b50505050815260200160058201805480602002602001604051908101604052809291908181526020016000905b828210156133b8576000848152602090819020604080516080810182526003860290920180546001600160401b03168383019081526001820180548451818802810188019095528085529495929486949293869360608701939092909183018282801561334457602002820191906000526020600020905b81546001600160a01b03168152600190910190602001808311613326575b5050505050815250508152602001600282018054806020026020016040519081016040528092919081815260200182805480156133a057602002820191906000526020600020905b81548152602001906001019080831161338c575b505050505081525050815260200190600101906132ae565b505050508152602001600682015481526020016007820180546133da9061497e565b80601f01602080910402602001604051908101604052809291908181526020018280546134069061497e565b80156134535780601f1061342857610100808354040283529160200191613453565b820191906000526020600020905b81548152906001019060200180831161343657829003601f168201915b5050509190925250506040516339aa47fb60e01b815273__$1cd67d4dc9e627f0bec7928aa480e7d951$__926339aa47fb9250613492916004016148c8565b602060405180830381865af41580156134af573d6000803e3d6000fd5b505050506040513d601f19601f820116820180604052508101906134d39190614965565b600655604051631a9c293560e31b81526001600160a01b037f0000000000000000000000000000000000000000000000000000000000000000169063d4e149a8906135229084906004016163b6565b600060405180830381600087803b15801561353c57600080fd5b505af115801561217b573d6000803e3d6000fd5b600254600160401b90046001600160401b0316600061356e82613a67565b90509091565b600082600001828154811061358b5761358b614cc0565b9060005260206000200154905092915050565b60008181526001830160205260408120546135e557508154600181810184556000848152602080822090930184905584548482528286019093526040902091909155610a98565b506000610a98565b600081815260018301602052604081205480156136d6576000613611600183614cef565b855490915060009061362590600190614cef565b905081811461368a57600086600001828154811061364557613645614cc0565b906000526020600020015490508087600001848154811061366857613668614cc0565b6000918252602080832090910192909255918252600188019052604090208390555b855486908061369b5761369b616446565b600190038181906000526020600020016000905590558560010160008681526020019081526020016000206000905560019350505050610a98565b6000915050610a98565b8554600081815260038801602090815260408083206001600160a01b038916845290915281205490919060ff161561372b576040516337138f5f60e11b815260040160405180910390fd5b600081815260038901602090815260408083206001600160a01b038a1684529091528120805460ff191660019081179091558901805487929061376f908490614a0c565b9091555050600081815260048901602090815260408083208a84529091528120805487929061379f908490614a0c565b90915550506000818152600489016020908152604080832060028c0154845290915280822054898352912054808210156137db5760028a018990555b60006137e78b87613abc565b905060038160038111156137fd576137fd61404c565b036138905761380b87613a67565b15613819576001945061390d565b60405163199b9ca560e01b8152600260048201526001600160401b038816602482015273__$b7b8687e33476c74e3b4e0a64c4768a343$__9063199b9ca59060440160006040518083038186803b15801561387357600080fd5b505af4158015613887573d6000803e3d6000fd5b5050505061390d565b60028160038111156138a4576138a461404c565b0361390d57604051635a27a53960e11b8152600481018c905273__$e0f829f5071d7e628aa77eca0c12e35bc2$__9063b44f4a729060240160006040518083038186803b1580156138f457600080fd5b505af4158015613908573d6000803e3d6000fd5b505050505b505050509695505050505050565b61392481613a67565b61392b5750565b604051634953836d60e11b8152600260048201526001600160401b038216602482015273__$b7b8687e33476c74e3b4e0a64c4768a343$__906392a706da90604401602060405180830381865af415801561398a573d6000803e3d6000fd5b505050506040513d601f19601f820116820180604052508101906139ae91906149d9565b156139d2576002546001600160401b03828116600160401b90920416146139d25750565b6040516394ecccfd60e01b8152600260048201526001600160401b038216602482015273__$b7b8687e33476c74e3b4e0a64c4768a343$__906394ecccfd9060440160006040518083038186803b158015613a2c57600080fd5b505af4158015613a40573d6000803e3d6000fd5b5050600180546001600160401b0319166001600160401b0394909416939093179092555050565b600154600090613aa1907f0000000000000000000000000000000000000000000000000000000000000000906001600160401b031661645c565b6001600160401b0316826001600160401b0316149050919050565b6000806064613aee60ff7f00000000000000000000000000000000000000000000000000000000000000001685615706565b613af89190614cac565b604051637d2ef4e560e11b81526004810186905290915060009073__$e0f829f5071d7e628aa77eca0c12e35bc2$__9063fa5de9ca90602401602060405180830381865af4158015613b4e573d6000803e3d6000fd5b505050506040513d601f19601f82011682018060405250810190613b729190614965565b905081856001015411613b8a57600092505050610a98565b81811115613b9d57600392505050610a98565b6001850154613bac9085614cef565b613bb68284614cef565b10613bc657600292505050610a98565b506001949350505050565b828054828255906000526020600020908101928215613c115760005260206000209182015b82811115613c11578254825591600101919060010190613bf6565b50613c1d929150613e87565b5090565b82805482825590600052602060002090600c028101928215613ddb57600052602060002091600c0282015b82811115613ddb57825482546001600160401b0319166001600160401b039091161782556001808401805485928592849284928492849284928492613c949291840191613bd1565b50505060028281018054918301805460ff191660ff90931692909217825590600380840190613cc590860182616046565b505050506004838101805491840180546001600160401b0319166001600160401b039093169290921782556005808601805492945084928492613d0b9290880191613bd1565b50505060028281018054918301805460ff191660ff90931692909217825590600380840190613d3c90860182616046565b5050505060088381015490830155506009808301805491830180546001600160401b031981166001600160401b039094169384178255915463ffffffff600160401b9182900416026bffffffffffffffffffffffff19909216909217179055600a80820190613dad90840182616046565b505050600b918201549101805460ff191660ff9092161515919091179055600c928301929190910190613c4c565b50613c1d929150613e9c565b828054828255906000526020600020906003028101928215613e7b5760005260206000209160030282015b82811115613e7b57825482546001600160401b0319166001600160401b03909116178255600180840180548592859284928492613e529290840191613bd1565b50505060028281018054613e699284019190613bd1565b50505091600301919060030190613e12565b50613c1d929150613f71565b5b80821115613c1d5760008155600101613e88565b80821115613c1d5780546001600160401b03191681556000818181818181613ec76001830182613fb2565b505060028201805460ff191681556000613ee46003850182613fd0565b505050506004820180546001600160401b031916815560008181613f0b6005870182613fb2565b505060028201805460ff191681556000613f286003850182613fd0565b50506000600885018190556009850180546bffffffffffffffffffffffff19169055613f5a9250600a85019150613fd0565b505050600b8101805460ff19169055600c01613e9c565b80821115613c1d5780546001600160401b031916815560008181613f986001830182613fb2565b50613fa99050600283016000613fb2565b50600301613f71565b5080546000825590600052602060002090810190610b709190613e87565b508054613fdc9061497e565b6000825580601f10613fec575050565b601f016020900490600052602060002090810190610b709190613e87565b6001600160401b0381168114610b7057600080fd5b803561402a8161400a565b919050565b60006020828403121561404157600080fd5b81356121998161400a565b634e487b7160e01b600052602160045260246000fd5b60208101600683106140765761407661404c565b91905290565b6001600160a01b0381168114610b7057600080fd5b6000602082840312156140a357600080fd5b81356121998161407c565b6000815180845260005b818110156140d4576020818501810151868301820152016140b8565b506000602082860101526020601f19601f83011685010191505092915050565b60208152600061219960208301846140ae565b60006020828403121561411957600080fd5b5035919050565b6000806040838503121561413357600080fd5b823561413e8161400a565b9150602083013561414e8161407c565b809150509250929050565b600081518084526020808501945080840160005b838110156141925781516001600160a01b03168752958201959082019060010161416d565b509495945050505050565b6001600160401b03815116825260006020820151604060208501526141c56040850182614159565b949350505050565b60ff815116825260006020820151604060208501526141c560408501826140ae565b6000815160408452614204604085018261419d565b90506020830151848203602086015261421d82826141cd565b95945050505050565b600081518084526020808501808196508360051b8101915082860160005b8581101561430d578284038952815160408151818752805160c080848a01526142716101008a01836141ef565b915089830151603f196060818c860301818d015261428f85846141ef565b9686015160808d810191909152908601516001600160401b031660a0808e0191909152908601516001600160e01b031916938c0193909352918401518a860390920160e08b0152509290506142e481846140ae565b93890151801515898b01529392506142fa915050565b9986019994505090840190600101614244565b5091979650505050505050565b600081518084526020808501808196508360051b810191508286016000805b868110156143ac578385038a5282516040815181885261435b8289018261419d565b92890151888403898b01528051808552908a01938693508a0191505b808310156143975783518252928901926001929092019190890190614377565b509b88019b9650505091850191600101614339565b509298975050505050505050565b8215158152604060208201526000825160e060408401526143df61012084018261419d565b90506001600160401b036020850151166060840152604084015160808401526060840151603f19808584030160a086015261441a8383614226565b925060808601519150808584030160c0860152614437838361431a565b925060a086015160e086015260c0860151915080858403016101008601525061446082826140ae565b9695505050505050565b60008060006040848603121561447f57600080fd5b83356001600160401b038082111561449657600080fd5b818601915086601f8301126144aa57600080fd5b8135818111156144b957600080fd5b8760208285010111156144cb57600080fd5b6020928301955093509085013590808211156144e657600080fd5b508401604081870312156144f957600080fd5b809150509250925092565b602081526000612199602083018461419d565b60208101600183106140765761407661404c565b60a08152600061453e60a083018861419d565b6001600160401b0387166020840152856040840152846060840152828103608084015261456b81856140ae565b98975050505050505050565b6020815260006121996020830184614159565b600060208083526060808401855160408085880152828251808552608094508489019150848160051b8a0101878501945060005b82811015614628578a8203607f19018452855180516001600160a01b03168352898101518a840152858101518684018990526145fc898501826141cd565b918a0151848303858c015291905061461481836140ae565b978b0197958b0195935050506001016145be565b50968a01516001600160401b038116848b0152969a9950505050505050505050565b60ff831681526040602082015260006141c560408301846140ae565b60006020828403121561467857600080fd5b81356001600160401b0381111561468e57600080fd5b820160e0818503121561219957600080fd5b6000604083016001600160401b0383511684526020808401516040828701528281518085526060880191508383019450600092505b808310156146fe5784516001600160a01b031682529383019360019290920191908301906146d5565b509695505050505050565b600081516040845261471e60408501826146a0565b90506020830151848203602086015260ff8151168252602081015190506040602083015261421d60408301826140ae565b600081518084526020808501808196508360051b8101915082860160005b8581101561430d578284038952815160408151818752805160c080848a015261479a6101008a0183614709565b915089830151603f196060818c860301818d01526147b88584614709565b9686015160808d810191909152908601516001600160401b031660a0808e0191909152908601516001600160e01b031916938c0193909352918401518a860390920160e08b01525092905061480d81846140ae565b93890151801515898b0152939250614823915050565b998601999450509084019060010161476d565b600081518084526020808501808196508360051b810191508286016000805b868110156143ac578385038a52825160408151818852614877828901826146a0565b92890151888403898b01528051808552908a01938693508a0191505b808310156148b35783518252928901926001929092019190890190614893565b509b88019b9650505091850191600101614855565b602081526000825160e060208401526148e56101008401826146a0565b90506001600160401b036020850151166040840152604084015160608401526060840151601f1980858403016080860152614920838361474f565b925060808601519150808584030160a086015261493d8383614836565b925060a086015160c086015260c08601519150808584030160e08601525061421d82826140ae565b60006020828403121561497757600080fd5b5051919050565b600181811c9082168061499257607f821691505b6020821081036149b257634e487b7160e01b600052602260045260246000fd5b50919050565b60208152600061219960208301846146a0565b8015158114610b7057600080fd5b6000602082840312156149eb57600080fd5b8151612199816149cb565b634e487b7160e01b600052601160045260246000fd5b80820180821115610a9857610a986149f6565b634e487b7160e01b600052604160045260246000fd5b5b81811015614a4a5760008155600101614a36565b5050565b601f8211156122cb57806000526020600020601f840160051c81016020851015614a755750805b61166b601f850160051c830182614a35565b600019600383901b1c191660019190911b1790565b6001600160401b03831115614ab357614ab3614a1f565b614ac783614ac1835461497e565b83614a4e565b6000601f841160018114614af55760008515614ae35750838201355b614aed8682614a87565b84555061166b565b600083815260209020601f19861690835b82811015614b265786850135825560209485019460019092019101614b06565b5086821015614b435760001960f88860031b161c19848701351681555b505060018560011b0183555050505050565b60ff81168114610b7057600080fd5b6000808335601e19843603018112614b7b57600080fd5b8301803591506001600160401b03821115614b9557600080fd5b602001915036819003821315614baa57600080fd5b9250929050565b8135614bbc81614b55565b60ff811660ff198354161782555060018082016020614bdd81860186614b64565b6001600160401b03811115614bf457614bf4614a1f565b614c0881614c02865461497e565b86614a4e565b6000601f821160018114614c365760008315614c245750838201355b614c2e8482614a87565b875550614c8b565b600086815260209020601f19841690835b82811015614c645786850135825593870193908901908701614c47565b5084821015614c815760001960f88660031b161c19848701351681555b50508683881b0186555b505050505050505050565b634e487b7160e01b600052601260045260246000fd5b600082614cbb57614cbb614c96565b500490565b634e487b7160e01b600052603260045260246000fd5b600060018201614ce857614ce86149f6565b5060010190565b81810381811115610a9857610a986149f6565b60008235603e19833603018112614d1857600080fd5b9190910192915050565b604080519081016001600160401b0381118282101715614d4457614d44614a1f565b60405290565b60405160c081016001600160401b0381118282101715614d4457614d44614a1f565b60405160e081016001600160401b0381118282101715614d4457614d44614a1f565b604051601f8201601f191681016001600160401b0381118282101715614db657614db6614a1f565b604052919050565b60006001600160401b03821115614dd757614dd7614a1f565b5060051b60200190565b600060408284031215614df357600080fd5b614dfb614d22565b90508135614e088161400a565b81526020828101356001600160401b03811115614e2457600080fd5b8301601f81018513614e3557600080fd5b8035614e48614e4382614dbe565b614d8e565b81815260059190911b82018301908381019087831115614e6757600080fd5b928401925b82841015614e8e578335614e7f8161407c565b82529284019290840190614e6c565b8085870152505050505092915050565b6000610a983683614de1565b6000808335601e19843603018112614ec157600080fd5b8301803591506001600160401b03821115614edb57600080fd5b6020019150600581901b3603821315614baa57600080fd5b60008235603e19833603018112614f0957600080fd5b90910192915050565b6000808335601e19843603018112614f2957600080fd5b83016020810192503590506001600160401b03811115614f4857600080fd5b803603821315614baa57600080fd5b81835281816020850137506000828201602090810191909152601f909101601f19169091010190565b60008135614f8d81614b55565b60ff168352614f9f6020830183614f12565b6040602086015261421d604086018284614f57565b6000614fc08283614ef3565b60408452608084018135614fd38161400a565b6001600160401b0390811660408701526020908382013536859003601e19018112614ffd57600080fd5b9093018181019390358181111561501357600080fd5b8060051b360385131561502557600080fd5b60406060890152928390525060009160a08701905b8084101561506c57843561504d8161407c565b6001600160a01b0316825293820193600193909301929082019061503a565b5061507982870187614ef3565b93508681038288015261508c8185614f80565b979650505050505050565b6001600160e01b031981168114610b7057600080fd5b803561402a81615097565b803561402a816149cb565b60208082528181018390526000906040808401600586901b850182018785805b898110156151f757603f19808a86030186526150ff848d614ef3565b803560be19823603018112615112578485fd5b88875281016151218180614ef3565b60c0808b8a01526151366101008a0183614fb4565b91506151448c840184614ef3565b6060868b850301818c01526151598483614fb4565b9350608091508c850135828c01528085013590506151768161400a565b60a06001600160401b038216818d015282860135925061519583615097565b6001600160e01b031983168c8501526151b086820187614f12565b96509350505050848983030160e08a01526151cc828483614f57565b94505050506151dc8982016150b8565b151595890195909552948701949350918601916001016150e3565b50919998505050505050505050565b6001600160401b038281168282160390808211156119ac576119ac6149f6565b60006001600160401b038084168061524057615240614c96565b92169190910692915050565b600082601f83011261525d57600080fd5b81356001600160401b0381111561527657615276614a1f565b615289601f8201601f1916602001614d8e565b81815284602083860101111561529e57600080fd5b816020850160208301376000918101602001919091529392505050565b6000604082840312156152cd57600080fd5b6152d5614d22565b905081356001600160401b03808211156152ee57600080fd5b6152fa85838601614de1565b8352602084013591508082111561531057600080fd5b908301906040828603121561532457600080fd5b61532c614d22565b823561533781614b55565b815260208301358281111561534b57600080fd5b6153578782860161524c565b60208301525080602085015250505092915050565b600082601f83011261537d57600080fd5b8135602061538d614e4383614dbe565b82815260059290921b840181019181810190868411156153ac57600080fd5b8286015b848110156146fe5780356001600160401b03808211156153cf57600080fd5b90880190601f196040838c03820112156153e857600080fd5b6153f0614d22565b878401358381111561540157600080fd5b840160c0818e038401121561541557600080fd5b61541d614d4a565b9250888101358481111561543057600080fd5b61543e8e8b838501016152bb565b84525060408101358481111561545357600080fd5b6154618e8b838501016152bb565b8a850152506060810135604084015261547c6080820161401f565b606084015261548d60a082016150ad565b608084015260c0810135848111156154a457600080fd5b6154b28e8b8385010161524c565b60a085015250508181526154c8604085016150b8565b8189015286525050509183019183016153b0565b600082601f8301126154ed57600080fd5b813560206154fd614e4383614dbe565b828152600592831b850182019282820191908785111561551c57600080fd5b8387015b858110156156115780356001600160401b03808211156155405760008081fd5b908901906040828c03601f190181131561555a5760008081fd5b615562614d22565b88840135838111156155745760008081fd5b6155828e8b83880101614de1565b82525081840135838111156155975760008081fd5b8085019450508c603f8501126155af57600092508283fd5b8884013592506155c1614e4384614dbe565b83815292861b8401820192898101908e8511156155de5760008081fd5b948301945b848610156155fc5785358252948a0194908a01906155e3565b828b0152508752505050928401928401615520565b5090979650505050505050565b600060e0823603121561563057600080fd5b615638614d6c565b82356001600160401b038082111561564f57600080fd5b61565b36838701614de1565b83526156696020860161401f565b602084015260408501356040840152606085013591508082111561568c57600080fd5b6156983683870161536c565b606084015260808501359150808211156156b157600080fd5b6156bd368387016154dc565b608084015260a085013560a084015260c08501359150808211156156e057600080fd5b506156ed3682860161524c565b60c08301525092915050565b60008135610a988161400a565b8082028115828204841417610a9857610a986149f6565b8054600082558015614a4a578160005260206000206122cb82820182614a35565b600160401b82111561575257615752614a1f565b8054828255808310156122cb57816000526020600020610c42828201858301614a35565b60008155610b706001820161571d565b615790815461497e565b8015614a4a57601f8111600181146157aa57505060009055565b8260005260206000206157c8601f840160051c820160018301614a35565b60008085559055505050565b600081556157e46001820161571d565b60006002820155610b7060038201615786565b6158018283614d02565b803561580c8161400a565b82546001600160401b0319166001600160401b038216178355506001808301602061583981850185614eaa565b94506001600160401b038086111561585357615853614a1f565b61585d868561573e565b600093845282842093805b8781101561588a57833561587b8161407c565b86820155928401928601615868565b5060028801965061589d848a018a614d02565b9450843592506158ac83614b55565b865460ff191660ff84161790965560038701956158cb85850186614b64565b95509250818511156158df576158df614a1f565b6158f3856158ed895461497e565b89614a4e565b809150601f8511600181146159215781861561590f5750838301355b6159198782614a87565b895550611665565b600088815260209020601f19871690835b8281101561594f5786860135825594870194908901908701615932565b508782101561596c5760001960f88960031b161c19858701351681555b505050505091831b90920190925550505050565b60008135610a9881615097565b60008135610a98816149cb565b813560be198336030181126159ae57600080fd5b82016159ba8180614d02565b6159c48182614d02565b80356159cf8161400a565b84546001600160401b0319166001600160401b03821617855550600180850160206159fc81850185614eaa565b94506001600160401b0380861115615a1657615a16614a1f565b615a20868561573e565b600093845282842093805b87811015615a4d578335615a3e8161407c565b86820155928401928601615a2b565b5060028a019650615a6084890189614d02565b975087359450615a6f85614b55565b865460ff191660ff8616179096556003890195615a8e88850189614b64565b9850945081881115615aa257615aa2614a1f565b615ab0886158ed895461497e565b809250601f881160018114615ae0578192508815615acf578386013592505b615ad98984614a87565b8855615b35565b600088815260209020601f198a169350825b84811015615b0f5787860135825594860194908801908601615af2565b5089841015615b2c5760001960f88b60031b161c19858801351681555b508689881b0188555b50505050615b51615b4882880188614d02565b600489016157f7565b60408601356008880155600987019450615b8d615b70606088016156f9565b86546001600160401b0319166001600160401b0391909116178655565b615bc6615b9c60808801615980565b86546bffffffff0000000000000000191660a09190911c6bffffffff000000000000000016178655565b615bd360a0870187614b64565b96509450615be58686600a8a01614a9c565b615c0c615bf3828a0161598d565b600b890160ff1981541660ff8315151681178255505050565b5050505050505050565b600160401b831115615c2a57615c2a614a1f565b805483825580841015615cbe57600c8181028181048314615c4d57615c4d6149f6565b8582028281048714615c6157615c616149f6565b6000858152602081209283019291909101905b82821015615cb957615c85826157d4565b615c91600483016157d4565b806008830155806009830155615ca9600a8301615786565b80600b8301558382019150615c74565b505050505b5060008181526020812083915b8581101561217b57615ce6615ce08487614d02565b8361599a565b60209290920191600c9190910190600101615ccb565b8054600080835581156122cb57828152602081208281015b8082101561166b57828255600182019150615d14565b600160401b821115615d3e57615d3e614a1f565b8054828255808310156122cb576000828152602081208481019083015b8082101561217b57828255600182019150615d5b565b615d7b8283614d02565b8035615d868161400a565b82546001600160401b0319166001600160401b0382161783555060018083016020615db381850185614eaa565b94506001600160401b0380861115615dcd57615dcd614a1f565b615dd7868561573e565b600093845282842093805b87811015615e04578335615df58161407c565b86820155928401928601615de2565b50600288019650615e17848a018a614eaa565b9550925081851115615e2b57615e2b614a1f565b615e358588615d2a565b95865250818520945b83811015615c0c57813586820155908201908401615e3e565b600160401b831115615e6b57615e6b614a1f565b805483825580841015615ed95760038181028181048314615e8e57615e8e6149f6565b8582028281048714615ea257615ea26149f6565b60008581526020902091820191015b81811015615ed557615ec281615776565b615ece60028201615cfc565b8201615eb1565b5050505b5060008181526020812083915b8581101561217b57615f01615efb8487614d02565b83615d71565b6020929092019160039190910190600101615ee6565b615f218283614d02565b8035615f2c8161400a565b82546001600160401b0319166001600160401b0382161783555060018083016020615f5981850185614eaa565b94506001600160401b03851115615f7257615f72614a1f565b615f7c858461573e565b6000928352818320925b85811015615fa8578135615f998161407c565b84820155908201908401615f86565b5050615fd9615fb88288016156f9565b600287016001600160401b0382166001600160401b03198254161781555050565b5050505060408201356003820155615ff46060830183614eaa565b616002818360048601615c16565b50506160116080830183614eaa565b61601f818360058601615e57565b505060a0820135600682015561603860c0830183614b64565b610c42818360078601614a9c565b818103616051575050565b61605b825461497e565b6001600160401b0381111561607257616072614a1f565b61608681616080845461497e565b84614a4e565b6000601f8211600181146160b457600083156160a25750848201545b6160ac8482614a87565b85555061166b565b600085815260209020601f19841690600086815260209020845b838110156160ee57828601548255600195860195909101906020016160ce565b508583101561610c5781850154600019600388901b60f8161c191681555b5050505050600190811b01905550565b6000604083016001600160401b0383541684526001808401602060408188015283825480865260608901915083600052826000209550600093505b8084101561617d5785546001600160a01b03168252948401949284019290820190616157565b50979650505050505050565b600081546161968161497e565b8085526020600183811680156161b357600181146161cd576161fb565b60ff1985168884015283151560051b8801830195506161fb565b866000528260002060005b858110156161f35781548a82018601529083019084016161d8565b890184019650505b505050505092915050565b604082526000616219604084018361611c565b838103602085015260ff6002840154168152604060208201526141c56040820160038501616189565b600081548084526020808501808196508360051b81019150856000528260002060005b8581101561430d578284038952604080855260c0808287015261628c610100870185616206565b9150603f19808784030160608801526162a88360048701616206565b6008860154608089015260098601546001600160401b03811660a0808b01919091521b6001600160e01b031916928801929092528682030160e087015290506162f481600a8501616189565b9050616304600b84015460ff1690565b15159486019490945297840197600c9190910190600101616265565b600081548084526020808501808196508360051b810191506000868152838120815b868110156143ac578385038a5260408086526163608187018461611c565b86810388880152600284018054808352908652888620925085918901905b8083101561639e578354825260019384019392909201919089019061637e565b509b88019b9650505060039190910190600101616342565b6020815260e0602082015260006163d161010083018461611c565b60028401546001600160401b0316604084015260038401546060840152828103601f1990810160808501526164098260048701616242565b9150808483030160a08501526164228260058701616320565b9150600685015460c0850152808483030160e0850152506141c58160078601616189565b634e487b7160e01b600052603160045260246000fd5b6001600160401b038181168382160190808211156119ac576119ac6149f656fea2646970667358221220a6ae00ab06eb511a33065da6f3c80edd7e51f0e0a341be0e5e1ee1e842337f6f64736f6c63430008130033a26469706673582212206c77824a426a509a1f1234d3fddf5886350bf7bcf7bb41313e835d9cb45fd8ed64736f6c63430008130033",
    "linkReferences": {
      "src/lib/AccountHelper.sol": {
        "AccountHelper": [
          {
            "start": 13625,
            "length": 20
          }
        ]
      },
      "src/lib/CheckpointHelper.sol": {
        "CheckpointHelper": [
          {
            "start": 7425,
            "length": 20
          },
          {
            "start": 14329,
            "length": 20
          },
          {
            "start": 16137,
            "length": 20
          },
          {
            "start": 18415,
            "length": 20
          }
        ]
      },
      "src/lib/CrossMsgHelper.sol": {
        "CrossMsgHelper": [
          {
            "start": 13223,
            "length": 20
          }
        ]
      },
      "src/lib/EpochVoteSubmissionHelper.sol": {
        "EpochVoteSubmissionHelper": [
          {
            "start": 16342,
            "length": 20
          },
          {
            "start": 19523,
            "length": 20
          },
          {
            "start": 20120,
            "length": 20
          }
        ]
      },
      "src/lib/ExecutableQueueHelper.sol": {
        "ExecutableQueueHelper": [
          {
            "start": 16462,
            "length": 20
          },
          {
            "start": 19394,
            "length": 20
          },
          {
            "start": 19668,
            "length": 20
          },
          {
            "start": 19835,
            "length": 20
          }
        ]
      },
      "src/lib/SubnetIDHelper.sol": {
        "SubnetIDHelper": [
          {
            "start": 2822,
            "length": 20
          },
          {
            "start": 2952,
            "length": 20
          },
          {
            "start": 9893,
            "length": 20
          },
          {
            "start": 13087,
            "length": 20
          }
        ]
      }
    }
  },
  "methodIdentifiers": {
    "gateway()": "116191b6",
    "getSubnetDeployedByNonce(address,uint64)": "9836b75f",
    "latestSubnetDeployed(address)": "1163dca5",
    "newSubnetActor(((uint64,address[]),bytes32,address,uint8,uint256,uint64,uint64,uint64,uint8,bytes))": "f9daddd2",
    "subnets(address,uint64)": "b67c7b4a",
    "userNonces(address)": "2f7801f4"
  },
  "id": 29
}