{
  "abi": [
    {
      "inputs": [
        {
          "internalType": "address",
          "name": "a",
          "type": "address"
        }
      ],
      "name": "accumulatedRewards",
      "outputs": [
        {
          "internalType": "uint256",
          "name": "",
          "type": "uint256"
        }
      ],
      "stateMutability": "view",
      "type": "function"
    },
    {
      "inputs": [],
      "name": "consensus",
      "outputs": [
        {
          "internalType": "enum ConsensusType",
          "name": "",
          "type": "uint8"
        }
      ],
      "stateMutability": "view",
      "type": "function"
    },
    {
      "inputs": [],
      "name": "executableQueue",
      "outputs": [
        {
          "internalType": "uint64",
          "name": "",
          "type": "uint64"
        },
        {
          "internalType": "uint64",
          "name": "",
          "type": "uint64"
        },
        {
          "internalType": "uint64",
          "name": "",
          "type": "uint64"
        }
      ],
      "stateMutability": "view",
      "type": "function"
    },
    {
      "inputs": [],
      "name": "genesis",
      "outputs": [
        {
          "internalType": "bytes",
          "name": "",
          "type": "bytes"
        }
      ],
      "stateMutability": "view",
      "type": "function"
    },
    {
      "inputs": [],
      "name": "getParent",
      "outputs": [
        {
          "components": [
            {
              "internalType": "uint64",
              "name": "root",
              "type": "uint64"
            },
            {
              "internalType": "address[]",
              "name": "route",
              "type": "address[]"
            }
          ],
          "internalType": "struct SubnetID",
          "name": "",
          "type": "tuple"
        }
      ],
      "stateMutability": "view",
      "type": "function"
    },
    {
      "inputs": [],
      "name": "getValidatorSet",
      "outputs": [
        {
          "components": [
            {
              "components": [
                {
                  "internalType": "address",
                  "name": "addr",
                  "type": "address"
                },
                {
                  "internalType": "uint256",
                  "name": "weight",
                  "type": "uint256"
                },
                {
                  "components": [
                    {
                      "internalType": "uint8",
                      "name": "addrType",
                      "type": "uint8"
                    },
                    {
                      "internalType": "bytes",
                      "name": "payload",
                      "type": "bytes"
                    }
                  ],
                  "internalType": "struct FvmAddress",
                  "name": "workerAddr",
                  "type": "tuple"
                },
                {
                  "internalType": "string",
                  "name": "netAddresses",
                  "type": "string"
                }
              ],
              "internalType": "struct ValidatorInfo[]",
              "name": "validators",
              "type": "tuple[]"
            },
            {
              "internalType": "uint64",
              "name": "configurationNumber",
              "type": "uint64"
            }
          ],
          "internalType": "struct ValidatorSet",
          "name": "",
          "type": "tuple"
        }
      ],
      "stateMutability": "view",
      "type": "function"
    },
    {
      "inputs": [],
      "name": "getValidators",
      "outputs": [
        {
          "internalType": "address[]",
          "name": "",
          "type": "address[]"
        }
      ],
      "stateMutability": "view",
      "type": "function"
    },
    {
      "inputs": [],
      "name": "ipcGatewayAddr",
      "outputs": [
        {
          "internalType": "address",
          "name": "",
          "type": "address"
        }
      ],
      "stateMutability": "view",
      "type": "function"
    },
    {
      "inputs": [],
      "name": "lastVotingExecutedEpoch",
      "outputs": [
        {
          "internalType": "uint64",
          "name": "",
          "type": "uint64"
        }
      ],
      "stateMutability": "view",
      "type": "function"
    },
    {
      "inputs": [],
      "name": "majorityPercentage",
      "outputs": [
        {
          "internalType": "uint64",
          "name": "",
          "type": "uint64"
        }
      ],
      "stateMutability": "view",
      "type": "function"
    },
    {
      "inputs": [],
      "name": "minActivationCollateral",
      "outputs": [
        {
          "internalType": "uint256",
          "name": "",
          "type": "uint256"
        }
      ],
      "stateMutability": "view",
      "type": "function"
    },
    {
      "inputs": [],
      "name": "minValidators",
      "outputs": [
        {
          "internalType": "uint64",
          "name": "",
          "type": "uint64"
        }
      ],
      "stateMutability": "view",
      "type": "function"
    },
    {
      "inputs": [],
      "name": "name",
      "outputs": [
        {
          "internalType": "bytes32",
          "name": "",
          "type": "bytes32"
        }
      ],
      "stateMutability": "view",
      "type": "function"
    },
    {
      "inputs": [],
      "name": "prevExecutedCheckpointHash",
      "outputs": [
        {
          "internalType": "bytes32",
          "name": "",
          "type": "bytes32"
        }
      ],
      "stateMutability": "view",
      "type": "function"
    },
    {
      "inputs": [
        {
          "internalType": "address",
          "name": "a",
          "type": "address"
        }
      ],
      "name": "stake",
      "outputs": [
        {
          "internalType": "uint256",
          "name": "",
          "type": "uint256"
        }
      ],
      "stateMutability": "view",
      "type": "function"
    },
    {
      "inputs": [],
      "name": "status",
      "outputs": [
        {
          "internalType": "enum Status",
          "name": "",
          "type": "uint8"
        }
      ],
      "stateMutability": "view",
      "type": "function"
    },
    {
      "inputs": [],
      "name": "topDownCheckPeriod",
      "outputs": [
        {
          "internalType": "uint64",
          "name": "",
          "type": "uint64"
        }
      ],
      "stateMutability": "view",
      "type": "function"
    },
    {
      "inputs": [],
      "name": "totalStake",
      "outputs": [
        {
          "internalType": "uint256",
          "name": "",
          "type": "uint256"
        }
      ],
      "stateMutability": "view",
      "type": "function"
    },
    {
      "inputs": [
        {
          "internalType": "uint256",
          "name": "index",
          "type": "uint256"
        }
      ],
      "name": "validatorAt",
      "outputs": [
        {
          "internalType": "address",
          "name": "",
          "type": "address"
        }
      ],
      "stateMutability": "view",
      "type": "function"
    },
    {
      "inputs": [],
      "name": "validatorCount",
      "outputs": [
        {
          "internalType": "uint256",
          "name": "",
          "type": "uint256"
        }
      ],
      "stateMutability": "view",
      "type": "function"
    }
  ],
  "bytecode": {
    "object": "0x608060405234801561001057600080fd5b50610c0b806100206000396000f3fe608060405234801561001057600080fd5b506004361061012c5760003560e01c806380f76021116100ad578063ad81e24411610071578063ad81e244146102ce578063b7ab4db5146102d6578063c5ab2241146102eb578063cf331250146102fd578063cfca28241461031257600080fd5b806380f760211461027a5780638b0e9f3f1461028f5780638ef3f761146102975780639e33bd02146102b1578063a7f0b3de146102b957600080fd5b806332e0aa1f116100f457806332e0aa1f146101c6578063599c7bd1146101f15780635f832dbf1461023757806373f273fc1461023f5780637d9740f41461026857600080fd5b806306fdde03146101315780630f43a6771461014857806310d500e114610150578063200d2ed214610183578063264762041461019d575b600080fd5b6010545b6040519081526020015b60405180910390f35b610135610323565b610158610334565b6040805167ffffffffffffffff9485168152928416602084015292169181019190915260600161013f565b600154600160401b900460ff1660405161013f91906108f2565b6101356101ab36600461090c565b6001600160a01b031660009081526007602052604090205490565b6101d96101d4366004610935565b61038d565b6040516001600160a01b03909116815260200161013f565b7f283d1424c49941ba61504663c7a1b6f59e6bbb963a00bcc130bcbf9c29e1e27054600160801b900460ff165b60405167ffffffffffffffff909116815260200161013f565b600254610135565b61013561024d36600461090c565b6001600160a01b031660009081526008602052604090205490565b600e5467ffffffffffffffff1661021e565b6102826103a0565b60405161013f919061094e565b600054610135565b600e54600160801b900460ff1660405161013f91906109b9565b601354610135565b6102c1610436565b60405161013f9190610a13565b61021e6104cb565b6102de6104ff565b60405161013f9190610a26565b60125467ffffffffffffffff1661021e565b6103056105a5565b60405161013f9190610a73565b600f546001600160a01b03166101d9565b600061032f6004610895565b905090565b60008060006103827f283d1424c49941ba61504663c7a1b6f59e6bbb963a00bcc130bcbf9c29e1e2715467ffffffffffffffff80821692600160401b8304821692600160801b900490911690565b925092509250909192565b600061039a60048361089f565b92915050565b604080518082019091526000815260606020820152604080518082018252600b805467ffffffffffffffff168252600c8054845160208281028201810190965281815293949293838601939092919083018282801561042857602002820191906000526020600020905b81546001600160a01b0316815260019091019060200180831161040a575b505050505081525050905090565b60606000600d01805461044890610b48565b80601f016020809104026020016040519081016040528092919081815260200182805461047490610b48565b80156104c15780601f10610496576101008083540402835291602001916104c1565b820191906000526020600020905b8154815290600101906020018083116104a457829003601f168201915b5050505050905090565b600061032f7f283d1424c49941ba61504663c7a1b6f59e6bbb963a00bcc130bcbf9c29e1e2705467ffffffffffffffff1690565b6060600061050d6004610895565b905060008167ffffffffffffffff81111561052a5761052a610b82565b604051908082528060200260200182016040528015610553578160200160208202803683370190505b50905060005b8281101561059e5761056c60048261089f565b82828151811061057e5761057e610b98565b6001600160a01b0390921660209283029190910190910152600101610559565b5092915050565b60408051808201909152606081526000602082015260006105c66004610895565b905060008167ffffffffffffffff8111156105e3576105e3610b82565b60405190808252806020026020018201604052801561064857816020015b604080516080810182526000808252602080830182905283518085018552918252606090820181905292820152818101919091528152602001906001900390816106015790505b50905060005b8281101561086f5760408051608081019091528061066d60048461089f565b6001600160a01b031681526020016007600061068a60048661089f565b6001600160a01b031681526020808201929092526040016000908120548352910190600a906106ba60048661089f565b6001600160a01b0316815260208082019290925260409081016000208151808301909252805460ff16825260018101805492939192918401916106fc90610b48565b80601f016020809104026020016040519081016040528092919081815260200182805461072890610b48565b80156107755780601f1061074a57610100808354040283529160200191610775565b820191906000526020600020905b81548152906001019060200180831161075857829003601f168201915b5050509190925250505081526020016009600061079360048661089f565b6001600160a01b03166001600160a01b0316815260200190815260200160002080546107be90610b48565b80601f01602080910402602001604051908101604052809291908181526020018280546107ea90610b48565b80156108375780601f1061080c57610100808354040283529160200191610837565b820191906000526020600020905b81548152906001019060200180831161081a57829003601f168201915b505050505081525082828151811061085157610851610b98565b6020026020010181905250808061086790610bae565b91505061064e565b506040805180820190915290815260015467ffffffffffffffff16602082015292915050565b600061039a825490565b60006108ab83836108b2565b9392505050565b60008260000182815481106108c9576108c9610b98565b9060005260206000200154905092915050565b634e487b7160e01b600052602160045260246000fd5b6020810160068310610906576109066108dc565b91905290565b60006020828403121561091e57600080fd5b81356001600160a01b03811681146108ab57600080fd5b60006020828403121561094757600080fd5b5035919050565b6020808252825167ffffffffffffffff16828201528281015160408084015280516060840181905260009291820190839060808601905b808310156109ae5783516001600160a01b03168252928401926001929092019190840190610985565b509695505050505050565b6020810160018310610906576109066108dc565b6000815180845260005b818110156109f3576020818501810151868301820152016109d7565b506000602082860101526020601f19601f83011685010191505092915050565b6020815260006108ab60208301846109cd565b6020808252825182820181905260009190848201906040850190845b81811015610a675783516001600160a01b031683529284019291840191600101610a42565b50909695505050505050565b600060208083526060808401855160408085880152828251808552608094508489019150848160051b8a0101878501945060005b82811015610b25578a8203607f19018452855180516001600160a01b03168352898101518a84015285810151868401899052805160ff16898501528a015160a08401879052610af960c08501826109cd565b918a0151848303858c0152919050610b1181836109cd565b978b0197958b019593505050600101610aa7565b50968a015167ffffffffffffffff8116848b0152969a9950505050505050505050565b600181811c90821680610b5c57607f821691505b602082108103610b7c57634e487b7160e01b600052602260045260246000fd5b50919050565b634e487b7160e01b600052604160045260246000fd5b634e487b7160e01b600052603260045260246000fd5b600060018201610bce57634e487b7160e01b600052601160045260246000fd5b506001019056fea2646970667358221220027d37ba18f5e4b9fbde13a11a1b0952907aa7580ecfcde6ebeace63f4fe5f8d64736f6c63430008130033",
    "linkReferences": {}
  },
  "methodIdentifiers": {
    "accumulatedRewards(address)": "73f273fc",
    "consensus()": "8ef3f761",
    "executableQueue()": "10d500e1",
    "genesis()": "a7f0b3de",
    "getParent()": "80f76021",
    "getValidatorSet()": "cf331250",
    "getValidators()": "b7ab4db5",
    "ipcGatewayAddr()": "cfca2824",
    "lastVotingExecutedEpoch()": "ad81e244",
    "majorityPercentage()": "599c7bd1",
    "minActivationCollateral()": "9e33bd02",
    "minValidators()": "c5ab2241",
    "name()": "06fdde03",
    "prevExecutedCheckpointHash()": "5f832dbf",
    "stake(address)": "26476204",
    "status()": "200d2ed2",
    "topDownCheckPeriod()": "7d9740f4",
    "totalStake()": "8b0e9f3f",
    "validatorAt(uint256)": "32e0aa1f",
    "validatorCount()": "0f43a677"
  },
  "id": 67
}