{
  "abi": [
    {
      "inputs": [
        {
          "internalType": "address",
          "name": "account",
          "type": "address"
        }
      ],
      "name": "AddressInsufficientBalance",
      "type": "error"
    },
    {
      "inputs": [],
      "name": "CollateralIsZero",
      "type": "error"
    },
    {
      "inputs": [],
      "name": "EmptyAddress",
      "type": "error"
    },
    {
      "inputs": [],
      "name": "EpochAlreadyExecuted",
      "type": "error"
    },
    {
      "inputs": [],
      "name": "EpochNotVotable",
      "type": "error"
    },
    {
      "inputs": [],
      "name": "FailedInnerCall",
      "type": "error"
    },
    {
      "inputs": [],
      "name": "MessagesNotSorted",
      "type": "error"
    },
    {
      "inputs": [],
      "name": "NoRewardToWithdraw",
      "type": "error"
    },
    {
      "inputs": [],
      "name": "NoValidatorsInSubnet",
      "type": "error"
    },
    {
      "inputs": [],
      "name": "NotAllValidatorsHaveLeft",
      "type": "error"
    },
    {
      "inputs": [],
      "name": "NotEnoughBalanceForRewards",
      "type": "error"
    },
    {
      "inputs": [],
      "name": "NotGateway",
      "type": "error"
    },
    {
      "inputs": [],
      "name": "NotValidator",
      "type": "error"
    },
    {
      "inputs": [],
      "name": "ReentrancyError",
      "type": "error"
    },
    {
      "inputs": [],
      "name": "SubnetAlreadyKilled",
      "type": "error"
    },
    {
      "inputs": [],
      "name": "SubnetNotActive",
      "type": "error"
    },
    {
      "inputs": [],
      "name": "ValidatorAlreadyVoted",
      "type": "error"
    },
    {
      "inputs": [],
      "name": "WrongCheckpointSource",
      "type": "error"
    },
    {
      "inputs": [
        {
          "internalType": "uint64",
          "name": "e",
          "type": "uint64"
        }
      ],
      "name": "committedCheckpoints",
      "outputs": [
        {
          "components": [
            {
              "internalType": "uint64",
              "name": "root",
              "type": "uint64"
            },
            {
              "internalType": "address[]",
              "name": "route",
              "type": "address[]"
            }
          ],
          "internalType": "struct SubnetID",
          "name": "source",
          "type": "tuple"
        },
        {
          "internalType": "uint64",
          "name": "epoch",
          "type": "uint64"
        },
        {
          "internalType": "uint256",
          "name": "fee",
          "type": "uint256"
        },
        {
          "internalType": "bytes32",
          "name": "prevHash",
          "type": "bytes32"
        },
        {
          "internalType": "bytes",
          "name": "proof",
          "type": "bytes"
        }
      ],
      "stateMutability": "view",
      "type": "function"
    },
    {
      "inputs": [
        {
          "internalType": "uint64",
          "name": "epoch",
          "type": "uint64"
        },
        {
          "internalType": "address",
          "name": "submitter",
          "type": "address"
        }
      ],
      "name": "hasValidatorVotedForSubmission",
      "outputs": [
        {
          "internalType": "bool",
          "name": "",
          "type": "bool"
        }
      ],
      "stateMutability": "view",
      "type": "function"
    },
    {
      "inputs": [
        {
          "internalType": "string",
          "name": "netAddr",
          "type": "string"
        },
        {
          "components": [
            {
              "internalType": "uint8",
              "name": "addrType",
              "type": "uint8"
            },
            {
              "internalType": "bytes",
              "name": "payload",
              "type": "bytes"
            }
          ],
          "internalType": "struct FvmAddress",
          "name": "workerAddr",
          "type": "tuple"
        }
      ],
      "name": "join",
      "outputs": [],
      "stateMutability": "payable",
      "type": "function"
    },
    {
      "inputs": [],
      "name": "kill",
      "outputs": [],
      "stateMutability": "nonpayable",
      "type": "function"
    },
    {
      "inputs": [],
      "name": "leave",
      "outputs": [],
      "stateMutability": "nonpayable",
      "type": "function"
    },
    {
      "inputs": [
        {
          "internalType": "uint256",
          "name": "amount",
          "type": "uint256"
        }
      ],
      "name": "reward",
      "outputs": [],
      "stateMutability": "nonpayable",
      "type": "function"
    },
    {
      "inputs": [
        {
          "internalType": "string",
          "name": "newNetAddr",
          "type": "string"
        }
      ],
      "name": "setValidatorNetAddr",
      "outputs": [],
      "stateMutability": "nonpayable",
      "type": "function"
    },
    {
      "inputs": [
        {
          "components": [
            {
              "internalType": "uint8",
              "name": "addrType",
              "type": "uint8"
            },
            {
              "internalType": "bytes",
              "name": "payload",
              "type": "bytes"
            }
          ],
          "internalType": "struct FvmAddress",
          "name": "newWorkerAddr",
          "type": "tuple"
        }
      ],
      "name": "setValidatorWorkerAddr",
      "outputs": [],
      "stateMutability": "nonpayable",
      "type": "function"
    },
    {
      "inputs": [
        {
          "components": [
            {
              "components": [
                {
                  "internalType": "uint64",
                  "name": "root",
                  "type": "uint64"
                },
                {
                  "internalType": "address[]",
                  "name": "route",
                  "type": "address[]"
                }
              ],
              "internalType": "struct SubnetID",
              "name": "source",
              "type": "tuple"
            },
            {
              "internalType": "uint64",
              "name": "epoch",
              "type": "uint64"
            },
            {
              "internalType": "uint256",
              "name": "fee",
              "type": "uint256"
            },
            {
              "components": [
                {
                  "components": [
                    {
                      "components": [
                        {
                          "components": [
                            {
                              "internalType": "uint64",
                              "name": "root",
                              "type": "uint64"
                            },
                            {
                              "internalType": "address[]",
                              "name": "route",
                              "type": "address[]"
                            }
                          ],
                          "internalType": "struct SubnetID",
                          "name": "subnetId",
                          "type": "tuple"
                        },
                        {
                          "components": [
                            {
                              "internalType": "uint8",
                              "name": "addrType",
                              "type": "uint8"
                            },
                            {
                              "internalType": "bytes",
                              "name": "payload",
                              "type": "bytes"
                            }
                          ],
                          "internalType": "struct FvmAddress",
                          "name": "rawAddress",
                          "type": "tuple"
                        }
                      ],
                      "internalType": "struct IPCAddress",
                      "name": "from",
                      "type": "tuple"
                    },
                    {
                      "components": [
                        {
                          "components": [
                            {
                              "internalType": "uint64",
                              "name": "root",
                              "type": "uint64"
                            },
                            {
                              "internalType": "address[]",
                              "name": "route",
                              "type": "address[]"
                            }
                          ],
                          "internalType": "struct SubnetID",
                          "name": "subnetId",
                          "type": "tuple"
                        },
                        {
                          "components": [
                            {
                              "internalType": "uint8",
                              "name": "addrType",
                              "type": "uint8"
                            },
                            {
                              "internalType": "bytes",
                              "name": "payload",
                              "type": "bytes"
                            }
                          ],
                          "internalType": "struct FvmAddress",
                          "name": "rawAddress",
                          "type": "tuple"
                        }
                      ],
                      "internalType": "struct IPCAddress",
                      "name": "to",
                      "type": "tuple"
                    },
                    {
                      "internalType": "uint256",
                      "name": "value",
                      "type": "uint256"
                    },
                    {
                      "internalType": "uint64",
                      "name": "nonce",
                      "type": "uint64"
                    },
                    {
                      "internalType": "bytes4",
                      "name": "method",
                      "type": "bytes4"
                    },
                    {
                      "internalType": "bytes",
                      "name": "params",
                      "type": "bytes"
                    }
                  ],
                  "internalType": "struct StorableMsg",
                  "name": "message",
                  "type": "tuple"
                },
                {
                  "internalType": "bool",
                  "name": "wrapped",
                  "type": "bool"
                }
              ],
              "internalType": "struct CrossMsg[]",
              "name": "crossMsgs",
              "type": "tuple[]"
            },
            {
              "components": [
                {
                  "components": [
                    {
                      "internalType": "uint64",
                      "name": "root",
                      "type": "uint64"
                    },
                    {
                      "internalType": "address[]",
                      "name": "route",
                      "type": "address[]"
                    }
                  ],
                  "internalType": "struct SubnetID",
                  "name": "source",
                  "type": "tuple"
                },
                {
                  "internalType": "bytes32[]",
                  "name": "checks",
                  "type": "bytes32[]"
                }
              ],
              "internalType": "struct ChildCheck[]",
              "name": "children",
              "type": "tuple[]"
            },
            {
              "internalType": "bytes32",
              "name": "prevHash",
              "type": "bytes32"
            },
            {
              "internalType": "bytes",
              "name": "proof",
              "type": "bytes"
            }
          ],
          "internalType": "struct BottomUpCheckpoint",
          "name": "checkpoint",
          "type": "tuple"
        }
      ],
      "name": "submitCheckpoint",
      "outputs": [],
      "stateMutability": "nonpayable",
      "type": "function"
    },
    {
      "inputs": [],
      "name": "withdraw",
      "outputs": [],
      "stateMutability": "nonpayable",
      "type": "function"
    }
  ],
  "bytecode": {
    "object": "0x6080806040523461001657613c83908161001c8239f35b600080fdfe60a080604052600436101561001357600080fd5b600090813560e01c9081633ccfd60b14611f835750806341c0e1b514611ef157806366d7bbbc14611e855780636cf6970a14611af15780637cc4fc43146119d557806398903748146118cd578063a9fb763c146117df578063d66d9e1914611688578063e8ef872f1461154b5763f6fd83811461008f57600080fd5b3461154857600319602036820112610fb2576001600160401b0360043511610fb25760e09060043536030112611548576100cd6024600435016124e6565b6001600160401b037f283d1424c49941ba61504663c7a1b6f59e6bbb963a00bcc130bcbf9c29e1e2705491166001600160401b038216811115611536576001600160401b038260401c16908181106114fc5703906001600160401b0382116115225760801c6001600160401b031690811561150e57906001600160401b0380921606166114fc5760ff600d5460a01c1660068110156114e8576001036114d657338152600f6020526040812054156114c4576101bc602061019b366101966004803501806124fa565b612526565b604051809381926390ba52cf60e01b835284600484015260248301906125c9565b038173__$a0fe38a9a81205afccc10810b09a4d3f45$__5af4908115610fa7578291611492575b50600b540361148057610200606460043501600435600401612624565b604051638984147560e01b815260206004820152602481018290529182916044600582901b84018101929186918501835b828410611382578887602081808a038173__$33b79814e84bf6cf5e47244090b19ce5f8$__5af4908115610fa7578291611363575b5015611351576001600160401b036102826024600435016124e6565b1681528060205260408120338252600160205260408220546040516102a68161220c565b6001600160401b036004356004013511610fa3576102cd3660048035808201350101612526565b81526102dd602460043501612046565b602082015260043560448101356040830152606401356001600160401b0381116111c15736602382600435010112156111c1576004818135010135906103228261250f565b916103306040519384612242565b80835260208301913660248360051b83600435010101116111bd576024816004350101925b60248360051b8360043501010184106111c557505050506060820152608460043501356001600160401b0381116111c15736602382600435010112156111c1576004818135010135906103a78261250f565b916103b56040519384612242565b808352602083013660248360051b85600435010101116111bd576024836004350101905b60248360051b85600435010101821061108d5750505050608082015260a4600435013560a08201526001600160401b0360c4600435013511610fa357602061044f9161043036600460c4813501358135010161294d565b60c0820152604051809381926339aa47fb60e01b835260048301612a5c565b038173__$1cd67d4dc9e627f0bec7928aa480e7d951$__5af490811561108257849161104b575b506104856024600435016124e6565b60075492859385549182885260038701602052604088203360005260205260ff6040600020541661103957828591610558948a526003890160205260408a20336000526020526040600020600160ff19825416179055600189016104ea8282546120db565b9055818a526004890160205260408a20838b5260205261050f60408b209182546120db565b9055808952600488016020526040892090600289019182548b5260205260408a2054908a526004890160205260408a20838b5260205260408a205411611031575b505085613127565b600481101561101d5785919060038103610fb65750610576816127ef565b15610f2a575060019250505b808452600583016020526105b7602061059d60408720612ce8565b604051809381926322ea8d8960e11b835260048301612a5c565b038173__$1cd67d4dc9e627f0bec7928aa480e7d951$__5af4908115610f1f578591610ef0575b50610648575b50156105f6576105f3906136ad565b80f35b506001600160401b037f283d1424c49941ba61504663c7a1b6f59e6bbb963a00bcc130bcbf9c29e1e2715460801c1661062e816127ef565b610636575080f35b8152806020526105f3604082206136ad565b835260058201602052604083206106916106666004803501806124fa565b6001600160401b03610677826124e6565b166001600160401b03198454161783556020810190612624565b6001600160401b0381116108585760018301916106ae8284612edb565b918652602086209186905b828210610ec75750505050600281016001600160401b036106de6024600435016124e6565b166001600160401b031982541617905560446004350135600382015560048101610712606460043501600435600401612624565b9061071d8284612f7b565b918652602086208692805b8385106109995750505050506005810161074c608460043501600435600401612624565b9190610758838361304d565b908652602086208691805b84841061086c57505050505060079060a4600435013560068201550161079360c460043501600435600401612196565b906001600160401b0382116108585781906107b8826107b286546120fe565b8661214f565b8690601f83116001146107f25787926107e7575b50508160011b916000199060031b1c19161790555b836105e4565b0135905086806107cc565b84885260208820925090601f198416885b8181106108405750908460019594939210610826575b505050811b0190556107e1565b0135600019600384901b60f8161c19169055868080610819565b91936020600181928787013581550195019201610803565b634e487b7160e01b86526041600452602486fd5b61087681836124fa565b6108ae61088382806124fa565b6001600160401b03610894826124e6565b166001600160401b03198754161786556020810190612624565b6001600160401b0381116109855760018601916108cb8284612edb565b918c5260208c20918c905b82821061095c57505050508060206108ef920190612624565b906001600160401b03821161094857600285019061090d838361300a565b908b5260208b208b5b83811061093457505050506003602060019201930193019291610763565b600190602084359401938184015501610916565b634e487b7160e01b8b52604160045260248bfd5b8035916001600160a01b038316830361098157602060019201928186015501906108d6565b8e80fd5b634e487b7160e01b8c52604160045260248cfd5b6109a381836124fa565b9060be198236030182351215610cf7576109c082358301806124fa565b6109f86109cd82806124fa565b6001600160401b036109de826124e6565b166001600160401b03198854161787556020810190612624565b6001600160401b038111610e16576001870191610a158284612edb565b918d5260208d20918d5b828110610ea15750505050806020610a389201906124fa565b80359060ff82168203610de95760ff610a65921660ff196002880154161760028701556020810190612196565b906001600160401b038211610985578190610a9082610a8760038a01546120fe565b60038a0161214f565b8c90601f8311600114610e35578d92610e2a575b50508160011b916000199060031b1c19161760038501555b60048401610b0b610ad48435850160208101906124fa565b91610adf83806124fa565b906001600160401b03610af1836124e6565b166001600160401b03198254161790556020810190612624565b6001600160401b038111610e16576005870191610b288284612edb565b918d5260208d20918d905b828210610ded5750505050806020610b4c9201906124fa565b80359060ff82168203610de957610b789160ff60068801911660ff198254161790556020810190612196565b906001600160401b038211610985578190610ba382610b9a60078a01546120fe565b60078a0161214f565b8c90601f8311600114610d7d578d92610d72575b50508160011b916000199060031b1c19161760078501555b81358201604081013560088601556001600160401b0390610bf2906060016124e6565b60098601805467ffffffffffffffff19169290911691909117905581358201608001356001600160e01b031981169003610cf7576009840180546bffffffff00000000000000001916833584016080013560a01c63ffffffff60401b16179055610c638235830160a0810190612196565b906001600160401b038211610985578190610c8e82610c85600a8a01546120fe565b600a8a0161214f565b8c90601f8311600114610d06578d92610cfb575b50508160011b916000199060031b1c191617600a8501555b60208201358015159003610cf7576020600c91610ceb826001950135600b88019060ff801983541691151516179055565b01930194019391610728565b8980fd5b013590508c80610ca2565b600a88018e5260208e208e9450915b601f1984168510610d5a576001945083601f19811610610d40575b505050811b01600a850155610cba565b0135600019600384901b60f8161c191690558c8080610d30565b81810135835560209485019460019093019201610d15565b013590508c80610bb7565b600788018e5260208e208e9450915b601f1984168510610dd1576001945083601f19811610610db7575b505050811b016007850155610bcf565b0135600019600384901b60f8161c191690558c8080610da7565b81810135835560209485019460019093019201610d8c565b8b80fd5b8035916001600160a01b0383168303610e125760206001920192818601550190610b33565b8f80fd5b634e487b7160e01b8d52604160045260248dfd5b013590508c80610aa4565b600388018e5260208e208e9450915b601f1984168510610e89576001945083601f19811610610e6f575b505050811b016003850155610abc565b0135600019600384901b60f8161c191690558c8080610e5f565b81810135835560209485019460019093019201610e44565b81356001600160a01b038116900361098157600190602083359301928186015501610a1f565b8035916001600160a01b0383168303610eec57602060019201928186015501906106b9565b8880fd5b610f12915060203d602011610f18575b610f0a8183612242565b810190612659565b856105de565b503d610f00565b6040513d87823e3d90fd5b73__$b7b8687e33476c74e3b4e0a64c4768a343$__3b15610fb25781610f64916040518093819263199b9ca560e01b8352600483016130ee565b038173__$b7b8687e33476c74e3b4e0a64c4768a343$__5af48015610fa757610f8f575b5050610582565b610f98906121c8565b610fa3578385610f88565b8380fd5b6040513d84823e3d90fd5b5080fd5b905060029150036105825773__$e0f829f5071d7e628aa77eca0c12e35bc2$__3b15610fa35783604051635a27a53960e11b8152846004820152818160248173__$e0f829f5071d7e628aa77eca0c12e35bc2$__5af48015610fa757610f8f575050610582565b634e487b7160e01b86526021600452602486fd5b558388610550565b6040516337138f5f60e11b8152600490fd5b90506020813d60201161107a575b8161106660209383612242565b81010312611075575184610476565b600080fd5b3d9150611059565b6040513d86823e3d90fd5b6001600160401b03823511610eec576040600435850183350136036023190112610eec576040516110bd816121f1565b6001600160401b0360248435876004350101013511610cf7576110ef3660248535600435890101818101350101612526565b81526044833586600435010101356001600160401b0381116111b957366043828635896004350101010112156111b95760248185358860043501010101356111368161250f565b916111446040519384612242565b81835260208301903660448460051b838a358d6004350101010101116111b55760448188358b60043501010101915b60448460051b838a358d600435010101010183106111a5575050505060208083019190915290825291820191016103d9565b8235815260209283019201611173565b8d80fd5b8a80fd5b8780fd5b8480fd5b6001600160401b03843511610eec576040600435830185350136036023190112610eec57604051906111f6826121f1565b6024853584600435010101356001600160401b0381116111b95760c060043585018735018201360360231901126111b9576040519161123483612227565b6001600160401b03602483893588600435010101013511610de95761126a36602489356004358901018501818101350101612994565b83526001600160401b03604483893588600435010101013511610de9576112a33660043587018935018401604481013501602401612994565b602084015260043585018735018201606481013560408501526112c890608401612046565b60608401526112e260a483893588600435010101016127cd565b60808401526001600160401b0360c483893588600435010101013511610de95760249360209384936113269036906004358a018c35010160c481013501880161294d565b60a0820152815261134060448935886004350101016127e2565b838201528152019401939050610355565b604051630bd9169f60e01b8152600490fd5b61137c915060203d602011610f1857610f0a8183612242565b82610266565b91939550919360431987820301835261139b8683612671565b60be198136030181351215610eec576020818382611469816114626001988683993501604082526114536113cf8280612671565b916113e760c0938460408701526101008601906126e5565b926001600160401b036114296114176114028a860186612671565b603f19898903810160609a8b015297906126e5565b604085013560808e0152968401612046565b1660a08b01526001600160e01b0319611444608084016127cd565b16908a015260a0810190612693565b918884030160e08901526126c4565b94016127e2565b151591015297019301940191929093869594610231565b6040516375ecc72d60e01b8152600490fd5b90506020813d6020116114bc575b816114ad60209383612242565b810103126110755751386101e3565b3d91506114a0565b604051632ec5b44960e01b8152600490fd5b60405163c18316bf60e01b8152600490fd5b634e487b7160e01b82526021600452602482fd5b60405163b4f68f9760e01b8152600490fd5b634e487b7160e01b83526012600452602483fd5b634e487b7160e01b83526011600452602483fd5b604051631f30cc6360e21b8152600490fd5b80fd5b5034611548576020600319818136011261168457600435916001600160401b03908184116111c1576040846004019385360301126111c157338552600f81526040852054156114c45733855260048152604085209280359060ff8216809203611680576115ca9160ff1986541617855560246001809601960190612196565b928311610858576115e5836115df87546120fe565b8761214f565b8591601f841160011461161f57509282939183928794611614575b50501b916000199060031b1c191617905580f35b013592503880611600565b9183601f1981168789528489209489905b88838310611666575050501061164c575b505050811b01905580f35b0135600019600384901b60f8161c19169055388080611641565b868601358855909601959384019387935090810190611630565b8680fd5b8280fd5b50346115485780600319360112611548577f691bb03ffc16c56fc96b82fd16cd1b3715f0bc3cdc6407005f49bb62058600959060018254146117cd57600182556116d0612317565b338152600160205260408120549182156114c45733825260016020528160408120556116fe8360075461235a565b60075561170a336123fc565b50600d549260ff8460a01c169360068510156117b9576001849514611797575b50600d546001600160a01b0316803b15611792578380916024604051809481936345f5448560e01b83528760048401525af190811561108257849161177a575b50506117769033612382565b5580f35b611783906121c8565b61178e57823861176a565b5050fd5b505050fd5b600754600854111561172a5760ff60a01b1916600160a11b17600d553861172a565b634e487b7160e01b84526021600452602484fd5b6040516329f745a760e01b8152600490fd5b503461154857602080600319360112610fb257600d54600435906001600160a01b0390811633036118bb57600e9283549283156118a9578381106118975783900491855b84811061182e578680f35b8554811015611881576001908660005282817fbb7b4a454dc3493923482f07822329ed19e8244eff582cc204f8554c3620c3fd015416885260028452604088206118798682546120db565b905501611823565b634e487b7160e01b600052603260045260246000fd5b604051633074cabf60e11b8152600490fd5b60405163efa9c8f160e01b8152600490fd5b60405163e7e601db60e01b8152600490fd5b503461154857602080600319360112610fb2579060076118eb612030565b926060816040516118fb816121f1565b85815201526001600160401b03809416928381526005825261191f60408220612879565b938152600582526040812091856002840154169060038401549261195960068601549561195260405180998193016128b7565b0387612242565b816040519760a0895260e089019981511660a08a0152015197604060c089015288518091528261010089019901915b8181106119b85788806119b48c8b8b8b8b8b87015260408601526060850152838203608085015261209b565b0390f35b82516001600160a01b03168a529883019891830191600101611988565b50346115485760209081600319360112611548576001600160401b0360043581811161168457611a0990369060040161206e565b90338452600f85526040842054156114c4578115611adf573384526003855260408420928211611acb57611a4782611a4185546120fe565b8561214f565b8394601f8311600114611a83575093839482939492611a78575b50508160011b916000199060031b1c191617905580f35b013590503880611a61565b90601f198316958486528286209286905b888210611ab35750508360019596971061164c57505050811b01905580f35b80600184968294958701358155019501920190611a94565b634e487b7160e01b84526041600452602484fd5b604051637138356f60e01b8152600490fd5b50600319604036820112610fb2576001600160401b03600435818111610fa357611b1f90369060040161206e565b60249291923593828511611e8157604085600401918636030112611e8157611b45612317565b3415611e6f5733865260019360209285845260408820611b663482546120db565b9055611b74346007546120db565b60075533885285845260408820546008541115611c9a575b50505050505050600d5460ff8160a01c166006811015611c865760058103611c1c57505080600754600854811015611bc4575b505080f35b600d805460ff60a01b198116600160a01b179091556001600160a01b0316803b1561178e578290600460405180948193630354740160e31b83525af18015610fa75715611bbf575b611c15906121c8565b6115485780f35b600214611c65575b50600d5481906001600160a01b0316803b15611c625781600491604051928380926316989f6f60e21b825234905af18015610fa757611c0c57505080f35b50fd5b60075460085411611c245760ff60a01b1916600160a01b17600d5538611c24565b634e487b7160e01b83526021600452602483fd5b33600052600f8452604060002054611b8c57611cb53361229a565b50338852600384526040882091858211611e5b578190611cd9826107b286546120fe565b8990601f8311600114611dfc578a92611df1575b5050600019600383901b1c191690861b1790555b33865260048252604086209080359160ff83168093036111bd5785602491611d359460ff1982541617815501960190612196565b92831161085857611d4a836115df87546120fe565b8591601f8411600114611d8e57509282939183928794611d83575b50501b916000199060031b1c19161790555b38808080808080611b8c565b013592503880611d65565b9183601f1981168789528489209489905b88838310611dd75750505010611dbd575b505050811b019055611d77565b0135600019600384901b60f8161c19169055388080611db0565b868601358855909601959384019387935090810190611d9f565b013590503880611ced565b848b52868b2089945091601f1984168c5b89828210611e455750508411611e2b575b505050811b019055611d01565b0135600019600384901b60f8161c19169055388080611e1e565b8385013586558c97909501949283019201611e0d565b634e487b7160e01b89526041600452602489fd5b604051635a78c58160e11b8152600490fd5b8580fd5b503461154857604036600319011261154857611e9f612030565b6024356001600160a01b0381169290839003611075576001600160401b0360409216815280602052600382822080548352016020522090600052602052602060ff604060002054166040519015158152f35b5034611548578060031936011261154857611f0a612317565b600e5415801590611f78575b611f6657600d805460ff60a01b198116600360a01b1790915581906001600160a01b0316803b15611c62578180916004604051809481936341c0e1b560e01b83525af18015610fa757611c0c5750f35b604051636b62255160e11b8152600490fd5b506007541515611f16565b905034610fb25781600319360112610fb257338252600260205260408220549081156120215750338252600260205260408220829055600d5482906001600160a01b0316803b15610fb2578190602460405180948193631f0e077760e31b83528760048401525af1801561201657612001575b506105f39033612382565b9161200f6105f392936121c8565b9190611ff6565b6040513d85823e3d90fd5b6367300f9160e11b8152600490fd5b600435906001600160401b038216820361107557565b35906001600160401b038216820361107557565b35906001600160a01b038216820361107557565b9181601f84011215611075578235916001600160401b038311611075576020838186019501011161107557565b919082519283825260005b8481106120c7575050826000602080949584010152601f8019910116010190565b6020818301810151848301820152016120a6565b919082018092116120e857565b634e487b7160e01b600052601160045260246000fd5b90600182811c9216801561212e575b602083101461211857565b634e487b7160e01b600052602260045260246000fd5b91607f169161210d565b818110612143575050565b60008155600101612138565b9190601f811161215e57505050565b61218a926000526020600020906020601f840160051c8301931061218c575b601f0160051c0190612138565b565b909150819061217d565b903590601e198136030182121561107557018035906001600160401b0382116110755760200191813603831361107557565b6001600160401b0381116121db57604052565b634e487b7160e01b600052604160045260246000fd5b604081019081106001600160401b038211176121db57604052565b60e081019081106001600160401b038211176121db57604052565b60c081019081106001600160401b038211176121db57604052565b90601f801991011681019081106001600160401b038211176121db57604052565b600e5481101561188157600e6000527fbb7b4a454dc3493923482f07822329ed19e8244eff582cc204f8554c3620c3fd0190600090565b6000818152600f602052604081205461231257600e54600160401b8110156122fe5790826122ea6122d384600160409601600e55612263565b819391549060031b91821b91600019901b19161790565b9055600e54928152600f6020522055600190565b634e487b7160e01b82526041600452602482fd5b905090565b60ff600d5460a01c1660068110156123445760031461233257565b60405163248c8efb60e11b8152600490fd5b634e487b7160e01b600052602160045260246000fd5b919082039182116120e857565b6001600160401b0381116121db57601f01601f191660200190565b8147106123e4576000918291829182916001600160a01b03165af13d156123df573d6123ad81612367565b906123bb6040519283612242565b8152600060203d92013e5b156123cd57565b604051630a12f52160e11b8152600490fd5b6123c6565b60405163cd78605960e01b8152306004820152602490fd5b6000818152600f602052604081205490919080156124e157600019908082018181116124cd57600e54908382019182116124b957808203612485575b505050600e5480156124715781019061245082612263565b909182549160031b1b19169055600e558152600f6020526040812055600190565b634e487b7160e01b84526031600452602484fd5b6124a36124946122d393612263565b90549060031b1c928392612263565b90558452600f6020526040842055388080612438565b634e487b7160e01b86526011600452602486fd5b634e487b7160e01b85526011600452602485fd5b505090565b356001600160401b03811681036110755790565b903590603e1981360301821215611075570190565b6001600160401b0381116121db5760051b60200190565b9190604083820312611075576040519261253f846121f1565b8361254982612046565b815260209182810135906001600160401b03821161107557019280601f850112156110755783356125798161250f565b946125876040519687612242565b818652848087019260051b8201019283116110755784809101915b8383106125b157505050500152565b81906125bc8461205a565b81520191019084906125a2565b60609060408301906001600160401b03815116845260209283809201519460408382015285518094520193019160005b828110612607575050505090565b83516001600160a01b0316855293810193928101926001016125f9565b903590601e198136030182121561107557018035906001600160401b03821161107557602001918160051b3603831361107557565b90816020910312611075575180151581036110755790565b9035603e1982360301811215611075570190565b359060ff8216820361107557565b9035601e19823603018112156110755701602081359101916001600160401b03821161107557813603831361107557565b908060209392818452848401376000828201840152601f01601f1916010190565b91906126f18380612671565b906040815260808101936001600160401b03948561270e85612046565b16604084015260209384810135601e19823603018112156110755701908482359201968211611075578160051b36038713611075578190604060608601525260a08301959060005b8181106127a8575050506127a59394612798604093612779848787960190612671565b908681850391015260ff61278c82612685565b16835285810190612693565b93909482015201916126c4565b90565b9091968580600192838060a01b036127bf8c61205a565b168152019801929101612756565b35906001600160e01b03198216820361107557565b3590811515820361107557565b7f283d1424c49941ba61504663c7a1b6f59e6bbb963a00bcc130bcbf9c29e1e270546001600160401b039081808260801c169116018181116120e857811691161490565b90815480825260208092019260005281600020916000905b828210612859575050505090565b83546001600160a01b03168552938401936001938401939091019061284b565b906001602060405161288a816121f1565b6128b381956001600160401b0381541683526128ac6040518096819301612833565b0384612242565b0152565b90600092918054916128c8836120fe565b91828252600193848116908160001461292a57506001146128ea575b50505050565b90919394506000526020928360002092846000945b8386106129165750505050010190388080806128e4565b8054858701830152940193859082016128ff565b9294505050602093945060ff191683830152151560051b010190388080806128e4565b81601f820112156110755780359061296482612367565b926129726040519485612242565b8284526020838301011161107557816000926020809301838601378301015290565b919060408382031261107557604051926129ad846121f1565b838135916001600160401b039283811161107557846129cd918301612526565b8252602081013590838211611075570160408185031261107557604051936129f4856121f1565b6129fd82612685565b8552602082013593841161107557602093612a18920161294d565b828401520152565b604060206127a59381612a3a8551858452858401906125c9565b940151908281860391015260ff8151168452015191816020820152019061209b565b919060209081845280519360e083820152612a7d61010095868301906125c9565b916001600160401b0380858301511690604091828501528183015197606098898601528884015198601f19966080938888830301858901528b51928383528a8301948b808660051b8601019e016080526000935b858510612bac575050505050505082015194848489030160a08501528551908189528089019281808460051b8c01019801936000915b848310612b37575050505050506127a594955060c08160a060e0930151828501520151928285030191015261209b565b90919289898d8397989c030184528a5182612b598251868552868501906125c9565b91015191838183039101528280835192838152019201906000905b808210612b935750505090806001929b01930193019194939290612b07565b9193806001929486518152019401920187939291612b74565b9091929394959d8c8f82828f612c3e8e8a8f8d9786958c60019c030190528b836080515199612bed8b5193838c528451908c60c095869101528c0190612a20565b88840151603f198c83038101888e01529691612c0891612a20565b96840151858c0152830151169260a093848b015263ffffffff60e01b9083015116908901520151908683030160e087015261209b565b930151151591015260808051830190529f0196950193929190612ad1565b9060405191612c6a836121f1565b602083612c7683612879565b81526003612a1860405194612c8a866121f1565b60ff6002820154168652612ca460405180948193016128b7565b0382612242565b90815480825260208092019260005281600020916000905b828210612cd1575050505090565b835485529384019360019384019390910190612cc3565b90604091825190612cf88261220c565b8193612d0382612879565b83526001600160401b0360029080828501541660209081870152600390818601548588015260049283870193845490612d3b8261250f565b92612d4889519485612242565b8284528484019160009788528588209188935b8b868610612e11575050505050505060608801526005860190815493612d808561250f565b95612d8d88519788612242565b85875282870193825282822091935b868510612dd2575050505050505060c0926128ac85936128b39360806007980152600683015460a08601525180968193016128b7565b85846001928b51612de2816121f1565b612deb87612879565b81528c51612dff81612ca4818a8c01612cab565b83820152815201930194019391612d9c565b8860019282600c939d9b9d5190612e27826121f1565b600a815191612e3583612227565b612e3e8b612c5c565b8352612e4b8a8c01612c5c565b8684015260088b015481840152612e938b612e8c6009820154938c8516606088015260a09463ffffffff60e01b90861b1660808801525180958193016128b7565b0383612242565b820152815260ff600b89015416151583820152815201940194019392989698612d5b565b80546000825580612ec6575050565b61218a91600052602060002090810190612138565b90600160401b81116121db57815490808355818110612ef957505050565b61218a9260005260206000209182019101612138565b612f1981546120fe565b9081612f23575050565b81601f60009311600114612f35575055565b908083918252612f54601f60208420940160051c840160018501612138565b5555565b600361218a9160008155612f6e60018201612eb7565b6000600282015501612f0f565b600160401b82116121db57805490828155818310612f9857505050565b600c9282840292848404036120e85780840290848204036120e85760009182526020822092830192015b828110612fcf5750505050565b80612fda8592612f58565b612fe660048201612f58565b826008820155826009820155612ffe600a8201612f0f565b82600b82015501612fc2565b600160401b82116121db5780549180825582811061302757505050565b60009182526020822092830192015b82811061304257505050565b818155600101613036565b600160401b82116121db5780549082815581831061306a57505050565b60039282840292848404036120e85780840290848204036120e857600091825260209081832093840193015b8381106130a4575050505050565b808386925560016130b6818301612eb7565b60028201805490868155816130cf575b50505001613096565b8652848620908101905b818110156130c65786815588945082016130d9565b7f283d1424c49941ba61504663c7a1b6f59e6bbb963a00bcc130bcbf9c29e1e27181526001600160401b03909116602082015260400190565b60ff7f283d1424c49941ba61504663c7a1b6f59e6bbb963a00bcc130bcbf9c29e1e27354168083029083820414831517156120e8576064900460405191637d2ef4e560e11b835280600484015260208360248173__$e0f829f5071d7e628aa77eca0c12e35bc2$__5af492831561321e576000936131ea575b506001015490808211156131e1578083116131d8576131c8926131c29161235a565b9261235a565b11156131d357600190565b600290565b50505050600390565b50505050600090565b90926020823d8211613216575b8161320460209383612242565b810103126115485750519160016131a0565b3d91506131f7565b6040513d6000823e3d90fd5b818114613293578154916001600160401b0383116121db5761324c8383612edb565b60005260206000209060005260206000208154916000925b848410613272575050505050565b600191820180546001600160a01b0390921684860155939091019290613264565b5050565b90808214613293576132a981546120fe565b906001600160401b0382116121db5781906132c8826107b286546120fe565b600090601f83116001146132ff576000926132f4575b50508160011b916000199060031b1c1916179055565b0154905038806132de565b81526020808220858352818320935090601f1985169083905b828210613352575050908460019594939210613339575b505050811b019055565b015460001960f88460031b161c1916905538808061332f565b8495819295850154815560018091019601940190613318565b8181146132935781549161337f8383612f7b565b6000526020600020906000526020600020906000905b8382106133a25750505050565b80600191841415806133c0575b50600c809101930191019091613395565b806133ed575b506133e7600b60ff81840154169086019060ff801983541691151516179055565b386133af565b806134e8575b5060048085019082018082141580613475575b505050600881810154908501556009808201805491860180546001600160401b0390931667ffffffffffffffff19841681178255915463ffffffff60401b166bffffffffffffffffffffffff1990931690911791909117905561346f600a808301908601613297565b386133c6565b6134b7575b50506006808501908201808203613492575b80613406565b60ff90541660ff198254161790556134b06007808301908601613297565b388061348c565b6001600160401b039054166001600160401b03198254161790556134e1600580830190860161322a565b388061347a565b613528575b6002808501908201808203613503575b506133f3565b60ff90541660ff198254161790556135216003808301908601613297565b38806134fd565b6001600160401b038154166001600160401b03198554161784556135518280830190860161322a565b6134ed565b818114613293578154916001600160401b0383116121db57613578838361300a565b60005260206000209060005260206000208154916000925b84841061359e575050505050565b6001809192019384549281850155019290613590565b818114613293578154916135c8838361304d565b6000526020600020906000526020600020906000905b8382106135eb5750505050565b8060019184141580613609575b5060038091019301910190916135de565b613624575b61361e6002808301908601613556565b386135f8565b6001600160401b038154166001600160401b031985541617845561364d8280830190860161322a565b61360e565b600160406127a5936001600160401b038454168152816020820152019101612833565b600360406127a59381815261368c82820185613652565b90602081830391015260ff60028501541681528160208201520191016128b7565b60028101549060009182526005810160205260408220600c54916006820192835403613a525750600281016136eb6001600160401b03825416613b13565b6001600160401b0381541684526005602052604084208281141590816139b8575b5050613736602061371c84612ce8565b604051809381926339aa47fb60e01b835260048301612a5c565b038173__$1cd67d4dc9e627f0bec7928aa480e7d951$__5af4908115610f1f578591613986575b50600c55600d546001600160a01b031691823b156111c157604051631a9c293560e31b81526020600482015260e060248201529385938593909290916001600160401b036137af610104870184613652565b93541660448601526003820154606486015260048201926023198682030160848701528354808252602082019160208260051b820101958952602089209289915b8383106138d057505050505060058201926023198682030160a48701528354808252602082019160208260051b820101958952602089209289915b83831061387d57505050505061385a85936007889486945460c48601526023198584030160e4860152016128b7565b03925af18015610fa75761386c575050565b61387682916121c8565b6115485750565b92959799509297509294602060036138bc600193601f19868203018752604081526138ab604082018d613652565b908481830391015260028c01612cab565b990193019301899795938b9997959261382b565b929597995092975092946020600c89600193601f19868203018752604081528360ff600b61396960c080604087015261390d610100870188613675565b613927603f1991828982030160608a015260048a01613675565b9160088901546080890152600989015460a0906001600160401b038116828b015263ffffffff60e01b911b16908801528682030160e0870152600a87016128b7565b940154161515910152990193019301899795938b999795926137f0565b90506020813d6020116139b0575b816139a160209383612242565b8101031261107557513861375d565b3d9150613994565b613a1c91613a23575b600281016001600160401b038454166001600160401b0319825416179055600384015460038201556139f9600485016004830161336b565b613a0960058501600583016135b4565b8454600682015560078085019101613297565b388061370c565b6001600160401b038454166001600160401b0319825416178155613a4d600185016001830161322a565b6139c1565b90915073__$e0f829f5071d7e628aa77eca0c12e35bc2$__90813b15610fa3578390602460405180948193635a27a53960e11b835260048301525af4801561201657613af6575b50600201546001600160401b031673__$b7b8687e33476c74e3b4e0a64c4768a343$__803b1561168457613ae491839160405180809581946394ecccfd60e01b8352600483016130ee565b03915af48015610fa75761386c575050565b6001600160401b039192613b0b6002926121c8565b929150613a99565b613b1c816127ef565b15613c4a57604051634953836d60e11b815273__$b7b8687e33476c74e3b4e0a64c4768a343$__9060208180613b5586600483016130ee565b0381855af490811561321e57600091613c2c575b50613bf1575b803b1561107557600060405180926394ecccfd60e01b82528180613b9687600483016130ee565b03915af4801561321e57613be2575b506001600160401b037f283d1424c49941ba61504663c7a1b6f59e6bbb963a00bcc130bcbf9c29e1e27091166001600160401b0319825416179055565b613beb906121c8565b38613ba5565b6001600160401b03807f283d1424c49941ba61504663c7a1b6f59e6bbb963a00bcc130bcbf9c29e1e2715460801c1690831614613b6f575050565b613c44915060203d8111610f1857610f0a8183612242565b38613b69565b5056fea26469706673582212204b4e6b61990c60c43c8c73dd445bb934525e77d65a30353b1c66a3a1c2b7354d64736f6c63430008130033",
    "linkReferences": {
      "src/lib/CheckpointHelper.sol": {
        "CheckpointHelper": [
          {
            "start": 1135,
            "length": 20
          },
          {
            "start": 1495,
            "length": 20
          },
          {
            "start": 14166,
            "length": 20
          }
        ]
      },
      "src/lib/CrossMsgHelper.sol": {
        "CrossMsgHelper": [
          {
            "start": 607,
            "length": 20
          }
        ]
      },
      "src/lib/EpochVoteSubmissionHelper.sol": {
        "EpochVoteSubmissionHelper": [
          {
            "start": 4063,
            "length": 20
          },
          {
            "start": 4115,
            "length": 20
          },
          {
            "start": 12696,
            "length": 20
          },
          {
            "start": 14963,
            "length": 20
          }
        ]
      },
      "src/lib/ExecutableQueueHelper.sol": {
        "ExecutableQueueHelper": [
          {
            "start": 3912,
            "length": 20
          },
          {
            "start": 3972,
            "length": 20
          },
          {
            "start": 15045,
            "length": 20
          },
          {
            "start": 15180,
            "length": 20
          }
        ]
      },
      "src/lib/SubnetIDHelper.sol": {
        "SubnetIDHelper": [
          {
            "start": 476,
            "length": 20
          }
        ]
      }
    }
  },
  "methodIdentifiers": {
    "committedCheckpoints(uint64)": "98903748",
    "hasValidatorVotedForSubmission(uint64,address)": "66d7bbbc",
    "join(string,(uint8,bytes))": "6cf6970a",
    "kill()": "41c0e1b5",
    "leave()": "d66d9e19",
    "reward(uint256)": "a9fb763c",
    "setValidatorNetAddr(string)": "7cc4fc43",
    "setValidatorWorkerAddr((uint8,bytes))": "e8ef872f",
    "submitCheckpoint(((uint64,address[]),uint64,uint256,((((uint64,address[]),(uint8,bytes)),((uint64,address[]),(uint8,bytes)),uint256,uint64,bytes4,bytes),bool)[],((uint64,address[]),bytes32[])[],bytes32,bytes))": "f6fd8381",
    "withdraw()": "3ccfd60b"
  },
  "id": 45
}