{"abi":[{"type":"constructor","inputs":[{"name":"name_","type":"string","internalType":"string"},{"name":"symbol_","type":"string","internalType":"string"},{"name":"initialSupply","type":"uint256","internalType":"uint256"},{"name":"owner","type":"address","internalType":"address"},{"name":"deflationRate_","type":"uint256","internalType":"uint256"}],"stateMutability":"nonpayable"},{"type":"function","name":"allowance","inputs":[{"name":"owner","type":"address","internalType":"address"},{"name":"spender","type":"address","internalType":"address"}],"outputs":[{"name":"","type":"uint256","internalType":"uint256"}],"stateMutability":"view"},{"type":"function","name":"approve","inputs":[{"name":"spender","type":"address","internalType":"address"},{"name":"value","type":"uint256","internalType":"uint256"}],"outputs":[{"name":"","type":"bool","internalType":"bool"}],"stateMutability":"nonpayable"},{"type":"function","name":"balanceOf","inputs":[{"name":"account","type":"address","internalType":"address"}],"outputs":[{"name":"","type":"uint256","internalType":"uint256"}],"stateMutability":"view"},{"type":"function","name":"decimals","inputs":[],"outputs":[{"name":"","type":"uint8","internalType":"uint8"}],"stateMutability":"view"},{"type":"function","name":"deflationRatePercentage","inputs":[],"outputs":[{"name":"","type":"uint256","internalType":"uint256"}],"stateMutability":"view"},{"type":"function","name":"name","inputs":[],"outputs":[{"name":"","type":"string","internalType":"string"}],"stateMutability":"view"},{"type":"function","name":"owner","inputs":[],"outputs":[{"name":"","type":"address","internalType":"address"}],"stateMutability":"view"},{"type":"function","name":"renounceOwnership","inputs":[],"outputs":[],"stateMutability":"nonpayable"},{"type":"function","name":"setDeflationRate","inputs":[{"name":"newRate","type":"uint256","internalType":"uint256"}],"outputs":[],"stateMutability":"nonpayable"},{"type":"function","name":"symbol","inputs":[],"outputs":[{"name":"","type":"string","internalType":"string"}],"stateMutability":"view"},{"type":"function","name":"totalSupply","inputs":[],"outputs":[{"name":"","type":"uint256","internalType":"uint256"}],"stateMutability":"view"},{"type":"function","name":"transfer","inputs":[{"name":"to","type":"address","internalType":"address"},{"name":"value","type":"uint256","internalType":"uint256"}],"outputs":[{"name":"","type":"bool","internalType":"bool"}],"stateMutability":"nonpayable"},{"type":"function","name":"transferFrom","inputs":[{"name":"from","type":"address","internalType":"address"},{"name":"to","type":"address","internalType":"address"},{"name":"value","type":"uint256","internalType":"uint256"}],"outputs":[{"name":"","type":"bool","internalType":"bool"}],"stateMutability":"nonpayable"},{"type":"function","name":"transferOwnership","inputs":[{"name":"newOwner","type":"address","internalType":"address"}],"outputs":[],"stateMutability":"nonpayable"},{"type":"event","name":"Approval","inputs":[{"name":"owner","type":"address","indexed":true,"internalType":"address"},{"name":"spender","type":"address","indexed":true,"internalType":"address"},{"name":"value","type":"uint256","indexed":false,"internalType":"uint256"}],"anonymous":false},{"type":"event","name":"OwnershipTransferred","inputs":[{"name":"previousOwner","type":"address","indexed":true,"internalType":"address"},{"name":"newOwner","type":"address","indexed":true,"internalType":"address"}],"anonymous":false},{"type":"event","name":"Transfer","inputs":[{"name":"from","type":"address","indexed":true,"internalType":"address"},{"name":"to","type":"address","indexed":true,"internalType":"address"},{"name":"value","type":"uint256","indexed":false,"internalType":"uint256"}],"anonymous":false},{"type":"error","name":"ERC20InsufficientAllowance","inputs":[{"name":"spender","type":"address","internalType":"address"},{"name":"allowance","type":"uint256","internalType":"uint256"},{"name":"needed","type":"uint256","internalType":"uint256"}]},{"type":"error","name":"ERC20InsufficientBalance","inputs":[{"name":"sender","type":"address","internalType":"address"},{"name":"balance","type":"uint256","internalType":"uint256"},{"name":"needed","type":"uint256","internalType":"uint256"}]},{"type":"error","name":"ERC20InvalidApprover","inputs":[{"name":"approver","type":"address","internalType":"address"}]},{"type":"error","name":"ERC20InvalidReceiver","inputs":[{"name":"receiver","type":"address","internalType":"address"}]},{"type":"error","name":"ERC20InvalidSender","inputs":[{"name":"sender","type":"address","internalType":"address"}]},{"type":"error","name":"ERC20InvalidSpender","inputs":[{"name":"spender","type":"address","internalType":"address"}]},{"type":"error","name":"OwnableInvalidOwner","inputs":[{"name":"owner","type":"address","internalType":"address"}]},{"type":"error","name":"OwnableUnauthorizedAccount","inputs":[{"name":"account","type":"address","internalType":"address"}]}],"bytecode":{"object":"0x60806040523461043157610feb8038038061001981610436565b928339810160a0828203126104315781516001600160401b038111610431578161004491840161045b565b602083015190916001600160401b0382116104315761006491840161045b565b60408301519160608401519160018060a01b038316948584036104315760800151825190926001600160401b03821161032e5760035490600182811c92168015610427575b602083101461030e5781601f8493116103b7575b50602090601f831160011461034f57600092610344575b50508160011b916000199060031b1c1916176003555b8051906001600160401b03821161032e5760045490600182811c92168015610324575b602083101461030e5781601f84931161029e575b50602090601f83116001146102365760009261022b575b50508160011b916000199060031b1c1916176004555b831561021557600580546001600160a01b03198116861790915560405194906001600160a01b03167f8be0079c531659141344cd1fd0a4f28419497f9722a3daafe3b4186f6b6457e0600080a3606481116101c1576101b2935060065560006104c6565b60405161098290816106498239f35b62461bcd60e51b845260206004850152602960248501527f4465666c6174696f6e2072617465206d757374206265206265747765656e20306044850152681030b732101898181760b91b6064850152608484fd5b631e4fbdf760e01b600052600060045260246000fd5b015190503880610138565b600460009081528281209350601f198516905b818110610286575090846001959493921061026d575b505050811b0160045561014e565b015160001960f88460031b161c1916905538808061025f565b92936020600181928786015181550195019301610249565b60046000529091507f8a35acfbc15ff81a39ae7d344fd709f28e8600b4aa8c65c6b64bfe7fe36bd19b601f840160051c81019160208510610304575b90601f859493920160051c01905b8181106102f55750610121565b600081558493506001016102e8565b90915081906102da565b634e487b7160e01b600052602260045260246000fd5b91607f169161010d565b634e487b7160e01b600052604160045260246000fd5b0151905038806100d4565b600360009081528281209350601f198516905b81811061039f5750908460019594939210610386575b505050811b016003556100ea565b015160001960f88460031b161c19169055388080610378565b92936020600181928786015181550195019301610362565b60036000529091507fc2575a0e9e593c00f959f8c92f12db2869c3395a3b0502d05e2516446f71f85b601f840160051c8101916020851061041d575b90601f859493920160051c01905b81811061040e57506100bd565b60008155849350600101610401565b90915081906103f3565b91607f16916100a9565b600080fd5b6040519190601f01601f191682016001600160401b0381118382101761032e57604052565b81601f82011215610431578051906001600160401b03821161032e5761048a601f8301601f1916602001610436565b92828452602083830101116104315760005b8281106104b157505060206000918301015290565b8060208092840101518282870101520161049c565b91906001600160a01b03831615158061053e575b156105355760065480830290838204148315171561051f57606490049182810390811161051f5761050b9184610550565b80610514575050565b61051d91610617565b565b634e487b7160e01b600052601160045260246000fd5b61051d92610550565b506001600160a01b03811615156104da565b6001600160a01b031690816105bc5760025483810180911161051f57600080516020610fcb833981519152916020916002555b6001600160a01b031693846105a45780600254036002555b604051908152a3565b8460005260008252604060002081815401905561059b565b8160005260006020526040600020548381106105fa57600080516020610fcb8339815191529184602092856000526000845203604060002055610583565b91905063391434e360e21b60005260045260245260445260646000fd5b906001600160a01b0382161561063257600061051d926104c6565b634b637e8f60e11b600052600060045260246000fdfe608080604052600436101561001357600080fd5b60003560e01c90816306fdde03146105f657508063095ea7b31461057057806318160ddd1461055257806323b872dd14610465578063313ce5671461044957806341bfe4ba146103c957806370a082311461038f578063715018a6146103325780638da5cb5b1461030957806395d89b41146101e8578063a9059cbb146101b7578063b31bae8214610199578063dd62ed3e146101485763f2fde38b146100b957600080fd5b34610143576020366003190112610143576100d2610712565b6100da610795565b6001600160a01b0316801561012d57600580546001600160a01b0319811683179091556001600160a01b03167f8be0079c531659141344cd1fd0a4f28419497f9722a3daafe3b4186f6b6457e0600080a3005b631e4fbdf760e01b600052600060045260246000fd5b600080fd5b3461014357604036600319011261014357610161610712565b610169610728565b6001600160a01b039182166000908152600160209081526040808320949093168252928352819020549051908152f35b34610143576000366003190112610143576020600654604051908152f35b34610143576040366003190112610143576101dd6101d3610712565b602435903361073e565b602060405160018152f35b346101435760003660031901126101435760405160006004548060011c906001811680156102ff575b6020831081146102eb578285529081156102cf5750600114610278575b50819003601f01601f191681019067ffffffffffffffff8211818310176102625761025e829182604052826106c9565b0390f35b634e487b7160e01b600052604160045260246000fd5b905060046000527f8a35acfbc15ff81a39ae7d344fd709f28e8600b4aa8c65c6b64bfe7fe36bd19b6000905b8282106102b95750602091508201018261022e565b60018160209254838588010152019101906102a4565b90506020925060ff191682840152151560051b8201018261022e565b634e487b7160e01b84526022600452602484fd5b91607f1691610211565b34610143576000366003190112610143576005546040516001600160a01b039091168152602090f35b346101435760003660031901126101435761034b610795565b600580546001600160a01b031981169091556000906001600160a01b03167f8be0079c531659141344cd1fd0a4f28419497f9722a3daafe3b4186f6b6457e08280a3005b34610143576020366003190112610143576001600160a01b036103b0610712565b1660005260006020526020604060002054604051908152f35b34610143576020366003190112610143576004356103e5610795565b606481116103f257600655005b60405162461bcd60e51b815260206004820152602960248201527f4465666c6174696f6e2072617465206d757374206265206265747765656e20306044820152681030b732101898181760b91b6064820152608490fd5b3461014357600036600319011261014357602060405160128152f35b346101435760603660031901126101435761047e610712565b610486610728565b6001600160a01b03821660008181526001602081815260408084203385529091529091205491936044359392909181016104c6575b506101dd935061073e565b83811061053557841561051f573315610509576101dd946000526001602052604060002060018060a01b03331660005260205283604060002091039055846104bb565b634a1406b160e11b600052600060045260246000fd5b63e602df0560e01b600052600060045260246000fd5b8390637dc7a0d960e11b6000523360045260245260445260646000fd5b34610143576000366003190112610143576020600254604051908152f35b3461014357604036600319011261014357610589610712565b60243590331561051f576001600160a01b031690811561050957336000526001602052604060002082600052602052806040600020556040519081527f8c5be1e5ebec7d5bd14f71427d1e84f3dd0314c0f7b2291e5b200ac8c7c3b92560203392a3602060405160018152f35b346101435760003660031901126101435760006003548060011c906001811680156106bf575b6020831081146102eb578285529081156102cf57506001146106685750819003601f01601f191681019067ffffffffffffffff8211818310176102625761025e829182604052826106c9565b905060036000527fc2575a0e9e593c00f959f8c92f12db2869c3395a3b0502d05e2516446f71f85b6000905b8282106106a95750602091508201018261022e565b6001816020925483858801015201910190610694565b91607f169161061c565b91909160208152825180602083015260005b8181106106fc575060409293506000838284010152601f8019910116010190565b80602080928701015160408286010152016106db565b600435906001600160a01b038216820361014357565b602435906001600160a01b038216820361014357565b91906001600160a01b0383161561077f576001600160a01b0381161561076957610767926107be565b565b63ec442f0560e01b600052600060045260246000fd5b634b637e8f60e11b600052600060045260246000fd5b6005546001600160a01b031633036107a957565b63118cdaa760e01b6000523360045260246000fd5b91906001600160a01b038316151580610834575b1561082b57600654808302908382041483151715610815576064900491828103908111610815576108039184610846565b8061080c575050565b61076791610931565b634e487b7160e01b600052601160045260246000fd5b61076792610846565b506001600160a01b03811615156107d2565b6001600160a01b031690816108c457600254838101809111610815577fddf252ad1be2c89b69c2b068fc378daa952ba7f163c4a11628f55a4df523b3ef916020916002555b6001600160a01b031693846108ac5780600254036002555b604051908152a3565b846000526000825260406000208181540190556108a3565b816000526000602052604060002054838110610914577fddf252ad1be2c89b69c2b068fc378daa952ba7f163c4a11628f55a4df523b3ef918460209285600052600084520360406000205561088b565b91905063391434e360e21b60005260045260245260445260646000fd5b906001600160a01b0382161561077f576000610767926107be56fea26469706673582212203d61b3c8295ae815c413920a7cc6ab136e07ba4d895045faa55679bb9f8c598c64736f6c634300081a0033ddf252ad1be2c89b69c2b068fc378daa952ba7f163c4a11628f55a4df523b3ef","linkReferences":{}},"methodIdentifiers":{"allowance(address,address)":"dd62ed3e","approve(address,uint256)":"095ea7b3","balanceOf(address)":"70a08231","decimals()":"313ce567","deflationRatePercentage()":"b31bae82","name()":"06fdde03","owner()":"8da5cb5b","renounceOwnership()":"715018a6","setDeflationRate(uint256)":"41bfe4ba","symbol()":"95d89b41","totalSupply()":"18160ddd","transfer(address,uint256)":"a9059cbb","transferFrom(address,address,uint256)":"23b872dd","transferOwnership(address)":"f2fde38b"},"id":104}