{"abi":[{"type":"function","name":"submitCheckpoint","inputs":[{"name":"checkpoint","type":"tuple","internalType":"struct BottomUpCheckpoint","components":[{"name":"subnetID","type":"tuple","internalType":"struct SubnetID","components":[{"name":"root","type":"uint64","internalType":"uint64"},{"name":"route","type":"address[]","internalType":"address[]"}]},{"name":"blockHeight","type":"uint256","internalType":"uint256"},{"name":"blockHash","type":"bytes32","internalType":"bytes32"},{"name":"nextConfigurationNumber","type":"uint64","internalType":"uint64"},{"name":"msgs","type":"tuple[]","internalType":"struct IpcEnvelope[]","components":[{"name":"kind","type":"uint8","internalType":"enum IpcMsgKind"},{"name":"to","type":"tuple","internalType":"struct IPCAddress","components":[{"name":"subnetId","type":"tuple","internalType":"struct SubnetID","components":[{"name":"root","type":"uint64","internalType":"uint64"},{"name":"route","type":"address[]","internalType":"address[]"}]},{"name":"rawAddress","type":"tuple","internalType":"struct FvmAddress","components":[{"name":"addrType","type":"uint8","internalType":"uint8"},{"name":"payload","type":"bytes","internalType":"bytes"}]}]},{"name":"from","type":"tuple","internalType":"struct IPCAddress","components":[{"name":"subnetId","type":"tuple","internalType":"struct SubnetID","components":[{"name":"root","type":"uint64","internalType":"uint64"},{"name":"route","type":"address[]","internalType":"address[]"}]},{"name":"rawAddress","type":"tuple","internalType":"struct FvmAddress","components":[{"name":"addrType","type":"uint8","internalType":"uint8"},{"name":"payload","type":"bytes","internalType":"bytes"}]}]},{"name":"nonce","type":"uint64","internalType":"uint64"},{"name":"value","type":"uint256","internalType":"uint256"},{"name":"message","type":"bytes","internalType":"bytes"}]}]},{"name":"signatories","type":"address[]","internalType":"address[]"},{"name":"signatures","type":"bytes[]","internalType":"bytes[]"}],"outputs":[],"stateMutability":"nonpayable"},{"type":"function","name":"validateActiveQuorumSignatures","inputs":[{"name":"signatories","type":"address[]","internalType":"address[]"},{"name":"hash","type":"bytes32","internalType":"bytes32"},{"name":"signatures","type":"bytes[]","internalType":"bytes[]"}],"outputs":[],"stateMutability":"view"},{"type":"event","name":"ActiveValidatorCollateralUpdated","inputs":[{"name":"validator","type":"address","indexed":false,"internalType":"address"},{"name":"newPower","type":"uint256","indexed":false,"internalType":"uint256"}],"anonymous":false},{"type":"event","name":"ActiveValidatorLeft","inputs":[{"name":"validator","type":"address","indexed":false,"internalType":"address"}],"anonymous":false},{"type":"event","name":"ActiveValidatorReplaced","inputs":[{"name":"oldValidator","type":"address","indexed":false,"internalType":"address"},{"name":"newValidator","type":"address","indexed":false,"internalType":"address"}],"anonymous":false},{"type":"event","name":"ConfigurationNumberConfirmed","inputs":[{"name":"number","type":"uint64","indexed":false,"internalType":"uint64"}],"anonymous":false},{"type":"event","name":"NewActiveValidator","inputs":[{"name":"validator","type":"address","indexed":false,"internalType":"address"},{"name":"power","type":"uint256","indexed":false,"internalType":"uint256"}],"anonymous":false},{"type":"event","name":"NewCollateralRelease","inputs":[{"name":"validator","type":"address","indexed":false,"internalType":"address"},{"name":"amount","type":"uint256","indexed":false,"internalType":"uint256"},{"name":"releaseBlock","type":"uint256","indexed":false,"internalType":"uint256"}],"anonymous":false},{"type":"event","name":"NewWaitingValidator","inputs":[{"name":"validator","type":"address","indexed":false,"internalType":"address"},{"name":"power","type":"uint256","indexed":false,"internalType":"uint256"}],"anonymous":false},{"type":"event","name":"Paused","inputs":[{"name":"account","type":"address","indexed":false,"internalType":"address"}],"anonymous":false},{"type":"event","name":"Unpaused","inputs":[{"name":"account","type":"address","indexed":false,"internalType":"address"}],"anonymous":false},{"type":"event","name":"WaitingValidatorCollateralUpdated","inputs":[{"name":"validator","type":"address","indexed":false,"internalType":"address"},{"name":"newPower","type":"uint256","indexed":false,"internalType":"uint256"}],"anonymous":false},{"type":"event","name":"WaitingValidatorLeft","inputs":[{"name":"validator","type":"address","indexed":false,"internalType":"address"}],"anonymous":false},{"type":"error","name":"AddressShouldBeValidator","inputs":[]},{"type":"error","name":"BottomUpCheckpointAlreadySubmitted","inputs":[]},{"type":"error","name":"CannotConfirmFutureChanges","inputs":[]},{"type":"error","name":"CannotSubmitFutureCheckpoint","inputs":[]},{"type":"error","name":"EnforcedPause","inputs":[]},{"type":"error","name":"ExpectedPause","inputs":[]},{"type":"error","name":"InvalidCheckpointEpoch","inputs":[]},{"type":"error","name":"InvalidSignatureErr","inputs":[{"name":"","type":"uint8","internalType":"uint8"}]},{"type":"error","name":"MaxMsgsPerBatchExceeded","inputs":[]},{"type":"error","name":"NotValidator","inputs":[{"name":"","type":"address","internalType":"address"}]},{"type":"error","name":"PQDoesNotContainAddress","inputs":[]},{"type":"error","name":"PQEmpty","inputs":[]},{"type":"error","name":"ReentrancyError","inputs":[]}],"bytecode":{"object":"0x60808060405234601557612e96908161001b8239f35b600080fdfe6080604052600436101561001257600080fd5b6000803560e01c806379979f57146100c05763cc2dc2b91461003357600080fd5b346100bd5760603660031901126100bd576004356001600160401b0381116100b957366023820112156100b9576100749036906024816004013591016109b1565b604435906001600160401b0382116100b557366023830112156100b5576100a86100b2923690602481600401359101610a20565b9060243590610fe6565b80f35b8280fd5b5080fd5b80fd5b50346100bd5760603660031901126100bd576004356001600160401b0381116100b9578060040160a060031983360301126100b5576024356001600160401b0381116109165761011490369060040161091a565b6044356001600160401b0381116109125761013390369060040161091a565b9260ff7fc451c9429c27db68f286ab8a68f311f1dccab703ba9423aed29cd397ae63f8635416610903576101b09392916101a26101aa9261017388611154565b6040516020810190610197816101898c85610c68565b03601f19810183528261094f565b5190209436916109b1565b933691610a20565b91610fe6565b6024820135808452601a60205260408420926101cc8380610dcd565b6001600160401b036101dd82610de2565b166001600160401b03198654161785556101ff60018601916020810190610df6565b906001600160401b0382116108ef576102188284610e6b565b918752602087209187905b8282106108c657505050508160028501556044810135600385015561027960846005606484019661025388610de2565b6001600160401b036004830191166001600160401b031982541617905501920184610df6565b91600160401b83116108b2578054838255808410610818575b509186949392829086526020862090869360be1981360301915b8486106103375750505050505060015560018060a01b036005541690813b156100b55782916102f19160405194858094819363fba0fa4d60e01b835260048301610c68565b03925af1801561032c57610312575b5061030d6100b291610de2565b6113bf565b826103246100b2939461030d9361094f565b929150610300565b6040513d85823e3d90fd5b809192939495969798503583811215610814578201803560038110156108105761036081610b8d565b60ff801987541691161785556103796020820182610dcd565b6103838180610dcd565b61038c81610de2565b6001600160401b036001890191166001600160401b03198254161790556103bb60028801916020810190610df6565b91906001600160401b038311610772578e9291906103d98383610e6b565b9083526020832092905b8282106107eb575050505061040060038701916020810190610dcd565b90813560ff81168091036107445760ff1982541617905561042960048701916020810190610f6f565b906001600160401b03821161073057908d9161044f826104498654610ea1565b86610fa1565b82601f83116001146107865761047c93909183610641575b50508160011b916000199060031b1c19161790565b90555b61048c6040820182610dcd565b6104968180610dcd565b61049f81610de2565b6001600160401b036005890191166001600160401b03198254161790556104ce60068801916020810190610df6565b91906001600160401b038311610772578e9291906104ec8383610e6b565b9083526020832092905b828210610748575050505061051360078701916020810190610dcd565b90813560ff81168091036107445760ff1982541617905561053c60088701916020810190610f6f565b906001600160401b03821161073057908d9161055c826104498654610ea1565b82601f83116001146106cb57610588939091836106415750508160011b916000199060031b1c19161790565b90555b61059760608201610de2565b6001600160401b036009870191166001600160401b03198254161790556080810135600a8601556105d0600b86019160a0810190610f6f565b906001600160401b0382116106b7576105f3826105ed8554610ea1565b85610fa1565b8c908d601f841160011461064c578360209460019794600c979461062b94926106415750508160011b916000199060031b1c19161790565b90555b01940195019392908997969592916102ac565b013590503880610467565b91601f19841685845260208420935b81811061069f57509360019693600c969388938360209810610685575b505050811b01905561062e565b0135600019600384901b60f8161c19169055388080610678565b9193602060018192878701358155019501920161065b565b634e487b7160e01b8d52604160045260248dfd5b9192601f19841685845260208420935b81811061071857509084600195949392106106fe575b505050811b01905561058b565b0135600019600384901b60f8161c191690553880806106f1565b919360206001819287870135815501950192016106db565b634e487b7160e01b8e52604160045260248efd5b8d80fd5b8035916001600160a01b038316830361076d57602060019201928186015501906104f6565b508f80fd5b634e487b7160e01b8f52604160045260248ffd5b9192601f19841685845260208420935b8181106107d357509084600195949392106107b9575b505050811b01905561047f565b0135600019600384901b60f8161c191690553880806107ac565b91936020600181928787013581550195019201610796565b8035916001600160a01b038316830361076d57602060019201928186015501906103e3565b8b80fd5b8a80fd5b80600c0290600c82040361089e5783600c02600c8104850361088a578289526020892091820191015b81811061084e5750610292565b8089600c925561086060018201610f2a565b61086c60058201610f2a565b89600982015589600a820155610884600b8201610edb565b01610841565b634e487b7160e01b89526011600452602489fd5b634e487b7160e01b88526011600452602488fd5b634e487b7160e01b87526041600452602487fd5b8035916001600160a01b03831683036108eb5760206001920192818601550190610223565b8980fd5b634e487b7160e01b88526041600452602488fd5b63d93c066560e01b8752600487fd5b8580fd5b8380fd5b9181601f8401121561094a578235916001600160401b03831161094a576020808501948460051b01011161094a57565b600080fd5b90601f801991011681019081106001600160401b0382111761097057604052565b634e487b7160e01b600052604160045260246000fd5b6001600160401b0381116109705760051b60200190565b35906001600160a01b038216820361094a57565b9291906109bd81610986565b936109cb604051958661094f565b602085838152019160051b810192831161094a57905b8282106109ed57505050565b602080916109fa8461099d565b8152019101906109e1565b6001600160401b03811161097057601f01601f191660200190565b92919092610a2d84610986565b93610a3b604051958661094f565b602085828152019060051b82019183831161094a5780915b838310610a61575050505050565b82356001600160401b03811161094a57820185601f8201121561094a57803591610a8a83610a05565b610a97604051918261094f565b838152876020858501011161094a5760006020858196828097018386013783010152815201920191610a53565b9035603e198236030181121561094a570190565b35906001600160401b038216820361094a57565b9035601e198236030181121561094a5701602081359101916001600160401b03821161094a578160051b3603831361094a57565b906060610b4960408301936001600160401b03610b3c82610ad8565b1684526020810190610aec565b604060208501529384905291019160005b818110610b675750505090565b909192602080600192838060a01b03610b7f8861099d565b168152019401929101610b5a565b60031115610b9757565b634e487b7160e01b600052602160045260246000fd5b9035601e198236030181121561094a5701602081359101916001600160401b03821161094a57813603831361094a57565b908060209392818452848401376000828201840152601f01601f1916010190565b610c28610c1d610c0f8380610ac4565b604085526040850190610b20565b916020810190610ac4565b91602081830391015281359160ff831680930361094a57610c55604091610c659484526020810190610bad565b9190928160208201520191610bde565b90565b60208152610cc6610c8d610c7c8480610ac4565b60a0602085015260c0840190610b20565b9260208101356040840152604081013560608401526001600160401b03610cb660608301610ad8565b1660808401526080810190610aec565b909160a0601f1982860301910152808352602083019060208160051b850101938360009160be1982360301905b848410610d04575050505050505090565b90919293949596601f1982820301875287358381121561094a578401803591600383101561094a57610dbe602092839285610d40600197610b8d565b8152610db0610d81610d67610d5787860186610ac4565b60c08886015260c0850190610bff565b610d746040860186610ac4565b8482036040860152610bff565b926001600160401b03610d9660608301610ad8565b1660608401526080810135608084015260a0810190610bad565b9160a0818503910152610bde565b99019701959401929190610cf3565b903590603e198136030182121561094a570190565b356001600160401b038116810361094a5790565b903590601e198136030182121561094a57018035906001600160401b03821161094a57602001918160051b3603831361094a57565b81810292918115918404141715610e3e57565b634e487b7160e01b600052601160045260246000fd5b818110610e5f575050565b60008155600101610e54565b90600160401b811161097057815490808355818110610e8957505050565b610e9f9260005260206000209182019101610e54565b565b90600182811c92168015610ed1575b6020831014610ebb57565b634e487b7160e01b600052602260045260246000fd5b91607f1691610eb0565b610ee58154610ea1565b9081610eef575050565b81601f60009311600114610f01575055565b81835260208320610f1d91601f0160051c810190600101610e54565b8082528160208120915555565b6003610e9f91600081556001810180546000825580610f53575b50506000600282015501610edb565b610f6891600052602060002090810190610e54565b3880610f44565b903590601e198136030182121561094a57018035906001600160401b03821161094a5760200191813603831361094a57565b9190601f8111610fb057505050565b610e9f926000526020600020906020601f840160051c83019310610fdc575b601f0160051c0190610e54565b9091508190610fcf565b909192815193610ff585610986565b94611003604051968761094f565b808652601f1961101282610986565b0136602088013760005b8181106110d057505060009361ffff600d5416936001955b61ffff871686811161107c576000908152600f602052604090205461ffff91600191611073919061106d906001600160a01b0316611b6d565b90611a07565b97011695611034565b506110a6965060649193955061109f909792949760ff60055460e01c1690610e2b565b0491611a14565b90156110af5750565b6006811015610b975760ff9063282ef1c160e01b6000521660045260246000fd5b61ffff60406001600160a01b036110e784896119dd565b51166000908152600e6020522054161561112b5760019061111a6001600160a01b0361111383896119dd565b5116611b6d565b611124828a6119dd565b520161101c565b6001600160a01b039061113e90866119dd565b5116633b4f6e2b60e21b60005260045260246000fd5b6001600160401b0360055460a01c169060808101826111738284610df6565b905011611220576001546003546020840135918083111561120f5781156111f9576001600160401b03829116049060018201809211610e3e576111b591610e2b565b908181116111e857146111e3576111cb91610df6565b905014610e9f5763fae4eadb60e01b60005260046000fd5b505050565b63dd88982f60e01b60005260046000fd5b634e487b7160e01b600052601260045260246000fd5b63d6bb62dd60e01b60005260046000fd5b63351c700760e01b60005260046000fd5b60041115610b9757565b906040519182600082549261124f84610ea1565b80845293600181169081156112bb5750600114611274575b50610e9f9250038361094f565b90506000929192526020600020906000915b81831061129f575050906020610e9f9282010138611267565b6020919350806001915483858901015201910190918492611286565b905060209250610e9f94915060ff191682840152151560051b82010138611267565b9190918281146113ba576112f18354610ea1565b6001600160401b038111610970576113138161130d8454610ea1565b84610fa1565b600093601f82116001146113545761134592939482916000926113495750508160011b916000199060031b1c19161790565b9055565b015490503880610467565b845260208085208386529085209094601f198316815b8181106113a257509583600195969710611389575b505050811b019055565b015460001960f88460031b161c1916905538808061137f565b9192600180602092868b01548155019401920161136a565b509050565b6013546001600160401b0391821691811682106113e75763040aaa0560e11b60005260046000fd5b6001600160401b038160401c1682106119d95760401c6001600160401b03165b816001600160401b03821611156114885750600181016001600160401b038111610e3e57601380546fffffffffffffffff00000000000000001916604092831b6fffffffffffffffff000000000000000016179055519081527f246f00b61ce672242f33bb680a47147cd54d3dfd04dbb76956ba42f88087bf6390602090a1565b6114a5816001600160401b03166000526014602052604060002090565b60018060a01b036002820154169060ff8154166114c181611231565b6002810361153857509161150060019260036114fa856001600160401b0397019260018060a01b0316600052600c602052604060002090565b016112dd565b60006002611521836001600160401b03166000526014602052604060002090565b82815561152f858201610edb565b01550116611407565b61154181611231565b600381036116f757506001611556910161123b565b9081518201916040816020850194031261094a5760208101516001600160401b03811161094a57810183603f8201121561094a5760208101519061159982610a05565b946115a7604051968761094f565b8286526040828401011161094a5760005b8281106116e057505090600060206040938601015201519160036115ee8360018060a01b0316600052600c602052604060002090565b01908051906001600160401b0382116109705761160f826105ed8554610ea1565b602090601f8311600114611668579261165183600197946001600160401b039997946116589760009261165d5750508160011b916000199060031b1c19161790565b9055611b23565b611500565b015190503880610467565b90601f1983169184600052816000209260005b8181106116c85750936001600160401b0398969361165896936001999693838b95106116af575b505050811b019055611b23565b015160001960f88460031b161c191690553880806116a2565b9293602060018192878601518155019501930161167b565b8060208080938501010151828289010152016115b8565b9291906001611706910161123b565b60208180518101031261094a57602060019101519361172481611231565b0361192e576117bd61175584600161174e8560018060a01b0316600052600c602052604060002090565b0154611b16565b6001600160a01b0383166000908152600c602052604090206002015481159081611925575b5015611902576001600160a01b0383166000908152600c602052604090206117b79060039060008155600060018201556000600282015501610edb565b82611fe5565b6117c983600b54611b16565b600b556117d860155443611a07565b906040519060408201928284106001600160401b038511176109705761ffff93604052808352602083018681526040600084815260166020522090815486811696879160101c16019061ffff8211610e3e577f083b080788e20bd0930c2bca2ae4fbc51a59ced08c1b5992271f8cb439498a6396606096600161187693604061ffff96876000911681528389016020522092518355519101556124a3565b1661ffff198254161790556040519182528560208301526040820152a16005546001600160a01b031691823b1561094a576000926024849260405195869384926345f5448560e01b845260048401525af19081156118f6576001600160401b03926001926118e5575b50611500565b60006118f09161094f565b386118df565b6040513d6000823e3d90fd5b6001600160a01b0383166000908152600c602052604090208190600101556117b7565b9050153861177a565b8061195b8460016119546119919560018060a01b0316600052600c602052604060002090565b0154611a07565b9081600161197b8360018060a01b0316600052600c602052604060002090565b015561198985600b54611a07565b600b55611c49565b6005546001600160a01b0316803b1561094a576000906004604051809581936316989f6f60e21b83525af19081156118f6576001600160401b03926001926118e55750611500565b5050565b80518210156119f15760209160051b010190565b634e487b7160e01b600052603260045260246000fd5b91908201809211610e3e57565b84519294600094908415611b075782518514801590611afc575b611aed57939291906000945b848610611a5d575050505050501015611a5557600090600590565b600190600090565b909192939495611a77611a7088846119dd565b5184611c0d565b50611a8181611231565b611adc576001600160a01b03611a9789876119dd565b51166001600160a01b0390911603611acc57611ac0600191611ab989886119dd565b5190611a07565b96019493929190611a3a565b5050505050505050600090600390565b505050505050505050600090600490565b50505050505050600090600190565b508351851415611a2e565b50505050505050600090600290565b91908203918211610e3e57565b6001600160a01b0381166000908152600c60205260409020805490839055909190808203611b5057505050565b811115611b6257610e9f91600a611e56565b610e9f91600a6122aa565b600160ff600a5416611b7e81610b8d565b03611b9e576001600160a01b03166000908152600c602052604090205490565b6001600160a01b03166000908152600c602052604090206001015490565b600291600160ff835416611bcf81610b8d565b03611bef576001600160a01b031660009081529101602052604090205490565b6001600160a01b031660009081529101602052604090206001015490565b8151919060418303611c3e57611c3792506020820151906060604084015193015160001a906124b7565b9192909190565b505060009160029190565b9060018060a01b038216600052600e60205261ffff60406000205416611e235761ffff600a5460081c1661ffff600d541610611e0657611c89600d612a6b565b6001600052600f6020527f169f97de0d9a84d840042b17d3c6b9638b3d6fd9024c9eb0c7a306a17b49f88f546001600160a01b031681611cca82600a611bbc565b10611d7757506001600160a01b03821660009081526011602052604090205461ffff16611d445781611d207f19fe3ca603e87854a0747cc10abf06bac64d61bac73d6d15f2fd3ca448f1526493600a60106127a3565b604080516001600160a01b039092168252602082019290925290819081015b0390a1565b81611d20611d62600080516020612e21833981519152946010612923565b611d6d83600a611bbc565b90600a6010612c30565b600080516020612e01833981519152929150611d95600a600d6125ff565b6001600160a01b03821660009081526011602052604090205461ffff16611df4575b611dc482600a600d612540565b611dd181600a60106127a3565b604080516001600160a01b03928316815292909116602083015281908101611d3f565b611e0182600a6010612701565b611db7565b81611d20600080516020612e4183398151915293600a600d612540565b81611d20611e41600080516020612de183398151915294600d612923565b611e4c83600a611bbc565b90600a600d61296f565b6001600160a01b038216600090815260048201602052604090205490929190600384019061ffff16611fb65761ffff845460081c1661ffff82541610611f9c5780611ea28585936125ba565b92909210611f2f5750506001600160a01b0381166000908152600784016020526040902054600684019061ffff16611f0057817f19fe3ca603e87854a0747cc10abf06bac64d61bac73d6d15f2fd3ca448f1526494611d20926127a3565b80600080516020612e2183398151915294611f1e84611d2094612923565b90611f298582611bbc565b92612c30565b81929350908482611f52600080516020612e0183398151915297611dd1956125ff565b6001600160a01b03861660009081526007830160205260409020546006830191611f87918891859161ffff16611f8c57612540565b6127a3565b611f97838387612701565b612540565b81600080516020612e4183398151915294611d2092612540565b80600080516020612de183398151915294611fd484611d2094612923565b90611fdf8582611bbc565b9261296f565b9060018060a01b038216600052601160205261ffff6040600020541661222c576001600160a01b0382166000908152600e602052604090205461ffff161561221b5780156121575761205061203b83600d612923565b61204684600a611bbc565b90600a600d612a06565b61ffff60105416156119d957612066600d612a6b565b6001600052600f6020527f169f97de0d9a84d840042b17d3c6b9638b3d6fd9024c9eb0c7a306a17b49f88f546001600160a01b0316916120a783600a611bbc565b6120b16010612a6b565b600160005260126020527f71a67924699a20698523213e55fe499d539379d7769cd5567e2c45d583f815a3546001600160a01b0316906120f282600a611bbc565b1161212c5750604080516001600160a01b0390921682526020820192909252600080516020612de183398151915292509081908101611d3f565b915050600080516020612e018339815191529161214b600a600d6125ff565b611db7600a601061285c565b506020816121897f4a4c5d1a281180eea1e99d8177fa4798b9f7e019d5c57e7d8d73c6a22199aa5b93600a600d6127ba565b6040516001600160a01b039091168152a161ffff601054166121a757565b6121b16010612a6b565b600160005260126020527f71a67924699a20698523213e55fe499d539379d7769cd5567e2c45d583f815a354600080516020612e41833981519152906001600160a01b031661220181600a611bbc565b9061220e600a601061285c565b611d2081600a600d612540565b632a55ca5360e01b60005260046000fd5b80156122655781611d20612250600080516020612e21833981519152946010612923565b61225b83600a611bbc565b90600a6010612c8e565b506020816122977f3168ba660eed6ef1dc2258b2247cc05fd0f2f350d39e6ad2e2ebc76a8000b40b93600a6010612701565b6040516001600160a01b039091168152a1565b6001600160a01b0382166000908152600782016020526040902054600682019392919061ffff1661243e576001600160a01b038216600090815260048201602052604090205460038201949061ffff161561221b5783156123bf576123246123128487612923565b61231c8585611bbc565b908488612a06565b61ffff815416156123b85761233982866125ba565b92909161234682826125ba565b909410612386575050604080516001600160a01b039094168452602084019490945250600080516020612de1833981519152935090918291508101611d3f565b839550829450611f87611dd19483896123ae82600080516020612e018339815191529c6125ff565b611f97828661285c565b5050505050565b91819350806123f26020927f4a4c5d1a281180eea1e99d8177fa4798b9f7e019d5c57e7d8d73c6a22199aa5b94886127ba565b6040516001600160a01b039091168152a161ffff81541661241257505050565b611d208183600080516020612e418339815191529561243482611f97966125ba565b968196919461285c565b82156124735783611d209161246284600080516020612e2183398151915297612923565b9061246d8582611bbc565b92612c8e565b6020925081612297917f3168ba660eed6ef1dc2258b2247cc05fd0f2f350d39e6ad2e2ebc76a8000b40b95612701565b61ffff60019116019061ffff8211610e3e57565b91907f7fffffffffffffffffffffffffffffff5d576e7357a4501ddfe92f46681b20a08411612534579160209360809260ff60009560405194855216868401526040830152606082015282805260015afa156118f6576000516001600160a01b038116156125285790600090600090565b50600090600190600090565b50505060009160039190565b9091610e9f926125b461255761ffff8554166124a3565b6001600160a01b03841660008181526001870160209081526040808320805461ffff871661ffff19918216811790925581855260028b01909352922080546001600160a01b03191690931790925586549091161785559282611bbc565b92612a06565b6002909291926125c981612a6b565b600160005201602052610c6560018060a01b03604060002054168093611bbc565b61ffff6000199116019061ffff8211610e3e57565b61260881612a6b565b61263861ffff82541661261b8184612aa5565b61ffff612627826125ea565b1661ffff1984541617835582612be8565b600281019260016000528360205261265e604060002060018060a01b0390541684611bbc565b9260019461266c6001612958565b61ffff855416905b61ffff81168281116126f657828110156126cc57508061269661269e926124a3565b908588612d1a565b9790975b8711156126c2576126b4908887612b48565b6126bd87612958565b612674565b5050505092505050565b6000908152602084905260409020549097906126f1906001600160a01b031685611bbc565b6126a2565b505050505092505050565b909161270d9082612923565b61ffff82541661271e818385612b48565b61ffff61272a826125ea565b1661ffff1984541617835561273f8184612be8565b61ffff8216146111e357610e9f926002830161ffff831660005280602052612780612778604060002060018060a01b0390541684611bbc565b848487612c30565b61ffff831660005260205261246d604060002060018060a01b0390541682611bbc565b9091610e9f92611f2961255761ffff8554166124a3565b90916127c69082612923565b61ffff8254166127d7818385612b48565b61ffff6127e3826125ea565b1661ffff198454161783556127f88184612be8565b61ffff8216146111e357610e9f926002830161ffff831660005280602052612839612831604060002060018060a01b0390541684611bbc565b848487612a06565b61ffff8316600052602052611fdf604060002060018060a01b0390541682611bbc565b61286581612a6b565b61287861ffff82541661261b8184612aa5565b600281019260016000528360205261289e604060002060018060a01b0390541684611bbc565b92600194600261ffff855416905b61ffff81168281116126f657828110156128f95750806128ce6128d6926124a3565b908588612d81565b9790975b8710156126c2576128ec908887612b48565b61fffe8760011b166128ac565b60009081526020849052604090205490979061291e906001600160a01b031685611bbc565b6128da565b600191828060a01b03166000520160205261ffff6040600020541690811561294757565b63f2755e3760e01b60005260046000fd5b60011b906201fffe61fffe831692168203610e3e57565b91939061297b85612958565b61ffff845416905b61ffff81168281116126c257828110156129da5750806129a56129ad926124a3565b908487612d1a565b9690965b8611156129d1576129c3908786612b48565b6129cc86612958565b612983565b50505092505050565b6000908152600286016020526040902054909690612a01906001600160a01b031684611bbc565b6129b1565b9092915b600161ffff821611612a1d575b50505050565b600181901c617fff1660008181526002840160205260409020549091908490612a4f906001600160a01b031687611bbc565b1115612a6557612a60908284612b48565b612a0a565b50612a17565b5461ffff1615612a7757565b6340d9b01160e01b60005260046000fd5b15612a8f57565b634e487b7160e01b600052600160045260246000fd5b90612ac861ffff835416612abc8160011115612a88565b61ffff83161115612a88565b600160008181526002840160208181526040808420805461ffff90971680865282862080546001600160a01b03998a168089529a89018652848820805461ffff1990811690941790559098168087529286208054909116871790559290915284546001600160a01b03199081169096179094559190528054909216179055565b919061ffff90612b6d82855416612b63818585161115612a88565b8385161115612a88565b811660008181526002850160208181526040808420805497871680865282862080546001600160a01b039a8b168089526001909c01865284882080549a199a8b1690931790925598168086529185208054909716861790965591905284546001600160a01b0319908116909617909455528054909216179055565b61ffff9091166000908152600282016020908152604080832080546001600160a01b031981169091556001600160a01b03168352600193909301905220805461ffff19169055565b9092915b600161ffff821611612c465750505050565b600181901c617fff1660008181526002840160205260409020549091908490612c78906001600160a01b031687611bbc565b1015612a6557612c89908284612b48565b612c34565b91939061fffe8560011b1661ffff845416905b61ffff81168281116126c25782811015612cee575080612cc3612ccb926124a3565b908487612d81565b9690965b8610156129d157612ce1908786612b48565b61fffe8660011b16612ca1565b6000908152600286016020526040902054909690612d15906001600160a01b031684611bbc565b612ccf565b6002612d6b9195949395019161ffff861660005282602052612d4a604060002060018060a01b0390541682611bbc565b9261ffff8516600052602052604060002060018060a01b0390541690611bbc565b9384821115612d7a5750509190565b9350919050565b6002612dd29195949295019461ffff841660005285602052612db1604060002060018060a01b0390541682611bbc565b9561ffff8416600052602052604060002060018060a01b0390541690611bbc565b90818510612d7a575050919056fe143db27bc2036653dc6f962ff9d0b803163d4af50c256ca9e6927b3d6dcd0197faeb8de771b867cf357f6b459a7002b62ec45d544a8078a3ecd91200cc826d75da148fac2e1063174be7bc0895576bdaba90fd14e575463fa26a967cb895cadd2e8038f5812f763c6ef0c5427cb5a05ce6d7064af2ba7d1d270bc02660b019fda2646970667358221220a8c172d36eb7ddef097918de337182ac433fdd5220a6be51ccc401e54a826ad764736f6c634300081a0033","linkReferences":{}},"methodIdentifiers":{"submitCheckpoint(((uint64,address[]),uint256,bytes32,uint64,(uint8,((uint64,address[]),(uint8,bytes)),((uint64,address[]),(uint8,bytes)),uint64,uint256,bytes)[]),address[],bytes[])":"79979f57","validateActiveQuorumSignatures(address[],bytes32,bytes[])":"cc2dc2b9"},"id":94}