{"abi":[{"type":"function","name":"getGateway","inputs":[],"outputs":[{"name":"","type":"address","internalType":"address"}],"stateMutability":"view"},{"type":"function","name":"getSubnetActorGetterFacet","inputs":[],"outputs":[{"name":"","type":"address","internalType":"address"}],"stateMutability":"view"},{"type":"function","name":"getSubnetActorGetterSelectors","inputs":[],"outputs":[{"name":"","type":"bytes4[]","internalType":"bytes4[]"}],"stateMutability":"view"},{"type":"function","name":"getSubnetActorManagerFacet","inputs":[],"outputs":[{"name":"","type":"address","internalType":"address"}],"stateMutability":"view"},{"type":"function","name":"getSubnetActorManagerSelectors","inputs":[],"outputs":[{"name":"","type":"bytes4[]","internalType":"bytes4[]"}],"stateMutability":"view"},{"type":"function","name":"getSubnetDeployedByNonce","inputs":[{"name":"owner","type":"address","internalType":"address"},{"name":"nonce","type":"uint64","internalType":"uint64"}],"outputs":[{"name":"subnet","type":"address","internalType":"address"}],"stateMutability":"view"},{"type":"function","name":"getUserLastNonce","inputs":[{"name":"user","type":"address","internalType":"address"}],"outputs":[{"name":"nonce","type":"uint64","internalType":"uint64"}],"stateMutability":"view"},{"type":"function","name":"latestSubnetDeployed","inputs":[{"name":"owner","type":"address","internalType":"address"}],"outputs":[{"name":"subnet","type":"address","internalType":"address"}],"stateMutability":"view"},{"type":"function","name":"updateReferenceSubnetContract","inputs":[{"name":"newGetterFacet","type":"address","internalType":"address"},{"name":"newManagerFacet","type":"address","internalType":"address"},{"name":"newSubnetGetterSelectors","type":"bytes4[]","internalType":"bytes4[]"},{"name":"newSubnetManagerSelectors","type":"bytes4[]","internalType":"bytes4[]"}],"outputs":[],"stateMutability":"nonpayable"},{"type":"error","name":"CannotFindSubnet","inputs":[]},{"type":"error","name":"FacetCannotBeZero","inputs":[]},{"type":"error","name":"NotOwner","inputs":[]}],"bytecode":{"object":"0x6080806040523461001657610adb908161001c8239f35b600080fdfe608060409080825260048036101561001657600080fd5b60009260e0928435841c908163030f60511461097f575080630be06111146109565780630f5849d1146108395780631163dca5146107d45780631b0766c3146105b157806342bf3cc1146105895780639836b75f14610516578063a372bf30146104e95763a46d044d1461008957600080fd5b346104e55760803660031901126104e5576100a26109bf565b916001600160a01b0390602435828116908190036104e15767ffffffffffffffff6044358181116104dd576100da9036908501610a1f565b9690916064358181116104d9576100f49036908701610a1f565b969092817f806e0cbb9fce296bbc336a48f42bf1dbc69722d18d90d6fe705b7582c2bb4bd5541633036104c957169687156104ba5784156104ba57506bffffffffffffffffffffffff60a01b93600197858954161788556002948554161784558088116103535768010000000000000000908189116104a75760039384548a8655808b10610423575b508b909985825280861c90825b8281106103d457506007199b818d169091039081610366575b5050505086116103535785116103405790849184548386558084106102b4575b509389521c94875b8681106102525750831680840393036101e2578680f35b9486939291939587915b83831061021457505050505050600080516020610a8683398151915201553880808080808680f35b90919293602061024587996102298499610a50565b851c9087871b60031b9163ffffffff809116831b921b19161790565b98019594930191906101ec565b8590898a5b60088110610278575081600080516020610a868339815191520155016101cb565b959192906102a760209161028b85610a50565b8d1c9089891b60031b9163ffffffff809116831b921b19161790565b9201950190879291610257565b909192600701831c6007600080516020610a868339815191529201841c820191601c88871b1680610306575b5087949392918991015b8281106102f85750506101c3565b8c81558895508991016102ea565b7f8a35acfbc15ff81a39ae7d344fd709f28e8600b4aa8c65c6b64bfe7fe36bd19a83019081549060001990602003881b1c169055386102e0565b634e487b7160e01b895260418452602489fd5b634e487b7160e01b8a526041855260248afd5b908d8c8a86925b84841061039457505050505050600080516020610a6683398151915201558a3880806101a3565b908597846103c4936103aa602096979899610a50565b901c921b60031b9163ffffffff809116831b921b19161790565b950191018c8f8b9094939461036d565b9091928d81905b60088210610402575050600080516020610a668339815191528201558d9291908b0161018a565b610419829f938f93908d916020946103aa88610a50565b92019d018e6103db565b60078b01861c6007600080516020610a668339815191529201871c820191601c8d8a1b168061046d575b508b91018e5b8382106104625750505061017d565b8155018a908e610453565b7fc2575a0e9e593c00f959f8c92f12db2869c3395a3b0502d05e2516446f71f85a830190815490600019906020038b1b1c1690553861044d565b634e487b7160e01b8b526041865260248bfd5b516307a0435160e51b81528590fd5b88516330cd747160e01b81528790fd5b8a80fd5b8880fd5b8680fd5b8380fd5b84823461051257816003193601126105125760025490516001600160a01b039091168152602090f35b5080fd5b5083346105865781600319360112610586576105306109bf565b9060243567ffffffffffffffff8116809103610512576001600160a01b03928316825260056020908152848320918352528290205416908115610577576020925051908152f35b5163276e74a760e11b81529050fd5b80fd5b848234610512578160031936011261051257905490516001600160a01b039091168152602090f35b50828491346107d057826003193601126107d057805180926003549081835260208093019160038752600080516020610a668339815191528488915b836007840110610763575493838310610746575b50828210610728575b82821061070a575b8282106106ec575b8282106106ce575b8282106106b2575b828210610696575b5010610682575b50839003601f01601f1916830193905067ffffffffffffffff84118385101761066f575082918261066b9252826109da565b0390f35b634e487b7160e01b815260418552602490fd5b6001600160e01b0319168152018086610639565b83811b6001600160e01b03191685529093019260010184610632565b83871b6001600160e01b0319168552909301926001018461062a565b606084901b6001600160e01b03191685529093019260010184610622565b608084901b6001600160e01b0319168552909301926001018461061a565b60a084901b6001600160e01b03191685529093019260010184610612565b60c084901b6001600160e01b0319168552909301926001018461060a565b84901b6001600160e01b031916855290930192600101848a610601565b9460089150610100600191875463ffffffff60e01b9081818a1b16835260c08282821b168c8501528c838360a0928282851b16818901526080838360608282851b16818d01521b16908901521b169085015282828d1b1690840152168782015201950191019085906105ed565b8280fd5b508334610586576020366003190112610586576001600160a01b03908290826107fb6109bf565b168152600660205267ffffffffffffffff60001981848420541601166005602052828220908252602052205416908115610577576020925051908152f35b50828491346107d057826003193601126107d05780518092855490818352602080930191878752600080516020610a868339815191528488915b8360078401106108e957549383831061074657508282106107285782821061070a578282106106ec578282106106ce578282106106b2578282106106965750106106825750839003601f01601f1916830193905067ffffffffffffffff84118385101761066f575082918261066b9252826109da565b9460089150610100600191875463ffffffff60e01b9081818a1b16835260c08282821b168c8501528c838360a0928282851b16818901526080838360608282851b16818d01521b16908901521b169085015282828d1b169084015216878201520195019101908590610873565b84823461051257816003193601126105125760015490516001600160a01b039091168152602090f35b859083346107d05760203660031901126107d05760209267ffffffffffffffff91906001600160a01b036109b16109bf565b168152600685522054168152f35b600435906001600160a01b03821682036109d557565b600080fd5b6020908160408183019282815285518094520193019160005b828110610a01575050505090565b83516001600160e01b031916855293810193928101926001016109f3565b9181601f840112156109d55782359167ffffffffffffffff83116109d5576020808501948460051b0101116109d557565b356001600160e01b0319811681036109d5579056fec2575a0e9e593c00f959f8c92f12db2869c3395a3b0502d05e2516446f71f85b8a35acfbc15ff81a39ae7d344fd709f28e8600b4aa8c65c6b64bfe7fe36bd19ba264697066735822122057de179b8c0552afdb8ccd062970b88e9cbb9231aa6f3c972c01a0d58476f6de64736f6c63430008130033","linkReferences":{}},"methodIdentifiers":{"getGateway()":"42bf3cc1","getSubnetActorGetterFacet()":"0be06111","getSubnetActorGetterSelectors()":"1b0766c3","getSubnetActorManagerFacet()":"a372bf30","getSubnetActorManagerSelectors()":"0f5849d1","getSubnetDeployedByNonce(address,uint64)":"9836b75f","getUserLastNonce(address)":"030f6051","latestSubnetDeployed(address)":"1163dca5","updateReferenceSubnetContract(address,address,bytes4[],bytes4[])":"a46d044d"},"id":80}