{"abi":[{"type":"function","name":"addBootstrapNode","inputs":[{"name":"netAddress","type":"string","internalType":"string"}],"outputs":[],"stateMutability":"nonpayable"},{"type":"function","name":"claim","inputs":[],"outputs":[],"stateMutability":"nonpayable"},{"type":"function","name":"claimRewardForRelayer","inputs":[],"outputs":[],"stateMutability":"nonpayable"},{"type":"function","name":"distributeRewardToRelayers","inputs":[{"name":"height","type":"uint256","internalType":"uint256"},{"name":"reward","type":"uint256","internalType":"uint256"},{"name":"kind","type":"uint8","internalType":"enum QuorumObjKind"}],"outputs":[],"stateMutability":"payable"},{"type":"function","name":"join","inputs":[{"name":"publicKey","type":"bytes","internalType":"bytes"}],"outputs":[],"stateMutability":"payable"},{"type":"function","name":"kill","inputs":[],"outputs":[],"stateMutability":"nonpayable"},{"type":"function","name":"leave","inputs":[],"outputs":[],"stateMutability":"nonpayable"},{"type":"function","name":"pause","inputs":[],"outputs":[],"stateMutability":"nonpayable"},{"type":"function","name":"paused","inputs":[],"outputs":[{"name":"","type":"bool","internalType":"bool"}],"stateMutability":"view"},{"type":"function","name":"preFund","inputs":[],"outputs":[],"stateMutability":"payable"},{"type":"function","name":"preRelease","inputs":[{"name":"amount","type":"uint256","internalType":"uint256"}],"outputs":[],"stateMutability":"nonpayable"},{"type":"function","name":"setFederatedPower","inputs":[{"name":"validators","type":"address[]","internalType":"address[]"},{"name":"publicKeys","type":"bytes[]","internalType":"bytes[]"},{"name":"powers","type":"uint256[]","internalType":"uint256[]"}],"outputs":[],"stateMutability":"nonpayable"},{"type":"function","name":"stake","inputs":[],"outputs":[],"stateMutability":"payable"},{"type":"function","name":"submitBottomUpMsgBatch","inputs":[{"name":"batch","type":"tuple","internalType":"struct BottomUpMsgBatch","components":[{"name":"subnetID","type":"tuple","internalType":"struct SubnetID","components":[{"name":"root","type":"uint64","internalType":"uint64"},{"name":"route","type":"address[]","internalType":"address[]"}]},{"name":"blockHeight","type":"uint256","internalType":"uint256"},{"name":"msgs","type":"tuple[]","internalType":"struct CrossMsg[]","components":[{"name":"message","type":"tuple","internalType":"struct StorableMsg","components":[{"name":"from","type":"tuple","internalType":"struct IPCAddress","components":[{"name":"subnetId","type":"tuple","internalType":"struct SubnetID","components":[{"name":"root","type":"uint64","internalType":"uint64"},{"name":"route","type":"address[]","internalType":"address[]"}]},{"name":"rawAddress","type":"tuple","internalType":"struct FvmAddress","components":[{"name":"addrType","type":"uint8","internalType":"uint8"},{"name":"payload","type":"bytes","internalType":"bytes"}]}]},{"name":"to","type":"tuple","internalType":"struct IPCAddress","components":[{"name":"subnetId","type":"tuple","internalType":"struct SubnetID","components":[{"name":"root","type":"uint64","internalType":"uint64"},{"name":"route","type":"address[]","internalType":"address[]"}]},{"name":"rawAddress","type":"tuple","internalType":"struct FvmAddress","components":[{"name":"addrType","type":"uint8","internalType":"uint8"},{"name":"payload","type":"bytes","internalType":"bytes"}]}]},{"name":"value","type":"uint256","internalType":"uint256"},{"name":"nonce","type":"uint64","internalType":"uint64"},{"name":"method","type":"bytes4","internalType":"bytes4"},{"name":"params","type":"bytes","internalType":"bytes"},{"name":"fee","type":"uint256","internalType":"uint256"}]},{"name":"wrapped","type":"bool","internalType":"bool"}]}]},{"name":"signatories","type":"address[]","internalType":"address[]"},{"name":"signatures","type":"bytes[]","internalType":"bytes[]"}],"outputs":[],"stateMutability":"nonpayable"},{"type":"function","name":"submitCheckpoint","inputs":[{"name":"checkpoint","type":"tuple","internalType":"struct BottomUpCheckpoint","components":[{"name":"subnetID","type":"tuple","internalType":"struct SubnetID","components":[{"name":"root","type":"uint64","internalType":"uint64"},{"name":"route","type":"address[]","internalType":"address[]"}]},{"name":"blockHeight","type":"uint256","internalType":"uint256"},{"name":"blockHash","type":"bytes32","internalType":"bytes32"},{"name":"nextConfigurationNumber","type":"uint64","internalType":"uint64"}]},{"name":"signatories","type":"address[]","internalType":"address[]"},{"name":"signatures","type":"bytes[]","internalType":"bytes[]"}],"outputs":[],"stateMutability":"nonpayable"},{"type":"function","name":"unpause","inputs":[],"outputs":[],"stateMutability":"nonpayable"},{"type":"function","name":"unstake","inputs":[{"name":"amount","type":"uint256","internalType":"uint256"}],"outputs":[],"stateMutability":"nonpayable"},{"type":"function","name":"validateActiveQuorumSignatures","inputs":[{"name":"signatories","type":"address[]","internalType":"address[]"},{"name":"hash","type":"bytes32","internalType":"bytes32"},{"name":"signatures","type":"bytes[]","internalType":"bytes[]"}],"outputs":[],"stateMutability":"view"},{"type":"event","name":"BottomUpCheckpointExecuted","inputs":[{"name":"epoch","type":"uint256","indexed":false,"internalType":"uint256"},{"name":"submitter","type":"address","indexed":false,"internalType":"address"}],"anonymous":false},{"type":"event","name":"BottomUpCheckpointSubmitted","inputs":[{"name":"checkpoint","type":"tuple","indexed":false,"internalType":"struct BottomUpCheckpoint","components":[{"name":"subnetID","type":"tuple","internalType":"struct SubnetID","components":[{"name":"root","type":"uint64","internalType":"uint64"},{"name":"route","type":"address[]","internalType":"address[]"}]},{"name":"blockHeight","type":"uint256","internalType":"uint256"},{"name":"blockHash","type":"bytes32","internalType":"bytes32"},{"name":"nextConfigurationNumber","type":"uint64","internalType":"uint64"}]},{"name":"submitter","type":"address","indexed":false,"internalType":"address"}],"anonymous":false},{"type":"event","name":"NextBottomUpCheckpointExecuted","inputs":[{"name":"epoch","type":"uint256","indexed":false,"internalType":"uint256"},{"name":"submitter","type":"address","indexed":false,"internalType":"address"}],"anonymous":false},{"type":"event","name":"Paused","inputs":[{"name":"account","type":"address","indexed":false,"internalType":"address"}],"anonymous":false},{"type":"event","name":"Unpaused","inputs":[{"name":"account","type":"address","indexed":false,"internalType":"address"}],"anonymous":false},{"type":"error","name":"AddressInsufficientBalance","inputs":[{"name":"account","type":"address","internalType":"address"}]},{"type":"error","name":"AddressShouldBeValidator","inputs":[]},{"type":"error","name":"BatchWithNoMessages","inputs":[]},{"type":"error","name":"CannotConfirmFutureChanges","inputs":[]},{"type":"error","name":"CannotReleaseZero","inputs":[]},{"type":"error","name":"CollateralIsZero","inputs":[]},{"type":"error","name":"DuplicatedGenesisValidator","inputs":[]},{"type":"error","name":"EmptyAddress","inputs":[]},{"type":"error","name":"EnforcedPause","inputs":[]},{"type":"error","name":"ExpectedPause","inputs":[]},{"type":"error","name":"FailedInnerCall","inputs":[]},{"type":"error","name":"InvalidBatchEpoch","inputs":[]},{"type":"error","name":"InvalidCheckpointEpoch","inputs":[]},{"type":"error","name":"InvalidFederationPayload","inputs":[]},{"type":"error","name":"InvalidPublicKeyLength","inputs":[]},{"type":"error","name":"InvalidSignatureErr","inputs":[{"name":"","type":"uint8","internalType":"uint8"}]},{"type":"error","name":"MaxMsgsPerBatchExceeded","inputs":[]},{"type":"error","name":"MethodNotAllowed","inputs":[{"name":"reason","type":"string","internalType":"string"}]},{"type":"error","name":"NoCollateralToWithdraw","inputs":[]},{"type":"error","name":"NotAllValidatorsHaveLeft","inputs":[]},{"type":"error","name":"NotEnoughBalance","inputs":[]},{"type":"error","name":"NotEnoughCollateral","inputs":[]},{"type":"error","name":"NotEnoughFunds","inputs":[]},{"type":"error","name":"NotEnoughGenesisValidators","inputs":[]},{"type":"error","name":"NotGateway","inputs":[]},{"type":"error","name":"NotOwner","inputs":[]},{"type":"error","name":"NotOwnerOfPublicKey","inputs":[]},{"type":"error","name":"NotValidator","inputs":[{"name":"","type":"address","internalType":"address"}]},{"type":"error","name":"PQDoesNotContainAddress","inputs":[]},{"type":"error","name":"PQEmpty","inputs":[]},{"type":"error","name":"ReentrancyError","inputs":[]},{"type":"error","name":"SubnetAlreadyBootstrapped","inputs":[]},{"type":"error","name":"SubnetAlreadyKilled","inputs":[]},{"type":"error","name":"WithdrawExceedingCollateral","inputs":[]}],"bytecode":{"object":"0x6080806040523461001657615081908161001c8239f35b600080fdfe608080604052600436101561001357600080fd5b600090813560e01c9081630b7fbe60146119e15750806310fd426114611870578063268119361461165d5780632e17de78146116305780633a4b66f1146115545780633f4ba83a146114dc57806341c0e1b51461144b5780634c860af6146113f75780634e71d92d146112635780635c975abb146112335780636170b16214610e8357806366783c9b14610da25780638456cb5914610d3a578063b9ee2bb91461093b578063cc2dc2b9146108bb578063d66d9e1914610870578063da5d09ee146101a55763ed7c4da1146100e757600080fd5b346101a257806003193601126101a25760008051602061502c83398151915260018154146101905780600183925561011d611cde565b73__$4a8700ca5e162cb61a0c4650a4871f1ad5$__803b1561018c5782602491604051928380926382985e0b60e01b82523360048301525af490811561018157839161016a575b50505580f35b61017390611ac3565b61017e578138610164565b50fd5b6040513d85823e3d90fd5b5050fd5b6040516329f745a760e01b8152600490fd5b80fd5b50346101a25760603660031901126101a2576004356001600160401b03811161086c576101d6903690600401611b69565b906024356001600160401b038111610868576101f6903690600401611b69565b916044356001600160401b03811161086457610216903690600401611b69565b909461022061411c565b610228611c99565b60ff601354166003811015610850576001036108205781810361080e5784810361080e5760125460081c60ff161561050f57865b81811061026d575050505050505080f35b61028161027b828888613eca565b906140e0565b6001600160a01b0361029c610297848689613f0b565b611ea9565b166001600160a01b03909116036104fd576103066102be610297838588613f0b565b6102c9838989613eca565b6102d785888d969496613f0b565b356102f2604051958693604060208601526060850191613abb565b90604083015203601f198101845283611af1565b6001600160401b03601c541660405161031e81611ad6565b600381526020810184815260018060a01b038416604083015282600052601d60205260406000209082516103518161202f565b61035a8161202f565b60ff80198454169116178255518051906001600160401b0382116104e75761039282610389600186015461204f565b60018601612142565b602090601f8311600114610460579282600080516020614fec83398151915297959360029360019b9a9896600092610455575b5050600019600383901b1c1916908a1b17818a01555b01906040888060a01b03910151166001600160601b0360a01b8254161790556001600160401b0361040b82612267565b166001600160401b0319601c541617601c5561044660405193849360038552888060a01b031660208501526080806040860152840190613ea5565b9060608301520390a10161025c565b0151905038806103c5565b906001840160005260206000209160005b601f19851681106104cf57508360029360019b9a9896938c93600080516020614fec8339815191529b9997601f198116106104b6575b505050811b01898201556103db565b015160001960f88460031b161c191690553880806104a7565b91926020600181928685015181550194019201610471565b634e487b7160e01b600052604160045260246000fd5b604051634be9251d60e11b8152600490fd5b9491939290865b8681106105e6575050505050506001600160401b03600c541610156105d45761010061ff001960125416176012557f4914d88063275a25a13b2df37125e216745d812f94c56504be4bd78cf60c95936040518061057281613f56565b0390a1600e5460025482916001600160a01b0316803b1561018c578290602460405180948193637903ab2760e11b83528160048401525af180156105c9576105b957505080f35b6105c290611ac3565b6101a25780f35b6040513d84823e3d90fd5b60405163031480b160e51b8152600490fd5b6105f461027b828786613eca565b6001600160a01b039190828061060e610297858d8d613f0b565b169116036104fd5761062c610627610297838b8b613f0b565b6131c1565b6107fc576106c391610656610645610297848c8c613f0b565b610650848a89613eca565b91614003565b610679610667610297848c8c613f0b565b61067284878a613f0b565b3590612758565b610687610297838b8b613f0b565b90610693838689613f0b565b35906106a0848a89613eca565b9590604051936106af85611ad6565b845260209683888601961686523691611b2d565b9260408301938452600154600160401b8110156104e7578060016106ea9201600155613f1b565b9290926107e657600293518355600183019151166001600160601b0360a01b825416179055019051928351906001600160401b0382116104e75761073882610732855461204f565b85612142565b80601f83116001146107775750819060019560009261076c575b5050600019600383901b1c191690841b1790555b01610516565b015190503880610752565b91929394601f1984168560005283600020936000905b8282106107ce575050916001969594929183889593106107b5575b505050811b019055610766565b015160001960f88460031b161c191690553880806107a8565b8060018697829497870151815501960194019061078d565b634e487b7160e01b600052600060045260246000fd5b604051630472b35360e41b8152600490fd5b604051637e65935960e01b8152600490fd5b61084c61082b613e28565b60405163015538b160e01b8152602060048201529182916024830190613ea5565b0390fd5b634e487b7160e01b88526021600452602488fd5b8580fd5b8380fd5b5080fd5b50346101a257806003193601126101a25760008051602061502c8339815191526001815414610190578060018392556108a7611cde565b6108af61411c565b6108b761490d565b5580f35b50346101a25760603660031901126101a2576001600160401b036004358181116109375736602382011215610937576108fe903690602481600401359101611bc4565b60443591821161093757366023830112156109375761092a610934923690602481600401359101611c1a565b9060243590614cb0565b80f35b8280fd5b50346101a25760031960603682011261086c576001600160401b036004351161086c576080600435600401916004353603011261086c576024356001600160401b03811161093757610991903690600401611b69565b91906044356001600160401b038111610d36576109b2903690600401611b69565b916109bb611cde565b60055494600b54956109cd8782611d09565b60246004350135141580610d26575b610d145760405190610a1460208301836109f68a83611df8565b0393610a0a601f1995868101835282611af1565b5190209882611d09565b6004356024013503610c1157505091610a37610a3f92610a459697943691611bc4565b933691611c1a565b91614cb0565b6024600435013582528160205260408220908035604219600435360301811215610868576004350191600483016001600160401b03610a8382611e49565b16936001600160401b03199485845416178355610aa96001926024848601930190611e5d565b91906001600160401b038311610bfd57600160401b8311610bfd578154838355808410610be2575b509087959493929190865260208620865b838110610bbb575050505050600480356024810135600284015560448101356003840155606401949101906001600160401b03610b1e86611e49565b16908254161790556024600435013582526022602052610b42604083203390611faa565b5060043560240135600555600e546001600160a01b0316803b15610937576040516347dc9b4f60e01b81529183918391829084908290610b859060048301611df8565b03925af180156105c957610ba7575b5050610ba261093491611e49565b61227f565b610bb090611ac3565b61086c578138610b94565b84959697506020610bcf8495969394611ea9565b848301558a989796959401929101610ae2565b82895260208920610bf7918101908501611e92565b38610ad1565b634e487b7160e01b88526041600452602488fd5b945094505050506024600435013514610c2957505080f35b60246004350135835282602052604083206040519060208201926020845260806040840152826101008101926001600160401b0381541660c083015260019081810191604060e085015282548096526101208401928a5260208a20908a5b878110610cf3575050506002810154606084015260038101546080840152600401546001600160401b031660a0830152039081018352610cc8915082611af1565b51902014610cd35780f35b6024600435013581526022602052610cef604082203390611faa565b5080f35b82546001600160a01b03168552889550602090940193918101918101610c87565b60405163fae4eadb60e01b8152600490fd5b50806024600435013514156109dc565b8480fd5b50346101a257806003193601126101a257610d53611c99565b610d5b611cde565b60008051602061500c833981519152600160ff198254161790557f5db9ee0a495bf2e6ff9c91a7834c1ba4fdd244a5e8aa4e537bd38aeae4b073aa6020604051338152a180f35b50346101a25760203660031901126101a25760043560008051602061502c833981519152600181541461019057600181558115610e715760ff60125460081c16610e5f57338352600360205281604084205410610e4d576108b78392338452600360205260408420610e158282546127ec565b9055610e23816002546127ec565b6002553384526003602052604084205415610e3f575b33613cc7565b610e4833613d41565b610e39565b60405163569d45cf60e11b8152600490fd5b604051631b39f2f360e11b8152600490fd5b604051631036b5ad60e31b8152600490fd5b5060203660031901126101a2576004356001600160401b03811161086c573660238201121561086c576001600160401b0381600401351161086c5736602482600401358301011161086c57600160008051602061502c833981519152541461019057600160008051602061502c83398151915255610eff611cde565b610f0761411c565b60ff60125460081c1680611226575b3415611214573360009081526015602052604090206002015461119f57604182600401350361118d57336001600160a01b03610f596004850135602486016140e0565b16036104fd57610f9c57806024610f769260040135910133614003565b610f80343361413d565b610f88614571565b8060008051602061502c8339815191525580f35b610fae36826004013560248401611b2d565b6001600160401b03601c54169060405190610fc882611ad6565b600282526020820190815233604083015282600052601d6020526040600020908251610ff38161202f565b610ffc8161202f565b60ff80198454169116178255518051906001600160401b0382116104e75761102b82610389600186015461204f565b602090601f8311600114611105579282600080516020614fec8339815191529795936002936110e298966000926110fa575b50508160011b916000199060031b1c19161760018201555b0190604060018060a01b03910151166001600160601b0360a01b8254161790556001600160401b036110a682612267565b166001600160401b0319601c541617601c5560405192839260028452336020850152608060408501526080840190602481600401359101613abb565b9060608301520390a16110f53433614357565b610f88565b01519050388061105d565b906001840160005260206000209160005b601f19851681106111755750836002936110e2989693600193600080516020614fec8339815191529b9997601f1981161061115c575b505050811b016001820155611075565b015160001960f88460031b161c1916905538808061114c565b91926020600181928685015181550194019201611116565b6040516318dca5e960e21b8152600490fd5b61084c6040516111ae81611ad6565b603281527f4d6574686f64206e6f7420616c6c6f7765642069662076616c696461746f72206020820152711a185cc8185b1c9958591e481a9bda5b995960721b604082015260405191829163015538b160e01b8352602060048401526024830190613ea5565b604051635a78c58160e11b8152600490fd5b61122e61455c565b610f16565b50346101a257806003193601126101a257602060ff60008051602061500c83398151915254166040519015158152f35b50346101a257806003193601126101a25760019060008051602061502c8339815191528281541461019057828155611299611cde565b336000908152601f602052604090209283549061ffff908183169283156113e557829060101c16918391808795818a01915b61135f575b50505086611341937f197c586353eaed0a1c53e6e540445b94befab8f932c8115d112115ecbeeed514959363ffff000093899a54911693849260101b169063ffffffff19161717905515611348575b6113298133613cc7565b60408051338152602081019290925290918291820190565b0390a15580f35b336000908152601f6020526040902085905561131f565b9091939483811696828810156113dc578760005260208091858252604060002060405161138b81611aa8565b898254928383520154938491015243106113d157859493889688946113b286958a95611d09565b9c600052526000826040822082815501550116966000190116946112cb565b9850505094936112d0565b965094936112d0565b6040516364b0557f60e01b8152600490fd5b5060603660031901126101a257604435600281101561086c57611418611cde565b600e546001600160a01b031633036114395761093490602435600435614b05565b60405163e7e601db60e01b8152600490fd5b50346101a257806003193601126101a25761146461411c565b61ffff61147a8160195416826016541690612742565b166114ca576012805462ff0000191662010000179055600e5481906001600160a01b0316803b1561017e578180916004604051809481936341c0e1b560e01b83525af180156105c9576105b95750f35b604051636b62255160e11b8152600490fd5b50346101a257806003193601126101a2576114f5611c99565b60008051602061500c833981519152805460ff8116156115425760ff191690557f5db9ee0a495bf2e6ff9c91a7834c1ba4fdd244a5e8aa4e537bd38aeae4b073aa6020604051338152a180f35b604051638dfc202b60e01b8152600490fd5b50806003193601126101a257611568611cde565b61157061411c565b61157861455c565b34156112145733600090815260156020526040902060020154156115bf5760125460081c60ff166115b5576115ad343361413d565b610934614571565b6109343433614357565b61084c6040516115ce81611ad6565b602e81527f4d6574686f64206e6f7420616c6c6f7765642069662076616c696461746f722060208201526d1a185cc81b9bdd081a9bda5b995960921b604082015260405191829163015538b160e01b8352602060048401526024830190613ea5565b50346101a25760203660031901126101a25761164a611cde565b61165261411c565b61093460043561463d565b50346101a25760031960603682011261086c576004356001600160401b03918282116108685760608260040191833603011261086857602435838111610d36576116ab903690600401611b69565b919060443585811161186c576116c5903690600401611b69565b916024860135966006549687891061182157604401906116e58287611e5d565b9190506009541680911161185a576116fd8287611e5d565b9050141580611833575b611821576117159085611e5d565b90501561180f5787946040516020810190611742816117348985613b45565b03601f198101835282611af1565b519020968803611773575050505050506007541461175e575080f35b81526023602052610cef604082203390611faa565b61178d9392610a3788969893610a3f939a989a3691611bc4565b80602060405161179c81611aa8565b848152015281600655600755825260236020526117bd604083203390611faa565b50600e546001600160a01b031690813b1561018c5782916117f491604051948580948193630bed761560e01b835260048301613b45565b03925af180156105c957611806575080f35b61093490611ac3565b6040516338d2307f60e01b8152600490fd5b60405163200c52f760e21b8152600490fd5b5060085480156118465788061515611707565b634e487b7160e01b8a52601260045260248afd5b60405163351c700760e01b8152600490fd5b8680fd5b50346101a257602090816003193601126101a2576001600160401b03916004358381116109375736602382011215610937576118b6903690602481600401359101611b2d565b926118bf611cde565b3383526017825261ffff604084205416156119c9578351156119b75733835260248252604083209184519182116119a3576118fe82610732855461204f565b80601f831160011461193f5750839482939492611934575b50508160011b916000199060031b1c19161790555b610cef33611f41565b015190503880611916565b90601f198316958486528286209286905b88821061198b57505083600195969710611972575b505050811b01905561192b565b015160001960f88460031b161c19169055388080611965565b80600185968294968601518155019501930190611950565b634e487b7160e01b84526041600452602484fd5b604051637138356f60e01b8152600490fd5b604051633b4f6e2b60e21b8152336004820152602490fd5b90508160031936011261086c573415611a99575060ff60125460081c16610e5f573381526003602052604081205415611a40575b338152600360205260408120611a2c348254611d09565b9055611a3a34600254611d09565b60025580f35b600454600160401b811015611a8557611a62816001611a809301600455611ebd565b81546001600160a01b0360039290921b91821b19163390911b179055565b611a15565b634e487b7160e01b82526041600452602482fd5b631036b5ad60e31b8152600490fd5b604081019081106001600160401b038211176104e757604052565b6001600160401b0381116104e757604052565b606081019081106001600160401b038211176104e757604052565b90601f801991011681019081106001600160401b038211176104e757604052565b6001600160401b0381116104e757601f01601f191660200190565b929192611b3982611b12565b91611b476040519384611af1565b829481845281830111611b64578281602093846000960137010152565b600080fd5b9181601f84011215611b64578235916001600160401b038311611b64576020808501948460051b010111611b6457565b6001600160401b0381116104e75760051b60200190565b35906001600160a01b0382168203611b6457565b9291611bcf82611b99565b91611bdd6040519384611af1565b829481845260208094019160051b8101928311611b6457905b828210611c035750505050565b838091611c0f84611bb0565b815201910190611bf6565b92919092611c2784611b99565b91611c356040519384611af1565b829480845260208094019060051b830192828411611b645780915b848310611c5f57505050505050565b82356001600160401b038111611b6457820184601f82011215611b64578691611c8e8683858095359101611b2d565b815201920191611c50565b7f806e0cbb9fce296bbc336a48f42bf1dbc69722d18d90d6fe705b7582c2bb4bd5546001600160a01b03163303611ccc57565b6040516330cd747160e01b8152600490fd5b60ff60008051602061500c8339815191525416611cf757565b60405163d93c066560e01b8152600490fd5b91908201809211611d1657565b634e487b7160e01b600052601160045260246000fd5b9035603e1982360301811215611b64570190565b35906001600160401b0382168203611b6457565b9035601e1982360301811215611b645701602081359101916001600160401b038211611b64578160051b36038313611b6457565b60408201916001600160401b03611d9e83611d40565b1681526060611db260209384810190611d54565b839195604086839601525201929160005b828110611dd1575050505090565b909192938280600192838060a01b03611de989611bb0565b16815201950193929101611dc3565b6020815260806001600160401b03611e426060611e28611e188780611d2c565b85602088015260a0870190611d88565b956020810135604087015260408101358287015201611d40565b1691015290565b356001600160401b0381168103611b645790565b903590601e1981360301821215611b6457018035906001600160401b038211611b6457602001918160051b36038313611b6457565b818110611e9d575050565b60008155600101611e92565b356001600160a01b0381168103611b645790565b600454811015611ef45760046000527f8a35acfbc15ff81a39ae7d344fd709f28e8600b4aa8c65c6b64bfe7fe36bd19b0190600090565b634e487b7160e01b600052603260045260246000fd5b602554811015611ef45760256000527f401968ff42a154441da5f6c4c935ac46b8671f0e062baaa62a7545ba53bb6e4c0190600090565b600081815260266020526040812054611fa557602554600160401b811015611a85579082611f91611f7a84600160409601602555611f0a565b819391549060031b91821b91600019901b19161790565b905560255492815260266020522055600190565b905090565b9190600183016000908282528060205260408220541560001461202957845494600160401b861015612015576001860180825586101561200157836040949596828552602085200155549382526020522055600190565b634e487b7160e01b83526032600452602483fd5b634e487b7160e01b83526041600452602483fd5b50925050565b6004111561203957565b634e487b7160e01b600052602160045260246000fd5b90600182811c9216801561207f575b602083101461206957565b634e487b7160e01b600052602260045260246000fd5b91607f169161205e565b906000929180549161209a8361204f565b9182825260019384811690816000146120fc57506001146120bc575b50505050565b90919394506000526020928360002092846000945b8386106120e85750505050010190388080806120b6565b8054858701830152940193859082016120d1565b9294505050602093945060ff191683830152151560051b010190388080806120b6565b60005b8381106121325750506000910152565b8181015183820152602001612122565b9190601f811161215157505050565b61217d926000526020600020906020601f840160051c8301931061217f575b601f0160051c0190611e92565b565b9091508190612170565b908082146122635761219b815461204f565b906001600160401b0382116104e75781906121c0826121ba865461204f565b86612142565b600090601f83116001146121f7576000926121ec575b50508160011b916000199060031b1c1916179055565b0154905038806121d6565b81526020808220858352818320935090601f1985169083905b82821061224a575050908460019594939210612231575b505050811b019055565b015460001960f88460031b161c19169055388080612227565b8495819295850154815560018091019601940190612210565b5050565b9060016001600160401b0380931601918211611d1657565b601c546001600160401b03828116929080831684106122aa5760405163040aaa0560e11b8152600490fd5b808360401c1684106120b65780604093841c165b848282161115612325575050916020916122f87f246f00b61ce672242f33bb680a47147cd54d3dfd04dbb76956ba42f88087bf6394612267565b67ffffffffffffffff60401b601c5491831b169067ffffffffffffffff60401b191617601c5551908152a1565b81612343826001600160401b0316600052601d602052604060002090565b6002808201548254929491926001600160a01b03918216919060ff166123688161202f565b8085036123da5750506003612399600161239f94959697019260018060a01b03166000526015602052604060002090565b01612189565b6123bc816001600160401b0316600052601d602052604060002090565b916000908184556001936123d18582016127f9565b015501166122be565b909194506123e78161202f565b60039181830361258557505087519361240f85612408816001809a01612089565b0386611af1565b84518501916020928a87858301920312611b645783870151898111611b645787019681603f89011215611b645787858d9901519261245861244f85611b12565b9a519a8b611af1565b838a528d8483010111611b64578c926124769184888c01910161211f565b015192816124968460018060a01b03166000526015602052604060002090565b01918751918a8311612570578a986124b8846124b2875461204f565b87612142565b81601f85116001146124fd57506124ed9798999a84939284926000956124f2575b50501b92600019911b1c1916179055612758565b61239f565b0151935038806124d9565b91601f9b9493919b1984169b866000528c84600020946000915b8210612555575050846124ed9a9b9c9d1061253b575b50505050811b019055612758565b01519060f884600019921b161c191690553880808061252d565b8383015186558f9d509487019492830192908101908e612517565b60246000634e487b7160e01b81526041600452fd5b915091938895939551936125a185612408816001809501612089565b60208086805181010312611b645781818c970151956125bf8161202f565b036126e45784906125d08285612842565b601e546125dd9043611d09565b928751906125ea82611aa8565b8482528282018481526001600160a01b0387166000908152601f602052604090209091909283549161ffff9384848180961695869160101c169061262d91612742565b169c60009d8e5282870188528d20925183555191015561264c9061272f565b1661ffff198254161790558b519384528301528982015260607f083b080788e20bd0930c2bca2ae4fbc51a59ced08c1b5992271f8cb439498a6391a1600e541690813b15610937578291602483928a5195869384926345f5448560e01b845260048401525af19081156126d9575090849392916126ca575b5061239f565b6126d390611ac3565b386126c4565b8751903d90823e3d90fd5b5050829350916126f4919261279c565b600e541690813b15611b64578651916316989f6f60e21b83528260048160009485945af19081156126d9575090849392916126ca575061239f565b90600161ffff80931601918211611d1657565b91909161ffff80809416911601918211611d1657565b9060018060a01b03821660005260156020526040600020818154915581811460001461278357505050565b8111156127935761217d916128d1565b61217d91612c17565b9061217d916127e460018060a01b038216928360005260156020526127c981600160406000200154611d09565b93600052601560205283600160406000200155601454611d09565b6014556128d1565b91908203918211611d1657565b612803815461204f565b908161280d575050565b81601f6000931160011461281f575055565b90808391825261283e601f60208420940160051c840160018501611e92565b5555565b906128af6128b79260018060a01b038116906000828152601560205261286f8560016040842001546127ec565b92815260156020526040812060028101848154811590816128c8575b50156128bc575090826003926128aa94835581600184015555016127f9565b612c17565b6014546127ec565b601455565b92505060010155612c17565b9050153861288b565b919060018060a01b03928381166000948186526020916017835261ffff91604097838982205416612b02578360135460081c16846016541610612ace5761291661379a565b60019283825260188652828a8320541688612930826131c1565b10612a4857508152601a855283898220541661299f57505050505061299a7f19fe3ca603e87854a0747cc10abf06bac64d61bac73d6d15f2fd3ca448f15264939461297a8361314c565b516001600160a01b03909216825260208201929092529081906040820190565b0390a1565b6129a8866137ed565b926129b2876131c1565b935b8186821611612a0a575b505097516001600160a01b0390951685525050505060208101919091529091507fda148fac2e1063174be7bc0895576bdaba90fd14e575463fa26a967cb895cadd90806040810161299a565b8085612a2986617fff8f95871c1694858852601b8c52872054166131c1565b1015612a425790612a3b8392826139fb565b90506129b4565b506129be565b969750899493507ffaeb8de771b867cf357f6b459a7002b62ec45d544a8078a3ecd91200cc826d759899925061299a95601a91612a83613480565b835252205416612ac0575b612a978461340b565b612aa08361314c565b516001600160a01b03928316815292909116602083015281906040820190565b612ac984613224565b612a8e565b505050505061299a7f2e8038f5812f763c6ef0c5427cb5a05ce6d7064af2ba7d1d270bc02660b019fd939461297a8361340b565b97929150612b1385949796956137b6565b97612b1d856131c1565b97612b278a61339c565b8460165416905b858116828111612be05782811015612bc4575080612b4e612b549261272f565b9061374a565b9b909b5b8b1115612b7757612b69908c61396c565b612b728b61339c565b612b2e565b505093516001600160a01b0390951685525050505060208101919091529092507f143db27bc2036653dc6f962ff9d0b803163d4af50c256ca9e6927b3d6dcd01979150806040810161299a565b849c919c5260188352612bdb8588862054166131c1565b612b58565b5050505050505061299a91929395507f143db27bc2036653dc6f962ff9d0b803163d4af50c256ca9e6927b3d6dcd0197945061297a565b9060018060a01b039283831691600093838552602094601a865261ffff96604095888784205416613016578083526017885288878420541615613005578415612e9f5750612c64836137b6565b97612c6e846131c1565b985b6001808383161115612e905781617fff911c169081855260188a528a612c9a858b882054166131c1565b1115612caf57612caa908261396c565b612c70565b505091939597509193955b816019541615612e8657612ccc61379a565b6001918285526018825283898620541693612ce6856131c1565b95612cef6137a8565b848152601b808552828c8320541697612d07896131c1565b11612d5a57505098516001600160a01b0390961686525050505060208201929092529192507f143db27bc2036653dc6f962ff9d0b803163d4af50c256ca9e6927b3d6dcd0197919050806040810161299a565b91939597509193959750612d6c613480565b83601954168015612e755780612d87612da3929896986138b3565b87612d9182613210565b1661ffff196019541617601955613812565b838252808552612db7838b842054166131c1565b9484809760028160195416925b612e02575b5050505050505050505061299a7ffaeb8de771b867cf357f6b459a7002b62ec45d544a8078a3ecd91200cc826d759394612a978461340b565b818116838111612e6f578e9080851115612e5457505080612e25612e2b9261272f565b906133b3565b9990995b891015612e4f57612e40908a6139fb565b612e498961339c565b87612dc4565b612dc9565b8752858552862054909990612e6a9088166131c1565b612e2f565b50612dc9565b8a516340d9b01160e01b8152600490fd5b5050505050509050565b50509193959750919395612cba565b7f4a4c5d1a281180eea1e99d8177fa4798b9f7e019d5c57e7d8d73c6a22199aa5b929450612ed388949996989297996135db565b8851908152a18260195416928315948515612ef2575050505050509050565b612efa6137a8565b600193848152601b808552828a8320541696612f15886131c1565b98612e755780612d87612f2a929896986138b3565b838252808552612f3e838b842054166131c1565b9484809760028160195416925b612f98575b50505050505050505050612f897f2e8038f5812f763c6ef0c5427cb5a05ce6d7064af2ba7d1d270bc02660b019fd939461297a8361340b565b0390a180388080808080612e86565b818116838111612fff578e9080851115612fe457505080612e25612fbb9261272f565b9990995b891015612fdf57612fd0908a6139fb565b612fd98961339c565b87612f4b565b612f50565b8752858552862054909990612ffa9088166131c1565b612fbf565b50612f50565b8651632a55ca5360e01b8152600490fd5b84969892949793959715613111575061fffe9193613033866137ed565b9361303d876131c1565b9480966001958692831b168160195416925b6130a3575b505099516001600160a01b039097168752505050506020830193909352509192507fda148fac2e1063174be7bc0895576bdaba90fd14e575463fa26a967cb895cadd919050806040810161299a565b81811683811161310b578d90848110156130ef57505080612e256130c69261272f565b9890985b8810156130ea576130db90896139fb565b6130e48861339c565b8661304f565b613054565b8652601b85528520549098906131069087166131c1565b6130ca565b50613054565b949150506131459194507f3168ba660eed6ef1dc2258b2247cc05fd0f2f350d39e6ad2e2ebc76a8000b40b95969250613224565b51908152a1565b61217d906131bb61ffff91613164836019541661272f565b9260018060a01b0382169081600052601a60205260406000209085169161ffff1991838382541617905582600052601b6020526040600020906001600160601b0360a01b82541617905560195416176019556131c1565b90613347565b60ff601354166003811015612039576001036131f2576001600160a01b031660009081526015602052604090205490565b6001600160a01b031660009081526015602052604090206001015490565b61ffff9081166000190191908211611d1657565b61322d906137ed565b61ffff9081601954169161324183836139fb565b8061324b84613210565b1661ffff19601954161760195561326183613812565b808216809314613342579161fffe91600091808352601b9060209382855260018060a01b03926040926132a161329b8686862054166131c1565b87613347565b82528086526132b48484842054166131c1565b9585986001988997881b168160195416995b6132d8575b5050505050505050505050565b8181168a811161333c578a811015613321575080612e256132f89261272f565b9a909a5b89101561331c5761330d908b6139fb565b6133168a61339c565b876132c6565b6132cb565b859b919b528383526133378787872054166131c1565b6132fc565b506132cb565b505050565b9190915b60018061ffff831611156133965781617fff911c1690836133816000848152601b602052604060018060a01b03912054166131c1565b10156133965761339190826139fb565b61334b565b50509050565b60011b906201fffe61fffe831692168203611d1657565b91909161ffff92838216600052601b6020526133f660018060a01b036133df81604060002054166131c1565b958316600052601b602052604060002054166131c1565b908185106134045750509190565b9350919050565b61217d9061347a61ffff91613423836016541661272f565b9260018060a01b0382169081600052601760205260406000209085169161ffff199183838254161790558260005260186020526040600020906001600160601b0360a01b82541617905560165416176016556131c1565b906136fb565b61ffff80601654169081156135c9579060019061349f81831115613896565b6000828152601860208181526040808420805486865282862080546001600160a01b0392831680895260178752858920805461ffff199081168c17909155918416808a52868a20805484168d17905588885283546001600160a01b03199081169092179093558a89528454169091179092559295879593949293929161353991908a61352a83613210565b16906016541617601655613854565b84825280865261354d8484842054166131c1565b95859860028160165416995b61356a575050505050505050505050565b8181168a811161333c578a8110156135ae575080612b4e61358a9261272f565b9a909a5b89111561331c5761359f908b61396c565b6135a88a61339c565b87613559565b859b919b528383526135c48787872054166131c1565b61358e565b6040516340d9b01160e01b8152600490fd5b6135e4906137b6565b9061ffff908160165416906135f9828561396c565b8261360383613210565b1661ffff19601654161760165561361982613854565b8284168092146136f55760009291929183835260189260209484865260018060a01b03916040916136576136518585852054166131c1565b8a6136fb565b815285875261366a8383832054166131c1565b956136748961339c565b978560165416985b8681168a81116136e7578a8110156136cc575080612b4e61369c9261272f565b9a909a5b8911156136bf576136b1908b61396c565b6136ba8a61339c565b61367c565b5050505050505092505050565b849b919b528282526136e28686862054166131c1565b6136a0565b505050505050505092505050565b92505050565b9190915b60018061ffff831611156133965781617fff911c16908361373560008481526018602052604060018060a01b03912054166131c1565b111561339657613745908261396c565b6136ff565b919061ffff808416600052601860205261378b60018060a01b0361377481604060002054166131c1565b9284166000526018602052604060002054166131c1565b93848211156134045750509190565b61ffff60165416156135c957565b61ffff60195416156135c957565b6001600160a01b031660009081526017602052604090205461ffff169081156137db57565b60405163f2755e3760e01b8152600490fd5b6001600160a01b03166000908152601a602052604090205461ffff169081156137db57565b61ffff166000908152601b6020908152604080832080546001600160a01b031981169091556001600160a01b03168352601a9091529020805461ffff19169055565b61ffff16600090815260186020908152604080832080546001600160a01b031981169091556001600160a01b0316835260179091529020805461ffff19169055565b1561389d57565b634e487b7160e01b600052600160045260246000fd5b6138d661ffff8060195416926138cc8460011115613896565b1691821115613896565b601b60208181527f9fafca4c9c0d5c2cbf85f49fd8ab8212430ce78c2a0cb75b51e0f9c4f9ace00380546000858152604080822080546001600160a01b03948516808552601a8852838520805461ffff19908116909b1790559416808452918320805490981660019081179098559590945284546001600160a01b03199081169092179094559390925281549092169091179055565b61398761ffff8080601654169316936138cc84861115613896565b6000828152601860208181526040808420805486865282862080546001600160a01b0392831680895260178752858920805461ffff19908116909b1790559216808852938720805490981689179097559390925284546001600160a01b031990811690931790945593909152825416179055565b613a1661ffff8080601954169316936138cc84861115613896565b6000828152601b60208181526040808420805486865282862080546001600160a01b03928316808952601a8752858920805461ffff19908116909b1790559216808852938720805490981689179097559390925284546001600160a01b031990811690931790945593909152825416179055565b9035601e1982360301811215611b645701602081359101916001600160401b038211611b64578136038313611b6457565b908060209392818452848401376000828201840152601f01601f1916010190565b613b05613afa613aec8380611d2c565b604085526040850190611d88565b916020810190611d2c565b91602081830391015281359160ff8316809303611b6457613b32604091613b429484526020810190613a8a565b9190928160208201520191613abb565b90565b6020808252613b548380611d2c565b6060918281850152613b6b60809283860190611d88565b613b82604096838101358888015287810190611d54565b939096601f199686888286030191015284835283830191848660051b8501019880986000955b888710613bbd57505050505050505050505090565b909192939495969798999a82828203018752613bd98c85611d2c565b90813560de1983360301811215611b64578782528201918a90888e6001600160401b03613c50613c40613c2d613c24613c128b80611d2c565b60e080988c01526101208b0190613adc565b978a018a611d2c565b96603f1997888a830301868b0152613adc565b928d8901358d8901528801611d40565b169060a091828701528a8701359263ffffffff60e01b8416809403611b64578f95613c87613c979460c096878b01528a018a613a8a565b9290918985030190890152613abb565b940135610100840152013590811515809203611b64578a01529a8801999897966001019587019493929190613ba8565b814710613d29576000918291829182916001600160a01b03165af13d15613d24573d613cf281611b12565b90613d006040519283611af1565b8152600060203d92013e5b15613d1257565b604051630a12f52160e11b8152600490fd5b613d0b565b60405163cd78605960e01b8152306004820152602490fd5b60049081549160005b838110613d575750505050565b613d6081611ebd565b90546003916001600160a01b039190831b1c811685821614613d86575050600101613d4a565b929350939060001991828101908111613e135790613db784613daa613dd694611ebd565b905490891b1c1691611ebd565b90919082549060031b9160018060a01b03809116831b921b1916179055565b82548015613dfe570192613de984611ebd565b81939154921b1b1916905555388080806120b6565b603184634e487b7160e01b6000525260246000fd5b601185634e487b7160e01b6000525260246000fd5b60405190608082018281106001600160401b038211176104e7576040526045825264185c1c195960da1b6060837f4d6574686f64206e6f7420616c6c6f776564206966207065726d697373696f6e60208201527f656420697320656e61626c656420616e64207375626e657420626f6f7473747260408201520152565b90602091613ebe8151809281855285808601910161211f565b601f01601f1916010190565b9190811015611ef45760051b81013590601e1981360301821215611b645701908135916001600160401b038311611b64576020018236038113611b64579190565b9190811015611ef45760051b0190565b600154811015611ef4576003906001600052027fb10e2d527612073b26eecdfd717e6a320cf44b4afac2b0732d9fcbe2b7fa0cf60190600090565b6020808201818352600190815480915260409283850194848360051b82010195846000527fb10e2d527612073b26eecdfd717e6a320cf44b4afac2b0732d9fcbe2b7fa0cf6956000925b858410613fb257505050505050505090565b909192939495856003613ff1839a9b603f198682030188528c5481528c8560018060a01b03910154168482015260609081888201520160028d01612089565b9a019401940192969594939190613fa0565b6001600160a01b0316600090815260156020526040902090929190600301906001600160401b0381116104e7576140448161403e845461204f565b84612142565b6000601f821160011461407d57819293946000926140725750508160011b916000199060031b1c1916179055565b0135905038806121d6565b601f198216948382526020918281209281905b8882106140c8575050836001959697106140ae57505050811b019055565b0135600019600384901b60f8161c19169055388080612227565b80600184968294958701358155019501920190614090565b906140ed60418214613896565b80600111611b64576141089136916000190190600101611b2d565b80516020909101206001600160a01b031690565b60ff60125460101c1661412b57565b60405163248c8efb60e11b8152600490fd5b906141529061414c8184614330565b8261279c565b60ff60125460081c16156141635750565b60018054600082815b8381106142e0575b50501561418057505050565b6001600160a01b0383166000908152601560205260409020828101546141d6949091600301604051926141b284611ad6565b83526020936141dd8585019260018060a01b03809516845260405198898092612089565b0388611af1565b60408401968752600160401b8110156104e75780866141fe92018755613f1b565b9290926107e6576002935183558583019151166001600160601b0360a01b825416179055019251908151916001600160401b0383116104e757614245836124b2875461204f565b81601f841160011461427e5750928293918392600094614273575b50501b916000199060031b1c1916179055565b015192503880614260565b919083601f1981168760005284600020946000905b888383106142c657505050106142ad57505050811b019055565b015160001960f88460031b161c19169055388080612227565b858701518855909601959485019487935090810190614293565b6000829052600381027fb10e2d527612073b26eecdfd717e6a320cf44b4afac2b0732d9fcbe2b7fa0cf701546001600160a01b038781169116146143265701839061416c565b5090508238614174565b60018060a01b031660005260156020526143536002604060002001918254611d09565b9055565b9190604051928160208501526020845261437084611aa8565b6001600160401b03601c5416936040519461438a86611ad6565b60008652602086019582875260018060a01b038416604082015281600052601d60205260406000209681516143be8161202f565b6143c78161202f565b60ff80198a54169116178855519687516001600160401b0381116104e7576143ff816143f6600185015461204f565b60018501612142565b6020601f82116001146144d1576144b8949282600080516020614fec83398151915297959360029361217d9c9d6000926144c6575b50508160011b916000199060031b1c19161760018201555b0190604060018060a01b03910151166001600160601b0360a01b8254161790556001600160401b0361447d82612267565b166001600160401b0319601c541617601c556040519283926000845260018060a01b0387166020850152608060408501526080840190613ea5565b9060608301520390a1614330565b015190503880614434565b6001830160005260206000209960005b601f198416811061454457509260018361217d9b9c6002946144b89997600080516020614fec8339815191529b9997601f1981161061452b575b505050811b01600182015561444c565b015160001960f88460031b161c1916905538808061451b565b828201518c556001909b019a602092830192016144e1565b60ff6013541660038110156120395761082057565b601454600a54811015614582575b50565b61ffff601654166001600160401b03600c5416111561459e5750565b61010061ff001960125416176012557f4914d88063275a25a13b2df37125e216745d812f94c56504be4bd78cf60c9593604051806145db81613f56565b0390a160018060a01b03600e5416906145f76002548092611d09565b91803b15611b645760246000926040519485938492637903ab2760e11b845260048401525af18015614631571561457f5761217d90611ac3565b6040513d6000823e3d90fd5b61464561455c565b80156146ac573360009081526015602052604090206002015480156119c95781101561469b5760ff60125460081c16156146835761217d9033614711565b8061469161217d92336146be565b610e398133612842565b60405162d11df360e61b8152600490fd5b60405163c79cad7b60e01b8152600490fd5b6001600160a01b031660008181526015602052604090206002015490918082106146ff576146eb916127ec565b906000526015602052600260406000200155565b60405163ac69360360e01b8152600490fd5b9190604051928160208501526020845261472a84611aa8565b6001600160401b03601c5416936040519461474486611ad6565b60018652602086019582875260018060a01b038416604082015281600052601d60205260406000209681516147788161202f565b6147818161202f565b60ff80198a54169116178855519687516001600160401b0381116104e7576147b0816143f6600185015461204f565b6020601f821160011461488257614869949282600080516020614fec83398151915297959360029361217d9c9d600092614877575b50508160011b916000199060031b1c19161760018201555b0190604060018060a01b03910151166001600160601b0360a01b8254161790556001600160401b0361482e82612267565b166001600160401b0319601c541617601c556040519283926001845260018060a01b0387166020850152608060408501526080840190613ea5565b9060608301520390a16146be565b0151905038806147e5565b6001830160005260206000209960005b601f19841681106148f557509260018361217d9b9c6002946148699997600080516020614fec8339815191529b9997601f198116106148dc575b505050811b0160018201556147fd565b015160001960f88460031b161c191690553880806148cc565b828201518c556001909b019a60209283019201614892565b60ff60125460081c166149fa575b3360009081526015602052604090206002015480156119c95761493d33614a07565b5060009033825260246020528160408120614958815461204f565b806149bd575b50505060ff60125460081c161561497a5761217d915033614711565b604061217d92338152600360205220548061499b575b5061469181336146be565b806149ab6149b7926002546127ec565b600255610e3933613d41565b38614990565b82601f82116001146149d5575050555b81388061495e565b90918082526149f3601f60208420940160051c840160018501611e92565b55556149cd565b614a0261455c565b61491b565b6000818152602660205260408120549091908015614aec5760001990808201818111614ad85760255490838201918211614ac457808203614a90575b5050506025548015614a7c57810190614a5b82611f0a565b909182549160031b1b19169055602555815260266020526040812055600190565b634e487b7160e01b84526031600452602484fd5b614aae614a9f611f7a93611f0a565b90549060031b1c928392611f0a565b9055845260266020526040842055388080614a43565b634e487b7160e01b86526011600452602486fd5b634e487b7160e01b85526011600452602485fd5b505090565b8051821015611ef45760209160051b010190565b9190918215613342576040908151906020938483018381106001600160401b038211176104e75784526000928390526002811015614c9c5780614bfd5750600b54614b4f916127ec565b8152602283528181208251808286829454938481520190855286852092855b88828210614be757505050614b8592500382611af1565b928351948515614bdf57858110614bdf5785900493825b868110614bac5750505050505050565b6001906001600160a01b03614bc18285614af1565b5116855260218452858520614bd7888254611d09565b905501614b9c565b505050505050565b8554845260019586019587955093019201614b6e565b846001859214600014614c4d57606491519063015538b160e01b82526004820152601f60248201527f72657761726473206e6f7420646566696e656420666f722062617463686573006044820152fd5b608491519063015538b160e01b82526004820152602360248201527f72657761726473206e6f7420646566696e656420666f72206f626a656374206b6044820152621a5b9960ea1b6064820152fd5b634e487b7160e01b83526021600452602483fd5b91825191614cbd83611b99565b93604094614ccd86519182611af1565b848152601f19614cdc86611b99565b0194602095368784013760005b818110614db357505060009461ffff8060165416600192839182945b614d62575b505050505060ff600e5460a01c1694858102958187041490151715611d16576064614d36950491614e2a565b9015614d40575050565b60068110156120395760ff602492519163282ef1c160e01b8352166004820152fd5b90919293988a858b16838111614dab5760009081526018855220548493929186918591614da191614d9b906001600160a01b03166131c1565b90611d09565b9b01169493614d05565b505098614d0a565b6001600160a01b0380614dc68387614af1565b51166000526017885261ffff89600020541615614e065790614df5600192614dee8388614af1565b51166131c1565b614dff8286614af1565b5201614ce9565b8890614e1460249387614af1565b519151633b4f6e2b60e21b815291166004820152fd5b84519294600094908415614f125782518514801590614f07575b614efa579392919085945b848610614e72575050505050501015614e6a57600090600590565b600190600090565b909192939495614e8c614e858884614af1565b5184614f1f565b50614e968161202f565b614ee9576001600160a01b0380614ead8a88614af1565b5116911603614ed957614ecd600191614ec68988614af1565b5190611d09565b96019493929190614e4f565b5050505050505050600090600390565b505050505050505050600090600490565b5050505050905090600190565b508351851415614e44565b5050505050905090600290565b8151919060418303614f5057614f4992506020820151906060604084015193015160001a90614f5b565b9192909190565b505060009160029190565b91907f7fffffffffffffffffffffffffffffff5d576e7357a4501ddfe92f46681b20a08411614fdf57926020929160ff608095604051948552168484015260408301526060820152600092839182805260015afa15614fd35780516001600160a01b03811615614fca57918190565b50809160019190565b604051903d90823e3d90fd5b5050506000916003919056fe1c593a2b803c3f9038e8b6743ba79fbc4276d2770979a01d2768ed12bea3243fc451c9429c27db68f286ab8a68f311f1dccab703ba9423aed29cd397ae63f863691bb03ffc16c56fc96b82fd16cd1b3715f0bc3cdc6407005f49bb6205860095a264697066735822122078a0ac48511a213e0eba4669384b0aa5256d166c6201d23a213b1f403cf446a764736f6c63430008130033","linkReferences":{"src/lib/LibStaking.sol":{"LibStaking":[{"start":315,"length":20}]}}},"methodIdentifiers":{"addBootstrapNode(string)":"10fd4261","claim()":"4e71d92d","claimRewardForRelayer()":"ed7c4da1","distributeRewardToRelayers(uint256,uint256,uint8)":"4c860af6","join(bytes)":"6170b162","kill()":"41c0e1b5","leave()":"d66d9e19","pause()":"8456cb59","paused()":"5c975abb","preFund()":"0b7fbe60","preRelease(uint256)":"66783c9b","setFederatedPower(address[],bytes[],uint256[])":"da5d09ee","stake()":"3a4b66f1","submitBottomUpMsgBatch(((uint64,address[]),uint256,((((uint64,address[]),(uint8,bytes)),((uint64,address[]),(uint8,bytes)),uint256,uint64,bytes4,bytes,uint256),bool)[]),address[],bytes[])":"26811936","submitCheckpoint(((uint64,address[]),uint256,bytes32,uint64),address[],bytes[])":"b9ee2bb9","unpause()":"3f4ba83a","unstake(uint256)":"2e17de78","validateActiveQuorumSignatures(address[],bytes32,bytes[])":"cc2dc2b9"},"id":85}