{"abi":[{"type":"function","name":"getNum","inputs":[],"outputs":[{"name":"","type":"uint8","internalType":"uint8"}],"stateMutability":"pure"}],"bytecode":{"object":"0x608080604052346014576079908161001a8239f35b600080fdfe6080806040526004361015601257600080fd5b600090813560e01c6367e0badb14602857600080fd5b34603f5781600319360112603f5780600860209252f35b5080fdfea26469706673582212203bb205d87288b314d5e0ac509bd78528280e2ff25e793137316ed9993d65976264736f6c63430008130033","linkReferences":{}},"methodIdentifiers":{"getNum()":"67e0badb"},"id":59}