{
    "abi": [
        {
            "inputs": [],
            "name": "getNum",
            "outputs": [
                {
                    "internalType": "uint8",
                    "name": "",
                    "type": "uint8"
                }
            ],
            "stateMutability": "pure",
            "type": "function"
        }
    ],
    "bytecode": {
        "object": "0x608080604052346014576079908161001a8239f35b600080fdfe6080806040526004361015601257600080fd5b600090813560e01c6367e0badb14602857600080fd5b34603f5781600319360112603f5780600860209252f35b5080fdfea264697066735822122019d0406fff061bfbcab125d5b270164bb4fa59dd34fec7da3b02a36b05da35c164736f6c63430008130033",
        "linkReferences": {}
    },
    "methodIdentifiers": {
        "getNum()": "67e0badb"
    },
    "id": 59
}