{"abi":[{"type":"function","name":"resolveSelectors","inputs":[{"name":"facetName","type":"string","internalType":"string"}],"outputs":[{"name":"facetSelectors","type":"bytes4[]","internalType":"bytes4[]"}],"stateMutability":"pure"}],"bytecode":{"object":"0x6080806040523461001a576115609081610020823930815050f35b600080fdfe608080604052600436101561001357600080fd5b6000803560e01c6366e2898c1461002957600080fd5b602091826003193601126100ff576001600160401b036004358181116100e757366023820112156100e75780600401359182116100eb57610073601f8301601f191686018461016b565b81835236602483830101116100e7579183858361009c94602483970183860137830101526102a5565b60405192828493840190808552835180925280604086019401925b8281106100c657505050500390f35b83516001600160e01b031916855286955093810193928101926001016100b7565b8380fd5b634e487b7160e01b84526041600452602484fd5b5080fd5b608081019081106001600160401b0382111761011e57604052565b634e487b7160e01b600052604160045260246000fd5b604081019081106001600160401b0382111761011e57604052565b61016081019081106001600160401b0382111761011e57604052565b90601f801991011681019081106001600160401b0382111761011e57604052565b9081519160005b8381106101a4575050016000815290565b8060208092840101518185015201610193565b60405190606082018281106001600160401b0382111761011e576040526040825260006040836020808201520152565b9060209081838203126102735782516001600160401b0393848211610273570181601f8201121561027357805193841161011e578360051b90604051946102308584018761016b565b85528380860192820101928311610273578301905b828210610253575050505090565b81516001600160e01b031981168103610273578152908301908301610245565b600080fd5b6040519061028582610103565b6060808352602080840152600160408401526367e0badb60e01b90830152565b6040805191602092838101816102bb828561018c565b03916102cf601f199384810183528261016b565b5190208351858101906d11d85d195dd85e511a585b5bdb9960921b8252600e81526102f981610134565b5190201461151b5782518481019061032181610315848761018c565b0384810183528261016b565b5190208351858101907114dd589b995d1058dd1bdc911a585b5bdb9960721b82526012815261034f81610134565b5190201461151b5782518481019061036b81610315848761018c565b5190208351858101907414dd589b995d149959da5cdd1c9e511a585b5bdb99605a1b82526015815261039c81610134565b5190201461151b578251848101906103b881610315848761018c565b5190208351858101906e111a585b5bdb9910dd5d119858d95d608a1b8252600f81526103e381610134565b519020146114e3578251848101906103ff81610315848761018c565b51902083518581019070111a585b5bdb99131bdd5c19519858d95d607a1b82526011815261042c81610134565b519020146114635782518481019061044881610315848761018c565b5190208351858101907111d85d195dd85e51d95d1d195c919858d95d60721b82526012815261047681610134565b519020146112155782518481019061049281610315848761018c565b5190208351858101907211d85d195dd85e53585b9859d95c919858d95d606a1b8252601381526104c181610134565b5190201461117a578251848101906104dd81610315848761018c565b5190208351858101907411d85d195dd85e53595cdcd95b99d95c919858d95d605a1b82526015815261050e81610134565b519020146111285782518481019061052a81610315848761018c565b5190208351858101907111d85d195dd85e549bdd5d195c919858d95d60721b82526012815261055881610134565b519020146110465782518481019061057481610315848761018c565b5190208351858101907514dd589b995d1058dd1bdc91d95d1d195c919858d95d60521b8252601681526105a681610134565b51902014610e06578251848101906105c281610315848761018c565b5190208351858101907f5375626e65744163746f724d616e6167657246616365740000000000000000008252601781526105fb81610134565b51902014610cd15782518481019061061781610315848761018c565b51902083518581019072149959da5cdd195c94dd589b995d119858d95d606a1b82526013815261064681610134565b51902014610c995782518481019061066281610315848761018c565b5190208351858101907014dd589b995d11d95d1d195c919858d95d607a1b82526011815261068f81610134565b51902014610be1578251848101906106ab81610315848761018c565b5190208351858101907545524332305072657365744669786564537570706c7960501b8252601681526106dd81610134565b51902014610af1578251848101906106f981610315848761018c565b5190208351858101907f4e756d626572436f6e747261637446616365744569676874000000000000000082526018815261073281610134565b51902014610ad55782518481019061074e81610315848761018c565b5190208351858101907f4e756d626572436f6e74726163744661636574536576656e000000000000000082526018815261078781610134565b51902014610ad5578251848101906107a381610315848761018c565b5190208351858101906e53656c6563746f724c69627261727960881b8252600f81526107ce81610134565b51902014610a9d578251848101906107ea81610315848761018c565b51902083518581019068546573745574696c7360b81b82526009815261080f81610134565b51902014610a02576108378351918261082b878201809661018c565b0390810183528261016b565b5190208151838101907f5375626e65744163746f724d616e6167657246616365744d6f636b00000000008252601b815261087081610134565b519020146108b05760649250519062461bcd60e51b82526004820152601260248201527114d95b1958dd1bdc881b9bdd08199bdd5b9960721b6044820152fd5b908151906102e08201918083106001600160401b0384111761011e578284526102c08082528282019283526014948201949094526310fd426160e01b6060820152634e71d92d60e01b608082015263ed7c4da160e01b60a082015263350a14bf60e01b60c082015263c7ebdaef60e01b60e0820152632643057b60e11b6101008201526330b858b160e11b6101208201526341c0e1b560e01b61014082015263d66d9e1960e01b610160820152638456cb5960e01b610180820152635c975abb60e01b6101a0820152625bfdf360e51b6101c08201526366783c9b60e01b6101e0820152636d2e84f760e11b610200820152633a4b66f160e01b6102208201526313408c9b60e11b61024082015263b9ee2bb960e01b610260820152631fa5d41d60e11b6102808201526305c2fbcf60e31b6102a082015263cc2dc2b960e01b9301929092526109ff916101e7565b90565b505090610160826109ff935190610a188261014f565b61014080835284830194855260089183019190915263265f6a3560e21b60608301526315c9f71760e21b60808301526301d283df60e11b60a0830152631e8c229360e21b60c0830152637775600f60e11b60e083015263bc9e2bcf60e01b610100830152633db2bc2b60e21b610120830152632b9840d160e11b9082015201906101e7565b50509060808260016109ff945191610ab483610103565b606083528483019485528201526319b8a26360e21b606082015201906101e7565b5050506109ff90610ae4610278565b80518101820191016101e7565b5050908151906102008201918083106001600160401b0384111761011e578284526101e0808252828201928352600d94820194909452636eb1769f60e11b606082015263095ea7b360e01b60808201526370a0823160e01b60a0820152630852cd8d60e31b60c082015263079cc67960e41b60e082015263313ce56760e01b61010082015263a457c2d760e01b610120820152633950935160e01b6101408201526306fdde0360e01b6101608201526395d89b4160e01b6101808201526318160ddd60e01b6101a082015263a9059cbb60e01b6101c08201526323b872dd60e01b9301929092526109ff916101e7565b5050908151906101808201918083106001600160401b0384111761011e578284526101608082528282019283526009948201949094526342bf3cc160e01b6060820152630be0611160e01b6080820152631b0766c360e01b60a0820152630a372bf360e41b60c0820152630f5849d160e01b60e0820152639836b75f60e01b61010082015263030f605160e01b610120820152631163dca560e01b61014082015263a46d044d60e01b9301929092526109ff916101e7565b50509060808260016109ff945191610cb083610103565b60608352848301948552820152637be005d560e01b606082015201906101e7565b5050908151906102a08201918083106001600160401b0384111761011e578284526102808082528282019283526012948201949094526310fd426160e01b6060820152634e71d92d60e01b608082015263ed7c4da160e01b60a0820152632643057b60e11b60c08201526330b858b160e11b60e08201526341c0e1b560e01b61010082015263d66d9e1960e01b610120820152638456cb5960e01b610140820152635c975abb60e01b610160820152625bfdf360e51b6101808201526366783c9b60e01b6101a0820152636d2e84f760e11b6101c0820152633a4b66f160e01b6101e08201526313408c9b60e11b61020082015263b9ee2bb960e01b610220820152631fa5d41d60e11b6102408201526305c2fbcf60e31b61026082015263cc2dc2b960e01b9301929092526109ff916101e7565b5050908151906105008201918083106001600160401b0384111761011e578284526104e0808252828201928352602594820194909452633354c3e160e01b6060820152630d450b2360e21b60808201526306c4685360e01b60a0820152632593d53960e11b60c08201526325834a7160e11b60e08201526369e737fd60e01b610100820152638ef3f76160e01b610120820152633da3324160e01b610140820152630903e69360e41b61016082015263948628a960e01b610180820152636c97478960e11b6101a08201526363e6d3b160e11b6101c0820152634baa594f60e11b6101e08201526338a210b360e01b6102008201526380f7602160e01b610220820152631776451f60e21b61024082015263595e94af60e11b610260820152630d6eb59160e41b61028082015263332a5ac960e01b6102a0820152630acbdfbf60e11b6102c08201526352d182d160e01b6102e0820152630c825d9760e11b610300820152632bc31eb360e01b610320820152633dd5267760e21b6103408201526333f28a0960e21b610360820152631015428760e21b61038082015263d081be0360e01b6103a0820152631f3a0e4160e01b6103c0820152630396850760e51b6103e08201526328d5551d60e01b61040082015263599c7bd160e01b610420820152634f19de8160e11b6104408201526319c10a1f60e21b61046082015263c5ab224160e01b610480820152637867b64b60e11b6104a08201526356c0f26b60e11b6104c08201526380875df760e01b9301929092526109ff916101e7565b5050908151906101e08201918083106001600160401b0384111761011e578284526101c0808252828201928352600c9482019490945263036c3ddf60e21b60608201526353b4e7bf60e01b608082015263c62eb4d560e01b60a0820152630df1446160e01b60c08201526347dc9b4f60e01b60e08201526304465a5d60e21b610100820152637430377160e01b6101208201526332e7661f60e01b610140820152630bed761560e01b61016082015263ac81837960e01b61018082015263bacc656d60e01b6101a082015263e49a547d60e01b9301929092526109ff916101e7565b50509081519060a08201918083106001600160401b0384111761011e57600284846109ff9652608083528383019384528201526312df86db60e11b60608201526080631085ca2760e11b9101526101e7565b505090610160826109ff9351906111908261014f565b6101408083528483019485526008918301919091526316989f6f60e21b606083015263018f44b760e41b608083015263028bf0d560e11b60a08301526341c0e1b560e01b60c0830152637903ab2760e11b60e0830152636b2c1eef60e01b610100830152636c712ab960e11b6101208301526345f5448560e01b9082015201906101e7565b5050908151906105208201918083106001600160401b0384111761011e57828452610500808252828201928352602694820194909452638789f83b60e01b60608201526306c4685360e01b60808201526316d2bca560e11b60a082015263dd81b5cf60e01b60c08201526369e737fd60e01b60e0820152630836d45d60e31b610100820152632472942560e01b610120820152639e530b5760e01b610140820152631951f35960e21b610160820152635cf72c2160e11b61018082015263a9294bdd60e01b6101a0820152630886016560e21b6101c0820152632ceacfdd60e21b6101e082015263ac12d76360e01b610200820152634aa8f8a560e01b610220820152636520eae760e11b61024082015263d6c5c39760e01b61026082015263544dddff60e01b6102808201526306ad21bb60e41b6102a082015263a517218f60e01b6102c0820152634b8213b360e11b6102e0820152631d9fb97d60e21b6103008201526319af5b1560e11b610320820152630b1ba49b60e41b61034082015263f322913160e01b610360820152630338150f60e01b6103808201526394074b0360e01b6103a0820152633f6f564960e11b6103c082015263032b960d60e11b6103e082015263c66c66a160e01b610400820152639d3070b560e01b610420820152635d02968560e01b61044082015263599c7bd160e01b6104608201526305aff0b360e01b610480820152631bad9e0560e11b6104a0820152638cfd78e760e01b6104c082015263017187cd60e11b6104e0820152631456ce2b60e31b9301929092526109ff916101e7565b5050908151906101008201918083106001600160401b0384111761011e5782845260e08082528282019283526005948201949094526366ffd66360e11b60608201526314bbdacb60e21b60808201526356fe50af60e11b60a0820152637a0ed62760e01b60c08201526301ffc9a760e01b9301929092526109ff916101e7565b50509060808260016109ff9451916114fa83610103565b606083528483019485528201526307e4c70760e21b606082015201906101e7565b5050506109ff90610ae46101b756fea2646970667358221220a70d0d7f10afecc6b68a1e0421010af4dc4d906eb6dbce3e6fc5e092665e781564736f6c63430008130033","linkReferences":{}},"methodIdentifiers":{"resolveSelectors(string)":"66e2898c"},"id":92}