{"abi":[{"type":"function","name":"addCheckpointSignature","inputs":[{"name":"height","type":"uint256","internalType":"uint256"},{"name":"membershipProof","type":"bytes32[]","internalType":"bytes32[]"},{"name":"weight","type":"uint256","internalType":"uint256"},{"name":"signature","type":"bytes","internalType":"bytes"}],"outputs":[],"stateMutability":"nonpayable"},{"type":"function","name":"commitCheckpoint","inputs":[{"name":"checkpoint","type":"tuple","internalType":"struct BottomUpCheckpoint","components":[{"name":"subnetID","type":"tuple","internalType":"struct SubnetID","components":[{"name":"root","type":"uint64","internalType":"uint64"},{"name":"route","type":"address[]","internalType":"address[]"}]},{"name":"blockHeight","type":"uint256","internalType":"uint256"},{"name":"blockHash","type":"bytes32","internalType":"bytes32"},{"name":"nextConfigurationNumber","type":"uint64","internalType":"uint64"}]}],"outputs":[],"stateMutability":"nonpayable"},{"type":"function","name":"createBottomUpCheckpoint","inputs":[{"name":"checkpoint","type":"tuple","internalType":"struct BottomUpCheckpoint","components":[{"name":"subnetID","type":"tuple","internalType":"struct SubnetID","components":[{"name":"root","type":"uint64","internalType":"uint64"},{"name":"route","type":"address[]","internalType":"address[]"}]},{"name":"blockHeight","type":"uint256","internalType":"uint256"},{"name":"blockHash","type":"bytes32","internalType":"bytes32"},{"name":"nextConfigurationNumber","type":"uint64","internalType":"uint64"}]},{"name":"membershipRootHash","type":"bytes32","internalType":"bytes32"},{"name":"membershipWeight","type":"uint256","internalType":"uint256"}],"outputs":[],"stateMutability":"nonpayable"},{"type":"function","name":"pruneBottomUpCheckpoints","inputs":[{"name":"newRetentionHeight","type":"uint256","internalType":"uint256"}],"outputs":[],"stateMutability":"nonpayable"},{"type":"error","name":"AddressEmptyCode","inputs":[{"name":"target","type":"address","internalType":"address"}]},{"type":"error","name":"AddressInsufficientBalance","inputs":[{"name":"account","type":"address","internalType":"address"}]},{"type":"error","name":"CheckpointAlreadyExists","inputs":[]},{"type":"error","name":"CheckpointNotCreated","inputs":[]},{"type":"error","name":"FailedAddIncompleteQuorum","inputs":[]},{"type":"error","name":"FailedAddSignatory","inputs":[]},{"type":"error","name":"FailedInnerCall","inputs":[]},{"type":"error","name":"FailedRemoveIncompleteQuorum","inputs":[]},{"type":"error","name":"InvalidActorAddress","inputs":[]},{"type":"error","name":"InvalidCheckpointEpoch","inputs":[]},{"type":"error","name":"InvalidCheckpointSource","inputs":[]},{"type":"error","name":"InvalidRetentionHeight","inputs":[]},{"type":"error","name":"InvalidSignature","inputs":[]},{"type":"error","name":"InvalidSubnet","inputs":[]},{"type":"error","name":"NotAuthorized","inputs":[{"name":"","type":"address","internalType":"address"}]},{"type":"error","name":"NotSystemActor","inputs":[]},{"type":"error","name":"QuorumAlreadyProcessed","inputs":[]},{"type":"error","name":"SignatureReplay","inputs":[]},{"type":"error","name":"SubnetNotFound","inputs":[]},{"type":"error","name":"ZeroMembershipWeight","inputs":[]}],"bytecode":{"object":"0x6080806040523461001657611768908161001c8239f35b600080fdfe6080604052600436101561001257600080fd5b60003560e01c806347dc9b4f14610b0557806353b4e7bf1461061d57806374303771146102545763ac8183791461004857600080fd5b3461024f5760208060031936011261024f576004359061006661136a565b600b545b8281106101f95750600b54808311156101e7575b82811061008c57600b839055005b80600052600c8252604060002090600082556000600460019382858201558260028201558260038201550155600f8352604060002080549060008155816101c1575b505080600052604060002060405180828682945493848152019060005286600020926000905b87898284106101a8575050505061010d92500382611139565b8051908360005b83811061012557505050500161007e565b600085815260108852604090206001600160a01b03610144838661150d565b51166000528752604060002061015a81546113e1565b908161016b575b5050018490610114565b600091601f808211600114610185575050555b3880610161565b916101a18492938284528c8420940160051c8401878501611353565b555561017e565b90929450829193865481520194019201849293916100f4565b6000528284600020918201915b8281106101db57506100ce565b600081550183906101ce565b604051636819a3a960e01b8152600490fd5b80600052600882526040600020906000825560006004600193848101805484825580610236575b505082600282015582600382015501550161006a565b61024891855287852090810190611353565b3880610220565b600080fd5b3461024f5760031960603682011261024f576004356001600160401b0380821161024f5760808236039384011261024f576044359161029161136a565b60248082013594601d5480156106085786066105f65785600052602094600886526002604060002001546105e45760405192868401928784528560040135906042190181121561024f5760806040860152610100850193818701886102f8600483016111a1565b1660c0880152838101356022198236030181121561024f570183600482013591019589821161024f578160051b3603871361024f578190604060e08a0152526101208701959060005b8b8282106105c057505050508960608701526044870135958660808201526103868160648a01978b6103728a6111a1565b1660a083015203601f198101835282611139565b51902060ff601c5416600b548b106105ae57841561059c5780850294850403610587576103b28a61156e565b15610575576040519060a082018281108a821117610560576040528152600489820191843583526064604082019604865260608101600081526080820193600085528d600052600c8d52604060002092518355519660019788840155516002830155516003820155019051151560ff8019835416911617905560405195608087018781108982111761054b5760405287821161024f57600461045792369201016111c9565b855261046f87860193898552604087019586526111a1565b9760608601988952600052600887526040600020945186815116976001600160401b031998898854161787558084880192015180519389851161053757600160401b851161053757508190835485855580861061051a575b500191600052806000209060005b848110610500578b8b8b60048c8c8c5160028301555160038201550192511690825416179055600080f35b83516001600160a01b0316838201559281019285016104d5565b610531908560005286846000209182019101611353565b8c6104c7565b634e487b7160e01b60009081526041600452fd5b83634e487b7160e01b60005260416004526000fd5b84634e487b7160e01b60005260416004526000fd5b604051630cbd1cd360e11b8152600490fd5b82634e487b7160e01b60005260116004526000fd5b604051634e8ac6e560e01b8152600490fd5b604051630108e13760e21b8152600490fd5b80600192939499838060a01b036105d68c6111b5565b168152019801929101610341565b60405163b8a1eae160e01b8152600490fd5b60405163fae4eadb60e01b8152600490fd5b82634e487b7160e01b60005260126004526000fd5b3461024f57608036600319011261024f576024356001600160401b03811161024f573660238201121561024f578060040135906106598261115a565b916106676040519384611139565b8083526024602084019160051b8301019136831161024f57602401905b828210610af557836064356001600160401b03811161024f573660238201121561024f5780600401356106b681611171565b916106c46040519384611139565b818352366024838301011161024f57816000926024602093018386013783010152600b54600435106105ae57600435600052600860205260026040600020015415610ae357600435600052600c602052604060002091610725828454611441565b506004819492941015610acd57610abb576004356000908152600f602090815260408083206001600160a01b0387168452600101909152902054610aa957604080516001600160a01b03851660208201908152604435828401529181529060608201906001600160401b03821183831017610a5f5760809082604052835190209201918252602081526107b78161111e565b51902093600181015494936000945b8451861015610829576107d9868661150d565b5190818110156108185760005260205260406000205b94600019811461080257600101946107c6565b634e487b7160e01b600052601160045260246000fd5b9060005260205260406000206107ef565b8603610a8757600435600052600f60205261085060018060a01b03821660406000206115eb565b15610a7557600435600052601060205260406000209060018060a01b0316600052602052604060002082516001600160401b038111610a5f5761089382546113e1565b601f8111610a22575b506020601f82116001146109bc57819293946000926109b1575b50508160011b916000199060031b1c19161790555b60038101805460443581018091116108025780825560028301548110156108ee57005b600483018054909160ff821661096f575060ff19166001179055610913600435611648565b1561095d577fc08568b61a3224ac0d48121f065552f2f645d3777d353bd87291108bc36514949161095760ff600a541691549254604051938493600435908561141b565b0390a15b005b6040516344a7b48760e11b8152600490fd5b925050507f103355808c87614c31e835c1a86487b17b1e54cf36e0ac4469c8d1e892239cbc9161095760ff600a5416915492604051938493600435908561141b565b0151905084806108b6565b601f198216908360005260206000209160005b818110610a0a575095836001959697106109f1575b505050811b0190556108cb565b015160001960f88460031b161c191690558480806109e4565b9192602060018192868b0151815501940192016109cf565b610a4f90836000526020600020601f840160051c81019160208510610a55575b601f0160051c0190611353565b8461089c565b9091508190610a42565b634e487b7160e01b600052604160045260246000fd5b604051633363140f60e01b8152600490fd5b604051634a0bfec160e01b81526001600160a01b039091166004820152602490fd5b604051635a3fd0d960e11b8152600490fd5b604051638baa579f60e01b8152600490fd5b634e487b7160e01b600052602160045260246000fd5b6040516358cdd2e760e01b8152600490fd5b8135815260209182019101610684565b3461024f57602036600319011261024f576004356001600160401b03811161024f576080600319823603011261024f57610b716020610b5036610b4b600486018061118c565b6111c9565b60405180938192632cff562160e11b83528460048401526024830190611280565b038173__$a0fe38a9a81205afccc10810b09a4d3f45$__5af4908115610f10576000916110e4575b50336001600160a01b03909116036110d25733156110c057604051610bbd8161111e565b6001600160401b03601954168152604051806020601a54918281520190601a6000527f057c384a7d1c54f3a1b2e5e67b2617b8224fdfd1ea7234eea573a6ff665ff63e9060005b8181106110a15786610c4660008888610c1f818a0382611139565b60208201526040518093819263aa5106cb60e01b8352604060048401526044830190611280565b336024830152038173__$a0fe38a9a81205afccc10810b09a4d3f45$__5af4908115610f1057600091610fbf575b506020610c9c91604051809381926390ba52cf60e01b83528460048401526024830190611280565b038173__$a0fe38a9a81205afccc10810b09a4d3f45$__5af4908115610f1057600091610f8d575b5060005260006020526040600020604051610cde8161111e565b6001600160401b03600483015416815260405180602060058501549182815201906005850160005260206000209060005b818110610f6e575050509181610d2c602093610d51950382611139565b8282015260405180938192630c133d1360e31b83528460048401526024830190611280565b038173__$a0fe38a9a81205afccc10810b09a4d3f45$__5af4908115610f1057600091610f4f575b50610f3e57610db590610d9336610b4b600486018061118c565b9060405192839263c836244d60e01b8452604060048501526044840190611280565b6003198382030160248401526005606060408301926001600160401b036004860154168152604060208201528285015480945201920160005260206000209060005b818110610f1c575050509080602092038173__$a0fe38a9a81205afccc10810b09a4d3f45$__5af4908115610f1057600091610ee1575b5015610ecf5760ff602b5460181c16610e4357005b60405160246020820192632643057b60e11b84520135602482015260006044820152600060648201526064815260a081018181106001600160401b03821117610a5f576040525161095b91600091829182335af13d15610ec7573d90610ea882611171565b91610eb66040519384611139565b82523d6000602084013e5b336112f3565b606090610ec1565b6040516303b5db8360e11b8152600490fd5b610f03915060203d602011610f09575b610efb8183611139565b8101906112db565b82610e2e565b503d610ef1565b6040513d6000823e3d90fd5b82546001600160a01b0316845285945060209093019260019283019201610df7565b6040516208ed5b60e31b8152600490fd5b610f68915060203d602011610f0957610efb8183611139565b83610d79565b82546001600160a01b0316845260209093019260019283019201610d0f565b90506020813d602011610fb7575b81610fa860209383611139565b8101031261024f575182610cc4565b3d9150610f9b565b90503d806000833e610fd18183611139565b81019060208183031261024f578051906001600160401b03821161024f57019060408282031261024f57604051916110088361111e565b80516001600160401b038116810361024f5783526020810151906001600160401b03821161024f57019080601f8301121561024f5781516110488161115a565b926110566040519485611139565b81845260208085019260051b82010192831161024f57602001905b82821061108957505050602080830191909152610c74565b602080916110968461126c565b815201910190611071565b82546001600160a01b0316845260209093019260019283019201610c04565b6040516370e4510960e01b8152600490fd5b604051637f39132760e11b8152600490fd5b90506020813d602011611116575b816110ff60209383611139565b8101031261024f576111109061126c565b82610b99565b3d91506110f2565b604081019081106001600160401b03821117610a5f57604052565b90601f801991011681019081106001600160401b03821117610a5f57604052565b6001600160401b038111610a5f5760051b60200190565b6001600160401b038111610a5f57601f01601f191660200190565b903590603e198136030182121561024f570190565b35906001600160401b038216820361024f57565b35906001600160a01b038216820361024f57565b919060408382031261024f57604051926111e28461111e565b836111ec826111a1565b815260209182810135906001600160401b03821161024f57019280601f8501121561024f57833561121c8161115a565b9461122a6040519687611139565b818652848087019260051b82010192831161024f5784809101915b83831061125457505050500152565b819061125f846111b5565b8152019101908490611245565b51906001600160a01b038216820361024f57565b60609060408301906001600160401b03815116845260209283809201519460408382015285518094520193019160005b8281106112be575050505090565b83516001600160a01b0316855293810193928101926001016112b0565b9081602091031261024f5751801515810361024f5790565b901561133157815115611304575090565b803b1561130f575090565b604051639996b31560e01b81526001600160a01b039091166004820152602490fd5b5080511561134157805190602001fd5b604051630a12f52160e11b8152600490fd5b81811061135e575050565b60008155600101611353565b604051635d3f8a6960e01b815233600482015260208160248173__$e800e3908cdbb6b1b5bd452383a17b18f7$__5af4908115610f10576000916113c3575b50156113b157565b60405163f0d97f3b60e01b8152600490fd5b6113db915060203d8111610f0957610efb8183611139565b386113a9565b90600182811c92168015611411575b60208310146113fb57565b634e487b7160e01b600052602260045260246000fd5b91607f16916113f0565b909194939260808201956002841015610acd576060938352602083015260408201520152565b81519190604183036114725761146b92506020820151906060604084015193015160001a9061147d565b9192909190565b505060009160029190565b91907f7fffffffffffffffffffffffffffffff5d576e7357a4501ddfe92f46681b20a0841161150157926020929160ff608095604051948552168484015260408301526060820152600092839182805260015afa156114f55780516001600160a01b038116156114ec57918190565b50809160019190565b604051903d90823e3d90fd5b50505060009160039190565b80518210156115215760209160051b010190565b634e487b7160e01b600052603260045260246000fd5b600d5481101561152157600d6000527fd7b6990105719101dabeb77144f2a3385c8033acd3af97e9423a695e81ad1eb50190600090565b6000818152600e60205260408120546115e657600d54600160401b8110156115d25790826115be6115a784600160409601600d55611537565b819391549060031b91821b91600019901b19161790565b9055600d54928152600e6020522055600190565b634e487b7160e01b82526041600452602482fd5b905090565b600082815260018201602052604090205461164157805490600160401b821015610a5f57600182018082558210156115215782600192826000526020600020015580549260005201602052604060002055600190565b5050600090565b6000818152600e6020526040812054909190801561172d576000199080820181811161171957600d5490838201918211611705578082036116d1575b505050600d5480156116bd5781019061169c82611537565b909182549160031b1b19169055600d558152600e6020526040812055600190565b634e487b7160e01b84526031600452602484fd5b6116ef6116e06115a793611537565b90549060031b1c928392611537565b90558452600e6020526040842055388080611684565b634e487b7160e01b86526011600452602486fd5b634e487b7160e01b85526011600452602485fd5b50509056fea2646970667358221220290a93e36b6805df006441b141a908ae17483412928035e4fb087e0eb0d40d6264736f6c63430008130033","linkReferences":{"src/lib/AccountHelper.sol":{"AccountHelper":[{"start":5025,"length":20}]},"src/lib/SubnetIDHelper.sol":{"SubnetIDHelper":[{"start":2961,"length":20},{"start":3180,"length":20},{"start":3260,"length":20},{"start":3441,"length":20},{"start":3622,"length":20}]}}},"methodIdentifiers":{"addCheckpointSignature(uint256,bytes32[],uint256,bytes)":"53b4e7bf","commitCheckpoint(((uint64,address[]),uint256,bytes32,uint64))":"47dc9b4f","createBottomUpCheckpoint(((uint64,address[]),uint256,bytes32,uint64),bytes32,uint256)":"74303771","pruneBottomUpCheckpoints(uint256)":"ac818379"},"id":50}