{"abi":[{"type":"function","name":"newSubnetActor","inputs":[{"name":"_params","type":"tuple","internalType":"struct SubnetActorDiamond.ConstructorParams","components":[{"name":"parentId","type":"tuple","internalType":"struct SubnetID","components":[{"name":"root","type":"uint64","internalType":"uint64"},{"name":"route","type":"address[]","internalType":"address[]"}]},{"name":"ipcGatewayAddr","type":"address","internalType":"address"},{"name":"consensus","type":"uint8","internalType":"enum ConsensusType"},{"name":"minActivationCollateral","type":"uint256","internalType":"uint256"},{"name":"minValidators","type":"uint64","internalType":"uint64"},{"name":"bottomUpCheckPeriod","type":"uint64","internalType":"uint64"},{"name":"majorityPercentage","type":"uint8","internalType":"uint8"},{"name":"activeValidatorsLimit","type":"uint16","internalType":"uint16"},{"name":"minCrossMsgFee","type":"uint256","internalType":"uint256"},{"name":"powerScale","type":"int8","internalType":"int8"},{"name":"permissionMode","type":"uint8","internalType":"enum PermissionMode"},{"name":"supplySource","type":"tuple","internalType":"struct SupplySource","components":[{"name":"kind","type":"uint8","internalType":"enum SupplyKind"},{"name":"tokenAddress","type":"address","internalType":"address"}]}]}],"outputs":[{"name":"subnetAddr","type":"address","internalType":"address"}],"stateMutability":"nonpayable"},{"type":"event","name":"SubnetDeployed","inputs":[{"name":"subnetAddr","type":"address","indexed":false,"internalType":"address"}],"anonymous":false},{"type":"error","name":"ReentrancyError","inputs":[]},{"type":"error","name":"WrongGateway","inputs":[]}],"bytecode":{"object":"0x6080806040523461001657611ea9908161001c8239f35b600080fdfe60808060405260043610156200001457600080fd5b60003560e01c637be005d5146200002a57600080fd5b34620006035760031960203682011262000603576001600160401b036004351162000603576101a09060043536030112620006035760017f691bb03ffc16c56fc96b82fd16cd1b3715f0bc3cdc6407005f49bb62058600955414620009025760017f691bb03ffc16c56fc96b82fd16cd1b3715f0bc3cdc6407005f49bb620586009555602460043501356001600160a01b0381169081900362000603576000546001600160a01b031603620008f057604051620000e78162000911565b6002815260005b60408110620008c15750600154604051906001600160a01b0316620001138262000911565b81526000602082015260405180816020600354928381520160036000527fc2575a0e9e593c00f959f8c92f12db2869c3395a3b0502d05e2516446f71f85b926000905b8060078301106200084c57620001b7945491818110620007b7575b81811062000797575b81811062000777575b81811062000757575b81811062000737575b81811062000717575b818110620006f9575b10620006e3575b5003826200092d565b6040820152620001c78262000970565b52620001d38162000970565b50600254604051906001600160a01b0316620001ef8262000911565b81526000602082015260405180816020600454928381520160046000527f8a35acfbc15ff81a39ae7d344fd709f28e8600b4aa8c65c6b64bfe7fe36bd19b926000905b806007830110620007d7576200028b945491818110620007b75781811062000797578181106200077757818110620007575781811062000737578181106200071757818110620006f95710620006e3575003826200092d565b60408201526200029b8262000994565b52620002a78162000994565b5060405190816114a48101106001600160401b036114a484011117620006cd576114a4620009d0833960406114a4830181815282519181018290526060600583901b82018101936020019291600091015b828210620006355785856114a48201810360206114a484010152600435600401356042196004353603018112156200060357600435016101a082526001600160401b036200034960048301620009a5565b166101a08301526024810135602219823603018112156200060357016001600160401b0360048201351162000603576024810190600481013560051b36038213620006035760406101c084015260048101356101e08401526102008301919060005b600482013581106200060857506001600160a01b039150620003d49050600435602401620009ba565b166020830152604460043501356001811015620006035760408301526064600435013560608301526001600160401b0362000414608460043501620009a5565b1660808301526001600160401b036200043260a460043501620009a5565b1660a083015260c4600435013560ff8116809103620006035760c083015260e4600435013561ffff8116809103620006035760e0830152610104600435013561010083015261012460043501358060000b8091036200060357610120830152610144600435013560038110156200060357620004ae816200094f565b6101408301526101646004350135916002831015620006035761016081019290925282916101806001600160a01b03620004ee60043561018401620009ba565b1691015203906000f08015620005f75733600090815260066020526040902080546001600160401b03808216936001600160a01b03169291908414620005e1576001600160401b0360016020950116906001600160401b03191617905533600052600582526040600020600683526001600160401b036040600020541660005282526040600020816bffffffffffffffffffffffff60a01b8254161790557f0431ea4d93af299b92f2c606ddcaf4b31cb0013c5ed1fdea837b8a912347c96582604051838152a160007f691bb03ffc16c56fc96b82fd16cd1b3715f0bc3cdc6407005f49bb620586009555604051908152f35b634e487b7160e01b600052601160045260246000fd5b6040513d6000823e3d90fd5b600080fd5b9091926001602080600493838060a01b036200062489620009ba565b1681520195019392019050620003ab565b90919293605f196114a4870182030182528451602060806040606085019360018060a01b038151168652838101516200066e816200094f565b84870152015193606060408201528451809452019201906000905b808210620006a957505050602080600192960192019201909291620002f8565b82516001600160e01b03191684526020938401939092019160019091019062000689565b634e487b7160e01b600052604160045260246000fd5b6001600160e01b031916815260200186620001ae565b602083811b6001600160e01b031916855290930192600101620001a7565b604083901b6001600160e01b03191684526020909301926001016200019e565b606083901b6001600160e01b031916845260209093019260010162000195565b608083901b6001600160e01b03191684526020909301926001016200018c565b60a083901b6001600160e01b031916845260209093019260010162000183565b60c083901b6001600160e01b03191684526020909301926001016200017a565b60e083901b6001600160e01b031916845260209093019260010162000171565b916008919350610100600191865463ffffffff60e01b90818160e01b16835260c08282821b16602085015260a08383821b1660408601526080848460608282851b16818a01521b1690860152838360401b1690850152828260201b16908401521660e082015201940192018492939162000232565b916008919350610100600191865463ffffffff60e01b90818160e01b16835260c08282821b16602085015260a08383821b1660408601526080848460608282851b16818a01521b1690860152838360401b1690850152828260201b16908401521660e082015201940192018492939162000156565b602090604051620008d28162000911565b600081526000838201526060604082015282828501015201620000ee565b604051633bed049960e01b8152600490fd5b6329f745a760e01b8152600490fd5b606081019081106001600160401b03821117620006cd57604052565b90601f801991011681019081106001600160401b03821117620006cd57604052565b600311156200095a57565b634e487b7160e01b600052602160045260246000fd5b8051156200097e5760200190565b634e487b7160e01b600052603260045260246000fd5b8051600110156200097e5760400190565b35906001600160401b03821682036200060357565b35906001600160a01b0382168203620006035756fe608060405234610728576114a4803803809161001c8260806110d7565b6080396040811261072857608051906001600160401b0382116107285760808101609f83011215610728578160800151610055816110fa565b9061006360405192836110d7565b8082526020820180948460800160208460051b836080010101116107285760a08101915b60a0600585901b8301018310610f7c57505060a051949150506001600160401b038411610728576101a084840312610728576040519361018085016001600160401b038111868210176107fe5760405260808101516001600160401b038111610728576100fd9085608001908360800101611139565b855261010b60a08201611111565b602086015260c0810151600181101561072857604086015260e0810151606086015261013a6101008201611125565b608086015261014c6101208201611125565b60a086015261014081015160ff811681036107285760c086015261016081015161ffff811681036107285760e08601526101009384826080010151858701526101208260800101518060000b8103610728576101208701526101c08201519060038210156107285761014087019190915260409082900361015f19011261072857604051906101da826110a1565b6101e081015160028110156107285782526101f89061020001611111565b602082015261016085015260018060a01b0360208501511615610f6a5760a08401516001600160401b031615610f58576001610140850151610239816111dc565b610242816111dc565b141580610f4c575b610f3a5760ff60c08501511660338110908115610f2f575b50610f1d57601261012085015160000b13610f0b57610160840151805160028110156106e657600114610e82575b507f806e0cbb9fce296bbc336a48f42bf1dbc69722d18d90d6fe705b7582c2bb4bd580546001600160a01b031916331790556040516001600160401b0360208201908111908211176107fe576020810160405260008152825160005b8181106108765750506040519260608401906060855251809152608084019060808160051b86010193916000905b8282106108205788887f8faa70878671ccd212d20771b795c50af8fd3ff6cf27f4bde57e5d4de0aeb673898061035f8b8b6000602085015283820360408501526112a9565b0390a17f806e0cbb9fce296bbc336a48f42bf1dbc69722d18d90d6fe705b7582c2bb4bd46020527f7dfd48dd9def002fa9b4a05bd6b726a6c313c362d3f3e8413d7a7520f0090d258054600160ff1991821681179092557f4d7f4c8a2fb5b35ca3c277c93888b47f0f2229bdcccf66504d1ba48e88b8816480548216831790556348e2b09360e01b6000527f59ba4db4a213e8161de597b8c10db0e7e7ba5ace5c268e36379e249a6d2d42c9805490911682179055610140830151610423816111dc565b61042c816111dc565b14610814575b81518051601080546001600160401b0319166001600160401b039283161790556020919091015180519182116107fe576801000000000000000082116107fe57601154826011558083106107c9575b506020016011600052602060002060005b8381106107ac57858560018060a01b03602083015116600e5490604084015160018110156106e6576012805460ff92831660ff19918216179091556060860151600a556080860151600c80546001600160401b0319166001600160401b0392831617905560a080880151909116600b5560c08701516001600160a81b0319909516939093179390921b60ff60a01b1692909217600e5561012084015160208054919093169116179055810151600f556040519061054e826110a1565b6010546001600160401b0316825260405160118054808352600091825260008051602061144483398151915291839160208301915b81811061078a575050610598925003826110d7565b60208301526105da600073__$a0fe38a9a81205afccc10810b09a4d3f45$__936040518093819263aa5106cb60e01b83526040600484015260448301906111e6565b3060248301520381865af490811561073557600091610741575b5060209061061e9360405180809681946390ba52cf60e01b835286600484015260248301906111e6565b03915af48015610735576000906106fc575b6101609250600d55610140810151610647816111dc565b610650816111dc565b6013546064600855600a60018060401b0319600954161760095560ff62ffff0060e085015160081b1692169062ffffff191617176013556801000000000000000160018060801b0319601c541617601c55015180519060028210156106e65760ff602754916020610100600160a81b0391015160081b1692169060018060a81b031916171760275560405160eb90816113598239f35b634e487b7160e01b600052602160045260246000fd5b506020823d60201161072d575b81610716602093836110d7565b81010312610728576101609151610630565b600080fd5b3d9150610709565b6040513d6000823e3d90fd5b90503d806000833e61075381836110d7565b810192602082850312610728578151916001600160401b0383116107285761061e946020936107829201611139565b9150926105f4565b84546001600160a01b0316835260019485019486945060209093019201610583565b82516001600160a01b031681830155602090920191600101610492565b6011600052600080516020611444833981519152908382015b81830181106107f2575050610481565b600081556001016107e2565b634e487b7160e01b600052604160045260246000fd5b60006060830152610432565b90919294602080610868600193607f198b8203018652606060408b51878060a01b03815116845285810151610854816111dc565b86850152015191816040820152019061126b565b97019201920190929161031a565b60406108828287611241565b5101516001600160a01b036108978388611241565b51511690805115610e695760206108ae8489611241565b5101516108ba816111dc565b6108c3816111dc565b80610ac557508115610a9c5761ffff60008051602061146483398151915254169161092d6040516108f3816110bc565b602181527f6469616d6f6e644375743a2041646420666163657420686173206e6f20636f646020820152606560f81b604082015282611319565b8151916000935b83851061094a5750505050506001905b016102ec565b6001600160e01b031961095d8684611241565b5116600081815260008051602061148483398151915260205260409020546001600160a01b0316610a84576109f3604051610997816110a1565b85815261ffff841660208083019182526000858152600080516020611484833981519152909152604090209151825491516001600160b01b03199092166001600160a01b03919091161760a09190911b61ffff60a01b16179055565b6000805160206114648339815191525490680100000000000000008210156107fe57610a35826001610a529401600080516020611464833981519152556112e9565b90919063ffffffff83549160031b9260e01c831b921b1916179055565b61ffff80821614610a6e57600161ffff81921601940193610934565b634e487b7160e01b600052601160045260246000fd5b6024906040519063ebbf5d0760e01b82526004820152fd5b6040516302b8da0760e21b815260206004820152908190610ac190602483019061126b565b0390fd5b610ace816111dc565b60018103610c3557508115610c1057610b2d604051610aec816110bc565b602881527f4c69624469616d6f6e644375743a205265706c61636520666163657420686173602082015267206e6f20636f646560c01b604082015283611319565b80519060005b828110610b465750505050600190610944565b6001600160e01b0319610b598284611241565b5116600081815260008051602061148483398151915260205260409020546001600160a01b0316308114610bf757858114610bde5715610bc65760009081526000805160206114848339815191526020526040902080546001600160a01b03191685179055600101610b33565b60249060405190637479f93960e01b82526004820152fd5b604051631ac6ce8d60e11b815260048101839052602490fd5b604051632901806d60e11b815260048101839052602490fd5b60405163cd98a96f60e01b815260206004820152908190610ac190602483019061126b565b610c3e816111dc565b60028103610e495750600080516020611464833981519152549180610e31575080519060005b828110610c775750505050600190610944565b6001600160e01b0319610c8a8284611241565b5116908160005260008051602061148483398151915260205260406000209460405195610cb6876110a1565b546001600160a01b03811680885260a09190911c61ffff16602088015215610e185785516001600160a01b03163014610dff578015610a6e5760001901948561ffff60208301511603610d84575b5060008051602061146483398151915254918215610d6e5760019260001901610d2c816112e9565b63ffffffff82549160031b1b19169055600080516020611464833981519152556000526000805160206114848339815191526020526000604081205501610c64565b634e487b7160e01b600052603160045260246000fd5b610df99061ffff6020610d96896112e9565b90549060031b1c60e01b92610db384610a358585850151166112e9565b01516001600160e01b0319909216600090815260008051602061148483398151915260205260409020805461ffff60a01b19169190921660a01b61ffff60a01b16179055565b38610d04565b604051630df5fd6160e31b815260048101849052602490fd5b604051637a08a22d60e01b815260048101849052602490fd5b6024906040519063d091bc8160e01b82526004820152fd5b604051633ff4d20f60e11b8152602491610e62816111dc565b6004820152fd5b60405163e767f91f60e01b815260048101839052602490fd5b60208101516001600160a01b031615610ef9576020908101516040516370a0823160e01b8152600060048201529190829060249082906001600160a01b03165afa8015610735571561029057602090813d8311610ef2575b610ee481836110d7565b810103126107285738610290565b503d610eda565b6040516376fe282b60e11b8152600490fd5b6040516378b177e560e11b8152600490fd5b6040516375c3b42760e01b8152600490fd5b606491501138610262565b6040516368f7a67560e11b8152600490fd5b5060608401511561024a565b60405163312f8e0560e01b8152600490fd5b604051638b3ddc3360e01b8152600490fd5b82516001600160401b03811161072857606090830160808101908803601f1901821361072857604051918083016001600160401b0381118482101761108c57604052610fca60208301611111565b8352604082015160038110156107285760208401528101516001600160401b0381116107285788608001603f8284010112156107285760208183010151611010816110fa565b9261101e60405194856110d7565b81845260208401908b60800160408460051b86840101011161072857604084820101915b60408460051b8684010101831061106b5750505050506040820152815260209283019201610087565b82516001600160e01b03198116810361072857815260209283019201611042565b60246000634e487b7160e01b81526041600452fd5b604081019081106001600160401b038211176107fe57604052565b606081019081106001600160401b038211176107fe57604052565b601f909101601f19168101906001600160401b038211908210176107fe57604052565b6001600160401b0381116107fe5760051b60200190565b51906001600160a01b038216820361072857565b51906001600160401b038216820361072857565b91906040838203126107285760405192611152846110a1565b8361115c82611125565b815260208281015190926001600160401b03821161072857019280601f8501121561072857835161118c816110fa565b9461119a60405196876110d7565b818652848087019260051b8201019283116107285784809101915b8383106111c457505050500152565b81906111cf84611111565b81520191019084906111b5565b600311156106e657565b80516001600160401b03168252602090810151604082840181905281519084018190526060909301929082019160005b828110611224575050505090565b83516001600160a01b031685529381019392810192600101611216565b80518210156112555760209160051b010190565b634e487b7160e01b600052603260045260246000fd5b90815180825260208080930193019160005b82811061128b575050505090565b83516001600160e01b0319168552938101939281019260010161127d565b919082519283825260005b8481106112d5575050826000602080949584010152601f8019910116010190565b6020818301810151848301820152016112b4565b90600080516020611464833981519152805483101561125557600052601c60206000208360031c019260021b1690565b803b15611324575050565b6040805163919834b960e01b81526001600160a01b0390921660048301526024820152908190610ac19060448301906112a956fe60806040523615609157600080356001600160e01b0319168082527f806e0cbb9fce296bbc336a48f42bf1dbc69722d18d90d6fe705b7582c2bb4bd260205260408220546001600160a01b0316908115606f5750818091368280378136915af43d82803e15606b573d90f35b3d90fd5b630a82dd7360e31b6080526001600160e01b031916608452607f1960a4016080fd5b600e546001600160a01b0316330360a457005b63e7e601db60e01b60805260046080fdfea2646970667358221220b9348b683a13a349b51625f7101b18938a9ed08f94a459a0b7e6c5c70f51182064736f6c6343000813003331ecc21a745e3968a04e9570e4425bc18fa8019c68028196b546d1669c200c68806e0cbb9fce296bbc336a48f42bf1dbc69722d18d90d6fe705b7582c2bb4bd3806e0cbb9fce296bbc336a48f42bf1dbc69722d18d90d6fe705b7582c2bb4bd2a26469706673582212204d76b7bf9b8967d88572b6c13dcd795ad567ac5197ae11087589e16062f9ff4564736f6c63430008130033","linkReferences":{"src/lib/SubnetIDHelper.sol":{"SubnetIDHelper":[{"start":3984,"length":20}]}}},"methodIdentifiers":{"newSubnetActor(((uint64,address[]),address,uint8,uint256,uint64,uint64,uint8,uint16,uint256,int8,uint8,(uint8,address)))":"7be005d5"},"id":83}