{"abi":[{"type":"function","name":"newSubnetActor","inputs":[{"name":"_params","type":"tuple","internalType":"struct SubnetActorDiamond.ConstructorParams","components":[{"name":"parentId","type":"tuple","internalType":"struct SubnetID","components":[{"name":"root","type":"uint64","internalType":"uint64"},{"name":"route","type":"address[]","internalType":"address[]"}]},{"name":"ipcGatewayAddr","type":"address","internalType":"address"},{"name":"consensus","type":"uint8","internalType":"enum ConsensusType"},{"name":"minActivationCollateral","type":"uint256","internalType":"uint256"},{"name":"minValidators","type":"uint64","internalType":"uint64"},{"name":"bottomUpCheckPeriod","type":"uint64","internalType":"uint64"},{"name":"majorityPercentage","type":"uint8","internalType":"uint8"},{"name":"activeValidatorsLimit","type":"uint16","internalType":"uint16"},{"name":"minCrossMsgFee","type":"uint256","internalType":"uint256"},{"name":"powerScale","type":"int8","internalType":"int8"},{"name":"permissionMode","type":"uint8","internalType":"enum PermissionMode"}]}],"outputs":[{"name":"subnetAddr","type":"address","internalType":"address"}],"stateMutability":"nonpayable"},{"type":"event","name":"SubnetDeployed","inputs":[{"name":"subnetAddr","type":"address","indexed":false,"internalType":"address"}],"anonymous":false},{"type":"error","name":"ReentrancyError","inputs":[]},{"type":"error","name":"WrongGateway","inputs":[]}],"bytecode":{"object":"0x6080806040523461001657611cdc908161001c8239f35b600080fdfe60808060405260043610156200001457600080fd5b60003560e01c63aa3d1588146200002a57600080fd5b34620005c457600319602036820112620005c4576001600160401b0360043511620005c4576101609060043536030112620005c45760017f691bb03ffc16c56fc96b82fd16cd1b3715f0bc3cdc6407005f49bb62058600955414620008e15760017f691bb03ffc16c56fc96b82fd16cd1b3715f0bc3cdc6407005f49bb620586009555602460043501356001600160a01b03811690819003620005c4576000546001600160a01b031603620008cf57604051620000e781620008f0565b6002815260005b60408110620008a05750600154604051906001600160a01b03166200011382620008f0565b81526000602082015260405180816020600354928381520160036000527fc2575a0e9e593c00f959f8c92f12db2869c3395a3b0502d05e2516446f71f85b926000905b8060078301106200082b57620001b794549181811062000796575b81811062000776575b81811062000756575b81811062000736575b81811062000716575b818110620006f6575b818110620006d8575b10620006c2575b5003826200090c565b6040820152620001c7826200092e565b52620001d3816200092e565b50600254604051906001600160a01b0316620001ef82620008f0565b81526000602082015260405180816020600454928381520160046000527f8a35acfbc15ff81a39ae7d344fd709f28e8600b4aa8c65c6b64bfe7fe36bd19b926000905b806007830110620007b6576200028b94549181811062000796578181106200077657818110620007565781811062000736578181106200071657818110620006f657818110620006d85710620006c2575003826200090c565b60408201526200029b8262000952565b52620002a78162000952565b5060405190816113198101106001600160401b0361131984011117620006ac576113196200098e83396040611319830181815282519181018290526060600583901b82018101936020019291600091015b828210620005f65785856113198201810360206113198401015260043560040135604219600435360301811215620005c4576004350161016082526001600160401b03620003496004830162000963565b16610160830152602481013560221982360301811215620005c457016001600160401b03600482013511620005c457600481013560051b36036024820113620005c457604061018083015260048101356101a08301526101c0820190602481019060005b60048201358110620005c957506001600160a01b039150620003d6905060043560240162000978565b166020830152604460043501356001811015620005c45760408301526064600435013560608301526001600160401b036200041660846004350162000963565b1660808301526001600160401b036200043460a46004350162000963565b1660a083015260c4600435013560ff8116809103620005c45760c083015260e4600435013561ffff8116809103620005c45760e0830152610104600435013561010083015261012460043501358060000b809103620005c45761012083015261014460043501356002811015620005c4576101408493015203906000f08015620005b85760018060a01b0316336000526005602052604060002060066020526001600160401b03604060002054166000526020526040600020816bffffffffffffffffffffffff60a01b8254161790553360005260066020526040600020908154916001600160401b038316926001600160401b038414620005a2576001600160401b0360016020950116906001600160401b0319161790557f0431ea4d93af299b92f2c606ddcaf4b31cb0013c5ed1fdea837b8a912347c96582604051838152a160007f691bb03ffc16c56fc96b82fd16cd1b3715f0bc3cdc6407005f49bb620586009555604051908152f35b634e487b7160e01b600052601160045260246000fd5b6040513d6000823e3d90fd5b600080fd5b9091926001602080600493838060a01b03620005e58962000978565b1681520195019392019050620003ad565b61131986018503605f19018152835180516001600160a01b031686526020810151949593949293919290600382101562000696576040916020840152015190606060408201526020608060608301928451809452019201906000905b8082106200067257505050602080600192960192019201909291620002f8565b82516001600160e01b03191684526020938401939092019160019091019062000652565b634e487b7160e01b600052602160045260246000fd5b634e487b7160e01b600052604160045260246000fd5b6001600160e01b031916815260200186620001ae565b602083811b6001600160e01b031916855290930192600101620001a7565b604083901b6001600160e01b03191684526020909301926001016200019e565b606083901b6001600160e01b031916845260209093019260010162000195565b608083901b6001600160e01b03191684526020909301926001016200018c565b60a083901b6001600160e01b031916845260209093019260010162000183565b60c083901b6001600160e01b03191684526020909301926001016200017a565b60e083901b6001600160e01b031916845260209093019260010162000171565b916008919350610100600191865463ffffffff60e01b90818160e01b16835260c08282821b16602085015260a08383821b1660408601526080848460608282851b16818a01521b1690860152838360401b1690850152828260201b16908401521660e082015201940192018492939162000232565b916008919350610100600191865463ffffffff60e01b90818160e01b16835260c08282821b16602085015260a08383821b1660408601526080848460608282851b16818a01521b1690860152838360401b1690850152828260201b16908401521660e082015201940192018492939162000156565b602090604051620008b181620008f0565b600081526000838201526060604082015282828501015201620000ee565b604051633bed049960e01b8152600490fd5b6329f745a760e01b8152600490fd5b606081019081106001600160401b03821117620006ac57604052565b90601f801991011681019081106001600160401b03821117620006ac57604052565b8051156200093c5760200190565b634e487b7160e01b600052603260045260246000fd5b8051600110156200093c5760400190565b35906001600160401b0382168203620005c457565b35906001600160a01b0382168203620005c45756fe60806040523461065757611319803803809161001c826080610f49565b60803960408112610657576080516001600160401b0381116106575760808201609f8201121561065757806080015161005481610f6c565b906100626040519283610f49565b8082526020820180938560800160208460051b836080010101116106575760a08101915b60a0600585901b8301018310610dee57505060a051939150506001600160401b03831161065757610160938381038513610657576040519485016001600160401b0381118682101761072d5760405260808401516001600160401b038111610657576100fa91608001908560800101610fab565b845261010860a08401610f83565b6020850181905260c0840151600181101561065757604086015260e084015160608601526101396101008501610f97565b608086015261014b6101208501610f97565b60a086015261014084015160ff811681036106575760c086015261016084015161ffff811681036106575760e0860152610100938481608001015185870152610120816080010151908160000b8203610657576101409161012088015260800101516002811015610657576101408601526001600160a01b031615610ddc5760a08401516001600160401b031615610dca57606084015115610db85760ff60c08501511660338110908115610dad575b50610d9b57601261012085015160000b13610d89577f806e0cbb9fce296bbc336a48f42bf1dbc69722d18d90d6fe705b7582c2bb4bd580546001600160a01b031916331790556040516001600160401b03602082019081119082111761072d576020810160405260008152825160005b8181106107985750506040519260608401906060855251809152608084019060808160051b86010193916000905b8282106107435788887f8faa70878671ccd212d20771b795c50af8fd3ff6cf27f4bde57e5d4de0aeb67389806102de8b8b60006020850152838203604085015261111e565b0390a17f806e0cbb9fce296bbc336a48f42bf1dbc69722d18d90d6fe705b7582c2bb4bd460209081527f7dfd48dd9def002fa9b4a05bd6b726a6c313c362d3f3e8413d7a7520f0090d25805460ff1990811660019081179092557f4d7f4c8a2fb5b35ca3c277c93888b47f0f2229bdcccf66504d1ba48e88b8816480548216831790556348e2b09360e01b6000527f59ba4db4a213e8161de597b8c10db0e7e7ba5ace5c268e36379e249a6d2d42c98054909116909117905582518051601080546001600160401b0319166001600160401b03928316179055910151805191821161072d5768010000000000000000821161072d57601154826011558083106106f8575b506020016011600052602060002060005b8381106106db57858560018060a01b03602083015116600e549060408401516001811015610617576012805460ff92831660ff19918216179091556060860151600a556080860151600c80546001600160401b0319166001600160401b0392831617905560a080880151909116600b5560c08701516001600160a81b0319909516939093179390921b60ff60a01b1692909217600e5561012084015160208054919093169116179055810151600f556040516104ae81610f13565b6010546001600160401b031681526040516011805480835260009182526000805160206112b983398151915291839160208301915b8181106106b95750506104f892500382610f49565b602082015261053a600073__$a0fe38a9a81205afccc10810b09a4d3f45$__926040518093819263aa5106cb60e01b835260406004840152604483019061104e565b3060248301520381855af490811561066457600091610670575b5060209061057e9260405180809581946390ba52cf60e01b8352866004840152602483019061104e565b03915af49081156106645760009161062d575b50600d556101408101519060028210156106175760e09162ff00006012549160101b169062ff00001916176012556064600855600a60018060401b03196009541617600955015162ffff006013549160081b169062ffff001916176013556801000000000000000160018060801b0319601c541617601c5560405160eb90816111ce8239f35b634e487b7160e01b600052602160045260246000fd5b90506020813d60201161065c575b8161064860209383610f49565b81010312610657575182610591565b600080fd5b3d915061063b565b6040513d6000823e3d90fd5b90503d806000833e6106828183610f49565b810191602082840312610657578151916001600160401b0383116106575761057e936020936106b19201610fab565b915091610554565b84546001600160a01b03168352600194850194869450602090930192016104e3565b82516001600160a01b0316818301556020909201916001016103f3565b60116000526000805160206112b9833981519152908382015b81830181106107215750506103e2565b60008155600101610711565b634e487b7160e01b600052604160045260246000fd5b9091929460208061078a600193607f198b8203018652606060408b51878060a01b03815116845261077a86820151878601906110d3565b01519181604082015201906110e0565b970192019201909291610299565b60406107a482876110a9565b5101516001600160a01b036107b983886110a9565b51511690805115610d705760206107d084896110a9565b510151600381101561061757806109de575081156109b55761ffff6000805160206112d983398151915254169161084660405161080c81610f2e565b602181527f6469616d6f6e644375743a2041646420666163657420686173206e6f20636f646020820152606560f81b60408201528261118e565b8151916000935b8385106108635750505050506001905b0161026b565b6001600160e01b031961087686846110a9565b511660008181526000805160206112f983398151915260205260409020546001600160a01b031661099d5761090c6040516108b081610f13565b85815261ffff8416602080830191825260008581526000805160206112f9833981519152909152604090209151825491516001600160b01b03199092166001600160a01b03919091161760a09190911b61ffff60a01b16179055565b6000805160206112d983398151915254906801000000000000000082101561072d5761094e82600161096b94016000805160206112d98339815191525561115e565b90919063ffffffff83549160031b9260e01c831b921b1916179055565b61ffff8082161461098757600161ffff8192160194019361084d565b634e487b7160e01b600052601160045260246000fd5b6024906040519063ebbf5d0760e01b82526004820152fd5b6040516302b8da0760e21b8152602060048201529081906109da9060248301906110e0565b0390fd5b60018103610b4557508115610b2057610a3d6040516109fc81610f2e565b602881527f4c69624469616d6f6e644375743a205265706c61636520666163657420686173602082015267206e6f20636f646560c01b60408201528361118e565b80519060005b828110610a56575050505060019061085d565b6001600160e01b0319610a6982846110a9565b511660008181526000805160206112f983398151915260205260409020546001600160a01b0316308114610b0757858114610aee5715610ad65760009081526000805160206112f98339815191526020526040902080546001600160a01b03191685179055600101610a43565b60249060405190637479f93960e01b82526004820152fd5b604051631ac6ce8d60e11b815260048101839052602490fd5b604051632901806d60e11b815260048101839052602490fd5b60405163cd98a96f60e01b8152602060048201529081906109da9060248301906110e0565b60028103610d5057506000805160206112d9833981519152549180610d38575080519060005b828110610b7e575050505060019061085d565b6001600160e01b0319610b9182846110a9565b511690816000526000805160206112f983398151915260205260406000209460405195610bbd87610f13565b546001600160a01b03811680885260a09190911c61ffff16602088015215610d1f5785516001600160a01b03163014610d065780156109875760001901948561ffff60208301511603610c8b575b506000805160206112d983398151915254918215610c755760019260001901610c338161115e565b63ffffffff82549160031b1b191690556000805160206112d9833981519152556000526000805160206112f98339815191526020526000604081205501610b6b565b634e487b7160e01b600052603160045260246000fd5b610d009061ffff6020610c9d8961115e565b90549060031b1c60e01b92610cba8461094e85858501511661115e565b01516001600160e01b031990921660009081526000805160206112f983398151915260205260409020805461ffff60a01b19169190921660a01b61ffff60a01b16179055565b38610c0b565b604051630df5fd6160e31b815260048101849052602490fd5b604051637a08a22d60e01b815260048101849052602490fd5b6024906040519063d091bc8160e01b82526004820152fd5b604051633ff4d20f60e11b8152602491610d6e9060048301906110d3565bfd5b60405163e767f91f60e01b815260048101839052602490fd5b6040516378b177e560e11b8152600490fd5b6040516375c3b42760e01b8152600490fd5b6064915011386101fb565b6040516368f7a67560e11b8152600490fd5b60405163312f8e0560e01b8152600490fd5b604051638b3ddc3360e01b8152600490fd5b82516001600160401b03811161065757606090830160808101908903601f1901821361065757604051918083016001600160401b03811184821017610efe57604052610e3c60208301610f83565b8352604082015160038110156106575760208401528101516001600160401b0381116106575789608001603f8284010112156106575760208183010151610e8281610f6c565b92610e906040519485610f49565b81845260208401908c60800160408460051b86840101011161065757604084820101915b60408460051b86840101018310610edd5750505050506040820152815260209283019201610086565b82516001600160e01b03198116810361065757815260209283019201610eb4565b60246000634e487b7160e01b81526041600452fd5b604081019081106001600160401b0382111761072d57604052565b606081019081106001600160401b0382111761072d57604052565b601f909101601f19168101906001600160401b0382119082101761072d57604052565b6001600160401b03811161072d5760051b60200190565b51906001600160a01b038216820361065757565b51906001600160401b038216820361065757565b91906040838203126106575760405192610fc484610f13565b83610fce82610f97565b815260208281015190926001600160401b03821161065757019280601f85011215610657578351610ffe81610f6c565b9461100c6040519687610f49565b818652848087019260051b8201019283116106575784809101915b83831061103657505050500152565b819061104184610f83565b8152019101908490611027565b80516001600160401b03168252602090810151604082840181905281519084018190526060909301929082019160005b82811061108c575050505090565b83516001600160a01b03168552938101939281019260010161107e565b80518210156110bd5760209160051b010190565b634e487b7160e01b600052603260045260246000fd5b9060038210156106175752565b90815180825260208080930193019160005b828110611100575050505090565b83516001600160e01b031916855293810193928101926001016110f2565b919082519283825260005b84811061114a575050826000602080949584010152601f8019910116010190565b602081830181015184830182015201611129565b906000805160206112d983398151915280548310156110bd57600052601c60206000208360031c019260021b1690565b803b15611199575050565b6040805163919834b960e01b81526001600160a01b03909216600483015260248201529081906109da90604483019061111e56fe60806040523615609157600080356001600160e01b0319168082527f806e0cbb9fce296bbc336a48f42bf1dbc69722d18d90d6fe705b7582c2bb4bd260205260408220546001600160a01b0316908115606f5750818091368280378136915af43d82803e15606b573d90f35b3d90fd5b630a82dd7360e31b6080526001600160e01b031916608452607f1960a4016080fd5b600e546001600160a01b0316330360a457005b63e7e601db60e01b60805260046080fdfea264697066735822122097dcd9de5ae5c7df1859098c3e260dc36549e34fffd7129be5d93dffa1e15f7f64736f6c6343000813003331ecc21a745e3968a04e9570e4425bc18fa8019c68028196b546d1669c200c68806e0cbb9fce296bbc336a48f42bf1dbc69722d18d90d6fe705b7582c2bb4bd3806e0cbb9fce296bbc336a48f42bf1dbc69722d18d90d6fe705b7582c2bb4bd2a2646970667358221220e2bd8332179e5f3c15b65d9b81ea4448a069aa0a31d7835f2589e36e58a32ee364736f6c63430008130033","linkReferences":{"src/lib/SubnetIDHelper.sol":{"SubnetIDHelper":[{"start":3758,"length":20}]}}},"methodIdentifiers":{"newSubnetActor(((uint64,address[]),address,uint8,uint256,uint64,uint64,uint8,uint16,uint256,int8,uint8))":"aa3d1588"},"id":79}