{"abi":[{"type":"function","name":"getGreeting","inputs":[],"outputs":[{"name":"","type":"string","internalType":"string"}],"stateMutability":"view"},{"type":"function","name":"greeting","inputs":[],"outputs":[{"name":"","type":"string","internalType":"string"}],"stateMutability":"view"},{"type":"function","name":"setGreetings","inputs":[{"name":"_greeting","type":"string","internalType":"string"}],"outputs":[],"stateMutability":"nonpayable"}],"bytecode":{"object":"0x60c0604052600d60809081526c48656c6c6f2c20576f726c642160981b60a05260009061002c90826100de565b5034801561003957600080fd5b5061019c565b634e487b7160e01b600052604160045260246000fd5b600181811c9082168061006957607f821691505b60208210810361008957634e487b7160e01b600052602260045260246000fd5b50919050565b601f8211156100d957806000526020600020601f840160051c810160208510156100b65750805b601f840160051c820191505b818110156100d657600081556001016100c2565b50505b505050565b81516001600160401b038111156100f7576100f761003f565b61010b816101058454610055565b8461008f565b6020601f82116001811461013f57600083156101275750848201515b600019600385901b1c1916600184901b1784556100d6565b600084815260208120601f198516915b8281101561016f578785015182556020948501946001909201910161014f565b508482101561018d5786840151600019600387901b60f8161c191681555b50505050600190811b01905550565b61044c806101ab6000396000f3fe608060405234801561001057600080fd5b50600436106100415760003560e01c806349da5de414610046578063ef690cc01461005b578063fe50cc7214610079575b600080fd5b6100596100543660046101c7565b610081565b005b610063610091565b6040516100709190610280565b60405180910390f35b61006361011f565b600061008d8282610357565b5050565b6000805461009e906102ce565b80601f01602080910402602001604051908101604052809291908181526020018280546100ca906102ce565b80156101175780601f106100ec57610100808354040283529160200191610117565b820191906000526020600020905b8154815290600101906020018083116100fa57829003601f168201915b505050505081565b60606000805461012e906102ce565b80601f016020809104026020016040519081016040528092919081815260200182805461015a906102ce565b80156101a75780601f1061017c576101008083540402835291602001916101a7565b820191906000526020600020905b81548152906001019060200180831161018a57829003601f168201915b5050505050905090565b634e487b7160e01b600052604160045260246000fd5b6000602082840312156101d957600080fd5b813567ffffffffffffffff8111156101f057600080fd5b8201601f8101841361020157600080fd5b803567ffffffffffffffff81111561021b5761021b6101b1565b604051601f8201601f19908116603f0116810167ffffffffffffffff8111828210171561024a5761024a6101b1565b60405281815282820160200186101561026257600080fd5b81602084016020830137600091810160200191909152949350505050565b602081526000825180602084015260005b818110156102ae5760208186018101516040868401015201610291565b506000604082850101526040601f19601f83011684010191505092915050565b600181811c908216806102e257607f821691505b60208210810361030257634e487b7160e01b600052602260045260246000fd5b50919050565b601f82111561035257806000526020600020601f840160051c8101602085101561032f5750805b601f840160051c820191505b8181101561034f576000815560010161033b565b50505b505050565b815167ffffffffffffffff811115610371576103716101b1565b6103858161037f84546102ce565b84610308565b6020601f8211600181146103b957600083156103a15750848201515b600019600385901b1c1916600184901b17845561034f565b600084815260208120601f198516915b828110156103e957878501518255602094850194600190920191016103c9565b50848210156104075786840151600019600387901b60f8161c191681555b50505050600190811b0190555056fea2646970667358221220f15495b5e37a0549e8177fd522883d69807c0732522f82427c706cfc78982d8d64736f6c634300081a0033","linkReferences":{}},"methodIdentifiers":{"getGreeting()":"fe50cc72","greeting()":"ef690cc0","setGreetings(string)":"49da5de4"},"id":0}