{
    "abi": [
        {
            "inputs": [
                {
                    "internalType": "address",
                    "name": "account",
                    "type": "address"
                }
            ],
            "name": "AddressInsufficientBalance",
            "type": "error"
        },
        {
            "inputs": [],
            "name": "FailedInnerCall",
            "type": "error"
        },
        {
            "inputs": [],
            "name": "NoRewardToWithdraw",
            "type": "error"
        },
        {
            "anonymous": false,
            "inputs": [
                {
                    "indexed": false,
                    "internalType": "address",
                    "name": "validator",
                    "type": "address"
                },
                {
                    "indexed": false,
                    "internalType": "uint256",
                    "name": "amount",
                    "type": "uint256"
                }
            ],
            "name": "CollateralClaimed",
            "type": "event"
        },
        {
            "anonymous": false,
            "inputs": [
                {
                    "indexed": false,
                    "internalType": "uint64",
                    "name": "number",
                    "type": "uint64"
                }
            ],
            "name": "ConfigurationNumberConfirmed",
            "type": "event"
        },
        {
            "inputs": [],
            "name": "INITIAL_CONFIGURATION_NUMBER",
            "outputs": [
                {
                    "internalType": "uint64",
                    "name": "",
                    "type": "uint64"
                }
            ],
            "stateMutability": "view",
            "type": "function"
        }
    ],
    "bytecode": {
        "object": "0x6080806040523461001c57610239908161002282393081603d0152f35b600080fdfe608060408181526004908136101561001657600080fd5b600092833560e01c90816321eef606146101ed57506382985e0b1461003a57600080fd5b307f0000000000000000000000000000000000000000000000000000000000000000146101e95760203660031901126101e95781356001600160a01b03808216908183036101e5576001600160a01b0383166000908152601c60205260409020549283156101d5576001600160a01b03166000908152601c60205260409020869055600954869116803b156101d15781906024865180948193636c712ab960e11b8352888b8401525af180156101c757610199575b50814710610183578480809381935af13d1561017e5767ffffffffffffffff3d81811161016b57835191601f8201601f19908116603f011683019081118382101761015657845281528460203d92013e5b15610149578280f35b51630a12f52160e11b8152fd5b604186634e487b7160e01b6000525260246000fd5b634e487b7160e01b865260418552602486fd5b610140565b825163cd78605960e01b81523081860152602490fd5b67ffffffffffffffff81969296116101b457835293386100ef565b634e487b7160e01b825260418552602482fd5b84513d88823e3d90fd5b5080fd5b84516367300f9160e11b81528690fd5b8580fd5b8280fd5b8490816003193601126101d15780600160209252f3fea26469706673582212201f80fede3d68258582256bc8ef385680620804dc08254814deec279633ca446d64736f6c63430008130033",
        "linkReferences": {}
    },
    "methodIdentifiers": {
        "INITIAL_CONFIGURATION_NUMBER()": "21eef606",
        "claimRewardForRelayer(address)": "82985e0b"
    },
    "id": 63
}