{"abi":[{"type":"function","name":"addBootstrapNode","inputs":[{"name":"netAddress","type":"string","internalType":"string"}],"outputs":[],"stateMutability":"nonpayable"},{"type":"function","name":"claim","inputs":[],"outputs":[],"stateMutability":"nonpayable"},{"type":"function","name":"claimRewardForRelayer","inputs":[],"outputs":[],"stateMutability":"nonpayable"},{"type":"function","name":"confirmChange","inputs":[{"name":"_configurationNumber","type":"uint64","internalType":"uint64"}],"outputs":[],"stateMutability":"nonpayable"},{"type":"function","name":"confirmNextChange","inputs":[],"outputs":[],"stateMutability":"nonpayable"},{"type":"function","name":"distributeRewardToRelayers","inputs":[{"name":"height","type":"uint64","internalType":"uint64"},{"name":"reward","type":"uint256","internalType":"uint256"}],"outputs":[],"stateMutability":"payable"},{"type":"function","name":"join","inputs":[{"name":"publicKey","type":"bytes","internalType":"bytes"}],"outputs":[],"stateMutability":"payable"},{"type":"function","name":"kill","inputs":[],"outputs":[],"stateMutability":"nonpayable"},{"type":"function","name":"leave","inputs":[],"outputs":[],"stateMutability":"nonpayable"},{"type":"function","name":"preFund","inputs":[],"outputs":[],"stateMutability":"payable"},{"type":"function","name":"preRelease","inputs":[{"name":"amount","type":"uint256","internalType":"uint256"}],"outputs":[],"stateMutability":"nonpayable"},{"type":"function","name":"stake","inputs":[],"outputs":[],"stateMutability":"payable"},{"type":"function","name":"submitCheckpoint","inputs":[{"name":"checkpoint","type":"tuple","internalType":"struct BottomUpCheckpoint","components":[{"name":"subnetID","type":"tuple","internalType":"struct SubnetID","components":[{"name":"root","type":"uint64","internalType":"uint64"},{"name":"route","type":"address[]","internalType":"address[]"}]},{"name":"blockHeight","type":"uint64","internalType":"uint64"},{"name":"blockHash","type":"bytes32","internalType":"bytes32"},{"name":"nextConfigurationNumber","type":"uint64","internalType":"uint64"},{"name":"crossMessagesHash","type":"bytes32","internalType":"bytes32"}]},{"name":"messages","type":"tuple[]","internalType":"struct CrossMsg[]","components":[{"name":"message","type":"tuple","internalType":"struct StorableMsg","components":[{"name":"from","type":"tuple","internalType":"struct IPCAddress","components":[{"name":"subnetId","type":"tuple","internalType":"struct SubnetID","components":[{"name":"root","type":"uint64","internalType":"uint64"},{"name":"route","type":"address[]","internalType":"address[]"}]},{"name":"rawAddress","type":"tuple","internalType":"struct FvmAddress","components":[{"name":"addrType","type":"uint8","internalType":"uint8"},{"name":"payload","type":"bytes","internalType":"bytes"}]}]},{"name":"to","type":"tuple","internalType":"struct IPCAddress","components":[{"name":"subnetId","type":"tuple","internalType":"struct SubnetID","components":[{"name":"root","type":"uint64","internalType":"uint64"},{"name":"route","type":"address[]","internalType":"address[]"}]},{"name":"rawAddress","type":"tuple","internalType":"struct FvmAddress","components":[{"name":"addrType","type":"uint8","internalType":"uint8"},{"name":"payload","type":"bytes","internalType":"bytes"}]}]},{"name":"value","type":"uint256","internalType":"uint256"},{"name":"nonce","type":"uint64","internalType":"uint64"},{"name":"method","type":"bytes4","internalType":"bytes4"},{"name":"params","type":"bytes","internalType":"bytes"},{"name":"fee","type":"uint256","internalType":"uint256"}]},{"name":"wrapped","type":"bool","internalType":"bool"}]},{"name":"signatories","type":"address[]","internalType":"address[]"},{"name":"signatures","type":"bytes[]","internalType":"bytes[]"}],"outputs":[],"stateMutability":"nonpayable"},{"type":"function","name":"unstake","inputs":[{"name":"amount","type":"uint256","internalType":"uint256"}],"outputs":[],"stateMutability":"nonpayable"},{"type":"function","name":"validateActiveQuorumSignatures","inputs":[{"name":"signatories","type":"address[]","internalType":"address[]"},{"name":"hash","type":"bytes32","internalType":"bytes32"},{"name":"signatures","type":"bytes[]","internalType":"bytes[]"}],"outputs":[],"stateMutability":"view"},{"type":"event","name":"BottomUpCheckpointExecuted","inputs":[{"name":"epoch","type":"uint64","indexed":false,"internalType":"uint64"},{"name":"submitter","type":"address","indexed":false,"internalType":"address"}],"anonymous":false},{"type":"event","name":"BottomUpCheckpointSubmitted","inputs":[{"name":"checkpoint","type":"tuple","indexed":false,"internalType":"struct BottomUpCheckpoint","components":[{"name":"subnetID","type":"tuple","internalType":"struct SubnetID","components":[{"name":"root","type":"uint64","internalType":"uint64"},{"name":"route","type":"address[]","internalType":"address[]"}]},{"name":"blockHeight","type":"uint64","internalType":"uint64"},{"name":"blockHash","type":"bytes32","internalType":"bytes32"},{"name":"nextConfigurationNumber","type":"uint64","internalType":"uint64"},{"name":"crossMessagesHash","type":"bytes32","internalType":"bytes32"}]},{"name":"submitter","type":"address","indexed":false,"internalType":"address"}],"anonymous":false},{"type":"event","name":"NextBottomUpCheckpointExecuted","inputs":[{"name":"epoch","type":"uint64","indexed":false,"internalType":"uint64"},{"name":"submitter","type":"address","indexed":false,"internalType":"address"}],"anonymous":false},{"type":"event","name":"SubnetBootstrapped","inputs":[{"name":"","type":"tuple[]","indexed":false,"internalType":"struct Validator[]","components":[{"name":"weight","type":"uint256","internalType":"uint256"},{"name":"addr","type":"address","internalType":"address"},{"name":"metadata","type":"bytes","internalType":"bytes"}]}],"anonymous":false},{"type":"error","name":"AddressInsufficientBalance","inputs":[{"name":"account","type":"address","internalType":"address"}]},{"type":"error","name":"AddressShouldBeValidator","inputs":[]},{"type":"error","name":"CannotConfirmFutureChanges","inputs":[]},{"type":"error","name":"CannotReleaseZero","inputs":[]},{"type":"error","name":"CollateralIsZero","inputs":[]},{"type":"error","name":"EmptyAddress","inputs":[]},{"type":"error","name":"FailedInnerCall","inputs":[]},{"type":"error","name":"InvalidCheckpointEpoch","inputs":[]},{"type":"error","name":"InvalidCheckpointMessagesHash","inputs":[]},{"type":"error","name":"InvalidPublicKeyLength","inputs":[]},{"type":"error","name":"InvalidSignatureErr","inputs":[{"name":"","type":"uint8","internalType":"uint8"}]},{"type":"error","name":"MethodNotAllowed","inputs":[]},{"type":"error","name":"NoCollateralToWithdraw","inputs":[]},{"type":"error","name":"NotAllValidatorsHaveLeft","inputs":[]},{"type":"error","name":"NotEnoughBalance","inputs":[]},{"type":"error","name":"NotEnoughCollateral","inputs":[]},{"type":"error","name":"NotEnoughFunds","inputs":[]},{"type":"error","name":"NotGateway","inputs":[]},{"type":"error","name":"NotOwnerOfPublicKey","inputs":[]},{"type":"error","name":"NotStakedBefore","inputs":[]},{"type":"error","name":"NotValidator","inputs":[{"name":"","type":"address","internalType":"address"}]},{"type":"error","name":"PQDoesNotContainAddress","inputs":[]},{"type":"error","name":"PQEmpty","inputs":[]},{"type":"error","name":"ReentrancyError","inputs":[]},{"type":"error","name":"SubnetAlreadyBootstrapped","inputs":[]},{"type":"error","name":"SubnetAlreadyKilled","inputs":[]},{"type":"error","name":"WithdrawExceedingCollateral","inputs":[]}],"bytecode":{"object":"0x60808060405234610016576141ca908161001c8239f35b600080fdfe608080604052600436101561001357600080fd5b600090813560e01c9081630b7fbe60146113145750806310fd4261146111b95780632e17de7814611194578063350a14bf146111775780633a4b66f11461115b57806341c0e1b5146110bf5780634e71d92d14610f335780636170b1621461097357806366783c9b14610892578063a8284de3146102cd578063c7ebdaef14610285578063cc2dc2b914610208578063d66d9e19146101c5578063ed7c4da1146101115763f9002bb1146100c657600080fd5b604036600319011261010e576100da6114b2565b6009546001600160a01b031633036100fc576100f99060243590613c0f565b80f35b60405163e7e601db60e01b8152600490fd5b80fd5b503461010e578060031936011261010e5760008051602061417583398151915260018154146101b35780600183925573__$4a8700ca5e162cb61a0c4650a4871f1ad5$__803b156101af5782602491604051928380926382985e0b60e01b82523360048301525af49081156101a457839161018d575b50505580f35b610196906113db565b6101a1578138610187565b50fd5b6040513d85823e3d90fd5b5050fd5b6040516329f745a760e01b8152600490fd5b503461010e578060031936011261010e576101de6136a7565b60008051602061417583398151915260018154146101b357806001839255610204613a11565b5580f35b503461010e57606036600319011261010e576001600160401b0360043581811161028157366023820112156102815761024b903690602481600401359101611537565b6044359182116102815736602383011215610281576102776100f992369060248160040135910161158d565b9060243590613ce7565b8280fd5b503461010e578060031936011261010e576001600160401b036000198160175416019081116102b7576100f990611cc3565b634e487b7160e01b600052601160045260246000fd5b503461010e57608036600319011261010e576001600160401b036004351161010e5760a06004353603600319011261010e576024356001600160401b03811161088e5761031e9036906004016114dc565b91906044356001600160401b0381116102815761033f9036906004016114dc565b6064356001600160401b0381116107065761035e9036906004016114dc565b9261036d60246004350161160c565b926001600160401b03600554166001600160401b0360075416946001600160401b038061039a8885611638565b16911614158061086e575b61085c576040516020810190602082526103d6816103c88d60408301908d6117b4565b03601f19810183528261143a565b519020608460043501350361084a57604051602080820152610404816103c8604082016004356004016118e8565b60208151910120946001600160401b038061042d61042660246004350161160c565b9385611638565b1691161460001461070a57509161044e6104569261045c9695943691611537565b93369161158d565b91613ce7565b6001600160401b0361047260246004350161160c565b1682528160205260408220926004356004013560421960043536030181121561070257600435016001600160401b036104ad6004830161160c565b166001600160401b0319865416178555602481013590602219813603018212156107065701936001600160401b0360048601351161070257600485013560051b3603602486011361070257600160401b6004860135116106ee57600194858201805460048301358255806004840135106106cf575b506024820190865260208620865b600484013581106106a75750505050839450600281016001600160401b0361055c60246004350161160c565b166001600160401b03198254161790556044600435013560038201556001600160401b0361058e60646004350161160c565b1660048201906001600160401b03198254161790556005608460043501359101556001600160401b036105c560246004350161160c565b168352601d6020526105db604084203390611a49565b506001600160401b036105f260246004350161160c565b166001600160401b0319600554161760055560018060a01b036009541691823b156106a25761065c92849283604051809681958294637a2b59cf60e11b84526040600485015261064a604485016004356004016118e8565b848103600319016024860152916117b4565b03925af1801561069757610683575b50506100f961067e60646004350161160c565b611cc3565b61068c906113db565b61010e57803861066b565b6040513d84823e3d90fd5b505050fd5b82356001600160a01b03811681036106cb5782820155602092909201918801610530565b8880fd5b818752602087206106e891810190600485013501611947565b38610522565b634e487b7160e01b84526041600452602484fd5b8380fd5b8480fd5b9550505050929350506001600160401b0361072960246004350161160c565b1614610734575b5080f35b6001600160401b0361074a60246004350161160c565b168252816020526040822060405160208101916020835260a06040830152816101208101916001600160401b0381541660e0830152600190818101916040610100850152825480955261014084019289526020892090895b8681106108295750505060028101546001600160401b0390811660608501526003820154608085015260048201541660a08401526005015460c083015203601f19810183526107f291508261143a565b519020146107fd5780f35b6001600160401b0361081360246004350161160c565b168152601d602052610730604082203390611a49565b82546001600160a01b031685528795506020909401939181019181016107a2565b604051632d7f750360e21b8152600490fd5b60405163fae4eadb60e01b8152600490fd5b50806001600160401b0361088660246004350161160c565b1614156103a5565b5080fd5b503461010e57602036600319011261010e5760043560008051602061417583398151915260018154146101b3576001815581156109615760ff600d5460081c1661094f5733835260036020528160408420541061093d576102048392338452600360205260408420610905828254612057565b905561091381600254612057565b600255338452600360205260408420541561092f575b336131d3565b6109383361406d565b610929565b60405163569d45cf60e11b8152600490fd5b604051631b39f2f360e11b8152600490fd5b604051631036b5ad60e31b8152600490fd5b50602036600319011261010e57600435906001600160401b03821161010e573660238301121561010e576001600160401b0382600401351161010e576024368184600401358501011161088e57600160008051602061417583398151915254146101b3576001600080516020614175833981519152556109f16136a7565b600d5460ff8160081c1680918192610f25575b50610f13573415610f015760418460040135148015610eef57610a269061308e565b836004013560011161028157610a483660048601356000190160258701611476565b80516020909101206001600160a01b03163303610edd57610ccf5733600090815260106020526040902060029390840190610a918160040135610a8b8454611ace565b84611b9e565b83601f826004013511600114610c59578385918360040135610c4c575b5050816004013560011b91600019906004013560031b1c19161790555b610ad53433613288565b600f54600654811015610afc575b505090505b806000805160206141758339815191525580f35b61ffff601154166001600160401b0360075460401c1611610ae35761010061ff0019600d541617600d556040519360208501602086526001548091526040860160408260051b88010191600187527fb10e2d527612073b26eecdfd717e6a320cf44b4afac2b0732d9fcbe2b7fa0cf69187905b828210610c0157505050508585967f4914d88063275a25a13b2df37125e216745d812f94c56504be4bd78cf60c9593920390a1610bb960018060a01b036009541691548093611fd7565b92813b156107065784926040519485938492637903ab2760e11b845260048401525af1801561069757610bed575b80610ae3565b610bf6906113db565b61010e578038610be7565b9091929360206003610c3e6001938d603f1990820301865288548152848060a01b03858a0154168482015260609081604082015201898901611b08565b960192019201909291610b6f565b8301013590508338610aae565b828552602085208592916004830135601f19165b808510610cb25760019450836004013511610c93575b505060040135811b019055610acb565b8201850135600019600484013560031b60f8161c191690553880610c83565b838201870135835560209485019460019093019290910190610c6d565b610ce0368460040135838601611476565b926001600160401b0360175416604051610cf98161141f565b600281526020810195865233604082015281600052601860205260406000209581516003811015610ec85760ff80198954169116178755519586516001600160401b038111610eb357610d5c81610d536001850154611ace565b60018501611b9e565b6020601f8211600114610e3157908060029392600080516020614155833981519152999a600092610e26575b50508160011b916000199060031b1c19161760018201555b0190604060018060a01b03910151166001600160601b0360a01b8254161790556001600160401b03610dd182611620565b166001600160401b03196017541617601755610e0e604051938493600285523360208601526080604086015260808501918160040135910161172a565b9060608301520390a1610e21343361349d565b610ae8565b015190503880610d88565b6001830160005260206000209860005b601f1984168110610e9b57509160008051602061415583398151915298996001926002959483601f19811610610e82575b505050811b016001820155610da0565b015160001960f88460031b161c19169055388080610e72565b828201518b556001909a019960209283019201610e41565b85634e487b7160e01b60005260416004526000fd5b85634e487b7160e01b60005260216004526000fd5b604051634be9251d60e11b8152600490fd5b6040516318dca5e960e21b8152600490fd5b604051635a78c58160e11b8152600490fd5b6040516341f8b8eb60e11b8152600490fd5b60ff915060101c1638610a04565b503461010e578060031936011261010e57600190600080516020614175833981519152828154146101b357828155336000908152601a602052604090209283549061ffff908183169283156110ad57829060101c16918391808795818a01915b611027575b50505086611009937f197c586353eaed0a1c53e6e540445b94befab8f932c8115d112115ecbeeed514959363ffff000093899a54911693849260101b169063ffffffff19161717905515611010575b610ff181336131d3565b60408051338152602081019290925290918291820190565b0390a15580f35b336000908152601a60205260409020859055610fe7565b9091939483811696828810156110a4578760005260208091858252604060002060405161105381611404565b89825492838352015493849101524310611099578594938896889461107a86958a95611fd7565b9c60005252600082604082208281550155011696600019011694610f93565b985050509493610f98565b96509493610f98565b6040516364b0557f60e01b8152600490fd5b503461010e578060031936011261010e576110d86136a7565b61ffff6110ee8160145416826011541690611ff7565b1661114957600d805463ff0000001916630100000017905560095481906001600160a01b0316803b156101a15781906004604051809481936341c0e1b560e01b83525af1801561069757611140575080f35b6100f9906113db565b604051636b62255160e11b8152600490fd5b508060031936011261010e5761116f6136a7565b6100f96136c8565b503461010e57602036600319011261010e576100f961067e6114b2565b503461010e57602036600319011261010e576111ae6136a7565b6100f9600435613725565b503461010e576020908160031936011261010e576001600160401b03916004358381116102815736602382011215610281576111ff903690602481600401359101611476565b923383526012825261ffff604084205416156112fc578351156112ea57338352601e8252604083209184519182116106ee576112458261123f8554611ace565b85611b9e565b80601f8311600114611286575083948293949261127b575b50508160011b916000199060031b1c19161790555b610730336119e2565b01519050388061125d565b90601f198316958486528286209286905b8882106112d2575050836001959697106112b9575b505050811b019055611272565b015160001960f88460031b161c191690553880806112ac565b80600185968294968601518155019501930190611297565b604051637138356f60e01b8152600490fd5b604051633b4f6e2b60e21b8152336004820152602490fd5b90508160031936011261088e5734156113cc575060ff600d5460081c1661094f573381526003602052604081205415611373575b33815260036020526040812061135f348254611fd7565b905561136d34600254611fd7565b60025580f35b600454600160401b8110156113b8576113958160016113b3930160045561195e565b81546001600160a01b0360039290921b91821b19163390911b179055565b611348565b634e487b7160e01b82526041600452602482fd5b631036b5ad60e31b8152600490fd5b6001600160401b0381116113ee57604052565b634e487b7160e01b600052604160045260246000fd5b604081019081106001600160401b038211176113ee57604052565b606081019081106001600160401b038211176113ee57604052565b90601f801991011681019081106001600160401b038211176113ee57604052565b6001600160401b0381116113ee57601f01601f191660200190565b9291926114828261145b565b91611490604051938461143a565b8294818452818301116114ad578281602093846000960137010152565b600080fd5b600435906001600160401b03821682036114ad57565b35906001600160401b03821682036114ad57565b9181601f840112156114ad578235916001600160401b0383116114ad576020808501948460051b0101116114ad57565b6001600160401b0381116113ee5760051b60200190565b35906001600160a01b03821682036114ad57565b92916115428261150c565b91611550604051938461143a565b829481845260208094019160051b81019283116114ad57905b8282106115765750505050565b83809161158284611523565b815201910190611569565b9291909261159a8461150c565b916115a8604051938461143a565b829480845260208094019060051b8301928284116114ad5780915b8483106115d257505050505050565b82356001600160401b0381116114ad57820184601f820112156114ad5786916116018683858095359101611476565b8152019201916115c3565b356001600160401b03811681036114ad5790565b9060016001600160401b03809316019182116102b757565b9190916001600160401b03808094169116019182116102b757565b9035603e19823603018112156114ad570190565b6001600160401b039190604082018361167f836114c8565b16835260209182810135601e19823603018112156114ad57019282843594019484116114ad578360051b360385136114ad576040818401529083905260600192919060005b8281106116d2575050505090565b909192938280600192838060a01b036116ea89611523565b168152019501939291016116c4565b9035601e19823603018112156114ad5701602081359101916001600160401b0382116114ad5781360383136114ad57565b908060209392818452848401376000828201840152601f01601f1916010190565b61177461176961175b8380611653565b604085526040850190611667565b916020810190611653565b91602081830391015281359160ff83168093036114ad576117a16040916117b194845260208101906116f9565b919092816020820152019161172a565b90565b90918092808252602080920191808260051b86010194846000915b8483106117e0575050505050505090565b90919293949596601f198282030187526117fa8884611653565b90813560de19833603018112156114ad5782019160409081835261181e8480611653565b61183460e091828587015261012086019061174b565b926118418a870187611653565b6001600160401b03611876611864603f1997606094898b830301868c015261174b565b926080948a0135858a015289016114c8565b169160a092838801528701359263ffffffff60e01b84168094036114ad578b956118ac6118bc9460c096878b01528a018a6116f9565b929091898503019089015261172a565b9401356101008401520135908115158092036114ad5786015296840195840194939260010191906117cf565b906080806119076118f98580611653565b60a0855260a0850190611667565b936001600160401b038061191d602084016114c8565b16602086015260408201356040860152611939606083016114c8565b166060850152013591015290565b818110611952575050565b60008155600101611947565b6004548110156119955760046000527f8a35acfbc15ff81a39ae7d344fd709f28e8600b4aa8c65c6b64bfe7fe36bd19b0190600090565b634e487b7160e01b600052603260045260246000fd5b601f5481101561199557601f6000527fa03837a25210ee280c2113ff4b77ca23440b19d4866cca721c801278fd08d8070190600090565b6000818152602080526040812054611a4457601f54600160401b8110156113b8579082611a31611a1a84600160409601601f556119ab565b819391549060031b91821b91600019901b19161790565b9055601f54928152602080522055600190565b905090565b91906001830160009082825280602052604082205415600014611ac857845494600160401b861015611ab45760018601808255861015611aa057836040949596828552602085200155549382526020522055600190565b634e487b7160e01b83526032600452602483fd5b634e487b7160e01b83526041600452602483fd5b50925050565b90600182811c92168015611afe575b6020831014611ae857565b634e487b7160e01b600052602260045260246000fd5b91607f1691611add565b9060009291805491611b1983611ace565b918282526001938481169081600014611b7b5750600114611b3b575b50505050565b90919394506000526020928360002092846000945b838610611b67575050505001019038808080611b35565b805485870183015294019385908201611b50565b9294505050602093945060ff191683830152151560051b01019038808080611b35565b9190601f8111611bad57505050565b611bd9926000526020600020906020601f840160051c83019310611bdb575b601f0160051c0190611947565b565b9091508190611bcc565b90808214611cbf57611bf78154611ace565b906001600160401b0382116113ee578190611c1c82611c168654611ace565b86611b9e565b600090601f8311600114611c5357600092611c48575b50508160011b916000199060031b1c1916179055565b015490503880611c32565b81526020808220858352818320935090601f1985169083905b828210611ca6575050908460019594939210611c8d575b505050811b019055565b015460001960f88460031b161c19169055388080611c83565b8495819295850154815560018091019601940190611c6c565b5050565b6017546001600160401b0382811692908083168410611cee5760405163040aaa0560e11b8152600490fd5b808360401c168410611b355780604093841c165b848282161115611d6957505091602091611d3c7f246f00b61ce672242f33bb680a47147cd54d3dfd04dbb76956ba42f88087bf6394611620565b67ffffffffffffffff60401b60175491831b169067ffffffffffffffff60401b19161760175551908152a1565b611d86816001600160401b03166000526018602052604060002090565b60028181015482546001600160a01b03949293918516919060ff166003811015611fc2578695818603611e185750506001600160a01b039091166000908152601060205260409020611ddd91600101908401611be5565b611dfa816001600160401b03166000526018602052604060002090565b91600090818455600193611e0f858201612064565b01550116611d02565b919394955091885193611e3a85611e33816001809501611b08565b038661143a565b602080868051810103126114ad5781818c9701519514600014611f77578490611e6382856120ad565b601954611e709043611fd7565b92875190611e7d82611404565b8482528282018481526001600160a01b0387166000908152601a602052604090209091909283549161ffff9384848180961695869160101c1690611ec091611ff7565b169c60009d8e5282870188528d209251835551910155611edf90611fe4565b1661ffff198254161790558b519384528301528982015260607f083b080788e20bd0930c2bca2ae4fbc51a59ced08c1b5992271f8cb439498a6391a16009541690813b15610281578291602483928a5195869384926345f5448560e01b845260048401525af1908115611f6c57509084939291611f5d575b50611ddd565b611f66906113db565b38611f57565b8751903d90823e3d90fd5b505082935091611f87919261200d565b6009541690813b156114ad578651916316989f6f60e21b83528260048160009485945af1908115611f6c57509084939291611f5d5750611ddd565b60246000634e487b7160e01b81526021600452fd5b919082018092116102b757565b90600161ffff809316019182116102b757565b91909161ffff808094169116019182116102b757565b90611bd99161204f60018060a01b0382169283600052601060205261203781604060002054611fd7565b93600052601060205283604060002055600f54611fd7565b600f55612130565b919082039182116102b757565b61206e8154611ace565b9081612078575050565b81601f6000931160011461208a575055565b9080839182526120a9601f60208420940160051c840160018501611947565b5555565b906121116121199260018060a01b03811690600082815260106020526120d7856040832054612057565b9281526010602052604081206001810184815481159081612127575b501561211e5750908260029261210c9483555501612064565b61249d565b600f54612057565b600f55565b9250505561249d565b905015386120f3565b919060018060a01b03928381169360008581526020956012875261ffff916040978389832054166123815783600e541684601154161061234d5786612173612ace565b919091106122c75750828252601581528389832054166121e65750505050506121e17f19fe3ca603e87854a0747cc10abf06bac64d61bac73d6d15f2fd3ca448f1526493946121c1836127cb565b516001600160a01b03909216825260208201929092529081906040820190565b0390a1565b6121f586959994989796612fe5565b92825260109081815284832054935b6001808b831611156122915781617fff911c1690818552601683528b87862054168552838352858786205410156122445761223f9082613144565b612204565b505093516001600160a01b0390951685525050505060208101919091529092507fda148fac2e1063174be7bc0895576bdaba90fd14e575463fa26a967cb895cadd915080604081016121e1565b5050505050506121e191929395507fda148fac2e1063174be7bc0895576bdaba90fd14e575463fa26a967cb895cadd94506121c1565b9596506121e19450906015899493927ffaeb8de771b867cf357f6b459a7002b62ec45d544a8078a3ecd91200cc826d75999a93612302612c9d565b83525220541661233f575b61231684612c2b565b61231f836127cb565b516001600160a01b03928316815292909116602083015281906040820190565b612348846129b8565b61230d565b50505050506121e17f2e8038f5812f763c6ef0c5427cb5a05ce6d7064af2ba7d1d270bc02660b019fd93946121c183612c2b565b612392869598979699949399612fae565b98825260109081815284832054986123a98b612bba565b8560115416905b86811682811161246557828110156124485750806123d06123d692611fe4565b90612f5c565b9c909c5b8c11156123f9576123eb908d6130ab565b6123f48c612bba565b6123b0565b505094516001600160a01b0390961686525050505060208201929092529193507f143db27bc2036653dc6f962ff9d0b803163d4af50c256ca9e6927b3d6dcd01979250819050604081016121e1565b869d919d52601384528288872054168652848452878620546123da565b50505050505050506121e191929395507f143db27bc2036653dc6f962ff9d0b803163d4af50c256ca9e6927b3d6dcd019794506121c1565b9160018060a01b0392838116926000918483526020946015865261ffff9060409482868220541661268c57818152601288528286822054161561267b5784156125f6576124e984612fae565b918152601080895286822054925b60018086831611156125e55781617fff911c169081845260138b528b89852054168452828b52848985205411156125375761253290826130ab565b6124f7565b5050505050919395509193505b60145416156125e057612555612ace565b9061255e612b18565b9092106125a757505091516001600160a01b03909216825260208201527f143db27bc2036653dc6f962ff9d0b803163d4af50c256ca9e6927b3d6dcd01979080604081016121e1565b915091506121e17ffaeb8de771b867cf357f6b459a7002b62ec45d544a8078a3ecd91200cc826d75936125d8612c9d565b61230d612851565b505050565b505050505091939550919350612544565b5091612629919597507f4a4c5d1a281180eea1e99d8177fa4798b9f7e019d5c57e7d8d73c6a22199aa5b94969350612de6565b8451908152a16014541661263a5750565b6121e17f2e8038f5812f763c6ef0c5427cb5a05ce6d7064af2ba7d1d270bc02660b019fd91612667612b18565b929091612672612851565b6121c183612c2b565b8551632a55ca5360e01b8152600490fd5b90939596869893959815612792579261fffe9294936126aa87612fe5565b9483526010918282528a8420549580976001968792831b168160145416925b61271e575b50509a516001600160a01b039098168852505050506020840194909452509293507fda148fac2e1063174be7bc0895576bdaba90fd14e575463fa26a967cb895cadd9250905080604081016121e1565b81811683811161278c578e90808511156127705750508061274161274792611fe4565b90612bd1565b9990995b89101561276b5761275c908a613144565b61276589612bba565b876126c9565b6126ce565b885260168652872054841687528585528d87205490999061274b565b506126ce565b955050505090936127c47f3168ba660eed6ef1dc2258b2247cc05fd0f2f350d39e6ad2e2ebc76a8000b40b94956129b8565b51908152a1565b611bd990604061ffff6127e18160145416611fe4565b9260018060a01b031660009181835260156020528383209085169061ffff199082828254161790558184526016602052848420836001600160601b0360a01b825416179055601454161760145581526010602052205490612b62565b61ffff90811660001901919082116102b757565b61ffff806014541680156129a657600161286d8282111561308e565b6000818152601660208181526040808420805487865282862080546001600160a01b0392831680895260158752858920805461ffff199081168d17909155918416808a52868a20805484168c17905588885283546001600160a01b03199081169092179093558989528454169091179092559396919493929161290391896128f48361283d565b1690601454161760145561300a565b8483528581528184842054168352601091828252848420549686809960028160145416925b61293b575b505050505050505050505050565b8181168381116129a0578381101561298457508061274161295b92611fe4565b9b909b5b8b101561297f57612970908c613144565b6129798b612bba565b89612928565b61292d565b889c919c5283865284898920541688528686528888205461295f565b5061292d565b6040516340d9b01160e01b8152600490fd5b6129c190612fe5565b61ffff8060145416906129d48284613144565b806129de8361283d565b1661ffff1960145416176014556129f48261300a565b8083168092146125e057919061fffe906000818152601691602083815260018060a01b036040948186862054168552601093848452612a36878720548a612b62565b85528083528186862054168552838352858520549780996001988992831b168160145416925b612a6e57505050505050505050505050565b8181168381116129a05783811015612ab2575080612741612a8e92611fe4565b9b909b5b8b101561297f57612aa3908c613144565b612aac8b612bba565b89612a5c565b889c919c52838652848989205416885286865288882054612a92565b61ffff60115416156129a6577f4155c2f711f2cdd34f8262ab8fb9b7020a700fe7b6948222152f7670d1fdf34d546001600160a01b03166000818152601060205260409020549091565b61ffff60145416156129a6577f4c4dc693d7db52f85fe052106f4b4b920e78e8ef37dee82878a60ab8585faf49546001600160a01b03166000818152601060205260409020549091565b9190915b60018061ffff83161115612bb45781617fff911c169083600083815260209060168252601060409260018060a01b03848420541683525220541015612bb457612baf9082613144565b612b66565b50509050565b60011b906201fffe61fffe8316921682036102b757565b91909161ffff92604060008584168152601660205260018060a01b03808383205416825260106020528282205496841682526016602052828220541681526010602052205490818510612c245750509190565b9350919050565b611bd990604061ffff612c418160115416611fe4565b9260018060a01b031660009181835260126020528383209085169061ffff199082828254161790558184526013602052848420836001600160601b0360a01b825416179055601154161760115581526010602052205490612f0a565b61ffff806011541680156129a6576001612cb98282111561308e565b6000818152601360208181526040808420805487865282862080546001600160a01b0392831680895260128752858920805461ffff199081168d17909155918416808a52868a20805484168c17905588885283546001600160a01b031990811690921790935589895284541690911790925593969194939291612d4f9189612d408361283d565b1690601154161760115561304c565b8483528581528184842054168352601091828252848420549686809960028160115416925b612d8657505050505050505050505050565b8181168381116129a05783811015612dca5750806123d0612da692611fe4565b9b909b5b8b111561297f57612dbb908c6130ab565b612dc48b612bba565b89612d74565b889c919c52838652848989205416885286865288882054612daa565b612def90612fae565b9061ffff90816011541691612e0483856130ab565b80612e0e8461283d565b1661ffff196011541617601155612e248361304c565b808416809314612f045760009280845260139360209185835260018060a01b03926040938085852054168452601092838352612e63868620548b612f0a565b845287825280858520541684528282528484205497612e818a612bba565b8760115416905b888116828111612ef55782811015612ed95750806123d0612ea892611fe4565b9b909b5b8b1115612ecb57612ebd908c6130ab565b612ec68b612bba565b612e88565b505050505050505050915050565b879c919c52828552838888205416875285855287872054612eac565b50505050505050505050915050565b50915050565b9190915b60018061ffff83161115612bb45781617fff911c169083600083815260209060138252601060409260018060a01b03848420541683525220541115612bb457612f5790826130ab565b612f0e565b919061ffff604060008286168152601360205260018060a01b0380838320541682526010602052828220549385168252601360205282822054168152601060205220549384821115612c245750509190565b6001600160a01b031660009081526012602052604090205461ffff16908115612fd357565b60405163f2755e3760e01b8152600490fd5b6001600160a01b031660009081526015602052604090205461ffff16908115612fd357565b61ffff16600090815260166020908152604080832080546001600160a01b031981169091556001600160a01b0316835260159091529020805461ffff19169055565b61ffff16600090815260136020908152604080832080546001600160a01b031981169091556001600160a01b0316835260129091529020805461ffff19169055565b1561309557565b634e487b7160e01b600052600160045260246000fd5b6130d061ffff8080601154169316936130c68486111561308e565b169182111561308e565b6000828152601360208181526040808420805486865282862080546001600160a01b0392831680895260128752858920805461ffff19908116909b1790559216808852938720805490981689179097559390925284546001600160a01b031990811690931790945593909152825416179055565b61315f61ffff8080601454169316936130c68486111561308e565b6000828152601660208181526040808420805486865282862080546001600160a01b0392831680895260158752858920805461ffff19908116909b1790559216808852938720805490981689179097559390925284546001600160a01b031990811690931790945593909152825416179055565b814710613235576000918291829182916001600160a01b03165af13d15613230573d6131fe8161145b565b9061320c604051928361143a565b8152600060203d92013e5b1561321e57565b604051630a12f52160e11b8152600490fd5b613217565b60405163cd78605960e01b8152306004820152602490fd5b600154811015611995576003906001600052027fb10e2d527612073b26eecdfd717e6a320cf44b4afac2b0732d9fcbe2b7fa0cf60190600090565b9061329d906132978184613476565b8261200d565b60ff600d5460081c16156132ae5750565b60018054600082815b838110613445575b5050156132cb57505050565b6001600160a01b0383166000908152601060205260409020805461331f949091600201604051926132fb8461141f565b83526020936133268585019260018060a01b03809516845260405198898092611b08565b038861143a565b60408401968752600160401b8110156113ee5780866133479201875561324d565b92909261342f576002935183558583019151166001600160601b0360a01b825416179055019251908151916001600160401b0383116113ee576133948361338e8754611ace565b87611b9e565b81601f84116001146133cd57509282939183926000946133c2575b50501b916000199060031b1c1916179055565b0151925038806133af565b919083601f1981168760005284600020946000905b8883831061341557505050106133fc57505050811b019055565b015160001960f88460031b161c19169055388080611c83565b8587015188559096019594850194879350908101906133e2565b634e487b7160e01b600052600060045260246000fd5b8161344f8261324d565b5001546001600160a01b0387811691161461346c570183906132b7565b50905082386132bf565b60018060a01b031660005260106020526134996001604060002001918254611fd7565b9055565b91906040928351602083818301528082526134b782611404565b6001600160401b038060175416918751976134d18961141f565b600092838a52828a0199868b528281019060018060a01b0390818a169c8d845288885260188752858820915160038110156136935760ff80198454169116178255600180830191519081519187831161367f5761353283611c168654611ace565b89908b601f85116001146136115793600295938193829360809d9c9b9a999794613606575b50501b916000199060031b1c19161790555b019151166001600160601b0360a01b82541617905561358786611620565b166001600160401b03196017541617601755805199848b52838b01528901528351938460808a0152825b8581106135f2575050508683819360a0938460008051602061415583398151915297611bd99b9c0101526060830152601f80199101168101030190a1613476565b8181018301518a820160a0015282016135b1565b015192503880613557565b50848c528a8c209293929190601f1984168d5b8d82821061366b5750509160809b9a99989795939185600298969410613652575b505050811b019055613569565b015160001960f88460031b161c19169055388080613645565b838501518655948701949384019301613624565b634e487b7160e01b8b52604160045260248bfd5b634e487b7160e01b89526021600452602489fd5b60ff600d5460181c166136b657565b60405163248c8efb60e11b8152600490fd5b600d5460ff8160101c16610f13573415610f015733600090815260106020526040902060010154156137135760081c60ff161561370957611bd9343361349d565b611bd93433613288565b60405163528fc16560e01b8152600490fd5b600d5460ff8160101c16610f13578115613797573360009081526010602052604090206001015480156112fc578210156137865760081c60ff161561376e57611bd990336137fc565b8061377c611bd992336137a9565b61092981336120ad565b60405162d11df360e61b8152600490fd5b60405163c79cad7b60e01b8152600490fd5b6001600160a01b031660008181526010602052604090206001015490918082106137ea576137d691612057565b906000526010602052600160406000200155565b60405163ac69360360e01b8152600490fd5b9190604051928160208501526020845261381584611404565b6001600160401b03806017541690604051916138308361141f565b60018352602083019187835260018060a01b0393848616604082015260009383855260186020526040852090825160038110156139fd5760ff801984541691161782555180518481116139e9579082916001899401916138948261123f8554611ace565b602090601f831160011461397c57918060029492604096948c92613971575b50508160011b916000199060031b1c19161790555b01920151166001600160601b0360a01b8254161790556138e782611620565b166001600160401b0319601754161760175560405192600184528416602084015260806040840152865191826080850152805b83811061395b5750611bd9969750928260a09260008051602061415583398151915295848496850101526060830152601f80199101168101030190a16137a9565b80602080928b01015160a082880101520161391a565b0151905038806138b3565b838a5260208a209190601f1984168b5b8181106139ce57509260019285926040989660029896106139b5575b505050811b0190556138c8565b015160001960f88460031b161c191690553880806139a8565b8284015185558d98506001909401936020938401930161398c565b634e487b7160e01b87526041600452602487fd5b634e487b7160e01b87526021600452602487fd5b600d5460ff8160081c169081613b06575b50610f13573360009081526010602052604090206001015480156112fc57613a4933613b14565b50600090338252601e6020528160408120613a648154611ace565b80613ac9575b50505060ff600d5460081c1615613a8657611bd99150336137fc565b6040611bd9923381526003602052205480613aa7575b5061377c81336137a9565b80613ab7613ac392600254612057565b6002556109293361406d565b38613a9c565b82601f8211600114613ae1575050555b813880613a6a565b9091808252613aff601f60208420940160051c840160018501611947565b5555613ad9565b60ff915060101c1638613a22565b600081815260208080526040822054919290918015613bf55760001990808201818111613be157601f5490838201918211613bcd57808203613b9b575b505050601f548015613b8757810190613b69826119ab565b909182549160031b1b19169055601f55825280526040812055600190565b634e487b7160e01b85526031600452602485fd5b613bb9613baa611a1a936119ab565b90549060031b1c9283926119ab565b905585528380526040852055388080613b51565b634e487b7160e01b87526011600452602487fd5b634e487b7160e01b86526011600452602486fd5b50505090565b80518210156119955760209160051b010190565b8115611cbf576001600160401b0390818060075416911603908082116102b757600091168152602090601d8252604090818120928251808583829754938481520190855283852092855b85828210613cd157505050613c709250038561143a565b8351948515613cc957858110613cc95785900493825b868110613c965750505050505050565b6001906001600160a01b03613cab8285613bfb565b51168552601c8452858520613cc1888254611fd7565b905501613c86565b505050505050565b855484526001958601958a955093019201613c59565b91825191613cf48361150c565b93604094613d048651918261143a565b848152601f19613d138661150c565b0194602095368784013760005b818110613e0557505060009461ffff8060115416600192839182945b613daf575b505050505060ff60095460a01c16948581029581870414901517156102b7576064613d6d950491613e92565b9015613d77575050565b6007811015613d995760ff602492519163282ef1c160e01b8352166004820152fd5b634e487b7160e01b600052602160045260246000fd5b90919293988a858b16838111613dfd57600090815260138552908120546001600160a01b031681526010602052604090208493929186918591613df3915490611fd7565b9b01169493613d3c565b505098613d41565b6001600160a01b0380613e188387613bfb565b51166000526012885261ffff89600020541615613e6e5790613e5c600192613e408388613bfb565b51166001600160a01b0316600090815260106020526040902090565b54613e678286613bfb565b5201613d20565b8890613e7c60249387613bfb565b519151633b4f6e2b60e21b815291166004820152fd5b84519294600094908415613f945782518514801590613f89575b613f7c579392919085945b848610613eda575050505050501015613ed257600090600690565b600190600090565b909192939495613ef4613eed8884613bfb565b5184613fa1565b509060049182811015613f6757613f55576001600160a01b0380613f188b89613bfb565b5116911603613f455750613f39600191613f328988613bfb565b5190611fd7565b96019493929190613eb7565b9897505050505050505060009190565b50505050505050505050600090600590565b602183634e487b7160e01b6000525260246000fd5b5050505050905090600190565b508351851415613eac565b5050505050905090600290565b8151919060418303613fd257613fcb92506020820151906060604084015193015160001a90613fdd565b9192909190565b505060009160029190565b91907f7fffffffffffffffffffffffffffffff5d576e7357a4501ddfe92f46681b20a0841161406157926020929160ff608095604051948552168484015260408301526060820152600092839182805260015afa156140555780516001600160a01b0381161561404c57918190565b50809160019190565b604051903d90823e3d90fd5b50505060009160039190565b60049081549160005b8381106140835750505050565b61408c8161195e565b90546003916001600160a01b039190831b1c8116858216146140b2575050600101614076565b92935093906000199182810190811161413f57906140e3846140d66141029461195e565b905490891b1c169161195e565b90919082549060031b9160018060a01b03809116831b921b1916179055565b8254801561412a5701926141158461195e565b81939154921b1b191690555538808080611b35565b603184634e487b7160e01b6000525260246000fd5b601185634e487b7160e01b6000525260246000fdfe1c593a2b803c3f9038e8b6743ba79fbc4276d2770979a01d2768ed12bea3243f691bb03ffc16c56fc96b82fd16cd1b3715f0bc3cdc6407005f49bb6205860095a2646970667358221220e1a721ce6198f35fde5cfe7cdd744141234624aac93244695071816e5830b24564736f6c63430008130033","linkReferences":{"src/lib/LibStaking.sol":{"LibStaking":[{"start":350,"length":20}]}}},"methodIdentifiers":{"addBootstrapNode(string)":"10fd4261","claim()":"4e71d92d","claimRewardForRelayer()":"ed7c4da1","confirmChange(uint64)":"350a14bf","confirmNextChange()":"c7ebdaef","distributeRewardToRelayers(uint64,uint256)":"f9002bb1","join(bytes)":"6170b162","kill()":"41c0e1b5","leave()":"d66d9e19","preFund()":"0b7fbe60","preRelease(uint256)":"66783c9b","stake()":"3a4b66f1","submitCheckpoint(((uint64,address[]),uint64,bytes32,uint64,bytes32),((((uint64,address[]),(uint8,bytes)),((uint64,address[]),(uint8,bytes)),uint256,uint64,bytes4,bytes,uint256),bool)[],address[],bytes[])":"a8284de3","unstake(uint256)":"2e17de78","validateActiveQuorumSignatures(address[],bytes32,bytes[])":"cc2dc2b9"},"id":84}