{
  "abi": [
    {
      "inputs": [
        {
          "internalType": "address",
          "name": "account",
          "type": "address"
        }
      ],
      "name": "AddressInsufficientBalance",
      "type": "error"
    },
    {
      "inputs": [],
      "name": "AddressShouldBeValidator",
      "type": "error"
    },
    {
      "inputs": [],
      "name": "CannotConfirmFutureChanges",
      "type": "error"
    },
    {
      "inputs": [],
      "name": "CannotReleaseZero",
      "type": "error"
    },
    {
      "inputs": [],
      "name": "CollateralIsZero",
      "type": "error"
    },
    {
      "inputs": [],
      "name": "EmptyAddress",
      "type": "error"
    },
    {
      "inputs": [],
      "name": "FailedInnerCall",
      "type": "error"
    },
    {
      "inputs": [],
      "name": "InvalidCheckpointEpoch",
      "type": "error"
    },
    {
      "inputs": [],
      "name": "InvalidCheckpointMessagesHash",
      "type": "error"
    },
    {
      "inputs": [],
      "name": "InvalidFederationPayload",
      "type": "error"
    },
    {
      "inputs": [],
      "name": "InvalidPublicKeyLength",
      "type": "error"
    },
    {
      "inputs": [
        {
          "internalType": "uint8",
          "name": "",
          "type": "uint8"
        }
      ],
      "name": "InvalidSignatureErr",
      "type": "error"
    },
    {
      "inputs": [],
      "name": "MethodNotAllowed",
      "type": "error"
    },
    {
      "inputs": [],
      "name": "NoCollateralToWithdraw",
      "type": "error"
    },
    {
      "inputs": [],
      "name": "NotAllValidatorsHaveLeft",
      "type": "error"
    },
    {
      "inputs": [],
      "name": "NotEnoughBalance",
      "type": "error"
    },
    {
      "inputs": [],
      "name": "NotEnoughCollateral",
      "type": "error"
    },
    {
      "inputs": [],
      "name": "NotEnoughFunds",
      "type": "error"
    },
    {
      "inputs": [],
      "name": "NotGateway",
      "type": "error"
    },
    {
      "inputs": [],
      "name": "NotOwner",
      "type": "error"
    },
    {
      "inputs": [],
      "name": "NotOwnerOfPublicKey",
      "type": "error"
    },
    {
      "inputs": [],
      "name": "NotStakedBefore",
      "type": "error"
    },
    {
      "inputs": [
        {
          "internalType": "address",
          "name": "",
          "type": "address"
        }
      ],
      "name": "NotValidator",
      "type": "error"
    },
    {
      "inputs": [],
      "name": "PQDoesNotContainAddress",
      "type": "error"
    },
    {
      "inputs": [],
      "name": "PQEmpty",
      "type": "error"
    },
    {
      "inputs": [],
      "name": "ReentrancyError",
      "type": "error"
    },
    {
      "inputs": [],
      "name": "SubnetAlreadyBootstrapped",
      "type": "error"
    },
    {
      "inputs": [],
      "name": "SubnetAlreadyKilled",
      "type": "error"
    },
    {
      "inputs": [],
      "name": "WithdrawExceedingCollateral",
      "type": "error"
    },
    {
      "anonymous": false,
      "inputs": [
        {
          "indexed": false,
          "internalType": "uint64",
          "name": "epoch",
          "type": "uint64"
        },
        {
          "indexed": false,
          "internalType": "address",
          "name": "submitter",
          "type": "address"
        }
      ],
      "name": "BottomUpCheckpointExecuted",
      "type": "event"
    },
    {
      "anonymous": false,
      "inputs": [
        {
          "components": [
            {
              "components": [
                {
                  "internalType": "uint64",
                  "name": "root",
                  "type": "uint64"
                },
                {
                  "internalType": "address[]",
                  "name": "route",
                  "type": "address[]"
                }
              ],
              "internalType": "struct SubnetID",
              "name": "subnetID",
              "type": "tuple"
            },
            {
              "internalType": "uint64",
              "name": "blockHeight",
              "type": "uint64"
            },
            {
              "internalType": "bytes32",
              "name": "blockHash",
              "type": "bytes32"
            },
            {
              "internalType": "uint64",
              "name": "nextConfigurationNumber",
              "type": "uint64"
            },
            {
              "internalType": "bytes32",
              "name": "crossMessagesHash",
              "type": "bytes32"
            }
          ],
          "indexed": false,
          "internalType": "struct BottomUpCheckpoint",
          "name": "checkpoint",
          "type": "tuple"
        },
        {
          "indexed": false,
          "internalType": "address",
          "name": "submitter",
          "type": "address"
        }
      ],
      "name": "BottomUpCheckpointSubmitted",
      "type": "event"
    },
    {
      "anonymous": false,
      "inputs": [
        {
          "indexed": false,
          "internalType": "uint64",
          "name": "epoch",
          "type": "uint64"
        },
        {
          "indexed": false,
          "internalType": "address",
          "name": "submitter",
          "type": "address"
        }
      ],
      "name": "NextBottomUpCheckpointExecuted",
      "type": "event"
    },
    {
      "anonymous": false,
      "inputs": [
        {
          "components": [
            {
              "internalType": "uint256",
              "name": "weight",
              "type": "uint256"
            },
            {
              "internalType": "address",
              "name": "addr",
              "type": "address"
            },
            {
              "internalType": "bytes",
              "name": "metadata",
              "type": "bytes"
            }
          ],
          "indexed": false,
          "internalType": "struct Validator[]",
          "name": "",
          "type": "tuple[]"
        }
      ],
      "name": "SubnetBootstrapped",
      "type": "event"
    },
    {
      "inputs": [
        {
          "internalType": "string",
          "name": "netAddress",
          "type": "string"
        }
      ],
      "name": "addBootstrapNode",
      "outputs": [],
      "stateMutability": "nonpayable",
      "type": "function"
    },
    {
      "inputs": [],
      "name": "claim",
      "outputs": [],
      "stateMutability": "nonpayable",
      "type": "function"
    },
    {
      "inputs": [],
      "name": "claimRewardForRelayer",
      "outputs": [],
      "stateMutability": "nonpayable",
      "type": "function"
    },
    {
      "inputs": [
        {
          "internalType": "uint64",
          "name": "_configurationNumber",
          "type": "uint64"
        }
      ],
      "name": "confirmChange",
      "outputs": [],
      "stateMutability": "nonpayable",
      "type": "function"
    },
    {
      "inputs": [],
      "name": "confirmNextChange",
      "outputs": [],
      "stateMutability": "nonpayable",
      "type": "function"
    },
    {
      "inputs": [
        {
          "internalType": "uint64",
          "name": "height",
          "type": "uint64"
        },
        {
          "internalType": "uint256",
          "name": "reward",
          "type": "uint256"
        }
      ],
      "name": "distributeRewardToRelayers",
      "outputs": [],
      "stateMutability": "payable",
      "type": "function"
    },
    {
      "inputs": [
        {
          "internalType": "bytes",
          "name": "publicKey",
          "type": "bytes"
        }
      ],
      "name": "join",
      "outputs": [],
      "stateMutability": "payable",
      "type": "function"
    },
    {
      "inputs": [],
      "name": "kill",
      "outputs": [],
      "stateMutability": "nonpayable",
      "type": "function"
    },
    {
      "inputs": [],
      "name": "leave",
      "outputs": [],
      "stateMutability": "nonpayable",
      "type": "function"
    },
    {
      "inputs": [],
      "name": "preFund",
      "outputs": [],
      "stateMutability": "payable",
      "type": "function"
    },
    {
      "inputs": [
        {
          "internalType": "uint256",
          "name": "amount",
          "type": "uint256"
        }
      ],
      "name": "preRelease",
      "outputs": [],
      "stateMutability": "nonpayable",
      "type": "function"
    },
    {
      "inputs": [
        {
          "internalType": "address[]",
          "name": "validators",
          "type": "address[]"
        },
        {
          "internalType": "bytes[]",
          "name": "publicKeys",
          "type": "bytes[]"
        },
        {
          "internalType": "uint256[]",
          "name": "powers",
          "type": "uint256[]"
        }
      ],
      "name": "setFederatedPowers",
      "outputs": [],
      "stateMutability": "nonpayable",
      "type": "function"
    },
    {
      "inputs": [],
      "name": "stake",
      "outputs": [],
      "stateMutability": "payable",
      "type": "function"
    },
    {
      "inputs": [
        {
          "components": [
            {
              "components": [
                {
                  "internalType": "uint64",
                  "name": "root",
                  "type": "uint64"
                },
                {
                  "internalType": "address[]",
                  "name": "route",
                  "type": "address[]"
                }
              ],
              "internalType": "struct SubnetID",
              "name": "subnetID",
              "type": "tuple"
            },
            {
              "internalType": "uint64",
              "name": "blockHeight",
              "type": "uint64"
            },
            {
              "internalType": "bytes32",
              "name": "blockHash",
              "type": "bytes32"
            },
            {
              "internalType": "uint64",
              "name": "nextConfigurationNumber",
              "type": "uint64"
            },
            {
              "internalType": "bytes32",
              "name": "crossMessagesHash",
              "type": "bytes32"
            }
          ],
          "internalType": "struct BottomUpCheckpoint",
          "name": "checkpoint",
          "type": "tuple"
        },
        {
          "components": [
            {
              "components": [
                {
                  "components": [
                    {
                      "components": [
                        {
                          "internalType": "uint64",
                          "name": "root",
                          "type": "uint64"
                        },
                        {
                          "internalType": "address[]",
                          "name": "route",
                          "type": "address[]"
                        }
                      ],
                      "internalType": "struct SubnetID",
                      "name": "subnetId",
                      "type": "tuple"
                    },
                    {
                      "components": [
                        {
                          "internalType": "uint8",
                          "name": "addrType",
                          "type": "uint8"
                        },
                        {
                          "internalType": "bytes",
                          "name": "payload",
                          "type": "bytes"
                        }
                      ],
                      "internalType": "struct FvmAddress",
                      "name": "rawAddress",
                      "type": "tuple"
                    }
                  ],
                  "internalType": "struct IPCAddress",
                  "name": "from",
                  "type": "tuple"
                },
                {
                  "components": [
                    {
                      "components": [
                        {
                          "internalType": "uint64",
                          "name": "root",
                          "type": "uint64"
                        },
                        {
                          "internalType": "address[]",
                          "name": "route",
                          "type": "address[]"
                        }
                      ],
                      "internalType": "struct SubnetID",
                      "name": "subnetId",
                      "type": "tuple"
                    },
                    {
                      "components": [
                        {
                          "internalType": "uint8",
                          "name": "addrType",
                          "type": "uint8"
                        },
                        {
                          "internalType": "bytes",
                          "name": "payload",
                          "type": "bytes"
                        }
                      ],
                      "internalType": "struct FvmAddress",
                      "name": "rawAddress",
                      "type": "tuple"
                    }
                  ],
                  "internalType": "struct IPCAddress",
                  "name": "to",
                  "type": "tuple"
                },
                {
                  "internalType": "uint256",
                  "name": "value",
                  "type": "uint256"
                },
                {
                  "internalType": "uint64",
                  "name": "nonce",
                  "type": "uint64"
                },
                {
                  "internalType": "bytes4",
                  "name": "method",
                  "type": "bytes4"
                },
                {
                  "internalType": "bytes",
                  "name": "params",
                  "type": "bytes"
                },
                {
                  "internalType": "uint256",
                  "name": "fee",
                  "type": "uint256"
                }
              ],
              "internalType": "struct StorableMsg",
              "name": "message",
              "type": "tuple"
            },
            {
              "internalType": "bool",
              "name": "wrapped",
              "type": "bool"
            }
          ],
          "internalType": "struct CrossMsg[]",
          "name": "messages",
          "type": "tuple[]"
        },
        {
          "internalType": "address[]",
          "name": "signatories",
          "type": "address[]"
        },
        {
          "internalType": "bytes[]",
          "name": "signatures",
          "type": "bytes[]"
        }
      ],
      "name": "submitCheckpoint",
      "outputs": [],
      "stateMutability": "nonpayable",
      "type": "function"
    },
    {
      "inputs": [
        {
          "internalType": "uint256",
          "name": "amount",
          "type": "uint256"
        }
      ],
      "name": "unstake",
      "outputs": [],
      "stateMutability": "nonpayable",
      "type": "function"
    },
    {
      "inputs": [
        {
          "internalType": "address[]",
          "name": "signatories",
          "type": "address[]"
        },
        {
          "internalType": "bytes32",
          "name": "hash",
          "type": "bytes32"
        },
        {
          "internalType": "bytes[]",
          "name": "signatures",
          "type": "bytes[]"
        }
      ],
      "name": "validateActiveQuorumSignatures",
      "outputs": [],
      "stateMutability": "view",
      "type": "function"
    }
  ],
  "bytecode": {
    "object": "0x60808060405234610016576147c5908161001c8239f35b600080fdfe608080604052600436101561001357600080fd5b600090813560e01c9081630b7fbe601461169a5750806310fd42611461153f5780632af05ff6146111715780632e17de781461114c578063350a14bf1461112f5780633a4b66f11461111357806341c0e1b5146110795780634e71d92d14610eed5780636170b1621461097457806366783c9b14610893578063a8284de3146102d8578063c7ebdaef14610290578063cc2dc2b914610213578063d66d9e19146101d0578063ed7c4da11461011c5763f9002bb1146100d157600080fd5b6040366003190112610119576100e5611868565b6009546001600160a01b03163303610107576101049060243590614221565b80f35b60405163e7e601db60e01b8152600490fd5b80fd5b503461011957806003193601126101195760008051602061477083398151915260018154146101be5780600183925573__$4a8700ca5e162cb61a0c4650a4871f1ad5$__803b156101ba5782602491604051928380926382985e0b60e01b82523360048301525af49081156101af578391610198575b50505580f35b6101a190611761565b6101ac578138610192565b50fd5b6040513d85823e3d90fd5b5050fd5b6040516329f745a760e01b8152600490fd5b503461011957806003193601126101195760008051602061477083398151915260018154146101be5780600183925561020761385e565b61020f61402c565b5580f35b5034610119576060366003190112610119576001600160401b0360043581811161028c573660238201121561028c576102569036906024816004013591016118bd565b60443591821161028c573660238301121561028c57610282610104923690602481600401359101611913565b90602435906142f1565b8280fd5b50346101195780600319360112610119576001600160401b036000198160175416019081116102c257610104906120a0565b634e487b7160e01b600052601160045260246000fd5b5034610119576080366003190112610119576001600160401b03600435116101195760a060043536036003190112610119576024356001600160401b03811161088f57610329903690600401611838565b91906044356001600160401b03811161028c5761034a903690600401611838565b6064356001600160401b03811161070757610369903690600401611838565b92610378602460043501611992565b926001600160401b03600554166001600160401b0360075416946001600160401b03806103a588856119be565b16911614158061086f575b61085d576040516020810190602082526103e1816103d38d60408301908d611b3a565b03601f1981018352826117c0565b519020608460043501350361084b5760405160208082015261040f816103d360408201600435600401611c6e565b60208151910120946001600160401b0380610438610431602460043501611992565b93856119be565b1691161460001461070b5750916104596104619261046796959436916118bd565b933691611913565b916142f1565b6001600160401b0361047d602460043501611992565b1682528160205260408220926004356004013560421960043536030181121561070357600435016001600160401b036104b860048301611992565b166001600160401b0319865416178555602481013590602219813603018212156107075701936001600160401b0360048601351161070357600485013560051b3603602486011361070357600160401b6004860135116106ef57600194858201805460048301358255806004840135106106d0575b506024820190865260208620865b600484013581106106b25750505050839450600281016001600160401b03610567602460043501611992565b166001600160401b03198254161790556044600435013560038201556001600160401b03610599606460043501611992565b1660048201906001600160401b03198254161790556005608460043501359101556001600160401b036105d0602460043501611992565b168352601d6020526105e6604084203390611de3565b506001600160401b036105fd602460043501611992565b166001600160401b0319600554161760055560018060a01b036009541691823b156106ad5761066792849283604051809681958294637a2b59cf60e11b84526040600485015261065560448501600435600401611c6e565b84810360031901602486015291611b3a565b03925af180156106a25761068e575b5050610104610689606460043501611992565b6120a0565b61069790611761565b610119578038610676565b6040513d84823e3d90fd5b505050fd5b8860049160206106c186611ce4565b9501948185015501905061053b565b818752602087206106e991810190600485013501611ccd565b3861052d565b634e487b7160e01b84526041600452602484fd5b8380fd5b8480fd5b9550505050929350506001600160401b0361072a602460043501611992565b1614610735575b5080f35b6001600160401b0361074b602460043501611992565b168252816020526040822060405160208101916020835260a06040830152816101208101916001600160401b0381541660e0830152600190818101916040610100850152825480955261014084019289526020892090895b86811061082a5750505060028101546001600160401b0390811660608501526003820154608085015260048201541660a08401526005015460c083015203601f19810183526107f39150826117c0565b519020146107fe5780f35b6001600160401b03610814602460043501611992565b168152601d602052610731604082203390611de3565b82546001600160a01b031685528795506020909401939181019181016107a3565b604051632d7f750360e21b8152600490fd5b60405163fae4eadb60e01b8152600490fd5b50806001600160401b03610887602460043501611992565b1614156103b0565b5080fd5b50346101195760203660031901126101195760043560008051602061477083398151915260018154146101be576001815581156109625760ff600d5460081c166109505733835260036020528160408420541061093e5761020f839233845260036020526040842061090682825461261a565b90556109148160025461261a565b6002553384526003602052604084205415610930575b33613793565b61093933614668565b61092a565b60405163569d45cf60e11b8152600490fd5b604051631b39f2f360e11b8152600490fd5b604051631036b5ad60e31b8152600490fd5b50602036600319011261011957600435906001600160401b0382116101195736602383011215610119576001600160401b03826004013511610119576024368184600401358501011161088f57600160008051602061477083398151915254146101be576001600080516020614770833981519152556109f261385e565b60ff600d5460081c1680610ee0575b3415610ece576041846004013503610ebc57610a23846004013583860161462c565b336001600160a01b0390911603610eaa57610ca85733600090815260106020526040902060039390840190610a668160040135610a608454611e88565b84611f7b565b83601f826004013511600114610c33578385918360040135610c26575b5050816004013560011b916000199060040135871b1c19161790555b610aa934336138ba565b600f54600654811015610ad0575b505090505b806000805160206147708339815191525580f35b61ffff601154166001600160401b0360075460401c1611610ab75761010061ff0019600d541617600d5560405193602085019060208652600154809252604086019160408160051b88010192600187527fb10e2d527612073b26eecdfd717e6a320cf44b4afac2b0732d9fcbe2b7fa0cf69287915b838310610bd95750505050508484957f4914d88063275a25a13b2df37125e216745d812f94c56504be4bd78cf60c9593920390a160018060a01b0360095416610b916002548093612550565b92813b156107075784926040519485938492637903ab2760e11b845260048401525af180156106a257610bc5575b80610ab7565b610bce90611761565b610119578038610bbf565b9091929394602083610c176001938d603f1990820301865289548152848060a01b03858b015416848201526060908160408201520160028a01611ec2565b97019201930191909392610b45565b8301013590508338610a83565b828552602085208592916004830135601f19165b808510610c8b5760019450836004013511610c6d575b505060040135811b019055610a9f565b82018501356000196004840135891b60f8161c191690553880610c5d565b838201870135835560209485019460019093019290910190610c47565b610cb93684600401358386016117fc565b926001600160401b0360175416604051610cd2816117a5565b60028152602081019586523360408201528160005260186020526040600020958151610cfd81611e68565b610d0681611e68565b60ff80198954169116178755519586516001600160401b038111610e9557610d3e81610d356001850154611e88565b60018501611f7b565b6020601f8211600114610e1357908060029392600080516020614750833981519152999a600092610e08575b50508160011b916000199060031b1c19161760018201555b0190604060018060a01b03910151166001600160601b0360a01b8254161790556001600160401b03610db3826119a6565b166001600160401b03196017541617601755610df06040519384936002855233602086015260806040860152608085019181600401359101611ab0565b9060608301520390a1610e033433613acb565b610abc565b015190503880610d6a565b6001830160005260206000209860005b601f1984168110610e7d57509160008051602061475083398151915298996001926002959483601f19811610610e64575b505050811b016001820155610d82565b015160001960f88460031b161c19169055388080610e54565b828201518b556001909a019960209283019201610e23565b85634e487b7160e01b60005260416004526000fd5b604051634be9251d60e11b8152600490fd5b6040516318dca5e960e21b8152600490fd5b604051635a78c58160e11b8152600490fd5b610ee8613cda565b610a01565b5034610119578060031936011261011957600190600080516020614770833981519152828154146101be57828155336000908152601a602052604090209283549061ffff9081831692831561106757829060101c16918391808795818a01915b610fe1575b50505086610fc3937f197c586353eaed0a1c53e6e540445b94befab8f932c8115d112115ecbeeed514959363ffff000093899a54911693849260101b169063ffffffff19161717905515610fca575b610fab8133613793565b60408051338152602081019290925290918291820190565b0390a15580f35b336000908152601a60205260409020859055610fa1565b90919394838116968288101561105e578760005260208091858252604060002060405161100d8161178a565b89825492838352015493849101524310611053578594938896889461103486958a95612550565b9c60005252600082604082208281550155011696600019011694610f4d565b985050509493610f52565b96509493610f52565b6040516364b0557f60e01b8152600490fd5b503461011957806003193601126101195761109261385e565b61ffff6110a88160145416826011541690612570565b1661110157600d805462ff000019166201000017905560095481906001600160a01b0316803b156101ac5781906004604051809481936341c0e1b560e01b83525af180156106a2576110f8575080f35b61010490611761565b604051636b62255160e11b8152600490fd5b50806003193601126101195761112761385e565b610104613cef565b503461011957602036600319011261011957610104610689611868565b50346101195760203660031901126101195761116661385e565b610104600435613d49565b5034610119576060366003190112610119576004356001600160401b03811161088f576111a2903690600401611838565b6024356001600160401b038111610703576111c1903690600401611838565b926044356001600160401b03811161153b576111e1903690600401611838565b90936111eb61385e565b7f806e0cbb9fce296bbc336a48f42bf1dbc69722d18d90d6fe705b7582c2bb4bd5546001600160a01b031633036115295760ff600e5416600281101561151557600103611503578181036114f1578581036114f157865b81811061124d578780f35b61126161125b82898861380d565b9061462c565b6001600160a01b0361127c61127784868961384e565b611ce4565b166001600160a01b0390911603610eaa5761129b61127782848761384e565b6112e66112a9838a8961380d565b6112b785888c95949561384e565b356112d2604051948593604060208601526060850191611ab0565b90604083015203601f1981018352826117c0565b6001600160401b0360175416916040516112ff816117a5565b600381526020810183815260018060a01b0383166040830152848d52601860205260408d2090825161133081611e68565b61133981611e68565b60ff80198454169116178255518051906001600160401b0382116114dd578e906113738361136a6001870154611e88565b60018701611f7b565b602091601f841160011461145957928060029360019b9a9896936000805160206147508339815191529a98969261144e575b5050600019600383901b1c1916908a1b17818a01555b01906040888060a01b03910151166001600160601b0360a01b8254161790556001600160401b036113eb846119a6565b166001600160401b0319601754161760175560405192839160038352878060a01b03166020830152608090816040840152835180928401526114368260a09560208787019101611f58565b6060830152601f01601f19168101030190a101611242565b0151905038806113a5565b919060018501835260208320925b601f19851681106114c557508360029360019b9a9896938c936000805160206147508339815191529b9997601f198116106114ac575b505050811b01898201556113bb565b015160001960f88460031b161c1916905538808061149d565b91926020600181928685015181550194019201611467565b634e487b7160e01b8f52604160045260248ffd5b604051637e65935960e01b8152600490fd5b6040516341f8b8eb60e11b8152600490fd5b634e487b7160e01b88526021600452602488fd5b6040516330cd747160e01b8152600490fd5b8580fd5b50346101195760209081600319360112610119576001600160401b039160043583811161028c573660238201121561028c576115859036906024816004013591016117fc565b923383526012825261ffff604084205416156116825783511561167057338352601e8252604083209184519182116106ef576115cb826115c58554611e88565b85611f7b565b80601f831160011461160c5750839482939492611601575b50508160011b916000199060031b1c19161790555b61073133611d7c565b0151905038806115e3565b90601f198316958486528286209286905b8882106116585750508360019596971061163f575b505050811b0190556115f8565b015160001960f88460031b161c19169055388080611632565b8060018596829496860151815501950193019061161d565b604051637138356f60e01b8152600490fd5b604051633b4f6e2b60e21b8152336004820152602490fd5b90508160031936011261088f573415611752575060ff600d5460081c166109505733815260036020526040812054156116f9575b3381526003602052604081206116e5348254612550565b90556116f334600254612550565b60025580f35b600454600160401b81101561173e5761171b8160016117399301600455611cf8565b81546001600160a01b0360039290921b91821b19163390911b179055565b6116ce565b634e487b7160e01b82526041600452602482fd5b631036b5ad60e31b8152600490fd5b6001600160401b03811161177457604052565b634e487b7160e01b600052604160045260246000fd5b604081019081106001600160401b0382111761177457604052565b606081019081106001600160401b0382111761177457604052565b90601f801991011681019081106001600160401b0382111761177457604052565b6001600160401b03811161177457601f01601f191660200190565b929192611808826117e1565b9161181660405193846117c0565b829481845281830111611833578281602093846000960137010152565b600080fd5b9181601f84011215611833578235916001600160401b038311611833576020808501948460051b01011161183357565b600435906001600160401b038216820361183357565b35906001600160401b038216820361183357565b6001600160401b0381116117745760051b60200190565b35906001600160a01b038216820361183357565b92916118c882611892565b916118d660405193846117c0565b829481845260208094019160051b810192831161183357905b8282106118fc5750505050565b838091611908846118a9565b8152019101906118ef565b9291909261192084611892565b9161192e60405193846117c0565b829480845260208094019060051b8301928284116118335780915b84831061195857505050505050565b82356001600160401b03811161183357820184601f8201121561183357869161198786838580953591016117fc565b815201920191611949565b356001600160401b03811681036118335790565b9060016001600160401b03809316019182116102c257565b9190916001600160401b03808094169116019182116102c257565b9035603e1982360301811215611833570190565b6001600160401b0391906040820183611a058361187e565b16835260209182810135601e19823603018112156118335701928284359401948411611833578360051b36038513611833576040818401529083905260600192919060005b828110611a58575050505090565b909192938280600192838060a01b03611a70896118a9565b16815201950193929101611a4a565b9035601e19823603018112156118335701602081359101916001600160401b03821161183357813603831361183357565b908060209392818452848401376000828201840152601f01601f1916010190565b611afa611aef611ae183806119d9565b6040855260408501906119ed565b9160208101906119d9565b91602081830391015281359160ff831680930361183357611b27604091611b379484526020810190611a7f565b9190928160208201520191611ab0565b90565b90918092808252602080920191808260051b86010194846000915b848310611b66575050505050505090565b90919293949596601f19828203018752611b8088846119d9565b90813560de198336030181121561183357820191604090818352611ba484806119d9565b611bba60e0918285870152610120860190611ad1565b92611bc78a8701876119d9565b6001600160401b03611bfc611bea603f1997606094898b830301868c0152611ad1565b926080948a0135858a0152890161187e565b169160a092838801528701359263ffffffff60e01b8416809403611833578b95611c32611c429460c096878b01528a018a611a7f565b9290918985030190890152611ab0565b940135610100840152013590811515809203611833578601529684019584019493926001019190611b55565b90608080611c8d611c7f85806119d9565b60a0855260a08501906119ed565b936001600160401b0380611ca36020840161187e565b16602086015260408201356040860152611cbf6060830161187e565b166060850152013591015290565b818110611cd8575050565b60008155600101611ccd565b356001600160a01b03811681036118335790565b600454811015611d2f5760046000527f8a35acfbc15ff81a39ae7d344fd709f28e8600b4aa8c65c6b64bfe7fe36bd19b0190600090565b634e487b7160e01b600052603260045260246000fd5b601f54811015611d2f57601f6000527fa03837a25210ee280c2113ff4b77ca23440b19d4866cca721c801278fd08d8070190600090565b6000818152602080526040812054611dde57601f54600160401b81101561173e579082611dcb611db484600160409601601f55611d45565b819391549060031b91821b91600019901b19161790565b9055601f54928152602080522055600190565b905090565b91906001830160009082825280602052604082205415600014611e6257845494600160401b861015611e4e5760018601808255861015611e3a57836040949596828552602085200155549382526020522055600190565b634e487b7160e01b83526032600452602483fd5b634e487b7160e01b83526041600452602483fd5b50925050565b60041115611e7257565b634e487b7160e01b600052602160045260246000fd5b90600182811c92168015611eb8575b6020831014611ea257565b634e487b7160e01b600052602260045260246000fd5b91607f1691611e97565b9060009291805491611ed383611e88565b918282526001938481169081600014611f355750600114611ef5575b50505050565b90919394506000526020928360002092846000945b838610611f21575050505001019038808080611eef565b805485870183015294019385908201611f0a565b9294505050602093945060ff191683830152151560051b01019038808080611eef565b60005b838110611f6b5750506000910152565b8181015183820152602001611f5b565b9190601f8111611f8a57505050565b611fb6926000526020600020906020601f840160051c83019310611fb8575b601f0160051c0190611ccd565b565b9091508190611fa9565b9080821461209c57611fd48154611e88565b906001600160401b038211611774578190611ff982611ff38654611e88565b86611f7b565b600090601f831160011461203057600092612025575b50508160011b916000199060031b1c1916179055565b01549050388061200f565b81526020808220858352818320935090601f1985169083905b82821061208357505090846001959493921061206a575b505050811b019055565b015460001960f88460031b161c19169055388080612060565b8495819295850154815560018091019601940190612049565b5050565b6017546001600160401b03828116929080831684106120cb5760405163040aaa0560e11b8152600490fd5b808360401c168410611eef5780604093841c165b848282161115612146575050916020916121197f246f00b61ce672242f33bb680a47147cd54d3dfd04dbb76956ba42f88087bf63946119a6565b67ffffffffffffffff60401b60175491831b169067ffffffffffffffff60401b19161760175551908152a1565b81612164826001600160401b03166000526018602052604060002090565b6002808201548254929491926001600160a01b03918216919060ff1661218981611e68565b8085036121fb57505060036121ba60016121c094959697019260018060a01b03166000526010602052604060002090565b01611fc2565b6121dd816001600160401b03166000526018602052604060002090565b916000908184556001936121f2858201612627565b015501166120df565b9091945061220881611e68565b6003918183036123a657505087519361223085612229816001809a01611ec2565b03866117c0565b84518501916020928a8785830192031261183357838701518981116118335787019681603f890112156118335787858d99015192612279612270856117e1565b9a519a8b6117c0565b838a528d8483010111611833578c926122979184888c019101611f58565b015192816122b78460018060a01b03166000526010602052604060002090565b01918751918a8311612391578a986122d9846122d38754611e88565b87611f7b565b81601f851160011461231e575061230e9798999a8493928492600095612313575b50501b92600019911b1c1916179055612586565b6121c0565b0151935038806122fa565b91601f9b9493919b1984169b866000528c84600020946000915b82106123765750508461230e9a9b9c9d1061235c575b50505050811b019055612586565b01519060f884600019921b161c191690553880808061234e565b8383015186558f9d509487019492830192908101908e612338565b60246000634e487b7160e01b81526041600452fd5b915091938895939551936123c285612229816001809501611ec2565b602080868051810103126118335781818c970151956123e081611e68565b036125055784906123f18285612670565b6019546123fe9043612550565b9287519061240b8261178a565b8482528282018481526001600160a01b0387166000908152601a602052604090209091909283549161ffff9384848180961695869160101c169061244e91612570565b169c60009d8e5282870188528d20925183555191015561246d9061255d565b1661ffff198254161790558b519384528301528982015260607f083b080788e20bd0930c2bca2ae4fbc51a59ced08c1b5992271f8cb439498a6391a16009541690813b1561028c578291602483928a5195869384926345f5448560e01b845260048401525af19081156124fa575090849392916124eb575b506121c0565b6124f490611761565b386124e5565b8751903d90823e3d90fd5b50508293509161251591926125ca565b6009541690813b15611833578651916316989f6f60e21b83528260048160009485945af19081156124fa575090849392916124eb57506121c0565b919082018092116102c257565b90600161ffff809316019182116102c257565b91909161ffff808094169116019182116102c257565b9060018060a01b0382166000526010602052604060002081815491558181146000146125b157505050565b8111156125c157611fb6916126ff565b611fb691612a45565b90611fb69161261260018060a01b038216928360005260106020526125f781600160406000200154612550565b93600052601060205283600160406000200155600f54612550565b600f556126ff565b919082039182116102c257565b6126318154611e88565b908161263b575050565b81601f6000931160011461264d575055565b90808391825261266c601f60208420940160051c840160018501611ccd565b5555565b906126dd6126e59260018060a01b038116906000828152601060205261269d85600160408420015461261a565b92815260106020526040812060028101848154811590816126f6575b50156126ea575090826003926126d89483558160018401555501612627565b612a45565b600f5461261a565b600f55565b92505060010155612a45565b905015386126b9565b919060018060a01b03928381166000948186526020916012835261ffff916040978389822054166129305783600e5460081c168460115416106128fc57612744613552565b60019283825260138652828a832054168861275e82612e30565b1061287657508152601585528389822054166127cd5750505050506127c87f19fe3ca603e87854a0747cc10abf06bac64d61bac73d6d15f2fd3ca448f1526493946127a883612dbb565b516001600160a01b03909216825260208201929092529081906040820190565b0390a1565b6127d6866135a5565b926127e087612e30565b935b8186821611612838575b505097516001600160a01b0390951685525050505060208101919091529091507fda148fac2e1063174be7bc0895576bdaba90fd14e575463fa26a967cb895cadd9080604081016127c8565b808561285786617fff8f95871c169485885260168c5287205416612e30565b10156128705790612869839282613704565b90506127e2565b506127ec565b969750899493507ffaeb8de771b867cf357f6b459a7002b62ec45d544a8078a3ecd91200cc826d75989992506127c8956015916128b161324a565b8352522054166128ee575b6128c5846131d5565b6128ce83612dbb565b516001600160a01b03928316815292909116602083015281906040820190565b6128f784612ffa565b6128bc565b50505050506127c87f2e8038f5812f763c6ef0c5427cb5a05ce6d7064af2ba7d1d270bc02660b019fd93946127a8836131d5565b97929150612941859497969561356e565b9761294b85612e30565b976129558a613166565b8460115416905b858116828111612a0e57828110156129f257508061297c6129829261255d565b90613502565b9b909b5b8b11156129a557612997908c61366b565b6129a08b613166565b61295c565b505093516001600160a01b0390951685525050505060208101919091529092507f143db27bc2036653dc6f962ff9d0b803163d4af50c256ca9e6927b3d6dcd0197915080604081016127c8565b849c919c5260138352612a09858886205416612e30565b612986565b505050505050506127c891929395507f143db27bc2036653dc6f962ff9d0b803163d4af50c256ca9e6927b3d6dcd019794506127a8565b909160018060a01b03928383169060009382855260206015815261ffff95604094878683205416612c7f578082526012835287868320541615612c6e578415612bc65750612a928361356e565b97612a9c84612e30565b985b6001808a83161115612bb75781617fff911c1690818452601385528a612ac8848a87205416612e30565b1115612add57612ad8908261366b565b612a9e565b505091939597509193955b6014541615612baf57612af9613552565b600182526013835285818184205416926016612b1485612e30565b95612b1d613560565b600183525220541691612b2f83612e30565b11612b7657505091516001600160a01b03909216825260208201527f143db27bc2036653dc6f962ff9d0b803163d4af50c256ca9e6927b3d6dcd01979080604081016127c8565b915091506127c87ffaeb8de771b867cf357f6b459a7002b62ec45d544a8078a3ecd91200cc826d7593612ba761324a565b6128bc612e93565b505050505050565b50509193959750919395612ae8565b829450612bfa7f4a4c5d1a281180eea1e99d8177fa4798b9f7e019d5c57e7d8d73c6a22199aa5b9392989499969799613393565b8651908152a160145416612c0e5750505050565b7f2e8038f5812f763c6ef0c5427cb5a05ce6d7064af2ba7d1d270bc02660b019fd9360168492612c3c613560565b6001835252205416612c62612c5082612e30565b92612c59612e93565b6127a8836131d5565b0390a138808080611eef565b8551632a55ca5360e01b8152600490fd5b84969792939598919415612d80575061fffe9193612c9c866135a5565b93612ca687612e30565b9480966001958692831b168160145416925b612d0c575b505099516001600160a01b039097168752505050506020830193909352509192507fda148fac2e1063174be7bc0895576bdaba90fd14e575463fa26a967cb895cadd91905080604081016127c8565b818116838111612d7a578d9084811015612d5e57505080612d2f612d359261255d565b9061317d565b9890985b881015612d5957612d4a9089613704565b612d5388613166565b86612cb8565b612cbd565b865260168552852054909890612d75908716612e30565b612d39565b50612cbd565b94915050612db49194507f3168ba660eed6ef1dc2258b2247cc05fd0f2f350d39e6ad2e2ebc76a8000b40b95969250612ffa565b51908152a1565b611fb690612e2a61ffff91612dd3836014541661255d565b9260018060a01b0382169081600052601560205260406000209085169161ffff199183838254161790558260005260166020526040600020906001600160601b0360a01b8254161790556014541617601455612e30565b90613111565b60ff600e54166002811015611e7257600103612e61576001600160a01b031660009081526010602052604090205490565b6001600160a01b031660009081526010602052604090206001015490565b61ffff90811660001901919082116102c257565b61ffff8060145416908115612fe85790600190612eb28183111561364e565b6000828152601660208181526040808420805486865282862080546001600160a01b0392831680895260158752858920805461ffff199081168c17909155918416808a52868a20805484168d17905588885283546001600160a01b03199081169092179093558a895284541690911790925592958795939492939291612f4c91908a612f3d83612e7f565b169060145416176014556135ca565b848252808652612f60848484205416612e30565b95859860028160145416995b612f7e575b5050505050505050505050565b8181168a8111612fe2578a811015612fc7575080612d2f612f9e9261255d565b9a909a5b891015612fc257612fb3908b613704565b612fbc8a613166565b87612f6c565b612f71565b859b919b52838352612fdd878787205416612e30565b612fa2565b50612f71565b6040516340d9b01160e01b8152600490fd5b613003906135a5565b61ffff908160145416916130178383613704565b8061302184612e7f565b1661ffff196014541617601455613037836135ca565b80821680931461310c579161fffe9160009180835260169060209382855260018060a01b0392604092613077613071868686205416612e30565b87613111565b825280865261308a848484205416612e30565b9585986001988997881b168160145416995b6130ad575050505050505050505050565b8181168a8111612fe2578a8110156130f1575080612d2f6130cd9261255d565b9a909a5b891015612fc2576130e2908b613704565b6130eb8a613166565b8761309c565b859b919b52838352613107878787205416612e30565b6130d1565b505050565b9190915b60018061ffff831611156131605781617fff911c16908361314b60008481526016602052604060018060a01b0391205416612e30565b10156131605761315b9082613704565b613115565b50509050565b60011b906201fffe61fffe8316921682036102c257565b91909161ffff9283821660005260166020526131c060018060a01b036131a98160406000205416612e30565b958316600052601660205260406000205416612e30565b908185106131ce5750509190565b9350919050565b611fb69061324461ffff916131ed836011541661255d565b9260018060a01b0382169081600052601260205260406000209085169161ffff199183838254161790558260005260136020526040600020906001600160601b0360a01b8254161790556011541617601155612e30565b906134b3565b61ffff8060115416908115612fe857906001906132698183111561364e565b6000828152601360208181526040808420805486865282862080546001600160a01b0392831680895260128752858920805461ffff199081168c17909155918416808a52868a20805484168d17905588885283546001600160a01b03199081169092179093558a89528454169091179092559295879593949293929161330391908a6132f483612e7f565b1690601154161760115561360c565b848252808652613317848484205416612e30565b95859860028160115416995b613334575050505050505050505050565b8181168a8111612fe2578a81101561337857508061297c6133549261255d565b9a909a5b891115612fc257613369908b61366b565b6133728a613166565b87613323565b859b919b5283835261338e878787205416612e30565b613358565b61339c9061356e565b9061ffff908160115416906133b1828561366b565b826133bb83612e7f565b1661ffff1960115416176011556133d18261360c565b8284168092146134ad5760009291929183835260139260209484865260018060a01b039160409161340f613409858585205416612e30565b8a6134b3565b8152858752613422838383205416612e30565b9561342c89613166565b978560115416985b8681168a811161349f578a81101561348457508061297c6134549261255d565b9a909a5b89111561347757613469908b61366b565b6134728a613166565b613434565b5050505050505092505050565b849b919b5282825261349a868686205416612e30565b613458565b505050505050505092505050565b92505050565b9190915b60018061ffff831611156131605781617fff911c1690836134ed60008481526013602052604060018060a01b0391205416612e30565b1115613160576134fd908261366b565b6134b7565b919061ffff808416600052601360205261354360018060a01b0361352c8160406000205416612e30565b928416600052601360205260406000205416612e30565b93848211156131ce5750509190565b61ffff6011541615612fe857565b61ffff6014541615612fe857565b6001600160a01b031660009081526012602052604090205461ffff1690811561359357565b60405163f2755e3760e01b8152600490fd5b6001600160a01b031660009081526015602052604090205461ffff1690811561359357565b61ffff16600090815260166020908152604080832080546001600160a01b031981169091556001600160a01b0316835260159091529020805461ffff19169055565b61ffff16600090815260136020908152604080832080546001600160a01b031981169091556001600160a01b0316835260129091529020805461ffff19169055565b1561365557565b634e487b7160e01b600052600160045260246000fd5b61369061ffff8080601154169316936136868486111561364e565b169182111561364e565b6000828152601360208181526040808420805486865282862080546001600160a01b0392831680895260128752858920805461ffff19908116909b1790559216808852938720805490981689179097559390925284546001600160a01b031990811690931790945593909152825416179055565b61371f61ffff8080601454169316936136868486111561364e565b6000828152601660208181526040808420805486865282862080546001600160a01b0392831680895260158752858920805461ffff19908116909b1790559216808852938720805490981689179097559390925284546001600160a01b031990811690931790945593909152825416179055565b8147106137f5576000918291829182916001600160a01b03165af13d156137f0573d6137be816117e1565b906137cc60405192836117c0565b8152600060203d92013e5b156137de57565b604051630a12f52160e11b8152600490fd5b6137d7565b60405163cd78605960e01b8152306004820152602490fd5b9190811015611d2f5760051b81013590601e19813603018212156118335701908135916001600160401b038311611833576020018236038113611833579190565b9190811015611d2f5760051b0190565b60ff600d5460101c1661386d57565b60405163248c8efb60e11b8152600490fd5b600154811015611d2f576003906001600052027fb10e2d527612073b26eecdfd717e6a320cf44b4afac2b0732d9fcbe2b7fa0cf60190600090565b906138cf906138c98184613aa4565b826125ca565b60ff600d5460081c16156138e05750565b60018054600082815b838110613a73575b5050156138fd57505050565b6001600160a01b0383166000908152601060205260409020828101546139539490916003016040519261392f846117a5565b835260209361395a8585019260018060a01b03809516845260405198898092611ec2565b03886117c0565b60408401968752600160401b81101561177457808661397b9201875561387f565b929092613a5d576002935183558583019151166001600160601b0360a01b825416179055019251908151916001600160401b038311611774576139c2836122d38754611e88565b81601f84116001146139fb57509282939183926000946139f0575b50501b916000199060031b1c1916179055565b0151925038806139dd565b919083601f1981168760005284600020946000905b88838310613a435750505010613a2a57505050811b019055565b015160001960f88460031b161c19169055388080612060565b858701518855909601959485019487935090810190613a10565b634e487b7160e01b600052600060045260246000fd5b81613a7d8261387f565b5001546001600160a01b03878116911614613a9a570183906138e9565b50905082386138f1565b60018060a01b03166000526010602052613ac76002604060002001918254612550565b9055565b91906040519281602085015260208452613ae48461178a565b6001600160401b03601754169360405194613afe866117a5565b60008652602086019582875260018060a01b03841660408201528160005260186020526040600020968151613b3281611e68565b613b3b81611e68565b60ff80198a54169116178855519687516001600160401b03811161177457613b6a81610d356001850154611e88565b6020601f8211600114613c50576000805160206147508339815191529594928260a09593600293611fb69c9d600092613c45575b50508160011b916000199060031b1c19161760018201555b01906040600180861b03910151166001600160601b03841b8254161790556001600160401b03613be5826119a6565b166001600160401b0319601754161760175560405192839160008352600180851b038716602084015260806040840152613c2e8251809381608087015260208787019101611f58565b6060830152601f01601f19168101030190a1613aa4565b015190503880613b9e565b6001830160005260206000209960005b601f1984168110613cc2575092600183611fb69b9c6002946000805160206147508339815191529a999760a09997601f19811610613ca9575b505050811b016001820155613bb6565b015160001960f88460031b161c19169055388080613c99565b828201518c556001909b019a60209283019201613c60565b60ff600e54166002811015611e725761150357565b613cf7613cda565b3415610ece573360009081526010602052604090206002015415613d375760ff600d5460081c1615613d2d57611fb63433613acb565b611fb634336138ba565b60405163528fc16560e01b8152600490fd5b613d51613cda565b8015613db85733600090815260106020526040902060020154801561168257811015613da75760ff600d5460081c1615613d8f57611fb69033613e1d565b80613d9d611fb69233613dca565b61092a8133612670565b60405162d11df360e61b8152600490fd5b60405163c79cad7b60e01b8152600490fd5b6001600160a01b03166000818152601060205260409020600201549091808210613e0b57613df79161261a565b906000526010602052600260406000200155565b60405163ac69360360e01b8152600490fd5b91906040519281602085015260208452613e368461178a565b6001600160401b03601754169360405194613e50866117a5565b60018652602086019582875260018060a01b03841660408201528160005260186020526040600020968151613e8481611e68565b613e8d81611e68565b60ff80198a54169116178855519687516001600160401b03811161177457613ebc81610d356001850154611e88565b6020601f8211600114613fa2576000805160206147508339815191529594928260a09593600293611fb69c9d600092613f97575b50508160011b916000199060031b1c19161760018201555b01906040600180861b03910151166001600160601b03841b8254161790556001600160401b03613f37826119a6565b166001600160401b0319601754161760175560405192839160018352600180851b038716602084015260806040840152613f808251809381608087015260208787019101611f58565b6060830152601f01601f19168101030190a1613dca565b015190503880613ef0565b6001830160005260206000209960005b601f1984168110614014575092600183611fb69b9c6002946000805160206147508339815191529a999760a09997601f19811610613ffb575b505050811b016001820155613f08565b015160001960f88460031b161c19169055388080613feb565b828201518c556001909b019a60209283019201613fb2565b60ff600d5460081c16614119575b3360009081526010602052604090206002015480156116825761405c33614126565b50600090338252601e60205281604081206140778154611e88565b806140dc575b50505060ff600d5460081c161561409957611fb6915033613e1d565b6040611fb69233815260036020522054806140ba575b50613d9d8133613dca565b806140ca6140d69260025461261a565b60025561092a33614668565b386140af565b82601f82116001146140f4575050555b81388061407d565b9091808252614112601f60208420940160051c840160018501611ccd565b55556140ec565b614121613cda565b61403a565b60008181526020808052604082205491929091801561420757600019908082018181116141f357601f54908382019182116141df578082036141ad575b505050601f5480156141995781019061417b82611d45565b909182549160031b1b19169055601f55825280526040812055600190565b634e487b7160e01b85526031600452602485fd5b6141cb6141bc611db493611d45565b90549060031b1c928392611d45565b905585528380526040852055388080614163565b634e487b7160e01b87526011600452602487fd5b634e487b7160e01b86526011600452602486fd5b50505090565b8051821015611d2f5760209160051b010190565b811561209c576001600160401b0390818060075416911603908082116102c257600091168152602090601d8252604090818120928251808583829754938481520190855283852092855b858282106142db57505050614282925003856117c0565b8351948515612baf57858110612baf5785900493825b8681106142a85750505050505050565b6001906001600160a01b036142bd828561420d565b51168552601c84528585206142d3888254612550565b905501614298565b855484526001958601958a95509301920161426b565b918251916142fe83611892565b9360409461430e865191826117c0565b848152601f1961431d86611892565b0194602095368784013760005b8181106143f457505060009461ffff8060115416600192839182945b6143a3575b505050505060ff60095460a01c16948581029581870414901517156102c257606461437795049161446b565b9015614381575050565b6007811015611e725760ff602492519163282ef1c160e01b8352166004820152fd5b90919293988a858b168381116143ec57600090815260138552205484939291869185916143e2916143dc906001600160a01b0316612e30565b90612550565b9b01169493614346565b50509861434b565b6001600160a01b0380614407838761420d565b51166000526012885261ffff89600020541615614447579061443660019261442f838861420d565b5116612e30565b614440828661420d565b520161432a565b88906144556024938761420d565b519151633b4f6e2b60e21b815291166004820152fd5b845192946000949084156145535782518514801590614548575b61453b579392919085945b8486106144b35750505050505010156144ab57600090600690565b600190600090565b9091929394956144cd6144c6888461420d565b5184614560565b506144d781611e68565b61452a576001600160a01b03806144ee8a8861420d565b511691160361451a5761450e600191614507898861420d565b5190612550565b96019493929190614490565b5050505050505050600090600490565b505050505050505050600090600590565b5050505050905090600190565b508351851415614485565b5050505050905090600290565b81519190604183036145915761458a92506020820151906060604084015193015160001a9061459c565b9192909190565b505060009160029190565b91907f7fffffffffffffffffffffffffffffff5d576e7357a4501ddfe92f46681b20a0841161462057926020929160ff608095604051948552168484015260408301526060820152600092839182805260015afa156146145780516001600160a01b0381161561460b57918190565b50809160019190565b604051903d90823e3d90fd5b50505060009160039190565b906146396041821461364e565b806001116118335761465491369160001901906001016117fc565b80516020909101206001600160a01b031690565b60049081549160005b83811061467e5750505050565b61468781611cf8565b90546003916001600160a01b039190831b1c8116858216146146ad575050600101614671565b92935093906000199182810190811161473a57906146de846146d16146fd94611cf8565b905490891b1c1691611cf8565b90919082549060031b9160018060a01b03809116831b921b1916179055565b8254801561472557019261471084611cf8565b81939154921b1b191690555538808080611eef565b603184634e487b7160e01b6000525260246000fd5b601185634e487b7160e01b6000525260246000fdfe1c593a2b803c3f9038e8b6743ba79fbc4276d2770979a01d2768ed12bea3243f691bb03ffc16c56fc96b82fd16cd1b3715f0bc3cdc6407005f49bb6205860095a2646970667358221220c860a7a46685bcd322a99b1192d64e41155ecc9f1668788a6bf8b9f1d489bc0d64736f6c63430008130033",
    "linkReferences": {
      "src/lib/LibStaking.sol": {
        "LibStaking": [
          {
            "start": 361,
            "length": 20
          }
        ]
      }
    }
  },
  "methodIdentifiers": {
    "addBootstrapNode(string)": "10fd4261",
    "claim()": "4e71d92d",
    "claimRewardForRelayer()": "ed7c4da1",
    "confirmChange(uint64)": "350a14bf",
    "confirmNextChange()": "c7ebdaef",
    "distributeRewardToRelayers(uint64,uint256)": "f9002bb1",
    "join(bytes)": "6170b162",
    "kill()": "41c0e1b5",
    "leave()": "d66d9e19",
    "preFund()": "0b7fbe60",
    "preRelease(uint256)": "66783c9b",
    "setFederatedPowers(address[],bytes[],uint256[])": "2af05ff6",
    "stake()": "3a4b66f1",
    "submitCheckpoint(((uint64,address[]),uint64,bytes32,uint64,bytes32),((((uint64,address[]),(uint8,bytes)),((uint64,address[]),(uint8,bytes)),uint256,uint64,bytes4,bytes,uint256),bool)[],address[],bytes[])": "a8284de3",
    "unstake(uint256)": "2e17de78",
    "validateActiveQuorumSignatures(address[],bytes32,bytes[])": "cc2dc2b9"
  },
  "id": 86
}