{
  "abi": [
    {
      "inputs": [
        {
          "internalType": "address",
          "name": "account",
          "type": "address"
        }
      ],
      "name": "AddressInsufficientBalance",
      "type": "error"
    },
    {
      "inputs": [],
      "name": "AddressShouldBeValidator",
      "type": "error"
    },
    {
      "inputs": [],
      "name": "CannotConfirmFutureChanges",
      "type": "error"
    },
    {
      "inputs": [],
      "name": "CannotReleaseZero",
      "type": "error"
    },
    {
      "inputs": [],
      "name": "CollateralIsZero",
      "type": "error"
    },
    {
      "inputs": [],
      "name": "EmptyAddress",
      "type": "error"
    },
    {
      "inputs": [],
      "name": "FailedInnerCall",
      "type": "error"
    },
    {
      "inputs": [],
      "name": "InvalidCheckpointEpoch",
      "type": "error"
    },
    {
      "inputs": [],
      "name": "InvalidCheckpointMessagesHash",
      "type": "error"
    },
    {
      "inputs": [],
      "name": "InvalidFederationPayload",
      "type": "error"
    },
    {
      "inputs": [],
      "name": "InvalidPublicKeyLength",
      "type": "error"
    },
    {
      "inputs": [
        {
          "internalType": "uint8",
          "name": "",
          "type": "uint8"
        }
      ],
      "name": "InvalidSignatureErr",
      "type": "error"
    },
    {
      "inputs": [],
      "name": "MethodNotAllowed",
      "type": "error"
    },
    {
      "inputs": [],
      "name": "NoCollateralToWithdraw",
      "type": "error"
    },
    {
      "inputs": [],
      "name": "NotAllValidatorsHaveLeft",
      "type": "error"
    },
    {
      "inputs": [],
      "name": "NotEnoughBalance",
      "type": "error"
    },
    {
      "inputs": [],
      "name": "NotEnoughCollateral",
      "type": "error"
    },
    {
      "inputs": [],
      "name": "NotEnoughFunds",
      "type": "error"
    },
    {
      "inputs": [],
      "name": "NotGateway",
      "type": "error"
    },
    {
      "inputs": [],
      "name": "NotOwner",
      "type": "error"
    },
    {
      "inputs": [],
      "name": "NotOwnerOfPublicKey",
      "type": "error"
    },
    {
      "inputs": [],
      "name": "NotStakedBefore",
      "type": "error"
    },
    {
      "inputs": [
        {
          "internalType": "address",
          "name": "",
          "type": "address"
        }
      ],
      "name": "NotValidator",
      "type": "error"
    },
    {
      "inputs": [],
      "name": "PQDoesNotContainAddress",
      "type": "error"
    },
    {
      "inputs": [],
      "name": "PQEmpty",
      "type": "error"
    },
    {
      "inputs": [],
      "name": "ReentrancyError",
      "type": "error"
    },
    {
      "inputs": [],
      "name": "SubnetAlreadyBootstrapped",
      "type": "error"
    },
    {
      "inputs": [],
      "name": "SubnetAlreadyKilled",
      "type": "error"
    },
    {
      "inputs": [],
      "name": "WithdrawExceedingCollateral",
      "type": "error"
    },
    {
      "anonymous": false,
      "inputs": [
        {
          "indexed": false,
          "internalType": "uint64",
          "name": "epoch",
          "type": "uint64"
        },
        {
          "indexed": false,
          "internalType": "address",
          "name": "submitter",
          "type": "address"
        }
      ],
      "name": "BottomUpCheckpointExecuted",
      "type": "event"
    },
    {
      "anonymous": false,
      "inputs": [
        {
          "components": [
            {
              "components": [
                {
                  "internalType": "uint64",
                  "name": "root",
                  "type": "uint64"
                },
                {
                  "internalType": "address[]",
                  "name": "route",
                  "type": "address[]"
                }
              ],
              "internalType": "struct SubnetID",
              "name": "subnetID",
              "type": "tuple"
            },
            {
              "internalType": "uint64",
              "name": "blockHeight",
              "type": "uint64"
            },
            {
              "internalType": "bytes32",
              "name": "blockHash",
              "type": "bytes32"
            },
            {
              "internalType": "uint64",
              "name": "nextConfigurationNumber",
              "type": "uint64"
            },
            {
              "internalType": "bytes32",
              "name": "crossMessagesHash",
              "type": "bytes32"
            }
          ],
          "indexed": false,
          "internalType": "struct BottomUpCheckpoint",
          "name": "checkpoint",
          "type": "tuple"
        },
        {
          "indexed": false,
          "internalType": "address",
          "name": "submitter",
          "type": "address"
        }
      ],
      "name": "BottomUpCheckpointSubmitted",
      "type": "event"
    },
    {
      "anonymous": false,
      "inputs": [
        {
          "indexed": false,
          "internalType": "uint64",
          "name": "epoch",
          "type": "uint64"
        },
        {
          "indexed": false,
          "internalType": "address",
          "name": "submitter",
          "type": "address"
        }
      ],
      "name": "NextBottomUpCheckpointExecuted",
      "type": "event"
    },
    {
      "anonymous": false,
      "inputs": [
        {
          "components": [
            {
              "internalType": "uint256",
              "name": "weight",
              "type": "uint256"
            },
            {
              "internalType": "address",
              "name": "addr",
              "type": "address"
            },
            {
              "internalType": "bytes",
              "name": "metadata",
              "type": "bytes"
            }
          ],
          "indexed": false,
          "internalType": "struct Validator[]",
          "name": "",
          "type": "tuple[]"
        }
      ],
      "name": "SubnetBootstrapped",
      "type": "event"
    },
    {
      "inputs": [
        {
          "internalType": "string",
          "name": "netAddress",
          "type": "string"
        }
      ],
      "name": "addBootstrapNode",
      "outputs": [],
      "stateMutability": "nonpayable",
      "type": "function"
    },
    {
      "inputs": [],
      "name": "claim",
      "outputs": [],
      "stateMutability": "nonpayable",
      "type": "function"
    },
    {
      "inputs": [],
      "name": "claimRewardForRelayer",
      "outputs": [],
      "stateMutability": "nonpayable",
      "type": "function"
    },
    {
      "inputs": [
        {
          "internalType": "uint64",
          "name": "height",
          "type": "uint64"
        },
        {
          "internalType": "uint256",
          "name": "reward",
          "type": "uint256"
        }
      ],
      "name": "distributeRewardToRelayers",
      "outputs": [],
      "stateMutability": "payable",
      "type": "function"
    },
    {
      "inputs": [
        {
          "internalType": "bytes",
          "name": "publicKey",
          "type": "bytes"
        }
      ],
      "name": "join",
      "outputs": [],
      "stateMutability": "payable",
      "type": "function"
    },
    {
      "inputs": [],
      "name": "kill",
      "outputs": [],
      "stateMutability": "nonpayable",
      "type": "function"
    },
    {
      "inputs": [],
      "name": "leave",
      "outputs": [],
      "stateMutability": "nonpayable",
      "type": "function"
    },
    {
      "inputs": [],
      "name": "preFund",
      "outputs": [],
      "stateMutability": "payable",
      "type": "function"
    },
    {
      "inputs": [
        {
          "internalType": "uint256",
          "name": "amount",
          "type": "uint256"
        }
      ],
      "name": "preRelease",
      "outputs": [],
      "stateMutability": "nonpayable",
      "type": "function"
    },
    {
      "inputs": [
        {
          "internalType": "address[]",
          "name": "validators",
          "type": "address[]"
        },
        {
          "internalType": "bytes[]",
          "name": "publicKeys",
          "type": "bytes[]"
        },
        {
          "internalType": "uint256[]",
          "name": "powers",
          "type": "uint256[]"
        }
      ],
      "name": "setFederatedPowers",
      "outputs": [],
      "stateMutability": "nonpayable",
      "type": "function"
    },
    {
      "inputs": [],
      "name": "stake",
      "outputs": [],
      "stateMutability": "payable",
      "type": "function"
    },
    {
      "inputs": [
        {
          "components": [
            {
              "components": [
                {
                  "internalType": "uint64",
                  "name": "root",
                  "type": "uint64"
                },
                {
                  "internalType": "address[]",
                  "name": "route",
                  "type": "address[]"
                }
              ],
              "internalType": "struct SubnetID",
              "name": "subnetID",
              "type": "tuple"
            },
            {
              "internalType": "uint64",
              "name": "blockHeight",
              "type": "uint64"
            },
            {
              "internalType": "bytes32",
              "name": "blockHash",
              "type": "bytes32"
            },
            {
              "internalType": "uint64",
              "name": "nextConfigurationNumber",
              "type": "uint64"
            },
            {
              "internalType": "bytes32",
              "name": "crossMessagesHash",
              "type": "bytes32"
            }
          ],
          "internalType": "struct BottomUpCheckpoint",
          "name": "checkpoint",
          "type": "tuple"
        },
        {
          "components": [
            {
              "components": [
                {
                  "components": [
                    {
                      "components": [
                        {
                          "internalType": "uint64",
                          "name": "root",
                          "type": "uint64"
                        },
                        {
                          "internalType": "address[]",
                          "name": "route",
                          "type": "address[]"
                        }
                      ],
                      "internalType": "struct SubnetID",
                      "name": "subnetId",
                      "type": "tuple"
                    },
                    {
                      "components": [
                        {
                          "internalType": "uint8",
                          "name": "addrType",
                          "type": "uint8"
                        },
                        {
                          "internalType": "bytes",
                          "name": "payload",
                          "type": "bytes"
                        }
                      ],
                      "internalType": "struct FvmAddress",
                      "name": "rawAddress",
                      "type": "tuple"
                    }
                  ],
                  "internalType": "struct IPCAddress",
                  "name": "from",
                  "type": "tuple"
                },
                {
                  "components": [
                    {
                      "components": [
                        {
                          "internalType": "uint64",
                          "name": "root",
                          "type": "uint64"
                        },
                        {
                          "internalType": "address[]",
                          "name": "route",
                          "type": "address[]"
                        }
                      ],
                      "internalType": "struct SubnetID",
                      "name": "subnetId",
                      "type": "tuple"
                    },
                    {
                      "components": [
                        {
                          "internalType": "uint8",
                          "name": "addrType",
                          "type": "uint8"
                        },
                        {
                          "internalType": "bytes",
                          "name": "payload",
                          "type": "bytes"
                        }
                      ],
                      "internalType": "struct FvmAddress",
                      "name": "rawAddress",
                      "type": "tuple"
                    }
                  ],
                  "internalType": "struct IPCAddress",
                  "name": "to",
                  "type": "tuple"
                },
                {
                  "internalType": "uint256",
                  "name": "value",
                  "type": "uint256"
                },
                {
                  "internalType": "uint64",
                  "name": "nonce",
                  "type": "uint64"
                },
                {
                  "internalType": "bytes4",
                  "name": "method",
                  "type": "bytes4"
                },
                {
                  "internalType": "bytes",
                  "name": "params",
                  "type": "bytes"
                },
                {
                  "internalType": "uint256",
                  "name": "fee",
                  "type": "uint256"
                }
              ],
              "internalType": "struct StorableMsg",
              "name": "message",
              "type": "tuple"
            },
            {
              "internalType": "bool",
              "name": "wrapped",
              "type": "bool"
            }
          ],
          "internalType": "struct CrossMsg[]",
          "name": "messages",
          "type": "tuple[]"
        },
        {
          "internalType": "address[]",
          "name": "signatories",
          "type": "address[]"
        },
        {
          "internalType": "bytes[]",
          "name": "signatures",
          "type": "bytes[]"
        }
      ],
      "name": "submitCheckpoint",
      "outputs": [],
      "stateMutability": "nonpayable",
      "type": "function"
    },
    {
      "inputs": [
        {
          "internalType": "uint256",
          "name": "amount",
          "type": "uint256"
        }
      ],
      "name": "unstake",
      "outputs": [],
      "stateMutability": "nonpayable",
      "type": "function"
    },
    {
      "inputs": [
        {
          "internalType": "address[]",
          "name": "signatories",
          "type": "address[]"
        },
        {
          "internalType": "bytes32",
          "name": "hash",
          "type": "bytes32"
        },
        {
          "internalType": "bytes[]",
          "name": "signatures",
          "type": "bytes[]"
        }
      ],
      "name": "validateActiveQuorumSignatures",
      "outputs": [],
      "stateMutability": "view",
      "type": "function"
    }
  ],
  "bytecode": {
    "object": "0x6080806040523461001657614755908161001c8239f35b600080fdfe608080604052600436101561001357600080fd5b600090813560e01c9081630b7fbe601461162f5750806310fd4261146114d45780632af05ff6146111065780632e17de78146110e15780633a4b66f1146110c557806341c0e1b51461102b5780634e71d92d14610e9f5780636170b1621461092657806366783c9b14610845578063a8284de31461028a578063cc2dc2b91461020d578063d66d9e19146101ca578063ed7c4da1146101165763f9002bb1146100bb57600080fd5b6040366003190112610113576004356001600160401b038116810361010e576009546001600160a01b031633036100fc576100f990602435906141b1565b80f35b60405163e7e601db60e01b8152600490fd5b600080fd5b80fd5b503461011357806003193601126101135760008051602061470083398151915260018154146101b85780600183925573__$4a8700ca5e162cb61a0c4650a4871f1ad5$__803b156101b45782602491604051928380926382985e0b60e01b82523360048301525af49081156101a9578391610192575b50505580f35b61019b906116f6565b6101a657813861018c565b50fd5b6040513d85823e3d90fd5b5050fd5b6040516329f745a760e01b8152600490fd5b503461011357806003193601126101135760008051602061470083398151915260018154146101b8578060018392556102016137ee565b610209613fbc565b5580f35b5034610113576060366003190112610113576001600160401b03600435818111610286573660238201121561028657610250903690602481600401359101611823565b60443591821161028657366023830112156102865761027c6100f9923690602481600401359101611879565b9060243590614281565b8280fd5b5034610113576080366003190112610113576001600160401b03600435116101135760a060043536036003190112610113576024356001600160401b038111610841576102db9036906004016117c8565b91906044356001600160401b038111610286576102fc9036906004016117c8565b6064356001600160401b0381116106b95761031b9036906004016117c8565b9261032a60246004350161190c565b926001600160401b03600554166001600160401b0360075416946001600160401b0380610357888561194e565b169116141580610821575b61080f57604051602081019060208252610393816103858d60408301908d611aca565b03601f198101835282611755565b51902060846004350135036107fd576040516020808201526103c18161038560408201600435600401611bfe565b60208151910120946001600160401b03806103ea6103e360246004350161190c565b938561194e565b169116146000146106bd57509161040b610413926104199695943691611823565b933691611879565b91614281565b6001600160401b0361042f60246004350161190c565b168252816020526040822092600435600401356042196004353603018112156106b557600435016001600160401b0361046a6004830161190c565b166001600160401b0319865416178555602481013590602219813603018212156106b95701936001600160401b036004860135116106b557600485013560051b360360248601136106b557600160401b6004860135116106a15760019485820180546004830135825580600484013510610682575b506024820190865260208620865b600484013581106106645750505050839450600281016001600160401b0361051960246004350161190c565b166001600160401b03198254161790556044600435013560038201556001600160401b0361054b60646004350161190c565b1660048201906001600160401b03198254161790556005608460043501359101556001600160401b0361058260246004350161190c565b168352601d602052610598604084203390611d73565b506001600160401b036105af60246004350161190c565b166001600160401b0319600554161760055560018060a01b036009541691823b1561065f5761061992849283604051809681958294637a2b59cf60e11b84526040600485015261060760448501600435600401611bfe565b84810360031901602486015291611aca565b03925af1801561065457610640575b50506100f961063b60646004350161190c565b612030565b610649906116f6565b610113578038610628565b6040513d84823e3d90fd5b505050fd5b88600491602061067386611c74565b950194818501550190506104ed565b8187526020872061069b91810190600485013501611c5d565b386104df565b634e487b7160e01b84526041600452602484fd5b8380fd5b8480fd5b9550505050929350506001600160401b036106dc60246004350161190c565b16146106e7575b5080f35b6001600160401b036106fd60246004350161190c565b168252816020526040822060405160208101916020835260a06040830152816101208101916001600160401b0381541660e0830152600190818101916040610100850152825480955261014084019289526020892090895b8681106107dc5750505060028101546001600160401b0390811660608501526003820154608085015260048201541660a08401526005015460c083015203601f19810183526107a5915082611755565b519020146107b05780f35b6001600160401b036107c660246004350161190c565b168152601d6020526106e3604082203390611d73565b82546001600160a01b03168552879550602090940193918101918101610755565b604051632d7f750360e21b8152600490fd5b60405163fae4eadb60e01b8152600490fd5b50806001600160401b0361083960246004350161190c565b161415610362565b5080fd5b50346101135760203660031901126101135760043560008051602061470083398151915260018154146101b8576001815581156109145760ff600d5460081c16610902573383526003602052816040842054106108f05761020983923384526003602052604084206108b88282546125aa565b90556108c6816002546125aa565b60025533845260036020526040842054156108e2575b33613723565b6108eb336145f8565b6108dc565b60405163569d45cf60e11b8152600490fd5b604051631b39f2f360e11b8152600490fd5b604051631036b5ad60e31b8152600490fd5b50602036600319011261011357600435906001600160401b0382116101135736602383011215610113576001600160401b03826004013511610113576024368184600401358501011161084157600160008051602061470083398151915254146101b8576001600080516020614700833981519152556109a46137ee565b60ff600d5460081c1680610e92575b3415610e80576041846004013503610e6e576109d584600401358386016145bc565b336001600160a01b0390911603610e5c57610c5a5733600090815260106020526040902060039390840190610a188160040135610a128454611e18565b84611f0b565b83601f826004013511600114610be5578385918360040135610bd8575b5050816004013560011b916000199060040135871b1c19161790555b610a5b343361384a565b600f54600654811015610a82575b505090505b806000805160206147008339815191525580f35b61ffff601154166001600160401b0360075460401c1611610a695761010061ff0019600d541617600d5560405193602085019060208652600154809252604086019160408160051b88010192600187527fb10e2d527612073b26eecdfd717e6a320cf44b4afac2b0732d9fcbe2b7fa0cf69287915b838310610b8b5750505050508484957f4914d88063275a25a13b2df37125e216745d812f94c56504be4bd78cf60c9593920390a160018060a01b0360095416610b4360025480936124e0565b92813b156106b95784926040519485938492637903ab2760e11b845260048401525af1801561065457610b77575b80610a69565b610b80906116f6565b610113578038610b71565b9091929394602083610bc96001938d603f1990820301865289548152848060a01b03858b015416848201526060908160408201520160028a01611e52565b97019201930191909392610af7565b8301013590508338610a35565b828552602085208592916004830135601f19165b808510610c3d5760019450836004013511610c1f575b505060040135811b019055610a51565b82018501356000196004840135891b60f8161c191690553880610c0f565b838201870135835560209485019460019093019290910190610bf9565b610c6b368460040135838601611791565b926001600160401b0360175416604051610c848161173a565b60028152602081019586523360408201528160005260186020526040600020958151610caf81611df8565b610cb881611df8565b60ff80198954169116178755519586516001600160401b038111610e4757610cf081610ce76001850154611e18565b60018501611f0b565b6020601f8211600114610dc5579080600293926000805160206146e0833981519152999a600092610dba575b50508160011b916000199060031b1c19161760018201555b0190604060018060a01b03910151166001600160601b0360a01b8254161790556001600160401b03610d6582611920565b166001600160401b03196017541617601755610da26040519384936002855233602086015260806040860152608085019181600401359101611a40565b9060608301520390a1610db53433613a5b565b610a6e565b015190503880610d1c565b6001830160005260206000209860005b601f1984168110610e2f5750916000805160206146e083398151915298996001926002959483601f19811610610e16575b505050811b016001820155610d34565b015160001960f88460031b161c19169055388080610e06565b828201518b556001909a019960209283019201610dd5565b85634e487b7160e01b60005260416004526000fd5b604051634be9251d60e11b8152600490fd5b6040516318dca5e960e21b8152600490fd5b604051635a78c58160e11b8152600490fd5b610e9a613c6a565b6109b3565b5034610113578060031936011261011357600190600080516020614700833981519152828154146101b857828155336000908152601a602052604090209283549061ffff9081831692831561101957829060101c16918391808795818a01915b610f93575b50505086610f75937f197c586353eaed0a1c53e6e540445b94befab8f932c8115d112115ecbeeed514959363ffff000093899a54911693849260101b169063ffffffff19161717905515610f7c575b610f5d8133613723565b60408051338152602081019290925290918291820190565b0390a15580f35b336000908152601a60205260409020859055610f53565b9091939483811696828810156110105787600052602080918582526040600020604051610fbf8161171f565b898254928383520154938491015243106110055785949388968894610fe686958a956124e0565b9c60005252600082604082208281550155011696600019011694610eff565b985050509493610f04565b96509493610f04565b6040516364b0557f60e01b8152600490fd5b50346101135780600319360112610113576110446137ee565b61ffff61105a8160145416826011541690612500565b166110b357600d805462ff000019166201000017905560095481906001600160a01b0316803b156101a65781906004604051809481936341c0e1b560e01b83525af18015610654576110aa575080f35b6100f9906116f6565b604051636b62255160e11b8152600490fd5b5080600319360112610113576110d96137ee565b6100f9613c7f565b5034610113576020366003190112610113576110fb6137ee565b6100f9600435613cd9565b5034610113576060366003190112610113576004356001600160401b038111610841576111379036906004016117c8565b6024356001600160401b0381116106b5576111569036906004016117c8565b926044356001600160401b0381116114d0576111769036906004016117c8565b90936111806137ee565b7f806e0cbb9fce296bbc336a48f42bf1dbc69722d18d90d6fe705b7582c2bb4bd5546001600160a01b031633036114be5760ff600e541660028110156114aa57600103611498578181036114865785810361148657865b8181106111e2578780f35b6111f66111f082898861379d565b906145bc565b6001600160a01b0361121161120c8486896137de565b611c74565b166001600160a01b0390911603610e5c5761123061120c8284876137de565b61127b61123e838a8961379d565b61124c85888c9594956137de565b35611267604051948593604060208601526060850191611a40565b90604083015203601f198101835282611755565b6001600160401b0360175416916040516112948161173a565b600381526020810183815260018060a01b0383166040830152848d52601860205260408d209082516112c581611df8565b6112ce81611df8565b60ff80198454169116178255518051906001600160401b038211611472578e90611308836112ff6001870154611e18565b60018701611f0b565b602091601f84116001146113ee57928060029360019b9a9896936000805160206146e08339815191529a9896926113e3575b5050600019600383901b1c1916908a1b17818a01555b01906040888060a01b03910151166001600160601b0360a01b8254161790556001600160401b0361138084611920565b166001600160401b0319601754161760175560405192839160038352878060a01b03166020830152608090816040840152835180928401526113cb8260a09560208787019101611ee8565b6060830152601f01601f19168101030190a1016111d7565b01519050388061133a565b919060018501835260208320925b601f198516811061145a57508360029360019b9a9896938c936000805160206146e08339815191529b9997601f19811610611441575b505050811b0189820155611350565b015160001960f88460031b161c19169055388080611432565b919260206001819286850151815501940192016113fc565b634e487b7160e01b8f52604160045260248ffd5b604051637e65935960e01b8152600490fd5b6040516341f8b8eb60e11b8152600490fd5b634e487b7160e01b88526021600452602488fd5b6040516330cd747160e01b8152600490fd5b8580fd5b50346101135760209081600319360112610113576001600160401b039160043583811161028657366023820112156102865761151a903690602481600401359101611791565b923383526012825261ffff604084205416156116175783511561160557338352601e8252604083209184519182116106a1576115608261155a8554611e18565b85611f0b565b80601f83116001146115a15750839482939492611596575b50508160011b916000199060031b1c19161790555b6106e333611d0c565b015190503880611578565b90601f198316958486528286209286905b8882106115ed575050836001959697106115d4575b505050811b01905561158d565b015160001960f88460031b161c191690553880806115c7565b806001859682949686015181550195019301906115b2565b604051637138356f60e01b8152600490fd5b604051633b4f6e2b60e21b8152336004820152602490fd5b9050816003193601126108415734156116e7575060ff600d5460081c1661090257338152600360205260408120541561168e575b33815260036020526040812061167a3482546124e0565b9055611688346002546124e0565b60025580f35b600454600160401b8110156116d3576116b08160016116ce9301600455611c88565b81546001600160a01b0360039290921b91821b19163390911b179055565b611663565b634e487b7160e01b82526041600452602482fd5b631036b5ad60e31b8152600490fd5b6001600160401b03811161170957604052565b634e487b7160e01b600052604160045260246000fd5b604081019081106001600160401b0382111761170957604052565b606081019081106001600160401b0382111761170957604052565b90601f801991011681019081106001600160401b0382111761170957604052565b6001600160401b03811161170957601f01601f191660200190565b92919261179d82611776565b916117ab6040519384611755565b82948184528183011161010e578281602093846000960137010152565b9181601f8401121561010e578235916001600160401b03831161010e576020808501948460051b01011161010e57565b6001600160401b0381116117095760051b60200190565b35906001600160a01b038216820361010e57565b929161182e826117f8565b9161183c6040519384611755565b829481845260208094019160051b810192831161010e57905b8282106118625750505050565b83809161186e8461180f565b815201910190611855565b92919092611886846117f8565b916118946040519384611755565b829480845260208094019060051b83019282841161010e5780915b8483106118be57505050505050565b82356001600160401b03811161010e57820184601f8201121561010e5786916118ed8683858095359101611791565b8152019201916118af565b35906001600160401b038216820361010e57565b356001600160401b038116810361010e5790565b9060016001600160401b038093160191821161193857565b634e487b7160e01b600052601160045260246000fd5b9190916001600160401b038080941691160191821161193857565b9035603e198236030181121561010e570190565b6001600160401b0391906040820183611995836118f8565b16835260209182810135601e198236030181121561010e570192828435940194841161010e578360051b3603851361010e576040818401529083905260600192919060005b8281106119e8575050505090565b909192938280600192838060a01b03611a008961180f565b168152019501939291016119da565b9035601e198236030181121561010e5701602081359101916001600160401b03821161010e57813603831361010e57565b908060209392818452848401376000828201840152601f01601f1916010190565b611a8a611a7f611a718380611969565b60408552604085019061197d565b916020810190611969565b91602081830391015281359160ff831680930361010e57611ab7604091611ac79484526020810190611a0f565b9190928160208201520191611a40565b90565b90918092808252602080920191808260051b86010194846000915b848310611af6575050505050505090565b90919293949596601f19828203018752611b108884611969565b90813560de198336030181121561010e57820191604090818352611b348480611969565b611b4a60e0918285870152610120860190611a61565b92611b578a870187611969565b6001600160401b03611b8c611b7a603f1997606094898b830301868c0152611a61565b926080948a0135858a015289016118f8565b169160a092838801528701359263ffffffff60e01b841680940361010e578b95611bc2611bd29460c096878b01528a018a611a0f565b9290918985030190890152611a40565b94013561010084015201359081151580920361010e578601529684019584019493926001019190611ae5565b90608080611c1d611c0f8580611969565b60a0855260a085019061197d565b936001600160401b0380611c33602084016118f8565b16602086015260408201356040860152611c4f606083016118f8565b166060850152013591015290565b818110611c68575050565b60008155600101611c5d565b356001600160a01b038116810361010e5790565b600454811015611cbf5760046000527f8a35acfbc15ff81a39ae7d344fd709f28e8600b4aa8c65c6b64bfe7fe36bd19b0190600090565b634e487b7160e01b600052603260045260246000fd5b601f54811015611cbf57601f6000527fa03837a25210ee280c2113ff4b77ca23440b19d4866cca721c801278fd08d8070190600090565b6000818152602080526040812054611d6e57601f54600160401b8110156116d3579082611d5b611d4484600160409601601f55611cd5565b819391549060031b91821b91600019901b19161790565b9055601f54928152602080522055600190565b905090565b91906001830160009082825280602052604082205415600014611df257845494600160401b861015611dde5760018601808255861015611dca57836040949596828552602085200155549382526020522055600190565b634e487b7160e01b83526032600452602483fd5b634e487b7160e01b83526041600452602483fd5b50925050565b60041115611e0257565b634e487b7160e01b600052602160045260246000fd5b90600182811c92168015611e48575b6020831014611e3257565b634e487b7160e01b600052602260045260246000fd5b91607f1691611e27565b9060009291805491611e6383611e18565b918282526001938481169081600014611ec55750600114611e85575b50505050565b90919394506000526020928360002092846000945b838610611eb1575050505001019038808080611e7f565b805485870183015294019385908201611e9a565b9294505050602093945060ff191683830152151560051b01019038808080611e7f565b60005b838110611efb5750506000910152565b8181015183820152602001611eeb565b9190601f8111611f1a57505050565b611f46926000526020600020906020601f840160051c83019310611f48575b601f0160051c0190611c5d565b565b9091508190611f39565b9080821461202c57611f648154611e18565b906001600160401b038211611709578190611f8982611f838654611e18565b86611f0b565b600090601f8311600114611fc057600092611fb5575b50508160011b916000199060031b1c1916179055565b015490503880611f9f565b81526020808220858352818320935090601f1985169083905b828210612013575050908460019594939210611ffa575b505050811b019055565b015460001960f88460031b161c19169055388080611ff0565b8495819295850154815560018091019601940190611fd9565b5050565b6017546001600160401b038281169290808316841061205b5760405163040aaa0560e11b8152600490fd5b808360401c168410611e7f5780604093841c165b8482821611156120d6575050916020916120a97f246f00b61ce672242f33bb680a47147cd54d3dfd04dbb76956ba42f88087bf6394611920565b67ffffffffffffffff60401b60175491831b169067ffffffffffffffff60401b19161760175551908152a1565b816120f4826001600160401b03166000526018602052604060002090565b6002808201548254929491926001600160a01b03918216919060ff1661211981611df8565b80850361218b575050600361214a600161215094959697019260018060a01b03166000526010602052604060002090565b01611f52565b61216d816001600160401b03166000526018602052604060002090565b916000908184556001936121828582016125b7565b0155011661206f565b9091945061219881611df8565b6003918183036123365750508751936121c0856121b9816001809a01611e52565b0386611755565b84518501916020928a8785830192031261010e578387015189811161010e5787019681603f8901121561010e5787858d9901519261220961220085611776565b9a519a8b611755565b838a528d848301011161010e578c926122279184888c019101611ee8565b015192816122478460018060a01b03166000526010602052604060002090565b01918751918a8311612321578a98612269846122638754611e18565b87611f0b565b81601f85116001146122ae575061229e9798999a84939284926000956122a3575b50501b92600019911b1c1916179055612516565b612150565b01519350388061228a565b91601f9b9493919b1984169b866000528c84600020946000915b82106123065750508461229e9a9b9c9d106122ec575b50505050811b019055612516565b01519060f884600019921b161c19169055388080806122de565b8383015186558f9d509487019492830192908101908e6122c8565b60246000634e487b7160e01b81526041600452fd5b91509193889593955193612352856121b9816001809501611e52565b6020808680518101031261010e5781818c9701519561237081611df8565b036124955784906123818285612600565b60195461238e90436124e0565b9287519061239b8261171f565b8482528282018481526001600160a01b0387166000908152601a602052604090209091909283549161ffff9384848180961695869160101c16906123de91612500565b169c60009d8e5282870188528d2092518355519101556123fd906124ed565b1661ffff198254161790558b519384528301528982015260607f083b080788e20bd0930c2bca2ae4fbc51a59ced08c1b5992271f8cb439498a6391a16009541690813b15610286578291602483928a5195869384926345f5448560e01b845260048401525af190811561248a5750908493929161247b575b50612150565b612484906116f6565b38612475565b8751903d90823e3d90fd5b5050829350916124a5919261255a565b6009541690813b1561010e578651916316989f6f60e21b83528260048160009485945af190811561248a5750908493929161247b5750612150565b9190820180921161193857565b90600161ffff8093160191821161193857565b91909161ffff8080941691160191821161193857565b9060018060a01b03821660005260106020526040600020818154915581811460001461254157505050565b81111561255157611f469161268f565b611f46916129d5565b90611f46916125a260018060a01b03821692836000526010602052612587816001604060002001546124e0565b93600052601060205283600160406000200155600f546124e0565b600f5561268f565b9190820391821161193857565b6125c18154611e18565b90816125cb575050565b81601f600093116001146125dd575055565b9080839182526125fc601f60208420940160051c840160018501611c5d565b5555565b9061266d6126759260018060a01b038116906000828152601060205261262d8560016040842001546125aa565b9281526010602052604081206002810184815481159081612686575b501561267a5750908260039261266894835581600184015555016125b7565b6129d5565b600f546125aa565b600f55565b925050600101556129d5565b90501538612649565b919060018060a01b03928381166000948186526020916012835261ffff916040978389822054166128c05783600e5460081c1684601154161061288c576126d46134e2565b60019283825260138652828a83205416886126ee82612dc0565b10612806575081526015855283898220541661275d5750505050506127587f19fe3ca603e87854a0747cc10abf06bac64d61bac73d6d15f2fd3ca448f15264939461273883612d4b565b516001600160a01b03909216825260208201929092529081906040820190565b0390a1565b61276686613535565b9261277087612dc0565b935b81868216116127c8575b505097516001600160a01b0390951685525050505060208101919091529091507fda148fac2e1063174be7bc0895576bdaba90fd14e575463fa26a967cb895cadd908060408101612758565b80856127e786617fff8f95871c169485885260168c5287205416612dc0565b101561280057906127f9839282613694565b9050612772565b5061277c565b969750899493507ffaeb8de771b867cf357f6b459a7002b62ec45d544a8078a3ecd91200cc826d7598999250612758956015916128416131da565b83525220541661287e575b61285584613165565b61285e83612d4b565b516001600160a01b03928316815292909116602083015281906040820190565b61288784612f8a565b61284c565b50505050506127587f2e8038f5812f763c6ef0c5427cb5a05ce6d7064af2ba7d1d270bc02660b019fd939461273883613165565b979291506128d185949796956134fe565b976128db85612dc0565b976128e58a6130f6565b8460115416905b85811682811161299e578281101561298257508061290c612912926124ed565b90613492565b9b909b5b8b111561293557612927908c6135fb565b6129308b6130f6565b6128ec565b505093516001600160a01b0390951685525050505060208101919091529092507f143db27bc2036653dc6f962ff9d0b803163d4af50c256ca9e6927b3d6dcd019791508060408101612758565b849c919c5260138352612999858886205416612dc0565b612916565b5050505050505061275891929395507f143db27bc2036653dc6f962ff9d0b803163d4af50c256ca9e6927b3d6dcd01979450612738565b909160018060a01b03928383169060009382855260206015815261ffff95604094878683205416612c0f578082526012835287868320541615612bfe578415612b565750612a22836134fe565b97612a2c84612dc0565b985b6001808a83161115612b475781617fff911c1690818452601385528a612a58848a87205416612dc0565b1115612a6d57612a6890826135fb565b612a2e565b505091939597509193955b6014541615612b3f57612a896134e2565b600182526013835285818184205416926016612aa485612dc0565b95612aad6134f0565b600183525220541691612abf83612dc0565b11612b0657505091516001600160a01b03909216825260208201527f143db27bc2036653dc6f962ff9d0b803163d4af50c256ca9e6927b3d6dcd0197908060408101612758565b915091506127587ffaeb8de771b867cf357f6b459a7002b62ec45d544a8078a3ecd91200cc826d7593612b376131da565b61284c612e23565b505050505050565b50509193959750919395612a78565b829450612b8a7f4a4c5d1a281180eea1e99d8177fa4798b9f7e019d5c57e7d8d73c6a22199aa5b9392989499969799613323565b8651908152a160145416612b9e5750505050565b7f2e8038f5812f763c6ef0c5427cb5a05ce6d7064af2ba7d1d270bc02660b019fd9360168492612bcc6134f0565b6001835252205416612bf2612be082612dc0565b92612be9612e23565b61273883613165565b0390a138808080611e7f565b8551632a55ca5360e01b8152600490fd5b84969792939598919415612d10575061fffe9193612c2c86613535565b93612c3687612dc0565b9480966001958692831b168160145416925b612c9c575b505099516001600160a01b039097168752505050506020830193909352509192507fda148fac2e1063174be7bc0895576bdaba90fd14e575463fa26a967cb895cadd9190508060408101612758565b818116838111612d0a578d9084811015612cee57505080612cbf612cc5926124ed565b9061310d565b9890985b881015612ce957612cda9089613694565b612ce3886130f6565b86612c48565b612c4d565b865260168552852054909890612d05908716612dc0565b612cc9565b50612c4d565b94915050612d449194507f3168ba660eed6ef1dc2258b2247cc05fd0f2f350d39e6ad2e2ebc76a8000b40b95969250612f8a565b51908152a1565b611f4690612dba61ffff91612d6383601454166124ed565b9260018060a01b0382169081600052601560205260406000209085169161ffff199183838254161790558260005260166020526040600020906001600160601b0360a01b8254161790556014541617601455612dc0565b906130a1565b60ff600e54166002811015611e0257600103612df1576001600160a01b031660009081526010602052604090205490565b6001600160a01b031660009081526010602052604090206001015490565b61ffff908116600019019190821161193857565b61ffff8060145416908115612f785790600190612e42818311156135de565b6000828152601660208181526040808420805486865282862080546001600160a01b0392831680895260158752858920805461ffff199081168c17909155918416808a52868a20805484168d17905588885283546001600160a01b03199081169092179093558a895284541690911790925592958795939492939291612edc91908a612ecd83612e0f565b1690601454161760145561355a565b848252808652612ef0848484205416612dc0565b95859860028160145416995b612f0e575b5050505050505050505050565b8181168a8111612f72578a811015612f57575080612cbf612f2e926124ed565b9a909a5b891015612f5257612f43908b613694565b612f4c8a6130f6565b87612efc565b612f01565b859b919b52838352612f6d878787205416612dc0565b612f32565b50612f01565b6040516340d9b01160e01b8152600490fd5b612f9390613535565b61ffff90816014541691612fa78383613694565b80612fb184612e0f565b1661ffff196014541617601455612fc78361355a565b80821680931461309c579161fffe9160009180835260169060209382855260018060a01b0392604092613007613001868686205416612dc0565b876130a1565b825280865261301a848484205416612dc0565b9585986001988997881b168160145416995b61303d575050505050505050505050565b8181168a8111612f72578a811015613081575080612cbf61305d926124ed565b9a909a5b891015612f5257613072908b613694565b61307b8a6130f6565b8761302c565b859b919b52838352613097878787205416612dc0565b613061565b505050565b9190915b60018061ffff831611156130f05781617fff911c1690836130db60008481526016602052604060018060a01b0391205416612dc0565b10156130f0576130eb9082613694565b6130a5565b50509050565b60011b906201fffe61fffe83169216820361193857565b91909161ffff92838216600052601660205261315060018060a01b036131398160406000205416612dc0565b958316600052601660205260406000205416612dc0565b9081851061315e5750509190565b9350919050565b611f46906131d461ffff9161317d83601154166124ed565b9260018060a01b0382169081600052601260205260406000209085169161ffff199183838254161790558260005260136020526040600020906001600160601b0360a01b8254161790556011541617601155612dc0565b90613443565b61ffff8060115416908115612f7857906001906131f9818311156135de565b6000828152601360208181526040808420805486865282862080546001600160a01b0392831680895260128752858920805461ffff199081168c17909155918416808a52868a20805484168d17905588885283546001600160a01b03199081169092179093558a89528454169091179092559295879593949293929161329391908a61328483612e0f565b1690601154161760115561359c565b8482528086526132a7848484205416612dc0565b95859860028160115416995b6132c4575050505050505050505050565b8181168a8111612f72578a81101561330857508061290c6132e4926124ed565b9a909a5b891115612f52576132f9908b6135fb565b6133028a6130f6565b876132b3565b859b919b5283835261331e878787205416612dc0565b6132e8565b61332c906134fe565b9061ffff9081601154169061334182856135fb565b8261334b83612e0f565b1661ffff1960115416176011556133618261359c565b82841680921461343d5760009291929183835260139260209484865260018060a01b039160409161339f613399858585205416612dc0565b8a613443565b81528587526133b2838383205416612dc0565b956133bc896130f6565b978560115416985b8681168a811161342f578a81101561341457508061290c6133e4926124ed565b9a909a5b891115613407576133f9908b6135fb565b6134028a6130f6565b6133c4565b5050505050505092505050565b849b919b5282825261342a868686205416612dc0565b6133e8565b505050505050505092505050565b92505050565b9190915b60018061ffff831611156130f05781617fff911c16908361347d60008481526013602052604060018060a01b0391205416612dc0565b11156130f05761348d90826135fb565b613447565b919061ffff80841660005260136020526134d360018060a01b036134bc8160406000205416612dc0565b928416600052601360205260406000205416612dc0565b938482111561315e5750509190565b61ffff6011541615612f7857565b61ffff6014541615612f7857565b6001600160a01b031660009081526012602052604090205461ffff1690811561352357565b60405163f2755e3760e01b8152600490fd5b6001600160a01b031660009081526015602052604090205461ffff1690811561352357565b61ffff16600090815260166020908152604080832080546001600160a01b031981169091556001600160a01b0316835260159091529020805461ffff19169055565b61ffff16600090815260136020908152604080832080546001600160a01b031981169091556001600160a01b0316835260129091529020805461ffff19169055565b156135e557565b634e487b7160e01b600052600160045260246000fd5b61362061ffff808060115416931693613616848611156135de565b16918211156135de565b6000828152601360208181526040808420805486865282862080546001600160a01b0392831680895260128752858920805461ffff19908116909b1790559216808852938720805490981689179097559390925284546001600160a01b031990811690931790945593909152825416179055565b6136af61ffff808060145416931693613616848611156135de565b6000828152601660208181526040808420805486865282862080546001600160a01b0392831680895260158752858920805461ffff19908116909b1790559216808852938720805490981689179097559390925284546001600160a01b031990811690931790945593909152825416179055565b814710613785576000918291829182916001600160a01b03165af13d15613780573d61374e81611776565b9061375c6040519283611755565b8152600060203d92013e5b1561376e57565b604051630a12f52160e11b8152600490fd5b613767565b60405163cd78605960e01b8152306004820152602490fd5b9190811015611cbf5760051b81013590601e198136030182121561010e5701908135916001600160401b03831161010e57602001823603811361010e579190565b9190811015611cbf5760051b0190565b60ff600d5460101c166137fd57565b60405163248c8efb60e11b8152600490fd5b600154811015611cbf576003906001600052027fb10e2d527612073b26eecdfd717e6a320cf44b4afac2b0732d9fcbe2b7fa0cf60190600090565b9061385f906138598184613a34565b8261255a565b60ff600d5460081c16156138705750565b60018054600082815b838110613a03575b50501561388d57505050565b6001600160a01b0383166000908152601060205260409020828101546138e3949091600301604051926138bf8461173a565b83526020936138ea8585019260018060a01b03809516845260405198898092611e52565b0388611755565b60408401968752600160401b81101561170957808661390b9201875561380f565b9290926139ed576002935183558583019151166001600160601b0360a01b825416179055019251908151916001600160401b03831161170957613952836122638754611e18565b81601f841160011461398b5750928293918392600094613980575b50501b916000199060031b1c1916179055565b01519250388061396d565b919083601f1981168760005284600020946000905b888383106139d357505050106139ba57505050811b019055565b015160001960f88460031b161c19169055388080611ff0565b8587015188559096019594850194879350908101906139a0565b634e487b7160e01b600052600060045260246000fd5b81613a0d8261380f565b5001546001600160a01b03878116911614613a2a57018390613879565b5090508238613881565b60018060a01b03166000526010602052613a5760026040600020019182546124e0565b9055565b91906040519281602085015260208452613a748461171f565b6001600160401b03601754169360405194613a8e8661173a565b60008652602086019582875260018060a01b03841660408201528160005260186020526040600020968151613ac281611df8565b613acb81611df8565b60ff80198a54169116178855519687516001600160401b03811161170957613afa81610ce76001850154611e18565b6020601f8211600114613be0576000805160206146e08339815191529594928260a09593600293611f469c9d600092613bd5575b50508160011b916000199060031b1c19161760018201555b01906040600180861b03910151166001600160601b03841b8254161790556001600160401b03613b7582611920565b166001600160401b0319601754161760175560405192839160008352600180851b038716602084015260806040840152613bbe8251809381608087015260208787019101611ee8565b6060830152601f01601f19168101030190a1613a34565b015190503880613b2e565b6001830160005260206000209960005b601f1984168110613c52575092600183611f469b9c6002946000805160206146e08339815191529a999760a09997601f19811610613c39575b505050811b016001820155613b46565b015160001960f88460031b161c19169055388080613c29565b828201518c556001909b019a60209283019201613bf0565b60ff600e54166002811015611e025761149857565b613c87613c6a565b3415610e80573360009081526010602052604090206002015415613cc75760ff600d5460081c1615613cbd57611f463433613a5b565b611f46343361384a565b60405163528fc16560e01b8152600490fd5b613ce1613c6a565b8015613d485733600090815260106020526040902060020154801561161757811015613d375760ff600d5460081c1615613d1f57611f469033613dad565b80613d2d611f469233613d5a565b6108dc8133612600565b60405162d11df360e61b8152600490fd5b60405163c79cad7b60e01b8152600490fd5b6001600160a01b03166000818152601060205260409020600201549091808210613d9b57613d87916125aa565b906000526010602052600260406000200155565b60405163ac69360360e01b8152600490fd5b91906040519281602085015260208452613dc68461171f565b6001600160401b03601754169360405194613de08661173a565b60018652602086019582875260018060a01b03841660408201528160005260186020526040600020968151613e1481611df8565b613e1d81611df8565b60ff80198a54169116178855519687516001600160401b03811161170957613e4c81610ce76001850154611e18565b6020601f8211600114613f32576000805160206146e08339815191529594928260a09593600293611f469c9d600092613f27575b50508160011b916000199060031b1c19161760018201555b01906040600180861b03910151166001600160601b03841b8254161790556001600160401b03613ec782611920565b166001600160401b0319601754161760175560405192839160018352600180851b038716602084015260806040840152613f108251809381608087015260208787019101611ee8565b6060830152601f01601f19168101030190a1613d5a565b015190503880613e80565b6001830160005260206000209960005b601f1984168110613fa4575092600183611f469b9c6002946000805160206146e08339815191529a999760a09997601f19811610613f8b575b505050811b016001820155613e98565b015160001960f88460031b161c19169055388080613f7b565b828201518c556001909b019a60209283019201613f42565b60ff600d5460081c166140a9575b33600090815260106020526040902060020154801561161757613fec336140b6565b50600090338252601e60205281604081206140078154611e18565b8061406c575b50505060ff600d5460081c161561402957611f46915033613dad565b6040611f4692338152600360205220548061404a575b50613d2d8133613d5a565b8061405a614066926002546125aa565b6002556108dc336145f8565b3861403f565b82601f8211600114614084575050555b81388061400d565b90918082526140a2601f60208420940160051c840160018501611c5d565b555561407c565b6140b1613c6a565b613fca565b600081815260208080526040822054919290918015614197576000199080820181811161418357601f549083820191821161416f5780820361413d575b505050601f5480156141295781019061410b82611cd5565b909182549160031b1b19169055601f55825280526040812055600190565b634e487b7160e01b85526031600452602485fd5b61415b61414c611d4493611cd5565b90549060031b1c928392611cd5565b9055855283805260408520553880806140f3565b634e487b7160e01b87526011600452602487fd5b634e487b7160e01b86526011600452602486fd5b50505090565b8051821015611cbf5760209160051b010190565b811561202c576001600160401b03908180600754169116039080821161193857600091168152602090601d8252604090818120928251808583829754938481520190855283852092855b8582821061426b5750505061421292500385611755565b8351948515612b3f57858110612b3f5785900493825b8681106142385750505050505050565b6001906001600160a01b0361424d828561419d565b51168552601c84528585206142638882546124e0565b905501614228565b855484526001958601958a9550930192016141fb565b9182519161428e836117f8565b9360409461429e86519182611755565b848152601f196142ad866117f8565b0194602095368784013760005b81811061438457505060009461ffff8060115416600192839182945b614333575b505050505060ff60095460a01c16948581029581870414901517156119385760646143079504916143fb565b9015614311575050565b6007811015611e025760ff602492519163282ef1c160e01b8352166004820152fd5b90919293988a858b1683811161437c57600090815260138552205484939291869185916143729161436c906001600160a01b0316612dc0565b906124e0565b9b011694936142d6565b5050986142db565b6001600160a01b0380614397838761419d565b51166000526012885261ffff896000205416156143d757906143c66001926143bf838861419d565b5116612dc0565b6143d0828661419d565b52016142ba565b88906143e56024938761419d565b519151633b4f6e2b60e21b815291166004820152fd5b845192946000949084156144e357825185148015906144d8575b6144cb579392919085945b84861061444357505050505050101561443b57600090600690565b600190600090565b90919293949561445d614456888461419d565b51846144f0565b5061446781611df8565b6144ba576001600160a01b038061447e8a8861419d565b51169116036144aa5761449e600191614497898861419d565b51906124e0565b96019493929190614420565b5050505050505050600090600490565b505050505050505050600090600590565b5050505050905090600190565b508351851415614415565b5050505050905090600290565b81519190604183036145215761451a92506020820151906060604084015193015160001a9061452c565b9192909190565b505060009160029190565b91907f7fffffffffffffffffffffffffffffff5d576e7357a4501ddfe92f46681b20a084116145b057926020929160ff608095604051948552168484015260408301526060820152600092839182805260015afa156145a45780516001600160a01b0381161561459b57918190565b50809160019190565b604051903d90823e3d90fd5b50505060009160039190565b906145c9604182146135de565b8060011161010e576145e49136916000190190600101611791565b80516020909101206001600160a01b031690565b60049081549160005b83811061460e5750505050565b61461781611c88565b90546003916001600160a01b039190831b1c81168582161461463d575050600101614601565b9293509390600019918281019081116146ca579061466e8461466161468d94611c88565b905490891b1c1691611c88565b90919082549060031b9160018060a01b03809116831b921b1916179055565b825480156146b55701926146a084611c88565b81939154921b1b191690555538808080611e7f565b603184634e487b7160e01b6000525260246000fd5b601185634e487b7160e01b6000525260246000fdfe1c593a2b803c3f9038e8b6743ba79fbc4276d2770979a01d2768ed12bea3243f691bb03ffc16c56fc96b82fd16cd1b3715f0bc3cdc6407005f49bb6205860095a26469706673582212200bb351f3b83772ca094f0ed43625bbe407d335e9f6f6855e04adb8433c91fc1c64736f6c63430008130033",
    "linkReferences": {
      "src/lib/LibStaking.sol": {
        "LibStaking": [
          {
            "start": 355,
            "length": 20
          }
        ]
      }
    }
  },
  "methodIdentifiers": {
    "addBootstrapNode(string)": "10fd4261",
    "claim()": "4e71d92d",
    "claimRewardForRelayer()": "ed7c4da1",
    "distributeRewardToRelayers(uint64,uint256)": "f9002bb1",
    "join(bytes)": "6170b162",
    "kill()": "41c0e1b5",
    "leave()": "d66d9e19",
    "preFund()": "0b7fbe60",
    "preRelease(uint256)": "66783c9b",
    "setFederatedPowers(address[],bytes[],uint256[])": "2af05ff6",
    "stake()": "3a4b66f1",
    "submitCheckpoint(((uint64,address[]),uint64,bytes32,uint64,bytes32),((((uint64,address[]),(uint8,bytes)),((uint64,address[]),(uint8,bytes)),uint256,uint64,bytes4,bytes,uint256),bool)[],address[],bytes[])": "a8284de3",
    "unstake(uint256)": "2e17de78",
    "validateActiveQuorumSignatures(address[],bytes32,bytes[])": "cc2dc2b9"
  },
  "id": 75
}