{
  "abi": [
    {
      "inputs": [
        {
          "internalType": "address",
          "name": "account",
          "type": "address"
        }
      ],
      "name": "AddressInsufficientBalance",
      "type": "error"
    },
    {
      "inputs": [],
      "name": "AddressShouldBeValidator",
      "type": "error"
    },
    {
      "inputs": [],
      "name": "CannotConfirmFutureChanges",
      "type": "error"
    },
    {
      "inputs": [],
      "name": "CannotReleaseZero",
      "type": "error"
    },
    {
      "inputs": [],
      "name": "CollateralIsZero",
      "type": "error"
    },
    {
      "inputs": [],
      "name": "EmptyAddress",
      "type": "error"
    },
    {
      "inputs": [],
      "name": "FailedInnerCall",
      "type": "error"
    },
    {
      "inputs": [],
      "name": "InvalidCheckpointEpoch",
      "type": "error"
    },
    {
      "inputs": [],
      "name": "InvalidCheckpointMessagesHash",
      "type": "error"
    },
    {
      "inputs": [],
      "name": "InvalidPublicKeyLength",
      "type": "error"
    },
    {
      "inputs": [
        {
          "internalType": "uint8",
          "name": "",
          "type": "uint8"
        }
      ],
      "name": "InvalidSignatureErr",
      "type": "error"
    },
    {
      "inputs": [],
      "name": "NoCollateralToWithdraw",
      "type": "error"
    },
    {
      "inputs": [],
      "name": "NotAllValidatorsHaveLeft",
      "type": "error"
    },
    {
      "inputs": [],
      "name": "NotEnoughBalance",
      "type": "error"
    },
    {
      "inputs": [],
      "name": "NotEnoughCollateral",
      "type": "error"
    },
    {
      "inputs": [],
      "name": "NotEnoughFunds",
      "type": "error"
    },
    {
      "inputs": [],
      "name": "NotGateway",
      "type": "error"
    },
    {
      "inputs": [],
      "name": "NotOwnerOfPublicKey",
      "type": "error"
    },
    {
      "inputs": [],
      "name": "NotStakedBefore",
      "type": "error"
    },
    {
      "inputs": [
        {
          "internalType": "address",
          "name": "",
          "type": "address"
        }
      ],
      "name": "NotValidator",
      "type": "error"
    },
    {
      "inputs": [],
      "name": "PQDoesNotContainAddress",
      "type": "error"
    },
    {
      "inputs": [],
      "name": "PQEmpty",
      "type": "error"
    },
    {
      "inputs": [],
      "name": "ReentrancyError",
      "type": "error"
    },
    {
      "inputs": [],
      "name": "SubnetAlreadyBootstrapped",
      "type": "error"
    },
    {
      "inputs": [],
      "name": "SubnetAlreadyKilled",
      "type": "error"
    },
    {
      "inputs": [],
      "name": "WithdrawExceedingCollateral",
      "type": "error"
    },
    {
      "anonymous": false,
      "inputs": [
        {
          "indexed": false,
          "internalType": "uint64",
          "name": "epoch",
          "type": "uint64"
        },
        {
          "indexed": false,
          "internalType": "address",
          "name": "submitter",
          "type": "address"
        }
      ],
      "name": "BottomUpCheckpointExecuted",
      "type": "event"
    },
    {
      "anonymous": false,
      "inputs": [
        {
          "components": [
            {
              "components": [
                {
                  "internalType": "uint64",
                  "name": "root",
                  "type": "uint64"
                },
                {
                  "internalType": "address[]",
                  "name": "route",
                  "type": "address[]"
                }
              ],
              "internalType": "struct SubnetID",
              "name": "subnetID",
              "type": "tuple"
            },
            {
              "internalType": "uint64",
              "name": "blockHeight",
              "type": "uint64"
            },
            {
              "internalType": "bytes32",
              "name": "blockHash",
              "type": "bytes32"
            },
            {
              "internalType": "uint64",
              "name": "nextConfigurationNumber",
              "type": "uint64"
            },
            {
              "internalType": "bytes32",
              "name": "crossMessagesHash",
              "type": "bytes32"
            }
          ],
          "indexed": false,
          "internalType": "struct BottomUpCheckpoint",
          "name": "checkpoint",
          "type": "tuple"
        },
        {
          "indexed": false,
          "internalType": "address",
          "name": "submitter",
          "type": "address"
        }
      ],
      "name": "BottomUpCheckpointSubmitted",
      "type": "event"
    },
    {
      "anonymous": false,
      "inputs": [
        {
          "indexed": false,
          "internalType": "uint64",
          "name": "epoch",
          "type": "uint64"
        },
        {
          "indexed": false,
          "internalType": "address",
          "name": "submitter",
          "type": "address"
        }
      ],
      "name": "NextBottomUpCheckpointExecuted",
      "type": "event"
    },
    {
      "anonymous": false,
      "inputs": [
        {
          "components": [
            {
              "internalType": "uint256",
              "name": "weight",
              "type": "uint256"
            },
            {
              "internalType": "address",
              "name": "addr",
              "type": "address"
            },
            {
              "internalType": "bytes",
              "name": "metadata",
              "type": "bytes"
            }
          ],
          "indexed": false,
          "internalType": "struct Validator[]",
          "name": "",
          "type": "tuple[]"
        }
      ],
      "name": "SubnetBootstrapped",
      "type": "event"
    },
    {
      "inputs": [
        {
          "internalType": "string",
          "name": "netAddress",
          "type": "string"
        }
      ],
      "name": "addBootstrapNode",
      "outputs": [],
      "stateMutability": "nonpayable",
      "type": "function"
    },
    {
      "inputs": [],
      "name": "claim",
      "outputs": [],
      "stateMutability": "nonpayable",
      "type": "function"
    },
    {
      "inputs": [],
      "name": "claimRewardForRelayer",
      "outputs": [],
      "stateMutability": "nonpayable",
      "type": "function"
    },
    {
      "inputs": [
        {
          "internalType": "uint64",
          "name": "height",
          "type": "uint64"
        },
        {
          "internalType": "uint256",
          "name": "reward",
          "type": "uint256"
        }
      ],
      "name": "distributeRewardToRelayers",
      "outputs": [],
      "stateMutability": "payable",
      "type": "function"
    },
    {
      "inputs": [
        {
          "internalType": "bytes",
          "name": "publicKey",
          "type": "bytes"
        }
      ],
      "name": "join",
      "outputs": [],
      "stateMutability": "payable",
      "type": "function"
    },
    {
      "inputs": [],
      "name": "kill",
      "outputs": [],
      "stateMutability": "nonpayable",
      "type": "function"
    },
    {
      "inputs": [],
      "name": "leave",
      "outputs": [],
      "stateMutability": "nonpayable",
      "type": "function"
    },
    {
      "inputs": [],
      "name": "preFund",
      "outputs": [],
      "stateMutability": "payable",
      "type": "function"
    },
    {
      "inputs": [
        {
          "internalType": "uint256",
          "name": "amount",
          "type": "uint256"
        }
      ],
      "name": "preRelease",
      "outputs": [],
      "stateMutability": "nonpayable",
      "type": "function"
    },
    {
      "inputs": [],
      "name": "stake",
      "outputs": [],
      "stateMutability": "payable",
      "type": "function"
    },
    {
      "inputs": [
        {
          "components": [
            {
              "components": [
                {
                  "internalType": "uint64",
                  "name": "root",
                  "type": "uint64"
                },
                {
                  "internalType": "address[]",
                  "name": "route",
                  "type": "address[]"
                }
              ],
              "internalType": "struct SubnetID",
              "name": "subnetID",
              "type": "tuple"
            },
            {
              "internalType": "uint64",
              "name": "blockHeight",
              "type": "uint64"
            },
            {
              "internalType": "bytes32",
              "name": "blockHash",
              "type": "bytes32"
            },
            {
              "internalType": "uint64",
              "name": "nextConfigurationNumber",
              "type": "uint64"
            },
            {
              "internalType": "bytes32",
              "name": "crossMessagesHash",
              "type": "bytes32"
            }
          ],
          "internalType": "struct BottomUpCheckpoint",
          "name": "checkpoint",
          "type": "tuple"
        },
        {
          "components": [
            {
              "components": [
                {
                  "components": [
                    {
                      "components": [
                        {
                          "internalType": "uint64",
                          "name": "root",
                          "type": "uint64"
                        },
                        {
                          "internalType": "address[]",
                          "name": "route",
                          "type": "address[]"
                        }
                      ],
                      "internalType": "struct SubnetID",
                      "name": "subnetId",
                      "type": "tuple"
                    },
                    {
                      "components": [
                        {
                          "internalType": "uint8",
                          "name": "addrType",
                          "type": "uint8"
                        },
                        {
                          "internalType": "bytes",
                          "name": "payload",
                          "type": "bytes"
                        }
                      ],
                      "internalType": "struct FvmAddress",
                      "name": "rawAddress",
                      "type": "tuple"
                    }
                  ],
                  "internalType": "struct IPCAddress",
                  "name": "from",
                  "type": "tuple"
                },
                {
                  "components": [
                    {
                      "components": [
                        {
                          "internalType": "uint64",
                          "name": "root",
                          "type": "uint64"
                        },
                        {
                          "internalType": "address[]",
                          "name": "route",
                          "type": "address[]"
                        }
                      ],
                      "internalType": "struct SubnetID",
                      "name": "subnetId",
                      "type": "tuple"
                    },
                    {
                      "components": [
                        {
                          "internalType": "uint8",
                          "name": "addrType",
                          "type": "uint8"
                        },
                        {
                          "internalType": "bytes",
                          "name": "payload",
                          "type": "bytes"
                        }
                      ],
                      "internalType": "struct FvmAddress",
                      "name": "rawAddress",
                      "type": "tuple"
                    }
                  ],
                  "internalType": "struct IPCAddress",
                  "name": "to",
                  "type": "tuple"
                },
                {
                  "internalType": "uint256",
                  "name": "value",
                  "type": "uint256"
                },
                {
                  "internalType": "uint64",
                  "name": "nonce",
                  "type": "uint64"
                },
                {
                  "internalType": "bytes4",
                  "name": "method",
                  "type": "bytes4"
                },
                {
                  "internalType": "bytes",
                  "name": "params",
                  "type": "bytes"
                },
                {
                  "internalType": "uint256",
                  "name": "fee",
                  "type": "uint256"
                }
              ],
              "internalType": "struct StorableMsg",
              "name": "message",
              "type": "tuple"
            },
            {
              "internalType": "bool",
              "name": "wrapped",
              "type": "bool"
            }
          ],
          "internalType": "struct CrossMsg[]",
          "name": "messages",
          "type": "tuple[]"
        },
        {
          "internalType": "address[]",
          "name": "signatories",
          "type": "address[]"
        },
        {
          "internalType": "bytes[]",
          "name": "signatures",
          "type": "bytes[]"
        }
      ],
      "name": "submitCheckpoint",
      "outputs": [],
      "stateMutability": "nonpayable",
      "type": "function"
    },
    {
      "inputs": [
        {
          "internalType": "uint256",
          "name": "amount",
          "type": "uint256"
        }
      ],
      "name": "unstake",
      "outputs": [],
      "stateMutability": "nonpayable",
      "type": "function"
    },
    {
      "inputs": [
        {
          "internalType": "address[]",
          "name": "signatories",
          "type": "address[]"
        },
        {
          "internalType": "bytes32",
          "name": "hash",
          "type": "bytes32"
        },
        {
          "internalType": "bytes[]",
          "name": "signatures",
          "type": "bytes[]"
        }
      ],
      "name": "validateActiveQuorumSignatures",
      "outputs": [],
      "stateMutability": "view",
      "type": "function"
    }
  ],
  "bytecode": {
    "object": "0x60808060405234610016576140ef908161001c8239f35b600080fdfe608080604052600436101561001357600080fd5b600090813560e01c9081630b7fbe60146112785750806310fd42611461111d5780632e17de78146110f85780633a4b66f1146110dc57806341c0e1b5146110425780634e71d92d14610eb65780636170b1621461092557806366783c9b14610844578063a8284de31461027f578063cc2dc2b914610202578063d66d9e19146101bf578063ed7c4da11461010b5763f9002bb1146100b057600080fd5b6040366003190112610108576004356001600160401b0381168103610103576009546001600160a01b031633036100f1576100ee9060243590613b34565b80f35b60405163e7e601db60e01b8152600490fd5b600080fd5b80fd5b503461010857806003193601126101085760008051602061409a83398151915260018154146101ad5780600183925573__$4a8700ca5e162cb61a0c4650a4871f1ad5$__803b156101a95782602491604051928380926382985e0b60e01b82523360048301525af490811561019e578391610187575b50505580f35b6101909061133f565b61019b578138610181565b50fd5b6040513d85823e3d90fd5b5050fd5b6040516329f745a760e01b8152600490fd5b50346101085780600319360112610108576101d8613606565b60008051602061409a83398151915260018154146101ad578060018392556101fe61395a565b5580f35b5034610108576060366003190112610108576001600160401b0360043581811161027b573660238201121561027b5761024590369060248160040135910161146c565b60443591821161027b573660238301121561027b576102716100ee9236906024816004013591016114c2565b9060243590613c0c565b8280fd5b5034610108576080366003190112610108576001600160401b03600435116101085760a060043536036003190112610108576024356001600160401b038111610840576102d0903690600401611411565b91906044356001600160401b03811161027b576102f1903690600401611411565b6064356001600160401b0381116106b857610310903690600401611411565b9261031f602460043501611555565b926001600160401b03600554166001600160401b0360075416946001600160401b038061034c8885611597565b169116141580610820575b61080e576040516020810190602082526103888161037a8d60408301908d611713565b03601f19810183528261139e565b51902060846004350135036107fc576040516020808201526103b68161037a60408201600435600401611847565b60208151910120946001600160401b03806103df6103d8602460043501611555565b9385611597565b169116146000146106bc5750916104006104089261040e969594369161146c565b9336916114c2565b91613c0c565b6001600160401b03610424602460043501611555565b168252816020526040822092600435600401356042196004353603018112156106b457600435016001600160401b0361045f60048301611555565b166001600160401b0319865416178555602481013590602219813603018212156106b85701936001600160401b036004860135116106b457600485013560051b360360248601136106b457600160401b6004860135116106a05760019485820180546004830135825580600484013510610681575b506024820190865260208620865b600484013581106106595750505050839450600281016001600160401b0361050e602460043501611555565b166001600160401b03198254161790556044600435013560038201556001600160401b03610540606460043501611555565b1660048201906001600160401b03198254161790556005608460043501359101556001600160401b03610577602460043501611555565b168352601d60205261058d6040842033906119a8565b506001600160401b036105a4602460043501611555565b166001600160401b0319600554161760055560018060a01b036009541691823b156106545761060e92849283604051809681958294637a2b59cf60e11b8452604060048501526105fc60448501600435600401611847565b84810360031901602486015291611713565b03925af1801561064957610635575b50506100ee610630606460043501611555565b611c22565b61063e9061133f565b61010857803861061d565b6040513d84823e3d90fd5b505050fd5b82356001600160a01b038116810361067d57828201556020929092019188016104e2565b8880fd5b8187526020872061069a918101906004850135016118a6565b386104d4565b634e487b7160e01b84526041600452602484fd5b8380fd5b8480fd5b9550505050929350506001600160401b036106db602460043501611555565b16146106e6575b5080f35b6001600160401b036106fc602460043501611555565b168252816020526040822060405160208101916020835260a06040830152816101208101916001600160401b0381541660e0830152600190818101916040610100850152825480955261014084019289526020892090895b8681106107db5750505060028101546001600160401b0390811660608501526003820154608085015260048201541660a08401526005015460c083015203601f19810183526107a491508261139e565b519020146107af5780f35b6001600160401b036107c5602460043501611555565b168152601d6020526106e26040822033906119a8565b82546001600160a01b03168552879550602090940193918101918101610754565b604051632d7f750360e21b8152600490fd5b60405163fae4eadb60e01b8152600490fd5b50806001600160401b03610838602460043501611555565b161415610357565b5080fd5b50346101085760203660031901126101085760043560008051602061409a83398151915260018154146101ad576001815581156109135760ff600d5460081c16610901573383526003602052816040842054106108ef576101fe83923384526003602052604084206108b7828254611fb6565b90556108c581600254611fb6565b60025533845260036020526040842054156108e1575b33613132565b6108ea33613f92565b6108db565b60405163569d45cf60e11b8152600490fd5b604051631b39f2f360e11b8152600490fd5b604051631036b5ad60e31b8152600490fd5b50602036600319011261010857600435906001600160401b0382116101085736602383011215610108576001600160401b03826004013511610108576024368184600401358501011161084057600160008051602061409a83398151915254146101ad57600160008051602061409a833981519152556109a3613606565b3415610ea45760418360040135148015610e92576109c090612fed565b8260040135600111610840576109e236600485013560001901602586016113da565b80516020909101206001600160a01b03163303610e8057600d5460081c60ff16610c725733600090815260106020526040902060029390840190610a348160040135610a2e8454611a2d565b84611afd565b83601f826004013511600114610bfc578385918360040135610bef575b5050816004013560011b91600019906004013560031b1c19161790555b610a7834336131e7565b600f54600654811015610a9f575b505090505b8060008051602061409a8339815191525580f35b61ffff601154166001600160401b0360075460401c1611610a865761010061ff0019600d541617600d556040519360208501602086526001548091526040860160408260051b88010191600187527fb10e2d527612073b26eecdfd717e6a320cf44b4afac2b0732d9fcbe2b7fa0cf69187905b828210610ba457505050508585967f4914d88063275a25a13b2df37125e216745d812f94c56504be4bd78cf60c9593920390a1610b5c60018060a01b036009541691548093611f36565b92813b156106b85784926040519485938492637903ab2760e11b845260048401525af1801561064957610b90575b80610a86565b610b999061133f565b610108578038610b8a565b9091929360206003610be16001938d603f1990820301865288548152848060a01b03858a0154168482015260609081604082015201898901611a67565b960192019201909291610b12565b8301013590508338610a51565b828552602085208592916004830135601f19165b808510610c555760019450836004013511610c36575b505060040135811b019055610a6e565b8201850135600019600484013560031b60f8161c191690553880610c26565b838201870135835560209485019460019093019290910190610c10565b610c833684600401358386016113da565b926001600160401b0360175416604051610c9c81611383565b600281526020810195865233604082015281600052601860205260406000209581516003811015610e6b5760ff80198954169116178755519586516001600160401b038111610e5657610cff81610cf66001850154611a2d565b60018501611afd565b6020601f8211600114610dd45790806002939260008051602061407a833981519152999a600092610dc9575b50508160011b916000199060031b1c19161760018201555b0190604060018060a01b03910151166001600160601b0360a01b8254161790556001600160401b03610d7482611569565b166001600160401b03196017541617601755610db16040519384936002855233602086015260806040860152608085019181600401359101611689565b9060608301520390a1610dc434336133fc565b610a8b565b015190503880610d2b565b6001830160005260206000209860005b601f1984168110610e3e57509160008051602061407a83398151915298996001926002959483601f19811610610e25575b505050811b016001820155610d43565b015160001960f88460031b161c19169055388080610e15565b828201518b556001909a019960209283019201610de4565b85634e487b7160e01b60005260416004526000fd5b85634e487b7160e01b60005260216004526000fd5b604051634be9251d60e11b8152600490fd5b6040516318dca5e960e21b8152600490fd5b604051635a78c58160e11b8152600490fd5b503461010857806003193601126101085760019060008051602061409a833981519152828154146101ad57828155336000908152601a602052604090209283549061ffff9081831692831561103057829060101c16918391808795818a01915b610faa575b50505086610f8c937f197c586353eaed0a1c53e6e540445b94befab8f932c8115d112115ecbeeed514959363ffff000093899a54911693849260101b169063ffffffff19161717905515610f93575b610f748133613132565b60408051338152602081019290925290918291820190565b0390a15580f35b336000908152601a60205260409020859055610f6a565b9091939483811696828810156110275787600052602080918582526040600020604051610fd681611368565b8982549283835201549384910152431061101c5785949388968894610ffd86958a95611f36565b9c60005252600082604082208281550155011696600019011694610f16565b985050509493610f1b565b96509493610f1b565b6040516364b0557f60e01b8152600490fd5b503461010857806003193601126101085761105b613606565b61ffff6110718160145416826011541690611f56565b166110ca57600d805462ff000019166201000017905560095481906001600160a01b0316803b1561019b5781906004604051809481936341c0e1b560e01b83525af18015610649576110c1575080f35b6100ee9061133f565b604051636b62255160e11b8152600490fd5b5080600319360112610108576110f0613606565b6100ee613627565b503461010857602036600319011261010857611112613606565b6100ee600435613679565b50346101085760209081600319360112610108576001600160401b039160043583811161027b573660238201121561027b576111639036906024816004013591016113da565b923383526012825261ffff604084205416156112605783511561124e57338352601e8252604083209184519182116106a0576111a9826111a38554611a2d565b85611afd565b80601f83116001146111ea57508394829394926111df575b50508160011b916000199060031b1c19161790555b6106e233611941565b0151905038806111c1565b90601f198316958486528286209286905b8882106112365750508360019596971061121d575b505050811b0190556111d6565b015160001960f88460031b161c19169055388080611210565b806001859682949686015181550195019301906111fb565b604051637138356f60e01b8152600490fd5b604051633b4f6e2b60e21b8152336004820152602490fd5b905081600319360112610840573415611330575060ff600d5460081c166109015733815260036020526040812054156112d7575b3381526003602052604081206112c3348254611f36565b90556112d134600254611f36565b60025580f35b600454600160401b81101561131c576112f981600161131793016004556118bd565b81546001600160a01b0360039290921b91821b19163390911b179055565b6112ac565b634e487b7160e01b82526041600452602482fd5b631036b5ad60e31b8152600490fd5b6001600160401b03811161135257604052565b634e487b7160e01b600052604160045260246000fd5b604081019081106001600160401b0382111761135257604052565b606081019081106001600160401b0382111761135257604052565b90601f801991011681019081106001600160401b0382111761135257604052565b6001600160401b03811161135257601f01601f191660200190565b9291926113e6826113bf565b916113f4604051938461139e565b829481845281830111610103578281602093846000960137010152565b9181601f84011215610103578235916001600160401b038311610103576020808501948460051b01011161010357565b6001600160401b0381116113525760051b60200190565b35906001600160a01b038216820361010357565b929161147782611441565b91611485604051938461139e565b829481845260208094019160051b810192831161010357905b8282106114ab5750505050565b8380916114b784611458565b81520191019061149e565b929190926114cf84611441565b916114dd604051938461139e565b829480845260208094019060051b8301928284116101035780915b84831061150757505050505050565b82356001600160401b03811161010357820184601f8201121561010357869161153686838580953591016113da565b8152019201916114f8565b35906001600160401b038216820361010357565b356001600160401b03811681036101035790565b9060016001600160401b038093160191821161158157565b634e487b7160e01b600052601160045260246000fd5b9190916001600160401b038080941691160191821161158157565b9035603e1982360301811215610103570190565b6001600160401b03919060408201836115de83611541565b16835260209182810135601e19823603018112156101035701928284359401948411610103578360051b36038513610103576040818401529083905260600192919060005b828110611631575050505090565b909192938280600192838060a01b0361164989611458565b16815201950193929101611623565b9035601e19823603018112156101035701602081359101916001600160401b03821161010357813603831361010357565b908060209392818452848401376000828201840152601f01601f1916010190565b6116d36116c86116ba83806115b2565b6040855260408501906115c6565b9160208101906115b2565b91602081830391015281359160ff8316809303610103576117006040916117109484526020810190611658565b9190928160208201520191611689565b90565b90918092808252602080920191808260051b86010194846000915b84831061173f575050505050505090565b90919293949596601f1982820301875261175988846115b2565b90813560de19833603018112156101035782019160409081835261177d84806115b2565b61179360e09182858701526101208601906116aa565b926117a08a8701876115b2565b6001600160401b036117d56117c3603f1997606094898b830301868c01526116aa565b926080948a0135858a01528901611541565b169160a092838801528701359263ffffffff60e01b8416809403610103578b9561180b61181b9460c096878b01528a018a611658565b9290918985030190890152611689565b94013561010084015201359081151580920361010357860152968401958401949392600101919061172e565b9060808061186661185885806115b2565b60a0855260a08501906115c6565b936001600160401b038061187c60208401611541565b1660208601526040820135604086015261189860608301611541565b166060850152013591015290565b8181106118b1575050565b600081556001016118a6565b6004548110156118f45760046000527f8a35acfbc15ff81a39ae7d344fd709f28e8600b4aa8c65c6b64bfe7fe36bd19b0190600090565b634e487b7160e01b600052603260045260246000fd5b601f548110156118f457601f6000527fa03837a25210ee280c2113ff4b77ca23440b19d4866cca721c801278fd08d8070190600090565b60008181526020805260408120546119a357601f54600160401b81101561131c57908261199061197984600160409601601f5561190a565b819391549060031b91821b91600019901b19161790565b9055601f54928152602080522055600190565b905090565b91906001830160009082825280602052604082205415600014611a2757845494600160401b861015611a1357600186018082558610156119ff57836040949596828552602085200155549382526020522055600190565b634e487b7160e01b83526032600452602483fd5b634e487b7160e01b83526041600452602483fd5b50925050565b90600182811c92168015611a5d575b6020831014611a4757565b634e487b7160e01b600052602260045260246000fd5b91607f1691611a3c565b9060009291805491611a7883611a2d565b918282526001938481169081600014611ada5750600114611a9a575b50505050565b90919394506000526020928360002092846000945b838610611ac6575050505001019038808080611a94565b805485870183015294019385908201611aaf565b9294505050602093945060ff191683830152151560051b01019038808080611a94565b9190601f8111611b0c57505050565b611b38926000526020600020906020601f840160051c83019310611b3a575b601f0160051c01906118a6565b565b9091508190611b2b565b90808214611c1e57611b568154611a2d565b906001600160401b038211611352578190611b7b82611b758654611a2d565b86611afd565b600090601f8311600114611bb257600092611ba7575b50508160011b916000199060031b1c1916179055565b015490503880611b91565b81526020808220858352818320935090601f1985169083905b828210611c05575050908460019594939210611bec575b505050811b019055565b015460001960f88460031b161c19169055388080611be2565b8495819295850154815560018091019601940190611bcb565b5050565b6017546001600160401b0382811692908083168410611c4d5760405163040aaa0560e11b8152600490fd5b808360401c168410611a945780604093841c165b848282161115611cc857505091602091611c9b7f246f00b61ce672242f33bb680a47147cd54d3dfd04dbb76956ba42f88087bf6394611569565b67ffffffffffffffff60401b60175491831b169067ffffffffffffffff60401b19161760175551908152a1565b611ce5816001600160401b03166000526018602052604060002090565b60028181015482546001600160a01b03949293918516919060ff166003811015611f21578695818603611d775750506001600160a01b039091166000908152601060205260409020611d3c91600101908401611b44565b611d59816001600160401b03166000526018602052604060002090565b91600090818455600193611d6e858201611fc3565b01550116611c61565b919394955091885193611d9985611d92816001809501611a67565b038661139e565b602080868051810103126101035781818c9701519514600014611ed6578490611dc2828561200c565b601954611dcf9043611f36565b92875190611ddc82611368565b8482528282018481526001600160a01b0387166000908152601a602052604090209091909283549161ffff9384848180961695869160101c1690611e1f91611f56565b169c60009d8e5282870188528d209251835551910155611e3e90611f43565b1661ffff198254161790558b519384528301528982015260607f083b080788e20bd0930c2bca2ae4fbc51a59ced08c1b5992271f8cb439498a6391a16009541690813b1561027b578291602483928a5195869384926345f5448560e01b845260048401525af1908115611ecb57509084939291611ebc575b50611d3c565b611ec59061133f565b38611eb6565b8751903d90823e3d90fd5b505082935091611ee69192611f6c565b6009541690813b15610103578651916316989f6f60e21b83528260048160009485945af1908115611ecb57509084939291611ebc5750611d3c565b60246000634e487b7160e01b81526021600452fd5b9190820180921161158157565b90600161ffff8093160191821161158157565b91909161ffff8080941691160191821161158157565b90611b3891611fae60018060a01b03821692836000526010602052611f9681604060002054611f36565b93600052601060205283604060002055600f54611f36565b600f5561208f565b9190820391821161158157565b611fcd8154611a2d565b9081611fd7575050565b81601f60009311600114611fe9575055565b908083918252612008601f60208420940160051c8401600185016118a6565b5555565b906120706120789260018060a01b0381169060008281526010602052612036856040832054611fb6565b9281526010602052604081206001810184815481159081612086575b501561207d5750908260029261206b9483555501611fc3565b6123fc565b600f54611fb6565b600f55565b925050556123fc565b90501538612052565b919060018060a01b03928381169360008581526020956012875261ffff916040978389832054166122e05783600e54168460115416106122ac57866120d2612a2d565b919091106122265750828252601581528389832054166121455750505050506121407f19fe3ca603e87854a0747cc10abf06bac64d61bac73d6d15f2fd3ca448f1526493946121208361272a565b516001600160a01b03909216825260208201929092529081906040820190565b0390a1565b61215486959994989796612f44565b92825260109081815284832054935b6001808b831611156121f05781617fff911c1690818552601683528b87862054168552838352858786205410156121a35761219e90826130a3565b612163565b505093516001600160a01b0390951685525050505060208101919091529092507fda148fac2e1063174be7bc0895576bdaba90fd14e575463fa26a967cb895cadd91508060408101612140565b50505050505061214091929395507fda148fac2e1063174be7bc0895576bdaba90fd14e575463fa26a967cb895cadd9450612120565b9596506121409450906015899493927ffaeb8de771b867cf357f6b459a7002b62ec45d544a8078a3ecd91200cc826d75999a93612261612bfc565b83525220541661229e575b61227584612b8a565b61227e8361272a565b516001600160a01b03928316815292909116602083015281906040820190565b6122a784612917565b61226c565b50505050506121407f2e8038f5812f763c6ef0c5427cb5a05ce6d7064af2ba7d1d270bc02660b019fd939461212083612b8a565b6122f1869598979699949399612f0d565b98825260109081815284832054986123088b612b19565b8560115416905b8681168281116123c457828110156123a757508061232f61233592611f43565b90612ebb565b9c909c5b8c11156123585761234a908d61300a565b6123538c612b19565b61230f565b505094516001600160a01b0390961686525050505060208201929092529193507f143db27bc2036653dc6f962ff9d0b803163d4af50c256ca9e6927b3d6dcd0197925081905060408101612140565b869d919d5260138452828887205416865284845287862054612339565b505050505050505061214091929395507f143db27bc2036653dc6f962ff9d0b803163d4af50c256ca9e6927b3d6dcd01979450612120565b9160018060a01b0392838116926000918483526020946015865261ffff906040948286822054166125eb5781815260128852828682205416156125da5784156125555761244884612f0d565b918152601080895286822054925b60018086831611156125445781617fff911c169081845260138b528b89852054168452828b528489852054111561249657612491908261300a565b612456565b5050505050919395509193505b601454161561253f576124b4612a2d565b906124bd612a77565b90921061250657505091516001600160a01b03909216825260208201527f143db27bc2036653dc6f962ff9d0b803163d4af50c256ca9e6927b3d6dcd0197908060408101612140565b915091506121407ffaeb8de771b867cf357f6b459a7002b62ec45d544a8078a3ecd91200cc826d7593612537612bfc565b61226c6127b0565b505050565b5050505050919395509193506124a3565b5091612588919597507f4a4c5d1a281180eea1e99d8177fa4798b9f7e019d5c57e7d8d73c6a22199aa5b94969350612d45565b8451908152a1601454166125995750565b6121407f2e8038f5812f763c6ef0c5427cb5a05ce6d7064af2ba7d1d270bc02660b019fd916125c6612a77565b9290916125d16127b0565b61212083612b8a565b8551632a55ca5360e01b8152600490fd5b909395968698939598156126f1579261fffe92949361260987612f44565b9483526010918282528a8420549580976001968792831b168160145416925b61267d575b50509a516001600160a01b039098168852505050506020840194909452509293507fda148fac2e1063174be7bc0895576bdaba90fd14e575463fa26a967cb895cadd925090508060408101612140565b8181168381116126eb578e90808511156126cf575050806126a06126a692611f43565b90612b30565b9990995b8910156126ca576126bb908a6130a3565b6126c489612b19565b87612628565b61262d565b885260168652872054841687528585528d8720549099906126aa565b5061262d565b955050505090936127237f3168ba660eed6ef1dc2258b2247cc05fd0f2f350d39e6ad2e2ebc76a8000b40b9495612917565b51908152a1565b611b3890604061ffff6127408160145416611f43565b9260018060a01b031660009181835260156020528383209085169061ffff199082828254161790558184526016602052848420836001600160601b0360a01b825416179055601454161760145581526010602052205490612ac1565b61ffff908116600019019190821161158157565b61ffff806014541680156129055760016127cc82821115612fed565b6000818152601660208181526040808420805487865282862080546001600160a01b0392831680895260158752858920805461ffff199081168d17909155918416808a52868a20805484168c17905588885283546001600160a01b03199081169092179093558989528454169091179092559396919493929161286291896128538361279c565b16906014541617601455612f69565b8483528581528184842054168352601091828252848420549686809960028160145416925b61289a575b505050505050505050505050565b8181168381116128ff57838110156128e35750806126a06128ba92611f43565b9b909b5b8b10156128de576128cf908c6130a3565b6128d88b612b19565b89612887565b61288c565b889c919c528386528489892054168852868652888820546128be565b5061288c565b6040516340d9b01160e01b8152600490fd5b61292090612f44565b61ffff80601454169061293382846130a3565b8061293d8361279c565b1661ffff19601454161760145561295382612f69565b80831680921461253f57919061fffe906000818152601691602083815260018060a01b036040948186862054168552601093848452612995878720548a612ac1565b85528083528186862054168552838352858520549780996001988992831b168160145416925b6129cd57505050505050505050505050565b8181168381116128ff5783811015612a115750806126a06129ed92611f43565b9b909b5b8b10156128de57612a02908c6130a3565b612a0b8b612b19565b896129bb565b889c919c528386528489892054168852868652888820546129f1565b61ffff6011541615612905577f4155c2f711f2cdd34f8262ab8fb9b7020a700fe7b6948222152f7670d1fdf34d546001600160a01b03166000818152601060205260409020549091565b61ffff6014541615612905577f4c4dc693d7db52f85fe052106f4b4b920e78e8ef37dee82878a60ab8585faf49546001600160a01b03166000818152601060205260409020549091565b9190915b60018061ffff83161115612b135781617fff911c169083600083815260209060168252601060409260018060a01b03848420541683525220541015612b1357612b0e90826130a3565b612ac5565b50509050565b60011b906201fffe61fffe83169216820361158157565b91909161ffff92604060008584168152601660205260018060a01b03808383205416825260106020528282205496841682526016602052828220541681526010602052205490818510612b835750509190565b9350919050565b611b3890604061ffff612ba08160115416611f43565b9260018060a01b031660009181835260126020528383209085169061ffff199082828254161790558184526013602052848420836001600160601b0360a01b825416179055601154161760115581526010602052205490612e69565b61ffff80601154168015612905576001612c1882821115612fed565b6000818152601360208181526040808420805487865282862080546001600160a01b0392831680895260128752858920805461ffff199081168d17909155918416808a52868a20805484168c17905588885283546001600160a01b031990811690921790935589895284541690911790925593969194939291612cae9189612c9f8361279c565b16906011541617601155612fab565b8483528581528184842054168352601091828252848420549686809960028160115416925b612ce557505050505050505050505050565b8181168381116128ff5783811015612d2957508061232f612d0592611f43565b9b909b5b8b11156128de57612d1a908c61300a565b612d238b612b19565b89612cd3565b889c919c52838652848989205416885286865288882054612d09565b612d4e90612f0d565b9061ffff90816011541691612d63838561300a565b80612d6d8461279c565b1661ffff196011541617601155612d8383612fab565b808416809314612e635760009280845260139360209185835260018060a01b03926040938085852054168452601092838352612dc2868620548b612e69565b845287825280858520541684528282528484205497612de08a612b19565b8760115416905b888116828111612e545782811015612e3857508061232f612e0792611f43565b9b909b5b8b1115612e2a57612e1c908c61300a565b612e258b612b19565b612de7565b505050505050505050915050565b879c919c52828552838888205416875285855287872054612e0b565b50505050505050505050915050565b50915050565b9190915b60018061ffff83161115612b135781617fff911c169083600083815260209060138252601060409260018060a01b03848420541683525220541115612b1357612eb6908261300a565b612e6d565b919061ffff604060008286168152601360205260018060a01b0380838320541682526010602052828220549385168252601360205282822054168152601060205220549384821115612b835750509190565b6001600160a01b031660009081526012602052604090205461ffff16908115612f3257565b60405163f2755e3760e01b8152600490fd5b6001600160a01b031660009081526015602052604090205461ffff16908115612f3257565b61ffff16600090815260166020908152604080832080546001600160a01b031981169091556001600160a01b0316835260159091529020805461ffff19169055565b61ffff16600090815260136020908152604080832080546001600160a01b031981169091556001600160a01b0316835260129091529020805461ffff19169055565b15612ff457565b634e487b7160e01b600052600160045260246000fd5b61302f61ffff80806011541693169361302584861115612fed565b1691821115612fed565b6000828152601360208181526040808420805486865282862080546001600160a01b0392831680895260128752858920805461ffff19908116909b1790559216808852938720805490981689179097559390925284546001600160a01b031990811690931790945593909152825416179055565b6130be61ffff80806014541693169361302584861115612fed565b6000828152601660208181526040808420805486865282862080546001600160a01b0392831680895260158752858920805461ffff19908116909b1790559216808852938720805490981689179097559390925284546001600160a01b031990811690931790945593909152825416179055565b814710613194576000918291829182916001600160a01b03165af13d1561318f573d61315d816113bf565b9061316b604051928361139e565b8152600060203d92013e5b1561317d57565b604051630a12f52160e11b8152600490fd5b613176565b60405163cd78605960e01b8152306004820152602490fd5b6001548110156118f4576003906001600052027fb10e2d527612073b26eecdfd717e6a320cf44b4afac2b0732d9fcbe2b7fa0cf60190600090565b906131fc906131f681846133d5565b82611f6c565b60ff600d5460081c161561320d5750565b60018054600082815b8381106133a4575b50501561322a57505050565b6001600160a01b0383166000908152601060205260409020805461327e9490916002016040519261325a84611383565b83526020936132858585019260018060a01b03809516845260405198898092611a67565b038861139e565b60408401968752600160401b8110156113525780866132a6920187556131ac565b92909261338e576002935183558583019151166001600160601b0360a01b825416179055019251908151916001600160401b038311611352576132f3836132ed8754611a2d565b87611afd565b81601f841160011461332c5750928293918392600094613321575b50501b916000199060031b1c1916179055565b01519250388061330e565b919083601f1981168760005284600020946000905b88838310613374575050501061335b57505050811b019055565b015160001960f88460031b161c19169055388080611be2565b858701518855909601959485019487935090810190613341565b634e487b7160e01b600052600060045260246000fd5b816133ae826131ac565b5001546001600160a01b038781169116146133cb57018390613216565b509050823861321e565b60018060a01b031660005260106020526133f86001604060002001918254611f36565b9055565b919060409283516020838183015280825261341682611368565b6001600160401b0380601754169187519761343089611383565b600092838a52828a0199868b528281019060018060a01b0390818a169c8d845288885260188752858820915160038110156135f25760ff8019845416911617825560018083019151908151918783116135de5761349183611b758654611a2d565b89908b601f85116001146135705793600295938193829360809d9c9b9a999794613565575b50501b916000199060031b1c19161790555b019151166001600160601b0360a01b8254161790556134e686611569565b166001600160401b03196017541617601755805199848b52838b01528901528351938460808a0152825b858110613551575050508683819360a0938460008051602061407a83398151915297611b389b9c0101526060830152601f80199101168101030190a16133d5565b8181018301518a820160a001528201613510565b0151925038806134b6565b50848c528a8c209293929190601f1984168d5b8d8282106135ca5750509160809b9a999897959391856002989694106135b1575b505050811b0190556134c8565b015160001960f88460031b161c191690553880806135a4565b838501518655948701949384019301613583565b634e487b7160e01b8b52604160045260248bfd5b634e487b7160e01b89526021600452602489fd5b60ff600d5460101c1661361557565b60405163248c8efb60e11b8152600490fd5b3415610ea45733600090815260106020526040902060010154156136675760ff600d5460081c161561365d57611b3834336133fc565b611b3834336131e7565b60405163528fc16560e01b8152600490fd5b80156136e057336000908152601060205260409020600101548015611260578110156136cf5760ff600d5460081c16156136b757611b389033613745565b806136c5611b3892336136f2565b6108db813361200c565b60405162d11df360e61b8152600490fd5b60405163c79cad7b60e01b8152600490fd5b6001600160a01b031660008181526010602052604090206001015490918082106137335761371f91611fb6565b906000526010602052600160406000200155565b60405163ac69360360e01b8152600490fd5b9190604051928160208501526020845261375e84611368565b6001600160401b038060175416906040519161377983611383565b60018352602083019187835260018060a01b0393848616604082015260009383855260186020526040852090825160038110156139465760ff80198454169116178255518051848111613932579082916001899401916137dd826111a38554611a2d565b602090601f83116001146138c557918060029492604096948c926138ba575b50508160011b916000199060031b1c19161790555b01920151166001600160601b0360a01b82541617905561383082611569565b166001600160401b0319601754161760175560405192600184528416602084015260806040840152865191826080850152805b8381106138a45750611b38969750928260a09260008051602061407a83398151915295848496850101526060830152601f80199101168101030190a16136f2565b80602080928b01015160a0828801015201613863565b0151905038806137fc565b838a5260208a209190601f1984168b5b81811061391757509260019285926040989660029896106138fe575b505050811b019055613811565b015160001960f88460031b161c191690553880806138f1565b8284015185558d9850600190940193602093840193016138d5565b634e487b7160e01b87526041600452602487fd5b634e487b7160e01b87526021600452602487fd5b3360009081526010602052604090206001015480156112605761397c33613a39565b50600090338252601e60205281604081206139978154611a2d565b806139fc575b50505060ff600d5460081c16156139b957611b38915033613745565b6040611b389233815260036020522054806139da575b506136c581336136f2565b806139ea6139f692600254611fb6565b6002556108db33613f92565b386139cf565b82601f8211600114613a14575050555b81388061399d565b9091808252613a32601f60208420940160051c8401600185016118a6565b5555613a0c565b600081815260208080526040822054919290918015613b1a5760001990808201818111613b0657601f5490838201918211613af257808203613ac0575b505050601f548015613aac57810190613a8e8261190a565b909182549160031b1b19169055601f55825280526040812055600190565b634e487b7160e01b85526031600452602485fd5b613ade613acf6119799361190a565b90549060031b1c92839261190a565b905585528380526040852055388080613a76565b634e487b7160e01b87526011600452602487fd5b634e487b7160e01b86526011600452602486fd5b50505090565b80518210156118f45760209160051b010190565b8115611c1e576001600160401b03908180600754169116039080821161158157600091168152602090601d8252604090818120928251808583829754938481520190855283852092855b85828210613bf657505050613b959250038561139e565b8351948515613bee57858110613bee5785900493825b868110613bbb5750505050505050565b6001906001600160a01b03613bd08285613b20565b51168552601c8452858520613be6888254611f36565b905501613bab565b505050505050565b855484526001958601958a955093019201613b7e565b91825191613c1983611441565b93604094613c298651918261139e565b848152601f19613c3886611441565b0194602095368784013760005b818110613d2a57505060009461ffff8060115416600192839182945b613cd4575b505050505060ff60095460a01c1694858102958187041490151715611581576064613c92950491613db7565b9015613c9c575050565b6007811015613cbe5760ff602492519163282ef1c160e01b8352166004820152fd5b634e487b7160e01b600052602160045260246000fd5b90919293988a858b16838111613d2257600090815260138552908120546001600160a01b031681526010602052604090208493929186918591613d18915490611f36565b9b01169493613c61565b505098613c66565b6001600160a01b0380613d3d8387613b20565b51166000526012885261ffff89600020541615613d935790613d81600192613d658388613b20565b51166001600160a01b0316600090815260106020526040902090565b54613d8c8286613b20565b5201613c45565b8890613da160249387613b20565b519151633b4f6e2b60e21b815291166004820152fd5b84519294600094908415613eb95782518514801590613eae575b613ea1579392919085945b848610613dff575050505050501015613df757600090600690565b600190600090565b909192939495613e19613e128884613b20565b5184613ec6565b509060049182811015613e8c57613e7a576001600160a01b0380613e3d8b89613b20565b5116911603613e6a5750613e5e600191613e578988613b20565b5190611f36565b96019493929190613ddc565b9897505050505050505060009190565b50505050505050505050600090600590565b602183634e487b7160e01b6000525260246000fd5b5050505050905090600190565b508351851415613dd1565b5050505050905090600290565b8151919060418303613ef757613ef092506020820151906060604084015193015160001a90613f02565b9192909190565b505060009160029190565b91907f7fffffffffffffffffffffffffffffff5d576e7357a4501ddfe92f46681b20a08411613f8657926020929160ff608095604051948552168484015260408301526060820152600092839182805260015afa15613f7a5780516001600160a01b03811615613f7157918190565b50809160019190565b604051903d90823e3d90fd5b50505060009160039190565b60049081549160005b838110613fa85750505050565b613fb1816118bd565b90546003916001600160a01b039190831b1c811685821614613fd7575050600101613f9b565b929350939060001991828101908111614064579061400884613ffb614027946118bd565b905490891b1c16916118bd565b90919082549060031b9160018060a01b03809116831b921b1916179055565b8254801561404f57019261403a846118bd565b81939154921b1b191690555538808080611a94565b603184634e487b7160e01b6000525260246000fd5b601185634e487b7160e01b6000525260246000fdfe1c593a2b803c3f9038e8b6743ba79fbc4276d2770979a01d2768ed12bea3243f691bb03ffc16c56fc96b82fd16cd1b3715f0bc3cdc6407005f49bb6205860095a264697066735822122073eec4495eb66b870d7281eb947334c2a1e587f834cf16d4a6c595ea98e80dd464736f6c63430008130033",
    "linkReferences": {
      "src/lib/LibStaking.sol": {
        "LibStaking": [
          {
            "start": 344,
            "length": 20
          }
        ]
      }
    }
  },
  "methodIdentifiers": {
    "addBootstrapNode(string)": "10fd4261",
    "claim()": "4e71d92d",
    "claimRewardForRelayer()": "ed7c4da1",
    "distributeRewardToRelayers(uint64,uint256)": "f9002bb1",
    "join(bytes)": "6170b162",
    "kill()": "41c0e1b5",
    "leave()": "d66d9e19",
    "preFund()": "0b7fbe60",
    "preRelease(uint256)": "66783c9b",
    "stake()": "3a4b66f1",
    "submitCheckpoint(((uint64,address[]),uint64,bytes32,uint64,bytes32),((((uint64,address[]),(uint8,bytes)),((uint64,address[]),(uint8,bytes)),uint256,uint64,bytes4,bytes,uint256),bool)[],address[],bytes[])": "a8284de3",
    "unstake(uint256)": "2e17de78",
    "validateActiveQuorumSignatures(address[],bytes32,bytes[])": "cc2dc2b9"
  },
  "id": 76
}