{"abi":[{"type":"function","name":"claim","inputs":[],"outputs":[],"stateMutability":"nonpayable"},{"type":"function","name":"claimRewardForRelayer","inputs":[],"outputs":[],"stateMutability":"nonpayable"},{"type":"function","name":"distributeRewardToRelayers","inputs":[{"name":"height","type":"uint256","internalType":"uint256"},{"name":"reward","type":"uint256","internalType":"uint256"},{"name":"kind","type":"uint8","internalType":"enum QuorumObjKind"}],"outputs":[],"stateMutability":"payable"},{"type":"event","name":"Paused","inputs":[{"name":"account","type":"address","indexed":false,"internalType":"address"}],"anonymous":false},{"type":"event","name":"Unpaused","inputs":[{"name":"account","type":"address","indexed":false,"internalType":"address"}],"anonymous":false},{"type":"error","name":"AddressInsufficientBalance","inputs":[{"name":"account","type":"address","internalType":"address"}]},{"type":"error","name":"EnforcedPause","inputs":[]},{"type":"error","name":"ExpectedPause","inputs":[]},{"type":"error","name":"FailedInnerCall","inputs":[]},{"type":"error","name":"MethodNotAllowed","inputs":[{"name":"reason","type":"string","internalType":"string"}]},{"type":"error","name":"NoCollateralToWithdraw","inputs":[]},{"type":"error","name":"NotGateway","inputs":[]},{"type":"error","name":"ReentrancyError","inputs":[]}],"bytecode":{"object":"0x608080604052346100165761067f908161001c8239f35b600080fdfe6080604052600436101561001257600080fd5b6000803560e01c80634c860af61461035f5780634e71d92d1461010e5763ed7c4da11461003e57600080fd5b3461010b578060031936011261010b5760008051602061062a8339815191529060018254146100f957600182556100736103b6565b73__$4a8700ca5e162cb61a0c4650a4871f1ad5$__803b156100f55781602491604051928380926382985e0b60e01b82523360048301525af480156100ea576100be575b5080915580f35b67ffffffffffffffff81116100d657604052386100b7565b634e487b7160e01b82526041600452602482fd5b6040513d84823e3d90fd5b5080fd5b6040516329f745a760e01b8152600490fd5b80fd5b503461010b578060031936011261010b57600160008051602061062a83398151915254146100f957600160008051602061062a833981519152556101506103b6565b336000908152601f602052604090209081549061ffff82161561034d5761ffff8260101c169261ffff831693825b61ffff851661ffff8316101561033f5761ffff82168452600183016020526040842060405180604081011067ffffffffffffffff60408301111761032b5790816040602094930160405260018254928383520154938491015243106102165761ffff60016101ee8294839461042b565b948281168852818701602052878260408220828155015501169660001901169591905061017e565b94505063ffff000092945b61ffff8354911693849260101b169063ffffffff19161717905515610314575b8047106102fc578180808084335af13d156102f7573d67ffffffffffffffff81116102e3576040519061027e601f8201601f1916602001836103f3565b81528360203d92013e5b156102d15760407f197c586353eaed0a1c53e6e540445b94befab8f932c8115d112115ecbeeed514918151903382526020820152a18060008051602061062a8339815191525580f35b604051630a12f52160e11b8152600490fd5b634e487b7160e01b84526041600452602484fd5b610288565b60405163cd78605960e01b8152306004820152602490fd5b336000908152601f60205260409020829055610241565b634e487b7160e01b86526041600452602486fd5b935063ffff00009294610221565b6040516364b0557f60e01b8152600490fd5b50606036600319011261010b5760443560028110156100f5576103806103b6565b600e546001600160a01b031633036103a4576103a19060243560043561044e565b80f35b60405163e7e601db60e01b8152600490fd5b60ff7fc451c9429c27db68f286ab8a68f311f1dccab703ba9423aed29cd397ae63f86354166103e157565b60405163d93c066560e01b8152600490fd5b90601f8019910116810190811067ffffffffffffffff82111761041557604052565b634e487b7160e01b600052604160045260246000fd5b9190820180921161043857565b634e487b7160e01b600052601160045260246000fd5b91811561062457604080519360209283860186811067ffffffffffffffff821117610415578352600095869052600281101561061057806105715750600b54810390811161055d578452602282528084208151808285829454938481520190885285882092885b87828210610547575050506104cc925003826103f3565b91825193841561053f5784811061053f5784900492855b8581106104f35750505050505050565b815181101561052b57600190818060a01b03848260051b850101511688526021845284882061052387825461042b565b9055016104e3565b634e487b7160e01b87526032600452602487fd5b505050505050565b85548452600195860195879550930192016104b5565b634e487b7160e01b85526011600452602485fd5b8360018492146000146105c157606491519063015538b160e01b82526004820152601f60248201527f72657761726473206e6f7420646566696e656420666f722062617463686573006044820152fd5b608491519063015538b160e01b82526004820152602360248201527f72657761726473206e6f7420646566696e656420666f72206f626a656374206b6044820152621a5b9960ea1b6064820152fd5b634e487b7160e01b86526021600452602486fd5b50505056fe691bb03ffc16c56fc96b82fd16cd1b3715f0bc3cdc6407005f49bb6205860095a26469706673582212202641eb343375887c3c4f0191635489e06bca83b7362f3d3483ca56ac3d98b35064736f6c63430008130033","linkReferences":{"src/lib/LibStaking.sol":{"LibStaking":[{"start":145,"length":20}]}}},"methodIdentifiers":{"claim()":"4e71d92d","claimRewardForRelayer()":"ed7c4da1","distributeRewardToRelayers(uint256,uint256,uint8)":"4c860af6"},"id":88}