{"abi":[{"type":"function","name":"applyMsg","inputs":[{"name":"arrivingFrom","type":"tuple","internalType":"struct SubnetID","components":[{"name":"root","type":"uint64","internalType":"uint64"},{"name":"route","type":"address[]","internalType":"address[]"}]},{"name":"crossMsg","type":"tuple","internalType":"struct IpcEnvelope","components":[{"name":"kind","type":"uint8","internalType":"enum IpcMsgKind"},{"name":"to","type":"tuple","internalType":"struct IPCAddress","components":[{"name":"subnetId","type":"tuple","internalType":"struct SubnetID","components":[{"name":"root","type":"uint64","internalType":"uint64"},{"name":"route","type":"address[]","internalType":"address[]"}]},{"name":"rawAddress","type":"tuple","internalType":"struct FvmAddress","components":[{"name":"addrType","type":"uint8","internalType":"uint8"},{"name":"payload","type":"bytes","internalType":"bytes"}]}]},{"name":"from","type":"tuple","internalType":"struct IPCAddress","components":[{"name":"subnetId","type":"tuple","internalType":"struct SubnetID","components":[{"name":"root","type":"uint64","internalType":"uint64"},{"name":"route","type":"address[]","internalType":"address[]"}]},{"name":"rawAddress","type":"tuple","internalType":"struct FvmAddress","components":[{"name":"addrType","type":"uint8","internalType":"uint8"},{"name":"payload","type":"bytes","internalType":"bytes"}]}]},{"name":"nonce","type":"uint64","internalType":"uint64"},{"name":"value","type":"uint256","internalType":"uint256"},{"name":"message","type":"bytes","internalType":"bytes"}]}],"outputs":[],"stateMutability":"nonpayable"},{"type":"function","name":"getNextBottomUpMsgBatch","inputs":[],"outputs":[{"name":"batch","type":"tuple","internalType":"struct BottomUpMsgBatch","components":[{"name":"subnetID","type":"tuple","internalType":"struct SubnetID","components":[{"name":"root","type":"uint64","internalType":"uint64"},{"name":"route","type":"address[]","internalType":"address[]"}]},{"name":"blockHeight","type":"uint256","internalType":"uint256"},{"name":"msgs","type":"tuple[]","internalType":"struct IpcEnvelope[]","components":[{"name":"kind","type":"uint8","internalType":"enum IpcMsgKind"},{"name":"to","type":"tuple","internalType":"struct IPCAddress","components":[{"name":"subnetId","type":"tuple","internalType":"struct SubnetID","components":[{"name":"root","type":"uint64","internalType":"uint64"},{"name":"route","type":"address[]","internalType":"address[]"}]},{"name":"rawAddress","type":"tuple","internalType":"struct FvmAddress","components":[{"name":"addrType","type":"uint8","internalType":"uint8"},{"name":"payload","type":"bytes","internalType":"bytes"}]}]},{"name":"from","type":"tuple","internalType":"struct IPCAddress","components":[{"name":"subnetId","type":"tuple","internalType":"struct SubnetID","components":[{"name":"root","type":"uint64","internalType":"uint64"},{"name":"route","type":"address[]","internalType":"address[]"}]},{"name":"rawAddress","type":"tuple","internalType":"struct FvmAddress","components":[{"name":"addrType","type":"uint8","internalType":"uint8"},{"name":"payload","type":"bytes","internalType":"bytes"}]}]},{"name":"nonce","type":"uint64","internalType":"uint64"},{"name":"value","type":"uint256","internalType":"uint256"},{"name":"message","type":"bytes","internalType":"bytes"}]}]}],"stateMutability":"view"},{"type":"function","name":"registerSubnet","inputs":[{"name":"subnet","type":"tuple","internalType":"struct SubnetID","components":[{"name":"root","type":"uint64","internalType":"uint64"},{"name":"route","type":"address[]","internalType":"address[]"}]}],"outputs":[],"stateMutability":"nonpayable"},{"type":"function","name":"setSubnet","inputs":[{"name":"subnet","type":"tuple","internalType":"struct SubnetID","components":[{"name":"root","type":"uint64","internalType":"uint64"},{"name":"route","type":"address[]","internalType":"address[]"}]},{"name":"bottomUpPeriod","type":"uint256","internalType":"uint256"}],"outputs":[],"stateMutability":"nonpayable"},{"type":"event","name":"NewBottomUpMsgBatch","inputs":[{"name":"epoch","type":"uint256","indexed":true,"internalType":"uint256"}],"anonymous":false},{"type":"event","name":"NewTopDownMessage","inputs":[{"name":"subnet","type":"address","indexed":true,"internalType":"address"},{"name":"message","type":"tuple","indexed":false,"internalType":"struct IpcEnvelope","components":[{"name":"kind","type":"uint8","internalType":"enum IpcMsgKind"},{"name":"to","type":"tuple","internalType":"struct IPCAddress","components":[{"name":"subnetId","type":"tuple","internalType":"struct SubnetID","components":[{"name":"root","type":"uint64","internalType":"uint64"},{"name":"route","type":"address[]","internalType":"address[]"}]},{"name":"rawAddress","type":"tuple","internalType":"struct FvmAddress","components":[{"name":"addrType","type":"uint8","internalType":"uint8"},{"name":"payload","type":"bytes","internalType":"bytes"}]}]},{"name":"from","type":"tuple","internalType":"struct IPCAddress","components":[{"name":"subnetId","type":"tuple","internalType":"struct SubnetID","components":[{"name":"root","type":"uint64","internalType":"uint64"},{"name":"route","type":"address[]","internalType":"address[]"}]},{"name":"rawAddress","type":"tuple","internalType":"struct FvmAddress","components":[{"name":"addrType","type":"uint8","internalType":"uint8"},{"name":"payload","type":"bytes","internalType":"bytes"}]}]},{"name":"nonce","type":"uint64","internalType":"uint64"},{"name":"value","type":"uint256","internalType":"uint256"},{"name":"message","type":"bytes","internalType":"bytes"}]}],"anonymous":false},{"type":"error","name":"CannotSendCrossMsgToItself","inputs":[]},{"type":"error","name":"InvalidXnetMessage","inputs":[{"name":"reason","type":"uint8","internalType":"enum InvalidXnetMessageReason"}]},{"type":"error","name":"MethodNotAllowed","inputs":[{"name":"reason","type":"string","internalType":"string"}]},{"type":"error","name":"NotRegisteredSubnet","inputs":[]}],"bytecode":{"object":"0x60808060405234601557612b10908161001b8239f35b600080fdfe608080604052600436101561001357600080fd5b60003560e01c9081634b8e4e8f146104a357508063830238c31461039957806397c2cd8b1461025a5763c8251fe81461004b57600080fd5b34610206576040366003190112610206576004356001600160401b0381116102065761007b90369060040161080a565b6001600160401b038151166001600160401b03196012541617601255602081019081518051906001600160401b0382116101c557600160401b82116101c5576020906013548360135580841061023c575b50016013600052602060002060005b83811061021f578585602435600155604051906390ba52cf60e01b8252602060048301526020828061011060248201856105ff565b038173__$a0fe38a9a81205afccc10810b09a4d3f45$__5af48015610213576000906101db575b60059250600052601f6020526001600160401b0360406000209151166001600160401b036004830191166001600160401b03198254161790550190518051906001600160401b0382116101c5576020906101918385610bed565b019160005260206000209160005b8281106101a857005b81516001600160a01b03168185015560209091019060010161019f565b634e487b7160e01b600052604160045260246000fd5b506020823d60201161020b575b816101f5602093836107be565b810103126102065760059151610137565b600080fd5b3d91506101e8565b6040513d6000823e3d90fd5b82516001600160a01b0316818301556020909201916001016100db565b61025490601360005284846000209182019101610bd6565b386100cc565b34610206576020366003190112610206576004356001600160401b0381116102065761028a90369060040161080a565b6040516390ba52cf60e01b815260206004820181905281806102af60248201866105ff565b038173__$a0fe38a9a81205afccc10810b09a4d3f45$__5af490811561021357600091610367575b50600052601f6020526020600560406000206001600160401b038451166001600160401b036004830191166001600160401b0319825416179055019101518051906001600160401b0382116101c5576020906103338385610bed565b019160005260206000209160005b82811061034a57005b81516001600160a01b031681850155602090910190600101610341565b90506020813d602011610391575b81610382602093836107be565b810103126102065751826102d7565b3d9150610375565b34610206576040366003190112610206576004356001600160401b038111610206576103c990369060040161080a565b602435906001600160401b0382116102065760c0600319833603011261020657604051906103f682610788565b8260040135600381101561020657825260248301356001600160401b038111610206576104299060043691860101610917565b602083015260448301356001600160401b038111610206576104519060043691860101610917565b6040830152610462606484016107df565b60608301526084830135608083015260a48301356001600160401b038111610206576104a193600461049792369201016108d0565b60a0830152611265565b005b34610206576000366003190112610206576040816104c260609361076d565b6104ca6109b4565b81526000602082015201526104e160015443610c21565b60005260236020526040600020604051906104fb8261076d565b610504816109ce565b8252600360028201549160208401928352018054610521816107f3565b9161052f60405193846107be565b818352602083019060005260206000206000915b8383106105e1576105738787876040830190815260405193849360208552516060602086015260808501906105ff565b915160408401525190601f19838203016060840152815180825260208201916020808360051b8301019401926000915b8383106105b05786860387f35b9193955091936020806105cf600193601f1986820301875289516106fe565b970193019301909286959492936105a3565b600c60206001926105f185610b66565b815201920192019190610543565b602060608160408501936001600160401b03815116865201519360408382015284518094520192019060005b8181106106385750505090565b82516001600160a01b031684526020938401939092019160010161062b565b6003111561066157565b634e487b7160e01b600052602160045260246000fd5b60005b83811061068a5750506000910152565b818101518382015260200161067a565b906020916106b381518092818552858086019101610677565b601f01601f1916010190565b604060206106fb93816106d98551858452858401906105ff565b940151908281860391015260ff8151168452015191816020820152019061069a565b90565b6106fb91815161070d81610657565b815260a061073f61072d602085015160c0602086015260c08501906106bf565b604085015184820360408601526106bf565b926001600160401b0360608201511660608401526080810151608084015201519060a081840391015261069a565b606081019081106001600160401b038211176101c557604052565b60c081019081106001600160401b038211176101c557604052565b604081019081106001600160401b038211176101c557604052565b90601f801991011681019081106001600160401b038211176101c557604052565b35906001600160401b038216820361020657565b6001600160401b0381116101c55760051b60200190565b919060408382031261020657604051610822816107a3565b809361082d816107df565b82526020810135906001600160401b03821161020657019180601f840112156102065782359061085c826107f3565b9361086a60405195866107be565b82855260208086019360051b82010191821161020657602001915b8183106108955750505060200152565b82356001600160a01b038116810361020657815260209283019201610885565b6001600160401b0381116101c557601f01601f191660200190565b81601f82011215610206578035906108e7826108b5565b926108f560405194856107be565b8284526020838301011161020657816000926020809301838601378301015290565b91906040838203126102065760405190610930826107a3565b819380356001600160401b038111610206578261094e91830161080a565b83526020810135906001600160401b038211610206570191604083830312610206576040519261097d846107a3565b803560ff811681036102065784526020810135926001600160401b038411610206576020936109ac92016108d0565b828401520152565b604051906109c1826107a3565b6060602083600081520152565b906040516109db816107a3565b600181936001600160401b0381541683520190604051809283916020825491828152019160005260206000209060005b818110610a285750505060209291610a249103846107be565b0152565b82546001600160a01b0316845286945060209093019260019283019201610a0b565b90600182811c92168015610a7a575b6020831014610a6457565b634e487b7160e01b600052602260045260246000fd5b91607f1691610a59565b9060405191826000825492610a9884610a4a565b8084529360018116908115610b065750600114610abf575b50610abd925003836107be565b565b90506000929192526020600020906000915b818310610aea575050906020610abd9282010138610ab0565b6020919350806001915483858901015201910190918492610ad1565b905060209250610abd94915060ff191682840152151560051b82010138610ab0565b9060405191610b36836107a3565b602083610b42836109ce565b81526109ac600360405194610b56866107a3565b60ff600282015416865201610a84565b90604051610b7381610788565b60a0610bd1600b839560ff815416610b8a81610657565b8552610b9860018201610b28565b6020860152610ba960058201610b28565b60408601526001600160401b036009820154166060860152600a810154608086015201610a84565b910152565b818110610be1575050565b60008155600101610bd6565b90600160401b81116101c557815490808355818110610c0b57505050565b610abd9260005260206000209182019101610bd6565b8115610c67576001600160401b038291160460018101809111610c5157818102918183041490151715610c515790565b634e487b7160e01b600052601160045260246000fd5b634e487b7160e01b600052601260045260246000fd5b5190811515820361020657565b60405190610c97826107a3565b60006020838281520152565b90816020910312610206575160028110156102065790565b6060600160408401926001600160401b0381541685520192604060208201528354809352019160005260206000209060005b818110610cfa5750505090565b82546001600160a01b0316845260209093019260019283019201610ced565b610d2e6106fb926040835260408301906106fe565b9060208183039101526012610cbb565b6002111561066157565b6001600160401b036001911601906001600160401b038211610c5157565b51906001600160a01b038216820361020657565b908160409103126102065760405190610d92826107a3565b80516002811015610206578252610dab90602001610d66565b602082015290565b610d2e6106fb926040835260408301906105ff565b9190918251610dd681610657565b610ddf81610657565b60ff80198354169116178155602083015180516001600160401b038151166001600160401b036001850191166001600160401b0319825416179055602060028401910151908151916001600160401b0383116101c557602090610e428484610bed565b0190600052602060002060005b83811061124857505050506020600383019101519060ff82511660ff198254161790556020600483019101518051906001600160401b0382116101c557610e968354610a4a565b601f8111611216575b50602090601f83116001146111af57610ed1929160009183611049575b50508160011b916000199060031b1c19161790565b90555b60408301518051805160058401805467ffffffffffffffff19166001600160401b0392831617905560209091015180519160068501919083116101c557602090610f1e8484610bed565b0190600052602060002060005b83811061119257505050506020600783019101519060ff82511660ff198254161790556020600883019101518051906001600160401b0382116101c557610f728354610a4a565b601f8111611160575b50602090601f83116001146110f3578260a09593600b9593610fb3936000926110495750508160011b916000199060031b1c19161790565b90555b6001600160401b036060860151166001600160401b036009830191166001600160401b03198254161790556080850151600a820155019201519182516001600160401b0381116101c55761100a8254610a4a565b601f81116110b6575b506020601f82116001146110545781906110459394956000926110495750508160011b916000199060031b1c19161790565b9055565b015190503880610ebc565b601f1982169083600052806000209160005b81811061109e57509583600195969710611085575b505050811b019055565b015160001960f88460031b161c1916905538808061107b565b9192602060018192868b015181550194019201611066565b6110e390836000526020600020601f840160051c810191602085106110e9575b601f0160051c0190610bd6565b38611013565b90915081906110d6565b90601f1983169184600052816000209260005b818110611148575092600192859260a09896600b98961061112f575b505050811b019055610fb6565b015160001960f88460031b161c19169055388080611122565b92936020600181928786015181550195019301611106565b61118c90846000526020600020601f850160051c810191602086106110e957601f0160051c0190610bd6565b38610f7b565b82516001600160a01b031681830155602090920191600101610f2b565b90601f1983169184600052816000209260005b8181106111fe57509084600195949392106111e5575b505050811b019055610ed4565b015160001960f88460031b161c191690553880806111d8565b929360206001819287860151815501950193016111c2565b61124290846000526020600020601f850160051c810191602086106110e957601f0160051c0190610bd6565b38610e9f565b82516001600160a01b031681830155602090920191600101610e4f565b6020820190815151906112aa602073__$a0fe38a9a81205afccc10810b09a4d3f45$__9360405180938192630c133d1360e31b835284600484015260248301906105ff565b0381865af4908115610213576000916116e3575b506116b55760405160006112d1826107a3565b808252602082015260405163855f7e4560e01b8152602081806112f78960048301610d19565b038173__$33b79814e84bf6cf5e47244090b19ce5f8$__5af490811561021357600091611686575b5061132981610d3e565b600181036115a457505061133c90611b1d565b901561159e57600381016001600160401b03815460401c166001600160401b036060870151160361156a576113b460046113d593836113896001600160401b036020965460401c16610d48565b67ffffffffffffffff60401b82549160401b169067ffffffffffffffff60401b1916179055016109ce565b60405180938192632cff562160e11b835284600484015260248301906105ff565b0381855af49081156102135760009161152b575b50604080516380875df760e01b815291829060049082906001600160a01b03165afa91821561021357611442926020926000916114fc575b50935b515190604051808095819463c836244d60e01b835260048301610db3565b03915af4908115610213576000916114c2575b501561147d576114659082611c31565b901561147457610abd91611ab0565b610abd91611a42565b50610abd906040516020810190602082526114ad8161149f60408201866106fe565b03601f1981018352826107be565b51902060005260216020526040600020610dc8565b90506020813d6020116114f4575b816114dd602093836107be565b81010312610206576114ee90610c7d565b38611455565b3d91506114d0565b61151e915060403d604011611524575b61151681836107be565b810190610d7a565b38611421565b503d61150c565b90506020813d602011611562575b81611546602093836107be565b8101031261020657604061155b600492610d66565b91506113e9565b3d9150611539565b50505050610abd906040519063bc0f01cf60e01b602083015260026024830152602482526115996044836107be565b6118aa565b50505050565b909391506115b181610d3e565b156115c3575b61144291602091611424565b91506001600160401b0360035460401c166001600160401b0360608501511603611659576020611442916116306116076001600160401b0360035460401c16610d48565b67ffffffffffffffff60401b6003549160401b169067ffffffffffffffff60401b191617600355565b611638610c8a565b50604051611645816107a3565b6000815260008382015293915091506115b7565b5050610abd906040519063bc0f01cf60e01b602083015260026024830152602482526115996044836107be565b6116a8915060203d6020116116ae575b6116a081836107be565b810190610ca3565b3861131f565b503d611696565b505050610abd906040519063bc0f01cf60e01b602083015260016024830152602482526115996044836107be565b90506020813d602011611715575b816116fe602093836107be565b810103126102065761170f90610c7d565b386112be565b3d91506116f1565b51906001600160401b038216820361020657565b919060408382031261020657604051611749816107a3565b80936117548161171d565b82526020810151906001600160401b03821161020657019180601f84011215610206578251611782816107f3565b9361179060405195866107be565b81855260208086019260051b82010192831161020657602001905b8282106117bb5750505060200152565b602080916117c884610d66565b8152019101906117ab565b81601f820112156102065780516117e9816108b5565b926117f760405194856107be565b81845260208284010111610206576106fb9160208085019101610677565b9190604083820312610206576040519061182e826107a3565b819380516001600160401b038111610206578261184c918301611731565b83526020810151906001600160401b038211610206570191604083830312610206576040519261187b846107a3565b805160ff811681036102065784526020810151926001600160401b038411610206576020936109ac92016117d3565b906118b482611d2d565b611a3e57600282516118c581610657565b6118ce81610657565b14611a3e57604051634dbefc2d60e11b815260606004820152916118f69060648401906106fe565b908261191860009382936001602485015260031984830301604485015261069a565b038173__$33b79814e84bf6cf5e47244090b19ce5f8$__5af49081156102135760009161194d575b5061194a90611d7c565b50565b3d8083833e61195c81836107be565b810190602081830312611a36578051906001600160401b038211611a3a57019160c083830312611a33576040519261199384610788565b80516003811015611a3657845260208101516001600160401b038111611a3657836119bf918301611815565b602085015260408101516001600160401b038111611a3657836119e3918301611815565b60408501526119f46060820161171d565b60608501526080810151608085015260a0810151916001600160401b038311611a33575091611a289161194a9493016117d3565b60a082015290611940565b80fd5b8280fd5b8380fd5b5050565b90611a4c82611d2d565b611a3e5760028251611a5d81610657565b611a6681610657565b14611a3e57604051634dbefc2d60e11b81526060600482015291611a8e9060648401906106fe565b908261191860009382936002602485015260031984830301604485015261069a565b90611aba82611d2d565b611a3e5760028251611acb81610657565b611ad481610657565b14611a3e57604051634dbefc2d60e11b81526060600482015291611afc9060648401906106fe565b9082611918600093829385602485015260031984830301604485015261069a565b611b59602073__$a0fe38a9a81205afccc10810b09a4d3f45$__92604051809381926390ba52cf60e01b835284600484015260248301906105ff565b0381855af490811561021357600091611bff575b50600052601f602052611bb06020604060002092611b8d600485016109ce565b906040518080958194630c133d1360e31b835286600484015260248301906105ff565b03915af490811561021357600091611bc757501591565b90506020813d602011611bf7575b81611be2602093836107be565b8101031261020657611bf390610c7d565b1591565b3d9150611bd5565b90506020813d602011611c29575b81611c1a602093836107be565b81010312610206575138611b6d565b3d9150611c0d565b600091908291611c936040518092611c62602083019563065c4c3160e11b87526060602485015260848401906106fe565b908051611c6e81610d3e565b6044840152602001516001600160a01b0316606483015203601f1981018352826107be565b519073__$33b79814e84bf6cf5e47244090b19ce5f8$__5af4903d15611d25573d91611cbe836108b5565b92611ccc60405194856107be565b83523d6000602085013e5b8281611ce257509190565b9250508151820160408382031261020657611cff60208401610c7d565b926040810151916001600160401b038311610206576106fb9260208092019201016117d3565b606091611cd7565b8051611d3881610657565b611d4181610657565b15611d4f5760a00151511590565b608001511590565b906020828203126102065781516001600160401b038111610206576106fb9201611731565b6020810180515173__$a0fe38a9a81205afccc10810b09a4d3f45$__90604051630c133d1360e31b81526020600482015260208180611dbe60248201866105ff565b0381865af4908115610213576000916124ff575b506124e95760405163c836244d60e01b815260208180611df58560048301610db3565b0381865af4908115610213576000916124af575b5061249e5760408481015151905163855f7e4560e01b81529060208280611e338960048301610d19565b038173__$33b79814e84bf6cf5e47244090b19ce5f8$__5af49182156102135760009261247d575b5060405192631ccc893360e11b84526040600485015260008480611e97611e8560448301866105ff565b828103600319016024840152866105ff565b0381885af493841561021357611ecd94602091600091612462575b506040518096819263c836244d60e01b835260048301610db3565b0381885af493841561021357600094612426575b50600090611eee84610d3e565b6001840361231b5750506040516308c7427760e11b8152602060048201529060008280611f1e60248201856105ff565b0381885af491821561021357611f5492602091600091612300575b506040518094819263c836244d60e01b835260048301610db3565b0381885af4918215610213576000926122c4575b508161223d575b505b6121a1575b611f7f81610d3e565b15908115612199575b50611fa257505080611f9b608092612762565b0151151590565b6001600160401b0360035460401c166001600160401b038114610c515761201192611ff560016000930167ffffffffffffffff60401b6003549160401b169067ffffffffffffffff60401b191617600355565b51516040518094819263089032d560e01b835260048301610db3565b0381845af491821561021357600092612174575b5061202f82611b1d565b92901561216357600383016001600160401b0361205481835416806060890152610d48565b166001600160401b0319825416179055600260808501519301918254938401809411610c51576120a4936020935560405180809581946304e384ff60e21b835286600484015260248301906105ff565b03915af490811561021357600091612104575b5060405160208082526001600160a01b03909216927ffdd39ce2560484814971f663392e78ae37dc62ba184b3370d830371dd271a8b79282916120fc918301906106fe565b0390a2600090565b90506020813d60201161215b575b8161211f602093836107be565b81010312610206576120fc6121547ffdd39ce2560484814971f663392e78ae37dc62ba184b3370d830371dd271a8b792610d66565b91506120b7565b3d9150612112565b630e991abd60e41b60005260046000fd5b6121929192503d806000833e61218a81836107be565b810190611d57565b9038612025565b905038611f88565b84516121ac81610657565b6121b581610657565b611f765760405163015538b160e01b815260206004820152604f60248201527f70726f7061676174696f6e206f6620605472616e7366657260206d657373616760448201527f6573206e6f742073757070706f7274656420666f72207375626e65747320776960648201526e746820455243323020737570706c7960881b608482015260a490fd5b612266915060209060405180938192632cff562160e11b835284600484015260248301906105ff565b0381875af4801561021357600090612289575b6122839150612539565b38611f6f565b506020813d6020116122bc575b816122a3602093836107be565b81010312610206576122b761228391610d66565b612279565b3d9150612296565b9091506020813d6020116122f8575b816122e0602093836107be565b81010312610206576122f190610c7d565b9038611f68565b3d91506122d3565b61231591503d806000833e61218a81836107be565b38611f39565b90915061232783610d3e565b818315612336575b5050611f71565b60405163089032d560e01b815291829081906123559060048301610db3565b0381885af490811561241b5782916020916123929491612401575b5060405180948192632cff562160e11b835284600484015260248301906105ff565b0381885af49081156123f55780916123b7575b506123b09150612539565b388161232f565b90506020823d6020116123ed575b816123d2602093836107be565b81010312611a3357506123e76123b091610d66565b386123a5565b3d91506123c5565b604051903d90823e3d90fd5b61241591503d8085833e61218a81836107be565b38612370565b6040513d84823e3d90fd5b9093506020813d60201161245a575b81612442602093836107be565b810103126102065761245390610c7d565b9238611ee1565b3d9150612435565b61247791503d806000833e61218a81836107be565b38611eb2565b61249791925060203d6020116116ae576116a081836107be565b9038611e5b565b632f3335ff60e21b60005260046000fd5b90506020813d6020116124e1575b816124ca602093836107be565b81010312610206576124db90610c7d565b38611e09565b3d91506124bd565b63bc0f01cf60e01b600052600160045260246000fd5b90506020813d602011612531575b8161251a602093836107be565b810103126102065761252b90610c7d565b38611dd2565b3d915061250d565b604080516380875df760e01b815291829060049082906001600160a01b03165afa90811561021357600091612584575b505161257481610d3e565b80612580600192610d3e565b1490565b61259d915060403d6040116115245761151681836107be565b38612569565b6013811461194a57601354906001600160401b0382116101c5576125c78282610bed565b6000908152602081207f66de8ffda797e3de9c05e8fc57b3bf0ec28a930d40b0d285d93c06501cf6a09080545b848410612602575050505050565b600191820180546001600160a01b03909216848601559390910192906125f4565b805482101561263f57600052600c602060002091020190600090565b634e487b7160e01b600052603260045260246000fd5b8054600160401b8110156101c55761267291600182018155612623565b91909161268257610abd91610dc8565b634e487b7160e01b600052600060045260246000fd5b604051906126a5826107a3565b816126ae6109b4565b81526020610bd16109b4565b805182101561263f5760209160051b010190565b6126d88154610a4a565b90816126e2575050565b81601f600093116001146126f4575055565b8183526020832061271091601f0160051c810190600101610bd6565b8082528160208120915555565b6003610abd91600081556001810180546000825580612746575b505060006002820155016126ce565b61275b91600052602060002090810190610bd6565b3880612737565b61276e60015443610c21565b6001600160401b036127898160035416806060860152610d48565b166001600160401b0319600354161760035580600052602360205260406000209060028201805415612a9357505060030190815460035460c01c14600014612a8a5781546127d6816107f3565b916127e460405193846107be565b818352601f196127f3836107f3565b0160005b818110612a3d5750506040519361280d8561076d565b604051612819816107a3565b6001600160401b03601254168152604051808160206013549283815201601360005260206000209260005b818110612a1b575050612859925003826107be565b6020820152855260208501924384526040860194855260005b8181106129e75750437f4ecfe3c1ed32ef0a63d3801d51eb20214db90b14dc5fd1ca58a9de54f16f46a6600080a2600082558061297f575b50906128b591612655565b80516000526023602052604060002092516001600160401b0380825116166001600160401b0319855416178455602060018501910151908151916001600160401b0383116101c55760209061290d8484989798610bed565b0190600052602060002060005b838110612962575050505051600282015581515191600360009201915b8381106129445750505050565b8061295c61295560019385516126ba565b5185612655565b01612937565b82516001600160a01b03168183015560209092019160010161291a565b80600c0290600c820403610c5157816000526020600020908101905b8181106129a857506128aa565b806000600c92556129bb6001820161271d565b6129c76005820161271d565b600060098201556000600a8201556129e1600b82016126ce565b0161299b565b80612a14816129f860019487612623565b50612a048a5191610b66565b612a0e83836126ba565b526126ba565b5001612872565b84546001600160a01b0316835260019485019486945060209093019201612844565b602090604051612a4c81610788565b60008152612a58612698565b83820152612a64612698565b60408201526000606082015260006080820152606060a0820152828288010152016127f7565b610abd91612655565b91600391610abd949360128303612aac575b5501612655565b6001600160401b038060125416166001600160401b0319845416178355612ad5600184016125a3565b612aa556fea2646970667358221220c37fb588d4d6e02c6dc447b4b81eeb0f23c2fc865237f3e7e8ef0d10b49dc7cf64736f6c634300081a0033","linkReferences":{"src/lib/CrossMsgHelper.sol":{"CrossMsgHelper":[{"start":4886,"length":20},{"start":6455,"length":20},{"start":7346,"length":20},{"start":7762,"length":20}]},"src/lib/SubnetIDHelper.sol":{"SubnetIDHelper":[{"start":303,"length":20},{"start":718,"length":20},{"start":4752,"length":20},{"start":6975,"length":20},{"start":7584,"length":20}]}}},"methodIdentifiers":{"applyMsg((uint64,address[]),(uint8,((uint64,address[]),(uint8,bytes)),((uint64,address[]),(uint8,bytes)),uint64,uint256,bytes))":"830238c3","getNextBottomUpMsgBatch()":"4b8e4e8f","registerSubnet((uint64,address[]))":"97c2cd8b","setSubnet((uint64,address[]),uint256)":"c8251fe8"},"id":122}