{"abi":[{"type":"function","name":"propagate","inputs":[{"name":"msgCid","type":"bytes32","internalType":"bytes32"}],"outputs":[],"stateMutability":"payable"},{"type":"function","name":"sendUserXnetMessage","inputs":[{"name":"crossMsg","type":"tuple","internalType":"struct CrossMsg","components":[{"name":"message","type":"tuple","internalType":"struct StorableMsg","components":[{"name":"from","type":"tuple","internalType":"struct IPCAddress","components":[{"name":"subnetId","type":"tuple","internalType":"struct SubnetID","components":[{"name":"root","type":"uint64","internalType":"uint64"},{"name":"route","type":"address[]","internalType":"address[]"}]},{"name":"rawAddress","type":"tuple","internalType":"struct FvmAddress","components":[{"name":"addrType","type":"uint8","internalType":"uint8"},{"name":"payload","type":"bytes","internalType":"bytes"}]}]},{"name":"to","type":"tuple","internalType":"struct IPCAddress","components":[{"name":"subnetId","type":"tuple","internalType":"struct SubnetID","components":[{"name":"root","type":"uint64","internalType":"uint64"},{"name":"route","type":"address[]","internalType":"address[]"}]},{"name":"rawAddress","type":"tuple","internalType":"struct FvmAddress","components":[{"name":"addrType","type":"uint8","internalType":"uint8"},{"name":"payload","type":"bytes","internalType":"bytes"}]}]},{"name":"value","type":"uint256","internalType":"uint256"},{"name":"nonce","type":"uint64","internalType":"uint64"},{"name":"method","type":"bytes4","internalType":"bytes4"},{"name":"params","type":"bytes","internalType":"bytes"},{"name":"fee","type":"uint256","internalType":"uint256"}]},{"name":"wrapped","type":"bool","internalType":"bool"}]}],"outputs":[],"stateMutability":"payable"},{"type":"error","name":"CallFailed","inputs":[]},{"type":"error","name":"CannotSendCrossMsgToItself","inputs":[]},{"type":"error","name":"InsufficientFunds","inputs":[]},{"type":"error","name":"InvalidCrossMsgDstSubnet","inputs":[]},{"type":"error","name":"InvalidCrossMsgFromSubnet","inputs":[]},{"type":"error","name":"InvalidCrossMsgValue","inputs":[]},{"type":"error","name":"MethodNotAllowed","inputs":[{"name":"reason","type":"string","internalType":"string"}]},{"type":"error","name":"NotEnoughFee","inputs":[]},{"type":"error","name":"NotEnoughFunds","inputs":[]},{"type":"error","name":"NotRegisteredSubnet","inputs":[]}],"bytecode":{"object":"0x6080806040523461001657611fc4908161001c8239f35b600080fdfe60406080815260048036101561001457600080fd5b600091823560e01c8063210b944e1461016c576325bf0db61461003657600080fd5b602036600319011261016857813560ff602c5460101c161561013957808452600360205281842090600b820154601c54811061012957341061011a57906100a591600861008a610085846109db565b610c8f565b92015490865260036020526100a0848720610b47565b611886565b6100b1601c5434610582565b806100ba578380f35b80471061010c578380808093335af13d15610107573d6100d98161049e565b906100e68451928361047d565b81528460203d92013e5b156100fa57808380f35b51633204506f60e01b8152fd5b6100f0565b505163356680b760e01b8152fd5b505051631036b5ad60e31b8152fd5b505050516334472ad760e11b8152fd5b602083610164846101486104b9565b905193849363015538b160e01b85528401526024830190610528565b0390fd5b8280fd5b50600319906020368301811361042d576001600160401b039380358581116104295780820194848183360301126104255760ff602c5460081c161561041757846101b68780610568565b01356101cf60c06101c78980610568565b013534610582565b036104075761021d846101fe6101ee6101e88a80610568565b806105a5565b6101f93691806105a5565b6105e5565b875163c836244d60e01b815286810189905292839160448301906106a4565b848282030160248301526060898201918c6019541681528a85820152601a548093520190601a8d52600080516020611f6f833981519152908d5b8181106103e5575050508190038173__$a0fe38a9a81205afccc10810b09a4d3f45$__5af49081156103db5789916103ae575b501561039e5784519661029c88610431565b86358181116103925760e090840192833603011261039a578551916102c083610462565b84810135828111610396576102da908636918401016107b3565b83526024810135828111610396576102f7908636918401016107b3565b86840152604481013587840152610310606482016105ba565b606084015260848101356001600160e01b03198116810361039657608084015260a48101359182116103925761034f60c492602496369184010161076c565b60a0840152013560c08201528652013590811515820361038e57846103849261037d9261038b970152610c8f565b9280610568565b0135611886565b80f35b8580fd5b8980fd5b8a80fd5b8880fd5b845163508847ab60e11b81528390fd5b6103ce9150853d87116103d4575b6103c6818361047d565b81019061068c565b3861028a565b503d6103bc565b86513d8b823e3d90fd5b82546001600160a01b031684528a958795509093019260019283019201610257565b84516360ec4e6b60e11b81528390fd5b5050610164836101486104b9565b8780fd5b8680fd5b8480fd5b604081019081106001600160401b0382111761044c57604052565b634e487b7160e01b600052604160045260246000fd5b60e081019081106001600160401b0382111761044c57604052565b90601f801991011681019081106001600160401b0382111761044c57604052565b6001600160401b03811161044c57601f01601f191660200190565b60405190606082018281106001600160401b0382111761044c57604052603a82527f732d6e6574206d657373616765732069732064697361626c65640000000000006040837f537570706f727420666f722067656e6572616c2d707572706f73652063726f7360208201520152565b919082519283825260005b848110610554575050826000602080949584010152601f8019910116010190565b602081830181015184830182015201610533565b90359060de198136030182121561057d570190565b600080fd5b9190820391821161058f57565b634e487b7160e01b600052601160045260246000fd5b903590603e198136030182121561057d570190565b35906001600160401b038216820361057d57565b6001600160401b03811161044c5760051b60200190565b919060408382031261057d57604051926105fe84610431565b83610608826105ba565b815260209182810135906001600160401b03821161057d57019280601f8501121561057d578335610638816105ce565b94610646604051968761047d565b818652848087019260051b82010192831161057d578401905b82821061066d575050500152565b81356001600160a01b038116810361057d57815290840190840161065f565b9081602091031261057d5751801515810361057d5790565b60609060408301906001600160401b03815116845260209283809201519460408382015285518094520193019160005b8281106106e2575050505090565b83516001600160a01b0316855293810193928101926001016106d4565b60408101906001600160401b036019541681526060602091604083820152601a548094520191601a600052600080516020611f6f833981519152916000905b82821061074c575050505090565b83546001600160a01b03168552938401936001938401939091019061073e565b81601f8201121561057d578035906107838261049e565b92610791604051948561047d565b8284526020838301011161057d57816000926020809301838601378301015290565b919060408382031261057d57604051926107cc84610431565b838135916001600160401b039283811161057d57846107ec9183016105e5565b825260208101359083821161057d570160408185031261057d576040519361081385610431565b813560ff8116810361057d578552602082013593841161057d5760209361083a920161076c565b828401520152565b9060405161084f81610431565b80926001600160401b03815416825260018091019160405191828481955492838652602080960191600052856000209060005b8786821061089e575050505061089a9250038461047d565b0152565b83546001600160a01b0316855289955090930192918101918101610882565b90600182811c921680156108ed575b60208310146108d757565b634e487b7160e01b600052602260045260246000fd5b91607f16916108cc565b906040519182600082549261090b846108bd565b90818452600194858116908160001461097a5750600114610937575b50506109359250038361047d565b565b9093915060005260209081600020936000915b81831061096257505061093593508201013880610927565b8554888401850152948501948794509183019161094a565b91505061093594506020925060ff191682840152151560051b8201013880610927565b90604051916109ab83610431565b6020836109b783610842565b815261083a6003604051946109cb86610431565b60ff6002820154168652016108f7565b906040516109e881610431565b602060ff600c83956040516109fc81610462565b610a058261099d565b8152610a136004830161099d565b818601526008820154604082015260098201546001600160401b038116606083015260a01b6001600160e01b0319166080820152610a53600a83016108f7565b60a0820152600b82015460c082015285520154161515910152565b818110610a79575050565b60008155600101610a6e565b90600160401b811161044c57815490808355818110610aa357505050565b6109359260005260206000209182019101610a6e565b610ac381546108bd565b9081610acd575050565b81601f60009311600114610adf575055565b908083918252610afe601f60208420940160051c840160018501610a6e565b5555565b600361093591600081556001810180546000825580610b2b575b50506000600282015501610ab9565b610b4091600052602060002090810190610a6e565b3880610b1c565b600c600091610b5581610b02565b610b6160048201610b02565b826008820155826009820155610b79600a8201610ab9565b82600b8201550155565b60406020610bbf9381610b9d8551858452858401906106a4565b940151908281860391015260ff81511684520151918160208201520190610528565b90565b51906001600160a01b038216820361057d57565b906020808383031261057d5782516001600160401b039384821161057d57019260408484031261057d5760405193610c0d85610431565b8051828116810361057d5785528281015191821161057d57019180601f8401121561057d578251610c3d816105ce565b93610c4b604051958661047d565b818552838086019260051b82010192831161057d5783809101915b838310610c77575050505082015290565b8190610c8284610bc2565b8152019101908390610c66565b60208151015151604051630c133d1360e31b81526020600482015260208180610cbb60248201866106a4565b038173__$a0fe38a9a81205afccc10810b09a4d3f45$__5af490811561110357600091611867575b506118555760405163c836244d60e01b81526040600482015260208180610d21610d1060448301876106a4565b8281036003190160248401526106ff565b038173__$a0fe38a9a81205afccc10810b09a4d3f45$__5af490811561110357600091611836575b5061182457610e0a9082516020815151916040518095819263f47ad7eb60e01b83526040600484015260c0610df0610d8e835160e06044880152610124870190610b83565b610da9888501519160431992838983030160648a0152610b83565b6040850151608488015260608501516001600160401b031660a488015260808501516001600160e01b03191660c488015260a085015187820390920160e488015290610528565b9101516101048401528281036003190160248401526106ff565b038173__$386b5c41ce93e8b832daf8008b3d30ae09$__5af4928315611103576000936117e1575b5060009160028410156117cd578290600185146116bc575b5050506111ff57156111b5575b610e826020825101515160405191829163089032d560e01b83526040600484015260448301906106a4565b600319828203016024830152606060408201916001600160401b0360195416815260406020820152601a548093520190601a600052600080516020611f6f8339815191529060005b818110611193575050509080600092038173__$a0fe38a9a81205afccc10810b09a4d3f45$__5af490811561110357600091611172575b506040516390ba52cf60e01b81526020600482018190528180610f2760248201866106a4565b038173__$a0fe38a9a81205afccc10810b09a4d3f45$__5af490811561110357600091611140575b506000526000602052604060002090610f906020610f6f60048501610842565b60405180938192630c133d1360e31b835284600484015260248301906106a4565b038173__$a0fe38a9a81205afccc10810b09a4d3f45$__5af490811561110357600091611121575b5061110f576003820180546001600160401b03610fdd818316806060895101526118f8565b16906001600160401b0319161790556002604084510151920190815492830180931161058f5761102c9260209255604051809381926304e384ff60e21b835284600484015260248301906106a4565b038173__$a0fe38a9a81205afccc10810b09a4d3f45$__5af4908115611103576000916110a1575b5060405160208082526001600160a01b03909216927f392fae29c67f3b47710cb5b84d7a6fd08e0155a4f22565971f7159f12c6f709692829161109991830190611910565b0390a2600090565b906020823d6020116110fb575b816110bb6020938361047d565b810103126110f857506110996110f17f392fae29c67f3b47710cb5b84d7a6fd08e0155a4f22565971f7159f12c6f709692610bc2565b9150611054565b80fd5b3d91506110ae565b6040513d6000823e3d90fd5b604051630e991abd60e41b8152600490fd5b61113a915060203d6020116103d4576103c6818361047d565b38610fb8565b906020823d60201161116a575b8161115a6020938361047d565b810103126110f857505138610f4f565b3d915061114d565b61118d913d8091833e611185818361047d565b810190610bd6565b38610f01565b82546001600160a01b0316845285945060209093019260019283019201610eca565b601d546001600160401b038160481c166001600160401b03811461058f57600167ffffffffffffffff60481b910160481b169067ffffffffffffffff60481b191617601d55610e57565b50601f5480156116a657806001600160401b034316046001810180911161058f5781810291818304149015171561058f57601d5468ffffffffffffffff006112596001600160401b038360081c16806060875101526118f8565b60081b169068ffffffffffffffff00191617601d55806000526009602052604060002090600282018054156000146112db57926003836112a79360409660198597036112af575b55016119db565b510151151590565b6001600160401b03601954166001600160401b03198454161783556112d660018401611efd565b6112a0565b505060038101546020546001600160401b03160361169157600381015490611302826105ce565b91611310604051938461047d565b808352601f1961131f826105ce565b0160005b818110611629575050604051928360608101106001600160401b0360608601111761044c579084916060850160405261135e60608601610431565b6001600160401b03601954166060860152604051806020601a54918281520190601a600052600080516020611f6f8339815191529060005b81811061160757505050816113ac91038261047d565b6080860152606085018552436020860152604085015260005b8181106115c85750604051602081526113ea85516060602084015260808301906106a4565b9060208601516040820152604086015191601f19828203016060830152825180825260208201916020808360051b8301019501926000915b838310611593575050505050807f39504a936d8c0cbc12ddec43d5f3e7a937285064bed71961953e3de67d86215e9143930390a26000600384015580611548575b50600361147092016119db565b6020810151600052600960205260406000209080516001600160401b038151166001600160401b0319845416178355602060018401910151908151916001600160401b03831161044c576020906114c78484610a85565b0190600052602060002060005b83811061152b575050506020820151600284015550604081015151916003019060005b83811061150a57505050506040906112a7565b8061152561151e6001936040860151611ee9565b51856119db565b016114f7565b82516001600160a01b0316818301556020909201916001016114d4565b600d9150818102908282040361058f57908491600384016000526020600020908101905b81811061157a575050611463565b82935061158981939293610b47565b019085929161156c565b91939697509193946020806115b4600193601f198682030187528a51611910565b98019301930190928a979695949293611422565b60019192506115fd816115de81600388016119a9565b506115ed6040890151916109db565b6115f78383611ee9565b52611ee9565b50019084916113c5565b82546001600160a01b031684528a975060209093019260019283019201611396565b60209060405161163881610431565b60405161164481610462565b61164c611ec2565b8152611656611ec2565b84820152600060408201526000606082015260006080820152606060a0820152600060c0820152815260008382015282828801015201611323565b906116a1816003604094016119db565b6112a7565b634e487b7160e01b600052601260045260246000fd5b6116e6906116f86040519485938493631ccc893360e11b85526040600486015260448501906106a4565b838103600319016024850152906106a4565b038173__$a0fe38a9a81205afccc10810b09a4d3f45$__5af49081156117c257610d1061174d9260209285916117a8575b50604051938492839263c836244d60e01b84526040600485015260448401906106a4565b038173__$a0fe38a9a81205afccc10810b09a4d3f45$__5af491821561179c579161177d575b5015388181610e4a565b611796915060203d6020116103d4576103c6818361047d565b38611773565b604051903d90823e3d90fd5b6117bc91503d8087833e611185818361047d565b38611729565b6040513d84823e3d90fd5b634e487b7160e01b83526021600452602483fd5b6020939193813d60201161181c575b816117fd6020938361047d565b8101031261181857519060028210156110f857509138610e32565b5080fd5b3d91506117f0565b604051632f3335ff60e21b8152600490fd5b61184f915060203d6020116103d4576103c6818361047d565b38610d49565b60405163c5f563eb60e01b8152600490fd5b611880915060203d6020116103d4576103c6818361047d565b38610ce3565b9061188e5750565b8047106118e65760008080809360635af13d156118e1573d6118af8161049e565b906118bd604051928361047d565b8152600060203d92013e5b156118cf57565b604051633204506f60e01b8152600490fd5b6118c8565b60405163356680b760e01b8152600490fd5b9060016001600160401b038093160191821161058f57565b906020808351936040845260c0611996611937875160e06040890152610120880190610b83565b6119528589015191603f1992838a83030160608b0152610b83565b90604089015160808901526001600160401b0360608a01511660a089015263ffffffff60e01b60808a0151168489015260a0890151908883030160e0890152610528565b9501516101008501520151151591015290565b80548210156119c557600052600d602060002091020190600090565b634e487b7160e01b600052603260045260246000fd5b8054600160401b81101561044c576119fa9060019283820181556119a9565b919091611e92578251918251928351926001600160401b03808551166001600160401b031990818654161785558285019260208097015180519084821161044c578890611a478388610a85565b01600095865288862083875b848110611e77575050505050866002870198015160ff8151169860ff19998a82541617905560039288848901920151918251868111611d915780611a9783546108bd565b94898d601f9788808211611e4a575b505050508c90868311600114611ddf578a92611dd4575b505060001982881b1c191690851b1790555b6004880190898801519182519187835116908254161790558960058a0191015190815191878311611dc0578b90611b068484610a85565b019088528a882085895b848110611da557505050505088600689019101519060ff8251168b8254161790558860078901910151805190868211611d91578190611b4f84546108bd565b8c868211611d64575b50508b90858311600114611d05578992611cfa575b505060001982871b1c191690841b1790555b6040860151600888015560098701846060880151168154906bffffffff000000000000000060808a015160a01c16916bffffffffffffffffffffffff191617179055600a87019460a0870151908151958611611ce657611bdf87546108bd565b8a848211611caf575b505089928611600114611c4057938560ff9a999794819460c09894600c9b9895611c35575b50501b92600019911b1c19161790555b0151600b820155019301511515918354169116179055565b015193503880611c0d565b9294939190601f1985168785528a8520945b818110611c9a575092859260ff9b9a989592600c9a9760c0999610611c80575b50505050811b019055611c1d565b01519060f884600019921b161c1916905538808080611c72565b82840151865594870194928b01928b01611c52565b611cd6918984528582852091818b0160051c8301938b10611cdd575b0160051c0190610a6e565b388a611be8565b92508192611ccb565b634e487b7160e01b81526041600452602490fd5b015190503880611b6d565b848a528c8a208794509190601f1984168b8f5b828210611d4d5750508411611d35575b505050811b019055611b7f565b015160001983891b60f8161c19169055388080611d28565b8385015186558a979095019493840193018f611d18565b611d8a91868c5287828d209181870160051c8301938710611cdd570160051c0190610a6e565b388c611b58565b634e487b7160e01b88526041600452602488fd5b83516001600160a01b031683820155928d0192879101611b10565b634e487b7160e01b89526041600452602489fd5b015190503880611abd565b879350908d91601f198416868d52838d20938d905b828210611e295750508411611e11575b505050811b019055611acf565b0151600019838a1b60f8161c19169055388080611e04565b91929395968291958786015181550195019301908f918a9695949392611df4565b828489611e6e9652209181870160051c8301938710611cdd570160051c0190610a6e565b898d3888611aa6565b83516001600160a01b031683820155928b0192859101611a53565b634e487b7160e01b600052600060045260246000fd5b60405190611eb582610431565b6060602083600081520152565b60405190611ecf82610431565b81611ed8611ea8565b81526020611ee4611ea8565b910152565b80518210156119c55760209160051b010190565b601a8114611f6b57601a54906001600160401b03821161044c57611f218282610a85565b600090815260208120600080516020611f6f83398151915280545b848410611f4a575050505050565b600191820180546001600160a01b0390921684860155939091019290611f3c565b5056fe057c384a7d1c54f3a1b2e5e67b2617b8224fdfd1ea7234eea573a6ff665ff63ea2646970667358221220ee2a06869aac623274b7259b3a5cc78c1edb034b3c7011b99f4fd98c19cb84b264736f6c63430008130033","linkReferences":{"src/lib/StorableMsgHelper.sol":{"StorableMsgHelper":[{"start":3626,"length":20}]},"src/lib/SubnetIDHelper.sol":{"SubnetIDHelper":[{"start":643,"length":20},{"start":3291,"length":20},{"start":3393,"length":20},{"start":3833,"length":20},{"start":3911,"length":20},{"start":4016,"length":20},{"start":4172,"length":20},{"start":5912,"length":20},{"start":5997,"length":20}]}}},"methodIdentifiers":{"propagate(bytes32)":"25bf0db6","sendUserXnetMessage(((((uint64,address[]),(uint8,bytes)),((uint64,address[]),(uint8,bytes)),uint256,uint64,bytes4,bytes,uint256),bool))":"210b944e"},"id":46}