{"abi":[{"type":"function","name":"propagate","inputs":[{"name":"msgCid","type":"bytes32","internalType":"bytes32"}],"outputs":[],"stateMutability":"payable"},{"type":"function","name":"sendUserXnetMessage","inputs":[{"name":"crossMsg","type":"tuple","internalType":"struct CrossMsg","components":[{"name":"message","type":"tuple","internalType":"struct StorableMsg","components":[{"name":"from","type":"tuple","internalType":"struct IPCAddress","components":[{"name":"subnetId","type":"tuple","internalType":"struct SubnetID","components":[{"name":"root","type":"uint64","internalType":"uint64"},{"name":"route","type":"address[]","internalType":"address[]"}]},{"name":"rawAddress","type":"tuple","internalType":"struct FvmAddress","components":[{"name":"addrType","type":"uint8","internalType":"uint8"},{"name":"payload","type":"bytes","internalType":"bytes"}]}]},{"name":"to","type":"tuple","internalType":"struct IPCAddress","components":[{"name":"subnetId","type":"tuple","internalType":"struct SubnetID","components":[{"name":"root","type":"uint64","internalType":"uint64"},{"name":"route","type":"address[]","internalType":"address[]"}]},{"name":"rawAddress","type":"tuple","internalType":"struct FvmAddress","components":[{"name":"addrType","type":"uint8","internalType":"uint8"},{"name":"payload","type":"bytes","internalType":"bytes"}]}]},{"name":"value","type":"uint256","internalType":"uint256"},{"name":"nonce","type":"uint64","internalType":"uint64"},{"name":"method","type":"bytes4","internalType":"bytes4"},{"name":"params","type":"bytes","internalType":"bytes"},{"name":"fee","type":"uint256","internalType":"uint256"}]},{"name":"wrapped","type":"bool","internalType":"bool"}]}],"outputs":[],"stateMutability":"payable"},{"type":"error","name":"CallFailed","inputs":[]},{"type":"error","name":"CannotSendCrossMsgToItself","inputs":[]},{"type":"error","name":"InsufficientFunds","inputs":[]},{"type":"error","name":"InvalidCrossMsgDstSubnet","inputs":[]},{"type":"error","name":"InvalidCrossMsgFromSubnet","inputs":[]},{"type":"error","name":"InvalidCrossMsgValue","inputs":[]},{"type":"error","name":"MethodNotAllowed","inputs":[{"name":"reason","type":"string","internalType":"string"}]},{"type":"error","name":"NotEnoughFee","inputs":[]},{"type":"error","name":"NotEnoughFunds","inputs":[]},{"type":"error","name":"NotRegisteredSubnet","inputs":[]}],"bytecode":{"object":"0x60808060405234610016576123aa908161001c8239f35b600080fdfe608060408181526004908136101561001657600080fd5b600092833560e01c908163210b944e146101bc57506325bf0db61461003a57600080fd5b6020806003193601126101b857823560ff602c5460101c1615610140578085526003825282852090600b820154601c54811061013057341061012057906100a891600861008e610089846109e9565b610cbd565b920154908752600384526100a3858820610b55565b611bb5565b6100b4601c5434610590565b806100bd578480f35b804710610111578480808093335af1903d1561010b57843d916100df8361051b565b926100ec865194856104fa565b83523d92013e5b156100fe5780808480f35b51633204506f60e01b8152fd5b506100f3565b50505163356680b760e01b8152fd5b50505051631036b5ad60e31b8152fd5b84516334472ad760e11b81528690fd5b50826101b483805190610152826104df565b603682527f537570706f727420666f72206d756c74692d6c6576656c2063726f73732d6e6585830152751d081b595cdcd859d95cc81a5cc8191a5cd8589b195960521b818301525193849363015538b160e01b85528401526024830190610536565b0390fd5b8380fd5b91905060206003199381853601126103af5780356001600160401b039586821161048f5781830195858284360301126103bb5760ff602c5460081c16156104165750846102098780610576565b013561022260c061021a8980610576565b013534610590565b03610406576102848461027561025461024461023e8b80610576565b806105b3565b61024f3691806105b3565b6105f3565b885163c836244d60e01b81528781018a9052938492839260448401906106b2565b8683820301602484015261070d565b038173__$a0fe38a9a81205afccc10810b09a4d3f45$__5af49081156103fc5789916103cf575b50156103bf578451966102bd88610493565b86358181116103b35760e09084019283360301126103bb578551916102e1836104c4565b848101358281116103b7576102fb908636918401016107c1565b835260248101358281116103b757610318908636918401016107c1565b86840152604481013587840152610331606482016105c8565b606084015260848101356001600160e01b0319811681036103b757608084015260a48101359182116103b35761037060c492602496369184010161077a565b60a0840152013560c0820152865201359081151582036103af57846103a59261039e926103ac970152610cbd565b9280610576565b0135611bb5565b80f35b8580fd5b8980fd5b8a80fd5b8880fd5b845163508847ab60e11b81528390fd5b6103ef9150853d87116103f5575b6103e781836104fa565b81019061069a565b386102ab565b503d6103dd565b86513d8b823e3d90fd5b84516360ec4e6b60e11b81528390fd5b836101b4828861042689956104df565b603a82527f537570706f727420666f722067656e6572616c2d707572706f73652063726f73858301527f732d6e6574206d657373616765732069732064697361626c6564000000000000818301525193849363015538b160e01b85528401526024830190610536565b8780fd5b604081019081106001600160401b038211176104ae57604052565b634e487b7160e01b600052604160045260246000fd5b60e081019081106001600160401b038211176104ae57604052565b606081019081106001600160401b038211176104ae57604052565b90601f801991011681019081106001600160401b038211176104ae57604052565b6001600160401b0381116104ae57601f01601f191660200190565b919082519283825260005b848110610562575050826000602080949584010152601f8019910116010190565b602081830181015184830182015201610541565b90359060de198136030182121561058b570190565b600080fd5b9190820391821161059d57565b634e487b7160e01b600052601160045260246000fd5b903590603e198136030182121561058b570190565b35906001600160401b038216820361058b57565b6001600160401b0381116104ae5760051b60200190565b919060408382031261058b576040519261060c84610493565b83610616826105c8565b815260209182810135906001600160401b03821161058b57019280601f8501121561058b578335610646816105dc565b9461065460405196876104fa565b818652848087019260051b82010192831161058b578401905b82821061067b575050500152565b81356001600160a01b038116810361058b57815290840190840161066d565b9081602091031261058b5751801515810361058b5790565b60609060408301906001600160401b03815116845260209283809201519460408382015285518094520193019160005b8281106106f0575050505090565b83516001600160a01b0316855293810193928101926001016106e2565b60408101906001600160401b036019541681526060602091604083820152601a548094520191601a600052600080516020612355833981519152916000905b82821061075a575050505090565b83546001600160a01b03168552938401936001938401939091019061074c565b81601f8201121561058b578035906107918261051b565b9261079f60405194856104fa565b8284526020838301011161058b57816000926020809301838601378301015290565b919060408382031261058b57604051926107da84610493565b838135916001600160401b039283811161058b57846107fa9183016105f3565b825260208101359083821161058b570160408185031261058b576040519361082185610493565b813560ff8116810361058b578552602082013593841161058b57602093610848920161077a565b828401520152565b9060405161085d81610493565b80926001600160401b03815416825260018091019160405191828481955492838652602080960191600052856000209060005b878682106108ac57505050506108a8925003846104fa565b0152565b83546001600160a01b0316855289955090930192918101918101610890565b90600182811c921680156108fb575b60208310146108e557565b634e487b7160e01b600052602260045260246000fd5b91607f16916108da565b9060405191826000825492610919846108cb565b9081845260019485811690816000146109885750600114610945575b5050610943925003836104fa565b565b9093915060005260209081600020936000915b81831061097057505061094393508201013880610935565b85548884018501529485019487945091830191610958565b91505061094394506020925060ff191682840152151560051b8201013880610935565b90604051916109b983610493565b6020836109c583610850565b81526108486003604051946109d986610493565b60ff600282015416865201610905565b906040516109f681610493565b602060ff600c8395604051610a0a816104c4565b610a13826109ab565b8152610a21600483016109ab565b818601526008820154604082015260098201546001600160401b038116606083015260a01b6001600160e01b0319166080820152610a61600a8301610905565b60a0820152600b82015460c082015285520154161515910152565b818110610a87575050565b60008155600101610a7c565b90600160401b81116104ae57815490808355818110610ab157505050565b6109439260005260206000209182019101610a7c565b610ad181546108cb565b9081610adb575050565b81601f60009311600114610aed575055565b908083918252610b0c601f60208420940160051c840160018501610a7c565b5555565b600361094391600081556001810180546000825580610b39575b50506000600282015501610ac7565b610b4e91600052602060002090810190610a7c565b3880610b2a565b600c600091610b6381610b10565b610b6f60048201610b10565b826008820155826009820155610b87600a8201610ac7565b82600b8201550155565b60406020610bcd9381610bab8551858452858401906106b2565b940151908281860391015260ff81511684520151918160208201520190610536565b90565b51906001600160a01b038216820361058b57565b906020808383031261058b5782516001600160401b039384821161058b57019260408484031261058b5760405193610c1b85610493565b8051828116810361058b5785528281015191821161058b57019180601f8401121561058b578251610c4b816105dc565b93610c5960405195866104fa565b818552838086019260051b82010192831161058b5783809101915b838310610c85575050505082015290565b8190610c9084610bd0565b8152019101908390610c74565b60021115610ca757565b634e487b7160e01b600052602160045260246000fd5b60208151015151604051630c133d1360e31b81526020600482015260208180610ce960248201866106b2565b038173__$a0fe38a9a81205afccc10810b09a4d3f45$__5af49081156117a157600091611b96575b50611b845760405163c836244d60e01b81526040600482015260208180610d4f610d3e60448301876106b2565b82810360031901602484015261070d565b038173__$a0fe38a9a81205afccc10810b09a4d3f45$__5af49081156117a157600091611b65575b50611b53578151610e346020825151926040518093819263f47ad7eb60e01b83526040600484015260c0610e1a610dd3610dbe845160e06044890152610124880190610b91565b84890151878203604319016064890152610b91565b6040840151608487015260608401516001600160401b031660a487015260808401516001600160e01b03191660c487015260a08401518682036043190160e4880152610536565b91015161010484015282810360031901602484015261070d565b038173__$386b5c41ce93e8b832daf8008b3d30ae09$__5af49081156117a157600091611b14575b509060405192631ccc893360e11b84526040600485015260008480610e99610e8760448301866106b2565b828103600319016024840152866106b2565b038173__$a0fe38a9a81205afccc10810b09a4d3f45$__5af480156117a157610d3e602091610eee96600091611afb575b50604051968792839263c836244d60e01b84526040600485015260448401906106b2565b038173__$a0fe38a9a81205afccc10810b09a4d3f45$__5af49384156117a157600094611ada575b50600090610f2384610c9d565b6001840361199c5750506040516308c7427760e11b8152602060048201529060008280610f5360248201856106b2565b038173__$a0fe38a9a81205afccc10810b09a4d3f45$__5af480156117a157610d3e602091610fa894600091611983575b50604051948592839263c836244d60e01b84526040600485015260448401906106b2565b038173__$a0fe38a9a81205afccc10810b09a4d3f45$__5af49182156117a157600092611962575b50816118c7575b505b61185b57610fe681610c9d565b15908115611853575b506114b057601f54801561149a57806001600160401b034316046001810180911161059d5781810291818304149015171561059d57601d5468ffffffffffffffff0061104d6001600160401b038360081c1680606087510152611c27565b60081b169068ffffffffffffffff00191617601d55806000526009602052604060002090600282018054156000146110cf579260038361109b9360409660198597036110a3575b5501611d0a565b510151151590565b6001600160401b03601954166001600160401b03198454161783556110ca6001840161222c565b611094565b505060038101546020546001600160401b031603611485576003810154906110f6826105dc565b9161110460405193846104fa565b808352601f19611113826105dc565b0160005b81811061141d575050604051928360608101106001600160401b036060860111176104ae579084916060850160405261115260608601610493565b6001600160401b03601954166060860152604051806020601a54918281520190601a6000526000805160206123558339815191529060005b8181106113fb57505050816111a09103826104fa565b6080860152606085018552436020860152604085015260005b8181106113bc5750604051602081526111de85516060602084015260808301906106b2565b9060208601516040820152604086015191601f19828203016060830152825180825260208201916020808360051b8301019501926000915b838310611387575050505050807f39504a936d8c0cbc12ddec43d5f3e7a937285064bed71961953e3de67d86215e9143930390a2600060038401558061133c575b5060036112649201611d0a565b6020810151600052600960205260406000209080516001600160401b038151166001600160401b0319845416178355602060018401910151908151916001600160401b0383116104ae576020906112bb8484610a93565b0190600052602060002060005b83811061131f575050506020820151600284015550604081015151916003019060005b8381106112fe575050505060409061109b565b806113196113126001936040860151612218565b5185611d0a565b016112eb565b82516001600160a01b0316818301556020909201916001016112c8565b600d9150818102908282040361059d57908491600384016000526020600020908101905b81811061136e575050611257565b82935061137d81939293610b55565b0190859291611360565b91939697509193946020806113a8600193601f198682030187528a51611c3f565b98019301930190928a979695949293611216565b60019192506113f1816113d28160038801611cd8565b506113e16040890151916109e9565b6113eb8383612218565b52612218565b50019084916111b9565b82546001600160a01b031684528a97506020909301926001928301920161118a565b60209060405161142c81610493565b604051611438816104c4565b6114406121f1565b815261144a6121f1565b84820152600060408201526000606082015260006080820152606060a0820152600060c0820152815260008382015282828801015201611117565b9061149581600360409401611d0a565b61109b565b634e487b7160e01b600052601260045260246000fd5b601d546001600160401b038160481c166001600160401b03811461059d57600167ffffffffffffffff60481b910160481b169067ffffffffffffffff60481b191617601d556115206020825101515160405191829163089032d560e01b83526040600484015260448301906106b2565b600319828203016024830152606060408201916001600160401b0360195416815260406020820152601a548093520190601a6000526000805160206123558339815191529060005b818110611831575050509080600092038173__$a0fe38a9a81205afccc10810b09a4d3f45$__5af49081156117a157600091611810575b506040516390ba52cf60e01b815260206004820181905281806115c560248201866106b2565b038173__$a0fe38a9a81205afccc10810b09a4d3f45$__5af49081156117a1576000916117de575b50600052600060205260406000209061162e602061160d60048501610850565b60405180938192630c133d1360e31b835284600484015260248301906106b2565b038173__$a0fe38a9a81205afccc10810b09a4d3f45$__5af49081156117a1576000916117bf575b506117ad576003820180546001600160401b0361167b81831680606089510152611c27565b16906001600160401b0319161790556002604084510151920190815492830180931161059d576116ca9260209255604051809381926304e384ff60e21b835284600484015260248301906106b2565b038173__$a0fe38a9a81205afccc10810b09a4d3f45$__5af49081156117a15760009161173f575b5060405160208082526001600160a01b03909216927f392fae29c67f3b47710cb5b84d7a6fd08e0155a4f22565971f7159f12c6f709692829161173791830190611c3f565b0390a2600090565b906020823d602011611799575b81611759602093836104fa565b81010312611796575061173761178f7f392fae29c67f3b47710cb5b84d7a6fd08e0155a4f22565971f7159f12c6f709692610bd0565b91506116f2565b80fd5b3d915061174c565b6040513d6000823e3d90fd5b604051630e991abd60e41b8152600490fd5b6117d8915060203d6020116103f5576103e781836104fa565b38611656565b906020823d602011611808575b816117f8602093836104fa565b81010312611796575051386115ed565b3d91506117eb565b61182b913d8091833e61182381836104fa565b810190610be4565b3861159f565b82546001600160a01b0316845285945060209093019260019283019201611568565b905038610fef565b60405163015538b160e01b815260206004820152603860248201527f70726f7061676174696f6e206e6f742073757070706f7274656420666f72207360448201527f75626e657473207769746820455243323020737570706c7900000000000000006064820152608490fd5b6118f0915060209060405180938192632cff562160e11b835284600484015260248301906106b2565b038173__$a0fe38a9a81205afccc10810b09a4d3f45$__5af480156117a157600090611927575b611921915061229d565b38610fd7565b6020823d60201161195a575b81611940602093836104fa565b81010312611796575061195561192191610bd0565b611917565b3d9150611933565b61197c91925060203d6020116103f5576103e781836104fa565b9038610fd0565b611996913d8091833e61182381836104fa565b38610f84565b9091506119a883610c9d565b8183156119b7575b5050610fd9565b610d3e6119e192604051938492839263089032d560e01b84526040600485015260448401906106b2565b038173__$a0fe38a9a81205afccc10810b09a4d3f45$__5af4908115611acf578291602091611a329491611ab5575b5060405180948192632cff562160e11b835284600484015260248301906106b2565b038173__$a0fe38a9a81205afccc10810b09a4d3f45$__5af4908115611aa9578091611a6b575b50611a64915061229d565b38816119b0565b90506020823d602011611aa1575b81611a86602093836104fa565b810103126117965750611a9b611a6491610bd0565b38611a59565b3d9150611a79565b604051903d90823e3d90fd5b611ac991503d8085833e61182381836104fa565b38611a10565b6040513d84823e3d90fd5b611af491945060203d6020116103f5576103e781836104fa565b9238610f16565b611b0e913d8091833e61182381836104fa565b38610eca565b6020813d602011611b4b575b81611b2d602093836104fa565b81010312611b475751906002821015611796575038610e5c565b5080fd5b3d9150611b20565b604051632f3335ff60e21b8152600490fd5b611b7e915060203d6020116103f5576103e781836104fa565b38610d77565b60405163c5f563eb60e01b8152600490fd5b611baf915060203d6020116103f5576103e781836104fa565b38610d11565b90611bbd5750565b804710611c155760008080809360635af13d15611c10573d611bde8161051b565b90611bec60405192836104fa565b8152600060203d92013e5b15611bfe57565b604051633204506f60e01b8152600490fd5b611bf7565b60405163356680b760e01b8152600490fd5b9060016001600160401b038093160191821161059d57565b906020808351936040845260c0611cc5611c66875160e06040890152610120880190610b91565b611c818589015191603f1992838a83030160608b0152610b91565b90604089015160808901526001600160401b0360608a01511660a089015263ffffffff60e01b60808a0151168489015260a0890151908883030160e0890152610536565b9501516101008501520151151591015290565b8054821015611cf457600052600d602060002091020190600090565b634e487b7160e01b600052603260045260246000fd5b8054600160401b8110156104ae57611d29906001928382018155611cd8565b9190916121c1578251918251928351926001600160401b03808551166001600160401b03199081865416178555828501926020809701518051908482116104ae578890611d768388610a93565b01600095865288862083875b8481106121a6575050505050866002870198015160ff8151169860ff19998a825416179055600392888489019201519182518681116120c05780611dc683546108cb565b94898d601f9788808211612179575b505050508c9086831160011461210e578a92612103575b505060001982881b1c191690851b1790555b6004880190898801519182519187835116908254161790558960058a01910151908151918783116120ef578b90611e358484610a93565b019088528a882085895b8481106120d457505050505088600689019101519060ff8251168b82541617905588600789019101518051908682116120c0578190611e7e84546108cb565b8c868211612093575b50508b90858311600114612034578992612029575b505060001982871b1c191690841b1790555b6040860151600888015560098701846060880151168154906bffffffff000000000000000060808a015160a01c16916bffffffffffffffffffffffff191617179055600a87019460a087015190815195861161201557611f0e87546108cb565b8a848211611fde575b505089928611600114611f6f57938560ff9a999794819460c09894600c9b9895611f64575b50501b92600019911b1c19161790555b0151600b820155019301511515918354169116179055565b015193503880611f3c565b9294939190601f1985168785528a8520945b818110611fc9575092859260ff9b9a989592600c9a9760c0999610611faf575b50505050811b019055611f4c565b01519060f884600019921b161c1916905538808080611fa1565b82840151865594870194928b01928b01611f81565b612005918984528582852091818b0160051c8301938b1061200c575b0160051c0190610a7c565b388a611f17565b92508192611ffa565b634e487b7160e01b81526041600452602490fd5b015190503880611e9c565b848a528c8a208794509190601f1984168b8f5b82821061207c5750508411612064575b505050811b019055611eae565b015160001983891b60f8161c19169055388080612057565b8385015186558a979095019493840193018f612047565b6120b991868c5287828d209181870160051c830193871061200c570160051c0190610a7c565b388c611e87565b634e487b7160e01b88526041600452602488fd5b83516001600160a01b031683820155928d0192879101611e3f565b634e487b7160e01b89526041600452602489fd5b015190503880611dec565b879350908d91601f198416868d52838d20938d905b8282106121585750508411612140575b505050811b019055611dfe565b0151600019838a1b60f8161c19169055388080612133565b91929395968291958786015181550195019301908f918a9695949392612123565b82848961219d9652209181870160051c830193871061200c570160051c0190610a7c565b898d3888611dd5565b83516001600160a01b031683820155928b0192859101611d82565b634e487b7160e01b600052600060045260246000fd5b604051906121e482610493565b6060602083600081520152565b604051906121fe82610493565b816122076121d7565b815260206122136121d7565b910152565b8051821015611cf45760209160051b010190565b601a811461229a57601a54906001600160401b0382116104ae576122508282610a93565b60009081526020812060008051602061235583398151915280545b848410612279575050505050565b600191820180546001600160a01b039092168486015593909101929061226b565b50565b604080516380875df760e01b815290918290829060049082906001600160a01b03165afa91821561234a576000926122ec575b5050600190516122df81610c9d565b6122e881610c9d565b1490565b8082813d8311612343575b61230181836104fa565b8101031261233f57519161231483610493565b8151906002821015611796575060208392612333926001955201610bd0565b602082015290386122d0565b8280fd5b503d6122f7565b513d6000823e3d90fdfe057c384a7d1c54f3a1b2e5e67b2617b8224fdfd1ea7234eea573a6ff665ff63ea2646970667358221220ea268fe22c4efb3bbc3fa59a1105cc218028059641a8180ff477d389e377f82364736f6c63430008130033","linkReferences":{"src/lib/StorableMsgHelper.sol":{"StorableMsgHelper":[{"start":3668,"length":20}]},"src/lib/SubnetIDHelper.sol":{"SubnetIDHelper":[{"start":676,"length":20},{"start":3337,"length":20},{"start":3439,"length":20},{"start":3769,"length":20},{"start":3854,"length":20},{"start":3955,"length":20},{"start":4040,"length":20},{"start":5527,"length":20},{"start":5605,"length":20},{"start":5710,"length":20},{"start":5866,"length":20},{"start":6416,"length":20},{"start":6657,"length":20},{"start":6738,"length":20}]}}},"methodIdentifiers":{"propagate(bytes32)":"25bf0db6","sendUserXnetMessage(((((uint64,address[]),(uint8,bytes)),((uint64,address[]),(uint8,bytes)),uint256,uint64,bytes4,bytes,uint256),bool))":"210b944e"},"id":49}