{"abi":[{"type":"function","name":"addBootstrapNode","inputs":[{"name":"netAddress","type":"string","internalType":"string"}],"outputs":[],"stateMutability":"nonpayable"},{"type":"function","name":"claim","inputs":[],"outputs":[],"stateMutability":"nonpayable"},{"type":"function","name":"claimRewardForRelayer","inputs":[],"outputs":[],"stateMutability":"nonpayable"},{"type":"function","name":"confirmChange","inputs":[{"name":"_configurationNumber","type":"uint64","internalType":"uint64"}],"outputs":[],"stateMutability":"nonpayable"},{"type":"function","name":"confirmNextChange","inputs":[],"outputs":[],"stateMutability":"nonpayable"},{"type":"function","name":"distributeRewardToRelayers","inputs":[{"name":"height","type":"uint256","internalType":"uint256"},{"name":"reward","type":"uint256","internalType":"uint256"},{"name":"kind","type":"uint8","internalType":"enum QuorumObjKind"}],"outputs":[],"stateMutability":"payable"},{"type":"function","name":"join","inputs":[{"name":"publicKey","type":"bytes","internalType":"bytes"}],"outputs":[],"stateMutability":"payable"},{"type":"function","name":"kill","inputs":[],"outputs":[],"stateMutability":"nonpayable"},{"type":"function","name":"leave","inputs":[],"outputs":[],"stateMutability":"nonpayable"},{"type":"function","name":"pause","inputs":[],"outputs":[],"stateMutability":"nonpayable"},{"type":"function","name":"paused","inputs":[],"outputs":[{"name":"","type":"bool","internalType":"bool"}],"stateMutability":"view"},{"type":"function","name":"preFund","inputs":[],"outputs":[],"stateMutability":"payable"},{"type":"function","name":"preRelease","inputs":[{"name":"amount","type":"uint256","internalType":"uint256"}],"outputs":[],"stateMutability":"nonpayable"},{"type":"function","name":"setFederatedPower","inputs":[{"name":"validators","type":"address[]","internalType":"address[]"},{"name":"publicKeys","type":"bytes[]","internalType":"bytes[]"},{"name":"powers","type":"uint256[]","internalType":"uint256[]"}],"outputs":[],"stateMutability":"nonpayable"},{"type":"function","name":"stake","inputs":[],"outputs":[],"stateMutability":"payable"},{"type":"function","name":"submitBottomUpMsgBatch","inputs":[{"name":"batch","type":"tuple","internalType":"struct BottomUpMsgBatch","components":[{"name":"subnetID","type":"tuple","internalType":"struct SubnetID","components":[{"name":"root","type":"uint64","internalType":"uint64"},{"name":"route","type":"address[]","internalType":"address[]"}]},{"name":"blockHeight","type":"uint256","internalType":"uint256"},{"name":"msgs","type":"tuple[]","internalType":"struct CrossMsg[]","components":[{"name":"message","type":"tuple","internalType":"struct StorableMsg","components":[{"name":"from","type":"tuple","internalType":"struct IPCAddress","components":[{"name":"subnetId","type":"tuple","internalType":"struct SubnetID","components":[{"name":"root","type":"uint64","internalType":"uint64"},{"name":"route","type":"address[]","internalType":"address[]"}]},{"name":"rawAddress","type":"tuple","internalType":"struct FvmAddress","components":[{"name":"addrType","type":"uint8","internalType":"uint8"},{"name":"payload","type":"bytes","internalType":"bytes"}]}]},{"name":"to","type":"tuple","internalType":"struct IPCAddress","components":[{"name":"subnetId","type":"tuple","internalType":"struct SubnetID","components":[{"name":"root","type":"uint64","internalType":"uint64"},{"name":"route","type":"address[]","internalType":"address[]"}]},{"name":"rawAddress","type":"tuple","internalType":"struct FvmAddress","components":[{"name":"addrType","type":"uint8","internalType":"uint8"},{"name":"payload","type":"bytes","internalType":"bytes"}]}]},{"name":"value","type":"uint256","internalType":"uint256"},{"name":"nonce","type":"uint64","internalType":"uint64"},{"name":"method","type":"bytes4","internalType":"bytes4"},{"name":"params","type":"bytes","internalType":"bytes"},{"name":"fee","type":"uint256","internalType":"uint256"}]},{"name":"wrapped","type":"bool","internalType":"bool"}]}]},{"name":"signatories","type":"address[]","internalType":"address[]"},{"name":"signatures","type":"bytes[]","internalType":"bytes[]"}],"outputs":[],"stateMutability":"nonpayable"},{"type":"function","name":"submitCheckpoint","inputs":[{"name":"checkpoint","type":"tuple","internalType":"struct BottomUpCheckpoint","components":[{"name":"subnetID","type":"tuple","internalType":"struct SubnetID","components":[{"name":"root","type":"uint64","internalType":"uint64"},{"name":"route","type":"address[]","internalType":"address[]"}]},{"name":"blockHeight","type":"uint256","internalType":"uint256"},{"name":"blockHash","type":"bytes32","internalType":"bytes32"},{"name":"nextConfigurationNumber","type":"uint64","internalType":"uint64"}]},{"name":"signatories","type":"address[]","internalType":"address[]"},{"name":"signatures","type":"bytes[]","internalType":"bytes[]"}],"outputs":[],"stateMutability":"nonpayable"},{"type":"function","name":"unpause","inputs":[],"outputs":[],"stateMutability":"nonpayable"},{"type":"function","name":"unstake","inputs":[{"name":"amount","type":"uint256","internalType":"uint256"}],"outputs":[],"stateMutability":"nonpayable"},{"type":"function","name":"validateActiveQuorumSignatures","inputs":[{"name":"signatories","type":"address[]","internalType":"address[]"},{"name":"hash","type":"bytes32","internalType":"bytes32"},{"name":"signatures","type":"bytes[]","internalType":"bytes[]"}],"outputs":[],"stateMutability":"view"},{"type":"event","name":"BottomUpCheckpointExecuted","inputs":[{"name":"epoch","type":"uint256","indexed":false,"internalType":"uint256"},{"name":"submitter","type":"address","indexed":false,"internalType":"address"}],"anonymous":false},{"type":"event","name":"BottomUpCheckpointSubmitted","inputs":[{"name":"checkpoint","type":"tuple","indexed":false,"internalType":"struct BottomUpCheckpoint","components":[{"name":"subnetID","type":"tuple","internalType":"struct SubnetID","components":[{"name":"root","type":"uint64","internalType":"uint64"},{"name":"route","type":"address[]","internalType":"address[]"}]},{"name":"blockHeight","type":"uint256","internalType":"uint256"},{"name":"blockHash","type":"bytes32","internalType":"bytes32"},{"name":"nextConfigurationNumber","type":"uint64","internalType":"uint64"}]},{"name":"submitter","type":"address","indexed":false,"internalType":"address"}],"anonymous":false},{"type":"event","name":"NextBottomUpCheckpointExecuted","inputs":[{"name":"epoch","type":"uint256","indexed":false,"internalType":"uint256"},{"name":"submitter","type":"address","indexed":false,"internalType":"address"}],"anonymous":false},{"type":"event","name":"Paused","inputs":[{"name":"account","type":"address","indexed":false,"internalType":"address"}],"anonymous":false},{"type":"event","name":"SubnetBootstrapped","inputs":[{"name":"","type":"tuple[]","indexed":false,"internalType":"struct Validator[]","components":[{"name":"weight","type":"uint256","internalType":"uint256"},{"name":"addr","type":"address","internalType":"address"},{"name":"metadata","type":"bytes","internalType":"bytes"}]}],"anonymous":false},{"type":"event","name":"Unpaused","inputs":[{"name":"account","type":"address","indexed":false,"internalType":"address"}],"anonymous":false},{"type":"error","name":"AddressInsufficientBalance","inputs":[{"name":"account","type":"address","internalType":"address"}]},{"type":"error","name":"AddressShouldBeValidator","inputs":[]},{"type":"error","name":"BatchWithNoMessages","inputs":[]},{"type":"error","name":"CannotConfirmFutureChanges","inputs":[]},{"type":"error","name":"CannotReleaseZero","inputs":[]},{"type":"error","name":"CollateralIsZero","inputs":[]},{"type":"error","name":"DuplicatedGenesisValidator","inputs":[]},{"type":"error","name":"EmptyAddress","inputs":[]},{"type":"error","name":"EnforcedPause","inputs":[]},{"type":"error","name":"ExpectedPause","inputs":[]},{"type":"error","name":"FailedInnerCall","inputs":[]},{"type":"error","name":"InvalidBatchEpoch","inputs":[]},{"type":"error","name":"InvalidCheckpointEpoch","inputs":[]},{"type":"error","name":"InvalidFederationPayload","inputs":[]},{"type":"error","name":"InvalidPublicKeyLength","inputs":[]},{"type":"error","name":"InvalidSignatureErr","inputs":[{"name":"","type":"uint8","internalType":"uint8"}]},{"type":"error","name":"MaxMsgsPerBatchExceeded","inputs":[]},{"type":"error","name":"MethodNotAllowed","inputs":[{"name":"reason","type":"string","internalType":"string"}]},{"type":"error","name":"NoCollateralToWithdraw","inputs":[]},{"type":"error","name":"NotAllValidatorsHaveLeft","inputs":[]},{"type":"error","name":"NotEnoughBalance","inputs":[]},{"type":"error","name":"NotEnoughCollateral","inputs":[]},{"type":"error","name":"NotEnoughFunds","inputs":[]},{"type":"error","name":"NotEnoughGenesisValidators","inputs":[]},{"type":"error","name":"NotGateway","inputs":[]},{"type":"error","name":"NotOwner","inputs":[]},{"type":"error","name":"NotOwnerOfPublicKey","inputs":[]},{"type":"error","name":"NotValidator","inputs":[{"name":"","type":"address","internalType":"address"}]},{"type":"error","name":"PQDoesNotContainAddress","inputs":[]},{"type":"error","name":"PQEmpty","inputs":[]},{"type":"error","name":"ReentrancyError","inputs":[]},{"type":"error","name":"SubnetAlreadyBootstrapped","inputs":[]},{"type":"error","name":"SubnetAlreadyKilled","inputs":[]},{"type":"error","name":"WithdrawExceedingCollateral","inputs":[]}],"bytecode":{"object":"0x6080806040523461001657615076908161001c8239f35b600080fdfe608080604052600436101561001357600080fd5b600090813560e01c9081630b7fbe6014611b175750806310fd4261146119a0578063268119361461178d5780632e17de7814611760578063350a14bf1461172d5780633a4b66f1146116515780633f4ba83a146115d957806341c0e1b5146115485780634c860af6146114f45780634e71d92d146113605780635c975abb146113305780636170b16214610f8057806366783c9b14610e9f5780638456cb5914610e37578063b9ee2bb914610a38578063c7ebdaef146109f2578063cc2dc2b914610972578063d66d9e1914610927578063da5d09ee146101bb5763ed7c4da1146100fd57600080fd5b346101b857806003193601126101b85760008051602061502183398151915260018154146101a657806001839255610133611e23565b73__$4a8700ca5e162cb61a0c4650a4871f1ad5$__803b156101a25782602491604051928380926382985e0b60e01b82523360048301525af4908115610197578391610180575b50505580f35b61018990611bf9565b61019457813861017a565b50fd5b6040513d85823e3d90fd5b5050fd5b6040516329f745a760e01b8152600490fd5b80fd5b50346101b85760603660031901126101b8576004356001600160401b038111610923576101ec903690600401611c9a565b906024356001600160401b03811161091f5761020c903690600401611c9a565b916044356001600160401b03811161091b5761022c903690600401611c9a565b9094610236613d4d565b61023e611dde565b60ff601354166003811015610907576001036108d7578181036108c5578481036108c55760125460081c60ff161561052557865b818110610283575050505050505080f35b610297610291828888614f8f565b90614e6c565b6001600160a01b036102b26102ad848689614fd0565b611fda565b166001600160a01b03909116036105135761031c6102d46102ad838588614fd0565b6102df838989614f8f565b6102ed85888d969496614fd0565b35610308604051958693604060208601526060850191613ac7565b90604083015203601f198101845283611c27565b6001600160401b03601c541660405161033481611c0c565b600381526020810184815260018060a01b038416604083015282600052601d602052604060002090825161036781612160565b61037081612160565b60ff80198454169116178255518051906001600160401b0382116104fd576103a88261039f6001860154612180565b60018601612273565b602090601f8311600114610476579282600080516020614fe183398151915297959360029360019b9a989660009261046b575b5050600019600383901b1c1916908a1b17818a01555b01906040888060a01b03910151166001600160601b0360a01b8254161790556001600160401b0361042182612398565b166001600160401b0319601c541617601c5561045c60405193849360038552888060a01b031660208501526080806040860152840190613deb565b9060608301520390a101610272565b0151905038806103db565b906001840160005260206000209160005b601f19851681106104e557508360029360019b9a9896938c93600080516020614fe18339815191529b9997601f198116106104cc575b505050811b01898201556103f1565b015160001960f88460031b161c191690553880806104bd565b91926020600181928685015181550194019201610487565b634e487b7160e01b600052604160045260246000fd5b604051634be9251d60e11b8152600490fd5b9490929391865b868110610697575050505050506001600160401b03600c541610156106855761010061ff0019601254161760125560405190602091828101838252600154809152604082019060408160051b8401019460016000527fb10e2d527612073b26eecdfd717e6a320cf44b4afac2b0732d9fcbe2b7fa0cf6926000905b838210610639575050505050807f4914d88063275a25a13b2df37125e216745d812f94c56504be4bd78cf60c959392930390a1600e5460025482916001600160a01b0316803b156101a2578290602460405180948193637903ab2760e11b83528160048401525af1801561062e5761061e57505080f35b61062790611bf9565b6101b85780f35b6040513d84823e3d90fd5b90919293968360036106766060600194603f198b82030187528c5481528c86808060a01b0391015416858201528160408201520160028c016121ba565b990192019201909392916105a7565b60405163031480b160e51b8152600490fd5b6106a5610291828689614f8f565b6001600160a01b039081806106be6102ad868d89614fd0565b16911603610513576106dc6106d76102ad848b87614fd0565b613133565b6108b3576107026106f16102ad848b87614fd0565b6106fc84888b614f8f565b91613e10565b6107256107136102ad848b87614fd0565b61071e848988614fd0565b3590612889565b6107336102ad838a86614fd0565b9061073f838887614fd0565b359161076e61074f85898c614f8f565b6040519561075c87611c0c565b86528460208701941684523691611c63565b9160408401928352600154600160401b8110156104fd578060016107959201600155613eed565b94909461089d57518455600184019151166001600160601b0360a01b825416179055518051906001600160401b0382116104fd576107e3826107da6002860154612180565b60028601612273565b602090601f8311600114610829579180600292600196959460009261081e575b5050600019600383901b1c191690851b179101555b0161052c565b015190503880610803565b906002840160005260206000209160005b601f1985168110610885575092600292600196959492879383601f1981161061086c575b505050811b01910155610818565b015160001960f88460031b161c1916905538808061085e565b9192602060018192868501518155019401920161083a565b634e487b7160e01b600052600060045260246000fd5b604051630472b35360e41b8152600490fd5b604051637e65935960e01b8152600490fd5b6109036108e2613d6e565b60405163015538b160e01b8152602060048201529182916024830190613deb565b0390fd5b634e487b7160e01b88526021600452602488fd5b8580fd5b8380fd5b5080fd5b50346101b857806003193601126101b85760008051602061502183398151915260018154146101a65780600183925561095e611e23565b610966613d4d565b61096e614796565b5580f35b50346101b85760603660031901126101b8576001600160401b036004358181116109ee57366023820112156109ee576109b5903690602481600401359101611d09565b6044359182116109ee57366023830112156109ee576109e16109eb923690602481600401359101611d5f565b9060243590614b31565b80f35b8280fd5b50346101b857806003193601126101b8576001600160401b0360001981601c541601908111610a24576109eb906123b0565b634e487b7160e01b82526011600452602482fd5b50346101b857600319606036820112610923576001600160401b03600435116109235760806004356004019160043536030112610923576024356001600160401b0381116109ee57610a8e903690600401611c9a565b91906044356001600160401b038111610e3357610aaf903690600401611c9a565b91610ab8611e23565b60055494600b5495610aca8782611e4e565b60246004350135141580610e23575b610e115760405190610b116020830183610af38a83611f29565b0393610b07601f1995868101835282611c27565b5190209882611e4e565b6004356024013503610d0e57505091610b34610b3c92610b429697943691611d09565b933691611d5f565b91614b31565b602460043501358252816020526040822090803560421960043536030181121561091f576004350191600483016001600160401b03610b8082611f7a565b16936001600160401b03199485845416178355610ba66001926024848601930190611f8e565b91906001600160401b038311610cfa57600160401b8311610cfa578154838355808410610cdf575b509087959493929190865260208620865b838110610cb8575050505050600480356024810135600284015560448101356003840155606401949101906001600160401b03610c1b86611f7a565b16908254161790556024600435013582526022602052610c3f6040832033906120db565b5060043560240135600555600e546001600160a01b0316803b156109ee576040516347dc9b4f60e01b81529183918391829084908290610c829060048301611f29565b03925af1801561062e57610ca4575b5050610c9f6109eb91611f7a565b6123b0565b610cad90611bf9565b610923578138610c91565b84959697506020610ccc8495969394611fda565b848301558a989796959401929101610bdf565b82895260208920610cf4918101908501611fc3565b38610bce565b634e487b7160e01b88526041600452602488fd5b945094505050506024600435013514610d2657505080f35b60246004350135835282602052604083206040519060208201926020845260806040840152826101008101926001600160401b0381541660c083015260019081810191604060e085015282548096526101208401928a5260208a20908a5b878110610df0575050506002810154606084015260038101546080840152600401546001600160401b031660a0830152039081018352610dc5915082611c27565b51902014610dd05780f35b6024600435013581526022602052610dec6040822033906120db565b5080f35b82546001600160a01b03168552889550602090940193918101918101610d84565b60405163fae4eadb60e01b8152600490fd5b5080602460043501351415610ad9565b8480fd5b50346101b857806003193601126101b857610e50611dde565b610e58611e23565b600080516020615001833981519152600160ff198254161790557f5db9ee0a495bf2e6ff9c91a7834c1ba4fdd244a5e8aa4e537bd38aeae4b073aa6020604051338152a180f35b50346101b85760203660031901126101b85760043560008051602061502183398151915260018154146101a657600181558115610f6e5760ff60125460081c16610f5c57338352600360205281604084205410610f4a5761096e8392338452600360205260408420610f1282825461291d565b9055610f208160025461291d565b6002553384526003602052604084205415610f3c575b33613cd3565b610f4533614ea8565b610f36565b60405163569d45cf60e11b8152600490fd5b604051631b39f2f360e11b8152600490fd5b604051631036b5ad60e31b8152600490fd5b5060203660031901126101b8576004356001600160401b0381116109235736602382011215610923576001600160401b038160040135116109235736602482600401358301011161092357600160008051602061502183398151915254146101a657600160008051602061502183398151915255610ffc611e23565b611004613d4d565b60ff60125460081c1680611323575b3415611311573360009081526015602052604090206002015461129c57604182600401350361128a57336001600160a01b03611056600485013560248601614e6c565b160361051357611099578060246110739260040135910133613e10565b61107d3433613f28565b61108561435c565b806000805160206150218339815191525580f35b6110ab36826004013560248401611c63565b6001600160401b03601c541690604051906110c582611c0c565b600282526020820190815233604083015282600052601d60205260406000209082516110f081612160565b6110f981612160565b60ff80198454169116178255518051906001600160401b0382116104fd576111288261039f6001860154612180565b602090601f8311600114611202579282600080516020614fe18339815191529795936002936111df98966000926111f7575b50508160011b916000199060031b1c19161760018201555b0190604060018060a01b03910151166001600160601b0360a01b8254161790556001600160401b036111a382612398565b166001600160401b0319601c541617601c5560405192839260028452336020850152608060408501526080840190602481600401359101613ac7565b9060608301520390a16111f23433614142565b611085565b01519050388061115a565b906001840160005260206000209160005b601f19851681106112725750836002936111df989693600193600080516020614fe18339815191529b9997601f19811610611259575b505050811b016001820155611172565b015160001960f88460031b161c19169055388080611249565b91926020600181928685015181550194019201611213565b6040516318dca5e960e21b8152600490fd5b6109036040516112ab81611c0c565b603281527f4d6574686f64206e6f7420616c6c6f7765642069662076616c696461746f72206020820152711a185cc8185b1c9958591e481a9bda5b995960721b604082015260405191829163015538b160e01b8352602060048401526024830190613deb565b604051635a78c58160e11b8152600490fd5b61132b614347565b611013565b50346101b857806003193601126101b857602060ff60008051602061500183398151915254166040519015158152f35b50346101b857806003193601126101b857600190600080516020615021833981519152828154146101a657828155611396611e23565b336000908152601f602052604090209283549061ffff908183169283156114e257829060101c16918391808795818a01915b61145c575b5050508661143e937f197c586353eaed0a1c53e6e540445b94befab8f932c8115d112115ecbeeed514959363ffff000093899a54911693849260101b169063ffffffff19161717905515611445575b6114268133613cd3565b60408051338152602081019290925290918291820190565b0390a15580f35b336000908152601f6020526040902085905561141c565b9091939483811696828810156114d9578760005260208091858252604060002060405161148881611bde565b898254928383520154938491015243106114ce57859493889688946114af86958a95611e4e565b9c600052526000826040822082815501550116966000190116946113c8565b9850505094936113cd565b965094936113cd565b6040516364b0557f60e01b8152600490fd5b5060603660031901126101b857604435600281101561092357611515611e23565b600e546001600160a01b03163303611536576109eb9060243560043561498e565b60405163e7e601db60e01b8152600490fd5b50346101b857806003193601126101b857611561613d4d565b61ffff6115778160195416826016541690612873565b166115c7576012805462ff0000191662010000179055600e5481906001600160a01b0316803b15610194578180916004604051809481936341c0e1b560e01b83525af1801561062e5761061e5750f35b604051636b62255160e11b8152600490fd5b50346101b857806003193601126101b8576115f2611dde565b600080516020615001833981519152805460ff81161561163f5760ff191690557f5db9ee0a495bf2e6ff9c91a7834c1ba4fdd244a5e8aa4e537bd38aeae4b073aa6020604051338152a180f35b604051638dfc202b60e01b8152600490fd5b50806003193601126101b857611665611e23565b61166d613d4d565b611675614347565b34156113115733600090815260156020526040902060020154156116bc5760125460081c60ff166116b2576116aa3433613f28565b6109eb61435c565b6109eb3433614142565b6109036040516116cb81611c0c565b602e81527f4d6574686f64206e6f7420616c6c6f7765642069662076616c696461746f722060208201526d1a185cc81b9bdd081a9bda5b995960921b604082015260405191829163015538b160e01b8352602060048401526024830190613deb565b50346101b85760203660031901126101b8576004356001600160401b038116810361175b576109eb906123b0565b600080fd5b50346101b85760203660031901126101b85761177a611e23565b611782613d4d565b6109eb6004356144c6565b50346101b857600319606036820112610923576004356001600160401b039182821161091f5760608260040191833603011261091f57602435838111610e33576117db903690600401611c9a565b919060443585811161199c576117f5903690600401611c9a565b916024860135966006549687891061195157604401906118158287611f8e565b9190506009541680911161198a5761182d8287611f8e565b9050141580611963575b611951576118459085611f8e565b90501561193f5787946040516020810190611872816118648985613b51565b03601f198101835282611c27565b5190209688036118a3575050505050506007541461188e575080f35b81526023602052610dec6040822033906120db565b6118bd9392610b3488969893610b3c939a989a3691611d09565b8060206040516118cc81611bde565b848152015281600655600755825260236020526118ed6040832033906120db565b50600e546001600160a01b031690813b156101a257829161192491604051948580948193630bed761560e01b835260048301613b51565b03925af1801561062e57611936575080f35b6109eb90611bf9565b6040516338d2307f60e01b8152600490fd5b60405163200c52f760e21b8152600490fd5b5060085480156119765788061515611837565b634e487b7160e01b8a52601260045260248afd5b60405163351c700760e01b8152600490fd5b8680fd5b50346101b857602090816003193601126101b8576001600160401b03916004358381116109ee57366023820112156109ee576119e6903690602481600401359101611c63565b926119ef611e23565b3383526017825261ffff60408420541615611aff57835115611aed573383526024825260408320918451918211611ad957611a3482611a2e8554612180565b85612273565b80601f8311600114611a755750839482939492611a6a575b50508160011b916000199060031b1c19161790555b610dec33612072565b015190503880611a4c565b90601f198316958486528286209286905b888210611ac157505083600195969710611aa8575b505050811b019055611a61565b015160001960f88460031b161c19169055388080611a9b565b80600185968294968601518155019501930190611a86565b634e487b7160e01b84526041600452602484fd5b604051637138356f60e01b8152600490fd5b604051633b4f6e2b60e21b8152336004820152602490fd5b905081600319360112610923573415611bcf575060ff60125460081c16610f5c573381526003602052604081205415611b76575b338152600360205260408120611b62348254611e4e565b9055611b7034600254611e4e565b60025580f35b600454600160401b811015611bbb57611b98816001611bb69301600455611fee565b81546001600160a01b0360039290921b91821b19163390911b179055565b611b4b565b634e487b7160e01b82526041600452602482fd5b631036b5ad60e31b8152600490fd5b604081019081106001600160401b038211176104fd57604052565b6001600160401b0381116104fd57604052565b606081019081106001600160401b038211176104fd57604052565b90601f801991011681019081106001600160401b038211176104fd57604052565b6001600160401b0381116104fd57601f01601f191660200190565b929192611c6f82611c48565b91611c7d6040519384611c27565b82948184528183011161175b578281602093846000960137010152565b9181601f8401121561175b578235916001600160401b03831161175b576020808501948460051b01011161175b57565b35906001600160401b038216820361175b57565b6001600160401b0381116104fd5760051b60200190565b35906001600160a01b038216820361175b57565b9291611d1482611cde565b91611d226040519384611c27565b829481845260208094019160051b810192831161175b57905b828210611d485750505050565b838091611d5484611cf5565b815201910190611d3b565b92919092611d6c84611cde565b91611d7a6040519384611c27565b829480845260208094019060051b83019282841161175b5780915b848310611da457505050505050565b82356001600160401b03811161175b57820184601f8201121561175b578691611dd38683858095359101611c63565b815201920191611d95565b7f806e0cbb9fce296bbc336a48f42bf1dbc69722d18d90d6fe705b7582c2bb4bd5546001600160a01b03163303611e1157565b6040516330cd747160e01b8152600490fd5b60ff6000805160206150018339815191525416611e3c57565b60405163d93c066560e01b8152600490fd5b91908201809211611e5b57565b634e487b7160e01b600052601160045260246000fd5b9035603e198236030181121561175b570190565b9035601e198236030181121561175b5701602081359101916001600160401b03821161175b578160051b3603831361175b57565b60408201916001600160401b03611ecf83611cca565b1681526060611ee360209384810190611e85565b839195604086839601525201929160005b828110611f02575050505090565b909192938280600192838060a01b03611f1a89611cf5565b16815201950193929101611ef4565b6020815260806001600160401b03611f736060611f59611f498780611e71565b85602088015260a0870190611eb9565b956020810135604087015260408101358287015201611cca565b1691015290565b356001600160401b038116810361175b5790565b903590601e198136030182121561175b57018035906001600160401b03821161175b57602001918160051b3603831361175b57565b818110611fce575050565b60008155600101611fc3565b356001600160a01b038116810361175b5790565b6004548110156120255760046000527f8a35acfbc15ff81a39ae7d344fd709f28e8600b4aa8c65c6b64bfe7fe36bd19b0190600090565b634e487b7160e01b600052603260045260246000fd5b6025548110156120255760256000527f401968ff42a154441da5f6c4c935ac46b8671f0e062baaa62a7545ba53bb6e4c0190600090565b6000818152602660205260408120546120d657602554600160401b811015611bbb5790826120c26120ab8460016040960160255561203b565b819391549060031b91821b91600019901b19161790565b905560255492815260266020522055600190565b905090565b9190600183016000908282528060205260408220541560001461215a57845494600160401b861015612146576001860180825586101561213257836040949596828552602085200155549382526020522055600190565b634e487b7160e01b83526032600452602483fd5b634e487b7160e01b83526041600452602483fd5b50925050565b6004111561216a57565b634e487b7160e01b600052602160045260246000fd5b90600182811c921680156121b0575b602083101461219a57565b634e487b7160e01b600052602260045260246000fd5b91607f169161218f565b90600092918054916121cb83612180565b91828252600193848116908160001461222d57506001146121ed575b50505050565b90919394506000526020928360002092846000945b8386106122195750505050010190388080806121e7565b805485870183015294019385908201612202565b9294505050602093945060ff191683830152151560051b010190388080806121e7565b60005b8381106122635750506000910152565b8181015183820152602001612253565b9190601f811161228257505050565b6122ae926000526020600020906020601f840160051c830193106122b0575b601f0160051c0190611fc3565b565b90915081906122a1565b90808214612394576122cc8154612180565b906001600160401b0382116104fd5781906122f1826122eb8654612180565b86612273565b600090601f83116001146123285760009261231d575b50508160011b916000199060031b1c1916179055565b015490503880612307565b81526020808220858352818320935090601f1985169083905b82821061237b575050908460019594939210612362575b505050811b019055565b015460001960f88460031b161c19169055388080612358565b8495819295850154815560018091019601940190612341565b5050565b9060016001600160401b0380931601918211611e5b57565b601c546001600160401b03828116929080831684106123db5760405163040aaa0560e11b8152600490fd5b808360401c1684106121e75780604093841c165b848282161115612456575050916020916124297f246f00b61ce672242f33bb680a47147cd54d3dfd04dbb76956ba42f88087bf6394612398565b67ffffffffffffffff60401b601c5491831b169067ffffffffffffffff60401b191617601c5551908152a1565b81612474826001600160401b0316600052601d602052604060002090565b6002808201548254929491926001600160a01b03918216919060ff1661249981612160565b80850361250b57505060036124ca60016124d094959697019260018060a01b03166000526015602052604060002090565b016122ba565b6124ed816001600160401b0316600052601d602052604060002090565b9160009081845560019361250285820161292a565b015501166123ef565b9091945061251881612160565b6003918183036126b657505087519361254085612539816001809a016121ba565b0386611c27565b84518501916020928a8785830192031261175b578387015189811161175b5787019681603f8901121561175b5787858d9901519261258961258085611c48565b9a519a8b611c27565b838a528d848301011161175b578c926125a79184888c019101612250565b015192816125c78460018060a01b03166000526015602052604060002090565b01918751918a83116126a1578a986125e9846125e38754612180565b87612273565b81601f851160011461262e575061261e9798999a8493928492600095612623575b50501b92600019911b1c1916179055612889565b6124d0565b01519350388061260a565b91601f9b9493919b1984169b866000528c84600020946000915b82106126865750508461261e9a9b9c9d1061266c575b50505050811b019055612889565b01519060f884600019921b161c191690553880808061265e565b8383015186558f9d509487019492830192908101908e612648565b60246000634e487b7160e01b81526041600452fd5b915091938895939551936126d2856125398160018095016121ba565b6020808680518101031261175b5781818c970151956126f081612160565b036128155784906127018285612973565b601e5461270e9043611e4e565b9287519061271b82611bde565b8482528282018481526001600160a01b0387166000908152601f602052604090209091909283549161ffff9384848180961695869160101c169061275e91612873565b169c60009d8e5282870188528d20925183555191015561277d90612860565b1661ffff198254161790558b519384528301528982015260607f083b080788e20bd0930c2bca2ae4fbc51a59ced08c1b5992271f8cb439498a6391a1600e541690813b156109ee578291602483928a5195869384926345f5448560e01b845260048401525af190811561280a575090849392916127fb575b506124d0565b61280490611bf9565b386127f5565b8751903d90823e3d90fd5b50508293509161282591926128cd565b600e541690813b1561175b578651916316989f6f60e21b83528260048160009485945af190811561280a575090849392916127fb57506124d0565b90600161ffff80931601918211611e5b57565b91909161ffff80809416911601918211611e5b57565b9060018060a01b0382166000526015602052604060002081815491558181146000146128b457505050565b8111156128c4576122ae91612a02565b6122ae91612d48565b906122ae9161291560018060a01b038216928360005260156020526128fa81600160406000200154611e4e565b93600052601560205283600160406000200155601454611e4e565b601455612a02565b91908203918211611e5b57565b6129348154612180565b908161293e575050565b81601f60009311600114612950575055565b90808391825261296f601f60208420940160051c840160018501611fc3565b5555565b906129e06129e89260018060a01b03811690600082815260156020526129a085600160408420015461291d565b92815260156020526040812060028101848154811590816129f9575b50156129ed575090826003926129db948355816001840155550161292a565b612d48565b60145461291d565b601455565b92505060010155612d48565b905015386129bc565b919060018060a01b03928381166000948186526020916017835261ffff91604097838982205416612c33578360135460081c16846016541610612bff57612a47613855565b60019283825260188652828a8320541688612a6182613133565b10612b7957508152601a8552838982205416612ad0575050505050612acb7f19fe3ca603e87854a0747cc10abf06bac64d61bac73d6d15f2fd3ca448f152649394612aab836130be565b516001600160a01b03909216825260208201929092529081906040820190565b0390a1565b612ad9866138a8565b92612ae387613133565b935b8186821611612b3b575b505097516001600160a01b0390951685525050505060208101919091529091507fda148fac2e1063174be7bc0895576bdaba90fd14e575463fa26a967cb895cadd908060408101612acb565b8085612b5a86617fff8f95871c1694858852601b8c5287205416613133565b1015612b735790612b6c839282613a07565b9050612ae5565b50612aef565b969750899493507ffaeb8de771b867cf357f6b459a7002b62ec45d544a8078a3ecd91200cc826d7598999250612acb95601a91612bb461354d565b835252205416612bf1575b612bc8846134d8565b612bd1836130be565b516001600160a01b03928316815292909116602083015281906040820190565b612bfa846132fd565b612bbf565b5050505050612acb7f2e8038f5812f763c6ef0c5427cb5a05ce6d7064af2ba7d1d270bc02660b019fd9394612aab836134d8565b97929150612c448594979695613871565b97612c4e85613133565b97612c588a613469565b8460165416905b858116828111612d115782811015612cf5575080612c7f612c8592612860565b90613805565b9b909b5b8b1115612ca857612c9a908c61396e565b612ca38b613469565b612c5f565b505093516001600160a01b0390951685525050505060208101919091529092507f143db27bc2036653dc6f962ff9d0b803163d4af50c256ca9e6927b3d6dcd019791508060408101612acb565b849c919c5260188352612d0c858886205416613133565b612c89565b50505050505050612acb91929395507f143db27bc2036653dc6f962ff9d0b803163d4af50c256ca9e6927b3d6dcd01979450612aab565b909160018060a01b0392838316906000938285526020601a815261ffff95604094878683205416612f82578082526017835287868320541615612f71578415612ec95750612d9583613871565b97612d9f84613133565b985b6001808a83161115612eba5781617fff911c1690818452601885528a612dcb848a87205416613133565b1115612de057612ddb908261396e565b612da1565b505091939597509193955b6019541615612eb257612dfc613855565b60018252601883528581818420541692601b612e1785613133565b95612e20613863565b600183525220541691612e3283613133565b11612e7957505091516001600160a01b03909216825260208201527f143db27bc2036653dc6f962ff9d0b803163d4af50c256ca9e6927b3d6dcd0197908060408101612acb565b91509150612acb7ffaeb8de771b867cf357f6b459a7002b62ec45d544a8078a3ecd91200cc826d7593612eaa61354d565b612bbf613196565b505050505050565b50509193959750919395612deb565b829450612efd7f4a4c5d1a281180eea1e99d8177fa4798b9f7e019d5c57e7d8d73c6a22199aa5b9392989499969799613696565b8651908152a160195416612f115750505050565b7f2e8038f5812f763c6ef0c5427cb5a05ce6d7064af2ba7d1d270bc02660b019fd93601b8492612f3f613863565b6001835252205416612f65612f5382613133565b92612f5c613196565b612aab836134d8565b0390a1388080806121e7565b8551632a55ca5360e01b8152600490fd5b84969792939598919415613083575061fffe9193612f9f866138a8565b93612fa987613133565b9480966001958692831b168160195416925b61300f575b505099516001600160a01b039097168752505050506020830193909352509192507fda148fac2e1063174be7bc0895576bdaba90fd14e575463fa26a967cb895cadd9190508060408101612acb565b81811683811161307d578d90848110156130615750508061303261303892612860565b90613480565b9890985b88101561305c5761304d9089613a07565b61305688613469565b86612fbb565b612fc0565b8652601b8552852054909890613078908716613133565b61303c565b50612fc0565b949150506130b79194507f3168ba660eed6ef1dc2258b2247cc05fd0f2f350d39e6ad2e2ebc76a8000b40b959692506132fd565b51908152a1565b6122ae9061312d61ffff916130d68360195416612860565b9260018060a01b0382169081600052601a60205260406000209085169161ffff1991838382541617905582600052601b6020526040600020906001600160601b0360a01b8254161790556019541617601955613133565b90613414565b60ff60135416600381101561216a57600103613164576001600160a01b031660009081526015602052604090205490565b6001600160a01b031660009081526015602052604090206001015490565b61ffff9081166000190191908211611e5b57565b61ffff80601954169081156132eb57906001906131b581831115613951565b6000828152601b60208181526040808420805486865282862080546001600160a01b03928316808952601a8752858920805461ffff199081168c17909155918416808a52868a20805484168d17905588885283546001600160a01b03199081169092179093558a89528454169091179092559295879593949293929161324f91908a61324083613182565b169060195416176019556138cd565b848252808652613263848484205416613133565b95859860028160195416995b613281575b5050505050505050505050565b8181168a81116132e5578a8110156132ca5750806130326132a192612860565b9a909a5b8910156132c5576132b6908b613a07565b6132bf8a613469565b8761326f565b613274565b859b919b528383526132e0878787205416613133565b6132a5565b50613274565b6040516340d9b01160e01b8152600490fd5b613306906138a8565b61ffff9081601954169161331a8383613a07565b8061332484613182565b1661ffff19601954161760195561333a836138cd565b80821680931461340f579161fffe91600091808352601b9060209382855260018060a01b039260409261337a613374868686205416613133565b87613414565b825280865261338d848484205416613133565b9585986001988997881b168160195416995b6133b0575050505050505050505050565b8181168a81116132e5578a8110156133f45750806130326133d092612860565b9a909a5b8910156132c5576133e5908b613a07565b6133ee8a613469565b8761339f565b859b919b5283835261340a878787205416613133565b6133d4565b505050565b9190915b60018061ffff831611156134635781617fff911c16908361344e6000848152601b602052604060018060a01b0391205416613133565b10156134635761345e9082613a07565b613418565b50509050565b60011b906201fffe61fffe831692168203611e5b57565b91909161ffff92838216600052601b6020526134c360018060a01b036134ac8160406000205416613133565b958316600052601b60205260406000205416613133565b908185106134d15750509190565b9350919050565b6122ae9061354761ffff916134f08360165416612860565b9260018060a01b0382169081600052601760205260406000209085169161ffff199183838254161790558260005260186020526040600020906001600160601b0360a01b8254161790556016541617601655613133565b906137b6565b61ffff80601654169081156132eb579060019061356c81831115613951565b6000828152601860208181526040808420805486865282862080546001600160a01b0392831680895260178752858920805461ffff199081168c17909155918416808a52868a20805484168d17905588885283546001600160a01b03199081169092179093558a89528454169091179092559295879593949293929161360691908a6135f783613182565b1690601654161760165561390f565b84825280865261361a848484205416613133565b95859860028160165416995b613637575050505050505050505050565b8181168a81116132e5578a81101561367b575080612c7f61365792612860565b9a909a5b8911156132c55761366c908b61396e565b6136758a613469565b87613626565b859b919b52838352613691878787205416613133565b61365b565b61369f90613871565b9061ffff908160165416906136b4828561396e565b826136be83613182565b1661ffff1960165416176016556136d48261390f565b8284168092146137b05760009291929183835260189260209484865260018060a01b039160409161371261370c858585205416613133565b8a6137b6565b8152858752613725838383205416613133565b9561372f89613469565b978560165416985b8681168a81116137a2578a811015613787575080612c7f61375792612860565b9a909a5b89111561377a5761376c908b61396e565b6137758a613469565b613737565b5050505050505092505050565b849b919b5282825261379d868686205416613133565b61375b565b505050505050505092505050565b92505050565b9190915b60018061ffff831611156134635781617fff911c1690836137f060008481526018602052604060018060a01b0391205416613133565b111561346357613800908261396e565b6137ba565b919061ffff808416600052601860205261384660018060a01b0361382f8160406000205416613133565b928416600052601860205260406000205416613133565b93848211156134d15750509190565b61ffff60165416156132eb57565b61ffff60195416156132eb57565b6001600160a01b031660009081526017602052604090205461ffff1690811561389657565b60405163f2755e3760e01b8152600490fd5b6001600160a01b03166000908152601a602052604090205461ffff1690811561389657565b61ffff166000908152601b6020908152604080832080546001600160a01b031981169091556001600160a01b03168352601a9091529020805461ffff19169055565b61ffff16600090815260186020908152604080832080546001600160a01b031981169091556001600160a01b0316835260179091529020805461ffff19169055565b1561395857565b634e487b7160e01b600052600160045260246000fd5b61399361ffff80806016541693169361398984861115613951565b1691821115613951565b6000828152601860208181526040808420805486865282862080546001600160a01b0392831680895260178752858920805461ffff19908116909b1790559216808852938720805490981689179097559390925284546001600160a01b031990811690931790945593909152825416179055565b613a2261ffff80806019541693169361398984861115613951565b6000828152601b60208181526040808420805486865282862080546001600160a01b03928316808952601a8752858920805461ffff19908116909b1790559216808852938720805490981689179097559390925284546001600160a01b031990811690931790945593909152825416179055565b9035601e198236030181121561175b5701602081359101916001600160401b03821161175b57813603831361175b57565b908060209392818452848401376000828201840152601f01601f1916010190565b613b11613b06613af88380611e71565b604085526040850190611eb9565b916020810190611e71565b91602081830391015281359160ff831680930361175b57613b3e604091613b4e9484526020810190613a96565b9190928160208201520191613ac7565b90565b6020808252613b608380611e71565b6060918281850152613b7760809283860190611eb9565b613b8e604096838101358888015287810190611e85565b939096601f199686888286030191015284835283830191848660051b8501019880986000955b888710613bc957505050505050505050505090565b909192939495969798999a82828203018752613be58c85611e71565b90813560de198336030181121561175b578782528201918a90888e6001600160401b03613c5c613c4c613c39613c30613c1e8b80611e71565b60e080988c01526101208b0190613ae8565b978a018a611e71565b96603f1997888a830301868b0152613ae8565b928d8901358d8901528801611cca565b169060a091828701528a8701359263ffffffff60e01b841680940361175b578f95613c93613ca39460c096878b01528a018a613a96565b9290918985030190890152613ac7565b94013561010084015201359081151580920361175b578a01529a8801999897966001019587019493929190613bb4565b814710613d35576000918291829182916001600160a01b03165af13d15613d30573d613cfe81611c48565b90613d0c6040519283611c27565b8152600060203d92013e5b15613d1e57565b604051630a12f52160e11b8152600490fd5b613d17565b60405163cd78605960e01b8152306004820152602490fd5b60ff60125460101c16613d5c57565b60405163248c8efb60e11b8152600490fd5b60405190608082018281106001600160401b038211176104fd576040526045825264185c1c195960da1b6060837f4d6574686f64206e6f7420616c6c6f776564206966207065726d697373696f6e60208201527f656420697320656e61626c656420616e64207375626e657420626f6f7473747260408201520152565b90602091613e0481518092818552858086019101612250565b601f01601f1916010190565b6001600160a01b0316600090815260156020526040902090929190600301906001600160401b0381116104fd57613e5181613e4b8454612180565b84612273565b6000601f8211600114613e8a5781929394600092613e7f5750508160011b916000199060031b1c1916179055565b013590503880612307565b601f198216948382526020918281209281905b888210613ed557505083600195969710613ebb57505050811b019055565b0135600019600384901b60f8161c19169055388080612358565b80600184968294958701358155019501920190613e9d565b600154811015612025576003906001600052027fb10e2d527612073b26eecdfd717e6a320cf44b4afac2b0732d9fcbe2b7fa0cf60190600090565b90613f3d90613f37818461411b565b826128cd565b60ff60125460081c1615613f4e5750565b60018054600082815b8381106140cb575b505015613f6b57505050565b6001600160a01b038316600090815260156020526040902082810154613fc194909160030160405192613f9d84611c0c565b8352602093613fc88585019260018060a01b038095168452604051988980926121ba565b0388611c27565b60408401968752600160401b8110156104fd578086613fe992018755613eed565b92909261089d576002935183558583019151166001600160601b0360a01b825416179055019251908151916001600160401b0383116104fd57614030836125e38754612180565b81601f8411600114614069575092829391839260009461405e575b50501b916000199060031b1c1916179055565b01519250388061404b565b919083601f1981168760005284600020946000905b888383106140b1575050501061409857505050811b019055565b015160001960f88460031b161c19169055388080612358565b85870151885590960195948501948793509081019061407e565b6000829052600381027fb10e2d527612073b26eecdfd717e6a320cf44b4afac2b0732d9fcbe2b7fa0cf701546001600160a01b0387811691161461411157018390613f57565b5090508238613f5f565b60018060a01b0316600052601560205261413e6002604060002001918254611e4e565b9055565b9190604051928160208501526020845261415b84611bde565b6001600160401b03601c5416936040519461417586611c0c565b60008652602086019582875260018060a01b038416604082015281600052601d60205260406000209681516141a981612160565b6141b281612160565b60ff80198a54169116178855519687516001600160401b0381116104fd576141ea816141e16001850154612180565b60018501612273565b6020601f82116001146142bc576142a3949282600080516020614fe18339815191529795936002936122ae9c9d6000926142b1575b50508160011b916000199060031b1c19161760018201555b0190604060018060a01b03910151166001600160601b0360a01b8254161790556001600160401b0361426882612398565b166001600160401b0319601c541617601c556040519283926000845260018060a01b0387166020850152608060408501526080840190613deb565b9060608301520390a161411b565b01519050388061421f565b6001830160005260206000209960005b601f198416811061432f5750926001836122ae9b9c6002946142a39997600080516020614fe18339815191529b9997601f19811610614316575b505050811b016001820155614237565b015160001960f88460031b161c19169055388080614306565b828201518c556001909b019a602092830192016142cc565b60ff60135416600381101561216a576108d757565b601454600a5481101561436d575b50565b61ffff601654166001600160401b03600c541611156143895750565b61010061ff00196012541617601255604080516020908181018282526001805480925284830190858360051b850101926000958287527fb10e2d527612073b26eecdfd717e6a320cf44b4afac2b0732d9fcbe2b7fa0cf69387905b89848310614478575050505050505090807f4914d88063275a25a13b2df37125e216745d812f94c56504be4bd78cf60c9593920390a160018060a01b03600e54166144326002548095611e4e565b93813b156109ee57906024839285519687938492637903ab2760e11b845260048401525af191821561446e5750501561436a576122ae90611bf9565b51903d90823e3d90fd5b9260036144b687989995839798949596603f198d82030187528b54815260018060a01b03868d01541685820152606080928201520160028b016121ba565b98019201920190949392916143e4565b6144ce614347565b801561453557336000908152601560205260409020600201548015611aff578110156145245760ff60125460081c161561450c576122ae903361459a565b8061451a6122ae9233614547565b610f368133612973565b60405162d11df360e61b8152600490fd5b60405163c79cad7b60e01b8152600490fd5b6001600160a01b03166000818152601560205260409020600201549091808210614588576145749161291d565b906000526015602052600260406000200155565b60405163ac69360360e01b8152600490fd5b919060405192816020850152602084526145b384611bde565b6001600160401b03601c541693604051946145cd86611c0c565b60018652602086019582875260018060a01b038416604082015281600052601d602052604060002096815161460181612160565b61460a81612160565b60ff80198a54169116178855519687516001600160401b0381116104fd57614639816141e16001850154612180565b6020601f821160011461470b576146f2949282600080516020614fe18339815191529795936002936122ae9c9d600092614700575b50508160011b916000199060031b1c19161760018201555b0190604060018060a01b03910151166001600160601b0360a01b8254161790556001600160401b036146b782612398565b166001600160401b0319601c541617601c556040519283926001845260018060a01b0387166020850152608060408501526080840190613deb565b9060608301520390a1614547565b01519050388061466e565b6001830160005260206000209960005b601f198416811061477e5750926001836122ae9b9c6002946146f29997600080516020614fe18339815191529b9997601f19811610614765575b505050811b016001820155614686565b015160001960f88460031b161c19169055388080614755565b828201518c556001909b019a6020928301920161471b565b60ff60125460081c16614883575b336000908152601560205260409020600201548015611aff576147c633614890565b50600090338252602460205281604081206147e18154612180565b80614846575b50505060ff60125460081c1615614803576122ae91503361459a565b60406122ae923381526003602052205480614824575b5061451a8133614547565b806148346148409260025461291d565b600255610f3633614ea8565b38614819565b82601f821160011461485e575050555b8138806147e7565b909180825261487c601f60208420940160051c840160018501611fc3565b5555614856565b61488b614347565b6147a4565b60008181526026602052604081205490919080156149755760001990808201818111614961576025549083820191821161494d57808203614919575b5050506025548015614905578101906148e48261203b565b909182549160031b1b19169055602555815260266020526040812055600190565b634e487b7160e01b84526031600452602484fd5b6149376149286120ab9361203b565b90549060031b1c92839261203b565b90558452602660205260408420553880806148cc565b634e487b7160e01b86526011600452602486fd5b634e487b7160e01b85526011600452602485fd5b505090565b80518210156120255760209160051b010190565b919091821561340f576040908151906020938483018381106001600160401b038211176104fd5784526000928390526002811015614b1d5780614a7e5750600b546149d89161291d565b8152602283528181208251808286829454938481520190855286852092855b88828210614a6857505050614a0e92500382611c27565b928351948515612eb257858110612eb25785900493825b868110614a355750505050505050565b6001906001600160a01b03614a4a828561497a565b5116855260218452858520614a60888254611e4e565b905501614a25565b85548452600195860195879550930192016149f7565b846001859214600014614ace57606491519063015538b160e01b82526004820152601f60248201527f72657761726473206e6f7420646566696e656420666f722062617463686573006044820152fd5b608491519063015538b160e01b82526004820152602360248201527f72657761726473206e6f7420646566696e656420666f72206f626a656374206b6044820152621a5b9960ea1b6064820152fd5b634e487b7160e01b83526021600452602483fd5b91825191614b3e83611cde565b93604094614b4e86519182611c27565b848152601f19614b5d86611cde565b0194602095368784013760005b818110614c3457505060009461ffff8060165416600192839182945b614be3575b505050505060ff600e5460a01c1694858102958187041490151715611e5b576064614bb7950491614cab565b9015614bc1575050565b600681101561216a5760ff602492519163282ef1c160e01b8352166004820152fd5b90919293988a858b16838111614c2c5760009081526018855220548493929186918591614c2291614c1c906001600160a01b0316613133565b90611e4e565b9b01169493614b86565b505098614b8b565b6001600160a01b0380614c47838761497a565b51166000526017885261ffff89600020541615614c875790614c76600192614c6f838861497a565b5116613133565b614c80828661497a565b5201614b6a565b8890614c956024938761497a565b519151633b4f6e2b60e21b815291166004820152fd5b84519294600094908415614d935782518514801590614d88575b614d7b579392919085945b848610614cf3575050505050501015614ceb57600090600590565b600190600090565b909192939495614d0d614d06888461497a565b5184614da0565b50614d1781612160565b614d6a576001600160a01b0380614d2e8a8861497a565b5116911603614d5a57614d4e600191614d47898861497a565b5190611e4e565b96019493929190614cd0565b5050505050505050600090600390565b505050505050505050600090600490565b5050505050905090600190565b508351851415614cc5565b5050505050905090600290565b8151919060418303614dd157614dca92506020820151906060604084015193015160001a90614ddc565b9192909190565b505060009160029190565b91907f7fffffffffffffffffffffffffffffff5d576e7357a4501ddfe92f46681b20a08411614e6057926020929160ff608095604051948552168484015260408301526060820152600092839182805260015afa15614e545780516001600160a01b03811615614e4b57918190565b50809160019190565b604051903d90823e3d90fd5b50505060009160039190565b90614e7960418214613951565b8060011161175b57614e949136916000190190600101611c63565b80516020909101206001600160a01b031690565b60049081549160005b838110614ebe5750505050565b614ec781611fee565b90546003916001600160a01b039190831b1c811685821614614eed575050600101614eb1565b929350939060001991828101908111614f7a5790614f1e84614f11614f3d94611fee565b905490891b1c1691611fee565b90919082549060031b9160018060a01b03809116831b921b1916179055565b82548015614f65570192614f5084611fee565b81939154921b1b1916905555388080806121e7565b603184634e487b7160e01b6000525260246000fd5b601185634e487b7160e01b6000525260246000fd5b91908110156120255760051b81013590601e198136030182121561175b5701908135916001600160401b03831161175b57602001823603811361175b579190565b91908110156120255760051b019056fe1c593a2b803c3f9038e8b6743ba79fbc4276d2770979a01d2768ed12bea3243fc451c9429c27db68f286ab8a68f311f1dccab703ba9423aed29cd397ae63f863691bb03ffc16c56fc96b82fd16cd1b3715f0bc3cdc6407005f49bb6205860095a264697066735822122042dffaa19dc9e1b8bbdcd04c9b637bf5ccffee837c7c45a1a7feadcf0e02202464736f6c63430008130033","linkReferences":{"src/lib/LibStaking.sol":{"LibStaking":[{"start":337,"length":20}]}}},"methodIdentifiers":{"addBootstrapNode(string)":"10fd4261","claim()":"4e71d92d","claimRewardForRelayer()":"ed7c4da1","confirmChange(uint64)":"350a14bf","confirmNextChange()":"c7ebdaef","distributeRewardToRelayers(uint256,uint256,uint8)":"4c860af6","join(bytes)":"6170b162","kill()":"41c0e1b5","leave()":"d66d9e19","pause()":"8456cb59","paused()":"5c975abb","preFund()":"0b7fbe60","preRelease(uint256)":"66783c9b","setFederatedPower(address[],bytes[],uint256[])":"da5d09ee","stake()":"3a4b66f1","submitBottomUpMsgBatch(((uint64,address[]),uint256,((((uint64,address[]),(uint8,bytes)),((uint64,address[]),(uint8,bytes)),uint256,uint64,bytes4,bytes,uint256),bool)[]),address[],bytes[])":"26811936","submitCheckpoint(((uint64,address[]),uint256,bytes32,uint64),address[],bytes[])":"b9ee2bb9","unpause()":"3f4ba83a","unstake(uint256)":"2e17de78","validateActiveQuorumSignatures(address[],bytes32,bytes[])":"cc2dc2b9"},"id":96}